{
	"contracts/basics.sol": {
		"Person": {
			"abi": [
				{
					"inputs": [
						{
							"internalType": "string",
							"name": "_name",
							"type": "string"
						},
						{
							"internalType": "uint256",
							"name": "_age",
							"type": "uint256"
						}
					],
					"stateMutability": "nonpayable",
					"type": "constructor"
				},
				{
					"inputs": [],
					"name": "age",
					"outputs": [
						{
							"internalType": "uint256",
							"name": "",
							"type": "uint256"
						}
					],
					"stateMutability": "view",
					"type": "function"
				},
				{
					"inputs": [
						{
							"internalType": "string",
							"name": "_color",
							"type": "string"
						},
						{
							"internalType": "string",
							"name": "_country",
							"type": "string"
						},
						{
							"internalType": "uint256",
							"name": "_height",
							"type": "uint256"
						}
					],
					"name": "assignValues",
					"outputs": [],
					"stateMutability": "nonpayable",
					"type": "function"
				},
				{
					"inputs": [],
					"name": "characterOfAPerson",
					"outputs": [
						{
							"internalType": "string",
							"name": "color",
							"type": "string"
						},
						{
							"internalType": "string",
							"name": "country",
							"type": "string"
						},
						{
							"internalType": "uint256",
							"name": "height",
							"type": "uint256"
						}
					],
					"stateMutability": "view",
					"type": "function"
				},
				{
					"inputs": [
						{
							"internalType": "uint256",
							"name": "a",
							"type": "uint256"
						},
						{
							"internalType": "uint256",
							"name": "b",
							"type": "uint256"
						}
					],
					"name": "enterValues",
					"outputs": [],
					"stateMutability": "nonpayable",
					"type": "function"
				},
				{
					"inputs": [
						{
							"internalType": "uint256",
							"name": "a",
							"type": "uint256"
						},
						{
							"internalType": "uint256",
							"name": "b",
							"type": "uint256"
						},
						{
							"internalType": "uint256",
							"name": "c",
							"type": "uint256"
						},
						{
							"internalType": "uint256",
							"name": "d",
							"type": "uint256"
						}
					],
					"name": "enterValuesAgain",
					"outputs": [],
					"stateMutability": "nonpayable",
					"type": "function"
				},
				{
					"inputs": [
						{
							"internalType": "uint256",
							"name": "",
							"type": "uint256"
						}
					],
					"name": "luckNumbers2",
					"outputs": [
						{
							"internalType": "uint256",
							"name": "",
							"type": "uint256"
						}
					],
					"stateMutability": "view",
					"type": "function"
				},
				{
					"inputs": [
						{
							"internalType": "uint256",
							"name": "",
							"type": "uint256"
						}
					],
					"name": "luckyNumbers",
					"outputs": [
						{
							"internalType": "uint256",
							"name": "",
							"type": "uint256"
						}
					],
					"stateMutability": "view",
					"type": "function"
				},
				{
					"inputs": [],
					"name": "name",
					"outputs": [
						{
							"internalType": "string",
							"name": "",
							"type": "string"
						}
					],
					"stateMutability": "view",
					"type": "function"
				}
			],
			"devdoc": {
				"kind": "dev",
				"methods": {},
				"version": 1
			},
			"evm": {
				"assembly": "    /* \"contracts/basics.sol\":96:1700  contract Person{\r... */\n  mstore(0x40, 0x80)\n    /* \"contracts/basics.sol\":315:475  constructor(string memory _name,uint _age) public{\r... */\n  callvalue\n  dup1\n  iszero\n  tag_1\n  jumpi\n  0x00\n  dup1\n  revert\ntag_1:\n  pop\n  mload(0x40)\n  sub(codesize, bytecodeSize)\n  dup1\n  bytecodeSize\n  dup4\n  codecopy\n  dup2\n  dup2\n  add\n  0x40\n  mstore\n  dup2\n  add\n  swap1\n  tag_2\n  swap2\n  swap1\n  tag_3\n  jump\t// in\ntag_2:\n    /* \"contracts/basics.sol\":384:389  _name */\n  dup2\n    /* \"contracts/basics.sol\":377:381  name */\n  0x00\n    /* \"contracts/basics.sol\":377:389  name = _name */\n  swap1\n  dup1\n  mload\n  swap1\n  0x20\n  add\n  swap1\n  tag_6\n  swap3\n  swap2\n  swap1\n  tag_7\n  jump\t// in\ntag_6:\n  pop\n    /* \"contracts/basics.sol\":461:465  _age */\n  dup1\n    /* \"contracts/basics.sol\":454:457  age */\n  0x01\n    /* \"contracts/basics.sol\":454:465  age  = _age */\n  dup2\n  swap1\n  sstore\n  pop\n    /* \"contracts/basics.sol\":315:475  constructor(string memory _name,uint _age) public{\r... */\n  pop\n  pop\n    /* \"contracts/basics.sol\":96:1700  contract Person{\r... */\n  jump(tag_8)\ntag_7:\n  dup3\n  dup1\n  sload\n  tag_9\n  swap1\n  tag_10\n  jump\t// in\ntag_9:\n  swap1\n  0x00\n  mstore\n  keccak256(0x00, 0x20)\n  swap1\n  0x1f\n  add\n  0x20\n  swap1\n  div\n  dup2\n  add\n  swap3\n  dup3\n  tag_12\n  jumpi\n  0x00\n  dup6\n  sstore\n  jump(tag_11)\ntag_12:\n  dup3\n  0x1f\n  lt\n  tag_13\n  jumpi\n  dup1\n  mload\n  not(0xff)\n  and\n  dup4\n  dup1\n  add\n  or\n  dup6\n  sstore\n  jump(tag_11)\ntag_13:\n  dup3\n  dup1\n  add\n  0x01\n  add\n  dup6\n  sstore\n  dup3\n  iszero\n  tag_11\n  jumpi\n  swap2\n  dup3\n  add\ntag_14:\n  dup3\n  dup2\n  gt\n  iszero\n  tag_15\n  jumpi\n  dup3\n  mload\n  dup3\n  sstore\n  swap2\n  0x20\n  add\n  swap2\n  swap1\n  0x01\n  add\n  swap1\n  jump(tag_14)\ntag_15:\ntag_11:\n  pop\n  swap1\n  pop\n  tag_16\n  swap2\n  swap1\n  tag_17\n  jump\t// in\ntag_16:\n  pop\n  swap1\n  jump\t// out\ntag_17:\ntag_18:\n  dup1\n  dup3\n  gt\n  iszero\n  tag_19\n  jumpi\n  0x00\n  dup2\n  0x00\n  swap1\n  sstore\n  pop\n  0x01\n  add\n  jump(tag_18)\ntag_19:\n  pop\n  swap1\n  jump\t// out\n    /* \"#utility.yul\":7:428   */\ntag_21:\n    /* \"#utility.yul\":96:101   */\n  0x00\n    /* \"#utility.yul\":121:187   */\n  tag_23\n    /* \"#utility.yul\":137:186   */\n  tag_24\n    /* \"#utility.yul\":179:185   */\n  dup5\n    /* \"#utility.yul\":137:186   */\n  tag_25\n  jump\t// in\ntag_24:\n    /* \"#utility.yul\":121:187   */\n  tag_26\n  jump\t// in\ntag_23:\n    /* \"#utility.yul\":112:187   */\n  swap1\n  pop\n    /* \"#utility.yul\":210:216   */\n  dup3\n    /* \"#utility.yul\":203:208   */\n  dup2\n    /* \"#utility.yul\":196:217   */\n  mstore\n    /* \"#utility.yul\":248:252   */\n  0x20\n    /* \"#utility.yul\":241:246   */\n  dup2\n    /* \"#utility.yul\":237:253   */\n  add\n    /* \"#utility.yul\":286:289   */\n  dup5\n    /* \"#utility.yul\":277:283   */\n  dup5\n    /* \"#utility.yul\":272:275   */\n  dup5\n    /* \"#utility.yul\":268:284   */\n  add\n    /* \"#utility.yul\":265:290   */\n  gt\n    /* \"#utility.yul\":262:374   */\n  iszero\n  tag_27\n  jumpi\n    /* \"#utility.yul\":293:372   */\n  tag_28\n  tag_29\n  jump\t// in\ntag_28:\n    /* \"#utility.yul\":262:374   */\ntag_27:\n    /* \"#utility.yul\":383:422   */\n  tag_30\n    /* \"#utility.yul\":415:421   */\n  dup5\n    /* \"#utility.yul\":410:413   */\n  dup3\n    /* \"#utility.yul\":405:408   */\n  dup6\n    /* \"#utility.yul\":383:422   */\n  tag_31\n  jump\t// in\ntag_30:\n    /* \"#utility.yul\":102:428   */\n  pop\n    /* \"#utility.yul\":7:428   */\n  swap4\n  swap3\n  pop\n  pop\n  pop\n  jump\t// out\n    /* \"#utility.yul\":448:803   */\ntag_32:\n    /* \"#utility.yul\":515:520   */\n  0x00\n    /* \"#utility.yul\":564:567   */\n  dup3\n    /* \"#utility.yul\":557:561   */\n  0x1f\n    /* \"#utility.yul\":549:555   */\n  dup4\n    /* \"#utility.yul\":545:562   */\n  add\n    /* \"#utility.yul\":541:568   */\n  slt\n    /* \"#utility.yul\":531:653   */\n  tag_34\n  jumpi\n    /* \"#utility.yul\":572:651   */\n  tag_35\n  tag_36\n  jump\t// in\ntag_35:\n    /* \"#utility.yul\":531:653   */\ntag_34:\n    /* \"#utility.yul\":682:688   */\n  dup2\n    /* \"#utility.yul\":676:689   */\n  mload\n    /* \"#utility.yul\":707:797   */\n  tag_37\n    /* \"#utility.yul\":793:796   */\n  dup5\n    /* \"#utility.yul\":785:791   */\n  dup3\n    /* \"#utility.yul\":778:782   */\n  0x20\n    /* \"#utility.yul\":770:776   */\n  dup7\n    /* \"#utility.yul\":766:783   */\n  add\n    /* \"#utility.yul\":707:797   */\n  tag_21\n  jump\t// in\ntag_37:\n    /* \"#utility.yul\":698:797   */\n  swap2\n  pop\n    /* \"#utility.yul\":521:803   */\n  pop\n    /* \"#utility.yul\":448:803   */\n  swap3\n  swap2\n  pop\n  pop\n  jump\t// out\n    /* \"#utility.yul\":809:952   */\ntag_38:\n    /* \"#utility.yul\":866:871   */\n  0x00\n    /* \"#utility.yul\":897:903   */\n  dup2\n    /* \"#utility.yul\":891:904   */\n  mload\n    /* \"#utility.yul\":882:904   */\n  swap1\n  pop\n    /* \"#utility.yul\":913:946   */\n  tag_40\n    /* \"#utility.yul\":940:945   */\n  dup2\n    /* \"#utility.yul\":913:946   */\n  tag_41\n  jump\t// in\ntag_40:\n    /* \"#utility.yul\":809:952   */\n  swap3\n  swap2\n  pop\n  pop\n  jump\t// out\n    /* \"#utility.yul\":958:1638   */\ntag_3:\n    /* \"#utility.yul\":1047:1053   */\n  0x00\n    /* \"#utility.yul\":1055:1061   */\n  dup1\n    /* \"#utility.yul\":1104:1106   */\n  0x40\n    /* \"#utility.yul\":1092:1101   */\n  dup4\n    /* \"#utility.yul\":1083:1090   */\n  dup6\n    /* \"#utility.yul\":1079:1102   */\n  sub\n    /* \"#utility.yul\":1075:1107   */\n  slt\n    /* \"#utility.yul\":1072:1191   */\n  iszero\n  tag_43\n  jumpi\n    /* \"#utility.yul\":1110:1189   */\n  tag_44\n  tag_45\n  jump\t// in\ntag_44:\n    /* \"#utility.yul\":1072:1191   */\ntag_43:\n    /* \"#utility.yul\":1251:1252   */\n  0x00\n    /* \"#utility.yul\":1240:1249   */\n  dup4\n    /* \"#utility.yul\":1236:1253   */\n  add\n    /* \"#utility.yul\":1230:1254   */\n  mload\n    /* \"#utility.yul\":1281:1299   */\n  0xffffffffffffffff\n    /* \"#utility.yul\":1273:1279   */\n  dup2\n    /* \"#utility.yul\":1270:1300   */\n  gt\n    /* \"#utility.yul\":1267:1384   */\n  iszero\n  tag_46\n  jumpi\n    /* \"#utility.yul\":1303:1382   */\n  tag_47\n  tag_48\n  jump\t// in\ntag_47:\n    /* \"#utility.yul\":1267:1384   */\ntag_46:\n    /* \"#utility.yul\":1408:1482   */\n  tag_49\n    /* \"#utility.yul\":1474:1481   */\n  dup6\n    /* \"#utility.yul\":1465:1471   */\n  dup3\n    /* \"#utility.yul\":1454:1463   */\n  dup7\n    /* \"#utility.yul\":1450:1472   */\n  add\n    /* \"#utility.yul\":1408:1482   */\n  tag_32\n  jump\t// in\ntag_49:\n    /* \"#utility.yul\":1398:1482   */\n  swap3\n  pop\n    /* \"#utility.yul\":1201:1492   */\n  pop\n    /* \"#utility.yul\":1531:1533   */\n  0x20\n    /* \"#utility.yul\":1557:1621   */\n  tag_50\n    /* \"#utility.yul\":1613:1620   */\n  dup6\n    /* \"#utility.yul\":1604:1610   */\n  dup3\n    /* \"#utility.yul\":1593:1602   */\n  dup7\n    /* \"#utility.yul\":1589:1611   */\n  add\n    /* \"#utility.yul\":1557:1621   */\n  tag_38\n  jump\t// in\ntag_50:\n    /* \"#utility.yul\":1547:1621   */\n  swap2\n  pop\n    /* \"#utility.yul\":1502:1631   */\n  pop\n    /* \"#utility.yul\":958:1638   */\n  swap3\n  pop\n  swap3\n  swap1\n  pop\n  jump\t// out\n    /* \"#utility.yul\":1644:1773   */\ntag_26:\n    /* \"#utility.yul\":1678:1684   */\n  0x00\n    /* \"#utility.yul\":1705:1725   */\n  tag_52\n  tag_53\n  jump\t// in\ntag_52:\n    /* \"#utility.yul\":1695:1725   */\n  swap1\n  pop\n    /* \"#utility.yul\":1734:1767   */\n  tag_54\n    /* \"#utility.yul\":1762:1766   */\n  dup3\n    /* \"#utility.yul\":1754:1760   */\n  dup3\n    /* \"#utility.yul\":1734:1767   */\n  tag_55\n  jump\t// in\ntag_54:\n    /* \"#utility.yul\":1644:1773   */\n  swap2\n  swap1\n  pop\n  jump\t// out\n    /* \"#utility.yul\":1779:1854   */\ntag_53:\n    /* \"#utility.yul\":1812:1818   */\n  0x00\n    /* \"#utility.yul\":1845:1847   */\n  0x40\n    /* \"#utility.yul\":1839:1848   */\n  mload\n    /* \"#utility.yul\":1829:1848   */\n  swap1\n  pop\n    /* \"#utility.yul\":1779:1854   */\n  swap1\n  jump\t// out\n    /* \"#utility.yul\":1860:2168   */\ntag_25:\n    /* \"#utility.yul\":1922:1926   */\n  0x00\n    /* \"#utility.yul\":2012:2030   */\n  0xffffffffffffffff\n    /* \"#utility.yul\":2004:2010   */\n  dup3\n    /* \"#utility.yul\":2001:2031   */\n  gt\n    /* \"#utility.yul\":1998:2054   */\n  iszero\n  tag_58\n  jumpi\n    /* \"#utility.yul\":2034:2052   */\n  tag_59\n  tag_60\n  jump\t// in\ntag_59:\n    /* \"#utility.yul\":1998:2054   */\ntag_58:\n    /* \"#utility.yul\":2072:2101   */\n  tag_61\n    /* \"#utility.yul\":2094:2100   */\n  dup3\n    /* \"#utility.yul\":2072:2101   */\n  tag_62\n  jump\t// in\ntag_61:\n    /* \"#utility.yul\":2064:2101   */\n  swap1\n  pop\n    /* \"#utility.yul\":2156:2160   */\n  0x20\n    /* \"#utility.yul\":2150:2154   */\n  dup2\n    /* \"#utility.yul\":2146:2161   */\n  add\n    /* \"#utility.yul\":2138:2161   */\n  swap1\n  pop\n    /* \"#utility.yul\":1860:2168   */\n  swap2\n  swap1\n  pop\n  jump\t// out\n    /* \"#utility.yul\":2174:2251   */\ntag_63:\n    /* \"#utility.yul\":2211:2218   */\n  0x00\n    /* \"#utility.yul\":2240:2245   */\n  dup2\n    /* \"#utility.yul\":2229:2245   */\n  swap1\n  pop\n    /* \"#utility.yul\":2174:2251   */\n  swap2\n  swap1\n  pop\n  jump\t// out\n    /* \"#utility.yul\":2257:2564   */\ntag_31:\n    /* \"#utility.yul\":2325:2326   */\n  0x00\n    /* \"#utility.yul\":2335:2448   */\ntag_66:\n    /* \"#utility.yul\":2349:2355   */\n  dup4\n    /* \"#utility.yul\":2346:2347   */\n  dup2\n    /* \"#utility.yul\":2343:2356   */\n  lt\n    /* \"#utility.yul\":2335:2448   */\n  iszero\n  tag_68\n  jumpi\n    /* \"#utility.yul\":2434:2435   */\n  dup1\n    /* \"#utility.yul\":2429:2432   */\n  dup3\n    /* \"#utility.yul\":2425:2436   */\n  add\n    /* \"#utility.yul\":2419:2437   */\n  mload\n    /* \"#utility.yul\":2415:2416   */\n  dup2\n    /* \"#utility.yul\":2410:2413   */\n  dup5\n    /* \"#utility.yul\":2406:2417   */\n  add\n    /* \"#utility.yul\":2399:2438   */\n  mstore\n    /* \"#utility.yul\":2371:2373   */\n  0x20\n    /* \"#utility.yul\":2368:2369   */\n  dup2\n    /* \"#utility.yul\":2364:2374   */\n  add\n    /* \"#utility.yul\":2359:2374   */\n  swap1\n  pop\n    /* \"#utility.yul\":2335:2448   */\n  jump(tag_66)\ntag_68:\n    /* \"#utility.yul\":2466:2472   */\n  dup4\n    /* \"#utility.yul\":2463:2464   */\n  dup2\n    /* \"#utility.yul\":2460:2473   */\n  gt\n    /* \"#utility.yul\":2457:2558   */\n  iszero\n  tag_69\n  jumpi\n    /* \"#utility.yul\":2546:2547   */\n  0x00\n    /* \"#utility.yul\":2537:2543   */\n  dup5\n    /* \"#utility.yul\":2532:2535   */\n  dup5\n    /* \"#utility.yul\":2528:2544   */\n  add\n    /* \"#utility.yul\":2521:2548   */\n  mstore\n    /* \"#utility.yul\":2457:2558   */\ntag_69:\n    /* \"#utility.yul\":2306:2564   */\n  pop\n    /* \"#utility.yul\":2257:2564   */\n  pop\n  pop\n  pop\n  jump\t// out\n    /* \"#utility.yul\":2570:2890   */\ntag_10:\n    /* \"#utility.yul\":2614:2620   */\n  0x00\n    /* \"#utility.yul\":2651:2652   */\n  0x02\n    /* \"#utility.yul\":2645:2649   */\n  dup3\n    /* \"#utility.yul\":2641:2653   */\n  div\n    /* \"#utility.yul\":2631:2653   */\n  swap1\n  pop\n    /* \"#utility.yul\":2698:2699   */\n  0x01\n    /* \"#utility.yul\":2692:2696   */\n  dup3\n    /* \"#utility.yul\":2688:2700   */\n  and\n    /* \"#utility.yul\":2719:2737   */\n  dup1\n    /* \"#utility.yul\":2709:2790   */\n  tag_71\n  jumpi\n    /* \"#utility.yul\":2775:2779   */\n  0x7f\n    /* \"#utility.yul\":2767:2773   */\n  dup3\n    /* \"#utility.yul\":2763:2780   */\n  and\n    /* \"#utility.yul\":2753:2780   */\n  swap2\n  pop\n    /* \"#utility.yul\":2709:2790   */\ntag_71:\n    /* \"#utility.yul\":2837:2839   */\n  0x20\n    /* \"#utility.yul\":2829:2835   */\n  dup3\n    /* \"#utility.yul\":2826:2840   */\n  lt\n    /* \"#utility.yul\":2806:2824   */\n  dup2\n    /* \"#utility.yul\":2803:2841   */\n  eq\n    /* \"#utility.yul\":2800:2884   */\n  iszero\n  tag_72\n  jumpi\n    /* \"#utility.yul\":2856:2874   */\n  tag_73\n  tag_74\n  jump\t// in\ntag_73:\n    /* \"#utility.yul\":2800:2884   */\ntag_72:\n    /* \"#utility.yul\":2621:2890   */\n  pop\n    /* \"#utility.yul\":2570:2890   */\n  swap2\n  swap1\n  pop\n  jump\t// out\n    /* \"#utility.yul\":2896:3177   */\ntag_55:\n    /* \"#utility.yul\":2979:3006   */\n  tag_76\n    /* \"#utility.yul\":3001:3005   */\n  dup3\n    /* \"#utility.yul\":2979:3006   */\n  tag_62\n  jump\t// in\ntag_76:\n    /* \"#utility.yul\":2971:2977   */\n  dup2\n    /* \"#utility.yul\":2967:3007   */\n  add\n    /* \"#utility.yul\":3109:3115   */\n  dup2\n    /* \"#utility.yul\":3097:3107   */\n  dup2\n    /* \"#utility.yul\":3094:3116   */\n  lt\n    /* \"#utility.yul\":3073:3091   */\n  0xffffffffffffffff\n    /* \"#utility.yul\":3061:3071   */\n  dup3\n    /* \"#utility.yul\":3058:3092   */\n  gt\n    /* \"#utility.yul\":3055:3117   */\n  or\n    /* \"#utility.yul\":3052:3140   */\n  iszero\n  tag_77\n  jumpi\n    /* \"#utility.yul\":3120:3138   */\n  tag_78\n  tag_60\n  jump\t// in\ntag_78:\n    /* \"#utility.yul\":3052:3140   */\ntag_77:\n    /* \"#utility.yul\":3160:3170   */\n  dup1\n    /* \"#utility.yul\":3156:3158   */\n  0x40\n    /* \"#utility.yul\":3149:3171   */\n  mstore\n    /* \"#utility.yul\":2939:3177   */\n  pop\n    /* \"#utility.yul\":2896:3177   */\n  pop\n  pop\n  jump\t// out\n    /* \"#utility.yul\":3183:3363   */\ntag_74:\n    /* \"#utility.yul\":3231:3308   */\n  0x4e487b7100000000000000000000000000000000000000000000000000000000\n    /* \"#utility.yul\":3228:3229   */\n  0x00\n    /* \"#utility.yul\":3221:3309   */\n  mstore\n    /* \"#utility.yul\":3328:3332   */\n  0x22\n    /* \"#utility.yul\":3325:3326   */\n  0x04\n    /* \"#utility.yul\":3318:3333   */\n  mstore\n    /* \"#utility.yul\":3352:3356   */\n  0x24\n    /* \"#utility.yul\":3349:3350   */\n  0x00\n    /* \"#utility.yul\":3342:3357   */\n  revert\n    /* \"#utility.yul\":3369:3549   */\ntag_60:\n    /* \"#utility.yul\":3417:3494   */\n  0x4e487b7100000000000000000000000000000000000000000000000000000000\n    /* \"#utility.yul\":3414:3415   */\n  0x00\n    /* \"#utility.yul\":3407:3495   */\n  mstore\n    /* \"#utility.yul\":3514:3518   */\n  0x41\n    /* \"#utility.yul\":3511:3512   */\n  0x04\n    /* \"#utility.yul\":3504:3519   */\n  mstore\n    /* \"#utility.yul\":3538:3542   */\n  0x24\n    /* \"#utility.yul\":3535:3536   */\n  0x00\n    /* \"#utility.yul\":3528:3543   */\n  revert\n    /* \"#utility.yul\":3555:3672   */\ntag_36:\n    /* \"#utility.yul\":3664:3665   */\n  0x00\n    /* \"#utility.yul\":3661:3662   */\n  dup1\n    /* \"#utility.yul\":3654:3666   */\n  revert\n    /* \"#utility.yul\":3678:3795   */\ntag_29:\n    /* \"#utility.yul\":3787:3788   */\n  0x00\n    /* \"#utility.yul\":3784:3785   */\n  dup1\n    /* \"#utility.yul\":3777:3789   */\n  revert\n    /* \"#utility.yul\":3801:3918   */\ntag_48:\n    /* \"#utility.yul\":3910:3911   */\n  0x00\n    /* \"#utility.yul\":3907:3908   */\n  dup1\n    /* \"#utility.yul\":3900:3912   */\n  revert\n    /* \"#utility.yul\":3924:4041   */\ntag_45:\n    /* \"#utility.yul\":4033:4034   */\n  0x00\n    /* \"#utility.yul\":4030:4031   */\n  dup1\n    /* \"#utility.yul\":4023:4035   */\n  revert\n    /* \"#utility.yul\":4047:4149   */\ntag_62:\n    /* \"#utility.yul\":4088:4094   */\n  0x00\n    /* \"#utility.yul\":4139:4141   */\n  0x1f\n    /* \"#utility.yul\":4135:4142   */\n  not\n    /* \"#utility.yul\":4130:4132   */\n  0x1f\n    /* \"#utility.yul\":4123:4128   */\n  dup4\n    /* \"#utility.yul\":4119:4133   */\n  add\n    /* \"#utility.yul\":4115:4143   */\n  and\n    /* \"#utility.yul\":4105:4143   */\n  swap1\n  pop\n    /* \"#utility.yul\":4047:4149   */\n  swap2\n  swap1\n  pop\n  jump\t// out\n    /* \"#utility.yul\":4155:4277   */\ntag_41:\n    /* \"#utility.yul\":4228:4252   */\n  tag_87\n    /* \"#utility.yul\":4246:4251   */\n  dup2\n    /* \"#utility.yul\":4228:4252   */\n  tag_63\n  jump\t// in\ntag_87:\n    /* \"#utility.yul\":4221:4226   */\n  dup2\n    /* \"#utility.yul\":4218:4253   */\n  eq\n    /* \"#utility.yul\":4208:4271   */\n  tag_88\n  jumpi\n    /* \"#utility.yul\":4267:4268   */\n  0x00\n    /* \"#utility.yul\":4264:4265   */\n  dup1\n    /* \"#utility.yul\":4257:4269   */\n  revert\n    /* \"#utility.yul\":4208:4271   */\ntag_88:\n    /* \"#utility.yul\":4155:4277   */\n  pop\n  jump\t// out\n    /* \"contracts/basics.sol\":96:1700  contract Person{\r... */\ntag_8:\n  dataSize(sub_0)\n  dup1\n  dataOffset(sub_0)\n  0x00\n  codecopy\n  0x00\n  return\nstop\n\nsub_0: assembly {\n        /* \"contracts/basics.sol\":96:1700  contract Person{\r... */\n      mstore(0x40, 0x80)\n      callvalue\n      dup1\n      iszero\n      tag_1\n      jumpi\n      0x00\n      dup1\n      revert\n    tag_1:\n      pop\n      jumpi(tag_2, lt(calldatasize, 0x04))\n      shr(0xe0, calldataload(0x00))\n      dup1\n      0x6d35e346\n      gt\n      tag_11\n      jumpi\n      dup1\n      0x6d35e346\n      eq\n      tag_7\n      jumpi\n      dup1\n      0x767f9dcf\n      eq\n      tag_8\n      jumpi\n      dup1\n      0xd653f307\n      eq\n      tag_9\n      jumpi\n      dup1\n      0xe780faa3\n      eq\n      tag_10\n      jumpi\n      jump(tag_2)\n    tag_11:\n      dup1\n      0x06fdde03\n      eq\n      tag_3\n      jumpi\n      dup1\n      0x204653d3\n      eq\n      tag_4\n      jumpi\n      dup1\n      0x262a9dff\n      eq\n      tag_5\n      jumpi\n      dup1\n      0x465fe0ee\n      eq\n      tag_6\n      jumpi\n    tag_2:\n      0x00\n      dup1\n      revert\n        /* \"contracts/basics.sol\":251:269  string public name */\n    tag_3:\n      tag_12\n      tag_13\n      jump\t// in\n    tag_12:\n      mload(0x40)\n      tag_14\n      swap2\n      swap1\n      tag_15\n      jump\t// in\n    tag_14:\n      mload(0x40)\n      dup1\n      swap2\n      sub\n      swap1\n      return\n        /* \"contracts/basics.sol\":806:928  function enterValues(uint a, uint b) public {\r... */\n    tag_4:\n      tag_16\n      0x04\n      dup1\n      calldatasize\n      sub\n      dup2\n      add\n      swap1\n      tag_17\n      swap2\n      swap1\n      tag_18\n      jump\t// in\n    tag_17:\n      tag_19\n      jump\t// in\n    tag_16:\n      stop\n        /* \"contracts/basics.sol\":290:305  uint public age */\n    tag_5:\n      tag_20\n      tag_21\n      jump\t// in\n    tag_20:\n      mload(0x40)\n      tag_22\n      swap2\n      swap1\n      tag_23\n      jump\t// in\n    tag_22:\n      mload(0x40)\n      dup1\n      swap2\n      sub\n      swap1\n      return\n        /* \"contracts/basics.sol\":1464:1496  Traits public characterOfAPerson */\n    tag_6:\n      tag_24\n      tag_25\n      jump\t// in\n    tag_24:\n      mload(0x40)\n      tag_26\n      swap4\n      swap3\n      swap2\n      swap1\n      tag_27\n      jump\t// in\n    tag_26:\n      mload(0x40)\n      dup1\n      swap2\n      sub\n      swap1\n      return\n        /* \"contracts/basics.sol\":936:1137  function enterValuesAgain(uint a, uint b,uint c,uint d) public {\r... */\n    tag_7:\n      tag_28\n      0x04\n      dup1\n      calldatasize\n      sub\n      dup2\n      add\n      swap1\n      tag_29\n      swap2\n      swap1\n      tag_30\n      jump\t// in\n    tag_29:\n      tag_31\n      jump\t// in\n    tag_28:\n      stop\n        /* \"contracts/basics.sol\":1523:1687  function assignValues(string memory _color,string memory _country,uint _height) \r... */\n    tag_8:\n      tag_32\n      0x04\n      dup1\n      calldatasize\n      sub\n      dup2\n      add\n      swap1\n      tag_33\n      swap2\n      swap1\n      tag_34\n      jump\t// in\n    tag_33:\n      tag_35\n      jump\t// in\n    tag_32:\n      stop\n        /* \"contracts/basics.sol\":771:797  uint[] public luckNumbers2 */\n    tag_9:\n      tag_36\n      0x04\n      dup1\n      calldatasize\n      sub\n      dup2\n      add\n      swap1\n      tag_37\n      swap2\n      swap1\n      tag_38\n      jump\t// in\n    tag_37:\n      tag_39\n      jump\t// in\n    tag_36:\n      mload(0x40)\n      tag_40\n      swap2\n      swap1\n      tag_23\n      jump\t// in\n    tag_40:\n      mload(0x40)\n      dup1\n      swap2\n      sub\n      swap1\n      return\n        /* \"contracts/basics.sol\":613:640  uint[2] public luckyNumbers */\n    tag_10:\n      tag_41\n      0x04\n      dup1\n      calldatasize\n      sub\n      dup2\n      add\n      swap1\n      tag_42\n      swap2\n      swap1\n      tag_38\n      jump\t// in\n    tag_42:\n      tag_43\n      jump\t// in\n    tag_41:\n      mload(0x40)\n      tag_44\n      swap2\n      swap1\n      tag_23\n      jump\t// in\n    tag_44:\n      mload(0x40)\n      dup1\n      swap2\n      sub\n      swap1\n      return\n        /* \"contracts/basics.sol\":251:269  string public name */\n    tag_13:\n      0x00\n      dup1\n      sload\n      tag_45\n      swap1\n      tag_46\n      jump\t// in\n    tag_45:\n      dup1\n      0x1f\n      add\n      0x20\n      dup1\n      swap2\n      div\n      mul\n      0x20\n      add\n      mload(0x40)\n      swap1\n      dup2\n      add\n      0x40\n      mstore\n      dup1\n      swap3\n      swap2\n      swap1\n      dup2\n      dup2\n      mstore\n      0x20\n      add\n      dup3\n      dup1\n      sload\n      tag_47\n      swap1\n      tag_46\n      jump\t// in\n    tag_47:\n      dup1\n      iszero\n      tag_48\n      jumpi\n      dup1\n      0x1f\n      lt\n      tag_49\n      jumpi\n      0x0100\n      dup1\n      dup4\n      sload\n      div\n      mul\n      dup4\n      mstore\n      swap2\n      0x20\n      add\n      swap2\n      jump(tag_48)\n    tag_49:\n      dup3\n      add\n      swap2\n      swap1\n      0x00\n      mstore\n      keccak256(0x00, 0x20)\n      swap1\n    tag_50:\n      dup2\n      sload\n      dup2\n      mstore\n      swap1\n      0x01\n      add\n      swap1\n      0x20\n      add\n      dup1\n      dup4\n      gt\n      tag_50\n      jumpi\n      dup3\n      swap1\n      sub\n      0x1f\n      and\n      dup3\n      add\n      swap2\n    tag_48:\n      pop\n      pop\n      pop\n      pop\n      pop\n      dup2\n      jump\t// out\n        /* \"contracts/basics.sol\":806:928  function enterValues(uint a, uint b) public {\r... */\n    tag_19:\n        /* \"contracts/basics.sol\":880:881  a */\n      dup2\n        /* \"contracts/basics.sol\":862:874  luckyNumbers */\n      0x02\n        /* \"contracts/basics.sol\":875:876  0 */\n      0x00\n        /* \"contracts/basics.sol\":862:877  luckyNumbers[0] */\n      0x02\n      dup2\n      lt\n      tag_52\n      jumpi\n      tag_53\n      tag_54\n      jump\t// in\n    tag_53:\n    tag_52:\n      add\n        /* \"contracts/basics.sol\":862:881  luckyNumbers[0] = a */\n      dup2\n      swap1\n      sstore\n      pop\n        /* \"contracts/basics.sol\":909:910  b */\n      dup1\n        /* \"contracts/basics.sol\":891:903  luckyNumbers */\n      0x02\n        /* \"contracts/basics.sol\":904:905  1 */\n      0x01\n        /* \"contracts/basics.sol\":891:906  luckyNumbers[1] */\n      0x02\n      dup2\n      lt\n      tag_56\n      jumpi\n      tag_57\n      tag_54\n      jump\t// in\n    tag_57:\n    tag_56:\n      add\n        /* \"contracts/basics.sol\":891:910  luckyNumbers[1] = b */\n      dup2\n      swap1\n      sstore\n      pop\n        /* \"contracts/basics.sol\":806:928  function enterValues(uint a, uint b) public {\r... */\n      pop\n      pop\n      jump\t// out\n        /* \"contracts/basics.sol\":290:305  uint public age */\n    tag_21:\n      sload(0x01)\n      dup2\n      jump\t// out\n        /* \"contracts/basics.sol\":1464:1496  Traits public characterOfAPerson */\n    tag_25:\n      0x05\n      dup1\n      0x00\n      add\n      dup1\n      sload\n      tag_59\n      swap1\n      tag_46\n      jump\t// in\n    tag_59:\n      dup1\n      0x1f\n      add\n      0x20\n      dup1\n      swap2\n      div\n      mul\n      0x20\n      add\n      mload(0x40)\n      swap1\n      dup2\n      add\n      0x40\n      mstore\n      dup1\n      swap3\n      swap2\n      swap1\n      dup2\n      dup2\n      mstore\n      0x20\n      add\n      dup3\n      dup1\n      sload\n      tag_60\n      swap1\n      tag_46\n      jump\t// in\n    tag_60:\n      dup1\n      iszero\n      tag_61\n      jumpi\n      dup1\n      0x1f\n      lt\n      tag_62\n      jumpi\n      0x0100\n      dup1\n      dup4\n      sload\n      div\n      mul\n      dup4\n      mstore\n      swap2\n      0x20\n      add\n      swap2\n      jump(tag_61)\n    tag_62:\n      dup3\n      add\n      swap2\n      swap1\n      0x00\n      mstore\n      keccak256(0x00, 0x20)\n      swap1\n    tag_63:\n      dup2\n      sload\n      dup2\n      mstore\n      swap1\n      0x01\n      add\n      swap1\n      0x20\n      add\n      dup1\n      dup4\n      gt\n      tag_63\n      jumpi\n      dup3\n      swap1\n      sub\n      0x1f\n      and\n      dup3\n      add\n      swap2\n    tag_61:\n      pop\n      pop\n      pop\n      pop\n      pop\n      swap1\n      dup1\n      0x01\n      add\n      dup1\n      sload\n      tag_64\n      swap1\n      tag_46\n      jump\t// in\n    tag_64:\n      dup1\n      0x1f\n      add\n      0x20\n      dup1\n      swap2\n      div\n      mul\n      0x20\n      add\n      mload(0x40)\n      swap1\n      dup2\n      add\n      0x40\n      mstore\n      dup1\n      swap3\n      swap2\n      swap1\n      dup2\n      dup2\n      mstore\n      0x20\n      add\n      dup3\n      dup1\n      sload\n      tag_65\n      swap1\n      tag_46\n      jump\t// in\n    tag_65:\n      dup1\n      iszero\n      tag_66\n      jumpi\n      dup1\n      0x1f\n      lt\n      tag_67\n      jumpi\n      0x0100\n      dup1\n      dup4\n      sload\n      div\n      mul\n      dup4\n      mstore\n      swap2\n      0x20\n      add\n      swap2\n      jump(tag_66)\n    tag_67:\n      dup3\n      add\n      swap2\n      swap1\n      0x00\n      mstore\n      keccak256(0x00, 0x20)\n      swap1\n    tag_68:\n      dup2\n      sload\n      dup2\n      mstore\n      swap1\n      0x01\n      add\n      swap1\n      0x20\n      add\n      dup1\n      dup4\n      gt\n      tag_68\n      jumpi\n      dup3\n      swap1\n      sub\n      0x1f\n      and\n      dup3\n      add\n      swap2\n    tag_66:\n      pop\n      pop\n      pop\n      pop\n      pop\n      swap1\n      dup1\n      0x02\n      add\n      sload\n      swap1\n      pop\n      dup4\n      jump\t// out\n        /* \"contracts/basics.sol\":936:1137  function enterValuesAgain(uint a, uint b,uint c,uint d) public {\r... */\n    tag_31:\n        /* \"contracts/basics.sol\":1012:1024  luckNumbers2 */\n      0x04\n        /* \"contracts/basics.sol\":1030:1031  a */\n      dup5\n        /* \"contracts/basics.sol\":1012:1032  luckNumbers2.push(a) */\n      swap1\n      dup1\n      0x01\n      dup2\n      sload\n      add\n      dup1\n      dup3\n      sstore\n      dup1\n      swap2\n      pop\n      pop\n      0x01\n      swap1\n      sub\n      swap1\n      0x00\n      mstore\n      keccak256(0x00, 0x20)\n      add\n      0x00\n      swap1\n      swap2\n      swap1\n      swap2\n      swap1\n      swap2\n      pop\n      sstore\n        /* \"contracts/basics.sol\":1043:1055  luckNumbers2 */\n      0x04\n        /* \"contracts/basics.sol\":1061:1062  b */\n      dup4\n        /* \"contracts/basics.sol\":1043:1063  luckNumbers2.push(b) */\n      swap1\n      dup1\n      0x01\n      dup2\n      sload\n      add\n      dup1\n      dup3\n      sstore\n      dup1\n      swap2\n      pop\n      pop\n      0x01\n      swap1\n      sub\n      swap1\n      0x00\n      mstore\n      keccak256(0x00, 0x20)\n      add\n      0x00\n      swap1\n      swap2\n      swap1\n      swap2\n      swap1\n      swap2\n      pop\n      sstore\n        /* \"contracts/basics.sol\":1074:1086  luckNumbers2 */\n      0x04\n        /* \"contracts/basics.sol\":1092:1093  c */\n      dup3\n        /* \"contracts/basics.sol\":1074:1094  luckNumbers2.push(c) */\n      swap1\n      dup1\n      0x01\n      dup2\n      sload\n      add\n      dup1\n      dup3\n      sstore\n      dup1\n      swap2\n      pop\n      pop\n      0x01\n      swap1\n      sub\n      swap1\n      0x00\n      mstore\n      keccak256(0x00, 0x20)\n      add\n      0x00\n      swap1\n      swap2\n      swap1\n      swap2\n      swap1\n      swap2\n      pop\n      sstore\n        /* \"contracts/basics.sol\":1105:1117  luckNumbers2 */\n      0x04\n        /* \"contracts/basics.sol\":1123:1124  d */\n      dup2\n        /* \"contracts/basics.sol\":1105:1125  luckNumbers2.push(d) */\n      swap1\n      dup1\n      0x01\n      dup2\n      sload\n      add\n      dup1\n      dup3\n      sstore\n      dup1\n      swap2\n      pop\n      pop\n      0x01\n      swap1\n      sub\n      swap1\n      0x00\n      mstore\n      keccak256(0x00, 0x20)\n      add\n      0x00\n      swap1\n      swap2\n      swap1\n      swap2\n      swap1\n      swap2\n      pop\n      sstore\n        /* \"contracts/basics.sol\":936:1137  function enterValuesAgain(uint a, uint b,uint c,uint d) public {\r... */\n      pop\n      pop\n      pop\n      pop\n      jump\t// out\n        /* \"contracts/basics.sol\":1523:1687  function assignValues(string memory _color,string memory _country,uint _height) \r... */\n    tag_35:\n        /* \"contracts/basics.sol\":1648:1679  Traits(_color,_country,_height) */\n      mload(0x40)\n      dup1\n      0x60\n      add\n      0x40\n      mstore\n      dup1\n        /* \"contracts/basics.sol\":1655:1661  _color */\n      dup5\n        /* \"contracts/basics.sol\":1648:1679  Traits(_color,_country,_height) */\n      dup2\n      mstore\n      0x20\n      add\n        /* \"contracts/basics.sol\":1662:1670  _country */\n      dup4\n        /* \"contracts/basics.sol\":1648:1679  Traits(_color,_country,_height) */\n      dup2\n      mstore\n      0x20\n      add\n        /* \"contracts/basics.sol\":1671:1678  _height */\n      dup3\n        /* \"contracts/basics.sol\":1648:1679  Traits(_color,_country,_height) */\n      dup2\n      mstore\n      pop\n        /* \"contracts/basics.sol\":1627:1645  characterOfAPerson */\n      0x05\n        /* \"contracts/basics.sol\":1627:1679  characterOfAPerson = Traits(_color,_country,_height) */\n      0x00\n      dup3\n      add\n      mload\n      dup2\n      0x00\n      add\n      swap1\n      dup1\n      mload\n      swap1\n      0x20\n      add\n      swap1\n      tag_75\n      swap3\n      swap2\n      swap1\n      tag_76\n      jump\t// in\n    tag_75:\n      pop\n      0x20\n      dup3\n      add\n      mload\n      dup2\n      0x01\n      add\n      swap1\n      dup1\n      mload\n      swap1\n      0x20\n      add\n      swap1\n      tag_77\n      swap3\n      swap2\n      swap1\n      tag_76\n      jump\t// in\n    tag_77:\n      pop\n      0x40\n      dup3\n      add\n      mload\n      dup2\n      0x02\n      add\n      sstore\n      swap1\n      pop\n      pop\n        /* \"contracts/basics.sol\":1523:1687  function assignValues(string memory _color,string memory _country,uint _height) \r... */\n      pop\n      pop\n      pop\n      jump\t// out\n        /* \"contracts/basics.sol\":771:797  uint[] public luckNumbers2 */\n    tag_39:\n      0x04\n      dup2\n      dup2\n      sload\n      dup2\n      lt\n      tag_78\n      jumpi\n      0x00\n      dup1\n      revert\n    tag_78:\n      swap1\n      0x00\n      mstore\n      keccak256(0x00, 0x20)\n      add\n      0x00\n      swap2\n      pop\n      swap1\n      pop\n      sload\n      dup2\n      jump\t// out\n        /* \"contracts/basics.sol\":613:640  uint[2] public luckyNumbers */\n    tag_43:\n      0x02\n      dup2\n      0x02\n      dup2\n      lt\n      tag_80\n      jumpi\n      0x00\n      dup1\n      revert\n    tag_80:\n      add\n      0x00\n      swap2\n      pop\n      swap1\n      pop\n      sload\n      dup2\n      jump\t// out\n    tag_76:\n      dup3\n      dup1\n      sload\n      tag_82\n      swap1\n      tag_46\n      jump\t// in\n    tag_82:\n      swap1\n      0x00\n      mstore\n      keccak256(0x00, 0x20)\n      swap1\n      0x1f\n      add\n      0x20\n      swap1\n      div\n      dup2\n      add\n      swap3\n      dup3\n      tag_84\n      jumpi\n      0x00\n      dup6\n      sstore\n      jump(tag_83)\n    tag_84:\n      dup3\n      0x1f\n      lt\n      tag_85\n      jumpi\n      dup1\n      mload\n      not(0xff)\n      and\n      dup4\n      dup1\n      add\n      or\n      dup6\n      sstore\n      jump(tag_83)\n    tag_85:\n      dup3\n      dup1\n      add\n      0x01\n      add\n      dup6\n      sstore\n      dup3\n      iszero\n      tag_83\n      jumpi\n      swap2\n      dup3\n      add\n    tag_86:\n      dup3\n      dup2\n      gt\n      iszero\n      tag_87\n      jumpi\n      dup3\n      mload\n      dup3\n      sstore\n      swap2\n      0x20\n      add\n      swap2\n      swap1\n      0x01\n      add\n      swap1\n      jump(tag_86)\n    tag_87:\n    tag_83:\n      pop\n      swap1\n      pop\n      tag_88\n      swap2\n      swap1\n      tag_89\n      jump\t// in\n    tag_88:\n      pop\n      swap1\n      jump\t// out\n    tag_89:\n    tag_90:\n      dup1\n      dup3\n      gt\n      iszero\n      tag_91\n      jumpi\n      0x00\n      dup2\n      0x00\n      swap1\n      sstore\n      pop\n      0x01\n      add\n      jump(tag_90)\n    tag_91:\n      pop\n      swap1\n      jump\t// out\n        /* \"#utility.yul\":7:419   */\n    tag_93:\n        /* \"#utility.yul\":85:90   */\n      0x00\n        /* \"#utility.yul\":110:176   */\n      tag_95\n        /* \"#utility.yul\":126:175   */\n      tag_96\n        /* \"#utility.yul\":168:174   */\n      dup5\n        /* \"#utility.yul\":126:175   */\n      tag_97\n      jump\t// in\n    tag_96:\n        /* \"#utility.yul\":110:176   */\n      tag_98\n      jump\t// in\n    tag_95:\n        /* \"#utility.yul\":101:176   */\n      swap1\n      pop\n        /* \"#utility.yul\":199:205   */\n      dup3\n        /* \"#utility.yul\":192:197   */\n      dup2\n        /* \"#utility.yul\":185:206   */\n      mstore\n        /* \"#utility.yul\":237:241   */\n      0x20\n        /* \"#utility.yul\":230:235   */\n      dup2\n        /* \"#utility.yul\":226:242   */\n      add\n        /* \"#utility.yul\":275:278   */\n      dup5\n        /* \"#utility.yul\":266:272   */\n      dup5\n        /* \"#utility.yul\":261:264   */\n      dup5\n        /* \"#utility.yul\":257:273   */\n      add\n        /* \"#utility.yul\":254:279   */\n      gt\n        /* \"#utility.yul\":251:363   */\n      iszero\n      tag_99\n      jumpi\n        /* \"#utility.yul\":282:361   */\n      tag_100\n      tag_101\n      jump\t// in\n    tag_100:\n        /* \"#utility.yul\":251:363   */\n    tag_99:\n        /* \"#utility.yul\":372:413   */\n      tag_102\n        /* \"#utility.yul\":406:412   */\n      dup5\n        /* \"#utility.yul\":401:404   */\n      dup3\n        /* \"#utility.yul\":396:399   */\n      dup6\n        /* \"#utility.yul\":372:413   */\n      tag_103\n      jump\t// in\n    tag_102:\n        /* \"#utility.yul\":91:419   */\n      pop\n        /* \"#utility.yul\":7:419   */\n      swap4\n      swap3\n      pop\n      pop\n      pop\n      jump\t// out\n        /* \"#utility.yul\":439:779   */\n    tag_104:\n        /* \"#utility.yul\":495:500   */\n      0x00\n        /* \"#utility.yul\":544:547   */\n      dup3\n        /* \"#utility.yul\":537:541   */\n      0x1f\n        /* \"#utility.yul\":529:535   */\n      dup4\n        /* \"#utility.yul\":525:542   */\n      add\n        /* \"#utility.yul\":521:548   */\n      slt\n        /* \"#utility.yul\":511:633   */\n      tag_106\n      jumpi\n        /* \"#utility.yul\":552:631   */\n      tag_107\n      tag_108\n      jump\t// in\n    tag_107:\n        /* \"#utility.yul\":511:633   */\n    tag_106:\n        /* \"#utility.yul\":669:675   */\n      dup2\n        /* \"#utility.yul\":656:676   */\n      calldataload\n        /* \"#utility.yul\":694:773   */\n      tag_109\n        /* \"#utility.yul\":769:772   */\n      dup5\n        /* \"#utility.yul\":761:767   */\n      dup3\n        /* \"#utility.yul\":754:758   */\n      0x20\n        /* \"#utility.yul\":746:752   */\n      dup7\n        /* \"#utility.yul\":742:759   */\n      add\n        /* \"#utility.yul\":694:773   */\n      tag_93\n      jump\t// in\n    tag_109:\n        /* \"#utility.yul\":685:773   */\n      swap2\n      pop\n        /* \"#utility.yul\":501:779   */\n      pop\n        /* \"#utility.yul\":439:779   */\n      swap3\n      swap2\n      pop\n      pop\n      jump\t// out\n        /* \"#utility.yul\":785:924   */\n    tag_110:\n        /* \"#utility.yul\":831:836   */\n      0x00\n        /* \"#utility.yul\":869:875   */\n      dup2\n        /* \"#utility.yul\":856:876   */\n      calldataload\n        /* \"#utility.yul\":847:876   */\n      swap1\n      pop\n        /* \"#utility.yul\":885:918   */\n      tag_112\n        /* \"#utility.yul\":912:917   */\n      dup2\n        /* \"#utility.yul\":885:918   */\n      tag_113\n      jump\t// in\n    tag_112:\n        /* \"#utility.yul\":785:924   */\n      swap3\n      swap2\n      pop\n      pop\n      jump\t// out\n        /* \"#utility.yul\":930:1909   */\n    tag_34:\n        /* \"#utility.yul\":1027:1033   */\n      0x00\n        /* \"#utility.yul\":1035:1041   */\n      dup1\n        /* \"#utility.yul\":1043:1049   */\n      0x00\n        /* \"#utility.yul\":1092:1094   */\n      0x60\n        /* \"#utility.yul\":1080:1089   */\n      dup5\n        /* \"#utility.yul\":1071:1078   */\n      dup7\n        /* \"#utility.yul\":1067:1090   */\n      sub\n        /* \"#utility.yul\":1063:1095   */\n      slt\n        /* \"#utility.yul\":1060:1179   */\n      iszero\n      tag_115\n      jumpi\n        /* \"#utility.yul\":1098:1177   */\n      tag_116\n      tag_117\n      jump\t// in\n    tag_116:\n        /* \"#utility.yul\":1060:1179   */\n    tag_115:\n        /* \"#utility.yul\":1246:1247   */\n      0x00\n        /* \"#utility.yul\":1235:1244   */\n      dup5\n        /* \"#utility.yul\":1231:1248   */\n      add\n        /* \"#utility.yul\":1218:1249   */\n      calldataload\n        /* \"#utility.yul\":1276:1294   */\n      0xffffffffffffffff\n        /* \"#utility.yul\":1268:1274   */\n      dup2\n        /* \"#utility.yul\":1265:1295   */\n      gt\n        /* \"#utility.yul\":1262:1379   */\n      iszero\n      tag_118\n      jumpi\n        /* \"#utility.yul\":1298:1377   */\n      tag_119\n      tag_120\n      jump\t// in\n    tag_119:\n        /* \"#utility.yul\":1262:1379   */\n    tag_118:\n        /* \"#utility.yul\":1403:1466   */\n      tag_121\n        /* \"#utility.yul\":1458:1465   */\n      dup7\n        /* \"#utility.yul\":1449:1455   */\n      dup3\n        /* \"#utility.yul\":1438:1447   */\n      dup8\n        /* \"#utility.yul\":1434:1456   */\n      add\n        /* \"#utility.yul\":1403:1466   */\n      tag_104\n      jump\t// in\n    tag_121:\n        /* \"#utility.yul\":1393:1466   */\n      swap4\n      pop\n        /* \"#utility.yul\":1189:1476   */\n      pop\n        /* \"#utility.yul\":1543:1545   */\n      0x20\n        /* \"#utility.yul\":1532:1541   */\n      dup5\n        /* \"#utility.yul\":1528:1546   */\n      add\n        /* \"#utility.yul\":1515:1547   */\n      calldataload\n        /* \"#utility.yul\":1574:1592   */\n      0xffffffffffffffff\n        /* \"#utility.yul\":1566:1572   */\n      dup2\n        /* \"#utility.yul\":1563:1593   */\n      gt\n        /* \"#utility.yul\":1560:1677   */\n      iszero\n      tag_122\n      jumpi\n        /* \"#utility.yul\":1596:1675   */\n      tag_123\n      tag_120\n      jump\t// in\n    tag_123:\n        /* \"#utility.yul\":1560:1677   */\n    tag_122:\n        /* \"#utility.yul\":1701:1764   */\n      tag_124\n        /* \"#utility.yul\":1756:1763   */\n      dup7\n        /* \"#utility.yul\":1747:1753   */\n      dup3\n        /* \"#utility.yul\":1736:1745   */\n      dup8\n        /* \"#utility.yul\":1732:1754   */\n      add\n        /* \"#utility.yul\":1701:1764   */\n      tag_104\n      jump\t// in\n    tag_124:\n        /* \"#utility.yul\":1691:1764   */\n      swap3\n      pop\n        /* \"#utility.yul\":1486:1774   */\n      pop\n        /* \"#utility.yul\":1813:1815   */\n      0x40\n        /* \"#utility.yul\":1839:1892   */\n      tag_125\n        /* \"#utility.yul\":1884:1891   */\n      dup7\n        /* \"#utility.yul\":1875:1881   */\n      dup3\n        /* \"#utility.yul\":1864:1873   */\n      dup8\n        /* \"#utility.yul\":1860:1882   */\n      add\n        /* \"#utility.yul\":1839:1892   */\n      tag_110\n      jump\t// in\n    tag_125:\n        /* \"#utility.yul\":1829:1892   */\n      swap2\n      pop\n        /* \"#utility.yul\":1784:1902   */\n      pop\n        /* \"#utility.yul\":930:1909   */\n      swap3\n      pop\n      swap3\n      pop\n      swap3\n      jump\t// out\n        /* \"#utility.yul\":1915:2244   */\n    tag_38:\n        /* \"#utility.yul\":1974:1980   */\n      0x00\n        /* \"#utility.yul\":2023:2025   */\n      0x20\n        /* \"#utility.yul\":2011:2020   */\n      dup3\n        /* \"#utility.yul\":2002:2009   */\n      dup5\n        /* \"#utility.yul\":1998:2021   */\n      sub\n        /* \"#utility.yul\":1994:2026   */\n      slt\n        /* \"#utility.yul\":1991:2110   */\n      iszero\n      tag_127\n      jumpi\n        /* \"#utility.yul\":2029:2108   */\n      tag_128\n      tag_117\n      jump\t// in\n    tag_128:\n        /* \"#utility.yul\":1991:2110   */\n    tag_127:\n        /* \"#utility.yul\":2149:2150   */\n      0x00\n        /* \"#utility.yul\":2174:2227   */\n      tag_129\n        /* \"#utility.yul\":2219:2226   */\n      dup5\n        /* \"#utility.yul\":2210:2216   */\n      dup3\n        /* \"#utility.yul\":2199:2208   */\n      dup6\n        /* \"#utility.yul\":2195:2217   */\n      add\n        /* \"#utility.yul\":2174:2227   */\n      tag_110\n      jump\t// in\n    tag_129:\n        /* \"#utility.yul\":2164:2227   */\n      swap2\n      pop\n        /* \"#utility.yul\":2120:2237   */\n      pop\n        /* \"#utility.yul\":1915:2244   */\n      swap3\n      swap2\n      pop\n      pop\n      jump\t// out\n        /* \"#utility.yul\":2250:2724   */\n    tag_18:\n        /* \"#utility.yul\":2318:2324   */\n      0x00\n        /* \"#utility.yul\":2326:2332   */\n      dup1\n        /* \"#utility.yul\":2375:2377   */\n      0x40\n        /* \"#utility.yul\":2363:2372   */\n      dup4\n        /* \"#utility.yul\":2354:2361   */\n      dup6\n        /* \"#utility.yul\":2350:2373   */\n      sub\n        /* \"#utility.yul\":2346:2378   */\n      slt\n        /* \"#utility.yul\":2343:2462   */\n      iszero\n      tag_131\n      jumpi\n        /* \"#utility.yul\":2381:2460   */\n      tag_132\n      tag_117\n      jump\t// in\n    tag_132:\n        /* \"#utility.yul\":2343:2462   */\n    tag_131:\n        /* \"#utility.yul\":2501:2502   */\n      0x00\n        /* \"#utility.yul\":2526:2579   */\n      tag_133\n        /* \"#utility.yul\":2571:2578   */\n      dup6\n        /* \"#utility.yul\":2562:2568   */\n      dup3\n        /* \"#utility.yul\":2551:2560   */\n      dup7\n        /* \"#utility.yul\":2547:2569   */\n      add\n        /* \"#utility.yul\":2526:2579   */\n      tag_110\n      jump\t// in\n    tag_133:\n        /* \"#utility.yul\":2516:2579   */\n      swap3\n      pop\n        /* \"#utility.yul\":2472:2589   */\n      pop\n        /* \"#utility.yul\":2628:2630   */\n      0x20\n        /* \"#utility.yul\":2654:2707   */\n      tag_134\n        /* \"#utility.yul\":2699:2706   */\n      dup6\n        /* \"#utility.yul\":2690:2696   */\n      dup3\n        /* \"#utility.yul\":2679:2688   */\n      dup7\n        /* \"#utility.yul\":2675:2697   */\n      add\n        /* \"#utility.yul\":2654:2707   */\n      tag_110\n      jump\t// in\n    tag_134:\n        /* \"#utility.yul\":2644:2707   */\n      swap2\n      pop\n        /* \"#utility.yul\":2599:2717   */\n      pop\n        /* \"#utility.yul\":2250:2724   */\n      swap3\n      pop\n      swap3\n      swap1\n      pop\n      jump\t// out\n        /* \"#utility.yul\":2730:3495   */\n    tag_30:\n        /* \"#utility.yul\":2816:2822   */\n      0x00\n        /* \"#utility.yul\":2824:2830   */\n      dup1\n        /* \"#utility.yul\":2832:2838   */\n      0x00\n        /* \"#utility.yul\":2840:2846   */\n      dup1\n        /* \"#utility.yul\":2889:2892   */\n      0x80\n        /* \"#utility.yul\":2877:2886   */\n      dup6\n        /* \"#utility.yul\":2868:2875   */\n      dup8\n        /* \"#utility.yul\":2864:2887   */\n      sub\n        /* \"#utility.yul\":2860:2893   */\n      slt\n        /* \"#utility.yul\":2857:2977   */\n      iszero\n      tag_136\n      jumpi\n        /* \"#utility.yul\":2896:2975   */\n      tag_137\n      tag_117\n      jump\t// in\n    tag_137:\n        /* \"#utility.yul\":2857:2977   */\n    tag_136:\n        /* \"#utility.yul\":3016:3017   */\n      0x00\n        /* \"#utility.yul\":3041:3094   */\n      tag_138\n        /* \"#utility.yul\":3086:3093   */\n      dup8\n        /* \"#utility.yul\":3077:3083   */\n      dup3\n        /* \"#utility.yul\":3066:3075   */\n      dup9\n        /* \"#utility.yul\":3062:3084   */\n      add\n        /* \"#utility.yul\":3041:3094   */\n      tag_110\n      jump\t// in\n    tag_138:\n        /* \"#utility.yul\":3031:3094   */\n      swap5\n      pop\n        /* \"#utility.yul\":2987:3104   */\n      pop\n        /* \"#utility.yul\":3143:3145   */\n      0x20\n        /* \"#utility.yul\":3169:3222   */\n      tag_139\n        /* \"#utility.yul\":3214:3221   */\n      dup8\n        /* \"#utility.yul\":3205:3211   */\n      dup3\n        /* \"#utility.yul\":3194:3203   */\n      dup9\n        /* \"#utility.yul\":3190:3212   */\n      add\n        /* \"#utility.yul\":3169:3222   */\n      tag_110\n      jump\t// in\n    tag_139:\n        /* \"#utility.yul\":3159:3222   */\n      swap4\n      pop\n        /* \"#utility.yul\":3114:3232   */\n      pop\n        /* \"#utility.yul\":3271:3273   */\n      0x40\n        /* \"#utility.yul\":3297:3350   */\n      tag_140\n        /* \"#utility.yul\":3342:3349   */\n      dup8\n        /* \"#utility.yul\":3333:3339   */\n      dup3\n        /* \"#utility.yul\":3322:3331   */\n      dup9\n        /* \"#utility.yul\":3318:3340   */\n      add\n        /* \"#utility.yul\":3297:3350   */\n      tag_110\n      jump\t// in\n    tag_140:\n        /* \"#utility.yul\":3287:3350   */\n      swap3\n      pop\n        /* \"#utility.yul\":3242:3360   */\n      pop\n        /* \"#utility.yul\":3399:3401   */\n      0x60\n        /* \"#utility.yul\":3425:3478   */\n      tag_141\n        /* \"#utility.yul\":3470:3477   */\n      dup8\n        /* \"#utility.yul\":3461:3467   */\n      dup3\n        /* \"#utility.yul\":3450:3459   */\n      dup9\n        /* \"#utility.yul\":3446:3468   */\n      add\n        /* \"#utility.yul\":3425:3478   */\n      tag_110\n      jump\t// in\n    tag_141:\n        /* \"#utility.yul\":3415:3478   */\n      swap2\n      pop\n        /* \"#utility.yul\":3370:3488   */\n      pop\n        /* \"#utility.yul\":2730:3495   */\n      swap3\n      swap6\n      swap2\n      swap5\n      pop\n      swap3\n      pop\n      jump\t// out\n        /* \"#utility.yul\":3501:3865   */\n    tag_142:\n        /* \"#utility.yul\":3589:3592   */\n      0x00\n        /* \"#utility.yul\":3617:3656   */\n      tag_144\n        /* \"#utility.yul\":3650:3655   */\n      dup3\n        /* \"#utility.yul\":3617:3656   */\n      tag_145\n      jump\t// in\n    tag_144:\n        /* \"#utility.yul\":3672:3743   */\n      tag_146\n        /* \"#utility.yul\":3736:3742   */\n      dup2\n        /* \"#utility.yul\":3731:3734   */\n      dup6\n        /* \"#utility.yul\":3672:3743   */\n      tag_147\n      jump\t// in\n    tag_146:\n        /* \"#utility.yul\":3665:3743   */\n      swap4\n      pop\n        /* \"#utility.yul\":3752:3804   */\n      tag_148\n        /* \"#utility.yul\":3797:3803   */\n      dup2\n        /* \"#utility.yul\":3792:3795   */\n      dup6\n        /* \"#utility.yul\":3785:3789   */\n      0x20\n        /* \"#utility.yul\":3778:3783   */\n      dup7\n        /* \"#utility.yul\":3774:3790   */\n      add\n        /* \"#utility.yul\":3752:3804   */\n      tag_149\n      jump\t// in\n    tag_148:\n        /* \"#utility.yul\":3829:3858   */\n      tag_150\n        /* \"#utility.yul\":3851:3857   */\n      dup2\n        /* \"#utility.yul\":3829:3858   */\n      tag_151\n      jump\t// in\n    tag_150:\n        /* \"#utility.yul\":3824:3827   */\n      dup5\n        /* \"#utility.yul\":3820:3859   */\n      add\n        /* \"#utility.yul\":3813:3859   */\n      swap2\n      pop\n        /* \"#utility.yul\":3593:3865   */\n      pop\n        /* \"#utility.yul\":3501:3865   */\n      swap3\n      swap2\n      pop\n      pop\n      jump\t// out\n        /* \"#utility.yul\":3871:3989   */\n    tag_152:\n        /* \"#utility.yul\":3958:3982   */\n      tag_154\n        /* \"#utility.yul\":3976:3981   */\n      dup2\n        /* \"#utility.yul\":3958:3982   */\n      tag_155\n      jump\t// in\n    tag_154:\n        /* \"#utility.yul\":3953:3956   */\n      dup3\n        /* \"#utility.yul\":3946:3983   */\n      mstore\n        /* \"#utility.yul\":3871:3989   */\n      pop\n      pop\n      jump\t// out\n        /* \"#utility.yul\":3995:4308   */\n    tag_15:\n        /* \"#utility.yul\":4108:4112   */\n      0x00\n        /* \"#utility.yul\":4146:4148   */\n      0x20\n        /* \"#utility.yul\":4135:4144   */\n      dup3\n        /* \"#utility.yul\":4131:4149   */\n      add\n        /* \"#utility.yul\":4123:4149   */\n      swap1\n      pop\n        /* \"#utility.yul\":4195:4204   */\n      dup2\n        /* \"#utility.yul\":4189:4193   */\n      dup2\n        /* \"#utility.yul\":4185:4205   */\n      sub\n        /* \"#utility.yul\":4181:4182   */\n      0x00\n        /* \"#utility.yul\":4170:4179   */\n      dup4\n        /* \"#utility.yul\":4166:4183   */\n      add\n        /* \"#utility.yul\":4159:4206   */\n      mstore\n        /* \"#utility.yul\":4223:4301   */\n      tag_157\n        /* \"#utility.yul\":4296:4300   */\n      dup2\n        /* \"#utility.yul\":4287:4293   */\n      dup5\n        /* \"#utility.yul\":4223:4301   */\n      tag_142\n      jump\t// in\n    tag_157:\n        /* \"#utility.yul\":4215:4301   */\n      swap1\n      pop\n        /* \"#utility.yul\":3995:4308   */\n      swap3\n      swap2\n      pop\n      pop\n      jump\t// out\n        /* \"#utility.yul\":4314:4938   */\n    tag_27:\n        /* \"#utility.yul\":4503:4507   */\n      0x00\n        /* \"#utility.yul\":4541:4543   */\n      0x60\n        /* \"#utility.yul\":4530:4539   */\n      dup3\n        /* \"#utility.yul\":4526:4544   */\n      add\n        /* \"#utility.yul\":4518:4544   */\n      swap1\n      pop\n        /* \"#utility.yul\":4590:4599   */\n      dup2\n        /* \"#utility.yul\":4584:4588   */\n      dup2\n        /* \"#utility.yul\":4580:4600   */\n      sub\n        /* \"#utility.yul\":4576:4577   */\n      0x00\n        /* \"#utility.yul\":4565:4574   */\n      dup4\n        /* \"#utility.yul\":4561:4578   */\n      add\n        /* \"#utility.yul\":4554:4601   */\n      mstore\n        /* \"#utility.yul\":4618:4696   */\n      tag_159\n        /* \"#utility.yul\":4691:4695   */\n      dup2\n        /* \"#utility.yul\":4682:4688   */\n      dup7\n        /* \"#utility.yul\":4618:4696   */\n      tag_142\n      jump\t// in\n    tag_159:\n        /* \"#utility.yul\":4610:4696   */\n      swap1\n      pop\n        /* \"#utility.yul\":4743:4752   */\n      dup2\n        /* \"#utility.yul\":4737:4741   */\n      dup2\n        /* \"#utility.yul\":4733:4753   */\n      sub\n        /* \"#utility.yul\":4728:4730   */\n      0x20\n        /* \"#utility.yul\":4717:4726   */\n      dup4\n        /* \"#utility.yul\":4713:4731   */\n      add\n        /* \"#utility.yul\":4706:4754   */\n      mstore\n        /* \"#utility.yul\":4771:4849   */\n      tag_160\n        /* \"#utility.yul\":4844:4848   */\n      dup2\n        /* \"#utility.yul\":4835:4841   */\n      dup6\n        /* \"#utility.yul\":4771:4849   */\n      tag_142\n      jump\t// in\n    tag_160:\n        /* \"#utility.yul\":4763:4849   */\n      swap1\n      pop\n        /* \"#utility.yul\":4859:4931   */\n      tag_161\n        /* \"#utility.yul\":4927:4929   */\n      0x40\n        /* \"#utility.yul\":4916:4925   */\n      dup4\n        /* \"#utility.yul\":4912:4930   */\n      add\n        /* \"#utility.yul\":4903:4909   */\n      dup5\n        /* \"#utility.yul\":4859:4931   */\n      tag_152\n      jump\t// in\n    tag_161:\n        /* \"#utility.yul\":4314:4938   */\n      swap5\n      swap4\n      pop\n      pop\n      pop\n      pop\n      jump\t// out\n        /* \"#utility.yul\":4944:5166   */\n    tag_23:\n        /* \"#utility.yul\":5037:5041   */\n      0x00\n        /* \"#utility.yul\":5075:5077   */\n      0x20\n        /* \"#utility.yul\":5064:5073   */\n      dup3\n        /* \"#utility.yul\":5060:5078   */\n      add\n        /* \"#utility.yul\":5052:5078   */\n      swap1\n      pop\n        /* \"#utility.yul\":5088:5159   */\n      tag_163\n        /* \"#utility.yul\":5156:5157   */\n      0x00\n        /* \"#utility.yul\":5145:5154   */\n      dup4\n        /* \"#utility.yul\":5141:5158   */\n      add\n        /* \"#utility.yul\":5132:5138   */\n      dup5\n        /* \"#utility.yul\":5088:5159   */\n      tag_152\n      jump\t// in\n    tag_163:\n        /* \"#utility.yul\":4944:5166   */\n      swap3\n      swap2\n      pop\n      pop\n      jump\t// out\n        /* \"#utility.yul\":5172:5301   */\n    tag_98:\n        /* \"#utility.yul\":5206:5212   */\n      0x00\n        /* \"#utility.yul\":5233:5253   */\n      tag_165\n      tag_166\n      jump\t// in\n    tag_165:\n        /* \"#utility.yul\":5223:5253   */\n      swap1\n      pop\n        /* \"#utility.yul\":5262:5295   */\n      tag_167\n        /* \"#utility.yul\":5290:5294   */\n      dup3\n        /* \"#utility.yul\":5282:5288   */\n      dup3\n        /* \"#utility.yul\":5262:5295   */\n      tag_168\n      jump\t// in\n    tag_167:\n        /* \"#utility.yul\":5172:5301   */\n      swap2\n      swap1\n      pop\n      jump\t// out\n        /* \"#utility.yul\":5307:5382   */\n    tag_166:\n        /* \"#utility.yul\":5340:5346   */\n      0x00\n        /* \"#utility.yul\":5373:5375   */\n      0x40\n        /* \"#utility.yul\":5367:5376   */\n      mload\n        /* \"#utility.yul\":5357:5376   */\n      swap1\n      pop\n        /* \"#utility.yul\":5307:5382   */\n      swap1\n      jump\t// out\n        /* \"#utility.yul\":5388:5696   */\n    tag_97:\n        /* \"#utility.yul\":5450:5454   */\n      0x00\n        /* \"#utility.yul\":5540:5558   */\n      0xffffffffffffffff\n        /* \"#utility.yul\":5532:5538   */\n      dup3\n        /* \"#utility.yul\":5529:5559   */\n      gt\n        /* \"#utility.yul\":5526:5582   */\n      iszero\n      tag_171\n      jumpi\n        /* \"#utility.yul\":5562:5580   */\n      tag_172\n      tag_173\n      jump\t// in\n    tag_172:\n        /* \"#utility.yul\":5526:5582   */\n    tag_171:\n        /* \"#utility.yul\":5600:5629   */\n      tag_174\n        /* \"#utility.yul\":5622:5628   */\n      dup3\n        /* \"#utility.yul\":5600:5629   */\n      tag_151\n      jump\t// in\n    tag_174:\n        /* \"#utility.yul\":5592:5629   */\n      swap1\n      pop\n        /* \"#utility.yul\":5684:5688   */\n      0x20\n        /* \"#utility.yul\":5678:5682   */\n      dup2\n        /* \"#utility.yul\":5674:5689   */\n      add\n        /* \"#utility.yul\":5666:5689   */\n      swap1\n      pop\n        /* \"#utility.yul\":5388:5696   */\n      swap2\n      swap1\n      pop\n      jump\t// out\n        /* \"#utility.yul\":5702:5801   */\n    tag_145:\n        /* \"#utility.yul\":5754:5760   */\n      0x00\n        /* \"#utility.yul\":5788:5793   */\n      dup2\n        /* \"#utility.yul\":5782:5794   */\n      mload\n        /* \"#utility.yul\":5772:5794   */\n      swap1\n      pop\n        /* \"#utility.yul\":5702:5801   */\n      swap2\n      swap1\n      pop\n      jump\t// out\n        /* \"#utility.yul\":5807:5976   */\n    tag_147:\n        /* \"#utility.yul\":5891:5902   */\n      0x00\n        /* \"#utility.yul\":5925:5931   */\n      dup3\n        /* \"#utility.yul\":5920:5923   */\n      dup3\n        /* \"#utility.yul\":5913:5932   */\n      mstore\n        /* \"#utility.yul\":5965:5969   */\n      0x20\n        /* \"#utility.yul\":5960:5963   */\n      dup3\n        /* \"#utility.yul\":5956:5970   */\n      add\n        /* \"#utility.yul\":5941:5970   */\n      swap1\n      pop\n        /* \"#utility.yul\":5807:5976   */\n      swap3\n      swap2\n      pop\n      pop\n      jump\t// out\n        /* \"#utility.yul\":5982:6059   */\n    tag_155:\n        /* \"#utility.yul\":6019:6026   */\n      0x00\n        /* \"#utility.yul\":6048:6053   */\n      dup2\n        /* \"#utility.yul\":6037:6053   */\n      swap1\n      pop\n        /* \"#utility.yul\":5982:6059   */\n      swap2\n      swap1\n      pop\n      jump\t// out\n        /* \"#utility.yul\":6065:6219   */\n    tag_103:\n        /* \"#utility.yul\":6149:6155   */\n      dup3\n        /* \"#utility.yul\":6144:6147   */\n      dup2\n        /* \"#utility.yul\":6139:6142   */\n      dup4\n        /* \"#utility.yul\":6126:6156   */\n      calldatacopy\n        /* \"#utility.yul\":6211:6212   */\n      0x00\n        /* \"#utility.yul\":6202:6208   */\n      dup4\n        /* \"#utility.yul\":6197:6200   */\n      dup4\n        /* \"#utility.yul\":6193:6209   */\n      add\n        /* \"#utility.yul\":6186:6213   */\n      mstore\n        /* \"#utility.yul\":6065:6219   */\n      pop\n      pop\n      pop\n      jump\t// out\n        /* \"#utility.yul\":6225:6532   */\n    tag_149:\n        /* \"#utility.yul\":6293:6294   */\n      0x00\n        /* \"#utility.yul\":6303:6416   */\n    tag_180:\n        /* \"#utility.yul\":6317:6323   */\n      dup4\n        /* \"#utility.yul\":6314:6315   */\n      dup2\n        /* \"#utility.yul\":6311:6324   */\n      lt\n        /* \"#utility.yul\":6303:6416   */\n      iszero\n      tag_182\n      jumpi\n        /* \"#utility.yul\":6402:6403   */\n      dup1\n        /* \"#utility.yul\":6397:6400   */\n      dup3\n        /* \"#utility.yul\":6393:6404   */\n      add\n        /* \"#utility.yul\":6387:6405   */\n      mload\n        /* \"#utility.yul\":6383:6384   */\n      dup2\n        /* \"#utility.yul\":6378:6381   */\n      dup5\n        /* \"#utility.yul\":6374:6385   */\n      add\n        /* \"#utility.yul\":6367:6406   */\n      mstore\n        /* \"#utility.yul\":6339:6341   */\n      0x20\n        /* \"#utility.yul\":6336:6337   */\n      dup2\n        /* \"#utility.yul\":6332:6342   */\n      add\n        /* \"#utility.yul\":6327:6342   */\n      swap1\n      pop\n        /* \"#utility.yul\":6303:6416   */\n      jump(tag_180)\n    tag_182:\n        /* \"#utility.yul\":6434:6440   */\n      dup4\n        /* \"#utility.yul\":6431:6432   */\n      dup2\n        /* \"#utility.yul\":6428:6441   */\n      gt\n        /* \"#utility.yul\":6425:6526   */\n      iszero\n      tag_183\n      jumpi\n        /* \"#utility.yul\":6514:6515   */\n      0x00\n        /* \"#utility.yul\":6505:6511   */\n      dup5\n        /* \"#utility.yul\":6500:6503   */\n      dup5\n        /* \"#utility.yul\":6496:6512   */\n      add\n        /* \"#utility.yul\":6489:6516   */\n      mstore\n        /* \"#utility.yul\":6425:6526   */\n    tag_183:\n        /* \"#utility.yul\":6274:6532   */\n      pop\n        /* \"#utility.yul\":6225:6532   */\n      pop\n      pop\n      pop\n      jump\t// out\n        /* \"#utility.yul\":6538:6858   */\n    tag_46:\n        /* \"#utility.yul\":6582:6588   */\n      0x00\n        /* \"#utility.yul\":6619:6620   */\n      0x02\n        /* \"#utility.yul\":6613:6617   */\n      dup3\n        /* \"#utility.yul\":6609:6621   */\n      div\n        /* \"#utility.yul\":6599:6621   */\n      swap1\n      pop\n        /* \"#utility.yul\":6666:6667   */\n      0x01\n        /* \"#utility.yul\":6660:6664   */\n      dup3\n        /* \"#utility.yul\":6656:6668   */\n      and\n        /* \"#utility.yul\":6687:6705   */\n      dup1\n        /* \"#utility.yul\":6677:6758   */\n      tag_185\n      jumpi\n        /* \"#utility.yul\":6743:6747   */\n      0x7f\n        /* \"#utility.yul\":6735:6741   */\n      dup3\n        /* \"#utility.yul\":6731:6748   */\n      and\n        /* \"#utility.yul\":6721:6748   */\n      swap2\n      pop\n        /* \"#utility.yul\":6677:6758   */\n    tag_185:\n        /* \"#utility.yul\":6805:6807   */\n      0x20\n        /* \"#utility.yul\":6797:6803   */\n      dup3\n        /* \"#utility.yul\":6794:6808   */\n      lt\n        /* \"#utility.yul\":6774:6792   */\n      dup2\n        /* \"#utility.yul\":6771:6809   */\n      eq\n        /* \"#utility.yul\":6768:6852   */\n      iszero\n      tag_186\n      jumpi\n        /* \"#utility.yul\":6824:6842   */\n      tag_187\n      tag_188\n      jump\t// in\n    tag_187:\n        /* \"#utility.yul\":6768:6852   */\n    tag_186:\n        /* \"#utility.yul\":6589:6858   */\n      pop\n        /* \"#utility.yul\":6538:6858   */\n      swap2\n      swap1\n      pop\n      jump\t// out\n        /* \"#utility.yul\":6864:7145   */\n    tag_168:\n        /* \"#utility.yul\":6947:6974   */\n      tag_190\n        /* \"#utility.yul\":6969:6973   */\n      dup3\n        /* \"#utility.yul\":6947:6974   */\n      tag_151\n      jump\t// in\n    tag_190:\n        /* \"#utility.yul\":6939:6945   */\n      dup2\n        /* \"#utility.yul\":6935:6975   */\n      add\n        /* \"#utility.yul\":7077:7083   */\n      dup2\n        /* \"#utility.yul\":7065:7075   */\n      dup2\n        /* \"#utility.yul\":7062:7084   */\n      lt\n        /* \"#utility.yul\":7041:7059   */\n      0xffffffffffffffff\n        /* \"#utility.yul\":7029:7039   */\n      dup3\n        /* \"#utility.yul\":7026:7060   */\n      gt\n        /* \"#utility.yul\":7023:7085   */\n      or\n        /* \"#utility.yul\":7020:7108   */\n      iszero\n      tag_191\n      jumpi\n        /* \"#utility.yul\":7088:7106   */\n      tag_192\n      tag_173\n      jump\t// in\n    tag_192:\n        /* \"#utility.yul\":7020:7108   */\n    tag_191:\n        /* \"#utility.yul\":7128:7138   */\n      dup1\n        /* \"#utility.yul\":7124:7126   */\n      0x40\n        /* \"#utility.yul\":7117:7139   */\n      mstore\n        /* \"#utility.yul\":6907:7145   */\n      pop\n        /* \"#utility.yul\":6864:7145   */\n      pop\n      pop\n      jump\t// out\n        /* \"#utility.yul\":7151:7331   */\n    tag_188:\n        /* \"#utility.yul\":7199:7276   */\n      0x4e487b7100000000000000000000000000000000000000000000000000000000\n        /* \"#utility.yul\":7196:7197   */\n      0x00\n        /* \"#utility.yul\":7189:7277   */\n      mstore\n        /* \"#utility.yul\":7296:7300   */\n      0x22\n        /* \"#utility.yul\":7293:7294   */\n      0x04\n        /* \"#utility.yul\":7286:7301   */\n      mstore\n        /* \"#utility.yul\":7320:7324   */\n      0x24\n        /* \"#utility.yul\":7317:7318   */\n      0x00\n        /* \"#utility.yul\":7310:7325   */\n      revert\n        /* \"#utility.yul\":7337:7517   */\n    tag_54:\n        /* \"#utility.yul\":7385:7462   */\n      0x4e487b7100000000000000000000000000000000000000000000000000000000\n        /* \"#utility.yul\":7382:7383   */\n      0x00\n        /* \"#utility.yul\":7375:7463   */\n      mstore\n        /* \"#utility.yul\":7482:7486   */\n      0x32\n        /* \"#utility.yul\":7479:7480   */\n      0x04\n        /* \"#utility.yul\":7472:7487   */\n      mstore\n        /* \"#utility.yul\":7506:7510   */\n      0x24\n        /* \"#utility.yul\":7503:7504   */\n      0x00\n        /* \"#utility.yul\":7496:7511   */\n      revert\n        /* \"#utility.yul\":7523:7703   */\n    tag_173:\n        /* \"#utility.yul\":7571:7648   */\n      0x4e487b7100000000000000000000000000000000000000000000000000000000\n        /* \"#utility.yul\":7568:7569   */\n      0x00\n        /* \"#utility.yul\":7561:7649   */\n      mstore\n        /* \"#utility.yul\":7668:7672   */\n      0x41\n        /* \"#utility.yul\":7665:7666   */\n      0x04\n        /* \"#utility.yul\":7658:7673   */\n      mstore\n        /* \"#utility.yul\":7692:7696   */\n      0x24\n        /* \"#utility.yul\":7689:7690   */\n      0x00\n        /* \"#utility.yul\":7682:7697   */\n      revert\n        /* \"#utility.yul\":7709:7826   */\n    tag_108:\n        /* \"#utility.yul\":7818:7819   */\n      0x00\n        /* \"#utility.yul\":7815:7816   */\n      dup1\n        /* \"#utility.yul\":7808:7820   */\n      revert\n        /* \"#utility.yul\":7832:7949   */\n    tag_101:\n        /* \"#utility.yul\":7941:7942   */\n      0x00\n        /* \"#utility.yul\":7938:7939   */\n      dup1\n        /* \"#utility.yul\":7931:7943   */\n      revert\n        /* \"#utility.yul\":7955:8072   */\n    tag_120:\n        /* \"#utility.yul\":8064:8065   */\n      0x00\n        /* \"#utility.yul\":8061:8062   */\n      dup1\n        /* \"#utility.yul\":8054:8066   */\n      revert\n        /* \"#utility.yul\":8078:8195   */\n    tag_117:\n        /* \"#utility.yul\":8187:8188   */\n      0x00\n        /* \"#utility.yul\":8184:8185   */\n      dup1\n        /* \"#utility.yul\":8177:8189   */\n      revert\n        /* \"#utility.yul\":8201:8303   */\n    tag_151:\n        /* \"#utility.yul\":8242:8248   */\n      0x00\n        /* \"#utility.yul\":8293:8295   */\n      0x1f\n        /* \"#utility.yul\":8289:8296   */\n      not\n        /* \"#utility.yul\":8284:8286   */\n      0x1f\n        /* \"#utility.yul\":8277:8282   */\n      dup4\n        /* \"#utility.yul\":8273:8287   */\n      add\n        /* \"#utility.yul\":8269:8297   */\n      and\n        /* \"#utility.yul\":8259:8297   */\n      swap1\n      pop\n        /* \"#utility.yul\":8201:8303   */\n      swap2\n      swap1\n      pop\n      jump\t// out\n        /* \"#utility.yul\":8309:8431   */\n    tag_113:\n        /* \"#utility.yul\":8382:8406   */\n      tag_202\n        /* \"#utility.yul\":8400:8405   */\n      dup2\n        /* \"#utility.yul\":8382:8406   */\n      tag_155\n      jump\t// in\n    tag_202:\n        /* \"#utility.yul\":8375:8380   */\n      dup2\n        /* \"#utility.yul\":8372:8407   */\n      eq\n        /* \"#utility.yul\":8362:8425   */\n      tag_203\n      jumpi\n        /* \"#utility.yul\":8421:8422   */\n      0x00\n        /* \"#utility.yul\":8418:8419   */\n      dup1\n        /* \"#utility.yul\":8411:8423   */\n      revert\n        /* \"#utility.yul\":8362:8425   */\n    tag_203:\n        /* \"#utility.yul\":8309:8431   */\n      pop\n      jump\t// out\n\n    auxdata: 0xa2646970667358221220d1300aa2c8789f57f62755778697e0dd5fa21e19a14b329e9eafb0d4607875d364736f6c63430008070033\n}\n",
				"bytecode": {
					"linkReferences": {},
					"object": "60806040523480156200001157600080fd5b5060405162000e1838038062000e188339818101604052810190620000379190620001a4565b81600090805190602001906200004f9291906200005f565b50806001819055505050620003b2565b8280546200006d90620002a9565b90600052602060002090601f016020900481019282620000915760008555620000dd565b82601f10620000ac57805160ff1916838001178555620000dd565b82800160010185558215620000dd579182015b82811115620000dc578251825591602001919060010190620000bf565b5b509050620000ec9190620000f0565b5090565b5b808211156200010b576000816000905550600101620000f1565b5090565b600062000126620001208462000233565b6200020a565b90508281526020810184848401111562000145576200014462000378565b5b6200015284828562000273565b509392505050565b600082601f83011262000172576200017162000373565b5b8151620001848482602086016200010f565b91505092915050565b6000815190506200019e8162000398565b92915050565b60008060408385031215620001be57620001bd62000382565b5b600083015167ffffffffffffffff811115620001df57620001de6200037d565b5b620001ed858286016200015a565b925050602062000200858286016200018d565b9150509250929050565b60006200021662000229565b9050620002248282620002df565b919050565b6000604051905090565b600067ffffffffffffffff82111562000251576200025062000344565b5b6200025c8262000387565b9050602081019050919050565b6000819050919050565b60005b838110156200029357808201518184015260208101905062000276565b83811115620002a3576000848401525b50505050565b60006002820490506001821680620002c257607f821691505b60208210811415620002d957620002d862000315565b5b50919050565b620002ea8262000387565b810181811067ffffffffffffffff821117156200030c576200030b62000344565b5b80604052505050565b7f4e487b7100000000000000000000000000000000000000000000000000000000600052602260045260246000fd5b7f4e487b7100000000000000000000000000000000000000000000000000000000600052604160045260246000fd5b600080fd5b600080fd5b600080fd5b600080fd5b6000601f19601f8301169050919050565b620003a38162000269565b8114620003af57600080fd5b50565b610a5680620003c26000396000f3fe608060405234801561001057600080fd5b50600436106100885760003560e01c80636d35e3461161005b5780636d35e34614610105578063767f9dcf14610121578063d653f3071461013d578063e780faa31461016d57610088565b806306fdde031461008d578063204653d3146100ab578063262a9dff146100c7578063465fe0ee146100e5575b600080fd5b61009561019d565b6040516100a291906107b4565b60405180910390f35b6100c560048036038101906100c091906106c5565b61022b565b005b6100cf610265565b6040516100dc919061081b565b60405180910390f35b6100ed61026b565b6040516100fc939291906107d6565b60405180910390f35b61011f600480360381019061011a9190610705565b610393565b005b61013b6004803603810190610136919061060d565b61043d565b005b61015760048036038101906101529190610698565b6104a6565b604051610164919061081b565b60405180910390f35b61018760048036038101906101829190610698565b6104ca565b604051610194919061081b565b60405180910390f35b600080546101aa906108f4565b80601f01602080910402602001604051908101604052809291908181526020018280546101d6906108f4565b80156102235780601f106101f857610100808354040283529160200191610223565b820191906000526020600020905b81548152906001019060200180831161020657829003601f168201915b505050505081565b81600260006002811061024157610240610986565b5b018190555080600260016002811061025c5761025b610986565b5b01819055505050565b60015481565b600580600001805461027c906108f4565b80601f01602080910402602001604051908101604052809291908181526020018280546102a8906108f4565b80156102f55780601f106102ca576101008083540402835291602001916102f5565b820191906000526020600020905b8154815290600101906020018083116102d857829003601f168201915b50505050509080600101805461030a906108f4565b80601f0160208091040260200160405190810160405280929190818152602001828054610336906108f4565b80156103835780601f1061035857610100808354040283529160200191610383565b820191906000526020600020905b81548152906001019060200180831161036657829003601f168201915b5050505050908060020154905083565b600484908060018154018082558091505060019003906000526020600020016000909190919091505560048390806001815401808255809150506001900390600052602060002001600090919091909150556004829080600181540180825580915050600190039060005260206000200160009091909190915055600481908060018154018082558091505060019003906000526020600020016000909190919091505550505050565b604051806060016040528084815260200183815260200182815250600560008201518160000190805190602001906104769291906104e5565b5060208201518160010190805190602001906104939291906104e5565b5060408201518160020155905050505050565b600481815481106104b657600080fd5b906000526020600020016000915090505481565b600281600281106104da57600080fd5b016000915090505481565b8280546104f1906108f4565b90600052602060002090601f016020900481019282610513576000855561055a565b82601f1061052c57805160ff191683800117855561055a565b8280016001018555821561055a579182015b8281111561055957825182559160200191906001019061053e565b5b509050610567919061056b565b5090565b5b8082111561058457600081600090555060010161056c565b5090565b600061059b6105968461085b565b610836565b9050828152602081018484840111156105b7576105b66109e9565b5b6105c28482856108b2565b509392505050565b600082601f8301126105df576105de6109e4565b5b81356105ef848260208601610588565b91505092915050565b60008135905061060781610a09565b92915050565b600080600060608486031215610626576106256109f3565b5b600084013567ffffffffffffffff811115610644576106436109ee565b5b610650868287016105ca565b935050602084013567ffffffffffffffff811115610671576106706109ee565b5b61067d868287016105ca565b925050604061068e868287016105f8565b9150509250925092565b6000602082840312156106ae576106ad6109f3565b5b60006106bc848285016105f8565b91505092915050565b600080604083850312156106dc576106db6109f3565b5b60006106ea858286016105f8565b92505060206106fb858286016105f8565b9150509250929050565b6000806000806080858703121561071f5761071e6109f3565b5b600061072d878288016105f8565b945050602061073e878288016105f8565b935050604061074f878288016105f8565b9250506060610760878288016105f8565b91505092959194509250565b60006107778261088c565b6107818185610897565b93506107918185602086016108c1565b61079a816109f8565b840191505092915050565b6107ae816108a8565b82525050565b600060208201905081810360008301526107ce818461076c565b905092915050565b600060608201905081810360008301526107f0818661076c565b90508181036020830152610804818561076c565b905061081360408301846107a5565b949350505050565b600060208201905061083060008301846107a5565b92915050565b6000610840610851565b905061084c8282610926565b919050565b6000604051905090565b600067ffffffffffffffff821115610876576108756109b5565b5b61087f826109f8565b9050602081019050919050565b600081519050919050565b600082825260208201905092915050565b6000819050919050565b82818337600083830152505050565b60005b838110156108df5780820151818401526020810190506108c4565b838111156108ee576000848401525b50505050565b6000600282049050600182168061090c57607f821691505b602082108114156109205761091f610957565b5b50919050565b61092f826109f8565b810181811067ffffffffffffffff8211171561094e5761094d6109b5565b5b80604052505050565b7f4e487b7100000000000000000000000000000000000000000000000000000000600052602260045260246000fd5b7f4e487b7100000000000000000000000000000000000000000000000000000000600052603260045260246000fd5b7f4e487b7100000000000000000000000000000000000000000000000000000000600052604160045260246000fd5b600080fd5b600080fd5b600080fd5b600080fd5b6000601f19601f8301169050919050565b610a12816108a8565b8114610a1d57600080fd5b5056fea2646970667358221220d1300aa2c8789f57f62755778697e0dd5fa21e19a14b329e9eafb0d4607875d364736f6c63430008070033",
					"opcodes": "PUSH1 0x80 PUSH1 0x40 MSTORE CALLVALUE DUP1 ISZERO PUSH3 0x11 JUMPI PUSH1 0x0 DUP1 REVERT JUMPDEST POP PUSH1 0x40 MLOAD PUSH3 0xE18 CODESIZE SUB DUP1 PUSH3 0xE18 DUP4 CODECOPY DUP2 DUP2 ADD PUSH1 0x40 MSTORE DUP2 ADD SWAP1 PUSH3 0x37 SWAP2 SWAP1 PUSH3 0x1A4 JUMP JUMPDEST DUP2 PUSH1 0x0 SWAP1 DUP1 MLOAD SWAP1 PUSH1 0x20 ADD SWAP1 PUSH3 0x4F SWAP3 SWAP2 SWAP1 PUSH3 0x5F JUMP JUMPDEST POP DUP1 PUSH1 0x1 DUP2 SWAP1 SSTORE POP POP POP PUSH3 0x3B2 JUMP JUMPDEST DUP3 DUP1 SLOAD PUSH3 0x6D SWAP1 PUSH3 0x2A9 JUMP JUMPDEST SWAP1 PUSH1 0x0 MSTORE PUSH1 0x20 PUSH1 0x0 KECCAK256 SWAP1 PUSH1 0x1F ADD PUSH1 0x20 SWAP1 DIV DUP2 ADD SWAP3 DUP3 PUSH3 0x91 JUMPI PUSH1 0x0 DUP6 SSTORE PUSH3 0xDD JUMP JUMPDEST DUP3 PUSH1 0x1F LT PUSH3 0xAC JUMPI DUP1 MLOAD PUSH1 0xFF NOT AND DUP4 DUP1 ADD OR DUP6 SSTORE PUSH3 0xDD JUMP JUMPDEST DUP3 DUP1 ADD PUSH1 0x1 ADD DUP6 SSTORE DUP3 ISZERO PUSH3 0xDD JUMPI SWAP2 DUP3 ADD JUMPDEST DUP3 DUP2 GT ISZERO PUSH3 0xDC JUMPI DUP3 MLOAD DUP3 SSTORE SWAP2 PUSH1 0x20 ADD SWAP2 SWAP1 PUSH1 0x1 ADD SWAP1 PUSH3 0xBF JUMP JUMPDEST JUMPDEST POP SWAP1 POP PUSH3 0xEC SWAP2 SWAP1 PUSH3 0xF0 JUMP JUMPDEST POP SWAP1 JUMP JUMPDEST JUMPDEST DUP1 DUP3 GT ISZERO PUSH3 0x10B JUMPI PUSH1 0x0 DUP2 PUSH1 0x0 SWAP1 SSTORE POP PUSH1 0x1 ADD PUSH3 0xF1 JUMP JUMPDEST POP SWAP1 JUMP JUMPDEST PUSH1 0x0 PUSH3 0x126 PUSH3 0x120 DUP5 PUSH3 0x233 JUMP JUMPDEST PUSH3 0x20A JUMP JUMPDEST SWAP1 POP DUP3 DUP2 MSTORE PUSH1 0x20 DUP2 ADD DUP5 DUP5 DUP5 ADD GT ISZERO PUSH3 0x145 JUMPI PUSH3 0x144 PUSH3 0x378 JUMP JUMPDEST JUMPDEST PUSH3 0x152 DUP5 DUP3 DUP6 PUSH3 0x273 JUMP JUMPDEST POP SWAP4 SWAP3 POP POP POP JUMP JUMPDEST PUSH1 0x0 DUP3 PUSH1 0x1F DUP4 ADD SLT PUSH3 0x172 JUMPI PUSH3 0x171 PUSH3 0x373 JUMP JUMPDEST JUMPDEST DUP2 MLOAD PUSH3 0x184 DUP5 DUP3 PUSH1 0x20 DUP7 ADD PUSH3 0x10F JUMP JUMPDEST SWAP2 POP POP SWAP3 SWAP2 POP POP JUMP JUMPDEST PUSH1 0x0 DUP2 MLOAD SWAP1 POP PUSH3 0x19E DUP2 PUSH3 0x398 JUMP JUMPDEST SWAP3 SWAP2 POP POP JUMP JUMPDEST PUSH1 0x0 DUP1 PUSH1 0x40 DUP4 DUP6 SUB SLT ISZERO PUSH3 0x1BE JUMPI PUSH3 0x1BD PUSH3 0x382 JUMP JUMPDEST JUMPDEST PUSH1 0x0 DUP4 ADD MLOAD PUSH8 0xFFFFFFFFFFFFFFFF DUP2 GT ISZERO PUSH3 0x1DF JUMPI PUSH3 0x1DE PUSH3 0x37D JUMP JUMPDEST JUMPDEST PUSH3 0x1ED DUP6 DUP3 DUP7 ADD PUSH3 0x15A JUMP JUMPDEST SWAP3 POP POP PUSH1 0x20 PUSH3 0x200 DUP6 DUP3 DUP7 ADD PUSH3 0x18D JUMP JUMPDEST SWAP2 POP POP SWAP3 POP SWAP3 SWAP1 POP JUMP JUMPDEST PUSH1 0x0 PUSH3 0x216 PUSH3 0x229 JUMP JUMPDEST SWAP1 POP PUSH3 0x224 DUP3 DUP3 PUSH3 0x2DF JUMP JUMPDEST SWAP2 SWAP1 POP JUMP JUMPDEST PUSH1 0x0 PUSH1 0x40 MLOAD SWAP1 POP SWAP1 JUMP JUMPDEST PUSH1 0x0 PUSH8 0xFFFFFFFFFFFFFFFF DUP3 GT ISZERO PUSH3 0x251 JUMPI PUSH3 0x250 PUSH3 0x344 JUMP JUMPDEST JUMPDEST PUSH3 0x25C DUP3 PUSH3 0x387 JUMP JUMPDEST SWAP1 POP PUSH1 0x20 DUP2 ADD SWAP1 POP SWAP2 SWAP1 POP JUMP JUMPDEST PUSH1 0x0 DUP2 SWAP1 POP SWAP2 SWAP1 POP JUMP JUMPDEST PUSH1 0x0 JUMPDEST DUP4 DUP2 LT ISZERO PUSH3 0x293 JUMPI DUP1 DUP3 ADD MLOAD DUP2 DUP5 ADD MSTORE PUSH1 0x20 DUP2 ADD SWAP1 POP PUSH3 0x276 JUMP JUMPDEST DUP4 DUP2 GT ISZERO PUSH3 0x2A3 JUMPI PUSH1 0x0 DUP5 DUP5 ADD MSTORE JUMPDEST POP POP POP POP JUMP JUMPDEST PUSH1 0x0 PUSH1 0x2 DUP3 DIV SWAP1 POP PUSH1 0x1 DUP3 AND DUP1 PUSH3 0x2C2 JUMPI PUSH1 0x7F DUP3 AND SWAP2 POP JUMPDEST PUSH1 0x20 DUP3 LT DUP2 EQ ISZERO PUSH3 0x2D9 JUMPI PUSH3 0x2D8 PUSH3 0x315 JUMP JUMPDEST JUMPDEST POP SWAP2 SWAP1 POP JUMP JUMPDEST PUSH3 0x2EA DUP3 PUSH3 0x387 JUMP JUMPDEST DUP2 ADD DUP2 DUP2 LT PUSH8 0xFFFFFFFFFFFFFFFF DUP3 GT OR ISZERO PUSH3 0x30C JUMPI PUSH3 0x30B PUSH3 0x344 JUMP JUMPDEST JUMPDEST DUP1 PUSH1 0x40 MSTORE POP POP POP JUMP JUMPDEST PUSH32 0x4E487B7100000000000000000000000000000000000000000000000000000000 PUSH1 0x0 MSTORE PUSH1 0x22 PUSH1 0x4 MSTORE PUSH1 0x24 PUSH1 0x0 REVERT JUMPDEST PUSH32 0x4E487B7100000000000000000000000000000000000000000000000000000000 PUSH1 0x0 MSTORE PUSH1 0x41 PUSH1 0x4 MSTORE PUSH1 0x24 PUSH1 0x0 REVERT JUMPDEST PUSH1 0x0 DUP1 REVERT JUMPDEST PUSH1 0x0 DUP1 REVERT JUMPDEST PUSH1 0x0 DUP1 REVERT JUMPDEST PUSH1 0x0 DUP1 REVERT JUMPDEST PUSH1 0x0 PUSH1 0x1F NOT PUSH1 0x1F DUP4 ADD AND SWAP1 POP SWAP2 SWAP1 POP JUMP JUMPDEST PUSH3 0x3A3 DUP2 PUSH3 0x269 JUMP JUMPDEST DUP2 EQ PUSH3 0x3AF JUMPI PUSH1 0x0 DUP1 REVERT JUMPDEST POP JUMP JUMPDEST PUSH2 0xA56 DUP1 PUSH3 0x3C2 PUSH1 0x0 CODECOPY PUSH1 0x0 RETURN INVALID PUSH1 0x80 PUSH1 0x40 MSTORE CALLVALUE DUP1 ISZERO PUSH2 0x10 JUMPI PUSH1 0x0 DUP1 REVERT JUMPDEST POP PUSH1 0x4 CALLDATASIZE LT PUSH2 0x88 JUMPI PUSH1 0x0 CALLDATALOAD PUSH1 0xE0 SHR DUP1 PUSH4 0x6D35E346 GT PUSH2 0x5B JUMPI DUP1 PUSH4 0x6D35E346 EQ PUSH2 0x105 JUMPI DUP1 PUSH4 0x767F9DCF EQ PUSH2 0x121 JUMPI DUP1 PUSH4 0xD653F307 EQ PUSH2 0x13D JUMPI DUP1 PUSH4 0xE780FAA3 EQ PUSH2 0x16D JUMPI PUSH2 0x88 JUMP JUMPDEST DUP1 PUSH4 0x6FDDE03 EQ PUSH2 0x8D JUMPI DUP1 PUSH4 0x204653D3 EQ PUSH2 0xAB JUMPI DUP1 PUSH4 0x262A9DFF EQ PUSH2 0xC7 JUMPI DUP1 PUSH4 0x465FE0EE EQ PUSH2 0xE5 JUMPI JUMPDEST PUSH1 0x0 DUP1 REVERT JUMPDEST PUSH2 0x95 PUSH2 0x19D JUMP JUMPDEST PUSH1 0x40 MLOAD PUSH2 0xA2 SWAP2 SWAP1 PUSH2 0x7B4 JUMP JUMPDEST PUSH1 0x40 MLOAD DUP1 SWAP2 SUB SWAP1 RETURN JUMPDEST PUSH2 0xC5 PUSH1 0x4 DUP1 CALLDATASIZE SUB DUP2 ADD SWAP1 PUSH2 0xC0 SWAP2 SWAP1 PUSH2 0x6C5 JUMP JUMPDEST PUSH2 0x22B JUMP JUMPDEST STOP JUMPDEST PUSH2 0xCF PUSH2 0x265 JUMP JUMPDEST PUSH1 0x40 MLOAD PUSH2 0xDC SWAP2 SWAP1 PUSH2 0x81B JUMP JUMPDEST PUSH1 0x40 MLOAD DUP1 SWAP2 SUB SWAP1 RETURN JUMPDEST PUSH2 0xED PUSH2 0x26B JUMP JUMPDEST PUSH1 0x40 MLOAD PUSH2 0xFC SWAP4 SWAP3 SWAP2 SWAP1 PUSH2 0x7D6 JUMP JUMPDEST PUSH1 0x40 MLOAD DUP1 SWAP2 SUB SWAP1 RETURN JUMPDEST PUSH2 0x11F PUSH1 0x4 DUP1 CALLDATASIZE SUB DUP2 ADD SWAP1 PUSH2 0x11A SWAP2 SWAP1 PUSH2 0x705 JUMP JUMPDEST PUSH2 0x393 JUMP JUMPDEST STOP JUMPDEST PUSH2 0x13B PUSH1 0x4 DUP1 CALLDATASIZE SUB DUP2 ADD SWAP1 PUSH2 0x136 SWAP2 SWAP1 PUSH2 0x60D JUMP JUMPDEST PUSH2 0x43D JUMP JUMPDEST STOP JUMPDEST PUSH2 0x157 PUSH1 0x4 DUP1 CALLDATASIZE SUB DUP2 ADD SWAP1 PUSH2 0x152 SWAP2 SWAP1 PUSH2 0x698 JUMP JUMPDEST PUSH2 0x4A6 JUMP JUMPDEST PUSH1 0x40 MLOAD PUSH2 0x164 SWAP2 SWAP1 PUSH2 0x81B JUMP JUMPDEST PUSH1 0x40 MLOAD DUP1 SWAP2 SUB SWAP1 RETURN JUMPDEST PUSH2 0x187 PUSH1 0x4 DUP1 CALLDATASIZE SUB DUP2 ADD SWAP1 PUSH2 0x182 SWAP2 SWAP1 PUSH2 0x698 JUMP JUMPDEST PUSH2 0x4CA JUMP JUMPDEST PUSH1 0x40 MLOAD PUSH2 0x194 SWAP2 SWAP1 PUSH2 0x81B JUMP JUMPDEST PUSH1 0x40 MLOAD DUP1 SWAP2 SUB SWAP1 RETURN JUMPDEST PUSH1 0x0 DUP1 SLOAD PUSH2 0x1AA SWAP1 PUSH2 0x8F4 JUMP JUMPDEST DUP1 PUSH1 0x1F ADD PUSH1 0x20 DUP1 SWAP2 DIV MUL PUSH1 0x20 ADD PUSH1 0x40 MLOAD SWAP1 DUP2 ADD PUSH1 0x40 MSTORE DUP1 SWAP3 SWAP2 SWAP1 DUP2 DUP2 MSTORE PUSH1 0x20 ADD DUP3 DUP1 SLOAD PUSH2 0x1D6 SWAP1 PUSH2 0x8F4 JUMP JUMPDEST DUP1 ISZERO PUSH2 0x223 JUMPI DUP1 PUSH1 0x1F LT PUSH2 0x1F8 JUMPI PUSH2 0x100 DUP1 DUP4 SLOAD DIV MUL DUP4 MSTORE SWAP2 PUSH1 0x20 ADD SWAP2 PUSH2 0x223 JUMP JUMPDEST DUP3 ADD SWAP2 SWAP1 PUSH1 0x0 MSTORE PUSH1 0x20 PUSH1 0x0 KECCAK256 SWAP1 JUMPDEST DUP2 SLOAD DUP2 MSTORE SWAP1 PUSH1 0x1 ADD SWAP1 PUSH1 0x20 ADD DUP1 DUP4 GT PUSH2 0x206 JUMPI DUP3 SWAP1 SUB PUSH1 0x1F AND DUP3 ADD SWAP2 JUMPDEST POP POP POP POP POP DUP2 JUMP JUMPDEST DUP2 PUSH1 0x2 PUSH1 0x0 PUSH1 0x2 DUP2 LT PUSH2 0x241 JUMPI PUSH2 0x240 PUSH2 0x986 JUMP JUMPDEST JUMPDEST ADD DUP2 SWAP1 SSTORE POP DUP1 PUSH1 0x2 PUSH1 0x1 PUSH1 0x2 DUP2 LT PUSH2 0x25C JUMPI PUSH2 0x25B PUSH2 0x986 JUMP JUMPDEST JUMPDEST ADD DUP2 SWAP1 SSTORE POP POP POP JUMP JUMPDEST PUSH1 0x1 SLOAD DUP2 JUMP JUMPDEST PUSH1 0x5 DUP1 PUSH1 0x0 ADD DUP1 SLOAD PUSH2 0x27C SWAP1 PUSH2 0x8F4 JUMP JUMPDEST DUP1 PUSH1 0x1F ADD PUSH1 0x20 DUP1 SWAP2 DIV MUL PUSH1 0x20 ADD PUSH1 0x40 MLOAD SWAP1 DUP2 ADD PUSH1 0x40 MSTORE DUP1 SWAP3 SWAP2 SWAP1 DUP2 DUP2 MSTORE PUSH1 0x20 ADD DUP3 DUP1 SLOAD PUSH2 0x2A8 SWAP1 PUSH2 0x8F4 JUMP JUMPDEST DUP1 ISZERO PUSH2 0x2F5 JUMPI DUP1 PUSH1 0x1F LT PUSH2 0x2CA JUMPI PUSH2 0x100 DUP1 DUP4 SLOAD DIV MUL DUP4 MSTORE SWAP2 PUSH1 0x20 ADD SWAP2 PUSH2 0x2F5 JUMP JUMPDEST DUP3 ADD SWAP2 SWAP1 PUSH1 0x0 MSTORE PUSH1 0x20 PUSH1 0x0 KECCAK256 SWAP1 JUMPDEST DUP2 SLOAD DUP2 MSTORE SWAP1 PUSH1 0x1 ADD SWAP1 PUSH1 0x20 ADD DUP1 DUP4 GT PUSH2 0x2D8 JUMPI DUP3 SWAP1 SUB PUSH1 0x1F AND DUP3 ADD SWAP2 JUMPDEST POP POP POP POP POP SWAP1 DUP1 PUSH1 0x1 ADD DUP1 SLOAD PUSH2 0x30A SWAP1 PUSH2 0x8F4 JUMP JUMPDEST DUP1 PUSH1 0x1F ADD PUSH1 0x20 DUP1 SWAP2 DIV MUL PUSH1 0x20 ADD PUSH1 0x40 MLOAD SWAP1 DUP2 ADD PUSH1 0x40 MSTORE DUP1 SWAP3 SWAP2 SWAP1 DUP2 DUP2 MSTORE PUSH1 0x20 ADD DUP3 DUP1 SLOAD PUSH2 0x336 SWAP1 PUSH2 0x8F4 JUMP JUMPDEST DUP1 ISZERO PUSH2 0x383 JUMPI DUP1 PUSH1 0x1F LT PUSH2 0x358 JUMPI PUSH2 0x100 DUP1 DUP4 SLOAD DIV MUL DUP4 MSTORE SWAP2 PUSH1 0x20 ADD SWAP2 PUSH2 0x383 JUMP JUMPDEST DUP3 ADD SWAP2 SWAP1 PUSH1 0x0 MSTORE PUSH1 0x20 PUSH1 0x0 KECCAK256 SWAP1 JUMPDEST DUP2 SLOAD DUP2 MSTORE SWAP1 PUSH1 0x1 ADD SWAP1 PUSH1 0x20 ADD DUP1 DUP4 GT PUSH2 0x366 JUMPI DUP3 SWAP1 SUB PUSH1 0x1F AND DUP3 ADD SWAP2 JUMPDEST POP POP POP POP POP SWAP1 DUP1 PUSH1 0x2 ADD SLOAD SWAP1 POP DUP4 JUMP JUMPDEST PUSH1 0x4 DUP5 SWAP1 DUP1 PUSH1 0x1 DUP2 SLOAD ADD DUP1 DUP3 SSTORE DUP1 SWAP2 POP POP PUSH1 0x1 SWAP1 SUB SWAP1 PUSH1 0x0 MSTORE PUSH1 0x20 PUSH1 0x0 KECCAK256 ADD PUSH1 0x0 SWAP1 SWAP2 SWAP1 SWAP2 SWAP1 SWAP2 POP SSTORE PUSH1 0x4 DUP4 SWAP1 DUP1 PUSH1 0x1 DUP2 SLOAD ADD DUP1 DUP3 SSTORE DUP1 SWAP2 POP POP PUSH1 0x1 SWAP1 SUB SWAP1 PUSH1 0x0 MSTORE PUSH1 0x20 PUSH1 0x0 KECCAK256 ADD PUSH1 0x0 SWAP1 SWAP2 SWAP1 SWAP2 SWAP1 SWAP2 POP SSTORE PUSH1 0x4 DUP3 SWAP1 DUP1 PUSH1 0x1 DUP2 SLOAD ADD DUP1 DUP3 SSTORE DUP1 SWAP2 POP POP PUSH1 0x1 SWAP1 SUB SWAP1 PUSH1 0x0 MSTORE PUSH1 0x20 PUSH1 0x0 KECCAK256 ADD PUSH1 0x0 SWAP1 SWAP2 SWAP1 SWAP2 SWAP1 SWAP2 POP SSTORE PUSH1 0x4 DUP2 SWAP1 DUP1 PUSH1 0x1 DUP2 SLOAD ADD DUP1 DUP3 SSTORE DUP1 SWAP2 POP POP PUSH1 0x1 SWAP1 SUB SWAP1 PUSH1 0x0 MSTORE PUSH1 0x20 PUSH1 0x0 KECCAK256 ADD PUSH1 0x0 SWAP1 SWAP2 SWAP1 SWAP2 SWAP1 SWAP2 POP SSTORE POP POP POP POP JUMP JUMPDEST PUSH1 0x40 MLOAD DUP1 PUSH1 0x60 ADD PUSH1 0x40 MSTORE DUP1 DUP5 DUP2 MSTORE PUSH1 0x20 ADD DUP4 DUP2 MSTORE PUSH1 0x20 ADD DUP3 DUP2 MSTORE POP PUSH1 0x5 PUSH1 0x0 DUP3 ADD MLOAD DUP2 PUSH1 0x0 ADD SWAP1 DUP1 MLOAD SWAP1 PUSH1 0x20 ADD SWAP1 PUSH2 0x476 SWAP3 SWAP2 SWAP1 PUSH2 0x4E5 JUMP JUMPDEST POP PUSH1 0x20 DUP3 ADD MLOAD DUP2 PUSH1 0x1 ADD SWAP1 DUP1 MLOAD SWAP1 PUSH1 0x20 ADD SWAP1 PUSH2 0x493 SWAP3 SWAP2 SWAP1 PUSH2 0x4E5 JUMP JUMPDEST POP PUSH1 0x40 DUP3 ADD MLOAD DUP2 PUSH1 0x2 ADD SSTORE SWAP1 POP POP POP POP POP JUMP JUMPDEST PUSH1 0x4 DUP2 DUP2 SLOAD DUP2 LT PUSH2 0x4B6 JUMPI PUSH1 0x0 DUP1 REVERT JUMPDEST SWAP1 PUSH1 0x0 MSTORE PUSH1 0x20 PUSH1 0x0 KECCAK256 ADD PUSH1 0x0 SWAP2 POP SWAP1 POP SLOAD DUP2 JUMP JUMPDEST PUSH1 0x2 DUP2 PUSH1 0x2 DUP2 LT PUSH2 0x4DA JUMPI PUSH1 0x0 DUP1 REVERT JUMPDEST ADD PUSH1 0x0 SWAP2 POP SWAP1 POP SLOAD DUP2 JUMP JUMPDEST DUP3 DUP1 SLOAD PUSH2 0x4F1 SWAP1 PUSH2 0x8F4 JUMP JUMPDEST SWAP1 PUSH1 0x0 MSTORE PUSH1 0x20 PUSH1 0x0 KECCAK256 SWAP1 PUSH1 0x1F ADD PUSH1 0x20 SWAP1 DIV DUP2 ADD SWAP3 DUP3 PUSH2 0x513 JUMPI PUSH1 0x0 DUP6 SSTORE PUSH2 0x55A JUMP JUMPDEST DUP3 PUSH1 0x1F LT PUSH2 0x52C JUMPI DUP1 MLOAD PUSH1 0xFF NOT AND DUP4 DUP1 ADD OR DUP6 SSTORE PUSH2 0x55A JUMP JUMPDEST DUP3 DUP1 ADD PUSH1 0x1 ADD DUP6 SSTORE DUP3 ISZERO PUSH2 0x55A JUMPI SWAP2 DUP3 ADD JUMPDEST DUP3 DUP2 GT ISZERO PUSH2 0x559 JUMPI DUP3 MLOAD DUP3 SSTORE SWAP2 PUSH1 0x20 ADD SWAP2 SWAP1 PUSH1 0x1 ADD SWAP1 PUSH2 0x53E JUMP JUMPDEST JUMPDEST POP SWAP1 POP PUSH2 0x567 SWAP2 SWAP1 PUSH2 0x56B JUMP JUMPDEST POP SWAP1 JUMP JUMPDEST JUMPDEST DUP1 DUP3 GT ISZERO PUSH2 0x584 JUMPI PUSH1 0x0 DUP2 PUSH1 0x0 SWAP1 SSTORE POP PUSH1 0x1 ADD PUSH2 0x56C JUMP JUMPDEST POP SWAP1 JUMP JUMPDEST PUSH1 0x0 PUSH2 0x59B PUSH2 0x596 DUP5 PUSH2 0x85B JUMP JUMPDEST PUSH2 0x836 JUMP JUMPDEST SWAP1 POP DUP3 DUP2 MSTORE PUSH1 0x20 DUP2 ADD DUP5 DUP5 DUP5 ADD GT ISZERO PUSH2 0x5B7 JUMPI PUSH2 0x5B6 PUSH2 0x9E9 JUMP JUMPDEST JUMPDEST PUSH2 0x5C2 DUP5 DUP3 DUP6 PUSH2 0x8B2 JUMP JUMPDEST POP SWAP4 SWAP3 POP POP POP JUMP JUMPDEST PUSH1 0x0 DUP3 PUSH1 0x1F DUP4 ADD SLT PUSH2 0x5DF JUMPI PUSH2 0x5DE PUSH2 0x9E4 JUMP JUMPDEST JUMPDEST DUP2 CALLDATALOAD PUSH2 0x5EF DUP5 DUP3 PUSH1 0x20 DUP7 ADD PUSH2 0x588 JUMP JUMPDEST SWAP2 POP POP SWAP3 SWAP2 POP POP JUMP JUMPDEST PUSH1 0x0 DUP2 CALLDATALOAD SWAP1 POP PUSH2 0x607 DUP2 PUSH2 0xA09 JUMP JUMPDEST SWAP3 SWAP2 POP POP JUMP JUMPDEST PUSH1 0x0 DUP1 PUSH1 0x0 PUSH1 0x60 DUP5 DUP7 SUB SLT ISZERO PUSH2 0x626 JUMPI PUSH2 0x625 PUSH2 0x9F3 JUMP JUMPDEST JUMPDEST PUSH1 0x0 DUP5 ADD CALLDATALOAD PUSH8 0xFFFFFFFFFFFFFFFF DUP2 GT ISZERO PUSH2 0x644 JUMPI PUSH2 0x643 PUSH2 0x9EE JUMP JUMPDEST JUMPDEST PUSH2 0x650 DUP7 DUP3 DUP8 ADD PUSH2 0x5CA JUMP JUMPDEST SWAP4 POP POP PUSH1 0x20 DUP5 ADD CALLDATALOAD PUSH8 0xFFFFFFFFFFFFFFFF DUP2 GT ISZERO PUSH2 0x671 JUMPI PUSH2 0x670 PUSH2 0x9EE JUMP JUMPDEST JUMPDEST PUSH2 0x67D DUP7 DUP3 DUP8 ADD PUSH2 0x5CA JUMP JUMPDEST SWAP3 POP POP PUSH1 0x40 PUSH2 0x68E DUP7 DUP3 DUP8 ADD PUSH2 0x5F8 JUMP JUMPDEST SWAP2 POP POP SWAP3 POP SWAP3 POP SWAP3 JUMP JUMPDEST PUSH1 0x0 PUSH1 0x20 DUP3 DUP5 SUB SLT ISZERO PUSH2 0x6AE JUMPI PUSH2 0x6AD PUSH2 0x9F3 JUMP JUMPDEST JUMPDEST PUSH1 0x0 PUSH2 0x6BC DUP5 DUP3 DUP6 ADD PUSH2 0x5F8 JUMP JUMPDEST SWAP2 POP POP SWAP3 SWAP2 POP POP JUMP JUMPDEST PUSH1 0x0 DUP1 PUSH1 0x40 DUP4 DUP6 SUB SLT ISZERO PUSH2 0x6DC JUMPI PUSH2 0x6DB PUSH2 0x9F3 JUMP JUMPDEST JUMPDEST PUSH1 0x0 PUSH2 0x6EA DUP6 DUP3 DUP7 ADD PUSH2 0x5F8 JUMP JUMPDEST SWAP3 POP POP PUSH1 0x20 PUSH2 0x6FB DUP6 DUP3 DUP7 ADD PUSH2 0x5F8 JUMP JUMPDEST SWAP2 POP POP SWAP3 POP SWAP3 SWAP1 POP JUMP JUMPDEST PUSH1 0x0 DUP1 PUSH1 0x0 DUP1 PUSH1 0x80 DUP6 DUP8 SUB SLT ISZERO PUSH2 0x71F JUMPI PUSH2 0x71E PUSH2 0x9F3 JUMP JUMPDEST JUMPDEST PUSH1 0x0 PUSH2 0x72D DUP8 DUP3 DUP9 ADD PUSH2 0x5F8 JUMP JUMPDEST SWAP5 POP POP PUSH1 0x20 PUSH2 0x73E DUP8 DUP3 DUP9 ADD PUSH2 0x5F8 JUMP JUMPDEST SWAP4 POP POP PUSH1 0x40 PUSH2 0x74F DUP8 DUP3 DUP9 ADD PUSH2 0x5F8 JUMP JUMPDEST SWAP3 POP POP PUSH1 0x60 PUSH2 0x760 DUP8 DUP3 DUP9 ADD PUSH2 0x5F8 JUMP JUMPDEST SWAP2 POP POP SWAP3 SWAP6 SWAP2 SWAP5 POP SWAP3 POP JUMP JUMPDEST PUSH1 0x0 PUSH2 0x777 DUP3 PUSH2 0x88C JUMP JUMPDEST PUSH2 0x781 DUP2 DUP6 PUSH2 0x897 JUMP JUMPDEST SWAP4 POP PUSH2 0x791 DUP2 DUP6 PUSH1 0x20 DUP7 ADD PUSH2 0x8C1 JUMP JUMPDEST PUSH2 0x79A DUP2 PUSH2 0x9F8 JUMP JUMPDEST DUP5 ADD SWAP2 POP POP SWAP3 SWAP2 POP POP JUMP JUMPDEST PUSH2 0x7AE DUP2 PUSH2 0x8A8 JUMP JUMPDEST DUP3 MSTORE POP POP JUMP JUMPDEST PUSH1 0x0 PUSH1 0x20 DUP3 ADD SWAP1 POP DUP2 DUP2 SUB PUSH1 0x0 DUP4 ADD MSTORE PUSH2 0x7CE DUP2 DUP5 PUSH2 0x76C JUMP JUMPDEST SWAP1 POP SWAP3 SWAP2 POP POP JUMP JUMPDEST PUSH1 0x0 PUSH1 0x60 DUP3 ADD SWAP1 POP DUP2 DUP2 SUB PUSH1 0x0 DUP4 ADD MSTORE PUSH2 0x7F0 DUP2 DUP7 PUSH2 0x76C JUMP JUMPDEST SWAP1 POP DUP2 DUP2 SUB PUSH1 0x20 DUP4 ADD MSTORE PUSH2 0x804 DUP2 DUP6 PUSH2 0x76C JUMP JUMPDEST SWAP1 POP PUSH2 0x813 PUSH1 0x40 DUP4 ADD DUP5 PUSH2 0x7A5 JUMP JUMPDEST SWAP5 SWAP4 POP POP POP POP JUMP JUMPDEST PUSH1 0x0 PUSH1 0x20 DUP3 ADD SWAP1 POP PUSH2 0x830 PUSH1 0x0 DUP4 ADD DUP5 PUSH2 0x7A5 JUMP JUMPDEST SWAP3 SWAP2 POP POP JUMP JUMPDEST PUSH1 0x0 PUSH2 0x840 PUSH2 0x851 JUMP JUMPDEST SWAP1 POP PUSH2 0x84C DUP3 DUP3 PUSH2 0x926 JUMP JUMPDEST SWAP2 SWAP1 POP JUMP JUMPDEST PUSH1 0x0 PUSH1 0x40 MLOAD SWAP1 POP SWAP1 JUMP JUMPDEST PUSH1 0x0 PUSH8 0xFFFFFFFFFFFFFFFF DUP3 GT ISZERO PUSH2 0x876 JUMPI PUSH2 0x875 PUSH2 0x9B5 JUMP JUMPDEST JUMPDEST PUSH2 0x87F DUP3 PUSH2 0x9F8 JUMP JUMPDEST SWAP1 POP PUSH1 0x20 DUP2 ADD SWAP1 POP SWAP2 SWAP1 POP JUMP JUMPDEST PUSH1 0x0 DUP2 MLOAD SWAP1 POP SWAP2 SWAP1 POP JUMP JUMPDEST PUSH1 0x0 DUP3 DUP3 MSTORE PUSH1 0x20 DUP3 ADD SWAP1 POP SWAP3 SWAP2 POP POP JUMP JUMPDEST PUSH1 0x0 DUP2 SWAP1 POP SWAP2 SWAP1 POP JUMP JUMPDEST DUP3 DUP2 DUP4 CALLDATACOPY PUSH1 0x0 DUP4 DUP4 ADD MSTORE POP POP POP JUMP JUMPDEST PUSH1 0x0 JUMPDEST DUP4 DUP2 LT ISZERO PUSH2 0x8DF JUMPI DUP1 DUP3 ADD MLOAD DUP2 DUP5 ADD MSTORE PUSH1 0x20 DUP2 ADD SWAP1 POP PUSH2 0x8C4 JUMP JUMPDEST DUP4 DUP2 GT ISZERO PUSH2 0x8EE JUMPI PUSH1 0x0 DUP5 DUP5 ADD MSTORE JUMPDEST POP POP POP POP JUMP JUMPDEST PUSH1 0x0 PUSH1 0x2 DUP3 DIV SWAP1 POP PUSH1 0x1 DUP3 AND DUP1 PUSH2 0x90C JUMPI PUSH1 0x7F DUP3 AND SWAP2 POP JUMPDEST PUSH1 0x20 DUP3 LT DUP2 EQ ISZERO PUSH2 0x920 JUMPI PUSH2 0x91F PUSH2 0x957 JUMP JUMPDEST JUMPDEST POP SWAP2 SWAP1 POP JUMP JUMPDEST PUSH2 0x92F DUP3 PUSH2 0x9F8 JUMP JUMPDEST DUP2 ADD DUP2 DUP2 LT PUSH8 0xFFFFFFFFFFFFFFFF DUP3 GT OR ISZERO PUSH2 0x94E JUMPI PUSH2 0x94D PUSH2 0x9B5 JUMP JUMPDEST JUMPDEST DUP1 PUSH1 0x40 MSTORE POP POP POP JUMP JUMPDEST PUSH32 0x4E487B7100000000000000000000000000000000000000000000000000000000 PUSH1 0x0 MSTORE PUSH1 0x22 PUSH1 0x4 MSTORE PUSH1 0x24 PUSH1 0x0 REVERT JUMPDEST PUSH32 0x4E487B7100000000000000000000000000000000000000000000000000000000 PUSH1 0x0 MSTORE PUSH1 0x32 PUSH1 0x4 MSTORE PUSH1 0x24 PUSH1 0x0 REVERT JUMPDEST PUSH32 0x4E487B7100000000000000000000000000000000000000000000000000000000 PUSH1 0x0 MSTORE PUSH1 0x41 PUSH1 0x4 MSTORE PUSH1 0x24 PUSH1 0x0 REVERT JUMPDEST PUSH1 0x0 DUP1 REVERT JUMPDEST PUSH1 0x0 DUP1 REVERT JUMPDEST PUSH1 0x0 DUP1 REVERT JUMPDEST PUSH1 0x0 DUP1 REVERT JUMPDEST PUSH1 0x0 PUSH1 0x1F NOT PUSH1 0x1F DUP4 ADD AND SWAP1 POP SWAP2 SWAP1 POP JUMP JUMPDEST PUSH2 0xA12 DUP2 PUSH2 0x8A8 JUMP JUMPDEST DUP2 EQ PUSH2 0xA1D JUMPI PUSH1 0x0 DUP1 REVERT JUMPDEST POP JUMP INVALID LOG2 PUSH5 0x6970667358 0x22 SLT KECCAK256 0xD1 ADDRESS EXP LOG2 0xC8 PUSH25 0x9F57F62755778697E0DD5FA21E19A14B329E9EAFB0D4607875 0xD3 PUSH5 0x736F6C6343 STOP ADDMOD SMOD STOP CALLER "
				},
				"gasEstimates": {
					"creation": {
						"codeDepositCost": "529200",
						"executionCost": "infinite",
						"totalCost": "infinite"
					},
					"external": {
						"age()": "2474",
						"assignValues(string,string,uint256)": "infinite",
						"characterOfAPerson()": "infinite",
						"enterValues(uint256,uint256)": "infinite",
						"enterValuesAgain(uint256,uint256,uint256,uint256)": "infinite",
						"luckNumbers2(uint256)": "infinite",
						"luckyNumbers(uint256)": "infinite",
						"name()": "infinite"
					}
				},
				"methodIdentifiers": {
					"age()": "262a9dff",
					"assignValues(string,string,uint256)": "767f9dcf",
					"characterOfAPerson()": "465fe0ee",
					"enterValues(uint256,uint256)": "204653d3",
					"enterValuesAgain(uint256,uint256,uint256,uint256)": "6d35e346",
					"luckNumbers2(uint256)": "d653f307",
					"luckyNumbers(uint256)": "e780faa3",
					"name()": "06fdde03"
				}
			},
			"storageLayout": {
				"storage": [
					{
						"astId": 3,
						"contract": "contracts/basics.sol:Person",
						"label": "name",
						"offset": 0,
						"slot": "0",
						"type": "t_string_storage"
					},
					{
						"astId": 5,
						"contract": "contracts/basics.sol:Person",
						"label": "age",
						"offset": 0,
						"slot": "1",
						"type": "t_uint256"
					},
					{
						"astId": 25,
						"contract": "contracts/basics.sol:Person",
						"label": "luckyNumbers",
						"offset": 0,
						"slot": "2",
						"type": "t_array(t_uint256)2_storage"
					},
					{
						"astId": 28,
						"contract": "contracts/basics.sol:Person",
						"label": "luckNumbers2",
						"offset": 0,
						"slot": "4",
						"type": "t_array(t_uint256)dyn_storage"
					},
					{
						"astId": 94,
						"contract": "contracts/basics.sol:Person",
						"label": "characterOfAPerson",
						"offset": 0,
						"slot": "5",
						"type": "t_struct(Traits)91_storage"
					}
				],
				"types": {
					"t_array(t_uint256)2_storage": {
						"base": "t_uint256",
						"encoding": "inplace",
						"label": "uint256[2]",
						"numberOfBytes": "64"
					},
					"t_array(t_uint256)dyn_storage": {
						"base": "t_uint256",
						"encoding": "dynamic_array",
						"label": "uint256[]",
						"numberOfBytes": "32"
					},
					"t_string_storage": {
						"encoding": "bytes",
						"label": "string",
						"numberOfBytes": "32"
					},
					"t_struct(Traits)91_storage": {
						"encoding": "inplace",
						"label": "struct Person.Traits",
						"members": [
							{
								"astId": 86,
								"contract": "contracts/basics.sol:Person",
								"label": "color",
								"offset": 0,
								"slot": "0",
								"type": "t_string_storage"
							},
							{
								"astId": 88,
								"contract": "contracts/basics.sol:Person",
								"label": "country",
								"offset": 0,
								"slot": "1",
								"type": "t_string_storage"
							},
							{
								"astId": 90,
								"contract": "contracts/basics.sol:Person",
								"label": "height",
								"offset": 0,
								"slot": "2",
								"type": "t_uint256"
							}
						],
						"numberOfBytes": "96"
					},
					"t_uint256": {
						"encoding": "inplace",
						"label": "uint256",
						"numberOfBytes": "32"
					}
				}
			},
			"userdoc": {
				"kind": "user",
				"methods": {},
				"version": 1
			}
		}
	}
}