{
	"contracts/mappings.sol": {
		"MappingsSample": {
			"abi": [
				{
					"inputs": [],
					"stateMutability": "nonpayable",
					"type": "constructor"
				},
				{
					"inputs": [],
					"name": "getOwner",
					"outputs": [
						{
							"internalType": "address",
							"name": "",
							"type": "address"
						}
					],
					"stateMutability": "view",
					"type": "function"
				},
				{
					"inputs": [
						{
							"internalType": "address",
							"name": "",
							"type": "address"
						},
						{
							"internalType": "uint256",
							"name": "",
							"type": "uint256"
						}
					],
					"name": "names",
					"outputs": [
						{
							"internalType": "string",
							"name": "",
							"type": "string"
						}
					],
					"stateMutability": "view",
					"type": "function"
				},
				{
					"inputs": [
						{
							"internalType": "string",
							"name": "_name",
							"type": "string"
						}
					],
					"name": "setValues",
					"outputs": [],
					"stateMutability": "nonpayable",
					"type": "function"
				},
				{
					"inputs": [
						{
							"internalType": "string",
							"name": "",
							"type": "string"
						}
					],
					"name": "traits",
					"outputs": [
						{
							"internalType": "string",
							"name": "color",
							"type": "string"
						},
						{
							"internalType": "string",
							"name": "country",
							"type": "string"
						}
					],
					"stateMutability": "view",
					"type": "function"
				}
			],
			"devdoc": {
				"kind": "dev",
				"methods": {},
				"version": 1
			},
			"evm": {
				"assembly": "    /* \"contracts/mappings.sol\":64:1141  contract MappingsSample{\r... */\n  mstore(0x40, 0x80)\n    /* \"contracts/mappings.sol\":273:308  constructor() public{     \r... */\n  callvalue\n  dup1\n  iszero\n  tag_1\n  jumpi\n  0x00\n  dup1\n  revert\ntag_1:\n  pop\n    /* \"contracts/mappings.sol\":64:1141  contract MappingsSample{\r... */\n  dataSize(sub_0)\n  dup1\n  dataOffset(sub_0)\n  0x00\n  codecopy\n  0x00\n  return\nstop\n\nsub_0: assembly {\n        /* \"contracts/mappings.sol\":64:1141  contract MappingsSample{\r... */\n      mstore(0x40, 0x80)\n      callvalue\n      dup1\n      iszero\n      tag_1\n      jumpi\n      0x00\n      dup1\n      revert\n    tag_1:\n      pop\n      jumpi(tag_2, lt(calldatasize, 0x04))\n      shr(0xe0, calldataload(0x00))\n      dup1\n      0x420069b3\n      eq\n      tag_3\n      jumpi\n      dup1\n      0x893d20e8\n      eq\n      tag_4\n      jumpi\n      dup1\n      0xa5f21827\n      eq\n      tag_5\n      jumpi\n      dup1\n      0xb914d7ab\n      eq\n      tag_6\n      jumpi\n    tag_2:\n      0x00\n      dup1\n      revert\n        /* \"contracts/mappings.sol\":533:668  function setValues (string memory _name)\r... */\n    tag_3:\n      tag_7\n      0x04\n      dup1\n      calldatasize\n      sub\n      dup2\n      add\n      swap1\n      tag_8\n      swap2\n      swap1\n      tag_9\n      jump\t// in\n    tag_8:\n      tag_10\n      jump\t// in\n    tag_7:\n      stop\n        /* \"contracts/mappings.sol\":739:843  function getOwner()\r... */\n    tag_4:\n      tag_11\n      tag_12\n      jump\t// in\n    tag_11:\n      mload(0x40)\n      tag_13\n      swap2\n      swap1\n      tag_14\n      jump\t// in\n    tag_13:\n      mload(0x40)\n      dup1\n      swap2\n      sub\n      swap1\n      return\n        /* \"contracts/mappings.sol\":1096:1135  mapping(string => Traits) public traits */\n    tag_5:\n      tag_15\n      0x04\n      dup1\n      calldatasize\n      sub\n      dup2\n      add\n      swap1\n      tag_16\n      swap2\n      swap1\n      tag_9\n      jump\t// in\n    tag_16:\n      tag_17\n      jump\t// in\n    tag_15:\n      mload(0x40)\n      tag_18\n      swap3\n      swap2\n      swap1\n      tag_19\n      jump\t// in\n    tag_18:\n      mload(0x40)\n      dup1\n      swap2\n      sub\n      swap1\n      return\n        /* \"contracts/mappings.sol\":223:264  mapping(address => string[]) public names */\n    tag_6:\n      tag_20\n      0x04\n      dup1\n      calldatasize\n      sub\n      dup2\n      add\n      swap1\n      tag_21\n      swap2\n      swap1\n      tag_22\n      jump\t// in\n    tag_21:\n      tag_23\n      jump\t// in\n    tag_20:\n      mload(0x40)\n      tag_24\n      swap2\n      swap1\n      tag_25\n      jump\t// in\n    tag_24:\n      mload(0x40)\n      dup1\n      swap2\n      sub\n      swap1\n      return\n        /* \"contracts/mappings.sol\":533:668  function setValues (string memory _name)\r... */\n    tag_10:\n        /* \"contracts/mappings.sol\":598:603  names */\n      0x00\n        /* \"contracts/mappings.sol\":598:647  names[0xAb8483F64d9C6d1EcF9b849Ae677dD3315835cb2] */\n      dup1\n        /* \"contracts/mappings.sol\":604:646  0xAb8483F64d9C6d1EcF9b849Ae677dD3315835cb2 */\n      0xab8483f64d9c6d1ecf9b849ae677dd3315835cb2\n        /* \"contracts/mappings.sol\":598:647  names[0xAb8483F64d9C6d1EcF9b849Ae677dD3315835cb2] */\n      0xffffffffffffffffffffffffffffffffffffffff\n      and\n      0xffffffffffffffffffffffffffffffffffffffff\n      and\n      dup2\n      mstore\n      0x20\n      add\n      swap1\n      dup2\n      mstore\n      0x20\n      add\n      0x00\n      keccak256\n        /* \"contracts/mappings.sol\":653:658  _name */\n      dup2\n        /* \"contracts/mappings.sol\":598:659  names[0xAb8483F64d9C6d1EcF9b849Ae677dD3315835cb2].push(_name) */\n      swap1\n      dup1\n      0x01\n      dup2\n      sload\n      add\n      dup1\n      dup3\n      sstore\n      dup1\n      swap2\n      pop\n      pop\n      0x01\n      swap1\n      sub\n      swap1\n      0x00\n      mstore\n      keccak256(0x00, 0x20)\n      add\n      0x00\n      swap1\n      swap2\n      swap1\n      swap2\n      swap1\n      swap2\n      pop\n      swap1\n      dup1\n      mload\n      swap1\n      0x20\n      add\n      swap1\n      tag_28\n      swap3\n      swap2\n      swap1\n      tag_29\n      jump\t// in\n    tag_28:\n      pop\n        /* \"contracts/mappings.sol\":533:668  function setValues (string memory _name)\r... */\n      pop\n      jump\t// out\n        /* \"contracts/mappings.sol\":739:843  function getOwner()\r... */\n    tag_12:\n        /* \"contracts/mappings.sol\":797:804  address */\n      0x00\n        /* \"contracts/mappings.sol\":824:834  msg.sender */\n      caller\n        /* \"contracts/mappings.sol\":817:834  return msg.sender */\n      swap1\n      pop\n        /* \"contracts/mappings.sol\":739:843  function getOwner()\r... */\n      swap1\n      jump\t// out\n        /* \"contracts/mappings.sol\":1096:1135  mapping(string => Traits) public traits */\n    tag_17:\n      0x01\n      dup2\n      dup1\n      mload\n      0x20\n      dup2\n      add\n      dup3\n      add\n      dup1\n      mload\n      dup5\n      dup3\n      mstore\n      0x20\n      dup4\n      add\n      0x20\n      dup6\n      add\n      keccak256\n      dup2\n      dup4\n      mstore\n      dup1\n      swap6\n      pop\n      pop\n      pop\n      pop\n      pop\n      pop\n      0x00\n      swap2\n      pop\n      swap1\n      pop\n      dup1\n      0x00\n      add\n      dup1\n      sload\n      tag_31\n      swap1\n      tag_32\n      jump\t// in\n    tag_31:\n      dup1\n      0x1f\n      add\n      0x20\n      dup1\n      swap2\n      div\n      mul\n      0x20\n      add\n      mload(0x40)\n      swap1\n      dup2\n      add\n      0x40\n      mstore\n      dup1\n      swap3\n      swap2\n      swap1\n      dup2\n      dup2\n      mstore\n      0x20\n      add\n      dup3\n      dup1\n      sload\n      tag_33\n      swap1\n      tag_32\n      jump\t// in\n    tag_33:\n      dup1\n      iszero\n      tag_34\n      jumpi\n      dup1\n      0x1f\n      lt\n      tag_35\n      jumpi\n      0x0100\n      dup1\n      dup4\n      sload\n      div\n      mul\n      dup4\n      mstore\n      swap2\n      0x20\n      add\n      swap2\n      jump(tag_34)\n    tag_35:\n      dup3\n      add\n      swap2\n      swap1\n      0x00\n      mstore\n      keccak256(0x00, 0x20)\n      swap1\n    tag_36:\n      dup2\n      sload\n      dup2\n      mstore\n      swap1\n      0x01\n      add\n      swap1\n      0x20\n      add\n      dup1\n      dup4\n      gt\n      tag_36\n      jumpi\n      dup3\n      swap1\n      sub\n      0x1f\n      and\n      dup3\n      add\n      swap2\n    tag_34:\n      pop\n      pop\n      pop\n      pop\n      pop\n      swap1\n      dup1\n      0x01\n      add\n      dup1\n      sload\n      tag_37\n      swap1\n      tag_32\n      jump\t// in\n    tag_37:\n      dup1\n      0x1f\n      add\n      0x20\n      dup1\n      swap2\n      div\n      mul\n      0x20\n      add\n      mload(0x40)\n      swap1\n      dup2\n      add\n      0x40\n      mstore\n      dup1\n      swap3\n      swap2\n      swap1\n      dup2\n      dup2\n      mstore\n      0x20\n      add\n      dup3\n      dup1\n      sload\n      tag_38\n      swap1\n      tag_32\n      jump\t// in\n    tag_38:\n      dup1\n      iszero\n      tag_39\n      jumpi\n      dup1\n      0x1f\n      lt\n      tag_40\n      jumpi\n      0x0100\n      dup1\n      dup4\n      sload\n      div\n      mul\n      dup4\n      mstore\n      swap2\n      0x20\n      add\n      swap2\n      jump(tag_39)\n    tag_40:\n      dup3\n      add\n      swap2\n      swap1\n      0x00\n      mstore\n      keccak256(0x00, 0x20)\n      swap1\n    tag_41:\n      dup2\n      sload\n      dup2\n      mstore\n      swap1\n      0x01\n      add\n      swap1\n      0x20\n      add\n      dup1\n      dup4\n      gt\n      tag_41\n      jumpi\n      dup3\n      swap1\n      sub\n      0x1f\n      and\n      dup3\n      add\n      swap2\n    tag_39:\n      pop\n      pop\n      pop\n      pop\n      pop\n      swap1\n      pop\n      dup3\n      jump\t// out\n        /* \"contracts/mappings.sol\":223:264  mapping(address => string[]) public names */\n    tag_23:\n      mstore(0x20, 0x00)\n      dup2\n      0x00\n      mstore\n      keccak256(0x00, 0x40)\n      dup2\n      dup2\n      sload\n      dup2\n      lt\n      tag_42\n      jumpi\n      0x00\n      dup1\n      revert\n    tag_42:\n      swap1\n      0x00\n      mstore\n      keccak256(0x00, 0x20)\n      add\n      0x00\n      swap2\n      pop\n      swap2\n      pop\n      pop\n      dup1\n      sload\n      tag_44\n      swap1\n      tag_32\n      jump\t// in\n    tag_44:\n      dup1\n      0x1f\n      add\n      0x20\n      dup1\n      swap2\n      div\n      mul\n      0x20\n      add\n      mload(0x40)\n      swap1\n      dup2\n      add\n      0x40\n      mstore\n      dup1\n      swap3\n      swap2\n      swap1\n      dup2\n      dup2\n      mstore\n      0x20\n      add\n      dup3\n      dup1\n      sload\n      tag_45\n      swap1\n      tag_32\n      jump\t// in\n    tag_45:\n      dup1\n      iszero\n      tag_46\n      jumpi\n      dup1\n      0x1f\n      lt\n      tag_47\n      jumpi\n      0x0100\n      dup1\n      dup4\n      sload\n      div\n      mul\n      dup4\n      mstore\n      swap2\n      0x20\n      add\n      swap2\n      jump(tag_46)\n    tag_47:\n      dup3\n      add\n      swap2\n      swap1\n      0x00\n      mstore\n      keccak256(0x00, 0x20)\n      swap1\n    tag_48:\n      dup2\n      sload\n      dup2\n      mstore\n      swap1\n      0x01\n      add\n      swap1\n      0x20\n      add\n      dup1\n      dup4\n      gt\n      tag_48\n      jumpi\n      dup3\n      swap1\n      sub\n      0x1f\n      and\n      dup3\n      add\n      swap2\n    tag_46:\n      pop\n      pop\n      pop\n      pop\n      pop\n      dup2\n      jump\t// out\n    tag_29:\n      dup3\n      dup1\n      sload\n      tag_49\n      swap1\n      tag_32\n      jump\t// in\n    tag_49:\n      swap1\n      0x00\n      mstore\n      keccak256(0x00, 0x20)\n      swap1\n      0x1f\n      add\n      0x20\n      swap1\n      div\n      dup2\n      add\n      swap3\n      dup3\n      tag_51\n      jumpi\n      0x00\n      dup6\n      sstore\n      jump(tag_50)\n    tag_51:\n      dup3\n      0x1f\n      lt\n      tag_52\n      jumpi\n      dup1\n      mload\n      not(0xff)\n      and\n      dup4\n      dup1\n      add\n      or\n      dup6\n      sstore\n      jump(tag_50)\n    tag_52:\n      dup3\n      dup1\n      add\n      0x01\n      add\n      dup6\n      sstore\n      dup3\n      iszero\n      tag_50\n      jumpi\n      swap2\n      dup3\n      add\n    tag_53:\n      dup3\n      dup2\n      gt\n      iszero\n      tag_54\n      jumpi\n      dup3\n      mload\n      dup3\n      sstore\n      swap2\n      0x20\n      add\n      swap2\n      swap1\n      0x01\n      add\n      swap1\n      jump(tag_53)\n    tag_54:\n    tag_50:\n      pop\n      swap1\n      pop\n      tag_55\n      swap2\n      swap1\n      tag_56\n      jump\t// in\n    tag_55:\n      pop\n      swap1\n      jump\t// out\n    tag_56:\n    tag_57:\n      dup1\n      dup3\n      gt\n      iszero\n      tag_58\n      jumpi\n      0x00\n      dup2\n      0x00\n      swap1\n      sstore\n      pop\n      0x01\n      add\n      jump(tag_57)\n    tag_58:\n      pop\n      swap1\n      jump\t// out\n        /* \"#utility.yul\":7:419   */\n    tag_60:\n        /* \"#utility.yul\":85:90   */\n      0x00\n        /* \"#utility.yul\":110:176   */\n      tag_62\n        /* \"#utility.yul\":126:175   */\n      tag_63\n        /* \"#utility.yul\":168:174   */\n      dup5\n        /* \"#utility.yul\":126:175   */\n      tag_64\n      jump\t// in\n    tag_63:\n        /* \"#utility.yul\":110:176   */\n      tag_65\n      jump\t// in\n    tag_62:\n        /* \"#utility.yul\":101:176   */\n      swap1\n      pop\n        /* \"#utility.yul\":199:205   */\n      dup3\n        /* \"#utility.yul\":192:197   */\n      dup2\n        /* \"#utility.yul\":185:206   */\n      mstore\n        /* \"#utility.yul\":237:241   */\n      0x20\n        /* \"#utility.yul\":230:235   */\n      dup2\n        /* \"#utility.yul\":226:242   */\n      add\n        /* \"#utility.yul\":275:278   */\n      dup5\n        /* \"#utility.yul\":266:272   */\n      dup5\n        /* \"#utility.yul\":261:264   */\n      dup5\n        /* \"#utility.yul\":257:273   */\n      add\n        /* \"#utility.yul\":254:279   */\n      gt\n        /* \"#utility.yul\":251:363   */\n      iszero\n      tag_66\n      jumpi\n        /* \"#utility.yul\":282:361   */\n      tag_67\n      tag_68\n      jump\t// in\n    tag_67:\n        /* \"#utility.yul\":251:363   */\n    tag_66:\n        /* \"#utility.yul\":372:413   */\n      tag_69\n        /* \"#utility.yul\":406:412   */\n      dup5\n        /* \"#utility.yul\":401:404   */\n      dup3\n        /* \"#utility.yul\":396:399   */\n      dup6\n        /* \"#utility.yul\":372:413   */\n      tag_70\n      jump\t// in\n    tag_69:\n        /* \"#utility.yul\":91:419   */\n      pop\n        /* \"#utility.yul\":7:419   */\n      swap4\n      swap3\n      pop\n      pop\n      pop\n      jump\t// out\n        /* \"#utility.yul\":425:564   */\n    tag_71:\n        /* \"#utility.yul\":471:476   */\n      0x00\n        /* \"#utility.yul\":509:515   */\n      dup2\n        /* \"#utility.yul\":496:516   */\n      calldataload\n        /* \"#utility.yul\":487:516   */\n      swap1\n      pop\n        /* \"#utility.yul\":525:558   */\n      tag_73\n        /* \"#utility.yul\":552:557   */\n      dup2\n        /* \"#utility.yul\":525:558   */\n      tag_74\n      jump\t// in\n    tag_73:\n        /* \"#utility.yul\":425:564   */\n      swap3\n      swap2\n      pop\n      pop\n      jump\t// out\n        /* \"#utility.yul\":584:924   */\n    tag_75:\n        /* \"#utility.yul\":640:645   */\n      0x00\n        /* \"#utility.yul\":689:692   */\n      dup3\n        /* \"#utility.yul\":682:686   */\n      0x1f\n        /* \"#utility.yul\":674:680   */\n      dup4\n        /* \"#utility.yul\":670:687   */\n      add\n        /* \"#utility.yul\":666:693   */\n      slt\n        /* \"#utility.yul\":656:778   */\n      tag_77\n      jumpi\n        /* \"#utility.yul\":697:776   */\n      tag_78\n      tag_79\n      jump\t// in\n    tag_78:\n        /* \"#utility.yul\":656:778   */\n    tag_77:\n        /* \"#utility.yul\":814:820   */\n      dup2\n        /* \"#utility.yul\":801:821   */\n      calldataload\n        /* \"#utility.yul\":839:918   */\n      tag_80\n        /* \"#utility.yul\":914:917   */\n      dup5\n        /* \"#utility.yul\":906:912   */\n      dup3\n        /* \"#utility.yul\":899:903   */\n      0x20\n        /* \"#utility.yul\":891:897   */\n      dup7\n        /* \"#utility.yul\":887:904   */\n      add\n        /* \"#utility.yul\":839:918   */\n      tag_60\n      jump\t// in\n    tag_80:\n        /* \"#utility.yul\":830:918   */\n      swap2\n      pop\n        /* \"#utility.yul\":646:924   */\n      pop\n        /* \"#utility.yul\":584:924   */\n      swap3\n      swap2\n      pop\n      pop\n      jump\t// out\n        /* \"#utility.yul\":930:1069   */\n    tag_81:\n        /* \"#utility.yul\":976:981   */\n      0x00\n        /* \"#utility.yul\":1014:1020   */\n      dup2\n        /* \"#utility.yul\":1001:1021   */\n      calldataload\n        /* \"#utility.yul\":992:1021   */\n      swap1\n      pop\n        /* \"#utility.yul\":1030:1063   */\n      tag_83\n        /* \"#utility.yul\":1057:1062   */\n      dup2\n        /* \"#utility.yul\":1030:1063   */\n      tag_84\n      jump\t// in\n    tag_83:\n        /* \"#utility.yul\":930:1069   */\n      swap3\n      swap2\n      pop\n      pop\n      jump\t// out\n        /* \"#utility.yul\":1075:1549   */\n    tag_22:\n        /* \"#utility.yul\":1143:1149   */\n      0x00\n        /* \"#utility.yul\":1151:1157   */\n      dup1\n        /* \"#utility.yul\":1200:1202   */\n      0x40\n        /* \"#utility.yul\":1188:1197   */\n      dup4\n        /* \"#utility.yul\":1179:1186   */\n      dup6\n        /* \"#utility.yul\":1175:1198   */\n      sub\n        /* \"#utility.yul\":1171:1203   */\n      slt\n        /* \"#utility.yul\":1168:1287   */\n      iszero\n      tag_86\n      jumpi\n        /* \"#utility.yul\":1206:1285   */\n      tag_87\n      tag_88\n      jump\t// in\n    tag_87:\n        /* \"#utility.yul\":1168:1287   */\n    tag_86:\n        /* \"#utility.yul\":1326:1327   */\n      0x00\n        /* \"#utility.yul\":1351:1404   */\n      tag_89\n        /* \"#utility.yul\":1396:1403   */\n      dup6\n        /* \"#utility.yul\":1387:1393   */\n      dup3\n        /* \"#utility.yul\":1376:1385   */\n      dup7\n        /* \"#utility.yul\":1372:1394   */\n      add\n        /* \"#utility.yul\":1351:1404   */\n      tag_71\n      jump\t// in\n    tag_89:\n        /* \"#utility.yul\":1341:1404   */\n      swap3\n      pop\n        /* \"#utility.yul\":1297:1414   */\n      pop\n        /* \"#utility.yul\":1453:1455   */\n      0x20\n        /* \"#utility.yul\":1479:1532   */\n      tag_90\n        /* \"#utility.yul\":1524:1531   */\n      dup6\n        /* \"#utility.yul\":1515:1521   */\n      dup3\n        /* \"#utility.yul\":1504:1513   */\n      dup7\n        /* \"#utility.yul\":1500:1522   */\n      add\n        /* \"#utility.yul\":1479:1532   */\n      tag_81\n      jump\t// in\n    tag_90:\n        /* \"#utility.yul\":1469:1532   */\n      swap2\n      pop\n        /* \"#utility.yul\":1424:1542   */\n      pop\n        /* \"#utility.yul\":1075:1549   */\n      swap3\n      pop\n      swap3\n      swap1\n      pop\n      jump\t// out\n        /* \"#utility.yul\":1555:2064   */\n    tag_9:\n        /* \"#utility.yul\":1624:1630   */\n      0x00\n        /* \"#utility.yul\":1673:1675   */\n      0x20\n        /* \"#utility.yul\":1661:1670   */\n      dup3\n        /* \"#utility.yul\":1652:1659   */\n      dup5\n        /* \"#utility.yul\":1648:1671   */\n      sub\n        /* \"#utility.yul\":1644:1676   */\n      slt\n        /* \"#utility.yul\":1641:1760   */\n      iszero\n      tag_92\n      jumpi\n        /* \"#utility.yul\":1679:1758   */\n      tag_93\n      tag_88\n      jump\t// in\n    tag_93:\n        /* \"#utility.yul\":1641:1760   */\n    tag_92:\n        /* \"#utility.yul\":1827:1828   */\n      0x00\n        /* \"#utility.yul\":1816:1825   */\n      dup3\n        /* \"#utility.yul\":1812:1829   */\n      add\n        /* \"#utility.yul\":1799:1830   */\n      calldataload\n        /* \"#utility.yul\":1857:1875   */\n      0xffffffffffffffff\n        /* \"#utility.yul\":1849:1855   */\n      dup2\n        /* \"#utility.yul\":1846:1876   */\n      gt\n        /* \"#utility.yul\":1843:1960   */\n      iszero\n      tag_94\n      jumpi\n        /* \"#utility.yul\":1879:1958   */\n      tag_95\n      tag_96\n      jump\t// in\n    tag_95:\n        /* \"#utility.yul\":1843:1960   */\n    tag_94:\n        /* \"#utility.yul\":1984:2047   */\n      tag_97\n        /* \"#utility.yul\":2039:2046   */\n      dup5\n        /* \"#utility.yul\":2030:2036   */\n      dup3\n        /* \"#utility.yul\":2019:2028   */\n      dup6\n        /* \"#utility.yul\":2015:2037   */\n      add\n        /* \"#utility.yul\":1984:2047   */\n      tag_75\n      jump\t// in\n    tag_97:\n        /* \"#utility.yul\":1974:2047   */\n      swap2\n      pop\n        /* \"#utility.yul\":1770:2057   */\n      pop\n        /* \"#utility.yul\":1555:2064   */\n      swap3\n      swap2\n      pop\n      pop\n      jump\t// out\n        /* \"#utility.yul\":2070:2188   */\n    tag_98:\n        /* \"#utility.yul\":2157:2181   */\n      tag_100\n        /* \"#utility.yul\":2175:2180   */\n      dup2\n        /* \"#utility.yul\":2157:2181   */\n      tag_101\n      jump\t// in\n    tag_100:\n        /* \"#utility.yul\":2152:2155   */\n      dup3\n        /* \"#utility.yul\":2145:2182   */\n      mstore\n        /* \"#utility.yul\":2070:2188   */\n      pop\n      pop\n      jump\t// out\n        /* \"#utility.yul\":2194:2558   */\n    tag_102:\n        /* \"#utility.yul\":2282:2285   */\n      0x00\n        /* \"#utility.yul\":2310:2349   */\n      tag_104\n        /* \"#utility.yul\":2343:2348   */\n      dup3\n        /* \"#utility.yul\":2310:2349   */\n      tag_105\n      jump\t// in\n    tag_104:\n        /* \"#utility.yul\":2365:2436   */\n      tag_106\n        /* \"#utility.yul\":2429:2435   */\n      dup2\n        /* \"#utility.yul\":2424:2427   */\n      dup6\n        /* \"#utility.yul\":2365:2436   */\n      tag_107\n      jump\t// in\n    tag_106:\n        /* \"#utility.yul\":2358:2436   */\n      swap4\n      pop\n        /* \"#utility.yul\":2445:2497   */\n      tag_108\n        /* \"#utility.yul\":2490:2496   */\n      dup2\n        /* \"#utility.yul\":2485:2488   */\n      dup6\n        /* \"#utility.yul\":2478:2482   */\n      0x20\n        /* \"#utility.yul\":2471:2476   */\n      dup7\n        /* \"#utility.yul\":2467:2483   */\n      add\n        /* \"#utility.yul\":2445:2497   */\n      tag_109\n      jump\t// in\n    tag_108:\n        /* \"#utility.yul\":2522:2551   */\n      tag_110\n        /* \"#utility.yul\":2544:2550   */\n      dup2\n        /* \"#utility.yul\":2522:2551   */\n      tag_111\n      jump\t// in\n    tag_110:\n        /* \"#utility.yul\":2517:2520   */\n      dup5\n        /* \"#utility.yul\":2513:2552   */\n      add\n        /* \"#utility.yul\":2506:2552   */\n      swap2\n      pop\n        /* \"#utility.yul\":2286:2558   */\n      pop\n        /* \"#utility.yul\":2194:2558   */\n      swap3\n      swap2\n      pop\n      pop\n      jump\t// out\n        /* \"#utility.yul\":2564:2786   */\n    tag_14:\n        /* \"#utility.yul\":2657:2661   */\n      0x00\n        /* \"#utility.yul\":2695:2697   */\n      0x20\n        /* \"#utility.yul\":2684:2693   */\n      dup3\n        /* \"#utility.yul\":2680:2698   */\n      add\n        /* \"#utility.yul\":2672:2698   */\n      swap1\n      pop\n        /* \"#utility.yul\":2708:2779   */\n      tag_113\n        /* \"#utility.yul\":2776:2777   */\n      0x00\n        /* \"#utility.yul\":2765:2774   */\n      dup4\n        /* \"#utility.yul\":2761:2778   */\n      add\n        /* \"#utility.yul\":2752:2758   */\n      dup5\n        /* \"#utility.yul\":2708:2779   */\n      tag_98\n      jump\t// in\n    tag_113:\n        /* \"#utility.yul\":2564:2786   */\n      swap3\n      swap2\n      pop\n      pop\n      jump\t// out\n        /* \"#utility.yul\":2792:3105   */\n    tag_25:\n        /* \"#utility.yul\":2905:2909   */\n      0x00\n        /* \"#utility.yul\":2943:2945   */\n      0x20\n        /* \"#utility.yul\":2932:2941   */\n      dup3\n        /* \"#utility.yul\":2928:2946   */\n      add\n        /* \"#utility.yul\":2920:2946   */\n      swap1\n      pop\n        /* \"#utility.yul\":2992:3001   */\n      dup2\n        /* \"#utility.yul\":2986:2990   */\n      dup2\n        /* \"#utility.yul\":2982:3002   */\n      sub\n        /* \"#utility.yul\":2978:2979   */\n      0x00\n        /* \"#utility.yul\":2967:2976   */\n      dup4\n        /* \"#utility.yul\":2963:2980   */\n      add\n        /* \"#utility.yul\":2956:3003   */\n      mstore\n        /* \"#utility.yul\":3020:3098   */\n      tag_115\n        /* \"#utility.yul\":3093:3097   */\n      dup2\n        /* \"#utility.yul\":3084:3090   */\n      dup5\n        /* \"#utility.yul\":3020:3098   */\n      tag_102\n      jump\t// in\n    tag_115:\n        /* \"#utility.yul\":3012:3098   */\n      swap1\n      pop\n        /* \"#utility.yul\":2792:3105   */\n      swap3\n      swap2\n      pop\n      pop\n      jump\t// out\n        /* \"#utility.yul\":3111:3625   */\n    tag_19:\n        /* \"#utility.yul\":3272:3276   */\n      0x00\n        /* \"#utility.yul\":3310:3312   */\n      0x40\n        /* \"#utility.yul\":3299:3308   */\n      dup3\n        /* \"#utility.yul\":3295:3313   */\n      add\n        /* \"#utility.yul\":3287:3313   */\n      swap1\n      pop\n        /* \"#utility.yul\":3359:3368   */\n      dup2\n        /* \"#utility.yul\":3353:3357   */\n      dup2\n        /* \"#utility.yul\":3349:3369   */\n      sub\n        /* \"#utility.yul\":3345:3346   */\n      0x00\n        /* \"#utility.yul\":3334:3343   */\n      dup4\n        /* \"#utility.yul\":3330:3347   */\n      add\n        /* \"#utility.yul\":3323:3370   */\n      mstore\n        /* \"#utility.yul\":3387:3465   */\n      tag_117\n        /* \"#utility.yul\":3460:3464   */\n      dup2\n        /* \"#utility.yul\":3451:3457   */\n      dup6\n        /* \"#utility.yul\":3387:3465   */\n      tag_102\n      jump\t// in\n    tag_117:\n        /* \"#utility.yul\":3379:3465   */\n      swap1\n      pop\n        /* \"#utility.yul\":3512:3521   */\n      dup2\n        /* \"#utility.yul\":3506:3510   */\n      dup2\n        /* \"#utility.yul\":3502:3522   */\n      sub\n        /* \"#utility.yul\":3497:3499   */\n      0x20\n        /* \"#utility.yul\":3486:3495   */\n      dup4\n        /* \"#utility.yul\":3482:3500   */\n      add\n        /* \"#utility.yul\":3475:3523   */\n      mstore\n        /* \"#utility.yul\":3540:3618   */\n      tag_118\n        /* \"#utility.yul\":3613:3617   */\n      dup2\n        /* \"#utility.yul\":3604:3610   */\n      dup5\n        /* \"#utility.yul\":3540:3618   */\n      tag_102\n      jump\t// in\n    tag_118:\n        /* \"#utility.yul\":3532:3618   */\n      swap1\n      pop\n        /* \"#utility.yul\":3111:3625   */\n      swap4\n      swap3\n      pop\n      pop\n      pop\n      jump\t// out\n        /* \"#utility.yul\":3631:3760   */\n    tag_65:\n        /* \"#utility.yul\":3665:3671   */\n      0x00\n        /* \"#utility.yul\":3692:3712   */\n      tag_120\n      tag_121\n      jump\t// in\n    tag_120:\n        /* \"#utility.yul\":3682:3712   */\n      swap1\n      pop\n        /* \"#utility.yul\":3721:3754   */\n      tag_122\n        /* \"#utility.yul\":3749:3753   */\n      dup3\n        /* \"#utility.yul\":3741:3747   */\n      dup3\n        /* \"#utility.yul\":3721:3754   */\n      tag_123\n      jump\t// in\n    tag_122:\n        /* \"#utility.yul\":3631:3760   */\n      swap2\n      swap1\n      pop\n      jump\t// out\n        /* \"#utility.yul\":3766:3841   */\n    tag_121:\n        /* \"#utility.yul\":3799:3805   */\n      0x00\n        /* \"#utility.yul\":3832:3834   */\n      0x40\n        /* \"#utility.yul\":3826:3835   */\n      mload\n        /* \"#utility.yul\":3816:3835   */\n      swap1\n      pop\n        /* \"#utility.yul\":3766:3841   */\n      swap1\n      jump\t// out\n        /* \"#utility.yul\":3847:4155   */\n    tag_64:\n        /* \"#utility.yul\":3909:3913   */\n      0x00\n        /* \"#utility.yul\":3999:4017   */\n      0xffffffffffffffff\n        /* \"#utility.yul\":3991:3997   */\n      dup3\n        /* \"#utility.yul\":3988:4018   */\n      gt\n        /* \"#utility.yul\":3985:4041   */\n      iszero\n      tag_126\n      jumpi\n        /* \"#utility.yul\":4021:4039   */\n      tag_127\n      tag_128\n      jump\t// in\n    tag_127:\n        /* \"#utility.yul\":3985:4041   */\n    tag_126:\n        /* \"#utility.yul\":4059:4088   */\n      tag_129\n        /* \"#utility.yul\":4081:4087   */\n      dup3\n        /* \"#utility.yul\":4059:4088   */\n      tag_111\n      jump\t// in\n    tag_129:\n        /* \"#utility.yul\":4051:4088   */\n      swap1\n      pop\n        /* \"#utility.yul\":4143:4147   */\n      0x20\n        /* \"#utility.yul\":4137:4141   */\n      dup2\n        /* \"#utility.yul\":4133:4148   */\n      add\n        /* \"#utility.yul\":4125:4148   */\n      swap1\n      pop\n        /* \"#utility.yul\":3847:4155   */\n      swap2\n      swap1\n      pop\n      jump\t// out\n        /* \"#utility.yul\":4161:4260   */\n    tag_105:\n        /* \"#utility.yul\":4213:4219   */\n      0x00\n        /* \"#utility.yul\":4247:4252   */\n      dup2\n        /* \"#utility.yul\":4241:4253   */\n      mload\n        /* \"#utility.yul\":4231:4253   */\n      swap1\n      pop\n        /* \"#utility.yul\":4161:4260   */\n      swap2\n      swap1\n      pop\n      jump\t// out\n        /* \"#utility.yul\":4266:4435   */\n    tag_107:\n        /* \"#utility.yul\":4350:4361   */\n      0x00\n        /* \"#utility.yul\":4384:4390   */\n      dup3\n        /* \"#utility.yul\":4379:4382   */\n      dup3\n        /* \"#utility.yul\":4372:4391   */\n      mstore\n        /* \"#utility.yul\":4424:4428   */\n      0x20\n        /* \"#utility.yul\":4419:4422   */\n      dup3\n        /* \"#utility.yul\":4415:4429   */\n      add\n        /* \"#utility.yul\":4400:4429   */\n      swap1\n      pop\n        /* \"#utility.yul\":4266:4435   */\n      swap3\n      swap2\n      pop\n      pop\n      jump\t// out\n        /* \"#utility.yul\":4441:4537   */\n    tag_101:\n        /* \"#utility.yul\":4478:4485   */\n      0x00\n        /* \"#utility.yul\":4507:4531   */\n      tag_133\n        /* \"#utility.yul\":4525:4530   */\n      dup3\n        /* \"#utility.yul\":4507:4531   */\n      tag_134\n      jump\t// in\n    tag_133:\n        /* \"#utility.yul\":4496:4531   */\n      swap1\n      pop\n        /* \"#utility.yul\":4441:4537   */\n      swap2\n      swap1\n      pop\n      jump\t// out\n        /* \"#utility.yul\":4543:4669   */\n    tag_134:\n        /* \"#utility.yul\":4580:4587   */\n      0x00\n        /* \"#utility.yul\":4620:4662   */\n      0xffffffffffffffffffffffffffffffffffffffff\n        /* \"#utility.yul\":4613:4618   */\n      dup3\n        /* \"#utility.yul\":4609:4663   */\n      and\n        /* \"#utility.yul\":4598:4663   */\n      swap1\n      pop\n        /* \"#utility.yul\":4543:4669   */\n      swap2\n      swap1\n      pop\n      jump\t// out\n        /* \"#utility.yul\":4675:4752   */\n    tag_136:\n        /* \"#utility.yul\":4712:4719   */\n      0x00\n        /* \"#utility.yul\":4741:4746   */\n      dup2\n        /* \"#utility.yul\":4730:4746   */\n      swap1\n      pop\n        /* \"#utility.yul\":4675:4752   */\n      swap2\n      swap1\n      pop\n      jump\t// out\n        /* \"#utility.yul\":4758:4912   */\n    tag_70:\n        /* \"#utility.yul\":4842:4848   */\n      dup3\n        /* \"#utility.yul\":4837:4840   */\n      dup2\n        /* \"#utility.yul\":4832:4835   */\n      dup4\n        /* \"#utility.yul\":4819:4849   */\n      calldatacopy\n        /* \"#utility.yul\":4904:4905   */\n      0x00\n        /* \"#utility.yul\":4895:4901   */\n      dup4\n        /* \"#utility.yul\":4890:4893   */\n      dup4\n        /* \"#utility.yul\":4886:4902   */\n      add\n        /* \"#utility.yul\":4879:4906   */\n      mstore\n        /* \"#utility.yul\":4758:4912   */\n      pop\n      pop\n      pop\n      jump\t// out\n        /* \"#utility.yul\":4918:5225   */\n    tag_109:\n        /* \"#utility.yul\":4986:4987   */\n      0x00\n        /* \"#utility.yul\":4996:5109   */\n    tag_140:\n        /* \"#utility.yul\":5010:5016   */\n      dup4\n        /* \"#utility.yul\":5007:5008   */\n      dup2\n        /* \"#utility.yul\":5004:5017   */\n      lt\n        /* \"#utility.yul\":4996:5109   */\n      iszero\n      tag_142\n      jumpi\n        /* \"#utility.yul\":5095:5096   */\n      dup1\n        /* \"#utility.yul\":5090:5093   */\n      dup3\n        /* \"#utility.yul\":5086:5097   */\n      add\n        /* \"#utility.yul\":5080:5098   */\n      mload\n        /* \"#utility.yul\":5076:5077   */\n      dup2\n        /* \"#utility.yul\":5071:5074   */\n      dup5\n        /* \"#utility.yul\":5067:5078   */\n      add\n        /* \"#utility.yul\":5060:5099   */\n      mstore\n        /* \"#utility.yul\":5032:5034   */\n      0x20\n        /* \"#utility.yul\":5029:5030   */\n      dup2\n        /* \"#utility.yul\":5025:5035   */\n      add\n        /* \"#utility.yul\":5020:5035   */\n      swap1\n      pop\n        /* \"#utility.yul\":4996:5109   */\n      jump(tag_140)\n    tag_142:\n        /* \"#utility.yul\":5127:5133   */\n      dup4\n        /* \"#utility.yul\":5124:5125   */\n      dup2\n        /* \"#utility.yul\":5121:5134   */\n      gt\n        /* \"#utility.yul\":5118:5219   */\n      iszero\n      tag_143\n      jumpi\n        /* \"#utility.yul\":5207:5208   */\n      0x00\n        /* \"#utility.yul\":5198:5204   */\n      dup5\n        /* \"#utility.yul\":5193:5196   */\n      dup5\n        /* \"#utility.yul\":5189:5205   */\n      add\n        /* \"#utility.yul\":5182:5209   */\n      mstore\n        /* \"#utility.yul\":5118:5219   */\n    tag_143:\n        /* \"#utility.yul\":4967:5225   */\n      pop\n        /* \"#utility.yul\":4918:5225   */\n      pop\n      pop\n      pop\n      jump\t// out\n        /* \"#utility.yul\":5231:5551   */\n    tag_32:\n        /* \"#utility.yul\":5275:5281   */\n      0x00\n        /* \"#utility.yul\":5312:5313   */\n      0x02\n        /* \"#utility.yul\":5306:5310   */\n      dup3\n        /* \"#utility.yul\":5302:5314   */\n      div\n        /* \"#utility.yul\":5292:5314   */\n      swap1\n      pop\n        /* \"#utility.yul\":5359:5360   */\n      0x01\n        /* \"#utility.yul\":5353:5357   */\n      dup3\n        /* \"#utility.yul\":5349:5361   */\n      and\n        /* \"#utility.yul\":5380:5398   */\n      dup1\n        /* \"#utility.yul\":5370:5451   */\n      tag_145\n      jumpi\n        /* \"#utility.yul\":5436:5440   */\n      0x7f\n        /* \"#utility.yul\":5428:5434   */\n      dup3\n        /* \"#utility.yul\":5424:5441   */\n      and\n        /* \"#utility.yul\":5414:5441   */\n      swap2\n      pop\n        /* \"#utility.yul\":5370:5451   */\n    tag_145:\n        /* \"#utility.yul\":5498:5500   */\n      0x20\n        /* \"#utility.yul\":5490:5496   */\n      dup3\n        /* \"#utility.yul\":5487:5501   */\n      lt\n        /* \"#utility.yul\":5467:5485   */\n      dup2\n        /* \"#utility.yul\":5464:5502   */\n      eq\n        /* \"#utility.yul\":5461:5545   */\n      iszero\n      tag_146\n      jumpi\n        /* \"#utility.yul\":5517:5535   */\n      tag_147\n      tag_148\n      jump\t// in\n    tag_147:\n        /* \"#utility.yul\":5461:5545   */\n    tag_146:\n        /* \"#utility.yul\":5282:5551   */\n      pop\n        /* \"#utility.yul\":5231:5551   */\n      swap2\n      swap1\n      pop\n      jump\t// out\n        /* \"#utility.yul\":5557:5838   */\n    tag_123:\n        /* \"#utility.yul\":5640:5667   */\n      tag_150\n        /* \"#utility.yul\":5662:5666   */\n      dup3\n        /* \"#utility.yul\":5640:5667   */\n      tag_111\n      jump\t// in\n    tag_150:\n        /* \"#utility.yul\":5632:5638   */\n      dup2\n        /* \"#utility.yul\":5628:5668   */\n      add\n        /* \"#utility.yul\":5770:5776   */\n      dup2\n        /* \"#utility.yul\":5758:5768   */\n      dup2\n        /* \"#utility.yul\":5755:5777   */\n      lt\n        /* \"#utility.yul\":5734:5752   */\n      0xffffffffffffffff\n        /* \"#utility.yul\":5722:5732   */\n      dup3\n        /* \"#utility.yul\":5719:5753   */\n      gt\n        /* \"#utility.yul\":5716:5778   */\n      or\n        /* \"#utility.yul\":5713:5801   */\n      iszero\n      tag_151\n      jumpi\n        /* \"#utility.yul\":5781:5799   */\n      tag_152\n      tag_128\n      jump\t// in\n    tag_152:\n        /* \"#utility.yul\":5713:5801   */\n    tag_151:\n        /* \"#utility.yul\":5821:5831   */\n      dup1\n        /* \"#utility.yul\":5817:5819   */\n      0x40\n        /* \"#utility.yul\":5810:5832   */\n      mstore\n        /* \"#utility.yul\":5600:5838   */\n      pop\n        /* \"#utility.yul\":5557:5838   */\n      pop\n      pop\n      jump\t// out\n        /* \"#utility.yul\":5844:6024   */\n    tag_148:\n        /* \"#utility.yul\":5892:5969   */\n      0x4e487b7100000000000000000000000000000000000000000000000000000000\n        /* \"#utility.yul\":5889:5890   */\n      0x00\n        /* \"#utility.yul\":5882:5970   */\n      mstore\n        /* \"#utility.yul\":5989:5993   */\n      0x22\n        /* \"#utility.yul\":5986:5987   */\n      0x04\n        /* \"#utility.yul\":5979:5994   */\n      mstore\n        /* \"#utility.yul\":6013:6017   */\n      0x24\n        /* \"#utility.yul\":6010:6011   */\n      0x00\n        /* \"#utility.yul\":6003:6018   */\n      revert\n        /* \"#utility.yul\":6030:6210   */\n    tag_128:\n        /* \"#utility.yul\":6078:6155   */\n      0x4e487b7100000000000000000000000000000000000000000000000000000000\n        /* \"#utility.yul\":6075:6076   */\n      0x00\n        /* \"#utility.yul\":6068:6156   */\n      mstore\n        /* \"#utility.yul\":6175:6179   */\n      0x41\n        /* \"#utility.yul\":6172:6173   */\n      0x04\n        /* \"#utility.yul\":6165:6180   */\n      mstore\n        /* \"#utility.yul\":6199:6203   */\n      0x24\n        /* \"#utility.yul\":6196:6197   */\n      0x00\n        /* \"#utility.yul\":6189:6204   */\n      revert\n        /* \"#utility.yul\":6216:6333   */\n    tag_79:\n        /* \"#utility.yul\":6325:6326   */\n      0x00\n        /* \"#utility.yul\":6322:6323   */\n      dup1\n        /* \"#utility.yul\":6315:6327   */\n      revert\n        /* \"#utility.yul\":6339:6456   */\n    tag_68:\n        /* \"#utility.yul\":6448:6449   */\n      0x00\n        /* \"#utility.yul\":6445:6446   */\n      dup1\n        /* \"#utility.yul\":6438:6450   */\n      revert\n        /* \"#utility.yul\":6462:6579   */\n    tag_96:\n        /* \"#utility.yul\":6571:6572   */\n      0x00\n        /* \"#utility.yul\":6568:6569   */\n      dup1\n        /* \"#utility.yul\":6561:6573   */\n      revert\n        /* \"#utility.yul\":6585:6702   */\n    tag_88:\n        /* \"#utility.yul\":6694:6695   */\n      0x00\n        /* \"#utility.yul\":6691:6692   */\n      dup1\n        /* \"#utility.yul\":6684:6696   */\n      revert\n        /* \"#utility.yul\":6708:6810   */\n    tag_111:\n        /* \"#utility.yul\":6749:6755   */\n      0x00\n        /* \"#utility.yul\":6800:6802   */\n      0x1f\n        /* \"#utility.yul\":6796:6803   */\n      not\n        /* \"#utility.yul\":6791:6793   */\n      0x1f\n        /* \"#utility.yul\":6784:6789   */\n      dup4\n        /* \"#utility.yul\":6780:6794   */\n      add\n        /* \"#utility.yul\":6776:6804   */\n      and\n        /* \"#utility.yul\":6766:6804   */\n      swap1\n      pop\n        /* \"#utility.yul\":6708:6810   */\n      swap2\n      swap1\n      pop\n      jump\t// out\n        /* \"#utility.yul\":6816:6938   */\n    tag_74:\n        /* \"#utility.yul\":6889:6913   */\n      tag_161\n        /* \"#utility.yul\":6907:6912   */\n      dup2\n        /* \"#utility.yul\":6889:6913   */\n      tag_101\n      jump\t// in\n    tag_161:\n        /* \"#utility.yul\":6882:6887   */\n      dup2\n        /* \"#utility.yul\":6879:6914   */\n      eq\n        /* \"#utility.yul\":6869:6932   */\n      tag_162\n      jumpi\n        /* \"#utility.yul\":6928:6929   */\n      0x00\n        /* \"#utility.yul\":6925:6926   */\n      dup1\n        /* \"#utility.yul\":6918:6930   */\n      revert\n        /* \"#utility.yul\":6869:6932   */\n    tag_162:\n        /* \"#utility.yul\":6816:6938   */\n      pop\n      jump\t// out\n        /* \"#utility.yul\":6944:7066   */\n    tag_84:\n        /* \"#utility.yul\":7017:7041   */\n      tag_164\n        /* \"#utility.yul\":7035:7040   */\n      dup2\n        /* \"#utility.yul\":7017:7041   */\n      tag_136\n      jump\t// in\n    tag_164:\n        /* \"#utility.yul\":7010:7015   */\n      dup2\n        /* \"#utility.yul\":7007:7042   */\n      eq\n        /* \"#utility.yul\":6997:7060   */\n      tag_165\n      jumpi\n        /* \"#utility.yul\":7056:7057   */\n      0x00\n        /* \"#utility.yul\":7053:7054   */\n      dup1\n        /* \"#utility.yul\":7046:7058   */\n      revert\n        /* \"#utility.yul\":6997:7060   */\n    tag_165:\n        /* \"#utility.yul\":6944:7066   */\n      pop\n      jump\t// out\n\n    auxdata: 0xa26469706673582212200dec467c8a159a82634bddbbfb8e192ac8faba3a96ad2d1912b43258df38e90764736f6c63430008070033\n}\n",
				"bytecode": {
					"linkReferences": {},
					"object": "608060405234801561001057600080fd5b50610842806100206000396000f3fe608060405234801561001057600080fd5b506004361061004c5760003560e01c8063420069b314610051578063893d20e81461006d578063a5f218271461008b578063b914d7ab146100bc575b600080fd5b61006b60048036038101906100669190610503565b6100ec565b005b61007561017b565b6040516100829190610594565b60405180910390f35b6100a560048036038101906100a09190610503565b610183565b6040516100b39291906105d1565b60405180910390f35b6100d660048036038101906100d191906104c3565b6102cd565b6040516100e391906105af565b60405180910390f35b60008073ab8483f64d9c6d1ecf9b849ae677dd3315835cb273ffffffffffffffffffffffffffffffffffffffff1673ffffffffffffffffffffffffffffffffffffffff16815260200190815260200160002081908060018154018082558091505060019003906000526020600020016000909190919091509080519060200190610177929190610386565b5050565b600033905090565b6001818051602081018201805184825260208301602085012081835280955050505050506000915090508060000180546101bc906106f8565b80601f01602080910402602001604051908101604052809291908181526020018280546101e8906106f8565b80156102355780601f1061020a57610100808354040283529160200191610235565b820191906000526020600020905b81548152906001019060200180831161021857829003601f168201915b50505050509080600101805461024a906106f8565b80601f0160208091040260200160405190810160405280929190818152602001828054610276906106f8565b80156102c35780601f10610298576101008083540402835291602001916102c3565b820191906000526020600020905b8154815290600101906020018083116102a657829003601f168201915b5050505050905082565b600060205281600052604060002081815481106102e957600080fd5b90600052602060002001600091509150508054610305906106f8565b80601f0160208091040260200160405190810160405280929190818152602001828054610331906106f8565b801561037e5780601f106103535761010080835404028352916020019161037e565b820191906000526020600020905b81548152906001019060200180831161036157829003601f168201915b505050505081565b828054610392906106f8565b90600052602060002090601f0160209004810192826103b457600085556103fb565b82601f106103cd57805160ff19168380011785556103fb565b828001600101855582156103fb579182015b828111156103fa5782518255916020019190600101906103df565b5b509050610408919061040c565b5090565b5b8082111561042557600081600090555060010161040d565b5090565b600061043c6104378461062d565b610608565b905082815260208101848484011115610458576104576107be565b5b6104638482856106b6565b509392505050565b60008135905061047a816107de565b92915050565b600082601f830112610495576104946107b9565b5b81356104a5848260208601610429565b91505092915050565b6000813590506104bd816107f5565b92915050565b600080604083850312156104da576104d96107c8565b5b60006104e88582860161046b565b92505060206104f9858286016104ae565b9150509250929050565b600060208284031215610519576105186107c8565b5b600082013567ffffffffffffffff811115610537576105366107c3565b5b61054384828501610480565b91505092915050565b6105558161067a565b82525050565b60006105668261065e565b6105708185610669565b93506105808185602086016106c5565b610589816107cd565b840191505092915050565b60006020820190506105a9600083018461054c565b92915050565b600060208201905081810360008301526105c9818461055b565b905092915050565b600060408201905081810360008301526105eb818561055b565b905081810360208301526105ff818461055b565b90509392505050565b6000610612610623565b905061061e828261072a565b919050565b6000604051905090565b600067ffffffffffffffff8211156106485761064761078a565b5b610651826107cd565b9050602081019050919050565b600081519050919050565b600082825260208201905092915050565b60006106858261068c565b9050919050565b600073ffffffffffffffffffffffffffffffffffffffff82169050919050565b6000819050919050565b82818337600083830152505050565b60005b838110156106e35780820151818401526020810190506106c8565b838111156106f2576000848401525b50505050565b6000600282049050600182168061071057607f821691505b602082108114156107245761072361075b565b5b50919050565b610733826107cd565b810181811067ffffffffffffffff821117156107525761075161078a565b5b80604052505050565b7f4e487b7100000000000000000000000000000000000000000000000000000000600052602260045260246000fd5b7f4e487b7100000000000000000000000000000000000000000000000000000000600052604160045260246000fd5b600080fd5b600080fd5b600080fd5b600080fd5b6000601f19601f8301169050919050565b6107e78161067a565b81146107f257600080fd5b50565b6107fe816106ac565b811461080957600080fd5b5056fea26469706673582212200dec467c8a159a82634bddbbfb8e192ac8faba3a96ad2d1912b43258df38e90764736f6c63430008070033",
					"opcodes": "PUSH1 0x80 PUSH1 0x40 MSTORE CALLVALUE DUP1 ISZERO PUSH2 0x10 JUMPI PUSH1 0x0 DUP1 REVERT JUMPDEST POP PUSH2 0x842 DUP1 PUSH2 0x20 PUSH1 0x0 CODECOPY PUSH1 0x0 RETURN INVALID PUSH1 0x80 PUSH1 0x40 MSTORE CALLVALUE DUP1 ISZERO PUSH2 0x10 JUMPI PUSH1 0x0 DUP1 REVERT JUMPDEST POP PUSH1 0x4 CALLDATASIZE LT PUSH2 0x4C JUMPI PUSH1 0x0 CALLDATALOAD PUSH1 0xE0 SHR DUP1 PUSH4 0x420069B3 EQ PUSH2 0x51 JUMPI DUP1 PUSH4 0x893D20E8 EQ PUSH2 0x6D JUMPI DUP1 PUSH4 0xA5F21827 EQ PUSH2 0x8B JUMPI DUP1 PUSH4 0xB914D7AB EQ PUSH2 0xBC JUMPI JUMPDEST PUSH1 0x0 DUP1 REVERT JUMPDEST PUSH2 0x6B PUSH1 0x4 DUP1 CALLDATASIZE SUB DUP2 ADD SWAP1 PUSH2 0x66 SWAP2 SWAP1 PUSH2 0x503 JUMP JUMPDEST PUSH2 0xEC JUMP JUMPDEST STOP JUMPDEST PUSH2 0x75 PUSH2 0x17B JUMP JUMPDEST PUSH1 0x40 MLOAD PUSH2 0x82 SWAP2 SWAP1 PUSH2 0x594 JUMP JUMPDEST PUSH1 0x40 MLOAD DUP1 SWAP2 SUB SWAP1 RETURN JUMPDEST PUSH2 0xA5 PUSH1 0x4 DUP1 CALLDATASIZE SUB DUP2 ADD SWAP1 PUSH2 0xA0 SWAP2 SWAP1 PUSH2 0x503 JUMP JUMPDEST PUSH2 0x183 JUMP JUMPDEST PUSH1 0x40 MLOAD PUSH2 0xB3 SWAP3 SWAP2 SWAP1 PUSH2 0x5D1 JUMP JUMPDEST PUSH1 0x40 MLOAD DUP1 SWAP2 SUB SWAP1 RETURN JUMPDEST PUSH2 0xD6 PUSH1 0x4 DUP1 CALLDATASIZE SUB DUP2 ADD SWAP1 PUSH2 0xD1 SWAP2 SWAP1 PUSH2 0x4C3 JUMP JUMPDEST PUSH2 0x2CD JUMP JUMPDEST PUSH1 0x40 MLOAD PUSH2 0xE3 SWAP2 SWAP1 PUSH2 0x5AF JUMP JUMPDEST PUSH1 0x40 MLOAD DUP1 SWAP2 SUB SWAP1 RETURN JUMPDEST PUSH1 0x0 DUP1 PUSH20 0xAB8483F64D9C6D1ECF9B849AE677DD3315835CB2 PUSH20 0xFFFFFFFFFFFFFFFFFFFFFFFFFFFFFFFFFFFFFFFF AND PUSH20 0xFFFFFFFFFFFFFFFFFFFFFFFFFFFFFFFFFFFFFFFF AND DUP2 MSTORE PUSH1 0x20 ADD SWAP1 DUP2 MSTORE PUSH1 0x20 ADD PUSH1 0x0 KECCAK256 DUP2 SWAP1 DUP1 PUSH1 0x1 DUP2 SLOAD ADD DUP1 DUP3 SSTORE DUP1 SWAP2 POP POP PUSH1 0x1 SWAP1 SUB SWAP1 PUSH1 0x0 MSTORE PUSH1 0x20 PUSH1 0x0 KECCAK256 ADD PUSH1 0x0 SWAP1 SWAP2 SWAP1 SWAP2 SWAP1 SWAP2 POP SWAP1 DUP1 MLOAD SWAP1 PUSH1 0x20 ADD SWAP1 PUSH2 0x177 SWAP3 SWAP2 SWAP1 PUSH2 0x386 JUMP JUMPDEST POP POP JUMP JUMPDEST PUSH1 0x0 CALLER SWAP1 POP SWAP1 JUMP JUMPDEST PUSH1 0x1 DUP2 DUP1 MLOAD PUSH1 0x20 DUP2 ADD DUP3 ADD DUP1 MLOAD DUP5 DUP3 MSTORE PUSH1 0x20 DUP4 ADD PUSH1 0x20 DUP6 ADD KECCAK256 DUP2 DUP4 MSTORE DUP1 SWAP6 POP POP POP POP POP POP PUSH1 0x0 SWAP2 POP SWAP1 POP DUP1 PUSH1 0x0 ADD DUP1 SLOAD PUSH2 0x1BC SWAP1 PUSH2 0x6F8 JUMP JUMPDEST DUP1 PUSH1 0x1F ADD PUSH1 0x20 DUP1 SWAP2 DIV MUL PUSH1 0x20 ADD PUSH1 0x40 MLOAD SWAP1 DUP2 ADD PUSH1 0x40 MSTORE DUP1 SWAP3 SWAP2 SWAP1 DUP2 DUP2 MSTORE PUSH1 0x20 ADD DUP3 DUP1 SLOAD PUSH2 0x1E8 SWAP1 PUSH2 0x6F8 JUMP JUMPDEST DUP1 ISZERO PUSH2 0x235 JUMPI DUP1 PUSH1 0x1F LT PUSH2 0x20A JUMPI PUSH2 0x100 DUP1 DUP4 SLOAD DIV MUL DUP4 MSTORE SWAP2 PUSH1 0x20 ADD SWAP2 PUSH2 0x235 JUMP JUMPDEST DUP3 ADD SWAP2 SWAP1 PUSH1 0x0 MSTORE PUSH1 0x20 PUSH1 0x0 KECCAK256 SWAP1 JUMPDEST DUP2 SLOAD DUP2 MSTORE SWAP1 PUSH1 0x1 ADD SWAP1 PUSH1 0x20 ADD DUP1 DUP4 GT PUSH2 0x218 JUMPI DUP3 SWAP1 SUB PUSH1 0x1F AND DUP3 ADD SWAP2 JUMPDEST POP POP POP POP POP SWAP1 DUP1 PUSH1 0x1 ADD DUP1 SLOAD PUSH2 0x24A SWAP1 PUSH2 0x6F8 JUMP JUMPDEST DUP1 PUSH1 0x1F ADD PUSH1 0x20 DUP1 SWAP2 DIV MUL PUSH1 0x20 ADD PUSH1 0x40 MLOAD SWAP1 DUP2 ADD PUSH1 0x40 MSTORE DUP1 SWAP3 SWAP2 SWAP1 DUP2 DUP2 MSTORE PUSH1 0x20 ADD DUP3 DUP1 SLOAD PUSH2 0x276 SWAP1 PUSH2 0x6F8 JUMP JUMPDEST DUP1 ISZERO PUSH2 0x2C3 JUMPI DUP1 PUSH1 0x1F LT PUSH2 0x298 JUMPI PUSH2 0x100 DUP1 DUP4 SLOAD DIV MUL DUP4 MSTORE SWAP2 PUSH1 0x20 ADD SWAP2 PUSH2 0x2C3 JUMP JUMPDEST DUP3 ADD SWAP2 SWAP1 PUSH1 0x0 MSTORE PUSH1 0x20 PUSH1 0x0 KECCAK256 SWAP1 JUMPDEST DUP2 SLOAD DUP2 MSTORE SWAP1 PUSH1 0x1 ADD SWAP1 PUSH1 0x20 ADD DUP1 DUP4 GT PUSH2 0x2A6 JUMPI DUP3 SWAP1 SUB PUSH1 0x1F AND DUP3 ADD SWAP2 JUMPDEST POP POP POP POP POP SWAP1 POP DUP3 JUMP JUMPDEST PUSH1 0x0 PUSH1 0x20 MSTORE DUP2 PUSH1 0x0 MSTORE PUSH1 0x40 PUSH1 0x0 KECCAK256 DUP2 DUP2 SLOAD DUP2 LT PUSH2 0x2E9 JUMPI PUSH1 0x0 DUP1 REVERT JUMPDEST SWAP1 PUSH1 0x0 MSTORE PUSH1 0x20 PUSH1 0x0 KECCAK256 ADD PUSH1 0x0 SWAP2 POP SWAP2 POP POP DUP1 SLOAD PUSH2 0x305 SWAP1 PUSH2 0x6F8 JUMP JUMPDEST DUP1 PUSH1 0x1F ADD PUSH1 0x20 DUP1 SWAP2 DIV MUL PUSH1 0x20 ADD PUSH1 0x40 MLOAD SWAP1 DUP2 ADD PUSH1 0x40 MSTORE DUP1 SWAP3 SWAP2 SWAP1 DUP2 DUP2 MSTORE PUSH1 0x20 ADD DUP3 DUP1 SLOAD PUSH2 0x331 SWAP1 PUSH2 0x6F8 JUMP JUMPDEST DUP1 ISZERO PUSH2 0x37E JUMPI DUP1 PUSH1 0x1F LT PUSH2 0x353 JUMPI PUSH2 0x100 DUP1 DUP4 SLOAD DIV MUL DUP4 MSTORE SWAP2 PUSH1 0x20 ADD SWAP2 PUSH2 0x37E JUMP JUMPDEST DUP3 ADD SWAP2 SWAP1 PUSH1 0x0 MSTORE PUSH1 0x20 PUSH1 0x0 KECCAK256 SWAP1 JUMPDEST DUP2 SLOAD DUP2 MSTORE SWAP1 PUSH1 0x1 ADD SWAP1 PUSH1 0x20 ADD DUP1 DUP4 GT PUSH2 0x361 JUMPI DUP3 SWAP1 SUB PUSH1 0x1F AND DUP3 ADD SWAP2 JUMPDEST POP POP POP POP POP DUP2 JUMP JUMPDEST DUP3 DUP1 SLOAD PUSH2 0x392 SWAP1 PUSH2 0x6F8 JUMP JUMPDEST SWAP1 PUSH1 0x0 MSTORE PUSH1 0x20 PUSH1 0x0 KECCAK256 SWAP1 PUSH1 0x1F ADD PUSH1 0x20 SWAP1 DIV DUP2 ADD SWAP3 DUP3 PUSH2 0x3B4 JUMPI PUSH1 0x0 DUP6 SSTORE PUSH2 0x3FB JUMP JUMPDEST DUP3 PUSH1 0x1F LT PUSH2 0x3CD JUMPI DUP1 MLOAD PUSH1 0xFF NOT AND DUP4 DUP1 ADD OR DUP6 SSTORE PUSH2 0x3FB JUMP JUMPDEST DUP3 DUP1 ADD PUSH1 0x1 ADD DUP6 SSTORE DUP3 ISZERO PUSH2 0x3FB JUMPI SWAP2 DUP3 ADD JUMPDEST DUP3 DUP2 GT ISZERO PUSH2 0x3FA JUMPI DUP3 MLOAD DUP3 SSTORE SWAP2 PUSH1 0x20 ADD SWAP2 SWAP1 PUSH1 0x1 ADD SWAP1 PUSH2 0x3DF JUMP JUMPDEST JUMPDEST POP SWAP1 POP PUSH2 0x408 SWAP2 SWAP1 PUSH2 0x40C JUMP JUMPDEST POP SWAP1 JUMP JUMPDEST JUMPDEST DUP1 DUP3 GT ISZERO PUSH2 0x425 JUMPI PUSH1 0x0 DUP2 PUSH1 0x0 SWAP1 SSTORE POP PUSH1 0x1 ADD PUSH2 0x40D JUMP JUMPDEST POP SWAP1 JUMP JUMPDEST PUSH1 0x0 PUSH2 0x43C PUSH2 0x437 DUP5 PUSH2 0x62D JUMP JUMPDEST PUSH2 0x608 JUMP JUMPDEST SWAP1 POP DUP3 DUP2 MSTORE PUSH1 0x20 DUP2 ADD DUP5 DUP5 DUP5 ADD GT ISZERO PUSH2 0x458 JUMPI PUSH2 0x457 PUSH2 0x7BE JUMP JUMPDEST JUMPDEST PUSH2 0x463 DUP5 DUP3 DUP6 PUSH2 0x6B6 JUMP JUMPDEST POP SWAP4 SWAP3 POP POP POP JUMP JUMPDEST PUSH1 0x0 DUP2 CALLDATALOAD SWAP1 POP PUSH2 0x47A DUP2 PUSH2 0x7DE JUMP JUMPDEST SWAP3 SWAP2 POP POP JUMP JUMPDEST PUSH1 0x0 DUP3 PUSH1 0x1F DUP4 ADD SLT PUSH2 0x495 JUMPI PUSH2 0x494 PUSH2 0x7B9 JUMP JUMPDEST JUMPDEST DUP2 CALLDATALOAD PUSH2 0x4A5 DUP5 DUP3 PUSH1 0x20 DUP7 ADD PUSH2 0x429 JUMP JUMPDEST SWAP2 POP POP SWAP3 SWAP2 POP POP JUMP JUMPDEST PUSH1 0x0 DUP2 CALLDATALOAD SWAP1 POP PUSH2 0x4BD DUP2 PUSH2 0x7F5 JUMP JUMPDEST SWAP3 SWAP2 POP POP JUMP JUMPDEST PUSH1 0x0 DUP1 PUSH1 0x40 DUP4 DUP6 SUB SLT ISZERO PUSH2 0x4DA JUMPI PUSH2 0x4D9 PUSH2 0x7C8 JUMP JUMPDEST JUMPDEST PUSH1 0x0 PUSH2 0x4E8 DUP6 DUP3 DUP7 ADD PUSH2 0x46B JUMP JUMPDEST SWAP3 POP POP PUSH1 0x20 PUSH2 0x4F9 DUP6 DUP3 DUP7 ADD PUSH2 0x4AE JUMP JUMPDEST SWAP2 POP POP SWAP3 POP SWAP3 SWAP1 POP JUMP JUMPDEST PUSH1 0x0 PUSH1 0x20 DUP3 DUP5 SUB SLT ISZERO PUSH2 0x519 JUMPI PUSH2 0x518 PUSH2 0x7C8 JUMP JUMPDEST JUMPDEST PUSH1 0x0 DUP3 ADD CALLDATALOAD PUSH8 0xFFFFFFFFFFFFFFFF DUP2 GT ISZERO PUSH2 0x537 JUMPI PUSH2 0x536 PUSH2 0x7C3 JUMP JUMPDEST JUMPDEST PUSH2 0x543 DUP5 DUP3 DUP6 ADD PUSH2 0x480 JUMP JUMPDEST SWAP2 POP POP SWAP3 SWAP2 POP POP JUMP JUMPDEST PUSH2 0x555 DUP2 PUSH2 0x67A JUMP JUMPDEST DUP3 MSTORE POP POP JUMP JUMPDEST PUSH1 0x0 PUSH2 0x566 DUP3 PUSH2 0x65E JUMP JUMPDEST PUSH2 0x570 DUP2 DUP6 PUSH2 0x669 JUMP JUMPDEST SWAP4 POP PUSH2 0x580 DUP2 DUP6 PUSH1 0x20 DUP7 ADD PUSH2 0x6C5 JUMP JUMPDEST PUSH2 0x589 DUP2 PUSH2 0x7CD JUMP JUMPDEST DUP5 ADD SWAP2 POP POP SWAP3 SWAP2 POP POP JUMP JUMPDEST PUSH1 0x0 PUSH1 0x20 DUP3 ADD SWAP1 POP PUSH2 0x5A9 PUSH1 0x0 DUP4 ADD DUP5 PUSH2 0x54C JUMP JUMPDEST SWAP3 SWAP2 POP POP JUMP JUMPDEST PUSH1 0x0 PUSH1 0x20 DUP3 ADD SWAP1 POP DUP2 DUP2 SUB PUSH1 0x0 DUP4 ADD MSTORE PUSH2 0x5C9 DUP2 DUP5 PUSH2 0x55B JUMP JUMPDEST SWAP1 POP SWAP3 SWAP2 POP POP JUMP JUMPDEST PUSH1 0x0 PUSH1 0x40 DUP3 ADD SWAP1 POP DUP2 DUP2 SUB PUSH1 0x0 DUP4 ADD MSTORE PUSH2 0x5EB DUP2 DUP6 PUSH2 0x55B JUMP JUMPDEST SWAP1 POP DUP2 DUP2 SUB PUSH1 0x20 DUP4 ADD MSTORE PUSH2 0x5FF DUP2 DUP5 PUSH2 0x55B JUMP JUMPDEST SWAP1 POP SWAP4 SWAP3 POP POP POP JUMP JUMPDEST PUSH1 0x0 PUSH2 0x612 PUSH2 0x623 JUMP JUMPDEST SWAP1 POP PUSH2 0x61E DUP3 DUP3 PUSH2 0x72A JUMP JUMPDEST SWAP2 SWAP1 POP JUMP JUMPDEST PUSH1 0x0 PUSH1 0x40 MLOAD SWAP1 POP SWAP1 JUMP JUMPDEST PUSH1 0x0 PUSH8 0xFFFFFFFFFFFFFFFF DUP3 GT ISZERO PUSH2 0x648 JUMPI PUSH2 0x647 PUSH2 0x78A JUMP JUMPDEST JUMPDEST PUSH2 0x651 DUP3 PUSH2 0x7CD JUMP JUMPDEST SWAP1 POP PUSH1 0x20 DUP2 ADD SWAP1 POP SWAP2 SWAP1 POP JUMP JUMPDEST PUSH1 0x0 DUP2 MLOAD SWAP1 POP SWAP2 SWAP1 POP JUMP JUMPDEST PUSH1 0x0 DUP3 DUP3 MSTORE PUSH1 0x20 DUP3 ADD SWAP1 POP SWAP3 SWAP2 POP POP JUMP JUMPDEST PUSH1 0x0 PUSH2 0x685 DUP3 PUSH2 0x68C JUMP JUMPDEST SWAP1 POP SWAP2 SWAP1 POP JUMP JUMPDEST PUSH1 0x0 PUSH20 0xFFFFFFFFFFFFFFFFFFFFFFFFFFFFFFFFFFFFFFFF DUP3 AND SWAP1 POP SWAP2 SWAP1 POP JUMP JUMPDEST PUSH1 0x0 DUP2 SWAP1 POP SWAP2 SWAP1 POP JUMP JUMPDEST DUP3 DUP2 DUP4 CALLDATACOPY PUSH1 0x0 DUP4 DUP4 ADD MSTORE POP POP POP JUMP JUMPDEST PUSH1 0x0 JUMPDEST DUP4 DUP2 LT ISZERO PUSH2 0x6E3 JUMPI DUP1 DUP3 ADD MLOAD DUP2 DUP5 ADD MSTORE PUSH1 0x20 DUP2 ADD SWAP1 POP PUSH2 0x6C8 JUMP JUMPDEST DUP4 DUP2 GT ISZERO PUSH2 0x6F2 JUMPI PUSH1 0x0 DUP5 DUP5 ADD MSTORE JUMPDEST POP POP POP POP JUMP JUMPDEST PUSH1 0x0 PUSH1 0x2 DUP3 DIV SWAP1 POP PUSH1 0x1 DUP3 AND DUP1 PUSH2 0x710 JUMPI PUSH1 0x7F DUP3 AND SWAP2 POP JUMPDEST PUSH1 0x20 DUP3 LT DUP2 EQ ISZERO PUSH2 0x724 JUMPI PUSH2 0x723 PUSH2 0x75B JUMP JUMPDEST JUMPDEST POP SWAP2 SWAP1 POP JUMP JUMPDEST PUSH2 0x733 DUP3 PUSH2 0x7CD JUMP JUMPDEST DUP2 ADD DUP2 DUP2 LT PUSH8 0xFFFFFFFFFFFFFFFF DUP3 GT OR ISZERO PUSH2 0x752 JUMPI PUSH2 0x751 PUSH2 0x78A JUMP JUMPDEST JUMPDEST DUP1 PUSH1 0x40 MSTORE POP POP POP JUMP JUMPDEST PUSH32 0x4E487B7100000000000000000000000000000000000000000000000000000000 PUSH1 0x0 MSTORE PUSH1 0x22 PUSH1 0x4 MSTORE PUSH1 0x24 PUSH1 0x0 REVERT JUMPDEST PUSH32 0x4E487B7100000000000000000000000000000000000000000000000000000000 PUSH1 0x0 MSTORE PUSH1 0x41 PUSH1 0x4 MSTORE PUSH1 0x24 PUSH1 0x0 REVERT JUMPDEST PUSH1 0x0 DUP1 REVERT JUMPDEST PUSH1 0x0 DUP1 REVERT JUMPDEST PUSH1 0x0 DUP1 REVERT JUMPDEST PUSH1 0x0 DUP1 REVERT JUMPDEST PUSH1 0x0 PUSH1 0x1F NOT PUSH1 0x1F DUP4 ADD AND SWAP1 POP SWAP2 SWAP1 POP JUMP JUMPDEST PUSH2 0x7E7 DUP2 PUSH2 0x67A JUMP JUMPDEST DUP2 EQ PUSH2 0x7F2 JUMPI PUSH1 0x0 DUP1 REVERT JUMPDEST POP JUMP JUMPDEST PUSH2 0x7FE DUP2 PUSH2 0x6AC JUMP JUMPDEST DUP2 EQ PUSH2 0x809 JUMPI PUSH1 0x0 DUP1 REVERT JUMPDEST POP JUMP INVALID LOG2 PUSH5 0x6970667358 0x22 SLT KECCAK256 0xD 0xEC CHAINID PUSH29 0x8A159A82634BDDBBFB8E192AC8FABA3A96AD2D1912B43258DF38E90764 PUSH20 0x6F6C634300080700330000000000000000000000 "
				},
				"gasEstimates": {
					"creation": {
						"codeDepositCost": "422800",
						"executionCost": "461",
						"totalCost": "423261"
					},
					"external": {
						"getOwner()": "385",
						"names(address,uint256)": "infinite",
						"setValues(string)": "infinite",
						"traits(string)": "infinite"
					}
				},
				"methodIdentifiers": {
					"getOwner()": "893d20e8",
					"names(address,uint256)": "b914d7ab",
					"setValues(string)": "420069b3",
					"traits(string)": "a5f21827"
				}
			},
			"storageLayout": {
				"storage": [
					{
						"astId": 6,
						"contract": "contracts/mappings.sol:MappingsSample",
						"label": "names",
						"offset": 0,
						"slot": "0",
						"type": "t_mapping(t_address,t_array(t_string_storage)dyn_storage)"
					},
					{
						"astId": 42,
						"contract": "contracts/mappings.sol:MappingsSample",
						"label": "traits",
						"offset": 0,
						"slot": "1",
						"type": "t_mapping(t_string_memory_ptr,t_struct(Traits)37_storage)"
					}
				],
				"types": {
					"t_address": {
						"encoding": "inplace",
						"label": "address",
						"numberOfBytes": "20"
					},
					"t_array(t_string_storage)dyn_storage": {
						"base": "t_string_storage",
						"encoding": "dynamic_array",
						"label": "string[]",
						"numberOfBytes": "32"
					},
					"t_mapping(t_address,t_array(t_string_storage)dyn_storage)": {
						"encoding": "mapping",
						"key": "t_address",
						"label": "mapping(address => string[])",
						"numberOfBytes": "32",
						"value": "t_array(t_string_storage)dyn_storage"
					},
					"t_mapping(t_string_memory_ptr,t_struct(Traits)37_storage)": {
						"encoding": "mapping",
						"key": "t_string_memory_ptr",
						"label": "mapping(string => struct MappingsSample.Traits)",
						"numberOfBytes": "32",
						"value": "t_struct(Traits)37_storage"
					},
					"t_string_memory_ptr": {
						"encoding": "bytes",
						"label": "string",
						"numberOfBytes": "32"
					},
					"t_string_storage": {
						"encoding": "bytes",
						"label": "string",
						"numberOfBytes": "32"
					},
					"t_struct(Traits)37_storage": {
						"encoding": "inplace",
						"label": "struct MappingsSample.Traits",
						"members": [
							{
								"astId": 34,
								"contract": "contracts/mappings.sol:MappingsSample",
								"label": "color",
								"offset": 0,
								"slot": "0",
								"type": "t_string_storage"
							},
							{
								"astId": 36,
								"contract": "contracts/mappings.sol:MappingsSample",
								"label": "country",
								"offset": 0,
								"slot": "1",
								"type": "t_string_storage"
							}
						],
						"numberOfBytes": "64"
					}
				}
			},
			"userdoc": {
				"kind": "user",
				"methods": {},
				"version": 1
			}
		}
	}
}