{
	"contracts/functions.sol": {
		"functionsContract": {
			"abi": [
				{
					"inputs": [
						{
							"internalType": "uint256",
							"name": "a",
							"type": "uint256"
						},
						{
							"internalType": "uint256",
							"name": "b",
							"type": "uint256"
						}
					],
					"name": "getPureName",
					"outputs": [
						{
							"internalType": "uint256",
							"name": "",
							"type": "uint256"
						}
					],
					"stateMutability": "pure",
					"type": "function"
				},
				{
					"inputs": [],
					"name": "getname",
					"outputs": [
						{
							"internalType": "string",
							"name": "",
							"type": "string"
						}
					],
					"stateMutability": "view",
					"type": "function"
				},
				{
					"inputs": [
						{
							"internalType": "address",
							"name": "owner",
							"type": "address"
						},
						{
							"internalType": "address",
							"name": "payee",
							"type": "address"
						},
						{
							"internalType": "uint256",
							"name": "value",
							"type": "uint256"
						}
					],
					"name": "payOwner",
					"outputs": [
						{
							"internalType": "uint256",
							"name": "",
							"type": "uint256"
						}
					],
					"stateMutability": "payable",
					"type": "function"
				}
			],
			"devdoc": {
				"kind": "dev",
				"methods": {},
				"version": 1
			},
			"evm": {
				"assembly": "    /* \"contracts/functions.sol\":64:1275  contract functionsContract{\r... */\n  mstore(0x40, 0x80)\n    /* \"contracts/functions.sol\":125:148  string name = \"Polygon\" */\n  mload(0x40)\n  dup1\n  0x40\n  add\n  0x40\n  mstore\n  dup1\n  0x07\n  dup2\n  mstore\n  0x20\n  add\n  0x506f6c79676f6e00000000000000000000000000000000000000000000000000\n  dup2\n  mstore\n  pop\n  0x00\n  swap1\n  dup1\n  mload\n  swap1\n  0x20\n  add\n  swap1\n  tag_1\n  swap3\n  swap2\n  swap1\n  tag_2\n  jump\t// in\ntag_1:\n  pop\n    /* \"contracts/functions.sol\":64:1275  contract functionsContract{\r... */\n  callvalue\n  dup1\n  iszero\n  tag_3\n  jumpi\n  0x00\n  dup1\n  revert\ntag_3:\n  pop\n  jump(tag_4)\ntag_2:\n  dup3\n  dup1\n  sload\n  tag_5\n  swap1\n  tag_6\n  jump\t// in\ntag_5:\n  swap1\n  0x00\n  mstore\n  keccak256(0x00, 0x20)\n  swap1\n  0x1f\n  add\n  0x20\n  swap1\n  div\n  dup2\n  add\n  swap3\n  dup3\n  tag_8\n  jumpi\n  0x00\n  dup6\n  sstore\n  jump(tag_7)\ntag_8:\n  dup3\n  0x1f\n  lt\n  tag_9\n  jumpi\n  dup1\n  mload\n  not(0xff)\n  and\n  dup4\n  dup1\n  add\n  or\n  dup6\n  sstore\n  jump(tag_7)\ntag_9:\n  dup3\n  dup1\n  add\n  0x01\n  add\n  dup6\n  sstore\n  dup3\n  iszero\n  tag_7\n  jumpi\n  swap2\n  dup3\n  add\ntag_10:\n  dup3\n  dup2\n  gt\n  iszero\n  tag_11\n  jumpi\n  dup3\n  mload\n  dup3\n  sstore\n  swap2\n  0x20\n  add\n  swap2\n  swap1\n  0x01\n  add\n  swap1\n  jump(tag_10)\ntag_11:\ntag_7:\n  pop\n  swap1\n  pop\n  tag_12\n  swap2\n  swap1\n  tag_13\n  jump\t// in\ntag_12:\n  pop\n  swap1\n  jump\t// out\ntag_13:\ntag_14:\n  dup1\n  dup3\n  gt\n  iszero\n  tag_15\n  jumpi\n  0x00\n  dup2\n  0x00\n  swap1\n  sstore\n  pop\n  0x01\n  add\n  jump(tag_14)\ntag_15:\n  pop\n  swap1\n  jump\t// out\n    /* \"#utility.yul\":7:327   */\ntag_6:\n    /* \"#utility.yul\":51:57   */\n  0x00\n    /* \"#utility.yul\":88:89   */\n  0x02\n    /* \"#utility.yul\":82:86   */\n  dup3\n    /* \"#utility.yul\":78:90   */\n  div\n    /* \"#utility.yul\":68:90   */\n  swap1\n  pop\n    /* \"#utility.yul\":135:136   */\n  0x01\n    /* \"#utility.yul\":129:133   */\n  dup3\n    /* \"#utility.yul\":125:137   */\n  and\n    /* \"#utility.yul\":156:174   */\n  dup1\n    /* \"#utility.yul\":146:227   */\n  tag_18\n  jumpi\n    /* \"#utility.yul\":212:216   */\n  0x7f\n    /* \"#utility.yul\":204:210   */\n  dup3\n    /* \"#utility.yul\":200:217   */\n  and\n    /* \"#utility.yul\":190:217   */\n  swap2\n  pop\n    /* \"#utility.yul\":146:227   */\ntag_18:\n    /* \"#utility.yul\":274:276   */\n  0x20\n    /* \"#utility.yul\":266:272   */\n  dup3\n    /* \"#utility.yul\":263:277   */\n  lt\n    /* \"#utility.yul\":243:261   */\n  dup2\n    /* \"#utility.yul\":240:278   */\n  eq\n    /* \"#utility.yul\":237:321   */\n  iszero\n  tag_19\n  jumpi\n    /* \"#utility.yul\":293:311   */\n  tag_20\n  tag_21\n  jump\t// in\ntag_20:\n    /* \"#utility.yul\":237:321   */\ntag_19:\n    /* \"#utility.yul\":58:327   */\n  pop\n    /* \"#utility.yul\":7:327   */\n  swap2\n  swap1\n  pop\n  jump\t// out\n    /* \"#utility.yul\":333:513   */\ntag_21:\n    /* \"#utility.yul\":381:458   */\n  0x4e487b7100000000000000000000000000000000000000000000000000000000\n    /* \"#utility.yul\":378:379   */\n  0x00\n    /* \"#utility.yul\":371:459   */\n  mstore\n    /* \"#utility.yul\":478:482   */\n  0x22\n    /* \"#utility.yul\":475:476   */\n  0x04\n    /* \"#utility.yul\":468:483   */\n  mstore\n    /* \"#utility.yul\":502:506   */\n  0x24\n    /* \"#utility.yul\":499:500   */\n  0x00\n    /* \"#utility.yul\":492:507   */\n  revert\n    /* \"contracts/functions.sol\":64:1275  contract functionsContract{\r... */\ntag_4:\n  dataSize(sub_0)\n  dup1\n  dataOffset(sub_0)\n  0x00\n  codecopy\n  0x00\n  return\nstop\n\nsub_0: assembly {\n        /* \"contracts/functions.sol\":64:1275  contract functionsContract{\r... */\n      mstore(0x40, 0x80)\n      jumpi(tag_1, lt(calldatasize, 0x04))\n      shr(0xe0, calldataload(0x00))\n      dup1\n      0x65efd0f5\n      eq\n      tag_2\n      jumpi\n      dup1\n      0xa990a7a7\n      eq\n      tag_3\n      jumpi\n      dup1\n      0xc6ea59b9\n      eq\n      tag_4\n      jumpi\n    tag_1:\n      0x00\n      dup1\n      revert\n        /* \"contracts/functions.sol\":1030:1264  function payOwner(address owner,address payee, uint value)\r... */\n    tag_2:\n      tag_5\n      0x04\n      dup1\n      calldatasize\n      sub\n      dup2\n      add\n      swap1\n      tag_6\n      swap2\n      swap1\n      tag_7\n      jump\t// in\n    tag_6:\n      tag_8\n      jump\t// in\n    tag_5:\n      mload(0x40)\n      tag_9\n      swap2\n      swap1\n      tag_10\n      jump\t// in\n    tag_9:\n      mload(0x40)\n      dup1\n      swap2\n      sub\n      swap1\n      return\n        /* \"contracts/functions.sol\":775:1006  function getPureName(uint a, uint b)\r... */\n    tag_3:\n      callvalue\n      dup1\n      iszero\n      tag_11\n      jumpi\n      0x00\n      dup1\n      revert\n    tag_11:\n      pop\n      tag_12\n      0x04\n      dup1\n      calldatasize\n      sub\n      dup2\n      add\n      swap1\n      tag_13\n      swap2\n      swap1\n      tag_14\n      jump\t// in\n    tag_13:\n      tag_15\n      jump\t// in\n    tag_12:\n      mload(0x40)\n      tag_16\n      swap2\n      swap1\n      tag_10\n      jump\t// in\n    tag_16:\n      mload(0x40)\n      dup1\n      swap2\n      sub\n      swap1\n      return\n        /* \"contracts/functions.sol\":586:714  function getname()\r... */\n    tag_4:\n      callvalue\n      dup1\n      iszero\n      tag_17\n      jumpi\n      0x00\n      dup1\n      revert\n    tag_17:\n      pop\n      tag_18\n      tag_19\n      jump\t// in\n    tag_18:\n      mload(0x40)\n      tag_20\n      swap2\n      swap1\n      tag_21\n      jump\t// in\n    tag_20:\n      mload(0x40)\n      dup1\n      swap2\n      sub\n      swap1\n      return\n        /* \"contracts/functions.sol\":1030:1264  function payOwner(address owner,address payee, uint value)\r... */\n    tag_8:\n        /* \"contracts/functions.sol\":1140:1144  uint */\n      0x00\n        /* \"contracts/functions.sol\":1158:1180  uint[] memory balances */\n      0x60\n        /* \"contracts/functions.sol\":1205:1210  value */\n      dup3\n        /* \"contracts/functions.sol\":1191:1199  balances */\n      dup2\n        /* \"contracts/functions.sol\":1200:1201  0 */\n      0x00\n        /* \"contracts/functions.sol\":1191:1202  balances[0] */\n      dup2\n      mload\n      dup2\n      lt\n      tag_23\n      jumpi\n      tag_24\n      tag_25\n      jump\t// in\n    tag_24:\n    tag_23:\n      0x20\n      mul\n      0x20\n      add\n      add\n        /* \"contracts/functions.sol\":1191:1210  balances[0] = value */\n      dup2\n      dup2\n      mstore\n      pop\n      pop\n        /* \"contracts/functions.sol\":1228:1236  balances */\n      dup1\n        /* \"contracts/functions.sol\":1237:1238  0 */\n      0x00\n        /* \"contracts/functions.sol\":1228:1239  balances[0] */\n      dup2\n      mload\n      dup2\n      lt\n      tag_26\n      jumpi\n      tag_27\n      tag_25\n      jump\t// in\n    tag_27:\n    tag_26:\n      0x20\n      mul\n      0x20\n      add\n      add\n      mload\n        /* \"contracts/functions.sol\":1221:1239  return balances[0] */\n      swap2\n      pop\n      pop\n        /* \"contracts/functions.sol\":1030:1264  function payOwner(address owner,address payee, uint value)\r... */\n      swap4\n      swap3\n      pop\n      pop\n      pop\n      jump\t// out\n        /* \"contracts/functions.sol\":775:1006  function getPureName(uint a, uint b)\r... */\n    tag_15:\n        /* \"contracts/functions.sol\":860:864  uint */\n      0x00\n        /* \"contracts/functions.sol\":876:895  string memory _name */\n      dup1\n        /* \"contracts/functions.sol\":876:901  string memory _name = \"V\" */\n      mload(0x40)\n      dup1\n      0x40\n      add\n      0x40\n      mstore\n      dup1\n      0x01\n      dup2\n      mstore\n      0x20\n      add\n      0x5600000000000000000000000000000000000000000000000000000000000000\n      dup2\n      mstore\n      pop\n      swap1\n      pop\n        /* \"contracts/functions.sol\":940:951  uint result */\n      0x00\n        /* \"contracts/functions.sol\":956:957  b */\n      dup4\n        /* \"contracts/functions.sol\":954:955  a */\n      dup6\n        /* \"contracts/functions.sol\":954:957  a+b */\n      tag_29\n      swap2\n      swap1\n      tag_30\n      jump\t// in\n    tag_29:\n        /* \"contracts/functions.sol\":940:957  uint result = a+b */\n      swap1\n      pop\n        /* \"contracts/functions.sol\":975:981  result */\n      dup1\n        /* \"contracts/functions.sol\":968:981  return result */\n      swap3\n      pop\n      pop\n      pop\n        /* \"contracts/functions.sol\":775:1006  function getPureName(uint a, uint b)\r... */\n      swap3\n      swap2\n      pop\n      pop\n      jump\t// out\n        /* \"contracts/functions.sol\":586:714  function getname()\r... */\n    tag_19:\n        /* \"contracts/functions.sol\":653:666  string memory */\n      0x60\n        /* \"contracts/functions.sol\":685:689  name */\n      0x00\n        /* \"contracts/functions.sol\":678:689  return name */\n      dup1\n      sload\n      tag_32\n      swap1\n      tag_33\n      jump\t// in\n    tag_32:\n      dup1\n      0x1f\n      add\n      0x20\n      dup1\n      swap2\n      div\n      mul\n      0x20\n      add\n      mload(0x40)\n      swap1\n      dup2\n      add\n      0x40\n      mstore\n      dup1\n      swap3\n      swap2\n      swap1\n      dup2\n      dup2\n      mstore\n      0x20\n      add\n      dup3\n      dup1\n      sload\n      tag_34\n      swap1\n      tag_33\n      jump\t// in\n    tag_34:\n      dup1\n      iszero\n      tag_35\n      jumpi\n      dup1\n      0x1f\n      lt\n      tag_36\n      jumpi\n      0x0100\n      dup1\n      dup4\n      sload\n      div\n      mul\n      dup4\n      mstore\n      swap2\n      0x20\n      add\n      swap2\n      jump(tag_35)\n    tag_36:\n      dup3\n      add\n      swap2\n      swap1\n      0x00\n      mstore\n      keccak256(0x00, 0x20)\n      swap1\n    tag_37:\n      dup2\n      sload\n      dup2\n      mstore\n      swap1\n      0x01\n      add\n      swap1\n      0x20\n      add\n      dup1\n      dup4\n      gt\n      tag_37\n      jumpi\n      dup3\n      swap1\n      sub\n      0x1f\n      and\n      dup3\n      add\n      swap2\n    tag_35:\n      pop\n      pop\n      pop\n      pop\n      pop\n      swap1\n      pop\n        /* \"contracts/functions.sol\":586:714  function getname()\r... */\n      swap1\n      jump\t// out\n        /* \"#utility.yul\":7:146   */\n    tag_39:\n        /* \"#utility.yul\":53:58   */\n      0x00\n        /* \"#utility.yul\":91:97   */\n      dup2\n        /* \"#utility.yul\":78:98   */\n      calldataload\n        /* \"#utility.yul\":69:98   */\n      swap1\n      pop\n        /* \"#utility.yul\":107:140   */\n      tag_41\n        /* \"#utility.yul\":134:139   */\n      dup2\n        /* \"#utility.yul\":107:140   */\n      tag_42\n      jump\t// in\n    tag_41:\n        /* \"#utility.yul\":7:146   */\n      swap3\n      swap2\n      pop\n      pop\n      jump\t// out\n        /* \"#utility.yul\":152:291   */\n    tag_43:\n        /* \"#utility.yul\":198:203   */\n      0x00\n        /* \"#utility.yul\":236:242   */\n      dup2\n        /* \"#utility.yul\":223:243   */\n      calldataload\n        /* \"#utility.yul\":214:243   */\n      swap1\n      pop\n        /* \"#utility.yul\":252:285   */\n      tag_45\n        /* \"#utility.yul\":279:284   */\n      dup2\n        /* \"#utility.yul\":252:285   */\n      tag_46\n      jump\t// in\n    tag_45:\n        /* \"#utility.yul\":152:291   */\n      swap3\n      swap2\n      pop\n      pop\n      jump\t// out\n        /* \"#utility.yul\":297:916   */\n    tag_7:\n        /* \"#utility.yul\":374:380   */\n      0x00\n        /* \"#utility.yul\":382:388   */\n      dup1\n        /* \"#utility.yul\":390:396   */\n      0x00\n        /* \"#utility.yul\":439:441   */\n      0x60\n        /* \"#utility.yul\":427:436   */\n      dup5\n        /* \"#utility.yul\":418:425   */\n      dup7\n        /* \"#utility.yul\":414:437   */\n      sub\n        /* \"#utility.yul\":410:442   */\n      slt\n        /* \"#utility.yul\":407:526   */\n      iszero\n      tag_48\n      jumpi\n        /* \"#utility.yul\":445:524   */\n      tag_49\n      tag_50\n      jump\t// in\n    tag_49:\n        /* \"#utility.yul\":407:526   */\n    tag_48:\n        /* \"#utility.yul\":565:566   */\n      0x00\n        /* \"#utility.yul\":590:643   */\n      tag_51\n        /* \"#utility.yul\":635:642   */\n      dup7\n        /* \"#utility.yul\":626:632   */\n      dup3\n        /* \"#utility.yul\":615:624   */\n      dup8\n        /* \"#utility.yul\":611:633   */\n      add\n        /* \"#utility.yul\":590:643   */\n      tag_39\n      jump\t// in\n    tag_51:\n        /* \"#utility.yul\":580:643   */\n      swap4\n      pop\n        /* \"#utility.yul\":536:653   */\n      pop\n        /* \"#utility.yul\":692:694   */\n      0x20\n        /* \"#utility.yul\":718:771   */\n      tag_52\n        /* \"#utility.yul\":763:770   */\n      dup7\n        /* \"#utility.yul\":754:760   */\n      dup3\n        /* \"#utility.yul\":743:752   */\n      dup8\n        /* \"#utility.yul\":739:761   */\n      add\n        /* \"#utility.yul\":718:771   */\n      tag_39\n      jump\t// in\n    tag_52:\n        /* \"#utility.yul\":708:771   */\n      swap3\n      pop\n        /* \"#utility.yul\":663:781   */\n      pop\n        /* \"#utility.yul\":820:822   */\n      0x40\n        /* \"#utility.yul\":846:899   */\n      tag_53\n        /* \"#utility.yul\":891:898   */\n      dup7\n        /* \"#utility.yul\":882:888   */\n      dup3\n        /* \"#utility.yul\":871:880   */\n      dup8\n        /* \"#utility.yul\":867:889   */\n      add\n        /* \"#utility.yul\":846:899   */\n      tag_43\n      jump\t// in\n    tag_53:\n        /* \"#utility.yul\":836:899   */\n      swap2\n      pop\n        /* \"#utility.yul\":791:909   */\n      pop\n        /* \"#utility.yul\":297:916   */\n      swap3\n      pop\n      swap3\n      pop\n      swap3\n      jump\t// out\n        /* \"#utility.yul\":922:1396   */\n    tag_14:\n        /* \"#utility.yul\":990:996   */\n      0x00\n        /* \"#utility.yul\":998:1004   */\n      dup1\n        /* \"#utility.yul\":1047:1049   */\n      0x40\n        /* \"#utility.yul\":1035:1044   */\n      dup4\n        /* \"#utility.yul\":1026:1033   */\n      dup6\n        /* \"#utility.yul\":1022:1045   */\n      sub\n        /* \"#utility.yul\":1018:1050   */\n      slt\n        /* \"#utility.yul\":1015:1134   */\n      iszero\n      tag_55\n      jumpi\n        /* \"#utility.yul\":1053:1132   */\n      tag_56\n      tag_50\n      jump\t// in\n    tag_56:\n        /* \"#utility.yul\":1015:1134   */\n    tag_55:\n        /* \"#utility.yul\":1173:1174   */\n      0x00\n        /* \"#utility.yul\":1198:1251   */\n      tag_57\n        /* \"#utility.yul\":1243:1250   */\n      dup6\n        /* \"#utility.yul\":1234:1240   */\n      dup3\n        /* \"#utility.yul\":1223:1232   */\n      dup7\n        /* \"#utility.yul\":1219:1241   */\n      add\n        /* \"#utility.yul\":1198:1251   */\n      tag_43\n      jump\t// in\n    tag_57:\n        /* \"#utility.yul\":1188:1251   */\n      swap3\n      pop\n        /* \"#utility.yul\":1144:1261   */\n      pop\n        /* \"#utility.yul\":1300:1302   */\n      0x20\n        /* \"#utility.yul\":1326:1379   */\n      tag_58\n        /* \"#utility.yul\":1371:1378   */\n      dup6\n        /* \"#utility.yul\":1362:1368   */\n      dup3\n        /* \"#utility.yul\":1351:1360   */\n      dup7\n        /* \"#utility.yul\":1347:1369   */\n      add\n        /* \"#utility.yul\":1326:1379   */\n      tag_43\n      jump\t// in\n    tag_58:\n        /* \"#utility.yul\":1316:1379   */\n      swap2\n      pop\n        /* \"#utility.yul\":1271:1389   */\n      pop\n        /* \"#utility.yul\":922:1396   */\n      swap3\n      pop\n      swap3\n      swap1\n      pop\n      jump\t// out\n        /* \"#utility.yul\":1402:1766   */\n    tag_59:\n        /* \"#utility.yul\":1490:1493   */\n      0x00\n        /* \"#utility.yul\":1518:1557   */\n      tag_61\n        /* \"#utility.yul\":1551:1556   */\n      dup3\n        /* \"#utility.yul\":1518:1557   */\n      tag_62\n      jump\t// in\n    tag_61:\n        /* \"#utility.yul\":1573:1644   */\n      tag_63\n        /* \"#utility.yul\":1637:1643   */\n      dup2\n        /* \"#utility.yul\":1632:1635   */\n      dup6\n        /* \"#utility.yul\":1573:1644   */\n      tag_64\n      jump\t// in\n    tag_63:\n        /* \"#utility.yul\":1566:1644   */\n      swap4\n      pop\n        /* \"#utility.yul\":1653:1705   */\n      tag_65\n        /* \"#utility.yul\":1698:1704   */\n      dup2\n        /* \"#utility.yul\":1693:1696   */\n      dup6\n        /* \"#utility.yul\":1686:1690   */\n      0x20\n        /* \"#utility.yul\":1679:1684   */\n      dup7\n        /* \"#utility.yul\":1675:1691   */\n      add\n        /* \"#utility.yul\":1653:1705   */\n      tag_66\n      jump\t// in\n    tag_65:\n        /* \"#utility.yul\":1730:1759   */\n      tag_67\n        /* \"#utility.yul\":1752:1758   */\n      dup2\n        /* \"#utility.yul\":1730:1759   */\n      tag_68\n      jump\t// in\n    tag_67:\n        /* \"#utility.yul\":1725:1728   */\n      dup5\n        /* \"#utility.yul\":1721:1760   */\n      add\n        /* \"#utility.yul\":1714:1760   */\n      swap2\n      pop\n        /* \"#utility.yul\":1494:1766   */\n      pop\n        /* \"#utility.yul\":1402:1766   */\n      swap3\n      swap2\n      pop\n      pop\n      jump\t// out\n        /* \"#utility.yul\":1772:1890   */\n    tag_69:\n        /* \"#utility.yul\":1859:1883   */\n      tag_71\n        /* \"#utility.yul\":1877:1882   */\n      dup2\n        /* \"#utility.yul\":1859:1883   */\n      tag_72\n      jump\t// in\n    tag_71:\n        /* \"#utility.yul\":1854:1857   */\n      dup3\n        /* \"#utility.yul\":1847:1884   */\n      mstore\n        /* \"#utility.yul\":1772:1890   */\n      pop\n      pop\n      jump\t// out\n        /* \"#utility.yul\":1896:2209   */\n    tag_21:\n        /* \"#utility.yul\":2009:2013   */\n      0x00\n        /* \"#utility.yul\":2047:2049   */\n      0x20\n        /* \"#utility.yul\":2036:2045   */\n      dup3\n        /* \"#utility.yul\":2032:2050   */\n      add\n        /* \"#utility.yul\":2024:2050   */\n      swap1\n      pop\n        /* \"#utility.yul\":2096:2105   */\n      dup2\n        /* \"#utility.yul\":2090:2094   */\n      dup2\n        /* \"#utility.yul\":2086:2106   */\n      sub\n        /* \"#utility.yul\":2082:2083   */\n      0x00\n        /* \"#utility.yul\":2071:2080   */\n      dup4\n        /* \"#utility.yul\":2067:2084   */\n      add\n        /* \"#utility.yul\":2060:2107   */\n      mstore\n        /* \"#utility.yul\":2124:2202   */\n      tag_74\n        /* \"#utility.yul\":2197:2201   */\n      dup2\n        /* \"#utility.yul\":2188:2194   */\n      dup5\n        /* \"#utility.yul\":2124:2202   */\n      tag_59\n      jump\t// in\n    tag_74:\n        /* \"#utility.yul\":2116:2202   */\n      swap1\n      pop\n        /* \"#utility.yul\":1896:2209   */\n      swap3\n      swap2\n      pop\n      pop\n      jump\t// out\n        /* \"#utility.yul\":2215:2437   */\n    tag_10:\n        /* \"#utility.yul\":2308:2312   */\n      0x00\n        /* \"#utility.yul\":2346:2348   */\n      0x20\n        /* \"#utility.yul\":2335:2344   */\n      dup3\n        /* \"#utility.yul\":2331:2349   */\n      add\n        /* \"#utility.yul\":2323:2349   */\n      swap1\n      pop\n        /* \"#utility.yul\":2359:2430   */\n      tag_76\n        /* \"#utility.yul\":2427:2428   */\n      0x00\n        /* \"#utility.yul\":2416:2425   */\n      dup4\n        /* \"#utility.yul\":2412:2429   */\n      add\n        /* \"#utility.yul\":2403:2409   */\n      dup5\n        /* \"#utility.yul\":2359:2430   */\n      tag_69\n      jump\t// in\n    tag_76:\n        /* \"#utility.yul\":2215:2437   */\n      swap3\n      swap2\n      pop\n      pop\n      jump\t// out\n        /* \"#utility.yul\":2524:2623   */\n    tag_62:\n        /* \"#utility.yul\":2576:2582   */\n      0x00\n        /* \"#utility.yul\":2610:2615   */\n      dup2\n        /* \"#utility.yul\":2604:2616   */\n      mload\n        /* \"#utility.yul\":2594:2616   */\n      swap1\n      pop\n        /* \"#utility.yul\":2524:2623   */\n      swap2\n      swap1\n      pop\n      jump\t// out\n        /* \"#utility.yul\":2629:2798   */\n    tag_64:\n        /* \"#utility.yul\":2713:2724   */\n      0x00\n        /* \"#utility.yul\":2747:2753   */\n      dup3\n        /* \"#utility.yul\":2742:2745   */\n      dup3\n        /* \"#utility.yul\":2735:2754   */\n      mstore\n        /* \"#utility.yul\":2787:2791   */\n      0x20\n        /* \"#utility.yul\":2782:2785   */\n      dup3\n        /* \"#utility.yul\":2778:2792   */\n      add\n        /* \"#utility.yul\":2763:2792   */\n      swap1\n      pop\n        /* \"#utility.yul\":2629:2798   */\n      swap3\n      swap2\n      pop\n      pop\n      jump\t// out\n        /* \"#utility.yul\":2804:3109   */\n    tag_30:\n        /* \"#utility.yul\":2844:2847   */\n      0x00\n        /* \"#utility.yul\":2863:2883   */\n      tag_82\n        /* \"#utility.yul\":2881:2882   */\n      dup3\n        /* \"#utility.yul\":2863:2883   */\n      tag_72\n      jump\t// in\n    tag_82:\n        /* \"#utility.yul\":2858:2883   */\n      swap2\n      pop\n        /* \"#utility.yul\":2897:2917   */\n      tag_83\n        /* \"#utility.yul\":2915:2916   */\n      dup4\n        /* \"#utility.yul\":2897:2917   */\n      tag_72\n      jump\t// in\n    tag_83:\n        /* \"#utility.yul\":2892:2917   */\n      swap3\n      pop\n        /* \"#utility.yul\":3051:3052   */\n      dup3\n        /* \"#utility.yul\":2983:3049   */\n      0xffffffffffffffffffffffffffffffffffffffffffffffffffffffffffffffff\n        /* \"#utility.yul\":2979:3053   */\n      sub\n        /* \"#utility.yul\":2976:2977   */\n      dup3\n        /* \"#utility.yul\":2973:3054   */\n      gt\n        /* \"#utility.yul\":2970:3077   */\n      iszero\n      tag_84\n      jumpi\n        /* \"#utility.yul\":3057:3075   */\n      tag_85\n      tag_86\n      jump\t// in\n    tag_85:\n        /* \"#utility.yul\":2970:3077   */\n    tag_84:\n        /* \"#utility.yul\":3101:3102   */\n      dup3\n        /* \"#utility.yul\":3098:3099   */\n      dup3\n        /* \"#utility.yul\":3094:3103   */\n      add\n        /* \"#utility.yul\":3087:3103   */\n      swap1\n      pop\n        /* \"#utility.yul\":2804:3109   */\n      swap3\n      swap2\n      pop\n      pop\n      jump\t// out\n        /* \"#utility.yul\":3115:3211   */\n    tag_87:\n        /* \"#utility.yul\":3152:3159   */\n      0x00\n        /* \"#utility.yul\":3181:3205   */\n      tag_89\n        /* \"#utility.yul\":3199:3204   */\n      dup3\n        /* \"#utility.yul\":3181:3205   */\n      tag_90\n      jump\t// in\n    tag_89:\n        /* \"#utility.yul\":3170:3205   */\n      swap1\n      pop\n        /* \"#utility.yul\":3115:3211   */\n      swap2\n      swap1\n      pop\n      jump\t// out\n        /* \"#utility.yul\":3217:3343   */\n    tag_90:\n        /* \"#utility.yul\":3254:3261   */\n      0x00\n        /* \"#utility.yul\":3294:3336   */\n      0xffffffffffffffffffffffffffffffffffffffff\n        /* \"#utility.yul\":3287:3292   */\n      dup3\n        /* \"#utility.yul\":3283:3337   */\n      and\n        /* \"#utility.yul\":3272:3337   */\n      swap1\n      pop\n        /* \"#utility.yul\":3217:3343   */\n      swap2\n      swap1\n      pop\n      jump\t// out\n        /* \"#utility.yul\":3349:3426   */\n    tag_72:\n        /* \"#utility.yul\":3386:3393   */\n      0x00\n        /* \"#utility.yul\":3415:3420   */\n      dup2\n        /* \"#utility.yul\":3404:3420   */\n      swap1\n      pop\n        /* \"#utility.yul\":3349:3426   */\n      swap2\n      swap1\n      pop\n      jump\t// out\n        /* \"#utility.yul\":3432:3739   */\n    tag_66:\n        /* \"#utility.yul\":3500:3501   */\n      0x00\n        /* \"#utility.yul\":3510:3623   */\n    tag_94:\n        /* \"#utility.yul\":3524:3530   */\n      dup4\n        /* \"#utility.yul\":3521:3522   */\n      dup2\n        /* \"#utility.yul\":3518:3531   */\n      lt\n        /* \"#utility.yul\":3510:3623   */\n      iszero\n      tag_96\n      jumpi\n        /* \"#utility.yul\":3609:3610   */\n      dup1\n        /* \"#utility.yul\":3604:3607   */\n      dup3\n        /* \"#utility.yul\":3600:3611   */\n      add\n        /* \"#utility.yul\":3594:3612   */\n      mload\n        /* \"#utility.yul\":3590:3591   */\n      dup2\n        /* \"#utility.yul\":3585:3588   */\n      dup5\n        /* \"#utility.yul\":3581:3592   */\n      add\n        /* \"#utility.yul\":3574:3613   */\n      mstore\n        /* \"#utility.yul\":3546:3548   */\n      0x20\n        /* \"#utility.yul\":3543:3544   */\n      dup2\n        /* \"#utility.yul\":3539:3549   */\n      add\n        /* \"#utility.yul\":3534:3549   */\n      swap1\n      pop\n        /* \"#utility.yul\":3510:3623   */\n      jump(tag_94)\n    tag_96:\n        /* \"#utility.yul\":3641:3647   */\n      dup4\n        /* \"#utility.yul\":3638:3639   */\n      dup2\n        /* \"#utility.yul\":3635:3648   */\n      gt\n        /* \"#utility.yul\":3632:3733   */\n      iszero\n      tag_97\n      jumpi\n        /* \"#utility.yul\":3721:3722   */\n      0x00\n        /* \"#utility.yul\":3712:3718   */\n      dup5\n        /* \"#utility.yul\":3707:3710   */\n      dup5\n        /* \"#utility.yul\":3703:3719   */\n      add\n        /* \"#utility.yul\":3696:3723   */\n      mstore\n        /* \"#utility.yul\":3632:3733   */\n    tag_97:\n        /* \"#utility.yul\":3481:3739   */\n      pop\n        /* \"#utility.yul\":3432:3739   */\n      pop\n      pop\n      pop\n      jump\t// out\n        /* \"#utility.yul\":3745:4065   */\n    tag_33:\n        /* \"#utility.yul\":3789:3795   */\n      0x00\n        /* \"#utility.yul\":3826:3827   */\n      0x02\n        /* \"#utility.yul\":3820:3824   */\n      dup3\n        /* \"#utility.yul\":3816:3828   */\n      div\n        /* \"#utility.yul\":3806:3828   */\n      swap1\n      pop\n        /* \"#utility.yul\":3873:3874   */\n      0x01\n        /* \"#utility.yul\":3867:3871   */\n      dup3\n        /* \"#utility.yul\":3863:3875   */\n      and\n        /* \"#utility.yul\":3894:3912   */\n      dup1\n        /* \"#utility.yul\":3884:3965   */\n      tag_99\n      jumpi\n        /* \"#utility.yul\":3950:3954   */\n      0x7f\n        /* \"#utility.yul\":3942:3948   */\n      dup3\n        /* \"#utility.yul\":3938:3955   */\n      and\n        /* \"#utility.yul\":3928:3955   */\n      swap2\n      pop\n        /* \"#utility.yul\":3884:3965   */\n    tag_99:\n        /* \"#utility.yul\":4012:4014   */\n      0x20\n        /* \"#utility.yul\":4004:4010   */\n      dup3\n        /* \"#utility.yul\":4001:4015   */\n      lt\n        /* \"#utility.yul\":3981:3999   */\n      dup2\n        /* \"#utility.yul\":3978:4016   */\n      eq\n        /* \"#utility.yul\":3975:4059   */\n      iszero\n      tag_100\n      jumpi\n        /* \"#utility.yul\":4031:4049   */\n      tag_101\n      tag_102\n      jump\t// in\n    tag_101:\n        /* \"#utility.yul\":3975:4059   */\n    tag_100:\n        /* \"#utility.yul\":3796:4065   */\n      pop\n        /* \"#utility.yul\":3745:4065   */\n      swap2\n      swap1\n      pop\n      jump\t// out\n        /* \"#utility.yul\":4071:4251   */\n    tag_86:\n        /* \"#utility.yul\":4119:4196   */\n      0x4e487b7100000000000000000000000000000000000000000000000000000000\n        /* \"#utility.yul\":4116:4117   */\n      0x00\n        /* \"#utility.yul\":4109:4197   */\n      mstore\n        /* \"#utility.yul\":4216:4220   */\n      0x11\n        /* \"#utility.yul\":4213:4214   */\n      0x04\n        /* \"#utility.yul\":4206:4221   */\n      mstore\n        /* \"#utility.yul\":4240:4244   */\n      0x24\n        /* \"#utility.yul\":4237:4238   */\n      0x00\n        /* \"#utility.yul\":4230:4245   */\n      revert\n        /* \"#utility.yul\":4257:4437   */\n    tag_102:\n        /* \"#utility.yul\":4305:4382   */\n      0x4e487b7100000000000000000000000000000000000000000000000000000000\n        /* \"#utility.yul\":4302:4303   */\n      0x00\n        /* \"#utility.yul\":4295:4383   */\n      mstore\n        /* \"#utility.yul\":4402:4406   */\n      0x22\n        /* \"#utility.yul\":4399:4400   */\n      0x04\n        /* \"#utility.yul\":4392:4407   */\n      mstore\n        /* \"#utility.yul\":4426:4430   */\n      0x24\n        /* \"#utility.yul\":4423:4424   */\n      0x00\n        /* \"#utility.yul\":4416:4431   */\n      revert\n        /* \"#utility.yul\":4443:4623   */\n    tag_25:\n        /* \"#utility.yul\":4491:4568   */\n      0x4e487b7100000000000000000000000000000000000000000000000000000000\n        /* \"#utility.yul\":4488:4489   */\n      0x00\n        /* \"#utility.yul\":4481:4569   */\n      mstore\n        /* \"#utility.yul\":4588:4592   */\n      0x32\n        /* \"#utility.yul\":4585:4586   */\n      0x04\n        /* \"#utility.yul\":4578:4593   */\n      mstore\n        /* \"#utility.yul\":4612:4616   */\n      0x24\n        /* \"#utility.yul\":4609:4610   */\n      0x00\n        /* \"#utility.yul\":4602:4617   */\n      revert\n        /* \"#utility.yul\":4752:4869   */\n    tag_50:\n        /* \"#utility.yul\":4861:4862   */\n      0x00\n        /* \"#utility.yul\":4858:4859   */\n      dup1\n        /* \"#utility.yul\":4851:4863   */\n      revert\n        /* \"#utility.yul\":4875:4977   */\n    tag_68:\n        /* \"#utility.yul\":4916:4922   */\n      0x00\n        /* \"#utility.yul\":4967:4969   */\n      0x1f\n        /* \"#utility.yul\":4963:4970   */\n      not\n        /* \"#utility.yul\":4958:4960   */\n      0x1f\n        /* \"#utility.yul\":4951:4956   */\n      dup4\n        /* \"#utility.yul\":4947:4961   */\n      add\n        /* \"#utility.yul\":4943:4971   */\n      and\n        /* \"#utility.yul\":4933:4971   */\n      swap1\n      pop\n        /* \"#utility.yul\":4875:4977   */\n      swap2\n      swap1\n      pop\n      jump\t// out\n        /* \"#utility.yul\":4983:5105   */\n    tag_42:\n        /* \"#utility.yul\":5056:5080   */\n      tag_111\n        /* \"#utility.yul\":5074:5079   */\n      dup2\n        /* \"#utility.yul\":5056:5080   */\n      tag_87\n      jump\t// in\n    tag_111:\n        /* \"#utility.yul\":5049:5054   */\n      dup2\n        /* \"#utility.yul\":5046:5081   */\n      eq\n        /* \"#utility.yul\":5036:5099   */\n      tag_112\n      jumpi\n        /* \"#utility.yul\":5095:5096   */\n      0x00\n        /* \"#utility.yul\":5092:5093   */\n      dup1\n        /* \"#utility.yul\":5085:5097   */\n      revert\n        /* \"#utility.yul\":5036:5099   */\n    tag_112:\n        /* \"#utility.yul\":4983:5105   */\n      pop\n      jump\t// out\n        /* \"#utility.yul\":5111:5233   */\n    tag_46:\n        /* \"#utility.yul\":5184:5208   */\n      tag_114\n        /* \"#utility.yul\":5202:5207   */\n      dup2\n        /* \"#utility.yul\":5184:5208   */\n      tag_72\n      jump\t// in\n    tag_114:\n        /* \"#utility.yul\":5177:5182   */\n      dup2\n        /* \"#utility.yul\":5174:5209   */\n      eq\n        /* \"#utility.yul\":5164:5227   */\n      tag_115\n      jumpi\n        /* \"#utility.yul\":5223:5224   */\n      0x00\n        /* \"#utility.yul\":5220:5221   */\n      dup1\n        /* \"#utility.yul\":5213:5225   */\n      revert\n        /* \"#utility.yul\":5164:5227   */\n    tag_115:\n        /* \"#utility.yul\":5111:5233   */\n      pop\n      jump\t// out\n\n    auxdata: 0xa26469706673582212201162ed3797af3cf1d742d77d90c4f9d73e523f1171528b6c54d470e31be4976164736f6c63430008070033\n}\n",
				"bytecode": {
					"linkReferences": {},
					"object": "60806040526040518060400160405280600781526020017f506f6c79676f6e000000000000000000000000000000000000000000000000008152506000908051906020019061004f929190610062565b5034801561005c57600080fd5b50610166565b82805461006e90610105565b90600052602060002090601f01602090048101928261009057600085556100d7565b82601f106100a957805160ff19168380011785556100d7565b828001600101855582156100d7579182015b828111156100d65782518255916020019190600101906100bb565b5b5090506100e491906100e8565b5090565b5b808211156101015760008160009055506001016100e9565b5090565b6000600282049050600182168061011d57607f821691505b6020821081141561013157610130610137565b5b50919050565b7f4e487b7100000000000000000000000000000000000000000000000000000000600052602260045260246000fd5b610560806101756000396000f3fe6080604052600436106100345760003560e01c806365efd0f514610039578063a990a7a714610069578063c6ea59b9146100a6575b600080fd5b610053600480360381019061004e919061022e565b6100d1565b604051610060919061032b565b60405180910390f35b34801561007557600080fd5b50610090600480360381019061008b9190610281565b61011c565b60405161009d919061032b565b60405180910390f35b3480156100b257600080fd5b506100bb610172565b6040516100c89190610309565b60405180910390f35b6000606082816000815181106100ea576100e96104b7565b5b6020026020010181815250508060008151811061010a576101096104b7565b5b60200260200101519150509392505050565b6000806040518060400160405280600181526020017f56000000000000000000000000000000000000000000000000000000000000008152509050600083856101659190610362565b9050809250505092915050565b60606000805461018190610427565b80601f01602080910402602001604051908101604052809291908181526020018280546101ad90610427565b80156101fa5780601f106101cf576101008083540402835291602001916101fa565b820191906000526020600020905b8154815290600101906020018083116101dd57829003601f168201915b5050505050905090565b600081359050610213816104fc565b92915050565b60008135905061022881610513565b92915050565b600080600060608486031215610247576102466104e6565b5b600061025586828701610204565b935050602061026686828701610204565b925050604061027786828701610219565b9150509250925092565b60008060408385031215610298576102976104e6565b5b60006102a685828601610219565b92505060206102b785828601610219565b9150509250929050565b60006102cc82610346565b6102d68185610351565b93506102e68185602086016103f4565b6102ef816104eb565b840191505092915050565b610303816103ea565b82525050565b6000602082019050818103600083015261032381846102c1565b905092915050565b600060208201905061034060008301846102fa565b92915050565b600081519050919050565b600082825260208201905092915050565b600061036d826103ea565b9150610378836103ea565b9250827fffffffffffffffffffffffffffffffffffffffffffffffffffffffffffffffff038211156103ad576103ac610459565b5b828201905092915050565b60006103c3826103ca565b9050919050565b600073ffffffffffffffffffffffffffffffffffffffff82169050919050565b6000819050919050565b60005b838110156104125780820151818401526020810190506103f7565b83811115610421576000848401525b50505050565b6000600282049050600182168061043f57607f821691505b6020821081141561045357610452610488565b5b50919050565b7f4e487b7100000000000000000000000000000000000000000000000000000000600052601160045260246000fd5b7f4e487b7100000000000000000000000000000000000000000000000000000000600052602260045260246000fd5b7f4e487b7100000000000000000000000000000000000000000000000000000000600052603260045260246000fd5b600080fd5b6000601f19601f8301169050919050565b610505816103b8565b811461051057600080fd5b50565b61051c816103ea565b811461052757600080fd5b5056fea26469706673582212201162ed3797af3cf1d742d77d90c4f9d73e523f1171528b6c54d470e31be4976164736f6c63430008070033",
					"opcodes": "PUSH1 0x80 PUSH1 0x40 MSTORE PUSH1 0x40 MLOAD DUP1 PUSH1 0x40 ADD PUSH1 0x40 MSTORE DUP1 PUSH1 0x7 DUP2 MSTORE PUSH1 0x20 ADD PUSH32 0x506F6C79676F6E00000000000000000000000000000000000000000000000000 DUP2 MSTORE POP PUSH1 0x0 SWAP1 DUP1 MLOAD SWAP1 PUSH1 0x20 ADD SWAP1 PUSH2 0x4F SWAP3 SWAP2 SWAP1 PUSH2 0x62 JUMP JUMPDEST POP CALLVALUE DUP1 ISZERO PUSH2 0x5C JUMPI PUSH1 0x0 DUP1 REVERT JUMPDEST POP PUSH2 0x166 JUMP JUMPDEST DUP3 DUP1 SLOAD PUSH2 0x6E SWAP1 PUSH2 0x105 JUMP JUMPDEST SWAP1 PUSH1 0x0 MSTORE PUSH1 0x20 PUSH1 0x0 KECCAK256 SWAP1 PUSH1 0x1F ADD PUSH1 0x20 SWAP1 DIV DUP2 ADD SWAP3 DUP3 PUSH2 0x90 JUMPI PUSH1 0x0 DUP6 SSTORE PUSH2 0xD7 JUMP JUMPDEST DUP3 PUSH1 0x1F LT PUSH2 0xA9 JUMPI DUP1 MLOAD PUSH1 0xFF NOT AND DUP4 DUP1 ADD OR DUP6 SSTORE PUSH2 0xD7 JUMP JUMPDEST DUP3 DUP1 ADD PUSH1 0x1 ADD DUP6 SSTORE DUP3 ISZERO PUSH2 0xD7 JUMPI SWAP2 DUP3 ADD JUMPDEST DUP3 DUP2 GT ISZERO PUSH2 0xD6 JUMPI DUP3 MLOAD DUP3 SSTORE SWAP2 PUSH1 0x20 ADD SWAP2 SWAP1 PUSH1 0x1 ADD SWAP1 PUSH2 0xBB JUMP JUMPDEST JUMPDEST POP SWAP1 POP PUSH2 0xE4 SWAP2 SWAP1 PUSH2 0xE8 JUMP JUMPDEST POP SWAP1 JUMP JUMPDEST JUMPDEST DUP1 DUP3 GT ISZERO PUSH2 0x101 JUMPI PUSH1 0x0 DUP2 PUSH1 0x0 SWAP1 SSTORE POP PUSH1 0x1 ADD PUSH2 0xE9 JUMP JUMPDEST POP SWAP1 JUMP JUMPDEST PUSH1 0x0 PUSH1 0x2 DUP3 DIV SWAP1 POP PUSH1 0x1 DUP3 AND DUP1 PUSH2 0x11D JUMPI PUSH1 0x7F DUP3 AND SWAP2 POP JUMPDEST PUSH1 0x20 DUP3 LT DUP2 EQ ISZERO PUSH2 0x131 JUMPI PUSH2 0x130 PUSH2 0x137 JUMP JUMPDEST JUMPDEST POP SWAP2 SWAP1 POP JUMP JUMPDEST PUSH32 0x4E487B7100000000000000000000000000000000000000000000000000000000 PUSH1 0x0 MSTORE PUSH1 0x22 PUSH1 0x4 MSTORE PUSH1 0x24 PUSH1 0x0 REVERT JUMPDEST PUSH2 0x560 DUP1 PUSH2 0x175 PUSH1 0x0 CODECOPY PUSH1 0x0 RETURN INVALID PUSH1 0x80 PUSH1 0x40 MSTORE PUSH1 0x4 CALLDATASIZE LT PUSH2 0x34 JUMPI PUSH1 0x0 CALLDATALOAD PUSH1 0xE0 SHR DUP1 PUSH4 0x65EFD0F5 EQ PUSH2 0x39 JUMPI DUP1 PUSH4 0xA990A7A7 EQ PUSH2 0x69 JUMPI DUP1 PUSH4 0xC6EA59B9 EQ PUSH2 0xA6 JUMPI JUMPDEST PUSH1 0x0 DUP1 REVERT JUMPDEST PUSH2 0x53 PUSH1 0x4 DUP1 CALLDATASIZE SUB DUP2 ADD SWAP1 PUSH2 0x4E SWAP2 SWAP1 PUSH2 0x22E JUMP JUMPDEST PUSH2 0xD1 JUMP JUMPDEST PUSH1 0x40 MLOAD PUSH2 0x60 SWAP2 SWAP1 PUSH2 0x32B JUMP JUMPDEST PUSH1 0x40 MLOAD DUP1 SWAP2 SUB SWAP1 RETURN JUMPDEST CALLVALUE DUP1 ISZERO PUSH2 0x75 JUMPI PUSH1 0x0 DUP1 REVERT JUMPDEST POP PUSH2 0x90 PUSH1 0x4 DUP1 CALLDATASIZE SUB DUP2 ADD SWAP1 PUSH2 0x8B SWAP2 SWAP1 PUSH2 0x281 JUMP JUMPDEST PUSH2 0x11C JUMP JUMPDEST PUSH1 0x40 MLOAD PUSH2 0x9D SWAP2 SWAP1 PUSH2 0x32B JUMP JUMPDEST PUSH1 0x40 MLOAD DUP1 SWAP2 SUB SWAP1 RETURN JUMPDEST CALLVALUE DUP1 ISZERO PUSH2 0xB2 JUMPI PUSH1 0x0 DUP1 REVERT JUMPDEST POP PUSH2 0xBB PUSH2 0x172 JUMP JUMPDEST PUSH1 0x40 MLOAD PUSH2 0xC8 SWAP2 SWAP1 PUSH2 0x309 JUMP JUMPDEST PUSH1 0x40 MLOAD DUP1 SWAP2 SUB SWAP1 RETURN JUMPDEST PUSH1 0x0 PUSH1 0x60 DUP3 DUP2 PUSH1 0x0 DUP2 MLOAD DUP2 LT PUSH2 0xEA JUMPI PUSH2 0xE9 PUSH2 0x4B7 JUMP JUMPDEST JUMPDEST PUSH1 0x20 MUL PUSH1 0x20 ADD ADD DUP2 DUP2 MSTORE POP POP DUP1 PUSH1 0x0 DUP2 MLOAD DUP2 LT PUSH2 0x10A JUMPI PUSH2 0x109 PUSH2 0x4B7 JUMP JUMPDEST JUMPDEST PUSH1 0x20 MUL PUSH1 0x20 ADD ADD MLOAD SWAP2 POP POP SWAP4 SWAP3 POP POP POP JUMP JUMPDEST PUSH1 0x0 DUP1 PUSH1 0x40 MLOAD DUP1 PUSH1 0x40 ADD PUSH1 0x40 MSTORE DUP1 PUSH1 0x1 DUP2 MSTORE PUSH1 0x20 ADD PUSH32 0x5600000000000000000000000000000000000000000000000000000000000000 DUP2 MSTORE POP SWAP1 POP PUSH1 0x0 DUP4 DUP6 PUSH2 0x165 SWAP2 SWAP1 PUSH2 0x362 JUMP JUMPDEST SWAP1 POP DUP1 SWAP3 POP POP POP SWAP3 SWAP2 POP POP JUMP JUMPDEST PUSH1 0x60 PUSH1 0x0 DUP1 SLOAD PUSH2 0x181 SWAP1 PUSH2 0x427 JUMP JUMPDEST DUP1 PUSH1 0x1F ADD PUSH1 0x20 DUP1 SWAP2 DIV MUL PUSH1 0x20 ADD PUSH1 0x40 MLOAD SWAP1 DUP2 ADD PUSH1 0x40 MSTORE DUP1 SWAP3 SWAP2 SWAP1 DUP2 DUP2 MSTORE PUSH1 0x20 ADD DUP3 DUP1 SLOAD PUSH2 0x1AD SWAP1 PUSH2 0x427 JUMP JUMPDEST DUP1 ISZERO PUSH2 0x1FA JUMPI DUP1 PUSH1 0x1F LT PUSH2 0x1CF JUMPI PUSH2 0x100 DUP1 DUP4 SLOAD DIV MUL DUP4 MSTORE SWAP2 PUSH1 0x20 ADD SWAP2 PUSH2 0x1FA JUMP JUMPDEST DUP3 ADD SWAP2 SWAP1 PUSH1 0x0 MSTORE PUSH1 0x20 PUSH1 0x0 KECCAK256 SWAP1 JUMPDEST DUP2 SLOAD DUP2 MSTORE SWAP1 PUSH1 0x1 ADD SWAP1 PUSH1 0x20 ADD DUP1 DUP4 GT PUSH2 0x1DD JUMPI DUP3 SWAP1 SUB PUSH1 0x1F AND DUP3 ADD SWAP2 JUMPDEST POP POP POP POP POP SWAP1 POP SWAP1 JUMP JUMPDEST PUSH1 0x0 DUP2 CALLDATALOAD SWAP1 POP PUSH2 0x213 DUP2 PUSH2 0x4FC JUMP JUMPDEST SWAP3 SWAP2 POP POP JUMP JUMPDEST PUSH1 0x0 DUP2 CALLDATALOAD SWAP1 POP PUSH2 0x228 DUP2 PUSH2 0x513 JUMP JUMPDEST SWAP3 SWAP2 POP POP JUMP JUMPDEST PUSH1 0x0 DUP1 PUSH1 0x0 PUSH1 0x60 DUP5 DUP7 SUB SLT ISZERO PUSH2 0x247 JUMPI PUSH2 0x246 PUSH2 0x4E6 JUMP JUMPDEST JUMPDEST PUSH1 0x0 PUSH2 0x255 DUP7 DUP3 DUP8 ADD PUSH2 0x204 JUMP JUMPDEST SWAP4 POP POP PUSH1 0x20 PUSH2 0x266 DUP7 DUP3 DUP8 ADD PUSH2 0x204 JUMP JUMPDEST SWAP3 POP POP PUSH1 0x40 PUSH2 0x277 DUP7 DUP3 DUP8 ADD PUSH2 0x219 JUMP JUMPDEST SWAP2 POP POP SWAP3 POP SWAP3 POP SWAP3 JUMP JUMPDEST PUSH1 0x0 DUP1 PUSH1 0x40 DUP4 DUP6 SUB SLT ISZERO PUSH2 0x298 JUMPI PUSH2 0x297 PUSH2 0x4E6 JUMP JUMPDEST JUMPDEST PUSH1 0x0 PUSH2 0x2A6 DUP6 DUP3 DUP7 ADD PUSH2 0x219 JUMP JUMPDEST SWAP3 POP POP PUSH1 0x20 PUSH2 0x2B7 DUP6 DUP3 DUP7 ADD PUSH2 0x219 JUMP JUMPDEST SWAP2 POP POP SWAP3 POP SWAP3 SWAP1 POP JUMP JUMPDEST PUSH1 0x0 PUSH2 0x2CC DUP3 PUSH2 0x346 JUMP JUMPDEST PUSH2 0x2D6 DUP2 DUP6 PUSH2 0x351 JUMP JUMPDEST SWAP4 POP PUSH2 0x2E6 DUP2 DUP6 PUSH1 0x20 DUP7 ADD PUSH2 0x3F4 JUMP JUMPDEST PUSH2 0x2EF DUP2 PUSH2 0x4EB JUMP JUMPDEST DUP5 ADD SWAP2 POP POP SWAP3 SWAP2 POP POP JUMP JUMPDEST PUSH2 0x303 DUP2 PUSH2 0x3EA JUMP JUMPDEST DUP3 MSTORE POP POP JUMP JUMPDEST PUSH1 0x0 PUSH1 0x20 DUP3 ADD SWAP1 POP DUP2 DUP2 SUB PUSH1 0x0 DUP4 ADD MSTORE PUSH2 0x323 DUP2 DUP5 PUSH2 0x2C1 JUMP JUMPDEST SWAP1 POP SWAP3 SWAP2 POP POP JUMP JUMPDEST PUSH1 0x0 PUSH1 0x20 DUP3 ADD SWAP1 POP PUSH2 0x340 PUSH1 0x0 DUP4 ADD DUP5 PUSH2 0x2FA JUMP JUMPDEST SWAP3 SWAP2 POP POP JUMP JUMPDEST PUSH1 0x0 DUP2 MLOAD SWAP1 POP SWAP2 SWAP1 POP JUMP JUMPDEST PUSH1 0x0 DUP3 DUP3 MSTORE PUSH1 0x20 DUP3 ADD SWAP1 POP SWAP3 SWAP2 POP POP JUMP JUMPDEST PUSH1 0x0 PUSH2 0x36D DUP3 PUSH2 0x3EA JUMP JUMPDEST SWAP2 POP PUSH2 0x378 DUP4 PUSH2 0x3EA JUMP JUMPDEST SWAP3 POP DUP3 PUSH32 0xFFFFFFFFFFFFFFFFFFFFFFFFFFFFFFFFFFFFFFFFFFFFFFFFFFFFFFFFFFFFFFFF SUB DUP3 GT ISZERO PUSH2 0x3AD JUMPI PUSH2 0x3AC PUSH2 0x459 JUMP JUMPDEST JUMPDEST DUP3 DUP3 ADD SWAP1 POP SWAP3 SWAP2 POP POP JUMP JUMPDEST PUSH1 0x0 PUSH2 0x3C3 DUP3 PUSH2 0x3CA JUMP JUMPDEST SWAP1 POP SWAP2 SWAP1 POP JUMP JUMPDEST PUSH1 0x0 PUSH20 0xFFFFFFFFFFFFFFFFFFFFFFFFFFFFFFFFFFFFFFFF DUP3 AND SWAP1 POP SWAP2 SWAP1 POP JUMP JUMPDEST PUSH1 0x0 DUP2 SWAP1 POP SWAP2 SWAP1 POP JUMP JUMPDEST PUSH1 0x0 JUMPDEST DUP4 DUP2 LT ISZERO PUSH2 0x412 JUMPI DUP1 DUP3 ADD MLOAD DUP2 DUP5 ADD MSTORE PUSH1 0x20 DUP2 ADD SWAP1 POP PUSH2 0x3F7 JUMP JUMPDEST DUP4 DUP2 GT ISZERO PUSH2 0x421 JUMPI PUSH1 0x0 DUP5 DUP5 ADD MSTORE JUMPDEST POP POP POP POP JUMP JUMPDEST PUSH1 0x0 PUSH1 0x2 DUP3 DIV SWAP1 POP PUSH1 0x1 DUP3 AND DUP1 PUSH2 0x43F JUMPI PUSH1 0x7F DUP3 AND SWAP2 POP JUMPDEST PUSH1 0x20 DUP3 LT DUP2 EQ ISZERO PUSH2 0x453 JUMPI PUSH2 0x452 PUSH2 0x488 JUMP JUMPDEST JUMPDEST POP SWAP2 SWAP1 POP JUMP JUMPDEST PUSH32 0x4E487B7100000000000000000000000000000000000000000000000000000000 PUSH1 0x0 MSTORE PUSH1 0x11 PUSH1 0x4 MSTORE PUSH1 0x24 PUSH1 0x0 REVERT JUMPDEST PUSH32 0x4E487B7100000000000000000000000000000000000000000000000000000000 PUSH1 0x0 MSTORE PUSH1 0x22 PUSH1 0x4 MSTORE PUSH1 0x24 PUSH1 0x0 REVERT JUMPDEST PUSH32 0x4E487B7100000000000000000000000000000000000000000000000000000000 PUSH1 0x0 MSTORE PUSH1 0x32 PUSH1 0x4 MSTORE PUSH1 0x24 PUSH1 0x0 REVERT JUMPDEST PUSH1 0x0 DUP1 REVERT JUMPDEST PUSH1 0x0 PUSH1 0x1F NOT PUSH1 0x1F DUP4 ADD AND SWAP1 POP SWAP2 SWAP1 POP JUMP JUMPDEST PUSH2 0x505 DUP2 PUSH2 0x3B8 JUMP JUMPDEST DUP2 EQ PUSH2 0x510 JUMPI PUSH1 0x0 DUP1 REVERT JUMPDEST POP JUMP JUMPDEST PUSH2 0x51C DUP2 PUSH2 0x3EA JUMP JUMPDEST DUP2 EQ PUSH2 0x527 JUMPI PUSH1 0x0 DUP1 REVERT JUMPDEST POP JUMP INVALID LOG2 PUSH5 0x6970667358 0x22 SLT KECCAK256 GT PUSH3 0xED3797 0xAF EXTCODECOPY CALL 0xD7 TIMESTAMP 0xD7 PUSH30 0x90C4F9D73E523F1171528B6C54D470E31BE4976164736F6C634300080700 CALLER "
				},
				"gasEstimates": {
					"creation": {
						"codeDepositCost": "275200",
						"executionCost": "infinite",
						"totalCost": "infinite"
					},
					"external": {
						"getPureName(uint256,uint256)": "infinite",
						"getname()": "infinite",
						"payOwner(address,address,uint256)": "infinite"
					}
				},
				"methodIdentifiers": {
					"getPureName(uint256,uint256)": "a990a7a7",
					"getname()": "c6ea59b9",
					"payOwner(address,address,uint256)": "65efd0f5"
				}
			},
			"storageLayout": {
				"storage": [
					{
						"astId": 4,
						"contract": "contracts/functions.sol:functionsContract",
						"label": "name",
						"offset": 0,
						"slot": "0",
						"type": "t_string_storage"
					}
				],
				"types": {
					"t_string_storage": {
						"encoding": "bytes",
						"label": "string",
						"numberOfBytes": "32"
					}
				}
			},
			"userdoc": {
				"kind": "user",
				"methods": {},
				"version": 1
			}
		}
	}
}