{
	"contracts/interfaces.sol": {
		"myown": {
			"abi": [
				{
					"inputs": [],
					"name": "a",
					"outputs": [
						{
							"internalType": "uint256",
							"name": "",
							"type": "uint256"
						}
					],
					"stateMutability": "view",
					"type": "function"
				},
				{
					"inputs": [],
					"name": "b",
					"outputs": [
						{
							"internalType": "uint256",
							"name": "",
							"type": "uint256"
						}
					],
					"stateMutability": "view",
					"type": "function"
				},
				{
					"inputs": [],
					"name": "call",
					"outputs": [],
					"stateMutability": "nonpayable",
					"type": "function"
				},
				{
					"inputs": [
						{
							"internalType": "uint256",
							"name": "_a",
							"type": "uint256"
						},
						{
							"internalType": "uint256",
							"name": "_b",
							"type": "uint256"
						}
					],
					"name": "setValue",
					"outputs": [],
					"stateMutability": "nonpayable",
					"type": "function"
				},
				{
					"inputs": [],
					"name": "sum",
					"outputs": [
						{
							"internalType": "uint256",
							"name": "",
							"type": "uint256"
						}
					],
					"stateMutability": "view",
					"type": "function"
				}
			],
			"devdoc": {
				"kind": "dev",
				"methods": {},
				"version": 1
			},
			"evm": {
				"assembly": "    /* \"contracts/interfaces.sol\":763:1109  contract myown{\r... */\n  mstore(0x40, 0x80)\n  callvalue\n  dup1\n  iszero\n  tag_1\n  jumpi\n  0x00\n  dup1\n  revert\ntag_1:\n  pop\n  dataSize(sub_0)\n  dup1\n  dataOffset(sub_0)\n  0x00\n  codecopy\n  0x00\n  return\nstop\n\nsub_0: assembly {\n        /* \"contracts/interfaces.sol\":763:1109  contract myown{\r... */\n      mstore(0x40, 0x80)\n      callvalue\n      dup1\n      iszero\n      tag_1\n      jumpi\n      0x00\n      dup1\n      revert\n    tag_1:\n      pop\n      jumpi(tag_2, lt(calldatasize, 0x04))\n      shr(0xe0, calldataload(0x00))\n      dup1\n      0x0dbe671f\n      eq\n      tag_3\n      jumpi\n      dup1\n      0x28b5e32b\n      eq\n      tag_4\n      jumpi\n      dup1\n      0x4df7e3d0\n      eq\n      tag_5\n      jumpi\n      dup1\n      0x7b8d56e3\n      eq\n      tag_6\n      jumpi\n      dup1\n      0x853255cc\n      eq\n      tag_7\n      jumpi\n    tag_2:\n      0x00\n      dup1\n      revert\n        /* \"contracts/interfaces.sol\":784:797  uint public a */\n    tag_3:\n      tag_8\n      tag_9\n      jump\t// in\n    tag_8:\n      mload(0x40)\n      tag_10\n      swap2\n      swap1\n      tag_11\n      jump\t// in\n    tag_10:\n      mload(0x40)\n      dup1\n      swap2\n      sub\n      swap1\n      return\n        /* \"contracts/interfaces.sol\":895:961  function call()\r... */\n    tag_4:\n      tag_12\n      tag_13\n      jump\t// in\n    tag_12:\n      stop\n        /* \"contracts/interfaces.sol\":804:817  uint public b */\n    tag_5:\n      tag_14\n      tag_15\n      jump\t// in\n    tag_14:\n      mload(0x40)\n      tag_16\n      swap2\n      swap1\n      tag_11\n      jump\t// in\n    tag_16:\n      mload(0x40)\n      dup1\n      swap2\n      sub\n      swap1\n      return\n        /* \"contracts/interfaces.sol\":969:1100  function setValue(uint _a,uint _b)\r... */\n    tag_6:\n      tag_17\n      0x04\n      dup1\n      calldatasize\n      sub\n      dup2\n      add\n      swap1\n      tag_18\n      swap2\n      swap1\n      tag_19\n      jump\t// in\n    tag_18:\n      tag_20\n      jump\t// in\n    tag_17:\n      stop\n        /* \"contracts/interfaces.sol\":824:839  uint public sum */\n    tag_7:\n      tag_21\n      tag_22\n      jump\t// in\n    tag_21:\n      mload(0x40)\n      tag_23\n      swap2\n      swap1\n      tag_11\n      jump\t// in\n    tag_23:\n      mload(0x40)\n      dup1\n      swap2\n      sub\n      swap1\n      return\n        /* \"contracts/interfaces.sol\":784:797  uint public a */\n    tag_9:\n      sload(0x00)\n      dup2\n      jump\t// out\n        /* \"contracts/interfaces.sol\":895:961  function call()\r... */\n    tag_13:\n        /* \"contracts/interfaces.sol\":939:953  new addition() */\n      mload(0x40)\n      tag_25\n      swap1\n      tag_26\n      jump\t// in\n    tag_25:\n      mload(0x40)\n      dup1\n      swap2\n      sub\n      swap1\n      0x00\n      create\n      dup1\n      iszero\n      dup1\n      iszero\n      tag_27\n      jumpi\n      returndatasize\n      0x00\n      dup1\n      returndatacopy\n      revert(0x00, returndatasize)\n    tag_27:\n      pop\n        /* \"contracts/interfaces.sol\":933:936  obj */\n      0x03\n      0x00\n        /* \"contracts/interfaces.sol\":933:953  obj = new addition() */\n      0x0100\n      exp\n      dup2\n      sload\n      dup2\n      0xffffffffffffffffffffffffffffffffffffffff\n      mul\n      not\n      and\n      swap1\n      dup4\n      0xffffffffffffffffffffffffffffffffffffffff\n      and\n      mul\n      or\n      swap1\n      sstore\n      pop\n        /* \"contracts/interfaces.sol\":895:961  function call()\r... */\n      jump\t// out\n        /* \"contracts/interfaces.sol\":804:817  uint public b */\n    tag_15:\n      sload(0x01)\n      dup2\n      jump\t// out\n        /* \"contracts/interfaces.sol\":969:1100  function setValue(uint _a,uint _b)\r... */\n    tag_20:\n        /* \"contracts/interfaces.sol\":1030:1032  _a */\n      dup2\n        /* \"contracts/interfaces.sol\":1026:1027  a */\n      0x00\n        /* \"contracts/interfaces.sol\":1026:1032  a = _a */\n      dup2\n      swap1\n      sstore\n      pop\n        /* \"contracts/interfaces.sol\":1047:1049  _b */\n      dup1\n        /* \"contracts/interfaces.sol\":1043:1044  b */\n      0x01\n        /* \"contracts/interfaces.sol\":1043:1049  b = _b */\n      dup2\n      swap1\n      sstore\n      pop\n        /* \"contracts/interfaces.sol\":1060:1063  obj */\n      0x03\n      0x00\n      swap1\n      sload\n      swap1\n      0x0100\n      exp\n      swap1\n      div\n      0xffffffffffffffffffffffffffffffffffffffff\n      and\n        /* \"contracts/interfaces.sol\":1060:1067  obj.add */\n      0xffffffffffffffffffffffffffffffffffffffff\n      and\n      0x771602f7\n        /* \"contracts/interfaces.sol\":1068:1069  a */\n      sload(0x00)\n        /* \"contracts/interfaces.sol\":1070:1071  b */\n      sload(0x01)\n        /* \"contracts/interfaces.sol\":1060:1072  obj.add(a,b) */\n      mload(0x40)\n      dup4\n      0xffffffff\n      and\n      0xe0\n      shl\n      dup2\n      mstore\n      0x04\n      add\n      tag_29\n      swap3\n      swap2\n      swap1\n      tag_30\n      jump\t// in\n    tag_29:\n      0x00\n      mload(0x40)\n      dup1\n      dup4\n      sub\n      dup2\n      0x00\n      dup8\n      dup1\n      extcodesize\n      iszero\n      dup1\n      iszero\n      tag_31\n      jumpi\n      0x00\n      dup1\n      revert\n    tag_31:\n      pop\n      gas\n      call\n      iszero\n      dup1\n      iszero\n      tag_33\n      jumpi\n      returndatasize\n      0x00\n      dup1\n      returndatacopy\n      revert(0x00, returndatasize)\n    tag_33:\n      pop\n      pop\n      pop\n      pop\n        /* \"contracts/interfaces.sol\":1083:1086  obj */\n      0x03\n      0x00\n      swap1\n      sload\n      swap1\n      0x0100\n      exp\n      swap1\n      div\n      0xffffffffffffffffffffffffffffffffffffffff\n      and\n        /* \"contracts/interfaces.sol\":1083:1090  obj.get */\n      0xffffffffffffffffffffffffffffffffffffffff\n      and\n      0x6d4ce63c\n        /* \"contracts/interfaces.sol\":1083:1092  obj.get() */\n      mload(0x40)\n      dup2\n      0xffffffff\n      and\n      0xe0\n      shl\n      dup2\n      mstore\n      0x04\n      add\n      0x20\n      mload(0x40)\n      dup1\n      dup4\n      sub\n      dup2\n      dup7\n      dup1\n      extcodesize\n      iszero\n      dup1\n      iszero\n      tag_34\n      jumpi\n      0x00\n      dup1\n      revert\n    tag_34:\n      pop\n      gas\n      staticcall\n      iszero\n      dup1\n      iszero\n      tag_36\n      jumpi\n      returndatasize\n      0x00\n      dup1\n      returndatacopy\n      revert(0x00, returndatasize)\n    tag_36:\n      pop\n      pop\n      pop\n      pop\n      mload(0x40)\n      returndatasize\n      not(0x1f)\n      0x1f\n      dup3\n      add\n      and\n      dup3\n      add\n      dup1\n      0x40\n      mstore\n      pop\n      dup2\n      add\n      swap1\n      tag_37\n      swap2\n      swap1\n      tag_38\n      jump\t// in\n    tag_37:\n      pop\n        /* \"contracts/interfaces.sol\":969:1100  function setValue(uint _a,uint _b)\r... */\n      pop\n      pop\n      jump\t// out\n        /* \"contracts/interfaces.sol\":824:839  uint public sum */\n    tag_22:\n      sload(0x02)\n      dup2\n      jump\t// out\n    tag_26:\n      dataSize(sub_0)\n      dup1\n      dataOffset(sub_0)\n      dup4\n      codecopy\n      add\n      swap1\n      jump\t// out\n        /* \"#utility.yul\":7:146   */\n    tag_40:\n        /* \"#utility.yul\":53:58   */\n      0x00\n        /* \"#utility.yul\":91:97   */\n      dup2\n        /* \"#utility.yul\":78:98   */\n      calldataload\n        /* \"#utility.yul\":69:98   */\n      swap1\n      pop\n        /* \"#utility.yul\":107:140   */\n      tag_42\n        /* \"#utility.yul\":134:139   */\n      dup2\n        /* \"#utility.yul\":107:140   */\n      tag_43\n      jump\t// in\n    tag_42:\n        /* \"#utility.yul\":7:146   */\n      swap3\n      swap2\n      pop\n      pop\n      jump\t// out\n        /* \"#utility.yul\":152:295   */\n    tag_44:\n        /* \"#utility.yul\":209:214   */\n      0x00\n        /* \"#utility.yul\":240:246   */\n      dup2\n        /* \"#utility.yul\":234:247   */\n      mload\n        /* \"#utility.yul\":225:247   */\n      swap1\n      pop\n        /* \"#utility.yul\":256:289   */\n      tag_46\n        /* \"#utility.yul\":283:288   */\n      dup2\n        /* \"#utility.yul\":256:289   */\n      tag_43\n      jump\t// in\n    tag_46:\n        /* \"#utility.yul\":152:295   */\n      swap3\n      swap2\n      pop\n      pop\n      jump\t// out\n        /* \"#utility.yul\":301:652   */\n    tag_38:\n        /* \"#utility.yul\":371:377   */\n      0x00\n        /* \"#utility.yul\":420:422   */\n      0x20\n        /* \"#utility.yul\":408:417   */\n      dup3\n        /* \"#utility.yul\":399:406   */\n      dup5\n        /* \"#utility.yul\":395:418   */\n      sub\n        /* \"#utility.yul\":391:423   */\n      slt\n        /* \"#utility.yul\":388:507   */\n      iszero\n      tag_48\n      jumpi\n        /* \"#utility.yul\":426:505   */\n      tag_49\n      tag_50\n      jump\t// in\n    tag_49:\n        /* \"#utility.yul\":388:507   */\n    tag_48:\n        /* \"#utility.yul\":546:547   */\n      0x00\n        /* \"#utility.yul\":571:635   */\n      tag_51\n        /* \"#utility.yul\":627:634   */\n      dup5\n        /* \"#utility.yul\":618:624   */\n      dup3\n        /* \"#utility.yul\":607:616   */\n      dup6\n        /* \"#utility.yul\":603:625   */\n      add\n        /* \"#utility.yul\":571:635   */\n      tag_44\n      jump\t// in\n    tag_51:\n        /* \"#utility.yul\":561:635   */\n      swap2\n      pop\n        /* \"#utility.yul\":517:645   */\n      pop\n        /* \"#utility.yul\":301:652   */\n      swap3\n      swap2\n      pop\n      pop\n      jump\t// out\n        /* \"#utility.yul\":658:1132   */\n    tag_19:\n        /* \"#utility.yul\":726:732   */\n      0x00\n        /* \"#utility.yul\":734:740   */\n      dup1\n        /* \"#utility.yul\":783:785   */\n      0x40\n        /* \"#utility.yul\":771:780   */\n      dup4\n        /* \"#utility.yul\":762:769   */\n      dup6\n        /* \"#utility.yul\":758:781   */\n      sub\n        /* \"#utility.yul\":754:786   */\n      slt\n        /* \"#utility.yul\":751:870   */\n      iszero\n      tag_53\n      jumpi\n        /* \"#utility.yul\":789:868   */\n      tag_54\n      tag_50\n      jump\t// in\n    tag_54:\n        /* \"#utility.yul\":751:870   */\n    tag_53:\n        /* \"#utility.yul\":909:910   */\n      0x00\n        /* \"#utility.yul\":934:987   */\n      tag_55\n        /* \"#utility.yul\":979:986   */\n      dup6\n        /* \"#utility.yul\":970:976   */\n      dup3\n        /* \"#utility.yul\":959:968   */\n      dup7\n        /* \"#utility.yul\":955:977   */\n      add\n        /* \"#utility.yul\":934:987   */\n      tag_40\n      jump\t// in\n    tag_55:\n        /* \"#utility.yul\":924:987   */\n      swap3\n      pop\n        /* \"#utility.yul\":880:997   */\n      pop\n        /* \"#utility.yul\":1036:1038   */\n      0x20\n        /* \"#utility.yul\":1062:1115   */\n      tag_56\n        /* \"#utility.yul\":1107:1114   */\n      dup6\n        /* \"#utility.yul\":1098:1104   */\n      dup3\n        /* \"#utility.yul\":1087:1096   */\n      dup7\n        /* \"#utility.yul\":1083:1105   */\n      add\n        /* \"#utility.yul\":1062:1115   */\n      tag_40\n      jump\t// in\n    tag_56:\n        /* \"#utility.yul\":1052:1115   */\n      swap2\n      pop\n        /* \"#utility.yul\":1007:1125   */\n      pop\n        /* \"#utility.yul\":658:1132   */\n      swap3\n      pop\n      swap3\n      swap1\n      pop\n      jump\t// out\n        /* \"#utility.yul\":1138:1256   */\n    tag_57:\n        /* \"#utility.yul\":1225:1249   */\n      tag_59\n        /* \"#utility.yul\":1243:1248   */\n      dup2\n        /* \"#utility.yul\":1225:1249   */\n      tag_60\n      jump\t// in\n    tag_59:\n        /* \"#utility.yul\":1220:1223   */\n      dup3\n        /* \"#utility.yul\":1213:1250   */\n      mstore\n        /* \"#utility.yul\":1138:1256   */\n      pop\n      pop\n      jump\t// out\n        /* \"#utility.yul\":1262:1484   */\n    tag_11:\n        /* \"#utility.yul\":1355:1359   */\n      0x00\n        /* \"#utility.yul\":1393:1395   */\n      0x20\n        /* \"#utility.yul\":1382:1391   */\n      dup3\n        /* \"#utility.yul\":1378:1396   */\n      add\n        /* \"#utility.yul\":1370:1396   */\n      swap1\n      pop\n        /* \"#utility.yul\":1406:1477   */\n      tag_62\n        /* \"#utility.yul\":1474:1475   */\n      0x00\n        /* \"#utility.yul\":1463:1472   */\n      dup4\n        /* \"#utility.yul\":1459:1476   */\n      add\n        /* \"#utility.yul\":1450:1456   */\n      dup5\n        /* \"#utility.yul\":1406:1477   */\n      tag_57\n      jump\t// in\n    tag_62:\n        /* \"#utility.yul\":1262:1484   */\n      swap3\n      swap2\n      pop\n      pop\n      jump\t// out\n        /* \"#utility.yul\":1490:1822   */\n    tag_30:\n        /* \"#utility.yul\":1611:1615   */\n      0x00\n        /* \"#utility.yul\":1649:1651   */\n      0x40\n        /* \"#utility.yul\":1638:1647   */\n      dup3\n        /* \"#utility.yul\":1634:1652   */\n      add\n        /* \"#utility.yul\":1626:1652   */\n      swap1\n      pop\n        /* \"#utility.yul\":1662:1733   */\n      tag_64\n        /* \"#utility.yul\":1730:1731   */\n      0x00\n        /* \"#utility.yul\":1719:1728   */\n      dup4\n        /* \"#utility.yul\":1715:1732   */\n      add\n        /* \"#utility.yul\":1706:1712   */\n      dup6\n        /* \"#utility.yul\":1662:1733   */\n      tag_57\n      jump\t// in\n    tag_64:\n        /* \"#utility.yul\":1743:1815   */\n      tag_65\n        /* \"#utility.yul\":1811:1813   */\n      0x20\n        /* \"#utility.yul\":1800:1809   */\n      dup4\n        /* \"#utility.yul\":1796:1814   */\n      add\n        /* \"#utility.yul\":1787:1793   */\n      dup5\n        /* \"#utility.yul\":1743:1815   */\n      tag_57\n      jump\t// in\n    tag_65:\n        /* \"#utility.yul\":1490:1822   */\n      swap4\n      swap3\n      pop\n      pop\n      pop\n      jump\t// out\n        /* \"#utility.yul\":1909:1986   */\n    tag_60:\n        /* \"#utility.yul\":1946:1953   */\n      0x00\n        /* \"#utility.yul\":1975:1980   */\n      dup2\n        /* \"#utility.yul\":1964:1980   */\n      swap1\n      pop\n        /* \"#utility.yul\":1909:1986   */\n      swap2\n      swap1\n      pop\n      jump\t// out\n        /* \"#utility.yul\":2115:2232   */\n    tag_50:\n        /* \"#utility.yul\":2224:2225   */\n      0x00\n        /* \"#utility.yul\":2221:2222   */\n      dup1\n        /* \"#utility.yul\":2214:2226   */\n      revert\n        /* \"#utility.yul\":2238:2360   */\n    tag_43:\n        /* \"#utility.yul\":2311:2335   */\n      tag_73\n        /* \"#utility.yul\":2329:2334   */\n      dup2\n        /* \"#utility.yul\":2311:2335   */\n      tag_60\n      jump\t// in\n    tag_73:\n        /* \"#utility.yul\":2304:2309   */\n      dup2\n        /* \"#utility.yul\":2301:2336   */\n      eq\n        /* \"#utility.yul\":2291:2354   */\n      tag_74\n      jumpi\n        /* \"#utility.yul\":2350:2351   */\n      0x00\n        /* \"#utility.yul\":2347:2348   */\n      dup1\n        /* \"#utility.yul\":2340:2352   */\n      revert\n        /* \"#utility.yul\":2291:2354   */\n    tag_74:\n        /* \"#utility.yul\":2238:2360   */\n      pop\n      jump\t// out\n    stop\n\n    sub_0: assembly {\n            /* \"contracts/interfaces.sol\":201:729  contract addition is IAddition{// Ethereum\r... */\n          mstore(0x40, 0x80)\n          callvalue\n          dup1\n          iszero\n          tag_1\n          jumpi\n          0x00\n          dup1\n          revert\n        tag_1:\n          pop\n          dataSize(sub_0)\n          dup1\n          dataOffset(sub_0)\n          0x00\n          codecopy\n          0x00\n          return\n        stop\n\n        sub_0: assembly {\n                /* \"contracts/interfaces.sol\":201:729  contract addition is IAddition{// Ethereum\r... */\n              mstore(0x40, 0x80)\n              callvalue\n              dup1\n              iszero\n              tag_1\n              jumpi\n              0x00\n              dup1\n              revert\n            tag_1:\n              pop\n              jumpi(tag_2, lt(calldatasize, 0x04))\n              shr(0xe0, calldataload(0x00))\n              dup1\n              0x6d4ce63c\n              eq\n              tag_3\n              jumpi\n              dup1\n              0x771602f7\n              eq\n              tag_4\n              jumpi\n            tag_2:\n              0x00\n              dup1\n              revert\n                /* \"contracts/interfaces.sol\":586:726  function get()\r... */\n            tag_3:\n              tag_5\n              tag_6\n              jump\t// in\n            tag_5:\n              mload(0x40)\n              tag_7\n              swap2\n              swap1\n              tag_8\n              jump\t// in\n            tag_7:\n              mload(0x40)\n              dup1\n              swap2\n              sub\n              swap1\n              return\n                /* \"contracts/interfaces.sol\":400:547  function add(uint _a,uint _b)\r... */\n            tag_4:\n              tag_9\n              0x04\n              dup1\n              calldatasize\n              sub\n              dup2\n              add\n              swap1\n              tag_10\n              swap2\n              swap1\n              tag_11\n              jump\t// in\n            tag_10:\n              tag_12\n              jump\t// in\n            tag_9:\n              stop\n                /* \"contracts/interfaces.sol\":586:726  function get()\r... */\n            tag_6:\n                /* \"contracts/interfaces.sol\":685:689  uint */\n              0x00\n                /* \"contracts/interfaces.sol\":708:711  sum */\n              sload(0x02)\n                /* \"contracts/interfaces.sol\":701:711  return sum */\n              swap1\n              pop\n                /* \"contracts/interfaces.sol\":586:726  function get()\r... */\n              swap1\n              jump\t// out\n                /* \"contracts/interfaces.sol\":400:547  function add(uint _a,uint _b)\r... */\n            tag_12:\n                /* \"contracts/interfaces.sol\":472:474  _a */\n              dup2\n                /* \"contracts/interfaces.sol\":468:469  a */\n              0x00\n                /* \"contracts/interfaces.sol\":468:474  a = _a */\n              dup2\n              swap1\n              sstore\n              pop\n                /* \"contracts/interfaces.sol\":489:491  _b */\n              dup1\n                /* \"contracts/interfaces.sol\":485:486  b */\n              0x01\n                /* \"contracts/interfaces.sol\":485:491  b = _b */\n              dup2\n              swap1\n              sstore\n              pop\n                /* \"contracts/interfaces.sol\":512:513  b */\n              sload(0x01)\n                /* \"contracts/interfaces.sol\":508:509  a */\n              sload(0x00)\n                /* \"contracts/interfaces.sol\":508:513  a + b */\n              tag_15\n              swap2\n              swap1\n              tag_16\n              jump\t// in\n            tag_15:\n                /* \"contracts/interfaces.sol\":502:505  sum */\n              0x02\n                /* \"contracts/interfaces.sol\":502:513  sum = a + b */\n              dup2\n              swap1\n              sstore\n              pop\n                /* \"contracts/interfaces.sol\":535:538  sum */\n              sload(0x02)\n                /* \"contracts/interfaces.sol\":529:539  added(sum) */\n              0xfa4ad06daedda563b35ba85075db862c5ce2be0d6e5deb50e76681fa41590c6e\n              mload(0x40)\n              mload(0x40)\n              dup1\n              swap2\n              sub\n              swap1\n              log2\n                /* \"contracts/interfaces.sol\":400:547  function add(uint _a,uint _b)\r... */\n              pop\n              pop\n              jump\t// out\n                /* \"#utility.yul\":7:146   */\n            tag_18:\n                /* \"#utility.yul\":53:58   */\n              0x00\n                /* \"#utility.yul\":91:97   */\n              dup2\n                /* \"#utility.yul\":78:98   */\n              calldataload\n                /* \"#utility.yul\":69:98   */\n              swap1\n              pop\n                /* \"#utility.yul\":107:140   */\n              tag_20\n                /* \"#utility.yul\":134:139   */\n              dup2\n                /* \"#utility.yul\":107:140   */\n              tag_21\n              jump\t// in\n            tag_20:\n                /* \"#utility.yul\":7:146   */\n              swap3\n              swap2\n              pop\n              pop\n              jump\t// out\n                /* \"#utility.yul\":152:626   */\n            tag_11:\n                /* \"#utility.yul\":220:226   */\n              0x00\n                /* \"#utility.yul\":228:234   */\n              dup1\n                /* \"#utility.yul\":277:279   */\n              0x40\n                /* \"#utility.yul\":265:274   */\n              dup4\n                /* \"#utility.yul\":256:263   */\n              dup6\n                /* \"#utility.yul\":252:275   */\n              sub\n                /* \"#utility.yul\":248:280   */\n              slt\n                /* \"#utility.yul\":245:364   */\n              iszero\n              tag_23\n              jumpi\n                /* \"#utility.yul\":283:362   */\n              tag_24\n              tag_25\n              jump\t// in\n            tag_24:\n                /* \"#utility.yul\":245:364   */\n            tag_23:\n                /* \"#utility.yul\":403:404   */\n              0x00\n                /* \"#utility.yul\":428:481   */\n              tag_26\n                /* \"#utility.yul\":473:480   */\n              dup6\n                /* \"#utility.yul\":464:470   */\n              dup3\n                /* \"#utility.yul\":453:462   */\n              dup7\n                /* \"#utility.yul\":449:471   */\n              add\n                /* \"#utility.yul\":428:481   */\n              tag_18\n              jump\t// in\n            tag_26:\n                /* \"#utility.yul\":418:481   */\n              swap3\n              pop\n                /* \"#utility.yul\":374:491   */\n              pop\n                /* \"#utility.yul\":530:532   */\n              0x20\n                /* \"#utility.yul\":556:609   */\n              tag_27\n                /* \"#utility.yul\":601:608   */\n              dup6\n                /* \"#utility.yul\":592:598   */\n              dup3\n                /* \"#utility.yul\":581:590   */\n              dup7\n                /* \"#utility.yul\":577:599   */\n              add\n                /* \"#utility.yul\":556:609   */\n              tag_18\n              jump\t// in\n            tag_27:\n                /* \"#utility.yul\":546:609   */\n              swap2\n              pop\n                /* \"#utility.yul\":501:619   */\n              pop\n                /* \"#utility.yul\":152:626   */\n              swap3\n              pop\n              swap3\n              swap1\n              pop\n              jump\t// out\n                /* \"#utility.yul\":632:750   */\n            tag_28:\n                /* \"#utility.yul\":719:743   */\n              tag_30\n                /* \"#utility.yul\":737:742   */\n              dup2\n                /* \"#utility.yul\":719:743   */\n              tag_31\n              jump\t// in\n            tag_30:\n                /* \"#utility.yul\":714:717   */\n              dup3\n                /* \"#utility.yul\":707:744   */\n              mstore\n                /* \"#utility.yul\":632:750   */\n              pop\n              pop\n              jump\t// out\n                /* \"#utility.yul\":756:978   */\n            tag_8:\n                /* \"#utility.yul\":849:853   */\n              0x00\n                /* \"#utility.yul\":887:889   */\n              0x20\n                /* \"#utility.yul\":876:885   */\n              dup3\n                /* \"#utility.yul\":872:890   */\n              add\n                /* \"#utility.yul\":864:890   */\n              swap1\n              pop\n                /* \"#utility.yul\":900:971   */\n              tag_33\n                /* \"#utility.yul\":968:969   */\n              0x00\n                /* \"#utility.yul\":957:966   */\n              dup4\n                /* \"#utility.yul\":953:970   */\n              add\n                /* \"#utility.yul\":944:950   */\n              dup5\n                /* \"#utility.yul\":900:971   */\n              tag_28\n              jump\t// in\n            tag_33:\n                /* \"#utility.yul\":756:978   */\n              swap3\n              swap2\n              pop\n              pop\n              jump\t// out\n                /* \"#utility.yul\":1065:1370   */\n            tag_16:\n                /* \"#utility.yul\":1105:1108   */\n              0x00\n                /* \"#utility.yul\":1124:1144   */\n              tag_37\n                /* \"#utility.yul\":1142:1143   */\n              dup3\n                /* \"#utility.yul\":1124:1144   */\n              tag_31\n              jump\t// in\n            tag_37:\n                /* \"#utility.yul\":1119:1144   */\n              swap2\n              pop\n                /* \"#utility.yul\":1158:1178   */\n              tag_38\n                /* \"#utility.yul\":1176:1177   */\n              dup4\n                /* \"#utility.yul\":1158:1178   */\n              tag_31\n              jump\t// in\n            tag_38:\n                /* \"#utility.yul\":1153:1178   */\n              swap3\n              pop\n                /* \"#utility.yul\":1312:1313   */\n              dup3\n                /* \"#utility.yul\":1244:1310   */\n              0xffffffffffffffffffffffffffffffffffffffffffffffffffffffffffffffff\n                /* \"#utility.yul\":1240:1314   */\n              sub\n                /* \"#utility.yul\":1237:1238   */\n              dup3\n                /* \"#utility.yul\":1234:1315   */\n              gt\n                /* \"#utility.yul\":1231:1338   */\n              iszero\n              tag_39\n              jumpi\n                /* \"#utility.yul\":1318:1336   */\n              tag_40\n              tag_41\n              jump\t// in\n            tag_40:\n                /* \"#utility.yul\":1231:1338   */\n            tag_39:\n                /* \"#utility.yul\":1362:1363   */\n              dup3\n                /* \"#utility.yul\":1359:1360   */\n              dup3\n                /* \"#utility.yul\":1355:1364   */\n              add\n                /* \"#utility.yul\":1348:1364   */\n              swap1\n              pop\n                /* \"#utility.yul\":1065:1370   */\n              swap3\n              swap2\n              pop\n              pop\n              jump\t// out\n                /* \"#utility.yul\":1376:1453   */\n            tag_31:\n                /* \"#utility.yul\":1413:1420   */\n              0x00\n                /* \"#utility.yul\":1442:1447   */\n              dup2\n                /* \"#utility.yul\":1431:1447   */\n              swap1\n              pop\n                /* \"#utility.yul\":1376:1453   */\n              swap2\n              swap1\n              pop\n              jump\t// out\n                /* \"#utility.yul\":1459:1639   */\n            tag_41:\n                /* \"#utility.yul\":1507:1584   */\n              0x4e487b7100000000000000000000000000000000000000000000000000000000\n                /* \"#utility.yul\":1504:1505   */\n              0x00\n                /* \"#utility.yul\":1497:1585   */\n              mstore\n                /* \"#utility.yul\":1604:1608   */\n              0x11\n                /* \"#utility.yul\":1601:1602   */\n              0x04\n                /* \"#utility.yul\":1594:1609   */\n              mstore\n                /* \"#utility.yul\":1628:1632   */\n              0x24\n                /* \"#utility.yul\":1625:1626   */\n              0x00\n                /* \"#utility.yul\":1618:1633   */\n              revert\n                /* \"#utility.yul\":1768:1885   */\n            tag_25:\n                /* \"#utility.yul\":1877:1878   */\n              0x00\n                /* \"#utility.yul\":1874:1875   */\n              dup1\n                /* \"#utility.yul\":1867:1879   */\n              revert\n                /* \"#utility.yul\":1891:2013   */\n            tag_21:\n                /* \"#utility.yul\":1964:1988   */\n              tag_48\n                /* \"#utility.yul\":1982:1987   */\n              dup2\n                /* \"#utility.yul\":1964:1988   */\n              tag_31\n              jump\t// in\n            tag_48:\n                /* \"#utility.yul\":1957:1962   */\n              dup2\n                /* \"#utility.yul\":1954:1989   */\n              eq\n                /* \"#utility.yul\":1944:2007   */\n              tag_49\n              jumpi\n                /* \"#utility.yul\":2003:2004   */\n              0x00\n                /* \"#utility.yul\":2000:2001   */\n              dup1\n                /* \"#utility.yul\":1993:2005   */\n              revert\n                /* \"#utility.yul\":1944:2007   */\n            tag_49:\n                /* \"#utility.yul\":1891:2013   */\n              pop\n              jump\t// out\n\n            auxdata: 0xa2646970667358221220c75beb8f588f4fc09714ad772e1a53a857a272d49124df25b779c39e200ec41664736f6c63430008070033\n        }\n    }\n\n    auxdata: 0xa2646970667358221220b9efa176bae1eeea2663dd8b911e1a9725fa575ee8b7442ae2658c2bca79db5a64736f6c63430008070033\n}\n",
				"bytecode": {
					"linkReferences": {},
					"object": "608060405234801561001057600080fd5b50610648806100206000396000f3fe608060405234801561001057600080fd5b50600436106100575760003560e01c80630dbe671f1461005c57806328b5e32b1461007a5780634df7e3d0146100845780637b8d56e3146100a2578063853255cc146100be575b600080fd5b6100646100dc565b6040516100719190610352565b60405180910390f35b6100826100e2565b005b61008c61014d565b6040516100999190610352565b60405180910390f35b6100bc60048036038101906100b79190610303565b610153565b005b6100c6610299565b6040516100d39190610352565b60405180910390f35b60005481565b6040516100ee9061029f565b604051809103906000f08015801561010a573d6000803e3d6000fd5b50600360006101000a81548173ffffffffffffffffffffffffffffffffffffffff021916908373ffffffffffffffffffffffffffffffffffffffff160217905550565b60015481565b8160008190555080600181905550600360009054906101000a900473ffffffffffffffffffffffffffffffffffffffff1673ffffffffffffffffffffffffffffffffffffffff1663771602f76000546001546040518363ffffffff1660e01b81526004016101c292919061036d565b600060405180830381600087803b1580156101dc57600080fd5b505af11580156101f0573d6000803e3d6000fd5b50505050600360009054906101000a900473ffffffffffffffffffffffffffffffffffffffff1673ffffffffffffffffffffffffffffffffffffffff16636d4ce63c6040518163ffffffff1660e01b815260040160206040518083038186803b15801561025c57600080fd5b505afa158015610270573d6000803e3d6000fd5b505050506040513d601f19601f8201168201806040525081019061029491906102d6565b505050565b60025481565b610256806103bd83390190565b6000813590506102bb816103a5565b92915050565b6000815190506102d0816103a5565b92915050565b6000602082840312156102ec576102eb6103a0565b5b60006102fa848285016102c1565b91505092915050565b6000806040838503121561031a576103196103a0565b5b6000610328858286016102ac565b9250506020610339858286016102ac565b9150509250929050565b61034c81610396565b82525050565b60006020820190506103676000830184610343565b92915050565b60006040820190506103826000830185610343565b61038f6020830184610343565b9392505050565b6000819050919050565b600080fd5b6103ae81610396565b81146103b957600080fd5b5056fe608060405234801561001057600080fd5b50610236806100206000396000f3fe608060405234801561001057600080fd5b50600436106100365760003560e01c80636d4ce63c1461003b578063771602f714610059575b600080fd5b610043610075565b604051610050919061013a565b60405180910390f35b610073600480360381019061006e91906100eb565b61007f565b005b6000600254905090565b816000819055508060018190555060015460005461009d9190610155565b6002819055506002547ffa4ad06daedda563b35ba85075db862c5ce2be0d6e5deb50e76681fa41590c6e60405160405180910390a25050565b6000813590506100e5816101e9565b92915050565b60008060408385031215610102576101016101e4565b5b6000610110858286016100d6565b9250506020610121858286016100d6565b9150509250929050565b610134816101ab565b82525050565b600060208201905061014f600083018461012b565b92915050565b6000610160826101ab565b915061016b836101ab565b9250827fffffffffffffffffffffffffffffffffffffffffffffffffffffffffffffffff038211156101a05761019f6101b5565b5b828201905092915050565b6000819050919050565b7f4e487b7100000000000000000000000000000000000000000000000000000000600052601160045260246000fd5b600080fd5b6101f2816101ab565b81146101fd57600080fd5b5056fea2646970667358221220c75beb8f588f4fc09714ad772e1a53a857a272d49124df25b779c39e200ec41664736f6c63430008070033a2646970667358221220b9efa176bae1eeea2663dd8b911e1a9725fa575ee8b7442ae2658c2bca79db5a64736f6c63430008070033",
					"opcodes": "PUSH1 0x80 PUSH1 0x40 MSTORE CALLVALUE DUP1 ISZERO PUSH2 0x10 JUMPI PUSH1 0x0 DUP1 REVERT JUMPDEST POP PUSH2 0x648 DUP1 PUSH2 0x20 PUSH1 0x0 CODECOPY PUSH1 0x0 RETURN INVALID PUSH1 0x80 PUSH1 0x40 MSTORE CALLVALUE DUP1 ISZERO PUSH2 0x10 JUMPI PUSH1 0x0 DUP1 REVERT JUMPDEST POP PUSH1 0x4 CALLDATASIZE LT PUSH2 0x57 JUMPI PUSH1 0x0 CALLDATALOAD PUSH1 0xE0 SHR DUP1 PUSH4 0xDBE671F EQ PUSH2 0x5C JUMPI DUP1 PUSH4 0x28B5E32B EQ PUSH2 0x7A JUMPI DUP1 PUSH4 0x4DF7E3D0 EQ PUSH2 0x84 JUMPI DUP1 PUSH4 0x7B8D56E3 EQ PUSH2 0xA2 JUMPI DUP1 PUSH4 0x853255CC EQ PUSH2 0xBE JUMPI JUMPDEST PUSH1 0x0 DUP1 REVERT JUMPDEST PUSH2 0x64 PUSH2 0xDC JUMP JUMPDEST PUSH1 0x40 MLOAD PUSH2 0x71 SWAP2 SWAP1 PUSH2 0x352 JUMP JUMPDEST PUSH1 0x40 MLOAD DUP1 SWAP2 SUB SWAP1 RETURN JUMPDEST PUSH2 0x82 PUSH2 0xE2 JUMP JUMPDEST STOP JUMPDEST PUSH2 0x8C PUSH2 0x14D JUMP JUMPDEST PUSH1 0x40 MLOAD PUSH2 0x99 SWAP2 SWAP1 PUSH2 0x352 JUMP JUMPDEST PUSH1 0x40 MLOAD DUP1 SWAP2 SUB SWAP1 RETURN JUMPDEST PUSH2 0xBC PUSH1 0x4 DUP1 CALLDATASIZE SUB DUP2 ADD SWAP1 PUSH2 0xB7 SWAP2 SWAP1 PUSH2 0x303 JUMP JUMPDEST PUSH2 0x153 JUMP JUMPDEST STOP JUMPDEST PUSH2 0xC6 PUSH2 0x299 JUMP JUMPDEST PUSH1 0x40 MLOAD PUSH2 0xD3 SWAP2 SWAP1 PUSH2 0x352 JUMP JUMPDEST PUSH1 0x40 MLOAD DUP1 SWAP2 SUB SWAP1 RETURN JUMPDEST PUSH1 0x0 SLOAD DUP2 JUMP JUMPDEST PUSH1 0x40 MLOAD PUSH2 0xEE SWAP1 PUSH2 0x29F JUMP JUMPDEST PUSH1 0x40 MLOAD DUP1 SWAP2 SUB SWAP1 PUSH1 0x0 CREATE DUP1 ISZERO DUP1 ISZERO PUSH2 0x10A JUMPI RETURNDATASIZE PUSH1 0x0 DUP1 RETURNDATACOPY RETURNDATASIZE PUSH1 0x0 REVERT JUMPDEST POP PUSH1 0x3 PUSH1 0x0 PUSH2 0x100 EXP DUP2 SLOAD DUP2 PUSH20 0xFFFFFFFFFFFFFFFFFFFFFFFFFFFFFFFFFFFFFFFF MUL NOT AND SWAP1 DUP4 PUSH20 0xFFFFFFFFFFFFFFFFFFFFFFFFFFFFFFFFFFFFFFFF AND MUL OR SWAP1 SSTORE POP JUMP JUMPDEST PUSH1 0x1 SLOAD DUP2 JUMP JUMPDEST DUP2 PUSH1 0x0 DUP2 SWAP1 SSTORE POP DUP1 PUSH1 0x1 DUP2 SWAP1 SSTORE POP PUSH1 0x3 PUSH1 0x0 SWAP1 SLOAD SWAP1 PUSH2 0x100 EXP SWAP1 DIV PUSH20 0xFFFFFFFFFFFFFFFFFFFFFFFFFFFFFFFFFFFFFFFF AND PUSH20 0xFFFFFFFFFFFFFFFFFFFFFFFFFFFFFFFFFFFFFFFF AND PUSH4 0x771602F7 PUSH1 0x0 SLOAD PUSH1 0x1 SLOAD PUSH1 0x40 MLOAD DUP4 PUSH4 0xFFFFFFFF AND PUSH1 0xE0 SHL DUP2 MSTORE PUSH1 0x4 ADD PUSH2 0x1C2 SWAP3 SWAP2 SWAP1 PUSH2 0x36D JUMP JUMPDEST PUSH1 0x0 PUSH1 0x40 MLOAD DUP1 DUP4 SUB DUP2 PUSH1 0x0 DUP8 DUP1 EXTCODESIZE ISZERO DUP1 ISZERO PUSH2 0x1DC JUMPI PUSH1 0x0 DUP1 REVERT JUMPDEST POP GAS CALL ISZERO DUP1 ISZERO PUSH2 0x1F0 JUMPI RETURNDATASIZE PUSH1 0x0 DUP1 RETURNDATACOPY RETURNDATASIZE PUSH1 0x0 REVERT JUMPDEST POP POP POP POP PUSH1 0x3 PUSH1 0x0 SWAP1 SLOAD SWAP1 PUSH2 0x100 EXP SWAP1 DIV PUSH20 0xFFFFFFFFFFFFFFFFFFFFFFFFFFFFFFFFFFFFFFFF AND PUSH20 0xFFFFFFFFFFFFFFFFFFFFFFFFFFFFFFFFFFFFFFFF AND PUSH4 0x6D4CE63C PUSH1 0x40 MLOAD DUP2 PUSH4 0xFFFFFFFF AND PUSH1 0xE0 SHL DUP2 MSTORE PUSH1 0x4 ADD PUSH1 0x20 PUSH1 0x40 MLOAD DUP1 DUP4 SUB DUP2 DUP7 DUP1 EXTCODESIZE ISZERO DUP1 ISZERO PUSH2 0x25C JUMPI PUSH1 0x0 DUP1 REVERT JUMPDEST POP GAS STATICCALL ISZERO DUP1 ISZERO PUSH2 0x270 JUMPI RETURNDATASIZE PUSH1 0x0 DUP1 RETURNDATACOPY RETURNDATASIZE PUSH1 0x0 REVERT JUMPDEST POP POP POP POP PUSH1 0x40 MLOAD RETURNDATASIZE PUSH1 0x1F NOT PUSH1 0x1F DUP3 ADD AND DUP3 ADD DUP1 PUSH1 0x40 MSTORE POP DUP2 ADD SWAP1 PUSH2 0x294 SWAP2 SWAP1 PUSH2 0x2D6 JUMP JUMPDEST POP POP POP JUMP JUMPDEST PUSH1 0x2 SLOAD DUP2 JUMP JUMPDEST PUSH2 0x256 DUP1 PUSH2 0x3BD DUP4 CODECOPY ADD SWAP1 JUMP JUMPDEST PUSH1 0x0 DUP2 CALLDATALOAD SWAP1 POP PUSH2 0x2BB DUP2 PUSH2 0x3A5 JUMP JUMPDEST SWAP3 SWAP2 POP POP JUMP JUMPDEST PUSH1 0x0 DUP2 MLOAD SWAP1 POP PUSH2 0x2D0 DUP2 PUSH2 0x3A5 JUMP JUMPDEST SWAP3 SWAP2 POP POP JUMP JUMPDEST PUSH1 0x0 PUSH1 0x20 DUP3 DUP5 SUB SLT ISZERO PUSH2 0x2EC JUMPI PUSH2 0x2EB PUSH2 0x3A0 JUMP JUMPDEST JUMPDEST PUSH1 0x0 PUSH2 0x2FA DUP5 DUP3 DUP6 ADD PUSH2 0x2C1 JUMP JUMPDEST SWAP2 POP POP SWAP3 SWAP2 POP POP JUMP JUMPDEST PUSH1 0x0 DUP1 PUSH1 0x40 DUP4 DUP6 SUB SLT ISZERO PUSH2 0x31A JUMPI PUSH2 0x319 PUSH2 0x3A0 JUMP JUMPDEST JUMPDEST PUSH1 0x0 PUSH2 0x328 DUP6 DUP3 DUP7 ADD PUSH2 0x2AC JUMP JUMPDEST SWAP3 POP POP PUSH1 0x20 PUSH2 0x339 DUP6 DUP3 DUP7 ADD PUSH2 0x2AC JUMP JUMPDEST SWAP2 POP POP SWAP3 POP SWAP3 SWAP1 POP JUMP JUMPDEST PUSH2 0x34C DUP2 PUSH2 0x396 JUMP JUMPDEST DUP3 MSTORE POP POP JUMP JUMPDEST PUSH1 0x0 PUSH1 0x20 DUP3 ADD SWAP1 POP PUSH2 0x367 PUSH1 0x0 DUP4 ADD DUP5 PUSH2 0x343 JUMP JUMPDEST SWAP3 SWAP2 POP POP JUMP JUMPDEST PUSH1 0x0 PUSH1 0x40 DUP3 ADD SWAP1 POP PUSH2 0x382 PUSH1 0x0 DUP4 ADD DUP6 PUSH2 0x343 JUMP JUMPDEST PUSH2 0x38F PUSH1 0x20 DUP4 ADD DUP5 PUSH2 0x343 JUMP JUMPDEST SWAP4 SWAP3 POP POP POP JUMP JUMPDEST PUSH1 0x0 DUP2 SWAP1 POP SWAP2 SWAP1 POP JUMP JUMPDEST PUSH1 0x0 DUP1 REVERT JUMPDEST PUSH2 0x3AE DUP2 PUSH2 0x396 JUMP JUMPDEST DUP2 EQ PUSH2 0x3B9 JUMPI PUSH1 0x0 DUP1 REVERT JUMPDEST POP JUMP INVALID PUSH1 0x80 PUSH1 0x40 MSTORE CALLVALUE DUP1 ISZERO PUSH2 0x10 JUMPI PUSH1 0x0 DUP1 REVERT JUMPDEST POP PUSH2 0x236 DUP1 PUSH2 0x20 PUSH1 0x0 CODECOPY PUSH1 0x0 RETURN INVALID PUSH1 0x80 PUSH1 0x40 MSTORE CALLVALUE DUP1 ISZERO PUSH2 0x10 JUMPI PUSH1 0x0 DUP1 REVERT JUMPDEST POP PUSH1 0x4 CALLDATASIZE LT PUSH2 0x36 JUMPI PUSH1 0x0 CALLDATALOAD PUSH1 0xE0 SHR DUP1 PUSH4 0x6D4CE63C EQ PUSH2 0x3B JUMPI DUP1 PUSH4 0x771602F7 EQ PUSH2 0x59 JUMPI JUMPDEST PUSH1 0x0 DUP1 REVERT JUMPDEST PUSH2 0x43 PUSH2 0x75 JUMP JUMPDEST PUSH1 0x40 MLOAD PUSH2 0x50 SWAP2 SWAP1 PUSH2 0x13A JUMP JUMPDEST PUSH1 0x40 MLOAD DUP1 SWAP2 SUB SWAP1 RETURN JUMPDEST PUSH2 0x73 PUSH1 0x4 DUP1 CALLDATASIZE SUB DUP2 ADD SWAP1 PUSH2 0x6E SWAP2 SWAP1 PUSH2 0xEB JUMP JUMPDEST PUSH2 0x7F JUMP JUMPDEST STOP JUMPDEST PUSH1 0x0 PUSH1 0x2 SLOAD SWAP1 POP SWAP1 JUMP JUMPDEST DUP2 PUSH1 0x0 DUP2 SWAP1 SSTORE POP DUP1 PUSH1 0x1 DUP2 SWAP1 SSTORE POP PUSH1 0x1 SLOAD PUSH1 0x0 SLOAD PUSH2 0x9D SWAP2 SWAP1 PUSH2 0x155 JUMP JUMPDEST PUSH1 0x2 DUP2 SWAP1 SSTORE POP PUSH1 0x2 SLOAD PUSH32 0xFA4AD06DAEDDA563B35BA85075DB862C5CE2BE0D6E5DEB50E76681FA41590C6E PUSH1 0x40 MLOAD PUSH1 0x40 MLOAD DUP1 SWAP2 SUB SWAP1 LOG2 POP POP JUMP JUMPDEST PUSH1 0x0 DUP2 CALLDATALOAD SWAP1 POP PUSH2 0xE5 DUP2 PUSH2 0x1E9 JUMP JUMPDEST SWAP3 SWAP2 POP POP JUMP JUMPDEST PUSH1 0x0 DUP1 PUSH1 0x40 DUP4 DUP6 SUB SLT ISZERO PUSH2 0x102 JUMPI PUSH2 0x101 PUSH2 0x1E4 JUMP JUMPDEST JUMPDEST PUSH1 0x0 PUSH2 0x110 DUP6 DUP3 DUP7 ADD PUSH2 0xD6 JUMP JUMPDEST SWAP3 POP POP PUSH1 0x20 PUSH2 0x121 DUP6 DUP3 DUP7 ADD PUSH2 0xD6 JUMP JUMPDEST SWAP2 POP POP SWAP3 POP SWAP3 SWAP1 POP JUMP JUMPDEST PUSH2 0x134 DUP2 PUSH2 0x1AB JUMP JUMPDEST DUP3 MSTORE POP POP JUMP JUMPDEST PUSH1 0x0 PUSH1 0x20 DUP3 ADD SWAP1 POP PUSH2 0x14F PUSH1 0x0 DUP4 ADD DUP5 PUSH2 0x12B JUMP JUMPDEST SWAP3 SWAP2 POP POP JUMP JUMPDEST PUSH1 0x0 PUSH2 0x160 DUP3 PUSH2 0x1AB JUMP JUMPDEST SWAP2 POP PUSH2 0x16B DUP4 PUSH2 0x1AB JUMP JUMPDEST SWAP3 POP DUP3 PUSH32 0xFFFFFFFFFFFFFFFFFFFFFFFFFFFFFFFFFFFFFFFFFFFFFFFFFFFFFFFFFFFFFFFF SUB DUP3 GT ISZERO PUSH2 0x1A0 JUMPI PUSH2 0x19F PUSH2 0x1B5 JUMP JUMPDEST JUMPDEST DUP3 DUP3 ADD SWAP1 POP SWAP3 SWAP2 POP POP JUMP JUMPDEST PUSH1 0x0 DUP2 SWAP1 POP SWAP2 SWAP1 POP JUMP JUMPDEST PUSH32 0x4E487B7100000000000000000000000000000000000000000000000000000000 PUSH1 0x0 MSTORE PUSH1 0x11 PUSH1 0x4 MSTORE PUSH1 0x24 PUSH1 0x0 REVERT JUMPDEST PUSH1 0x0 DUP1 REVERT JUMPDEST PUSH2 0x1F2 DUP2 PUSH2 0x1AB JUMP JUMPDEST DUP2 EQ PUSH2 0x1FD JUMPI PUSH1 0x0 DUP1 REVERT JUMPDEST POP JUMP INVALID LOG2 PUSH5 0x6970667358 0x22 SLT KECCAK256 0xC7 JUMPDEST 0xEB DUP16 PC DUP16 0x4F 0xC0 SWAP8 EQ 0xAD PUSH24 0x2E1A53A857A272D49124DF25B779C39E200EC41664736F6C PUSH4 0x43000807 STOP CALLER LOG2 PUSH5 0x6970667358 0x22 SLT KECCAK256 0xB9 0xEF LOG1 PUSH23 0xBAE1EEEA2663DD8B911E1A9725FA575EE8B7442AE2658C 0x2B 0xCA PUSH26 0xDB5A64736F6C6343000807003300000000000000000000000000 "
				},
				"gasEstimates": {
					"creation": {
						"codeDepositCost": "321600",
						"executionCost": "362",
						"totalCost": "321962"
					},
					"external": {
						"a()": "2407",
						"b()": "2451",
						"call()": "infinite",
						"setValue(uint256,uint256)": "infinite",
						"sum()": "2495"
					}
				},
				"methodIdentifiers": {
					"a()": "0dbe671f",
					"b()": "4df7e3d0",
					"call()": "28b5e32b",
					"setValue(uint256,uint256)": "7b8d56e3",
					"sum()": "853255cc"
				}
			},
			"storageLayout": {
				"storage": [
					{
						"astId": 65,
						"contract": "contracts/interfaces.sol:myown",
						"label": "a",
						"offset": 0,
						"slot": "0",
						"type": "t_uint256"
					},
					{
						"astId": 67,
						"contract": "contracts/interfaces.sol:myown",
						"label": "b",
						"offset": 0,
						"slot": "1",
						"type": "t_uint256"
					},
					{
						"astId": 69,
						"contract": "contracts/interfaces.sol:myown",
						"label": "sum",
						"offset": 0,
						"slot": "2",
						"type": "t_uint256"
					},
					{
						"astId": 72,
						"contract": "contracts/interfaces.sol:myown",
						"label": "obj",
						"offset": 0,
						"slot": "3",
						"type": "t_contract(IAddition)14"
					}
				],
				"types": {
					"t_contract(IAddition)14": {
						"encoding": "inplace",
						"label": "contract IAddition",
						"numberOfBytes": "20"
					},
					"t_uint256": {
						"encoding": "inplace",
						"label": "uint256",
						"numberOfBytes": "32"
					}
				}
			},
			"userdoc": {
				"kind": "user",
				"methods": {},
				"version": 1
			}
		}
	}
}