{
	"contracts/functions.sol": {
		"functionsContract": {
			"abi": [
				{
					"inputs": [
						{
							"internalType": "string",
							"name": "_newName",
							"type": "string"
						}
					],
					"name": "changeName",
					"outputs": [],
					"stateMutability": "nonpayable",
					"type": "function"
				},
				{
					"inputs": [
						{
							"internalType": "uint256",
							"name": "a",
							"type": "uint256"
						},
						{
							"internalType": "uint256",
							"name": "b",
							"type": "uint256"
						}
					],
					"name": "getPureName",
					"outputs": [
						{
							"internalType": "uint256",
							"name": "",
							"type": "uint256"
						}
					],
					"stateMutability": "pure",
					"type": "function"
				},
				{
					"inputs": [],
					"name": "getname",
					"outputs": [
						{
							"internalType": "string",
							"name": "",
							"type": "string"
						}
					],
					"stateMutability": "view",
					"type": "function"
				},
				{
					"inputs": [],
					"name": "owner",
					"outputs": [
						{
							"internalType": "address payable",
							"name": "",
							"type": "address"
						}
					],
					"stateMutability": "view",
					"type": "function"
				},
				{
					"inputs": [
						{
							"internalType": "address payable",
							"name": "_to",
							"type": "address"
						}
					],
					"name": "sendViaTransfer",
					"outputs": [],
					"stateMutability": "payable",
					"type": "function"
				}
			],
			"devdoc": {
				"kind": "dev",
				"methods": {},
				"version": 1
			},
			"evm": {
				"assembly": "    /* \"contracts/functions.sol\":64:1784  contract functionsContract{\r... */\n  mstore(0x40, 0x80)\n    /* \"contracts/functions.sol\":125:148  string name = \"Polygon\" */\n  mload(0x40)\n  dup1\n  0x40\n  add\n  0x40\n  mstore\n  dup1\n  0x07\n  dup2\n  mstore\n  0x20\n  add\n  0x506f6c79676f6e00000000000000000000000000000000000000000000000000\n  dup2\n  mstore\n  pop\n  0x00\n  swap1\n  dup1\n  mload\n  swap1\n  0x20\n  add\n  swap1\n  tag_1\n  swap3\n  swap2\n  swap1\n  tag_2\n  jump\t// in\ntag_1:\n  pop\n    /* \"contracts/functions.sol\":64:1784  contract functionsContract{\r... */\n  callvalue\n  dup1\n  iszero\n  tag_3\n  jumpi\n  0x00\n  dup1\n  revert\ntag_3:\n  pop\n  jump(tag_4)\ntag_2:\n  dup3\n  dup1\n  sload\n  tag_5\n  swap1\n  tag_6\n  jump\t// in\ntag_5:\n  swap1\n  0x00\n  mstore\n  keccak256(0x00, 0x20)\n  swap1\n  0x1f\n  add\n  0x20\n  swap1\n  div\n  dup2\n  add\n  swap3\n  dup3\n  tag_8\n  jumpi\n  0x00\n  dup6\n  sstore\n  jump(tag_7)\ntag_8:\n  dup3\n  0x1f\n  lt\n  tag_9\n  jumpi\n  dup1\n  mload\n  not(0xff)\n  and\n  dup4\n  dup1\n  add\n  or\n  dup6\n  sstore\n  jump(tag_7)\ntag_9:\n  dup3\n  dup1\n  add\n  0x01\n  add\n  dup6\n  sstore\n  dup3\n  iszero\n  tag_7\n  jumpi\n  swap2\n  dup3\n  add\ntag_10:\n  dup3\n  dup2\n  gt\n  iszero\n  tag_11\n  jumpi\n  dup3\n  mload\n  dup3\n  sstore\n  swap2\n  0x20\n  add\n  swap2\n  swap1\n  0x01\n  add\n  swap1\n  jump(tag_10)\ntag_11:\ntag_7:\n  pop\n  swap1\n  pop\n  tag_12\n  swap2\n  swap1\n  tag_13\n  jump\t// in\ntag_12:\n  pop\n  swap1\n  jump\t// out\ntag_13:\ntag_14:\n  dup1\n  dup3\n  gt\n  iszero\n  tag_15\n  jumpi\n  0x00\n  dup2\n  0x00\n  swap1\n  sstore\n  pop\n  0x01\n  add\n  jump(tag_14)\ntag_15:\n  pop\n  swap1\n  jump\t// out\n    /* \"#utility.yul\":7:327   */\ntag_6:\n    /* \"#utility.yul\":51:57   */\n  0x00\n    /* \"#utility.yul\":88:89   */\n  0x02\n    /* \"#utility.yul\":82:86   */\n  dup3\n    /* \"#utility.yul\":78:90   */\n  div\n    /* \"#utility.yul\":68:90   */\n  swap1\n  pop\n    /* \"#utility.yul\":135:136   */\n  0x01\n    /* \"#utility.yul\":129:133   */\n  dup3\n    /* \"#utility.yul\":125:137   */\n  and\n    /* \"#utility.yul\":156:174   */\n  dup1\n    /* \"#utility.yul\":146:227   */\n  tag_18\n  jumpi\n    /* \"#utility.yul\":212:216   */\n  0x7f\n    /* \"#utility.yul\":204:210   */\n  dup3\n    /* \"#utility.yul\":200:217   */\n  and\n    /* \"#utility.yul\":190:217   */\n  swap2\n  pop\n    /* \"#utility.yul\":146:227   */\ntag_18:\n    /* \"#utility.yul\":274:276   */\n  0x20\n    /* \"#utility.yul\":266:272   */\n  dup3\n    /* \"#utility.yul\":263:277   */\n  lt\n    /* \"#utility.yul\":243:261   */\n  dup2\n    /* \"#utility.yul\":240:278   */\n  eq\n    /* \"#utility.yul\":237:321   */\n  iszero\n  tag_19\n  jumpi\n    /* \"#utility.yul\":293:311   */\n  tag_20\n  tag_21\n  jump\t// in\ntag_20:\n    /* \"#utility.yul\":237:321   */\ntag_19:\n    /* \"#utility.yul\":58:327   */\n  pop\n    /* \"#utility.yul\":7:327   */\n  swap2\n  swap1\n  pop\n  jump\t// out\n    /* \"#utility.yul\":333:513   */\ntag_21:\n    /* \"#utility.yul\":381:458   */\n  0x4e487b7100000000000000000000000000000000000000000000000000000000\n    /* \"#utility.yul\":378:379   */\n  0x00\n    /* \"#utility.yul\":371:459   */\n  mstore\n    /* \"#utility.yul\":478:482   */\n  0x22\n    /* \"#utility.yul\":475:476   */\n  0x04\n    /* \"#utility.yul\":468:483   */\n  mstore\n    /* \"#utility.yul\":502:506   */\n  0x24\n    /* \"#utility.yul\":499:500   */\n  0x00\n    /* \"#utility.yul\":492:507   */\n  revert\n    /* \"contracts/functions.sol\":64:1784  contract functionsContract{\r... */\ntag_4:\n  dataSize(sub_0)\n  dup1\n  dataOffset(sub_0)\n  0x00\n  codecopy\n  0x00\n  return\nstop\n\nsub_0: assembly {\n        /* \"contracts/functions.sol\":64:1784  contract functionsContract{\r... */\n      mstore(0x40, 0x80)\n      jumpi(tag_1, lt(calldatasize, 0x04))\n      shr(0xe0, calldataload(0x00))\n      dup1\n      0x5353a2d8\n      eq\n      tag_2\n      jumpi\n      dup1\n      0x636e082b\n      eq\n      tag_3\n      jumpi\n      dup1\n      0x8da5cb5b\n      eq\n      tag_4\n      jumpi\n      dup1\n      0xa990a7a7\n      eq\n      tag_5\n      jumpi\n      dup1\n      0xc6ea59b9\n      eq\n      tag_6\n      jumpi\n    tag_1:\n      0x00\n      dup1\n      revert\n        /* \"contracts/functions.sol\":1684:1773  function changeName(string memory _newName)\r... */\n    tag_2:\n      callvalue\n      dup1\n      iszero\n      tag_7\n      jumpi\n      0x00\n      dup1\n      revert\n    tag_7:\n      pop\n      tag_8\n      0x04\n      dup1\n      calldatasize\n      sub\n      dup2\n      add\n      swap1\n      tag_9\n      swap2\n      swap1\n      tag_10\n      jump\t// in\n    tag_9:\n      tag_11\n      jump\t// in\n    tag_8:\n      stop\n        /* \"contracts/functions.sol\":1470:1643  function sendViaTransfer(address payable _to) public payable {\r... */\n    tag_3:\n      tag_12\n      0x04\n      dup1\n      calldatasize\n      sub\n      dup2\n      add\n      swap1\n      tag_13\n      swap2\n      swap1\n      tag_14\n      jump\t// in\n    tag_13:\n      tag_15\n      jump\t// in\n    tag_12:\n      stop\n        /* \"contracts/functions.sol\":1304:1332  address payable public owner */\n    tag_4:\n      callvalue\n      dup1\n      iszero\n      tag_16\n      jumpi\n      0x00\n      dup1\n      revert\n    tag_16:\n      pop\n      tag_17\n      tag_18\n      jump\t// in\n    tag_17:\n      mload(0x40)\n      tag_19\n      swap2\n      swap1\n      tag_20\n      jump\t// in\n    tag_19:\n      mload(0x40)\n      dup1\n      swap2\n      sub\n      swap1\n      return\n        /* \"contracts/functions.sol\":775:1005  function getPureName(uint a, uint b)\r... */\n    tag_5:\n      callvalue\n      dup1\n      iszero\n      tag_21\n      jumpi\n      0x00\n      dup1\n      revert\n    tag_21:\n      pop\n      tag_22\n      0x04\n      dup1\n      calldatasize\n      sub\n      dup2\n      add\n      swap1\n      tag_23\n      swap2\n      swap1\n      tag_24\n      jump\t// in\n    tag_23:\n      tag_25\n      jump\t// in\n    tag_22:\n      mload(0x40)\n      tag_26\n      swap2\n      swap1\n      tag_27\n      jump\t// in\n    tag_26:\n      mload(0x40)\n      dup1\n      swap2\n      sub\n      swap1\n      return\n        /* \"contracts/functions.sol\":586:714  function getname()\r... */\n    tag_6:\n      callvalue\n      dup1\n      iszero\n      tag_28\n      jumpi\n      0x00\n      dup1\n      revert\n    tag_28:\n      pop\n      tag_29\n      tag_30\n      jump\t// in\n    tag_29:\n      mload(0x40)\n      tag_31\n      swap2\n      swap1\n      tag_32\n      jump\t// in\n    tag_31:\n      mload(0x40)\n      dup1\n      swap2\n      sub\n      swap1\n      return\n        /* \"contracts/functions.sol\":1684:1773  function changeName(string memory _newName)\r... */\n    tag_11:\n        /* \"contracts/functions.sol\":1757:1765  _newName */\n      dup1\n        /* \"contracts/functions.sol\":1750:1754  name */\n      0x00\n        /* \"contracts/functions.sol\":1750:1765  name = _newName */\n      swap1\n      dup1\n      mload\n      swap1\n      0x20\n      add\n      swap1\n      tag_34\n      swap3\n      swap2\n      swap1\n      tag_35\n      jump\t// in\n    tag_34:\n      pop\n        /* \"contracts/functions.sol\":1684:1773  function changeName(string memory _newName)\r... */\n      pop\n      jump\t// out\n        /* \"contracts/functions.sol\":1470:1643  function sendViaTransfer(address payable _to) public payable {\r... */\n    tag_15:\n        /* \"contracts/functions.sol\":1612:1615  _to */\n      dup1\n        /* \"contracts/functions.sol\":1612:1624  _to.transfer */\n      0xffffffffffffffffffffffffffffffffffffffff\n      and\n        /* \"contracts/functions.sol\":1612:1635  _to.transfer(msg.value) */\n      0x08fc\n        /* \"contracts/functions.sol\":1625:1634  msg.value */\n      callvalue\n        /* \"contracts/functions.sol\":1612:1635  _to.transfer(msg.value) */\n      swap1\n      dup2\n      iszero\n      mul\n      swap1\n      mload(0x40)\n      0x00\n      mload(0x40)\n      dup1\n      dup4\n      sub\n      dup2\n      dup6\n      dup9\n      dup9\n      call\n      swap4\n      pop\n      pop\n      pop\n      pop\n      iszero\n      dup1\n      iszero\n      tag_38\n      jumpi\n      returndatasize\n      0x00\n      dup1\n      returndatacopy\n      revert(0x00, returndatasize)\n    tag_38:\n      pop\n        /* \"contracts/functions.sol\":1470:1643  function sendViaTransfer(address payable _to) public payable {\r... */\n      pop\n      jump\t// out\n        /* \"contracts/functions.sol\":1304:1332  address payable public owner */\n    tag_18:\n      0x01\n      0x00\n      swap1\n      sload\n      swap1\n      0x0100\n      exp\n      swap1\n      div\n      0xffffffffffffffffffffffffffffffffffffffff\n      and\n      dup2\n      jump\t// out\n        /* \"contracts/functions.sol\":775:1005  function getPureName(uint a, uint b)\r... */\n    tag_25:\n        /* \"contracts/functions.sol\":860:864  uint */\n      0x00\n        /* \"contracts/functions.sol\":876:894  string memory name */\n      dup1\n        /* \"contracts/functions.sol\":876:900  string memory name = \"V\" */\n      mload(0x40)\n      dup1\n      0x40\n      add\n      0x40\n      mstore\n      dup1\n      0x01\n      dup2\n      mstore\n      0x20\n      add\n      0x5600000000000000000000000000000000000000000000000000000000000000\n      dup2\n      mstore\n      pop\n      swap1\n      pop\n        /* \"contracts/functions.sol\":939:950  uint result */\n      0x00\n        /* \"contracts/functions.sol\":955:956  b */\n      dup4\n        /* \"contracts/functions.sol\":953:954  a */\n      dup6\n        /* \"contracts/functions.sol\":953:956  a+b */\n      tag_40\n      swap2\n      swap1\n      tag_41\n      jump\t// in\n    tag_40:\n        /* \"contracts/functions.sol\":939:956  uint result = a+b */\n      swap1\n      pop\n        /* \"contracts/functions.sol\":974:980  result */\n      dup1\n        /* \"contracts/functions.sol\":967:980  return result */\n      swap3\n      pop\n      pop\n      pop\n        /* \"contracts/functions.sol\":775:1005  function getPureName(uint a, uint b)\r... */\n      swap3\n      swap2\n      pop\n      pop\n      jump\t// out\n        /* \"contracts/functions.sol\":586:714  function getname()\r... */\n    tag_30:\n        /* \"contracts/functions.sol\":653:666  string memory */\n      0x60\n        /* \"contracts/functions.sol\":685:689  name */\n      0x00\n        /* \"contracts/functions.sol\":678:689  return name */\n      dup1\n      sload\n      tag_43\n      swap1\n      tag_44\n      jump\t// in\n    tag_43:\n      dup1\n      0x1f\n      add\n      0x20\n      dup1\n      swap2\n      div\n      mul\n      0x20\n      add\n      mload(0x40)\n      swap1\n      dup2\n      add\n      0x40\n      mstore\n      dup1\n      swap3\n      swap2\n      swap1\n      dup2\n      dup2\n      mstore\n      0x20\n      add\n      dup3\n      dup1\n      sload\n      tag_45\n      swap1\n      tag_44\n      jump\t// in\n    tag_45:\n      dup1\n      iszero\n      tag_46\n      jumpi\n      dup1\n      0x1f\n      lt\n      tag_47\n      jumpi\n      0x0100\n      dup1\n      dup4\n      sload\n      div\n      mul\n      dup4\n      mstore\n      swap2\n      0x20\n      add\n      swap2\n      jump(tag_46)\n    tag_47:\n      dup3\n      add\n      swap2\n      swap1\n      0x00\n      mstore\n      keccak256(0x00, 0x20)\n      swap1\n    tag_48:\n      dup2\n      sload\n      dup2\n      mstore\n      swap1\n      0x01\n      add\n      swap1\n      0x20\n      add\n      dup1\n      dup4\n      gt\n      tag_48\n      jumpi\n      dup3\n      swap1\n      sub\n      0x1f\n      and\n      dup3\n      add\n      swap2\n    tag_46:\n      pop\n      pop\n      pop\n      pop\n      pop\n      swap1\n      pop\n        /* \"contracts/functions.sol\":586:714  function getname()\r... */\n      swap1\n      jump\t// out\n    tag_35:\n      dup3\n      dup1\n      sload\n      tag_49\n      swap1\n      tag_44\n      jump\t// in\n    tag_49:\n      swap1\n      0x00\n      mstore\n      keccak256(0x00, 0x20)\n      swap1\n      0x1f\n      add\n      0x20\n      swap1\n      div\n      dup2\n      add\n      swap3\n      dup3\n      tag_51\n      jumpi\n      0x00\n      dup6\n      sstore\n      jump(tag_50)\n    tag_51:\n      dup3\n      0x1f\n      lt\n      tag_52\n      jumpi\n      dup1\n      mload\n      not(0xff)\n      and\n      dup4\n      dup1\n      add\n      or\n      dup6\n      sstore\n      jump(tag_50)\n    tag_52:\n      dup3\n      dup1\n      add\n      0x01\n      add\n      dup6\n      sstore\n      dup3\n      iszero\n      tag_50\n      jumpi\n      swap2\n      dup3\n      add\n    tag_53:\n      dup3\n      dup2\n      gt\n      iszero\n      tag_54\n      jumpi\n      dup3\n      mload\n      dup3\n      sstore\n      swap2\n      0x20\n      add\n      swap2\n      swap1\n      0x01\n      add\n      swap1\n      jump(tag_53)\n    tag_54:\n    tag_50:\n      pop\n      swap1\n      pop\n      tag_55\n      swap2\n      swap1\n      tag_56\n      jump\t// in\n    tag_55:\n      pop\n      swap1\n      jump\t// out\n    tag_56:\n    tag_57:\n      dup1\n      dup3\n      gt\n      iszero\n      tag_58\n      jumpi\n      0x00\n      dup2\n      0x00\n      swap1\n      sstore\n      pop\n      0x01\n      add\n      jump(tag_57)\n    tag_58:\n      pop\n      swap1\n      jump\t// out\n        /* \"#utility.yul\":7:419   */\n    tag_60:\n        /* \"#utility.yul\":85:90   */\n      0x00\n        /* \"#utility.yul\":110:176   */\n      tag_62\n        /* \"#utility.yul\":126:175   */\n      tag_63\n        /* \"#utility.yul\":168:174   */\n      dup5\n        /* \"#utility.yul\":126:175   */\n      tag_64\n      jump\t// in\n    tag_63:\n        /* \"#utility.yul\":110:176   */\n      tag_65\n      jump\t// in\n    tag_62:\n        /* \"#utility.yul\":101:176   */\n      swap1\n      pop\n        /* \"#utility.yul\":199:205   */\n      dup3\n        /* \"#utility.yul\":192:197   */\n      dup2\n        /* \"#utility.yul\":185:206   */\n      mstore\n        /* \"#utility.yul\":237:241   */\n      0x20\n        /* \"#utility.yul\":230:235   */\n      dup2\n        /* \"#utility.yul\":226:242   */\n      add\n        /* \"#utility.yul\":275:278   */\n      dup5\n        /* \"#utility.yul\":266:272   */\n      dup5\n        /* \"#utility.yul\":261:264   */\n      dup5\n        /* \"#utility.yul\":257:273   */\n      add\n        /* \"#utility.yul\":254:279   */\n      gt\n        /* \"#utility.yul\":251:363   */\n      iszero\n      tag_66\n      jumpi\n        /* \"#utility.yul\":282:361   */\n      tag_67\n      tag_68\n      jump\t// in\n    tag_67:\n        /* \"#utility.yul\":251:363   */\n    tag_66:\n        /* \"#utility.yul\":372:413   */\n      tag_69\n        /* \"#utility.yul\":406:412   */\n      dup5\n        /* \"#utility.yul\":401:404   */\n      dup3\n        /* \"#utility.yul\":396:399   */\n      dup6\n        /* \"#utility.yul\":372:413   */\n      tag_70\n      jump\t// in\n    tag_69:\n        /* \"#utility.yul\":91:419   */\n      pop\n        /* \"#utility.yul\":7:419   */\n      swap4\n      swap3\n      pop\n      pop\n      pop\n      jump\t// out\n        /* \"#utility.yul\":425:580   */\n    tag_71:\n        /* \"#utility.yul\":479:484   */\n      0x00\n        /* \"#utility.yul\":517:523   */\n      dup2\n        /* \"#utility.yul\":504:524   */\n      calldataload\n        /* \"#utility.yul\":495:524   */\n      swap1\n      pop\n        /* \"#utility.yul\":533:574   */\n      tag_73\n        /* \"#utility.yul\":568:573   */\n      dup2\n        /* \"#utility.yul\":533:574   */\n      tag_74\n      jump\t// in\n    tag_73:\n        /* \"#utility.yul\":425:580   */\n      swap3\n      swap2\n      pop\n      pop\n      jump\t// out\n        /* \"#utility.yul\":600:940   */\n    tag_75:\n        /* \"#utility.yul\":656:661   */\n      0x00\n        /* \"#utility.yul\":705:708   */\n      dup3\n        /* \"#utility.yul\":698:702   */\n      0x1f\n        /* \"#utility.yul\":690:696   */\n      dup4\n        /* \"#utility.yul\":686:703   */\n      add\n        /* \"#utility.yul\":682:709   */\n      slt\n        /* \"#utility.yul\":672:794   */\n      tag_77\n      jumpi\n        /* \"#utility.yul\":713:792   */\n      tag_78\n      tag_79\n      jump\t// in\n    tag_78:\n        /* \"#utility.yul\":672:794   */\n    tag_77:\n        /* \"#utility.yul\":830:836   */\n      dup2\n        /* \"#utility.yul\":817:837   */\n      calldataload\n        /* \"#utility.yul\":855:934   */\n      tag_80\n        /* \"#utility.yul\":930:933   */\n      dup5\n        /* \"#utility.yul\":922:928   */\n      dup3\n        /* \"#utility.yul\":915:919   */\n      0x20\n        /* \"#utility.yul\":907:913   */\n      dup7\n        /* \"#utility.yul\":903:920   */\n      add\n        /* \"#utility.yul\":855:934   */\n      tag_60\n      jump\t// in\n    tag_80:\n        /* \"#utility.yul\":846:934   */\n      swap2\n      pop\n        /* \"#utility.yul\":662:940   */\n      pop\n        /* \"#utility.yul\":600:940   */\n      swap3\n      swap2\n      pop\n      pop\n      jump\t// out\n        /* \"#utility.yul\":946:1085   */\n    tag_81:\n        /* \"#utility.yul\":992:997   */\n      0x00\n        /* \"#utility.yul\":1030:1036   */\n      dup2\n        /* \"#utility.yul\":1017:1037   */\n      calldataload\n        /* \"#utility.yul\":1008:1037   */\n      swap1\n      pop\n        /* \"#utility.yul\":1046:1079   */\n      tag_83\n        /* \"#utility.yul\":1073:1078   */\n      dup2\n        /* \"#utility.yul\":1046:1079   */\n      tag_84\n      jump\t// in\n    tag_83:\n        /* \"#utility.yul\":946:1085   */\n      swap3\n      swap2\n      pop\n      pop\n      jump\t// out\n        /* \"#utility.yul\":1091:1436   */\n    tag_14:\n        /* \"#utility.yul\":1158:1164   */\n      0x00\n        /* \"#utility.yul\":1207:1209   */\n      0x20\n        /* \"#utility.yul\":1195:1204   */\n      dup3\n        /* \"#utility.yul\":1186:1193   */\n      dup5\n        /* \"#utility.yul\":1182:1205   */\n      sub\n        /* \"#utility.yul\":1178:1210   */\n      slt\n        /* \"#utility.yul\":1175:1294   */\n      iszero\n      tag_86\n      jumpi\n        /* \"#utility.yul\":1213:1292   */\n      tag_87\n      tag_88\n      jump\t// in\n    tag_87:\n        /* \"#utility.yul\":1175:1294   */\n    tag_86:\n        /* \"#utility.yul\":1333:1334   */\n      0x00\n        /* \"#utility.yul\":1358:1419   */\n      tag_89\n        /* \"#utility.yul\":1411:1418   */\n      dup5\n        /* \"#utility.yul\":1402:1408   */\n      dup3\n        /* \"#utility.yul\":1391:1400   */\n      dup6\n        /* \"#utility.yul\":1387:1409   */\n      add\n        /* \"#utility.yul\":1358:1419   */\n      tag_71\n      jump\t// in\n    tag_89:\n        /* \"#utility.yul\":1348:1419   */\n      swap2\n      pop\n        /* \"#utility.yul\":1304:1429   */\n      pop\n        /* \"#utility.yul\":1091:1436   */\n      swap3\n      swap2\n      pop\n      pop\n      jump\t// out\n        /* \"#utility.yul\":1442:1951   */\n    tag_10:\n        /* \"#utility.yul\":1511:1517   */\n      0x00\n        /* \"#utility.yul\":1560:1562   */\n      0x20\n        /* \"#utility.yul\":1548:1557   */\n      dup3\n        /* \"#utility.yul\":1539:1546   */\n      dup5\n        /* \"#utility.yul\":1535:1558   */\n      sub\n        /* \"#utility.yul\":1531:1563   */\n      slt\n        /* \"#utility.yul\":1528:1647   */\n      iszero\n      tag_91\n      jumpi\n        /* \"#utility.yul\":1566:1645   */\n      tag_92\n      tag_88\n      jump\t// in\n    tag_92:\n        /* \"#utility.yul\":1528:1647   */\n    tag_91:\n        /* \"#utility.yul\":1714:1715   */\n      0x00\n        /* \"#utility.yul\":1703:1712   */\n      dup3\n        /* \"#utility.yul\":1699:1716   */\n      add\n        /* \"#utility.yul\":1686:1717   */\n      calldataload\n        /* \"#utility.yul\":1744:1762   */\n      0xffffffffffffffff\n        /* \"#utility.yul\":1736:1742   */\n      dup2\n        /* \"#utility.yul\":1733:1763   */\n      gt\n        /* \"#utility.yul\":1730:1847   */\n      iszero\n      tag_93\n      jumpi\n        /* \"#utility.yul\":1766:1845   */\n      tag_94\n      tag_95\n      jump\t// in\n    tag_94:\n        /* \"#utility.yul\":1730:1847   */\n    tag_93:\n        /* \"#utility.yul\":1871:1934   */\n      tag_96\n        /* \"#utility.yul\":1926:1933   */\n      dup5\n        /* \"#utility.yul\":1917:1923   */\n      dup3\n        /* \"#utility.yul\":1906:1915   */\n      dup6\n        /* \"#utility.yul\":1902:1924   */\n      add\n        /* \"#utility.yul\":1871:1934   */\n      tag_75\n      jump\t// in\n    tag_96:\n        /* \"#utility.yul\":1861:1934   */\n      swap2\n      pop\n        /* \"#utility.yul\":1657:1944   */\n      pop\n        /* \"#utility.yul\":1442:1951   */\n      swap3\n      swap2\n      pop\n      pop\n      jump\t// out\n        /* \"#utility.yul\":1957:2431   */\n    tag_24:\n        /* \"#utility.yul\":2025:2031   */\n      0x00\n        /* \"#utility.yul\":2033:2039   */\n      dup1\n        /* \"#utility.yul\":2082:2084   */\n      0x40\n        /* \"#utility.yul\":2070:2079   */\n      dup4\n        /* \"#utility.yul\":2061:2068   */\n      dup6\n        /* \"#utility.yul\":2057:2080   */\n      sub\n        /* \"#utility.yul\":2053:2085   */\n      slt\n        /* \"#utility.yul\":2050:2169   */\n      iszero\n      tag_98\n      jumpi\n        /* \"#utility.yul\":2088:2167   */\n      tag_99\n      tag_88\n      jump\t// in\n    tag_99:\n        /* \"#utility.yul\":2050:2169   */\n    tag_98:\n        /* \"#utility.yul\":2208:2209   */\n      0x00\n        /* \"#utility.yul\":2233:2286   */\n      tag_100\n        /* \"#utility.yul\":2278:2285   */\n      dup6\n        /* \"#utility.yul\":2269:2275   */\n      dup3\n        /* \"#utility.yul\":2258:2267   */\n      dup7\n        /* \"#utility.yul\":2254:2276   */\n      add\n        /* \"#utility.yul\":2233:2286   */\n      tag_81\n      jump\t// in\n    tag_100:\n        /* \"#utility.yul\":2223:2286   */\n      swap3\n      pop\n        /* \"#utility.yul\":2179:2296   */\n      pop\n        /* \"#utility.yul\":2335:2337   */\n      0x20\n        /* \"#utility.yul\":2361:2414   */\n      tag_101\n        /* \"#utility.yul\":2406:2413   */\n      dup6\n        /* \"#utility.yul\":2397:2403   */\n      dup3\n        /* \"#utility.yul\":2386:2395   */\n      dup7\n        /* \"#utility.yul\":2382:2404   */\n      add\n        /* \"#utility.yul\":2361:2414   */\n      tag_81\n      jump\t// in\n    tag_101:\n        /* \"#utility.yul\":2351:2414   */\n      swap2\n      pop\n        /* \"#utility.yul\":2306:2424   */\n      pop\n        /* \"#utility.yul\":1957:2431   */\n      swap3\n      pop\n      swap3\n      swap1\n      pop\n      jump\t// out\n        /* \"#utility.yul\":2437:2579   */\n    tag_102:\n        /* \"#utility.yul\":2540:2572   */\n      tag_104\n        /* \"#utility.yul\":2566:2571   */\n      dup2\n        /* \"#utility.yul\":2540:2572   */\n      tag_105\n      jump\t// in\n    tag_104:\n        /* \"#utility.yul\":2535:2538   */\n      dup3\n        /* \"#utility.yul\":2528:2573   */\n      mstore\n        /* \"#utility.yul\":2437:2579   */\n      pop\n      pop\n      jump\t// out\n        /* \"#utility.yul\":2585:2949   */\n    tag_106:\n        /* \"#utility.yul\":2673:2676   */\n      0x00\n        /* \"#utility.yul\":2701:2740   */\n      tag_108\n        /* \"#utility.yul\":2734:2739   */\n      dup3\n        /* \"#utility.yul\":2701:2740   */\n      tag_109\n      jump\t// in\n    tag_108:\n        /* \"#utility.yul\":2756:2827   */\n      tag_110\n        /* \"#utility.yul\":2820:2826   */\n      dup2\n        /* \"#utility.yul\":2815:2818   */\n      dup6\n        /* \"#utility.yul\":2756:2827   */\n      tag_111\n      jump\t// in\n    tag_110:\n        /* \"#utility.yul\":2749:2827   */\n      swap4\n      pop\n        /* \"#utility.yul\":2836:2888   */\n      tag_112\n        /* \"#utility.yul\":2881:2887   */\n      dup2\n        /* \"#utility.yul\":2876:2879   */\n      dup6\n        /* \"#utility.yul\":2869:2873   */\n      0x20\n        /* \"#utility.yul\":2862:2867   */\n      dup7\n        /* \"#utility.yul\":2858:2874   */\n      add\n        /* \"#utility.yul\":2836:2888   */\n      tag_113\n      jump\t// in\n    tag_112:\n        /* \"#utility.yul\":2913:2942   */\n      tag_114\n        /* \"#utility.yul\":2935:2941   */\n      dup2\n        /* \"#utility.yul\":2913:2942   */\n      tag_115\n      jump\t// in\n    tag_114:\n        /* \"#utility.yul\":2908:2911   */\n      dup5\n        /* \"#utility.yul\":2904:2943   */\n      add\n        /* \"#utility.yul\":2897:2943   */\n      swap2\n      pop\n        /* \"#utility.yul\":2677:2949   */\n      pop\n        /* \"#utility.yul\":2585:2949   */\n      swap3\n      swap2\n      pop\n      pop\n      jump\t// out\n        /* \"#utility.yul\":2955:3073   */\n    tag_116:\n        /* \"#utility.yul\":3042:3066   */\n      tag_118\n        /* \"#utility.yul\":3060:3065   */\n      dup2\n        /* \"#utility.yul\":3042:3066   */\n      tag_119\n      jump\t// in\n    tag_118:\n        /* \"#utility.yul\":3037:3040   */\n      dup3\n        /* \"#utility.yul\":3030:3067   */\n      mstore\n        /* \"#utility.yul\":2955:3073   */\n      pop\n      pop\n      jump\t// out\n        /* \"#utility.yul\":3079:3333   */\n    tag_20:\n        /* \"#utility.yul\":3188:3192   */\n      0x00\n        /* \"#utility.yul\":3226:3228   */\n      0x20\n        /* \"#utility.yul\":3215:3224   */\n      dup3\n        /* \"#utility.yul\":3211:3229   */\n      add\n        /* \"#utility.yul\":3203:3229   */\n      swap1\n      pop\n        /* \"#utility.yul\":3239:3326   */\n      tag_121\n        /* \"#utility.yul\":3323:3324   */\n      0x00\n        /* \"#utility.yul\":3312:3321   */\n      dup4\n        /* \"#utility.yul\":3308:3325   */\n      add\n        /* \"#utility.yul\":3299:3305   */\n      dup5\n        /* \"#utility.yul\":3239:3326   */\n      tag_102\n      jump\t// in\n    tag_121:\n        /* \"#utility.yul\":3079:3333   */\n      swap3\n      swap2\n      pop\n      pop\n      jump\t// out\n        /* \"#utility.yul\":3339:3652   */\n    tag_32:\n        /* \"#utility.yul\":3452:3456   */\n      0x00\n        /* \"#utility.yul\":3490:3492   */\n      0x20\n        /* \"#utility.yul\":3479:3488   */\n      dup3\n        /* \"#utility.yul\":3475:3493   */\n      add\n        /* \"#utility.yul\":3467:3493   */\n      swap1\n      pop\n        /* \"#utility.yul\":3539:3548   */\n      dup2\n        /* \"#utility.yul\":3533:3537   */\n      dup2\n        /* \"#utility.yul\":3529:3549   */\n      sub\n        /* \"#utility.yul\":3525:3526   */\n      0x00\n        /* \"#utility.yul\":3514:3523   */\n      dup4\n        /* \"#utility.yul\":3510:3527   */\n      add\n        /* \"#utility.yul\":3503:3550   */\n      mstore\n        /* \"#utility.yul\":3567:3645   */\n      tag_123\n        /* \"#utility.yul\":3640:3644   */\n      dup2\n        /* \"#utility.yul\":3631:3637   */\n      dup5\n        /* \"#utility.yul\":3567:3645   */\n      tag_106\n      jump\t// in\n    tag_123:\n        /* \"#utility.yul\":3559:3645   */\n      swap1\n      pop\n        /* \"#utility.yul\":3339:3652   */\n      swap3\n      swap2\n      pop\n      pop\n      jump\t// out\n        /* \"#utility.yul\":3658:3880   */\n    tag_27:\n        /* \"#utility.yul\":3751:3755   */\n      0x00\n        /* \"#utility.yul\":3789:3791   */\n      0x20\n        /* \"#utility.yul\":3778:3787   */\n      dup3\n        /* \"#utility.yul\":3774:3792   */\n      add\n        /* \"#utility.yul\":3766:3792   */\n      swap1\n      pop\n        /* \"#utility.yul\":3802:3873   */\n      tag_125\n        /* \"#utility.yul\":3870:3871   */\n      0x00\n        /* \"#utility.yul\":3859:3868   */\n      dup4\n        /* \"#utility.yul\":3855:3872   */\n      add\n        /* \"#utility.yul\":3846:3852   */\n      dup5\n        /* \"#utility.yul\":3802:3873   */\n      tag_116\n      jump\t// in\n    tag_125:\n        /* \"#utility.yul\":3658:3880   */\n      swap3\n      swap2\n      pop\n      pop\n      jump\t// out\n        /* \"#utility.yul\":3886:4015   */\n    tag_65:\n        /* \"#utility.yul\":3920:3926   */\n      0x00\n        /* \"#utility.yul\":3947:3967   */\n      tag_127\n      tag_128\n      jump\t// in\n    tag_127:\n        /* \"#utility.yul\":3937:3967   */\n      swap1\n      pop\n        /* \"#utility.yul\":3976:4009   */\n      tag_129\n        /* \"#utility.yul\":4004:4008   */\n      dup3\n        /* \"#utility.yul\":3996:4002   */\n      dup3\n        /* \"#utility.yul\":3976:4009   */\n      tag_130\n      jump\t// in\n    tag_129:\n        /* \"#utility.yul\":3886:4015   */\n      swap2\n      swap1\n      pop\n      jump\t// out\n        /* \"#utility.yul\":4021:4096   */\n    tag_128:\n        /* \"#utility.yul\":4054:4060   */\n      0x00\n        /* \"#utility.yul\":4087:4089   */\n      0x40\n        /* \"#utility.yul\":4081:4090   */\n      mload\n        /* \"#utility.yul\":4071:4090   */\n      swap1\n      pop\n        /* \"#utility.yul\":4021:4096   */\n      swap1\n      jump\t// out\n        /* \"#utility.yul\":4102:4410   */\n    tag_64:\n        /* \"#utility.yul\":4164:4168   */\n      0x00\n        /* \"#utility.yul\":4254:4272   */\n      0xffffffffffffffff\n        /* \"#utility.yul\":4246:4252   */\n      dup3\n        /* \"#utility.yul\":4243:4273   */\n      gt\n        /* \"#utility.yul\":4240:4296   */\n      iszero\n      tag_133\n      jumpi\n        /* \"#utility.yul\":4276:4294   */\n      tag_134\n      tag_135\n      jump\t// in\n    tag_134:\n        /* \"#utility.yul\":4240:4296   */\n    tag_133:\n        /* \"#utility.yul\":4314:4343   */\n      tag_136\n        /* \"#utility.yul\":4336:4342   */\n      dup3\n        /* \"#utility.yul\":4314:4343   */\n      tag_115\n      jump\t// in\n    tag_136:\n        /* \"#utility.yul\":4306:4343   */\n      swap1\n      pop\n        /* \"#utility.yul\":4398:4402   */\n      0x20\n        /* \"#utility.yul\":4392:4396   */\n      dup2\n        /* \"#utility.yul\":4388:4403   */\n      add\n        /* \"#utility.yul\":4380:4403   */\n      swap1\n      pop\n        /* \"#utility.yul\":4102:4410   */\n      swap2\n      swap1\n      pop\n      jump\t// out\n        /* \"#utility.yul\":4416:4515   */\n    tag_109:\n        /* \"#utility.yul\":4468:4474   */\n      0x00\n        /* \"#utility.yul\":4502:4507   */\n      dup2\n        /* \"#utility.yul\":4496:4508   */\n      mload\n        /* \"#utility.yul\":4486:4508   */\n      swap1\n      pop\n        /* \"#utility.yul\":4416:4515   */\n      swap2\n      swap1\n      pop\n      jump\t// out\n        /* \"#utility.yul\":4521:4690   */\n    tag_111:\n        /* \"#utility.yul\":4605:4616   */\n      0x00\n        /* \"#utility.yul\":4639:4645   */\n      dup3\n        /* \"#utility.yul\":4634:4637   */\n      dup3\n        /* \"#utility.yul\":4627:4646   */\n      mstore\n        /* \"#utility.yul\":4679:4683   */\n      0x20\n        /* \"#utility.yul\":4674:4677   */\n      dup3\n        /* \"#utility.yul\":4670:4684   */\n      add\n        /* \"#utility.yul\":4655:4684   */\n      swap1\n      pop\n        /* \"#utility.yul\":4521:4690   */\n      swap3\n      swap2\n      pop\n      pop\n      jump\t// out\n        /* \"#utility.yul\":4696:5001   */\n    tag_41:\n        /* \"#utility.yul\":4736:4739   */\n      0x00\n        /* \"#utility.yul\":4755:4775   */\n      tag_140\n        /* \"#utility.yul\":4773:4774   */\n      dup3\n        /* \"#utility.yul\":4755:4775   */\n      tag_119\n      jump\t// in\n    tag_140:\n        /* \"#utility.yul\":4750:4775   */\n      swap2\n      pop\n        /* \"#utility.yul\":4789:4809   */\n      tag_141\n        /* \"#utility.yul\":4807:4808   */\n      dup4\n        /* \"#utility.yul\":4789:4809   */\n      tag_119\n      jump\t// in\n    tag_141:\n        /* \"#utility.yul\":4784:4809   */\n      swap3\n      pop\n        /* \"#utility.yul\":4943:4944   */\n      dup3\n        /* \"#utility.yul\":4875:4941   */\n      0xffffffffffffffffffffffffffffffffffffffffffffffffffffffffffffffff\n        /* \"#utility.yul\":4871:4945   */\n      sub\n        /* \"#utility.yul\":4868:4869   */\n      dup3\n        /* \"#utility.yul\":4865:4946   */\n      gt\n        /* \"#utility.yul\":4862:4969   */\n      iszero\n      tag_142\n      jumpi\n        /* \"#utility.yul\":4949:4967   */\n      tag_143\n      tag_144\n      jump\t// in\n    tag_143:\n        /* \"#utility.yul\":4862:4969   */\n    tag_142:\n        /* \"#utility.yul\":4993:4994   */\n      dup3\n        /* \"#utility.yul\":4990:4991   */\n      dup3\n        /* \"#utility.yul\":4986:4995   */\n      add\n        /* \"#utility.yul\":4979:4995   */\n      swap1\n      pop\n        /* \"#utility.yul\":4696:5001   */\n      swap3\n      swap2\n      pop\n      pop\n      jump\t// out\n        /* \"#utility.yul\":5007:5111   */\n    tag_105:\n        /* \"#utility.yul\":5052:5059   */\n      0x00\n        /* \"#utility.yul\":5081:5105   */\n      tag_146\n        /* \"#utility.yul\":5099:5104   */\n      dup3\n        /* \"#utility.yul\":5081:5105   */\n      tag_147\n      jump\t// in\n    tag_146:\n        /* \"#utility.yul\":5070:5105   */\n      swap1\n      pop\n        /* \"#utility.yul\":5007:5111   */\n      swap2\n      swap1\n      pop\n      jump\t// out\n        /* \"#utility.yul\":5117:5243   */\n    tag_147:\n        /* \"#utility.yul\":5154:5161   */\n      0x00\n        /* \"#utility.yul\":5194:5236   */\n      0xffffffffffffffffffffffffffffffffffffffff\n        /* \"#utility.yul\":5187:5192   */\n      dup3\n        /* \"#utility.yul\":5183:5237   */\n      and\n        /* \"#utility.yul\":5172:5237   */\n      swap1\n      pop\n        /* \"#utility.yul\":5117:5243   */\n      swap2\n      swap1\n      pop\n      jump\t// out\n        /* \"#utility.yul\":5249:5326   */\n    tag_119:\n        /* \"#utility.yul\":5286:5293   */\n      0x00\n        /* \"#utility.yul\":5315:5320   */\n      dup2\n        /* \"#utility.yul\":5304:5320   */\n      swap1\n      pop\n        /* \"#utility.yul\":5249:5326   */\n      swap2\n      swap1\n      pop\n      jump\t// out\n        /* \"#utility.yul\":5332:5486   */\n    tag_70:\n        /* \"#utility.yul\":5416:5422   */\n      dup3\n        /* \"#utility.yul\":5411:5414   */\n      dup2\n        /* \"#utility.yul\":5406:5409   */\n      dup4\n        /* \"#utility.yul\":5393:5423   */\n      calldatacopy\n        /* \"#utility.yul\":5478:5479   */\n      0x00\n        /* \"#utility.yul\":5469:5475   */\n      dup4\n        /* \"#utility.yul\":5464:5467   */\n      dup4\n        /* \"#utility.yul\":5460:5476   */\n      add\n        /* \"#utility.yul\":5453:5480   */\n      mstore\n        /* \"#utility.yul\":5332:5486   */\n      pop\n      pop\n      pop\n      jump\t// out\n        /* \"#utility.yul\":5492:5799   */\n    tag_113:\n        /* \"#utility.yul\":5560:5561   */\n      0x00\n        /* \"#utility.yul\":5570:5683   */\n    tag_152:\n        /* \"#utility.yul\":5584:5590   */\n      dup4\n        /* \"#utility.yul\":5581:5582   */\n      dup2\n        /* \"#utility.yul\":5578:5591   */\n      lt\n        /* \"#utility.yul\":5570:5683   */\n      iszero\n      tag_154\n      jumpi\n        /* \"#utility.yul\":5669:5670   */\n      dup1\n        /* \"#utility.yul\":5664:5667   */\n      dup3\n        /* \"#utility.yul\":5660:5671   */\n      add\n        /* \"#utility.yul\":5654:5672   */\n      mload\n        /* \"#utility.yul\":5650:5651   */\n      dup2\n        /* \"#utility.yul\":5645:5648   */\n      dup5\n        /* \"#utility.yul\":5641:5652   */\n      add\n        /* \"#utility.yul\":5634:5673   */\n      mstore\n        /* \"#utility.yul\":5606:5608   */\n      0x20\n        /* \"#utility.yul\":5603:5604   */\n      dup2\n        /* \"#utility.yul\":5599:5609   */\n      add\n        /* \"#utility.yul\":5594:5609   */\n      swap1\n      pop\n        /* \"#utility.yul\":5570:5683   */\n      jump(tag_152)\n    tag_154:\n        /* \"#utility.yul\":5701:5707   */\n      dup4\n        /* \"#utility.yul\":5698:5699   */\n      dup2\n        /* \"#utility.yul\":5695:5708   */\n      gt\n        /* \"#utility.yul\":5692:5793   */\n      iszero\n      tag_155\n      jumpi\n        /* \"#utility.yul\":5781:5782   */\n      0x00\n        /* \"#utility.yul\":5772:5778   */\n      dup5\n        /* \"#utility.yul\":5767:5770   */\n      dup5\n        /* \"#utility.yul\":5763:5779   */\n      add\n        /* \"#utility.yul\":5756:5783   */\n      mstore\n        /* \"#utility.yul\":5692:5793   */\n    tag_155:\n        /* \"#utility.yul\":5541:5799   */\n      pop\n        /* \"#utility.yul\":5492:5799   */\n      pop\n      pop\n      pop\n      jump\t// out\n        /* \"#utility.yul\":5805:6125   */\n    tag_44:\n        /* \"#utility.yul\":5849:5855   */\n      0x00\n        /* \"#utility.yul\":5886:5887   */\n      0x02\n        /* \"#utility.yul\":5880:5884   */\n      dup3\n        /* \"#utility.yul\":5876:5888   */\n      div\n        /* \"#utility.yul\":5866:5888   */\n      swap1\n      pop\n        /* \"#utility.yul\":5933:5934   */\n      0x01\n        /* \"#utility.yul\":5927:5931   */\n      dup3\n        /* \"#utility.yul\":5923:5935   */\n      and\n        /* \"#utility.yul\":5954:5972   */\n      dup1\n        /* \"#utility.yul\":5944:6025   */\n      tag_157\n      jumpi\n        /* \"#utility.yul\":6010:6014   */\n      0x7f\n        /* \"#utility.yul\":6002:6008   */\n      dup3\n        /* \"#utility.yul\":5998:6015   */\n      and\n        /* \"#utility.yul\":5988:6015   */\n      swap2\n      pop\n        /* \"#utility.yul\":5944:6025   */\n    tag_157:\n        /* \"#utility.yul\":6072:6074   */\n      0x20\n        /* \"#utility.yul\":6064:6070   */\n      dup3\n        /* \"#utility.yul\":6061:6075   */\n      lt\n        /* \"#utility.yul\":6041:6059   */\n      dup2\n        /* \"#utility.yul\":6038:6076   */\n      eq\n        /* \"#utility.yul\":6035:6119   */\n      iszero\n      tag_158\n      jumpi\n        /* \"#utility.yul\":6091:6109   */\n      tag_159\n      tag_160\n      jump\t// in\n    tag_159:\n        /* \"#utility.yul\":6035:6119   */\n    tag_158:\n        /* \"#utility.yul\":5856:6125   */\n      pop\n        /* \"#utility.yul\":5805:6125   */\n      swap2\n      swap1\n      pop\n      jump\t// out\n        /* \"#utility.yul\":6131:6412   */\n    tag_130:\n        /* \"#utility.yul\":6214:6241   */\n      tag_162\n        /* \"#utility.yul\":6236:6240   */\n      dup3\n        /* \"#utility.yul\":6214:6241   */\n      tag_115\n      jump\t// in\n    tag_162:\n        /* \"#utility.yul\":6206:6212   */\n      dup2\n        /* \"#utility.yul\":6202:6242   */\n      add\n        /* \"#utility.yul\":6344:6350   */\n      dup2\n        /* \"#utility.yul\":6332:6342   */\n      dup2\n        /* \"#utility.yul\":6329:6351   */\n      lt\n        /* \"#utility.yul\":6308:6326   */\n      0xffffffffffffffff\n        /* \"#utility.yul\":6296:6306   */\n      dup3\n        /* \"#utility.yul\":6293:6327   */\n      gt\n        /* \"#utility.yul\":6290:6352   */\n      or\n        /* \"#utility.yul\":6287:6375   */\n      iszero\n      tag_163\n      jumpi\n        /* \"#utility.yul\":6355:6373   */\n      tag_164\n      tag_135\n      jump\t// in\n    tag_164:\n        /* \"#utility.yul\":6287:6375   */\n    tag_163:\n        /* \"#utility.yul\":6395:6405   */\n      dup1\n        /* \"#utility.yul\":6391:6393   */\n      0x40\n        /* \"#utility.yul\":6384:6406   */\n      mstore\n        /* \"#utility.yul\":6174:6412   */\n      pop\n        /* \"#utility.yul\":6131:6412   */\n      pop\n      pop\n      jump\t// out\n        /* \"#utility.yul\":6418:6598   */\n    tag_144:\n        /* \"#utility.yul\":6466:6543   */\n      0x4e487b7100000000000000000000000000000000000000000000000000000000\n        /* \"#utility.yul\":6463:6464   */\n      0x00\n        /* \"#utility.yul\":6456:6544   */\n      mstore\n        /* \"#utility.yul\":6563:6567   */\n      0x11\n        /* \"#utility.yul\":6560:6561   */\n      0x04\n        /* \"#utility.yul\":6553:6568   */\n      mstore\n        /* \"#utility.yul\":6587:6591   */\n      0x24\n        /* \"#utility.yul\":6584:6585   */\n      0x00\n        /* \"#utility.yul\":6577:6592   */\n      revert\n        /* \"#utility.yul\":6604:6784   */\n    tag_160:\n        /* \"#utility.yul\":6652:6729   */\n      0x4e487b7100000000000000000000000000000000000000000000000000000000\n        /* \"#utility.yul\":6649:6650   */\n      0x00\n        /* \"#utility.yul\":6642:6730   */\n      mstore\n        /* \"#utility.yul\":6749:6753   */\n      0x22\n        /* \"#utility.yul\":6746:6747   */\n      0x04\n        /* \"#utility.yul\":6739:6754   */\n      mstore\n        /* \"#utility.yul\":6773:6777   */\n      0x24\n        /* \"#utility.yul\":6770:6771   */\n      0x00\n        /* \"#utility.yul\":6763:6778   */\n      revert\n        /* \"#utility.yul\":6790:6970   */\n    tag_135:\n        /* \"#utility.yul\":6838:6915   */\n      0x4e487b7100000000000000000000000000000000000000000000000000000000\n        /* \"#utility.yul\":6835:6836   */\n      0x00\n        /* \"#utility.yul\":6828:6916   */\n      mstore\n        /* \"#utility.yul\":6935:6939   */\n      0x41\n        /* \"#utility.yul\":6932:6933   */\n      0x04\n        /* \"#utility.yul\":6925:6940   */\n      mstore\n        /* \"#utility.yul\":6959:6963   */\n      0x24\n        /* \"#utility.yul\":6956:6957   */\n      0x00\n        /* \"#utility.yul\":6949:6964   */\n      revert\n        /* \"#utility.yul\":6976:7093   */\n    tag_79:\n        /* \"#utility.yul\":7085:7086   */\n      0x00\n        /* \"#utility.yul\":7082:7083   */\n      dup1\n        /* \"#utility.yul\":7075:7087   */\n      revert\n        /* \"#utility.yul\":7099:7216   */\n    tag_68:\n        /* \"#utility.yul\":7208:7209   */\n      0x00\n        /* \"#utility.yul\":7205:7206   */\n      dup1\n        /* \"#utility.yul\":7198:7210   */\n      revert\n        /* \"#utility.yul\":7222:7339   */\n    tag_95:\n        /* \"#utility.yul\":7331:7332   */\n      0x00\n        /* \"#utility.yul\":7328:7329   */\n      dup1\n        /* \"#utility.yul\":7321:7333   */\n      revert\n        /* \"#utility.yul\":7345:7462   */\n    tag_88:\n        /* \"#utility.yul\":7454:7455   */\n      0x00\n        /* \"#utility.yul\":7451:7452   */\n      dup1\n        /* \"#utility.yul\":7444:7456   */\n      revert\n        /* \"#utility.yul\":7468:7570   */\n    tag_115:\n        /* \"#utility.yul\":7509:7515   */\n      0x00\n        /* \"#utility.yul\":7560:7562   */\n      0x1f\n        /* \"#utility.yul\":7556:7563   */\n      not\n        /* \"#utility.yul\":7551:7553   */\n      0x1f\n        /* \"#utility.yul\":7544:7549   */\n      dup4\n        /* \"#utility.yul\":7540:7554   */\n      add\n        /* \"#utility.yul\":7536:7564   */\n      and\n        /* \"#utility.yul\":7526:7564   */\n      swap1\n      pop\n        /* \"#utility.yul\":7468:7570   */\n      swap2\n      swap1\n      pop\n      jump\t// out\n        /* \"#utility.yul\":7576:7714   */\n    tag_74:\n        /* \"#utility.yul\":7657:7689   */\n      tag_174\n        /* \"#utility.yul\":7683:7688   */\n      dup2\n        /* \"#utility.yul\":7657:7689   */\n      tag_105\n      jump\t// in\n    tag_174:\n        /* \"#utility.yul\":7650:7655   */\n      dup2\n        /* \"#utility.yul\":7647:7690   */\n      eq\n        /* \"#utility.yul\":7637:7708   */\n      tag_175\n      jumpi\n        /* \"#utility.yul\":7704:7705   */\n      0x00\n        /* \"#utility.yul\":7701:7702   */\n      dup1\n        /* \"#utility.yul\":7694:7706   */\n      revert\n        /* \"#utility.yul\":7637:7708   */\n    tag_175:\n        /* \"#utility.yul\":7576:7714   */\n      pop\n      jump\t// out\n        /* \"#utility.yul\":7720:7842   */\n    tag_84:\n        /* \"#utility.yul\":7793:7817   */\n      tag_177\n        /* \"#utility.yul\":7811:7816   */\n      dup2\n        /* \"#utility.yul\":7793:7817   */\n      tag_119\n      jump\t// in\n    tag_177:\n        /* \"#utility.yul\":7786:7791   */\n      dup2\n        /* \"#utility.yul\":7783:7818   */\n      eq\n        /* \"#utility.yul\":7773:7836   */\n      tag_178\n      jumpi\n        /* \"#utility.yul\":7832:7833   */\n      0x00\n        /* \"#utility.yul\":7829:7830   */\n      dup1\n        /* \"#utility.yul\":7822:7834   */\n      revert\n        /* \"#utility.yul\":7773:7836   */\n    tag_178:\n        /* \"#utility.yul\":7720:7842   */\n      pop\n      jump\t// out\n\n    auxdata: 0xa26469706673582212205088e4bb54cd44d4f9867480825b5764e90a8c18e2355a918014e70ac4f655b364736f6c63430008070033\n}\n",
				"bytecode": {
					"linkReferences": {},
					"object": "60806040526040518060400160405280600781526020017f506f6c79676f6e000000000000000000000000000000000000000000000000008152506000908051906020019061004f929190610062565b5034801561005c57600080fd5b50610166565b82805461006e90610105565b90600052602060002090601f01602090048101928261009057600085556100d7565b82601f106100a957805160ff19168380011785556100d7565b828001600101855582156100d7579182015b828111156100d65782518255916020019190600101906100bb565b5b5090506100e491906100e8565b5090565b5b808211156101015760008160009055506001016100e9565b5090565b6000600282049050600182168061011d57607f821691505b6020821081141561013157610130610137565b5b50919050565b7f4e487b7100000000000000000000000000000000000000000000000000000000600052602260045260246000fd5b6107fa806101756000396000f3fe60806040526004361061004a5760003560e01c80635353a2d81461004f578063636e082b146100785780638da5cb5b14610094578063a990a7a7146100bf578063c6ea59b9146100fc575b600080fd5b34801561005b57600080fd5b5061007660048036038101906100719190610403565b610127565b005b610092600480360381019061008d91906103d6565b610141565b005b3480156100a057600080fd5b506100a961018b565b6040516100b691906104e3565b60405180910390f35b3480156100cb57600080fd5b506100e660048036038101906100e1919061044c565b6101b1565b6040516100f39190610520565b60405180910390f35b34801561010857600080fd5b50610111610207565b60405161011e91906104fe565b60405180910390f35b806000908051906020019061013d929190610299565b5050565b8073ffffffffffffffffffffffffffffffffffffffff166108fc349081150290604051600060405180830381858888f19350505050158015610187573d6000803e3d6000fd5b5050565b600160009054906101000a900473ffffffffffffffffffffffffffffffffffffffff1681565b6000806040518060400160405280600181526020017f56000000000000000000000000000000000000000000000000000000000000008152509050600083856101fa91906105ad565b9050809250505092915050565b60606000805461021690610681565b80601f016020809104026020016040519081016040528092919081815260200182805461024290610681565b801561028f5780601f106102645761010080835404028352916020019161028f565b820191906000526020600020905b81548152906001019060200180831161027257829003601f168201915b5050505050905090565b8280546102a590610681565b90600052602060002090601f0160209004810192826102c7576000855561030e565b82601f106102e057805160ff191683800117855561030e565b8280016001018555821561030e579182015b8281111561030d5782518255916020019190600101906102f2565b5b50905061031b919061031f565b5090565b5b80821115610338576000816000905550600101610320565b5090565b600061034f61034a84610560565b61053b565b90508281526020810184848401111561036b5761036a610776565b5b61037684828561063f565b509392505050565b60008135905061038d81610796565b92915050565b600082601f8301126103a8576103a7610771565b5b81356103b884826020860161033c565b91505092915050565b6000813590506103d0816107ad565b92915050565b6000602082840312156103ec576103eb610780565b5b60006103fa8482850161037e565b91505092915050565b60006020828403121561041957610418610780565b5b600082013567ffffffffffffffff8111156104375761043661077b565b5b61044384828501610393565b91505092915050565b6000806040838503121561046357610462610780565b5b6000610471858286016103c1565b9250506020610482858286016103c1565b9150509250929050565b61049581610603565b82525050565b60006104a682610591565b6104b0818561059c565b93506104c081856020860161064e565b6104c981610785565b840191505092915050565b6104dd81610635565b82525050565b60006020820190506104f8600083018461048c565b92915050565b60006020820190508181036000830152610518818461049b565b905092915050565b600060208201905061053560008301846104d4565b92915050565b6000610545610556565b905061055182826106b3565b919050565b6000604051905090565b600067ffffffffffffffff82111561057b5761057a610742565b5b61058482610785565b9050602081019050919050565b600081519050919050565b600082825260208201905092915050565b60006105b882610635565b91506105c383610635565b9250827fffffffffffffffffffffffffffffffffffffffffffffffffffffffffffffffff038211156105f8576105f76106e4565b5b828201905092915050565b600061060e82610615565b9050919050565b600073ffffffffffffffffffffffffffffffffffffffff82169050919050565b6000819050919050565b82818337600083830152505050565b60005b8381101561066c578082015181840152602081019050610651565b8381111561067b576000848401525b50505050565b6000600282049050600182168061069957607f821691505b602082108114156106ad576106ac610713565b5b50919050565b6106bc82610785565b810181811067ffffffffffffffff821117156106db576106da610742565b5b80604052505050565b7f4e487b7100000000000000000000000000000000000000000000000000000000600052601160045260246000fd5b7f4e487b7100000000000000000000000000000000000000000000000000000000600052602260045260246000fd5b7f4e487b7100000000000000000000000000000000000000000000000000000000600052604160045260246000fd5b600080fd5b600080fd5b600080fd5b600080fd5b6000601f19601f8301169050919050565b61079f81610603565b81146107aa57600080fd5b50565b6107b681610635565b81146107c157600080fd5b5056fea26469706673582212205088e4bb54cd44d4f9867480825b5764e90a8c18e2355a918014e70ac4f655b364736f6c63430008070033",
					"opcodes": "PUSH1 0x80 PUSH1 0x40 MSTORE PUSH1 0x40 MLOAD DUP1 PUSH1 0x40 ADD PUSH1 0x40 MSTORE DUP1 PUSH1 0x7 DUP2 MSTORE PUSH1 0x20 ADD PUSH32 0x506F6C79676F6E00000000000000000000000000000000000000000000000000 DUP2 MSTORE POP PUSH1 0x0 SWAP1 DUP1 MLOAD SWAP1 PUSH1 0x20 ADD SWAP1 PUSH2 0x4F SWAP3 SWAP2 SWAP1 PUSH2 0x62 JUMP JUMPDEST POP CALLVALUE DUP1 ISZERO PUSH2 0x5C JUMPI PUSH1 0x0 DUP1 REVERT JUMPDEST POP PUSH2 0x166 JUMP JUMPDEST DUP3 DUP1 SLOAD PUSH2 0x6E SWAP1 PUSH2 0x105 JUMP JUMPDEST SWAP1 PUSH1 0x0 MSTORE PUSH1 0x20 PUSH1 0x0 KECCAK256 SWAP1 PUSH1 0x1F ADD PUSH1 0x20 SWAP1 DIV DUP2 ADD SWAP3 DUP3 PUSH2 0x90 JUMPI PUSH1 0x0 DUP6 SSTORE PUSH2 0xD7 JUMP JUMPDEST DUP3 PUSH1 0x1F LT PUSH2 0xA9 JUMPI DUP1 MLOAD PUSH1 0xFF NOT AND DUP4 DUP1 ADD OR DUP6 SSTORE PUSH2 0xD7 JUMP JUMPDEST DUP3 DUP1 ADD PUSH1 0x1 ADD DUP6 SSTORE DUP3 ISZERO PUSH2 0xD7 JUMPI SWAP2 DUP3 ADD JUMPDEST DUP3 DUP2 GT ISZERO PUSH2 0xD6 JUMPI DUP3 MLOAD DUP3 SSTORE SWAP2 PUSH1 0x20 ADD SWAP2 SWAP1 PUSH1 0x1 ADD SWAP1 PUSH2 0xBB JUMP JUMPDEST JUMPDEST POP SWAP1 POP PUSH2 0xE4 SWAP2 SWAP1 PUSH2 0xE8 JUMP JUMPDEST POP SWAP1 JUMP JUMPDEST JUMPDEST DUP1 DUP3 GT ISZERO PUSH2 0x101 JUMPI PUSH1 0x0 DUP2 PUSH1 0x0 SWAP1 SSTORE POP PUSH1 0x1 ADD PUSH2 0xE9 JUMP JUMPDEST POP SWAP1 JUMP JUMPDEST PUSH1 0x0 PUSH1 0x2 DUP3 DIV SWAP1 POP PUSH1 0x1 DUP3 AND DUP1 PUSH2 0x11D JUMPI PUSH1 0x7F DUP3 AND SWAP2 POP JUMPDEST PUSH1 0x20 DUP3 LT DUP2 EQ ISZERO PUSH2 0x131 JUMPI PUSH2 0x130 PUSH2 0x137 JUMP JUMPDEST JUMPDEST POP SWAP2 SWAP1 POP JUMP JUMPDEST PUSH32 0x4E487B7100000000000000000000000000000000000000000000000000000000 PUSH1 0x0 MSTORE PUSH1 0x22 PUSH1 0x4 MSTORE PUSH1 0x24 PUSH1 0x0 REVERT JUMPDEST PUSH2 0x7FA DUP1 PUSH2 0x175 PUSH1 0x0 CODECOPY PUSH1 0x0 RETURN INVALID PUSH1 0x80 PUSH1 0x40 MSTORE PUSH1 0x4 CALLDATASIZE LT PUSH2 0x4A JUMPI PUSH1 0x0 CALLDATALOAD PUSH1 0xE0 SHR DUP1 PUSH4 0x5353A2D8 EQ PUSH2 0x4F JUMPI DUP1 PUSH4 0x636E082B EQ PUSH2 0x78 JUMPI DUP1 PUSH4 0x8DA5CB5B EQ PUSH2 0x94 JUMPI DUP1 PUSH4 0xA990A7A7 EQ PUSH2 0xBF JUMPI DUP1 PUSH4 0xC6EA59B9 EQ PUSH2 0xFC JUMPI JUMPDEST PUSH1 0x0 DUP1 REVERT JUMPDEST CALLVALUE DUP1 ISZERO PUSH2 0x5B JUMPI PUSH1 0x0 DUP1 REVERT JUMPDEST POP PUSH2 0x76 PUSH1 0x4 DUP1 CALLDATASIZE SUB DUP2 ADD SWAP1 PUSH2 0x71 SWAP2 SWAP1 PUSH2 0x403 JUMP JUMPDEST PUSH2 0x127 JUMP JUMPDEST STOP JUMPDEST PUSH2 0x92 PUSH1 0x4 DUP1 CALLDATASIZE SUB DUP2 ADD SWAP1 PUSH2 0x8D SWAP2 SWAP1 PUSH2 0x3D6 JUMP JUMPDEST PUSH2 0x141 JUMP JUMPDEST STOP JUMPDEST CALLVALUE DUP1 ISZERO PUSH2 0xA0 JUMPI PUSH1 0x0 DUP1 REVERT JUMPDEST POP PUSH2 0xA9 PUSH2 0x18B JUMP JUMPDEST PUSH1 0x40 MLOAD PUSH2 0xB6 SWAP2 SWAP1 PUSH2 0x4E3 JUMP JUMPDEST PUSH1 0x40 MLOAD DUP1 SWAP2 SUB SWAP1 RETURN JUMPDEST CALLVALUE DUP1 ISZERO PUSH2 0xCB JUMPI PUSH1 0x0 DUP1 REVERT JUMPDEST POP PUSH2 0xE6 PUSH1 0x4 DUP1 CALLDATASIZE SUB DUP2 ADD SWAP1 PUSH2 0xE1 SWAP2 SWAP1 PUSH2 0x44C JUMP JUMPDEST PUSH2 0x1B1 JUMP JUMPDEST PUSH1 0x40 MLOAD PUSH2 0xF3 SWAP2 SWAP1 PUSH2 0x520 JUMP JUMPDEST PUSH1 0x40 MLOAD DUP1 SWAP2 SUB SWAP1 RETURN JUMPDEST CALLVALUE DUP1 ISZERO PUSH2 0x108 JUMPI PUSH1 0x0 DUP1 REVERT JUMPDEST POP PUSH2 0x111 PUSH2 0x207 JUMP JUMPDEST PUSH1 0x40 MLOAD PUSH2 0x11E SWAP2 SWAP1 PUSH2 0x4FE JUMP JUMPDEST PUSH1 0x40 MLOAD DUP1 SWAP2 SUB SWAP1 RETURN JUMPDEST DUP1 PUSH1 0x0 SWAP1 DUP1 MLOAD SWAP1 PUSH1 0x20 ADD SWAP1 PUSH2 0x13D SWAP3 SWAP2 SWAP1 PUSH2 0x299 JUMP JUMPDEST POP POP JUMP JUMPDEST DUP1 PUSH20 0xFFFFFFFFFFFFFFFFFFFFFFFFFFFFFFFFFFFFFFFF AND PUSH2 0x8FC CALLVALUE SWAP1 DUP2 ISZERO MUL SWAP1 PUSH1 0x40 MLOAD PUSH1 0x0 PUSH1 0x40 MLOAD DUP1 DUP4 SUB DUP2 DUP6 DUP9 DUP9 CALL SWAP4 POP POP POP POP ISZERO DUP1 ISZERO PUSH2 0x187 JUMPI RETURNDATASIZE PUSH1 0x0 DUP1 RETURNDATACOPY RETURNDATASIZE PUSH1 0x0 REVERT JUMPDEST POP POP JUMP JUMPDEST PUSH1 0x1 PUSH1 0x0 SWAP1 SLOAD SWAP1 PUSH2 0x100 EXP SWAP1 DIV PUSH20 0xFFFFFFFFFFFFFFFFFFFFFFFFFFFFFFFFFFFFFFFF AND DUP2 JUMP JUMPDEST PUSH1 0x0 DUP1 PUSH1 0x40 MLOAD DUP1 PUSH1 0x40 ADD PUSH1 0x40 MSTORE DUP1 PUSH1 0x1 DUP2 MSTORE PUSH1 0x20 ADD PUSH32 0x5600000000000000000000000000000000000000000000000000000000000000 DUP2 MSTORE POP SWAP1 POP PUSH1 0x0 DUP4 DUP6 PUSH2 0x1FA SWAP2 SWAP1 PUSH2 0x5AD JUMP JUMPDEST SWAP1 POP DUP1 SWAP3 POP POP POP SWAP3 SWAP2 POP POP JUMP JUMPDEST PUSH1 0x60 PUSH1 0x0 DUP1 SLOAD PUSH2 0x216 SWAP1 PUSH2 0x681 JUMP JUMPDEST DUP1 PUSH1 0x1F ADD PUSH1 0x20 DUP1 SWAP2 DIV MUL PUSH1 0x20 ADD PUSH1 0x40 MLOAD SWAP1 DUP2 ADD PUSH1 0x40 MSTORE DUP1 SWAP3 SWAP2 SWAP1 DUP2 DUP2 MSTORE PUSH1 0x20 ADD DUP3 DUP1 SLOAD PUSH2 0x242 SWAP1 PUSH2 0x681 JUMP JUMPDEST DUP1 ISZERO PUSH2 0x28F JUMPI DUP1 PUSH1 0x1F LT PUSH2 0x264 JUMPI PUSH2 0x100 DUP1 DUP4 SLOAD DIV MUL DUP4 MSTORE SWAP2 PUSH1 0x20 ADD SWAP2 PUSH2 0x28F JUMP JUMPDEST DUP3 ADD SWAP2 SWAP1 PUSH1 0x0 MSTORE PUSH1 0x20 PUSH1 0x0 KECCAK256 SWAP1 JUMPDEST DUP2 SLOAD DUP2 MSTORE SWAP1 PUSH1 0x1 ADD SWAP1 PUSH1 0x20 ADD DUP1 DUP4 GT PUSH2 0x272 JUMPI DUP3 SWAP1 SUB PUSH1 0x1F AND DUP3 ADD SWAP2 JUMPDEST POP POP POP POP POP SWAP1 POP SWAP1 JUMP JUMPDEST DUP3 DUP1 SLOAD PUSH2 0x2A5 SWAP1 PUSH2 0x681 JUMP JUMPDEST SWAP1 PUSH1 0x0 MSTORE PUSH1 0x20 PUSH1 0x0 KECCAK256 SWAP1 PUSH1 0x1F ADD PUSH1 0x20 SWAP1 DIV DUP2 ADD SWAP3 DUP3 PUSH2 0x2C7 JUMPI PUSH1 0x0 DUP6 SSTORE PUSH2 0x30E JUMP JUMPDEST DUP3 PUSH1 0x1F LT PUSH2 0x2E0 JUMPI DUP1 MLOAD PUSH1 0xFF NOT AND DUP4 DUP1 ADD OR DUP6 SSTORE PUSH2 0x30E JUMP JUMPDEST DUP3 DUP1 ADD PUSH1 0x1 ADD DUP6 SSTORE DUP3 ISZERO PUSH2 0x30E JUMPI SWAP2 DUP3 ADD JUMPDEST DUP3 DUP2 GT ISZERO PUSH2 0x30D JUMPI DUP3 MLOAD DUP3 SSTORE SWAP2 PUSH1 0x20 ADD SWAP2 SWAP1 PUSH1 0x1 ADD SWAP1 PUSH2 0x2F2 JUMP JUMPDEST JUMPDEST POP SWAP1 POP PUSH2 0x31B SWAP2 SWAP1 PUSH2 0x31F JUMP JUMPDEST POP SWAP1 JUMP JUMPDEST JUMPDEST DUP1 DUP3 GT ISZERO PUSH2 0x338 JUMPI PUSH1 0x0 DUP2 PUSH1 0x0 SWAP1 SSTORE POP PUSH1 0x1 ADD PUSH2 0x320 JUMP JUMPDEST POP SWAP1 JUMP JUMPDEST PUSH1 0x0 PUSH2 0x34F PUSH2 0x34A DUP5 PUSH2 0x560 JUMP JUMPDEST PUSH2 0x53B JUMP JUMPDEST SWAP1 POP DUP3 DUP2 MSTORE PUSH1 0x20 DUP2 ADD DUP5 DUP5 DUP5 ADD GT ISZERO PUSH2 0x36B JUMPI PUSH2 0x36A PUSH2 0x776 JUMP JUMPDEST JUMPDEST PUSH2 0x376 DUP5 DUP3 DUP6 PUSH2 0x63F JUMP JUMPDEST POP SWAP4 SWAP3 POP POP POP JUMP JUMPDEST PUSH1 0x0 DUP2 CALLDATALOAD SWAP1 POP PUSH2 0x38D DUP2 PUSH2 0x796 JUMP JUMPDEST SWAP3 SWAP2 POP POP JUMP JUMPDEST PUSH1 0x0 DUP3 PUSH1 0x1F DUP4 ADD SLT PUSH2 0x3A8 JUMPI PUSH2 0x3A7 PUSH2 0x771 JUMP JUMPDEST JUMPDEST DUP2 CALLDATALOAD PUSH2 0x3B8 DUP5 DUP3 PUSH1 0x20 DUP7 ADD PUSH2 0x33C JUMP JUMPDEST SWAP2 POP POP SWAP3 SWAP2 POP POP JUMP JUMPDEST PUSH1 0x0 DUP2 CALLDATALOAD SWAP1 POP PUSH2 0x3D0 DUP2 PUSH2 0x7AD JUMP JUMPDEST SWAP3 SWAP2 POP POP JUMP JUMPDEST PUSH1 0x0 PUSH1 0x20 DUP3 DUP5 SUB SLT ISZERO PUSH2 0x3EC JUMPI PUSH2 0x3EB PUSH2 0x780 JUMP JUMPDEST JUMPDEST PUSH1 0x0 PUSH2 0x3FA DUP5 DUP3 DUP6 ADD PUSH2 0x37E JUMP JUMPDEST SWAP2 POP POP SWAP3 SWAP2 POP POP JUMP JUMPDEST PUSH1 0x0 PUSH1 0x20 DUP3 DUP5 SUB SLT ISZERO PUSH2 0x419 JUMPI PUSH2 0x418 PUSH2 0x780 JUMP JUMPDEST JUMPDEST PUSH1 0x0 DUP3 ADD CALLDATALOAD PUSH8 0xFFFFFFFFFFFFFFFF DUP2 GT ISZERO PUSH2 0x437 JUMPI PUSH2 0x436 PUSH2 0x77B JUMP JUMPDEST JUMPDEST PUSH2 0x443 DUP5 DUP3 DUP6 ADD PUSH2 0x393 JUMP JUMPDEST SWAP2 POP POP SWAP3 SWAP2 POP POP JUMP JUMPDEST PUSH1 0x0 DUP1 PUSH1 0x40 DUP4 DUP6 SUB SLT ISZERO PUSH2 0x463 JUMPI PUSH2 0x462 PUSH2 0x780 JUMP JUMPDEST JUMPDEST PUSH1 0x0 PUSH2 0x471 DUP6 DUP3 DUP7 ADD PUSH2 0x3C1 JUMP JUMPDEST SWAP3 POP POP PUSH1 0x20 PUSH2 0x482 DUP6 DUP3 DUP7 ADD PUSH2 0x3C1 JUMP JUMPDEST SWAP2 POP POP SWAP3 POP SWAP3 SWAP1 POP JUMP JUMPDEST PUSH2 0x495 DUP2 PUSH2 0x603 JUMP JUMPDEST DUP3 MSTORE POP POP JUMP JUMPDEST PUSH1 0x0 PUSH2 0x4A6 DUP3 PUSH2 0x591 JUMP JUMPDEST PUSH2 0x4B0 DUP2 DUP6 PUSH2 0x59C JUMP JUMPDEST SWAP4 POP PUSH2 0x4C0 DUP2 DUP6 PUSH1 0x20 DUP7 ADD PUSH2 0x64E JUMP JUMPDEST PUSH2 0x4C9 DUP2 PUSH2 0x785 JUMP JUMPDEST DUP5 ADD SWAP2 POP POP SWAP3 SWAP2 POP POP JUMP JUMPDEST PUSH2 0x4DD DUP2 PUSH2 0x635 JUMP JUMPDEST DUP3 MSTORE POP POP JUMP JUMPDEST PUSH1 0x0 PUSH1 0x20 DUP3 ADD SWAP1 POP PUSH2 0x4F8 PUSH1 0x0 DUP4 ADD DUP5 PUSH2 0x48C JUMP JUMPDEST SWAP3 SWAP2 POP POP JUMP JUMPDEST PUSH1 0x0 PUSH1 0x20 DUP3 ADD SWAP1 POP DUP2 DUP2 SUB PUSH1 0x0 DUP4 ADD MSTORE PUSH2 0x518 DUP2 DUP5 PUSH2 0x49B JUMP JUMPDEST SWAP1 POP SWAP3 SWAP2 POP POP JUMP JUMPDEST PUSH1 0x0 PUSH1 0x20 DUP3 ADD SWAP1 POP PUSH2 0x535 PUSH1 0x0 DUP4 ADD DUP5 PUSH2 0x4D4 JUMP JUMPDEST SWAP3 SWAP2 POP POP JUMP JUMPDEST PUSH1 0x0 PUSH2 0x545 PUSH2 0x556 JUMP JUMPDEST SWAP1 POP PUSH2 0x551 DUP3 DUP3 PUSH2 0x6B3 JUMP JUMPDEST SWAP2 SWAP1 POP JUMP JUMPDEST PUSH1 0x0 PUSH1 0x40 MLOAD SWAP1 POP SWAP1 JUMP JUMPDEST PUSH1 0x0 PUSH8 0xFFFFFFFFFFFFFFFF DUP3 GT ISZERO PUSH2 0x57B JUMPI PUSH2 0x57A PUSH2 0x742 JUMP JUMPDEST JUMPDEST PUSH2 0x584 DUP3 PUSH2 0x785 JUMP JUMPDEST SWAP1 POP PUSH1 0x20 DUP2 ADD SWAP1 POP SWAP2 SWAP1 POP JUMP JUMPDEST PUSH1 0x0 DUP2 MLOAD SWAP1 POP SWAP2 SWAP1 POP JUMP JUMPDEST PUSH1 0x0 DUP3 DUP3 MSTORE PUSH1 0x20 DUP3 ADD SWAP1 POP SWAP3 SWAP2 POP POP JUMP JUMPDEST PUSH1 0x0 PUSH2 0x5B8 DUP3 PUSH2 0x635 JUMP JUMPDEST SWAP2 POP PUSH2 0x5C3 DUP4 PUSH2 0x635 JUMP JUMPDEST SWAP3 POP DUP3 PUSH32 0xFFFFFFFFFFFFFFFFFFFFFFFFFFFFFFFFFFFFFFFFFFFFFFFFFFFFFFFFFFFFFFFF SUB DUP3 GT ISZERO PUSH2 0x5F8 JUMPI PUSH2 0x5F7 PUSH2 0x6E4 JUMP JUMPDEST JUMPDEST DUP3 DUP3 ADD SWAP1 POP SWAP3 SWAP2 POP POP JUMP JUMPDEST PUSH1 0x0 PUSH2 0x60E DUP3 PUSH2 0x615 JUMP JUMPDEST SWAP1 POP SWAP2 SWAP1 POP JUMP JUMPDEST PUSH1 0x0 PUSH20 0xFFFFFFFFFFFFFFFFFFFFFFFFFFFFFFFFFFFFFFFF DUP3 AND SWAP1 POP SWAP2 SWAP1 POP JUMP JUMPDEST PUSH1 0x0 DUP2 SWAP1 POP SWAP2 SWAP1 POP JUMP JUMPDEST DUP3 DUP2 DUP4 CALLDATACOPY PUSH1 0x0 DUP4 DUP4 ADD MSTORE POP POP POP JUMP JUMPDEST PUSH1 0x0 JUMPDEST DUP4 DUP2 LT ISZERO PUSH2 0x66C JUMPI DUP1 DUP3 ADD MLOAD DUP2 DUP5 ADD MSTORE PUSH1 0x20 DUP2 ADD SWAP1 POP PUSH2 0x651 JUMP JUMPDEST DUP4 DUP2 GT ISZERO PUSH2 0x67B JUMPI PUSH1 0x0 DUP5 DUP5 ADD MSTORE JUMPDEST POP POP POP POP JUMP JUMPDEST PUSH1 0x0 PUSH1 0x2 DUP3 DIV SWAP1 POP PUSH1 0x1 DUP3 AND DUP1 PUSH2 0x699 JUMPI PUSH1 0x7F DUP3 AND SWAP2 POP JUMPDEST PUSH1 0x20 DUP3 LT DUP2 EQ ISZERO PUSH2 0x6AD JUMPI PUSH2 0x6AC PUSH2 0x713 JUMP JUMPDEST JUMPDEST POP SWAP2 SWAP1 POP JUMP JUMPDEST PUSH2 0x6BC DUP3 PUSH2 0x785 JUMP JUMPDEST DUP2 ADD DUP2 DUP2 LT PUSH8 0xFFFFFFFFFFFFFFFF DUP3 GT OR ISZERO PUSH2 0x6DB JUMPI PUSH2 0x6DA PUSH2 0x742 JUMP JUMPDEST JUMPDEST DUP1 PUSH1 0x40 MSTORE POP POP POP JUMP JUMPDEST PUSH32 0x4E487B7100000000000000000000000000000000000000000000000000000000 PUSH1 0x0 MSTORE PUSH1 0x11 PUSH1 0x4 MSTORE PUSH1 0x24 PUSH1 0x0 REVERT JUMPDEST PUSH32 0x4E487B7100000000000000000000000000000000000000000000000000000000 PUSH1 0x0 MSTORE PUSH1 0x22 PUSH1 0x4 MSTORE PUSH1 0x24 PUSH1 0x0 REVERT JUMPDEST PUSH32 0x4E487B7100000000000000000000000000000000000000000000000000000000 PUSH1 0x0 MSTORE PUSH1 0x41 PUSH1 0x4 MSTORE PUSH1 0x24 PUSH1 0x0 REVERT JUMPDEST PUSH1 0x0 DUP1 REVERT JUMPDEST PUSH1 0x0 DUP1 REVERT JUMPDEST PUSH1 0x0 DUP1 REVERT JUMPDEST PUSH1 0x0 DUP1 REVERT JUMPDEST PUSH1 0x0 PUSH1 0x1F NOT PUSH1 0x1F DUP4 ADD AND SWAP1 POP SWAP2 SWAP1 POP JUMP JUMPDEST PUSH2 0x79F DUP2 PUSH2 0x603 JUMP JUMPDEST DUP2 EQ PUSH2 0x7AA JUMPI PUSH1 0x0 DUP1 REVERT JUMPDEST POP JUMP JUMPDEST PUSH2 0x7B6 DUP2 PUSH2 0x635 JUMP JUMPDEST DUP2 EQ PUSH2 0x7C1 JUMPI PUSH1 0x0 DUP1 REVERT JUMPDEST POP JUMP INVALID LOG2 PUSH5 0x6970667358 0x22 SLT KECCAK256 POP DUP9 0xE4 0xBB SLOAD 0xCD DIFFICULTY 0xD4 0xF9 DUP7 PUSH21 0x80825B5764E90A8C18E2355A918014E70AC4F655B3 PUSH5 0x736F6C6343 STOP ADDMOD SMOD STOP CALLER "
				},
				"gasEstimates": {
					"creation": {
						"codeDepositCost": "408400",
						"executionCost": "infinite",
						"totalCost": "infinite"
					},
					"external": {
						"changeName(string)": "infinite",
						"getPureName(uint256,uint256)": "infinite",
						"getname()": "infinite",
						"owner()": "2536",
						"sendViaTransfer(address)": "infinite"
					}
				},
				"methodIdentifiers": {
					"changeName(string)": "5353a2d8",
					"getPureName(uint256,uint256)": "a990a7a7",
					"getname()": "c6ea59b9",
					"owner()": "8da5cb5b",
					"sendViaTransfer(address)": "636e082b"
				}
			},
			"storageLayout": {
				"storage": [
					{
						"astId": 4,
						"contract": "contracts/functions.sol:functionsContract",
						"label": "name",
						"offset": 0,
						"slot": "0",
						"type": "t_string_storage"
					},
					{
						"astId": 36,
						"contract": "contracts/functions.sol:functionsContract",
						"label": "owner",
						"offset": 0,
						"slot": "1",
						"type": "t_address_payable"
					}
				],
				"types": {
					"t_address_payable": {
						"encoding": "inplace",
						"label": "address payable",
						"numberOfBytes": "20"
					},
					"t_string_storage": {
						"encoding": "bytes",
						"label": "string",
						"numberOfBytes": "32"
					}
				}
			},
			"userdoc": {
				"kind": "user",
				"methods": {},
				"version": 1
			}
		}
	}
}