{
	"contracts/blog.sol": {
		"blog": {
			"abi": [
				{
					"anonymous": false,
					"inputs": [
						{
							"indexed": true,
							"internalType": "address",
							"name": "user",
							"type": "address"
						},
						{
							"indexed": true,
							"internalType": "string",
							"name": "title",
							"type": "string"
						},
						{
							"indexed": true,
							"internalType": "string",
							"name": "description",
							"type": "string"
						}
					],
					"name": "broadcastDetails",
					"type": "event"
				},
				{
					"inputs": [],
					"name": "counter",
					"outputs": [
						{
							"internalType": "uint256",
							"name": "",
							"type": "uint256"
						}
					],
					"stateMutability": "view",
					"type": "function"
				},
				{
					"inputs": [
						{
							"internalType": "string",
							"name": "_title",
							"type": "string"
						},
						{
							"internalType": "string",
							"name": "_description",
							"type": "string"
						}
					],
					"name": "createPost",
					"outputs": [],
					"stateMutability": "nonpayable",
					"type": "function"
				},
				{
					"inputs": [
						{
							"internalType": "uint256",
							"name": "",
							"type": "uint256"
						}
					],
					"name": "posts",
					"outputs": [
						{
							"internalType": "address",
							"name": "",
							"type": "address"
						}
					],
					"stateMutability": "view",
					"type": "function"
				},
				{
					"inputs": [
						{
							"internalType": "uint256",
							"name": "_id",
							"type": "uint256"
						}
					],
					"name": "readPost",
					"outputs": [
						{
							"components": [
								{
									"internalType": "string",
									"name": "title",
									"type": "string"
								},
								{
									"internalType": "string",
									"name": "description",
									"type": "string"
								},
								{
									"internalType": "address",
									"name": "user",
									"type": "address"
								}
							],
							"internalType": "struct blog.Post",
							"name": "",
							"type": "tuple"
						}
					],
					"stateMutability": "view",
					"type": "function"
				},
				{
					"inputs": [
						{
							"internalType": "uint256",
							"name": "_postID",
							"type": "uint256"
						},
						{
							"internalType": "string",
							"name": "_title",
							"type": "string"
						},
						{
							"internalType": "string",
							"name": "_description",
							"type": "string"
						}
					],
					"name": "updatePost",
					"outputs": [],
					"stateMutability": "nonpayable",
					"type": "function"
				},
				{
					"inputs": [
						{
							"internalType": "uint256",
							"name": "",
							"type": "uint256"
						}
					],
					"name": "userPosts",
					"outputs": [
						{
							"internalType": "string",
							"name": "title",
							"type": "string"
						},
						{
							"internalType": "string",
							"name": "description",
							"type": "string"
						},
						{
							"internalType": "address",
							"name": "user",
							"type": "address"
						}
					],
					"stateMutability": "view",
					"type": "function"
				}
			],
			"devdoc": {
				"kind": "dev",
				"methods": {},
				"version": 1
			},
			"evm": {
				"assembly": "    /* \"contracts/blog.sol\":90:1854  contract blog{\r... */\n  mstore(0x40, 0x80)\n    /* \"contracts/blog.sol\":157:158  0 */\n  0x00\n    /* \"contracts/blog.sol\":135:158  uint public counter = 0 */\n  dup1\n  sstore\n    /* \"contracts/blog.sol\":90:1854  contract blog{\r... */\n  callvalue\n  dup1\n  iszero\n  tag_1\n  jumpi\n  0x00\n  dup1\n  revert\ntag_1:\n  pop\n  dataSize(sub_0)\n  dup1\n  dataOffset(sub_0)\n  0x00\n  codecopy\n  0x00\n  return\nstop\n\nsub_0: assembly {\n        /* \"contracts/blog.sol\":90:1854  contract blog{\r... */\n      mstore(0x40, 0x80)\n      callvalue\n      dup1\n      iszero\n      tag_1\n      jumpi\n      0x00\n      dup1\n      revert\n    tag_1:\n      pop\n      jumpi(tag_2, lt(calldatasize, 0x04))\n      shr(0xe0, calldataload(0x00))\n      dup1\n      0x0b1e7f83\n      eq\n      tag_3\n      jumpi\n      dup1\n      0x392338f5\n      eq\n      tag_4\n      jumpi\n      dup1\n      0x61bc221a\n      eq\n      tag_5\n      jumpi\n      dup1\n      0x66d1cac9\n      eq\n      tag_6\n      jumpi\n      dup1\n      0xca6f69f5\n      eq\n      tag_7\n      jumpi\n      dup1\n      0xfdd6ea71\n      eq\n      tag_8\n      jumpi\n    tag_2:\n      0x00\n      dup1\n      revert\n        /* \"contracts/blog.sol\":559:596  mapping(uint => address) public posts */\n    tag_3:\n      tag_9\n      0x04\n      dup1\n      calldatasize\n      sub\n      dup2\n      add\n      swap1\n      tag_10\n      swap2\n      swap1\n      tag_11\n      jump\t// in\n    tag_10:\n      tag_12\n      jump\t// in\n    tag_9:\n      mload(0x40)\n      tag_13\n      swap2\n      swap1\n      tag_14\n      jump\t// in\n    tag_13:\n      mload(0x40)\n      dup1\n      swap2\n      sub\n      swap1\n      return\n        /* \"contracts/blog.sol\":1152:1453  function createPost(string memory _title,string memory _description)\r... */\n    tag_4:\n      tag_15\n      0x04\n      dup1\n      calldatasize\n      sub\n      dup2\n      add\n      swap1\n      tag_16\n      swap2\n      swap1\n      tag_17\n      jump\t// in\n    tag_16:\n      tag_18\n      jump\t// in\n    tag_15:\n      stop\n        /* \"contracts/blog.sol\":135:158  uint public counter = 0 */\n    tag_5:\n      tag_19\n      tag_20\n      jump\t// in\n    tag_19:\n      mload(0x40)\n      tag_21\n      swap2\n      swap1\n      tag_22\n      jump\t// in\n    tag_21:\n      mload(0x40)\n      dup1\n      swap2\n      sub\n      swap1\n      return\n        /* \"contracts/blog.sol\":1630:1845  function updatePost(uint _postID,string memory _title, string memory _description)\r... */\n    tag_6:\n      tag_23\n      0x04\n      dup1\n      calldatasize\n      sub\n      dup2\n      add\n      swap1\n      tag_24\n      swap2\n      swap1\n      tag_25\n      jump\t// in\n    tag_24:\n      tag_26\n      jump\t// in\n    tag_23:\n      stop\n        /* \"contracts/blog.sol\":1483:1598  function readPost(uint _id)\r... */\n    tag_7:\n      tag_27\n      0x04\n      dup1\n      calldatasize\n      sub\n      dup2\n      add\n      swap1\n      tag_28\n      swap2\n      swap1\n      tag_11\n      jump\t// in\n    tag_28:\n      tag_29\n      jump\t// in\n    tag_27:\n      mload(0x40)\n      tag_30\n      swap2\n      swap1\n      tag_31\n      jump\t// in\n    tag_30:\n      mload(0x40)\n      dup1\n      swap2\n      sub\n      swap1\n      return\n        /* \"contracts/blog.sol\":640:678  mapping(uint => Post) public userPosts */\n    tag_8:\n      tag_32\n      0x04\n      dup1\n      calldatasize\n      sub\n      dup2\n      add\n      swap1\n      tag_33\n      swap2\n      swap1\n      tag_11\n      jump\t// in\n    tag_33:\n      tag_34\n      jump\t// in\n    tag_32:\n      mload(0x40)\n      tag_35\n      swap4\n      swap3\n      swap2\n      swap1\n      tag_36\n      jump\t// in\n    tag_35:\n      mload(0x40)\n      dup1\n      swap2\n      sub\n      swap1\n      return\n        /* \"contracts/blog.sol\":559:596  mapping(uint => address) public posts */\n    tag_12:\n      mstore(0x20, 0x01)\n      dup1\n      0x00\n      mstore\n      keccak256(0x00, 0x40)\n      0x00\n      swap2\n      pop\n      sload\n      swap1\n      0x0100\n      exp\n      swap1\n      div\n      0xffffffffffffffffffffffffffffffffffffffff\n      and\n      dup2\n      jump\t// out\n        /* \"contracts/blog.sol\":1152:1453  function createPost(string memory _title,string memory _description)\r... */\n    tag_18:\n        /* \"contracts/blog.sol\":1274:1310  Post(_title,_description,msg.sender) */\n      mload(0x40)\n      dup1\n      0x60\n      add\n      0x40\n      mstore\n      dup1\n        /* \"contracts/blog.sol\":1279:1285  _title */\n      dup4\n        /* \"contracts/blog.sol\":1274:1310  Post(_title,_description,msg.sender) */\n      dup2\n      mstore\n      0x20\n      add\n        /* \"contracts/blog.sol\":1286:1298  _description */\n      dup3\n        /* \"contracts/blog.sol\":1274:1310  Post(_title,_description,msg.sender) */\n      dup2\n      mstore\n      0x20\n      add\n        /* \"contracts/blog.sol\":1299:1309  msg.sender */\n      caller\n        /* \"contracts/blog.sol\":1274:1310  Post(_title,_description,msg.sender) */\n      0xffffffffffffffffffffffffffffffffffffffff\n      and\n      dup2\n      mstore\n      pop\n        /* \"contracts/blog.sol\":1253:1262  userPosts */\n      0x02\n        /* \"contracts/blog.sol\":1253:1271  userPosts[counter] */\n      0x00\n        /* \"contracts/blog.sol\":1263:1270  counter */\n      dup1\n      sload\n        /* \"contracts/blog.sol\":1253:1271  userPosts[counter] */\n      dup2\n      mstore\n      0x20\n      add\n      swap1\n      dup2\n      mstore\n      0x20\n      add\n      0x00\n      keccak256\n        /* \"contracts/blog.sol\":1253:1310  userPosts[counter] = Post(_title,_description,msg.sender) */\n      0x00\n      dup3\n      add\n      mload\n      dup2\n      0x00\n      add\n      swap1\n      dup1\n      mload\n      swap1\n      0x20\n      add\n      swap1\n      tag_38\n      swap3\n      swap2\n      swap1\n      tag_39\n      jump\t// in\n    tag_38:\n      pop\n      0x20\n      dup3\n      add\n      mload\n      dup2\n      0x01\n      add\n      swap1\n      dup1\n      mload\n      swap1\n      0x20\n      add\n      swap1\n      tag_40\n      swap3\n      swap2\n      swap1\n      tag_39\n      jump\t// in\n    tag_40:\n      pop\n      0x40\n      dup3\n      add\n      mload\n      dup2\n      0x02\n      add\n      exp(0x0100, 0x00)\n      dup2\n      sload\n      dup2\n      0xffffffffffffffffffffffffffffffffffffffff\n      mul\n      not\n      and\n      swap1\n      dup4\n      0xffffffffffffffffffffffffffffffffffffffff\n      and\n      mul\n      or\n      swap1\n      sstore\n      pop\n      swap1\n      pop\n      pop\n        /* \"contracts/blog.sol\":1342:1352  msg.sender */\n      caller\n        /* \"contracts/blog.sol\":1325:1330  posts */\n      0x01\n        /* \"contracts/blog.sol\":1325:1339  posts[counter] */\n      0x00\n        /* \"contracts/blog.sol\":1331:1338  counter */\n      dup1\n      sload\n        /* \"contracts/blog.sol\":1325:1339  posts[counter] */\n      dup2\n      mstore\n      0x20\n      add\n      swap1\n      dup2\n      mstore\n      0x20\n      add\n      0x00\n      keccak256\n      0x00\n        /* \"contracts/blog.sol\":1325:1352  posts[counter] = msg.sender */\n      0x0100\n      exp\n      dup2\n      sload\n      dup2\n      0xffffffffffffffffffffffffffffffffffffffff\n      mul\n      not\n      and\n      swap1\n      dup4\n      0xffffffffffffffffffffffffffffffffffffffff\n      and\n      mul\n      or\n      swap1\n      sstore\n      pop\n        /* \"contracts/blog.sol\":1408:1420  _description */\n      dup1\n        /* \"contracts/blog.sol\":1372:1421  broadcastDetails(msg.sender, _title,_description) */\n      mload(0x40)\n      tag_41\n      swap2\n      swap1\n      tag_42\n      jump\t// in\n    tag_41:\n      mload(0x40)\n      dup1\n      swap2\n      sub\n      swap1\n      keccak256\n        /* \"contracts/blog.sol\":1401:1407  _title */\n      dup3\n        /* \"contracts/blog.sol\":1372:1421  broadcastDetails(msg.sender, _title,_description) */\n      mload(0x40)\n      tag_43\n      swap2\n      swap1\n      tag_42\n      jump\t// in\n    tag_43:\n      mload(0x40)\n      dup1\n      swap2\n      sub\n      swap1\n      keccak256\n        /* \"contracts/blog.sol\":1389:1399  msg.sender */\n      caller\n        /* \"contracts/blog.sol\":1372:1421  broadcastDetails(msg.sender, _title,_description) */\n      0xffffffffffffffffffffffffffffffffffffffff\n      and\n      0x4eacffc497062f11928adc3628e2047cd720623235f6f37529db1d95cc75ecbf\n      mload(0x40)\n      mload(0x40)\n      dup1\n      swap2\n      sub\n      swap1\n      log4\n        /* \"contracts/blog.sol\":1436:1443  counter */\n      0x00\n      dup1\n        /* \"contracts/blog.sol\":1436:1445  counter++ */\n      dup2\n      sload\n      dup1\n      swap3\n      swap2\n      swap1\n      tag_44\n      swap1\n      tag_45\n      jump\t// in\n    tag_44:\n      swap2\n      swap1\n      pop\n      sstore\n      pop\n        /* \"contracts/blog.sol\":1152:1453  function createPost(string memory _title,string memory _description)\r... */\n      pop\n      pop\n      jump\t// out\n        /* \"contracts/blog.sol\":135:158  uint public counter = 0 */\n    tag_20:\n      sload(0x00)\n      dup2\n      jump\t// out\n        /* \"contracts/blog.sol\":1630:1845  function updatePost(uint _postID,string memory _title, string memory _description)\r... */\n    tag_26:\n        /* \"contracts/blog.sol\":1740:1747  _postID */\n      dup3\n        /* \"contracts/blog.sol\":770:779  userPosts */\n      0x02\n        /* \"contracts/blog.sol\":770:788  userPosts[_postID] */\n      0x00\n        /* \"contracts/blog.sol\":780:787  _postID */\n      dup3\n        /* \"contracts/blog.sol\":770:788  userPosts[_postID] */\n      dup2\n      mstore\n      0x20\n      add\n      swap1\n      dup2\n      mstore\n      0x20\n      add\n      0x00\n      keccak256\n        /* \"contracts/blog.sol\":770:793  userPosts[_postID].user */\n      0x02\n      add\n      0x00\n      swap1\n      sload\n      swap1\n      0x0100\n      exp\n      swap1\n      div\n      0xffffffffffffffffffffffffffffffffffffffff\n      and\n        /* \"contracts/blog.sol\":756:793  msg.sender == userPosts[_postID].user */\n      0xffffffffffffffffffffffffffffffffffffffff\n      and\n        /* \"contracts/blog.sol\":756:766  msg.sender */\n      caller\n        /* \"contracts/blog.sol\":756:793  msg.sender == userPosts[_postID].user */\n      0xffffffffffffffffffffffffffffffffffffffff\n      and\n      eq\n        /* \"contracts/blog.sol\":748:832  require(msg.sender == userPosts[_postID].user,'ERROR Because you are not the owner') */\n      tag_47\n      jumpi\n      mload(0x40)\n      0x08c379a000000000000000000000000000000000000000000000000000000000\n      dup2\n      mstore\n      0x04\n      add\n      tag_48\n      swap1\n      tag_49\n      jump\t// in\n    tag_48:\n      mload(0x40)\n      dup1\n      swap2\n      sub\n      swap1\n      revert\n    tag_47:\n        /* \"contracts/blog.sol\":1801:1837  Post(_title,_description,msg.sender) */\n      mload(0x40)\n      dup1\n      0x60\n      add\n      0x40\n      mstore\n      dup1\n        /* \"contracts/blog.sol\":1806:1812  _title */\n      dup5\n        /* \"contracts/blog.sol\":1801:1837  Post(_title,_description,msg.sender) */\n      dup2\n      mstore\n      0x20\n      add\n        /* \"contracts/blog.sol\":1813:1825  _description */\n      dup4\n        /* \"contracts/blog.sol\":1801:1837  Post(_title,_description,msg.sender) */\n      dup2\n      mstore\n      0x20\n      add\n        /* \"contracts/blog.sol\":1826:1836  msg.sender */\n      caller\n        /* \"contracts/blog.sol\":1801:1837  Post(_title,_description,msg.sender) */\n      0xffffffffffffffffffffffffffffffffffffffff\n      and\n      dup2\n      mstore\n      pop\n        /* \"contracts/blog.sol\":1780:1789  userPosts */\n      0x02\n        /* \"contracts/blog.sol\":1780:1798  userPosts[_postID] */\n      0x00\n        /* \"contracts/blog.sol\":1790:1797  _postID */\n      dup7\n        /* \"contracts/blog.sol\":1780:1798  userPosts[_postID] */\n      dup2\n      mstore\n      0x20\n      add\n      swap1\n      dup2\n      mstore\n      0x20\n      add\n      0x00\n      keccak256\n        /* \"contracts/blog.sol\":1780:1837  userPosts[_postID] = Post(_title,_description,msg.sender) */\n      0x00\n      dup3\n      add\n      mload\n      dup2\n      0x00\n      add\n      swap1\n      dup1\n      mload\n      swap1\n      0x20\n      add\n      swap1\n      tag_51\n      swap3\n      swap2\n      swap1\n      tag_39\n      jump\t// in\n    tag_51:\n      pop\n      0x20\n      dup3\n      add\n      mload\n      dup2\n      0x01\n      add\n      swap1\n      dup1\n      mload\n      swap1\n      0x20\n      add\n      swap1\n      tag_52\n      swap3\n      swap2\n      swap1\n      tag_39\n      jump\t// in\n    tag_52:\n      pop\n      0x40\n      dup3\n      add\n      mload\n      dup2\n      0x02\n      add\n      exp(0x0100, 0x00)\n      dup2\n      sload\n      dup2\n      0xffffffffffffffffffffffffffffffffffffffff\n      mul\n      not\n      and\n      swap1\n      dup4\n      0xffffffffffffffffffffffffffffffffffffffff\n      and\n      mul\n      or\n      swap1\n      sstore\n      pop\n      swap1\n      pop\n      pop\n        /* \"contracts/blog.sol\":1630:1845  function updatePost(uint _postID,string memory _title, string memory _description)\r... */\n      pop\n      pop\n      pop\n      pop\n      jump\t// out\n        /* \"contracts/blog.sol\":1483:1598  function readPost(uint _id)\r... */\n    tag_29:\n        /* \"contracts/blog.sol\":1546:1557  Post memory */\n      tag_53\n      tag_54\n      jump\t// in\n    tag_53:\n        /* \"contracts/blog.sol\":1576:1585  userPosts */\n      0x02\n        /* \"contracts/blog.sol\":1576:1590  userPosts[_id] */\n      0x00\n        /* \"contracts/blog.sol\":1586:1589  _id */\n      dup4\n        /* \"contracts/blog.sol\":1576:1590  userPosts[_id] */\n      dup2\n      mstore\n      0x20\n      add\n      swap1\n      dup2\n      mstore\n      0x20\n      add\n      0x00\n      keccak256\n        /* \"contracts/blog.sol\":1569:1590  return userPosts[_id] */\n      mload(0x40)\n      dup1\n      0x60\n      add\n      0x40\n      mstore\n      swap1\n      dup2\n      0x00\n      dup3\n      add\n      dup1\n      sload\n      tag_56\n      swap1\n      tag_57\n      jump\t// in\n    tag_56:\n      dup1\n      0x1f\n      add\n      0x20\n      dup1\n      swap2\n      div\n      mul\n      0x20\n      add\n      mload(0x40)\n      swap1\n      dup2\n      add\n      0x40\n      mstore\n      dup1\n      swap3\n      swap2\n      swap1\n      dup2\n      dup2\n      mstore\n      0x20\n      add\n      dup3\n      dup1\n      sload\n      tag_58\n      swap1\n      tag_57\n      jump\t// in\n    tag_58:\n      dup1\n      iszero\n      tag_59\n      jumpi\n      dup1\n      0x1f\n      lt\n      tag_60\n      jumpi\n      0x0100\n      dup1\n      dup4\n      sload\n      div\n      mul\n      dup4\n      mstore\n      swap2\n      0x20\n      add\n      swap2\n      jump(tag_59)\n    tag_60:\n      dup3\n      add\n      swap2\n      swap1\n      0x00\n      mstore\n      keccak256(0x00, 0x20)\n      swap1\n    tag_61:\n      dup2\n      sload\n      dup2\n      mstore\n      swap1\n      0x01\n      add\n      swap1\n      0x20\n      add\n      dup1\n      dup4\n      gt\n      tag_61\n      jumpi\n      dup3\n      swap1\n      sub\n      0x1f\n      and\n      dup3\n      add\n      swap2\n    tag_59:\n      pop\n      pop\n      pop\n      pop\n      pop\n      dup2\n      mstore\n      0x20\n      add\n      0x01\n      dup3\n      add\n      dup1\n      sload\n      tag_62\n      swap1\n      tag_57\n      jump\t// in\n    tag_62:\n      dup1\n      0x1f\n      add\n      0x20\n      dup1\n      swap2\n      div\n      mul\n      0x20\n      add\n      mload(0x40)\n      swap1\n      dup2\n      add\n      0x40\n      mstore\n      dup1\n      swap3\n      swap2\n      swap1\n      dup2\n      dup2\n      mstore\n      0x20\n      add\n      dup3\n      dup1\n      sload\n      tag_63\n      swap1\n      tag_57\n      jump\t// in\n    tag_63:\n      dup1\n      iszero\n      tag_64\n      jumpi\n      dup1\n      0x1f\n      lt\n      tag_65\n      jumpi\n      0x0100\n      dup1\n      dup4\n      sload\n      div\n      mul\n      dup4\n      mstore\n      swap2\n      0x20\n      add\n      swap2\n      jump(tag_64)\n    tag_65:\n      dup3\n      add\n      swap2\n      swap1\n      0x00\n      mstore\n      keccak256(0x00, 0x20)\n      swap1\n    tag_66:\n      dup2\n      sload\n      dup2\n      mstore\n      swap1\n      0x01\n      add\n      swap1\n      0x20\n      add\n      dup1\n      dup4\n      gt\n      tag_66\n      jumpi\n      dup3\n      swap1\n      sub\n      0x1f\n      and\n      dup3\n      add\n      swap2\n    tag_64:\n      pop\n      pop\n      pop\n      pop\n      pop\n      dup2\n      mstore\n      0x20\n      add\n      0x02\n      dup3\n      add\n      0x00\n      swap1\n      sload\n      swap1\n      0x0100\n      exp\n      swap1\n      div\n      0xffffffffffffffffffffffffffffffffffffffff\n      and\n      0xffffffffffffffffffffffffffffffffffffffff\n      and\n      0xffffffffffffffffffffffffffffffffffffffff\n      and\n      dup2\n      mstore\n      pop\n      pop\n      swap1\n      pop\n        /* \"contracts/blog.sol\":1483:1598  function readPost(uint _id)\r... */\n      swap2\n      swap1\n      pop\n      jump\t// out\n        /* \"contracts/blog.sol\":640:678  mapping(uint => Post) public userPosts */\n    tag_34:\n      mstore(0x20, 0x02)\n      dup1\n      0x00\n      mstore\n      keccak256(0x00, 0x40)\n      0x00\n      swap2\n      pop\n      swap1\n      pop\n      dup1\n      0x00\n      add\n      dup1\n      sload\n      tag_67\n      swap1\n      tag_57\n      jump\t// in\n    tag_67:\n      dup1\n      0x1f\n      add\n      0x20\n      dup1\n      swap2\n      div\n      mul\n      0x20\n      add\n      mload(0x40)\n      swap1\n      dup2\n      add\n      0x40\n      mstore\n      dup1\n      swap3\n      swap2\n      swap1\n      dup2\n      dup2\n      mstore\n      0x20\n      add\n      dup3\n      dup1\n      sload\n      tag_68\n      swap1\n      tag_57\n      jump\t// in\n    tag_68:\n      dup1\n      iszero\n      tag_69\n      jumpi\n      dup1\n      0x1f\n      lt\n      tag_70\n      jumpi\n      0x0100\n      dup1\n      dup4\n      sload\n      div\n      mul\n      dup4\n      mstore\n      swap2\n      0x20\n      add\n      swap2\n      jump(tag_69)\n    tag_70:\n      dup3\n      add\n      swap2\n      swap1\n      0x00\n      mstore\n      keccak256(0x00, 0x20)\n      swap1\n    tag_71:\n      dup2\n      sload\n      dup2\n      mstore\n      swap1\n      0x01\n      add\n      swap1\n      0x20\n      add\n      dup1\n      dup4\n      gt\n      tag_71\n      jumpi\n      dup3\n      swap1\n      sub\n      0x1f\n      and\n      dup3\n      add\n      swap2\n    tag_69:\n      pop\n      pop\n      pop\n      pop\n      pop\n      swap1\n      dup1\n      0x01\n      add\n      dup1\n      sload\n      tag_72\n      swap1\n      tag_57\n      jump\t// in\n    tag_72:\n      dup1\n      0x1f\n      add\n      0x20\n      dup1\n      swap2\n      div\n      mul\n      0x20\n      add\n      mload(0x40)\n      swap1\n      dup2\n      add\n      0x40\n      mstore\n      dup1\n      swap3\n      swap2\n      swap1\n      dup2\n      dup2\n      mstore\n      0x20\n      add\n      dup3\n      dup1\n      sload\n      tag_73\n      swap1\n      tag_57\n      jump\t// in\n    tag_73:\n      dup1\n      iszero\n      tag_74\n      jumpi\n      dup1\n      0x1f\n      lt\n      tag_75\n      jumpi\n      0x0100\n      dup1\n      dup4\n      sload\n      div\n      mul\n      dup4\n      mstore\n      swap2\n      0x20\n      add\n      swap2\n      jump(tag_74)\n    tag_75:\n      dup3\n      add\n      swap2\n      swap1\n      0x00\n      mstore\n      keccak256(0x00, 0x20)\n      swap1\n    tag_76:\n      dup2\n      sload\n      dup2\n      mstore\n      swap1\n      0x01\n      add\n      swap1\n      0x20\n      add\n      dup1\n      dup4\n      gt\n      tag_76\n      jumpi\n      dup3\n      swap1\n      sub\n      0x1f\n      and\n      dup3\n      add\n      swap2\n    tag_74:\n      pop\n      pop\n      pop\n      pop\n      pop\n      swap1\n      dup1\n      0x02\n      add\n      0x00\n      swap1\n      sload\n      swap1\n      0x0100\n      exp\n      swap1\n      div\n      0xffffffffffffffffffffffffffffffffffffffff\n      and\n      swap1\n      pop\n      dup4\n      jump\t// out\n    tag_39:\n      dup3\n      dup1\n      sload\n      tag_77\n      swap1\n      tag_57\n      jump\t// in\n    tag_77:\n      swap1\n      0x00\n      mstore\n      keccak256(0x00, 0x20)\n      swap1\n      0x1f\n      add\n      0x20\n      swap1\n      div\n      dup2\n      add\n      swap3\n      dup3\n      tag_79\n      jumpi\n      0x00\n      dup6\n      sstore\n      jump(tag_78)\n    tag_79:\n      dup3\n      0x1f\n      lt\n      tag_80\n      jumpi\n      dup1\n      mload\n      not(0xff)\n      and\n      dup4\n      dup1\n      add\n      or\n      dup6\n      sstore\n      jump(tag_78)\n    tag_80:\n      dup3\n      dup1\n      add\n      0x01\n      add\n      dup6\n      sstore\n      dup3\n      iszero\n      tag_78\n      jumpi\n      swap2\n      dup3\n      add\n    tag_81:\n      dup3\n      dup2\n      gt\n      iszero\n      tag_82\n      jumpi\n      dup3\n      mload\n      dup3\n      sstore\n      swap2\n      0x20\n      add\n      swap2\n      swap1\n      0x01\n      add\n      swap1\n      jump(tag_81)\n    tag_82:\n    tag_78:\n      pop\n      swap1\n      pop\n      tag_83\n      swap2\n      swap1\n      tag_84\n      jump\t// in\n    tag_83:\n      pop\n      swap1\n      jump\t// out\n    tag_54:\n      mload(0x40)\n      dup1\n      0x60\n      add\n      0x40\n      mstore\n      dup1\n      0x60\n      dup2\n      mstore\n      0x20\n      add\n      0x60\n      dup2\n      mstore\n      0x20\n      add\n      and(0xffffffffffffffffffffffffffffffffffffffff, 0x00)\n      dup2\n      mstore\n      pop\n      swap1\n      jump\t// out\n    tag_84:\n    tag_85:\n      dup1\n      dup3\n      gt\n      iszero\n      tag_86\n      jumpi\n      0x00\n      dup2\n      0x00\n      swap1\n      sstore\n      pop\n      0x01\n      add\n      jump(tag_85)\n    tag_86:\n      pop\n      swap1\n      jump\t// out\n        /* \"#utility.yul\":7:419   */\n    tag_88:\n        /* \"#utility.yul\":85:90   */\n      0x00\n        /* \"#utility.yul\":110:176   */\n      tag_90\n        /* \"#utility.yul\":126:175   */\n      tag_91\n        /* \"#utility.yul\":168:174   */\n      dup5\n        /* \"#utility.yul\":126:175   */\n      tag_92\n      jump\t// in\n    tag_91:\n        /* \"#utility.yul\":110:176   */\n      tag_93\n      jump\t// in\n    tag_90:\n        /* \"#utility.yul\":101:176   */\n      swap1\n      pop\n        /* \"#utility.yul\":199:205   */\n      dup3\n        /* \"#utility.yul\":192:197   */\n      dup2\n        /* \"#utility.yul\":185:206   */\n      mstore\n        /* \"#utility.yul\":237:241   */\n      0x20\n        /* \"#utility.yul\":230:235   */\n      dup2\n        /* \"#utility.yul\":226:242   */\n      add\n        /* \"#utility.yul\":275:278   */\n      dup5\n        /* \"#utility.yul\":266:272   */\n      dup5\n        /* \"#utility.yul\":261:264   */\n      dup5\n        /* \"#utility.yul\":257:273   */\n      add\n        /* \"#utility.yul\":254:279   */\n      gt\n        /* \"#utility.yul\":251:363   */\n      iszero\n      tag_94\n      jumpi\n        /* \"#utility.yul\":282:361   */\n      tag_95\n      tag_96\n      jump\t// in\n    tag_95:\n        /* \"#utility.yul\":251:363   */\n    tag_94:\n        /* \"#utility.yul\":372:413   */\n      tag_97\n        /* \"#utility.yul\":406:412   */\n      dup5\n        /* \"#utility.yul\":401:404   */\n      dup3\n        /* \"#utility.yul\":396:399   */\n      dup6\n        /* \"#utility.yul\":372:413   */\n      tag_98\n      jump\t// in\n    tag_97:\n        /* \"#utility.yul\":91:419   */\n      pop\n        /* \"#utility.yul\":7:419   */\n      swap4\n      swap3\n      pop\n      pop\n      pop\n      jump\t// out\n        /* \"#utility.yul\":439:779   */\n    tag_99:\n        /* \"#utility.yul\":495:500   */\n      0x00\n        /* \"#utility.yul\":544:547   */\n      dup3\n        /* \"#utility.yul\":537:541   */\n      0x1f\n        /* \"#utility.yul\":529:535   */\n      dup4\n        /* \"#utility.yul\":525:542   */\n      add\n        /* \"#utility.yul\":521:548   */\n      slt\n        /* \"#utility.yul\":511:633   */\n      tag_101\n      jumpi\n        /* \"#utility.yul\":552:631   */\n      tag_102\n      tag_103\n      jump\t// in\n    tag_102:\n        /* \"#utility.yul\":511:633   */\n    tag_101:\n        /* \"#utility.yul\":669:675   */\n      dup2\n        /* \"#utility.yul\":656:676   */\n      calldataload\n        /* \"#utility.yul\":694:773   */\n      tag_104\n        /* \"#utility.yul\":769:772   */\n      dup5\n        /* \"#utility.yul\":761:767   */\n      dup3\n        /* \"#utility.yul\":754:758   */\n      0x20\n        /* \"#utility.yul\":746:752   */\n      dup7\n        /* \"#utility.yul\":742:759   */\n      add\n        /* \"#utility.yul\":694:773   */\n      tag_88\n      jump\t// in\n    tag_104:\n        /* \"#utility.yul\":685:773   */\n      swap2\n      pop\n        /* \"#utility.yul\":501:779   */\n      pop\n        /* \"#utility.yul\":439:779   */\n      swap3\n      swap2\n      pop\n      pop\n      jump\t// out\n        /* \"#utility.yul\":785:924   */\n    tag_105:\n        /* \"#utility.yul\":831:836   */\n      0x00\n        /* \"#utility.yul\":869:875   */\n      dup2\n        /* \"#utility.yul\":856:876   */\n      calldataload\n        /* \"#utility.yul\":847:876   */\n      swap1\n      pop\n        /* \"#utility.yul\":885:918   */\n      tag_107\n        /* \"#utility.yul\":912:917   */\n      dup2\n        /* \"#utility.yul\":885:918   */\n      tag_108\n      jump\t// in\n    tag_107:\n        /* \"#utility.yul\":785:924   */\n      swap3\n      swap2\n      pop\n      pop\n      jump\t// out\n        /* \"#utility.yul\":930:1764   */\n    tag_17:\n        /* \"#utility.yul\":1018:1024   */\n      0x00\n        /* \"#utility.yul\":1026:1032   */\n      dup1\n        /* \"#utility.yul\":1075:1077   */\n      0x40\n        /* \"#utility.yul\":1063:1072   */\n      dup4\n        /* \"#utility.yul\":1054:1061   */\n      dup6\n        /* \"#utility.yul\":1050:1073   */\n      sub\n        /* \"#utility.yul\":1046:1078   */\n      slt\n        /* \"#utility.yul\":1043:1162   */\n      iszero\n      tag_110\n      jumpi\n        /* \"#utility.yul\":1081:1160   */\n      tag_111\n      tag_112\n      jump\t// in\n    tag_111:\n        /* \"#utility.yul\":1043:1162   */\n    tag_110:\n        /* \"#utility.yul\":1229:1230   */\n      0x00\n        /* \"#utility.yul\":1218:1227   */\n      dup4\n        /* \"#utility.yul\":1214:1231   */\n      add\n        /* \"#utility.yul\":1201:1232   */\n      calldataload\n        /* \"#utility.yul\":1259:1277   */\n      0xffffffffffffffff\n        /* \"#utility.yul\":1251:1257   */\n      dup2\n        /* \"#utility.yul\":1248:1278   */\n      gt\n        /* \"#utility.yul\":1245:1362   */\n      iszero\n      tag_113\n      jumpi\n        /* \"#utility.yul\":1281:1360   */\n      tag_114\n      tag_115\n      jump\t// in\n    tag_114:\n        /* \"#utility.yul\":1245:1362   */\n    tag_113:\n        /* \"#utility.yul\":1386:1449   */\n      tag_116\n        /* \"#utility.yul\":1441:1448   */\n      dup6\n        /* \"#utility.yul\":1432:1438   */\n      dup3\n        /* \"#utility.yul\":1421:1430   */\n      dup7\n        /* \"#utility.yul\":1417:1439   */\n      add\n        /* \"#utility.yul\":1386:1449   */\n      tag_99\n      jump\t// in\n    tag_116:\n        /* \"#utility.yul\":1376:1449   */\n      swap3\n      pop\n        /* \"#utility.yul\":1172:1459   */\n      pop\n        /* \"#utility.yul\":1526:1528   */\n      0x20\n        /* \"#utility.yul\":1515:1524   */\n      dup4\n        /* \"#utility.yul\":1511:1529   */\n      add\n        /* \"#utility.yul\":1498:1530   */\n      calldataload\n        /* \"#utility.yul\":1557:1575   */\n      0xffffffffffffffff\n        /* \"#utility.yul\":1549:1555   */\n      dup2\n        /* \"#utility.yul\":1546:1576   */\n      gt\n        /* \"#utility.yul\":1543:1660   */\n      iszero\n      tag_117\n      jumpi\n        /* \"#utility.yul\":1579:1658   */\n      tag_118\n      tag_115\n      jump\t// in\n    tag_118:\n        /* \"#utility.yul\":1543:1660   */\n    tag_117:\n        /* \"#utility.yul\":1684:1747   */\n      tag_119\n        /* \"#utility.yul\":1739:1746   */\n      dup6\n        /* \"#utility.yul\":1730:1736   */\n      dup3\n        /* \"#utility.yul\":1719:1728   */\n      dup7\n        /* \"#utility.yul\":1715:1737   */\n      add\n        /* \"#utility.yul\":1684:1747   */\n      tag_99\n      jump\t// in\n    tag_119:\n        /* \"#utility.yul\":1674:1747   */\n      swap2\n      pop\n        /* \"#utility.yul\":1469:1757   */\n      pop\n        /* \"#utility.yul\":930:1764   */\n      swap3\n      pop\n      swap3\n      swap1\n      pop\n      jump\t// out\n        /* \"#utility.yul\":1770:2099   */\n    tag_11:\n        /* \"#utility.yul\":1829:1835   */\n      0x00\n        /* \"#utility.yul\":1878:1880   */\n      0x20\n        /* \"#utility.yul\":1866:1875   */\n      dup3\n        /* \"#utility.yul\":1857:1864   */\n      dup5\n        /* \"#utility.yul\":1853:1876   */\n      sub\n        /* \"#utility.yul\":1849:1881   */\n      slt\n        /* \"#utility.yul\":1846:1965   */\n      iszero\n      tag_121\n      jumpi\n        /* \"#utility.yul\":1884:1963   */\n      tag_122\n      tag_112\n      jump\t// in\n    tag_122:\n        /* \"#utility.yul\":1846:1965   */\n    tag_121:\n        /* \"#utility.yul\":2004:2005   */\n      0x00\n        /* \"#utility.yul\":2029:2082   */\n      tag_123\n        /* \"#utility.yul\":2074:2081   */\n      dup5\n        /* \"#utility.yul\":2065:2071   */\n      dup3\n        /* \"#utility.yul\":2054:2063   */\n      dup6\n        /* \"#utility.yul\":2050:2072   */\n      add\n        /* \"#utility.yul\":2029:2082   */\n      tag_105\n      jump\t// in\n    tag_123:\n        /* \"#utility.yul\":2019:2082   */\n      swap2\n      pop\n        /* \"#utility.yul\":1975:2092   */\n      pop\n        /* \"#utility.yul\":1770:2099   */\n      swap3\n      swap2\n      pop\n      pop\n      jump\t// out\n        /* \"#utility.yul\":2105:3084   */\n    tag_25:\n        /* \"#utility.yul\":2202:2208   */\n      0x00\n        /* \"#utility.yul\":2210:2216   */\n      dup1\n        /* \"#utility.yul\":2218:2224   */\n      0x00\n        /* \"#utility.yul\":2267:2269   */\n      0x60\n        /* \"#utility.yul\":2255:2264   */\n      dup5\n        /* \"#utility.yul\":2246:2253   */\n      dup7\n        /* \"#utility.yul\":2242:2265   */\n      sub\n        /* \"#utility.yul\":2238:2270   */\n      slt\n        /* \"#utility.yul\":2235:2354   */\n      iszero\n      tag_125\n      jumpi\n        /* \"#utility.yul\":2273:2352   */\n      tag_126\n      tag_112\n      jump\t// in\n    tag_126:\n        /* \"#utility.yul\":2235:2354   */\n    tag_125:\n        /* \"#utility.yul\":2393:2394   */\n      0x00\n        /* \"#utility.yul\":2418:2471   */\n      tag_127\n        /* \"#utility.yul\":2463:2470   */\n      dup7\n        /* \"#utility.yul\":2454:2460   */\n      dup3\n        /* \"#utility.yul\":2443:2452   */\n      dup8\n        /* \"#utility.yul\":2439:2461   */\n      add\n        /* \"#utility.yul\":2418:2471   */\n      tag_105\n      jump\t// in\n    tag_127:\n        /* \"#utility.yul\":2408:2471   */\n      swap4\n      pop\n        /* \"#utility.yul\":2364:2481   */\n      pop\n        /* \"#utility.yul\":2548:2550   */\n      0x20\n        /* \"#utility.yul\":2537:2546   */\n      dup5\n        /* \"#utility.yul\":2533:2551   */\n      add\n        /* \"#utility.yul\":2520:2552   */\n      calldataload\n        /* \"#utility.yul\":2579:2597   */\n      0xffffffffffffffff\n        /* \"#utility.yul\":2571:2577   */\n      dup2\n        /* \"#utility.yul\":2568:2598   */\n      gt\n        /* \"#utility.yul\":2565:2682   */\n      iszero\n      tag_128\n      jumpi\n        /* \"#utility.yul\":2601:2680   */\n      tag_129\n      tag_115\n      jump\t// in\n    tag_129:\n        /* \"#utility.yul\":2565:2682   */\n    tag_128:\n        /* \"#utility.yul\":2706:2769   */\n      tag_130\n        /* \"#utility.yul\":2761:2768   */\n      dup7\n        /* \"#utility.yul\":2752:2758   */\n      dup3\n        /* \"#utility.yul\":2741:2750   */\n      dup8\n        /* \"#utility.yul\":2737:2759   */\n      add\n        /* \"#utility.yul\":2706:2769   */\n      tag_99\n      jump\t// in\n    tag_130:\n        /* \"#utility.yul\":2696:2769   */\n      swap3\n      pop\n        /* \"#utility.yul\":2491:2779   */\n      pop\n        /* \"#utility.yul\":2846:2848   */\n      0x40\n        /* \"#utility.yul\":2835:2844   */\n      dup5\n        /* \"#utility.yul\":2831:2849   */\n      add\n        /* \"#utility.yul\":2818:2850   */\n      calldataload\n        /* \"#utility.yul\":2877:2895   */\n      0xffffffffffffffff\n        /* \"#utility.yul\":2869:2875   */\n      dup2\n        /* \"#utility.yul\":2866:2896   */\n      gt\n        /* \"#utility.yul\":2863:2980   */\n      iszero\n      tag_131\n      jumpi\n        /* \"#utility.yul\":2899:2978   */\n      tag_132\n      tag_115\n      jump\t// in\n    tag_132:\n        /* \"#utility.yul\":2863:2980   */\n    tag_131:\n        /* \"#utility.yul\":3004:3067   */\n      tag_133\n        /* \"#utility.yul\":3059:3066   */\n      dup7\n        /* \"#utility.yul\":3050:3056   */\n      dup3\n        /* \"#utility.yul\":3039:3048   */\n      dup8\n        /* \"#utility.yul\":3035:3057   */\n      add\n        /* \"#utility.yul\":3004:3067   */\n      tag_99\n      jump\t// in\n    tag_133:\n        /* \"#utility.yul\":2994:3067   */\n      swap2\n      pop\n        /* \"#utility.yul\":2789:3077   */\n      pop\n        /* \"#utility.yul\":2105:3084   */\n      swap3\n      pop\n      swap3\n      pop\n      swap3\n      jump\t// out\n        /* \"#utility.yul\":3090:3198   */\n    tag_134:\n        /* \"#utility.yul\":3167:3191   */\n      tag_136\n        /* \"#utility.yul\":3185:3190   */\n      dup2\n        /* \"#utility.yul\":3167:3191   */\n      tag_137\n      jump\t// in\n    tag_136:\n        /* \"#utility.yul\":3162:3165   */\n      dup3\n        /* \"#utility.yul\":3155:3192   */\n      mstore\n        /* \"#utility.yul\":3090:3198   */\n      pop\n      pop\n      jump\t// out\n        /* \"#utility.yul\":3204:3322   */\n    tag_138:\n        /* \"#utility.yul\":3291:3315   */\n      tag_140\n        /* \"#utility.yul\":3309:3314   */\n      dup2\n        /* \"#utility.yul\":3291:3315   */\n      tag_137\n      jump\t// in\n    tag_140:\n        /* \"#utility.yul\":3286:3289   */\n      dup3\n        /* \"#utility.yul\":3279:3316   */\n      mstore\n        /* \"#utility.yul\":3204:3322   */\n      pop\n      pop\n      jump\t// out\n        /* \"#utility.yul\":3328:3672   */\n    tag_141:\n        /* \"#utility.yul\":3406:3409   */\n      0x00\n        /* \"#utility.yul\":3434:3473   */\n      tag_143\n        /* \"#utility.yul\":3467:3472   */\n      dup3\n        /* \"#utility.yul\":3434:3473   */\n      tag_144\n      jump\t// in\n    tag_143:\n        /* \"#utility.yul\":3489:3550   */\n      tag_145\n        /* \"#utility.yul\":3543:3549   */\n      dup2\n        /* \"#utility.yul\":3538:3541   */\n      dup6\n        /* \"#utility.yul\":3489:3550   */\n      tag_146\n      jump\t// in\n    tag_145:\n        /* \"#utility.yul\":3482:3550   */\n      swap4\n      pop\n        /* \"#utility.yul\":3559:3611   */\n      tag_147\n        /* \"#utility.yul\":3604:3610   */\n      dup2\n        /* \"#utility.yul\":3599:3602   */\n      dup6\n        /* \"#utility.yul\":3592:3596   */\n      0x20\n        /* \"#utility.yul\":3585:3590   */\n      dup7\n        /* \"#utility.yul\":3581:3597   */\n      add\n        /* \"#utility.yul\":3559:3611   */\n      tag_148\n      jump\t// in\n    tag_147:\n        /* \"#utility.yul\":3636:3665   */\n      tag_149\n        /* \"#utility.yul\":3658:3664   */\n      dup2\n        /* \"#utility.yul\":3636:3665   */\n      tag_150\n      jump\t// in\n    tag_149:\n        /* \"#utility.yul\":3631:3634   */\n      dup5\n        /* \"#utility.yul\":3627:3666   */\n      add\n        /* \"#utility.yul\":3620:3666   */\n      swap2\n      pop\n        /* \"#utility.yul\":3410:3672   */\n      pop\n        /* \"#utility.yul\":3328:3672   */\n      swap3\n      swap2\n      pop\n      pop\n      jump\t// out\n        /* \"#utility.yul\":3678:4042   */\n    tag_151:\n        /* \"#utility.yul\":3766:3769   */\n      0x00\n        /* \"#utility.yul\":3794:3833   */\n      tag_153\n        /* \"#utility.yul\":3827:3832   */\n      dup3\n        /* \"#utility.yul\":3794:3833   */\n      tag_144\n      jump\t// in\n    tag_153:\n        /* \"#utility.yul\":3849:3920   */\n      tag_154\n        /* \"#utility.yul\":3913:3919   */\n      dup2\n        /* \"#utility.yul\":3908:3911   */\n      dup6\n        /* \"#utility.yul\":3849:3920   */\n      tag_155\n      jump\t// in\n    tag_154:\n        /* \"#utility.yul\":3842:3920   */\n      swap4\n      pop\n        /* \"#utility.yul\":3929:3981   */\n      tag_156\n        /* \"#utility.yul\":3974:3980   */\n      dup2\n        /* \"#utility.yul\":3969:3972   */\n      dup6\n        /* \"#utility.yul\":3962:3966   */\n      0x20\n        /* \"#utility.yul\":3955:3960   */\n      dup7\n        /* \"#utility.yul\":3951:3967   */\n      add\n        /* \"#utility.yul\":3929:3981   */\n      tag_148\n      jump\t// in\n    tag_156:\n        /* \"#utility.yul\":4006:4035   */\n      tag_157\n        /* \"#utility.yul\":4028:4034   */\n      dup2\n        /* \"#utility.yul\":4006:4035   */\n      tag_150\n      jump\t// in\n    tag_157:\n        /* \"#utility.yul\":4001:4004   */\n      dup5\n        /* \"#utility.yul\":3997:4036   */\n      add\n        /* \"#utility.yul\":3990:4036   */\n      swap2\n      pop\n        /* \"#utility.yul\":3770:4042   */\n      pop\n        /* \"#utility.yul\":3678:4042   */\n      swap3\n      swap2\n      pop\n      pop\n      jump\t// out\n        /* \"#utility.yul\":4048:4425   */\n    tag_158:\n        /* \"#utility.yul\":4154:4157   */\n      0x00\n        /* \"#utility.yul\":4182:4221   */\n      tag_160\n        /* \"#utility.yul\":4215:4220   */\n      dup3\n        /* \"#utility.yul\":4182:4221   */\n      tag_144\n      jump\t// in\n    tag_160:\n        /* \"#utility.yul\":4237:4326   */\n      tag_161\n        /* \"#utility.yul\":4319:4325   */\n      dup2\n        /* \"#utility.yul\":4314:4317   */\n      dup6\n        /* \"#utility.yul\":4237:4326   */\n      tag_162\n      jump\t// in\n    tag_161:\n        /* \"#utility.yul\":4230:4326   */\n      swap4\n      pop\n        /* \"#utility.yul\":4335:4387   */\n      tag_163\n        /* \"#utility.yul\":4380:4386   */\n      dup2\n        /* \"#utility.yul\":4375:4378   */\n      dup6\n        /* \"#utility.yul\":4368:4372   */\n      0x20\n        /* \"#utility.yul\":4361:4366   */\n      dup7\n        /* \"#utility.yul\":4357:4373   */\n      add\n        /* \"#utility.yul\":4335:4387   */\n      tag_148\n      jump\t// in\n    tag_163:\n        /* \"#utility.yul\":4412:4418   */\n      dup1\n        /* \"#utility.yul\":4407:4410   */\n      dup5\n        /* \"#utility.yul\":4403:4419   */\n      add\n        /* \"#utility.yul\":4396:4419   */\n      swap2\n      pop\n        /* \"#utility.yul\":4158:4425   */\n      pop\n        /* \"#utility.yul\":4048:4425   */\n      swap3\n      swap2\n      pop\n      pop\n      jump\t// out\n        /* \"#utility.yul\":4431:4797   */\n    tag_164:\n        /* \"#utility.yul\":4573:4576   */\n      0x00\n        /* \"#utility.yul\":4594:4661   */\n      tag_166\n        /* \"#utility.yul\":4658:4660   */\n      0x23\n        /* \"#utility.yul\":4653:4656   */\n      dup4\n        /* \"#utility.yul\":4594:4661   */\n      tag_155\n      jump\t// in\n    tag_166:\n        /* \"#utility.yul\":4587:4661   */\n      swap2\n      pop\n        /* \"#utility.yul\":4670:4763   */\n      tag_167\n        /* \"#utility.yul\":4759:4762   */\n      dup3\n        /* \"#utility.yul\":4670:4763   */\n      tag_168\n      jump\t// in\n    tag_167:\n        /* \"#utility.yul\":4788:4790   */\n      0x40\n        /* \"#utility.yul\":4783:4786   */\n      dup3\n        /* \"#utility.yul\":4779:4791   */\n      add\n        /* \"#utility.yul\":4772:4791   */\n      swap1\n      pop\n        /* \"#utility.yul\":4431:4797   */\n      swap2\n      swap1\n      pop\n      jump\t// out\n        /* \"#utility.yul\":4847:5696   */\n    tag_169:\n        /* \"#utility.yul\":4956:4959   */\n      0x00\n        /* \"#utility.yul\":4992:4996   */\n      0x60\n        /* \"#utility.yul\":4987:4990   */\n      dup4\n        /* \"#utility.yul\":4983:4997   */\n      add\n        /* \"#utility.yul\":5080:5084   */\n      0x00\n        /* \"#utility.yul\":5073:5078   */\n      dup4\n        /* \"#utility.yul\":5069:5085   */\n      add\n        /* \"#utility.yul\":5063:5086   */\n      mload\n        /* \"#utility.yul\":5133:5136   */\n      dup5\n        /* \"#utility.yul\":5127:5131   */\n      dup3\n        /* \"#utility.yul\":5123:5137   */\n      sub\n        /* \"#utility.yul\":5116:5120   */\n      0x00\n        /* \"#utility.yul\":5111:5114   */\n      dup7\n        /* \"#utility.yul\":5107:5121   */\n      add\n        /* \"#utility.yul\":5100:5138   */\n      mstore\n        /* \"#utility.yul\":5159:5232   */\n      tag_171\n        /* \"#utility.yul\":5227:5231   */\n      dup3\n        /* \"#utility.yul\":5213:5225   */\n      dup3\n        /* \"#utility.yul\":5159:5232   */\n      tag_141\n      jump\t// in\n    tag_171:\n        /* \"#utility.yul\":5151:5232   */\n      swap2\n      pop\n        /* \"#utility.yul\":5007:5243   */\n      pop\n        /* \"#utility.yul\":5332:5336   */\n      0x20\n        /* \"#utility.yul\":5325:5330   */\n      dup4\n        /* \"#utility.yul\":5321:5337   */\n      add\n        /* \"#utility.yul\":5315:5338   */\n      mload\n        /* \"#utility.yul\":5385:5388   */\n      dup5\n        /* \"#utility.yul\":5379:5383   */\n      dup3\n        /* \"#utility.yul\":5375:5389   */\n      sub\n        /* \"#utility.yul\":5368:5372   */\n      0x20\n        /* \"#utility.yul\":5363:5366   */\n      dup7\n        /* \"#utility.yul\":5359:5373   */\n      add\n        /* \"#utility.yul\":5352:5390   */\n      mstore\n        /* \"#utility.yul\":5411:5484   */\n      tag_172\n        /* \"#utility.yul\":5479:5483   */\n      dup3\n        /* \"#utility.yul\":5465:5477   */\n      dup3\n        /* \"#utility.yul\":5411:5484   */\n      tag_141\n      jump\t// in\n    tag_172:\n        /* \"#utility.yul\":5403:5484   */\n      swap2\n      pop\n        /* \"#utility.yul\":5253:5495   */\n      pop\n        /* \"#utility.yul\":5577:5581   */\n      0x40\n        /* \"#utility.yul\":5570:5575   */\n      dup4\n        /* \"#utility.yul\":5566:5582   */\n      add\n        /* \"#utility.yul\":5560:5583   */\n      mload\n        /* \"#utility.yul\":5596:5659   */\n      tag_173\n        /* \"#utility.yul\":5653:5657   */\n      0x40\n        /* \"#utility.yul\":5648:5651   */\n      dup7\n        /* \"#utility.yul\":5644:5658   */\n      add\n        /* \"#utility.yul\":5630:5642   */\n      dup3\n        /* \"#utility.yul\":5596:5659   */\n      tag_134\n      jump\t// in\n    tag_173:\n        /* \"#utility.yul\":5505:5669   */\n      pop\n        /* \"#utility.yul\":5686:5690   */\n      dup1\n        /* \"#utility.yul\":5679:5690   */\n      swap2\n      pop\n        /* \"#utility.yul\":4961:5696   */\n      pop\n        /* \"#utility.yul\":4847:5696   */\n      swap3\n      swap2\n      pop\n      pop\n      jump\t// out\n        /* \"#utility.yul\":5702:5820   */\n    tag_174:\n        /* \"#utility.yul\":5789:5813   */\n      tag_176\n        /* \"#utility.yul\":5807:5812   */\n      dup2\n        /* \"#utility.yul\":5789:5813   */\n      tag_177\n      jump\t// in\n    tag_176:\n        /* \"#utility.yul\":5784:5787   */\n      dup3\n        /* \"#utility.yul\":5777:5814   */\n      mstore\n        /* \"#utility.yul\":5702:5820   */\n      pop\n      pop\n      jump\t// out\n        /* \"#utility.yul\":5826:6101   */\n    tag_42:\n        /* \"#utility.yul\":5958:5961   */\n      0x00\n        /* \"#utility.yul\":5980:6075   */\n      tag_179\n        /* \"#utility.yul\":6071:6074   */\n      dup3\n        /* \"#utility.yul\":6062:6068   */\n      dup5\n        /* \"#utility.yul\":5980:6075   */\n      tag_158\n      jump\t// in\n    tag_179:\n        /* \"#utility.yul\":5973:6075   */\n      swap2\n      pop\n        /* \"#utility.yul\":6092:6095   */\n      dup2\n        /* \"#utility.yul\":6085:6095   */\n      swap1\n      pop\n        /* \"#utility.yul\":5826:6101   */\n      swap3\n      swap2\n      pop\n      pop\n      jump\t// out\n        /* \"#utility.yul\":6107:6329   */\n    tag_14:\n        /* \"#utility.yul\":6200:6204   */\n      0x00\n        /* \"#utility.yul\":6238:6240   */\n      0x20\n        /* \"#utility.yul\":6227:6236   */\n      dup3\n        /* \"#utility.yul\":6223:6241   */\n      add\n        /* \"#utility.yul\":6215:6241   */\n      swap1\n      pop\n        /* \"#utility.yul\":6251:6322   */\n      tag_181\n        /* \"#utility.yul\":6319:6320   */\n      0x00\n        /* \"#utility.yul\":6308:6317   */\n      dup4\n        /* \"#utility.yul\":6304:6321   */\n      add\n        /* \"#utility.yul\":6295:6301   */\n      dup5\n        /* \"#utility.yul\":6251:6322   */\n      tag_138\n      jump\t// in\n    tag_181:\n        /* \"#utility.yul\":6107:6329   */\n      swap3\n      swap2\n      pop\n      pop\n      jump\t// out\n        /* \"#utility.yul\":6335:6959   */\n    tag_36:\n        /* \"#utility.yul\":6524:6528   */\n      0x00\n        /* \"#utility.yul\":6562:6564   */\n      0x60\n        /* \"#utility.yul\":6551:6560   */\n      dup3\n        /* \"#utility.yul\":6547:6565   */\n      add\n        /* \"#utility.yul\":6539:6565   */\n      swap1\n      pop\n        /* \"#utility.yul\":6611:6620   */\n      dup2\n        /* \"#utility.yul\":6605:6609   */\n      dup2\n        /* \"#utility.yul\":6601:6621   */\n      sub\n        /* \"#utility.yul\":6597:6598   */\n      0x00\n        /* \"#utility.yul\":6586:6595   */\n      dup4\n        /* \"#utility.yul\":6582:6599   */\n      add\n        /* \"#utility.yul\":6575:6622   */\n      mstore\n        /* \"#utility.yul\":6639:6717   */\n      tag_183\n        /* \"#utility.yul\":6712:6716   */\n      dup2\n        /* \"#utility.yul\":6703:6709   */\n      dup7\n        /* \"#utility.yul\":6639:6717   */\n      tag_151\n      jump\t// in\n    tag_183:\n        /* \"#utility.yul\":6631:6717   */\n      swap1\n      pop\n        /* \"#utility.yul\":6764:6773   */\n      dup2\n        /* \"#utility.yul\":6758:6762   */\n      dup2\n        /* \"#utility.yul\":6754:6774   */\n      sub\n        /* \"#utility.yul\":6749:6751   */\n      0x20\n        /* \"#utility.yul\":6738:6747   */\n      dup4\n        /* \"#utility.yul\":6734:6752   */\n      add\n        /* \"#utility.yul\":6727:6775   */\n      mstore\n        /* \"#utility.yul\":6792:6870   */\n      tag_184\n        /* \"#utility.yul\":6865:6869   */\n      dup2\n        /* \"#utility.yul\":6856:6862   */\n      dup6\n        /* \"#utility.yul\":6792:6870   */\n      tag_151\n      jump\t// in\n    tag_184:\n        /* \"#utility.yul\":6784:6870   */\n      swap1\n      pop\n        /* \"#utility.yul\":6880:6952   */\n      tag_185\n        /* \"#utility.yul\":6948:6950   */\n      0x40\n        /* \"#utility.yul\":6937:6946   */\n      dup4\n        /* \"#utility.yul\":6933:6951   */\n      add\n        /* \"#utility.yul\":6924:6930   */\n      dup5\n        /* \"#utility.yul\":6880:6952   */\n      tag_138\n      jump\t// in\n    tag_185:\n        /* \"#utility.yul\":6335:6959   */\n      swap5\n      swap4\n      pop\n      pop\n      pop\n      pop\n      jump\t// out\n        /* \"#utility.yul\":6965:7384   */\n    tag_49:\n        /* \"#utility.yul\":7131:7135   */\n      0x00\n        /* \"#utility.yul\":7169:7171   */\n      0x20\n        /* \"#utility.yul\":7158:7167   */\n      dup3\n        /* \"#utility.yul\":7154:7172   */\n      add\n        /* \"#utility.yul\":7146:7172   */\n      swap1\n      pop\n        /* \"#utility.yul\":7218:7227   */\n      dup2\n        /* \"#utility.yul\":7212:7216   */\n      dup2\n        /* \"#utility.yul\":7208:7228   */\n      sub\n        /* \"#utility.yul\":7204:7205   */\n      0x00\n        /* \"#utility.yul\":7193:7202   */\n      dup4\n        /* \"#utility.yul\":7189:7206   */\n      add\n        /* \"#utility.yul\":7182:7229   */\n      mstore\n        /* \"#utility.yul\":7246:7377   */\n      tag_187\n        /* \"#utility.yul\":7372:7376   */\n      dup2\n        /* \"#utility.yul\":7246:7377   */\n      tag_164\n      jump\t// in\n    tag_187:\n        /* \"#utility.yul\":7238:7377   */\n      swap1\n      pop\n        /* \"#utility.yul\":6965:7384   */\n      swap2\n      swap1\n      pop\n      jump\t// out\n        /* \"#utility.yul\":7390:7743   */\n    tag_31:\n        /* \"#utility.yul\":7523:7527   */\n      0x00\n        /* \"#utility.yul\":7561:7563   */\n      0x20\n        /* \"#utility.yul\":7550:7559   */\n      dup3\n        /* \"#utility.yul\":7546:7564   */\n      add\n        /* \"#utility.yul\":7538:7564   */\n      swap1\n      pop\n        /* \"#utility.yul\":7610:7619   */\n      dup2\n        /* \"#utility.yul\":7604:7608   */\n      dup2\n        /* \"#utility.yul\":7600:7620   */\n      sub\n        /* \"#utility.yul\":7596:7597   */\n      0x00\n        /* \"#utility.yul\":7585:7594   */\n      dup4\n        /* \"#utility.yul\":7581:7598   */\n      add\n        /* \"#utility.yul\":7574:7621   */\n      mstore\n        /* \"#utility.yul\":7638:7736   */\n      tag_189\n        /* \"#utility.yul\":7731:7735   */\n      dup2\n        /* \"#utility.yul\":7722:7728   */\n      dup5\n        /* \"#utility.yul\":7638:7736   */\n      tag_169\n      jump\t// in\n    tag_189:\n        /* \"#utility.yul\":7630:7736   */\n      swap1\n      pop\n        /* \"#utility.yul\":7390:7743   */\n      swap3\n      swap2\n      pop\n      pop\n      jump\t// out\n        /* \"#utility.yul\":7749:7971   */\n    tag_22:\n        /* \"#utility.yul\":7842:7846   */\n      0x00\n        /* \"#utility.yul\":7880:7882   */\n      0x20\n        /* \"#utility.yul\":7869:7878   */\n      dup3\n        /* \"#utility.yul\":7865:7883   */\n      add\n        /* \"#utility.yul\":7857:7883   */\n      swap1\n      pop\n        /* \"#utility.yul\":7893:7964   */\n      tag_191\n        /* \"#utility.yul\":7961:7962   */\n      0x00\n        /* \"#utility.yul\":7950:7959   */\n      dup4\n        /* \"#utility.yul\":7946:7963   */\n      add\n        /* \"#utility.yul\":7937:7943   */\n      dup5\n        /* \"#utility.yul\":7893:7964   */\n      tag_174\n      jump\t// in\n    tag_191:\n        /* \"#utility.yul\":7749:7971   */\n      swap3\n      swap2\n      pop\n      pop\n      jump\t// out\n        /* \"#utility.yul\":7977:8106   */\n    tag_93:\n        /* \"#utility.yul\":8011:8017   */\n      0x00\n        /* \"#utility.yul\":8038:8058   */\n      tag_193\n      tag_194\n      jump\t// in\n    tag_193:\n        /* \"#utility.yul\":8028:8058   */\n      swap1\n      pop\n        /* \"#utility.yul\":8067:8100   */\n      tag_195\n        /* \"#utility.yul\":8095:8099   */\n      dup3\n        /* \"#utility.yul\":8087:8093   */\n      dup3\n        /* \"#utility.yul\":8067:8100   */\n      tag_196\n      jump\t// in\n    tag_195:\n        /* \"#utility.yul\":7977:8106   */\n      swap2\n      swap1\n      pop\n      jump\t// out\n        /* \"#utility.yul\":8112:8187   */\n    tag_194:\n        /* \"#utility.yul\":8145:8151   */\n      0x00\n        /* \"#utility.yul\":8178:8180   */\n      0x40\n        /* \"#utility.yul\":8172:8181   */\n      mload\n        /* \"#utility.yul\":8162:8181   */\n      swap1\n      pop\n        /* \"#utility.yul\":8112:8187   */\n      swap1\n      jump\t// out\n        /* \"#utility.yul\":8193:8501   */\n    tag_92:\n        /* \"#utility.yul\":8255:8259   */\n      0x00\n        /* \"#utility.yul\":8345:8363   */\n      0xffffffffffffffff\n        /* \"#utility.yul\":8337:8343   */\n      dup3\n        /* \"#utility.yul\":8334:8364   */\n      gt\n        /* \"#utility.yul\":8331:8387   */\n      iszero\n      tag_199\n      jumpi\n        /* \"#utility.yul\":8367:8385   */\n      tag_200\n      tag_201\n      jump\t// in\n    tag_200:\n        /* \"#utility.yul\":8331:8387   */\n    tag_199:\n        /* \"#utility.yul\":8405:8434   */\n      tag_202\n        /* \"#utility.yul\":8427:8433   */\n      dup3\n        /* \"#utility.yul\":8405:8434   */\n      tag_150\n      jump\t// in\n    tag_202:\n        /* \"#utility.yul\":8397:8434   */\n      swap1\n      pop\n        /* \"#utility.yul\":8489:8493   */\n      0x20\n        /* \"#utility.yul\":8483:8487   */\n      dup2\n        /* \"#utility.yul\":8479:8494   */\n      add\n        /* \"#utility.yul\":8471:8494   */\n      swap1\n      pop\n        /* \"#utility.yul\":8193:8501   */\n      swap2\n      swap1\n      pop\n      jump\t// out\n        /* \"#utility.yul\":8507:8606   */\n    tag_144:\n        /* \"#utility.yul\":8559:8565   */\n      0x00\n        /* \"#utility.yul\":8593:8598   */\n      dup2\n        /* \"#utility.yul\":8587:8599   */\n      mload\n        /* \"#utility.yul\":8577:8599   */\n      swap1\n      pop\n        /* \"#utility.yul\":8507:8606   */\n      swap2\n      swap1\n      pop\n      jump\t// out\n        /* \"#utility.yul\":8612:8771   */\n    tag_146:\n        /* \"#utility.yul\":8686:8697   */\n      0x00\n        /* \"#utility.yul\":8720:8726   */\n      dup3\n        /* \"#utility.yul\":8715:8718   */\n      dup3\n        /* \"#utility.yul\":8708:8727   */\n      mstore\n        /* \"#utility.yul\":8760:8764   */\n      0x20\n        /* \"#utility.yul\":8755:8758   */\n      dup3\n        /* \"#utility.yul\":8751:8765   */\n      add\n        /* \"#utility.yul\":8736:8765   */\n      swap1\n      pop\n        /* \"#utility.yul\":8612:8771   */\n      swap3\n      swap2\n      pop\n      pop\n      jump\t// out\n        /* \"#utility.yul\":8777:8946   */\n    tag_155:\n        /* \"#utility.yul\":8861:8872   */\n      0x00\n        /* \"#utility.yul\":8895:8901   */\n      dup3\n        /* \"#utility.yul\":8890:8893   */\n      dup3\n        /* \"#utility.yul\":8883:8902   */\n      mstore\n        /* \"#utility.yul\":8935:8939   */\n      0x20\n        /* \"#utility.yul\":8930:8933   */\n      dup3\n        /* \"#utility.yul\":8926:8940   */\n      add\n        /* \"#utility.yul\":8911:8940   */\n      swap1\n      pop\n        /* \"#utility.yul\":8777:8946   */\n      swap3\n      swap2\n      pop\n      pop\n      jump\t// out\n        /* \"#utility.yul\":8952:9100   */\n    tag_162:\n        /* \"#utility.yul\":9054:9065   */\n      0x00\n        /* \"#utility.yul\":9091:9094   */\n      dup2\n        /* \"#utility.yul\":9076:9094   */\n      swap1\n      pop\n        /* \"#utility.yul\":8952:9100   */\n      swap3\n      swap2\n      pop\n      pop\n      jump\t// out\n        /* \"#utility.yul\":9106:9202   */\n    tag_137:\n        /* \"#utility.yul\":9143:9150   */\n      0x00\n        /* \"#utility.yul\":9172:9196   */\n      tag_208\n        /* \"#utility.yul\":9190:9195   */\n      dup3\n        /* \"#utility.yul\":9172:9196   */\n      tag_209\n      jump\t// in\n    tag_208:\n        /* \"#utility.yul\":9161:9196   */\n      swap1\n      pop\n        /* \"#utility.yul\":9106:9202   */\n      swap2\n      swap1\n      pop\n      jump\t// out\n        /* \"#utility.yul\":9208:9334   */\n    tag_209:\n        /* \"#utility.yul\":9245:9252   */\n      0x00\n        /* \"#utility.yul\":9285:9327   */\n      0xffffffffffffffffffffffffffffffffffffffff\n        /* \"#utility.yul\":9278:9283   */\n      dup3\n        /* \"#utility.yul\":9274:9328   */\n      and\n        /* \"#utility.yul\":9263:9328   */\n      swap1\n      pop\n        /* \"#utility.yul\":9208:9334   */\n      swap2\n      swap1\n      pop\n      jump\t// out\n        /* \"#utility.yul\":9340:9417   */\n    tag_177:\n        /* \"#utility.yul\":9377:9384   */\n      0x00\n        /* \"#utility.yul\":9406:9411   */\n      dup2\n        /* \"#utility.yul\":9395:9411   */\n      swap1\n      pop\n        /* \"#utility.yul\":9340:9417   */\n      swap2\n      swap1\n      pop\n      jump\t// out\n        /* \"#utility.yul\":9423:9577   */\n    tag_98:\n        /* \"#utility.yul\":9507:9513   */\n      dup3\n        /* \"#utility.yul\":9502:9505   */\n      dup2\n        /* \"#utility.yul\":9497:9500   */\n      dup4\n        /* \"#utility.yul\":9484:9514   */\n      calldatacopy\n        /* \"#utility.yul\":9569:9570   */\n      0x00\n        /* \"#utility.yul\":9560:9566   */\n      dup4\n        /* \"#utility.yul\":9555:9558   */\n      dup4\n        /* \"#utility.yul\":9551:9567   */\n      add\n        /* \"#utility.yul\":9544:9571   */\n      mstore\n        /* \"#utility.yul\":9423:9577   */\n      pop\n      pop\n      pop\n      jump\t// out\n        /* \"#utility.yul\":9583:9890   */\n    tag_148:\n        /* \"#utility.yul\":9651:9652   */\n      0x00\n        /* \"#utility.yul\":9661:9774   */\n    tag_214:\n        /* \"#utility.yul\":9675:9681   */\n      dup4\n        /* \"#utility.yul\":9672:9673   */\n      dup2\n        /* \"#utility.yul\":9669:9682   */\n      lt\n        /* \"#utility.yul\":9661:9774   */\n      iszero\n      tag_216\n      jumpi\n        /* \"#utility.yul\":9760:9761   */\n      dup1\n        /* \"#utility.yul\":9755:9758   */\n      dup3\n        /* \"#utility.yul\":9751:9762   */\n      add\n        /* \"#utility.yul\":9745:9763   */\n      mload\n        /* \"#utility.yul\":9741:9742   */\n      dup2\n        /* \"#utility.yul\":9736:9739   */\n      dup5\n        /* \"#utility.yul\":9732:9743   */\n      add\n        /* \"#utility.yul\":9725:9764   */\n      mstore\n        /* \"#utility.yul\":9697:9699   */\n      0x20\n        /* \"#utility.yul\":9694:9695   */\n      dup2\n        /* \"#utility.yul\":9690:9700   */\n      add\n        /* \"#utility.yul\":9685:9700   */\n      swap1\n      pop\n        /* \"#utility.yul\":9661:9774   */\n      jump(tag_214)\n    tag_216:\n        /* \"#utility.yul\":9792:9798   */\n      dup4\n        /* \"#utility.yul\":9789:9790   */\n      dup2\n        /* \"#utility.yul\":9786:9799   */\n      gt\n        /* \"#utility.yul\":9783:9884   */\n      iszero\n      tag_217\n      jumpi\n        /* \"#utility.yul\":9872:9873   */\n      0x00\n        /* \"#utility.yul\":9863:9869   */\n      dup5\n        /* \"#utility.yul\":9858:9861   */\n      dup5\n        /* \"#utility.yul\":9854:9870   */\n      add\n        /* \"#utility.yul\":9847:9874   */\n      mstore\n        /* \"#utility.yul\":9783:9884   */\n    tag_217:\n        /* \"#utility.yul\":9632:9890   */\n      pop\n        /* \"#utility.yul\":9583:9890   */\n      pop\n      pop\n      pop\n      jump\t// out\n        /* \"#utility.yul\":9896:10216   */\n    tag_57:\n        /* \"#utility.yul\":9940:9946   */\n      0x00\n        /* \"#utility.yul\":9977:9978   */\n      0x02\n        /* \"#utility.yul\":9971:9975   */\n      dup3\n        /* \"#utility.yul\":9967:9979   */\n      div\n        /* \"#utility.yul\":9957:9979   */\n      swap1\n      pop\n        /* \"#utility.yul\":10024:10025   */\n      0x01\n        /* \"#utility.yul\":10018:10022   */\n      dup3\n        /* \"#utility.yul\":10014:10026   */\n      and\n        /* \"#utility.yul\":10045:10063   */\n      dup1\n        /* \"#utility.yul\":10035:10116   */\n      tag_219\n      jumpi\n        /* \"#utility.yul\":10101:10105   */\n      0x7f\n        /* \"#utility.yul\":10093:10099   */\n      dup3\n        /* \"#utility.yul\":10089:10106   */\n      and\n        /* \"#utility.yul\":10079:10106   */\n      swap2\n      pop\n        /* \"#utility.yul\":10035:10116   */\n    tag_219:\n        /* \"#utility.yul\":10163:10165   */\n      0x20\n        /* \"#utility.yul\":10155:10161   */\n      dup3\n        /* \"#utility.yul\":10152:10166   */\n      lt\n        /* \"#utility.yul\":10132:10150   */\n      dup2\n        /* \"#utility.yul\":10129:10167   */\n      eq\n        /* \"#utility.yul\":10126:10210   */\n      iszero\n      tag_220\n      jumpi\n        /* \"#utility.yul\":10182:10200   */\n      tag_221\n      tag_222\n      jump\t// in\n    tag_221:\n        /* \"#utility.yul\":10126:10210   */\n    tag_220:\n        /* \"#utility.yul\":9947:10216   */\n      pop\n        /* \"#utility.yul\":9896:10216   */\n      swap2\n      swap1\n      pop\n      jump\t// out\n        /* \"#utility.yul\":10222:10503   */\n    tag_196:\n        /* \"#utility.yul\":10305:10332   */\n      tag_224\n        /* \"#utility.yul\":10327:10331   */\n      dup3\n        /* \"#utility.yul\":10305:10332   */\n      tag_150\n      jump\t// in\n    tag_224:\n        /* \"#utility.yul\":10297:10303   */\n      dup2\n        /* \"#utility.yul\":10293:10333   */\n      add\n        /* \"#utility.yul\":10435:10441   */\n      dup2\n        /* \"#utility.yul\":10423:10433   */\n      dup2\n        /* \"#utility.yul\":10420:10442   */\n      lt\n        /* \"#utility.yul\":10399:10417   */\n      0xffffffffffffffff\n        /* \"#utility.yul\":10387:10397   */\n      dup3\n        /* \"#utility.yul\":10384:10418   */\n      gt\n        /* \"#utility.yul\":10381:10443   */\n      or\n        /* \"#utility.yul\":10378:10466   */\n      iszero\n      tag_225\n      jumpi\n        /* \"#utility.yul\":10446:10464   */\n      tag_226\n      tag_201\n      jump\t// in\n    tag_226:\n        /* \"#utility.yul\":10378:10466   */\n    tag_225:\n        /* \"#utility.yul\":10486:10496   */\n      dup1\n        /* \"#utility.yul\":10482:10484   */\n      0x40\n        /* \"#utility.yul\":10475:10497   */\n      mstore\n        /* \"#utility.yul\":10265:10503   */\n      pop\n        /* \"#utility.yul\":10222:10503   */\n      pop\n      pop\n      jump\t// out\n        /* \"#utility.yul\":10509:10742   */\n    tag_45:\n        /* \"#utility.yul\":10548:10551   */\n      0x00\n        /* \"#utility.yul\":10571:10595   */\n      tag_228\n        /* \"#utility.yul\":10589:10594   */\n      dup3\n        /* \"#utility.yul\":10571:10595   */\n      tag_177\n      jump\t// in\n    tag_228:\n        /* \"#utility.yul\":10562:10595   */\n      swap2\n      pop\n        /* \"#utility.yul\":10617:10683   */\n      0xffffffffffffffffffffffffffffffffffffffffffffffffffffffffffffffff\n        /* \"#utility.yul\":10610:10615   */\n      dup3\n        /* \"#utility.yul\":10607:10684   */\n      eq\n        /* \"#utility.yul\":10604:10707   */\n      iszero\n      tag_229\n      jumpi\n        /* \"#utility.yul\":10687:10705   */\n      tag_230\n      tag_231\n      jump\t// in\n    tag_230:\n        /* \"#utility.yul\":10604:10707   */\n    tag_229:\n        /* \"#utility.yul\":10734:10735   */\n      0x01\n        /* \"#utility.yul\":10727:10732   */\n      dup3\n        /* \"#utility.yul\":10723:10736   */\n      add\n        /* \"#utility.yul\":10716:10736   */\n      swap1\n      pop\n        /* \"#utility.yul\":10509:10742   */\n      swap2\n      swap1\n      pop\n      jump\t// out\n        /* \"#utility.yul\":10748:10928   */\n    tag_231:\n        /* \"#utility.yul\":10796:10873   */\n      0x4e487b7100000000000000000000000000000000000000000000000000000000\n        /* \"#utility.yul\":10793:10794   */\n      0x00\n        /* \"#utility.yul\":10786:10874   */\n      mstore\n        /* \"#utility.yul\":10893:10897   */\n      0x11\n        /* \"#utility.yul\":10890:10891   */\n      0x04\n        /* \"#utility.yul\":10883:10898   */\n      mstore\n        /* \"#utility.yul\":10917:10921   */\n      0x24\n        /* \"#utility.yul\":10914:10915   */\n      0x00\n        /* \"#utility.yul\":10907:10922   */\n      revert\n        /* \"#utility.yul\":10934:11114   */\n    tag_222:\n        /* \"#utility.yul\":10982:11059   */\n      0x4e487b7100000000000000000000000000000000000000000000000000000000\n        /* \"#utility.yul\":10979:10980   */\n      0x00\n        /* \"#utility.yul\":10972:11060   */\n      mstore\n        /* \"#utility.yul\":11079:11083   */\n      0x22\n        /* \"#utility.yul\":11076:11077   */\n      0x04\n        /* \"#utility.yul\":11069:11084   */\n      mstore\n        /* \"#utility.yul\":11103:11107   */\n      0x24\n        /* \"#utility.yul\":11100:11101   */\n      0x00\n        /* \"#utility.yul\":11093:11108   */\n      revert\n        /* \"#utility.yul\":11120:11300   */\n    tag_201:\n        /* \"#utility.yul\":11168:11245   */\n      0x4e487b7100000000000000000000000000000000000000000000000000000000\n        /* \"#utility.yul\":11165:11166   */\n      0x00\n        /* \"#utility.yul\":11158:11246   */\n      mstore\n        /* \"#utility.yul\":11265:11269   */\n      0x41\n        /* \"#utility.yul\":11262:11263   */\n      0x04\n        /* \"#utility.yul\":11255:11270   */\n      mstore\n        /* \"#utility.yul\":11289:11293   */\n      0x24\n        /* \"#utility.yul\":11286:11287   */\n      0x00\n        /* \"#utility.yul\":11279:11294   */\n      revert\n        /* \"#utility.yul\":11306:11423   */\n    tag_103:\n        /* \"#utility.yul\":11415:11416   */\n      0x00\n        /* \"#utility.yul\":11412:11413   */\n      dup1\n        /* \"#utility.yul\":11405:11417   */\n      revert\n        /* \"#utility.yul\":11429:11546   */\n    tag_96:\n        /* \"#utility.yul\":11538:11539   */\n      0x00\n        /* \"#utility.yul\":11535:11536   */\n      dup1\n        /* \"#utility.yul\":11528:11540   */\n      revert\n        /* \"#utility.yul\":11552:11669   */\n    tag_115:\n        /* \"#utility.yul\":11661:11662   */\n      0x00\n        /* \"#utility.yul\":11658:11659   */\n      dup1\n        /* \"#utility.yul\":11651:11663   */\n      revert\n        /* \"#utility.yul\":11675:11792   */\n    tag_112:\n        /* \"#utility.yul\":11784:11785   */\n      0x00\n        /* \"#utility.yul\":11781:11782   */\n      dup1\n        /* \"#utility.yul\":11774:11786   */\n      revert\n        /* \"#utility.yul\":11798:11900   */\n    tag_150:\n        /* \"#utility.yul\":11839:11845   */\n      0x00\n        /* \"#utility.yul\":11890:11892   */\n      0x1f\n        /* \"#utility.yul\":11886:11893   */\n      not\n        /* \"#utility.yul\":11881:11883   */\n      0x1f\n        /* \"#utility.yul\":11874:11879   */\n      dup4\n        /* \"#utility.yul\":11870:11884   */\n      add\n        /* \"#utility.yul\":11866:11894   */\n      and\n        /* \"#utility.yul\":11856:11894   */\n      swap1\n      pop\n        /* \"#utility.yul\":11798:11900   */\n      swap2\n      swap1\n      pop\n      jump\t// out\n        /* \"#utility.yul\":11906:12128   */\n    tag_168:\n        /* \"#utility.yul\":12046:12080   */\n      0x4552524f52204265636175736520796f7520617265206e6f7420746865206f77\n        /* \"#utility.yul\":12042:12043   */\n      0x00\n        /* \"#utility.yul\":12034:12040   */\n      dup3\n        /* \"#utility.yul\":12030:12044   */\n      add\n        /* \"#utility.yul\":12023:12081   */\n      mstore\n        /* \"#utility.yul\":12115:12120   */\n      0x6e65720000000000000000000000000000000000000000000000000000000000\n        /* \"#utility.yul\":12110:12112   */\n      0x20\n        /* \"#utility.yul\":12102:12108   */\n      dup3\n        /* \"#utility.yul\":12098:12113   */\n      add\n        /* \"#utility.yul\":12091:12121   */\n      mstore\n        /* \"#utility.yul\":11906:12128   */\n      pop\n      jump\t// out\n        /* \"#utility.yul\":12134:12256   */\n    tag_108:\n        /* \"#utility.yul\":12207:12231   */\n      tag_242\n        /* \"#utility.yul\":12225:12230   */\n      dup2\n        /* \"#utility.yul\":12207:12231   */\n      tag_177\n      jump\t// in\n    tag_242:\n        /* \"#utility.yul\":12200:12205   */\n      dup2\n        /* \"#utility.yul\":12197:12232   */\n      eq\n        /* \"#utility.yul\":12187:12250   */\n      tag_243\n      jumpi\n        /* \"#utility.yul\":12246:12247   */\n      0x00\n        /* \"#utility.yul\":12243:12244   */\n      dup1\n        /* \"#utility.yul\":12236:12248   */\n      revert\n        /* \"#utility.yul\":12187:12250   */\n    tag_243:\n        /* \"#utility.yul\":12134:12256   */\n      pop\n      jump\t// out\n\n    auxdata: 0xa26469706673582212200740b1aa43de6bf3cb37d4d3d42c103e8a814acb6ce6eeb61ff564c7d5b35dcb64736f6c63430008070033\n}\n",
				"bytecode": {
					"linkReferences": {},
					"object": "60806040526000805534801561001457600080fd5b50610f55806100246000396000f3fe608060405234801561001057600080fd5b50600436106100625760003560e01c80630b1e7f8314610067578063392338f51461009757806361bc221a146100b357806366d1cac9146100d1578063ca6f69f5146100ed578063fdd6ea711461011d575b600080fd5b610081600480360381019061007c9190610979565b61014f565b60405161008e9190610b92565b60405180910390f35b6100b160048036038101906100ac9190610901565b610182565b005b6100bb610328565b6040516100c89190610c34565b60405180910390f35b6100eb60048036038101906100e691906109a6565b61032e565b005b61010760048036038101906101029190610979565b6104a1565b6040516101149190610c12565b60405180910390f35b61013760048036038101906101329190610979565b610648565b60405161014693929190610bad565b60405180910390f35b60016020528060005260406000206000915054906101000a900473ffffffffffffffffffffffffffffffffffffffff1681565b60405180606001604052808381526020018281526020013373ffffffffffffffffffffffffffffffffffffffff16815250600260008054815260200190815260200160002060008201518160000190805190602001906101e39291906107a2565b5060208201518160010190805190602001906102009291906107a2565b5060408201518160020160006101000a81548173ffffffffffffffffffffffffffffffffffffffff021916908373ffffffffffffffffffffffffffffffffffffffff16021790555090505033600160008054815260200190815260200160002060006101000a81548173ffffffffffffffffffffffffffffffffffffffff021916908373ffffffffffffffffffffffffffffffffffffffff160217905550806040516102ac9190610b7b565b6040518091039020826040516102c29190610b7b565b60405180910390203373ffffffffffffffffffffffffffffffffffffffff167f4eacffc497062f11928adc3628e2047cd720623235f6f37529db1d95cc75ecbf60405160405180910390a460008081548092919061031f90610dbe565b91905055505050565b60005481565b826002600082815260200190815260200160002060020160009054906101000a900473ffffffffffffffffffffffffffffffffffffffff1673ffffffffffffffffffffffffffffffffffffffff163373ffffffffffffffffffffffffffffffffffffffff16146103d3576040517f08c379a00000000000000000000000000000000000000000000000000000000081526004016103ca90610bf2565b60405180910390fd5b60405180606001604052808481526020018381526020013373ffffffffffffffffffffffffffffffffffffffff168152506002600086815260200190815260200160002060008201518160000190805190602001906104339291906107a2565b5060208201518160010190805190602001906104509291906107a2565b5060408201518160020160006101000a81548173ffffffffffffffffffffffffffffffffffffffff021916908373ffffffffffffffffffffffffffffffffffffffff16021790555090505050505050565b6104a9610828565b600260008381526020019081526020016000206040518060600160405290816000820180546104d790610d5b565b80601f016020809104026020016040519081016040528092919081815260200182805461050390610d5b565b80156105505780601f1061052557610100808354040283529160200191610550565b820191906000526020600020905b81548152906001019060200180831161053357829003601f168201915b5050505050815260200160018201805461056990610d5b565b80601f016020809104026020016040519081016040528092919081815260200182805461059590610d5b565b80156105e25780601f106105b7576101008083540402835291602001916105e2565b820191906000526020600020905b8154815290600101906020018083116105c557829003601f168201915b505050505081526020016002820160009054906101000a900473ffffffffffffffffffffffffffffffffffffffff1673ffffffffffffffffffffffffffffffffffffffff1673ffffffffffffffffffffffffffffffffffffffff16815250509050919050565b600260205280600052604060002060009150905080600001805461066b90610d5b565b80601f016020809104026020016040519081016040528092919081815260200182805461069790610d5b565b80156106e45780601f106106b9576101008083540402835291602001916106e4565b820191906000526020600020905b8154815290600101906020018083116106c757829003601f168201915b5050505050908060010180546106f990610d5b565b80601f016020809104026020016040519081016040528092919081815260200182805461072590610d5b565b80156107725780601f1061074757610100808354040283529160200191610772565b820191906000526020600020905b81548152906001019060200180831161075557829003601f168201915b5050505050908060020160009054906101000a900473ffffffffffffffffffffffffffffffffffffffff16905083565b8280546107ae90610d5b565b90600052602060002090601f0160209004810192826107d05760008555610817565b82601f106107e957805160ff1916838001178555610817565b82800160010185558215610817579182015b828111156108165782518255916020019190600101906107fb565b5b509050610824919061085f565b5090565b60405180606001604052806060815260200160608152602001600073ffffffffffffffffffffffffffffffffffffffff1681525090565b5b80821115610878576000816000905550600101610860565b5090565b600061088f61088a84610c74565b610c4f565b9050828152602081018484840111156108ab576108aa610e99565b5b6108b6848285610d19565b509392505050565b600082601f8301126108d3576108d2610e94565b5b81356108e384826020860161087c565b91505092915050565b6000813590506108fb81610f08565b92915050565b6000806040838503121561091857610917610ea3565b5b600083013567ffffffffffffffff81111561093657610935610e9e565b5b610942858286016108be565b925050602083013567ffffffffffffffff81111561096357610962610e9e565b5b61096f858286016108be565b9150509250929050565b60006020828403121561098f5761098e610ea3565b5b600061099d848285016108ec565b91505092915050565b6000806000606084860312156109bf576109be610ea3565b5b60006109cd868287016108ec565b935050602084013567ffffffffffffffff8111156109ee576109ed610e9e565b5b6109fa868287016108be565b925050604084013567ffffffffffffffff811115610a1b57610a1a610e9e565b5b610a27868287016108be565b9150509250925092565b610a3a81610cdd565b82525050565b610a4981610cdd565b82525050565b6000610a5a82610ca5565b610a648185610cb0565b9350610a74818560208601610d28565b610a7d81610ea8565b840191505092915050565b6000610a9382610ca5565b610a9d8185610cc1565b9350610aad818560208601610d28565b610ab681610ea8565b840191505092915050565b6000610acc82610ca5565b610ad68185610cd2565b9350610ae6818560208601610d28565b80840191505092915050565b6000610aff602383610cc1565b9150610b0a82610eb9565b604082019050919050565b60006060830160008301518482036000860152610b328282610a4f565b91505060208301518482036020860152610b4c8282610a4f565b9150506040830151610b616040860182610a31565b508091505092915050565b610b7581610d0f565b82525050565b6000610b878284610ac1565b915081905092915050565b6000602082019050610ba76000830184610a40565b92915050565b60006060820190508181036000830152610bc78186610a88565b90508181036020830152610bdb8185610a88565b9050610bea6040830184610a40565b949350505050565b60006020820190508181036000830152610c0b81610af2565b9050919050565b60006020820190508181036000830152610c2c8184610b15565b905092915050565b6000602082019050610c496000830184610b6c565b92915050565b6000610c59610c6a565b9050610c658282610d8d565b919050565b6000604051905090565b600067ffffffffffffffff821115610c8f57610c8e610e65565b5b610c9882610ea8565b9050602081019050919050565b600081519050919050565b600082825260208201905092915050565b600082825260208201905092915050565b600081905092915050565b6000610ce882610cef565b9050919050565b600073ffffffffffffffffffffffffffffffffffffffff82169050919050565b6000819050919050565b82818337600083830152505050565b60005b83811015610d46578082015181840152602081019050610d2b565b83811115610d55576000848401525b50505050565b60006002820490506001821680610d7357607f821691505b60208210811415610d8757610d86610e36565b5b50919050565b610d9682610ea8565b810181811067ffffffffffffffff82111715610db557610db4610e65565b5b80604052505050565b6000610dc982610d0f565b91507fffffffffffffffffffffffffffffffffffffffffffffffffffffffffffffffff821415610dfc57610dfb610e07565b5b600182019050919050565b7f4e487b7100000000000000000000000000000000000000000000000000000000600052601160045260246000fd5b7f4e487b7100000000000000000000000000000000000000000000000000000000600052602260045260246000fd5b7f4e487b7100000000000000000000000000000000000000000000000000000000600052604160045260246000fd5b600080fd5b600080fd5b600080fd5b600080fd5b6000601f19601f8301169050919050565b7f4552524f52204265636175736520796f7520617265206e6f7420746865206f7760008201527f6e65720000000000000000000000000000000000000000000000000000000000602082015250565b610f1181610d0f565b8114610f1c57600080fd5b5056fea26469706673582212200740b1aa43de6bf3cb37d4d3d42c103e8a814acb6ce6eeb61ff564c7d5b35dcb64736f6c63430008070033",
					"opcodes": "PUSH1 0x80 PUSH1 0x40 MSTORE PUSH1 0x0 DUP1 SSTORE CALLVALUE DUP1 ISZERO PUSH2 0x14 JUMPI PUSH1 0x0 DUP1 REVERT JUMPDEST POP PUSH2 0xF55 DUP1 PUSH2 0x24 PUSH1 0x0 CODECOPY PUSH1 0x0 RETURN INVALID PUSH1 0x80 PUSH1 0x40 MSTORE CALLVALUE DUP1 ISZERO PUSH2 0x10 JUMPI PUSH1 0x0 DUP1 REVERT JUMPDEST POP PUSH1 0x4 CALLDATASIZE LT PUSH2 0x62 JUMPI PUSH1 0x0 CALLDATALOAD PUSH1 0xE0 SHR DUP1 PUSH4 0xB1E7F83 EQ PUSH2 0x67 JUMPI DUP1 PUSH4 0x392338F5 EQ PUSH2 0x97 JUMPI DUP1 PUSH4 0x61BC221A EQ PUSH2 0xB3 JUMPI DUP1 PUSH4 0x66D1CAC9 EQ PUSH2 0xD1 JUMPI DUP1 PUSH4 0xCA6F69F5 EQ PUSH2 0xED JUMPI DUP1 PUSH4 0xFDD6EA71 EQ PUSH2 0x11D JUMPI JUMPDEST PUSH1 0x0 DUP1 REVERT JUMPDEST PUSH2 0x81 PUSH1 0x4 DUP1 CALLDATASIZE SUB DUP2 ADD SWAP1 PUSH2 0x7C SWAP2 SWAP1 PUSH2 0x979 JUMP JUMPDEST PUSH2 0x14F JUMP JUMPDEST PUSH1 0x40 MLOAD PUSH2 0x8E SWAP2 SWAP1 PUSH2 0xB92 JUMP JUMPDEST PUSH1 0x40 MLOAD DUP1 SWAP2 SUB SWAP1 RETURN JUMPDEST PUSH2 0xB1 PUSH1 0x4 DUP1 CALLDATASIZE SUB DUP2 ADD SWAP1 PUSH2 0xAC SWAP2 SWAP1 PUSH2 0x901 JUMP JUMPDEST PUSH2 0x182 JUMP JUMPDEST STOP JUMPDEST PUSH2 0xBB PUSH2 0x328 JUMP JUMPDEST PUSH1 0x40 MLOAD PUSH2 0xC8 SWAP2 SWAP1 PUSH2 0xC34 JUMP JUMPDEST PUSH1 0x40 MLOAD DUP1 SWAP2 SUB SWAP1 RETURN JUMPDEST PUSH2 0xEB PUSH1 0x4 DUP1 CALLDATASIZE SUB DUP2 ADD SWAP1 PUSH2 0xE6 SWAP2 SWAP1 PUSH2 0x9A6 JUMP JUMPDEST PUSH2 0x32E JUMP JUMPDEST STOP JUMPDEST PUSH2 0x107 PUSH1 0x4 DUP1 CALLDATASIZE SUB DUP2 ADD SWAP1 PUSH2 0x102 SWAP2 SWAP1 PUSH2 0x979 JUMP JUMPDEST PUSH2 0x4A1 JUMP JUMPDEST PUSH1 0x40 MLOAD PUSH2 0x114 SWAP2 SWAP1 PUSH2 0xC12 JUMP JUMPDEST PUSH1 0x40 MLOAD DUP1 SWAP2 SUB SWAP1 RETURN JUMPDEST PUSH2 0x137 PUSH1 0x4 DUP1 CALLDATASIZE SUB DUP2 ADD SWAP1 PUSH2 0x132 SWAP2 SWAP1 PUSH2 0x979 JUMP JUMPDEST PUSH2 0x648 JUMP JUMPDEST PUSH1 0x40 MLOAD PUSH2 0x146 SWAP4 SWAP3 SWAP2 SWAP1 PUSH2 0xBAD JUMP JUMPDEST PUSH1 0x40 MLOAD DUP1 SWAP2 SUB SWAP1 RETURN JUMPDEST PUSH1 0x1 PUSH1 0x20 MSTORE DUP1 PUSH1 0x0 MSTORE PUSH1 0x40 PUSH1 0x0 KECCAK256 PUSH1 0x0 SWAP2 POP SLOAD SWAP1 PUSH2 0x100 EXP SWAP1 DIV PUSH20 0xFFFFFFFFFFFFFFFFFFFFFFFFFFFFFFFFFFFFFFFF AND DUP2 JUMP JUMPDEST PUSH1 0x40 MLOAD DUP1 PUSH1 0x60 ADD PUSH1 0x40 MSTORE DUP1 DUP4 DUP2 MSTORE PUSH1 0x20 ADD DUP3 DUP2 MSTORE PUSH1 0x20 ADD CALLER PUSH20 0xFFFFFFFFFFFFFFFFFFFFFFFFFFFFFFFFFFFFFFFF AND DUP2 MSTORE POP PUSH1 0x2 PUSH1 0x0 DUP1 SLOAD DUP2 MSTORE PUSH1 0x20 ADD SWAP1 DUP2 MSTORE PUSH1 0x20 ADD PUSH1 0x0 KECCAK256 PUSH1 0x0 DUP3 ADD MLOAD DUP2 PUSH1 0x0 ADD SWAP1 DUP1 MLOAD SWAP1 PUSH1 0x20 ADD SWAP1 PUSH2 0x1E3 SWAP3 SWAP2 SWAP1 PUSH2 0x7A2 JUMP JUMPDEST POP PUSH1 0x20 DUP3 ADD MLOAD DUP2 PUSH1 0x1 ADD SWAP1 DUP1 MLOAD SWAP1 PUSH1 0x20 ADD SWAP1 PUSH2 0x200 SWAP3 SWAP2 SWAP1 PUSH2 0x7A2 JUMP JUMPDEST POP PUSH1 0x40 DUP3 ADD MLOAD DUP2 PUSH1 0x2 ADD PUSH1 0x0 PUSH2 0x100 EXP DUP2 SLOAD DUP2 PUSH20 0xFFFFFFFFFFFFFFFFFFFFFFFFFFFFFFFFFFFFFFFF MUL NOT AND SWAP1 DUP4 PUSH20 0xFFFFFFFFFFFFFFFFFFFFFFFFFFFFFFFFFFFFFFFF AND MUL OR SWAP1 SSTORE POP SWAP1 POP POP CALLER PUSH1 0x1 PUSH1 0x0 DUP1 SLOAD DUP2 MSTORE PUSH1 0x20 ADD SWAP1 DUP2 MSTORE PUSH1 0x20 ADD PUSH1 0x0 KECCAK256 PUSH1 0x0 PUSH2 0x100 EXP DUP2 SLOAD DUP2 PUSH20 0xFFFFFFFFFFFFFFFFFFFFFFFFFFFFFFFFFFFFFFFF MUL NOT AND SWAP1 DUP4 PUSH20 0xFFFFFFFFFFFFFFFFFFFFFFFFFFFFFFFFFFFFFFFF AND MUL OR SWAP1 SSTORE POP DUP1 PUSH1 0x40 MLOAD PUSH2 0x2AC SWAP2 SWAP1 PUSH2 0xB7B JUMP JUMPDEST PUSH1 0x40 MLOAD DUP1 SWAP2 SUB SWAP1 KECCAK256 DUP3 PUSH1 0x40 MLOAD PUSH2 0x2C2 SWAP2 SWAP1 PUSH2 0xB7B JUMP JUMPDEST PUSH1 0x40 MLOAD DUP1 SWAP2 SUB SWAP1 KECCAK256 CALLER PUSH20 0xFFFFFFFFFFFFFFFFFFFFFFFFFFFFFFFFFFFFFFFF AND PUSH32 0x4EACFFC497062F11928ADC3628E2047CD720623235F6F37529DB1D95CC75ECBF PUSH1 0x40 MLOAD PUSH1 0x40 MLOAD DUP1 SWAP2 SUB SWAP1 LOG4 PUSH1 0x0 DUP1 DUP2 SLOAD DUP1 SWAP3 SWAP2 SWAP1 PUSH2 0x31F SWAP1 PUSH2 0xDBE JUMP JUMPDEST SWAP2 SWAP1 POP SSTORE POP POP POP JUMP JUMPDEST PUSH1 0x0 SLOAD DUP2 JUMP JUMPDEST DUP3 PUSH1 0x2 PUSH1 0x0 DUP3 DUP2 MSTORE PUSH1 0x20 ADD SWAP1 DUP2 MSTORE PUSH1 0x20 ADD PUSH1 0x0 KECCAK256 PUSH1 0x2 ADD PUSH1 0x0 SWAP1 SLOAD SWAP1 PUSH2 0x100 EXP SWAP1 DIV PUSH20 0xFFFFFFFFFFFFFFFFFFFFFFFFFFFFFFFFFFFFFFFF AND PUSH20 0xFFFFFFFFFFFFFFFFFFFFFFFFFFFFFFFFFFFFFFFF AND CALLER PUSH20 0xFFFFFFFFFFFFFFFFFFFFFFFFFFFFFFFFFFFFFFFF AND EQ PUSH2 0x3D3 JUMPI PUSH1 0x40 MLOAD PUSH32 0x8C379A000000000000000000000000000000000000000000000000000000000 DUP2 MSTORE PUSH1 0x4 ADD PUSH2 0x3CA SWAP1 PUSH2 0xBF2 JUMP JUMPDEST PUSH1 0x40 MLOAD DUP1 SWAP2 SUB SWAP1 REVERT JUMPDEST PUSH1 0x40 MLOAD DUP1 PUSH1 0x60 ADD PUSH1 0x40 MSTORE DUP1 DUP5 DUP2 MSTORE PUSH1 0x20 ADD DUP4 DUP2 MSTORE PUSH1 0x20 ADD CALLER PUSH20 0xFFFFFFFFFFFFFFFFFFFFFFFFFFFFFFFFFFFFFFFF AND DUP2 MSTORE POP PUSH1 0x2 PUSH1 0x0 DUP7 DUP2 MSTORE PUSH1 0x20 ADD SWAP1 DUP2 MSTORE PUSH1 0x20 ADD PUSH1 0x0 KECCAK256 PUSH1 0x0 DUP3 ADD MLOAD DUP2 PUSH1 0x0 ADD SWAP1 DUP1 MLOAD SWAP1 PUSH1 0x20 ADD SWAP1 PUSH2 0x433 SWAP3 SWAP2 SWAP1 PUSH2 0x7A2 JUMP JUMPDEST POP PUSH1 0x20 DUP3 ADD MLOAD DUP2 PUSH1 0x1 ADD SWAP1 DUP1 MLOAD SWAP1 PUSH1 0x20 ADD SWAP1 PUSH2 0x450 SWAP3 SWAP2 SWAP1 PUSH2 0x7A2 JUMP JUMPDEST POP PUSH1 0x40 DUP3 ADD MLOAD DUP2 PUSH1 0x2 ADD PUSH1 0x0 PUSH2 0x100 EXP DUP2 SLOAD DUP2 PUSH20 0xFFFFFFFFFFFFFFFFFFFFFFFFFFFFFFFFFFFFFFFF MUL NOT AND SWAP1 DUP4 PUSH20 0xFFFFFFFFFFFFFFFFFFFFFFFFFFFFFFFFFFFFFFFF AND MUL OR SWAP1 SSTORE POP SWAP1 POP POP POP POP POP POP JUMP JUMPDEST PUSH2 0x4A9 PUSH2 0x828 JUMP JUMPDEST PUSH1 0x2 PUSH1 0x0 DUP4 DUP2 MSTORE PUSH1 0x20 ADD SWAP1 DUP2 MSTORE PUSH1 0x20 ADD PUSH1 0x0 KECCAK256 PUSH1 0x40 MLOAD DUP1 PUSH1 0x60 ADD PUSH1 0x40 MSTORE SWAP1 DUP2 PUSH1 0x0 DUP3 ADD DUP1 SLOAD PUSH2 0x4D7 SWAP1 PUSH2 0xD5B JUMP JUMPDEST DUP1 PUSH1 0x1F ADD PUSH1 0x20 DUP1 SWAP2 DIV MUL PUSH1 0x20 ADD PUSH1 0x40 MLOAD SWAP1 DUP2 ADD PUSH1 0x40 MSTORE DUP1 SWAP3 SWAP2 SWAP1 DUP2 DUP2 MSTORE PUSH1 0x20 ADD DUP3 DUP1 SLOAD PUSH2 0x503 SWAP1 PUSH2 0xD5B JUMP JUMPDEST DUP1 ISZERO PUSH2 0x550 JUMPI DUP1 PUSH1 0x1F LT PUSH2 0x525 JUMPI PUSH2 0x100 DUP1 DUP4 SLOAD DIV MUL DUP4 MSTORE SWAP2 PUSH1 0x20 ADD SWAP2 PUSH2 0x550 JUMP JUMPDEST DUP3 ADD SWAP2 SWAP1 PUSH1 0x0 MSTORE PUSH1 0x20 PUSH1 0x0 KECCAK256 SWAP1 JUMPDEST DUP2 SLOAD DUP2 MSTORE SWAP1 PUSH1 0x1 ADD SWAP1 PUSH1 0x20 ADD DUP1 DUP4 GT PUSH2 0x533 JUMPI DUP3 SWAP1 SUB PUSH1 0x1F AND DUP3 ADD SWAP2 JUMPDEST POP POP POP POP POP DUP2 MSTORE PUSH1 0x20 ADD PUSH1 0x1 DUP3 ADD DUP1 SLOAD PUSH2 0x569 SWAP1 PUSH2 0xD5B JUMP JUMPDEST DUP1 PUSH1 0x1F ADD PUSH1 0x20 DUP1 SWAP2 DIV MUL PUSH1 0x20 ADD PUSH1 0x40 MLOAD SWAP1 DUP2 ADD PUSH1 0x40 MSTORE DUP1 SWAP3 SWAP2 SWAP1 DUP2 DUP2 MSTORE PUSH1 0x20 ADD DUP3 DUP1 SLOAD PUSH2 0x595 SWAP1 PUSH2 0xD5B JUMP JUMPDEST DUP1 ISZERO PUSH2 0x5E2 JUMPI DUP1 PUSH1 0x1F LT PUSH2 0x5B7 JUMPI PUSH2 0x100 DUP1 DUP4 SLOAD DIV MUL DUP4 MSTORE SWAP2 PUSH1 0x20 ADD SWAP2 PUSH2 0x5E2 JUMP JUMPDEST DUP3 ADD SWAP2 SWAP1 PUSH1 0x0 MSTORE PUSH1 0x20 PUSH1 0x0 KECCAK256 SWAP1 JUMPDEST DUP2 SLOAD DUP2 MSTORE SWAP1 PUSH1 0x1 ADD SWAP1 PUSH1 0x20 ADD DUP1 DUP4 GT PUSH2 0x5C5 JUMPI DUP3 SWAP1 SUB PUSH1 0x1F AND DUP3 ADD SWAP2 JUMPDEST POP POP POP POP POP DUP2 MSTORE PUSH1 0x20 ADD PUSH1 0x2 DUP3 ADD PUSH1 0x0 SWAP1 SLOAD SWAP1 PUSH2 0x100 EXP SWAP1 DIV PUSH20 0xFFFFFFFFFFFFFFFFFFFFFFFFFFFFFFFFFFFFFFFF AND PUSH20 0xFFFFFFFFFFFFFFFFFFFFFFFFFFFFFFFFFFFFFFFF AND PUSH20 0xFFFFFFFFFFFFFFFFFFFFFFFFFFFFFFFFFFFFFFFF AND DUP2 MSTORE POP POP SWAP1 POP SWAP2 SWAP1 POP JUMP JUMPDEST PUSH1 0x2 PUSH1 0x20 MSTORE DUP1 PUSH1 0x0 MSTORE PUSH1 0x40 PUSH1 0x0 KECCAK256 PUSH1 0x0 SWAP2 POP SWAP1 POP DUP1 PUSH1 0x0 ADD DUP1 SLOAD PUSH2 0x66B SWAP1 PUSH2 0xD5B JUMP JUMPDEST DUP1 PUSH1 0x1F ADD PUSH1 0x20 DUP1 SWAP2 DIV MUL PUSH1 0x20 ADD PUSH1 0x40 MLOAD SWAP1 DUP2 ADD PUSH1 0x40 MSTORE DUP1 SWAP3 SWAP2 SWAP1 DUP2 DUP2 MSTORE PUSH1 0x20 ADD DUP3 DUP1 SLOAD PUSH2 0x697 SWAP1 PUSH2 0xD5B JUMP JUMPDEST DUP1 ISZERO PUSH2 0x6E4 JUMPI DUP1 PUSH1 0x1F LT PUSH2 0x6B9 JUMPI PUSH2 0x100 DUP1 DUP4 SLOAD DIV MUL DUP4 MSTORE SWAP2 PUSH1 0x20 ADD SWAP2 PUSH2 0x6E4 JUMP JUMPDEST DUP3 ADD SWAP2 SWAP1 PUSH1 0x0 MSTORE PUSH1 0x20 PUSH1 0x0 KECCAK256 SWAP1 JUMPDEST DUP2 SLOAD DUP2 MSTORE SWAP1 PUSH1 0x1 ADD SWAP1 PUSH1 0x20 ADD DUP1 DUP4 GT PUSH2 0x6C7 JUMPI DUP3 SWAP1 SUB PUSH1 0x1F AND DUP3 ADD SWAP2 JUMPDEST POP POP POP POP POP SWAP1 DUP1 PUSH1 0x1 ADD DUP1 SLOAD PUSH2 0x6F9 SWAP1 PUSH2 0xD5B JUMP JUMPDEST DUP1 PUSH1 0x1F ADD PUSH1 0x20 DUP1 SWAP2 DIV MUL PUSH1 0x20 ADD PUSH1 0x40 MLOAD SWAP1 DUP2 ADD PUSH1 0x40 MSTORE DUP1 SWAP3 SWAP2 SWAP1 DUP2 DUP2 MSTORE PUSH1 0x20 ADD DUP3 DUP1 SLOAD PUSH2 0x725 SWAP1 PUSH2 0xD5B JUMP JUMPDEST DUP1 ISZERO PUSH2 0x772 JUMPI DUP1 PUSH1 0x1F LT PUSH2 0x747 JUMPI PUSH2 0x100 DUP1 DUP4 SLOAD DIV MUL DUP4 MSTORE SWAP2 PUSH1 0x20 ADD SWAP2 PUSH2 0x772 JUMP JUMPDEST DUP3 ADD SWAP2 SWAP1 PUSH1 0x0 MSTORE PUSH1 0x20 PUSH1 0x0 KECCAK256 SWAP1 JUMPDEST DUP2 SLOAD DUP2 MSTORE SWAP1 PUSH1 0x1 ADD SWAP1 PUSH1 0x20 ADD DUP1 DUP4 GT PUSH2 0x755 JUMPI DUP3 SWAP1 SUB PUSH1 0x1F AND DUP3 ADD SWAP2 JUMPDEST POP POP POP POP POP SWAP1 DUP1 PUSH1 0x2 ADD PUSH1 0x0 SWAP1 SLOAD SWAP1 PUSH2 0x100 EXP SWAP1 DIV PUSH20 0xFFFFFFFFFFFFFFFFFFFFFFFFFFFFFFFFFFFFFFFF AND SWAP1 POP DUP4 JUMP JUMPDEST DUP3 DUP1 SLOAD PUSH2 0x7AE SWAP1 PUSH2 0xD5B JUMP JUMPDEST SWAP1 PUSH1 0x0 MSTORE PUSH1 0x20 PUSH1 0x0 KECCAK256 SWAP1 PUSH1 0x1F ADD PUSH1 0x20 SWAP1 DIV DUP2 ADD SWAP3 DUP3 PUSH2 0x7D0 JUMPI PUSH1 0x0 DUP6 SSTORE PUSH2 0x817 JUMP JUMPDEST DUP3 PUSH1 0x1F LT PUSH2 0x7E9 JUMPI DUP1 MLOAD PUSH1 0xFF NOT AND DUP4 DUP1 ADD OR DUP6 SSTORE PUSH2 0x817 JUMP JUMPDEST DUP3 DUP1 ADD PUSH1 0x1 ADD DUP6 SSTORE DUP3 ISZERO PUSH2 0x817 JUMPI SWAP2 DUP3 ADD JUMPDEST DUP3 DUP2 GT ISZERO PUSH2 0x816 JUMPI DUP3 MLOAD DUP3 SSTORE SWAP2 PUSH1 0x20 ADD SWAP2 SWAP1 PUSH1 0x1 ADD SWAP1 PUSH2 0x7FB JUMP JUMPDEST JUMPDEST POP SWAP1 POP PUSH2 0x824 SWAP2 SWAP1 PUSH2 0x85F JUMP JUMPDEST POP SWAP1 JUMP JUMPDEST PUSH1 0x40 MLOAD DUP1 PUSH1 0x60 ADD PUSH1 0x40 MSTORE DUP1 PUSH1 0x60 DUP2 MSTORE PUSH1 0x20 ADD PUSH1 0x60 DUP2 MSTORE PUSH1 0x20 ADD PUSH1 0x0 PUSH20 0xFFFFFFFFFFFFFFFFFFFFFFFFFFFFFFFFFFFFFFFF AND DUP2 MSTORE POP SWAP1 JUMP JUMPDEST JUMPDEST DUP1 DUP3 GT ISZERO PUSH2 0x878 JUMPI PUSH1 0x0 DUP2 PUSH1 0x0 SWAP1 SSTORE POP PUSH1 0x1 ADD PUSH2 0x860 JUMP JUMPDEST POP SWAP1 JUMP JUMPDEST PUSH1 0x0 PUSH2 0x88F PUSH2 0x88A DUP5 PUSH2 0xC74 JUMP JUMPDEST PUSH2 0xC4F JUMP JUMPDEST SWAP1 POP DUP3 DUP2 MSTORE PUSH1 0x20 DUP2 ADD DUP5 DUP5 DUP5 ADD GT ISZERO PUSH2 0x8AB JUMPI PUSH2 0x8AA PUSH2 0xE99 JUMP JUMPDEST JUMPDEST PUSH2 0x8B6 DUP5 DUP3 DUP6 PUSH2 0xD19 JUMP JUMPDEST POP SWAP4 SWAP3 POP POP POP JUMP JUMPDEST PUSH1 0x0 DUP3 PUSH1 0x1F DUP4 ADD SLT PUSH2 0x8D3 JUMPI PUSH2 0x8D2 PUSH2 0xE94 JUMP JUMPDEST JUMPDEST DUP2 CALLDATALOAD PUSH2 0x8E3 DUP5 DUP3 PUSH1 0x20 DUP7 ADD PUSH2 0x87C JUMP JUMPDEST SWAP2 POP POP SWAP3 SWAP2 POP POP JUMP JUMPDEST PUSH1 0x0 DUP2 CALLDATALOAD SWAP1 POP PUSH2 0x8FB DUP2 PUSH2 0xF08 JUMP JUMPDEST SWAP3 SWAP2 POP POP JUMP JUMPDEST PUSH1 0x0 DUP1 PUSH1 0x40 DUP4 DUP6 SUB SLT ISZERO PUSH2 0x918 JUMPI PUSH2 0x917 PUSH2 0xEA3 JUMP JUMPDEST JUMPDEST PUSH1 0x0 DUP4 ADD CALLDATALOAD PUSH8 0xFFFFFFFFFFFFFFFF DUP2 GT ISZERO PUSH2 0x936 JUMPI PUSH2 0x935 PUSH2 0xE9E JUMP JUMPDEST JUMPDEST PUSH2 0x942 DUP6 DUP3 DUP7 ADD PUSH2 0x8BE JUMP JUMPDEST SWAP3 POP POP PUSH1 0x20 DUP4 ADD CALLDATALOAD PUSH8 0xFFFFFFFFFFFFFFFF DUP2 GT ISZERO PUSH2 0x963 JUMPI PUSH2 0x962 PUSH2 0xE9E JUMP JUMPDEST JUMPDEST PUSH2 0x96F DUP6 DUP3 DUP7 ADD PUSH2 0x8BE JUMP JUMPDEST SWAP2 POP POP SWAP3 POP SWAP3 SWAP1 POP JUMP JUMPDEST PUSH1 0x0 PUSH1 0x20 DUP3 DUP5 SUB SLT ISZERO PUSH2 0x98F JUMPI PUSH2 0x98E PUSH2 0xEA3 JUMP JUMPDEST JUMPDEST PUSH1 0x0 PUSH2 0x99D DUP5 DUP3 DUP6 ADD PUSH2 0x8EC JUMP JUMPDEST SWAP2 POP POP SWAP3 SWAP2 POP POP JUMP JUMPDEST PUSH1 0x0 DUP1 PUSH1 0x0 PUSH1 0x60 DUP5 DUP7 SUB SLT ISZERO PUSH2 0x9BF JUMPI PUSH2 0x9BE PUSH2 0xEA3 JUMP JUMPDEST JUMPDEST PUSH1 0x0 PUSH2 0x9CD DUP7 DUP3 DUP8 ADD PUSH2 0x8EC JUMP JUMPDEST SWAP4 POP POP PUSH1 0x20 DUP5 ADD CALLDATALOAD PUSH8 0xFFFFFFFFFFFFFFFF DUP2 GT ISZERO PUSH2 0x9EE JUMPI PUSH2 0x9ED PUSH2 0xE9E JUMP JUMPDEST JUMPDEST PUSH2 0x9FA DUP7 DUP3 DUP8 ADD PUSH2 0x8BE JUMP JUMPDEST SWAP3 POP POP PUSH1 0x40 DUP5 ADD CALLDATALOAD PUSH8 0xFFFFFFFFFFFFFFFF DUP2 GT ISZERO PUSH2 0xA1B JUMPI PUSH2 0xA1A PUSH2 0xE9E JUMP JUMPDEST JUMPDEST PUSH2 0xA27 DUP7 DUP3 DUP8 ADD PUSH2 0x8BE JUMP JUMPDEST SWAP2 POP POP SWAP3 POP SWAP3 POP SWAP3 JUMP JUMPDEST PUSH2 0xA3A DUP2 PUSH2 0xCDD JUMP JUMPDEST DUP3 MSTORE POP POP JUMP JUMPDEST PUSH2 0xA49 DUP2 PUSH2 0xCDD JUMP JUMPDEST DUP3 MSTORE POP POP JUMP JUMPDEST PUSH1 0x0 PUSH2 0xA5A DUP3 PUSH2 0xCA5 JUMP JUMPDEST PUSH2 0xA64 DUP2 DUP6 PUSH2 0xCB0 JUMP JUMPDEST SWAP4 POP PUSH2 0xA74 DUP2 DUP6 PUSH1 0x20 DUP7 ADD PUSH2 0xD28 JUMP JUMPDEST PUSH2 0xA7D DUP2 PUSH2 0xEA8 JUMP JUMPDEST DUP5 ADD SWAP2 POP POP SWAP3 SWAP2 POP POP JUMP JUMPDEST PUSH1 0x0 PUSH2 0xA93 DUP3 PUSH2 0xCA5 JUMP JUMPDEST PUSH2 0xA9D DUP2 DUP6 PUSH2 0xCC1 JUMP JUMPDEST SWAP4 POP PUSH2 0xAAD DUP2 DUP6 PUSH1 0x20 DUP7 ADD PUSH2 0xD28 JUMP JUMPDEST PUSH2 0xAB6 DUP2 PUSH2 0xEA8 JUMP JUMPDEST DUP5 ADD SWAP2 POP POP SWAP3 SWAP2 POP POP JUMP JUMPDEST PUSH1 0x0 PUSH2 0xACC DUP3 PUSH2 0xCA5 JUMP JUMPDEST PUSH2 0xAD6 DUP2 DUP6 PUSH2 0xCD2 JUMP JUMPDEST SWAP4 POP PUSH2 0xAE6 DUP2 DUP6 PUSH1 0x20 DUP7 ADD PUSH2 0xD28 JUMP JUMPDEST DUP1 DUP5 ADD SWAP2 POP POP SWAP3 SWAP2 POP POP JUMP JUMPDEST PUSH1 0x0 PUSH2 0xAFF PUSH1 0x23 DUP4 PUSH2 0xCC1 JUMP JUMPDEST SWAP2 POP PUSH2 0xB0A DUP3 PUSH2 0xEB9 JUMP JUMPDEST PUSH1 0x40 DUP3 ADD SWAP1 POP SWAP2 SWAP1 POP JUMP JUMPDEST PUSH1 0x0 PUSH1 0x60 DUP4 ADD PUSH1 0x0 DUP4 ADD MLOAD DUP5 DUP3 SUB PUSH1 0x0 DUP7 ADD MSTORE PUSH2 0xB32 DUP3 DUP3 PUSH2 0xA4F JUMP JUMPDEST SWAP2 POP POP PUSH1 0x20 DUP4 ADD MLOAD DUP5 DUP3 SUB PUSH1 0x20 DUP7 ADD MSTORE PUSH2 0xB4C DUP3 DUP3 PUSH2 0xA4F JUMP JUMPDEST SWAP2 POP POP PUSH1 0x40 DUP4 ADD MLOAD PUSH2 0xB61 PUSH1 0x40 DUP7 ADD DUP3 PUSH2 0xA31 JUMP JUMPDEST POP DUP1 SWAP2 POP POP SWAP3 SWAP2 POP POP JUMP JUMPDEST PUSH2 0xB75 DUP2 PUSH2 0xD0F JUMP JUMPDEST DUP3 MSTORE POP POP JUMP JUMPDEST PUSH1 0x0 PUSH2 0xB87 DUP3 DUP5 PUSH2 0xAC1 JUMP JUMPDEST SWAP2 POP DUP2 SWAP1 POP SWAP3 SWAP2 POP POP JUMP JUMPDEST PUSH1 0x0 PUSH1 0x20 DUP3 ADD SWAP1 POP PUSH2 0xBA7 PUSH1 0x0 DUP4 ADD DUP5 PUSH2 0xA40 JUMP JUMPDEST SWAP3 SWAP2 POP POP JUMP JUMPDEST PUSH1 0x0 PUSH1 0x60 DUP3 ADD SWAP1 POP DUP2 DUP2 SUB PUSH1 0x0 DUP4 ADD MSTORE PUSH2 0xBC7 DUP2 DUP7 PUSH2 0xA88 JUMP JUMPDEST SWAP1 POP DUP2 DUP2 SUB PUSH1 0x20 DUP4 ADD MSTORE PUSH2 0xBDB DUP2 DUP6 PUSH2 0xA88 JUMP JUMPDEST SWAP1 POP PUSH2 0xBEA PUSH1 0x40 DUP4 ADD DUP5 PUSH2 0xA40 JUMP JUMPDEST SWAP5 SWAP4 POP POP POP POP JUMP JUMPDEST PUSH1 0x0 PUSH1 0x20 DUP3 ADD SWAP1 POP DUP2 DUP2 SUB PUSH1 0x0 DUP4 ADD MSTORE PUSH2 0xC0B DUP2 PUSH2 0xAF2 JUMP JUMPDEST SWAP1 POP SWAP2 SWAP1 POP JUMP JUMPDEST PUSH1 0x0 PUSH1 0x20 DUP3 ADD SWAP1 POP DUP2 DUP2 SUB PUSH1 0x0 DUP4 ADD MSTORE PUSH2 0xC2C DUP2 DUP5 PUSH2 0xB15 JUMP JUMPDEST SWAP1 POP SWAP3 SWAP2 POP POP JUMP JUMPDEST PUSH1 0x0 PUSH1 0x20 DUP3 ADD SWAP1 POP PUSH2 0xC49 PUSH1 0x0 DUP4 ADD DUP5 PUSH2 0xB6C JUMP JUMPDEST SWAP3 SWAP2 POP POP JUMP JUMPDEST PUSH1 0x0 PUSH2 0xC59 PUSH2 0xC6A JUMP JUMPDEST SWAP1 POP PUSH2 0xC65 DUP3 DUP3 PUSH2 0xD8D JUMP JUMPDEST SWAP2 SWAP1 POP JUMP JUMPDEST PUSH1 0x0 PUSH1 0x40 MLOAD SWAP1 POP SWAP1 JUMP JUMPDEST PUSH1 0x0 PUSH8 0xFFFFFFFFFFFFFFFF DUP3 GT ISZERO PUSH2 0xC8F JUMPI PUSH2 0xC8E PUSH2 0xE65 JUMP JUMPDEST JUMPDEST PUSH2 0xC98 DUP3 PUSH2 0xEA8 JUMP JUMPDEST SWAP1 POP PUSH1 0x20 DUP2 ADD SWAP1 POP SWAP2 SWAP1 POP JUMP JUMPDEST PUSH1 0x0 DUP2 MLOAD SWAP1 POP SWAP2 SWAP1 POP JUMP JUMPDEST PUSH1 0x0 DUP3 DUP3 MSTORE PUSH1 0x20 DUP3 ADD SWAP1 POP SWAP3 SWAP2 POP POP JUMP JUMPDEST PUSH1 0x0 DUP3 DUP3 MSTORE PUSH1 0x20 DUP3 ADD SWAP1 POP SWAP3 SWAP2 POP POP JUMP JUMPDEST PUSH1 0x0 DUP2 SWAP1 POP SWAP3 SWAP2 POP POP JUMP JUMPDEST PUSH1 0x0 PUSH2 0xCE8 DUP3 PUSH2 0xCEF JUMP JUMPDEST SWAP1 POP SWAP2 SWAP1 POP JUMP JUMPDEST PUSH1 0x0 PUSH20 0xFFFFFFFFFFFFFFFFFFFFFFFFFFFFFFFFFFFFFFFF DUP3 AND SWAP1 POP SWAP2 SWAP1 POP JUMP JUMPDEST PUSH1 0x0 DUP2 SWAP1 POP SWAP2 SWAP1 POP JUMP JUMPDEST DUP3 DUP2 DUP4 CALLDATACOPY PUSH1 0x0 DUP4 DUP4 ADD MSTORE POP POP POP JUMP JUMPDEST PUSH1 0x0 JUMPDEST DUP4 DUP2 LT ISZERO PUSH2 0xD46 JUMPI DUP1 DUP3 ADD MLOAD DUP2 DUP5 ADD MSTORE PUSH1 0x20 DUP2 ADD SWAP1 POP PUSH2 0xD2B JUMP JUMPDEST DUP4 DUP2 GT ISZERO PUSH2 0xD55 JUMPI PUSH1 0x0 DUP5 DUP5 ADD MSTORE JUMPDEST POP POP POP POP JUMP JUMPDEST PUSH1 0x0 PUSH1 0x2 DUP3 DIV SWAP1 POP PUSH1 0x1 DUP3 AND DUP1 PUSH2 0xD73 JUMPI PUSH1 0x7F DUP3 AND SWAP2 POP JUMPDEST PUSH1 0x20 DUP3 LT DUP2 EQ ISZERO PUSH2 0xD87 JUMPI PUSH2 0xD86 PUSH2 0xE36 JUMP JUMPDEST JUMPDEST POP SWAP2 SWAP1 POP JUMP JUMPDEST PUSH2 0xD96 DUP3 PUSH2 0xEA8 JUMP JUMPDEST DUP2 ADD DUP2 DUP2 LT PUSH8 0xFFFFFFFFFFFFFFFF DUP3 GT OR ISZERO PUSH2 0xDB5 JUMPI PUSH2 0xDB4 PUSH2 0xE65 JUMP JUMPDEST JUMPDEST DUP1 PUSH1 0x40 MSTORE POP POP POP JUMP JUMPDEST PUSH1 0x0 PUSH2 0xDC9 DUP3 PUSH2 0xD0F JUMP JUMPDEST SWAP2 POP PUSH32 0xFFFFFFFFFFFFFFFFFFFFFFFFFFFFFFFFFFFFFFFFFFFFFFFFFFFFFFFFFFFFFFFF DUP3 EQ ISZERO PUSH2 0xDFC JUMPI PUSH2 0xDFB PUSH2 0xE07 JUMP JUMPDEST JUMPDEST PUSH1 0x1 DUP3 ADD SWAP1 POP SWAP2 SWAP1 POP JUMP JUMPDEST PUSH32 0x4E487B7100000000000000000000000000000000000000000000000000000000 PUSH1 0x0 MSTORE PUSH1 0x11 PUSH1 0x4 MSTORE PUSH1 0x24 PUSH1 0x0 REVERT JUMPDEST PUSH32 0x4E487B7100000000000000000000000000000000000000000000000000000000 PUSH1 0x0 MSTORE PUSH1 0x22 PUSH1 0x4 MSTORE PUSH1 0x24 PUSH1 0x0 REVERT JUMPDEST PUSH32 0x4E487B7100000000000000000000000000000000000000000000000000000000 PUSH1 0x0 MSTORE PUSH1 0x41 PUSH1 0x4 MSTORE PUSH1 0x24 PUSH1 0x0 REVERT JUMPDEST PUSH1 0x0 DUP1 REVERT JUMPDEST PUSH1 0x0 DUP1 REVERT JUMPDEST PUSH1 0x0 DUP1 REVERT JUMPDEST PUSH1 0x0 DUP1 REVERT JUMPDEST PUSH1 0x0 PUSH1 0x1F NOT PUSH1 0x1F DUP4 ADD AND SWAP1 POP SWAP2 SWAP1 POP JUMP JUMPDEST PUSH32 0x4552524F52204265636175736520796F7520617265206E6F7420746865206F77 PUSH1 0x0 DUP3 ADD MSTORE PUSH32 0x6E65720000000000000000000000000000000000000000000000000000000000 PUSH1 0x20 DUP3 ADD MSTORE POP JUMP JUMPDEST PUSH2 0xF11 DUP2 PUSH2 0xD0F JUMP JUMPDEST DUP2 EQ PUSH2 0xF1C JUMPI PUSH1 0x0 DUP1 REVERT JUMPDEST POP JUMP INVALID LOG2 PUSH5 0x6970667358 0x22 SLT KECCAK256 SMOD BLOCKHASH 0xB1 0xAA NUMBER 0xDE PUSH12 0xF3CB37D4D3D42C103E8A814A 0xCB PUSH13 0xE6EEB61FF564C7D5B35DCB6473 PUSH16 0x6C634300080700330000000000000000 "
				},
				"gasEstimates": {
					"creation": {
						"codeDepositCost": "785000",
						"executionCost": "5824",
						"totalCost": "790824"
					},
					"external": {
						"counter()": "2451",
						"createPost(string,string)": "infinite",
						"posts(uint256)": "2817",
						"readPost(uint256)": "infinite",
						"updatePost(uint256,string,string)": "infinite",
						"userPosts(uint256)": "infinite"
					}
				},
				"methodIdentifiers": {
					"counter()": "61bc221a",
					"createPost(string,string)": "392338f5",
					"posts(uint256)": "0b1e7f83",
					"readPost(uint256)": "ca6f69f5",
					"updatePost(uint256,string,string)": "66d1cac9",
					"userPosts(uint256)": "fdd6ea71"
				}
			},
			"storageLayout": {
				"storage": [
					{
						"astId": 4,
						"contract": "contracts/blog.sol:blog",
						"label": "counter",
						"offset": 0,
						"slot": "0",
						"type": "t_uint256"
					},
					{
						"astId": 21,
						"contract": "contracts/blog.sol:blog",
						"label": "posts",
						"offset": 0,
						"slot": "1",
						"type": "t_mapping(t_uint256,t_address)"
					},
					{
						"astId": 26,
						"contract": "contracts/blog.sol:blog",
						"label": "userPosts",
						"offset": 0,
						"slot": "2",
						"type": "t_mapping(t_uint256,t_struct(Post)17_storage)"
					}
				],
				"types": {
					"t_address": {
						"encoding": "inplace",
						"label": "address",
						"numberOfBytes": "20"
					},
					"t_mapping(t_uint256,t_address)": {
						"encoding": "mapping",
						"key": "t_uint256",
						"label": "mapping(uint256 => address)",
						"numberOfBytes": "32",
						"value": "t_address"
					},
					"t_mapping(t_uint256,t_struct(Post)17_storage)": {
						"encoding": "mapping",
						"key": "t_uint256",
						"label": "mapping(uint256 => struct blog.Post)",
						"numberOfBytes": "32",
						"value": "t_struct(Post)17_storage"
					},
					"t_string_storage": {
						"encoding": "bytes",
						"label": "string",
						"numberOfBytes": "32"
					},
					"t_struct(Post)17_storage": {
						"encoding": "inplace",
						"label": "struct blog.Post",
						"members": [
							{
								"astId": 12,
								"contract": "contracts/blog.sol:blog",
								"label": "title",
								"offset": 0,
								"slot": "0",
								"type": "t_string_storage"
							},
							{
								"astId": 14,
								"contract": "contracts/blog.sol:blog",
								"label": "description",
								"offset": 0,
								"slot": "1",
								"type": "t_string_storage"
							},
							{
								"astId": 16,
								"contract": "contracts/blog.sol:blog",
								"label": "user",
								"offset": 0,
								"slot": "2",
								"type": "t_address"
							}
						],
						"numberOfBytes": "96"
					},
					"t_uint256": {
						"encoding": "inplace",
						"label": "uint256",
						"numberOfBytes": "32"
					}
				}
			},
			"userdoc": {
				"kind": "user",
				"methods": {},
				"version": 1
			}
		}
	}
}