{
	"contracts/functions.sol": {
		"functionsContract": {
			"abi": [
				{
					"inputs": [
						{
							"internalType": "string",
							"name": "_newName",
							"type": "string"
						}
					],
					"name": "changeName",
					"outputs": [],
					"stateMutability": "nonpayable",
					"type": "function"
				},
				{
					"inputs": [
						{
							"internalType": "uint256",
							"name": "a",
							"type": "uint256"
						},
						{
							"internalType": "uint256",
							"name": "b",
							"type": "uint256"
						}
					],
					"name": "getPureName",
					"outputs": [
						{
							"internalType": "uint256",
							"name": "",
							"type": "uint256"
						}
					],
					"stateMutability": "pure",
					"type": "function"
				},
				{
					"inputs": [],
					"name": "getname",
					"outputs": [
						{
							"internalType": "string",
							"name": "",
							"type": "string"
						}
					],
					"stateMutability": "view",
					"type": "function"
				},
				{
					"inputs": [],
					"name": "owner",
					"outputs": [
						{
							"internalType": "address payable",
							"name": "",
							"type": "address"
						}
					],
					"stateMutability": "view",
					"type": "function"
				},
				{
					"inputs": [
						{
							"internalType": "address payable",
							"name": "_to",
							"type": "address"
						},
						{
							"internalType": "uint256",
							"name": "_amount",
							"type": "uint256"
						}
					],
					"name": "transfer",
					"outputs": [],
					"stateMutability": "nonpayable",
					"type": "function"
				}
			],
			"devdoc": {
				"kind": "dev",
				"methods": {},
				"version": 1
			},
			"evm": {
				"assembly": "    /* \"contracts/functions.sol\":64:1585  contract functionsContract{\r... */\n  mstore(0x40, 0x80)\n    /* \"contracts/functions.sol\":125:148  string name = \"Polygon\" */\n  mload(0x40)\n  dup1\n  0x40\n  add\n  0x40\n  mstore\n  dup1\n  0x07\n  dup2\n  mstore\n  0x20\n  add\n  0x506f6c79676f6e00000000000000000000000000000000000000000000000000\n  dup2\n  mstore\n  pop\n  0x00\n  swap1\n  dup1\n  mload\n  swap1\n  0x20\n  add\n  swap1\n  tag_1\n  swap3\n  swap2\n  swap1\n  tag_2\n  jump\t// in\ntag_1:\n  pop\n    /* \"contracts/functions.sol\":64:1585  contract functionsContract{\r... */\n  callvalue\n  dup1\n  iszero\n  tag_3\n  jumpi\n  0x00\n  dup1\n  revert\ntag_3:\n  pop\n  jump(tag_4)\ntag_2:\n  dup3\n  dup1\n  sload\n  tag_5\n  swap1\n  tag_6\n  jump\t// in\ntag_5:\n  swap1\n  0x00\n  mstore\n  keccak256(0x00, 0x20)\n  swap1\n  0x1f\n  add\n  0x20\n  swap1\n  div\n  dup2\n  add\n  swap3\n  dup3\n  tag_8\n  jumpi\n  0x00\n  dup6\n  sstore\n  jump(tag_7)\ntag_8:\n  dup3\n  0x1f\n  lt\n  tag_9\n  jumpi\n  dup1\n  mload\n  not(0xff)\n  and\n  dup4\n  dup1\n  add\n  or\n  dup6\n  sstore\n  jump(tag_7)\ntag_9:\n  dup3\n  dup1\n  add\n  0x01\n  add\n  dup6\n  sstore\n  dup3\n  iszero\n  tag_7\n  jumpi\n  swap2\n  dup3\n  add\ntag_10:\n  dup3\n  dup2\n  gt\n  iszero\n  tag_11\n  jumpi\n  dup3\n  mload\n  dup3\n  sstore\n  swap2\n  0x20\n  add\n  swap2\n  swap1\n  0x01\n  add\n  swap1\n  jump(tag_10)\ntag_11:\ntag_7:\n  pop\n  swap1\n  pop\n  tag_12\n  swap2\n  swap1\n  tag_13\n  jump\t// in\ntag_12:\n  pop\n  swap1\n  jump\t// out\ntag_13:\ntag_14:\n  dup1\n  dup3\n  gt\n  iszero\n  tag_15\n  jumpi\n  0x00\n  dup2\n  0x00\n  swap1\n  sstore\n  pop\n  0x01\n  add\n  jump(tag_14)\ntag_15:\n  pop\n  swap1\n  jump\t// out\n    /* \"#utility.yul\":7:327   */\ntag_6:\n    /* \"#utility.yul\":51:57   */\n  0x00\n    /* \"#utility.yul\":88:89   */\n  0x02\n    /* \"#utility.yul\":82:86   */\n  dup3\n    /* \"#utility.yul\":78:90   */\n  div\n    /* \"#utility.yul\":68:90   */\n  swap1\n  pop\n    /* \"#utility.yul\":135:136   */\n  0x01\n    /* \"#utility.yul\":129:133   */\n  dup3\n    /* \"#utility.yul\":125:137   */\n  and\n    /* \"#utility.yul\":156:174   */\n  dup1\n    /* \"#utility.yul\":146:227   */\n  tag_18\n  jumpi\n    /* \"#utility.yul\":212:216   */\n  0x7f\n    /* \"#utility.yul\":204:210   */\n  dup3\n    /* \"#utility.yul\":200:217   */\n  and\n    /* \"#utility.yul\":190:217   */\n  swap2\n  pop\n    /* \"#utility.yul\":146:227   */\ntag_18:\n    /* \"#utility.yul\":274:276   */\n  0x20\n    /* \"#utility.yul\":266:272   */\n  dup3\n    /* \"#utility.yul\":263:277   */\n  lt\n    /* \"#utility.yul\":243:261   */\n  dup2\n    /* \"#utility.yul\":240:278   */\n  eq\n    /* \"#utility.yul\":237:321   */\n  iszero\n  tag_19\n  jumpi\n    /* \"#utility.yul\":293:311   */\n  tag_20\n  tag_21\n  jump\t// in\ntag_20:\n    /* \"#utility.yul\":237:321   */\ntag_19:\n    /* \"#utility.yul\":58:327   */\n  pop\n    /* \"#utility.yul\":7:327   */\n  swap2\n  swap1\n  pop\n  jump\t// out\n    /* \"#utility.yul\":333:513   */\ntag_21:\n    /* \"#utility.yul\":381:458   */\n  0x4e487b7100000000000000000000000000000000000000000000000000000000\n    /* \"#utility.yul\":378:379   */\n  0x00\n    /* \"#utility.yul\":371:459   */\n  mstore\n    /* \"#utility.yul\":478:482   */\n  0x22\n    /* \"#utility.yul\":475:476   */\n  0x04\n    /* \"#utility.yul\":468:483   */\n  mstore\n    /* \"#utility.yul\":502:506   */\n  0x24\n    /* \"#utility.yul\":499:500   */\n  0x00\n    /* \"#utility.yul\":492:507   */\n  revert\n    /* \"contracts/functions.sol\":64:1585  contract functionsContract{\r... */\ntag_4:\n  dataSize(sub_0)\n  dup1\n  dataOffset(sub_0)\n  0x00\n  codecopy\n  0x00\n  return\nstop\n\nsub_0: assembly {\n        /* \"contracts/functions.sol\":64:1585  contract functionsContract{\r... */\n      mstore(0x40, 0x80)\n      callvalue\n      dup1\n      iszero\n      tag_1\n      jumpi\n      0x00\n      dup1\n      revert\n    tag_1:\n      pop\n      jumpi(tag_2, lt(calldatasize, 0x04))\n      shr(0xe0, calldataload(0x00))\n      dup1\n      0x5353a2d8\n      eq\n      tag_3\n      jumpi\n      dup1\n      0x8da5cb5b\n      eq\n      tag_4\n      jumpi\n      dup1\n      0xa9059cbb\n      eq\n      tag_5\n      jumpi\n      dup1\n      0xa990a7a7\n      eq\n      tag_6\n      jumpi\n      dup1\n      0xc6ea59b9\n      eq\n      tag_7\n      jumpi\n    tag_2:\n      0x00\n      dup1\n      revert\n        /* \"contracts/functions.sol\":1485:1574  function changeName(string memory _newName)\r... */\n    tag_3:\n      tag_8\n      0x04\n      dup1\n      calldatasize\n      sub\n      dup2\n      add\n      swap1\n      tag_9\n      swap2\n      swap1\n      tag_10\n      jump\t// in\n    tag_9:\n      tag_11\n      jump\t// in\n    tag_8:\n      stop\n        /* \"contracts/functions.sol\":1305:1333  address payable public owner */\n    tag_4:\n      tag_12\n      tag_13\n      jump\t// in\n    tag_12:\n      mload(0x40)\n      tag_14\n      swap2\n      swap1\n      tag_15\n      jump\t// in\n    tag_14:\n      mload(0x40)\n      dup1\n      swap2\n      sub\n      swap1\n      return\n        /* \"contracts/functions.sol\":1342:1446  function transfer(address payable _to, uint _amount)\r... */\n    tag_5:\n      tag_16\n      0x04\n      dup1\n      calldatasize\n      sub\n      dup2\n      add\n      swap1\n      tag_17\n      swap2\n      swap1\n      tag_18\n      jump\t// in\n    tag_17:\n      tag_19\n      jump\t// in\n    tag_16:\n      stop\n        /* \"contracts/functions.sol\":775:1006  function getPureName(uint a, uint b)\r... */\n    tag_6:\n      tag_20\n      0x04\n      dup1\n      calldatasize\n      sub\n      dup2\n      add\n      swap1\n      tag_21\n      swap2\n      swap1\n      tag_22\n      jump\t// in\n    tag_21:\n      tag_23\n      jump\t// in\n    tag_20:\n      mload(0x40)\n      tag_24\n      swap2\n      swap1\n      tag_25\n      jump\t// in\n    tag_24:\n      mload(0x40)\n      dup1\n      swap2\n      sub\n      swap1\n      return\n        /* \"contracts/functions.sol\":586:714  function getname()\r... */\n    tag_7:\n      tag_26\n      tag_27\n      jump\t// in\n    tag_26:\n      mload(0x40)\n      tag_28\n      swap2\n      swap1\n      tag_29\n      jump\t// in\n    tag_28:\n      mload(0x40)\n      dup1\n      swap2\n      sub\n      swap1\n      return\n        /* \"contracts/functions.sol\":1485:1574  function changeName(string memory _newName)\r... */\n    tag_11:\n        /* \"contracts/functions.sol\":1558:1566  _newName */\n      dup1\n        /* \"contracts/functions.sol\":1551:1555  name */\n      0x00\n        /* \"contracts/functions.sol\":1551:1566  name = _newName */\n      swap1\n      dup1\n      mload\n      swap1\n      0x20\n      add\n      swap1\n      tag_31\n      swap3\n      swap2\n      swap1\n      tag_32\n      jump\t// in\n    tag_31:\n      pop\n        /* \"contracts/functions.sol\":1485:1574  function changeName(string memory _newName)\r... */\n      pop\n      jump\t// out\n        /* \"contracts/functions.sol\":1305:1333  address payable public owner */\n    tag_13:\n      0x01\n      0x00\n      swap1\n      sload\n      swap1\n      0x0100\n      exp\n      swap1\n      div\n      0xffffffffffffffffffffffffffffffffffffffff\n      and\n      dup2\n      jump\t// out\n        /* \"contracts/functions.sol\":1342:1446  function transfer(address payable _to, uint _amount)\r... */\n    tag_19:\n        /* \"contracts/functions.sol\":1417:1420  _to */\n      dup2\n        /* \"contracts/functions.sol\":1417:1429  _to.transfer */\n      0xffffffffffffffffffffffffffffffffffffffff\n      and\n        /* \"contracts/functions.sol\":1417:1438  _to.transfer(_amount) */\n      0x08fc\n        /* \"contracts/functions.sol\":1430:1437  _amount */\n      dup3\n        /* \"contracts/functions.sol\":1417:1438  _to.transfer(_amount) */\n      swap1\n      dup2\n      iszero\n      mul\n      swap1\n      mload(0x40)\n      0x00\n      mload(0x40)\n      dup1\n      dup4\n      sub\n      dup2\n      dup6\n      dup9\n      dup9\n      call\n      swap4\n      pop\n      pop\n      pop\n      pop\n      iszero\n      dup1\n      iszero\n      tag_35\n      jumpi\n      returndatasize\n      0x00\n      dup1\n      returndatacopy\n      revert(0x00, returndatasize)\n    tag_35:\n      pop\n        /* \"contracts/functions.sol\":1342:1446  function transfer(address payable _to, uint _amount)\r... */\n      pop\n      pop\n      jump\t// out\n        /* \"contracts/functions.sol\":775:1006  function getPureName(uint a, uint b)\r... */\n    tag_23:\n        /* \"contracts/functions.sol\":860:864  uint */\n      0x00\n        /* \"contracts/functions.sol\":876:895  string memory _name */\n      dup1\n        /* \"contracts/functions.sol\":876:901  string memory _name = \"V\" */\n      mload(0x40)\n      dup1\n      0x40\n      add\n      0x40\n      mstore\n      dup1\n      0x01\n      dup2\n      mstore\n      0x20\n      add\n      0x5600000000000000000000000000000000000000000000000000000000000000\n      dup2\n      mstore\n      pop\n      swap1\n      pop\n        /* \"contracts/functions.sol\":940:951  uint result */\n      0x00\n        /* \"contracts/functions.sol\":956:957  b */\n      dup4\n        /* \"contracts/functions.sol\":954:955  a */\n      dup6\n        /* \"contracts/functions.sol\":954:957  a+b */\n      tag_37\n      swap2\n      swap1\n      tag_38\n      jump\t// in\n    tag_37:\n        /* \"contracts/functions.sol\":940:957  uint result = a+b */\n      swap1\n      pop\n        /* \"contracts/functions.sol\":975:981  result */\n      dup1\n        /* \"contracts/functions.sol\":968:981  return result */\n      swap3\n      pop\n      pop\n      pop\n        /* \"contracts/functions.sol\":775:1006  function getPureName(uint a, uint b)\r... */\n      swap3\n      swap2\n      pop\n      pop\n      jump\t// out\n        /* \"contracts/functions.sol\":586:714  function getname()\r... */\n    tag_27:\n        /* \"contracts/functions.sol\":653:666  string memory */\n      0x60\n        /* \"contracts/functions.sol\":685:689  name */\n      0x00\n        /* \"contracts/functions.sol\":678:689  return name */\n      dup1\n      sload\n      tag_40\n      swap1\n      tag_41\n      jump\t// in\n    tag_40:\n      dup1\n      0x1f\n      add\n      0x20\n      dup1\n      swap2\n      div\n      mul\n      0x20\n      add\n      mload(0x40)\n      swap1\n      dup2\n      add\n      0x40\n      mstore\n      dup1\n      swap3\n      swap2\n      swap1\n      dup2\n      dup2\n      mstore\n      0x20\n      add\n      dup3\n      dup1\n      sload\n      tag_42\n      swap1\n      tag_41\n      jump\t// in\n    tag_42:\n      dup1\n      iszero\n      tag_43\n      jumpi\n      dup1\n      0x1f\n      lt\n      tag_44\n      jumpi\n      0x0100\n      dup1\n      dup4\n      sload\n      div\n      mul\n      dup4\n      mstore\n      swap2\n      0x20\n      add\n      swap2\n      jump(tag_43)\n    tag_44:\n      dup3\n      add\n      swap2\n      swap1\n      0x00\n      mstore\n      keccak256(0x00, 0x20)\n      swap1\n    tag_45:\n      dup2\n      sload\n      dup2\n      mstore\n      swap1\n      0x01\n      add\n      swap1\n      0x20\n      add\n      dup1\n      dup4\n      gt\n      tag_45\n      jumpi\n      dup3\n      swap1\n      sub\n      0x1f\n      and\n      dup3\n      add\n      swap2\n    tag_43:\n      pop\n      pop\n      pop\n      pop\n      pop\n      swap1\n      pop\n        /* \"contracts/functions.sol\":586:714  function getname()\r... */\n      swap1\n      jump\t// out\n    tag_32:\n      dup3\n      dup1\n      sload\n      tag_46\n      swap1\n      tag_41\n      jump\t// in\n    tag_46:\n      swap1\n      0x00\n      mstore\n      keccak256(0x00, 0x20)\n      swap1\n      0x1f\n      add\n      0x20\n      swap1\n      div\n      dup2\n      add\n      swap3\n      dup3\n      tag_48\n      jumpi\n      0x00\n      dup6\n      sstore\n      jump(tag_47)\n    tag_48:\n      dup3\n      0x1f\n      lt\n      tag_49\n      jumpi\n      dup1\n      mload\n      not(0xff)\n      and\n      dup4\n      dup1\n      add\n      or\n      dup6\n      sstore\n      jump(tag_47)\n    tag_49:\n      dup3\n      dup1\n      add\n      0x01\n      add\n      dup6\n      sstore\n      dup3\n      iszero\n      tag_47\n      jumpi\n      swap2\n      dup3\n      add\n    tag_50:\n      dup3\n      dup2\n      gt\n      iszero\n      tag_51\n      jumpi\n      dup3\n      mload\n      dup3\n      sstore\n      swap2\n      0x20\n      add\n      swap2\n      swap1\n      0x01\n      add\n      swap1\n      jump(tag_50)\n    tag_51:\n    tag_47:\n      pop\n      swap1\n      pop\n      tag_52\n      swap2\n      swap1\n      tag_53\n      jump\t// in\n    tag_52:\n      pop\n      swap1\n      jump\t// out\n    tag_53:\n    tag_54:\n      dup1\n      dup3\n      gt\n      iszero\n      tag_55\n      jumpi\n      0x00\n      dup2\n      0x00\n      swap1\n      sstore\n      pop\n      0x01\n      add\n      jump(tag_54)\n    tag_55:\n      pop\n      swap1\n      jump\t// out\n        /* \"#utility.yul\":7:419   */\n    tag_57:\n        /* \"#utility.yul\":85:90   */\n      0x00\n        /* \"#utility.yul\":110:176   */\n      tag_59\n        /* \"#utility.yul\":126:175   */\n      tag_60\n        /* \"#utility.yul\":168:174   */\n      dup5\n        /* \"#utility.yul\":126:175   */\n      tag_61\n      jump\t// in\n    tag_60:\n        /* \"#utility.yul\":110:176   */\n      tag_62\n      jump\t// in\n    tag_59:\n        /* \"#utility.yul\":101:176   */\n      swap1\n      pop\n        /* \"#utility.yul\":199:205   */\n      dup3\n        /* \"#utility.yul\":192:197   */\n      dup2\n        /* \"#utility.yul\":185:206   */\n      mstore\n        /* \"#utility.yul\":237:241   */\n      0x20\n        /* \"#utility.yul\":230:235   */\n      dup2\n        /* \"#utility.yul\":226:242   */\n      add\n        /* \"#utility.yul\":275:278   */\n      dup5\n        /* \"#utility.yul\":266:272   */\n      dup5\n        /* \"#utility.yul\":261:264   */\n      dup5\n        /* \"#utility.yul\":257:273   */\n      add\n        /* \"#utility.yul\":254:279   */\n      gt\n        /* \"#utility.yul\":251:363   */\n      iszero\n      tag_63\n      jumpi\n        /* \"#utility.yul\":282:361   */\n      tag_64\n      tag_65\n      jump\t// in\n    tag_64:\n        /* \"#utility.yul\":251:363   */\n    tag_63:\n        /* \"#utility.yul\":372:413   */\n      tag_66\n        /* \"#utility.yul\":406:412   */\n      dup5\n        /* \"#utility.yul\":401:404   */\n      dup3\n        /* \"#utility.yul\":396:399   */\n      dup6\n        /* \"#utility.yul\":372:413   */\n      tag_67\n      jump\t// in\n    tag_66:\n        /* \"#utility.yul\":91:419   */\n      pop\n        /* \"#utility.yul\":7:419   */\n      swap4\n      swap3\n      pop\n      pop\n      pop\n      jump\t// out\n        /* \"#utility.yul\":425:580   */\n    tag_68:\n        /* \"#utility.yul\":479:484   */\n      0x00\n        /* \"#utility.yul\":517:523   */\n      dup2\n        /* \"#utility.yul\":504:524   */\n      calldataload\n        /* \"#utility.yul\":495:524   */\n      swap1\n      pop\n        /* \"#utility.yul\":533:574   */\n      tag_70\n        /* \"#utility.yul\":568:573   */\n      dup2\n        /* \"#utility.yul\":533:574   */\n      tag_71\n      jump\t// in\n    tag_70:\n        /* \"#utility.yul\":425:580   */\n      swap3\n      swap2\n      pop\n      pop\n      jump\t// out\n        /* \"#utility.yul\":600:940   */\n    tag_72:\n        /* \"#utility.yul\":656:661   */\n      0x00\n        /* \"#utility.yul\":705:708   */\n      dup3\n        /* \"#utility.yul\":698:702   */\n      0x1f\n        /* \"#utility.yul\":690:696   */\n      dup4\n        /* \"#utility.yul\":686:703   */\n      add\n        /* \"#utility.yul\":682:709   */\n      slt\n        /* \"#utility.yul\":672:794   */\n      tag_74\n      jumpi\n        /* \"#utility.yul\":713:792   */\n      tag_75\n      tag_76\n      jump\t// in\n    tag_75:\n        /* \"#utility.yul\":672:794   */\n    tag_74:\n        /* \"#utility.yul\":830:836   */\n      dup2\n        /* \"#utility.yul\":817:837   */\n      calldataload\n        /* \"#utility.yul\":855:934   */\n      tag_77\n        /* \"#utility.yul\":930:933   */\n      dup5\n        /* \"#utility.yul\":922:928   */\n      dup3\n        /* \"#utility.yul\":915:919   */\n      0x20\n        /* \"#utility.yul\":907:913   */\n      dup7\n        /* \"#utility.yul\":903:920   */\n      add\n        /* \"#utility.yul\":855:934   */\n      tag_57\n      jump\t// in\n    tag_77:\n        /* \"#utility.yul\":846:934   */\n      swap2\n      pop\n        /* \"#utility.yul\":662:940   */\n      pop\n        /* \"#utility.yul\":600:940   */\n      swap3\n      swap2\n      pop\n      pop\n      jump\t// out\n        /* \"#utility.yul\":946:1085   */\n    tag_78:\n        /* \"#utility.yul\":992:997   */\n      0x00\n        /* \"#utility.yul\":1030:1036   */\n      dup2\n        /* \"#utility.yul\":1017:1037   */\n      calldataload\n        /* \"#utility.yul\":1008:1037   */\n      swap1\n      pop\n        /* \"#utility.yul\":1046:1079   */\n      tag_80\n        /* \"#utility.yul\":1073:1078   */\n      dup2\n        /* \"#utility.yul\":1046:1079   */\n      tag_81\n      jump\t// in\n    tag_80:\n        /* \"#utility.yul\":946:1085   */\n      swap3\n      swap2\n      pop\n      pop\n      jump\t// out\n        /* \"#utility.yul\":1091:1581   */\n    tag_18:\n        /* \"#utility.yul\":1167:1173   */\n      0x00\n        /* \"#utility.yul\":1175:1181   */\n      dup1\n        /* \"#utility.yul\":1224:1226   */\n      0x40\n        /* \"#utility.yul\":1212:1221   */\n      dup4\n        /* \"#utility.yul\":1203:1210   */\n      dup6\n        /* \"#utility.yul\":1199:1222   */\n      sub\n        /* \"#utility.yul\":1195:1227   */\n      slt\n        /* \"#utility.yul\":1192:1311   */\n      iszero\n      tag_83\n      jumpi\n        /* \"#utility.yul\":1230:1309   */\n      tag_84\n      tag_85\n      jump\t// in\n    tag_84:\n        /* \"#utility.yul\":1192:1311   */\n    tag_83:\n        /* \"#utility.yul\":1350:1351   */\n      0x00\n        /* \"#utility.yul\":1375:1436   */\n      tag_86\n        /* \"#utility.yul\":1428:1435   */\n      dup6\n        /* \"#utility.yul\":1419:1425   */\n      dup3\n        /* \"#utility.yul\":1408:1417   */\n      dup7\n        /* \"#utility.yul\":1404:1426   */\n      add\n        /* \"#utility.yul\":1375:1436   */\n      tag_68\n      jump\t// in\n    tag_86:\n        /* \"#utility.yul\":1365:1436   */\n      swap3\n      pop\n        /* \"#utility.yul\":1321:1446   */\n      pop\n        /* \"#utility.yul\":1485:1487   */\n      0x20\n        /* \"#utility.yul\":1511:1564   */\n      tag_87\n        /* \"#utility.yul\":1556:1563   */\n      dup6\n        /* \"#utility.yul\":1547:1553   */\n      dup3\n        /* \"#utility.yul\":1536:1545   */\n      dup7\n        /* \"#utility.yul\":1532:1554   */\n      add\n        /* \"#utility.yul\":1511:1564   */\n      tag_78\n      jump\t// in\n    tag_87:\n        /* \"#utility.yul\":1501:1564   */\n      swap2\n      pop\n        /* \"#utility.yul\":1456:1574   */\n      pop\n        /* \"#utility.yul\":1091:1581   */\n      swap3\n      pop\n      swap3\n      swap1\n      pop\n      jump\t// out\n        /* \"#utility.yul\":1587:2096   */\n    tag_10:\n        /* \"#utility.yul\":1656:1662   */\n      0x00\n        /* \"#utility.yul\":1705:1707   */\n      0x20\n        /* \"#utility.yul\":1693:1702   */\n      dup3\n        /* \"#utility.yul\":1684:1691   */\n      dup5\n        /* \"#utility.yul\":1680:1703   */\n      sub\n        /* \"#utility.yul\":1676:1708   */\n      slt\n        /* \"#utility.yul\":1673:1792   */\n      iszero\n      tag_89\n      jumpi\n        /* \"#utility.yul\":1711:1790   */\n      tag_90\n      tag_85\n      jump\t// in\n    tag_90:\n        /* \"#utility.yul\":1673:1792   */\n    tag_89:\n        /* \"#utility.yul\":1859:1860   */\n      0x00\n        /* \"#utility.yul\":1848:1857   */\n      dup3\n        /* \"#utility.yul\":1844:1861   */\n      add\n        /* \"#utility.yul\":1831:1862   */\n      calldataload\n        /* \"#utility.yul\":1889:1907   */\n      0xffffffffffffffff\n        /* \"#utility.yul\":1881:1887   */\n      dup2\n        /* \"#utility.yul\":1878:1908   */\n      gt\n        /* \"#utility.yul\":1875:1992   */\n      iszero\n      tag_91\n      jumpi\n        /* \"#utility.yul\":1911:1990   */\n      tag_92\n      tag_93\n      jump\t// in\n    tag_92:\n        /* \"#utility.yul\":1875:1992   */\n    tag_91:\n        /* \"#utility.yul\":2016:2079   */\n      tag_94\n        /* \"#utility.yul\":2071:2078   */\n      dup5\n        /* \"#utility.yul\":2062:2068   */\n      dup3\n        /* \"#utility.yul\":2051:2060   */\n      dup6\n        /* \"#utility.yul\":2047:2069   */\n      add\n        /* \"#utility.yul\":2016:2079   */\n      tag_72\n      jump\t// in\n    tag_94:\n        /* \"#utility.yul\":2006:2079   */\n      swap2\n      pop\n        /* \"#utility.yul\":1802:2089   */\n      pop\n        /* \"#utility.yul\":1587:2096   */\n      swap3\n      swap2\n      pop\n      pop\n      jump\t// out\n        /* \"#utility.yul\":2102:2576   */\n    tag_22:\n        /* \"#utility.yul\":2170:2176   */\n      0x00\n        /* \"#utility.yul\":2178:2184   */\n      dup1\n        /* \"#utility.yul\":2227:2229   */\n      0x40\n        /* \"#utility.yul\":2215:2224   */\n      dup4\n        /* \"#utility.yul\":2206:2213   */\n      dup6\n        /* \"#utility.yul\":2202:2225   */\n      sub\n        /* \"#utility.yul\":2198:2230   */\n      slt\n        /* \"#utility.yul\":2195:2314   */\n      iszero\n      tag_96\n      jumpi\n        /* \"#utility.yul\":2233:2312   */\n      tag_97\n      tag_85\n      jump\t// in\n    tag_97:\n        /* \"#utility.yul\":2195:2314   */\n    tag_96:\n        /* \"#utility.yul\":2353:2354   */\n      0x00\n        /* \"#utility.yul\":2378:2431   */\n      tag_98\n        /* \"#utility.yul\":2423:2430   */\n      dup6\n        /* \"#utility.yul\":2414:2420   */\n      dup3\n        /* \"#utility.yul\":2403:2412   */\n      dup7\n        /* \"#utility.yul\":2399:2421   */\n      add\n        /* \"#utility.yul\":2378:2431   */\n      tag_78\n      jump\t// in\n    tag_98:\n        /* \"#utility.yul\":2368:2431   */\n      swap3\n      pop\n        /* \"#utility.yul\":2324:2441   */\n      pop\n        /* \"#utility.yul\":2480:2482   */\n      0x20\n        /* \"#utility.yul\":2506:2559   */\n      tag_99\n        /* \"#utility.yul\":2551:2558   */\n      dup6\n        /* \"#utility.yul\":2542:2548   */\n      dup3\n        /* \"#utility.yul\":2531:2540   */\n      dup7\n        /* \"#utility.yul\":2527:2549   */\n      add\n        /* \"#utility.yul\":2506:2559   */\n      tag_78\n      jump\t// in\n    tag_99:\n        /* \"#utility.yul\":2496:2559   */\n      swap2\n      pop\n        /* \"#utility.yul\":2451:2569   */\n      pop\n        /* \"#utility.yul\":2102:2576   */\n      swap3\n      pop\n      swap3\n      swap1\n      pop\n      jump\t// out\n        /* \"#utility.yul\":2582:2724   */\n    tag_100:\n        /* \"#utility.yul\":2685:2717   */\n      tag_102\n        /* \"#utility.yul\":2711:2716   */\n      dup2\n        /* \"#utility.yul\":2685:2717   */\n      tag_103\n      jump\t// in\n    tag_102:\n        /* \"#utility.yul\":2680:2683   */\n      dup3\n        /* \"#utility.yul\":2673:2718   */\n      mstore\n        /* \"#utility.yul\":2582:2724   */\n      pop\n      pop\n      jump\t// out\n        /* \"#utility.yul\":2730:3094   */\n    tag_104:\n        /* \"#utility.yul\":2818:2821   */\n      0x00\n        /* \"#utility.yul\":2846:2885   */\n      tag_106\n        /* \"#utility.yul\":2879:2884   */\n      dup3\n        /* \"#utility.yul\":2846:2885   */\n      tag_107\n      jump\t// in\n    tag_106:\n        /* \"#utility.yul\":2901:2972   */\n      tag_108\n        /* \"#utility.yul\":2965:2971   */\n      dup2\n        /* \"#utility.yul\":2960:2963   */\n      dup6\n        /* \"#utility.yul\":2901:2972   */\n      tag_109\n      jump\t// in\n    tag_108:\n        /* \"#utility.yul\":2894:2972   */\n      swap4\n      pop\n        /* \"#utility.yul\":2981:3033   */\n      tag_110\n        /* \"#utility.yul\":3026:3032   */\n      dup2\n        /* \"#utility.yul\":3021:3024   */\n      dup6\n        /* \"#utility.yul\":3014:3018   */\n      0x20\n        /* \"#utility.yul\":3007:3012   */\n      dup7\n        /* \"#utility.yul\":3003:3019   */\n      add\n        /* \"#utility.yul\":2981:3033   */\n      tag_111\n      jump\t// in\n    tag_110:\n        /* \"#utility.yul\":3058:3087   */\n      tag_112\n        /* \"#utility.yul\":3080:3086   */\n      dup2\n        /* \"#utility.yul\":3058:3087   */\n      tag_113\n      jump\t// in\n    tag_112:\n        /* \"#utility.yul\":3053:3056   */\n      dup5\n        /* \"#utility.yul\":3049:3088   */\n      add\n        /* \"#utility.yul\":3042:3088   */\n      swap2\n      pop\n        /* \"#utility.yul\":2822:3094   */\n      pop\n        /* \"#utility.yul\":2730:3094   */\n      swap3\n      swap2\n      pop\n      pop\n      jump\t// out\n        /* \"#utility.yul\":3100:3218   */\n    tag_114:\n        /* \"#utility.yul\":3187:3211   */\n      tag_116\n        /* \"#utility.yul\":3205:3210   */\n      dup2\n        /* \"#utility.yul\":3187:3211   */\n      tag_117\n      jump\t// in\n    tag_116:\n        /* \"#utility.yul\":3182:3185   */\n      dup3\n        /* \"#utility.yul\":3175:3212   */\n      mstore\n        /* \"#utility.yul\":3100:3218   */\n      pop\n      pop\n      jump\t// out\n        /* \"#utility.yul\":3224:3478   */\n    tag_15:\n        /* \"#utility.yul\":3333:3337   */\n      0x00\n        /* \"#utility.yul\":3371:3373   */\n      0x20\n        /* \"#utility.yul\":3360:3369   */\n      dup3\n        /* \"#utility.yul\":3356:3374   */\n      add\n        /* \"#utility.yul\":3348:3374   */\n      swap1\n      pop\n        /* \"#utility.yul\":3384:3471   */\n      tag_119\n        /* \"#utility.yul\":3468:3469   */\n      0x00\n        /* \"#utility.yul\":3457:3466   */\n      dup4\n        /* \"#utility.yul\":3453:3470   */\n      add\n        /* \"#utility.yul\":3444:3450   */\n      dup5\n        /* \"#utility.yul\":3384:3471   */\n      tag_100\n      jump\t// in\n    tag_119:\n        /* \"#utility.yul\":3224:3478   */\n      swap3\n      swap2\n      pop\n      pop\n      jump\t// out\n        /* \"#utility.yul\":3484:3797   */\n    tag_29:\n        /* \"#utility.yul\":3597:3601   */\n      0x00\n        /* \"#utility.yul\":3635:3637   */\n      0x20\n        /* \"#utility.yul\":3624:3633   */\n      dup3\n        /* \"#utility.yul\":3620:3638   */\n      add\n        /* \"#utility.yul\":3612:3638   */\n      swap1\n      pop\n        /* \"#utility.yul\":3684:3693   */\n      dup2\n        /* \"#utility.yul\":3678:3682   */\n      dup2\n        /* \"#utility.yul\":3674:3694   */\n      sub\n        /* \"#utility.yul\":3670:3671   */\n      0x00\n        /* \"#utility.yul\":3659:3668   */\n      dup4\n        /* \"#utility.yul\":3655:3672   */\n      add\n        /* \"#utility.yul\":3648:3695   */\n      mstore\n        /* \"#utility.yul\":3712:3790   */\n      tag_121\n        /* \"#utility.yul\":3785:3789   */\n      dup2\n        /* \"#utility.yul\":3776:3782   */\n      dup5\n        /* \"#utility.yul\":3712:3790   */\n      tag_104\n      jump\t// in\n    tag_121:\n        /* \"#utility.yul\":3704:3790   */\n      swap1\n      pop\n        /* \"#utility.yul\":3484:3797   */\n      swap3\n      swap2\n      pop\n      pop\n      jump\t// out\n        /* \"#utility.yul\":3803:4025   */\n    tag_25:\n        /* \"#utility.yul\":3896:3900   */\n      0x00\n        /* \"#utility.yul\":3934:3936   */\n      0x20\n        /* \"#utility.yul\":3923:3932   */\n      dup3\n        /* \"#utility.yul\":3919:3937   */\n      add\n        /* \"#utility.yul\":3911:3937   */\n      swap1\n      pop\n        /* \"#utility.yul\":3947:4018   */\n      tag_123\n        /* \"#utility.yul\":4015:4016   */\n      0x00\n        /* \"#utility.yul\":4004:4013   */\n      dup4\n        /* \"#utility.yul\":4000:4017   */\n      add\n        /* \"#utility.yul\":3991:3997   */\n      dup5\n        /* \"#utility.yul\":3947:4018   */\n      tag_114\n      jump\t// in\n    tag_123:\n        /* \"#utility.yul\":3803:4025   */\n      swap3\n      swap2\n      pop\n      pop\n      jump\t// out\n        /* \"#utility.yul\":4031:4160   */\n    tag_62:\n        /* \"#utility.yul\":4065:4071   */\n      0x00\n        /* \"#utility.yul\":4092:4112   */\n      tag_125\n      tag_126\n      jump\t// in\n    tag_125:\n        /* \"#utility.yul\":4082:4112   */\n      swap1\n      pop\n        /* \"#utility.yul\":4121:4154   */\n      tag_127\n        /* \"#utility.yul\":4149:4153   */\n      dup3\n        /* \"#utility.yul\":4141:4147   */\n      dup3\n        /* \"#utility.yul\":4121:4154   */\n      tag_128\n      jump\t// in\n    tag_127:\n        /* \"#utility.yul\":4031:4160   */\n      swap2\n      swap1\n      pop\n      jump\t// out\n        /* \"#utility.yul\":4166:4241   */\n    tag_126:\n        /* \"#utility.yul\":4199:4205   */\n      0x00\n        /* \"#utility.yul\":4232:4234   */\n      0x40\n        /* \"#utility.yul\":4226:4235   */\n      mload\n        /* \"#utility.yul\":4216:4235   */\n      swap1\n      pop\n        /* \"#utility.yul\":4166:4241   */\n      swap1\n      jump\t// out\n        /* \"#utility.yul\":4247:4555   */\n    tag_61:\n        /* \"#utility.yul\":4309:4313   */\n      0x00\n        /* \"#utility.yul\":4399:4417   */\n      0xffffffffffffffff\n        /* \"#utility.yul\":4391:4397   */\n      dup3\n        /* \"#utility.yul\":4388:4418   */\n      gt\n        /* \"#utility.yul\":4385:4441   */\n      iszero\n      tag_131\n      jumpi\n        /* \"#utility.yul\":4421:4439   */\n      tag_132\n      tag_133\n      jump\t// in\n    tag_132:\n        /* \"#utility.yul\":4385:4441   */\n    tag_131:\n        /* \"#utility.yul\":4459:4488   */\n      tag_134\n        /* \"#utility.yul\":4481:4487   */\n      dup3\n        /* \"#utility.yul\":4459:4488   */\n      tag_113\n      jump\t// in\n    tag_134:\n        /* \"#utility.yul\":4451:4488   */\n      swap1\n      pop\n        /* \"#utility.yul\":4543:4547   */\n      0x20\n        /* \"#utility.yul\":4537:4541   */\n      dup2\n        /* \"#utility.yul\":4533:4548   */\n      add\n        /* \"#utility.yul\":4525:4548   */\n      swap1\n      pop\n        /* \"#utility.yul\":4247:4555   */\n      swap2\n      swap1\n      pop\n      jump\t// out\n        /* \"#utility.yul\":4561:4660   */\n    tag_107:\n        /* \"#utility.yul\":4613:4619   */\n      0x00\n        /* \"#utility.yul\":4647:4652   */\n      dup2\n        /* \"#utility.yul\":4641:4653   */\n      mload\n        /* \"#utility.yul\":4631:4653   */\n      swap1\n      pop\n        /* \"#utility.yul\":4561:4660   */\n      swap2\n      swap1\n      pop\n      jump\t// out\n        /* \"#utility.yul\":4666:4835   */\n    tag_109:\n        /* \"#utility.yul\":4750:4761   */\n      0x00\n        /* \"#utility.yul\":4784:4790   */\n      dup3\n        /* \"#utility.yul\":4779:4782   */\n      dup3\n        /* \"#utility.yul\":4772:4791   */\n      mstore\n        /* \"#utility.yul\":4824:4828   */\n      0x20\n        /* \"#utility.yul\":4819:4822   */\n      dup3\n        /* \"#utility.yul\":4815:4829   */\n      add\n        /* \"#utility.yul\":4800:4829   */\n      swap1\n      pop\n        /* \"#utility.yul\":4666:4835   */\n      swap3\n      swap2\n      pop\n      pop\n      jump\t// out\n        /* \"#utility.yul\":4841:5146   */\n    tag_38:\n        /* \"#utility.yul\":4881:4884   */\n      0x00\n        /* \"#utility.yul\":4900:4920   */\n      tag_138\n        /* \"#utility.yul\":4918:4919   */\n      dup3\n        /* \"#utility.yul\":4900:4920   */\n      tag_117\n      jump\t// in\n    tag_138:\n        /* \"#utility.yul\":4895:4920   */\n      swap2\n      pop\n        /* \"#utility.yul\":4934:4954   */\n      tag_139\n        /* \"#utility.yul\":4952:4953   */\n      dup4\n        /* \"#utility.yul\":4934:4954   */\n      tag_117\n      jump\t// in\n    tag_139:\n        /* \"#utility.yul\":4929:4954   */\n      swap3\n      pop\n        /* \"#utility.yul\":5088:5089   */\n      dup3\n        /* \"#utility.yul\":5020:5086   */\n      0xffffffffffffffffffffffffffffffffffffffffffffffffffffffffffffffff\n        /* \"#utility.yul\":5016:5090   */\n      sub\n        /* \"#utility.yul\":5013:5014   */\n      dup3\n        /* \"#utility.yul\":5010:5091   */\n      gt\n        /* \"#utility.yul\":5007:5114   */\n      iszero\n      tag_140\n      jumpi\n        /* \"#utility.yul\":5094:5112   */\n      tag_141\n      tag_142\n      jump\t// in\n    tag_141:\n        /* \"#utility.yul\":5007:5114   */\n    tag_140:\n        /* \"#utility.yul\":5138:5139   */\n      dup3\n        /* \"#utility.yul\":5135:5136   */\n      dup3\n        /* \"#utility.yul\":5131:5140   */\n      add\n        /* \"#utility.yul\":5124:5140   */\n      swap1\n      pop\n        /* \"#utility.yul\":4841:5146   */\n      swap3\n      swap2\n      pop\n      pop\n      jump\t// out\n        /* \"#utility.yul\":5152:5256   */\n    tag_103:\n        /* \"#utility.yul\":5197:5204   */\n      0x00\n        /* \"#utility.yul\":5226:5250   */\n      tag_144\n        /* \"#utility.yul\":5244:5249   */\n      dup3\n        /* \"#utility.yul\":5226:5250   */\n      tag_145\n      jump\t// in\n    tag_144:\n        /* \"#utility.yul\":5215:5250   */\n      swap1\n      pop\n        /* \"#utility.yul\":5152:5256   */\n      swap2\n      swap1\n      pop\n      jump\t// out\n        /* \"#utility.yul\":5262:5388   */\n    tag_145:\n        /* \"#utility.yul\":5299:5306   */\n      0x00\n        /* \"#utility.yul\":5339:5381   */\n      0xffffffffffffffffffffffffffffffffffffffff\n        /* \"#utility.yul\":5332:5337   */\n      dup3\n        /* \"#utility.yul\":5328:5382   */\n      and\n        /* \"#utility.yul\":5317:5382   */\n      swap1\n      pop\n        /* \"#utility.yul\":5262:5388   */\n      swap2\n      swap1\n      pop\n      jump\t// out\n        /* \"#utility.yul\":5394:5471   */\n    tag_117:\n        /* \"#utility.yul\":5431:5438   */\n      0x00\n        /* \"#utility.yul\":5460:5465   */\n      dup2\n        /* \"#utility.yul\":5449:5465   */\n      swap1\n      pop\n        /* \"#utility.yul\":5394:5471   */\n      swap2\n      swap1\n      pop\n      jump\t// out\n        /* \"#utility.yul\":5477:5631   */\n    tag_67:\n        /* \"#utility.yul\":5561:5567   */\n      dup3\n        /* \"#utility.yul\":5556:5559   */\n      dup2\n        /* \"#utility.yul\":5551:5554   */\n      dup4\n        /* \"#utility.yul\":5538:5568   */\n      calldatacopy\n        /* \"#utility.yul\":5623:5624   */\n      0x00\n        /* \"#utility.yul\":5614:5620   */\n      dup4\n        /* \"#utility.yul\":5609:5612   */\n      dup4\n        /* \"#utility.yul\":5605:5621   */\n      add\n        /* \"#utility.yul\":5598:5625   */\n      mstore\n        /* \"#utility.yul\":5477:5631   */\n      pop\n      pop\n      pop\n      jump\t// out\n        /* \"#utility.yul\":5637:5944   */\n    tag_111:\n        /* \"#utility.yul\":5705:5706   */\n      0x00\n        /* \"#utility.yul\":5715:5828   */\n    tag_150:\n        /* \"#utility.yul\":5729:5735   */\n      dup4\n        /* \"#utility.yul\":5726:5727   */\n      dup2\n        /* \"#utility.yul\":5723:5736   */\n      lt\n        /* \"#utility.yul\":5715:5828   */\n      iszero\n      tag_152\n      jumpi\n        /* \"#utility.yul\":5814:5815   */\n      dup1\n        /* \"#utility.yul\":5809:5812   */\n      dup3\n        /* \"#utility.yul\":5805:5816   */\n      add\n        /* \"#utility.yul\":5799:5817   */\n      mload\n        /* \"#utility.yul\":5795:5796   */\n      dup2\n        /* \"#utility.yul\":5790:5793   */\n      dup5\n        /* \"#utility.yul\":5786:5797   */\n      add\n        /* \"#utility.yul\":5779:5818   */\n      mstore\n        /* \"#utility.yul\":5751:5753   */\n      0x20\n        /* \"#utility.yul\":5748:5749   */\n      dup2\n        /* \"#utility.yul\":5744:5754   */\n      add\n        /* \"#utility.yul\":5739:5754   */\n      swap1\n      pop\n        /* \"#utility.yul\":5715:5828   */\n      jump(tag_150)\n    tag_152:\n        /* \"#utility.yul\":5846:5852   */\n      dup4\n        /* \"#utility.yul\":5843:5844   */\n      dup2\n        /* \"#utility.yul\":5840:5853   */\n      gt\n        /* \"#utility.yul\":5837:5938   */\n      iszero\n      tag_153\n      jumpi\n        /* \"#utility.yul\":5926:5927   */\n      0x00\n        /* \"#utility.yul\":5917:5923   */\n      dup5\n        /* \"#utility.yul\":5912:5915   */\n      dup5\n        /* \"#utility.yul\":5908:5924   */\n      add\n        /* \"#utility.yul\":5901:5928   */\n      mstore\n        /* \"#utility.yul\":5837:5938   */\n    tag_153:\n        /* \"#utility.yul\":5686:5944   */\n      pop\n        /* \"#utility.yul\":5637:5944   */\n      pop\n      pop\n      pop\n      jump\t// out\n        /* \"#utility.yul\":5950:6270   */\n    tag_41:\n        /* \"#utility.yul\":5994:6000   */\n      0x00\n        /* \"#utility.yul\":6031:6032   */\n      0x02\n        /* \"#utility.yul\":6025:6029   */\n      dup3\n        /* \"#utility.yul\":6021:6033   */\n      div\n        /* \"#utility.yul\":6011:6033   */\n      swap1\n      pop\n        /* \"#utility.yul\":6078:6079   */\n      0x01\n        /* \"#utility.yul\":6072:6076   */\n      dup3\n        /* \"#utility.yul\":6068:6080   */\n      and\n        /* \"#utility.yul\":6099:6117   */\n      dup1\n        /* \"#utility.yul\":6089:6170   */\n      tag_155\n      jumpi\n        /* \"#utility.yul\":6155:6159   */\n      0x7f\n        /* \"#utility.yul\":6147:6153   */\n      dup3\n        /* \"#utility.yul\":6143:6160   */\n      and\n        /* \"#utility.yul\":6133:6160   */\n      swap2\n      pop\n        /* \"#utility.yul\":6089:6170   */\n    tag_155:\n        /* \"#utility.yul\":6217:6219   */\n      0x20\n        /* \"#utility.yul\":6209:6215   */\n      dup3\n        /* \"#utility.yul\":6206:6220   */\n      lt\n        /* \"#utility.yul\":6186:6204   */\n      dup2\n        /* \"#utility.yul\":6183:6221   */\n      eq\n        /* \"#utility.yul\":6180:6264   */\n      iszero\n      tag_156\n      jumpi\n        /* \"#utility.yul\":6236:6254   */\n      tag_157\n      tag_158\n      jump\t// in\n    tag_157:\n        /* \"#utility.yul\":6180:6264   */\n    tag_156:\n        /* \"#utility.yul\":6001:6270   */\n      pop\n        /* \"#utility.yul\":5950:6270   */\n      swap2\n      swap1\n      pop\n      jump\t// out\n        /* \"#utility.yul\":6276:6557   */\n    tag_128:\n        /* \"#utility.yul\":6359:6386   */\n      tag_160\n        /* \"#utility.yul\":6381:6385   */\n      dup3\n        /* \"#utility.yul\":6359:6386   */\n      tag_113\n      jump\t// in\n    tag_160:\n        /* \"#utility.yul\":6351:6357   */\n      dup2\n        /* \"#utility.yul\":6347:6387   */\n      add\n        /* \"#utility.yul\":6489:6495   */\n      dup2\n        /* \"#utility.yul\":6477:6487   */\n      dup2\n        /* \"#utility.yul\":6474:6496   */\n      lt\n        /* \"#utility.yul\":6453:6471   */\n      0xffffffffffffffff\n        /* \"#utility.yul\":6441:6451   */\n      dup3\n        /* \"#utility.yul\":6438:6472   */\n      gt\n        /* \"#utility.yul\":6435:6497   */\n      or\n        /* \"#utility.yul\":6432:6520   */\n      iszero\n      tag_161\n      jumpi\n        /* \"#utility.yul\":6500:6518   */\n      tag_162\n      tag_133\n      jump\t// in\n    tag_162:\n        /* \"#utility.yul\":6432:6520   */\n    tag_161:\n        /* \"#utility.yul\":6540:6550   */\n      dup1\n        /* \"#utility.yul\":6536:6538   */\n      0x40\n        /* \"#utility.yul\":6529:6551   */\n      mstore\n        /* \"#utility.yul\":6319:6557   */\n      pop\n        /* \"#utility.yul\":6276:6557   */\n      pop\n      pop\n      jump\t// out\n        /* \"#utility.yul\":6563:6743   */\n    tag_142:\n        /* \"#utility.yul\":6611:6688   */\n      0x4e487b7100000000000000000000000000000000000000000000000000000000\n        /* \"#utility.yul\":6608:6609   */\n      0x00\n        /* \"#utility.yul\":6601:6689   */\n      mstore\n        /* \"#utility.yul\":6708:6712   */\n      0x11\n        /* \"#utility.yul\":6705:6706   */\n      0x04\n        /* \"#utility.yul\":6698:6713   */\n      mstore\n        /* \"#utility.yul\":6732:6736   */\n      0x24\n        /* \"#utility.yul\":6729:6730   */\n      0x00\n        /* \"#utility.yul\":6722:6737   */\n      revert\n        /* \"#utility.yul\":6749:6929   */\n    tag_158:\n        /* \"#utility.yul\":6797:6874   */\n      0x4e487b7100000000000000000000000000000000000000000000000000000000\n        /* \"#utility.yul\":6794:6795   */\n      0x00\n        /* \"#utility.yul\":6787:6875   */\n      mstore\n        /* \"#utility.yul\":6894:6898   */\n      0x22\n        /* \"#utility.yul\":6891:6892   */\n      0x04\n        /* \"#utility.yul\":6884:6899   */\n      mstore\n        /* \"#utility.yul\":6918:6922   */\n      0x24\n        /* \"#utility.yul\":6915:6916   */\n      0x00\n        /* \"#utility.yul\":6908:6923   */\n      revert\n        /* \"#utility.yul\":6935:7115   */\n    tag_133:\n        /* \"#utility.yul\":6983:7060   */\n      0x4e487b7100000000000000000000000000000000000000000000000000000000\n        /* \"#utility.yul\":6980:6981   */\n      0x00\n        /* \"#utility.yul\":6973:7061   */\n      mstore\n        /* \"#utility.yul\":7080:7084   */\n      0x41\n        /* \"#utility.yul\":7077:7078   */\n      0x04\n        /* \"#utility.yul\":7070:7085   */\n      mstore\n        /* \"#utility.yul\":7104:7108   */\n      0x24\n        /* \"#utility.yul\":7101:7102   */\n      0x00\n        /* \"#utility.yul\":7094:7109   */\n      revert\n        /* \"#utility.yul\":7121:7238   */\n    tag_76:\n        /* \"#utility.yul\":7230:7231   */\n      0x00\n        /* \"#utility.yul\":7227:7228   */\n      dup1\n        /* \"#utility.yul\":7220:7232   */\n      revert\n        /* \"#utility.yul\":7244:7361   */\n    tag_65:\n        /* \"#utility.yul\":7353:7354   */\n      0x00\n        /* \"#utility.yul\":7350:7351   */\n      dup1\n        /* \"#utility.yul\":7343:7355   */\n      revert\n        /* \"#utility.yul\":7367:7484   */\n    tag_93:\n        /* \"#utility.yul\":7476:7477   */\n      0x00\n        /* \"#utility.yul\":7473:7474   */\n      dup1\n        /* \"#utility.yul\":7466:7478   */\n      revert\n        /* \"#utility.yul\":7490:7607   */\n    tag_85:\n        /* \"#utility.yul\":7599:7600   */\n      0x00\n        /* \"#utility.yul\":7596:7597   */\n      dup1\n        /* \"#utility.yul\":7589:7601   */\n      revert\n        /* \"#utility.yul\":7613:7715   */\n    tag_113:\n        /* \"#utility.yul\":7654:7660   */\n      0x00\n        /* \"#utility.yul\":7705:7707   */\n      0x1f\n        /* \"#utility.yul\":7701:7708   */\n      not\n        /* \"#utility.yul\":7696:7698   */\n      0x1f\n        /* \"#utility.yul\":7689:7694   */\n      dup4\n        /* \"#utility.yul\":7685:7699   */\n      add\n        /* \"#utility.yul\":7681:7709   */\n      and\n        /* \"#utility.yul\":7671:7709   */\n      swap1\n      pop\n        /* \"#utility.yul\":7613:7715   */\n      swap2\n      swap1\n      pop\n      jump\t// out\n        /* \"#utility.yul\":7721:7859   */\n    tag_71:\n        /* \"#utility.yul\":7802:7834   */\n      tag_172\n        /* \"#utility.yul\":7828:7833   */\n      dup2\n        /* \"#utility.yul\":7802:7834   */\n      tag_103\n      jump\t// in\n    tag_172:\n        /* \"#utility.yul\":7795:7800   */\n      dup2\n        /* \"#utility.yul\":7792:7835   */\n      eq\n        /* \"#utility.yul\":7782:7853   */\n      tag_173\n      jumpi\n        /* \"#utility.yul\":7849:7850   */\n      0x00\n        /* \"#utility.yul\":7846:7847   */\n      dup1\n        /* \"#utility.yul\":7839:7851   */\n      revert\n        /* \"#utility.yul\":7782:7853   */\n    tag_173:\n        /* \"#utility.yul\":7721:7859   */\n      pop\n      jump\t// out\n        /* \"#utility.yul\":7865:7987   */\n    tag_81:\n        /* \"#utility.yul\":7938:7962   */\n      tag_175\n        /* \"#utility.yul\":7956:7961   */\n      dup2\n        /* \"#utility.yul\":7938:7962   */\n      tag_117\n      jump\t// in\n    tag_175:\n        /* \"#utility.yul\":7931:7936   */\n      dup2\n        /* \"#utility.yul\":7928:7963   */\n      eq\n        /* \"#utility.yul\":7918:7981   */\n      tag_176\n      jumpi\n        /* \"#utility.yul\":7977:7978   */\n      0x00\n        /* \"#utility.yul\":7974:7975   */\n      dup1\n        /* \"#utility.yul\":7967:7979   */\n      revert\n        /* \"#utility.yul\":7918:7981   */\n    tag_176:\n        /* \"#utility.yul\":7865:7987   */\n      pop\n      jump\t// out\n\n    auxdata: 0xa2646970667358221220dc5494965ab6ad7f8a2342aa664ce769c5498347b1b8b6422e764ecd541e82b464736f6c63430008070033\n}\n",
				"bytecode": {
					"linkReferences": {},
					"object": "60806040526040518060400160405280600781526020017f506f6c79676f6e000000000000000000000000000000000000000000000000008152506000908051906020019061004f929190610062565b5034801561005c57600080fd5b50610166565b82805461006e90610105565b90600052602060002090601f01602090048101928261009057600085556100d7565b82601f106100a957805160ff19168380011785556100d7565b828001600101855582156100d7579182015b828111156100d65782518255916020019190600101906100bb565b5b5090506100e491906100e8565b5090565b5b808211156101015760008160009055506001016100e9565b5090565b6000600282049050600182168061011d57607f821691505b6020821081141561013157610130610137565b5b50919050565b7f4e487b7100000000000000000000000000000000000000000000000000000000600052602260045260246000fd5b6107e7806101756000396000f3fe608060405234801561001057600080fd5b50600436106100575760003560e01c80635353a2d81461005c5780638da5cb5b14610078578063a9059cbb14610096578063a990a7a7146100b2578063c6ea59b9146100e2575b600080fd5b610076600480360381019061007191906103f0565b610100565b005b61008061011a565b60405161008d91906104d0565b60405180910390f35b6100b060048036038101906100ab91906103b0565b610140565b005b6100cc60048036038101906100c79190610439565b61018b565b6040516100d9919061050d565b60405180910390f35b6100ea6101e1565b6040516100f791906104eb565b60405180910390f35b8060009080519060200190610116929190610273565b5050565b600160009054906101000a900473ffffffffffffffffffffffffffffffffffffffff1681565b8173ffffffffffffffffffffffffffffffffffffffff166108fc829081150290604051600060405180830381858888f19350505050158015610186573d6000803e3d6000fd5b505050565b6000806040518060400160405280600181526020017f56000000000000000000000000000000000000000000000000000000000000008152509050600083856101d4919061059a565b9050809250505092915050565b6060600080546101f09061066e565b80601f016020809104026020016040519081016040528092919081815260200182805461021c9061066e565b80156102695780601f1061023e57610100808354040283529160200191610269565b820191906000526020600020905b81548152906001019060200180831161024c57829003601f168201915b5050505050905090565b82805461027f9061066e565b90600052602060002090601f0160209004810192826102a157600085556102e8565b82601f106102ba57805160ff19168380011785556102e8565b828001600101855582156102e8579182015b828111156102e75782518255916020019190600101906102cc565b5b5090506102f591906102f9565b5090565b5b808211156103125760008160009055506001016102fa565b5090565b60006103296103248461054d565b610528565b90508281526020810184848401111561034557610344610763565b5b61035084828561062c565b509392505050565b60008135905061036781610783565b92915050565b600082601f8301126103825761038161075e565b5b8135610392848260208601610316565b91505092915050565b6000813590506103aa8161079a565b92915050565b600080604083850312156103c7576103c661076d565b5b60006103d585828601610358565b92505060206103e68582860161039b565b9150509250929050565b6000602082840312156104065761040561076d565b5b600082013567ffffffffffffffff81111561042457610423610768565b5b6104308482850161036d565b91505092915050565b600080604083850312156104505761044f61076d565b5b600061045e8582860161039b565b925050602061046f8582860161039b565b9150509250929050565b610482816105f0565b82525050565b60006104938261057e565b61049d8185610589565b93506104ad81856020860161063b565b6104b681610772565b840191505092915050565b6104ca81610622565b82525050565b60006020820190506104e56000830184610479565b92915050565b600060208201905081810360008301526105058184610488565b905092915050565b600060208201905061052260008301846104c1565b92915050565b6000610532610543565b905061053e82826106a0565b919050565b6000604051905090565b600067ffffffffffffffff8211156105685761056761072f565b5b61057182610772565b9050602081019050919050565b600081519050919050565b600082825260208201905092915050565b60006105a582610622565b91506105b083610622565b9250827fffffffffffffffffffffffffffffffffffffffffffffffffffffffffffffffff038211156105e5576105e46106d1565b5b828201905092915050565b60006105fb82610602565b9050919050565b600073ffffffffffffffffffffffffffffffffffffffff82169050919050565b6000819050919050565b82818337600083830152505050565b60005b8381101561065957808201518184015260208101905061063e565b83811115610668576000848401525b50505050565b6000600282049050600182168061068657607f821691505b6020821081141561069a57610699610700565b5b50919050565b6106a982610772565b810181811067ffffffffffffffff821117156106c8576106c761072f565b5b80604052505050565b7f4e487b7100000000000000000000000000000000000000000000000000000000600052601160045260246000fd5b7f4e487b7100000000000000000000000000000000000000000000000000000000600052602260045260246000fd5b7f4e487b7100000000000000000000000000000000000000000000000000000000600052604160045260246000fd5b600080fd5b600080fd5b600080fd5b600080fd5b6000601f19601f8301169050919050565b61078c816105f0565b811461079757600080fd5b50565b6107a381610622565b81146107ae57600080fd5b5056fea2646970667358221220dc5494965ab6ad7f8a2342aa664ce769c5498347b1b8b6422e764ecd541e82b464736f6c63430008070033",
					"opcodes": "PUSH1 0x80 PUSH1 0x40 MSTORE PUSH1 0x40 MLOAD DUP1 PUSH1 0x40 ADD PUSH1 0x40 MSTORE DUP1 PUSH1 0x7 DUP2 MSTORE PUSH1 0x20 ADD PUSH32 0x506F6C79676F6E00000000000000000000000000000000000000000000000000 DUP2 MSTORE POP PUSH1 0x0 SWAP1 DUP1 MLOAD SWAP1 PUSH1 0x20 ADD SWAP1 PUSH2 0x4F SWAP3 SWAP2 SWAP1 PUSH2 0x62 JUMP JUMPDEST POP CALLVALUE DUP1 ISZERO PUSH2 0x5C JUMPI PUSH1 0x0 DUP1 REVERT JUMPDEST POP PUSH2 0x166 JUMP JUMPDEST DUP3 DUP1 SLOAD PUSH2 0x6E SWAP1 PUSH2 0x105 JUMP JUMPDEST SWAP1 PUSH1 0x0 MSTORE PUSH1 0x20 PUSH1 0x0 KECCAK256 SWAP1 PUSH1 0x1F ADD PUSH1 0x20 SWAP1 DIV DUP2 ADD SWAP3 DUP3 PUSH2 0x90 JUMPI PUSH1 0x0 DUP6 SSTORE PUSH2 0xD7 JUMP JUMPDEST DUP3 PUSH1 0x1F LT PUSH2 0xA9 JUMPI DUP1 MLOAD PUSH1 0xFF NOT AND DUP4 DUP1 ADD OR DUP6 SSTORE PUSH2 0xD7 JUMP JUMPDEST DUP3 DUP1 ADD PUSH1 0x1 ADD DUP6 SSTORE DUP3 ISZERO PUSH2 0xD7 JUMPI SWAP2 DUP3 ADD JUMPDEST DUP3 DUP2 GT ISZERO PUSH2 0xD6 JUMPI DUP3 MLOAD DUP3 SSTORE SWAP2 PUSH1 0x20 ADD SWAP2 SWAP1 PUSH1 0x1 ADD SWAP1 PUSH2 0xBB JUMP JUMPDEST JUMPDEST POP SWAP1 POP PUSH2 0xE4 SWAP2 SWAP1 PUSH2 0xE8 JUMP JUMPDEST POP SWAP1 JUMP JUMPDEST JUMPDEST DUP1 DUP3 GT ISZERO PUSH2 0x101 JUMPI PUSH1 0x0 DUP2 PUSH1 0x0 SWAP1 SSTORE POP PUSH1 0x1 ADD PUSH2 0xE9 JUMP JUMPDEST POP SWAP1 JUMP JUMPDEST PUSH1 0x0 PUSH1 0x2 DUP3 DIV SWAP1 POP PUSH1 0x1 DUP3 AND DUP1 PUSH2 0x11D JUMPI PUSH1 0x7F DUP3 AND SWAP2 POP JUMPDEST PUSH1 0x20 DUP3 LT DUP2 EQ ISZERO PUSH2 0x131 JUMPI PUSH2 0x130 PUSH2 0x137 JUMP JUMPDEST JUMPDEST POP SWAP2 SWAP1 POP JUMP JUMPDEST PUSH32 0x4E487B7100000000000000000000000000000000000000000000000000000000 PUSH1 0x0 MSTORE PUSH1 0x22 PUSH1 0x4 MSTORE PUSH1 0x24 PUSH1 0x0 REVERT JUMPDEST PUSH2 0x7E7 DUP1 PUSH2 0x175 PUSH1 0x0 CODECOPY PUSH1 0x0 RETURN INVALID PUSH1 0x80 PUSH1 0x40 MSTORE CALLVALUE DUP1 ISZERO PUSH2 0x10 JUMPI PUSH1 0x0 DUP1 REVERT JUMPDEST POP PUSH1 0x4 CALLDATASIZE LT PUSH2 0x57 JUMPI PUSH1 0x0 CALLDATALOAD PUSH1 0xE0 SHR DUP1 PUSH4 0x5353A2D8 EQ PUSH2 0x5C JUMPI DUP1 PUSH4 0x8DA5CB5B EQ PUSH2 0x78 JUMPI DUP1 PUSH4 0xA9059CBB EQ PUSH2 0x96 JUMPI DUP1 PUSH4 0xA990A7A7 EQ PUSH2 0xB2 JUMPI DUP1 PUSH4 0xC6EA59B9 EQ PUSH2 0xE2 JUMPI JUMPDEST PUSH1 0x0 DUP1 REVERT JUMPDEST PUSH2 0x76 PUSH1 0x4 DUP1 CALLDATASIZE SUB DUP2 ADD SWAP1 PUSH2 0x71 SWAP2 SWAP1 PUSH2 0x3F0 JUMP JUMPDEST PUSH2 0x100 JUMP JUMPDEST STOP JUMPDEST PUSH2 0x80 PUSH2 0x11A JUMP JUMPDEST PUSH1 0x40 MLOAD PUSH2 0x8D SWAP2 SWAP1 PUSH2 0x4D0 JUMP JUMPDEST PUSH1 0x40 MLOAD DUP1 SWAP2 SUB SWAP1 RETURN JUMPDEST PUSH2 0xB0 PUSH1 0x4 DUP1 CALLDATASIZE SUB DUP2 ADD SWAP1 PUSH2 0xAB SWAP2 SWAP1 PUSH2 0x3B0 JUMP JUMPDEST PUSH2 0x140 JUMP JUMPDEST STOP JUMPDEST PUSH2 0xCC PUSH1 0x4 DUP1 CALLDATASIZE SUB DUP2 ADD SWAP1 PUSH2 0xC7 SWAP2 SWAP1 PUSH2 0x439 JUMP JUMPDEST PUSH2 0x18B JUMP JUMPDEST PUSH1 0x40 MLOAD PUSH2 0xD9 SWAP2 SWAP1 PUSH2 0x50D JUMP JUMPDEST PUSH1 0x40 MLOAD DUP1 SWAP2 SUB SWAP1 RETURN JUMPDEST PUSH2 0xEA PUSH2 0x1E1 JUMP JUMPDEST PUSH1 0x40 MLOAD PUSH2 0xF7 SWAP2 SWAP1 PUSH2 0x4EB JUMP JUMPDEST PUSH1 0x40 MLOAD DUP1 SWAP2 SUB SWAP1 RETURN JUMPDEST DUP1 PUSH1 0x0 SWAP1 DUP1 MLOAD SWAP1 PUSH1 0x20 ADD SWAP1 PUSH2 0x116 SWAP3 SWAP2 SWAP1 PUSH2 0x273 JUMP JUMPDEST POP POP JUMP JUMPDEST PUSH1 0x1 PUSH1 0x0 SWAP1 SLOAD SWAP1 PUSH2 0x100 EXP SWAP1 DIV PUSH20 0xFFFFFFFFFFFFFFFFFFFFFFFFFFFFFFFFFFFFFFFF AND DUP2 JUMP JUMPDEST DUP2 PUSH20 0xFFFFFFFFFFFFFFFFFFFFFFFFFFFFFFFFFFFFFFFF AND PUSH2 0x8FC DUP3 SWAP1 DUP2 ISZERO MUL SWAP1 PUSH1 0x40 MLOAD PUSH1 0x0 PUSH1 0x40 MLOAD DUP1 DUP4 SUB DUP2 DUP6 DUP9 DUP9 CALL SWAP4 POP POP POP POP ISZERO DUP1 ISZERO PUSH2 0x186 JUMPI RETURNDATASIZE PUSH1 0x0 DUP1 RETURNDATACOPY RETURNDATASIZE PUSH1 0x0 REVERT JUMPDEST POP POP POP JUMP JUMPDEST PUSH1 0x0 DUP1 PUSH1 0x40 MLOAD DUP1 PUSH1 0x40 ADD PUSH1 0x40 MSTORE DUP1 PUSH1 0x1 DUP2 MSTORE PUSH1 0x20 ADD PUSH32 0x5600000000000000000000000000000000000000000000000000000000000000 DUP2 MSTORE POP SWAP1 POP PUSH1 0x0 DUP4 DUP6 PUSH2 0x1D4 SWAP2 SWAP1 PUSH2 0x59A JUMP JUMPDEST SWAP1 POP DUP1 SWAP3 POP POP POP SWAP3 SWAP2 POP POP JUMP JUMPDEST PUSH1 0x60 PUSH1 0x0 DUP1 SLOAD PUSH2 0x1F0 SWAP1 PUSH2 0x66E JUMP JUMPDEST DUP1 PUSH1 0x1F ADD PUSH1 0x20 DUP1 SWAP2 DIV MUL PUSH1 0x20 ADD PUSH1 0x40 MLOAD SWAP1 DUP2 ADD PUSH1 0x40 MSTORE DUP1 SWAP3 SWAP2 SWAP1 DUP2 DUP2 MSTORE PUSH1 0x20 ADD DUP3 DUP1 SLOAD PUSH2 0x21C SWAP1 PUSH2 0x66E JUMP JUMPDEST DUP1 ISZERO PUSH2 0x269 JUMPI DUP1 PUSH1 0x1F LT PUSH2 0x23E JUMPI PUSH2 0x100 DUP1 DUP4 SLOAD DIV MUL DUP4 MSTORE SWAP2 PUSH1 0x20 ADD SWAP2 PUSH2 0x269 JUMP JUMPDEST DUP3 ADD SWAP2 SWAP1 PUSH1 0x0 MSTORE PUSH1 0x20 PUSH1 0x0 KECCAK256 SWAP1 JUMPDEST DUP2 SLOAD DUP2 MSTORE SWAP1 PUSH1 0x1 ADD SWAP1 PUSH1 0x20 ADD DUP1 DUP4 GT PUSH2 0x24C JUMPI DUP3 SWAP1 SUB PUSH1 0x1F AND DUP3 ADD SWAP2 JUMPDEST POP POP POP POP POP SWAP1 POP SWAP1 JUMP JUMPDEST DUP3 DUP1 SLOAD PUSH2 0x27F SWAP1 PUSH2 0x66E JUMP JUMPDEST SWAP1 PUSH1 0x0 MSTORE PUSH1 0x20 PUSH1 0x0 KECCAK256 SWAP1 PUSH1 0x1F ADD PUSH1 0x20 SWAP1 DIV DUP2 ADD SWAP3 DUP3 PUSH2 0x2A1 JUMPI PUSH1 0x0 DUP6 SSTORE PUSH2 0x2E8 JUMP JUMPDEST DUP3 PUSH1 0x1F LT PUSH2 0x2BA JUMPI DUP1 MLOAD PUSH1 0xFF NOT AND DUP4 DUP1 ADD OR DUP6 SSTORE PUSH2 0x2E8 JUMP JUMPDEST DUP3 DUP1 ADD PUSH1 0x1 ADD DUP6 SSTORE DUP3 ISZERO PUSH2 0x2E8 JUMPI SWAP2 DUP3 ADD JUMPDEST DUP3 DUP2 GT ISZERO PUSH2 0x2E7 JUMPI DUP3 MLOAD DUP3 SSTORE SWAP2 PUSH1 0x20 ADD SWAP2 SWAP1 PUSH1 0x1 ADD SWAP1 PUSH2 0x2CC JUMP JUMPDEST JUMPDEST POP SWAP1 POP PUSH2 0x2F5 SWAP2 SWAP1 PUSH2 0x2F9 JUMP JUMPDEST POP SWAP1 JUMP JUMPDEST JUMPDEST DUP1 DUP3 GT ISZERO PUSH2 0x312 JUMPI PUSH1 0x0 DUP2 PUSH1 0x0 SWAP1 SSTORE POP PUSH1 0x1 ADD PUSH2 0x2FA JUMP JUMPDEST POP SWAP1 JUMP JUMPDEST PUSH1 0x0 PUSH2 0x329 PUSH2 0x324 DUP5 PUSH2 0x54D JUMP JUMPDEST PUSH2 0x528 JUMP JUMPDEST SWAP1 POP DUP3 DUP2 MSTORE PUSH1 0x20 DUP2 ADD DUP5 DUP5 DUP5 ADD GT ISZERO PUSH2 0x345 JUMPI PUSH2 0x344 PUSH2 0x763 JUMP JUMPDEST JUMPDEST PUSH2 0x350 DUP5 DUP3 DUP6 PUSH2 0x62C JUMP JUMPDEST POP SWAP4 SWAP3 POP POP POP JUMP JUMPDEST PUSH1 0x0 DUP2 CALLDATALOAD SWAP1 POP PUSH2 0x367 DUP2 PUSH2 0x783 JUMP JUMPDEST SWAP3 SWAP2 POP POP JUMP JUMPDEST PUSH1 0x0 DUP3 PUSH1 0x1F DUP4 ADD SLT PUSH2 0x382 JUMPI PUSH2 0x381 PUSH2 0x75E JUMP JUMPDEST JUMPDEST DUP2 CALLDATALOAD PUSH2 0x392 DUP5 DUP3 PUSH1 0x20 DUP7 ADD PUSH2 0x316 JUMP JUMPDEST SWAP2 POP POP SWAP3 SWAP2 POP POP JUMP JUMPDEST PUSH1 0x0 DUP2 CALLDATALOAD SWAP1 POP PUSH2 0x3AA DUP2 PUSH2 0x79A JUMP JUMPDEST SWAP3 SWAP2 POP POP JUMP JUMPDEST PUSH1 0x0 DUP1 PUSH1 0x40 DUP4 DUP6 SUB SLT ISZERO PUSH2 0x3C7 JUMPI PUSH2 0x3C6 PUSH2 0x76D JUMP JUMPDEST JUMPDEST PUSH1 0x0 PUSH2 0x3D5 DUP6 DUP3 DUP7 ADD PUSH2 0x358 JUMP JUMPDEST SWAP3 POP POP PUSH1 0x20 PUSH2 0x3E6 DUP6 DUP3 DUP7 ADD PUSH2 0x39B JUMP JUMPDEST SWAP2 POP POP SWAP3 POP SWAP3 SWAP1 POP JUMP JUMPDEST PUSH1 0x0 PUSH1 0x20 DUP3 DUP5 SUB SLT ISZERO PUSH2 0x406 JUMPI PUSH2 0x405 PUSH2 0x76D JUMP JUMPDEST JUMPDEST PUSH1 0x0 DUP3 ADD CALLDATALOAD PUSH8 0xFFFFFFFFFFFFFFFF DUP2 GT ISZERO PUSH2 0x424 JUMPI PUSH2 0x423 PUSH2 0x768 JUMP JUMPDEST JUMPDEST PUSH2 0x430 DUP5 DUP3 DUP6 ADD PUSH2 0x36D JUMP JUMPDEST SWAP2 POP POP SWAP3 SWAP2 POP POP JUMP JUMPDEST PUSH1 0x0 DUP1 PUSH1 0x40 DUP4 DUP6 SUB SLT ISZERO PUSH2 0x450 JUMPI PUSH2 0x44F PUSH2 0x76D JUMP JUMPDEST JUMPDEST PUSH1 0x0 PUSH2 0x45E DUP6 DUP3 DUP7 ADD PUSH2 0x39B JUMP JUMPDEST SWAP3 POP POP PUSH1 0x20 PUSH2 0x46F DUP6 DUP3 DUP7 ADD PUSH2 0x39B JUMP JUMPDEST SWAP2 POP POP SWAP3 POP SWAP3 SWAP1 POP JUMP JUMPDEST PUSH2 0x482 DUP2 PUSH2 0x5F0 JUMP JUMPDEST DUP3 MSTORE POP POP JUMP JUMPDEST PUSH1 0x0 PUSH2 0x493 DUP3 PUSH2 0x57E JUMP JUMPDEST PUSH2 0x49D DUP2 DUP6 PUSH2 0x589 JUMP JUMPDEST SWAP4 POP PUSH2 0x4AD DUP2 DUP6 PUSH1 0x20 DUP7 ADD PUSH2 0x63B JUMP JUMPDEST PUSH2 0x4B6 DUP2 PUSH2 0x772 JUMP JUMPDEST DUP5 ADD SWAP2 POP POP SWAP3 SWAP2 POP POP JUMP JUMPDEST PUSH2 0x4CA DUP2 PUSH2 0x622 JUMP JUMPDEST DUP3 MSTORE POP POP JUMP JUMPDEST PUSH1 0x0 PUSH1 0x20 DUP3 ADD SWAP1 POP PUSH2 0x4E5 PUSH1 0x0 DUP4 ADD DUP5 PUSH2 0x479 JUMP JUMPDEST SWAP3 SWAP2 POP POP JUMP JUMPDEST PUSH1 0x0 PUSH1 0x20 DUP3 ADD SWAP1 POP DUP2 DUP2 SUB PUSH1 0x0 DUP4 ADD MSTORE PUSH2 0x505 DUP2 DUP5 PUSH2 0x488 JUMP JUMPDEST SWAP1 POP SWAP3 SWAP2 POP POP JUMP JUMPDEST PUSH1 0x0 PUSH1 0x20 DUP3 ADD SWAP1 POP PUSH2 0x522 PUSH1 0x0 DUP4 ADD DUP5 PUSH2 0x4C1 JUMP JUMPDEST SWAP3 SWAP2 POP POP JUMP JUMPDEST PUSH1 0x0 PUSH2 0x532 PUSH2 0x543 JUMP JUMPDEST SWAP1 POP PUSH2 0x53E DUP3 DUP3 PUSH2 0x6A0 JUMP JUMPDEST SWAP2 SWAP1 POP JUMP JUMPDEST PUSH1 0x0 PUSH1 0x40 MLOAD SWAP1 POP SWAP1 JUMP JUMPDEST PUSH1 0x0 PUSH8 0xFFFFFFFFFFFFFFFF DUP3 GT ISZERO PUSH2 0x568 JUMPI PUSH2 0x567 PUSH2 0x72F JUMP JUMPDEST JUMPDEST PUSH2 0x571 DUP3 PUSH2 0x772 JUMP JUMPDEST SWAP1 POP PUSH1 0x20 DUP2 ADD SWAP1 POP SWAP2 SWAP1 POP JUMP JUMPDEST PUSH1 0x0 DUP2 MLOAD SWAP1 POP SWAP2 SWAP1 POP JUMP JUMPDEST PUSH1 0x0 DUP3 DUP3 MSTORE PUSH1 0x20 DUP3 ADD SWAP1 POP SWAP3 SWAP2 POP POP JUMP JUMPDEST PUSH1 0x0 PUSH2 0x5A5 DUP3 PUSH2 0x622 JUMP JUMPDEST SWAP2 POP PUSH2 0x5B0 DUP4 PUSH2 0x622 JUMP JUMPDEST SWAP3 POP DUP3 PUSH32 0xFFFFFFFFFFFFFFFFFFFFFFFFFFFFFFFFFFFFFFFFFFFFFFFFFFFFFFFFFFFFFFFF SUB DUP3 GT ISZERO PUSH2 0x5E5 JUMPI PUSH2 0x5E4 PUSH2 0x6D1 JUMP JUMPDEST JUMPDEST DUP3 DUP3 ADD SWAP1 POP SWAP3 SWAP2 POP POP JUMP JUMPDEST PUSH1 0x0 PUSH2 0x5FB DUP3 PUSH2 0x602 JUMP JUMPDEST SWAP1 POP SWAP2 SWAP1 POP JUMP JUMPDEST PUSH1 0x0 PUSH20 0xFFFFFFFFFFFFFFFFFFFFFFFFFFFFFFFFFFFFFFFF DUP3 AND SWAP1 POP SWAP2 SWAP1 POP JUMP JUMPDEST PUSH1 0x0 DUP2 SWAP1 POP SWAP2 SWAP1 POP JUMP JUMPDEST DUP3 DUP2 DUP4 CALLDATACOPY PUSH1 0x0 DUP4 DUP4 ADD MSTORE POP POP POP JUMP JUMPDEST PUSH1 0x0 JUMPDEST DUP4 DUP2 LT ISZERO PUSH2 0x659 JUMPI DUP1 DUP3 ADD MLOAD DUP2 DUP5 ADD MSTORE PUSH1 0x20 DUP2 ADD SWAP1 POP PUSH2 0x63E JUMP JUMPDEST DUP4 DUP2 GT ISZERO PUSH2 0x668 JUMPI PUSH1 0x0 DUP5 DUP5 ADD MSTORE JUMPDEST POP POP POP POP JUMP JUMPDEST PUSH1 0x0 PUSH1 0x2 DUP3 DIV SWAP1 POP PUSH1 0x1 DUP3 AND DUP1 PUSH2 0x686 JUMPI PUSH1 0x7F DUP3 AND SWAP2 POP JUMPDEST PUSH1 0x20 DUP3 LT DUP2 EQ ISZERO PUSH2 0x69A JUMPI PUSH2 0x699 PUSH2 0x700 JUMP JUMPDEST JUMPDEST POP SWAP2 SWAP1 POP JUMP JUMPDEST PUSH2 0x6A9 DUP3 PUSH2 0x772 JUMP JUMPDEST DUP2 ADD DUP2 DUP2 LT PUSH8 0xFFFFFFFFFFFFFFFF DUP3 GT OR ISZERO PUSH2 0x6C8 JUMPI PUSH2 0x6C7 PUSH2 0x72F JUMP JUMPDEST JUMPDEST DUP1 PUSH1 0x40 MSTORE POP POP POP JUMP JUMPDEST PUSH32 0x4E487B7100000000000000000000000000000000000000000000000000000000 PUSH1 0x0 MSTORE PUSH1 0x11 PUSH1 0x4 MSTORE PUSH1 0x24 PUSH1 0x0 REVERT JUMPDEST PUSH32 0x4E487B7100000000000000000000000000000000000000000000000000000000 PUSH1 0x0 MSTORE PUSH1 0x22 PUSH1 0x4 MSTORE PUSH1 0x24 PUSH1 0x0 REVERT JUMPDEST PUSH32 0x4E487B7100000000000000000000000000000000000000000000000000000000 PUSH1 0x0 MSTORE PUSH1 0x41 PUSH1 0x4 MSTORE PUSH1 0x24 PUSH1 0x0 REVERT JUMPDEST PUSH1 0x0 DUP1 REVERT JUMPDEST PUSH1 0x0 DUP1 REVERT JUMPDEST PUSH1 0x0 DUP1 REVERT JUMPDEST PUSH1 0x0 DUP1 REVERT JUMPDEST PUSH1 0x0 PUSH1 0x1F NOT PUSH1 0x1F DUP4 ADD AND SWAP1 POP SWAP2 SWAP1 POP JUMP JUMPDEST PUSH2 0x78C DUP2 PUSH2 0x5F0 JUMP JUMPDEST DUP2 EQ PUSH2 0x797 JUMPI PUSH1 0x0 DUP1 REVERT JUMPDEST POP JUMP JUMPDEST PUSH2 0x7A3 DUP2 PUSH2 0x622 JUMP JUMPDEST DUP2 EQ PUSH2 0x7AE JUMPI PUSH1 0x0 DUP1 REVERT JUMPDEST POP JUMP INVALID LOG2 PUSH5 0x6970667358 0x22 SLT KECCAK256 0xDC SLOAD SWAP5 SWAP7 GAS 0xB6 0xAD PUSH32 0x8A2342AA664CE769C5498347B1B8B6422E764ECD541E82B464736F6C63430008 SMOD STOP CALLER "
				},
				"gasEstimates": {
					"creation": {
						"codeDepositCost": "404600",
						"executionCost": "infinite",
						"totalCost": "infinite"
					},
					"external": {
						"changeName(string)": "infinite",
						"getPureName(uint256,uint256)": "infinite",
						"getname()": "infinite",
						"owner()": "2514",
						"transfer(address,uint256)": "infinite"
					}
				},
				"methodIdentifiers": {
					"changeName(string)": "5353a2d8",
					"getPureName(uint256,uint256)": "a990a7a7",
					"getname()": "c6ea59b9",
					"owner()": "8da5cb5b",
					"transfer(address,uint256)": "a9059cbb"
				}
			},
			"storageLayout": {
				"storage": [
					{
						"astId": 4,
						"contract": "contracts/functions.sol:functionsContract",
						"label": "name",
						"offset": 0,
						"slot": "0",
						"type": "t_string_storage"
					},
					{
						"astId": 36,
						"contract": "contracts/functions.sol:functionsContract",
						"label": "owner",
						"offset": 0,
						"slot": "1",
						"type": "t_address_payable"
					}
				],
				"types": {
					"t_address_payable": {
						"encoding": "inplace",
						"label": "address payable",
						"numberOfBytes": "20"
					},
					"t_string_storage": {
						"encoding": "bytes",
						"label": "string",
						"numberOfBytes": "32"
					}
				}
			},
			"userdoc": {
				"kind": "user",
				"methods": {},
				"version": 1
			}
		}
	}
}