{
	"contracts/functions.sol": {
		"functionsContract": {
			"abi": [
				{
					"inputs": [
						{
							"internalType": "uint256",
							"name": "a",
							"type": "uint256"
						},
						{
							"internalType": "uint256",
							"name": "b",
							"type": "uint256"
						}
					],
					"name": "getPureName",
					"outputs": [
						{
							"internalType": "uint256",
							"name": "",
							"type": "uint256"
						}
					],
					"stateMutability": "pure",
					"type": "function"
				},
				{
					"inputs": [],
					"name": "getname",
					"outputs": [
						{
							"internalType": "string",
							"name": "",
							"type": "string"
						}
					],
					"stateMutability": "view",
					"type": "function"
				}
			],
			"devdoc": {
				"kind": "dev",
				"methods": {},
				"version": 1
			},
			"evm": {
				"assembly": "    /* \"contracts/functions.sol\":64:1051  contract functionsContract{\r... */\n  mstore(0x40, 0x80)\n    /* \"contracts/functions.sol\":125:148  string name = \"Polygon\" */\n  mload(0x40)\n  dup1\n  0x40\n  add\n  0x40\n  mstore\n  dup1\n  0x07\n  dup2\n  mstore\n  0x20\n  add\n  0x506f6c79676f6e00000000000000000000000000000000000000000000000000\n  dup2\n  mstore\n  pop\n  0x00\n  swap1\n  dup1\n  mload\n  swap1\n  0x20\n  add\n  swap1\n  tag_1\n  swap3\n  swap2\n  swap1\n  tag_2\n  jump\t// in\ntag_1:\n  pop\n    /* \"contracts/functions.sol\":64:1051  contract functionsContract{\r... */\n  callvalue\n  dup1\n  iszero\n  tag_3\n  jumpi\n  0x00\n  dup1\n  revert\ntag_3:\n  pop\n  jump(tag_4)\ntag_2:\n  dup3\n  dup1\n  sload\n  tag_5\n  swap1\n  tag_6\n  jump\t// in\ntag_5:\n  swap1\n  0x00\n  mstore\n  keccak256(0x00, 0x20)\n  swap1\n  0x1f\n  add\n  0x20\n  swap1\n  div\n  dup2\n  add\n  swap3\n  dup3\n  tag_8\n  jumpi\n  0x00\n  dup6\n  sstore\n  jump(tag_7)\ntag_8:\n  dup3\n  0x1f\n  lt\n  tag_9\n  jumpi\n  dup1\n  mload\n  not(0xff)\n  and\n  dup4\n  dup1\n  add\n  or\n  dup6\n  sstore\n  jump(tag_7)\ntag_9:\n  dup3\n  dup1\n  add\n  0x01\n  add\n  dup6\n  sstore\n  dup3\n  iszero\n  tag_7\n  jumpi\n  swap2\n  dup3\n  add\ntag_10:\n  dup3\n  dup2\n  gt\n  iszero\n  tag_11\n  jumpi\n  dup3\n  mload\n  dup3\n  sstore\n  swap2\n  0x20\n  add\n  swap2\n  swap1\n  0x01\n  add\n  swap1\n  jump(tag_10)\ntag_11:\ntag_7:\n  pop\n  swap1\n  pop\n  tag_12\n  swap2\n  swap1\n  tag_13\n  jump\t// in\ntag_12:\n  pop\n  swap1\n  jump\t// out\ntag_13:\ntag_14:\n  dup1\n  dup3\n  gt\n  iszero\n  tag_15\n  jumpi\n  0x00\n  dup2\n  0x00\n  swap1\n  sstore\n  pop\n  0x01\n  add\n  jump(tag_14)\ntag_15:\n  pop\n  swap1\n  jump\t// out\n    /* \"#utility.yul\":7:327   */\ntag_6:\n    /* \"#utility.yul\":51:57   */\n  0x00\n    /* \"#utility.yul\":88:89   */\n  0x02\n    /* \"#utility.yul\":82:86   */\n  dup3\n    /* \"#utility.yul\":78:90   */\n  div\n    /* \"#utility.yul\":68:90   */\n  swap1\n  pop\n    /* \"#utility.yul\":135:136   */\n  0x01\n    /* \"#utility.yul\":129:133   */\n  dup3\n    /* \"#utility.yul\":125:137   */\n  and\n    /* \"#utility.yul\":156:174   */\n  dup1\n    /* \"#utility.yul\":146:227   */\n  tag_18\n  jumpi\n    /* \"#utility.yul\":212:216   */\n  0x7f\n    /* \"#utility.yul\":204:210   */\n  dup3\n    /* \"#utility.yul\":200:217   */\n  and\n    /* \"#utility.yul\":190:217   */\n  swap2\n  pop\n    /* \"#utility.yul\":146:227   */\ntag_18:\n    /* \"#utility.yul\":274:276   */\n  0x20\n    /* \"#utility.yul\":266:272   */\n  dup3\n    /* \"#utility.yul\":263:277   */\n  lt\n    /* \"#utility.yul\":243:261   */\n  dup2\n    /* \"#utility.yul\":240:278   */\n  eq\n    /* \"#utility.yul\":237:321   */\n  iszero\n  tag_19\n  jumpi\n    /* \"#utility.yul\":293:311   */\n  tag_20\n  tag_21\n  jump\t// in\ntag_20:\n    /* \"#utility.yul\":237:321   */\ntag_19:\n    /* \"#utility.yul\":58:327   */\n  pop\n    /* \"#utility.yul\":7:327   */\n  swap2\n  swap1\n  pop\n  jump\t// out\n    /* \"#utility.yul\":333:513   */\ntag_21:\n    /* \"#utility.yul\":381:458   */\n  0x4e487b7100000000000000000000000000000000000000000000000000000000\n    /* \"#utility.yul\":378:379   */\n  0x00\n    /* \"#utility.yul\":371:459   */\n  mstore\n    /* \"#utility.yul\":478:482   */\n  0x22\n    /* \"#utility.yul\":475:476   */\n  0x04\n    /* \"#utility.yul\":468:483   */\n  mstore\n    /* \"#utility.yul\":502:506   */\n  0x24\n    /* \"#utility.yul\":499:500   */\n  0x00\n    /* \"#utility.yul\":492:507   */\n  revert\n    /* \"contracts/functions.sol\":64:1051  contract functionsContract{\r... */\ntag_4:\n  dataSize(sub_0)\n  dup1\n  dataOffset(sub_0)\n  0x00\n  codecopy\n  0x00\n  return\nstop\n\nsub_0: assembly {\n        /* \"contracts/functions.sol\":64:1051  contract functionsContract{\r... */\n      mstore(0x40, 0x80)\n      callvalue\n      dup1\n      iszero\n      tag_1\n      jumpi\n      0x00\n      dup1\n      revert\n    tag_1:\n      pop\n      jumpi(tag_2, lt(calldatasize, 0x04))\n      shr(0xe0, calldataload(0x00))\n      dup1\n      0xa990a7a7\n      eq\n      tag_3\n      jumpi\n      dup1\n      0xc6ea59b9\n      eq\n      tag_4\n      jumpi\n    tag_2:\n      0x00\n      dup1\n      revert\n        /* \"contracts/functions.sol\":775:1040  function getPureName(uint a, uint b)\r... */\n    tag_3:\n      tag_5\n      0x04\n      dup1\n      calldatasize\n      sub\n      dup2\n      add\n      swap1\n      tag_6\n      swap2\n      swap1\n      tag_7\n      jump\t// in\n    tag_6:\n      tag_8\n      jump\t// in\n    tag_5:\n      mload(0x40)\n      tag_9\n      swap2\n      swap1\n      tag_10\n      jump\t// in\n    tag_9:\n      mload(0x40)\n      dup1\n      swap2\n      sub\n      swap1\n      return\n        /* \"contracts/functions.sol\":586:714  function getname()\r... */\n    tag_4:\n      tag_11\n      tag_12\n      jump\t// in\n    tag_11:\n      mload(0x40)\n      tag_13\n      swap2\n      swap1\n      tag_14\n      jump\t// in\n    tag_13:\n      mload(0x40)\n      dup1\n      swap2\n      sub\n      swap1\n      return\n        /* \"contracts/functions.sol\":775:1040  function getPureName(uint a, uint b)\r... */\n    tag_8:\n        /* \"contracts/functions.sol\":860:864  uint */\n      0x00\n        /* \"contracts/functions.sol\":876:895  string memory _name */\n      dup1\n        /* \"contracts/functions.sol\":876:901  string memory _name = \"V\" */\n      mload(0x40)\n      dup1\n      0x40\n      add\n      0x40\n      mstore\n      dup1\n      0x01\n      dup2\n      mstore\n      0x20\n      add\n      0x5600000000000000000000000000000000000000000000000000000000000000\n      dup2\n      mstore\n      pop\n      swap1\n      pop\n        /* \"contracts/functions.sol\":930:936  uint a */\n      0x00\n        /* \"contracts/functions.sol\":939:941  10 */\n      0x0a\n        /* \"contracts/functions.sol\":930:941  uint a = 10 */\n      swap1\n      pop\n        /* \"contracts/functions.sol\":952:958  uint b */\n      0x00\n        /* \"contracts/functions.sol\":961:963  20 */\n      0x14\n        /* \"contracts/functions.sol\":952:963  uint b = 20 */\n      swap1\n      pop\n        /* \"contracts/functions.sol\":974:985  uint result */\n      0x00\n        /* \"contracts/functions.sol\":990:991  b */\n      dup2\n        /* \"contracts/functions.sol\":988:989  a */\n      dup4\n        /* \"contracts/functions.sol\":988:991  a+b */\n      tag_16\n      swap2\n      swap1\n      tag_17\n      jump\t// in\n    tag_16:\n        /* \"contracts/functions.sol\":974:991  uint result = a+b */\n      swap1\n      pop\n        /* \"contracts/functions.sol\":1009:1015  result */\n      dup1\n        /* \"contracts/functions.sol\":1002:1015  return result */\n      swap5\n      pop\n      pop\n      pop\n      pop\n      pop\n        /* \"contracts/functions.sol\":775:1040  function getPureName(uint a, uint b)\r... */\n      swap3\n      swap2\n      pop\n      pop\n      jump\t// out\n        /* \"contracts/functions.sol\":586:714  function getname()\r... */\n    tag_12:\n        /* \"contracts/functions.sol\":653:666  string memory */\n      0x60\n        /* \"contracts/functions.sol\":685:689  name */\n      0x00\n        /* \"contracts/functions.sol\":678:689  return name */\n      dup1\n      sload\n      tag_19\n      swap1\n      tag_20\n      jump\t// in\n    tag_19:\n      dup1\n      0x1f\n      add\n      0x20\n      dup1\n      swap2\n      div\n      mul\n      0x20\n      add\n      mload(0x40)\n      swap1\n      dup2\n      add\n      0x40\n      mstore\n      dup1\n      swap3\n      swap2\n      swap1\n      dup2\n      dup2\n      mstore\n      0x20\n      add\n      dup3\n      dup1\n      sload\n      tag_21\n      swap1\n      tag_20\n      jump\t// in\n    tag_21:\n      dup1\n      iszero\n      tag_22\n      jumpi\n      dup1\n      0x1f\n      lt\n      tag_23\n      jumpi\n      0x0100\n      dup1\n      dup4\n      sload\n      div\n      mul\n      dup4\n      mstore\n      swap2\n      0x20\n      add\n      swap2\n      jump(tag_22)\n    tag_23:\n      dup3\n      add\n      swap2\n      swap1\n      0x00\n      mstore\n      keccak256(0x00, 0x20)\n      swap1\n    tag_24:\n      dup2\n      sload\n      dup2\n      mstore\n      swap1\n      0x01\n      add\n      swap1\n      0x20\n      add\n      dup1\n      dup4\n      gt\n      tag_24\n      jumpi\n      dup3\n      swap1\n      sub\n      0x1f\n      and\n      dup3\n      add\n      swap2\n    tag_22:\n      pop\n      pop\n      pop\n      pop\n      pop\n      swap1\n      pop\n        /* \"contracts/functions.sol\":586:714  function getname()\r... */\n      swap1\n      jump\t// out\n        /* \"#utility.yul\":7:146   */\n    tag_26:\n        /* \"#utility.yul\":53:58   */\n      0x00\n        /* \"#utility.yul\":91:97   */\n      dup2\n        /* \"#utility.yul\":78:98   */\n      calldataload\n        /* \"#utility.yul\":69:98   */\n      swap1\n      pop\n        /* \"#utility.yul\":107:140   */\n      tag_28\n        /* \"#utility.yul\":134:139   */\n      dup2\n        /* \"#utility.yul\":107:140   */\n      tag_29\n      jump\t// in\n    tag_28:\n        /* \"#utility.yul\":7:146   */\n      swap3\n      swap2\n      pop\n      pop\n      jump\t// out\n        /* \"#utility.yul\":152:626   */\n    tag_7:\n        /* \"#utility.yul\":220:226   */\n      0x00\n        /* \"#utility.yul\":228:234   */\n      dup1\n        /* \"#utility.yul\":277:279   */\n      0x40\n        /* \"#utility.yul\":265:274   */\n      dup4\n        /* \"#utility.yul\":256:263   */\n      dup6\n        /* \"#utility.yul\":252:275   */\n      sub\n        /* \"#utility.yul\":248:280   */\n      slt\n        /* \"#utility.yul\":245:364   */\n      iszero\n      tag_31\n      jumpi\n        /* \"#utility.yul\":283:362   */\n      tag_32\n      tag_33\n      jump\t// in\n    tag_32:\n        /* \"#utility.yul\":245:364   */\n    tag_31:\n        /* \"#utility.yul\":403:404   */\n      0x00\n        /* \"#utility.yul\":428:481   */\n      tag_34\n        /* \"#utility.yul\":473:480   */\n      dup6\n        /* \"#utility.yul\":464:470   */\n      dup3\n        /* \"#utility.yul\":453:462   */\n      dup7\n        /* \"#utility.yul\":449:471   */\n      add\n        /* \"#utility.yul\":428:481   */\n      tag_26\n      jump\t// in\n    tag_34:\n        /* \"#utility.yul\":418:481   */\n      swap3\n      pop\n        /* \"#utility.yul\":374:491   */\n      pop\n        /* \"#utility.yul\":530:532   */\n      0x20\n        /* \"#utility.yul\":556:609   */\n      tag_35\n        /* \"#utility.yul\":601:608   */\n      dup6\n        /* \"#utility.yul\":592:598   */\n      dup3\n        /* \"#utility.yul\":581:590   */\n      dup7\n        /* \"#utility.yul\":577:599   */\n      add\n        /* \"#utility.yul\":556:609   */\n      tag_26\n      jump\t// in\n    tag_35:\n        /* \"#utility.yul\":546:609   */\n      swap2\n      pop\n        /* \"#utility.yul\":501:619   */\n      pop\n        /* \"#utility.yul\":152:626   */\n      swap3\n      pop\n      swap3\n      swap1\n      pop\n      jump\t// out\n        /* \"#utility.yul\":632:996   */\n    tag_36:\n        /* \"#utility.yul\":720:723   */\n      0x00\n        /* \"#utility.yul\":748:787   */\n      tag_38\n        /* \"#utility.yul\":781:786   */\n      dup3\n        /* \"#utility.yul\":748:787   */\n      tag_39\n      jump\t// in\n    tag_38:\n        /* \"#utility.yul\":803:874   */\n      tag_40\n        /* \"#utility.yul\":867:873   */\n      dup2\n        /* \"#utility.yul\":862:865   */\n      dup6\n        /* \"#utility.yul\":803:874   */\n      tag_41\n      jump\t// in\n    tag_40:\n        /* \"#utility.yul\":796:874   */\n      swap4\n      pop\n        /* \"#utility.yul\":883:935   */\n      tag_42\n        /* \"#utility.yul\":928:934   */\n      dup2\n        /* \"#utility.yul\":923:926   */\n      dup6\n        /* \"#utility.yul\":916:920   */\n      0x20\n        /* \"#utility.yul\":909:914   */\n      dup7\n        /* \"#utility.yul\":905:921   */\n      add\n        /* \"#utility.yul\":883:935   */\n      tag_43\n      jump\t// in\n    tag_42:\n        /* \"#utility.yul\":960:989   */\n      tag_44\n        /* \"#utility.yul\":982:988   */\n      dup2\n        /* \"#utility.yul\":960:989   */\n      tag_45\n      jump\t// in\n    tag_44:\n        /* \"#utility.yul\":955:958   */\n      dup5\n        /* \"#utility.yul\":951:990   */\n      add\n        /* \"#utility.yul\":944:990   */\n      swap2\n      pop\n        /* \"#utility.yul\":724:996   */\n      pop\n        /* \"#utility.yul\":632:996   */\n      swap3\n      swap2\n      pop\n      pop\n      jump\t// out\n        /* \"#utility.yul\":1002:1120   */\n    tag_46:\n        /* \"#utility.yul\":1089:1113   */\n      tag_48\n        /* \"#utility.yul\":1107:1112   */\n      dup2\n        /* \"#utility.yul\":1089:1113   */\n      tag_49\n      jump\t// in\n    tag_48:\n        /* \"#utility.yul\":1084:1087   */\n      dup3\n        /* \"#utility.yul\":1077:1114   */\n      mstore\n        /* \"#utility.yul\":1002:1120   */\n      pop\n      pop\n      jump\t// out\n        /* \"#utility.yul\":1126:1439   */\n    tag_14:\n        /* \"#utility.yul\":1239:1243   */\n      0x00\n        /* \"#utility.yul\":1277:1279   */\n      0x20\n        /* \"#utility.yul\":1266:1275   */\n      dup3\n        /* \"#utility.yul\":1262:1280   */\n      add\n        /* \"#utility.yul\":1254:1280   */\n      swap1\n      pop\n        /* \"#utility.yul\":1326:1335   */\n      dup2\n        /* \"#utility.yul\":1320:1324   */\n      dup2\n        /* \"#utility.yul\":1316:1336   */\n      sub\n        /* \"#utility.yul\":1312:1313   */\n      0x00\n        /* \"#utility.yul\":1301:1310   */\n      dup4\n        /* \"#utility.yul\":1297:1314   */\n      add\n        /* \"#utility.yul\":1290:1337   */\n      mstore\n        /* \"#utility.yul\":1354:1432   */\n      tag_51\n        /* \"#utility.yul\":1427:1431   */\n      dup2\n        /* \"#utility.yul\":1418:1424   */\n      dup5\n        /* \"#utility.yul\":1354:1432   */\n      tag_36\n      jump\t// in\n    tag_51:\n        /* \"#utility.yul\":1346:1432   */\n      swap1\n      pop\n        /* \"#utility.yul\":1126:1439   */\n      swap3\n      swap2\n      pop\n      pop\n      jump\t// out\n        /* \"#utility.yul\":1445:1667   */\n    tag_10:\n        /* \"#utility.yul\":1538:1542   */\n      0x00\n        /* \"#utility.yul\":1576:1578   */\n      0x20\n        /* \"#utility.yul\":1565:1574   */\n      dup3\n        /* \"#utility.yul\":1561:1579   */\n      add\n        /* \"#utility.yul\":1553:1579   */\n      swap1\n      pop\n        /* \"#utility.yul\":1589:1660   */\n      tag_53\n        /* \"#utility.yul\":1657:1658   */\n      0x00\n        /* \"#utility.yul\":1646:1655   */\n      dup4\n        /* \"#utility.yul\":1642:1659   */\n      add\n        /* \"#utility.yul\":1633:1639   */\n      dup5\n        /* \"#utility.yul\":1589:1660   */\n      tag_46\n      jump\t// in\n    tag_53:\n        /* \"#utility.yul\":1445:1667   */\n      swap3\n      swap2\n      pop\n      pop\n      jump\t// out\n        /* \"#utility.yul\":1754:1853   */\n    tag_39:\n        /* \"#utility.yul\":1806:1812   */\n      0x00\n        /* \"#utility.yul\":1840:1845   */\n      dup2\n        /* \"#utility.yul\":1834:1846   */\n      mload\n        /* \"#utility.yul\":1824:1846   */\n      swap1\n      pop\n        /* \"#utility.yul\":1754:1853   */\n      swap2\n      swap1\n      pop\n      jump\t// out\n        /* \"#utility.yul\":1859:2028   */\n    tag_41:\n        /* \"#utility.yul\":1943:1954   */\n      0x00\n        /* \"#utility.yul\":1977:1983   */\n      dup3\n        /* \"#utility.yul\":1972:1975   */\n      dup3\n        /* \"#utility.yul\":1965:1984   */\n      mstore\n        /* \"#utility.yul\":2017:2021   */\n      0x20\n        /* \"#utility.yul\":2012:2015   */\n      dup3\n        /* \"#utility.yul\":2008:2022   */\n      add\n        /* \"#utility.yul\":1993:2022   */\n      swap1\n      pop\n        /* \"#utility.yul\":1859:2028   */\n      swap3\n      swap2\n      pop\n      pop\n      jump\t// out\n        /* \"#utility.yul\":2034:2339   */\n    tag_17:\n        /* \"#utility.yul\":2074:2077   */\n      0x00\n        /* \"#utility.yul\":2093:2113   */\n      tag_59\n        /* \"#utility.yul\":2111:2112   */\n      dup3\n        /* \"#utility.yul\":2093:2113   */\n      tag_49\n      jump\t// in\n    tag_59:\n        /* \"#utility.yul\":2088:2113   */\n      swap2\n      pop\n        /* \"#utility.yul\":2127:2147   */\n      tag_60\n        /* \"#utility.yul\":2145:2146   */\n      dup4\n        /* \"#utility.yul\":2127:2147   */\n      tag_49\n      jump\t// in\n    tag_60:\n        /* \"#utility.yul\":2122:2147   */\n      swap3\n      pop\n        /* \"#utility.yul\":2281:2282   */\n      dup3\n        /* \"#utility.yul\":2213:2279   */\n      0xffffffffffffffffffffffffffffffffffffffffffffffffffffffffffffffff\n        /* \"#utility.yul\":2209:2283   */\n      sub\n        /* \"#utility.yul\":2206:2207   */\n      dup3\n        /* \"#utility.yul\":2203:2284   */\n      gt\n        /* \"#utility.yul\":2200:2307   */\n      iszero\n      tag_61\n      jumpi\n        /* \"#utility.yul\":2287:2305   */\n      tag_62\n      tag_63\n      jump\t// in\n    tag_62:\n        /* \"#utility.yul\":2200:2307   */\n    tag_61:\n        /* \"#utility.yul\":2331:2332   */\n      dup3\n        /* \"#utility.yul\":2328:2329   */\n      dup3\n        /* \"#utility.yul\":2324:2333   */\n      add\n        /* \"#utility.yul\":2317:2333   */\n      swap1\n      pop\n        /* \"#utility.yul\":2034:2339   */\n      swap3\n      swap2\n      pop\n      pop\n      jump\t// out\n        /* \"#utility.yul\":2345:2422   */\n    tag_49:\n        /* \"#utility.yul\":2382:2389   */\n      0x00\n        /* \"#utility.yul\":2411:2416   */\n      dup2\n        /* \"#utility.yul\":2400:2416   */\n      swap1\n      pop\n        /* \"#utility.yul\":2345:2422   */\n      swap2\n      swap1\n      pop\n      jump\t// out\n        /* \"#utility.yul\":2428:2735   */\n    tag_43:\n        /* \"#utility.yul\":2496:2497   */\n      0x00\n        /* \"#utility.yul\":2506:2619   */\n    tag_66:\n        /* \"#utility.yul\":2520:2526   */\n      dup4\n        /* \"#utility.yul\":2517:2518   */\n      dup2\n        /* \"#utility.yul\":2514:2527   */\n      lt\n        /* \"#utility.yul\":2506:2619   */\n      iszero\n      tag_68\n      jumpi\n        /* \"#utility.yul\":2605:2606   */\n      dup1\n        /* \"#utility.yul\":2600:2603   */\n      dup3\n        /* \"#utility.yul\":2596:2607   */\n      add\n        /* \"#utility.yul\":2590:2608   */\n      mload\n        /* \"#utility.yul\":2586:2587   */\n      dup2\n        /* \"#utility.yul\":2581:2584   */\n      dup5\n        /* \"#utility.yul\":2577:2588   */\n      add\n        /* \"#utility.yul\":2570:2609   */\n      mstore\n        /* \"#utility.yul\":2542:2544   */\n      0x20\n        /* \"#utility.yul\":2539:2540   */\n      dup2\n        /* \"#utility.yul\":2535:2545   */\n      add\n        /* \"#utility.yul\":2530:2545   */\n      swap1\n      pop\n        /* \"#utility.yul\":2506:2619   */\n      jump(tag_66)\n    tag_68:\n        /* \"#utility.yul\":2637:2643   */\n      dup4\n        /* \"#utility.yul\":2634:2635   */\n      dup2\n        /* \"#utility.yul\":2631:2644   */\n      gt\n        /* \"#utility.yul\":2628:2729   */\n      iszero\n      tag_69\n      jumpi\n        /* \"#utility.yul\":2717:2718   */\n      0x00\n        /* \"#utility.yul\":2708:2714   */\n      dup5\n        /* \"#utility.yul\":2703:2706   */\n      dup5\n        /* \"#utility.yul\":2699:2715   */\n      add\n        /* \"#utility.yul\":2692:2719   */\n      mstore\n        /* \"#utility.yul\":2628:2729   */\n    tag_69:\n        /* \"#utility.yul\":2477:2735   */\n      pop\n        /* \"#utility.yul\":2428:2735   */\n      pop\n      pop\n      pop\n      jump\t// out\n        /* \"#utility.yul\":2741:3061   */\n    tag_20:\n        /* \"#utility.yul\":2785:2791   */\n      0x00\n        /* \"#utility.yul\":2822:2823   */\n      0x02\n        /* \"#utility.yul\":2816:2820   */\n      dup3\n        /* \"#utility.yul\":2812:2824   */\n      div\n        /* \"#utility.yul\":2802:2824   */\n      swap1\n      pop\n        /* \"#utility.yul\":2869:2870   */\n      0x01\n        /* \"#utility.yul\":2863:2867   */\n      dup3\n        /* \"#utility.yul\":2859:2871   */\n      and\n        /* \"#utility.yul\":2890:2908   */\n      dup1\n        /* \"#utility.yul\":2880:2961   */\n      tag_71\n      jumpi\n        /* \"#utility.yul\":2946:2950   */\n      0x7f\n        /* \"#utility.yul\":2938:2944   */\n      dup3\n        /* \"#utility.yul\":2934:2951   */\n      and\n        /* \"#utility.yul\":2924:2951   */\n      swap2\n      pop\n        /* \"#utility.yul\":2880:2961   */\n    tag_71:\n        /* \"#utility.yul\":3008:3010   */\n      0x20\n        /* \"#utility.yul\":3000:3006   */\n      dup3\n        /* \"#utility.yul\":2997:3011   */\n      lt\n        /* \"#utility.yul\":2977:2995   */\n      dup2\n        /* \"#utility.yul\":2974:3012   */\n      eq\n        /* \"#utility.yul\":2971:3055   */\n      iszero\n      tag_72\n      jumpi\n        /* \"#utility.yul\":3027:3045   */\n      tag_73\n      tag_74\n      jump\t// in\n    tag_73:\n        /* \"#utility.yul\":2971:3055   */\n    tag_72:\n        /* \"#utility.yul\":2792:3061   */\n      pop\n        /* \"#utility.yul\":2741:3061   */\n      swap2\n      swap1\n      pop\n      jump\t// out\n        /* \"#utility.yul\":3067:3247   */\n    tag_63:\n        /* \"#utility.yul\":3115:3192   */\n      0x4e487b7100000000000000000000000000000000000000000000000000000000\n        /* \"#utility.yul\":3112:3113   */\n      0x00\n        /* \"#utility.yul\":3105:3193   */\n      mstore\n        /* \"#utility.yul\":3212:3216   */\n      0x11\n        /* \"#utility.yul\":3209:3210   */\n      0x04\n        /* \"#utility.yul\":3202:3217   */\n      mstore\n        /* \"#utility.yul\":3236:3240   */\n      0x24\n        /* \"#utility.yul\":3233:3234   */\n      0x00\n        /* \"#utility.yul\":3226:3241   */\n      revert\n        /* \"#utility.yul\":3253:3433   */\n    tag_74:\n        /* \"#utility.yul\":3301:3378   */\n      0x4e487b7100000000000000000000000000000000000000000000000000000000\n        /* \"#utility.yul\":3298:3299   */\n      0x00\n        /* \"#utility.yul\":3291:3379   */\n      mstore\n        /* \"#utility.yul\":3398:3402   */\n      0x22\n        /* \"#utility.yul\":3395:3396   */\n      0x04\n        /* \"#utility.yul\":3388:3403   */\n      mstore\n        /* \"#utility.yul\":3422:3426   */\n      0x24\n        /* \"#utility.yul\":3419:3420   */\n      0x00\n        /* \"#utility.yul\":3412:3427   */\n      revert\n        /* \"#utility.yul\":3562:3679   */\n    tag_33:\n        /* \"#utility.yul\":3671:3672   */\n      0x00\n        /* \"#utility.yul\":3668:3669   */\n      dup1\n        /* \"#utility.yul\":3661:3673   */\n      revert\n        /* \"#utility.yul\":3685:3787   */\n    tag_45:\n        /* \"#utility.yul\":3726:3732   */\n      0x00\n        /* \"#utility.yul\":3777:3779   */\n      0x1f\n        /* \"#utility.yul\":3773:3780   */\n      not\n        /* \"#utility.yul\":3768:3770   */\n      0x1f\n        /* \"#utility.yul\":3761:3766   */\n      dup4\n        /* \"#utility.yul\":3757:3771   */\n      add\n        /* \"#utility.yul\":3753:3781   */\n      and\n        /* \"#utility.yul\":3743:3781   */\n      swap1\n      pop\n        /* \"#utility.yul\":3685:3787   */\n      swap2\n      swap1\n      pop\n      jump\t// out\n        /* \"#utility.yul\":3793:3915   */\n    tag_29:\n        /* \"#utility.yul\":3866:3890   */\n      tag_82\n        /* \"#utility.yul\":3884:3889   */\n      dup2\n        /* \"#utility.yul\":3866:3890   */\n      tag_49\n      jump\t// in\n    tag_82:\n        /* \"#utility.yul\":3859:3864   */\n      dup2\n        /* \"#utility.yul\":3856:3891   */\n      eq\n        /* \"#utility.yul\":3846:3909   */\n      tag_83\n      jumpi\n        /* \"#utility.yul\":3905:3906   */\n      0x00\n        /* \"#utility.yul\":3902:3903   */\n      dup1\n        /* \"#utility.yul\":3895:3907   */\n      revert\n        /* \"#utility.yul\":3846:3909   */\n    tag_83:\n        /* \"#utility.yul\":3793:3915   */\n      pop\n      jump\t// out\n\n    auxdata: 0xa2646970667358221220026527fb9cc71b5aba526654857490b24b30d7e724c9d7781955449ddf71a0e964736f6c63430008070033\n}\n",
				"bytecode": {
					"linkReferences": {},
					"object": "60806040526040518060400160405280600781526020017f506f6c79676f6e000000000000000000000000000000000000000000000000008152506000908051906020019061004f929190610062565b5034801561005c57600080fd5b50610166565b82805461006e90610105565b90600052602060002090601f01602090048101928261009057600085556100d7565b82601f106100a957805160ff19168380011785556100d7565b828001600101855582156100d7579182015b828111156100d65782518255916020019190600101906100bb565b5b5090506100e491906100e8565b5090565b5b808211156101015760008160009055506001016100e9565b5090565b6000600282049050600182168061011d57607f821691505b6020821081141561013157610130610137565b5b50919050565b7f4e487b7100000000000000000000000000000000000000000000000000000000600052602260045260246000fd5b6103fb806101756000396000f3fe608060405234801561001057600080fd5b50600436106100365760003560e01c8063a990a7a71461003b578063c6ea59b91461006b575b600080fd5b61005560048036038101906100509190610194565b610089565b604051610062919061023e565b60405180910390f35b6100736100ed565b604051610080919061021c565b60405180910390f35b6000806040518060400160405280600181526020017f560000000000000000000000000000000000000000000000000000000000000081525090506000600a9050600060149050600081836100de9190610275565b90508094505050505092915050565b6060600080546100fc90610308565b80601f016020809104026020016040519081016040528092919081815260200182805461012890610308565b80156101755780601f1061014a57610100808354040283529160200191610175565b820191906000526020600020905b81548152906001019060200180831161015857829003601f168201915b5050505050905090565b60008135905061018e816103ae565b92915050565b600080604083850312156101ab576101aa610398565b5b60006101b98582860161017f565b92505060206101ca8582860161017f565b9150509250929050565b60006101df82610259565b6101e98185610264565b93506101f98185602086016102d5565b6102028161039d565b840191505092915050565b610216816102cb565b82525050565b6000602082019050818103600083015261023681846101d4565b905092915050565b6000602082019050610253600083018461020d565b92915050565b600081519050919050565b600082825260208201905092915050565b6000610280826102cb565b915061028b836102cb565b9250827fffffffffffffffffffffffffffffffffffffffffffffffffffffffffffffffff038211156102c0576102bf61033a565b5b828201905092915050565b6000819050919050565b60005b838110156102f35780820151818401526020810190506102d8565b83811115610302576000848401525b50505050565b6000600282049050600182168061032057607f821691505b6020821081141561033457610333610369565b5b50919050565b7f4e487b7100000000000000000000000000000000000000000000000000000000600052601160045260246000fd5b7f4e487b7100000000000000000000000000000000000000000000000000000000600052602260045260246000fd5b600080fd5b6000601f19601f8301169050919050565b6103b7816102cb565b81146103c257600080fd5b5056fea2646970667358221220026527fb9cc71b5aba526654857490b24b30d7e724c9d7781955449ddf71a0e964736f6c63430008070033",
					"opcodes": "PUSH1 0x80 PUSH1 0x40 MSTORE PUSH1 0x40 MLOAD DUP1 PUSH1 0x40 ADD PUSH1 0x40 MSTORE DUP1 PUSH1 0x7 DUP2 MSTORE PUSH1 0x20 ADD PUSH32 0x506F6C79676F6E00000000000000000000000000000000000000000000000000 DUP2 MSTORE POP PUSH1 0x0 SWAP1 DUP1 MLOAD SWAP1 PUSH1 0x20 ADD SWAP1 PUSH2 0x4F SWAP3 SWAP2 SWAP1 PUSH2 0x62 JUMP JUMPDEST POP CALLVALUE DUP1 ISZERO PUSH2 0x5C JUMPI PUSH1 0x0 DUP1 REVERT JUMPDEST POP PUSH2 0x166 JUMP JUMPDEST DUP3 DUP1 SLOAD PUSH2 0x6E SWAP1 PUSH2 0x105 JUMP JUMPDEST SWAP1 PUSH1 0x0 MSTORE PUSH1 0x20 PUSH1 0x0 KECCAK256 SWAP1 PUSH1 0x1F ADD PUSH1 0x20 SWAP1 DIV DUP2 ADD SWAP3 DUP3 PUSH2 0x90 JUMPI PUSH1 0x0 DUP6 SSTORE PUSH2 0xD7 JUMP JUMPDEST DUP3 PUSH1 0x1F LT PUSH2 0xA9 JUMPI DUP1 MLOAD PUSH1 0xFF NOT AND DUP4 DUP1 ADD OR DUP6 SSTORE PUSH2 0xD7 JUMP JUMPDEST DUP3 DUP1 ADD PUSH1 0x1 ADD DUP6 SSTORE DUP3 ISZERO PUSH2 0xD7 JUMPI SWAP2 DUP3 ADD JUMPDEST DUP3 DUP2 GT ISZERO PUSH2 0xD6 JUMPI DUP3 MLOAD DUP3 SSTORE SWAP2 PUSH1 0x20 ADD SWAP2 SWAP1 PUSH1 0x1 ADD SWAP1 PUSH2 0xBB JUMP JUMPDEST JUMPDEST POP SWAP1 POP PUSH2 0xE4 SWAP2 SWAP1 PUSH2 0xE8 JUMP JUMPDEST POP SWAP1 JUMP JUMPDEST JUMPDEST DUP1 DUP3 GT ISZERO PUSH2 0x101 JUMPI PUSH1 0x0 DUP2 PUSH1 0x0 SWAP1 SSTORE POP PUSH1 0x1 ADD PUSH2 0xE9 JUMP JUMPDEST POP SWAP1 JUMP JUMPDEST PUSH1 0x0 PUSH1 0x2 DUP3 DIV SWAP1 POP PUSH1 0x1 DUP3 AND DUP1 PUSH2 0x11D JUMPI PUSH1 0x7F DUP3 AND SWAP2 POP JUMPDEST PUSH1 0x20 DUP3 LT DUP2 EQ ISZERO PUSH2 0x131 JUMPI PUSH2 0x130 PUSH2 0x137 JUMP JUMPDEST JUMPDEST POP SWAP2 SWAP1 POP JUMP JUMPDEST PUSH32 0x4E487B7100000000000000000000000000000000000000000000000000000000 PUSH1 0x0 MSTORE PUSH1 0x22 PUSH1 0x4 MSTORE PUSH1 0x24 PUSH1 0x0 REVERT JUMPDEST PUSH2 0x3FB DUP1 PUSH2 0x175 PUSH1 0x0 CODECOPY PUSH1 0x0 RETURN INVALID PUSH1 0x80 PUSH1 0x40 MSTORE CALLVALUE DUP1 ISZERO PUSH2 0x10 JUMPI PUSH1 0x0 DUP1 REVERT JUMPDEST POP PUSH1 0x4 CALLDATASIZE LT PUSH2 0x36 JUMPI PUSH1 0x0 CALLDATALOAD PUSH1 0xE0 SHR DUP1 PUSH4 0xA990A7A7 EQ PUSH2 0x3B JUMPI DUP1 PUSH4 0xC6EA59B9 EQ PUSH2 0x6B JUMPI JUMPDEST PUSH1 0x0 DUP1 REVERT JUMPDEST PUSH2 0x55 PUSH1 0x4 DUP1 CALLDATASIZE SUB DUP2 ADD SWAP1 PUSH2 0x50 SWAP2 SWAP1 PUSH2 0x194 JUMP JUMPDEST PUSH2 0x89 JUMP JUMPDEST PUSH1 0x40 MLOAD PUSH2 0x62 SWAP2 SWAP1 PUSH2 0x23E JUMP JUMPDEST PUSH1 0x40 MLOAD DUP1 SWAP2 SUB SWAP1 RETURN JUMPDEST PUSH2 0x73 PUSH2 0xED JUMP JUMPDEST PUSH1 0x40 MLOAD PUSH2 0x80 SWAP2 SWAP1 PUSH2 0x21C JUMP JUMPDEST PUSH1 0x40 MLOAD DUP1 SWAP2 SUB SWAP1 RETURN JUMPDEST PUSH1 0x0 DUP1 PUSH1 0x40 MLOAD DUP1 PUSH1 0x40 ADD PUSH1 0x40 MSTORE DUP1 PUSH1 0x1 DUP2 MSTORE PUSH1 0x20 ADD PUSH32 0x5600000000000000000000000000000000000000000000000000000000000000 DUP2 MSTORE POP SWAP1 POP PUSH1 0x0 PUSH1 0xA SWAP1 POP PUSH1 0x0 PUSH1 0x14 SWAP1 POP PUSH1 0x0 DUP2 DUP4 PUSH2 0xDE SWAP2 SWAP1 PUSH2 0x275 JUMP JUMPDEST SWAP1 POP DUP1 SWAP5 POP POP POP POP POP SWAP3 SWAP2 POP POP JUMP JUMPDEST PUSH1 0x60 PUSH1 0x0 DUP1 SLOAD PUSH2 0xFC SWAP1 PUSH2 0x308 JUMP JUMPDEST DUP1 PUSH1 0x1F ADD PUSH1 0x20 DUP1 SWAP2 DIV MUL PUSH1 0x20 ADD PUSH1 0x40 MLOAD SWAP1 DUP2 ADD PUSH1 0x40 MSTORE DUP1 SWAP3 SWAP2 SWAP1 DUP2 DUP2 MSTORE PUSH1 0x20 ADD DUP3 DUP1 SLOAD PUSH2 0x128 SWAP1 PUSH2 0x308 JUMP JUMPDEST DUP1 ISZERO PUSH2 0x175 JUMPI DUP1 PUSH1 0x1F LT PUSH2 0x14A JUMPI PUSH2 0x100 DUP1 DUP4 SLOAD DIV MUL DUP4 MSTORE SWAP2 PUSH1 0x20 ADD SWAP2 PUSH2 0x175 JUMP JUMPDEST DUP3 ADD SWAP2 SWAP1 PUSH1 0x0 MSTORE PUSH1 0x20 PUSH1 0x0 KECCAK256 SWAP1 JUMPDEST DUP2 SLOAD DUP2 MSTORE SWAP1 PUSH1 0x1 ADD SWAP1 PUSH1 0x20 ADD DUP1 DUP4 GT PUSH2 0x158 JUMPI DUP3 SWAP1 SUB PUSH1 0x1F AND DUP3 ADD SWAP2 JUMPDEST POP POP POP POP POP SWAP1 POP SWAP1 JUMP JUMPDEST PUSH1 0x0 DUP2 CALLDATALOAD SWAP1 POP PUSH2 0x18E DUP2 PUSH2 0x3AE JUMP JUMPDEST SWAP3 SWAP2 POP POP JUMP JUMPDEST PUSH1 0x0 DUP1 PUSH1 0x40 DUP4 DUP6 SUB SLT ISZERO PUSH2 0x1AB JUMPI PUSH2 0x1AA PUSH2 0x398 JUMP JUMPDEST JUMPDEST PUSH1 0x0 PUSH2 0x1B9 DUP6 DUP3 DUP7 ADD PUSH2 0x17F JUMP JUMPDEST SWAP3 POP POP PUSH1 0x20 PUSH2 0x1CA DUP6 DUP3 DUP7 ADD PUSH2 0x17F JUMP JUMPDEST SWAP2 POP POP SWAP3 POP SWAP3 SWAP1 POP JUMP JUMPDEST PUSH1 0x0 PUSH2 0x1DF DUP3 PUSH2 0x259 JUMP JUMPDEST PUSH2 0x1E9 DUP2 DUP6 PUSH2 0x264 JUMP JUMPDEST SWAP4 POP PUSH2 0x1F9 DUP2 DUP6 PUSH1 0x20 DUP7 ADD PUSH2 0x2D5 JUMP JUMPDEST PUSH2 0x202 DUP2 PUSH2 0x39D JUMP JUMPDEST DUP5 ADD SWAP2 POP POP SWAP3 SWAP2 POP POP JUMP JUMPDEST PUSH2 0x216 DUP2 PUSH2 0x2CB JUMP JUMPDEST DUP3 MSTORE POP POP JUMP JUMPDEST PUSH1 0x0 PUSH1 0x20 DUP3 ADD SWAP1 POP DUP2 DUP2 SUB PUSH1 0x0 DUP4 ADD MSTORE PUSH2 0x236 DUP2 DUP5 PUSH2 0x1D4 JUMP JUMPDEST SWAP1 POP SWAP3 SWAP2 POP POP JUMP JUMPDEST PUSH1 0x0 PUSH1 0x20 DUP3 ADD SWAP1 POP PUSH2 0x253 PUSH1 0x0 DUP4 ADD DUP5 PUSH2 0x20D JUMP JUMPDEST SWAP3 SWAP2 POP POP JUMP JUMPDEST PUSH1 0x0 DUP2 MLOAD SWAP1 POP SWAP2 SWAP1 POP JUMP JUMPDEST PUSH1 0x0 DUP3 DUP3 MSTORE PUSH1 0x20 DUP3 ADD SWAP1 POP SWAP3 SWAP2 POP POP JUMP JUMPDEST PUSH1 0x0 PUSH2 0x280 DUP3 PUSH2 0x2CB JUMP JUMPDEST SWAP2 POP PUSH2 0x28B DUP4 PUSH2 0x2CB JUMP JUMPDEST SWAP3 POP DUP3 PUSH32 0xFFFFFFFFFFFFFFFFFFFFFFFFFFFFFFFFFFFFFFFFFFFFFFFFFFFFFFFFFFFFFFFF SUB DUP3 GT ISZERO PUSH2 0x2C0 JUMPI PUSH2 0x2BF PUSH2 0x33A JUMP JUMPDEST JUMPDEST DUP3 DUP3 ADD SWAP1 POP SWAP3 SWAP2 POP POP JUMP JUMPDEST PUSH1 0x0 DUP2 SWAP1 POP SWAP2 SWAP1 POP JUMP JUMPDEST PUSH1 0x0 JUMPDEST DUP4 DUP2 LT ISZERO PUSH2 0x2F3 JUMPI DUP1 DUP3 ADD MLOAD DUP2 DUP5 ADD MSTORE PUSH1 0x20 DUP2 ADD SWAP1 POP PUSH2 0x2D8 JUMP JUMPDEST DUP4 DUP2 GT ISZERO PUSH2 0x302 JUMPI PUSH1 0x0 DUP5 DUP5 ADD MSTORE JUMPDEST POP POP POP POP JUMP JUMPDEST PUSH1 0x0 PUSH1 0x2 DUP3 DIV SWAP1 POP PUSH1 0x1 DUP3 AND DUP1 PUSH2 0x320 JUMPI PUSH1 0x7F DUP3 AND SWAP2 POP JUMPDEST PUSH1 0x20 DUP3 LT DUP2 EQ ISZERO PUSH2 0x334 JUMPI PUSH2 0x333 PUSH2 0x369 JUMP JUMPDEST JUMPDEST POP SWAP2 SWAP1 POP JUMP JUMPDEST PUSH32 0x4E487B7100000000000000000000000000000000000000000000000000000000 PUSH1 0x0 MSTORE PUSH1 0x11 PUSH1 0x4 MSTORE PUSH1 0x24 PUSH1 0x0 REVERT JUMPDEST PUSH32 0x4E487B7100000000000000000000000000000000000000000000000000000000 PUSH1 0x0 MSTORE PUSH1 0x22 PUSH1 0x4 MSTORE PUSH1 0x24 PUSH1 0x0 REVERT JUMPDEST PUSH1 0x0 DUP1 REVERT JUMPDEST PUSH1 0x0 PUSH1 0x1F NOT PUSH1 0x1F DUP4 ADD AND SWAP1 POP SWAP2 SWAP1 POP JUMP JUMPDEST PUSH2 0x3B7 DUP2 PUSH2 0x2CB JUMP JUMPDEST DUP2 EQ PUSH2 0x3C2 JUMPI PUSH1 0x0 DUP1 REVERT JUMPDEST POP JUMP INVALID LOG2 PUSH5 0x6970667358 0x22 SLT KECCAK256 MUL PUSH6 0x27FB9CC71B5A 0xBA MSTORE PUSH7 0x54857490B24B30 0xD7 0xE7 0x24 0xC9 0xD7 PUSH25 0x1955449DDF71A0E964736F6C63430008070033000000000000 "
				},
				"gasEstimates": {
					"creation": {
						"codeDepositCost": "203800",
						"executionCost": "infinite",
						"totalCost": "infinite"
					},
					"external": {
						"getPureName(uint256,uint256)": "infinite",
						"getname()": "infinite"
					}
				},
				"methodIdentifiers": {
					"getPureName(uint256,uint256)": "a990a7a7",
					"getname()": "c6ea59b9"
				}
			},
			"storageLayout": {
				"storage": [
					{
						"astId": 4,
						"contract": "contracts/functions.sol:functionsContract",
						"label": "name",
						"offset": 0,
						"slot": "0",
						"type": "t_string_storage"
					}
				],
				"types": {
					"t_string_storage": {
						"encoding": "bytes",
						"label": "string",
						"numberOfBytes": "32"
					}
				}
			},
			"userdoc": {
				"kind": "user",
				"methods": {},
				"version": 1
			}
		}
	}
}