{
	"contracts/blog.sol": {
		"blog": {
			"abi": [
				{
					"anonymous": false,
					"inputs": [
						{
							"indexed": true,
							"internalType": "address",
							"name": "user",
							"type": "address"
						},
						{
							"indexed": true,
							"internalType": "string",
							"name": "title",
							"type": "string"
						},
						{
							"indexed": true,
							"internalType": "string",
							"name": "description",
							"type": "string"
						}
					],
					"name": "broadcastDetails",
					"type": "event"
				},
				{
					"inputs": [],
					"name": "counter",
					"outputs": [
						{
							"internalType": "uint256",
							"name": "",
							"type": "uint256"
						}
					],
					"stateMutability": "view",
					"type": "function"
				},
				{
					"inputs": [
						{
							"internalType": "string",
							"name": "_title",
							"type": "string"
						},
						{
							"internalType": "string",
							"name": "_description",
							"type": "string"
						}
					],
					"name": "createPost",
					"outputs": [],
					"stateMutability": "nonpayable",
					"type": "function"
				},
				{
					"inputs": [
						{
							"internalType": "uint256",
							"name": "",
							"type": "uint256"
						}
					],
					"name": "posts",
					"outputs": [
						{
							"internalType": "address",
							"name": "",
							"type": "address"
						}
					],
					"stateMutability": "view",
					"type": "function"
				},
				{
					"inputs": [
						{
							"internalType": "uint256",
							"name": "_id",
							"type": "uint256"
						}
					],
					"name": "readPost",
					"outputs": [
						{
							"components": [
								{
									"internalType": "string",
									"name": "title",
									"type": "string"
								},
								{
									"internalType": "string",
									"name": "description",
									"type": "string"
								},
								{
									"internalType": "address",
									"name": "user",
									"type": "address"
								}
							],
							"internalType": "struct blog.Post",
							"name": "",
							"type": "tuple"
						}
					],
					"stateMutability": "view",
					"type": "function"
				},
				{
					"inputs": [
						{
							"internalType": "uint256",
							"name": "_id",
							"type": "uint256"
						}
					],
					"name": "readPostTitle",
					"outputs": [
						{
							"internalType": "string",
							"name": "",
							"type": "string"
						}
					],
					"stateMutability": "view",
					"type": "function"
				},
				{
					"inputs": [
						{
							"internalType": "uint256",
							"name": "",
							"type": "uint256"
						}
					],
					"name": "userPosts",
					"outputs": [
						{
							"internalType": "string",
							"name": "title",
							"type": "string"
						},
						{
							"internalType": "string",
							"name": "description",
							"type": "string"
						},
						{
							"internalType": "address",
							"name": "user",
							"type": "address"
						}
					],
					"stateMutability": "view",
					"type": "function"
				}
			],
			"devdoc": {
				"kind": "dev",
				"methods": {},
				"version": 1
			},
			"evm": {
				"assembly": "    /* \"contracts/blog.sol\":90:1438  contract blog{\r... */\n  mstore(0x40, 0x80)\n    /* \"contracts/blog.sol\":157:158  0 */\n  0x00\n    /* \"contracts/blog.sol\":135:158  uint public counter = 0 */\n  dup1\n  sstore\n    /* \"contracts/blog.sol\":90:1438  contract blog{\r... */\n  callvalue\n  dup1\n  iszero\n  tag_1\n  jumpi\n  0x00\n  dup1\n  revert\ntag_1:\n  pop\n  dataSize(sub_0)\n  dup1\n  dataOffset(sub_0)\n  0x00\n  codecopy\n  0x00\n  return\nstop\n\nsub_0: assembly {\n        /* \"contracts/blog.sol\":90:1438  contract blog{\r... */\n      mstore(0x40, 0x80)\n      callvalue\n      dup1\n      iszero\n      tag_1\n      jumpi\n      0x00\n      dup1\n      revert\n    tag_1:\n      pop\n      jumpi(tag_2, lt(calldatasize, 0x04))\n      shr(0xe0, calldataload(0x00))\n      dup1\n      0x0b1e7f83\n      eq\n      tag_3\n      jumpi\n      dup1\n      0x392338f5\n      eq\n      tag_4\n      jumpi\n      dup1\n      0x61bc221a\n      eq\n      tag_5\n      jumpi\n      dup1\n      0x863a20f2\n      eq\n      tag_6\n      jumpi\n      dup1\n      0xca6f69f5\n      eq\n      tag_7\n      jumpi\n      dup1\n      0xfdd6ea71\n      eq\n      tag_8\n      jumpi\n    tag_2:\n      0x00\n      dup1\n      revert\n        /* \"contracts/blog.sol\":554:591  mapping(uint => address) public posts */\n    tag_3:\n      tag_9\n      0x04\n      dup1\n      calldatasize\n      sub\n      dup2\n      add\n      swap1\n      tag_10\n      swap2\n      swap1\n      tag_11\n      jump\t// in\n    tag_10:\n      tag_12\n      jump\t// in\n    tag_9:\n      mload(0x40)\n      tag_13\n      swap2\n      swap1\n      tag_14\n      jump\t// in\n    tag_13:\n      mload(0x40)\n      dup1\n      swap2\n      sub\n      swap1\n      return\n        /* \"contracts/blog.sol\":869:1128  function createPost(string memory _title,string memory _description)\r... */\n    tag_4:\n      tag_15\n      0x04\n      dup1\n      calldatasize\n      sub\n      dup2\n      add\n      swap1\n      tag_16\n      swap2\n      swap1\n      tag_17\n      jump\t// in\n    tag_16:\n      tag_18\n      jump\t// in\n    tag_15:\n      stop\n        /* \"contracts/blog.sol\":135:158  uint public counter = 0 */\n    tag_5:\n      tag_19\n      tag_20\n      jump\t// in\n    tag_19:\n      mload(0x40)\n      tag_21\n      swap2\n      swap1\n      tag_22\n      jump\t// in\n    tag_21:\n      mload(0x40)\n      dup1\n      swap2\n      sub\n      swap1\n      return\n        /* \"contracts/blog.sol\":1303:1431  function readPostTitle(uint _id)\r... */\n    tag_6:\n      tag_23\n      0x04\n      dup1\n      calldatasize\n      sub\n      dup2\n      add\n      swap1\n      tag_24\n      swap2\n      swap1\n      tag_11\n      jump\t// in\n    tag_24:\n      tag_25\n      jump\t// in\n    tag_23:\n      mload(0x40)\n      tag_26\n      swap2\n      swap1\n      tag_27\n      jump\t// in\n    tag_26:\n      mload(0x40)\n      dup1\n      swap2\n      sub\n      swap1\n      return\n        /* \"contracts/blog.sol\":1158:1273  function readPost(uint _id)\r... */\n    tag_7:\n      tag_28\n      0x04\n      dup1\n      calldatasize\n      sub\n      dup2\n      add\n      swap1\n      tag_29\n      swap2\n      swap1\n      tag_11\n      jump\t// in\n    tag_29:\n      tag_30\n      jump\t// in\n    tag_28:\n      mload(0x40)\n      tag_31\n      swap2\n      swap1\n      tag_32\n      jump\t// in\n    tag_31:\n      mload(0x40)\n      dup1\n      swap2\n      sub\n      swap1\n      return\n        /* \"contracts/blog.sol\":635:673  mapping(uint => Post) public userPosts */\n    tag_8:\n      tag_33\n      0x04\n      dup1\n      calldatasize\n      sub\n      dup2\n      add\n      swap1\n      tag_34\n      swap2\n      swap1\n      tag_11\n      jump\t// in\n    tag_34:\n      tag_35\n      jump\t// in\n    tag_33:\n      mload(0x40)\n      tag_36\n      swap4\n      swap3\n      swap2\n      swap1\n      tag_37\n      jump\t// in\n    tag_36:\n      mload(0x40)\n      dup1\n      swap2\n      sub\n      swap1\n      return\n        /* \"contracts/blog.sol\":554:591  mapping(uint => address) public posts */\n    tag_12:\n      mstore(0x20, 0x01)\n      dup1\n      0x00\n      mstore\n      keccak256(0x00, 0x40)\n      0x00\n      swap2\n      pop\n      sload\n      swap1\n      0x0100\n      exp\n      swap1\n      div\n      0xffffffffffffffffffffffffffffffffffffffff\n      and\n      dup2\n      jump\t// out\n        /* \"contracts/blog.sol\":869:1128  function createPost(string memory _title,string memory _description)\r... */\n    tag_18:\n        /* \"contracts/blog.sol\":991:1027  Post(_title,_description,msg.sender) */\n      mload(0x40)\n      dup1\n      0x60\n      add\n      0x40\n      mstore\n      dup1\n        /* \"contracts/blog.sol\":996:1002  _title */\n      dup4\n        /* \"contracts/blog.sol\":991:1027  Post(_title,_description,msg.sender) */\n      dup2\n      mstore\n      0x20\n      add\n        /* \"contracts/blog.sol\":1003:1015  _description */\n      dup3\n        /* \"contracts/blog.sol\":991:1027  Post(_title,_description,msg.sender) */\n      dup2\n      mstore\n      0x20\n      add\n        /* \"contracts/blog.sol\":1016:1026  msg.sender */\n      caller\n        /* \"contracts/blog.sol\":991:1027  Post(_title,_description,msg.sender) */\n      0xffffffffffffffffffffffffffffffffffffffff\n      and\n      dup2\n      mstore\n      pop\n        /* \"contracts/blog.sol\":970:979  userPosts */\n      0x02\n        /* \"contracts/blog.sol\":970:988  userPosts[counter] */\n      0x00\n        /* \"contracts/blog.sol\":980:987  counter */\n      dup1\n      sload\n        /* \"contracts/blog.sol\":970:988  userPosts[counter] */\n      dup2\n      mstore\n      0x20\n      add\n      swap1\n      dup2\n      mstore\n      0x20\n      add\n      0x00\n      keccak256\n        /* \"contracts/blog.sol\":970:1027  userPosts[counter] = Post(_title,_description,msg.sender) */\n      0x00\n      dup3\n      add\n      mload\n      dup2\n      0x00\n      add\n      swap1\n      dup1\n      mload\n      swap1\n      0x20\n      add\n      swap1\n      tag_39\n      swap3\n      swap2\n      swap1\n      tag_40\n      jump\t// in\n    tag_39:\n      pop\n      0x20\n      dup3\n      add\n      mload\n      dup2\n      0x01\n      add\n      swap1\n      dup1\n      mload\n      swap1\n      0x20\n      add\n      swap1\n      tag_41\n      swap3\n      swap2\n      swap1\n      tag_40\n      jump\t// in\n    tag_41:\n      pop\n      0x40\n      dup3\n      add\n      mload\n      dup2\n      0x02\n      add\n      exp(0x0100, 0x00)\n      dup2\n      sload\n      dup2\n      0xffffffffffffffffffffffffffffffffffffffff\n      mul\n      not\n      and\n      swap1\n      dup4\n      0xffffffffffffffffffffffffffffffffffffffff\n      and\n      mul\n      or\n      swap1\n      sstore\n      pop\n      swap1\n      pop\n      pop\n        /* \"contracts/blog.sol\":1083:1095  _description */\n      dup1\n        /* \"contracts/blog.sol\":1047:1096  broadcastDetails(msg.sender, _title,_description) */\n      mload(0x40)\n      tag_42\n      swap2\n      swap1\n      tag_43\n      jump\t// in\n    tag_42:\n      mload(0x40)\n      dup1\n      swap2\n      sub\n      swap1\n      keccak256\n        /* \"contracts/blog.sol\":1076:1082  _title */\n      dup3\n        /* \"contracts/blog.sol\":1047:1096  broadcastDetails(msg.sender, _title,_description) */\n      mload(0x40)\n      tag_44\n      swap2\n      swap1\n      tag_43\n      jump\t// in\n    tag_44:\n      mload(0x40)\n      dup1\n      swap2\n      sub\n      swap1\n      keccak256\n        /* \"contracts/blog.sol\":1064:1074  msg.sender */\n      caller\n        /* \"contracts/blog.sol\":1047:1096  broadcastDetails(msg.sender, _title,_description) */\n      0xffffffffffffffffffffffffffffffffffffffff\n      and\n      0x4eacffc497062f11928adc3628e2047cd720623235f6f37529db1d95cc75ecbf\n      mload(0x40)\n      mload(0x40)\n      dup1\n      swap2\n      sub\n      swap1\n      log4\n        /* \"contracts/blog.sol\":1111:1118  counter */\n      0x00\n      dup1\n        /* \"contracts/blog.sol\":1111:1120  counter++ */\n      dup2\n      sload\n      dup1\n      swap3\n      swap2\n      swap1\n      tag_45\n      swap1\n      tag_46\n      jump\t// in\n    tag_45:\n      swap2\n      swap1\n      pop\n      sstore\n      pop\n        /* \"contracts/blog.sol\":869:1128  function createPost(string memory _title,string memory _description)\r... */\n      pop\n      pop\n      jump\t// out\n        /* \"contracts/blog.sol\":135:158  uint public counter = 0 */\n    tag_20:\n      sload(0x00)\n      dup2\n      jump\t// out\n        /* \"contracts/blog.sol\":1303:1431  function readPostTitle(uint _id)\r... */\n    tag_25:\n        /* \"contracts/blog.sol\":1371:1384  string memory */\n      0x60\n        /* \"contracts/blog.sol\":1403:1412  userPosts */\n      0x02\n        /* \"contracts/blog.sol\":1403:1417  userPosts[_id] */\n      0x00\n        /* \"contracts/blog.sol\":1413:1416  _id */\n      dup4\n        /* \"contracts/blog.sol\":1403:1417  userPosts[_id] */\n      dup2\n      mstore\n      0x20\n      add\n      swap1\n      dup2\n      mstore\n      0x20\n      add\n      0x00\n      keccak256\n        /* \"contracts/blog.sol\":1403:1423  userPosts[_id].title */\n      0x00\n      add\n        /* \"contracts/blog.sol\":1396:1423  return userPosts[_id].title */\n      dup1\n      sload\n      tag_48\n      swap1\n      tag_49\n      jump\t// in\n    tag_48:\n      dup1\n      0x1f\n      add\n      0x20\n      dup1\n      swap2\n      div\n      mul\n      0x20\n      add\n      mload(0x40)\n      swap1\n      dup2\n      add\n      0x40\n      mstore\n      dup1\n      swap3\n      swap2\n      swap1\n      dup2\n      dup2\n      mstore\n      0x20\n      add\n      dup3\n      dup1\n      sload\n      tag_50\n      swap1\n      tag_49\n      jump\t// in\n    tag_50:\n      dup1\n      iszero\n      tag_51\n      jumpi\n      dup1\n      0x1f\n      lt\n      tag_52\n      jumpi\n      0x0100\n      dup1\n      dup4\n      sload\n      div\n      mul\n      dup4\n      mstore\n      swap2\n      0x20\n      add\n      swap2\n      jump(tag_51)\n    tag_52:\n      dup3\n      add\n      swap2\n      swap1\n      0x00\n      mstore\n      keccak256(0x00, 0x20)\n      swap1\n    tag_53:\n      dup2\n      sload\n      dup2\n      mstore\n      swap1\n      0x01\n      add\n      swap1\n      0x20\n      add\n      dup1\n      dup4\n      gt\n      tag_53\n      jumpi\n      dup3\n      swap1\n      sub\n      0x1f\n      and\n      dup3\n      add\n      swap2\n    tag_51:\n      pop\n      pop\n      pop\n      pop\n      pop\n      swap1\n      pop\n        /* \"contracts/blog.sol\":1303:1431  function readPostTitle(uint _id)\r... */\n      swap2\n      swap1\n      pop\n      jump\t// out\n        /* \"contracts/blog.sol\":1158:1273  function readPost(uint _id)\r... */\n    tag_30:\n        /* \"contracts/blog.sol\":1221:1232  Post memory */\n      tag_54\n      tag_55\n      jump\t// in\n    tag_54:\n        /* \"contracts/blog.sol\":1251:1260  userPosts */\n      0x02\n        /* \"contracts/blog.sol\":1251:1265  userPosts[_id] */\n      0x00\n        /* \"contracts/blog.sol\":1261:1264  _id */\n      dup4\n        /* \"contracts/blog.sol\":1251:1265  userPosts[_id] */\n      dup2\n      mstore\n      0x20\n      add\n      swap1\n      dup2\n      mstore\n      0x20\n      add\n      0x00\n      keccak256\n        /* \"contracts/blog.sol\":1244:1265  return userPosts[_id] */\n      mload(0x40)\n      dup1\n      0x60\n      add\n      0x40\n      mstore\n      swap1\n      dup2\n      0x00\n      dup3\n      add\n      dup1\n      sload\n      tag_57\n      swap1\n      tag_49\n      jump\t// in\n    tag_57:\n      dup1\n      0x1f\n      add\n      0x20\n      dup1\n      swap2\n      div\n      mul\n      0x20\n      add\n      mload(0x40)\n      swap1\n      dup2\n      add\n      0x40\n      mstore\n      dup1\n      swap3\n      swap2\n      swap1\n      dup2\n      dup2\n      mstore\n      0x20\n      add\n      dup3\n      dup1\n      sload\n      tag_58\n      swap1\n      tag_49\n      jump\t// in\n    tag_58:\n      dup1\n      iszero\n      tag_59\n      jumpi\n      dup1\n      0x1f\n      lt\n      tag_60\n      jumpi\n      0x0100\n      dup1\n      dup4\n      sload\n      div\n      mul\n      dup4\n      mstore\n      swap2\n      0x20\n      add\n      swap2\n      jump(tag_59)\n    tag_60:\n      dup3\n      add\n      swap2\n      swap1\n      0x00\n      mstore\n      keccak256(0x00, 0x20)\n      swap1\n    tag_61:\n      dup2\n      sload\n      dup2\n      mstore\n      swap1\n      0x01\n      add\n      swap1\n      0x20\n      add\n      dup1\n      dup4\n      gt\n      tag_61\n      jumpi\n      dup3\n      swap1\n      sub\n      0x1f\n      and\n      dup3\n      add\n      swap2\n    tag_59:\n      pop\n      pop\n      pop\n      pop\n      pop\n      dup2\n      mstore\n      0x20\n      add\n      0x01\n      dup3\n      add\n      dup1\n      sload\n      tag_62\n      swap1\n      tag_49\n      jump\t// in\n    tag_62:\n      dup1\n      0x1f\n      add\n      0x20\n      dup1\n      swap2\n      div\n      mul\n      0x20\n      add\n      mload(0x40)\n      swap1\n      dup2\n      add\n      0x40\n      mstore\n      dup1\n      swap3\n      swap2\n      swap1\n      dup2\n      dup2\n      mstore\n      0x20\n      add\n      dup3\n      dup1\n      sload\n      tag_63\n      swap1\n      tag_49\n      jump\t// in\n    tag_63:\n      dup1\n      iszero\n      tag_64\n      jumpi\n      dup1\n      0x1f\n      lt\n      tag_65\n      jumpi\n      0x0100\n      dup1\n      dup4\n      sload\n      div\n      mul\n      dup4\n      mstore\n      swap2\n      0x20\n      add\n      swap2\n      jump(tag_64)\n    tag_65:\n      dup3\n      add\n      swap2\n      swap1\n      0x00\n      mstore\n      keccak256(0x00, 0x20)\n      swap1\n    tag_66:\n      dup2\n      sload\n      dup2\n      mstore\n      swap1\n      0x01\n      add\n      swap1\n      0x20\n      add\n      dup1\n      dup4\n      gt\n      tag_66\n      jumpi\n      dup3\n      swap1\n      sub\n      0x1f\n      and\n      dup3\n      add\n      swap2\n    tag_64:\n      pop\n      pop\n      pop\n      pop\n      pop\n      dup2\n      mstore\n      0x20\n      add\n      0x02\n      dup3\n      add\n      0x00\n      swap1\n      sload\n      swap1\n      0x0100\n      exp\n      swap1\n      div\n      0xffffffffffffffffffffffffffffffffffffffff\n      and\n      0xffffffffffffffffffffffffffffffffffffffff\n      and\n      0xffffffffffffffffffffffffffffffffffffffff\n      and\n      dup2\n      mstore\n      pop\n      pop\n      swap1\n      pop\n        /* \"contracts/blog.sol\":1158:1273  function readPost(uint _id)\r... */\n      swap2\n      swap1\n      pop\n      jump\t// out\n        /* \"contracts/blog.sol\":635:673  mapping(uint => Post) public userPosts */\n    tag_35:\n      mstore(0x20, 0x02)\n      dup1\n      0x00\n      mstore\n      keccak256(0x00, 0x40)\n      0x00\n      swap2\n      pop\n      swap1\n      pop\n      dup1\n      0x00\n      add\n      dup1\n      sload\n      tag_67\n      swap1\n      tag_49\n      jump\t// in\n    tag_67:\n      dup1\n      0x1f\n      add\n      0x20\n      dup1\n      swap2\n      div\n      mul\n      0x20\n      add\n      mload(0x40)\n      swap1\n      dup2\n      add\n      0x40\n      mstore\n      dup1\n      swap3\n      swap2\n      swap1\n      dup2\n      dup2\n      mstore\n      0x20\n      add\n      dup3\n      dup1\n      sload\n      tag_68\n      swap1\n      tag_49\n      jump\t// in\n    tag_68:\n      dup1\n      iszero\n      tag_69\n      jumpi\n      dup1\n      0x1f\n      lt\n      tag_70\n      jumpi\n      0x0100\n      dup1\n      dup4\n      sload\n      div\n      mul\n      dup4\n      mstore\n      swap2\n      0x20\n      add\n      swap2\n      jump(tag_69)\n    tag_70:\n      dup3\n      add\n      swap2\n      swap1\n      0x00\n      mstore\n      keccak256(0x00, 0x20)\n      swap1\n    tag_71:\n      dup2\n      sload\n      dup2\n      mstore\n      swap1\n      0x01\n      add\n      swap1\n      0x20\n      add\n      dup1\n      dup4\n      gt\n      tag_71\n      jumpi\n      dup3\n      swap1\n      sub\n      0x1f\n      and\n      dup3\n      add\n      swap2\n    tag_69:\n      pop\n      pop\n      pop\n      pop\n      pop\n      swap1\n      dup1\n      0x01\n      add\n      dup1\n      sload\n      tag_72\n      swap1\n      tag_49\n      jump\t// in\n    tag_72:\n      dup1\n      0x1f\n      add\n      0x20\n      dup1\n      swap2\n      div\n      mul\n      0x20\n      add\n      mload(0x40)\n      swap1\n      dup2\n      add\n      0x40\n      mstore\n      dup1\n      swap3\n      swap2\n      swap1\n      dup2\n      dup2\n      mstore\n      0x20\n      add\n      dup3\n      dup1\n      sload\n      tag_73\n      swap1\n      tag_49\n      jump\t// in\n    tag_73:\n      dup1\n      iszero\n      tag_74\n      jumpi\n      dup1\n      0x1f\n      lt\n      tag_75\n      jumpi\n      0x0100\n      dup1\n      dup4\n      sload\n      div\n      mul\n      dup4\n      mstore\n      swap2\n      0x20\n      add\n      swap2\n      jump(tag_74)\n    tag_75:\n      dup3\n      add\n      swap2\n      swap1\n      0x00\n      mstore\n      keccak256(0x00, 0x20)\n      swap1\n    tag_76:\n      dup2\n      sload\n      dup2\n      mstore\n      swap1\n      0x01\n      add\n      swap1\n      0x20\n      add\n      dup1\n      dup4\n      gt\n      tag_76\n      jumpi\n      dup3\n      swap1\n      sub\n      0x1f\n      and\n      dup3\n      add\n      swap2\n    tag_74:\n      pop\n      pop\n      pop\n      pop\n      pop\n      swap1\n      dup1\n      0x02\n      add\n      0x00\n      swap1\n      sload\n      swap1\n      0x0100\n      exp\n      swap1\n      div\n      0xffffffffffffffffffffffffffffffffffffffff\n      and\n      swap1\n      pop\n      dup4\n      jump\t// out\n    tag_40:\n      dup3\n      dup1\n      sload\n      tag_77\n      swap1\n      tag_49\n      jump\t// in\n    tag_77:\n      swap1\n      0x00\n      mstore\n      keccak256(0x00, 0x20)\n      swap1\n      0x1f\n      add\n      0x20\n      swap1\n      div\n      dup2\n      add\n      swap3\n      dup3\n      tag_79\n      jumpi\n      0x00\n      dup6\n      sstore\n      jump(tag_78)\n    tag_79:\n      dup3\n      0x1f\n      lt\n      tag_80\n      jumpi\n      dup1\n      mload\n      not(0xff)\n      and\n      dup4\n      dup1\n      add\n      or\n      dup6\n      sstore\n      jump(tag_78)\n    tag_80:\n      dup3\n      dup1\n      add\n      0x01\n      add\n      dup6\n      sstore\n      dup3\n      iszero\n      tag_78\n      jumpi\n      swap2\n      dup3\n      add\n    tag_81:\n      dup3\n      dup2\n      gt\n      iszero\n      tag_82\n      jumpi\n      dup3\n      mload\n      dup3\n      sstore\n      swap2\n      0x20\n      add\n      swap2\n      swap1\n      0x01\n      add\n      swap1\n      jump(tag_81)\n    tag_82:\n    tag_78:\n      pop\n      swap1\n      pop\n      tag_83\n      swap2\n      swap1\n      tag_84\n      jump\t// in\n    tag_83:\n      pop\n      swap1\n      jump\t// out\n    tag_55:\n      mload(0x40)\n      dup1\n      0x60\n      add\n      0x40\n      mstore\n      dup1\n      0x60\n      dup2\n      mstore\n      0x20\n      add\n      0x60\n      dup2\n      mstore\n      0x20\n      add\n      and(0xffffffffffffffffffffffffffffffffffffffff, 0x00)\n      dup2\n      mstore\n      pop\n      swap1\n      jump\t// out\n    tag_84:\n    tag_85:\n      dup1\n      dup3\n      gt\n      iszero\n      tag_86\n      jumpi\n      0x00\n      dup2\n      0x00\n      swap1\n      sstore\n      pop\n      0x01\n      add\n      jump(tag_85)\n    tag_86:\n      pop\n      swap1\n      jump\t// out\n        /* \"#utility.yul\":7:419   */\n    tag_88:\n        /* \"#utility.yul\":85:90   */\n      0x00\n        /* \"#utility.yul\":110:176   */\n      tag_90\n        /* \"#utility.yul\":126:175   */\n      tag_91\n        /* \"#utility.yul\":168:174   */\n      dup5\n        /* \"#utility.yul\":126:175   */\n      tag_92\n      jump\t// in\n    tag_91:\n        /* \"#utility.yul\":110:176   */\n      tag_93\n      jump\t// in\n    tag_90:\n        /* \"#utility.yul\":101:176   */\n      swap1\n      pop\n        /* \"#utility.yul\":199:205   */\n      dup3\n        /* \"#utility.yul\":192:197   */\n      dup2\n        /* \"#utility.yul\":185:206   */\n      mstore\n        /* \"#utility.yul\":237:241   */\n      0x20\n        /* \"#utility.yul\":230:235   */\n      dup2\n        /* \"#utility.yul\":226:242   */\n      add\n        /* \"#utility.yul\":275:278   */\n      dup5\n        /* \"#utility.yul\":266:272   */\n      dup5\n        /* \"#utility.yul\":261:264   */\n      dup5\n        /* \"#utility.yul\":257:273   */\n      add\n        /* \"#utility.yul\":254:279   */\n      gt\n        /* \"#utility.yul\":251:363   */\n      iszero\n      tag_94\n      jumpi\n        /* \"#utility.yul\":282:361   */\n      tag_95\n      tag_96\n      jump\t// in\n    tag_95:\n        /* \"#utility.yul\":251:363   */\n    tag_94:\n        /* \"#utility.yul\":372:413   */\n      tag_97\n        /* \"#utility.yul\":406:412   */\n      dup5\n        /* \"#utility.yul\":401:404   */\n      dup3\n        /* \"#utility.yul\":396:399   */\n      dup6\n        /* \"#utility.yul\":372:413   */\n      tag_98\n      jump\t// in\n    tag_97:\n        /* \"#utility.yul\":91:419   */\n      pop\n        /* \"#utility.yul\":7:419   */\n      swap4\n      swap3\n      pop\n      pop\n      pop\n      jump\t// out\n        /* \"#utility.yul\":439:779   */\n    tag_99:\n        /* \"#utility.yul\":495:500   */\n      0x00\n        /* \"#utility.yul\":544:547   */\n      dup3\n        /* \"#utility.yul\":537:541   */\n      0x1f\n        /* \"#utility.yul\":529:535   */\n      dup4\n        /* \"#utility.yul\":525:542   */\n      add\n        /* \"#utility.yul\":521:548   */\n      slt\n        /* \"#utility.yul\":511:633   */\n      tag_101\n      jumpi\n        /* \"#utility.yul\":552:631   */\n      tag_102\n      tag_103\n      jump\t// in\n    tag_102:\n        /* \"#utility.yul\":511:633   */\n    tag_101:\n        /* \"#utility.yul\":669:675   */\n      dup2\n        /* \"#utility.yul\":656:676   */\n      calldataload\n        /* \"#utility.yul\":694:773   */\n      tag_104\n        /* \"#utility.yul\":769:772   */\n      dup5\n        /* \"#utility.yul\":761:767   */\n      dup3\n        /* \"#utility.yul\":754:758   */\n      0x20\n        /* \"#utility.yul\":746:752   */\n      dup7\n        /* \"#utility.yul\":742:759   */\n      add\n        /* \"#utility.yul\":694:773   */\n      tag_88\n      jump\t// in\n    tag_104:\n        /* \"#utility.yul\":685:773   */\n      swap2\n      pop\n        /* \"#utility.yul\":501:779   */\n      pop\n        /* \"#utility.yul\":439:779   */\n      swap3\n      swap2\n      pop\n      pop\n      jump\t// out\n        /* \"#utility.yul\":785:924   */\n    tag_105:\n        /* \"#utility.yul\":831:836   */\n      0x00\n        /* \"#utility.yul\":869:875   */\n      dup2\n        /* \"#utility.yul\":856:876   */\n      calldataload\n        /* \"#utility.yul\":847:876   */\n      swap1\n      pop\n        /* \"#utility.yul\":885:918   */\n      tag_107\n        /* \"#utility.yul\":912:917   */\n      dup2\n        /* \"#utility.yul\":885:918   */\n      tag_108\n      jump\t// in\n    tag_107:\n        /* \"#utility.yul\":785:924   */\n      swap3\n      swap2\n      pop\n      pop\n      jump\t// out\n        /* \"#utility.yul\":930:1764   */\n    tag_17:\n        /* \"#utility.yul\":1018:1024   */\n      0x00\n        /* \"#utility.yul\":1026:1032   */\n      dup1\n        /* \"#utility.yul\":1075:1077   */\n      0x40\n        /* \"#utility.yul\":1063:1072   */\n      dup4\n        /* \"#utility.yul\":1054:1061   */\n      dup6\n        /* \"#utility.yul\":1050:1073   */\n      sub\n        /* \"#utility.yul\":1046:1078   */\n      slt\n        /* \"#utility.yul\":1043:1162   */\n      iszero\n      tag_110\n      jumpi\n        /* \"#utility.yul\":1081:1160   */\n      tag_111\n      tag_112\n      jump\t// in\n    tag_111:\n        /* \"#utility.yul\":1043:1162   */\n    tag_110:\n        /* \"#utility.yul\":1229:1230   */\n      0x00\n        /* \"#utility.yul\":1218:1227   */\n      dup4\n        /* \"#utility.yul\":1214:1231   */\n      add\n        /* \"#utility.yul\":1201:1232   */\n      calldataload\n        /* \"#utility.yul\":1259:1277   */\n      0xffffffffffffffff\n        /* \"#utility.yul\":1251:1257   */\n      dup2\n        /* \"#utility.yul\":1248:1278   */\n      gt\n        /* \"#utility.yul\":1245:1362   */\n      iszero\n      tag_113\n      jumpi\n        /* \"#utility.yul\":1281:1360   */\n      tag_114\n      tag_115\n      jump\t// in\n    tag_114:\n        /* \"#utility.yul\":1245:1362   */\n    tag_113:\n        /* \"#utility.yul\":1386:1449   */\n      tag_116\n        /* \"#utility.yul\":1441:1448   */\n      dup6\n        /* \"#utility.yul\":1432:1438   */\n      dup3\n        /* \"#utility.yul\":1421:1430   */\n      dup7\n        /* \"#utility.yul\":1417:1439   */\n      add\n        /* \"#utility.yul\":1386:1449   */\n      tag_99\n      jump\t// in\n    tag_116:\n        /* \"#utility.yul\":1376:1449   */\n      swap3\n      pop\n        /* \"#utility.yul\":1172:1459   */\n      pop\n        /* \"#utility.yul\":1526:1528   */\n      0x20\n        /* \"#utility.yul\":1515:1524   */\n      dup4\n        /* \"#utility.yul\":1511:1529   */\n      add\n        /* \"#utility.yul\":1498:1530   */\n      calldataload\n        /* \"#utility.yul\":1557:1575   */\n      0xffffffffffffffff\n        /* \"#utility.yul\":1549:1555   */\n      dup2\n        /* \"#utility.yul\":1546:1576   */\n      gt\n        /* \"#utility.yul\":1543:1660   */\n      iszero\n      tag_117\n      jumpi\n        /* \"#utility.yul\":1579:1658   */\n      tag_118\n      tag_115\n      jump\t// in\n    tag_118:\n        /* \"#utility.yul\":1543:1660   */\n    tag_117:\n        /* \"#utility.yul\":1684:1747   */\n      tag_119\n        /* \"#utility.yul\":1739:1746   */\n      dup6\n        /* \"#utility.yul\":1730:1736   */\n      dup3\n        /* \"#utility.yul\":1719:1728   */\n      dup7\n        /* \"#utility.yul\":1715:1737   */\n      add\n        /* \"#utility.yul\":1684:1747   */\n      tag_99\n      jump\t// in\n    tag_119:\n        /* \"#utility.yul\":1674:1747   */\n      swap2\n      pop\n        /* \"#utility.yul\":1469:1757   */\n      pop\n        /* \"#utility.yul\":930:1764   */\n      swap3\n      pop\n      swap3\n      swap1\n      pop\n      jump\t// out\n        /* \"#utility.yul\":1770:2099   */\n    tag_11:\n        /* \"#utility.yul\":1829:1835   */\n      0x00\n        /* \"#utility.yul\":1878:1880   */\n      0x20\n        /* \"#utility.yul\":1866:1875   */\n      dup3\n        /* \"#utility.yul\":1857:1864   */\n      dup5\n        /* \"#utility.yul\":1853:1876   */\n      sub\n        /* \"#utility.yul\":1849:1881   */\n      slt\n        /* \"#utility.yul\":1846:1965   */\n      iszero\n      tag_121\n      jumpi\n        /* \"#utility.yul\":1884:1963   */\n      tag_122\n      tag_112\n      jump\t// in\n    tag_122:\n        /* \"#utility.yul\":1846:1965   */\n    tag_121:\n        /* \"#utility.yul\":2004:2005   */\n      0x00\n        /* \"#utility.yul\":2029:2082   */\n      tag_123\n        /* \"#utility.yul\":2074:2081   */\n      dup5\n        /* \"#utility.yul\":2065:2071   */\n      dup3\n        /* \"#utility.yul\":2054:2063   */\n      dup6\n        /* \"#utility.yul\":2050:2072   */\n      add\n        /* \"#utility.yul\":2029:2082   */\n      tag_105\n      jump\t// in\n    tag_123:\n        /* \"#utility.yul\":2019:2082   */\n      swap2\n      pop\n        /* \"#utility.yul\":1975:2092   */\n      pop\n        /* \"#utility.yul\":1770:2099   */\n      swap3\n      swap2\n      pop\n      pop\n      jump\t// out\n        /* \"#utility.yul\":2105:2213   */\n    tag_124:\n        /* \"#utility.yul\":2182:2206   */\n      tag_126\n        /* \"#utility.yul\":2200:2205   */\n      dup2\n        /* \"#utility.yul\":2182:2206   */\n      tag_127\n      jump\t// in\n    tag_126:\n        /* \"#utility.yul\":2177:2180   */\n      dup3\n        /* \"#utility.yul\":2170:2207   */\n      mstore\n        /* \"#utility.yul\":2105:2213   */\n      pop\n      pop\n      jump\t// out\n        /* \"#utility.yul\":2219:2337   */\n    tag_128:\n        /* \"#utility.yul\":2306:2330   */\n      tag_130\n        /* \"#utility.yul\":2324:2329   */\n      dup2\n        /* \"#utility.yul\":2306:2330   */\n      tag_127\n      jump\t// in\n    tag_130:\n        /* \"#utility.yul\":2301:2304   */\n      dup3\n        /* \"#utility.yul\":2294:2331   */\n      mstore\n        /* \"#utility.yul\":2219:2337   */\n      pop\n      pop\n      jump\t// out\n        /* \"#utility.yul\":2343:2687   */\n    tag_131:\n        /* \"#utility.yul\":2421:2424   */\n      0x00\n        /* \"#utility.yul\":2449:2488   */\n      tag_133\n        /* \"#utility.yul\":2482:2487   */\n      dup3\n        /* \"#utility.yul\":2449:2488   */\n      tag_134\n      jump\t// in\n    tag_133:\n        /* \"#utility.yul\":2504:2565   */\n      tag_135\n        /* \"#utility.yul\":2558:2564   */\n      dup2\n        /* \"#utility.yul\":2553:2556   */\n      dup6\n        /* \"#utility.yul\":2504:2565   */\n      tag_136\n      jump\t// in\n    tag_135:\n        /* \"#utility.yul\":2497:2565   */\n      swap4\n      pop\n        /* \"#utility.yul\":2574:2626   */\n      tag_137\n        /* \"#utility.yul\":2619:2625   */\n      dup2\n        /* \"#utility.yul\":2614:2617   */\n      dup6\n        /* \"#utility.yul\":2607:2611   */\n      0x20\n        /* \"#utility.yul\":2600:2605   */\n      dup7\n        /* \"#utility.yul\":2596:2612   */\n      add\n        /* \"#utility.yul\":2574:2626   */\n      tag_138\n      jump\t// in\n    tag_137:\n        /* \"#utility.yul\":2651:2680   */\n      tag_139\n        /* \"#utility.yul\":2673:2679   */\n      dup2\n        /* \"#utility.yul\":2651:2680   */\n      tag_140\n      jump\t// in\n    tag_139:\n        /* \"#utility.yul\":2646:2649   */\n      dup5\n        /* \"#utility.yul\":2642:2681   */\n      add\n        /* \"#utility.yul\":2635:2681   */\n      swap2\n      pop\n        /* \"#utility.yul\":2425:2687   */\n      pop\n        /* \"#utility.yul\":2343:2687   */\n      swap3\n      swap2\n      pop\n      pop\n      jump\t// out\n        /* \"#utility.yul\":2693:3057   */\n    tag_141:\n        /* \"#utility.yul\":2781:2784   */\n      0x00\n        /* \"#utility.yul\":2809:2848   */\n      tag_143\n        /* \"#utility.yul\":2842:2847   */\n      dup3\n        /* \"#utility.yul\":2809:2848   */\n      tag_134\n      jump\t// in\n    tag_143:\n        /* \"#utility.yul\":2864:2935   */\n      tag_144\n        /* \"#utility.yul\":2928:2934   */\n      dup2\n        /* \"#utility.yul\":2923:2926   */\n      dup6\n        /* \"#utility.yul\":2864:2935   */\n      tag_145\n      jump\t// in\n    tag_144:\n        /* \"#utility.yul\":2857:2935   */\n      swap4\n      pop\n        /* \"#utility.yul\":2944:2996   */\n      tag_146\n        /* \"#utility.yul\":2989:2995   */\n      dup2\n        /* \"#utility.yul\":2984:2987   */\n      dup6\n        /* \"#utility.yul\":2977:2981   */\n      0x20\n        /* \"#utility.yul\":2970:2975   */\n      dup7\n        /* \"#utility.yul\":2966:2982   */\n      add\n        /* \"#utility.yul\":2944:2996   */\n      tag_138\n      jump\t// in\n    tag_146:\n        /* \"#utility.yul\":3021:3050   */\n      tag_147\n        /* \"#utility.yul\":3043:3049   */\n      dup2\n        /* \"#utility.yul\":3021:3050   */\n      tag_140\n      jump\t// in\n    tag_147:\n        /* \"#utility.yul\":3016:3019   */\n      dup5\n        /* \"#utility.yul\":3012:3051   */\n      add\n        /* \"#utility.yul\":3005:3051   */\n      swap2\n      pop\n        /* \"#utility.yul\":2785:3057   */\n      pop\n        /* \"#utility.yul\":2693:3057   */\n      swap3\n      swap2\n      pop\n      pop\n      jump\t// out\n        /* \"#utility.yul\":3063:3440   */\n    tag_148:\n        /* \"#utility.yul\":3169:3172   */\n      0x00\n        /* \"#utility.yul\":3197:3236   */\n      tag_150\n        /* \"#utility.yul\":3230:3235   */\n      dup3\n        /* \"#utility.yul\":3197:3236   */\n      tag_134\n      jump\t// in\n    tag_150:\n        /* \"#utility.yul\":3252:3341   */\n      tag_151\n        /* \"#utility.yul\":3334:3340   */\n      dup2\n        /* \"#utility.yul\":3329:3332   */\n      dup6\n        /* \"#utility.yul\":3252:3341   */\n      tag_152\n      jump\t// in\n    tag_151:\n        /* \"#utility.yul\":3245:3341   */\n      swap4\n      pop\n        /* \"#utility.yul\":3350:3402   */\n      tag_153\n        /* \"#utility.yul\":3395:3401   */\n      dup2\n        /* \"#utility.yul\":3390:3393   */\n      dup6\n        /* \"#utility.yul\":3383:3387   */\n      0x20\n        /* \"#utility.yul\":3376:3381   */\n      dup7\n        /* \"#utility.yul\":3372:3388   */\n      add\n        /* \"#utility.yul\":3350:3402   */\n      tag_138\n      jump\t// in\n    tag_153:\n        /* \"#utility.yul\":3427:3433   */\n      dup1\n        /* \"#utility.yul\":3422:3425   */\n      dup5\n        /* \"#utility.yul\":3418:3434   */\n      add\n        /* \"#utility.yul\":3411:3434   */\n      swap2\n      pop\n        /* \"#utility.yul\":3173:3440   */\n      pop\n        /* \"#utility.yul\":3063:3440   */\n      swap3\n      swap2\n      pop\n      pop\n      jump\t// out\n        /* \"#utility.yul\":3490:4339   */\n    tag_154:\n        /* \"#utility.yul\":3599:3602   */\n      0x00\n        /* \"#utility.yul\":3635:3639   */\n      0x60\n        /* \"#utility.yul\":3630:3633   */\n      dup4\n        /* \"#utility.yul\":3626:3640   */\n      add\n        /* \"#utility.yul\":3723:3727   */\n      0x00\n        /* \"#utility.yul\":3716:3721   */\n      dup4\n        /* \"#utility.yul\":3712:3728   */\n      add\n        /* \"#utility.yul\":3706:3729   */\n      mload\n        /* \"#utility.yul\":3776:3779   */\n      dup5\n        /* \"#utility.yul\":3770:3774   */\n      dup3\n        /* \"#utility.yul\":3766:3780   */\n      sub\n        /* \"#utility.yul\":3759:3763   */\n      0x00\n        /* \"#utility.yul\":3754:3757   */\n      dup7\n        /* \"#utility.yul\":3750:3764   */\n      add\n        /* \"#utility.yul\":3743:3781   */\n      mstore\n        /* \"#utility.yul\":3802:3875   */\n      tag_156\n        /* \"#utility.yul\":3870:3874   */\n      dup3\n        /* \"#utility.yul\":3856:3868   */\n      dup3\n        /* \"#utility.yul\":3802:3875   */\n      tag_131\n      jump\t// in\n    tag_156:\n        /* \"#utility.yul\":3794:3875   */\n      swap2\n      pop\n        /* \"#utility.yul\":3650:3886   */\n      pop\n        /* \"#utility.yul\":3975:3979   */\n      0x20\n        /* \"#utility.yul\":3968:3973   */\n      dup4\n        /* \"#utility.yul\":3964:3980   */\n      add\n        /* \"#utility.yul\":3958:3981   */\n      mload\n        /* \"#utility.yul\":4028:4031   */\n      dup5\n        /* \"#utility.yul\":4022:4026   */\n      dup3\n        /* \"#utility.yul\":4018:4032   */\n      sub\n        /* \"#utility.yul\":4011:4015   */\n      0x20\n        /* \"#utility.yul\":4006:4009   */\n      dup7\n        /* \"#utility.yul\":4002:4016   */\n      add\n        /* \"#utility.yul\":3995:4033   */\n      mstore\n        /* \"#utility.yul\":4054:4127   */\n      tag_157\n        /* \"#utility.yul\":4122:4126   */\n      dup3\n        /* \"#utility.yul\":4108:4120   */\n      dup3\n        /* \"#utility.yul\":4054:4127   */\n      tag_131\n      jump\t// in\n    tag_157:\n        /* \"#utility.yul\":4046:4127   */\n      swap2\n      pop\n        /* \"#utility.yul\":3896:4138   */\n      pop\n        /* \"#utility.yul\":4220:4224   */\n      0x40\n        /* \"#utility.yul\":4213:4218   */\n      dup4\n        /* \"#utility.yul\":4209:4225   */\n      add\n        /* \"#utility.yul\":4203:4226   */\n      mload\n        /* \"#utility.yul\":4239:4302   */\n      tag_158\n        /* \"#utility.yul\":4296:4300   */\n      0x40\n        /* \"#utility.yul\":4291:4294   */\n      dup7\n        /* \"#utility.yul\":4287:4301   */\n      add\n        /* \"#utility.yul\":4273:4285   */\n      dup3\n        /* \"#utility.yul\":4239:4302   */\n      tag_124\n      jump\t// in\n    tag_158:\n        /* \"#utility.yul\":4148:4312   */\n      pop\n        /* \"#utility.yul\":4329:4333   */\n      dup1\n        /* \"#utility.yul\":4322:4333   */\n      swap2\n      pop\n        /* \"#utility.yul\":3604:4339   */\n      pop\n        /* \"#utility.yul\":3490:4339   */\n      swap3\n      swap2\n      pop\n      pop\n      jump\t// out\n        /* \"#utility.yul\":4345:4463   */\n    tag_159:\n        /* \"#utility.yul\":4432:4456   */\n      tag_161\n        /* \"#utility.yul\":4450:4455   */\n      dup2\n        /* \"#utility.yul\":4432:4456   */\n      tag_162\n      jump\t// in\n    tag_161:\n        /* \"#utility.yul\":4427:4430   */\n      dup3\n        /* \"#utility.yul\":4420:4457   */\n      mstore\n        /* \"#utility.yul\":4345:4463   */\n      pop\n      pop\n      jump\t// out\n        /* \"#utility.yul\":4469:4744   */\n    tag_43:\n        /* \"#utility.yul\":4601:4604   */\n      0x00\n        /* \"#utility.yul\":4623:4718   */\n      tag_164\n        /* \"#utility.yul\":4714:4717   */\n      dup3\n        /* \"#utility.yul\":4705:4711   */\n      dup5\n        /* \"#utility.yul\":4623:4718   */\n      tag_148\n      jump\t// in\n    tag_164:\n        /* \"#utility.yul\":4616:4718   */\n      swap2\n      pop\n        /* \"#utility.yul\":4735:4738   */\n      dup2\n        /* \"#utility.yul\":4728:4738   */\n      swap1\n      pop\n        /* \"#utility.yul\":4469:4744   */\n      swap3\n      swap2\n      pop\n      pop\n      jump\t// out\n        /* \"#utility.yul\":4750:4972   */\n    tag_14:\n        /* \"#utility.yul\":4843:4847   */\n      0x00\n        /* \"#utility.yul\":4881:4883   */\n      0x20\n        /* \"#utility.yul\":4870:4879   */\n      dup3\n        /* \"#utility.yul\":4866:4884   */\n      add\n        /* \"#utility.yul\":4858:4884   */\n      swap1\n      pop\n        /* \"#utility.yul\":4894:4965   */\n      tag_166\n        /* \"#utility.yul\":4962:4963   */\n      0x00\n        /* \"#utility.yul\":4951:4960   */\n      dup4\n        /* \"#utility.yul\":4947:4964   */\n      add\n        /* \"#utility.yul\":4938:4944   */\n      dup5\n        /* \"#utility.yul\":4894:4965   */\n      tag_128\n      jump\t// in\n    tag_166:\n        /* \"#utility.yul\":4750:4972   */\n      swap3\n      swap2\n      pop\n      pop\n      jump\t// out\n        /* \"#utility.yul\":4978:5291   */\n    tag_27:\n        /* \"#utility.yul\":5091:5095   */\n      0x00\n        /* \"#utility.yul\":5129:5131   */\n      0x20\n        /* \"#utility.yul\":5118:5127   */\n      dup3\n        /* \"#utility.yul\":5114:5132   */\n      add\n        /* \"#utility.yul\":5106:5132   */\n      swap1\n      pop\n        /* \"#utility.yul\":5178:5187   */\n      dup2\n        /* \"#utility.yul\":5172:5176   */\n      dup2\n        /* \"#utility.yul\":5168:5188   */\n      sub\n        /* \"#utility.yul\":5164:5165   */\n      0x00\n        /* \"#utility.yul\":5153:5162   */\n      dup4\n        /* \"#utility.yul\":5149:5166   */\n      add\n        /* \"#utility.yul\":5142:5189   */\n      mstore\n        /* \"#utility.yul\":5206:5284   */\n      tag_168\n        /* \"#utility.yul\":5279:5283   */\n      dup2\n        /* \"#utility.yul\":5270:5276   */\n      dup5\n        /* \"#utility.yul\":5206:5284   */\n      tag_141\n      jump\t// in\n    tag_168:\n        /* \"#utility.yul\":5198:5284   */\n      swap1\n      pop\n        /* \"#utility.yul\":4978:5291   */\n      swap3\n      swap2\n      pop\n      pop\n      jump\t// out\n        /* \"#utility.yul\":5297:5921   */\n    tag_37:\n        /* \"#utility.yul\":5486:5490   */\n      0x00\n        /* \"#utility.yul\":5524:5526   */\n      0x60\n        /* \"#utility.yul\":5513:5522   */\n      dup3\n        /* \"#utility.yul\":5509:5527   */\n      add\n        /* \"#utility.yul\":5501:5527   */\n      swap1\n      pop\n        /* \"#utility.yul\":5573:5582   */\n      dup2\n        /* \"#utility.yul\":5567:5571   */\n      dup2\n        /* \"#utility.yul\":5563:5583   */\n      sub\n        /* \"#utility.yul\":5559:5560   */\n      0x00\n        /* \"#utility.yul\":5548:5557   */\n      dup4\n        /* \"#utility.yul\":5544:5561   */\n      add\n        /* \"#utility.yul\":5537:5584   */\n      mstore\n        /* \"#utility.yul\":5601:5679   */\n      tag_170\n        /* \"#utility.yul\":5674:5678   */\n      dup2\n        /* \"#utility.yul\":5665:5671   */\n      dup7\n        /* \"#utility.yul\":5601:5679   */\n      tag_141\n      jump\t// in\n    tag_170:\n        /* \"#utility.yul\":5593:5679   */\n      swap1\n      pop\n        /* \"#utility.yul\":5726:5735   */\n      dup2\n        /* \"#utility.yul\":5720:5724   */\n      dup2\n        /* \"#utility.yul\":5716:5736   */\n      sub\n        /* \"#utility.yul\":5711:5713   */\n      0x20\n        /* \"#utility.yul\":5700:5709   */\n      dup4\n        /* \"#utility.yul\":5696:5714   */\n      add\n        /* \"#utility.yul\":5689:5737   */\n      mstore\n        /* \"#utility.yul\":5754:5832   */\n      tag_171\n        /* \"#utility.yul\":5827:5831   */\n      dup2\n        /* \"#utility.yul\":5818:5824   */\n      dup6\n        /* \"#utility.yul\":5754:5832   */\n      tag_141\n      jump\t// in\n    tag_171:\n        /* \"#utility.yul\":5746:5832   */\n      swap1\n      pop\n        /* \"#utility.yul\":5842:5914   */\n      tag_172\n        /* \"#utility.yul\":5910:5912   */\n      0x40\n        /* \"#utility.yul\":5899:5908   */\n      dup4\n        /* \"#utility.yul\":5895:5913   */\n      add\n        /* \"#utility.yul\":5886:5892   */\n      dup5\n        /* \"#utility.yul\":5842:5914   */\n      tag_128\n      jump\t// in\n    tag_172:\n        /* \"#utility.yul\":5297:5921   */\n      swap5\n      swap4\n      pop\n      pop\n      pop\n      pop\n      jump\t// out\n        /* \"#utility.yul\":5927:6280   */\n    tag_32:\n        /* \"#utility.yul\":6060:6064   */\n      0x00\n        /* \"#utility.yul\":6098:6100   */\n      0x20\n        /* \"#utility.yul\":6087:6096   */\n      dup3\n        /* \"#utility.yul\":6083:6101   */\n      add\n        /* \"#utility.yul\":6075:6101   */\n      swap1\n      pop\n        /* \"#utility.yul\":6147:6156   */\n      dup2\n        /* \"#utility.yul\":6141:6145   */\n      dup2\n        /* \"#utility.yul\":6137:6157   */\n      sub\n        /* \"#utility.yul\":6133:6134   */\n      0x00\n        /* \"#utility.yul\":6122:6131   */\n      dup4\n        /* \"#utility.yul\":6118:6135   */\n      add\n        /* \"#utility.yul\":6111:6158   */\n      mstore\n        /* \"#utility.yul\":6175:6273   */\n      tag_174\n        /* \"#utility.yul\":6268:6272   */\n      dup2\n        /* \"#utility.yul\":6259:6265   */\n      dup5\n        /* \"#utility.yul\":6175:6273   */\n      tag_154\n      jump\t// in\n    tag_174:\n        /* \"#utility.yul\":6167:6273   */\n      swap1\n      pop\n        /* \"#utility.yul\":5927:6280   */\n      swap3\n      swap2\n      pop\n      pop\n      jump\t// out\n        /* \"#utility.yul\":6286:6508   */\n    tag_22:\n        /* \"#utility.yul\":6379:6383   */\n      0x00\n        /* \"#utility.yul\":6417:6419   */\n      0x20\n        /* \"#utility.yul\":6406:6415   */\n      dup3\n        /* \"#utility.yul\":6402:6420   */\n      add\n        /* \"#utility.yul\":6394:6420   */\n      swap1\n      pop\n        /* \"#utility.yul\":6430:6501   */\n      tag_176\n        /* \"#utility.yul\":6498:6499   */\n      0x00\n        /* \"#utility.yul\":6487:6496   */\n      dup4\n        /* \"#utility.yul\":6483:6500   */\n      add\n        /* \"#utility.yul\":6474:6480   */\n      dup5\n        /* \"#utility.yul\":6430:6501   */\n      tag_159\n      jump\t// in\n    tag_176:\n        /* \"#utility.yul\":6286:6508   */\n      swap3\n      swap2\n      pop\n      pop\n      jump\t// out\n        /* \"#utility.yul\":6514:6643   */\n    tag_93:\n        /* \"#utility.yul\":6548:6554   */\n      0x00\n        /* \"#utility.yul\":6575:6595   */\n      tag_178\n      tag_179\n      jump\t// in\n    tag_178:\n        /* \"#utility.yul\":6565:6595   */\n      swap1\n      pop\n        /* \"#utility.yul\":6604:6637   */\n      tag_180\n        /* \"#utility.yul\":6632:6636   */\n      dup3\n        /* \"#utility.yul\":6624:6630   */\n      dup3\n        /* \"#utility.yul\":6604:6637   */\n      tag_181\n      jump\t// in\n    tag_180:\n        /* \"#utility.yul\":6514:6643   */\n      swap2\n      swap1\n      pop\n      jump\t// out\n        /* \"#utility.yul\":6649:6724   */\n    tag_179:\n        /* \"#utility.yul\":6682:6688   */\n      0x00\n        /* \"#utility.yul\":6715:6717   */\n      0x40\n        /* \"#utility.yul\":6709:6718   */\n      mload\n        /* \"#utility.yul\":6699:6718   */\n      swap1\n      pop\n        /* \"#utility.yul\":6649:6724   */\n      swap1\n      jump\t// out\n        /* \"#utility.yul\":6730:7038   */\n    tag_92:\n        /* \"#utility.yul\":6792:6796   */\n      0x00\n        /* \"#utility.yul\":6882:6900   */\n      0xffffffffffffffff\n        /* \"#utility.yul\":6874:6880   */\n      dup3\n        /* \"#utility.yul\":6871:6901   */\n      gt\n        /* \"#utility.yul\":6868:6924   */\n      iszero\n      tag_184\n      jumpi\n        /* \"#utility.yul\":6904:6922   */\n      tag_185\n      tag_186\n      jump\t// in\n    tag_185:\n        /* \"#utility.yul\":6868:6924   */\n    tag_184:\n        /* \"#utility.yul\":6942:6971   */\n      tag_187\n        /* \"#utility.yul\":6964:6970   */\n      dup3\n        /* \"#utility.yul\":6942:6971   */\n      tag_140\n      jump\t// in\n    tag_187:\n        /* \"#utility.yul\":6934:6971   */\n      swap1\n      pop\n        /* \"#utility.yul\":7026:7030   */\n      0x20\n        /* \"#utility.yul\":7020:7024   */\n      dup2\n        /* \"#utility.yul\":7016:7031   */\n      add\n        /* \"#utility.yul\":7008:7031   */\n      swap1\n      pop\n        /* \"#utility.yul\":6730:7038   */\n      swap2\n      swap1\n      pop\n      jump\t// out\n        /* \"#utility.yul\":7044:7143   */\n    tag_134:\n        /* \"#utility.yul\":7096:7102   */\n      0x00\n        /* \"#utility.yul\":7130:7135   */\n      dup2\n        /* \"#utility.yul\":7124:7136   */\n      mload\n        /* \"#utility.yul\":7114:7136   */\n      swap1\n      pop\n        /* \"#utility.yul\":7044:7143   */\n      swap2\n      swap1\n      pop\n      jump\t// out\n        /* \"#utility.yul\":7149:7308   */\n    tag_136:\n        /* \"#utility.yul\":7223:7234   */\n      0x00\n        /* \"#utility.yul\":7257:7263   */\n      dup3\n        /* \"#utility.yul\":7252:7255   */\n      dup3\n        /* \"#utility.yul\":7245:7264   */\n      mstore\n        /* \"#utility.yul\":7297:7301   */\n      0x20\n        /* \"#utility.yul\":7292:7295   */\n      dup3\n        /* \"#utility.yul\":7288:7302   */\n      add\n        /* \"#utility.yul\":7273:7302   */\n      swap1\n      pop\n        /* \"#utility.yul\":7149:7308   */\n      swap3\n      swap2\n      pop\n      pop\n      jump\t// out\n        /* \"#utility.yul\":7314:7483   */\n    tag_145:\n        /* \"#utility.yul\":7398:7409   */\n      0x00\n        /* \"#utility.yul\":7432:7438   */\n      dup3\n        /* \"#utility.yul\":7427:7430   */\n      dup3\n        /* \"#utility.yul\":7420:7439   */\n      mstore\n        /* \"#utility.yul\":7472:7476   */\n      0x20\n        /* \"#utility.yul\":7467:7470   */\n      dup3\n        /* \"#utility.yul\":7463:7477   */\n      add\n        /* \"#utility.yul\":7448:7477   */\n      swap1\n      pop\n        /* \"#utility.yul\":7314:7483   */\n      swap3\n      swap2\n      pop\n      pop\n      jump\t// out\n        /* \"#utility.yul\":7489:7637   */\n    tag_152:\n        /* \"#utility.yul\":7591:7602   */\n      0x00\n        /* \"#utility.yul\":7628:7631   */\n      dup2\n        /* \"#utility.yul\":7613:7631   */\n      swap1\n      pop\n        /* \"#utility.yul\":7489:7637   */\n      swap3\n      swap2\n      pop\n      pop\n      jump\t// out\n        /* \"#utility.yul\":7643:7739   */\n    tag_127:\n        /* \"#utility.yul\":7680:7687   */\n      0x00\n        /* \"#utility.yul\":7709:7733   */\n      tag_193\n        /* \"#utility.yul\":7727:7732   */\n      dup3\n        /* \"#utility.yul\":7709:7733   */\n      tag_194\n      jump\t// in\n    tag_193:\n        /* \"#utility.yul\":7698:7733   */\n      swap1\n      pop\n        /* \"#utility.yul\":7643:7739   */\n      swap2\n      swap1\n      pop\n      jump\t// out\n        /* \"#utility.yul\":7745:7871   */\n    tag_194:\n        /* \"#utility.yul\":7782:7789   */\n      0x00\n        /* \"#utility.yul\":7822:7864   */\n      0xffffffffffffffffffffffffffffffffffffffff\n        /* \"#utility.yul\":7815:7820   */\n      dup3\n        /* \"#utility.yul\":7811:7865   */\n      and\n        /* \"#utility.yul\":7800:7865   */\n      swap1\n      pop\n        /* \"#utility.yul\":7745:7871   */\n      swap2\n      swap1\n      pop\n      jump\t// out\n        /* \"#utility.yul\":7877:7954   */\n    tag_162:\n        /* \"#utility.yul\":7914:7921   */\n      0x00\n        /* \"#utility.yul\":7943:7948   */\n      dup2\n        /* \"#utility.yul\":7932:7948   */\n      swap1\n      pop\n        /* \"#utility.yul\":7877:7954   */\n      swap2\n      swap1\n      pop\n      jump\t// out\n        /* \"#utility.yul\":7960:8114   */\n    tag_98:\n        /* \"#utility.yul\":8044:8050   */\n      dup3\n        /* \"#utility.yul\":8039:8042   */\n      dup2\n        /* \"#utility.yul\":8034:8037   */\n      dup4\n        /* \"#utility.yul\":8021:8051   */\n      calldatacopy\n        /* \"#utility.yul\":8106:8107   */\n      0x00\n        /* \"#utility.yul\":8097:8103   */\n      dup4\n        /* \"#utility.yul\":8092:8095   */\n      dup4\n        /* \"#utility.yul\":8088:8104   */\n      add\n        /* \"#utility.yul\":8081:8108   */\n      mstore\n        /* \"#utility.yul\":7960:8114   */\n      pop\n      pop\n      pop\n      jump\t// out\n        /* \"#utility.yul\":8120:8427   */\n    tag_138:\n        /* \"#utility.yul\":8188:8189   */\n      0x00\n        /* \"#utility.yul\":8198:8311   */\n    tag_199:\n        /* \"#utility.yul\":8212:8218   */\n      dup4\n        /* \"#utility.yul\":8209:8210   */\n      dup2\n        /* \"#utility.yul\":8206:8219   */\n      lt\n        /* \"#utility.yul\":8198:8311   */\n      iszero\n      tag_201\n      jumpi\n        /* \"#utility.yul\":8297:8298   */\n      dup1\n        /* \"#utility.yul\":8292:8295   */\n      dup3\n        /* \"#utility.yul\":8288:8299   */\n      add\n        /* \"#utility.yul\":8282:8300   */\n      mload\n        /* \"#utility.yul\":8278:8279   */\n      dup2\n        /* \"#utility.yul\":8273:8276   */\n      dup5\n        /* \"#utility.yul\":8269:8280   */\n      add\n        /* \"#utility.yul\":8262:8301   */\n      mstore\n        /* \"#utility.yul\":8234:8236   */\n      0x20\n        /* \"#utility.yul\":8231:8232   */\n      dup2\n        /* \"#utility.yul\":8227:8237   */\n      add\n        /* \"#utility.yul\":8222:8237   */\n      swap1\n      pop\n        /* \"#utility.yul\":8198:8311   */\n      jump(tag_199)\n    tag_201:\n        /* \"#utility.yul\":8329:8335   */\n      dup4\n        /* \"#utility.yul\":8326:8327   */\n      dup2\n        /* \"#utility.yul\":8323:8336   */\n      gt\n        /* \"#utility.yul\":8320:8421   */\n      iszero\n      tag_202\n      jumpi\n        /* \"#utility.yul\":8409:8410   */\n      0x00\n        /* \"#utility.yul\":8400:8406   */\n      dup5\n        /* \"#utility.yul\":8395:8398   */\n      dup5\n        /* \"#utility.yul\":8391:8407   */\n      add\n        /* \"#utility.yul\":8384:8411   */\n      mstore\n        /* \"#utility.yul\":8320:8421   */\n    tag_202:\n        /* \"#utility.yul\":8169:8427   */\n      pop\n        /* \"#utility.yul\":8120:8427   */\n      pop\n      pop\n      pop\n      jump\t// out\n        /* \"#utility.yul\":8433:8753   */\n    tag_49:\n        /* \"#utility.yul\":8477:8483   */\n      0x00\n        /* \"#utility.yul\":8514:8515   */\n      0x02\n        /* \"#utility.yul\":8508:8512   */\n      dup3\n        /* \"#utility.yul\":8504:8516   */\n      div\n        /* \"#utility.yul\":8494:8516   */\n      swap1\n      pop\n        /* \"#utility.yul\":8561:8562   */\n      0x01\n        /* \"#utility.yul\":8555:8559   */\n      dup3\n        /* \"#utility.yul\":8551:8563   */\n      and\n        /* \"#utility.yul\":8582:8600   */\n      dup1\n        /* \"#utility.yul\":8572:8653   */\n      tag_204\n      jumpi\n        /* \"#utility.yul\":8638:8642   */\n      0x7f\n        /* \"#utility.yul\":8630:8636   */\n      dup3\n        /* \"#utility.yul\":8626:8643   */\n      and\n        /* \"#utility.yul\":8616:8643   */\n      swap2\n      pop\n        /* \"#utility.yul\":8572:8653   */\n    tag_204:\n        /* \"#utility.yul\":8700:8702   */\n      0x20\n        /* \"#utility.yul\":8692:8698   */\n      dup3\n        /* \"#utility.yul\":8689:8703   */\n      lt\n        /* \"#utility.yul\":8669:8687   */\n      dup2\n        /* \"#utility.yul\":8666:8704   */\n      eq\n        /* \"#utility.yul\":8663:8747   */\n      iszero\n      tag_205\n      jumpi\n        /* \"#utility.yul\":8719:8737   */\n      tag_206\n      tag_207\n      jump\t// in\n    tag_206:\n        /* \"#utility.yul\":8663:8747   */\n    tag_205:\n        /* \"#utility.yul\":8484:8753   */\n      pop\n        /* \"#utility.yul\":8433:8753   */\n      swap2\n      swap1\n      pop\n      jump\t// out\n        /* \"#utility.yul\":8759:9040   */\n    tag_181:\n        /* \"#utility.yul\":8842:8869   */\n      tag_209\n        /* \"#utility.yul\":8864:8868   */\n      dup3\n        /* \"#utility.yul\":8842:8869   */\n      tag_140\n      jump\t// in\n    tag_209:\n        /* \"#utility.yul\":8834:8840   */\n      dup2\n        /* \"#utility.yul\":8830:8870   */\n      add\n        /* \"#utility.yul\":8972:8978   */\n      dup2\n        /* \"#utility.yul\":8960:8970   */\n      dup2\n        /* \"#utility.yul\":8957:8979   */\n      lt\n        /* \"#utility.yul\":8936:8954   */\n      0xffffffffffffffff\n        /* \"#utility.yul\":8924:8934   */\n      dup3\n        /* \"#utility.yul\":8921:8955   */\n      gt\n        /* \"#utility.yul\":8918:8980   */\n      or\n        /* \"#utility.yul\":8915:9003   */\n      iszero\n      tag_210\n      jumpi\n        /* \"#utility.yul\":8983:9001   */\n      tag_211\n      tag_186\n      jump\t// in\n    tag_211:\n        /* \"#utility.yul\":8915:9003   */\n    tag_210:\n        /* \"#utility.yul\":9023:9033   */\n      dup1\n        /* \"#utility.yul\":9019:9021   */\n      0x40\n        /* \"#utility.yul\":9012:9034   */\n      mstore\n        /* \"#utility.yul\":8802:9040   */\n      pop\n        /* \"#utility.yul\":8759:9040   */\n      pop\n      pop\n      jump\t// out\n        /* \"#utility.yul\":9046:9279   */\n    tag_46:\n        /* \"#utility.yul\":9085:9088   */\n      0x00\n        /* \"#utility.yul\":9108:9132   */\n      tag_213\n        /* \"#utility.yul\":9126:9131   */\n      dup3\n        /* \"#utility.yul\":9108:9132   */\n      tag_162\n      jump\t// in\n    tag_213:\n        /* \"#utility.yul\":9099:9132   */\n      swap2\n      pop\n        /* \"#utility.yul\":9154:9220   */\n      0xffffffffffffffffffffffffffffffffffffffffffffffffffffffffffffffff\n        /* \"#utility.yul\":9147:9152   */\n      dup3\n        /* \"#utility.yul\":9144:9221   */\n      eq\n        /* \"#utility.yul\":9141:9244   */\n      iszero\n      tag_214\n      jumpi\n        /* \"#utility.yul\":9224:9242   */\n      tag_215\n      tag_216\n      jump\t// in\n    tag_215:\n        /* \"#utility.yul\":9141:9244   */\n    tag_214:\n        /* \"#utility.yul\":9271:9272   */\n      0x01\n        /* \"#utility.yul\":9264:9269   */\n      dup3\n        /* \"#utility.yul\":9260:9273   */\n      add\n        /* \"#utility.yul\":9253:9273   */\n      swap1\n      pop\n        /* \"#utility.yul\":9046:9279   */\n      swap2\n      swap1\n      pop\n      jump\t// out\n        /* \"#utility.yul\":9285:9465   */\n    tag_216:\n        /* \"#utility.yul\":9333:9410   */\n      0x4e487b7100000000000000000000000000000000000000000000000000000000\n        /* \"#utility.yul\":9330:9331   */\n      0x00\n        /* \"#utility.yul\":9323:9411   */\n      mstore\n        /* \"#utility.yul\":9430:9434   */\n      0x11\n        /* \"#utility.yul\":9427:9428   */\n      0x04\n        /* \"#utility.yul\":9420:9435   */\n      mstore\n        /* \"#utility.yul\":9454:9458   */\n      0x24\n        /* \"#utility.yul\":9451:9452   */\n      0x00\n        /* \"#utility.yul\":9444:9459   */\n      revert\n        /* \"#utility.yul\":9471:9651   */\n    tag_207:\n        /* \"#utility.yul\":9519:9596   */\n      0x4e487b7100000000000000000000000000000000000000000000000000000000\n        /* \"#utility.yul\":9516:9517   */\n      0x00\n        /* \"#utility.yul\":9509:9597   */\n      mstore\n        /* \"#utility.yul\":9616:9620   */\n      0x22\n        /* \"#utility.yul\":9613:9614   */\n      0x04\n        /* \"#utility.yul\":9606:9621   */\n      mstore\n        /* \"#utility.yul\":9640:9644   */\n      0x24\n        /* \"#utility.yul\":9637:9638   */\n      0x00\n        /* \"#utility.yul\":9630:9645   */\n      revert\n        /* \"#utility.yul\":9657:9837   */\n    tag_186:\n        /* \"#utility.yul\":9705:9782   */\n      0x4e487b7100000000000000000000000000000000000000000000000000000000\n        /* \"#utility.yul\":9702:9703   */\n      0x00\n        /* \"#utility.yul\":9695:9783   */\n      mstore\n        /* \"#utility.yul\":9802:9806   */\n      0x41\n        /* \"#utility.yul\":9799:9800   */\n      0x04\n        /* \"#utility.yul\":9792:9807   */\n      mstore\n        /* \"#utility.yul\":9826:9830   */\n      0x24\n        /* \"#utility.yul\":9823:9824   */\n      0x00\n        /* \"#utility.yul\":9816:9831   */\n      revert\n        /* \"#utility.yul\":9843:9960   */\n    tag_103:\n        /* \"#utility.yul\":9952:9953   */\n      0x00\n        /* \"#utility.yul\":9949:9950   */\n      dup1\n        /* \"#utility.yul\":9942:9954   */\n      revert\n        /* \"#utility.yul\":9966:10083   */\n    tag_96:\n        /* \"#utility.yul\":10075:10076   */\n      0x00\n        /* \"#utility.yul\":10072:10073   */\n      dup1\n        /* \"#utility.yul\":10065:10077   */\n      revert\n        /* \"#utility.yul\":10089:10206   */\n    tag_115:\n        /* \"#utility.yul\":10198:10199   */\n      0x00\n        /* \"#utility.yul\":10195:10196   */\n      dup1\n        /* \"#utility.yul\":10188:10200   */\n      revert\n        /* \"#utility.yul\":10212:10329   */\n    tag_112:\n        /* \"#utility.yul\":10321:10322   */\n      0x00\n        /* \"#utility.yul\":10318:10319   */\n      dup1\n        /* \"#utility.yul\":10311:10323   */\n      revert\n        /* \"#utility.yul\":10335:10437   */\n    tag_140:\n        /* \"#utility.yul\":10376:10382   */\n      0x00\n        /* \"#utility.yul\":10427:10429   */\n      0x1f\n        /* \"#utility.yul\":10423:10430   */\n      not\n        /* \"#utility.yul\":10418:10420   */\n      0x1f\n        /* \"#utility.yul\":10411:10416   */\n      dup4\n        /* \"#utility.yul\":10407:10421   */\n      add\n        /* \"#utility.yul\":10403:10431   */\n      and\n        /* \"#utility.yul\":10393:10431   */\n      swap1\n      pop\n        /* \"#utility.yul\":10335:10437   */\n      swap2\n      swap1\n      pop\n      jump\t// out\n        /* \"#utility.yul\":10443:10565   */\n    tag_108:\n        /* \"#utility.yul\":10516:10540   */\n      tag_226\n        /* \"#utility.yul\":10534:10539   */\n      dup2\n        /* \"#utility.yul\":10516:10540   */\n      tag_162\n      jump\t// in\n    tag_226:\n        /* \"#utility.yul\":10509:10514   */\n      dup2\n        /* \"#utility.yul\":10506:10541   */\n      eq\n        /* \"#utility.yul\":10496:10559   */\n      tag_227\n      jumpi\n        /* \"#utility.yul\":10555:10556   */\n      0x00\n        /* \"#utility.yul\":10552:10553   */\n      dup1\n        /* \"#utility.yul\":10545:10557   */\n      revert\n        /* \"#utility.yul\":10496:10559   */\n    tag_227:\n        /* \"#utility.yul\":10443:10565   */\n      pop\n      jump\t// out\n\n    auxdata: 0xa26469706673582212200ec89ca4dbd655283d1af23595c3b9cbef4eb5fdc5a14d137375f3c4c0f1fb0264736f6c63430008070033\n}\n",
				"bytecode": {
					"linkReferences": {},
					"object": "60806040526000805534801561001457600080fd5b50610d50806100246000396000f3fe608060405234801561001057600080fd5b50600436106100625760003560e01c80630b1e7f8314610067578063392338f51461009757806361bc221a146100b3578063863a20f2146100d1578063ca6f69f514610101578063fdd6ea7114610131575b600080fd5b610081600480360381019061007c919061086f565b610163565b60405161008e91906109da565b60405180910390f35b6100b160048036038101906100ac91906107f7565b610196565b005b6100bb6102e9565b6040516100c89190610a7e565b60405180910390f35b6100eb60048036038101906100e6919061086f565b6102ef565b6040516100f891906109f5565b60405180910390f35b61011b6004803603810190610116919061086f565b610397565b6040516101289190610a5c565b60405180910390f35b61014b6004803603810190610146919061086f565b61053e565b60405161015a93929190610a17565b60405180910390f35b60016020528060005260406000206000915054906101000a900473ffffffffffffffffffffffffffffffffffffffff1681565b60405180606001604052808381526020018281526020013373ffffffffffffffffffffffffffffffffffffffff16815250600260008054815260200190815260200160002060008201518160000190805190602001906101f7929190610698565b506020820151816001019080519060200190610214929190610698565b5060408201518160020160006101000a81548173ffffffffffffffffffffffffffffffffffffffff021916908373ffffffffffffffffffffffffffffffffffffffff1602179055509050508060405161026d91906109c3565b60405180910390208260405161028391906109c3565b60405180910390203373ffffffffffffffffffffffffffffffffffffffff167f4eacffc497062f11928adc3628e2047cd720623235f6f37529db1d95cc75ecbf60405160405180910390a46000808154809291906102e090610c08565b91905055505050565b60005481565b606060026000838152602001908152602001600020600001805461031290610ba5565b80601f016020809104026020016040519081016040528092919081815260200182805461033e90610ba5565b801561038b5780601f106103605761010080835404028352916020019161038b565b820191906000526020600020905b81548152906001019060200180831161036e57829003601f168201915b50505050509050919050565b61039f61071e565b600260008381526020019081526020016000206040518060600160405290816000820180546103cd90610ba5565b80601f01602080910402602001604051908101604052809291908181526020018280546103f990610ba5565b80156104465780601f1061041b57610100808354040283529160200191610446565b820191906000526020600020905b81548152906001019060200180831161042957829003601f168201915b5050505050815260200160018201805461045f90610ba5565b80601f016020809104026020016040519081016040528092919081815260200182805461048b90610ba5565b80156104d85780601f106104ad576101008083540402835291602001916104d8565b820191906000526020600020905b8154815290600101906020018083116104bb57829003601f168201915b505050505081526020016002820160009054906101000a900473ffffffffffffffffffffffffffffffffffffffff1673ffffffffffffffffffffffffffffffffffffffff1673ffffffffffffffffffffffffffffffffffffffff16815250509050919050565b600260205280600052604060002060009150905080600001805461056190610ba5565b80601f016020809104026020016040519081016040528092919081815260200182805461058d90610ba5565b80156105da5780601f106105af576101008083540402835291602001916105da565b820191906000526020600020905b8154815290600101906020018083116105bd57829003601f168201915b5050505050908060010180546105ef90610ba5565b80601f016020809104026020016040519081016040528092919081815260200182805461061b90610ba5565b80156106685780601f1061063d57610100808354040283529160200191610668565b820191906000526020600020905b81548152906001019060200180831161064b57829003601f168201915b5050505050908060020160009054906101000a900473ffffffffffffffffffffffffffffffffffffffff16905083565b8280546106a490610ba5565b90600052602060002090601f0160209004810192826106c6576000855561070d565b82601f106106df57805160ff191683800117855561070d565b8280016001018555821561070d579182015b8281111561070c5782518255916020019190600101906106f1565b5b50905061071a9190610755565b5090565b60405180606001604052806060815260200160608152602001600073ffffffffffffffffffffffffffffffffffffffff1681525090565b5b8082111561076e576000816000905550600101610756565b5090565b600061078561078084610abe565b610a99565b9050828152602081018484840111156107a1576107a0610ce3565b5b6107ac848285610b63565b509392505050565b600082601f8301126107c9576107c8610cde565b5b81356107d9848260208601610772565b91505092915050565b6000813590506107f181610d03565b92915050565b6000806040838503121561080e5761080d610ced565b5b600083013567ffffffffffffffff81111561082c5761082b610ce8565b5b610838858286016107b4565b925050602083013567ffffffffffffffff81111561085957610858610ce8565b5b610865858286016107b4565b9150509250929050565b60006020828403121561088557610884610ced565b5b6000610893848285016107e2565b91505092915050565b6108a581610b27565b82525050565b6108b481610b27565b82525050565b60006108c582610aef565b6108cf8185610afa565b93506108df818560208601610b72565b6108e881610cf2565b840191505092915050565b60006108fe82610aef565b6109088185610b0b565b9350610918818560208601610b72565b61092181610cf2565b840191505092915050565b600061093782610aef565b6109418185610b1c565b9350610951818560208601610b72565b80840191505092915050565b6000606083016000830151848203600086015261097a82826108ba565b9150506020830151848203602086015261099482826108ba565b91505060408301516109a9604086018261089c565b508091505092915050565b6109bd81610b59565b82525050565b60006109cf828461092c565b915081905092915050565b60006020820190506109ef60008301846108ab565b92915050565b60006020820190508181036000830152610a0f81846108f3565b905092915050565b60006060820190508181036000830152610a3181866108f3565b90508181036020830152610a4581856108f3565b9050610a5460408301846108ab565b949350505050565b60006020820190508181036000830152610a76818461095d565b905092915050565b6000602082019050610a9360008301846109b4565b92915050565b6000610aa3610ab4565b9050610aaf8282610bd7565b919050565b6000604051905090565b600067ffffffffffffffff821115610ad957610ad8610caf565b5b610ae282610cf2565b9050602081019050919050565b600081519050919050565b600082825260208201905092915050565b600082825260208201905092915050565b600081905092915050565b6000610b3282610b39565b9050919050565b600073ffffffffffffffffffffffffffffffffffffffff82169050919050565b6000819050919050565b82818337600083830152505050565b60005b83811015610b90578082015181840152602081019050610b75565b83811115610b9f576000848401525b50505050565b60006002820490506001821680610bbd57607f821691505b60208210811415610bd157610bd0610c80565b5b50919050565b610be082610cf2565b810181811067ffffffffffffffff82111715610bff57610bfe610caf565b5b80604052505050565b6000610c1382610b59565b91507fffffffffffffffffffffffffffffffffffffffffffffffffffffffffffffffff821415610c4657610c45610c51565b5b600182019050919050565b7f4e487b7100000000000000000000000000000000000000000000000000000000600052601160045260246000fd5b7f4e487b7100000000000000000000000000000000000000000000000000000000600052602260045260246000fd5b7f4e487b7100000000000000000000000000000000000000000000000000000000600052604160045260246000fd5b600080fd5b600080fd5b600080fd5b600080fd5b6000601f19601f8301169050919050565b610d0c81610b59565b8114610d1757600080fd5b5056fea26469706673582212200ec89ca4dbd655283d1af23595c3b9cbef4eb5fdc5a14d137375f3c4c0f1fb0264736f6c63430008070033",
					"opcodes": "PUSH1 0x80 PUSH1 0x40 MSTORE PUSH1 0x0 DUP1 SSTORE CALLVALUE DUP1 ISZERO PUSH2 0x14 JUMPI PUSH1 0x0 DUP1 REVERT JUMPDEST POP PUSH2 0xD50 DUP1 PUSH2 0x24 PUSH1 0x0 CODECOPY PUSH1 0x0 RETURN INVALID PUSH1 0x80 PUSH1 0x40 MSTORE CALLVALUE DUP1 ISZERO PUSH2 0x10 JUMPI PUSH1 0x0 DUP1 REVERT JUMPDEST POP PUSH1 0x4 CALLDATASIZE LT PUSH2 0x62 JUMPI PUSH1 0x0 CALLDATALOAD PUSH1 0xE0 SHR DUP1 PUSH4 0xB1E7F83 EQ PUSH2 0x67 JUMPI DUP1 PUSH4 0x392338F5 EQ PUSH2 0x97 JUMPI DUP1 PUSH4 0x61BC221A EQ PUSH2 0xB3 JUMPI DUP1 PUSH4 0x863A20F2 EQ PUSH2 0xD1 JUMPI DUP1 PUSH4 0xCA6F69F5 EQ PUSH2 0x101 JUMPI DUP1 PUSH4 0xFDD6EA71 EQ PUSH2 0x131 JUMPI JUMPDEST PUSH1 0x0 DUP1 REVERT JUMPDEST PUSH2 0x81 PUSH1 0x4 DUP1 CALLDATASIZE SUB DUP2 ADD SWAP1 PUSH2 0x7C SWAP2 SWAP1 PUSH2 0x86F JUMP JUMPDEST PUSH2 0x163 JUMP JUMPDEST PUSH1 0x40 MLOAD PUSH2 0x8E SWAP2 SWAP1 PUSH2 0x9DA JUMP JUMPDEST PUSH1 0x40 MLOAD DUP1 SWAP2 SUB SWAP1 RETURN JUMPDEST PUSH2 0xB1 PUSH1 0x4 DUP1 CALLDATASIZE SUB DUP2 ADD SWAP1 PUSH2 0xAC SWAP2 SWAP1 PUSH2 0x7F7 JUMP JUMPDEST PUSH2 0x196 JUMP JUMPDEST STOP JUMPDEST PUSH2 0xBB PUSH2 0x2E9 JUMP JUMPDEST PUSH1 0x40 MLOAD PUSH2 0xC8 SWAP2 SWAP1 PUSH2 0xA7E JUMP JUMPDEST PUSH1 0x40 MLOAD DUP1 SWAP2 SUB SWAP1 RETURN JUMPDEST PUSH2 0xEB PUSH1 0x4 DUP1 CALLDATASIZE SUB DUP2 ADD SWAP1 PUSH2 0xE6 SWAP2 SWAP1 PUSH2 0x86F JUMP JUMPDEST PUSH2 0x2EF JUMP JUMPDEST PUSH1 0x40 MLOAD PUSH2 0xF8 SWAP2 SWAP1 PUSH2 0x9F5 JUMP JUMPDEST PUSH1 0x40 MLOAD DUP1 SWAP2 SUB SWAP1 RETURN JUMPDEST PUSH2 0x11B PUSH1 0x4 DUP1 CALLDATASIZE SUB DUP2 ADD SWAP1 PUSH2 0x116 SWAP2 SWAP1 PUSH2 0x86F JUMP JUMPDEST PUSH2 0x397 JUMP JUMPDEST PUSH1 0x40 MLOAD PUSH2 0x128 SWAP2 SWAP1 PUSH2 0xA5C JUMP JUMPDEST PUSH1 0x40 MLOAD DUP1 SWAP2 SUB SWAP1 RETURN JUMPDEST PUSH2 0x14B PUSH1 0x4 DUP1 CALLDATASIZE SUB DUP2 ADD SWAP1 PUSH2 0x146 SWAP2 SWAP1 PUSH2 0x86F JUMP JUMPDEST PUSH2 0x53E JUMP JUMPDEST PUSH1 0x40 MLOAD PUSH2 0x15A SWAP4 SWAP3 SWAP2 SWAP1 PUSH2 0xA17 JUMP JUMPDEST PUSH1 0x40 MLOAD DUP1 SWAP2 SUB SWAP1 RETURN JUMPDEST PUSH1 0x1 PUSH1 0x20 MSTORE DUP1 PUSH1 0x0 MSTORE PUSH1 0x40 PUSH1 0x0 KECCAK256 PUSH1 0x0 SWAP2 POP SLOAD SWAP1 PUSH2 0x100 EXP SWAP1 DIV PUSH20 0xFFFFFFFFFFFFFFFFFFFFFFFFFFFFFFFFFFFFFFFF AND DUP2 JUMP JUMPDEST PUSH1 0x40 MLOAD DUP1 PUSH1 0x60 ADD PUSH1 0x40 MSTORE DUP1 DUP4 DUP2 MSTORE PUSH1 0x20 ADD DUP3 DUP2 MSTORE PUSH1 0x20 ADD CALLER PUSH20 0xFFFFFFFFFFFFFFFFFFFFFFFFFFFFFFFFFFFFFFFF AND DUP2 MSTORE POP PUSH1 0x2 PUSH1 0x0 DUP1 SLOAD DUP2 MSTORE PUSH1 0x20 ADD SWAP1 DUP2 MSTORE PUSH1 0x20 ADD PUSH1 0x0 KECCAK256 PUSH1 0x0 DUP3 ADD MLOAD DUP2 PUSH1 0x0 ADD SWAP1 DUP1 MLOAD SWAP1 PUSH1 0x20 ADD SWAP1 PUSH2 0x1F7 SWAP3 SWAP2 SWAP1 PUSH2 0x698 JUMP JUMPDEST POP PUSH1 0x20 DUP3 ADD MLOAD DUP2 PUSH1 0x1 ADD SWAP1 DUP1 MLOAD SWAP1 PUSH1 0x20 ADD SWAP1 PUSH2 0x214 SWAP3 SWAP2 SWAP1 PUSH2 0x698 JUMP JUMPDEST POP PUSH1 0x40 DUP3 ADD MLOAD DUP2 PUSH1 0x2 ADD PUSH1 0x0 PUSH2 0x100 EXP DUP2 SLOAD DUP2 PUSH20 0xFFFFFFFFFFFFFFFFFFFFFFFFFFFFFFFFFFFFFFFF MUL NOT AND SWAP1 DUP4 PUSH20 0xFFFFFFFFFFFFFFFFFFFFFFFFFFFFFFFFFFFFFFFF AND MUL OR SWAP1 SSTORE POP SWAP1 POP POP DUP1 PUSH1 0x40 MLOAD PUSH2 0x26D SWAP2 SWAP1 PUSH2 0x9C3 JUMP JUMPDEST PUSH1 0x40 MLOAD DUP1 SWAP2 SUB SWAP1 KECCAK256 DUP3 PUSH1 0x40 MLOAD PUSH2 0x283 SWAP2 SWAP1 PUSH2 0x9C3 JUMP JUMPDEST PUSH1 0x40 MLOAD DUP1 SWAP2 SUB SWAP1 KECCAK256 CALLER PUSH20 0xFFFFFFFFFFFFFFFFFFFFFFFFFFFFFFFFFFFFFFFF AND PUSH32 0x4EACFFC497062F11928ADC3628E2047CD720623235F6F37529DB1D95CC75ECBF PUSH1 0x40 MLOAD PUSH1 0x40 MLOAD DUP1 SWAP2 SUB SWAP1 LOG4 PUSH1 0x0 DUP1 DUP2 SLOAD DUP1 SWAP3 SWAP2 SWAP1 PUSH2 0x2E0 SWAP1 PUSH2 0xC08 JUMP JUMPDEST SWAP2 SWAP1 POP SSTORE POP POP POP JUMP JUMPDEST PUSH1 0x0 SLOAD DUP2 JUMP JUMPDEST PUSH1 0x60 PUSH1 0x2 PUSH1 0x0 DUP4 DUP2 MSTORE PUSH1 0x20 ADD SWAP1 DUP2 MSTORE PUSH1 0x20 ADD PUSH1 0x0 KECCAK256 PUSH1 0x0 ADD DUP1 SLOAD PUSH2 0x312 SWAP1 PUSH2 0xBA5 JUMP JUMPDEST DUP1 PUSH1 0x1F ADD PUSH1 0x20 DUP1 SWAP2 DIV MUL PUSH1 0x20 ADD PUSH1 0x40 MLOAD SWAP1 DUP2 ADD PUSH1 0x40 MSTORE DUP1 SWAP3 SWAP2 SWAP1 DUP2 DUP2 MSTORE PUSH1 0x20 ADD DUP3 DUP1 SLOAD PUSH2 0x33E SWAP1 PUSH2 0xBA5 JUMP JUMPDEST DUP1 ISZERO PUSH2 0x38B JUMPI DUP1 PUSH1 0x1F LT PUSH2 0x360 JUMPI PUSH2 0x100 DUP1 DUP4 SLOAD DIV MUL DUP4 MSTORE SWAP2 PUSH1 0x20 ADD SWAP2 PUSH2 0x38B JUMP JUMPDEST DUP3 ADD SWAP2 SWAP1 PUSH1 0x0 MSTORE PUSH1 0x20 PUSH1 0x0 KECCAK256 SWAP1 JUMPDEST DUP2 SLOAD DUP2 MSTORE SWAP1 PUSH1 0x1 ADD SWAP1 PUSH1 0x20 ADD DUP1 DUP4 GT PUSH2 0x36E JUMPI DUP3 SWAP1 SUB PUSH1 0x1F AND DUP3 ADD SWAP2 JUMPDEST POP POP POP POP POP SWAP1 POP SWAP2 SWAP1 POP JUMP JUMPDEST PUSH2 0x39F PUSH2 0x71E JUMP JUMPDEST PUSH1 0x2 PUSH1 0x0 DUP4 DUP2 MSTORE PUSH1 0x20 ADD SWAP1 DUP2 MSTORE PUSH1 0x20 ADD PUSH1 0x0 KECCAK256 PUSH1 0x40 MLOAD DUP1 PUSH1 0x60 ADD PUSH1 0x40 MSTORE SWAP1 DUP2 PUSH1 0x0 DUP3 ADD DUP1 SLOAD PUSH2 0x3CD SWAP1 PUSH2 0xBA5 JUMP JUMPDEST DUP1 PUSH1 0x1F ADD PUSH1 0x20 DUP1 SWAP2 DIV MUL PUSH1 0x20 ADD PUSH1 0x40 MLOAD SWAP1 DUP2 ADD PUSH1 0x40 MSTORE DUP1 SWAP3 SWAP2 SWAP1 DUP2 DUP2 MSTORE PUSH1 0x20 ADD DUP3 DUP1 SLOAD PUSH2 0x3F9 SWAP1 PUSH2 0xBA5 JUMP JUMPDEST DUP1 ISZERO PUSH2 0x446 JUMPI DUP1 PUSH1 0x1F LT PUSH2 0x41B JUMPI PUSH2 0x100 DUP1 DUP4 SLOAD DIV MUL DUP4 MSTORE SWAP2 PUSH1 0x20 ADD SWAP2 PUSH2 0x446 JUMP JUMPDEST DUP3 ADD SWAP2 SWAP1 PUSH1 0x0 MSTORE PUSH1 0x20 PUSH1 0x0 KECCAK256 SWAP1 JUMPDEST DUP2 SLOAD DUP2 MSTORE SWAP1 PUSH1 0x1 ADD SWAP1 PUSH1 0x20 ADD DUP1 DUP4 GT PUSH2 0x429 JUMPI DUP3 SWAP1 SUB PUSH1 0x1F AND DUP3 ADD SWAP2 JUMPDEST POP POP POP POP POP DUP2 MSTORE PUSH1 0x20 ADD PUSH1 0x1 DUP3 ADD DUP1 SLOAD PUSH2 0x45F SWAP1 PUSH2 0xBA5 JUMP JUMPDEST DUP1 PUSH1 0x1F ADD PUSH1 0x20 DUP1 SWAP2 DIV MUL PUSH1 0x20 ADD PUSH1 0x40 MLOAD SWAP1 DUP2 ADD PUSH1 0x40 MSTORE DUP1 SWAP3 SWAP2 SWAP1 DUP2 DUP2 MSTORE PUSH1 0x20 ADD DUP3 DUP1 SLOAD PUSH2 0x48B SWAP1 PUSH2 0xBA5 JUMP JUMPDEST DUP1 ISZERO PUSH2 0x4D8 JUMPI DUP1 PUSH1 0x1F LT PUSH2 0x4AD JUMPI PUSH2 0x100 DUP1 DUP4 SLOAD DIV MUL DUP4 MSTORE SWAP2 PUSH1 0x20 ADD SWAP2 PUSH2 0x4D8 JUMP JUMPDEST DUP3 ADD SWAP2 SWAP1 PUSH1 0x0 MSTORE PUSH1 0x20 PUSH1 0x0 KECCAK256 SWAP1 JUMPDEST DUP2 SLOAD DUP2 MSTORE SWAP1 PUSH1 0x1 ADD SWAP1 PUSH1 0x20 ADD DUP1 DUP4 GT PUSH2 0x4BB JUMPI DUP3 SWAP1 SUB PUSH1 0x1F AND DUP3 ADD SWAP2 JUMPDEST POP POP POP POP POP DUP2 MSTORE PUSH1 0x20 ADD PUSH1 0x2 DUP3 ADD PUSH1 0x0 SWAP1 SLOAD SWAP1 PUSH2 0x100 EXP SWAP1 DIV PUSH20 0xFFFFFFFFFFFFFFFFFFFFFFFFFFFFFFFFFFFFFFFF AND PUSH20 0xFFFFFFFFFFFFFFFFFFFFFFFFFFFFFFFFFFFFFFFF AND PUSH20 0xFFFFFFFFFFFFFFFFFFFFFFFFFFFFFFFFFFFFFFFF AND DUP2 MSTORE POP POP SWAP1 POP SWAP2 SWAP1 POP JUMP JUMPDEST PUSH1 0x2 PUSH1 0x20 MSTORE DUP1 PUSH1 0x0 MSTORE PUSH1 0x40 PUSH1 0x0 KECCAK256 PUSH1 0x0 SWAP2 POP SWAP1 POP DUP1 PUSH1 0x0 ADD DUP1 SLOAD PUSH2 0x561 SWAP1 PUSH2 0xBA5 JUMP JUMPDEST DUP1 PUSH1 0x1F ADD PUSH1 0x20 DUP1 SWAP2 DIV MUL PUSH1 0x20 ADD PUSH1 0x40 MLOAD SWAP1 DUP2 ADD PUSH1 0x40 MSTORE DUP1 SWAP3 SWAP2 SWAP1 DUP2 DUP2 MSTORE PUSH1 0x20 ADD DUP3 DUP1 SLOAD PUSH2 0x58D SWAP1 PUSH2 0xBA5 JUMP JUMPDEST DUP1 ISZERO PUSH2 0x5DA JUMPI DUP1 PUSH1 0x1F LT PUSH2 0x5AF JUMPI PUSH2 0x100 DUP1 DUP4 SLOAD DIV MUL DUP4 MSTORE SWAP2 PUSH1 0x20 ADD SWAP2 PUSH2 0x5DA JUMP JUMPDEST DUP3 ADD SWAP2 SWAP1 PUSH1 0x0 MSTORE PUSH1 0x20 PUSH1 0x0 KECCAK256 SWAP1 JUMPDEST DUP2 SLOAD DUP2 MSTORE SWAP1 PUSH1 0x1 ADD SWAP1 PUSH1 0x20 ADD DUP1 DUP4 GT PUSH2 0x5BD JUMPI DUP3 SWAP1 SUB PUSH1 0x1F AND DUP3 ADD SWAP2 JUMPDEST POP POP POP POP POP SWAP1 DUP1 PUSH1 0x1 ADD DUP1 SLOAD PUSH2 0x5EF SWAP1 PUSH2 0xBA5 JUMP JUMPDEST DUP1 PUSH1 0x1F ADD PUSH1 0x20 DUP1 SWAP2 DIV MUL PUSH1 0x20 ADD PUSH1 0x40 MLOAD SWAP1 DUP2 ADD PUSH1 0x40 MSTORE DUP1 SWAP3 SWAP2 SWAP1 DUP2 DUP2 MSTORE PUSH1 0x20 ADD DUP3 DUP1 SLOAD PUSH2 0x61B SWAP1 PUSH2 0xBA5 JUMP JUMPDEST DUP1 ISZERO PUSH2 0x668 JUMPI DUP1 PUSH1 0x1F LT PUSH2 0x63D JUMPI PUSH2 0x100 DUP1 DUP4 SLOAD DIV MUL DUP4 MSTORE SWAP2 PUSH1 0x20 ADD SWAP2 PUSH2 0x668 JUMP JUMPDEST DUP3 ADD SWAP2 SWAP1 PUSH1 0x0 MSTORE PUSH1 0x20 PUSH1 0x0 KECCAK256 SWAP1 JUMPDEST DUP2 SLOAD DUP2 MSTORE SWAP1 PUSH1 0x1 ADD SWAP1 PUSH1 0x20 ADD DUP1 DUP4 GT PUSH2 0x64B JUMPI DUP3 SWAP1 SUB PUSH1 0x1F AND DUP3 ADD SWAP2 JUMPDEST POP POP POP POP POP SWAP1 DUP1 PUSH1 0x2 ADD PUSH1 0x0 SWAP1 SLOAD SWAP1 PUSH2 0x100 EXP SWAP1 DIV PUSH20 0xFFFFFFFFFFFFFFFFFFFFFFFFFFFFFFFFFFFFFFFF AND SWAP1 POP DUP4 JUMP JUMPDEST DUP3 DUP1 SLOAD PUSH2 0x6A4 SWAP1 PUSH2 0xBA5 JUMP JUMPDEST SWAP1 PUSH1 0x0 MSTORE PUSH1 0x20 PUSH1 0x0 KECCAK256 SWAP1 PUSH1 0x1F ADD PUSH1 0x20 SWAP1 DIV DUP2 ADD SWAP3 DUP3 PUSH2 0x6C6 JUMPI PUSH1 0x0 DUP6 SSTORE PUSH2 0x70D JUMP JUMPDEST DUP3 PUSH1 0x1F LT PUSH2 0x6DF JUMPI DUP1 MLOAD PUSH1 0xFF NOT AND DUP4 DUP1 ADD OR DUP6 SSTORE PUSH2 0x70D JUMP JUMPDEST DUP3 DUP1 ADD PUSH1 0x1 ADD DUP6 SSTORE DUP3 ISZERO PUSH2 0x70D JUMPI SWAP2 DUP3 ADD JUMPDEST DUP3 DUP2 GT ISZERO PUSH2 0x70C JUMPI DUP3 MLOAD DUP3 SSTORE SWAP2 PUSH1 0x20 ADD SWAP2 SWAP1 PUSH1 0x1 ADD SWAP1 PUSH2 0x6F1 JUMP JUMPDEST JUMPDEST POP SWAP1 POP PUSH2 0x71A SWAP2 SWAP1 PUSH2 0x755 JUMP JUMPDEST POP SWAP1 JUMP JUMPDEST PUSH1 0x40 MLOAD DUP1 PUSH1 0x60 ADD PUSH1 0x40 MSTORE DUP1 PUSH1 0x60 DUP2 MSTORE PUSH1 0x20 ADD PUSH1 0x60 DUP2 MSTORE PUSH1 0x20 ADD PUSH1 0x0 PUSH20 0xFFFFFFFFFFFFFFFFFFFFFFFFFFFFFFFFFFFFFFFF AND DUP2 MSTORE POP SWAP1 JUMP JUMPDEST JUMPDEST DUP1 DUP3 GT ISZERO PUSH2 0x76E JUMPI PUSH1 0x0 DUP2 PUSH1 0x0 SWAP1 SSTORE POP PUSH1 0x1 ADD PUSH2 0x756 JUMP JUMPDEST POP SWAP1 JUMP JUMPDEST PUSH1 0x0 PUSH2 0x785 PUSH2 0x780 DUP5 PUSH2 0xABE JUMP JUMPDEST PUSH2 0xA99 JUMP JUMPDEST SWAP1 POP DUP3 DUP2 MSTORE PUSH1 0x20 DUP2 ADD DUP5 DUP5 DUP5 ADD GT ISZERO PUSH2 0x7A1 JUMPI PUSH2 0x7A0 PUSH2 0xCE3 JUMP JUMPDEST JUMPDEST PUSH2 0x7AC DUP5 DUP3 DUP6 PUSH2 0xB63 JUMP JUMPDEST POP SWAP4 SWAP3 POP POP POP JUMP JUMPDEST PUSH1 0x0 DUP3 PUSH1 0x1F DUP4 ADD SLT PUSH2 0x7C9 JUMPI PUSH2 0x7C8 PUSH2 0xCDE JUMP JUMPDEST JUMPDEST DUP2 CALLDATALOAD PUSH2 0x7D9 DUP5 DUP3 PUSH1 0x20 DUP7 ADD PUSH2 0x772 JUMP JUMPDEST SWAP2 POP POP SWAP3 SWAP2 POP POP JUMP JUMPDEST PUSH1 0x0 DUP2 CALLDATALOAD SWAP1 POP PUSH2 0x7F1 DUP2 PUSH2 0xD03 JUMP JUMPDEST SWAP3 SWAP2 POP POP JUMP JUMPDEST PUSH1 0x0 DUP1 PUSH1 0x40 DUP4 DUP6 SUB SLT ISZERO PUSH2 0x80E JUMPI PUSH2 0x80D PUSH2 0xCED JUMP JUMPDEST JUMPDEST PUSH1 0x0 DUP4 ADD CALLDATALOAD PUSH8 0xFFFFFFFFFFFFFFFF DUP2 GT ISZERO PUSH2 0x82C JUMPI PUSH2 0x82B PUSH2 0xCE8 JUMP JUMPDEST JUMPDEST PUSH2 0x838 DUP6 DUP3 DUP7 ADD PUSH2 0x7B4 JUMP JUMPDEST SWAP3 POP POP PUSH1 0x20 DUP4 ADD CALLDATALOAD PUSH8 0xFFFFFFFFFFFFFFFF DUP2 GT ISZERO PUSH2 0x859 JUMPI PUSH2 0x858 PUSH2 0xCE8 JUMP JUMPDEST JUMPDEST PUSH2 0x865 DUP6 DUP3 DUP7 ADD PUSH2 0x7B4 JUMP JUMPDEST SWAP2 POP POP SWAP3 POP SWAP3 SWAP1 POP JUMP JUMPDEST PUSH1 0x0 PUSH1 0x20 DUP3 DUP5 SUB SLT ISZERO PUSH2 0x885 JUMPI PUSH2 0x884 PUSH2 0xCED JUMP JUMPDEST JUMPDEST PUSH1 0x0 PUSH2 0x893 DUP5 DUP3 DUP6 ADD PUSH2 0x7E2 JUMP JUMPDEST SWAP2 POP POP SWAP3 SWAP2 POP POP JUMP JUMPDEST PUSH2 0x8A5 DUP2 PUSH2 0xB27 JUMP JUMPDEST DUP3 MSTORE POP POP JUMP JUMPDEST PUSH2 0x8B4 DUP2 PUSH2 0xB27 JUMP JUMPDEST DUP3 MSTORE POP POP JUMP JUMPDEST PUSH1 0x0 PUSH2 0x8C5 DUP3 PUSH2 0xAEF JUMP JUMPDEST PUSH2 0x8CF DUP2 DUP6 PUSH2 0xAFA JUMP JUMPDEST SWAP4 POP PUSH2 0x8DF DUP2 DUP6 PUSH1 0x20 DUP7 ADD PUSH2 0xB72 JUMP JUMPDEST PUSH2 0x8E8 DUP2 PUSH2 0xCF2 JUMP JUMPDEST DUP5 ADD SWAP2 POP POP SWAP3 SWAP2 POP POP JUMP JUMPDEST PUSH1 0x0 PUSH2 0x8FE DUP3 PUSH2 0xAEF JUMP JUMPDEST PUSH2 0x908 DUP2 DUP6 PUSH2 0xB0B JUMP JUMPDEST SWAP4 POP PUSH2 0x918 DUP2 DUP6 PUSH1 0x20 DUP7 ADD PUSH2 0xB72 JUMP JUMPDEST PUSH2 0x921 DUP2 PUSH2 0xCF2 JUMP JUMPDEST DUP5 ADD SWAP2 POP POP SWAP3 SWAP2 POP POP JUMP JUMPDEST PUSH1 0x0 PUSH2 0x937 DUP3 PUSH2 0xAEF JUMP JUMPDEST PUSH2 0x941 DUP2 DUP6 PUSH2 0xB1C JUMP JUMPDEST SWAP4 POP PUSH2 0x951 DUP2 DUP6 PUSH1 0x20 DUP7 ADD PUSH2 0xB72 JUMP JUMPDEST DUP1 DUP5 ADD SWAP2 POP POP SWAP3 SWAP2 POP POP JUMP JUMPDEST PUSH1 0x0 PUSH1 0x60 DUP4 ADD PUSH1 0x0 DUP4 ADD MLOAD DUP5 DUP3 SUB PUSH1 0x0 DUP7 ADD MSTORE PUSH2 0x97A DUP3 DUP3 PUSH2 0x8BA JUMP JUMPDEST SWAP2 POP POP PUSH1 0x20 DUP4 ADD MLOAD DUP5 DUP3 SUB PUSH1 0x20 DUP7 ADD MSTORE PUSH2 0x994 DUP3 DUP3 PUSH2 0x8BA JUMP JUMPDEST SWAP2 POP POP PUSH1 0x40 DUP4 ADD MLOAD PUSH2 0x9A9 PUSH1 0x40 DUP7 ADD DUP3 PUSH2 0x89C JUMP JUMPDEST POP DUP1 SWAP2 POP POP SWAP3 SWAP2 POP POP JUMP JUMPDEST PUSH2 0x9BD DUP2 PUSH2 0xB59 JUMP JUMPDEST DUP3 MSTORE POP POP JUMP JUMPDEST PUSH1 0x0 PUSH2 0x9CF DUP3 DUP5 PUSH2 0x92C JUMP JUMPDEST SWAP2 POP DUP2 SWAP1 POP SWAP3 SWAP2 POP POP JUMP JUMPDEST PUSH1 0x0 PUSH1 0x20 DUP3 ADD SWAP1 POP PUSH2 0x9EF PUSH1 0x0 DUP4 ADD DUP5 PUSH2 0x8AB JUMP JUMPDEST SWAP3 SWAP2 POP POP JUMP JUMPDEST PUSH1 0x0 PUSH1 0x20 DUP3 ADD SWAP1 POP DUP2 DUP2 SUB PUSH1 0x0 DUP4 ADD MSTORE PUSH2 0xA0F DUP2 DUP5 PUSH2 0x8F3 JUMP JUMPDEST SWAP1 POP SWAP3 SWAP2 POP POP JUMP JUMPDEST PUSH1 0x0 PUSH1 0x60 DUP3 ADD SWAP1 POP DUP2 DUP2 SUB PUSH1 0x0 DUP4 ADD MSTORE PUSH2 0xA31 DUP2 DUP7 PUSH2 0x8F3 JUMP JUMPDEST SWAP1 POP DUP2 DUP2 SUB PUSH1 0x20 DUP4 ADD MSTORE PUSH2 0xA45 DUP2 DUP6 PUSH2 0x8F3 JUMP JUMPDEST SWAP1 POP PUSH2 0xA54 PUSH1 0x40 DUP4 ADD DUP5 PUSH2 0x8AB JUMP JUMPDEST SWAP5 SWAP4 POP POP POP POP JUMP JUMPDEST PUSH1 0x0 PUSH1 0x20 DUP3 ADD SWAP1 POP DUP2 DUP2 SUB PUSH1 0x0 DUP4 ADD MSTORE PUSH2 0xA76 DUP2 DUP5 PUSH2 0x95D JUMP JUMPDEST SWAP1 POP SWAP3 SWAP2 POP POP JUMP JUMPDEST PUSH1 0x0 PUSH1 0x20 DUP3 ADD SWAP1 POP PUSH2 0xA93 PUSH1 0x0 DUP4 ADD DUP5 PUSH2 0x9B4 JUMP JUMPDEST SWAP3 SWAP2 POP POP JUMP JUMPDEST PUSH1 0x0 PUSH2 0xAA3 PUSH2 0xAB4 JUMP JUMPDEST SWAP1 POP PUSH2 0xAAF DUP3 DUP3 PUSH2 0xBD7 JUMP JUMPDEST SWAP2 SWAP1 POP JUMP JUMPDEST PUSH1 0x0 PUSH1 0x40 MLOAD SWAP1 POP SWAP1 JUMP JUMPDEST PUSH1 0x0 PUSH8 0xFFFFFFFFFFFFFFFF DUP3 GT ISZERO PUSH2 0xAD9 JUMPI PUSH2 0xAD8 PUSH2 0xCAF JUMP JUMPDEST JUMPDEST PUSH2 0xAE2 DUP3 PUSH2 0xCF2 JUMP JUMPDEST SWAP1 POP PUSH1 0x20 DUP2 ADD SWAP1 POP SWAP2 SWAP1 POP JUMP JUMPDEST PUSH1 0x0 DUP2 MLOAD SWAP1 POP SWAP2 SWAP1 POP JUMP JUMPDEST PUSH1 0x0 DUP3 DUP3 MSTORE PUSH1 0x20 DUP3 ADD SWAP1 POP SWAP3 SWAP2 POP POP JUMP JUMPDEST PUSH1 0x0 DUP3 DUP3 MSTORE PUSH1 0x20 DUP3 ADD SWAP1 POP SWAP3 SWAP2 POP POP JUMP JUMPDEST PUSH1 0x0 DUP2 SWAP1 POP SWAP3 SWAP2 POP POP JUMP JUMPDEST PUSH1 0x0 PUSH2 0xB32 DUP3 PUSH2 0xB39 JUMP JUMPDEST SWAP1 POP SWAP2 SWAP1 POP JUMP JUMPDEST PUSH1 0x0 PUSH20 0xFFFFFFFFFFFFFFFFFFFFFFFFFFFFFFFFFFFFFFFF DUP3 AND SWAP1 POP SWAP2 SWAP1 POP JUMP JUMPDEST PUSH1 0x0 DUP2 SWAP1 POP SWAP2 SWAP1 POP JUMP JUMPDEST DUP3 DUP2 DUP4 CALLDATACOPY PUSH1 0x0 DUP4 DUP4 ADD MSTORE POP POP POP JUMP JUMPDEST PUSH1 0x0 JUMPDEST DUP4 DUP2 LT ISZERO PUSH2 0xB90 JUMPI DUP1 DUP3 ADD MLOAD DUP2 DUP5 ADD MSTORE PUSH1 0x20 DUP2 ADD SWAP1 POP PUSH2 0xB75 JUMP JUMPDEST DUP4 DUP2 GT ISZERO PUSH2 0xB9F JUMPI PUSH1 0x0 DUP5 DUP5 ADD MSTORE JUMPDEST POP POP POP POP JUMP JUMPDEST PUSH1 0x0 PUSH1 0x2 DUP3 DIV SWAP1 POP PUSH1 0x1 DUP3 AND DUP1 PUSH2 0xBBD JUMPI PUSH1 0x7F DUP3 AND SWAP2 POP JUMPDEST PUSH1 0x20 DUP3 LT DUP2 EQ ISZERO PUSH2 0xBD1 JUMPI PUSH2 0xBD0 PUSH2 0xC80 JUMP JUMPDEST JUMPDEST POP SWAP2 SWAP1 POP JUMP JUMPDEST PUSH2 0xBE0 DUP3 PUSH2 0xCF2 JUMP JUMPDEST DUP2 ADD DUP2 DUP2 LT PUSH8 0xFFFFFFFFFFFFFFFF DUP3 GT OR ISZERO PUSH2 0xBFF JUMPI PUSH2 0xBFE PUSH2 0xCAF JUMP JUMPDEST JUMPDEST DUP1 PUSH1 0x40 MSTORE POP POP POP JUMP JUMPDEST PUSH1 0x0 PUSH2 0xC13 DUP3 PUSH2 0xB59 JUMP JUMPDEST SWAP2 POP PUSH32 0xFFFFFFFFFFFFFFFFFFFFFFFFFFFFFFFFFFFFFFFFFFFFFFFFFFFFFFFFFFFFFFFF DUP3 EQ ISZERO PUSH2 0xC46 JUMPI PUSH2 0xC45 PUSH2 0xC51 JUMP JUMPDEST JUMPDEST PUSH1 0x1 DUP3 ADD SWAP1 POP SWAP2 SWAP1 POP JUMP JUMPDEST PUSH32 0x4E487B7100000000000000000000000000000000000000000000000000000000 PUSH1 0x0 MSTORE PUSH1 0x11 PUSH1 0x4 MSTORE PUSH1 0x24 PUSH1 0x0 REVERT JUMPDEST PUSH32 0x4E487B7100000000000000000000000000000000000000000000000000000000 PUSH1 0x0 MSTORE PUSH1 0x22 PUSH1 0x4 MSTORE PUSH1 0x24 PUSH1 0x0 REVERT JUMPDEST PUSH32 0x4E487B7100000000000000000000000000000000000000000000000000000000 PUSH1 0x0 MSTORE PUSH1 0x41 PUSH1 0x4 MSTORE PUSH1 0x24 PUSH1 0x0 REVERT JUMPDEST PUSH1 0x0 DUP1 REVERT JUMPDEST PUSH1 0x0 DUP1 REVERT JUMPDEST PUSH1 0x0 DUP1 REVERT JUMPDEST PUSH1 0x0 DUP1 REVERT JUMPDEST PUSH1 0x0 PUSH1 0x1F NOT PUSH1 0x1F DUP4 ADD AND SWAP1 POP SWAP2 SWAP1 POP JUMP JUMPDEST PUSH2 0xD0C DUP2 PUSH2 0xB59 JUMP JUMPDEST DUP2 EQ PUSH2 0xD17 JUMPI PUSH1 0x0 DUP1 REVERT JUMPDEST POP JUMP INVALID LOG2 PUSH5 0x6970667358 0x22 SLT KECCAK256 0xE 0xC8 SWAP13 LOG4 0xDB 0xD6 SSTORE 0x28 RETURNDATASIZE BYTE CALLCODE CALLDATALOAD SWAP6 0xC3 0xB9 0xCB 0xEF 0x4E 0xB5 REVERT 0xC5 LOG1 0x4D SGT PUSH20 0x75F3C4C0F1FB0264736F6C634300080700330000 "
				},
				"gasEstimates": {
					"creation": {
						"codeDepositCost": "681600",
						"executionCost": "5721",
						"totalCost": "687321"
					},
					"external": {
						"counter()": "2451",
						"createPost(string,string)": "infinite",
						"posts(uint256)": "2817",
						"readPost(uint256)": "infinite",
						"readPostTitle(uint256)": "infinite",
						"userPosts(uint256)": "infinite"
					}
				},
				"methodIdentifiers": {
					"counter()": "61bc221a",
					"createPost(string,string)": "392338f5",
					"posts(uint256)": "0b1e7f83",
					"readPost(uint256)": "ca6f69f5",
					"readPostTitle(uint256)": "863a20f2",
					"userPosts(uint256)": "fdd6ea71"
				}
			},
			"storageLayout": {
				"storage": [
					{
						"astId": 4,
						"contract": "contracts/blog.sol:blog",
						"label": "counter",
						"offset": 0,
						"slot": "0",
						"type": "t_uint256"
					},
					{
						"astId": 21,
						"contract": "contracts/blog.sol:blog",
						"label": "posts",
						"offset": 0,
						"slot": "1",
						"type": "t_mapping(t_uint256,t_address)"
					},
					{
						"astId": 26,
						"contract": "contracts/blog.sol:blog",
						"label": "userPosts",
						"offset": 0,
						"slot": "2",
						"type": "t_mapping(t_uint256,t_struct(Post)17_storage)"
					}
				],
				"types": {
					"t_address": {
						"encoding": "inplace",
						"label": "address",
						"numberOfBytes": "20"
					},
					"t_mapping(t_uint256,t_address)": {
						"encoding": "mapping",
						"key": "t_uint256",
						"label": "mapping(uint256 => address)",
						"numberOfBytes": "32",
						"value": "t_address"
					},
					"t_mapping(t_uint256,t_struct(Post)17_storage)": {
						"encoding": "mapping",
						"key": "t_uint256",
						"label": "mapping(uint256 => struct blog.Post)",
						"numberOfBytes": "32",
						"value": "t_struct(Post)17_storage"
					},
					"t_string_storage": {
						"encoding": "bytes",
						"label": "string",
						"numberOfBytes": "32"
					},
					"t_struct(Post)17_storage": {
						"encoding": "inplace",
						"label": "struct blog.Post",
						"members": [
							{
								"astId": 12,
								"contract": "contracts/blog.sol:blog",
								"label": "title",
								"offset": 0,
								"slot": "0",
								"type": "t_string_storage"
							},
							{
								"astId": 14,
								"contract": "contracts/blog.sol:blog",
								"label": "description",
								"offset": 0,
								"slot": "1",
								"type": "t_string_storage"
							},
							{
								"astId": 16,
								"contract": "contracts/blog.sol:blog",
								"label": "user",
								"offset": 0,
								"slot": "2",
								"type": "t_address"
							}
						],
						"numberOfBytes": "96"
					},
					"t_uint256": {
						"encoding": "inplace",
						"label": "uint256",
						"numberOfBytes": "32"
					}
				}
			},
			"userdoc": {
				"kind": "user",
				"methods": {},
				"version": 1
			}
		}
	}
}