{
	"contracts/1_Storage.sol": {
		"FootballTeam": {
			"abi": [
				{
					"inputs": [
						{
							"internalType": "string",
							"name": "_name",
							"type": "string"
						}
					],
					"stateMutability": "nonpayable",
					"type": "constructor"
				},
				{
					"inputs": [
						{
							"internalType": "string",
							"name": "_name",
							"type": "string"
						},
						{
							"internalType": "uint256",
							"name": "_height",
							"type": "uint256"
						},
						{
							"internalType": "uint256",
							"name": "_age",
							"type": "uint256"
						}
					],
					"name": "addPlayer",
					"outputs": [],
					"stateMutability": "nonpayable",
					"type": "function"
				},
				{
					"inputs": [],
					"name": "counter",
					"outputs": [
						{
							"internalType": "uint256",
							"name": "",
							"type": "uint256"
						}
					],
					"stateMutability": "view",
					"type": "function"
				},
				{
					"inputs": [],
					"name": "name",
					"outputs": [
						{
							"internalType": "string",
							"name": "",
							"type": "string"
						}
					],
					"stateMutability": "view",
					"type": "function"
				},
				{
					"inputs": [
						{
							"internalType": "uint256",
							"name": "",
							"type": "uint256"
						}
					],
					"name": "team",
					"outputs": [
						{
							"internalType": "string",
							"name": "name",
							"type": "string"
						},
						{
							"internalType": "uint256",
							"name": "height",
							"type": "uint256"
						},
						{
							"internalType": "uint256",
							"name": "age",
							"type": "uint256"
						},
						{
							"internalType": "enum FootballTeam.PlayerPosition",
							"name": "position",
							"type": "uint8"
						}
					],
					"stateMutability": "view",
					"type": "function"
				}
			],
			"devdoc": {
				"kind": "dev",
				"methods": {},
				"version": 1
			},
			"evm": {
				"assembly": "    /* \"contracts/1_Storage.sol\":61:757  contract FootballTeam {... */\n  mstore(0x40, 0x80)\n    /* \"contracts/1_Storage.sol\":140:141  0 */\n  0x00\n    /* \"contracts/1_Storage.sol\":118:141  uint public counter = 0 */\n  0x01\n  sstore\n    /* \"contracts/1_Storage.sol\":391:453  constructor(string memory _name) {... */\n  callvalue\n  dup1\n  iszero\n  tag_1\n  jumpi\n  0x00\n  dup1\n  revert\ntag_1:\n  pop\n  mload(0x40)\n  sub(codesize, bytecodeSize)\n  dup1\n  bytecodeSize\n  dup4\n  codecopy\n  dup2\n  dup2\n  add\n  0x40\n  mstore\n  dup2\n  add\n  swap1\n  tag_2\n  swap2\n  swap1\n  tag_3\n  jump\t// in\ntag_2:\n    /* \"contracts/1_Storage.sol\":441:446  _name */\n  dup1\n    /* \"contracts/1_Storage.sol\":434:438  name */\n  0x00\n    /* \"contracts/1_Storage.sol\":434:446  name = _name */\n  swap1\n  dup1\n  mload\n  swap1\n  0x20\n  add\n  swap1\n  tag_6\n  swap3\n  swap2\n  swap1\n  tag_7\n  jump\t// in\ntag_6:\n  pop\n    /* \"contracts/1_Storage.sol\":391:453  constructor(string memory _name) {... */\n  pop\n    /* \"contracts/1_Storage.sol\":61:757  contract FootballTeam {... */\n  jump(tag_8)\ntag_7:\n  dup3\n  dup1\n  sload\n  tag_9\n  swap1\n  tag_10\n  jump\t// in\ntag_9:\n  swap1\n  0x00\n  mstore\n  keccak256(0x00, 0x20)\n  swap1\n  0x1f\n  add\n  0x20\n  swap1\n  div\n  dup2\n  add\n  swap3\n  dup3\n  tag_12\n  jumpi\n  0x00\n  dup6\n  sstore\n  jump(tag_11)\ntag_12:\n  dup3\n  0x1f\n  lt\n  tag_13\n  jumpi\n  dup1\n  mload\n  not(0xff)\n  and\n  dup4\n  dup1\n  add\n  or\n  dup6\n  sstore\n  jump(tag_11)\ntag_13:\n  dup3\n  dup1\n  add\n  0x01\n  add\n  dup6\n  sstore\n  dup3\n  iszero\n  tag_11\n  jumpi\n  swap2\n  dup3\n  add\ntag_14:\n  dup3\n  dup2\n  gt\n  iszero\n  tag_15\n  jumpi\n  dup3\n  mload\n  dup3\n  sstore\n  swap2\n  0x20\n  add\n  swap2\n  swap1\n  0x01\n  add\n  swap1\n  jump(tag_14)\ntag_15:\ntag_11:\n  pop\n  swap1\n  pop\n  tag_16\n  swap2\n  swap1\n  tag_17\n  jump\t// in\ntag_16:\n  pop\n  swap1\n  jump\t// out\ntag_17:\ntag_18:\n  dup1\n  dup3\n  gt\n  iszero\n  tag_19\n  jumpi\n  0x00\n  dup2\n  0x00\n  swap1\n  sstore\n  pop\n  0x01\n  add\n  jump(tag_18)\ntag_19:\n  pop\n  swap1\n  jump\t// out\n    /* \"#utility.yul\":7:428   */\ntag_21:\n    /* \"#utility.yul\":96:101   */\n  0x00\n    /* \"#utility.yul\":121:187   */\n  tag_23\n    /* \"#utility.yul\":137:186   */\n  tag_24\n    /* \"#utility.yul\":179:185   */\n  dup5\n    /* \"#utility.yul\":137:186   */\n  tag_25\n  jump\t// in\ntag_24:\n    /* \"#utility.yul\":121:187   */\n  tag_26\n  jump\t// in\ntag_23:\n    /* \"#utility.yul\":112:187   */\n  swap1\n  pop\n    /* \"#utility.yul\":210:216   */\n  dup3\n    /* \"#utility.yul\":203:208   */\n  dup2\n    /* \"#utility.yul\":196:217   */\n  mstore\n    /* \"#utility.yul\":248:252   */\n  0x20\n    /* \"#utility.yul\":241:246   */\n  dup2\n    /* \"#utility.yul\":237:253   */\n  add\n    /* \"#utility.yul\":286:289   */\n  dup5\n    /* \"#utility.yul\":277:283   */\n  dup5\n    /* \"#utility.yul\":272:275   */\n  dup5\n    /* \"#utility.yul\":268:284   */\n  add\n    /* \"#utility.yul\":265:290   */\n  gt\n    /* \"#utility.yul\":262:374   */\n  iszero\n  tag_27\n  jumpi\n    /* \"#utility.yul\":293:372   */\n  tag_28\n  tag_29\n  jump\t// in\ntag_28:\n    /* \"#utility.yul\":262:374   */\ntag_27:\n    /* \"#utility.yul\":383:422   */\n  tag_30\n    /* \"#utility.yul\":415:421   */\n  dup5\n    /* \"#utility.yul\":410:413   */\n  dup3\n    /* \"#utility.yul\":405:408   */\n  dup6\n    /* \"#utility.yul\":383:422   */\n  tag_31\n  jump\t// in\ntag_30:\n    /* \"#utility.yul\":102:428   */\n  pop\n    /* \"#utility.yul\":7:428   */\n  swap4\n  swap3\n  pop\n  pop\n  pop\n  jump\t// out\n    /* \"#utility.yul\":448:803   */\ntag_32:\n    /* \"#utility.yul\":515:520   */\n  0x00\n    /* \"#utility.yul\":564:567   */\n  dup3\n    /* \"#utility.yul\":557:561   */\n  0x1f\n    /* \"#utility.yul\":549:555   */\n  dup4\n    /* \"#utility.yul\":545:562   */\n  add\n    /* \"#utility.yul\":541:568   */\n  slt\n    /* \"#utility.yul\":531:653   */\n  tag_34\n  jumpi\n    /* \"#utility.yul\":572:651   */\n  tag_35\n  tag_36\n  jump\t// in\ntag_35:\n    /* \"#utility.yul\":531:653   */\ntag_34:\n    /* \"#utility.yul\":682:688   */\n  dup2\n    /* \"#utility.yul\":676:689   */\n  mload\n    /* \"#utility.yul\":707:797   */\n  tag_37\n    /* \"#utility.yul\":793:796   */\n  dup5\n    /* \"#utility.yul\":785:791   */\n  dup3\n    /* \"#utility.yul\":778:782   */\n  0x20\n    /* \"#utility.yul\":770:776   */\n  dup7\n    /* \"#utility.yul\":766:783   */\n  add\n    /* \"#utility.yul\":707:797   */\n  tag_21\n  jump\t// in\ntag_37:\n    /* \"#utility.yul\":698:797   */\n  swap2\n  pop\n    /* \"#utility.yul\":521:803   */\n  pop\n    /* \"#utility.yul\":448:803   */\n  swap3\n  swap2\n  pop\n  pop\n  jump\t// out\n    /* \"#utility.yul\":809:1333   */\ntag_3:\n    /* \"#utility.yul\":889:895   */\n  0x00\n    /* \"#utility.yul\":938:940   */\n  0x20\n    /* \"#utility.yul\":926:935   */\n  dup3\n    /* \"#utility.yul\":917:924   */\n  dup5\n    /* \"#utility.yul\":913:936   */\n  sub\n    /* \"#utility.yul\":909:941   */\n  slt\n    /* \"#utility.yul\":906:1025   */\n  iszero\n  tag_39\n  jumpi\n    /* \"#utility.yul\":944:1023   */\n  tag_40\n  tag_41\n  jump\t// in\ntag_40:\n    /* \"#utility.yul\":906:1025   */\ntag_39:\n    /* \"#utility.yul\":1085:1086   */\n  0x00\n    /* \"#utility.yul\":1074:1083   */\n  dup3\n    /* \"#utility.yul\":1070:1087   */\n  add\n    /* \"#utility.yul\":1064:1088   */\n  mload\n    /* \"#utility.yul\":1115:1133   */\n  0xffffffffffffffff\n    /* \"#utility.yul\":1107:1113   */\n  dup2\n    /* \"#utility.yul\":1104:1134   */\n  gt\n    /* \"#utility.yul\":1101:1218   */\n  iszero\n  tag_42\n  jumpi\n    /* \"#utility.yul\":1137:1216   */\n  tag_43\n  tag_44\n  jump\t// in\ntag_43:\n    /* \"#utility.yul\":1101:1218   */\ntag_42:\n    /* \"#utility.yul\":1242:1316   */\n  tag_45\n    /* \"#utility.yul\":1308:1315   */\n  dup5\n    /* \"#utility.yul\":1299:1305   */\n  dup3\n    /* \"#utility.yul\":1288:1297   */\n  dup6\n    /* \"#utility.yul\":1284:1306   */\n  add\n    /* \"#utility.yul\":1242:1316   */\n  tag_32\n  jump\t// in\ntag_45:\n    /* \"#utility.yul\":1232:1316   */\n  swap2\n  pop\n    /* \"#utility.yul\":1035:1326   */\n  pop\n    /* \"#utility.yul\":809:1333   */\n  swap3\n  swap2\n  pop\n  pop\n  jump\t// out\n    /* \"#utility.yul\":1339:1468   */\ntag_26:\n    /* \"#utility.yul\":1373:1379   */\n  0x00\n    /* \"#utility.yul\":1400:1420   */\n  tag_47\n  tag_48\n  jump\t// in\ntag_47:\n    /* \"#utility.yul\":1390:1420   */\n  swap1\n  pop\n    /* \"#utility.yul\":1429:1462   */\n  tag_49\n    /* \"#utility.yul\":1457:1461   */\n  dup3\n    /* \"#utility.yul\":1449:1455   */\n  dup3\n    /* \"#utility.yul\":1429:1462   */\n  tag_50\n  jump\t// in\ntag_49:\n    /* \"#utility.yul\":1339:1468   */\n  swap2\n  swap1\n  pop\n  jump\t// out\n    /* \"#utility.yul\":1474:1549   */\ntag_48:\n    /* \"#utility.yul\":1507:1513   */\n  0x00\n    /* \"#utility.yul\":1540:1542   */\n  0x40\n    /* \"#utility.yul\":1534:1543   */\n  mload\n    /* \"#utility.yul\":1524:1543   */\n  swap1\n  pop\n    /* \"#utility.yul\":1474:1549   */\n  swap1\n  jump\t// out\n    /* \"#utility.yul\":1555:1863   */\ntag_25:\n    /* \"#utility.yul\":1617:1621   */\n  0x00\n    /* \"#utility.yul\":1707:1725   */\n  0xffffffffffffffff\n    /* \"#utility.yul\":1699:1705   */\n  dup3\n    /* \"#utility.yul\":1696:1726   */\n  gt\n    /* \"#utility.yul\":1693:1749   */\n  iszero\n  tag_53\n  jumpi\n    /* \"#utility.yul\":1729:1747   */\n  tag_54\n  tag_55\n  jump\t// in\ntag_54:\n    /* \"#utility.yul\":1693:1749   */\ntag_53:\n    /* \"#utility.yul\":1767:1796   */\n  tag_56\n    /* \"#utility.yul\":1789:1795   */\n  dup3\n    /* \"#utility.yul\":1767:1796   */\n  tag_57\n  jump\t// in\ntag_56:\n    /* \"#utility.yul\":1759:1796   */\n  swap1\n  pop\n    /* \"#utility.yul\":1851:1855   */\n  0x20\n    /* \"#utility.yul\":1845:1849   */\n  dup2\n    /* \"#utility.yul\":1841:1856   */\n  add\n    /* \"#utility.yul\":1833:1856   */\n  swap1\n  pop\n    /* \"#utility.yul\":1555:1863   */\n  swap2\n  swap1\n  pop\n  jump\t// out\n    /* \"#utility.yul\":1869:2176   */\ntag_31:\n    /* \"#utility.yul\":1937:1938   */\n  0x00\n    /* \"#utility.yul\":1947:2060   */\ntag_59:\n    /* \"#utility.yul\":1961:1967   */\n  dup4\n    /* \"#utility.yul\":1958:1959   */\n  dup2\n    /* \"#utility.yul\":1955:1968   */\n  lt\n    /* \"#utility.yul\":1947:2060   */\n  iszero\n  tag_61\n  jumpi\n    /* \"#utility.yul\":2046:2047   */\n  dup1\n    /* \"#utility.yul\":2041:2044   */\n  dup3\n    /* \"#utility.yul\":2037:2048   */\n  add\n    /* \"#utility.yul\":2031:2049   */\n  mload\n    /* \"#utility.yul\":2027:2028   */\n  dup2\n    /* \"#utility.yul\":2022:2025   */\n  dup5\n    /* \"#utility.yul\":2018:2029   */\n  add\n    /* \"#utility.yul\":2011:2050   */\n  mstore\n    /* \"#utility.yul\":1983:1985   */\n  0x20\n    /* \"#utility.yul\":1980:1981   */\n  dup2\n    /* \"#utility.yul\":1976:1986   */\n  add\n    /* \"#utility.yul\":1971:1986   */\n  swap1\n  pop\n    /* \"#utility.yul\":1947:2060   */\n  jump(tag_59)\ntag_61:\n    /* \"#utility.yul\":2078:2084   */\n  dup4\n    /* \"#utility.yul\":2075:2076   */\n  dup2\n    /* \"#utility.yul\":2072:2085   */\n  gt\n    /* \"#utility.yul\":2069:2170   */\n  iszero\n  tag_62\n  jumpi\n    /* \"#utility.yul\":2158:2159   */\n  0x00\n    /* \"#utility.yul\":2149:2155   */\n  dup5\n    /* \"#utility.yul\":2144:2147   */\n  dup5\n    /* \"#utility.yul\":2140:2156   */\n  add\n    /* \"#utility.yul\":2133:2160   */\n  mstore\n    /* \"#utility.yul\":2069:2170   */\ntag_62:\n    /* \"#utility.yul\":1918:2176   */\n  pop\n    /* \"#utility.yul\":1869:2176   */\n  pop\n  pop\n  pop\n  jump\t// out\n    /* \"#utility.yul\":2182:2502   */\ntag_10:\n    /* \"#utility.yul\":2226:2232   */\n  0x00\n    /* \"#utility.yul\":2263:2264   */\n  0x02\n    /* \"#utility.yul\":2257:2261   */\n  dup3\n    /* \"#utility.yul\":2253:2265   */\n  div\n    /* \"#utility.yul\":2243:2265   */\n  swap1\n  pop\n    /* \"#utility.yul\":2310:2311   */\n  0x01\n    /* \"#utility.yul\":2304:2308   */\n  dup3\n    /* \"#utility.yul\":2300:2312   */\n  and\n    /* \"#utility.yul\":2331:2349   */\n  dup1\n    /* \"#utility.yul\":2321:2402   */\n  tag_64\n  jumpi\n    /* \"#utility.yul\":2387:2391   */\n  0x7f\n    /* \"#utility.yul\":2379:2385   */\n  dup3\n    /* \"#utility.yul\":2375:2392   */\n  and\n    /* \"#utility.yul\":2365:2392   */\n  swap2\n  pop\n    /* \"#utility.yul\":2321:2402   */\ntag_64:\n    /* \"#utility.yul\":2449:2451   */\n  0x20\n    /* \"#utility.yul\":2441:2447   */\n  dup3\n    /* \"#utility.yul\":2438:2452   */\n  lt\n    /* \"#utility.yul\":2418:2436   */\n  dup2\n    /* \"#utility.yul\":2415:2453   */\n  eq\n    /* \"#utility.yul\":2412:2496   */\n  iszero\n  tag_65\n  jumpi\n    /* \"#utility.yul\":2468:2486   */\n  tag_66\n  tag_67\n  jump\t// in\ntag_66:\n    /* \"#utility.yul\":2412:2496   */\ntag_65:\n    /* \"#utility.yul\":2233:2502   */\n  pop\n    /* \"#utility.yul\":2182:2502   */\n  swap2\n  swap1\n  pop\n  jump\t// out\n    /* \"#utility.yul\":2508:2789   */\ntag_50:\n    /* \"#utility.yul\":2591:2618   */\n  tag_69\n    /* \"#utility.yul\":2613:2617   */\n  dup3\n    /* \"#utility.yul\":2591:2618   */\n  tag_57\n  jump\t// in\ntag_69:\n    /* \"#utility.yul\":2583:2589   */\n  dup2\n    /* \"#utility.yul\":2579:2619   */\n  add\n    /* \"#utility.yul\":2721:2727   */\n  dup2\n    /* \"#utility.yul\":2709:2719   */\n  dup2\n    /* \"#utility.yul\":2706:2728   */\n  lt\n    /* \"#utility.yul\":2685:2703   */\n  0xffffffffffffffff\n    /* \"#utility.yul\":2673:2683   */\n  dup3\n    /* \"#utility.yul\":2670:2704   */\n  gt\n    /* \"#utility.yul\":2667:2729   */\n  or\n    /* \"#utility.yul\":2664:2752   */\n  iszero\n  tag_70\n  jumpi\n    /* \"#utility.yul\":2732:2750   */\n  tag_71\n  tag_55\n  jump\t// in\ntag_71:\n    /* \"#utility.yul\":2664:2752   */\ntag_70:\n    /* \"#utility.yul\":2772:2782   */\n  dup1\n    /* \"#utility.yul\":2768:2770   */\n  0x40\n    /* \"#utility.yul\":2761:2783   */\n  mstore\n    /* \"#utility.yul\":2551:2789   */\n  pop\n    /* \"#utility.yul\":2508:2789   */\n  pop\n  pop\n  jump\t// out\n    /* \"#utility.yul\":2795:2975   */\ntag_67:\n    /* \"#utility.yul\":2843:2920   */\n  0x4e487b7100000000000000000000000000000000000000000000000000000000\n    /* \"#utility.yul\":2840:2841   */\n  0x00\n    /* \"#utility.yul\":2833:2921   */\n  mstore\n    /* \"#utility.yul\":2940:2944   */\n  0x22\n    /* \"#utility.yul\":2937:2938   */\n  0x04\n    /* \"#utility.yul\":2930:2945   */\n  mstore\n    /* \"#utility.yul\":2964:2968   */\n  0x24\n    /* \"#utility.yul\":2961:2962   */\n  0x00\n    /* \"#utility.yul\":2954:2969   */\n  revert\n    /* \"#utility.yul\":2981:3161   */\ntag_55:\n    /* \"#utility.yul\":3029:3106   */\n  0x4e487b7100000000000000000000000000000000000000000000000000000000\n    /* \"#utility.yul\":3026:3027   */\n  0x00\n    /* \"#utility.yul\":3019:3107   */\n  mstore\n    /* \"#utility.yul\":3126:3130   */\n  0x41\n    /* \"#utility.yul\":3123:3124   */\n  0x04\n    /* \"#utility.yul\":3116:3131   */\n  mstore\n    /* \"#utility.yul\":3150:3154   */\n  0x24\n    /* \"#utility.yul\":3147:3148   */\n  0x00\n    /* \"#utility.yul\":3140:3155   */\n  revert\n    /* \"#utility.yul\":3167:3284   */\ntag_36:\n    /* \"#utility.yul\":3276:3277   */\n  0x00\n    /* \"#utility.yul\":3273:3274   */\n  dup1\n    /* \"#utility.yul\":3266:3278   */\n  revert\n    /* \"#utility.yul\":3290:3407   */\ntag_29:\n    /* \"#utility.yul\":3399:3400   */\n  0x00\n    /* \"#utility.yul\":3396:3397   */\n  dup1\n    /* \"#utility.yul\":3389:3401   */\n  revert\n    /* \"#utility.yul\":3413:3530   */\ntag_44:\n    /* \"#utility.yul\":3522:3523   */\n  0x00\n    /* \"#utility.yul\":3519:3520   */\n  dup1\n    /* \"#utility.yul\":3512:3524   */\n  revert\n    /* \"#utility.yul\":3536:3653   */\ntag_41:\n    /* \"#utility.yul\":3645:3646   */\n  0x00\n    /* \"#utility.yul\":3642:3643   */\n  dup1\n    /* \"#utility.yul\":3635:3647   */\n  revert\n    /* \"#utility.yul\":3659:3761   */\ntag_57:\n    /* \"#utility.yul\":3700:3706   */\n  0x00\n    /* \"#utility.yul\":3751:3753   */\n  0x1f\n    /* \"#utility.yul\":3747:3754   */\n  not\n    /* \"#utility.yul\":3742:3744   */\n  0x1f\n    /* \"#utility.yul\":3735:3740   */\n  dup4\n    /* \"#utility.yul\":3731:3745   */\n  add\n    /* \"#utility.yul\":3727:3755   */\n  and\n    /* \"#utility.yul\":3717:3755   */\n  swap1\n  pop\n    /* \"#utility.yul\":3659:3761   */\n  swap2\n  swap1\n  pop\n  jump\t// out\n    /* \"contracts/1_Storage.sol\":61:757  contract FootballTeam {... */\ntag_8:\n  dataSize(sub_0)\n  dup1\n  dataOffset(sub_0)\n  0x00\n  codecopy\n  0x00\n  return\nstop\n\nsub_0: assembly {\n        /* \"contracts/1_Storage.sol\":61:757  contract FootballTeam {... */\n      mstore(0x40, 0x80)\n      callvalue\n      dup1\n      iszero\n      tag_1\n      jumpi\n      0x00\n      dup1\n      revert\n    tag_1:\n      pop\n      jumpi(tag_2, lt(calldatasize, 0x04))\n      shr(0xe0, calldataload(0x00))\n      dup1\n      0x06fdde03\n      eq\n      tag_3\n      jumpi\n      dup1\n      0x197ebd53\n      eq\n      tag_4\n      jumpi\n      dup1\n      0x61bc221a\n      eq\n      tag_5\n      jumpi\n      dup1\n      0xc312f9d5\n      eq\n      tag_6\n      jumpi\n    tag_2:\n      0x00\n      dup1\n      revert\n        /* \"contracts/1_Storage.sol\":94:112  string public name */\n    tag_3:\n      tag_7\n      tag_8\n      jump\t// in\n    tag_7:\n      mload(0x40)\n      tag_9\n      swap2\n      swap1\n      tag_10\n      jump\t// in\n    tag_9:\n      mload(0x40)\n      dup1\n      swap2\n      sub\n      swap1\n      return\n        /* \"contracts/1_Storage.sol\":354:384  FootballPlayer[11] public team */\n    tag_4:\n      tag_11\n      0x04\n      dup1\n      calldatasize\n      sub\n      dup2\n      add\n      swap1\n      tag_12\n      swap2\n      swap1\n      tag_13\n      jump\t// in\n    tag_12:\n      tag_14\n      jump\t// in\n    tag_11:\n      mload(0x40)\n      tag_15\n      swap5\n      swap4\n      swap3\n      swap2\n      swap1\n      tag_16\n      jump\t// in\n    tag_15:\n      mload(0x40)\n      dup1\n      swap2\n      sub\n      swap1\n      return\n        /* \"contracts/1_Storage.sol\":118:141  uint public counter = 0 */\n    tag_5:\n      tag_17\n      tag_18\n      jump\t// in\n    tag_17:\n      mload(0x40)\n      tag_19\n      swap2\n      swap1\n      tag_20\n      jump\t// in\n    tag_19:\n      mload(0x40)\n      dup1\n      swap2\n      sub\n      swap1\n      return\n        /* \"contracts/1_Storage.sol\":459:646  function addPlayer(string memory _name, uint _height, uint _age)   ... */\n    tag_6:\n      tag_21\n      0x04\n      dup1\n      calldatasize\n      sub\n      dup2\n      add\n      swap1\n      tag_22\n      swap2\n      swap1\n      tag_23\n      jump\t// in\n    tag_22:\n      tag_24\n      jump\t// in\n    tag_21:\n      stop\n        /* \"contracts/1_Storage.sol\":94:112  string public name */\n    tag_8:\n      0x00\n      dup1\n      sload\n      tag_25\n      swap1\n      tag_26\n      jump\t// in\n    tag_25:\n      dup1\n      0x1f\n      add\n      0x20\n      dup1\n      swap2\n      div\n      mul\n      0x20\n      add\n      mload(0x40)\n      swap1\n      dup2\n      add\n      0x40\n      mstore\n      dup1\n      swap3\n      swap2\n      swap1\n      dup2\n      dup2\n      mstore\n      0x20\n      add\n      dup3\n      dup1\n      sload\n      tag_27\n      swap1\n      tag_26\n      jump\t// in\n    tag_27:\n      dup1\n      iszero\n      tag_28\n      jumpi\n      dup1\n      0x1f\n      lt\n      tag_29\n      jumpi\n      0x0100\n      dup1\n      dup4\n      sload\n      div\n      mul\n      dup4\n      mstore\n      swap2\n      0x20\n      add\n      swap2\n      jump(tag_28)\n    tag_29:\n      dup3\n      add\n      swap2\n      swap1\n      0x00\n      mstore\n      keccak256(0x00, 0x20)\n      swap1\n    tag_30:\n      dup2\n      sload\n      dup2\n      mstore\n      swap1\n      0x01\n      add\n      swap1\n      0x20\n      add\n      dup1\n      dup4\n      gt\n      tag_30\n      jumpi\n      dup3\n      swap1\n      sub\n      0x1f\n      and\n      dup3\n      add\n      swap2\n    tag_28:\n      pop\n      pop\n      pop\n      pop\n      pop\n      dup2\n      jump\t// out\n        /* \"contracts/1_Storage.sol\":354:384  FootballPlayer[11] public team */\n    tag_14:\n      0x02\n      dup2\n      0x0b\n      dup2\n      lt\n      tag_31\n      jumpi\n      0x00\n      dup1\n      revert\n    tag_31:\n      0x04\n      mul\n      add\n      0x00\n      swap2\n      pop\n      swap1\n      pop\n      dup1\n      0x00\n      add\n      dup1\n      sload\n      tag_33\n      swap1\n      tag_26\n      jump\t// in\n    tag_33:\n      dup1\n      0x1f\n      add\n      0x20\n      dup1\n      swap2\n      div\n      mul\n      0x20\n      add\n      mload(0x40)\n      swap1\n      dup2\n      add\n      0x40\n      mstore\n      dup1\n      swap3\n      swap2\n      swap1\n      dup2\n      dup2\n      mstore\n      0x20\n      add\n      dup3\n      dup1\n      sload\n      tag_34\n      swap1\n      tag_26\n      jump\t// in\n    tag_34:\n      dup1\n      iszero\n      tag_35\n      jumpi\n      dup1\n      0x1f\n      lt\n      tag_36\n      jumpi\n      0x0100\n      dup1\n      dup4\n      sload\n      div\n      mul\n      dup4\n      mstore\n      swap2\n      0x20\n      add\n      swap2\n      jump(tag_35)\n    tag_36:\n      dup3\n      add\n      swap2\n      swap1\n      0x00\n      mstore\n      keccak256(0x00, 0x20)\n      swap1\n    tag_37:\n      dup2\n      sload\n      dup2\n      mstore\n      swap1\n      0x01\n      add\n      swap1\n      0x20\n      add\n      dup1\n      dup4\n      gt\n      tag_37\n      jumpi\n      dup3\n      swap1\n      sub\n      0x1f\n      and\n      dup3\n      add\n      swap2\n    tag_35:\n      pop\n      pop\n      pop\n      pop\n      pop\n      swap1\n      dup1\n      0x01\n      add\n      sload\n      swap1\n      dup1\n      0x02\n      add\n      sload\n      swap1\n      dup1\n      0x03\n      add\n      0x00\n      swap1\n      sload\n      swap1\n      0x0100\n      exp\n      swap1\n      div\n      0xff\n      and\n      swap1\n      pop\n      dup5\n      jump\t// out\n        /* \"contracts/1_Storage.sol\":118:141  uint public counter = 0 */\n    tag_18:\n      sload(0x01)\n      dup2\n      jump\t// out\n        /* \"contracts/1_Storage.sol\":459:646  function addPlayer(string memory _name, uint _height, uint _age)   ... */\n    tag_24:\n        /* \"contracts/1_Storage.sol\":564:620  FootballPlayer(_name, _height, _age, PlayerPosition.DEF) */\n      mload(0x40)\n      dup1\n      0x80\n      add\n      0x40\n      mstore\n      dup1\n        /* \"contracts/1_Storage.sol\":579:584  _name */\n      dup5\n        /* \"contracts/1_Storage.sol\":564:620  FootballPlayer(_name, _height, _age, PlayerPosition.DEF) */\n      dup2\n      mstore\n      0x20\n      add\n        /* \"contracts/1_Storage.sol\":586:593  _height */\n      dup4\n        /* \"contracts/1_Storage.sol\":564:620  FootballPlayer(_name, _height, _age, PlayerPosition.DEF) */\n      dup2\n      mstore\n      0x20\n      add\n        /* \"contracts/1_Storage.sol\":595:599  _age */\n      dup3\n        /* \"contracts/1_Storage.sol\":564:620  FootballPlayer(_name, _height, _age, PlayerPosition.DEF) */\n      dup2\n      mstore\n      0x20\n      add\n        /* \"contracts/1_Storage.sol\":601:619  PlayerPosition.DEF */\n      0x01\n        /* \"contracts/1_Storage.sol\":564:620  FootballPlayer(_name, _height, _age, PlayerPosition.DEF) */\n      0x03\n      dup2\n      gt\n      iszero\n      tag_39\n      jumpi\n      tag_40\n      tag_41\n      jump\t// in\n    tag_40:\n    tag_39:\n      dup2\n      mstore\n      pop\n        /* \"contracts/1_Storage.sol\":548:552  team */\n      0x02\n        /* \"contracts/1_Storage.sol\":553:560  counter */\n      sload(0x01)\n        /* \"contracts/1_Storage.sol\":548:561  team[counter] */\n      0x0b\n      dup2\n      lt\n      tag_42\n      jumpi\n      tag_43\n      tag_44\n      jump\t// in\n    tag_43:\n    tag_42:\n      0x04\n      mul\n      add\n        /* \"contracts/1_Storage.sol\":548:620  team[counter] = FootballPlayer(_name, _height, _age, PlayerPosition.DEF) */\n      0x00\n      dup3\n      add\n      mload\n      dup2\n      0x00\n      add\n      swap1\n      dup1\n      mload\n      swap1\n      0x20\n      add\n      swap1\n      tag_46\n      swap3\n      swap2\n      swap1\n      tag_47\n      jump\t// in\n    tag_46:\n      pop\n      0x20\n      dup3\n      add\n      mload\n      dup2\n      0x01\n      add\n      sstore\n      0x40\n      dup3\n      add\n      mload\n      dup2\n      0x02\n      add\n      sstore\n      0x60\n      dup3\n      add\n      mload\n      dup2\n      0x03\n      add\n      exp(0x0100, 0x00)\n      dup2\n      sload\n      dup2\n      0xff\n      mul\n      not\n      and\n      swap1\n      dup4\n      0x03\n      dup2\n      gt\n      iszero\n      tag_48\n      jumpi\n      tag_49\n      tag_41\n      jump\t// in\n    tag_49:\n    tag_48:\n      mul\n      or\n      swap1\n      sstore\n      pop\n      swap1\n      pop\n      pop\n        /* \"contracts/1_Storage.sol\":638:639  1 */\n      0x01\n        /* \"contracts/1_Storage.sol\":630:637  counter */\n      dup1\n      sload\n        /* \"contracts/1_Storage.sol\":630:639  counter+1 */\n      tag_50\n      swap2\n      swap1\n      tag_51\n      jump\t// in\n    tag_50:\n      pop\n        /* \"contracts/1_Storage.sol\":459:646  function addPlayer(string memory _name, uint _height, uint _age)   ... */\n      pop\n      pop\n      pop\n      jump\t// out\n    tag_47:\n      dup3\n      dup1\n      sload\n      tag_52\n      swap1\n      tag_26\n      jump\t// in\n    tag_52:\n      swap1\n      0x00\n      mstore\n      keccak256(0x00, 0x20)\n      swap1\n      0x1f\n      add\n      0x20\n      swap1\n      div\n      dup2\n      add\n      swap3\n      dup3\n      tag_54\n      jumpi\n      0x00\n      dup6\n      sstore\n      jump(tag_53)\n    tag_54:\n      dup3\n      0x1f\n      lt\n      tag_55\n      jumpi\n      dup1\n      mload\n      not(0xff)\n      and\n      dup4\n      dup1\n      add\n      or\n      dup6\n      sstore\n      jump(tag_53)\n    tag_55:\n      dup3\n      dup1\n      add\n      0x01\n      add\n      dup6\n      sstore\n      dup3\n      iszero\n      tag_53\n      jumpi\n      swap2\n      dup3\n      add\n    tag_56:\n      dup3\n      dup2\n      gt\n      iszero\n      tag_57\n      jumpi\n      dup3\n      mload\n      dup3\n      sstore\n      swap2\n      0x20\n      add\n      swap2\n      swap1\n      0x01\n      add\n      swap1\n      jump(tag_56)\n    tag_57:\n    tag_53:\n      pop\n      swap1\n      pop\n      tag_58\n      swap2\n      swap1\n      tag_59\n      jump\t// in\n    tag_58:\n      pop\n      swap1\n      jump\t// out\n    tag_59:\n    tag_60:\n      dup1\n      dup3\n      gt\n      iszero\n      tag_61\n      jumpi\n      0x00\n      dup2\n      0x00\n      swap1\n      sstore\n      pop\n      0x01\n      add\n      jump(tag_60)\n    tag_61:\n      pop\n      swap1\n      jump\t// out\n        /* \"#utility.yul\":7:419   */\n    tag_63:\n        /* \"#utility.yul\":85:90   */\n      0x00\n        /* \"#utility.yul\":110:176   */\n      tag_65\n        /* \"#utility.yul\":126:175   */\n      tag_66\n        /* \"#utility.yul\":168:174   */\n      dup5\n        /* \"#utility.yul\":126:175   */\n      tag_67\n      jump\t// in\n    tag_66:\n        /* \"#utility.yul\":110:176   */\n      tag_68\n      jump\t// in\n    tag_65:\n        /* \"#utility.yul\":101:176   */\n      swap1\n      pop\n        /* \"#utility.yul\":199:205   */\n      dup3\n        /* \"#utility.yul\":192:197   */\n      dup2\n        /* \"#utility.yul\":185:206   */\n      mstore\n        /* \"#utility.yul\":237:241   */\n      0x20\n        /* \"#utility.yul\":230:235   */\n      dup2\n        /* \"#utility.yul\":226:242   */\n      add\n        /* \"#utility.yul\":275:278   */\n      dup5\n        /* \"#utility.yul\":266:272   */\n      dup5\n        /* \"#utility.yul\":261:264   */\n      dup5\n        /* \"#utility.yul\":257:273   */\n      add\n        /* \"#utility.yul\":254:279   */\n      gt\n        /* \"#utility.yul\":251:363   */\n      iszero\n      tag_69\n      jumpi\n        /* \"#utility.yul\":282:361   */\n      tag_70\n      tag_71\n      jump\t// in\n    tag_70:\n        /* \"#utility.yul\":251:363   */\n    tag_69:\n        /* \"#utility.yul\":372:413   */\n      tag_72\n        /* \"#utility.yul\":406:412   */\n      dup5\n        /* \"#utility.yul\":401:404   */\n      dup3\n        /* \"#utility.yul\":396:399   */\n      dup6\n        /* \"#utility.yul\":372:413   */\n      tag_73\n      jump\t// in\n    tag_72:\n        /* \"#utility.yul\":91:419   */\n      pop\n        /* \"#utility.yul\":7:419   */\n      swap4\n      swap3\n      pop\n      pop\n      pop\n      jump\t// out\n        /* \"#utility.yul\":439:779   */\n    tag_74:\n        /* \"#utility.yul\":495:500   */\n      0x00\n        /* \"#utility.yul\":544:547   */\n      dup3\n        /* \"#utility.yul\":537:541   */\n      0x1f\n        /* \"#utility.yul\":529:535   */\n      dup4\n        /* \"#utility.yul\":525:542   */\n      add\n        /* \"#utility.yul\":521:548   */\n      slt\n        /* \"#utility.yul\":511:633   */\n      tag_76\n      jumpi\n        /* \"#utility.yul\":552:631   */\n      tag_77\n      tag_78\n      jump\t// in\n    tag_77:\n        /* \"#utility.yul\":511:633   */\n    tag_76:\n        /* \"#utility.yul\":669:675   */\n      dup2\n        /* \"#utility.yul\":656:676   */\n      calldataload\n        /* \"#utility.yul\":694:773   */\n      tag_79\n        /* \"#utility.yul\":769:772   */\n      dup5\n        /* \"#utility.yul\":761:767   */\n      dup3\n        /* \"#utility.yul\":754:758   */\n      0x20\n        /* \"#utility.yul\":746:752   */\n      dup7\n        /* \"#utility.yul\":742:759   */\n      add\n        /* \"#utility.yul\":694:773   */\n      tag_63\n      jump\t// in\n    tag_79:\n        /* \"#utility.yul\":685:773   */\n      swap2\n      pop\n        /* \"#utility.yul\":501:779   */\n      pop\n        /* \"#utility.yul\":439:779   */\n      swap3\n      swap2\n      pop\n      pop\n      jump\t// out\n        /* \"#utility.yul\":785:924   */\n    tag_80:\n        /* \"#utility.yul\":831:836   */\n      0x00\n        /* \"#utility.yul\":869:875   */\n      dup2\n        /* \"#utility.yul\":856:876   */\n      calldataload\n        /* \"#utility.yul\":847:876   */\n      swap1\n      pop\n        /* \"#utility.yul\":885:918   */\n      tag_82\n        /* \"#utility.yul\":912:917   */\n      dup2\n        /* \"#utility.yul\":885:918   */\n      tag_83\n      jump\t// in\n    tag_82:\n        /* \"#utility.yul\":785:924   */\n      swap3\n      swap2\n      pop\n      pop\n      jump\t// out\n        /* \"#utility.yul\":930:1729   */\n    tag_23:\n        /* \"#utility.yul\":1017:1023   */\n      0x00\n        /* \"#utility.yul\":1025:1031   */\n      dup1\n        /* \"#utility.yul\":1033:1039   */\n      0x00\n        /* \"#utility.yul\":1082:1084   */\n      0x60\n        /* \"#utility.yul\":1070:1079   */\n      dup5\n        /* \"#utility.yul\":1061:1068   */\n      dup7\n        /* \"#utility.yul\":1057:1080   */\n      sub\n        /* \"#utility.yul\":1053:1085   */\n      slt\n        /* \"#utility.yul\":1050:1169   */\n      iszero\n      tag_85\n      jumpi\n        /* \"#utility.yul\":1088:1167   */\n      tag_86\n      tag_87\n      jump\t// in\n    tag_86:\n        /* \"#utility.yul\":1050:1169   */\n    tag_85:\n        /* \"#utility.yul\":1236:1237   */\n      0x00\n        /* \"#utility.yul\":1225:1234   */\n      dup5\n        /* \"#utility.yul\":1221:1238   */\n      add\n        /* \"#utility.yul\":1208:1239   */\n      calldataload\n        /* \"#utility.yul\":1266:1284   */\n      0xffffffffffffffff\n        /* \"#utility.yul\":1258:1264   */\n      dup2\n        /* \"#utility.yul\":1255:1285   */\n      gt\n        /* \"#utility.yul\":1252:1369   */\n      iszero\n      tag_88\n      jumpi\n        /* \"#utility.yul\":1288:1367   */\n      tag_89\n      tag_90\n      jump\t// in\n    tag_89:\n        /* \"#utility.yul\":1252:1369   */\n    tag_88:\n        /* \"#utility.yul\":1393:1456   */\n      tag_91\n        /* \"#utility.yul\":1448:1455   */\n      dup7\n        /* \"#utility.yul\":1439:1445   */\n      dup3\n        /* \"#utility.yul\":1428:1437   */\n      dup8\n        /* \"#utility.yul\":1424:1446   */\n      add\n        /* \"#utility.yul\":1393:1456   */\n      tag_74\n      jump\t// in\n    tag_91:\n        /* \"#utility.yul\":1383:1456   */\n      swap4\n      pop\n        /* \"#utility.yul\":1179:1466   */\n      pop\n        /* \"#utility.yul\":1505:1507   */\n      0x20\n        /* \"#utility.yul\":1531:1584   */\n      tag_92\n        /* \"#utility.yul\":1576:1583   */\n      dup7\n        /* \"#utility.yul\":1567:1573   */\n      dup3\n        /* \"#utility.yul\":1556:1565   */\n      dup8\n        /* \"#utility.yul\":1552:1574   */\n      add\n        /* \"#utility.yul\":1531:1584   */\n      tag_80\n      jump\t// in\n    tag_92:\n        /* \"#utility.yul\":1521:1584   */\n      swap3\n      pop\n        /* \"#utility.yul\":1476:1594   */\n      pop\n        /* \"#utility.yul\":1633:1635   */\n      0x40\n        /* \"#utility.yul\":1659:1712   */\n      tag_93\n        /* \"#utility.yul\":1704:1711   */\n      dup7\n        /* \"#utility.yul\":1695:1701   */\n      dup3\n        /* \"#utility.yul\":1684:1693   */\n      dup8\n        /* \"#utility.yul\":1680:1702   */\n      add\n        /* \"#utility.yul\":1659:1712   */\n      tag_80\n      jump\t// in\n    tag_93:\n        /* \"#utility.yul\":1649:1712   */\n      swap2\n      pop\n        /* \"#utility.yul\":1604:1722   */\n      pop\n        /* \"#utility.yul\":930:1729   */\n      swap3\n      pop\n      swap3\n      pop\n      swap3\n      jump\t// out\n        /* \"#utility.yul\":1735:2064   */\n    tag_13:\n        /* \"#utility.yul\":1794:1800   */\n      0x00\n        /* \"#utility.yul\":1843:1845   */\n      0x20\n        /* \"#utility.yul\":1831:1840   */\n      dup3\n        /* \"#utility.yul\":1822:1829   */\n      dup5\n        /* \"#utility.yul\":1818:1841   */\n      sub\n        /* \"#utility.yul\":1814:1846   */\n      slt\n        /* \"#utility.yul\":1811:1930   */\n      iszero\n      tag_95\n      jumpi\n        /* \"#utility.yul\":1849:1928   */\n      tag_96\n      tag_87\n      jump\t// in\n    tag_96:\n        /* \"#utility.yul\":1811:1930   */\n    tag_95:\n        /* \"#utility.yul\":1969:1970   */\n      0x00\n        /* \"#utility.yul\":1994:2047   */\n      tag_97\n        /* \"#utility.yul\":2039:2046   */\n      dup5\n        /* \"#utility.yul\":2030:2036   */\n      dup3\n        /* \"#utility.yul\":2019:2028   */\n      dup6\n        /* \"#utility.yul\":2015:2037   */\n      add\n        /* \"#utility.yul\":1994:2047   */\n      tag_80\n      jump\t// in\n    tag_97:\n        /* \"#utility.yul\":1984:2047   */\n      swap2\n      pop\n        /* \"#utility.yul\":1940:2057   */\n      pop\n        /* \"#utility.yul\":1735:2064   */\n      swap3\n      swap2\n      pop\n      pop\n      jump\t// out\n        /* \"#utility.yul\":2070:2231   */\n    tag_98:\n        /* \"#utility.yul\":2172:2224   */\n      tag_100\n        /* \"#utility.yul\":2218:2223   */\n      dup2\n        /* \"#utility.yul\":2172:2224   */\n      tag_101\n      jump\t// in\n    tag_100:\n        /* \"#utility.yul\":2167:2170   */\n      dup3\n        /* \"#utility.yul\":2160:2225   */\n      mstore\n        /* \"#utility.yul\":2070:2231   */\n      pop\n      pop\n      jump\t// out\n        /* \"#utility.yul\":2237:2601   */\n    tag_102:\n        /* \"#utility.yul\":2325:2328   */\n      0x00\n        /* \"#utility.yul\":2353:2392   */\n      tag_104\n        /* \"#utility.yul\":2386:2391   */\n      dup3\n        /* \"#utility.yul\":2353:2392   */\n      tag_105\n      jump\t// in\n    tag_104:\n        /* \"#utility.yul\":2408:2479   */\n      tag_106\n        /* \"#utility.yul\":2472:2478   */\n      dup2\n        /* \"#utility.yul\":2467:2470   */\n      dup6\n        /* \"#utility.yul\":2408:2479   */\n      tag_107\n      jump\t// in\n    tag_106:\n        /* \"#utility.yul\":2401:2479   */\n      swap4\n      pop\n        /* \"#utility.yul\":2488:2540   */\n      tag_108\n        /* \"#utility.yul\":2533:2539   */\n      dup2\n        /* \"#utility.yul\":2528:2531   */\n      dup6\n        /* \"#utility.yul\":2521:2525   */\n      0x20\n        /* \"#utility.yul\":2514:2519   */\n      dup7\n        /* \"#utility.yul\":2510:2526   */\n      add\n        /* \"#utility.yul\":2488:2540   */\n      tag_109\n      jump\t// in\n    tag_108:\n        /* \"#utility.yul\":2565:2594   */\n      tag_110\n        /* \"#utility.yul\":2587:2593   */\n      dup2\n        /* \"#utility.yul\":2565:2594   */\n      tag_111\n      jump\t// in\n    tag_110:\n        /* \"#utility.yul\":2560:2563   */\n      dup5\n        /* \"#utility.yul\":2556:2595   */\n      add\n        /* \"#utility.yul\":2549:2595   */\n      swap2\n      pop\n        /* \"#utility.yul\":2329:2601   */\n      pop\n        /* \"#utility.yul\":2237:2601   */\n      swap3\n      swap2\n      pop\n      pop\n      jump\t// out\n        /* \"#utility.yul\":2607:2725   */\n    tag_112:\n        /* \"#utility.yul\":2694:2718   */\n      tag_114\n        /* \"#utility.yul\":2712:2717   */\n      dup2\n        /* \"#utility.yul\":2694:2718   */\n      tag_115\n      jump\t// in\n    tag_114:\n        /* \"#utility.yul\":2689:2692   */\n      dup3\n        /* \"#utility.yul\":2682:2719   */\n      mstore\n        /* \"#utility.yul\":2607:2725   */\n      pop\n      pop\n      jump\t// out\n        /* \"#utility.yul\":2731:3044   */\n    tag_10:\n        /* \"#utility.yul\":2844:2848   */\n      0x00\n        /* \"#utility.yul\":2882:2884   */\n      0x20\n        /* \"#utility.yul\":2871:2880   */\n      dup3\n        /* \"#utility.yul\":2867:2885   */\n      add\n        /* \"#utility.yul\":2859:2885   */\n      swap1\n      pop\n        /* \"#utility.yul\":2931:2940   */\n      dup2\n        /* \"#utility.yul\":2925:2929   */\n      dup2\n        /* \"#utility.yul\":2921:2941   */\n      sub\n        /* \"#utility.yul\":2917:2918   */\n      0x00\n        /* \"#utility.yul\":2906:2915   */\n      dup4\n        /* \"#utility.yul\":2902:2919   */\n      add\n        /* \"#utility.yul\":2895:2942   */\n      mstore\n        /* \"#utility.yul\":2959:3037   */\n      tag_117\n        /* \"#utility.yul\":3032:3036   */\n      dup2\n        /* \"#utility.yul\":3023:3029   */\n      dup5\n        /* \"#utility.yul\":2959:3037   */\n      tag_102\n      jump\t// in\n    tag_117:\n        /* \"#utility.yul\":2951:3037   */\n      swap1\n      pop\n        /* \"#utility.yul\":2731:3044   */\n      swap3\n      swap2\n      pop\n      pop\n      jump\t// out\n        /* \"#utility.yul\":3050:3724   */\n    tag_16:\n        /* \"#utility.yul\":3262:3266   */\n      0x00\n        /* \"#utility.yul\":3300:3303   */\n      0x80\n        /* \"#utility.yul\":3289:3298   */\n      dup3\n        /* \"#utility.yul\":3285:3304   */\n      add\n        /* \"#utility.yul\":3277:3304   */\n      swap1\n      pop\n        /* \"#utility.yul\":3350:3359   */\n      dup2\n        /* \"#utility.yul\":3344:3348   */\n      dup2\n        /* \"#utility.yul\":3340:3360   */\n      sub\n        /* \"#utility.yul\":3336:3337   */\n      0x00\n        /* \"#utility.yul\":3325:3334   */\n      dup4\n        /* \"#utility.yul\":3321:3338   */\n      add\n        /* \"#utility.yul\":3314:3361   */\n      mstore\n        /* \"#utility.yul\":3378:3456   */\n      tag_119\n        /* \"#utility.yul\":3451:3455   */\n      dup2\n        /* \"#utility.yul\":3442:3448   */\n      dup8\n        /* \"#utility.yul\":3378:3456   */\n      tag_102\n      jump\t// in\n    tag_119:\n        /* \"#utility.yul\":3370:3456   */\n      swap1\n      pop\n        /* \"#utility.yul\":3466:3538   */\n      tag_120\n        /* \"#utility.yul\":3534:3536   */\n      0x20\n        /* \"#utility.yul\":3523:3532   */\n      dup4\n        /* \"#utility.yul\":3519:3537   */\n      add\n        /* \"#utility.yul\":3510:3516   */\n      dup7\n        /* \"#utility.yul\":3466:3538   */\n      tag_112\n      jump\t// in\n    tag_120:\n        /* \"#utility.yul\":3548:3620   */\n      tag_121\n        /* \"#utility.yul\":3616:3618   */\n      0x40\n        /* \"#utility.yul\":3605:3614   */\n      dup4\n        /* \"#utility.yul\":3601:3619   */\n      add\n        /* \"#utility.yul\":3592:3598   */\n      dup6\n        /* \"#utility.yul\":3548:3620   */\n      tag_112\n      jump\t// in\n    tag_121:\n        /* \"#utility.yul\":3630:3717   */\n      tag_122\n        /* \"#utility.yul\":3713:3715   */\n      0x60\n        /* \"#utility.yul\":3702:3711   */\n      dup4\n        /* \"#utility.yul\":3698:3716   */\n      add\n        /* \"#utility.yul\":3689:3695   */\n      dup5\n        /* \"#utility.yul\":3630:3717   */\n      tag_98\n      jump\t// in\n    tag_122:\n        /* \"#utility.yul\":3050:3724   */\n      swap6\n      swap5\n      pop\n      pop\n      pop\n      pop\n      pop\n      jump\t// out\n        /* \"#utility.yul\":3730:3952   */\n    tag_20:\n        /* \"#utility.yul\":3823:3827   */\n      0x00\n        /* \"#utility.yul\":3861:3863   */\n      0x20\n        /* \"#utility.yul\":3850:3859   */\n      dup3\n        /* \"#utility.yul\":3846:3864   */\n      add\n        /* \"#utility.yul\":3838:3864   */\n      swap1\n      pop\n        /* \"#utility.yul\":3874:3945   */\n      tag_124\n        /* \"#utility.yul\":3942:3943   */\n      0x00\n        /* \"#utility.yul\":3931:3940   */\n      dup4\n        /* \"#utility.yul\":3927:3944   */\n      add\n        /* \"#utility.yul\":3918:3924   */\n      dup5\n        /* \"#utility.yul\":3874:3945   */\n      tag_112\n      jump\t// in\n    tag_124:\n        /* \"#utility.yul\":3730:3952   */\n      swap3\n      swap2\n      pop\n      pop\n      jump\t// out\n        /* \"#utility.yul\":3958:4087   */\n    tag_68:\n        /* \"#utility.yul\":3992:3998   */\n      0x00\n        /* \"#utility.yul\":4019:4039   */\n      tag_126\n      tag_127\n      jump\t// in\n    tag_126:\n        /* \"#utility.yul\":4009:4039   */\n      swap1\n      pop\n        /* \"#utility.yul\":4048:4081   */\n      tag_128\n        /* \"#utility.yul\":4076:4080   */\n      dup3\n        /* \"#utility.yul\":4068:4074   */\n      dup3\n        /* \"#utility.yul\":4048:4081   */\n      tag_129\n      jump\t// in\n    tag_128:\n        /* \"#utility.yul\":3958:4087   */\n      swap2\n      swap1\n      pop\n      jump\t// out\n        /* \"#utility.yul\":4093:4168   */\n    tag_127:\n        /* \"#utility.yul\":4126:4132   */\n      0x00\n        /* \"#utility.yul\":4159:4161   */\n      0x40\n        /* \"#utility.yul\":4153:4162   */\n      mload\n        /* \"#utility.yul\":4143:4162   */\n      swap1\n      pop\n        /* \"#utility.yul\":4093:4168   */\n      swap1\n      jump\t// out\n        /* \"#utility.yul\":4174:4482   */\n    tag_67:\n        /* \"#utility.yul\":4236:4240   */\n      0x00\n        /* \"#utility.yul\":4326:4344   */\n      0xffffffffffffffff\n        /* \"#utility.yul\":4318:4324   */\n      dup3\n        /* \"#utility.yul\":4315:4345   */\n      gt\n        /* \"#utility.yul\":4312:4368   */\n      iszero\n      tag_132\n      jumpi\n        /* \"#utility.yul\":4348:4366   */\n      tag_133\n      tag_134\n      jump\t// in\n    tag_133:\n        /* \"#utility.yul\":4312:4368   */\n    tag_132:\n        /* \"#utility.yul\":4386:4415   */\n      tag_135\n        /* \"#utility.yul\":4408:4414   */\n      dup3\n        /* \"#utility.yul\":4386:4415   */\n      tag_111\n      jump\t// in\n    tag_135:\n        /* \"#utility.yul\":4378:4415   */\n      swap1\n      pop\n        /* \"#utility.yul\":4470:4474   */\n      0x20\n        /* \"#utility.yul\":4464:4468   */\n      dup2\n        /* \"#utility.yul\":4460:4475   */\n      add\n        /* \"#utility.yul\":4452:4475   */\n      swap1\n      pop\n        /* \"#utility.yul\":4174:4482   */\n      swap2\n      swap1\n      pop\n      jump\t// out\n        /* \"#utility.yul\":4488:4587   */\n    tag_105:\n        /* \"#utility.yul\":4540:4546   */\n      0x00\n        /* \"#utility.yul\":4574:4579   */\n      dup2\n        /* \"#utility.yul\":4568:4580   */\n      mload\n        /* \"#utility.yul\":4558:4580   */\n      swap1\n      pop\n        /* \"#utility.yul\":4488:4587   */\n      swap2\n      swap1\n      pop\n      jump\t// out\n        /* \"#utility.yul\":4593:4762   */\n    tag_107:\n        /* \"#utility.yul\":4677:4688   */\n      0x00\n        /* \"#utility.yul\":4711:4717   */\n      dup3\n        /* \"#utility.yul\":4706:4709   */\n      dup3\n        /* \"#utility.yul\":4699:4718   */\n      mstore\n        /* \"#utility.yul\":4751:4755   */\n      0x20\n        /* \"#utility.yul\":4746:4749   */\n      dup3\n        /* \"#utility.yul\":4742:4756   */\n      add\n        /* \"#utility.yul\":4727:4756   */\n      swap1\n      pop\n        /* \"#utility.yul\":4593:4762   */\n      swap3\n      swap2\n      pop\n      pop\n      jump\t// out\n        /* \"#utility.yul\":4768:5073   */\n    tag_51:\n        /* \"#utility.yul\":4808:4811   */\n      0x00\n        /* \"#utility.yul\":4827:4847   */\n      tag_139\n        /* \"#utility.yul\":4845:4846   */\n      dup3\n        /* \"#utility.yul\":4827:4847   */\n      tag_115\n      jump\t// in\n    tag_139:\n        /* \"#utility.yul\":4822:4847   */\n      swap2\n      pop\n        /* \"#utility.yul\":4861:4881   */\n      tag_140\n        /* \"#utility.yul\":4879:4880   */\n      dup4\n        /* \"#utility.yul\":4861:4881   */\n      tag_115\n      jump\t// in\n    tag_140:\n        /* \"#utility.yul\":4856:4881   */\n      swap3\n      pop\n        /* \"#utility.yul\":5015:5016   */\n      dup3\n        /* \"#utility.yul\":4947:5013   */\n      0xffffffffffffffffffffffffffffffffffffffffffffffffffffffffffffffff\n        /* \"#utility.yul\":4943:5017   */\n      sub\n        /* \"#utility.yul\":4940:4941   */\n      dup3\n        /* \"#utility.yul\":4937:5018   */\n      gt\n        /* \"#utility.yul\":4934:5041   */\n      iszero\n      tag_141\n      jumpi\n        /* \"#utility.yul\":5021:5039   */\n      tag_142\n      tag_143\n      jump\t// in\n    tag_142:\n        /* \"#utility.yul\":4934:5041   */\n    tag_141:\n        /* \"#utility.yul\":5065:5066   */\n      dup3\n        /* \"#utility.yul\":5062:5063   */\n      dup3\n        /* \"#utility.yul\":5058:5067   */\n      add\n        /* \"#utility.yul\":5051:5067   */\n      swap1\n      pop\n        /* \"#utility.yul\":4768:5073   */\n      swap3\n      swap2\n      pop\n      pop\n      jump\t// out\n        /* \"#utility.yul\":5079:5224   */\n    tag_144:\n        /* \"#utility.yul\":5133:5140   */\n      0x00\n        /* \"#utility.yul\":5162:5167   */\n      dup2\n        /* \"#utility.yul\":5151:5167   */\n      swap1\n      pop\n        /* \"#utility.yul\":5168:5218   */\n      tag_146\n        /* \"#utility.yul\":5212:5217   */\n      dup3\n        /* \"#utility.yul\":5168:5218   */\n      tag_147\n      jump\t// in\n    tag_146:\n        /* \"#utility.yul\":5079:5224   */\n      swap2\n      swap1\n      pop\n      jump\t// out\n        /* \"#utility.yul\":5230:5307   */\n    tag_115:\n        /* \"#utility.yul\":5267:5274   */\n      0x00\n        /* \"#utility.yul\":5296:5301   */\n      dup2\n        /* \"#utility.yul\":5285:5301   */\n      swap1\n      pop\n        /* \"#utility.yul\":5230:5307   */\n      swap2\n      swap1\n      pop\n      jump\t// out\n        /* \"#utility.yul\":5313:5458   */\n    tag_101:\n        /* \"#utility.yul\":5378:5387   */\n      0x00\n        /* \"#utility.yul\":5411:5452   */\n      tag_150\n        /* \"#utility.yul\":5446:5451   */\n      dup3\n        /* \"#utility.yul\":5411:5452   */\n      tag_144\n      jump\t// in\n    tag_150:\n        /* \"#utility.yul\":5398:5452   */\n      swap1\n      pop\n        /* \"#utility.yul\":5313:5458   */\n      swap2\n      swap1\n      pop\n      jump\t// out\n        /* \"#utility.yul\":5464:5618   */\n    tag_73:\n        /* \"#utility.yul\":5548:5554   */\n      dup3\n        /* \"#utility.yul\":5543:5546   */\n      dup2\n        /* \"#utility.yul\":5538:5541   */\n      dup4\n        /* \"#utility.yul\":5525:5555   */\n      calldatacopy\n        /* \"#utility.yul\":5610:5611   */\n      0x00\n        /* \"#utility.yul\":5601:5607   */\n      dup4\n        /* \"#utility.yul\":5596:5599   */\n      dup4\n        /* \"#utility.yul\":5592:5608   */\n      add\n        /* \"#utility.yul\":5585:5612   */\n      mstore\n        /* \"#utility.yul\":5464:5618   */\n      pop\n      pop\n      pop\n      jump\t// out\n        /* \"#utility.yul\":5624:5931   */\n    tag_109:\n        /* \"#utility.yul\":5692:5693   */\n      0x00\n        /* \"#utility.yul\":5702:5815   */\n    tag_153:\n        /* \"#utility.yul\":5716:5722   */\n      dup4\n        /* \"#utility.yul\":5713:5714   */\n      dup2\n        /* \"#utility.yul\":5710:5723   */\n      lt\n        /* \"#utility.yul\":5702:5815   */\n      iszero\n      tag_155\n      jumpi\n        /* \"#utility.yul\":5801:5802   */\n      dup1\n        /* \"#utility.yul\":5796:5799   */\n      dup3\n        /* \"#utility.yul\":5792:5803   */\n      add\n        /* \"#utility.yul\":5786:5804   */\n      mload\n        /* \"#utility.yul\":5782:5783   */\n      dup2\n        /* \"#utility.yul\":5777:5780   */\n      dup5\n        /* \"#utility.yul\":5773:5784   */\n      add\n        /* \"#utility.yul\":5766:5805   */\n      mstore\n        /* \"#utility.yul\":5738:5740   */\n      0x20\n        /* \"#utility.yul\":5735:5736   */\n      dup2\n        /* \"#utility.yul\":5731:5741   */\n      add\n        /* \"#utility.yul\":5726:5741   */\n      swap1\n      pop\n        /* \"#utility.yul\":5702:5815   */\n      jump(tag_153)\n    tag_155:\n        /* \"#utility.yul\":5833:5839   */\n      dup4\n        /* \"#utility.yul\":5830:5831   */\n      dup2\n        /* \"#utility.yul\":5827:5840   */\n      gt\n        /* \"#utility.yul\":5824:5925   */\n      iszero\n      tag_156\n      jumpi\n        /* \"#utility.yul\":5913:5914   */\n      0x00\n        /* \"#utility.yul\":5904:5910   */\n      dup5\n        /* \"#utility.yul\":5899:5902   */\n      dup5\n        /* \"#utility.yul\":5895:5911   */\n      add\n        /* \"#utility.yul\":5888:5915   */\n      mstore\n        /* \"#utility.yul\":5824:5925   */\n    tag_156:\n        /* \"#utility.yul\":5673:5931   */\n      pop\n        /* \"#utility.yul\":5624:5931   */\n      pop\n      pop\n      pop\n      jump\t// out\n        /* \"#utility.yul\":5937:6257   */\n    tag_26:\n        /* \"#utility.yul\":5981:5987   */\n      0x00\n        /* \"#utility.yul\":6018:6019   */\n      0x02\n        /* \"#utility.yul\":6012:6016   */\n      dup3\n        /* \"#utility.yul\":6008:6020   */\n      div\n        /* \"#utility.yul\":5998:6020   */\n      swap1\n      pop\n        /* \"#utility.yul\":6065:6066   */\n      0x01\n        /* \"#utility.yul\":6059:6063   */\n      dup3\n        /* \"#utility.yul\":6055:6067   */\n      and\n        /* \"#utility.yul\":6086:6104   */\n      dup1\n        /* \"#utility.yul\":6076:6157   */\n      tag_158\n      jumpi\n        /* \"#utility.yul\":6142:6146   */\n      0x7f\n        /* \"#utility.yul\":6134:6140   */\n      dup3\n        /* \"#utility.yul\":6130:6147   */\n      and\n        /* \"#utility.yul\":6120:6147   */\n      swap2\n      pop\n        /* \"#utility.yul\":6076:6157   */\n    tag_158:\n        /* \"#utility.yul\":6204:6206   */\n      0x20\n        /* \"#utility.yul\":6196:6202   */\n      dup3\n        /* \"#utility.yul\":6193:6207   */\n      lt\n        /* \"#utility.yul\":6173:6191   */\n      dup2\n        /* \"#utility.yul\":6170:6208   */\n      eq\n        /* \"#utility.yul\":6167:6251   */\n      iszero\n      tag_159\n      jumpi\n        /* \"#utility.yul\":6223:6241   */\n      tag_160\n      tag_161\n      jump\t// in\n    tag_160:\n        /* \"#utility.yul\":6167:6251   */\n    tag_159:\n        /* \"#utility.yul\":5988:6257   */\n      pop\n        /* \"#utility.yul\":5937:6257   */\n      swap2\n      swap1\n      pop\n      jump\t// out\n        /* \"#utility.yul\":6263:6544   */\n    tag_129:\n        /* \"#utility.yul\":6346:6373   */\n      tag_163\n        /* \"#utility.yul\":6368:6372   */\n      dup3\n        /* \"#utility.yul\":6346:6373   */\n      tag_111\n      jump\t// in\n    tag_163:\n        /* \"#utility.yul\":6338:6344   */\n      dup2\n        /* \"#utility.yul\":6334:6374   */\n      add\n        /* \"#utility.yul\":6476:6482   */\n      dup2\n        /* \"#utility.yul\":6464:6474   */\n      dup2\n        /* \"#utility.yul\":6461:6483   */\n      lt\n        /* \"#utility.yul\":6440:6458   */\n      0xffffffffffffffff\n        /* \"#utility.yul\":6428:6438   */\n      dup3\n        /* \"#utility.yul\":6425:6459   */\n      gt\n        /* \"#utility.yul\":6422:6484   */\n      or\n        /* \"#utility.yul\":6419:6507   */\n      iszero\n      tag_164\n      jumpi\n        /* \"#utility.yul\":6487:6505   */\n      tag_165\n      tag_134\n      jump\t// in\n    tag_165:\n        /* \"#utility.yul\":6419:6507   */\n    tag_164:\n        /* \"#utility.yul\":6527:6537   */\n      dup1\n        /* \"#utility.yul\":6523:6525   */\n      0x40\n        /* \"#utility.yul\":6516:6538   */\n      mstore\n        /* \"#utility.yul\":6306:6544   */\n      pop\n        /* \"#utility.yul\":6263:6544   */\n      pop\n      pop\n      jump\t// out\n        /* \"#utility.yul\":6550:6730   */\n    tag_143:\n        /* \"#utility.yul\":6598:6675   */\n      0x4e487b7100000000000000000000000000000000000000000000000000000000\n        /* \"#utility.yul\":6595:6596   */\n      0x00\n        /* \"#utility.yul\":6588:6676   */\n      mstore\n        /* \"#utility.yul\":6695:6699   */\n      0x11\n        /* \"#utility.yul\":6692:6693   */\n      0x04\n        /* \"#utility.yul\":6685:6700   */\n      mstore\n        /* \"#utility.yul\":6719:6723   */\n      0x24\n        /* \"#utility.yul\":6716:6717   */\n      0x00\n        /* \"#utility.yul\":6709:6724   */\n      revert\n        /* \"#utility.yul\":6736:6916   */\n    tag_41:\n        /* \"#utility.yul\":6784:6861   */\n      0x4e487b7100000000000000000000000000000000000000000000000000000000\n        /* \"#utility.yul\":6781:6782   */\n      0x00\n        /* \"#utility.yul\":6774:6862   */\n      mstore\n        /* \"#utility.yul\":6881:6885   */\n      0x21\n        /* \"#utility.yul\":6878:6879   */\n      0x04\n        /* \"#utility.yul\":6871:6886   */\n      mstore\n        /* \"#utility.yul\":6905:6909   */\n      0x24\n        /* \"#utility.yul\":6902:6903   */\n      0x00\n        /* \"#utility.yul\":6895:6910   */\n      revert\n        /* \"#utility.yul\":6922:7102   */\n    tag_161:\n        /* \"#utility.yul\":6970:7047   */\n      0x4e487b7100000000000000000000000000000000000000000000000000000000\n        /* \"#utility.yul\":6967:6968   */\n      0x00\n        /* \"#utility.yul\":6960:7048   */\n      mstore\n        /* \"#utility.yul\":7067:7071   */\n      0x22\n        /* \"#utility.yul\":7064:7065   */\n      0x04\n        /* \"#utility.yul\":7057:7072   */\n      mstore\n        /* \"#utility.yul\":7091:7095   */\n      0x24\n        /* \"#utility.yul\":7088:7089   */\n      0x00\n        /* \"#utility.yul\":7081:7096   */\n      revert\n        /* \"#utility.yul\":7108:7288   */\n    tag_44:\n        /* \"#utility.yul\":7156:7233   */\n      0x4e487b7100000000000000000000000000000000000000000000000000000000\n        /* \"#utility.yul\":7153:7154   */\n      0x00\n        /* \"#utility.yul\":7146:7234   */\n      mstore\n        /* \"#utility.yul\":7253:7257   */\n      0x32\n        /* \"#utility.yul\":7250:7251   */\n      0x04\n        /* \"#utility.yul\":7243:7258   */\n      mstore\n        /* \"#utility.yul\":7277:7281   */\n      0x24\n        /* \"#utility.yul\":7274:7275   */\n      0x00\n        /* \"#utility.yul\":7267:7282   */\n      revert\n        /* \"#utility.yul\":7294:7474   */\n    tag_134:\n        /* \"#utility.yul\":7342:7419   */\n      0x4e487b7100000000000000000000000000000000000000000000000000000000\n        /* \"#utility.yul\":7339:7340   */\n      0x00\n        /* \"#utility.yul\":7332:7420   */\n      mstore\n        /* \"#utility.yul\":7439:7443   */\n      0x41\n        /* \"#utility.yul\":7436:7437   */\n      0x04\n        /* \"#utility.yul\":7429:7444   */\n      mstore\n        /* \"#utility.yul\":7463:7467   */\n      0x24\n        /* \"#utility.yul\":7460:7461   */\n      0x00\n        /* \"#utility.yul\":7453:7468   */\n      revert\n        /* \"#utility.yul\":7480:7597   */\n    tag_78:\n        /* \"#utility.yul\":7589:7590   */\n      0x00\n        /* \"#utility.yul\":7586:7587   */\n      dup1\n        /* \"#utility.yul\":7579:7591   */\n      revert\n        /* \"#utility.yul\":7603:7720   */\n    tag_71:\n        /* \"#utility.yul\":7712:7713   */\n      0x00\n        /* \"#utility.yul\":7709:7710   */\n      dup1\n        /* \"#utility.yul\":7702:7714   */\n      revert\n        /* \"#utility.yul\":7726:7843   */\n    tag_90:\n        /* \"#utility.yul\":7835:7836   */\n      0x00\n        /* \"#utility.yul\":7832:7833   */\n      dup1\n        /* \"#utility.yul\":7825:7837   */\n      revert\n        /* \"#utility.yul\":7849:7966   */\n    tag_87:\n        /* \"#utility.yul\":7958:7959   */\n      0x00\n        /* \"#utility.yul\":7955:7956   */\n      dup1\n        /* \"#utility.yul\":7948:7960   */\n      revert\n        /* \"#utility.yul\":7972:8074   */\n    tag_111:\n        /* \"#utility.yul\":8013:8019   */\n      0x00\n        /* \"#utility.yul\":8064:8066   */\n      0x1f\n        /* \"#utility.yul\":8060:8067   */\n      not\n        /* \"#utility.yul\":8055:8057   */\n      0x1f\n        /* \"#utility.yul\":8048:8053   */\n      dup4\n        /* \"#utility.yul\":8044:8058   */\n      add\n        /* \"#utility.yul\":8040:8068   */\n      and\n        /* \"#utility.yul\":8030:8068   */\n      swap1\n      pop\n        /* \"#utility.yul\":7972:8074   */\n      swap2\n      swap1\n      pop\n      jump\t// out\n        /* \"#utility.yul\":8080:8202   */\n    tag_147:\n        /* \"#utility.yul\":8170:8171   */\n      0x04\n        /* \"#utility.yul\":8163:8168   */\n      dup2\n        /* \"#utility.yul\":8160:8172   */\n      lt\n        /* \"#utility.yul\":8150:8196   */\n      tag_177\n      jumpi\n        /* \"#utility.yul\":8176:8194   */\n      tag_178\n      tag_41\n      jump\t// in\n    tag_178:\n        /* \"#utility.yul\":8150:8196   */\n    tag_177:\n        /* \"#utility.yul\":8080:8202   */\n      pop\n      jump\t// out\n        /* \"#utility.yul\":8208:8330   */\n    tag_83:\n        /* \"#utility.yul\":8281:8305   */\n      tag_180\n        /* \"#utility.yul\":8299:8304   */\n      dup2\n        /* \"#utility.yul\":8281:8305   */\n      tag_115\n      jump\t// in\n    tag_180:\n        /* \"#utility.yul\":8274:8279   */\n      dup2\n        /* \"#utility.yul\":8271:8306   */\n      eq\n        /* \"#utility.yul\":8261:8324   */\n      tag_181\n      jumpi\n        /* \"#utility.yul\":8320:8321   */\n      0x00\n        /* \"#utility.yul\":8317:8318   */\n      dup1\n        /* \"#utility.yul\":8310:8322   */\n      revert\n        /* \"#utility.yul\":8261:8324   */\n    tag_181:\n        /* \"#utility.yul\":8208:8330   */\n      pop\n      jump\t// out\n\n    auxdata: 0xa26469706673582212209900290fab90309bde85c4a2eded6c188d01dac533f467f9e8b7b540df66cc0b64736f6c63430008070033\n}\n",
				"bytecode": {
					"linkReferences": {},
					"object": "608060405260006001553480156200001657600080fd5b5060405162000c2138038062000c2183398181016040528101906200003c91906200018a565b8060009080519060200190620000549291906200005c565b50506200035f565b8280546200006a9062000270565b90600052602060002090601f0160209004810192826200008e5760008555620000da565b82601f10620000a957805160ff1916838001178555620000da565b82800160010185558215620000da579182015b82811115620000d9578251825591602001919060010190620000bc565b5b509050620000e99190620000ed565b5090565b5b8082111562000108576000816000905550600101620000ee565b5090565b6000620001236200011d8462000204565b620001db565b9050828152602081018484840111156200014257620001416200033f565b5b6200014f8482856200023a565b509392505050565b600082601f8301126200016f576200016e6200033a565b5b8151620001818482602086016200010c565b91505092915050565b600060208284031215620001a357620001a262000349565b5b600082015167ffffffffffffffff811115620001c457620001c362000344565b5b620001d28482850162000157565b91505092915050565b6000620001e7620001fa565b9050620001f58282620002a6565b919050565b6000604051905090565b600067ffffffffffffffff8211156200022257620002216200030b565b5b6200022d826200034e565b9050602081019050919050565b60005b838110156200025a5780820151818401526020810190506200023d565b838111156200026a576000848401525b50505050565b600060028204905060018216806200028957607f821691505b60208210811415620002a0576200029f620002dc565b5b50919050565b620002b1826200034e565b810181811067ffffffffffffffff82111715620002d357620002d26200030b565b5b80604052505050565b7f4e487b7100000000000000000000000000000000000000000000000000000000600052602260045260246000fd5b7f4e487b7100000000000000000000000000000000000000000000000000000000600052604160045260246000fd5b600080fd5b600080fd5b600080fd5b600080fd5b6000601f19601f8301169050919050565b6108b2806200036f6000396000f3fe608060405234801561001057600080fd5b506004361061004c5760003560e01c806306fdde0314610051578063197ebd531461006f57806361bc221a146100a2578063c312f9d5146100c0575b600080fd5b6100596100dc565b604051610066919061051c565b60405180910390f35b61008960048036038101906100849190610498565b61016a565b604051610099949392919061053e565b60405180910390f35b6100aa610235565b6040516100b7919061058a565b60405180910390f35b6100da60048036038101906100d59190610429565b61023b565b005b600080546100e9906106de565b80601f0160208091040260200160405190810160405280929190818152602001828054610115906106de565b80156101625780601f1061013757610100808354040283529160200191610162565b820191906000526020600020905b81548152906001019060200180831161014557829003601f168201915b505050505081565b600281600b811061017a57600080fd5b60040201600091509050806000018054610193906106de565b80601f01602080910402602001604051908101604052809291908181526020018280546101bf906106de565b801561020c5780601f106101e15761010080835404028352916020019161020c565b820191906000526020600020905b8154815290600101906020018083116101ef57829003601f168201915b5050505050908060010154908060020154908060030160009054906101000a900460ff16905084565b60015481565b60405180608001604052808481526020018381526020018281526020016001600381111561026c5761026b610770565b5b8152506002600154600b8110610285576102846107ce565b5b6004020160008201518160000190805190602001906102a5929190610301565b50602082015181600101556040820151816002015560608201518160030160006101000a81548160ff021916908360038111156102e5576102e4610770565b5b0217905550905050600180546102fb9190610617565b50505050565b82805461030d906106de565b90600052602060002090601f01602090048101928261032f5760008555610376565b82601f1061034857805160ff1916838001178555610376565b82800160010185558215610376579182015b8281111561037557825182559160200191906001019061035a565b5b5090506103839190610387565b5090565b5b808211156103a0576000816000905550600101610388565b5090565b60006103b76103b2846105ca565b6105a5565b9050828152602081018484840111156103d3576103d2610831565b5b6103de84828561069c565b509392505050565b600082601f8301126103fb576103fa61082c565b5b813561040b8482602086016103a4565b91505092915050565b60008135905061042381610865565b92915050565b6000806000606084860312156104425761044161083b565b5b600084013567ffffffffffffffff8111156104605761045f610836565b5b61046c868287016103e6565b935050602061047d86828701610414565b925050604061048e86828701610414565b9150509250925092565b6000602082840312156104ae576104ad61083b565b5b60006104bc84828501610414565b91505092915050565b6104ce8161068a565b82525050565b60006104df826105fb565b6104e98185610606565b93506104f98185602086016106ab565b61050281610840565b840191505092915050565b61051681610680565b82525050565b6000602082019050818103600083015261053681846104d4565b905092915050565b6000608082019050818103600083015261055881876104d4565b9050610567602083018661050d565b610574604083018561050d565b61058160608301846104c5565b95945050505050565b600060208201905061059f600083018461050d565b92915050565b60006105af6105c0565b90506105bb8282610710565b919050565b6000604051905090565b600067ffffffffffffffff8211156105e5576105e46107fd565b5b6105ee82610840565b9050602081019050919050565b600081519050919050565b600082825260208201905092915050565b600061062282610680565b915061062d83610680565b9250827fffffffffffffffffffffffffffffffffffffffffffffffffffffffffffffffff0382111561066257610661610741565b5b828201905092915050565b600081905061067b82610851565b919050565b6000819050919050565b60006106958261066d565b9050919050565b82818337600083830152505050565b60005b838110156106c95780820151818401526020810190506106ae565b838111156106d8576000848401525b50505050565b600060028204905060018216806106f657607f821691505b6020821081141561070a5761070961079f565b5b50919050565b61071982610840565b810181811067ffffffffffffffff82111715610738576107376107fd565b5b80604052505050565b7f4e487b7100000000000000000000000000000000000000000000000000000000600052601160045260246000fd5b7f4e487b7100000000000000000000000000000000000000000000000000000000600052602160045260246000fd5b7f4e487b7100000000000000000000000000000000000000000000000000000000600052602260045260246000fd5b7f4e487b7100000000000000000000000000000000000000000000000000000000600052603260045260246000fd5b7f4e487b7100000000000000000000000000000000000000000000000000000000600052604160045260246000fd5b600080fd5b600080fd5b600080fd5b600080fd5b6000601f19601f8301169050919050565b6004811061086257610861610770565b5b50565b61086e81610680565b811461087957600080fd5b5056fea26469706673582212209900290fab90309bde85c4a2eded6c188d01dac533f467f9e8b7b540df66cc0b64736f6c63430008070033",
					"opcodes": "PUSH1 0x80 PUSH1 0x40 MSTORE PUSH1 0x0 PUSH1 0x1 SSTORE CALLVALUE DUP1 ISZERO PUSH3 0x16 JUMPI PUSH1 0x0 DUP1 REVERT JUMPDEST POP PUSH1 0x40 MLOAD PUSH3 0xC21 CODESIZE SUB DUP1 PUSH3 0xC21 DUP4 CODECOPY DUP2 DUP2 ADD PUSH1 0x40 MSTORE DUP2 ADD SWAP1 PUSH3 0x3C SWAP2 SWAP1 PUSH3 0x18A JUMP JUMPDEST DUP1 PUSH1 0x0 SWAP1 DUP1 MLOAD SWAP1 PUSH1 0x20 ADD SWAP1 PUSH3 0x54 SWAP3 SWAP2 SWAP1 PUSH3 0x5C JUMP JUMPDEST POP POP PUSH3 0x35F JUMP JUMPDEST DUP3 DUP1 SLOAD PUSH3 0x6A SWAP1 PUSH3 0x270 JUMP JUMPDEST SWAP1 PUSH1 0x0 MSTORE PUSH1 0x20 PUSH1 0x0 KECCAK256 SWAP1 PUSH1 0x1F ADD PUSH1 0x20 SWAP1 DIV DUP2 ADD SWAP3 DUP3 PUSH3 0x8E JUMPI PUSH1 0x0 DUP6 SSTORE PUSH3 0xDA JUMP JUMPDEST DUP3 PUSH1 0x1F LT PUSH3 0xA9 JUMPI DUP1 MLOAD PUSH1 0xFF NOT AND DUP4 DUP1 ADD OR DUP6 SSTORE PUSH3 0xDA JUMP JUMPDEST DUP3 DUP1 ADD PUSH1 0x1 ADD DUP6 SSTORE DUP3 ISZERO PUSH3 0xDA JUMPI SWAP2 DUP3 ADD JUMPDEST DUP3 DUP2 GT ISZERO PUSH3 0xD9 JUMPI DUP3 MLOAD DUP3 SSTORE SWAP2 PUSH1 0x20 ADD SWAP2 SWAP1 PUSH1 0x1 ADD SWAP1 PUSH3 0xBC JUMP JUMPDEST JUMPDEST POP SWAP1 POP PUSH3 0xE9 SWAP2 SWAP1 PUSH3 0xED JUMP JUMPDEST POP SWAP1 JUMP JUMPDEST JUMPDEST DUP1 DUP3 GT ISZERO PUSH3 0x108 JUMPI PUSH1 0x0 DUP2 PUSH1 0x0 SWAP1 SSTORE POP PUSH1 0x1 ADD PUSH3 0xEE JUMP JUMPDEST POP SWAP1 JUMP JUMPDEST PUSH1 0x0 PUSH3 0x123 PUSH3 0x11D DUP5 PUSH3 0x204 JUMP JUMPDEST PUSH3 0x1DB JUMP JUMPDEST SWAP1 POP DUP3 DUP2 MSTORE PUSH1 0x20 DUP2 ADD DUP5 DUP5 DUP5 ADD GT ISZERO PUSH3 0x142 JUMPI PUSH3 0x141 PUSH3 0x33F JUMP JUMPDEST JUMPDEST PUSH3 0x14F DUP5 DUP3 DUP6 PUSH3 0x23A JUMP JUMPDEST POP SWAP4 SWAP3 POP POP POP JUMP JUMPDEST PUSH1 0x0 DUP3 PUSH1 0x1F DUP4 ADD SLT PUSH3 0x16F JUMPI PUSH3 0x16E PUSH3 0x33A JUMP JUMPDEST JUMPDEST DUP2 MLOAD PUSH3 0x181 DUP5 DUP3 PUSH1 0x20 DUP7 ADD PUSH3 0x10C JUMP JUMPDEST SWAP2 POP POP SWAP3 SWAP2 POP POP JUMP JUMPDEST PUSH1 0x0 PUSH1 0x20 DUP3 DUP5 SUB SLT ISZERO PUSH3 0x1A3 JUMPI PUSH3 0x1A2 PUSH3 0x349 JUMP JUMPDEST JUMPDEST PUSH1 0x0 DUP3 ADD MLOAD PUSH8 0xFFFFFFFFFFFFFFFF DUP2 GT ISZERO PUSH3 0x1C4 JUMPI PUSH3 0x1C3 PUSH3 0x344 JUMP JUMPDEST JUMPDEST PUSH3 0x1D2 DUP5 DUP3 DUP6 ADD PUSH3 0x157 JUMP JUMPDEST SWAP2 POP POP SWAP3 SWAP2 POP POP JUMP JUMPDEST PUSH1 0x0 PUSH3 0x1E7 PUSH3 0x1FA JUMP JUMPDEST SWAP1 POP PUSH3 0x1F5 DUP3 DUP3 PUSH3 0x2A6 JUMP JUMPDEST SWAP2 SWAP1 POP JUMP JUMPDEST PUSH1 0x0 PUSH1 0x40 MLOAD SWAP1 POP SWAP1 JUMP JUMPDEST PUSH1 0x0 PUSH8 0xFFFFFFFFFFFFFFFF DUP3 GT ISZERO PUSH3 0x222 JUMPI PUSH3 0x221 PUSH3 0x30B JUMP JUMPDEST JUMPDEST PUSH3 0x22D DUP3 PUSH3 0x34E JUMP JUMPDEST SWAP1 POP PUSH1 0x20 DUP2 ADD SWAP1 POP SWAP2 SWAP1 POP JUMP JUMPDEST PUSH1 0x0 JUMPDEST DUP4 DUP2 LT ISZERO PUSH3 0x25A JUMPI DUP1 DUP3 ADD MLOAD DUP2 DUP5 ADD MSTORE PUSH1 0x20 DUP2 ADD SWAP1 POP PUSH3 0x23D JUMP JUMPDEST DUP4 DUP2 GT ISZERO PUSH3 0x26A JUMPI PUSH1 0x0 DUP5 DUP5 ADD MSTORE JUMPDEST POP POP POP POP JUMP JUMPDEST PUSH1 0x0 PUSH1 0x2 DUP3 DIV SWAP1 POP PUSH1 0x1 DUP3 AND DUP1 PUSH3 0x289 JUMPI PUSH1 0x7F DUP3 AND SWAP2 POP JUMPDEST PUSH1 0x20 DUP3 LT DUP2 EQ ISZERO PUSH3 0x2A0 JUMPI PUSH3 0x29F PUSH3 0x2DC JUMP JUMPDEST JUMPDEST POP SWAP2 SWAP1 POP JUMP JUMPDEST PUSH3 0x2B1 DUP3 PUSH3 0x34E JUMP JUMPDEST DUP2 ADD DUP2 DUP2 LT PUSH8 0xFFFFFFFFFFFFFFFF DUP3 GT OR ISZERO PUSH3 0x2D3 JUMPI PUSH3 0x2D2 PUSH3 0x30B JUMP JUMPDEST JUMPDEST DUP1 PUSH1 0x40 MSTORE POP POP POP JUMP JUMPDEST PUSH32 0x4E487B7100000000000000000000000000000000000000000000000000000000 PUSH1 0x0 MSTORE PUSH1 0x22 PUSH1 0x4 MSTORE PUSH1 0x24 PUSH1 0x0 REVERT JUMPDEST PUSH32 0x4E487B7100000000000000000000000000000000000000000000000000000000 PUSH1 0x0 MSTORE PUSH1 0x41 PUSH1 0x4 MSTORE PUSH1 0x24 PUSH1 0x0 REVERT JUMPDEST PUSH1 0x0 DUP1 REVERT JUMPDEST PUSH1 0x0 DUP1 REVERT JUMPDEST PUSH1 0x0 DUP1 REVERT JUMPDEST PUSH1 0x0 DUP1 REVERT JUMPDEST PUSH1 0x0 PUSH1 0x1F NOT PUSH1 0x1F DUP4 ADD AND SWAP1 POP SWAP2 SWAP1 POP JUMP JUMPDEST PUSH2 0x8B2 DUP1 PUSH3 0x36F PUSH1 0x0 CODECOPY PUSH1 0x0 RETURN INVALID PUSH1 0x80 PUSH1 0x40 MSTORE CALLVALUE DUP1 ISZERO PUSH2 0x10 JUMPI PUSH1 0x0 DUP1 REVERT JUMPDEST POP PUSH1 0x4 CALLDATASIZE LT PUSH2 0x4C JUMPI PUSH1 0x0 CALLDATALOAD PUSH1 0xE0 SHR DUP1 PUSH4 0x6FDDE03 EQ PUSH2 0x51 JUMPI DUP1 PUSH4 0x197EBD53 EQ PUSH2 0x6F JUMPI DUP1 PUSH4 0x61BC221A EQ PUSH2 0xA2 JUMPI DUP1 PUSH4 0xC312F9D5 EQ PUSH2 0xC0 JUMPI JUMPDEST PUSH1 0x0 DUP1 REVERT JUMPDEST PUSH2 0x59 PUSH2 0xDC JUMP JUMPDEST PUSH1 0x40 MLOAD PUSH2 0x66 SWAP2 SWAP1 PUSH2 0x51C JUMP JUMPDEST PUSH1 0x40 MLOAD DUP1 SWAP2 SUB SWAP1 RETURN JUMPDEST PUSH2 0x89 PUSH1 0x4 DUP1 CALLDATASIZE SUB DUP2 ADD SWAP1 PUSH2 0x84 SWAP2 SWAP1 PUSH2 0x498 JUMP JUMPDEST PUSH2 0x16A JUMP JUMPDEST PUSH1 0x40 MLOAD PUSH2 0x99 SWAP5 SWAP4 SWAP3 SWAP2 SWAP1 PUSH2 0x53E JUMP JUMPDEST PUSH1 0x40 MLOAD DUP1 SWAP2 SUB SWAP1 RETURN JUMPDEST PUSH2 0xAA PUSH2 0x235 JUMP JUMPDEST PUSH1 0x40 MLOAD PUSH2 0xB7 SWAP2 SWAP1 PUSH2 0x58A JUMP JUMPDEST PUSH1 0x40 MLOAD DUP1 SWAP2 SUB SWAP1 RETURN JUMPDEST PUSH2 0xDA PUSH1 0x4 DUP1 CALLDATASIZE SUB DUP2 ADD SWAP1 PUSH2 0xD5 SWAP2 SWAP1 PUSH2 0x429 JUMP JUMPDEST PUSH2 0x23B JUMP JUMPDEST STOP JUMPDEST PUSH1 0x0 DUP1 SLOAD PUSH2 0xE9 SWAP1 PUSH2 0x6DE JUMP JUMPDEST DUP1 PUSH1 0x1F ADD PUSH1 0x20 DUP1 SWAP2 DIV MUL PUSH1 0x20 ADD PUSH1 0x40 MLOAD SWAP1 DUP2 ADD PUSH1 0x40 MSTORE DUP1 SWAP3 SWAP2 SWAP1 DUP2 DUP2 MSTORE PUSH1 0x20 ADD DUP3 DUP1 SLOAD PUSH2 0x115 SWAP1 PUSH2 0x6DE JUMP JUMPDEST DUP1 ISZERO PUSH2 0x162 JUMPI DUP1 PUSH1 0x1F LT PUSH2 0x137 JUMPI PUSH2 0x100 DUP1 DUP4 SLOAD DIV MUL DUP4 MSTORE SWAP2 PUSH1 0x20 ADD SWAP2 PUSH2 0x162 JUMP JUMPDEST DUP3 ADD SWAP2 SWAP1 PUSH1 0x0 MSTORE PUSH1 0x20 PUSH1 0x0 KECCAK256 SWAP1 JUMPDEST DUP2 SLOAD DUP2 MSTORE SWAP1 PUSH1 0x1 ADD SWAP1 PUSH1 0x20 ADD DUP1 DUP4 GT PUSH2 0x145 JUMPI DUP3 SWAP1 SUB PUSH1 0x1F AND DUP3 ADD SWAP2 JUMPDEST POP POP POP POP POP DUP2 JUMP JUMPDEST PUSH1 0x2 DUP2 PUSH1 0xB DUP2 LT PUSH2 0x17A JUMPI PUSH1 0x0 DUP1 REVERT JUMPDEST PUSH1 0x4 MUL ADD PUSH1 0x0 SWAP2 POP SWAP1 POP DUP1 PUSH1 0x0 ADD DUP1 SLOAD PUSH2 0x193 SWAP1 PUSH2 0x6DE JUMP JUMPDEST DUP1 PUSH1 0x1F ADD PUSH1 0x20 DUP1 SWAP2 DIV MUL PUSH1 0x20 ADD PUSH1 0x40 MLOAD SWAP1 DUP2 ADD PUSH1 0x40 MSTORE DUP1 SWAP3 SWAP2 SWAP1 DUP2 DUP2 MSTORE PUSH1 0x20 ADD DUP3 DUP1 SLOAD PUSH2 0x1BF SWAP1 PUSH2 0x6DE JUMP JUMPDEST DUP1 ISZERO PUSH2 0x20C JUMPI DUP1 PUSH1 0x1F LT PUSH2 0x1E1 JUMPI PUSH2 0x100 DUP1 DUP4 SLOAD DIV MUL DUP4 MSTORE SWAP2 PUSH1 0x20 ADD SWAP2 PUSH2 0x20C JUMP JUMPDEST DUP3 ADD SWAP2 SWAP1 PUSH1 0x0 MSTORE PUSH1 0x20 PUSH1 0x0 KECCAK256 SWAP1 JUMPDEST DUP2 SLOAD DUP2 MSTORE SWAP1 PUSH1 0x1 ADD SWAP1 PUSH1 0x20 ADD DUP1 DUP4 GT PUSH2 0x1EF JUMPI DUP3 SWAP1 SUB PUSH1 0x1F AND DUP3 ADD SWAP2 JUMPDEST POP POP POP POP POP SWAP1 DUP1 PUSH1 0x1 ADD SLOAD SWAP1 DUP1 PUSH1 0x2 ADD SLOAD SWAP1 DUP1 PUSH1 0x3 ADD PUSH1 0x0 SWAP1 SLOAD SWAP1 PUSH2 0x100 EXP SWAP1 DIV PUSH1 0xFF AND SWAP1 POP DUP5 JUMP JUMPDEST PUSH1 0x1 SLOAD DUP2 JUMP JUMPDEST PUSH1 0x40 MLOAD DUP1 PUSH1 0x80 ADD PUSH1 0x40 MSTORE DUP1 DUP5 DUP2 MSTORE PUSH1 0x20 ADD DUP4 DUP2 MSTORE PUSH1 0x20 ADD DUP3 DUP2 MSTORE PUSH1 0x20 ADD PUSH1 0x1 PUSH1 0x3 DUP2 GT ISZERO PUSH2 0x26C JUMPI PUSH2 0x26B PUSH2 0x770 JUMP JUMPDEST JUMPDEST DUP2 MSTORE POP PUSH1 0x2 PUSH1 0x1 SLOAD PUSH1 0xB DUP2 LT PUSH2 0x285 JUMPI PUSH2 0x284 PUSH2 0x7CE JUMP JUMPDEST JUMPDEST PUSH1 0x4 MUL ADD PUSH1 0x0 DUP3 ADD MLOAD DUP2 PUSH1 0x0 ADD SWAP1 DUP1 MLOAD SWAP1 PUSH1 0x20 ADD SWAP1 PUSH2 0x2A5 SWAP3 SWAP2 SWAP1 PUSH2 0x301 JUMP JUMPDEST POP PUSH1 0x20 DUP3 ADD MLOAD DUP2 PUSH1 0x1 ADD SSTORE PUSH1 0x40 DUP3 ADD MLOAD DUP2 PUSH1 0x2 ADD SSTORE PUSH1 0x60 DUP3 ADD MLOAD DUP2 PUSH1 0x3 ADD PUSH1 0x0 PUSH2 0x100 EXP DUP2 SLOAD DUP2 PUSH1 0xFF MUL NOT AND SWAP1 DUP4 PUSH1 0x3 DUP2 GT ISZERO PUSH2 0x2E5 JUMPI PUSH2 0x2E4 PUSH2 0x770 JUMP JUMPDEST JUMPDEST MUL OR SWAP1 SSTORE POP SWAP1 POP POP PUSH1 0x1 DUP1 SLOAD PUSH2 0x2FB SWAP2 SWAP1 PUSH2 0x617 JUMP JUMPDEST POP POP POP POP JUMP JUMPDEST DUP3 DUP1 SLOAD PUSH2 0x30D SWAP1 PUSH2 0x6DE JUMP JUMPDEST SWAP1 PUSH1 0x0 MSTORE PUSH1 0x20 PUSH1 0x0 KECCAK256 SWAP1 PUSH1 0x1F ADD PUSH1 0x20 SWAP1 DIV DUP2 ADD SWAP3 DUP3 PUSH2 0x32F JUMPI PUSH1 0x0 DUP6 SSTORE PUSH2 0x376 JUMP JUMPDEST DUP3 PUSH1 0x1F LT PUSH2 0x348 JUMPI DUP1 MLOAD PUSH1 0xFF NOT AND DUP4 DUP1 ADD OR DUP6 SSTORE PUSH2 0x376 JUMP JUMPDEST DUP3 DUP1 ADD PUSH1 0x1 ADD DUP6 SSTORE DUP3 ISZERO PUSH2 0x376 JUMPI SWAP2 DUP3 ADD JUMPDEST DUP3 DUP2 GT ISZERO PUSH2 0x375 JUMPI DUP3 MLOAD DUP3 SSTORE SWAP2 PUSH1 0x20 ADD SWAP2 SWAP1 PUSH1 0x1 ADD SWAP1 PUSH2 0x35A JUMP JUMPDEST JUMPDEST POP SWAP1 POP PUSH2 0x383 SWAP2 SWAP1 PUSH2 0x387 JUMP JUMPDEST POP SWAP1 JUMP JUMPDEST JUMPDEST DUP1 DUP3 GT ISZERO PUSH2 0x3A0 JUMPI PUSH1 0x0 DUP2 PUSH1 0x0 SWAP1 SSTORE POP PUSH1 0x1 ADD PUSH2 0x388 JUMP JUMPDEST POP SWAP1 JUMP JUMPDEST PUSH1 0x0 PUSH2 0x3B7 PUSH2 0x3B2 DUP5 PUSH2 0x5CA JUMP JUMPDEST PUSH2 0x5A5 JUMP JUMPDEST SWAP1 POP DUP3 DUP2 MSTORE PUSH1 0x20 DUP2 ADD DUP5 DUP5 DUP5 ADD GT ISZERO PUSH2 0x3D3 JUMPI PUSH2 0x3D2 PUSH2 0x831 JUMP JUMPDEST JUMPDEST PUSH2 0x3DE DUP5 DUP3 DUP6 PUSH2 0x69C JUMP JUMPDEST POP SWAP4 SWAP3 POP POP POP JUMP JUMPDEST PUSH1 0x0 DUP3 PUSH1 0x1F DUP4 ADD SLT PUSH2 0x3FB JUMPI PUSH2 0x3FA PUSH2 0x82C JUMP JUMPDEST JUMPDEST DUP2 CALLDATALOAD PUSH2 0x40B DUP5 DUP3 PUSH1 0x20 DUP7 ADD PUSH2 0x3A4 JUMP JUMPDEST SWAP2 POP POP SWAP3 SWAP2 POP POP JUMP JUMPDEST PUSH1 0x0 DUP2 CALLDATALOAD SWAP1 POP PUSH2 0x423 DUP2 PUSH2 0x865 JUMP JUMPDEST SWAP3 SWAP2 POP POP JUMP JUMPDEST PUSH1 0x0 DUP1 PUSH1 0x0 PUSH1 0x60 DUP5 DUP7 SUB SLT ISZERO PUSH2 0x442 JUMPI PUSH2 0x441 PUSH2 0x83B JUMP JUMPDEST JUMPDEST PUSH1 0x0 DUP5 ADD CALLDATALOAD PUSH8 0xFFFFFFFFFFFFFFFF DUP2 GT ISZERO PUSH2 0x460 JUMPI PUSH2 0x45F PUSH2 0x836 JUMP JUMPDEST JUMPDEST PUSH2 0x46C DUP7 DUP3 DUP8 ADD PUSH2 0x3E6 JUMP JUMPDEST SWAP4 POP POP PUSH1 0x20 PUSH2 0x47D DUP7 DUP3 DUP8 ADD PUSH2 0x414 JUMP JUMPDEST SWAP3 POP POP PUSH1 0x40 PUSH2 0x48E DUP7 DUP3 DUP8 ADD PUSH2 0x414 JUMP JUMPDEST SWAP2 POP POP SWAP3 POP SWAP3 POP SWAP3 JUMP JUMPDEST PUSH1 0x0 PUSH1 0x20 DUP3 DUP5 SUB SLT ISZERO PUSH2 0x4AE JUMPI PUSH2 0x4AD PUSH2 0x83B JUMP JUMPDEST JUMPDEST PUSH1 0x0 PUSH2 0x4BC DUP5 DUP3 DUP6 ADD PUSH2 0x414 JUMP JUMPDEST SWAP2 POP POP SWAP3 SWAP2 POP POP JUMP JUMPDEST PUSH2 0x4CE DUP2 PUSH2 0x68A JUMP JUMPDEST DUP3 MSTORE POP POP JUMP JUMPDEST PUSH1 0x0 PUSH2 0x4DF DUP3 PUSH2 0x5FB JUMP JUMPDEST PUSH2 0x4E9 DUP2 DUP6 PUSH2 0x606 JUMP JUMPDEST SWAP4 POP PUSH2 0x4F9 DUP2 DUP6 PUSH1 0x20 DUP7 ADD PUSH2 0x6AB JUMP JUMPDEST PUSH2 0x502 DUP2 PUSH2 0x840 JUMP JUMPDEST DUP5 ADD SWAP2 POP POP SWAP3 SWAP2 POP POP JUMP JUMPDEST PUSH2 0x516 DUP2 PUSH2 0x680 JUMP JUMPDEST DUP3 MSTORE POP POP JUMP JUMPDEST PUSH1 0x0 PUSH1 0x20 DUP3 ADD SWAP1 POP DUP2 DUP2 SUB PUSH1 0x0 DUP4 ADD MSTORE PUSH2 0x536 DUP2 DUP5 PUSH2 0x4D4 JUMP JUMPDEST SWAP1 POP SWAP3 SWAP2 POP POP JUMP JUMPDEST PUSH1 0x0 PUSH1 0x80 DUP3 ADD SWAP1 POP DUP2 DUP2 SUB PUSH1 0x0 DUP4 ADD MSTORE PUSH2 0x558 DUP2 DUP8 PUSH2 0x4D4 JUMP JUMPDEST SWAP1 POP PUSH2 0x567 PUSH1 0x20 DUP4 ADD DUP7 PUSH2 0x50D JUMP JUMPDEST PUSH2 0x574 PUSH1 0x40 DUP4 ADD DUP6 PUSH2 0x50D JUMP JUMPDEST PUSH2 0x581 PUSH1 0x60 DUP4 ADD DUP5 PUSH2 0x4C5 JUMP JUMPDEST SWAP6 SWAP5 POP POP POP POP POP JUMP JUMPDEST PUSH1 0x0 PUSH1 0x20 DUP3 ADD SWAP1 POP PUSH2 0x59F PUSH1 0x0 DUP4 ADD DUP5 PUSH2 0x50D JUMP JUMPDEST SWAP3 SWAP2 POP POP JUMP JUMPDEST PUSH1 0x0 PUSH2 0x5AF PUSH2 0x5C0 JUMP JUMPDEST SWAP1 POP PUSH2 0x5BB DUP3 DUP3 PUSH2 0x710 JUMP JUMPDEST SWAP2 SWAP1 POP JUMP JUMPDEST PUSH1 0x0 PUSH1 0x40 MLOAD SWAP1 POP SWAP1 JUMP JUMPDEST PUSH1 0x0 PUSH8 0xFFFFFFFFFFFFFFFF DUP3 GT ISZERO PUSH2 0x5E5 JUMPI PUSH2 0x5E4 PUSH2 0x7FD JUMP JUMPDEST JUMPDEST PUSH2 0x5EE DUP3 PUSH2 0x840 JUMP JUMPDEST SWAP1 POP PUSH1 0x20 DUP2 ADD SWAP1 POP SWAP2 SWAP1 POP JUMP JUMPDEST PUSH1 0x0 DUP2 MLOAD SWAP1 POP SWAP2 SWAP1 POP JUMP JUMPDEST PUSH1 0x0 DUP3 DUP3 MSTORE PUSH1 0x20 DUP3 ADD SWAP1 POP SWAP3 SWAP2 POP POP JUMP JUMPDEST PUSH1 0x0 PUSH2 0x622 DUP3 PUSH2 0x680 JUMP JUMPDEST SWAP2 POP PUSH2 0x62D DUP4 PUSH2 0x680 JUMP JUMPDEST SWAP3 POP DUP3 PUSH32 0xFFFFFFFFFFFFFFFFFFFFFFFFFFFFFFFFFFFFFFFFFFFFFFFFFFFFFFFFFFFFFFFF SUB DUP3 GT ISZERO PUSH2 0x662 JUMPI PUSH2 0x661 PUSH2 0x741 JUMP JUMPDEST JUMPDEST DUP3 DUP3 ADD SWAP1 POP SWAP3 SWAP2 POP POP JUMP JUMPDEST PUSH1 0x0 DUP2 SWAP1 POP PUSH2 0x67B DUP3 PUSH2 0x851 JUMP JUMPDEST SWAP2 SWAP1 POP JUMP JUMPDEST PUSH1 0x0 DUP2 SWAP1 POP SWAP2 SWAP1 POP JUMP JUMPDEST PUSH1 0x0 PUSH2 0x695 DUP3 PUSH2 0x66D JUMP JUMPDEST SWAP1 POP SWAP2 SWAP1 POP JUMP JUMPDEST DUP3 DUP2 DUP4 CALLDATACOPY PUSH1 0x0 DUP4 DUP4 ADD MSTORE POP POP POP JUMP JUMPDEST PUSH1 0x0 JUMPDEST DUP4 DUP2 LT ISZERO PUSH2 0x6C9 JUMPI DUP1 DUP3 ADD MLOAD DUP2 DUP5 ADD MSTORE PUSH1 0x20 DUP2 ADD SWAP1 POP PUSH2 0x6AE JUMP JUMPDEST DUP4 DUP2 GT ISZERO PUSH2 0x6D8 JUMPI PUSH1 0x0 DUP5 DUP5 ADD MSTORE JUMPDEST POP POP POP POP JUMP JUMPDEST PUSH1 0x0 PUSH1 0x2 DUP3 DIV SWAP1 POP PUSH1 0x1 DUP3 AND DUP1 PUSH2 0x6F6 JUMPI PUSH1 0x7F DUP3 AND SWAP2 POP JUMPDEST PUSH1 0x20 DUP3 LT DUP2 EQ ISZERO PUSH2 0x70A JUMPI PUSH2 0x709 PUSH2 0x79F JUMP JUMPDEST JUMPDEST POP SWAP2 SWAP1 POP JUMP JUMPDEST PUSH2 0x719 DUP3 PUSH2 0x840 JUMP JUMPDEST DUP2 ADD DUP2 DUP2 LT PUSH8 0xFFFFFFFFFFFFFFFF DUP3 GT OR ISZERO PUSH2 0x738 JUMPI PUSH2 0x737 PUSH2 0x7FD JUMP JUMPDEST JUMPDEST DUP1 PUSH1 0x40 MSTORE POP POP POP JUMP JUMPDEST PUSH32 0x4E487B7100000000000000000000000000000000000000000000000000000000 PUSH1 0x0 MSTORE PUSH1 0x11 PUSH1 0x4 MSTORE PUSH1 0x24 PUSH1 0x0 REVERT JUMPDEST PUSH32 0x4E487B7100000000000000000000000000000000000000000000000000000000 PUSH1 0x0 MSTORE PUSH1 0x21 PUSH1 0x4 MSTORE PUSH1 0x24 PUSH1 0x0 REVERT JUMPDEST PUSH32 0x4E487B7100000000000000000000000000000000000000000000000000000000 PUSH1 0x0 MSTORE PUSH1 0x22 PUSH1 0x4 MSTORE PUSH1 0x24 PUSH1 0x0 REVERT JUMPDEST PUSH32 0x4E487B7100000000000000000000000000000000000000000000000000000000 PUSH1 0x0 MSTORE PUSH1 0x32 PUSH1 0x4 MSTORE PUSH1 0x24 PUSH1 0x0 REVERT JUMPDEST PUSH32 0x4E487B7100000000000000000000000000000000000000000000000000000000 PUSH1 0x0 MSTORE PUSH1 0x41 PUSH1 0x4 MSTORE PUSH1 0x24 PUSH1 0x0 REVERT JUMPDEST PUSH1 0x0 DUP1 REVERT JUMPDEST PUSH1 0x0 DUP1 REVERT JUMPDEST PUSH1 0x0 DUP1 REVERT JUMPDEST PUSH1 0x0 DUP1 REVERT JUMPDEST PUSH1 0x0 PUSH1 0x1F NOT PUSH1 0x1F DUP4 ADD AND SWAP1 POP SWAP2 SWAP1 POP JUMP JUMPDEST PUSH1 0x4 DUP2 LT PUSH2 0x862 JUMPI PUSH2 0x861 PUSH2 0x770 JUMP JUMPDEST JUMPDEST POP JUMP JUMPDEST PUSH2 0x86E DUP2 PUSH2 0x680 JUMP JUMPDEST DUP2 EQ PUSH2 0x879 JUMPI PUSH1 0x0 DUP1 REVERT JUMPDEST POP JUMP INVALID LOG2 PUSH5 0x6970667358 0x22 SLT KECCAK256 SWAP10 STOP 0x29 0xF 0xAB SWAP1 ADDRESS SWAP12 0xDE DUP6 0xC4 LOG2 0xED 0xED PUSH13 0x188D01DAC533F467F9E8B7B540 0xDF PUSH7 0xCC0B64736F6C63 NUMBER STOP ADDMOD SMOD STOP CALLER "
				},
				"gasEstimates": {
					"creation": {
						"codeDepositCost": "445200",
						"executionCost": "infinite",
						"totalCost": "infinite"
					},
					"external": {
						"addPlayer(string,uint256,uint256)": "infinite",
						"counter()": "2451",
						"name()": "infinite",
						"team(uint256)": "infinite"
					}
				},
				"methodIdentifiers": {
					"addPlayer(string,uint256,uint256)": "c312f9d5",
					"counter()": "61bc221a",
					"name()": "06fdde03",
					"team(uint256)": "197ebd53"
				}
			},
			"storageLayout": {
				"storage": [
					{
						"astId": 3,
						"contract": "contracts/1_Storage.sol:FootballTeam",
						"label": "name",
						"offset": 0,
						"slot": "0",
						"type": "t_string_storage"
					},
					{
						"astId": 6,
						"contract": "contracts/1_Storage.sol:FootballTeam",
						"label": "counter",
						"offset": 0,
						"slot": "1",
						"type": "t_uint256"
					},
					{
						"astId": 26,
						"contract": "contracts/1_Storage.sol:FootballTeam",
						"label": "team",
						"offset": 0,
						"slot": "2",
						"type": "t_array(t_struct(FootballPlayer)21_storage)11_storage"
					}
				],
				"types": {
					"t_array(t_struct(FootballPlayer)21_storage)11_storage": {
						"base": "t_struct(FootballPlayer)21_storage",
						"encoding": "inplace",
						"label": "struct FootballTeam.FootballPlayer[11]",
						"numberOfBytes": "1408"
					},
					"t_enum(PlayerPosition)11": {
						"encoding": "inplace",
						"label": "enum FootballTeam.PlayerPosition",
						"numberOfBytes": "1"
					},
					"t_string_storage": {
						"encoding": "bytes",
						"label": "string",
						"numberOfBytes": "32"
					},
					"t_struct(FootballPlayer)21_storage": {
						"encoding": "inplace",
						"label": "struct FootballTeam.FootballPlayer",
						"members": [
							{
								"astId": 13,
								"contract": "contracts/1_Storage.sol:FootballTeam",
								"label": "name",
								"offset": 0,
								"slot": "0",
								"type": "t_string_storage"
							},
							{
								"astId": 15,
								"contract": "contracts/1_Storage.sol:FootballTeam",
								"label": "height",
								"offset": 0,
								"slot": "1",
								"type": "t_uint256"
							},
							{
								"astId": 17,
								"contract": "contracts/1_Storage.sol:FootballTeam",
								"label": "age",
								"offset": 0,
								"slot": "2",
								"type": "t_uint256"
							},
							{
								"astId": 20,
								"contract": "contracts/1_Storage.sol:FootballTeam",
								"label": "position",
								"offset": 0,
								"slot": "3",
								"type": "t_enum(PlayerPosition)11"
							}
						],
						"numberOfBytes": "128"
					},
					"t_uint256": {
						"encoding": "inplace",
						"label": "uint256",
						"numberOfBytes": "32"
					}
				}
			},
			"userdoc": {
				"kind": "user",
				"methods": {},
				"version": 1
			}
		}
	}
}