{
	"contracts/day9.sol": {
		"MiniBlogV6": {
			"abi": [
				{
					"anonymous": false,
					"inputs": [
						{
							"indexed": true,
							"internalType": "address",
							"name": "author",
							"type": "address"
						},
						{
							"indexed": false,
							"internalType": "uint256",
							"name": "postId",
							"type": "uint256"
						},
						{
							"indexed": false,
							"internalType": "string",
							"name": "title",
							"type": "string"
						}
					],
					"name": "NewPost",
					"type": "event"
				},
				{
					"inputs": [
						{
							"internalType": "string",
							"name": "title",
							"type": "string"
						},
						{
							"internalType": "string",
							"name": "content",
							"type": "string"
						}
					],
					"name": "createPost",
					"outputs": [],
					"stateMutability": "nonpayable",
					"type": "function"
				},
				{
					"inputs": [
						{
							"internalType": "uint256",
							"name": "postId",
							"type": "uint256"
						}
					],
					"name": "getPostById",
					"outputs": [
						{
							"internalType": "string",
							"name": "title",
							"type": "string"
						},
						{
							"internalType": "string",
							"name": "content",
							"type": "string"
						}
					],
					"stateMutability": "view",
					"type": "function"
				},
				{
					"inputs": [
						{
							"internalType": "address",
							"name": "author",
							"type": "address"
						}
					],
					"name": "getPostIdsByAuthor",
					"outputs": [
						{
							"internalType": "uint256[]",
							"name": "",
							"type": "uint256[]"
						}
					],
					"stateMutability": "view",
					"type": "function"
				},
				{
					"inputs": [],
					"name": "latestPostId",
					"outputs": [
						{
							"internalType": "uint256",
							"name": "",
							"type": "uint256"
						}
					],
					"stateMutability": "view",
					"type": "function"
				},
				{
					"inputs": [
						{
							"internalType": "uint256",
							"name": "postId",
							"type": "uint256"
						},
						{
							"internalType": "string",
							"name": "content",
							"type": "string"
						}
					],
					"name": "modifyPostContent",
					"outputs": [],
					"stateMutability": "nonpayable",
					"type": "function"
				},
				{
					"inputs": [
						{
							"internalType": "uint256",
							"name": "postId",
							"type": "uint256"
						},
						{
							"internalType": "string",
							"name": "title",
							"type": "string"
						}
					],
					"name": "modifyPostTitle",
					"outputs": [],
					"stateMutability": "nonpayable",
					"type": "function"
				},
				{
					"inputs": [
						{
							"internalType": "uint256",
							"name": "",
							"type": "uint256"
						}
					],
					"name": "posts",
					"outputs": [
						{
							"internalType": "string",
							"name": "title",
							"type": "string"
						},
						{
							"internalType": "string",
							"name": "content",
							"type": "string"
						},
						{
							"internalType": "address",
							"name": "author",
							"type": "address"
						},
						{
							"internalType": "uint256",
							"name": "created",
							"type": "uint256"
						}
					],
					"stateMutability": "view",
					"type": "function"
				},
				{
					"inputs": [
						{
							"internalType": "string",
							"name": "bio",
							"type": "string"
						}
					],
					"name": "updateBio",
					"outputs": [],
					"stateMutability": "nonpayable",
					"type": "function"
				},
				{
					"inputs": [
						{
							"internalType": "string",
							"name": "username",
							"type": "string"
						}
					],
					"name": "updateUsername",
					"outputs": [],
					"stateMutability": "nonpayable",
					"type": "function"
				},
				{
					"inputs": [
						{
							"internalType": "address",
							"name": "",
							"type": "address"
						}
					],
					"name": "users",
					"outputs": [
						{
							"internalType": "string",
							"name": "username",
							"type": "string"
						},
						{
							"internalType": "string",
							"name": "bio",
							"type": "string"
						}
					],
					"stateMutability": "view",
					"type": "function"
				}
			],
			"devdoc": {
				"kind": "dev",
				"methods": {},
				"version": 1
			},
			"evm": {
				"assembly": "    /* \"contracts/day9.sol\":135:4509  contract MiniBlogV6{\r... */\n  mstore(0x40, 0x80)\n    /* \"contracts/day9.sol\":313:314  0 */\n  0x00\n    /* \"contracts/day9.sol\":283:314  uint256 public latestPostId = 0 */\n  dup1\n  sstore\n    /* \"contracts/day9.sol\":135:4509  contract MiniBlogV6{\r... */\n  callvalue\n  dup1\n  iszero\n  tag_1\n  jumpi\n  0x00\n  dup1\n  revert\ntag_1:\n  pop\n  dataSize(sub_0)\n  dup1\n  dataOffset(sub_0)\n  0x00\n  codecopy\n  0x00\n  return\nstop\n\nsub_0: assembly {\n        /* \"contracts/day9.sol\":135:4509  contract MiniBlogV6{\r... */\n      mstore(0x40, 0x80)\n      callvalue\n      dup1\n      iszero\n      tag_1\n      jumpi\n      0x00\n      dup1\n      revert\n    tag_1:\n      pop\n      jumpi(tag_2, lt(calldatasize, 0x04))\n      shr(0xe0, calldataload(0x00))\n      dup1\n      0x96d86a99\n      gt\n      tag_13\n      jumpi\n      dup1\n      0x96d86a99\n      eq\n      tag_8\n      jumpi\n      dup1\n      0x9735f90f\n      eq\n      tag_9\n      jumpi\n      dup1\n      0x9b15d047\n      eq\n      tag_10\n      jumpi\n      dup1\n      0xa87430ba\n      eq\n      tag_11\n      jumpi\n      dup1\n      0xc96cea70\n      eq\n      tag_12\n      jumpi\n      jump(tag_2)\n    tag_13:\n      dup1\n      0x0b1e7f83\n      eq\n      tag_3\n      jumpi\n      dup1\n      0x392338f5\n      eq\n      tag_4\n      jumpi\n      dup1\n      0x64e95895\n      eq\n      tag_5\n      jumpi\n      dup1\n      0x6910cf8e\n      eq\n      tag_6\n      jumpi\n      dup1\n      0x76487b38\n      eq\n      tag_7\n      jumpi\n    tag_2:\n      0x00\n      dup1\n      revert\n        /* \"contracts/day9.sol\":1099:1137  mapping (uint256 => Post) public posts */\n    tag_3:\n      tag_14\n      0x04\n      dup1\n      calldatasize\n      sub\n      dup2\n      add\n      swap1\n      tag_15\n      swap2\n      swap1\n      tag_16\n      jump\t// in\n    tag_15:\n      tag_17\n      jump\t// in\n    tag_14:\n      mload(0x40)\n      tag_18\n      swap5\n      swap4\n      swap3\n      swap2\n      swap1\n      tag_19\n      jump\t// in\n    tag_18:\n      mload(0x40)\n      dup1\n      swap2\n      sub\n      swap1\n      return\n        /* \"contracts/day9.sol\":1421:2468  function createPost(string memory title, string memory content) public {\r... */\n    tag_4:\n      tag_20\n      0x04\n      dup1\n      calldatasize\n      sub\n      dup2\n      add\n      swap1\n      tag_21\n      swap2\n      swap1\n      tag_22\n      jump\t// in\n    tag_21:\n      tag_23\n      jump\t// in\n    tag_20:\n      stop\n        /* \"contracts/day9.sol\":3935:4173  function getPostById(uint256 postId)\r... */\n    tag_5:\n      tag_24\n      0x04\n      dup1\n      calldatasize\n      sub\n      dup2\n      add\n      swap1\n      tag_25\n      swap2\n      swap1\n      tag_16\n      jump\t// in\n    tag_25:\n      tag_26\n      jump\t// in\n    tag_24:\n      mload(0x40)\n      tag_27\n      swap3\n      swap2\n      swap1\n      tag_28\n      jump\t// in\n    tag_27:\n      mload(0x40)\n      dup1\n      swap2\n      sub\n      swap1\n      return\n        /* \"contracts/day9.sol\":4308:4502  function getPostIdsByAuthor(address author)\r... */\n    tag_6:\n      tag_29\n      0x04\n      dup1\n      calldatasize\n      sub\n      dup2\n      add\n      swap1\n      tag_30\n      swap2\n      swap1\n      tag_31\n      jump\t// in\n    tag_30:\n      tag_32\n      jump\t// in\n    tag_29:\n      mload(0x40)\n      tag_33\n      swap2\n      swap1\n      tag_34\n      jump\t// in\n    tag_33:\n      mload(0x40)\n      dup1\n      swap2\n      sub\n      swap1\n      return\n        /* \"contracts/day9.sol\":3677:3772  function updateBio(string memory bio) public {\r... */\n    tag_7:\n      tag_35\n      0x04\n      dup1\n      calldatasize\n      sub\n      dup2\n      add\n      swap1\n      tag_36\n      swap2\n      swap1\n      tag_37\n      jump\t// in\n    tag_36:\n      tag_38\n      jump\t// in\n    tag_35:\n      stop\n        /* \"contracts/day9.sol\":3001:3214  function modifyPostContent(uint256 postId, string memory content) public {\r... */\n    tag_8:\n      tag_39\n      0x04\n      dup1\n      calldatasize\n      sub\n      dup2\n      add\n      swap1\n      tag_40\n      swap2\n      swap1\n      tag_41\n      jump\t// in\n    tag_40:\n      tag_42\n      jump\t// in\n    tag_39:\n      stop\n        /* \"contracts/day9.sol\":2651:2852  function modifyPostTitle(uint256 postId, string memory title) public {\r... */\n    tag_9:\n      tag_43\n      0x04\n      dup1\n      calldatasize\n      sub\n      dup2\n      add\n      swap1\n      tag_44\n      swap2\n      swap1\n      tag_41\n      jump\t// in\n    tag_44:\n      tag_45\n      jump\t// in\n    tag_43:\n      stop\n        /* \"contracts/day9.sol\":283:314  uint256 public latestPostId = 0 */\n    tag_10:\n      tag_46\n      tag_47\n      jump\t// in\n    tag_46:\n      mload(0x40)\n      tag_48\n      swap2\n      swap1\n      tag_49\n      jump\t// in\n    tag_48:\n      mload(0x40)\n      dup1\n      swap2\n      sub\n      swap1\n      return\n        /* \"contracts/day9.sol\":1054:1092  mapping (address => User) public users */\n    tag_11:\n      tag_50\n      0x04\n      dup1\n      calldatasize\n      sub\n      dup2\n      add\n      swap1\n      tag_51\n      swap2\n      swap1\n      tag_31\n      jump\t// in\n    tag_51:\n      tag_52\n      jump\t// in\n    tag_50:\n      mload(0x40)\n      tag_53\n      swap3\n      swap2\n      swap1\n      tag_28\n      jump\t// in\n    tag_53:\n      mload(0x40)\n      dup1\n      swap2\n      sub\n      swap1\n      return\n        /* \"contracts/day9.sol\":3419:3534  function updateUsername(string memory username) public {\r... */\n    tag_12:\n      tag_54\n      0x04\n      dup1\n      calldatasize\n      sub\n      dup2\n      add\n      swap1\n      tag_55\n      swap2\n      swap1\n      tag_37\n      jump\t// in\n    tag_55:\n      tag_56\n      jump\t// in\n    tag_54:\n      stop\n        /* \"contracts/day9.sol\":1099:1137  mapping (uint256 => Post) public posts */\n    tag_17:\n      mstore(0x20, 0x02)\n      dup1\n      0x00\n      mstore\n      keccak256(0x00, 0x40)\n      0x00\n      swap2\n      pop\n      swap1\n      pop\n      dup1\n      0x00\n      add\n      dup1\n      sload\n      tag_57\n      swap1\n      tag_58\n      jump\t// in\n    tag_57:\n      dup1\n      0x1f\n      add\n      0x20\n      dup1\n      swap2\n      div\n      mul\n      0x20\n      add\n      mload(0x40)\n      swap1\n      dup2\n      add\n      0x40\n      mstore\n      dup1\n      swap3\n      swap2\n      swap1\n      dup2\n      dup2\n      mstore\n      0x20\n      add\n      dup3\n      dup1\n      sload\n      tag_59\n      swap1\n      tag_58\n      jump\t// in\n    tag_59:\n      dup1\n      iszero\n      tag_60\n      jumpi\n      dup1\n      0x1f\n      lt\n      tag_61\n      jumpi\n      0x0100\n      dup1\n      dup4\n      sload\n      div\n      mul\n      dup4\n      mstore\n      swap2\n      0x20\n      add\n      swap2\n      jump(tag_60)\n    tag_61:\n      dup3\n      add\n      swap2\n      swap1\n      0x00\n      mstore\n      keccak256(0x00, 0x20)\n      swap1\n    tag_62:\n      dup2\n      sload\n      dup2\n      mstore\n      swap1\n      0x01\n      add\n      swap1\n      0x20\n      add\n      dup1\n      dup4\n      gt\n      tag_62\n      jumpi\n      dup3\n      swap1\n      sub\n      0x1f\n      and\n      dup3\n      add\n      swap2\n    tag_60:\n      pop\n      pop\n      pop\n      pop\n      pop\n      swap1\n      dup1\n      0x01\n      add\n      dup1\n      sload\n      tag_63\n      swap1\n      tag_58\n      jump\t// in\n    tag_63:\n      dup1\n      0x1f\n      add\n      0x20\n      dup1\n      swap2\n      div\n      mul\n      0x20\n      add\n      mload(0x40)\n      swap1\n      dup2\n      add\n      0x40\n      mstore\n      dup1\n      swap3\n      swap2\n      swap1\n      dup2\n      dup2\n      mstore\n      0x20\n      add\n      dup3\n      dup1\n      sload\n      tag_64\n      swap1\n      tag_58\n      jump\t// in\n    tag_64:\n      dup1\n      iszero\n      tag_65\n      jumpi\n      dup1\n      0x1f\n      lt\n      tag_66\n      jumpi\n      0x0100\n      dup1\n      dup4\n      sload\n      div\n      mul\n      dup4\n      mstore\n      swap2\n      0x20\n      add\n      swap2\n      jump(tag_65)\n    tag_66:\n      dup3\n      add\n      swap2\n      swap1\n      0x00\n      mstore\n      keccak256(0x00, 0x20)\n      swap1\n    tag_67:\n      dup2\n      sload\n      dup2\n      mstore\n      swap1\n      0x01\n      add\n      swap1\n      0x20\n      add\n      dup1\n      dup4\n      gt\n      tag_67\n      jumpi\n      dup3\n      swap1\n      sub\n      0x1f\n      and\n      dup3\n      add\n      swap2\n    tag_65:\n      pop\n      pop\n      pop\n      pop\n      pop\n      swap1\n      dup1\n      0x02\n      add\n      0x00\n      swap1\n      sload\n      swap1\n      0x0100\n      exp\n      swap1\n      div\n      0xffffffffffffffffffffffffffffffffffffffff\n      and\n      swap1\n      dup1\n      0x03\n      add\n      sload\n      swap1\n      pop\n      dup5\n      jump\t// out\n        /* \"contracts/day9.sol\":1421:2468  function createPost(string memory title, string memory content) public {\r... */\n    tag_23:\n        /* \"contracts/day9.sol\":1502:1514  latestPostId */\n      0x00\n      dup1\n        /* \"contracts/day9.sol\":1502:1516  latestPostId++ */\n      dup2\n      sload\n      dup1\n      swap3\n      swap2\n      swap1\n      tag_69\n      swap1\n      tag_70\n      jump\t// in\n    tag_69:\n      swap2\n      swap1\n      pop\n      sstore\n      pop\n        /* \"contracts/day9.sol\":1583:1632  Post(title, content, msg.sender, block.timestamp) */\n      mload(0x40)\n      dup1\n      0x80\n      add\n      0x40\n      mstore\n      dup1\n        /* \"contracts/day9.sol\":1588:1593  title */\n      dup4\n        /* \"contracts/day9.sol\":1583:1632  Post(title, content, msg.sender, block.timestamp) */\n      dup2\n      mstore\n      0x20\n      add\n        /* \"contracts/day9.sol\":1595:1602  content */\n      dup3\n        /* \"contracts/day9.sol\":1583:1632  Post(title, content, msg.sender, block.timestamp) */\n      dup2\n      mstore\n      0x20\n      add\n        /* \"contracts/day9.sol\":1604:1614  msg.sender */\n      caller\n        /* \"contracts/day9.sol\":1583:1632  Post(title, content, msg.sender, block.timestamp) */\n      0xffffffffffffffffffffffffffffffffffffffff\n      and\n      dup2\n      mstore\n      0x20\n      add\n        /* \"contracts/day9.sol\":1616:1631  block.timestamp */\n      timestamp\n        /* \"contracts/day9.sol\":1583:1632  Post(title, content, msg.sender, block.timestamp) */\n      dup2\n      mstore\n      pop\n        /* \"contracts/day9.sol\":1561:1566  posts */\n      0x02\n        /* \"contracts/day9.sol\":1561:1580  posts[latestPostId] */\n      0x00\n        /* \"contracts/day9.sol\":1567:1579  latestPostId */\n      dup1\n      sload\n        /* \"contracts/day9.sol\":1561:1580  posts[latestPostId] */\n      dup2\n      mstore\n      0x20\n      add\n      swap1\n      dup2\n      mstore\n      0x20\n      add\n      0x00\n      keccak256\n        /* \"contracts/day9.sol\":1561:1632  posts[latestPostId] = Post(title, content, msg.sender, block.timestamp) */\n      0x00\n      dup3\n      add\n      mload\n      dup2\n      0x00\n      add\n      swap1\n      dup1\n      mload\n      swap1\n      0x20\n      add\n      swap1\n      tag_71\n      swap3\n      swap2\n      swap1\n      tag_72\n      jump\t// in\n    tag_71:\n      pop\n      0x20\n      dup3\n      add\n      mload\n      dup2\n      0x01\n      add\n      swap1\n      dup1\n      mload\n      swap1\n      0x20\n      add\n      swap1\n      tag_73\n      swap3\n      swap2\n      swap1\n      tag_72\n      jump\t// in\n    tag_73:\n      pop\n      0x40\n      dup3\n      add\n      mload\n      dup2\n      0x02\n      add\n      exp(0x0100, 0x00)\n      dup2\n      sload\n      dup2\n      0xffffffffffffffffffffffffffffffffffffffff\n      mul\n      not\n      and\n      swap1\n      dup4\n      0xffffffffffffffffffffffffffffffffffffffff\n      and\n      mul\n      or\n      swap1\n      sstore\n      pop\n      0x60\n      dup3\n      add\n      mload\n      dup2\n      0x03\n      add\n      sstore\n      swap1\n      pop\n      pop\n        /* \"contracts/day9.sol\":1937:1942  users */\n      0x01\n        /* \"contracts/day9.sol\":1937:1954  users[msg.sender] */\n      0x00\n        /* \"contracts/day9.sol\":1943:1953  msg.sender */\n      caller\n        /* \"contracts/day9.sol\":1937:1954  users[msg.sender] */\n      0xffffffffffffffffffffffffffffffffffffffff\n      and\n      0xffffffffffffffffffffffffffffffffffffffff\n      and\n      dup2\n      mstore\n      0x20\n      add\n      swap1\n      dup2\n      mstore\n      0x20\n      add\n      0x00\n      keccak256\n        /* \"contracts/day9.sol\":1937:1962  users[msg.sender].postIds */\n      0x02\n      add\n        /* \"contracts/day9.sol\":1968:1980  latestPostId */\n      sload(0x00)\n        /* \"contracts/day9.sol\":1937:1981  users[msg.sender].postIds.push(latestPostId) */\n      swap1\n      dup1\n      0x01\n      dup2\n      sload\n      add\n      dup1\n      dup3\n      sstore\n      dup1\n      swap2\n      pop\n      pop\n      0x01\n      swap1\n      sub\n      swap1\n      0x00\n      mstore\n      keccak256(0x00, 0x20)\n      add\n      0x00\n      swap1\n      swap2\n      swap1\n      swap2\n      swap1\n      swap2\n      pop\n      sstore\n        /* \"contracts/day9.sol\":2427:2437  msg.sender */\n      caller\n        /* \"contracts/day9.sol\":2419:2459  NewPost(msg.sender, latestPostId, title) */\n      0xffffffffffffffffffffffffffffffffffffffff\n      and\n      0xd8c86c7877c3f1f8a40af6cf64a11fe867af887f2a1ad31aac849e36730425b0\n        /* \"contracts/day9.sol\":2439:2451  latestPostId */\n      sload(0x00)\n        /* \"contracts/day9.sol\":2453:2458  title */\n      dup5\n        /* \"contracts/day9.sol\":2419:2459  NewPost(msg.sender, latestPostId, title) */\n      mload(0x40)\n      tag_75\n      swap3\n      swap2\n      swap1\n      tag_76\n      jump\t// in\n    tag_75:\n      mload(0x40)\n      dup1\n      swap2\n      sub\n      swap1\n      log2\n        /* \"contracts/day9.sol\":1421:2468  function createPost(string memory title, string memory content) public {\r... */\n      pop\n      pop\n      jump\t// out\n        /* \"contracts/day9.sol\":3935:4173  function getPostById(uint256 postId)\r... */\n    tag_26:\n        /* \"contracts/day9.sol\":4020:4039  string memory title */\n      0x60\n        /* \"contracts/day9.sol\":4041:4062  string memory content */\n      dup1\n        /* \"contracts/day9.sol\":4096:4101  posts */\n      0x02\n        /* \"contracts/day9.sol\":4096:4109  posts[postId] */\n      0x00\n        /* \"contracts/day9.sol\":4102:4108  postId */\n      dup5\n        /* \"contracts/day9.sol\":4096:4109  posts[postId] */\n      dup2\n      mstore\n      0x20\n      add\n      swap1\n      dup2\n      mstore\n      0x20\n      add\n      0x00\n      keccak256\n        /* \"contracts/day9.sol\":4096:4115  posts[postId].title */\n      0x00\n      add\n        /* \"contracts/day9.sol\":4088:4115  title = posts[postId].title */\n      dup1\n      sload\n      tag_78\n      swap1\n      tag_58\n      jump\t// in\n    tag_78:\n      dup1\n      0x1f\n      add\n      0x20\n      dup1\n      swap2\n      div\n      mul\n      0x20\n      add\n      mload(0x40)\n      swap1\n      dup2\n      add\n      0x40\n      mstore\n      dup1\n      swap3\n      swap2\n      swap1\n      dup2\n      dup2\n      mstore\n      0x20\n      add\n      dup3\n      dup1\n      sload\n      tag_79\n      swap1\n      tag_58\n      jump\t// in\n    tag_79:\n      dup1\n      iszero\n      tag_80\n      jumpi\n      dup1\n      0x1f\n      lt\n      tag_81\n      jumpi\n      0x0100\n      dup1\n      dup4\n      sload\n      div\n      mul\n      dup4\n      mstore\n      swap2\n      0x20\n      add\n      swap2\n      jump(tag_80)\n    tag_81:\n      dup3\n      add\n      swap2\n      swap1\n      0x00\n      mstore\n      keccak256(0x00, 0x20)\n      swap1\n    tag_82:\n      dup2\n      sload\n      dup2\n      mstore\n      swap1\n      0x01\n      add\n      swap1\n      0x20\n      add\n      dup1\n      dup4\n      gt\n      tag_82\n      jumpi\n      dup3\n      swap1\n      sub\n      0x1f\n      and\n      dup3\n      add\n      swap2\n    tag_80:\n      pop\n      pop\n      pop\n      pop\n      pop\n      swap2\n      pop\n        /* \"contracts/day9.sol\":4140:4145  posts */\n      0x02\n        /* \"contracts/day9.sol\":4140:4153  posts[postId] */\n      0x00\n        /* \"contracts/day9.sol\":4146:4152  postId */\n      dup5\n        /* \"contracts/day9.sol\":4140:4153  posts[postId] */\n      dup2\n      mstore\n      0x20\n      add\n      swap1\n      dup2\n      mstore\n      0x20\n      add\n      0x00\n      keccak256\n        /* \"contracts/day9.sol\":4140:4161  posts[postId].content */\n      0x01\n      add\n        /* \"contracts/day9.sol\":4130:4161  content = posts[postId].content */\n      dup1\n      sload\n      tag_83\n      swap1\n      tag_58\n      jump\t// in\n    tag_83:\n      dup1\n      0x1f\n      add\n      0x20\n      dup1\n      swap2\n      div\n      mul\n      0x20\n      add\n      mload(0x40)\n      swap1\n      dup2\n      add\n      0x40\n      mstore\n      dup1\n      swap3\n      swap2\n      swap1\n      dup2\n      dup2\n      mstore\n      0x20\n      add\n      dup3\n      dup1\n      sload\n      tag_84\n      swap1\n      tag_58\n      jump\t// in\n    tag_84:\n      dup1\n      iszero\n      tag_85\n      jumpi\n      dup1\n      0x1f\n      lt\n      tag_86\n      jumpi\n      0x0100\n      dup1\n      dup4\n      sload\n      div\n      mul\n      dup4\n      mstore\n      swap2\n      0x20\n      add\n      swap2\n      jump(tag_85)\n    tag_86:\n      dup3\n      add\n      swap2\n      swap1\n      0x00\n      mstore\n      keccak256(0x00, 0x20)\n      swap1\n    tag_87:\n      dup2\n      sload\n      dup2\n      mstore\n      swap1\n      0x01\n      add\n      swap1\n      0x20\n      add\n      dup1\n      dup4\n      gt\n      tag_87\n      jumpi\n      dup3\n      swap1\n      sub\n      0x1f\n      and\n      dup3\n      add\n      swap2\n    tag_85:\n      pop\n      pop\n      pop\n      pop\n      pop\n      swap1\n      pop\n        /* \"contracts/day9.sol\":3935:4173  function getPostById(uint256 postId)\r... */\n      swap2\n      pop\n      swap2\n      jump\t// out\n        /* \"contracts/day9.sol\":4308:4502  function getPostIdsByAuthor(address author)\r... */\n    tag_32:\n        /* \"contracts/day9.sol\":4412:4428  uint256[] memory */\n      0x60\n        /* \"contracts/day9.sol\":4465:4470  users */\n      0x01\n        /* \"contracts/day9.sol\":4465:4478  users[author] */\n      0x00\n        /* \"contracts/day9.sol\":4471:4477  author */\n      dup4\n        /* \"contracts/day9.sol\":4465:4478  users[author] */\n      0xffffffffffffffffffffffffffffffffffffffff\n      and\n      0xffffffffffffffffffffffffffffffffffffffff\n      and\n      dup2\n      mstore\n      0x20\n      add\n      swap1\n      dup2\n      mstore\n      0x20\n      add\n      0x00\n      keccak256\n        /* \"contracts/day9.sol\":4465:4486  users[author].postIds */\n      0x02\n      add\n        /* \"contracts/day9.sol\":4458:4486  return users[author].postIds */\n      dup1\n      sload\n      dup1\n      0x20\n      mul\n      0x20\n      add\n      mload(0x40)\n      swap1\n      dup2\n      add\n      0x40\n      mstore\n      dup1\n      swap3\n      swap2\n      swap1\n      dup2\n      dup2\n      mstore\n      0x20\n      add\n      dup3\n      dup1\n      sload\n      dup1\n      iszero\n      tag_89\n      jumpi\n      0x20\n      mul\n      dup3\n      add\n      swap2\n      swap1\n      0x00\n      mstore\n      keccak256(0x00, 0x20)\n      swap1\n    tag_90:\n      dup2\n      sload\n      dup2\n      mstore\n      0x20\n      add\n      swap1\n      0x01\n      add\n      swap1\n      dup1\n      dup4\n      gt\n      tag_90\n      jumpi\n    tag_89:\n      pop\n      pop\n      pop\n      pop\n      pop\n      swap1\n      pop\n        /* \"contracts/day9.sol\":4308:4502  function getPostIdsByAuthor(address author)\r... */\n      swap2\n      swap1\n      pop\n      jump\t// out\n        /* \"contracts/day9.sol\":3677:3772  function updateBio(string memory bio) public {\r... */\n    tag_38:\n        /* \"contracts/day9.sol\":3757:3760  bio */\n      dup1\n        /* \"contracts/day9.sol\":3733:3738  users */\n      0x01\n        /* \"contracts/day9.sol\":3733:3750  users[msg.sender] */\n      0x00\n        /* \"contracts/day9.sol\":3739:3749  msg.sender */\n      caller\n        /* \"contracts/day9.sol\":3733:3750  users[msg.sender] */\n      0xffffffffffffffffffffffffffffffffffffffff\n      and\n      0xffffffffffffffffffffffffffffffffffffffff\n      and\n      dup2\n      mstore\n      0x20\n      add\n      swap1\n      dup2\n      mstore\n      0x20\n      add\n      0x00\n      keccak256\n        /* \"contracts/day9.sol\":3733:3754  users[msg.sender].bio */\n      0x01\n      add\n        /* \"contracts/day9.sol\":3733:3760  users[msg.sender].bio = bio */\n      swap1\n      dup1\n      mload\n      swap1\n      0x20\n      add\n      swap1\n      tag_92\n      swap3\n      swap2\n      swap1\n      tag_72\n      jump\t// in\n    tag_92:\n      pop\n        /* \"contracts/day9.sol\":3677:3772  function updateBio(string memory bio) public {\r... */\n      pop\n      jump\t// out\n        /* \"contracts/day9.sol\":3001:3214  function modifyPostContent(uint256 postId, string memory content) public {\r... */\n    tag_42:\n        /* \"contracts/day9.sol\":3107:3112  posts */\n      0x02\n        /* \"contracts/day9.sol\":3107:3120  posts[postId] */\n      0x00\n        /* \"contracts/day9.sol\":3113:3119  postId */\n      dup4\n        /* \"contracts/day9.sol\":3107:3120  posts[postId] */\n      dup2\n      mstore\n      0x20\n      add\n      swap1\n      dup2\n      mstore\n      0x20\n      add\n      0x00\n      keccak256\n        /* \"contracts/day9.sol\":3107:3127  posts[postId].author */\n      0x02\n      add\n      0x00\n      swap1\n      sload\n      swap1\n      0x0100\n      exp\n      swap1\n      div\n      0xffffffffffffffffffffffffffffffffffffffff\n      and\n        /* \"contracts/day9.sol\":3093:3127  msg.sender == posts[postId].author */\n      0xffffffffffffffffffffffffffffffffffffffff\n      and\n        /* \"contracts/day9.sol\":3093:3103  msg.sender */\n      caller\n        /* \"contracts/day9.sol\":3093:3127  msg.sender == posts[postId].author */\n      0xffffffffffffffffffffffffffffffffffffffff\n      and\n      eq\n        /* \"contracts/day9.sol\":3085:3158  require(msg.sender == posts[postId].author, \"Only the author can modify\") */\n      tag_94\n      jumpi\n      mload(0x40)\n      0x08c379a000000000000000000000000000000000000000000000000000000000\n      dup2\n      mstore\n      0x04\n      add\n      tag_95\n      swap1\n      tag_96\n      jump\t// in\n    tag_95:\n      mload(0x40)\n      dup1\n      swap2\n      sub\n      swap1\n      revert\n    tag_94:\n        /* \"contracts/day9.sol\":3195:3202  content */\n      dup1\n        /* \"contracts/day9.sol\":3171:3176  posts */\n      0x02\n        /* \"contracts/day9.sol\":3171:3184  posts[postId] */\n      0x00\n        /* \"contracts/day9.sol\":3177:3183  postId */\n      dup5\n        /* \"contracts/day9.sol\":3171:3184  posts[postId] */\n      dup2\n      mstore\n      0x20\n      add\n      swap1\n      dup2\n      mstore\n      0x20\n      add\n      0x00\n      keccak256\n        /* \"contracts/day9.sol\":3171:3192  posts[postId].content */\n      0x01\n      add\n        /* \"contracts/day9.sol\":3171:3202  posts[postId].content = content */\n      swap1\n      dup1\n      mload\n      swap1\n      0x20\n      add\n      swap1\n      tag_97\n      swap3\n      swap2\n      swap1\n      tag_72\n      jump\t// in\n    tag_97:\n      pop\n        /* \"contracts/day9.sol\":3001:3214  function modifyPostContent(uint256 postId, string memory content) public {\r... */\n      pop\n      pop\n      jump\t// out\n        /* \"contracts/day9.sol\":2651:2852  function modifyPostTitle(uint256 postId, string memory title) public {\r... */\n    tag_45:\n        /* \"contracts/day9.sol\":2753:2758  posts */\n      0x02\n        /* \"contracts/day9.sol\":2753:2766  posts[postId] */\n      0x00\n        /* \"contracts/day9.sol\":2759:2765  postId */\n      dup4\n        /* \"contracts/day9.sol\":2753:2766  posts[postId] */\n      dup2\n      mstore\n      0x20\n      add\n      swap1\n      dup2\n      mstore\n      0x20\n      add\n      0x00\n      keccak256\n        /* \"contracts/day9.sol\":2753:2773  posts[postId].author */\n      0x02\n      add\n      0x00\n      swap1\n      sload\n      swap1\n      0x0100\n      exp\n      swap1\n      div\n      0xffffffffffffffffffffffffffffffffffffffff\n      and\n        /* \"contracts/day9.sol\":2739:2773  msg.sender == posts[postId].author */\n      0xffffffffffffffffffffffffffffffffffffffff\n      and\n        /* \"contracts/day9.sol\":2739:2749  msg.sender */\n      caller\n        /* \"contracts/day9.sol\":2739:2773  msg.sender == posts[postId].author */\n      0xffffffffffffffffffffffffffffffffffffffff\n      and\n      eq\n        /* \"contracts/day9.sol\":2731:2804  require(msg.sender == posts[postId].author, \"Only the author can modify\") */\n      tag_99\n      jumpi\n      mload(0x40)\n      0x08c379a000000000000000000000000000000000000000000000000000000000\n      dup2\n      mstore\n      0x04\n      add\n      tag_100\n      swap1\n      tag_96\n      jump\t// in\n    tag_100:\n      mload(0x40)\n      dup1\n      swap2\n      sub\n      swap1\n      revert\n    tag_99:\n        /* \"contracts/day9.sol\":2839:2844  title */\n      dup1\n        /* \"contracts/day9.sol\":2817:2822  posts */\n      0x02\n        /* \"contracts/day9.sol\":2817:2830  posts[postId] */\n      0x00\n        /* \"contracts/day9.sol\":2823:2829  postId */\n      dup5\n        /* \"contracts/day9.sol\":2817:2830  posts[postId] */\n      dup2\n      mstore\n      0x20\n      add\n      swap1\n      dup2\n      mstore\n      0x20\n      add\n      0x00\n      keccak256\n        /* \"contracts/day9.sol\":2817:2836  posts[postId].title */\n      0x00\n      add\n        /* \"contracts/day9.sol\":2817:2844  posts[postId].title = title */\n      swap1\n      dup1\n      mload\n      swap1\n      0x20\n      add\n      swap1\n      tag_101\n      swap3\n      swap2\n      swap1\n      tag_72\n      jump\t// in\n    tag_101:\n      pop\n        /* \"contracts/day9.sol\":2651:2852  function modifyPostTitle(uint256 postId, string memory title) public {\r... */\n      pop\n      pop\n      jump\t// out\n        /* \"contracts/day9.sol\":283:314  uint256 public latestPostId = 0 */\n    tag_47:\n      sload(0x00)\n      dup2\n      jump\t// out\n        /* \"contracts/day9.sol\":1054:1092  mapping (address => User) public users */\n    tag_52:\n      mstore(0x20, 0x01)\n      dup1\n      0x00\n      mstore\n      keccak256(0x00, 0x40)\n      0x00\n      swap2\n      pop\n      swap1\n      pop\n      dup1\n      0x00\n      add\n      dup1\n      sload\n      tag_102\n      swap1\n      tag_58\n      jump\t// in\n    tag_102:\n      dup1\n      0x1f\n      add\n      0x20\n      dup1\n      swap2\n      div\n      mul\n      0x20\n      add\n      mload(0x40)\n      swap1\n      dup2\n      add\n      0x40\n      mstore\n      dup1\n      swap3\n      swap2\n      swap1\n      dup2\n      dup2\n      mstore\n      0x20\n      add\n      dup3\n      dup1\n      sload\n      tag_103\n      swap1\n      tag_58\n      jump\t// in\n    tag_103:\n      dup1\n      iszero\n      tag_104\n      jumpi\n      dup1\n      0x1f\n      lt\n      tag_105\n      jumpi\n      0x0100\n      dup1\n      dup4\n      sload\n      div\n      mul\n      dup4\n      mstore\n      swap2\n      0x20\n      add\n      swap2\n      jump(tag_104)\n    tag_105:\n      dup3\n      add\n      swap2\n      swap1\n      0x00\n      mstore\n      keccak256(0x00, 0x20)\n      swap1\n    tag_106:\n      dup2\n      sload\n      dup2\n      mstore\n      swap1\n      0x01\n      add\n      swap1\n      0x20\n      add\n      dup1\n      dup4\n      gt\n      tag_106\n      jumpi\n      dup3\n      swap1\n      sub\n      0x1f\n      and\n      dup3\n      add\n      swap2\n    tag_104:\n      pop\n      pop\n      pop\n      pop\n      pop\n      swap1\n      dup1\n      0x01\n      add\n      dup1\n      sload\n      tag_107\n      swap1\n      tag_58\n      jump\t// in\n    tag_107:\n      dup1\n      0x1f\n      add\n      0x20\n      dup1\n      swap2\n      div\n      mul\n      0x20\n      add\n      mload(0x40)\n      swap1\n      dup2\n      add\n      0x40\n      mstore\n      dup1\n      swap3\n      swap2\n      swap1\n      dup2\n      dup2\n      mstore\n      0x20\n      add\n      dup3\n      dup1\n      sload\n      tag_108\n      swap1\n      tag_58\n      jump\t// in\n    tag_108:\n      dup1\n      iszero\n      tag_109\n      jumpi\n      dup1\n      0x1f\n      lt\n      tag_110\n      jumpi\n      0x0100\n      dup1\n      dup4\n      sload\n      div\n      mul\n      dup4\n      mstore\n      swap2\n      0x20\n      add\n      swap2\n      jump(tag_109)\n    tag_110:\n      dup3\n      add\n      swap2\n      swap1\n      0x00\n      mstore\n      keccak256(0x00, 0x20)\n      swap1\n    tag_111:\n      dup2\n      sload\n      dup2\n      mstore\n      swap1\n      0x01\n      add\n      swap1\n      0x20\n      add\n      dup1\n      dup4\n      gt\n      tag_111\n      jumpi\n      dup3\n      swap1\n      sub\n      0x1f\n      and\n      dup3\n      add\n      swap2\n    tag_109:\n      pop\n      pop\n      pop\n      pop\n      pop\n      swap1\n      pop\n      dup3\n      jump\t// out\n        /* \"contracts/day9.sol\":3419:3534  function updateUsername(string memory username) public {\r... */\n    tag_56:\n        /* \"contracts/day9.sol\":3514:3522  username */\n      dup1\n        /* \"contracts/day9.sol\":3485:3490  users */\n      0x01\n        /* \"contracts/day9.sol\":3485:3502  users[msg.sender] */\n      0x00\n        /* \"contracts/day9.sol\":3491:3501  msg.sender */\n      caller\n        /* \"contracts/day9.sol\":3485:3502  users[msg.sender] */\n      0xffffffffffffffffffffffffffffffffffffffff\n      and\n      0xffffffffffffffffffffffffffffffffffffffff\n      and\n      dup2\n      mstore\n      0x20\n      add\n      swap1\n      dup2\n      mstore\n      0x20\n      add\n      0x00\n      keccak256\n        /* \"contracts/day9.sol\":3485:3511  users[msg.sender].username */\n      0x00\n      add\n        /* \"contracts/day9.sol\":3485:3522  users[msg.sender].username = username */\n      swap1\n      dup1\n      mload\n      swap1\n      0x20\n      add\n      swap1\n      tag_113\n      swap3\n      swap2\n      swap1\n      tag_72\n      jump\t// in\n    tag_113:\n      pop\n        /* \"contracts/day9.sol\":3419:3534  function updateUsername(string memory username) public {\r... */\n      pop\n      jump\t// out\n    tag_72:\n      dup3\n      dup1\n      sload\n      tag_114\n      swap1\n      tag_58\n      jump\t// in\n    tag_114:\n      swap1\n      0x00\n      mstore\n      keccak256(0x00, 0x20)\n      swap1\n      0x1f\n      add\n      0x20\n      swap1\n      div\n      dup2\n      add\n      swap3\n      dup3\n      tag_116\n      jumpi\n      0x00\n      dup6\n      sstore\n      jump(tag_115)\n    tag_116:\n      dup3\n      0x1f\n      lt\n      tag_117\n      jumpi\n      dup1\n      mload\n      not(0xff)\n      and\n      dup4\n      dup1\n      add\n      or\n      dup6\n      sstore\n      jump(tag_115)\n    tag_117:\n      dup3\n      dup1\n      add\n      0x01\n      add\n      dup6\n      sstore\n      dup3\n      iszero\n      tag_115\n      jumpi\n      swap2\n      dup3\n      add\n    tag_118:\n      dup3\n      dup2\n      gt\n      iszero\n      tag_119\n      jumpi\n      dup3\n      mload\n      dup3\n      sstore\n      swap2\n      0x20\n      add\n      swap2\n      swap1\n      0x01\n      add\n      swap1\n      jump(tag_118)\n    tag_119:\n    tag_115:\n      pop\n      swap1\n      pop\n      tag_120\n      swap2\n      swap1\n      tag_121\n      jump\t// in\n    tag_120:\n      pop\n      swap1\n      jump\t// out\n    tag_121:\n    tag_122:\n      dup1\n      dup3\n      gt\n      iszero\n      tag_123\n      jumpi\n      0x00\n      dup2\n      0x00\n      swap1\n      sstore\n      pop\n      0x01\n      add\n      jump(tag_122)\n    tag_123:\n      pop\n      swap1\n      jump\t// out\n        /* \"#utility.yul\":7:419   */\n    tag_125:\n        /* \"#utility.yul\":85:90   */\n      0x00\n        /* \"#utility.yul\":110:176   */\n      tag_127\n        /* \"#utility.yul\":126:175   */\n      tag_128\n        /* \"#utility.yul\":168:174   */\n      dup5\n        /* \"#utility.yul\":126:175   */\n      tag_129\n      jump\t// in\n    tag_128:\n        /* \"#utility.yul\":110:176   */\n      tag_130\n      jump\t// in\n    tag_127:\n        /* \"#utility.yul\":101:176   */\n      swap1\n      pop\n        /* \"#utility.yul\":199:205   */\n      dup3\n        /* \"#utility.yul\":192:197   */\n      dup2\n        /* \"#utility.yul\":185:206   */\n      mstore\n        /* \"#utility.yul\":237:241   */\n      0x20\n        /* \"#utility.yul\":230:235   */\n      dup2\n        /* \"#utility.yul\":226:242   */\n      add\n        /* \"#utility.yul\":275:278   */\n      dup5\n        /* \"#utility.yul\":266:272   */\n      dup5\n        /* \"#utility.yul\":261:264   */\n      dup5\n        /* \"#utility.yul\":257:273   */\n      add\n        /* \"#utility.yul\":254:279   */\n      gt\n        /* \"#utility.yul\":251:363   */\n      iszero\n      tag_131\n      jumpi\n        /* \"#utility.yul\":282:361   */\n      tag_132\n      tag_133\n      jump\t// in\n    tag_132:\n        /* \"#utility.yul\":251:363   */\n    tag_131:\n        /* \"#utility.yul\":372:413   */\n      tag_134\n        /* \"#utility.yul\":406:412   */\n      dup5\n        /* \"#utility.yul\":401:404   */\n      dup3\n        /* \"#utility.yul\":396:399   */\n      dup6\n        /* \"#utility.yul\":372:413   */\n      tag_135\n      jump\t// in\n    tag_134:\n        /* \"#utility.yul\":91:419   */\n      pop\n        /* \"#utility.yul\":7:419   */\n      swap4\n      swap3\n      pop\n      pop\n      pop\n      jump\t// out\n        /* \"#utility.yul\":425:564   */\n    tag_136:\n        /* \"#utility.yul\":471:476   */\n      0x00\n        /* \"#utility.yul\":509:515   */\n      dup2\n        /* \"#utility.yul\":496:516   */\n      calldataload\n        /* \"#utility.yul\":487:516   */\n      swap1\n      pop\n        /* \"#utility.yul\":525:558   */\n      tag_138\n        /* \"#utility.yul\":552:557   */\n      dup2\n        /* \"#utility.yul\":525:558   */\n      tag_139\n      jump\t// in\n    tag_138:\n        /* \"#utility.yul\":425:564   */\n      swap3\n      swap2\n      pop\n      pop\n      jump\t// out\n        /* \"#utility.yul\":584:924   */\n    tag_140:\n        /* \"#utility.yul\":640:645   */\n      0x00\n        /* \"#utility.yul\":689:692   */\n      dup3\n        /* \"#utility.yul\":682:686   */\n      0x1f\n        /* \"#utility.yul\":674:680   */\n      dup4\n        /* \"#utility.yul\":670:687   */\n      add\n        /* \"#utility.yul\":666:693   */\n      slt\n        /* \"#utility.yul\":656:778   */\n      tag_142\n      jumpi\n        /* \"#utility.yul\":697:776   */\n      tag_143\n      tag_144\n      jump\t// in\n    tag_143:\n        /* \"#utility.yul\":656:778   */\n    tag_142:\n        /* \"#utility.yul\":814:820   */\n      dup2\n        /* \"#utility.yul\":801:821   */\n      calldataload\n        /* \"#utility.yul\":839:918   */\n      tag_145\n        /* \"#utility.yul\":914:917   */\n      dup5\n        /* \"#utility.yul\":906:912   */\n      dup3\n        /* \"#utility.yul\":899:903   */\n      0x20\n        /* \"#utility.yul\":891:897   */\n      dup7\n        /* \"#utility.yul\":887:904   */\n      add\n        /* \"#utility.yul\":839:918   */\n      tag_125\n      jump\t// in\n    tag_145:\n        /* \"#utility.yul\":830:918   */\n      swap2\n      pop\n        /* \"#utility.yul\":646:924   */\n      pop\n        /* \"#utility.yul\":584:924   */\n      swap3\n      swap2\n      pop\n      pop\n      jump\t// out\n        /* \"#utility.yul\":930:1069   */\n    tag_146:\n        /* \"#utility.yul\":976:981   */\n      0x00\n        /* \"#utility.yul\":1014:1020   */\n      dup2\n        /* \"#utility.yul\":1001:1021   */\n      calldataload\n        /* \"#utility.yul\":992:1021   */\n      swap1\n      pop\n        /* \"#utility.yul\":1030:1063   */\n      tag_148\n        /* \"#utility.yul\":1057:1062   */\n      dup2\n        /* \"#utility.yul\":1030:1063   */\n      tag_149\n      jump\t// in\n    tag_148:\n        /* \"#utility.yul\":930:1069   */\n      swap3\n      swap2\n      pop\n      pop\n      jump\t// out\n        /* \"#utility.yul\":1075:1404   */\n    tag_31:\n        /* \"#utility.yul\":1134:1140   */\n      0x00\n        /* \"#utility.yul\":1183:1185   */\n      0x20\n        /* \"#utility.yul\":1171:1180   */\n      dup3\n        /* \"#utility.yul\":1162:1169   */\n      dup5\n        /* \"#utility.yul\":1158:1181   */\n      sub\n        /* \"#utility.yul\":1154:1186   */\n      slt\n        /* \"#utility.yul\":1151:1270   */\n      iszero\n      tag_151\n      jumpi\n        /* \"#utility.yul\":1189:1268   */\n      tag_152\n      tag_153\n      jump\t// in\n    tag_152:\n        /* \"#utility.yul\":1151:1270   */\n    tag_151:\n        /* \"#utility.yul\":1309:1310   */\n      0x00\n        /* \"#utility.yul\":1334:1387   */\n      tag_154\n        /* \"#utility.yul\":1379:1386   */\n      dup5\n        /* \"#utility.yul\":1370:1376   */\n      dup3\n        /* \"#utility.yul\":1359:1368   */\n      dup6\n        /* \"#utility.yul\":1355:1377   */\n      add\n        /* \"#utility.yul\":1334:1387   */\n      tag_136\n      jump\t// in\n    tag_154:\n        /* \"#utility.yul\":1324:1387   */\n      swap2\n      pop\n        /* \"#utility.yul\":1280:1397   */\n      pop\n        /* \"#utility.yul\":1075:1404   */\n      swap3\n      swap2\n      pop\n      pop\n      jump\t// out\n        /* \"#utility.yul\":1410:1919   */\n    tag_37:\n        /* \"#utility.yul\":1479:1485   */\n      0x00\n        /* \"#utility.yul\":1528:1530   */\n      0x20\n        /* \"#utility.yul\":1516:1525   */\n      dup3\n        /* \"#utility.yul\":1507:1514   */\n      dup5\n        /* \"#utility.yul\":1503:1526   */\n      sub\n        /* \"#utility.yul\":1499:1531   */\n      slt\n        /* \"#utility.yul\":1496:1615   */\n      iszero\n      tag_156\n      jumpi\n        /* \"#utility.yul\":1534:1613   */\n      tag_157\n      tag_153\n      jump\t// in\n    tag_157:\n        /* \"#utility.yul\":1496:1615   */\n    tag_156:\n        /* \"#utility.yul\":1682:1683   */\n      0x00\n        /* \"#utility.yul\":1671:1680   */\n      dup3\n        /* \"#utility.yul\":1667:1684   */\n      add\n        /* \"#utility.yul\":1654:1685   */\n      calldataload\n        /* \"#utility.yul\":1712:1730   */\n      0xffffffffffffffff\n        /* \"#utility.yul\":1704:1710   */\n      dup2\n        /* \"#utility.yul\":1701:1731   */\n      gt\n        /* \"#utility.yul\":1698:1815   */\n      iszero\n      tag_158\n      jumpi\n        /* \"#utility.yul\":1734:1813   */\n      tag_159\n      tag_160\n      jump\t// in\n    tag_159:\n        /* \"#utility.yul\":1698:1815   */\n    tag_158:\n        /* \"#utility.yul\":1839:1902   */\n      tag_161\n        /* \"#utility.yul\":1894:1901   */\n      dup5\n        /* \"#utility.yul\":1885:1891   */\n      dup3\n        /* \"#utility.yul\":1874:1883   */\n      dup6\n        /* \"#utility.yul\":1870:1892   */\n      add\n        /* \"#utility.yul\":1839:1902   */\n      tag_140\n      jump\t// in\n    tag_161:\n        /* \"#utility.yul\":1829:1902   */\n      swap2\n      pop\n        /* \"#utility.yul\":1625:1912   */\n      pop\n        /* \"#utility.yul\":1410:1919   */\n      swap3\n      swap2\n      pop\n      pop\n      jump\t// out\n        /* \"#utility.yul\":1925:2759   */\n    tag_22:\n        /* \"#utility.yul\":2013:2019   */\n      0x00\n        /* \"#utility.yul\":2021:2027   */\n      dup1\n        /* \"#utility.yul\":2070:2072   */\n      0x40\n        /* \"#utility.yul\":2058:2067   */\n      dup4\n        /* \"#utility.yul\":2049:2056   */\n      dup6\n        /* \"#utility.yul\":2045:2068   */\n      sub\n        /* \"#utility.yul\":2041:2073   */\n      slt\n        /* \"#utility.yul\":2038:2157   */\n      iszero\n      tag_163\n      jumpi\n        /* \"#utility.yul\":2076:2155   */\n      tag_164\n      tag_153\n      jump\t// in\n    tag_164:\n        /* \"#utility.yul\":2038:2157   */\n    tag_163:\n        /* \"#utility.yul\":2224:2225   */\n      0x00\n        /* \"#utility.yul\":2213:2222   */\n      dup4\n        /* \"#utility.yul\":2209:2226   */\n      add\n        /* \"#utility.yul\":2196:2227   */\n      calldataload\n        /* \"#utility.yul\":2254:2272   */\n      0xffffffffffffffff\n        /* \"#utility.yul\":2246:2252   */\n      dup2\n        /* \"#utility.yul\":2243:2273   */\n      gt\n        /* \"#utility.yul\":2240:2357   */\n      iszero\n      tag_165\n      jumpi\n        /* \"#utility.yul\":2276:2355   */\n      tag_166\n      tag_160\n      jump\t// in\n    tag_166:\n        /* \"#utility.yul\":2240:2357   */\n    tag_165:\n        /* \"#utility.yul\":2381:2444   */\n      tag_167\n        /* \"#utility.yul\":2436:2443   */\n      dup6\n        /* \"#utility.yul\":2427:2433   */\n      dup3\n        /* \"#utility.yul\":2416:2425   */\n      dup7\n        /* \"#utility.yul\":2412:2434   */\n      add\n        /* \"#utility.yul\":2381:2444   */\n      tag_140\n      jump\t// in\n    tag_167:\n        /* \"#utility.yul\":2371:2444   */\n      swap3\n      pop\n        /* \"#utility.yul\":2167:2454   */\n      pop\n        /* \"#utility.yul\":2521:2523   */\n      0x20\n        /* \"#utility.yul\":2510:2519   */\n      dup4\n        /* \"#utility.yul\":2506:2524   */\n      add\n        /* \"#utility.yul\":2493:2525   */\n      calldataload\n        /* \"#utility.yul\":2552:2570   */\n      0xffffffffffffffff\n        /* \"#utility.yul\":2544:2550   */\n      dup2\n        /* \"#utility.yul\":2541:2571   */\n      gt\n        /* \"#utility.yul\":2538:2655   */\n      iszero\n      tag_168\n      jumpi\n        /* \"#utility.yul\":2574:2653   */\n      tag_169\n      tag_160\n      jump\t// in\n    tag_169:\n        /* \"#utility.yul\":2538:2655   */\n    tag_168:\n        /* \"#utility.yul\":2679:2742   */\n      tag_170\n        /* \"#utility.yul\":2734:2741   */\n      dup6\n        /* \"#utility.yul\":2725:2731   */\n      dup3\n        /* \"#utility.yul\":2714:2723   */\n      dup7\n        /* \"#utility.yul\":2710:2732   */\n      add\n        /* \"#utility.yul\":2679:2742   */\n      tag_140\n      jump\t// in\n    tag_170:\n        /* \"#utility.yul\":2669:2742   */\n      swap2\n      pop\n        /* \"#utility.yul\":2464:2752   */\n      pop\n        /* \"#utility.yul\":1925:2759   */\n      swap3\n      pop\n      swap3\n      swap1\n      pop\n      jump\t// out\n        /* \"#utility.yul\":2765:3094   */\n    tag_16:\n        /* \"#utility.yul\":2824:2830   */\n      0x00\n        /* \"#utility.yul\":2873:2875   */\n      0x20\n        /* \"#utility.yul\":2861:2870   */\n      dup3\n        /* \"#utility.yul\":2852:2859   */\n      dup5\n        /* \"#utility.yul\":2848:2871   */\n      sub\n        /* \"#utility.yul\":2844:2876   */\n      slt\n        /* \"#utility.yul\":2841:2960   */\n      iszero\n      tag_172\n      jumpi\n        /* \"#utility.yul\":2879:2958   */\n      tag_173\n      tag_153\n      jump\t// in\n    tag_173:\n        /* \"#utility.yul\":2841:2960   */\n    tag_172:\n        /* \"#utility.yul\":2999:3000   */\n      0x00\n        /* \"#utility.yul\":3024:3077   */\n      tag_174\n        /* \"#utility.yul\":3069:3076   */\n      dup5\n        /* \"#utility.yul\":3060:3066   */\n      dup3\n        /* \"#utility.yul\":3049:3058   */\n      dup6\n        /* \"#utility.yul\":3045:3067   */\n      add\n        /* \"#utility.yul\":3024:3077   */\n      tag_146\n      jump\t// in\n    tag_174:\n        /* \"#utility.yul\":3014:3077   */\n      swap2\n      pop\n        /* \"#utility.yul\":2970:3087   */\n      pop\n        /* \"#utility.yul\":2765:3094   */\n      swap3\n      swap2\n      pop\n      pop\n      jump\t// out\n        /* \"#utility.yul\":3100:3754   */\n    tag_41:\n        /* \"#utility.yul\":3178:3184   */\n      0x00\n        /* \"#utility.yul\":3186:3192   */\n      dup1\n        /* \"#utility.yul\":3235:3237   */\n      0x40\n        /* \"#utility.yul\":3223:3232   */\n      dup4\n        /* \"#utility.yul\":3214:3221   */\n      dup6\n        /* \"#utility.yul\":3210:3233   */\n      sub\n        /* \"#utility.yul\":3206:3238   */\n      slt\n        /* \"#utility.yul\":3203:3322   */\n      iszero\n      tag_176\n      jumpi\n        /* \"#utility.yul\":3241:3320   */\n      tag_177\n      tag_153\n      jump\t// in\n    tag_177:\n        /* \"#utility.yul\":3203:3322   */\n    tag_176:\n        /* \"#utility.yul\":3361:3362   */\n      0x00\n        /* \"#utility.yul\":3386:3439   */\n      tag_178\n        /* \"#utility.yul\":3431:3438   */\n      dup6\n        /* \"#utility.yul\":3422:3428   */\n      dup3\n        /* \"#utility.yul\":3411:3420   */\n      dup7\n        /* \"#utility.yul\":3407:3429   */\n      add\n        /* \"#utility.yul\":3386:3439   */\n      tag_146\n      jump\t// in\n    tag_178:\n        /* \"#utility.yul\":3376:3439   */\n      swap3\n      pop\n        /* \"#utility.yul\":3332:3449   */\n      pop\n        /* \"#utility.yul\":3516:3518   */\n      0x20\n        /* \"#utility.yul\":3505:3514   */\n      dup4\n        /* \"#utility.yul\":3501:3519   */\n      add\n        /* \"#utility.yul\":3488:3520   */\n      calldataload\n        /* \"#utility.yul\":3547:3565   */\n      0xffffffffffffffff\n        /* \"#utility.yul\":3539:3545   */\n      dup2\n        /* \"#utility.yul\":3536:3566   */\n      gt\n        /* \"#utility.yul\":3533:3650   */\n      iszero\n      tag_179\n      jumpi\n        /* \"#utility.yul\":3569:3648   */\n      tag_180\n      tag_160\n      jump\t// in\n    tag_180:\n        /* \"#utility.yul\":3533:3650   */\n    tag_179:\n        /* \"#utility.yul\":3674:3737   */\n      tag_181\n        /* \"#utility.yul\":3729:3736   */\n      dup6\n        /* \"#utility.yul\":3720:3726   */\n      dup3\n        /* \"#utility.yul\":3709:3718   */\n      dup7\n        /* \"#utility.yul\":3705:3727   */\n      add\n        /* \"#utility.yul\":3674:3737   */\n      tag_140\n      jump\t// in\n    tag_181:\n        /* \"#utility.yul\":3664:3737   */\n      swap2\n      pop\n        /* \"#utility.yul\":3459:3747   */\n      pop\n        /* \"#utility.yul\":3100:3754   */\n      swap3\n      pop\n      swap3\n      swap1\n      pop\n      jump\t// out\n        /* \"#utility.yul\":3760:3939   */\n    tag_182:\n        /* \"#utility.yul\":3829:3839   */\n      0x00\n        /* \"#utility.yul\":3850:3896   */\n      tag_184\n        /* \"#utility.yul\":3892:3895   */\n      dup4\n        /* \"#utility.yul\":3884:3890   */\n      dup4\n        /* \"#utility.yul\":3850:3896   */\n      tag_185\n      jump\t// in\n    tag_184:\n        /* \"#utility.yul\":3928:3932   */\n      0x20\n        /* \"#utility.yul\":3923:3926   */\n      dup4\n        /* \"#utility.yul\":3919:3933   */\n      add\n        /* \"#utility.yul\":3905:3933   */\n      swap1\n      pop\n        /* \"#utility.yul\":3760:3939   */\n      swap3\n      swap2\n      pop\n      pop\n      jump\t// out\n        /* \"#utility.yul\":3945:4063   */\n    tag_186:\n        /* \"#utility.yul\":4032:4056   */\n      tag_188\n        /* \"#utility.yul\":4050:4055   */\n      dup2\n        /* \"#utility.yul\":4032:4056   */\n      tag_189\n      jump\t// in\n    tag_188:\n        /* \"#utility.yul\":4027:4030   */\n      dup3\n        /* \"#utility.yul\":4020:4057   */\n      mstore\n        /* \"#utility.yul\":3945:4063   */\n      pop\n      pop\n      jump\t// out\n        /* \"#utility.yul\":4099:4831   */\n    tag_190:\n        /* \"#utility.yul\":4218:4221   */\n      0x00\n        /* \"#utility.yul\":4247:4301   */\n      tag_192\n        /* \"#utility.yul\":4295:4300   */\n      dup3\n        /* \"#utility.yul\":4247:4301   */\n      tag_193\n      jump\t// in\n    tag_192:\n        /* \"#utility.yul\":4317:4403   */\n      tag_194\n        /* \"#utility.yul\":4396:4402   */\n      dup2\n        /* \"#utility.yul\":4391:4394   */\n      dup6\n        /* \"#utility.yul\":4317:4403   */\n      tag_195\n      jump\t// in\n    tag_194:\n        /* \"#utility.yul\":4310:4403   */\n      swap4\n      pop\n        /* \"#utility.yul\":4427:4483   */\n      tag_196\n        /* \"#utility.yul\":4477:4482   */\n      dup4\n        /* \"#utility.yul\":4427:4483   */\n      tag_197\n      jump\t// in\n    tag_196:\n        /* \"#utility.yul\":4506:4513   */\n      dup1\n        /* \"#utility.yul\":4537:4538   */\n      0x00\n        /* \"#utility.yul\":4522:4806   */\n    tag_198:\n        /* \"#utility.yul\":4547:4553   */\n      dup4\n        /* \"#utility.yul\":4544:4545   */\n      dup2\n        /* \"#utility.yul\":4541:4554   */\n      lt\n        /* \"#utility.yul\":4522:4806   */\n      iszero\n      tag_200\n      jumpi\n        /* \"#utility.yul\":4623:4629   */\n      dup2\n        /* \"#utility.yul\":4617:4630   */\n      mload\n        /* \"#utility.yul\":4650:4713   */\n      tag_201\n        /* \"#utility.yul\":4709:4712   */\n      dup9\n        /* \"#utility.yul\":4694:4707   */\n      dup3\n        /* \"#utility.yul\":4650:4713   */\n      tag_182\n      jump\t// in\n    tag_201:\n        /* \"#utility.yul\":4643:4713   */\n      swap8\n      pop\n        /* \"#utility.yul\":4736:4796   */\n      tag_202\n        /* \"#utility.yul\":4789:4795   */\n      dup4\n        /* \"#utility.yul\":4736:4796   */\n      tag_203\n      jump\t// in\n    tag_202:\n        /* \"#utility.yul\":4726:4796   */\n      swap3\n      pop\n        /* \"#utility.yul\":4582:4806   */\n      pop\n        /* \"#utility.yul\":4569:4570   */\n      0x01\n        /* \"#utility.yul\":4566:4567   */\n      dup2\n        /* \"#utility.yul\":4562:4571   */\n      add\n        /* \"#utility.yul\":4557:4571   */\n      swap1\n      pop\n        /* \"#utility.yul\":4522:4806   */\n      jump(tag_198)\n    tag_200:\n        /* \"#utility.yul\":4526:4540   */\n      pop\n        /* \"#utility.yul\":4822:4825   */\n      dup6\n        /* \"#utility.yul\":4815:4825   */\n      swap4\n      pop\n        /* \"#utility.yul\":4223:4831   */\n      pop\n      pop\n      pop\n        /* \"#utility.yul\":4099:4831   */\n      swap3\n      swap2\n      pop\n      pop\n      jump\t// out\n        /* \"#utility.yul\":4837:5201   */\n    tag_204:\n        /* \"#utility.yul\":4925:4928   */\n      0x00\n        /* \"#utility.yul\":4953:4992   */\n      tag_206\n        /* \"#utility.yul\":4986:4991   */\n      dup3\n        /* \"#utility.yul\":4953:4992   */\n      tag_207\n      jump\t// in\n    tag_206:\n        /* \"#utility.yul\":5008:5079   */\n      tag_208\n        /* \"#utility.yul\":5072:5078   */\n      dup2\n        /* \"#utility.yul\":5067:5070   */\n      dup6\n        /* \"#utility.yul\":5008:5079   */\n      tag_209\n      jump\t// in\n    tag_208:\n        /* \"#utility.yul\":5001:5079   */\n      swap4\n      pop\n        /* \"#utility.yul\":5088:5140   */\n      tag_210\n        /* \"#utility.yul\":5133:5139   */\n      dup2\n        /* \"#utility.yul\":5128:5131   */\n      dup6\n        /* \"#utility.yul\":5121:5125   */\n      0x20\n        /* \"#utility.yul\":5114:5119   */\n      dup7\n        /* \"#utility.yul\":5110:5126   */\n      add\n        /* \"#utility.yul\":5088:5140   */\n      tag_211\n      jump\t// in\n    tag_210:\n        /* \"#utility.yul\":5165:5194   */\n      tag_212\n        /* \"#utility.yul\":5187:5193   */\n      dup2\n        /* \"#utility.yul\":5165:5194   */\n      tag_213\n      jump\t// in\n    tag_212:\n        /* \"#utility.yul\":5160:5163   */\n      dup5\n        /* \"#utility.yul\":5156:5195   */\n      add\n        /* \"#utility.yul\":5149:5195   */\n      swap2\n      pop\n        /* \"#utility.yul\":4929:5201   */\n      pop\n        /* \"#utility.yul\":4837:5201   */\n      swap3\n      swap2\n      pop\n      pop\n      jump\t// out\n        /* \"#utility.yul\":5207:5573   */\n    tag_214:\n        /* \"#utility.yul\":5349:5352   */\n      0x00\n        /* \"#utility.yul\":5370:5437   */\n      tag_216\n        /* \"#utility.yul\":5434:5436   */\n      0x1a\n        /* \"#utility.yul\":5429:5432   */\n      dup4\n        /* \"#utility.yul\":5370:5437   */\n      tag_209\n      jump\t// in\n    tag_216:\n        /* \"#utility.yul\":5363:5437   */\n      swap2\n      pop\n        /* \"#utility.yul\":5446:5539   */\n      tag_217\n        /* \"#utility.yul\":5535:5538   */\n      dup3\n        /* \"#utility.yul\":5446:5539   */\n      tag_218\n      jump\t// in\n    tag_217:\n        /* \"#utility.yul\":5564:5566   */\n      0x20\n        /* \"#utility.yul\":5559:5562   */\n      dup3\n        /* \"#utility.yul\":5555:5567   */\n      add\n        /* \"#utility.yul\":5548:5567   */\n      swap1\n      pop\n        /* \"#utility.yul\":5207:5573   */\n      swap2\n      swap1\n      pop\n      jump\t// out\n        /* \"#utility.yul\":5579:5687   */\n    tag_185:\n        /* \"#utility.yul\":5656:5680   */\n      tag_220\n        /* \"#utility.yul\":5674:5679   */\n      dup2\n        /* \"#utility.yul\":5656:5680   */\n      tag_221\n      jump\t// in\n    tag_220:\n        /* \"#utility.yul\":5651:5654   */\n      dup3\n        /* \"#utility.yul\":5644:5681   */\n      mstore\n        /* \"#utility.yul\":5579:5687   */\n      pop\n      pop\n      jump\t// out\n        /* \"#utility.yul\":5693:5811   */\n    tag_222:\n        /* \"#utility.yul\":5780:5804   */\n      tag_224\n        /* \"#utility.yul\":5798:5803   */\n      dup2\n        /* \"#utility.yul\":5780:5804   */\n      tag_221\n      jump\t// in\n    tag_224:\n        /* \"#utility.yul\":5775:5778   */\n      dup3\n        /* \"#utility.yul\":5768:5805   */\n      mstore\n        /* \"#utility.yul\":5693:5811   */\n      pop\n      pop\n      jump\t// out\n        /* \"#utility.yul\":5817:6190   */\n    tag_34:\n        /* \"#utility.yul\":5960:5964   */\n      0x00\n        /* \"#utility.yul\":5998:6000   */\n      0x20\n        /* \"#utility.yul\":5987:5996   */\n      dup3\n        /* \"#utility.yul\":5983:6001   */\n      add\n        /* \"#utility.yul\":5975:6001   */\n      swap1\n      pop\n        /* \"#utility.yul\":6047:6056   */\n      dup2\n        /* \"#utility.yul\":6041:6045   */\n      dup2\n        /* \"#utility.yul\":6037:6057   */\n      sub\n        /* \"#utility.yul\":6033:6034   */\n      0x00\n        /* \"#utility.yul\":6022:6031   */\n      dup4\n        /* \"#utility.yul\":6018:6035   */\n      add\n        /* \"#utility.yul\":6011:6058   */\n      mstore\n        /* \"#utility.yul\":6075:6183   */\n      tag_226\n        /* \"#utility.yul\":6178:6182   */\n      dup2\n        /* \"#utility.yul\":6169:6175   */\n      dup5\n        /* \"#utility.yul\":6075:6183   */\n      tag_190\n      jump\t// in\n    tag_226:\n        /* \"#utility.yul\":6067:6183   */\n      swap1\n      pop\n        /* \"#utility.yul\":5817:6190   */\n      swap3\n      swap2\n      pop\n      pop\n      jump\t// out\n        /* \"#utility.yul\":6196:6710   */\n    tag_28:\n        /* \"#utility.yul\":6357:6361   */\n      0x00\n        /* \"#utility.yul\":6395:6397   */\n      0x40\n        /* \"#utility.yul\":6384:6393   */\n      dup3\n        /* \"#utility.yul\":6380:6398   */\n      add\n        /* \"#utility.yul\":6372:6398   */\n      swap1\n      pop\n        /* \"#utility.yul\":6444:6453   */\n      dup2\n        /* \"#utility.yul\":6438:6442   */\n      dup2\n        /* \"#utility.yul\":6434:6454   */\n      sub\n        /* \"#utility.yul\":6430:6431   */\n      0x00\n        /* \"#utility.yul\":6419:6428   */\n      dup4\n        /* \"#utility.yul\":6415:6432   */\n      add\n        /* \"#utility.yul\":6408:6455   */\n      mstore\n        /* \"#utility.yul\":6472:6550   */\n      tag_228\n        /* \"#utility.yul\":6545:6549   */\n      dup2\n        /* \"#utility.yul\":6536:6542   */\n      dup6\n        /* \"#utility.yul\":6472:6550   */\n      tag_204\n      jump\t// in\n    tag_228:\n        /* \"#utility.yul\":6464:6550   */\n      swap1\n      pop\n        /* \"#utility.yul\":6597:6606   */\n      dup2\n        /* \"#utility.yul\":6591:6595   */\n      dup2\n        /* \"#utility.yul\":6587:6607   */\n      sub\n        /* \"#utility.yul\":6582:6584   */\n      0x20\n        /* \"#utility.yul\":6571:6580   */\n      dup4\n        /* \"#utility.yul\":6567:6585   */\n      add\n        /* \"#utility.yul\":6560:6608   */\n      mstore\n        /* \"#utility.yul\":6625:6703   */\n      tag_229\n        /* \"#utility.yul\":6698:6702   */\n      dup2\n        /* \"#utility.yul\":6689:6695   */\n      dup5\n        /* \"#utility.yul\":6625:6703   */\n      tag_204\n      jump\t// in\n    tag_229:\n        /* \"#utility.yul\":6617:6703   */\n      swap1\n      pop\n        /* \"#utility.yul\":6196:6710   */\n      swap4\n      swap3\n      pop\n      pop\n      pop\n      jump\t// out\n        /* \"#utility.yul\":6716:7451   */\n    tag_19:\n        /* \"#utility.yul\":6933:6937   */\n      0x00\n        /* \"#utility.yul\":6971:6974   */\n      0x80\n        /* \"#utility.yul\":6960:6969   */\n      dup3\n        /* \"#utility.yul\":6956:6975   */\n      add\n        /* \"#utility.yul\":6948:6975   */\n      swap1\n      pop\n        /* \"#utility.yul\":7021:7030   */\n      dup2\n        /* \"#utility.yul\":7015:7019   */\n      dup2\n        /* \"#utility.yul\":7011:7031   */\n      sub\n        /* \"#utility.yul\":7007:7008   */\n      0x00\n        /* \"#utility.yul\":6996:7005   */\n      dup4\n        /* \"#utility.yul\":6992:7009   */\n      add\n        /* \"#utility.yul\":6985:7032   */\n      mstore\n        /* \"#utility.yul\":7049:7127   */\n      tag_231\n        /* \"#utility.yul\":7122:7126   */\n      dup2\n        /* \"#utility.yul\":7113:7119   */\n      dup8\n        /* \"#utility.yul\":7049:7127   */\n      tag_204\n      jump\t// in\n    tag_231:\n        /* \"#utility.yul\":7041:7127   */\n      swap1\n      pop\n        /* \"#utility.yul\":7174:7183   */\n      dup2\n        /* \"#utility.yul\":7168:7172   */\n      dup2\n        /* \"#utility.yul\":7164:7184   */\n      sub\n        /* \"#utility.yul\":7159:7161   */\n      0x20\n        /* \"#utility.yul\":7148:7157   */\n      dup4\n        /* \"#utility.yul\":7144:7162   */\n      add\n        /* \"#utility.yul\":7137:7185   */\n      mstore\n        /* \"#utility.yul\":7202:7280   */\n      tag_232\n        /* \"#utility.yul\":7275:7279   */\n      dup2\n        /* \"#utility.yul\":7266:7272   */\n      dup7\n        /* \"#utility.yul\":7202:7280   */\n      tag_204\n      jump\t// in\n    tag_232:\n        /* \"#utility.yul\":7194:7280   */\n      swap1\n      pop\n        /* \"#utility.yul\":7290:7362   */\n      tag_233\n        /* \"#utility.yul\":7358:7360   */\n      0x40\n        /* \"#utility.yul\":7347:7356   */\n      dup4\n        /* \"#utility.yul\":7343:7361   */\n      add\n        /* \"#utility.yul\":7334:7340   */\n      dup6\n        /* \"#utility.yul\":7290:7362   */\n      tag_186\n      jump\t// in\n    tag_233:\n        /* \"#utility.yul\":7372:7444   */\n      tag_234\n        /* \"#utility.yul\":7440:7442   */\n      0x60\n        /* \"#utility.yul\":7429:7438   */\n      dup4\n        /* \"#utility.yul\":7425:7443   */\n      add\n        /* \"#utility.yul\":7416:7422   */\n      dup5\n        /* \"#utility.yul\":7372:7444   */\n      tag_222\n      jump\t// in\n    tag_234:\n        /* \"#utility.yul\":6716:7451   */\n      swap6\n      swap5\n      pop\n      pop\n      pop\n      pop\n      pop\n      jump\t// out\n        /* \"#utility.yul\":7457:7876   */\n    tag_96:\n        /* \"#utility.yul\":7623:7627   */\n      0x00\n        /* \"#utility.yul\":7661:7663   */\n      0x20\n        /* \"#utility.yul\":7650:7659   */\n      dup3\n        /* \"#utility.yul\":7646:7664   */\n      add\n        /* \"#utility.yul\":7638:7664   */\n      swap1\n      pop\n        /* \"#utility.yul\":7710:7719   */\n      dup2\n        /* \"#utility.yul\":7704:7708   */\n      dup2\n        /* \"#utility.yul\":7700:7720   */\n      sub\n        /* \"#utility.yul\":7696:7697   */\n      0x00\n        /* \"#utility.yul\":7685:7694   */\n      dup4\n        /* \"#utility.yul\":7681:7698   */\n      add\n        /* \"#utility.yul\":7674:7721   */\n      mstore\n        /* \"#utility.yul\":7738:7869   */\n      tag_236\n        /* \"#utility.yul\":7864:7868   */\n      dup2\n        /* \"#utility.yul\":7738:7869   */\n      tag_214\n      jump\t// in\n    tag_236:\n        /* \"#utility.yul\":7730:7869   */\n      swap1\n      pop\n        /* \"#utility.yul\":7457:7876   */\n      swap2\n      swap1\n      pop\n      jump\t// out\n        /* \"#utility.yul\":7882:8104   */\n    tag_49:\n        /* \"#utility.yul\":7975:7979   */\n      0x00\n        /* \"#utility.yul\":8013:8015   */\n      0x20\n        /* \"#utility.yul\":8002:8011   */\n      dup3\n        /* \"#utility.yul\":7998:8016   */\n      add\n        /* \"#utility.yul\":7990:8016   */\n      swap1\n      pop\n        /* \"#utility.yul\":8026:8097   */\n      tag_238\n        /* \"#utility.yul\":8094:8095   */\n      0x00\n        /* \"#utility.yul\":8083:8092   */\n      dup4\n        /* \"#utility.yul\":8079:8096   */\n      add\n        /* \"#utility.yul\":8070:8076   */\n      dup5\n        /* \"#utility.yul\":8026:8097   */\n      tag_222\n      jump\t// in\n    tag_238:\n        /* \"#utility.yul\":7882:8104   */\n      swap3\n      swap2\n      pop\n      pop\n      jump\t// out\n        /* \"#utility.yul\":8110:8533   */\n    tag_76:\n        /* \"#utility.yul\":8251:8255   */\n      0x00\n        /* \"#utility.yul\":8289:8291   */\n      0x40\n        /* \"#utility.yul\":8278:8287   */\n      dup3\n        /* \"#utility.yul\":8274:8292   */\n      add\n        /* \"#utility.yul\":8266:8292   */\n      swap1\n      pop\n        /* \"#utility.yul\":8302:8373   */\n      tag_240\n        /* \"#utility.yul\":8370:8371   */\n      0x00\n        /* \"#utility.yul\":8359:8368   */\n      dup4\n        /* \"#utility.yul\":8355:8372   */\n      add\n        /* \"#utility.yul\":8346:8352   */\n      dup6\n        /* \"#utility.yul\":8302:8373   */\n      tag_222\n      jump\t// in\n    tag_240:\n        /* \"#utility.yul\":8420:8429   */\n      dup2\n        /* \"#utility.yul\":8414:8418   */\n      dup2\n        /* \"#utility.yul\":8410:8430   */\n      sub\n        /* \"#utility.yul\":8405:8407   */\n      0x20\n        /* \"#utility.yul\":8394:8403   */\n      dup4\n        /* \"#utility.yul\":8390:8408   */\n      add\n        /* \"#utility.yul\":8383:8431   */\n      mstore\n        /* \"#utility.yul\":8448:8526   */\n      tag_241\n        /* \"#utility.yul\":8521:8525   */\n      dup2\n        /* \"#utility.yul\":8512:8518   */\n      dup5\n        /* \"#utility.yul\":8448:8526   */\n      tag_204\n      jump\t// in\n    tag_241:\n        /* \"#utility.yul\":8440:8526   */\n      swap1\n      pop\n        /* \"#utility.yul\":8110:8533   */\n      swap4\n      swap3\n      pop\n      pop\n      pop\n      jump\t// out\n        /* \"#utility.yul\":8539:8668   */\n    tag_130:\n        /* \"#utility.yul\":8573:8579   */\n      0x00\n        /* \"#utility.yul\":8600:8620   */\n      tag_243\n      tag_244\n      jump\t// in\n    tag_243:\n        /* \"#utility.yul\":8590:8620   */\n      swap1\n      pop\n        /* \"#utility.yul\":8629:8662   */\n      tag_245\n        /* \"#utility.yul\":8657:8661   */\n      dup3\n        /* \"#utility.yul\":8649:8655   */\n      dup3\n        /* \"#utility.yul\":8629:8662   */\n      tag_246\n      jump\t// in\n    tag_245:\n        /* \"#utility.yul\":8539:8668   */\n      swap2\n      swap1\n      pop\n      jump\t// out\n        /* \"#utility.yul\":8674:8749   */\n    tag_244:\n        /* \"#utility.yul\":8707:8713   */\n      0x00\n        /* \"#utility.yul\":8740:8742   */\n      0x40\n        /* \"#utility.yul\":8734:8743   */\n      mload\n        /* \"#utility.yul\":8724:8743   */\n      swap1\n      pop\n        /* \"#utility.yul\":8674:8749   */\n      swap1\n      jump\t// out\n        /* \"#utility.yul\":8755:9063   */\n    tag_129:\n        /* \"#utility.yul\":8817:8821   */\n      0x00\n        /* \"#utility.yul\":8907:8925   */\n      0xffffffffffffffff\n        /* \"#utility.yul\":8899:8905   */\n      dup3\n        /* \"#utility.yul\":8896:8926   */\n      gt\n        /* \"#utility.yul\":8893:8949   */\n      iszero\n      tag_249\n      jumpi\n        /* \"#utility.yul\":8929:8947   */\n      tag_250\n      tag_251\n      jump\t// in\n    tag_250:\n        /* \"#utility.yul\":8893:8949   */\n    tag_249:\n        /* \"#utility.yul\":8967:8996   */\n      tag_252\n        /* \"#utility.yul\":8989:8995   */\n      dup3\n        /* \"#utility.yul\":8967:8996   */\n      tag_213\n      jump\t// in\n    tag_252:\n        /* \"#utility.yul\":8959:8996   */\n      swap1\n      pop\n        /* \"#utility.yul\":9051:9055   */\n      0x20\n        /* \"#utility.yul\":9045:9049   */\n      dup2\n        /* \"#utility.yul\":9041:9056   */\n      add\n        /* \"#utility.yul\":9033:9056   */\n      swap1\n      pop\n        /* \"#utility.yul\":8755:9063   */\n      swap2\n      swap1\n      pop\n      jump\t// out\n        /* \"#utility.yul\":9069:9201   */\n    tag_197:\n        /* \"#utility.yul\":9136:9140   */\n      0x00\n        /* \"#utility.yul\":9159:9162   */\n      dup2\n        /* \"#utility.yul\":9151:9162   */\n      swap1\n      pop\n        /* \"#utility.yul\":9189:9193   */\n      0x20\n        /* \"#utility.yul\":9184:9187   */\n      dup3\n        /* \"#utility.yul\":9180:9194   */\n      add\n        /* \"#utility.yul\":9172:9194   */\n      swap1\n      pop\n        /* \"#utility.yul\":9069:9201   */\n      swap2\n      swap1\n      pop\n      jump\t// out\n        /* \"#utility.yul\":9207:9321   */\n    tag_193:\n        /* \"#utility.yul\":9274:9280   */\n      0x00\n        /* \"#utility.yul\":9308:9313   */\n      dup2\n        /* \"#utility.yul\":9302:9314   */\n      mload\n        /* \"#utility.yul\":9292:9314   */\n      swap1\n      pop\n        /* \"#utility.yul\":9207:9321   */\n      swap2\n      swap1\n      pop\n      jump\t// out\n        /* \"#utility.yul\":9327:9426   */\n    tag_207:\n        /* \"#utility.yul\":9379:9385   */\n      0x00\n        /* \"#utility.yul\":9413:9418   */\n      dup2\n        /* \"#utility.yul\":9407:9419   */\n      mload\n        /* \"#utility.yul\":9397:9419   */\n      swap1\n      pop\n        /* \"#utility.yul\":9327:9426   */\n      swap2\n      swap1\n      pop\n      jump\t// out\n        /* \"#utility.yul\":9432:9545   */\n    tag_203:\n        /* \"#utility.yul\":9502:9506   */\n      0x00\n        /* \"#utility.yul\":9534:9538   */\n      0x20\n        /* \"#utility.yul\":9529:9532   */\n      dup3\n        /* \"#utility.yul\":9525:9539   */\n      add\n        /* \"#utility.yul\":9517:9539   */\n      swap1\n      pop\n        /* \"#utility.yul\":9432:9545   */\n      swap2\n      swap1\n      pop\n      jump\t// out\n        /* \"#utility.yul\":9551:9735   */\n    tag_195:\n        /* \"#utility.yul\":9650:9661   */\n      0x00\n        /* \"#utility.yul\":9684:9690   */\n      dup3\n        /* \"#utility.yul\":9679:9682   */\n      dup3\n        /* \"#utility.yul\":9672:9691   */\n      mstore\n        /* \"#utility.yul\":9724:9728   */\n      0x20\n        /* \"#utility.yul\":9719:9722   */\n      dup3\n        /* \"#utility.yul\":9715:9729   */\n      add\n        /* \"#utility.yul\":9700:9729   */\n      swap1\n      pop\n        /* \"#utility.yul\":9551:9735   */\n      swap3\n      swap2\n      pop\n      pop\n      jump\t// out\n        /* \"#utility.yul\":9741:9910   */\n    tag_209:\n        /* \"#utility.yul\":9825:9836   */\n      0x00\n        /* \"#utility.yul\":9859:9865   */\n      dup3\n        /* \"#utility.yul\":9854:9857   */\n      dup3\n        /* \"#utility.yul\":9847:9866   */\n      mstore\n        /* \"#utility.yul\":9899:9903   */\n      0x20\n        /* \"#utility.yul\":9894:9897   */\n      dup3\n        /* \"#utility.yul\":9890:9904   */\n      add\n        /* \"#utility.yul\":9875:9904   */\n      swap1\n      pop\n        /* \"#utility.yul\":9741:9910   */\n      swap3\n      swap2\n      pop\n      pop\n      jump\t// out\n        /* \"#utility.yul\":9916:10012   */\n    tag_189:\n        /* \"#utility.yul\":9953:9960   */\n      0x00\n        /* \"#utility.yul\":9982:10006   */\n      tag_260\n        /* \"#utility.yul\":10000:10005   */\n      dup3\n        /* \"#utility.yul\":9982:10006   */\n      tag_261\n      jump\t// in\n    tag_260:\n        /* \"#utility.yul\":9971:10006   */\n      swap1\n      pop\n        /* \"#utility.yul\":9916:10012   */\n      swap2\n      swap1\n      pop\n      jump\t// out\n        /* \"#utility.yul\":10018:10144   */\n    tag_261:\n        /* \"#utility.yul\":10055:10062   */\n      0x00\n        /* \"#utility.yul\":10095:10137   */\n      0xffffffffffffffffffffffffffffffffffffffff\n        /* \"#utility.yul\":10088:10093   */\n      dup3\n        /* \"#utility.yul\":10084:10138   */\n      and\n        /* \"#utility.yul\":10073:10138   */\n      swap1\n      pop\n        /* \"#utility.yul\":10018:10144   */\n      swap2\n      swap1\n      pop\n      jump\t// out\n        /* \"#utility.yul\":10150:10227   */\n    tag_221:\n        /* \"#utility.yul\":10187:10194   */\n      0x00\n        /* \"#utility.yul\":10216:10221   */\n      dup2\n        /* \"#utility.yul\":10205:10221   */\n      swap1\n      pop\n        /* \"#utility.yul\":10150:10227   */\n      swap2\n      swap1\n      pop\n      jump\t// out\n        /* \"#utility.yul\":10233:10387   */\n    tag_135:\n        /* \"#utility.yul\":10317:10323   */\n      dup3\n        /* \"#utility.yul\":10312:10315   */\n      dup2\n        /* \"#utility.yul\":10307:10310   */\n      dup4\n        /* \"#utility.yul\":10294:10324   */\n      calldatacopy\n        /* \"#utility.yul\":10379:10380   */\n      0x00\n        /* \"#utility.yul\":10370:10376   */\n      dup4\n        /* \"#utility.yul\":10365:10368   */\n      dup4\n        /* \"#utility.yul\":10361:10377   */\n      add\n        /* \"#utility.yul\":10354:10381   */\n      mstore\n        /* \"#utility.yul\":10233:10387   */\n      pop\n      pop\n      pop\n      jump\t// out\n        /* \"#utility.yul\":10393:10700   */\n    tag_211:\n        /* \"#utility.yul\":10461:10462   */\n      0x00\n        /* \"#utility.yul\":10471:10584   */\n    tag_266:\n        /* \"#utility.yul\":10485:10491   */\n      dup4\n        /* \"#utility.yul\":10482:10483   */\n      dup2\n        /* \"#utility.yul\":10479:10492   */\n      lt\n        /* \"#utility.yul\":10471:10584   */\n      iszero\n      tag_268\n      jumpi\n        /* \"#utility.yul\":10570:10571   */\n      dup1\n        /* \"#utility.yul\":10565:10568   */\n      dup3\n        /* \"#utility.yul\":10561:10572   */\n      add\n        /* \"#utility.yul\":10555:10573   */\n      mload\n        /* \"#utility.yul\":10551:10552   */\n      dup2\n        /* \"#utility.yul\":10546:10549   */\n      dup5\n        /* \"#utility.yul\":10542:10553   */\n      add\n        /* \"#utility.yul\":10535:10574   */\n      mstore\n        /* \"#utility.yul\":10507:10509   */\n      0x20\n        /* \"#utility.yul\":10504:10505   */\n      dup2\n        /* \"#utility.yul\":10500:10510   */\n      add\n        /* \"#utility.yul\":10495:10510   */\n      swap1\n      pop\n        /* \"#utility.yul\":10471:10584   */\n      jump(tag_266)\n    tag_268:\n        /* \"#utility.yul\":10602:10608   */\n      dup4\n        /* \"#utility.yul\":10599:10600   */\n      dup2\n        /* \"#utility.yul\":10596:10609   */\n      gt\n        /* \"#utility.yul\":10593:10694   */\n      iszero\n      tag_269\n      jumpi\n        /* \"#utility.yul\":10682:10683   */\n      0x00\n        /* \"#utility.yul\":10673:10679   */\n      dup5\n        /* \"#utility.yul\":10668:10671   */\n      dup5\n        /* \"#utility.yul\":10664:10680   */\n      add\n        /* \"#utility.yul\":10657:10684   */\n      mstore\n        /* \"#utility.yul\":10593:10694   */\n    tag_269:\n        /* \"#utility.yul\":10442:10700   */\n      pop\n        /* \"#utility.yul\":10393:10700   */\n      pop\n      pop\n      pop\n      jump\t// out\n        /* \"#utility.yul\":10706:11026   */\n    tag_58:\n        /* \"#utility.yul\":10750:10756   */\n      0x00\n        /* \"#utility.yul\":10787:10788   */\n      0x02\n        /* \"#utility.yul\":10781:10785   */\n      dup3\n        /* \"#utility.yul\":10777:10789   */\n      div\n        /* \"#utility.yul\":10767:10789   */\n      swap1\n      pop\n        /* \"#utility.yul\":10834:10835   */\n      0x01\n        /* \"#utility.yul\":10828:10832   */\n      dup3\n        /* \"#utility.yul\":10824:10836   */\n      and\n        /* \"#utility.yul\":10855:10873   */\n      dup1\n        /* \"#utility.yul\":10845:10926   */\n      tag_271\n      jumpi\n        /* \"#utility.yul\":10911:10915   */\n      0x7f\n        /* \"#utility.yul\":10903:10909   */\n      dup3\n        /* \"#utility.yul\":10899:10916   */\n      and\n        /* \"#utility.yul\":10889:10916   */\n      swap2\n      pop\n        /* \"#utility.yul\":10845:10926   */\n    tag_271:\n        /* \"#utility.yul\":10973:10975   */\n      0x20\n        /* \"#utility.yul\":10965:10971   */\n      dup3\n        /* \"#utility.yul\":10962:10976   */\n      lt\n        /* \"#utility.yul\":10942:10960   */\n      dup2\n        /* \"#utility.yul\":10939:10977   */\n      eq\n        /* \"#utility.yul\":10936:11020   */\n      iszero\n      tag_272\n      jumpi\n        /* \"#utility.yul\":10992:11010   */\n      tag_273\n      tag_274\n      jump\t// in\n    tag_273:\n        /* \"#utility.yul\":10936:11020   */\n    tag_272:\n        /* \"#utility.yul\":10757:11026   */\n      pop\n        /* \"#utility.yul\":10706:11026   */\n      swap2\n      swap1\n      pop\n      jump\t// out\n        /* \"#utility.yul\":11032:11313   */\n    tag_246:\n        /* \"#utility.yul\":11115:11142   */\n      tag_276\n        /* \"#utility.yul\":11137:11141   */\n      dup3\n        /* \"#utility.yul\":11115:11142   */\n      tag_213\n      jump\t// in\n    tag_276:\n        /* \"#utility.yul\":11107:11113   */\n      dup2\n        /* \"#utility.yul\":11103:11143   */\n      add\n        /* \"#utility.yul\":11245:11251   */\n      dup2\n        /* \"#utility.yul\":11233:11243   */\n      dup2\n        /* \"#utility.yul\":11230:11252   */\n      lt\n        /* \"#utility.yul\":11209:11227   */\n      0xffffffffffffffff\n        /* \"#utility.yul\":11197:11207   */\n      dup3\n        /* \"#utility.yul\":11194:11228   */\n      gt\n        /* \"#utility.yul\":11191:11253   */\n      or\n        /* \"#utility.yul\":11188:11276   */\n      iszero\n      tag_277\n      jumpi\n        /* \"#utility.yul\":11256:11274   */\n      tag_278\n      tag_251\n      jump\t// in\n    tag_278:\n        /* \"#utility.yul\":11188:11276   */\n    tag_277:\n        /* \"#utility.yul\":11296:11306   */\n      dup1\n        /* \"#utility.yul\":11292:11294   */\n      0x40\n        /* \"#utility.yul\":11285:11307   */\n      mstore\n        /* \"#utility.yul\":11075:11313   */\n      pop\n        /* \"#utility.yul\":11032:11313   */\n      pop\n      pop\n      jump\t// out\n        /* \"#utility.yul\":11319:11552   */\n    tag_70:\n        /* \"#utility.yul\":11358:11361   */\n      0x00\n        /* \"#utility.yul\":11381:11405   */\n      tag_280\n        /* \"#utility.yul\":11399:11404   */\n      dup3\n        /* \"#utility.yul\":11381:11405   */\n      tag_221\n      jump\t// in\n    tag_280:\n        /* \"#utility.yul\":11372:11405   */\n      swap2\n      pop\n        /* \"#utility.yul\":11427:11493   */\n      0xffffffffffffffffffffffffffffffffffffffffffffffffffffffffffffffff\n        /* \"#utility.yul\":11420:11425   */\n      dup3\n        /* \"#utility.yul\":11417:11494   */\n      eq\n        /* \"#utility.yul\":11414:11517   */\n      iszero\n      tag_281\n      jumpi\n        /* \"#utility.yul\":11497:11515   */\n      tag_282\n      tag_283\n      jump\t// in\n    tag_282:\n        /* \"#utility.yul\":11414:11517   */\n    tag_281:\n        /* \"#utility.yul\":11544:11545   */\n      0x01\n        /* \"#utility.yul\":11537:11542   */\n      dup3\n        /* \"#utility.yul\":11533:11546   */\n      add\n        /* \"#utility.yul\":11526:11546   */\n      swap1\n      pop\n        /* \"#utility.yul\":11319:11552   */\n      swap2\n      swap1\n      pop\n      jump\t// out\n        /* \"#utility.yul\":11558:11738   */\n    tag_283:\n        /* \"#utility.yul\":11606:11683   */\n      0x4e487b7100000000000000000000000000000000000000000000000000000000\n        /* \"#utility.yul\":11603:11604   */\n      0x00\n        /* \"#utility.yul\":11596:11684   */\n      mstore\n        /* \"#utility.yul\":11703:11707   */\n      0x11\n        /* \"#utility.yul\":11700:11701   */\n      0x04\n        /* \"#utility.yul\":11693:11708   */\n      mstore\n        /* \"#utility.yul\":11727:11731   */\n      0x24\n        /* \"#utility.yul\":11724:11725   */\n      0x00\n        /* \"#utility.yul\":11717:11732   */\n      revert\n        /* \"#utility.yul\":11744:11924   */\n    tag_274:\n        /* \"#utility.yul\":11792:11869   */\n      0x4e487b7100000000000000000000000000000000000000000000000000000000\n        /* \"#utility.yul\":11789:11790   */\n      0x00\n        /* \"#utility.yul\":11782:11870   */\n      mstore\n        /* \"#utility.yul\":11889:11893   */\n      0x22\n        /* \"#utility.yul\":11886:11887   */\n      0x04\n        /* \"#utility.yul\":11879:11894   */\n      mstore\n        /* \"#utility.yul\":11913:11917   */\n      0x24\n        /* \"#utility.yul\":11910:11911   */\n      0x00\n        /* \"#utility.yul\":11903:11918   */\n      revert\n        /* \"#utility.yul\":11930:12110   */\n    tag_251:\n        /* \"#utility.yul\":11978:12055   */\n      0x4e487b7100000000000000000000000000000000000000000000000000000000\n        /* \"#utility.yul\":11975:11976   */\n      0x00\n        /* \"#utility.yul\":11968:12056   */\n      mstore\n        /* \"#utility.yul\":12075:12079   */\n      0x41\n        /* \"#utility.yul\":12072:12073   */\n      0x04\n        /* \"#utility.yul\":12065:12080   */\n      mstore\n        /* \"#utility.yul\":12099:12103   */\n      0x24\n        /* \"#utility.yul\":12096:12097   */\n      0x00\n        /* \"#utility.yul\":12089:12104   */\n      revert\n        /* \"#utility.yul\":12116:12233   */\n    tag_144:\n        /* \"#utility.yul\":12225:12226   */\n      0x00\n        /* \"#utility.yul\":12222:12223   */\n      dup1\n        /* \"#utility.yul\":12215:12227   */\n      revert\n        /* \"#utility.yul\":12239:12356   */\n    tag_133:\n        /* \"#utility.yul\":12348:12349   */\n      0x00\n        /* \"#utility.yul\":12345:12346   */\n      dup1\n        /* \"#utility.yul\":12338:12350   */\n      revert\n        /* \"#utility.yul\":12362:12479   */\n    tag_160:\n        /* \"#utility.yul\":12471:12472   */\n      0x00\n        /* \"#utility.yul\":12468:12469   */\n      dup1\n        /* \"#utility.yul\":12461:12473   */\n      revert\n        /* \"#utility.yul\":12485:12602   */\n    tag_153:\n        /* \"#utility.yul\":12594:12595   */\n      0x00\n        /* \"#utility.yul\":12591:12592   */\n      dup1\n        /* \"#utility.yul\":12584:12596   */\n      revert\n        /* \"#utility.yul\":12608:12710   */\n    tag_213:\n        /* \"#utility.yul\":12649:12655   */\n      0x00\n        /* \"#utility.yul\":12700:12702   */\n      0x1f\n        /* \"#utility.yul\":12696:12703   */\n      not\n        /* \"#utility.yul\":12691:12693   */\n      0x1f\n        /* \"#utility.yul\":12684:12689   */\n      dup4\n        /* \"#utility.yul\":12680:12694   */\n      add\n        /* \"#utility.yul\":12676:12704   */\n      and\n        /* \"#utility.yul\":12666:12704   */\n      swap1\n      pop\n        /* \"#utility.yul\":12608:12710   */\n      swap2\n      swap1\n      pop\n      jump\t// out\n        /* \"#utility.yul\":12716:12892   */\n    tag_218:\n        /* \"#utility.yul\":12856:12884   */\n      0x4f6e6c792074686520617574686f722063616e206d6f64696679000000000000\n        /* \"#utility.yul\":12852:12853   */\n      0x00\n        /* \"#utility.yul\":12844:12850   */\n      dup3\n        /* \"#utility.yul\":12840:12854   */\n      add\n        /* \"#utility.yul\":12833:12885   */\n      mstore\n        /* \"#utility.yul\":12716:12892   */\n      pop\n      jump\t// out\n        /* \"#utility.yul\":12898:13020   */\n    tag_139:\n        /* \"#utility.yul\":12971:12995   */\n      tag_294\n        /* \"#utility.yul\":12989:12994   */\n      dup2\n        /* \"#utility.yul\":12971:12995   */\n      tag_189\n      jump\t// in\n    tag_294:\n        /* \"#utility.yul\":12964:12969   */\n      dup2\n        /* \"#utility.yul\":12961:12996   */\n      eq\n        /* \"#utility.yul\":12951:13014   */\n      tag_295\n      jumpi\n        /* \"#utility.yul\":13010:13011   */\n      0x00\n        /* \"#utility.yul\":13007:13008   */\n      dup1\n        /* \"#utility.yul\":13000:13012   */\n      revert\n        /* \"#utility.yul\":12951:13014   */\n    tag_295:\n        /* \"#utility.yul\":12898:13020   */\n      pop\n      jump\t// out\n        /* \"#utility.yul\":13026:13148   */\n    tag_149:\n        /* \"#utility.yul\":13099:13123   */\n      tag_297\n        /* \"#utility.yul\":13117:13122   */\n      dup2\n        /* \"#utility.yul\":13099:13123   */\n      tag_221\n      jump\t// in\n    tag_297:\n        /* \"#utility.yul\":13092:13097   */\n      dup2\n        /* \"#utility.yul\":13089:13124   */\n      eq\n        /* \"#utility.yul\":13079:13142   */\n      tag_298\n      jumpi\n        /* \"#utility.yul\":13138:13139   */\n      0x00\n        /* \"#utility.yul\":13135:13136   */\n      dup1\n        /* \"#utility.yul\":13128:13140   */\n      revert\n        /* \"#utility.yul\":13079:13142   */\n    tag_298:\n        /* \"#utility.yul\":13026:13148   */\n      pop\n      jump\t// out\n\n    auxdata: 0xa2646970667358221220bcc22871af7667d65b6ffc24842086be45d744af6607351390e55d40f80da91164736f6c63430008070033\n}\n",
				"bytecode": {
					"linkReferences": {},
					"object": "60806040526000805534801561001457600080fd5b50611279806100246000396000f3fe608060405234801561001057600080fd5b506004361061009e5760003560e01c806396d86a991161006657806396d86a991461016f5780639735f90f1461018b5780639b15d047146101a7578063a87430ba146101c5578063c96cea70146101f65761009e565b80630b1e7f83146100a3578063392338f5146100d657806364e95895146100f25780636910cf8e1461012357806376487b3814610153575b600080fd5b6100bd60048036038101906100b89190610cc6565b610212565b6040516100cd9493929190610ea7565b60405180910390f35b6100f060048036038101906100eb9190610c4e565b610372565b005b61010c60048036038101906101079190610cc6565b610523565b60405161011a929190610e70565b60405180910390f35b61013d60048036038101906101389190610bd8565b61066d565b60405161014a9190610e4e565b60405180910390f35b61016d60048036038101906101689190610c05565b610707565b005b61018960048036038101906101849190610cf3565b610761565b005b6101a560048036038101906101a09190610cf3565b610834565b005b6101af610907565b6040516101bc9190610f1a565b60405180910390f35b6101df60048036038101906101da9190610bd8565b61090d565b6040516101ed929190610e70565b60405180910390f35b610210600480360381019061020b9190610c05565b610a41565b005b60026020528060005260406000206000915090508060000180546102359061108e565b80601f01602080910402602001604051908101604052809291908181526020018280546102619061108e565b80156102ae5780601f10610283576101008083540402835291602001916102ae565b820191906000526020600020905b81548152906001019060200180831161029157829003601f168201915b5050505050908060010180546102c39061108e565b80601f01602080910402602001604051908101604052809291908181526020018280546102ef9061108e565b801561033c5780601f106103115761010080835404028352916020019161033c565b820191906000526020600020905b81548152906001019060200180831161031f57829003601f168201915b5050505050908060020160009054906101000a900473ffffffffffffffffffffffffffffffffffffffff16908060030154905084565b600080815480929190610384906110f1565b919050555060405180608001604052808381526020018281526020013373ffffffffffffffffffffffffffffffffffffffff16815260200142815250600260008054815260200190815260200160002060008201518160000190805190602001906103f0929190610a9b565b50602082015181600101908051906020019061040d929190610a9b565b5060408201518160020160006101000a81548173ffffffffffffffffffffffffffffffffffffffff021916908373ffffffffffffffffffffffffffffffffffffffff16021790555060608201518160030155905050600160003373ffffffffffffffffffffffffffffffffffffffff1673ffffffffffffffffffffffffffffffffffffffff16815260200190815260200160002060020160005490806001815401808255809150506001900390600052602060002001600090919091909150553373ffffffffffffffffffffffffffffffffffffffff167fd8c86c7877c3f1f8a40af6cf64a11fe867af887f2a1ad31aac849e36730425b060005484604051610517929190610f35565b60405180910390a25050565b6060806002600084815260200190815260200160002060000180546105479061108e565b80601f01602080910402602001604051908101604052809291908181526020018280546105739061108e565b80156105c05780601f10610595576101008083540402835291602001916105c0565b820191906000526020600020905b8154815290600101906020018083116105a357829003601f168201915b505050505091506002600084815260200190815260200160002060010180546105e89061108e565b80601f01602080910402602001604051908101604052809291908181526020018280546106149061108e565b80156106615780601f1061063657610100808354040283529160200191610661565b820191906000526020600020905b81548152906001019060200180831161064457829003601f168201915b50505050509050915091565b6060600160008373ffffffffffffffffffffffffffffffffffffffff1673ffffffffffffffffffffffffffffffffffffffff1681526020019081526020016000206002018054806020026020016040519081016040528092919081815260200182805480156106fb57602002820191906000526020600020905b8154815260200190600101908083116106e7575b50505050509050919050565b80600160003373ffffffffffffffffffffffffffffffffffffffff1673ffffffffffffffffffffffffffffffffffffffff168152602001908152602001600020600101908051906020019061075d929190610a9b565b5050565b6002600083815260200190815260200160002060020160009054906101000a900473ffffffffffffffffffffffffffffffffffffffff1673ffffffffffffffffffffffffffffffffffffffff163373ffffffffffffffffffffffffffffffffffffffff1614610805576040517f08c379a00000000000000000000000000000000000000000000000000000000081526004016107fc90610efa565b60405180910390fd5b8060026000848152602001908152602001600020600101908051906020019061082f929190610a9b565b505050565b6002600083815260200190815260200160002060020160009054906101000a900473ffffffffffffffffffffffffffffffffffffffff1673ffffffffffffffffffffffffffffffffffffffff163373ffffffffffffffffffffffffffffffffffffffff16146108d8576040517f08c379a00000000000000000000000000000000000000000000000000000000081526004016108cf90610efa565b60405180910390fd5b80600260008481526020019081526020016000206000019080519060200190610902929190610a9b565b505050565b60005481565b60016020528060005260406000206000915090508060000180546109309061108e565b80601f016020809104026020016040519081016040528092919081815260200182805461095c9061108e565b80156109a95780601f1061097e576101008083540402835291602001916109a9565b820191906000526020600020905b81548152906001019060200180831161098c57829003601f168201915b5050505050908060010180546109be9061108e565b80601f01602080910402602001604051908101604052809291908181526020018280546109ea9061108e565b8015610a375780601f10610a0c57610100808354040283529160200191610a37565b820191906000526020600020905b815481529060010190602001808311610a1a57829003601f168201915b5050505050905082565b80600160003373ffffffffffffffffffffffffffffffffffffffff1673ffffffffffffffffffffffffffffffffffffffff1681526020019081526020016000206000019080519060200190610a97929190610a9b565b5050565b828054610aa79061108e565b90600052602060002090601f016020900481019282610ac95760008555610b10565b82601f10610ae257805160ff1916838001178555610b10565b82800160010185558215610b10579182015b82811115610b0f578251825591602001919060010190610af4565b5b509050610b1d9190610b21565b5090565b5b80821115610b3a576000816000905550600101610b22565b5090565b6000610b51610b4c84610f8a565b610f65565b905082815260208101848484011115610b6d57610b6c6111cc565b5b610b7884828561104c565b509392505050565b600081359050610b8f81611215565b92915050565b600082601f830112610baa57610ba96111c7565b5b8135610bba848260208601610b3e565b91505092915050565b600081359050610bd28161122c565b92915050565b600060208284031215610bee57610bed6111d6565b5b6000610bfc84828501610b80565b91505092915050565b600060208284031215610c1b57610c1a6111d6565b5b600082013567ffffffffffffffff811115610c3957610c386111d1565b5b610c4584828501610b95565b91505092915050565b60008060408385031215610c6557610c646111d6565b5b600083013567ffffffffffffffff811115610c8357610c826111d1565b5b610c8f85828601610b95565b925050602083013567ffffffffffffffff811115610cb057610caf6111d1565b5b610cbc85828601610b95565b9150509250929050565b600060208284031215610cdc57610cdb6111d6565b5b6000610cea84828501610bc3565b91505092915050565b60008060408385031215610d0a57610d096111d6565b5b6000610d1885828601610bc3565b925050602083013567ffffffffffffffff811115610d3957610d386111d1565b5b610d4585828601610b95565b9150509250929050565b6000610d5b8383610e30565b60208301905092915050565b610d7081611010565b82525050565b6000610d8182610fcb565b610d8b8185610fee565b9350610d9683610fbb565b8060005b83811015610dc7578151610dae8882610d4f565b9750610db983610fe1565b925050600181019050610d9a565b5085935050505092915050565b6000610ddf82610fd6565b610de98185610fff565b9350610df981856020860161105b565b610e02816111db565b840191505092915050565b6000610e1a601a83610fff565b9150610e25826111ec565b602082019050919050565b610e3981611042565b82525050565b610e4881611042565b82525050565b60006020820190508181036000830152610e688184610d76565b905092915050565b60006040820190508181036000830152610e8a8185610dd4565b90508181036020830152610e9e8184610dd4565b90509392505050565b60006080820190508181036000830152610ec18187610dd4565b90508181036020830152610ed58186610dd4565b9050610ee46040830185610d67565b610ef16060830184610e3f565b95945050505050565b60006020820190508181036000830152610f1381610e0d565b9050919050565b6000602082019050610f2f6000830184610e3f565b92915050565b6000604082019050610f4a6000830185610e3f565b8181036020830152610f5c8184610dd4565b90509392505050565b6000610f6f610f80565b9050610f7b82826110c0565b919050565b6000604051905090565b600067ffffffffffffffff821115610fa557610fa4611198565b5b610fae826111db565b9050602081019050919050565b6000819050602082019050919050565b600081519050919050565b600081519050919050565b6000602082019050919050565b600082825260208201905092915050565b600082825260208201905092915050565b600061101b82611022565b9050919050565b600073ffffffffffffffffffffffffffffffffffffffff82169050919050565b6000819050919050565b82818337600083830152505050565b60005b8381101561107957808201518184015260208101905061105e565b83811115611088576000848401525b50505050565b600060028204905060018216806110a657607f821691505b602082108114156110ba576110b9611169565b5b50919050565b6110c9826111db565b810181811067ffffffffffffffff821117156110e8576110e7611198565b5b80604052505050565b60006110fc82611042565b91507fffffffffffffffffffffffffffffffffffffffffffffffffffffffffffffffff82141561112f5761112e61113a565b5b600182019050919050565b7f4e487b7100000000000000000000000000000000000000000000000000000000600052601160045260246000fd5b7f4e487b7100000000000000000000000000000000000000000000000000000000600052602260045260246000fd5b7f4e487b7100000000000000000000000000000000000000000000000000000000600052604160045260246000fd5b600080fd5b600080fd5b600080fd5b600080fd5b6000601f19601f8301169050919050565b7f4f6e6c792074686520617574686f722063616e206d6f64696679000000000000600082015250565b61121e81611010565b811461122957600080fd5b50565b61123581611042565b811461124057600080fd5b5056fea2646970667358221220bcc22871af7667d65b6ffc24842086be45d744af6607351390e55d40f80da91164736f6c63430008070033",
					"opcodes": "PUSH1 0x80 PUSH1 0x40 MSTORE PUSH1 0x0 DUP1 SSTORE CALLVALUE DUP1 ISZERO PUSH2 0x14 JUMPI PUSH1 0x0 DUP1 REVERT JUMPDEST POP PUSH2 0x1279 DUP1 PUSH2 0x24 PUSH1 0x0 CODECOPY PUSH1 0x0 RETURN INVALID PUSH1 0x80 PUSH1 0x40 MSTORE CALLVALUE DUP1 ISZERO PUSH2 0x10 JUMPI PUSH1 0x0 DUP1 REVERT JUMPDEST POP PUSH1 0x4 CALLDATASIZE LT PUSH2 0x9E JUMPI PUSH1 0x0 CALLDATALOAD PUSH1 0xE0 SHR DUP1 PUSH4 0x96D86A99 GT PUSH2 0x66 JUMPI DUP1 PUSH4 0x96D86A99 EQ PUSH2 0x16F JUMPI DUP1 PUSH4 0x9735F90F EQ PUSH2 0x18B JUMPI DUP1 PUSH4 0x9B15D047 EQ PUSH2 0x1A7 JUMPI DUP1 PUSH4 0xA87430BA EQ PUSH2 0x1C5 JUMPI DUP1 PUSH4 0xC96CEA70 EQ PUSH2 0x1F6 JUMPI PUSH2 0x9E JUMP JUMPDEST DUP1 PUSH4 0xB1E7F83 EQ PUSH2 0xA3 JUMPI DUP1 PUSH4 0x392338F5 EQ PUSH2 0xD6 JUMPI DUP1 PUSH4 0x64E95895 EQ PUSH2 0xF2 JUMPI DUP1 PUSH4 0x6910CF8E EQ PUSH2 0x123 JUMPI DUP1 PUSH4 0x76487B38 EQ PUSH2 0x153 JUMPI JUMPDEST PUSH1 0x0 DUP1 REVERT JUMPDEST PUSH2 0xBD PUSH1 0x4 DUP1 CALLDATASIZE SUB DUP2 ADD SWAP1 PUSH2 0xB8 SWAP2 SWAP1 PUSH2 0xCC6 JUMP JUMPDEST PUSH2 0x212 JUMP JUMPDEST PUSH1 0x40 MLOAD PUSH2 0xCD SWAP5 SWAP4 SWAP3 SWAP2 SWAP1 PUSH2 0xEA7 JUMP JUMPDEST PUSH1 0x40 MLOAD DUP1 SWAP2 SUB SWAP1 RETURN JUMPDEST PUSH2 0xF0 PUSH1 0x4 DUP1 CALLDATASIZE SUB DUP2 ADD SWAP1 PUSH2 0xEB SWAP2 SWAP1 PUSH2 0xC4E JUMP JUMPDEST PUSH2 0x372 JUMP JUMPDEST STOP JUMPDEST PUSH2 0x10C PUSH1 0x4 DUP1 CALLDATASIZE SUB DUP2 ADD SWAP1 PUSH2 0x107 SWAP2 SWAP1 PUSH2 0xCC6 JUMP JUMPDEST PUSH2 0x523 JUMP JUMPDEST PUSH1 0x40 MLOAD PUSH2 0x11A SWAP3 SWAP2 SWAP1 PUSH2 0xE70 JUMP JUMPDEST PUSH1 0x40 MLOAD DUP1 SWAP2 SUB SWAP1 RETURN JUMPDEST PUSH2 0x13D PUSH1 0x4 DUP1 CALLDATASIZE SUB DUP2 ADD SWAP1 PUSH2 0x138 SWAP2 SWAP1 PUSH2 0xBD8 JUMP JUMPDEST PUSH2 0x66D JUMP JUMPDEST PUSH1 0x40 MLOAD PUSH2 0x14A SWAP2 SWAP1 PUSH2 0xE4E JUMP JUMPDEST PUSH1 0x40 MLOAD DUP1 SWAP2 SUB SWAP1 RETURN JUMPDEST PUSH2 0x16D PUSH1 0x4 DUP1 CALLDATASIZE SUB DUP2 ADD SWAP1 PUSH2 0x168 SWAP2 SWAP1 PUSH2 0xC05 JUMP JUMPDEST PUSH2 0x707 JUMP JUMPDEST STOP JUMPDEST PUSH2 0x189 PUSH1 0x4 DUP1 CALLDATASIZE SUB DUP2 ADD SWAP1 PUSH2 0x184 SWAP2 SWAP1 PUSH2 0xCF3 JUMP JUMPDEST PUSH2 0x761 JUMP JUMPDEST STOP JUMPDEST PUSH2 0x1A5 PUSH1 0x4 DUP1 CALLDATASIZE SUB DUP2 ADD SWAP1 PUSH2 0x1A0 SWAP2 SWAP1 PUSH2 0xCF3 JUMP JUMPDEST PUSH2 0x834 JUMP JUMPDEST STOP JUMPDEST PUSH2 0x1AF PUSH2 0x907 JUMP JUMPDEST PUSH1 0x40 MLOAD PUSH2 0x1BC SWAP2 SWAP1 PUSH2 0xF1A JUMP JUMPDEST PUSH1 0x40 MLOAD DUP1 SWAP2 SUB SWAP1 RETURN JUMPDEST PUSH2 0x1DF PUSH1 0x4 DUP1 CALLDATASIZE SUB DUP2 ADD SWAP1 PUSH2 0x1DA SWAP2 SWAP1 PUSH2 0xBD8 JUMP JUMPDEST PUSH2 0x90D JUMP JUMPDEST PUSH1 0x40 MLOAD PUSH2 0x1ED SWAP3 SWAP2 SWAP1 PUSH2 0xE70 JUMP JUMPDEST PUSH1 0x40 MLOAD DUP1 SWAP2 SUB SWAP1 RETURN JUMPDEST PUSH2 0x210 PUSH1 0x4 DUP1 CALLDATASIZE SUB DUP2 ADD SWAP1 PUSH2 0x20B SWAP2 SWAP1 PUSH2 0xC05 JUMP JUMPDEST PUSH2 0xA41 JUMP JUMPDEST STOP JUMPDEST PUSH1 0x2 PUSH1 0x20 MSTORE DUP1 PUSH1 0x0 MSTORE PUSH1 0x40 PUSH1 0x0 KECCAK256 PUSH1 0x0 SWAP2 POP SWAP1 POP DUP1 PUSH1 0x0 ADD DUP1 SLOAD PUSH2 0x235 SWAP1 PUSH2 0x108E JUMP JUMPDEST DUP1 PUSH1 0x1F ADD PUSH1 0x20 DUP1 SWAP2 DIV MUL PUSH1 0x20 ADD PUSH1 0x40 MLOAD SWAP1 DUP2 ADD PUSH1 0x40 MSTORE DUP1 SWAP3 SWAP2 SWAP1 DUP2 DUP2 MSTORE PUSH1 0x20 ADD DUP3 DUP1 SLOAD PUSH2 0x261 SWAP1 PUSH2 0x108E JUMP JUMPDEST DUP1 ISZERO PUSH2 0x2AE JUMPI DUP1 PUSH1 0x1F LT PUSH2 0x283 JUMPI PUSH2 0x100 DUP1 DUP4 SLOAD DIV MUL DUP4 MSTORE SWAP2 PUSH1 0x20 ADD SWAP2 PUSH2 0x2AE JUMP JUMPDEST DUP3 ADD SWAP2 SWAP1 PUSH1 0x0 MSTORE PUSH1 0x20 PUSH1 0x0 KECCAK256 SWAP1 JUMPDEST DUP2 SLOAD DUP2 MSTORE SWAP1 PUSH1 0x1 ADD SWAP1 PUSH1 0x20 ADD DUP1 DUP4 GT PUSH2 0x291 JUMPI DUP3 SWAP1 SUB PUSH1 0x1F AND DUP3 ADD SWAP2 JUMPDEST POP POP POP POP POP SWAP1 DUP1 PUSH1 0x1 ADD DUP1 SLOAD PUSH2 0x2C3 SWAP1 PUSH2 0x108E JUMP JUMPDEST DUP1 PUSH1 0x1F ADD PUSH1 0x20 DUP1 SWAP2 DIV MUL PUSH1 0x20 ADD PUSH1 0x40 MLOAD SWAP1 DUP2 ADD PUSH1 0x40 MSTORE DUP1 SWAP3 SWAP2 SWAP1 DUP2 DUP2 MSTORE PUSH1 0x20 ADD DUP3 DUP1 SLOAD PUSH2 0x2EF SWAP1 PUSH2 0x108E JUMP JUMPDEST DUP1 ISZERO PUSH2 0x33C JUMPI DUP1 PUSH1 0x1F LT PUSH2 0x311 JUMPI PUSH2 0x100 DUP1 DUP4 SLOAD DIV MUL DUP4 MSTORE SWAP2 PUSH1 0x20 ADD SWAP2 PUSH2 0x33C JUMP JUMPDEST DUP3 ADD SWAP2 SWAP1 PUSH1 0x0 MSTORE PUSH1 0x20 PUSH1 0x0 KECCAK256 SWAP1 JUMPDEST DUP2 SLOAD DUP2 MSTORE SWAP1 PUSH1 0x1 ADD SWAP1 PUSH1 0x20 ADD DUP1 DUP4 GT PUSH2 0x31F JUMPI DUP3 SWAP1 SUB PUSH1 0x1F AND DUP3 ADD SWAP2 JUMPDEST POP POP POP POP POP SWAP1 DUP1 PUSH1 0x2 ADD PUSH1 0x0 SWAP1 SLOAD SWAP1 PUSH2 0x100 EXP SWAP1 DIV PUSH20 0xFFFFFFFFFFFFFFFFFFFFFFFFFFFFFFFFFFFFFFFF AND SWAP1 DUP1 PUSH1 0x3 ADD SLOAD SWAP1 POP DUP5 JUMP JUMPDEST PUSH1 0x0 DUP1 DUP2 SLOAD DUP1 SWAP3 SWAP2 SWAP1 PUSH2 0x384 SWAP1 PUSH2 0x10F1 JUMP JUMPDEST SWAP2 SWAP1 POP SSTORE POP PUSH1 0x40 MLOAD DUP1 PUSH1 0x80 ADD PUSH1 0x40 MSTORE DUP1 DUP4 DUP2 MSTORE PUSH1 0x20 ADD DUP3 DUP2 MSTORE PUSH1 0x20 ADD CALLER PUSH20 0xFFFFFFFFFFFFFFFFFFFFFFFFFFFFFFFFFFFFFFFF AND DUP2 MSTORE PUSH1 0x20 ADD TIMESTAMP DUP2 MSTORE POP PUSH1 0x2 PUSH1 0x0 DUP1 SLOAD DUP2 MSTORE PUSH1 0x20 ADD SWAP1 DUP2 MSTORE PUSH1 0x20 ADD PUSH1 0x0 KECCAK256 PUSH1 0x0 DUP3 ADD MLOAD DUP2 PUSH1 0x0 ADD SWAP1 DUP1 MLOAD SWAP1 PUSH1 0x20 ADD SWAP1 PUSH2 0x3F0 SWAP3 SWAP2 SWAP1 PUSH2 0xA9B JUMP JUMPDEST POP PUSH1 0x20 DUP3 ADD MLOAD DUP2 PUSH1 0x1 ADD SWAP1 DUP1 MLOAD SWAP1 PUSH1 0x20 ADD SWAP1 PUSH2 0x40D SWAP3 SWAP2 SWAP1 PUSH2 0xA9B JUMP JUMPDEST POP PUSH1 0x40 DUP3 ADD MLOAD DUP2 PUSH1 0x2 ADD PUSH1 0x0 PUSH2 0x100 EXP DUP2 SLOAD DUP2 PUSH20 0xFFFFFFFFFFFFFFFFFFFFFFFFFFFFFFFFFFFFFFFF MUL NOT AND SWAP1 DUP4 PUSH20 0xFFFFFFFFFFFFFFFFFFFFFFFFFFFFFFFFFFFFFFFF AND MUL OR SWAP1 SSTORE POP PUSH1 0x60 DUP3 ADD MLOAD DUP2 PUSH1 0x3 ADD SSTORE SWAP1 POP POP PUSH1 0x1 PUSH1 0x0 CALLER PUSH20 0xFFFFFFFFFFFFFFFFFFFFFFFFFFFFFFFFFFFFFFFF AND PUSH20 0xFFFFFFFFFFFFFFFFFFFFFFFFFFFFFFFFFFFFFFFF AND DUP2 MSTORE PUSH1 0x20 ADD SWAP1 DUP2 MSTORE PUSH1 0x20 ADD PUSH1 0x0 KECCAK256 PUSH1 0x2 ADD PUSH1 0x0 SLOAD SWAP1 DUP1 PUSH1 0x1 DUP2 SLOAD ADD DUP1 DUP3 SSTORE DUP1 SWAP2 POP POP PUSH1 0x1 SWAP1 SUB SWAP1 PUSH1 0x0 MSTORE PUSH1 0x20 PUSH1 0x0 KECCAK256 ADD PUSH1 0x0 SWAP1 SWAP2 SWAP1 SWAP2 SWAP1 SWAP2 POP SSTORE CALLER PUSH20 0xFFFFFFFFFFFFFFFFFFFFFFFFFFFFFFFFFFFFFFFF AND PUSH32 0xD8C86C7877C3F1F8A40AF6CF64A11FE867AF887F2A1AD31AAC849E36730425B0 PUSH1 0x0 SLOAD DUP5 PUSH1 0x40 MLOAD PUSH2 0x517 SWAP3 SWAP2 SWAP1 PUSH2 0xF35 JUMP JUMPDEST PUSH1 0x40 MLOAD DUP1 SWAP2 SUB SWAP1 LOG2 POP POP JUMP JUMPDEST PUSH1 0x60 DUP1 PUSH1 0x2 PUSH1 0x0 DUP5 DUP2 MSTORE PUSH1 0x20 ADD SWAP1 DUP2 MSTORE PUSH1 0x20 ADD PUSH1 0x0 KECCAK256 PUSH1 0x0 ADD DUP1 SLOAD PUSH2 0x547 SWAP1 PUSH2 0x108E JUMP JUMPDEST DUP1 PUSH1 0x1F ADD PUSH1 0x20 DUP1 SWAP2 DIV MUL PUSH1 0x20 ADD PUSH1 0x40 MLOAD SWAP1 DUP2 ADD PUSH1 0x40 MSTORE DUP1 SWAP3 SWAP2 SWAP1 DUP2 DUP2 MSTORE PUSH1 0x20 ADD DUP3 DUP1 SLOAD PUSH2 0x573 SWAP1 PUSH2 0x108E JUMP JUMPDEST DUP1 ISZERO PUSH2 0x5C0 JUMPI DUP1 PUSH1 0x1F LT PUSH2 0x595 JUMPI PUSH2 0x100 DUP1 DUP4 SLOAD DIV MUL DUP4 MSTORE SWAP2 PUSH1 0x20 ADD SWAP2 PUSH2 0x5C0 JUMP JUMPDEST DUP3 ADD SWAP2 SWAP1 PUSH1 0x0 MSTORE PUSH1 0x20 PUSH1 0x0 KECCAK256 SWAP1 JUMPDEST DUP2 SLOAD DUP2 MSTORE SWAP1 PUSH1 0x1 ADD SWAP1 PUSH1 0x20 ADD DUP1 DUP4 GT PUSH2 0x5A3 JUMPI DUP3 SWAP1 SUB PUSH1 0x1F AND DUP3 ADD SWAP2 JUMPDEST POP POP POP POP POP SWAP2 POP PUSH1 0x2 PUSH1 0x0 DUP5 DUP2 MSTORE PUSH1 0x20 ADD SWAP1 DUP2 MSTORE PUSH1 0x20 ADD PUSH1 0x0 KECCAK256 PUSH1 0x1 ADD DUP1 SLOAD PUSH2 0x5E8 SWAP1 PUSH2 0x108E JUMP JUMPDEST DUP1 PUSH1 0x1F ADD PUSH1 0x20 DUP1 SWAP2 DIV MUL PUSH1 0x20 ADD PUSH1 0x40 MLOAD SWAP1 DUP2 ADD PUSH1 0x40 MSTORE DUP1 SWAP3 SWAP2 SWAP1 DUP2 DUP2 MSTORE PUSH1 0x20 ADD DUP3 DUP1 SLOAD PUSH2 0x614 SWAP1 PUSH2 0x108E JUMP JUMPDEST DUP1 ISZERO PUSH2 0x661 JUMPI DUP1 PUSH1 0x1F LT PUSH2 0x636 JUMPI PUSH2 0x100 DUP1 DUP4 SLOAD DIV MUL DUP4 MSTORE SWAP2 PUSH1 0x20 ADD SWAP2 PUSH2 0x661 JUMP JUMPDEST DUP3 ADD SWAP2 SWAP1 PUSH1 0x0 MSTORE PUSH1 0x20 PUSH1 0x0 KECCAK256 SWAP1 JUMPDEST DUP2 SLOAD DUP2 MSTORE SWAP1 PUSH1 0x1 ADD SWAP1 PUSH1 0x20 ADD DUP1 DUP4 GT PUSH2 0x644 JUMPI DUP3 SWAP1 SUB PUSH1 0x1F AND DUP3 ADD SWAP2 JUMPDEST POP POP POP POP POP SWAP1 POP SWAP2 POP SWAP2 JUMP JUMPDEST PUSH1 0x60 PUSH1 0x1 PUSH1 0x0 DUP4 PUSH20 0xFFFFFFFFFFFFFFFFFFFFFFFFFFFFFFFFFFFFFFFF AND PUSH20 0xFFFFFFFFFFFFFFFFFFFFFFFFFFFFFFFFFFFFFFFF AND DUP2 MSTORE PUSH1 0x20 ADD SWAP1 DUP2 MSTORE PUSH1 0x20 ADD PUSH1 0x0 KECCAK256 PUSH1 0x2 ADD DUP1 SLOAD DUP1 PUSH1 0x20 MUL PUSH1 0x20 ADD PUSH1 0x40 MLOAD SWAP1 DUP2 ADD PUSH1 0x40 MSTORE DUP1 SWAP3 SWAP2 SWAP1 DUP2 DUP2 MSTORE PUSH1 0x20 ADD DUP3 DUP1 SLOAD DUP1 ISZERO PUSH2 0x6FB JUMPI PUSH1 0x20 MUL DUP3 ADD SWAP2 SWAP1 PUSH1 0x0 MSTORE PUSH1 0x20 PUSH1 0x0 KECCAK256 SWAP1 JUMPDEST DUP2 SLOAD DUP2 MSTORE PUSH1 0x20 ADD SWAP1 PUSH1 0x1 ADD SWAP1 DUP1 DUP4 GT PUSH2 0x6E7 JUMPI JUMPDEST POP POP POP POP POP SWAP1 POP SWAP2 SWAP1 POP JUMP JUMPDEST DUP1 PUSH1 0x1 PUSH1 0x0 CALLER PUSH20 0xFFFFFFFFFFFFFFFFFFFFFFFFFFFFFFFFFFFFFFFF AND PUSH20 0xFFFFFFFFFFFFFFFFFFFFFFFFFFFFFFFFFFFFFFFF AND DUP2 MSTORE PUSH1 0x20 ADD SWAP1 DUP2 MSTORE PUSH1 0x20 ADD PUSH1 0x0 KECCAK256 PUSH1 0x1 ADD SWAP1 DUP1 MLOAD SWAP1 PUSH1 0x20 ADD SWAP1 PUSH2 0x75D SWAP3 SWAP2 SWAP1 PUSH2 0xA9B JUMP JUMPDEST POP POP JUMP JUMPDEST PUSH1 0x2 PUSH1 0x0 DUP4 DUP2 MSTORE PUSH1 0x20 ADD SWAP1 DUP2 MSTORE PUSH1 0x20 ADD PUSH1 0x0 KECCAK256 PUSH1 0x2 ADD PUSH1 0x0 SWAP1 SLOAD SWAP1 PUSH2 0x100 EXP SWAP1 DIV PUSH20 0xFFFFFFFFFFFFFFFFFFFFFFFFFFFFFFFFFFFFFFFF AND PUSH20 0xFFFFFFFFFFFFFFFFFFFFFFFFFFFFFFFFFFFFFFFF AND CALLER PUSH20 0xFFFFFFFFFFFFFFFFFFFFFFFFFFFFFFFFFFFFFFFF AND EQ PUSH2 0x805 JUMPI PUSH1 0x40 MLOAD PUSH32 0x8C379A000000000000000000000000000000000000000000000000000000000 DUP2 MSTORE PUSH1 0x4 ADD PUSH2 0x7FC SWAP1 PUSH2 0xEFA JUMP JUMPDEST PUSH1 0x40 MLOAD DUP1 SWAP2 SUB SWAP1 REVERT JUMPDEST DUP1 PUSH1 0x2 PUSH1 0x0 DUP5 DUP2 MSTORE PUSH1 0x20 ADD SWAP1 DUP2 MSTORE PUSH1 0x20 ADD PUSH1 0x0 KECCAK256 PUSH1 0x1 ADD SWAP1 DUP1 MLOAD SWAP1 PUSH1 0x20 ADD SWAP1 PUSH2 0x82F SWAP3 SWAP2 SWAP1 PUSH2 0xA9B JUMP JUMPDEST POP POP POP JUMP JUMPDEST PUSH1 0x2 PUSH1 0x0 DUP4 DUP2 MSTORE PUSH1 0x20 ADD SWAP1 DUP2 MSTORE PUSH1 0x20 ADD PUSH1 0x0 KECCAK256 PUSH1 0x2 ADD PUSH1 0x0 SWAP1 SLOAD SWAP1 PUSH2 0x100 EXP SWAP1 DIV PUSH20 0xFFFFFFFFFFFFFFFFFFFFFFFFFFFFFFFFFFFFFFFF AND PUSH20 0xFFFFFFFFFFFFFFFFFFFFFFFFFFFFFFFFFFFFFFFF AND CALLER PUSH20 0xFFFFFFFFFFFFFFFFFFFFFFFFFFFFFFFFFFFFFFFF AND EQ PUSH2 0x8D8 JUMPI PUSH1 0x40 MLOAD PUSH32 0x8C379A000000000000000000000000000000000000000000000000000000000 DUP2 MSTORE PUSH1 0x4 ADD PUSH2 0x8CF SWAP1 PUSH2 0xEFA JUMP JUMPDEST PUSH1 0x40 MLOAD DUP1 SWAP2 SUB SWAP1 REVERT JUMPDEST DUP1 PUSH1 0x2 PUSH1 0x0 DUP5 DUP2 MSTORE PUSH1 0x20 ADD SWAP1 DUP2 MSTORE PUSH1 0x20 ADD PUSH1 0x0 KECCAK256 PUSH1 0x0 ADD SWAP1 DUP1 MLOAD SWAP1 PUSH1 0x20 ADD SWAP1 PUSH2 0x902 SWAP3 SWAP2 SWAP1 PUSH2 0xA9B JUMP JUMPDEST POP POP POP JUMP JUMPDEST PUSH1 0x0 SLOAD DUP2 JUMP JUMPDEST PUSH1 0x1 PUSH1 0x20 MSTORE DUP1 PUSH1 0x0 MSTORE PUSH1 0x40 PUSH1 0x0 KECCAK256 PUSH1 0x0 SWAP2 POP SWAP1 POP DUP1 PUSH1 0x0 ADD DUP1 SLOAD PUSH2 0x930 SWAP1 PUSH2 0x108E JUMP JUMPDEST DUP1 PUSH1 0x1F ADD PUSH1 0x20 DUP1 SWAP2 DIV MUL PUSH1 0x20 ADD PUSH1 0x40 MLOAD SWAP1 DUP2 ADD PUSH1 0x40 MSTORE DUP1 SWAP3 SWAP2 SWAP1 DUP2 DUP2 MSTORE PUSH1 0x20 ADD DUP3 DUP1 SLOAD PUSH2 0x95C SWAP1 PUSH2 0x108E JUMP JUMPDEST DUP1 ISZERO PUSH2 0x9A9 JUMPI DUP1 PUSH1 0x1F LT PUSH2 0x97E JUMPI PUSH2 0x100 DUP1 DUP4 SLOAD DIV MUL DUP4 MSTORE SWAP2 PUSH1 0x20 ADD SWAP2 PUSH2 0x9A9 JUMP JUMPDEST DUP3 ADD SWAP2 SWAP1 PUSH1 0x0 MSTORE PUSH1 0x20 PUSH1 0x0 KECCAK256 SWAP1 JUMPDEST DUP2 SLOAD DUP2 MSTORE SWAP1 PUSH1 0x1 ADD SWAP1 PUSH1 0x20 ADD DUP1 DUP4 GT PUSH2 0x98C JUMPI DUP3 SWAP1 SUB PUSH1 0x1F AND DUP3 ADD SWAP2 JUMPDEST POP POP POP POP POP SWAP1 DUP1 PUSH1 0x1 ADD DUP1 SLOAD PUSH2 0x9BE SWAP1 PUSH2 0x108E JUMP JUMPDEST DUP1 PUSH1 0x1F ADD PUSH1 0x20 DUP1 SWAP2 DIV MUL PUSH1 0x20 ADD PUSH1 0x40 MLOAD SWAP1 DUP2 ADD PUSH1 0x40 MSTORE DUP1 SWAP3 SWAP2 SWAP1 DUP2 DUP2 MSTORE PUSH1 0x20 ADD DUP3 DUP1 SLOAD PUSH2 0x9EA SWAP1 PUSH2 0x108E JUMP JUMPDEST DUP1 ISZERO PUSH2 0xA37 JUMPI DUP1 PUSH1 0x1F LT PUSH2 0xA0C JUMPI PUSH2 0x100 DUP1 DUP4 SLOAD DIV MUL DUP4 MSTORE SWAP2 PUSH1 0x20 ADD SWAP2 PUSH2 0xA37 JUMP JUMPDEST DUP3 ADD SWAP2 SWAP1 PUSH1 0x0 MSTORE PUSH1 0x20 PUSH1 0x0 KECCAK256 SWAP1 JUMPDEST DUP2 SLOAD DUP2 MSTORE SWAP1 PUSH1 0x1 ADD SWAP1 PUSH1 0x20 ADD DUP1 DUP4 GT PUSH2 0xA1A JUMPI DUP3 SWAP1 SUB PUSH1 0x1F AND DUP3 ADD SWAP2 JUMPDEST POP POP POP POP POP SWAP1 POP DUP3 JUMP JUMPDEST DUP1 PUSH1 0x1 PUSH1 0x0 CALLER PUSH20 0xFFFFFFFFFFFFFFFFFFFFFFFFFFFFFFFFFFFFFFFF AND PUSH20 0xFFFFFFFFFFFFFFFFFFFFFFFFFFFFFFFFFFFFFFFF AND DUP2 MSTORE PUSH1 0x20 ADD SWAP1 DUP2 MSTORE PUSH1 0x20 ADD PUSH1 0x0 KECCAK256 PUSH1 0x0 ADD SWAP1 DUP1 MLOAD SWAP1 PUSH1 0x20 ADD SWAP1 PUSH2 0xA97 SWAP3 SWAP2 SWAP1 PUSH2 0xA9B JUMP JUMPDEST POP POP JUMP JUMPDEST DUP3 DUP1 SLOAD PUSH2 0xAA7 SWAP1 PUSH2 0x108E JUMP JUMPDEST SWAP1 PUSH1 0x0 MSTORE PUSH1 0x20 PUSH1 0x0 KECCAK256 SWAP1 PUSH1 0x1F ADD PUSH1 0x20 SWAP1 DIV DUP2 ADD SWAP3 DUP3 PUSH2 0xAC9 JUMPI PUSH1 0x0 DUP6 SSTORE PUSH2 0xB10 JUMP JUMPDEST DUP3 PUSH1 0x1F LT PUSH2 0xAE2 JUMPI DUP1 MLOAD PUSH1 0xFF NOT AND DUP4 DUP1 ADD OR DUP6 SSTORE PUSH2 0xB10 JUMP JUMPDEST DUP3 DUP1 ADD PUSH1 0x1 ADD DUP6 SSTORE DUP3 ISZERO PUSH2 0xB10 JUMPI SWAP2 DUP3 ADD JUMPDEST DUP3 DUP2 GT ISZERO PUSH2 0xB0F JUMPI DUP3 MLOAD DUP3 SSTORE SWAP2 PUSH1 0x20 ADD SWAP2 SWAP1 PUSH1 0x1 ADD SWAP1 PUSH2 0xAF4 JUMP JUMPDEST JUMPDEST POP SWAP1 POP PUSH2 0xB1D SWAP2 SWAP1 PUSH2 0xB21 JUMP JUMPDEST POP SWAP1 JUMP JUMPDEST JUMPDEST DUP1 DUP3 GT ISZERO PUSH2 0xB3A JUMPI PUSH1 0x0 DUP2 PUSH1 0x0 SWAP1 SSTORE POP PUSH1 0x1 ADD PUSH2 0xB22 JUMP JUMPDEST POP SWAP1 JUMP JUMPDEST PUSH1 0x0 PUSH2 0xB51 PUSH2 0xB4C DUP5 PUSH2 0xF8A JUMP JUMPDEST PUSH2 0xF65 JUMP JUMPDEST SWAP1 POP DUP3 DUP2 MSTORE PUSH1 0x20 DUP2 ADD DUP5 DUP5 DUP5 ADD GT ISZERO PUSH2 0xB6D JUMPI PUSH2 0xB6C PUSH2 0x11CC JUMP JUMPDEST JUMPDEST PUSH2 0xB78 DUP5 DUP3 DUP6 PUSH2 0x104C JUMP JUMPDEST POP SWAP4 SWAP3 POP POP POP JUMP JUMPDEST PUSH1 0x0 DUP2 CALLDATALOAD SWAP1 POP PUSH2 0xB8F DUP2 PUSH2 0x1215 JUMP JUMPDEST SWAP3 SWAP2 POP POP JUMP JUMPDEST PUSH1 0x0 DUP3 PUSH1 0x1F DUP4 ADD SLT PUSH2 0xBAA JUMPI PUSH2 0xBA9 PUSH2 0x11C7 JUMP JUMPDEST JUMPDEST DUP2 CALLDATALOAD PUSH2 0xBBA DUP5 DUP3 PUSH1 0x20 DUP7 ADD PUSH2 0xB3E JUMP JUMPDEST SWAP2 POP POP SWAP3 SWAP2 POP POP JUMP JUMPDEST PUSH1 0x0 DUP2 CALLDATALOAD SWAP1 POP PUSH2 0xBD2 DUP2 PUSH2 0x122C JUMP JUMPDEST SWAP3 SWAP2 POP POP JUMP JUMPDEST PUSH1 0x0 PUSH1 0x20 DUP3 DUP5 SUB SLT ISZERO PUSH2 0xBEE JUMPI PUSH2 0xBED PUSH2 0x11D6 JUMP JUMPDEST JUMPDEST PUSH1 0x0 PUSH2 0xBFC DUP5 DUP3 DUP6 ADD PUSH2 0xB80 JUMP JUMPDEST SWAP2 POP POP SWAP3 SWAP2 POP POP JUMP JUMPDEST PUSH1 0x0 PUSH1 0x20 DUP3 DUP5 SUB SLT ISZERO PUSH2 0xC1B JUMPI PUSH2 0xC1A PUSH2 0x11D6 JUMP JUMPDEST JUMPDEST PUSH1 0x0 DUP3 ADD CALLDATALOAD PUSH8 0xFFFFFFFFFFFFFFFF DUP2 GT ISZERO PUSH2 0xC39 JUMPI PUSH2 0xC38 PUSH2 0x11D1 JUMP JUMPDEST JUMPDEST PUSH2 0xC45 DUP5 DUP3 DUP6 ADD PUSH2 0xB95 JUMP JUMPDEST SWAP2 POP POP SWAP3 SWAP2 POP POP JUMP JUMPDEST PUSH1 0x0 DUP1 PUSH1 0x40 DUP4 DUP6 SUB SLT ISZERO PUSH2 0xC65 JUMPI PUSH2 0xC64 PUSH2 0x11D6 JUMP JUMPDEST JUMPDEST PUSH1 0x0 DUP4 ADD CALLDATALOAD PUSH8 0xFFFFFFFFFFFFFFFF DUP2 GT ISZERO PUSH2 0xC83 JUMPI PUSH2 0xC82 PUSH2 0x11D1 JUMP JUMPDEST JUMPDEST PUSH2 0xC8F DUP6 DUP3 DUP7 ADD PUSH2 0xB95 JUMP JUMPDEST SWAP3 POP POP PUSH1 0x20 DUP4 ADD CALLDATALOAD PUSH8 0xFFFFFFFFFFFFFFFF DUP2 GT ISZERO PUSH2 0xCB0 JUMPI PUSH2 0xCAF PUSH2 0x11D1 JUMP JUMPDEST JUMPDEST PUSH2 0xCBC DUP6 DUP3 DUP7 ADD PUSH2 0xB95 JUMP JUMPDEST SWAP2 POP POP SWAP3 POP SWAP3 SWAP1 POP JUMP JUMPDEST PUSH1 0x0 PUSH1 0x20 DUP3 DUP5 SUB SLT ISZERO PUSH2 0xCDC JUMPI PUSH2 0xCDB PUSH2 0x11D6 JUMP JUMPDEST JUMPDEST PUSH1 0x0 PUSH2 0xCEA DUP5 DUP3 DUP6 ADD PUSH2 0xBC3 JUMP JUMPDEST SWAP2 POP POP SWAP3 SWAP2 POP POP JUMP JUMPDEST PUSH1 0x0 DUP1 PUSH1 0x40 DUP4 DUP6 SUB SLT ISZERO PUSH2 0xD0A JUMPI PUSH2 0xD09 PUSH2 0x11D6 JUMP JUMPDEST JUMPDEST PUSH1 0x0 PUSH2 0xD18 DUP6 DUP3 DUP7 ADD PUSH2 0xBC3 JUMP JUMPDEST SWAP3 POP POP PUSH1 0x20 DUP4 ADD CALLDATALOAD PUSH8 0xFFFFFFFFFFFFFFFF DUP2 GT ISZERO PUSH2 0xD39 JUMPI PUSH2 0xD38 PUSH2 0x11D1 JUMP JUMPDEST JUMPDEST PUSH2 0xD45 DUP6 DUP3 DUP7 ADD PUSH2 0xB95 JUMP JUMPDEST SWAP2 POP POP SWAP3 POP SWAP3 SWAP1 POP JUMP JUMPDEST PUSH1 0x0 PUSH2 0xD5B DUP4 DUP4 PUSH2 0xE30 JUMP JUMPDEST PUSH1 0x20 DUP4 ADD SWAP1 POP SWAP3 SWAP2 POP POP JUMP JUMPDEST PUSH2 0xD70 DUP2 PUSH2 0x1010 JUMP JUMPDEST DUP3 MSTORE POP POP JUMP JUMPDEST PUSH1 0x0 PUSH2 0xD81 DUP3 PUSH2 0xFCB JUMP JUMPDEST PUSH2 0xD8B DUP2 DUP6 PUSH2 0xFEE JUMP JUMPDEST SWAP4 POP PUSH2 0xD96 DUP4 PUSH2 0xFBB JUMP JUMPDEST DUP1 PUSH1 0x0 JUMPDEST DUP4 DUP2 LT ISZERO PUSH2 0xDC7 JUMPI DUP2 MLOAD PUSH2 0xDAE DUP9 DUP3 PUSH2 0xD4F JUMP JUMPDEST SWAP8 POP PUSH2 0xDB9 DUP4 PUSH2 0xFE1 JUMP JUMPDEST SWAP3 POP POP PUSH1 0x1 DUP2 ADD SWAP1 POP PUSH2 0xD9A JUMP JUMPDEST POP DUP6 SWAP4 POP POP POP POP SWAP3 SWAP2 POP POP JUMP JUMPDEST PUSH1 0x0 PUSH2 0xDDF DUP3 PUSH2 0xFD6 JUMP JUMPDEST PUSH2 0xDE9 DUP2 DUP6 PUSH2 0xFFF JUMP JUMPDEST SWAP4 POP PUSH2 0xDF9 DUP2 DUP6 PUSH1 0x20 DUP7 ADD PUSH2 0x105B JUMP JUMPDEST PUSH2 0xE02 DUP2 PUSH2 0x11DB JUMP JUMPDEST DUP5 ADD SWAP2 POP POP SWAP3 SWAP2 POP POP JUMP JUMPDEST PUSH1 0x0 PUSH2 0xE1A PUSH1 0x1A DUP4 PUSH2 0xFFF JUMP JUMPDEST SWAP2 POP PUSH2 0xE25 DUP3 PUSH2 0x11EC JUMP JUMPDEST PUSH1 0x20 DUP3 ADD SWAP1 POP SWAP2 SWAP1 POP JUMP JUMPDEST PUSH2 0xE39 DUP2 PUSH2 0x1042 JUMP JUMPDEST DUP3 MSTORE POP POP JUMP JUMPDEST PUSH2 0xE48 DUP2 PUSH2 0x1042 JUMP JUMPDEST DUP3 MSTORE POP POP JUMP JUMPDEST PUSH1 0x0 PUSH1 0x20 DUP3 ADD SWAP1 POP DUP2 DUP2 SUB PUSH1 0x0 DUP4 ADD MSTORE PUSH2 0xE68 DUP2 DUP5 PUSH2 0xD76 JUMP JUMPDEST SWAP1 POP SWAP3 SWAP2 POP POP JUMP JUMPDEST PUSH1 0x0 PUSH1 0x40 DUP3 ADD SWAP1 POP DUP2 DUP2 SUB PUSH1 0x0 DUP4 ADD MSTORE PUSH2 0xE8A DUP2 DUP6 PUSH2 0xDD4 JUMP JUMPDEST SWAP1 POP DUP2 DUP2 SUB PUSH1 0x20 DUP4 ADD MSTORE PUSH2 0xE9E DUP2 DUP5 PUSH2 0xDD4 JUMP JUMPDEST SWAP1 POP SWAP4 SWAP3 POP POP POP JUMP JUMPDEST PUSH1 0x0 PUSH1 0x80 DUP3 ADD SWAP1 POP DUP2 DUP2 SUB PUSH1 0x0 DUP4 ADD MSTORE PUSH2 0xEC1 DUP2 DUP8 PUSH2 0xDD4 JUMP JUMPDEST SWAP1 POP DUP2 DUP2 SUB PUSH1 0x20 DUP4 ADD MSTORE PUSH2 0xED5 DUP2 DUP7 PUSH2 0xDD4 JUMP JUMPDEST SWAP1 POP PUSH2 0xEE4 PUSH1 0x40 DUP4 ADD DUP6 PUSH2 0xD67 JUMP JUMPDEST PUSH2 0xEF1 PUSH1 0x60 DUP4 ADD DUP5 PUSH2 0xE3F JUMP JUMPDEST SWAP6 SWAP5 POP POP POP POP POP JUMP JUMPDEST PUSH1 0x0 PUSH1 0x20 DUP3 ADD SWAP1 POP DUP2 DUP2 SUB PUSH1 0x0 DUP4 ADD MSTORE PUSH2 0xF13 DUP2 PUSH2 0xE0D JUMP JUMPDEST SWAP1 POP SWAP2 SWAP1 POP JUMP JUMPDEST PUSH1 0x0 PUSH1 0x20 DUP3 ADD SWAP1 POP PUSH2 0xF2F PUSH1 0x0 DUP4 ADD DUP5 PUSH2 0xE3F JUMP JUMPDEST SWAP3 SWAP2 POP POP JUMP JUMPDEST PUSH1 0x0 PUSH1 0x40 DUP3 ADD SWAP1 POP PUSH2 0xF4A PUSH1 0x0 DUP4 ADD DUP6 PUSH2 0xE3F JUMP JUMPDEST DUP2 DUP2 SUB PUSH1 0x20 DUP4 ADD MSTORE PUSH2 0xF5C DUP2 DUP5 PUSH2 0xDD4 JUMP JUMPDEST SWAP1 POP SWAP4 SWAP3 POP POP POP JUMP JUMPDEST PUSH1 0x0 PUSH2 0xF6F PUSH2 0xF80 JUMP JUMPDEST SWAP1 POP PUSH2 0xF7B DUP3 DUP3 PUSH2 0x10C0 JUMP JUMPDEST SWAP2 SWAP1 POP JUMP JUMPDEST PUSH1 0x0 PUSH1 0x40 MLOAD SWAP1 POP SWAP1 JUMP JUMPDEST PUSH1 0x0 PUSH8 0xFFFFFFFFFFFFFFFF DUP3 GT ISZERO PUSH2 0xFA5 JUMPI PUSH2 0xFA4 PUSH2 0x1198 JUMP JUMPDEST JUMPDEST PUSH2 0xFAE DUP3 PUSH2 0x11DB JUMP JUMPDEST SWAP1 POP PUSH1 0x20 DUP2 ADD SWAP1 POP SWAP2 SWAP1 POP JUMP JUMPDEST PUSH1 0x0 DUP2 SWAP1 POP PUSH1 0x20 DUP3 ADD SWAP1 POP SWAP2 SWAP1 POP JUMP JUMPDEST PUSH1 0x0 DUP2 MLOAD SWAP1 POP SWAP2 SWAP1 POP JUMP JUMPDEST PUSH1 0x0 DUP2 MLOAD SWAP1 POP SWAP2 SWAP1 POP JUMP JUMPDEST PUSH1 0x0 PUSH1 0x20 DUP3 ADD SWAP1 POP SWAP2 SWAP1 POP JUMP JUMPDEST PUSH1 0x0 DUP3 DUP3 MSTORE PUSH1 0x20 DUP3 ADD SWAP1 POP SWAP3 SWAP2 POP POP JUMP JUMPDEST PUSH1 0x0 DUP3 DUP3 MSTORE PUSH1 0x20 DUP3 ADD SWAP1 POP SWAP3 SWAP2 POP POP JUMP JUMPDEST PUSH1 0x0 PUSH2 0x101B DUP3 PUSH2 0x1022 JUMP JUMPDEST SWAP1 POP SWAP2 SWAP1 POP JUMP JUMPDEST PUSH1 0x0 PUSH20 0xFFFFFFFFFFFFFFFFFFFFFFFFFFFFFFFFFFFFFFFF DUP3 AND SWAP1 POP SWAP2 SWAP1 POP JUMP JUMPDEST PUSH1 0x0 DUP2 SWAP1 POP SWAP2 SWAP1 POP JUMP JUMPDEST DUP3 DUP2 DUP4 CALLDATACOPY PUSH1 0x0 DUP4 DUP4 ADD MSTORE POP POP POP JUMP JUMPDEST PUSH1 0x0 JUMPDEST DUP4 DUP2 LT ISZERO PUSH2 0x1079 JUMPI DUP1 DUP3 ADD MLOAD DUP2 DUP5 ADD MSTORE PUSH1 0x20 DUP2 ADD SWAP1 POP PUSH2 0x105E JUMP JUMPDEST DUP4 DUP2 GT ISZERO PUSH2 0x1088 JUMPI PUSH1 0x0 DUP5 DUP5 ADD MSTORE JUMPDEST POP POP POP POP JUMP JUMPDEST PUSH1 0x0 PUSH1 0x2 DUP3 DIV SWAP1 POP PUSH1 0x1 DUP3 AND DUP1 PUSH2 0x10A6 JUMPI PUSH1 0x7F DUP3 AND SWAP2 POP JUMPDEST PUSH1 0x20 DUP3 LT DUP2 EQ ISZERO PUSH2 0x10BA JUMPI PUSH2 0x10B9 PUSH2 0x1169 JUMP JUMPDEST JUMPDEST POP SWAP2 SWAP1 POP JUMP JUMPDEST PUSH2 0x10C9 DUP3 PUSH2 0x11DB JUMP JUMPDEST DUP2 ADD DUP2 DUP2 LT PUSH8 0xFFFFFFFFFFFFFFFF DUP3 GT OR ISZERO PUSH2 0x10E8 JUMPI PUSH2 0x10E7 PUSH2 0x1198 JUMP JUMPDEST JUMPDEST DUP1 PUSH1 0x40 MSTORE POP POP POP JUMP JUMPDEST PUSH1 0x0 PUSH2 0x10FC DUP3 PUSH2 0x1042 JUMP JUMPDEST SWAP2 POP PUSH32 0xFFFFFFFFFFFFFFFFFFFFFFFFFFFFFFFFFFFFFFFFFFFFFFFFFFFFFFFFFFFFFFFF DUP3 EQ ISZERO PUSH2 0x112F JUMPI PUSH2 0x112E PUSH2 0x113A JUMP JUMPDEST JUMPDEST PUSH1 0x1 DUP3 ADD SWAP1 POP SWAP2 SWAP1 POP JUMP JUMPDEST PUSH32 0x4E487B7100000000000000000000000000000000000000000000000000000000 PUSH1 0x0 MSTORE PUSH1 0x11 PUSH1 0x4 MSTORE PUSH1 0x24 PUSH1 0x0 REVERT JUMPDEST PUSH32 0x4E487B7100000000000000000000000000000000000000000000000000000000 PUSH1 0x0 MSTORE PUSH1 0x22 PUSH1 0x4 MSTORE PUSH1 0x24 PUSH1 0x0 REVERT JUMPDEST PUSH32 0x4E487B7100000000000000000000000000000000000000000000000000000000 PUSH1 0x0 MSTORE PUSH1 0x41 PUSH1 0x4 MSTORE PUSH1 0x24 PUSH1 0x0 REVERT JUMPDEST PUSH1 0x0 DUP1 REVERT JUMPDEST PUSH1 0x0 DUP1 REVERT JUMPDEST PUSH1 0x0 DUP1 REVERT JUMPDEST PUSH1 0x0 DUP1 REVERT JUMPDEST PUSH1 0x0 PUSH1 0x1F NOT PUSH1 0x1F DUP4 ADD AND SWAP1 POP SWAP2 SWAP1 POP JUMP JUMPDEST PUSH32 0x4F6E6C792074686520617574686F722063616E206D6F64696679000000000000 PUSH1 0x0 DUP3 ADD MSTORE POP JUMP JUMPDEST PUSH2 0x121E DUP2 PUSH2 0x1010 JUMP JUMPDEST DUP2 EQ PUSH2 0x1229 JUMPI PUSH1 0x0 DUP1 REVERT JUMPDEST POP JUMP JUMPDEST PUSH2 0x1235 DUP2 PUSH2 0x1042 JUMP JUMPDEST DUP2 EQ PUSH2 0x1240 JUMPI PUSH1 0x0 DUP1 REVERT JUMPDEST POP JUMP INVALID LOG2 PUSH5 0x6970667358 0x22 SLT KECCAK256 0xBC 0xC2 0x28 PUSH18 0xAF7667D65B6FFC24842086BE45D744AF6607 CALLDATALOAD SGT SWAP1 0xE5 0x5D BLOCKHASH 0xF8 0xD 0xA9 GT PUSH5 0x736F6C6343 STOP ADDMOD SMOD STOP CALLER "
				},
				"gasEstimates": {
					"creation": {
						"codeDepositCost": "945800",
						"executionCost": "5987",
						"totalCost": "951787"
					},
					"external": {
						"createPost(string,string)": "infinite",
						"getPostById(uint256)": "infinite",
						"getPostIdsByAuthor(address)": "infinite",
						"latestPostId()": "2473",
						"modifyPostContent(uint256,string)": "infinite",
						"modifyPostTitle(uint256,string)": "infinite",
						"posts(uint256)": "infinite",
						"updateBio(string)": "infinite",
						"updateUsername(string)": "infinite",
						"users(address)": "infinite"
					}
				},
				"methodIdentifiers": {
					"createPost(string,string)": "392338f5",
					"getPostById(uint256)": "64e95895",
					"getPostIdsByAuthor(address)": "6910cf8e",
					"latestPostId()": "9b15d047",
					"modifyPostContent(uint256,string)": "96d86a99",
					"modifyPostTitle(uint256,string)": "9735f90f",
					"posts(uint256)": "0b1e7f83",
					"updateBio(string)": "76487b38",
					"updateUsername(string)": "c96cea70",
					"users(address)": "a87430ba"
				}
			},
			"storageLayout": {
				"storage": [
					{
						"astId": 4,
						"contract": "contracts/day9.sol:MiniBlogV6",
						"label": "latestPostId",
						"offset": 0,
						"slot": "0",
						"type": "t_uint256"
					},
					{
						"astId": 26,
						"contract": "contracts/day9.sol:MiniBlogV6",
						"label": "users",
						"offset": 0,
						"slot": "1",
						"type": "t_mapping(t_address,t_struct(User)12_storage)"
					},
					{
						"astId": 31,
						"contract": "contracts/day9.sol:MiniBlogV6",
						"label": "posts",
						"offset": 0,
						"slot": "2",
						"type": "t_mapping(t_uint256,t_struct(Post)21_storage)"
					}
				],
				"types": {
					"t_address": {
						"encoding": "inplace",
						"label": "address",
						"numberOfBytes": "20"
					},
					"t_array(t_uint256)dyn_storage": {
						"base": "t_uint256",
						"encoding": "dynamic_array",
						"label": "uint256[]",
						"numberOfBytes": "32"
					},
					"t_mapping(t_address,t_struct(User)12_storage)": {
						"encoding": "mapping",
						"key": "t_address",
						"label": "mapping(address => struct MiniBlogV6.User)",
						"numberOfBytes": "32",
						"value": "t_struct(User)12_storage"
					},
					"t_mapping(t_uint256,t_struct(Post)21_storage)": {
						"encoding": "mapping",
						"key": "t_uint256",
						"label": "mapping(uint256 => struct MiniBlogV6.Post)",
						"numberOfBytes": "32",
						"value": "t_struct(Post)21_storage"
					},
					"t_string_storage": {
						"encoding": "bytes",
						"label": "string",
						"numberOfBytes": "32"
					},
					"t_struct(Post)21_storage": {
						"encoding": "inplace",
						"label": "struct MiniBlogV6.Post",
						"members": [
							{
								"astId": 14,
								"contract": "contracts/day9.sol:MiniBlogV6",
								"label": "title",
								"offset": 0,
								"slot": "0",
								"type": "t_string_storage"
							},
							{
								"astId": 16,
								"contract": "contracts/day9.sol:MiniBlogV6",
								"label": "content",
								"offset": 0,
								"slot": "1",
								"type": "t_string_storage"
							},
							{
								"astId": 18,
								"contract": "contracts/day9.sol:MiniBlogV6",
								"label": "author",
								"offset": 0,
								"slot": "2",
								"type": "t_address"
							},
							{
								"astId": 20,
								"contract": "contracts/day9.sol:MiniBlogV6",
								"label": "created",
								"offset": 0,
								"slot": "3",
								"type": "t_uint256"
							}
						],
						"numberOfBytes": "128"
					},
					"t_struct(User)12_storage": {
						"encoding": "inplace",
						"label": "struct MiniBlogV6.User",
						"members": [
							{
								"astId": 6,
								"contract": "contracts/day9.sol:MiniBlogV6",
								"label": "username",
								"offset": 0,
								"slot": "0",
								"type": "t_string_storage"
							},
							{
								"astId": 8,
								"contract": "contracts/day9.sol:MiniBlogV6",
								"label": "bio",
								"offset": 0,
								"slot": "1",
								"type": "t_string_storage"
							},
							{
								"astId": 11,
								"contract": "contracts/day9.sol:MiniBlogV6",
								"label": "postIds",
								"offset": 0,
								"slot": "2",
								"type": "t_array(t_uint256)dyn_storage"
							}
						],
						"numberOfBytes": "96"
					},
					"t_uint256": {
						"encoding": "inplace",
						"label": "uint256",
						"numberOfBytes": "32"
					}
				}
			},
			"userdoc": {
				"kind": "user",
				"methods": {},
				"version": 1
			}
		}
	}
}