{
	"contracts/blog.sol": {
		"blog": {
			"abi": [
				{
					"anonymous": false,
					"inputs": [
						{
							"indexed": true,
							"internalType": "address",
							"name": "user",
							"type": "address"
						},
						{
							"indexed": true,
							"internalType": "string",
							"name": "title",
							"type": "string"
						},
						{
							"indexed": true,
							"internalType": "string",
							"name": "description",
							"type": "string"
						}
					],
					"name": "broadcastDetails",
					"type": "event"
				},
				{
					"inputs": [],
					"name": "counter",
					"outputs": [
						{
							"internalType": "uint256",
							"name": "",
							"type": "uint256"
						}
					],
					"stateMutability": "view",
					"type": "function"
				},
				{
					"inputs": [
						{
							"internalType": "string",
							"name": "_title",
							"type": "string"
						},
						{
							"internalType": "string",
							"name": "_description",
							"type": "string"
						}
					],
					"name": "createPost",
					"outputs": [],
					"stateMutability": "nonpayable",
					"type": "function"
				},
				{
					"inputs": [
						{
							"internalType": "uint256",
							"name": "",
							"type": "uint256"
						}
					],
					"name": "posts",
					"outputs": [
						{
							"internalType": "address",
							"name": "",
							"type": "address"
						}
					],
					"stateMutability": "view",
					"type": "function"
				},
				{
					"inputs": [
						{
							"internalType": "uint256",
							"name": "",
							"type": "uint256"
						}
					],
					"name": "userPosts",
					"outputs": [
						{
							"internalType": "string",
							"name": "title",
							"type": "string"
						},
						{
							"internalType": "string",
							"name": "description",
							"type": "string"
						},
						{
							"internalType": "address",
							"name": "user",
							"type": "address"
						}
					],
					"stateMutability": "view",
					"type": "function"
				}
			],
			"devdoc": {
				"kind": "dev",
				"methods": {},
				"version": 1
			},
			"evm": {
				"assembly": "    /* \"contracts/blog.sol\":90:1107  contract blog{\r... */\n  mstore(0x40, 0x80)\n    /* \"contracts/blog.sol\":157:158  0 */\n  0x00\n    /* \"contracts/blog.sol\":135:158  uint public counter = 0 */\n  dup1\n  sstore\n    /* \"contracts/blog.sol\":90:1107  contract blog{\r... */\n  callvalue\n  dup1\n  iszero\n  tag_1\n  jumpi\n  0x00\n  dup1\n  revert\ntag_1:\n  pop\n  dataSize(sub_0)\n  dup1\n  dataOffset(sub_0)\n  0x00\n  codecopy\n  0x00\n  return\nstop\n\nsub_0: assembly {\n        /* \"contracts/blog.sol\":90:1107  contract blog{\r... */\n      mstore(0x40, 0x80)\n      callvalue\n      dup1\n      iszero\n      tag_1\n      jumpi\n      0x00\n      dup1\n      revert\n    tag_1:\n      pop\n      jumpi(tag_2, lt(calldatasize, 0x04))\n      shr(0xe0, calldataload(0x00))\n      dup1\n      0x0b1e7f83\n      eq\n      tag_3\n      jumpi\n      dup1\n      0x392338f5\n      eq\n      tag_4\n      jumpi\n      dup1\n      0x61bc221a\n      eq\n      tag_5\n      jumpi\n      dup1\n      0xfdd6ea71\n      eq\n      tag_6\n      jumpi\n    tag_2:\n      0x00\n      dup1\n      revert\n        /* \"contracts/blog.sol\":554:591  mapping(uint => address) public posts */\n    tag_3:\n      tag_7\n      0x04\n      dup1\n      calldatasize\n      sub\n      dup2\n      add\n      swap1\n      tag_8\n      swap2\n      swap1\n      tag_9\n      jump\t// in\n    tag_8:\n      tag_10\n      jump\t// in\n    tag_7:\n      mload(0x40)\n      tag_11\n      swap2\n      swap1\n      tag_12\n      jump\t// in\n    tag_11:\n      mload(0x40)\n      dup1\n      swap2\n      sub\n      swap1\n      return\n        /* \"contracts/blog.sol\":869:1104  function createPost(string memory _title,string memory _description)\r... */\n    tag_4:\n      tag_13\n      0x04\n      dup1\n      calldatasize\n      sub\n      dup2\n      add\n      swap1\n      tag_14\n      swap2\n      swap1\n      tag_15\n      jump\t// in\n    tag_14:\n      tag_16\n      jump\t// in\n    tag_13:\n      stop\n        /* \"contracts/blog.sol\":135:158  uint public counter = 0 */\n    tag_5:\n      tag_17\n      tag_18\n      jump\t// in\n    tag_17:\n      mload(0x40)\n      tag_19\n      swap2\n      swap1\n      tag_20\n      jump\t// in\n    tag_19:\n      mload(0x40)\n      dup1\n      swap2\n      sub\n      swap1\n      return\n        /* \"contracts/blog.sol\":635:673  mapping(uint => Post) public userPosts */\n    tag_6:\n      tag_21\n      0x04\n      dup1\n      calldatasize\n      sub\n      dup2\n      add\n      swap1\n      tag_22\n      swap2\n      swap1\n      tag_9\n      jump\t// in\n    tag_22:\n      tag_23\n      jump\t// in\n    tag_21:\n      mload(0x40)\n      tag_24\n      swap4\n      swap3\n      swap2\n      swap1\n      tag_25\n      jump\t// in\n    tag_24:\n      mload(0x40)\n      dup1\n      swap2\n      sub\n      swap1\n      return\n        /* \"contracts/blog.sol\":554:591  mapping(uint => address) public posts */\n    tag_10:\n      mstore(0x20, 0x01)\n      dup1\n      0x00\n      mstore\n      keccak256(0x00, 0x40)\n      0x00\n      swap2\n      pop\n      sload\n      swap1\n      0x0100\n      exp\n      swap1\n      div\n      0xffffffffffffffffffffffffffffffffffffffff\n      and\n      dup2\n      jump\t// out\n        /* \"contracts/blog.sol\":869:1104  function createPost(string memory _title,string memory _description)\r... */\n    tag_16:\n        /* \"contracts/blog.sol\":991:1027  Post(_title,_description,msg.sender) */\n      mload(0x40)\n      dup1\n      0x60\n      add\n      0x40\n      mstore\n      dup1\n        /* \"contracts/blog.sol\":996:1002  _title */\n      dup4\n        /* \"contracts/blog.sol\":991:1027  Post(_title,_description,msg.sender) */\n      dup2\n      mstore\n      0x20\n      add\n        /* \"contracts/blog.sol\":1003:1015  _description */\n      dup3\n        /* \"contracts/blog.sol\":991:1027  Post(_title,_description,msg.sender) */\n      dup2\n      mstore\n      0x20\n      add\n        /* \"contracts/blog.sol\":1016:1026  msg.sender */\n      caller\n        /* \"contracts/blog.sol\":991:1027  Post(_title,_description,msg.sender) */\n      0xffffffffffffffffffffffffffffffffffffffff\n      and\n      dup2\n      mstore\n      pop\n        /* \"contracts/blog.sol\":970:979  userPosts */\n      0x02\n        /* \"contracts/blog.sol\":970:988  userPosts[counter] */\n      0x00\n        /* \"contracts/blog.sol\":980:987  counter */\n      dup1\n      sload\n        /* \"contracts/blog.sol\":970:988  userPosts[counter] */\n      dup2\n      mstore\n      0x20\n      add\n      swap1\n      dup2\n      mstore\n      0x20\n      add\n      0x00\n      keccak256\n        /* \"contracts/blog.sol\":970:1027  userPosts[counter] = Post(_title,_description,msg.sender) */\n      0x00\n      dup3\n      add\n      mload\n      dup2\n      0x00\n      add\n      swap1\n      dup1\n      mload\n      swap1\n      0x20\n      add\n      swap1\n      tag_27\n      swap3\n      swap2\n      swap1\n      tag_28\n      jump\t// in\n    tag_27:\n      pop\n      0x20\n      dup3\n      add\n      mload\n      dup2\n      0x01\n      add\n      swap1\n      dup1\n      mload\n      swap1\n      0x20\n      add\n      swap1\n      tag_29\n      swap3\n      swap2\n      swap1\n      tag_28\n      jump\t// in\n    tag_29:\n      pop\n      0x40\n      dup3\n      add\n      mload\n      dup2\n      0x02\n      add\n      exp(0x0100, 0x00)\n      dup2\n      sload\n      dup2\n      0xffffffffffffffffffffffffffffffffffffffff\n      mul\n      not\n      and\n      swap1\n      dup4\n      0xffffffffffffffffffffffffffffffffffffffff\n      and\n      mul\n      or\n      swap1\n      sstore\n      pop\n      swap1\n      pop\n      pop\n        /* \"contracts/blog.sol\":1083:1095  _description */\n      dup1\n        /* \"contracts/blog.sol\":1047:1096  broadcastDetails(msg.sender, _title,_description) */\n      mload(0x40)\n      tag_30\n      swap2\n      swap1\n      tag_31\n      jump\t// in\n    tag_30:\n      mload(0x40)\n      dup1\n      swap2\n      sub\n      swap1\n      keccak256\n        /* \"contracts/blog.sol\":1076:1082  _title */\n      dup3\n        /* \"contracts/blog.sol\":1047:1096  broadcastDetails(msg.sender, _title,_description) */\n      mload(0x40)\n      tag_32\n      swap2\n      swap1\n      tag_31\n      jump\t// in\n    tag_32:\n      mload(0x40)\n      dup1\n      swap2\n      sub\n      swap1\n      keccak256\n        /* \"contracts/blog.sol\":1064:1074  msg.sender */\n      caller\n        /* \"contracts/blog.sol\":1047:1096  broadcastDetails(msg.sender, _title,_description) */\n      0xffffffffffffffffffffffffffffffffffffffff\n      and\n      0x4eacffc497062f11928adc3628e2047cd720623235f6f37529db1d95cc75ecbf\n      mload(0x40)\n      mload(0x40)\n      dup1\n      swap2\n      sub\n      swap1\n      log4\n        /* \"contracts/blog.sol\":869:1104  function createPost(string memory _title,string memory _description)\r... */\n      pop\n      pop\n      jump\t// out\n        /* \"contracts/blog.sol\":135:158  uint public counter = 0 */\n    tag_18:\n      sload(0x00)\n      dup2\n      jump\t// out\n        /* \"contracts/blog.sol\":635:673  mapping(uint => Post) public userPosts */\n    tag_23:\n      mstore(0x20, 0x02)\n      dup1\n      0x00\n      mstore\n      keccak256(0x00, 0x40)\n      0x00\n      swap2\n      pop\n      swap1\n      pop\n      dup1\n      0x00\n      add\n      dup1\n      sload\n      tag_33\n      swap1\n      tag_34\n      jump\t// in\n    tag_33:\n      dup1\n      0x1f\n      add\n      0x20\n      dup1\n      swap2\n      div\n      mul\n      0x20\n      add\n      mload(0x40)\n      swap1\n      dup2\n      add\n      0x40\n      mstore\n      dup1\n      swap3\n      swap2\n      swap1\n      dup2\n      dup2\n      mstore\n      0x20\n      add\n      dup3\n      dup1\n      sload\n      tag_35\n      swap1\n      tag_34\n      jump\t// in\n    tag_35:\n      dup1\n      iszero\n      tag_36\n      jumpi\n      dup1\n      0x1f\n      lt\n      tag_37\n      jumpi\n      0x0100\n      dup1\n      dup4\n      sload\n      div\n      mul\n      dup4\n      mstore\n      swap2\n      0x20\n      add\n      swap2\n      jump(tag_36)\n    tag_37:\n      dup3\n      add\n      swap2\n      swap1\n      0x00\n      mstore\n      keccak256(0x00, 0x20)\n      swap1\n    tag_38:\n      dup2\n      sload\n      dup2\n      mstore\n      swap1\n      0x01\n      add\n      swap1\n      0x20\n      add\n      dup1\n      dup4\n      gt\n      tag_38\n      jumpi\n      dup3\n      swap1\n      sub\n      0x1f\n      and\n      dup3\n      add\n      swap2\n    tag_36:\n      pop\n      pop\n      pop\n      pop\n      pop\n      swap1\n      dup1\n      0x01\n      add\n      dup1\n      sload\n      tag_39\n      swap1\n      tag_34\n      jump\t// in\n    tag_39:\n      dup1\n      0x1f\n      add\n      0x20\n      dup1\n      swap2\n      div\n      mul\n      0x20\n      add\n      mload(0x40)\n      swap1\n      dup2\n      add\n      0x40\n      mstore\n      dup1\n      swap3\n      swap2\n      swap1\n      dup2\n      dup2\n      mstore\n      0x20\n      add\n      dup3\n      dup1\n      sload\n      tag_40\n      swap1\n      tag_34\n      jump\t// in\n    tag_40:\n      dup1\n      iszero\n      tag_41\n      jumpi\n      dup1\n      0x1f\n      lt\n      tag_42\n      jumpi\n      0x0100\n      dup1\n      dup4\n      sload\n      div\n      mul\n      dup4\n      mstore\n      swap2\n      0x20\n      add\n      swap2\n      jump(tag_41)\n    tag_42:\n      dup3\n      add\n      swap2\n      swap1\n      0x00\n      mstore\n      keccak256(0x00, 0x20)\n      swap1\n    tag_43:\n      dup2\n      sload\n      dup2\n      mstore\n      swap1\n      0x01\n      add\n      swap1\n      0x20\n      add\n      dup1\n      dup4\n      gt\n      tag_43\n      jumpi\n      dup3\n      swap1\n      sub\n      0x1f\n      and\n      dup3\n      add\n      swap2\n    tag_41:\n      pop\n      pop\n      pop\n      pop\n      pop\n      swap1\n      dup1\n      0x02\n      add\n      0x00\n      swap1\n      sload\n      swap1\n      0x0100\n      exp\n      swap1\n      div\n      0xffffffffffffffffffffffffffffffffffffffff\n      and\n      swap1\n      pop\n      dup4\n      jump\t// out\n    tag_28:\n      dup3\n      dup1\n      sload\n      tag_44\n      swap1\n      tag_34\n      jump\t// in\n    tag_44:\n      swap1\n      0x00\n      mstore\n      keccak256(0x00, 0x20)\n      swap1\n      0x1f\n      add\n      0x20\n      swap1\n      div\n      dup2\n      add\n      swap3\n      dup3\n      tag_46\n      jumpi\n      0x00\n      dup6\n      sstore\n      jump(tag_45)\n    tag_46:\n      dup3\n      0x1f\n      lt\n      tag_47\n      jumpi\n      dup1\n      mload\n      not(0xff)\n      and\n      dup4\n      dup1\n      add\n      or\n      dup6\n      sstore\n      jump(tag_45)\n    tag_47:\n      dup3\n      dup1\n      add\n      0x01\n      add\n      dup6\n      sstore\n      dup3\n      iszero\n      tag_45\n      jumpi\n      swap2\n      dup3\n      add\n    tag_48:\n      dup3\n      dup2\n      gt\n      iszero\n      tag_49\n      jumpi\n      dup3\n      mload\n      dup3\n      sstore\n      swap2\n      0x20\n      add\n      swap2\n      swap1\n      0x01\n      add\n      swap1\n      jump(tag_48)\n    tag_49:\n    tag_45:\n      pop\n      swap1\n      pop\n      tag_50\n      swap2\n      swap1\n      tag_51\n      jump\t// in\n    tag_50:\n      pop\n      swap1\n      jump\t// out\n    tag_51:\n    tag_52:\n      dup1\n      dup3\n      gt\n      iszero\n      tag_53\n      jumpi\n      0x00\n      dup2\n      0x00\n      swap1\n      sstore\n      pop\n      0x01\n      add\n      jump(tag_52)\n    tag_53:\n      pop\n      swap1\n      jump\t// out\n        /* \"#utility.yul\":7:419   */\n    tag_55:\n        /* \"#utility.yul\":85:90   */\n      0x00\n        /* \"#utility.yul\":110:176   */\n      tag_57\n        /* \"#utility.yul\":126:175   */\n      tag_58\n        /* \"#utility.yul\":168:174   */\n      dup5\n        /* \"#utility.yul\":126:175   */\n      tag_59\n      jump\t// in\n    tag_58:\n        /* \"#utility.yul\":110:176   */\n      tag_60\n      jump\t// in\n    tag_57:\n        /* \"#utility.yul\":101:176   */\n      swap1\n      pop\n        /* \"#utility.yul\":199:205   */\n      dup3\n        /* \"#utility.yul\":192:197   */\n      dup2\n        /* \"#utility.yul\":185:206   */\n      mstore\n        /* \"#utility.yul\":237:241   */\n      0x20\n        /* \"#utility.yul\":230:235   */\n      dup2\n        /* \"#utility.yul\":226:242   */\n      add\n        /* \"#utility.yul\":275:278   */\n      dup5\n        /* \"#utility.yul\":266:272   */\n      dup5\n        /* \"#utility.yul\":261:264   */\n      dup5\n        /* \"#utility.yul\":257:273   */\n      add\n        /* \"#utility.yul\":254:279   */\n      gt\n        /* \"#utility.yul\":251:363   */\n      iszero\n      tag_61\n      jumpi\n        /* \"#utility.yul\":282:361   */\n      tag_62\n      tag_63\n      jump\t// in\n    tag_62:\n        /* \"#utility.yul\":251:363   */\n    tag_61:\n        /* \"#utility.yul\":372:413   */\n      tag_64\n        /* \"#utility.yul\":406:412   */\n      dup5\n        /* \"#utility.yul\":401:404   */\n      dup3\n        /* \"#utility.yul\":396:399   */\n      dup6\n        /* \"#utility.yul\":372:413   */\n      tag_65\n      jump\t// in\n    tag_64:\n        /* \"#utility.yul\":91:419   */\n      pop\n        /* \"#utility.yul\":7:419   */\n      swap4\n      swap3\n      pop\n      pop\n      pop\n      jump\t// out\n        /* \"#utility.yul\":439:779   */\n    tag_66:\n        /* \"#utility.yul\":495:500   */\n      0x00\n        /* \"#utility.yul\":544:547   */\n      dup3\n        /* \"#utility.yul\":537:541   */\n      0x1f\n        /* \"#utility.yul\":529:535   */\n      dup4\n        /* \"#utility.yul\":525:542   */\n      add\n        /* \"#utility.yul\":521:548   */\n      slt\n        /* \"#utility.yul\":511:633   */\n      tag_68\n      jumpi\n        /* \"#utility.yul\":552:631   */\n      tag_69\n      tag_70\n      jump\t// in\n    tag_69:\n        /* \"#utility.yul\":511:633   */\n    tag_68:\n        /* \"#utility.yul\":669:675   */\n      dup2\n        /* \"#utility.yul\":656:676   */\n      calldataload\n        /* \"#utility.yul\":694:773   */\n      tag_71\n        /* \"#utility.yul\":769:772   */\n      dup5\n        /* \"#utility.yul\":761:767   */\n      dup3\n        /* \"#utility.yul\":754:758   */\n      0x20\n        /* \"#utility.yul\":746:752   */\n      dup7\n        /* \"#utility.yul\":742:759   */\n      add\n        /* \"#utility.yul\":694:773   */\n      tag_55\n      jump\t// in\n    tag_71:\n        /* \"#utility.yul\":685:773   */\n      swap2\n      pop\n        /* \"#utility.yul\":501:779   */\n      pop\n        /* \"#utility.yul\":439:779   */\n      swap3\n      swap2\n      pop\n      pop\n      jump\t// out\n        /* \"#utility.yul\":785:924   */\n    tag_72:\n        /* \"#utility.yul\":831:836   */\n      0x00\n        /* \"#utility.yul\":869:875   */\n      dup2\n        /* \"#utility.yul\":856:876   */\n      calldataload\n        /* \"#utility.yul\":847:876   */\n      swap1\n      pop\n        /* \"#utility.yul\":885:918   */\n      tag_74\n        /* \"#utility.yul\":912:917   */\n      dup2\n        /* \"#utility.yul\":885:918   */\n      tag_75\n      jump\t// in\n    tag_74:\n        /* \"#utility.yul\":785:924   */\n      swap3\n      swap2\n      pop\n      pop\n      jump\t// out\n        /* \"#utility.yul\":930:1764   */\n    tag_15:\n        /* \"#utility.yul\":1018:1024   */\n      0x00\n        /* \"#utility.yul\":1026:1032   */\n      dup1\n        /* \"#utility.yul\":1075:1077   */\n      0x40\n        /* \"#utility.yul\":1063:1072   */\n      dup4\n        /* \"#utility.yul\":1054:1061   */\n      dup6\n        /* \"#utility.yul\":1050:1073   */\n      sub\n        /* \"#utility.yul\":1046:1078   */\n      slt\n        /* \"#utility.yul\":1043:1162   */\n      iszero\n      tag_77\n      jumpi\n        /* \"#utility.yul\":1081:1160   */\n      tag_78\n      tag_79\n      jump\t// in\n    tag_78:\n        /* \"#utility.yul\":1043:1162   */\n    tag_77:\n        /* \"#utility.yul\":1229:1230   */\n      0x00\n        /* \"#utility.yul\":1218:1227   */\n      dup4\n        /* \"#utility.yul\":1214:1231   */\n      add\n        /* \"#utility.yul\":1201:1232   */\n      calldataload\n        /* \"#utility.yul\":1259:1277   */\n      0xffffffffffffffff\n        /* \"#utility.yul\":1251:1257   */\n      dup2\n        /* \"#utility.yul\":1248:1278   */\n      gt\n        /* \"#utility.yul\":1245:1362   */\n      iszero\n      tag_80\n      jumpi\n        /* \"#utility.yul\":1281:1360   */\n      tag_81\n      tag_82\n      jump\t// in\n    tag_81:\n        /* \"#utility.yul\":1245:1362   */\n    tag_80:\n        /* \"#utility.yul\":1386:1449   */\n      tag_83\n        /* \"#utility.yul\":1441:1448   */\n      dup6\n        /* \"#utility.yul\":1432:1438   */\n      dup3\n        /* \"#utility.yul\":1421:1430   */\n      dup7\n        /* \"#utility.yul\":1417:1439   */\n      add\n        /* \"#utility.yul\":1386:1449   */\n      tag_66\n      jump\t// in\n    tag_83:\n        /* \"#utility.yul\":1376:1449   */\n      swap3\n      pop\n        /* \"#utility.yul\":1172:1459   */\n      pop\n        /* \"#utility.yul\":1526:1528   */\n      0x20\n        /* \"#utility.yul\":1515:1524   */\n      dup4\n        /* \"#utility.yul\":1511:1529   */\n      add\n        /* \"#utility.yul\":1498:1530   */\n      calldataload\n        /* \"#utility.yul\":1557:1575   */\n      0xffffffffffffffff\n        /* \"#utility.yul\":1549:1555   */\n      dup2\n        /* \"#utility.yul\":1546:1576   */\n      gt\n        /* \"#utility.yul\":1543:1660   */\n      iszero\n      tag_84\n      jumpi\n        /* \"#utility.yul\":1579:1658   */\n      tag_85\n      tag_82\n      jump\t// in\n    tag_85:\n        /* \"#utility.yul\":1543:1660   */\n    tag_84:\n        /* \"#utility.yul\":1684:1747   */\n      tag_86\n        /* \"#utility.yul\":1739:1746   */\n      dup6\n        /* \"#utility.yul\":1730:1736   */\n      dup3\n        /* \"#utility.yul\":1719:1728   */\n      dup7\n        /* \"#utility.yul\":1715:1737   */\n      add\n        /* \"#utility.yul\":1684:1747   */\n      tag_66\n      jump\t// in\n    tag_86:\n        /* \"#utility.yul\":1674:1747   */\n      swap2\n      pop\n        /* \"#utility.yul\":1469:1757   */\n      pop\n        /* \"#utility.yul\":930:1764   */\n      swap3\n      pop\n      swap3\n      swap1\n      pop\n      jump\t// out\n        /* \"#utility.yul\":1770:2099   */\n    tag_9:\n        /* \"#utility.yul\":1829:1835   */\n      0x00\n        /* \"#utility.yul\":1878:1880   */\n      0x20\n        /* \"#utility.yul\":1866:1875   */\n      dup3\n        /* \"#utility.yul\":1857:1864   */\n      dup5\n        /* \"#utility.yul\":1853:1876   */\n      sub\n        /* \"#utility.yul\":1849:1881   */\n      slt\n        /* \"#utility.yul\":1846:1965   */\n      iszero\n      tag_88\n      jumpi\n        /* \"#utility.yul\":1884:1963   */\n      tag_89\n      tag_79\n      jump\t// in\n    tag_89:\n        /* \"#utility.yul\":1846:1965   */\n    tag_88:\n        /* \"#utility.yul\":2004:2005   */\n      0x00\n        /* \"#utility.yul\":2029:2082   */\n      tag_90\n        /* \"#utility.yul\":2074:2081   */\n      dup5\n        /* \"#utility.yul\":2065:2071   */\n      dup3\n        /* \"#utility.yul\":2054:2063   */\n      dup6\n        /* \"#utility.yul\":2050:2072   */\n      add\n        /* \"#utility.yul\":2029:2082   */\n      tag_72\n      jump\t// in\n    tag_90:\n        /* \"#utility.yul\":2019:2082   */\n      swap2\n      pop\n        /* \"#utility.yul\":1975:2092   */\n      pop\n        /* \"#utility.yul\":1770:2099   */\n      swap3\n      swap2\n      pop\n      pop\n      jump\t// out\n        /* \"#utility.yul\":2105:2223   */\n    tag_91:\n        /* \"#utility.yul\":2192:2216   */\n      tag_93\n        /* \"#utility.yul\":2210:2215   */\n      dup2\n        /* \"#utility.yul\":2192:2216   */\n      tag_94\n      jump\t// in\n    tag_93:\n        /* \"#utility.yul\":2187:2190   */\n      dup3\n        /* \"#utility.yul\":2180:2217   */\n      mstore\n        /* \"#utility.yul\":2105:2223   */\n      pop\n      pop\n      jump\t// out\n        /* \"#utility.yul\":2229:2593   */\n    tag_95:\n        /* \"#utility.yul\":2317:2320   */\n      0x00\n        /* \"#utility.yul\":2345:2384   */\n      tag_97\n        /* \"#utility.yul\":2378:2383   */\n      dup3\n        /* \"#utility.yul\":2345:2384   */\n      tag_98\n      jump\t// in\n    tag_97:\n        /* \"#utility.yul\":2400:2471   */\n      tag_99\n        /* \"#utility.yul\":2464:2470   */\n      dup2\n        /* \"#utility.yul\":2459:2462   */\n      dup6\n        /* \"#utility.yul\":2400:2471   */\n      tag_100\n      jump\t// in\n    tag_99:\n        /* \"#utility.yul\":2393:2471   */\n      swap4\n      pop\n        /* \"#utility.yul\":2480:2532   */\n      tag_101\n        /* \"#utility.yul\":2525:2531   */\n      dup2\n        /* \"#utility.yul\":2520:2523   */\n      dup6\n        /* \"#utility.yul\":2513:2517   */\n      0x20\n        /* \"#utility.yul\":2506:2511   */\n      dup7\n        /* \"#utility.yul\":2502:2518   */\n      add\n        /* \"#utility.yul\":2480:2532   */\n      tag_102\n      jump\t// in\n    tag_101:\n        /* \"#utility.yul\":2557:2586   */\n      tag_103\n        /* \"#utility.yul\":2579:2585   */\n      dup2\n        /* \"#utility.yul\":2557:2586   */\n      tag_104\n      jump\t// in\n    tag_103:\n        /* \"#utility.yul\":2552:2555   */\n      dup5\n        /* \"#utility.yul\":2548:2587   */\n      add\n        /* \"#utility.yul\":2541:2587   */\n      swap2\n      pop\n        /* \"#utility.yul\":2321:2593   */\n      pop\n        /* \"#utility.yul\":2229:2593   */\n      swap3\n      swap2\n      pop\n      pop\n      jump\t// out\n        /* \"#utility.yul\":2599:2976   */\n    tag_105:\n        /* \"#utility.yul\":2705:2708   */\n      0x00\n        /* \"#utility.yul\":2733:2772   */\n      tag_107\n        /* \"#utility.yul\":2766:2771   */\n      dup3\n        /* \"#utility.yul\":2733:2772   */\n      tag_98\n      jump\t// in\n    tag_107:\n        /* \"#utility.yul\":2788:2877   */\n      tag_108\n        /* \"#utility.yul\":2870:2876   */\n      dup2\n        /* \"#utility.yul\":2865:2868   */\n      dup6\n        /* \"#utility.yul\":2788:2877   */\n      tag_109\n      jump\t// in\n    tag_108:\n        /* \"#utility.yul\":2781:2877   */\n      swap4\n      pop\n        /* \"#utility.yul\":2886:2938   */\n      tag_110\n        /* \"#utility.yul\":2931:2937   */\n      dup2\n        /* \"#utility.yul\":2926:2929   */\n      dup6\n        /* \"#utility.yul\":2919:2923   */\n      0x20\n        /* \"#utility.yul\":2912:2917   */\n      dup7\n        /* \"#utility.yul\":2908:2924   */\n      add\n        /* \"#utility.yul\":2886:2938   */\n      tag_102\n      jump\t// in\n    tag_110:\n        /* \"#utility.yul\":2963:2969   */\n      dup1\n        /* \"#utility.yul\":2958:2961   */\n      dup5\n        /* \"#utility.yul\":2954:2970   */\n      add\n        /* \"#utility.yul\":2947:2970   */\n      swap2\n      pop\n        /* \"#utility.yul\":2709:2976   */\n      pop\n        /* \"#utility.yul\":2599:2976   */\n      swap3\n      swap2\n      pop\n      pop\n      jump\t// out\n        /* \"#utility.yul\":2982:3100   */\n    tag_111:\n        /* \"#utility.yul\":3069:3093   */\n      tag_113\n        /* \"#utility.yul\":3087:3092   */\n      dup2\n        /* \"#utility.yul\":3069:3093   */\n      tag_114\n      jump\t// in\n    tag_113:\n        /* \"#utility.yul\":3064:3067   */\n      dup3\n        /* \"#utility.yul\":3057:3094   */\n      mstore\n        /* \"#utility.yul\":2982:3100   */\n      pop\n      pop\n      jump\t// out\n        /* \"#utility.yul\":3106:3381   */\n    tag_31:\n        /* \"#utility.yul\":3238:3241   */\n      0x00\n        /* \"#utility.yul\":3260:3355   */\n      tag_116\n        /* \"#utility.yul\":3351:3354   */\n      dup3\n        /* \"#utility.yul\":3342:3348   */\n      dup5\n        /* \"#utility.yul\":3260:3355   */\n      tag_105\n      jump\t// in\n    tag_116:\n        /* \"#utility.yul\":3253:3355   */\n      swap2\n      pop\n        /* \"#utility.yul\":3372:3375   */\n      dup2\n        /* \"#utility.yul\":3365:3375   */\n      swap1\n      pop\n        /* \"#utility.yul\":3106:3381   */\n      swap3\n      swap2\n      pop\n      pop\n      jump\t// out\n        /* \"#utility.yul\":3387:3609   */\n    tag_12:\n        /* \"#utility.yul\":3480:3484   */\n      0x00\n        /* \"#utility.yul\":3518:3520   */\n      0x20\n        /* \"#utility.yul\":3507:3516   */\n      dup3\n        /* \"#utility.yul\":3503:3521   */\n      add\n        /* \"#utility.yul\":3495:3521   */\n      swap1\n      pop\n        /* \"#utility.yul\":3531:3602   */\n      tag_118\n        /* \"#utility.yul\":3599:3600   */\n      0x00\n        /* \"#utility.yul\":3588:3597   */\n      dup4\n        /* \"#utility.yul\":3584:3601   */\n      add\n        /* \"#utility.yul\":3575:3581   */\n      dup5\n        /* \"#utility.yul\":3531:3602   */\n      tag_91\n      jump\t// in\n    tag_118:\n        /* \"#utility.yul\":3387:3609   */\n      swap3\n      swap2\n      pop\n      pop\n      jump\t// out\n        /* \"#utility.yul\":3615:4239   */\n    tag_25:\n        /* \"#utility.yul\":3804:3808   */\n      0x00\n        /* \"#utility.yul\":3842:3844   */\n      0x60\n        /* \"#utility.yul\":3831:3840   */\n      dup3\n        /* \"#utility.yul\":3827:3845   */\n      add\n        /* \"#utility.yul\":3819:3845   */\n      swap1\n      pop\n        /* \"#utility.yul\":3891:3900   */\n      dup2\n        /* \"#utility.yul\":3885:3889   */\n      dup2\n        /* \"#utility.yul\":3881:3901   */\n      sub\n        /* \"#utility.yul\":3877:3878   */\n      0x00\n        /* \"#utility.yul\":3866:3875   */\n      dup4\n        /* \"#utility.yul\":3862:3879   */\n      add\n        /* \"#utility.yul\":3855:3902   */\n      mstore\n        /* \"#utility.yul\":3919:3997   */\n      tag_120\n        /* \"#utility.yul\":3992:3996   */\n      dup2\n        /* \"#utility.yul\":3983:3989   */\n      dup7\n        /* \"#utility.yul\":3919:3997   */\n      tag_95\n      jump\t// in\n    tag_120:\n        /* \"#utility.yul\":3911:3997   */\n      swap1\n      pop\n        /* \"#utility.yul\":4044:4053   */\n      dup2\n        /* \"#utility.yul\":4038:4042   */\n      dup2\n        /* \"#utility.yul\":4034:4054   */\n      sub\n        /* \"#utility.yul\":4029:4031   */\n      0x20\n        /* \"#utility.yul\":4018:4027   */\n      dup4\n        /* \"#utility.yul\":4014:4032   */\n      add\n        /* \"#utility.yul\":4007:4055   */\n      mstore\n        /* \"#utility.yul\":4072:4150   */\n      tag_121\n        /* \"#utility.yul\":4145:4149   */\n      dup2\n        /* \"#utility.yul\":4136:4142   */\n      dup6\n        /* \"#utility.yul\":4072:4150   */\n      tag_95\n      jump\t// in\n    tag_121:\n        /* \"#utility.yul\":4064:4150   */\n      swap1\n      pop\n        /* \"#utility.yul\":4160:4232   */\n      tag_122\n        /* \"#utility.yul\":4228:4230   */\n      0x40\n        /* \"#utility.yul\":4217:4226   */\n      dup4\n        /* \"#utility.yul\":4213:4231   */\n      add\n        /* \"#utility.yul\":4204:4210   */\n      dup5\n        /* \"#utility.yul\":4160:4232   */\n      tag_91\n      jump\t// in\n    tag_122:\n        /* \"#utility.yul\":3615:4239   */\n      swap5\n      swap4\n      pop\n      pop\n      pop\n      pop\n      jump\t// out\n        /* \"#utility.yul\":4245:4467   */\n    tag_20:\n        /* \"#utility.yul\":4338:4342   */\n      0x00\n        /* \"#utility.yul\":4376:4378   */\n      0x20\n        /* \"#utility.yul\":4365:4374   */\n      dup3\n        /* \"#utility.yul\":4361:4379   */\n      add\n        /* \"#utility.yul\":4353:4379   */\n      swap1\n      pop\n        /* \"#utility.yul\":4389:4460   */\n      tag_124\n        /* \"#utility.yul\":4457:4458   */\n      0x00\n        /* \"#utility.yul\":4446:4455   */\n      dup4\n        /* \"#utility.yul\":4442:4459   */\n      add\n        /* \"#utility.yul\":4433:4439   */\n      dup5\n        /* \"#utility.yul\":4389:4460   */\n      tag_111\n      jump\t// in\n    tag_124:\n        /* \"#utility.yul\":4245:4467   */\n      swap3\n      swap2\n      pop\n      pop\n      jump\t// out\n        /* \"#utility.yul\":4473:4602   */\n    tag_60:\n        /* \"#utility.yul\":4507:4513   */\n      0x00\n        /* \"#utility.yul\":4534:4554   */\n      tag_126\n      tag_127\n      jump\t// in\n    tag_126:\n        /* \"#utility.yul\":4524:4554   */\n      swap1\n      pop\n        /* \"#utility.yul\":4563:4596   */\n      tag_128\n        /* \"#utility.yul\":4591:4595   */\n      dup3\n        /* \"#utility.yul\":4583:4589   */\n      dup3\n        /* \"#utility.yul\":4563:4596   */\n      tag_129\n      jump\t// in\n    tag_128:\n        /* \"#utility.yul\":4473:4602   */\n      swap2\n      swap1\n      pop\n      jump\t// out\n        /* \"#utility.yul\":4608:4683   */\n    tag_127:\n        /* \"#utility.yul\":4641:4647   */\n      0x00\n        /* \"#utility.yul\":4674:4676   */\n      0x40\n        /* \"#utility.yul\":4668:4677   */\n      mload\n        /* \"#utility.yul\":4658:4677   */\n      swap1\n      pop\n        /* \"#utility.yul\":4608:4683   */\n      swap1\n      jump\t// out\n        /* \"#utility.yul\":4689:4997   */\n    tag_59:\n        /* \"#utility.yul\":4751:4755   */\n      0x00\n        /* \"#utility.yul\":4841:4859   */\n      0xffffffffffffffff\n        /* \"#utility.yul\":4833:4839   */\n      dup3\n        /* \"#utility.yul\":4830:4860   */\n      gt\n        /* \"#utility.yul\":4827:4883   */\n      iszero\n      tag_132\n      jumpi\n        /* \"#utility.yul\":4863:4881   */\n      tag_133\n      tag_134\n      jump\t// in\n    tag_133:\n        /* \"#utility.yul\":4827:4883   */\n    tag_132:\n        /* \"#utility.yul\":4901:4930   */\n      tag_135\n        /* \"#utility.yul\":4923:4929   */\n      dup3\n        /* \"#utility.yul\":4901:4930   */\n      tag_104\n      jump\t// in\n    tag_135:\n        /* \"#utility.yul\":4893:4930   */\n      swap1\n      pop\n        /* \"#utility.yul\":4985:4989   */\n      0x20\n        /* \"#utility.yul\":4979:4983   */\n      dup2\n        /* \"#utility.yul\":4975:4990   */\n      add\n        /* \"#utility.yul\":4967:4990   */\n      swap1\n      pop\n        /* \"#utility.yul\":4689:4997   */\n      swap2\n      swap1\n      pop\n      jump\t// out\n        /* \"#utility.yul\":5003:5102   */\n    tag_98:\n        /* \"#utility.yul\":5055:5061   */\n      0x00\n        /* \"#utility.yul\":5089:5094   */\n      dup2\n        /* \"#utility.yul\":5083:5095   */\n      mload\n        /* \"#utility.yul\":5073:5095   */\n      swap1\n      pop\n        /* \"#utility.yul\":5003:5102   */\n      swap2\n      swap1\n      pop\n      jump\t// out\n        /* \"#utility.yul\":5108:5277   */\n    tag_100:\n        /* \"#utility.yul\":5192:5203   */\n      0x00\n        /* \"#utility.yul\":5226:5232   */\n      dup3\n        /* \"#utility.yul\":5221:5224   */\n      dup3\n        /* \"#utility.yul\":5214:5233   */\n      mstore\n        /* \"#utility.yul\":5266:5270   */\n      0x20\n        /* \"#utility.yul\":5261:5264   */\n      dup3\n        /* \"#utility.yul\":5257:5271   */\n      add\n        /* \"#utility.yul\":5242:5271   */\n      swap1\n      pop\n        /* \"#utility.yul\":5108:5277   */\n      swap3\n      swap2\n      pop\n      pop\n      jump\t// out\n        /* \"#utility.yul\":5283:5431   */\n    tag_109:\n        /* \"#utility.yul\":5385:5396   */\n      0x00\n        /* \"#utility.yul\":5422:5425   */\n      dup2\n        /* \"#utility.yul\":5407:5425   */\n      swap1\n      pop\n        /* \"#utility.yul\":5283:5431   */\n      swap3\n      swap2\n      pop\n      pop\n      jump\t// out\n        /* \"#utility.yul\":5437:5533   */\n    tag_94:\n        /* \"#utility.yul\":5474:5481   */\n      0x00\n        /* \"#utility.yul\":5503:5527   */\n      tag_140\n        /* \"#utility.yul\":5521:5526   */\n      dup3\n        /* \"#utility.yul\":5503:5527   */\n      tag_141\n      jump\t// in\n    tag_140:\n        /* \"#utility.yul\":5492:5527   */\n      swap1\n      pop\n        /* \"#utility.yul\":5437:5533   */\n      swap2\n      swap1\n      pop\n      jump\t// out\n        /* \"#utility.yul\":5539:5665   */\n    tag_141:\n        /* \"#utility.yul\":5576:5583   */\n      0x00\n        /* \"#utility.yul\":5616:5658   */\n      0xffffffffffffffffffffffffffffffffffffffff\n        /* \"#utility.yul\":5609:5614   */\n      dup3\n        /* \"#utility.yul\":5605:5659   */\n      and\n        /* \"#utility.yul\":5594:5659   */\n      swap1\n      pop\n        /* \"#utility.yul\":5539:5665   */\n      swap2\n      swap1\n      pop\n      jump\t// out\n        /* \"#utility.yul\":5671:5748   */\n    tag_114:\n        /* \"#utility.yul\":5708:5715   */\n      0x00\n        /* \"#utility.yul\":5737:5742   */\n      dup2\n        /* \"#utility.yul\":5726:5742   */\n      swap1\n      pop\n        /* \"#utility.yul\":5671:5748   */\n      swap2\n      swap1\n      pop\n      jump\t// out\n        /* \"#utility.yul\":5754:5908   */\n    tag_65:\n        /* \"#utility.yul\":5838:5844   */\n      dup3\n        /* \"#utility.yul\":5833:5836   */\n      dup2\n        /* \"#utility.yul\":5828:5831   */\n      dup4\n        /* \"#utility.yul\":5815:5845   */\n      calldatacopy\n        /* \"#utility.yul\":5900:5901   */\n      0x00\n        /* \"#utility.yul\":5891:5897   */\n      dup4\n        /* \"#utility.yul\":5886:5889   */\n      dup4\n        /* \"#utility.yul\":5882:5898   */\n      add\n        /* \"#utility.yul\":5875:5902   */\n      mstore\n        /* \"#utility.yul\":5754:5908   */\n      pop\n      pop\n      pop\n      jump\t// out\n        /* \"#utility.yul\":5914:6221   */\n    tag_102:\n        /* \"#utility.yul\":5982:5983   */\n      0x00\n        /* \"#utility.yul\":5992:6105   */\n    tag_146:\n        /* \"#utility.yul\":6006:6012   */\n      dup4\n        /* \"#utility.yul\":6003:6004   */\n      dup2\n        /* \"#utility.yul\":6000:6013   */\n      lt\n        /* \"#utility.yul\":5992:6105   */\n      iszero\n      tag_148\n      jumpi\n        /* \"#utility.yul\":6091:6092   */\n      dup1\n        /* \"#utility.yul\":6086:6089   */\n      dup3\n        /* \"#utility.yul\":6082:6093   */\n      add\n        /* \"#utility.yul\":6076:6094   */\n      mload\n        /* \"#utility.yul\":6072:6073   */\n      dup2\n        /* \"#utility.yul\":6067:6070   */\n      dup5\n        /* \"#utility.yul\":6063:6074   */\n      add\n        /* \"#utility.yul\":6056:6095   */\n      mstore\n        /* \"#utility.yul\":6028:6030   */\n      0x20\n        /* \"#utility.yul\":6025:6026   */\n      dup2\n        /* \"#utility.yul\":6021:6031   */\n      add\n        /* \"#utility.yul\":6016:6031   */\n      swap1\n      pop\n        /* \"#utility.yul\":5992:6105   */\n      jump(tag_146)\n    tag_148:\n        /* \"#utility.yul\":6123:6129   */\n      dup4\n        /* \"#utility.yul\":6120:6121   */\n      dup2\n        /* \"#utility.yul\":6117:6130   */\n      gt\n        /* \"#utility.yul\":6114:6215   */\n      iszero\n      tag_149\n      jumpi\n        /* \"#utility.yul\":6203:6204   */\n      0x00\n        /* \"#utility.yul\":6194:6200   */\n      dup5\n        /* \"#utility.yul\":6189:6192   */\n      dup5\n        /* \"#utility.yul\":6185:6201   */\n      add\n        /* \"#utility.yul\":6178:6205   */\n      mstore\n        /* \"#utility.yul\":6114:6215   */\n    tag_149:\n        /* \"#utility.yul\":5963:6221   */\n      pop\n        /* \"#utility.yul\":5914:6221   */\n      pop\n      pop\n      pop\n      jump\t// out\n        /* \"#utility.yul\":6227:6547   */\n    tag_34:\n        /* \"#utility.yul\":6271:6277   */\n      0x00\n        /* \"#utility.yul\":6308:6309   */\n      0x02\n        /* \"#utility.yul\":6302:6306   */\n      dup3\n        /* \"#utility.yul\":6298:6310   */\n      div\n        /* \"#utility.yul\":6288:6310   */\n      swap1\n      pop\n        /* \"#utility.yul\":6355:6356   */\n      0x01\n        /* \"#utility.yul\":6349:6353   */\n      dup3\n        /* \"#utility.yul\":6345:6357   */\n      and\n        /* \"#utility.yul\":6376:6394   */\n      dup1\n        /* \"#utility.yul\":6366:6447   */\n      tag_151\n      jumpi\n        /* \"#utility.yul\":6432:6436   */\n      0x7f\n        /* \"#utility.yul\":6424:6430   */\n      dup3\n        /* \"#utility.yul\":6420:6437   */\n      and\n        /* \"#utility.yul\":6410:6437   */\n      swap2\n      pop\n        /* \"#utility.yul\":6366:6447   */\n    tag_151:\n        /* \"#utility.yul\":6494:6496   */\n      0x20\n        /* \"#utility.yul\":6486:6492   */\n      dup3\n        /* \"#utility.yul\":6483:6497   */\n      lt\n        /* \"#utility.yul\":6463:6481   */\n      dup2\n        /* \"#utility.yul\":6460:6498   */\n      eq\n        /* \"#utility.yul\":6457:6541   */\n      iszero\n      tag_152\n      jumpi\n        /* \"#utility.yul\":6513:6531   */\n      tag_153\n      tag_154\n      jump\t// in\n    tag_153:\n        /* \"#utility.yul\":6457:6541   */\n    tag_152:\n        /* \"#utility.yul\":6278:6547   */\n      pop\n        /* \"#utility.yul\":6227:6547   */\n      swap2\n      swap1\n      pop\n      jump\t// out\n        /* \"#utility.yul\":6553:6834   */\n    tag_129:\n        /* \"#utility.yul\":6636:6663   */\n      tag_156\n        /* \"#utility.yul\":6658:6662   */\n      dup3\n        /* \"#utility.yul\":6636:6663   */\n      tag_104\n      jump\t// in\n    tag_156:\n        /* \"#utility.yul\":6628:6634   */\n      dup2\n        /* \"#utility.yul\":6624:6664   */\n      add\n        /* \"#utility.yul\":6766:6772   */\n      dup2\n        /* \"#utility.yul\":6754:6764   */\n      dup2\n        /* \"#utility.yul\":6751:6773   */\n      lt\n        /* \"#utility.yul\":6730:6748   */\n      0xffffffffffffffff\n        /* \"#utility.yul\":6718:6728   */\n      dup3\n        /* \"#utility.yul\":6715:6749   */\n      gt\n        /* \"#utility.yul\":6712:6774   */\n      or\n        /* \"#utility.yul\":6709:6797   */\n      iszero\n      tag_157\n      jumpi\n        /* \"#utility.yul\":6777:6795   */\n      tag_158\n      tag_134\n      jump\t// in\n    tag_158:\n        /* \"#utility.yul\":6709:6797   */\n    tag_157:\n        /* \"#utility.yul\":6817:6827   */\n      dup1\n        /* \"#utility.yul\":6813:6815   */\n      0x40\n        /* \"#utility.yul\":6806:6828   */\n      mstore\n        /* \"#utility.yul\":6596:6834   */\n      pop\n        /* \"#utility.yul\":6553:6834   */\n      pop\n      pop\n      jump\t// out\n        /* \"#utility.yul\":6840:7020   */\n    tag_154:\n        /* \"#utility.yul\":6888:6965   */\n      0x4e487b7100000000000000000000000000000000000000000000000000000000\n        /* \"#utility.yul\":6885:6886   */\n      0x00\n        /* \"#utility.yul\":6878:6966   */\n      mstore\n        /* \"#utility.yul\":6985:6989   */\n      0x22\n        /* \"#utility.yul\":6982:6983   */\n      0x04\n        /* \"#utility.yul\":6975:6990   */\n      mstore\n        /* \"#utility.yul\":7009:7013   */\n      0x24\n        /* \"#utility.yul\":7006:7007   */\n      0x00\n        /* \"#utility.yul\":6999:7014   */\n      revert\n        /* \"#utility.yul\":7026:7206   */\n    tag_134:\n        /* \"#utility.yul\":7074:7151   */\n      0x4e487b7100000000000000000000000000000000000000000000000000000000\n        /* \"#utility.yul\":7071:7072   */\n      0x00\n        /* \"#utility.yul\":7064:7152   */\n      mstore\n        /* \"#utility.yul\":7171:7175   */\n      0x41\n        /* \"#utility.yul\":7168:7169   */\n      0x04\n        /* \"#utility.yul\":7161:7176   */\n      mstore\n        /* \"#utility.yul\":7195:7199   */\n      0x24\n        /* \"#utility.yul\":7192:7193   */\n      0x00\n        /* \"#utility.yul\":7185:7200   */\n      revert\n        /* \"#utility.yul\":7212:7329   */\n    tag_70:\n        /* \"#utility.yul\":7321:7322   */\n      0x00\n        /* \"#utility.yul\":7318:7319   */\n      dup1\n        /* \"#utility.yul\":7311:7323   */\n      revert\n        /* \"#utility.yul\":7335:7452   */\n    tag_63:\n        /* \"#utility.yul\":7444:7445   */\n      0x00\n        /* \"#utility.yul\":7441:7442   */\n      dup1\n        /* \"#utility.yul\":7434:7446   */\n      revert\n        /* \"#utility.yul\":7458:7575   */\n    tag_82:\n        /* \"#utility.yul\":7567:7568   */\n      0x00\n        /* \"#utility.yul\":7564:7565   */\n      dup1\n        /* \"#utility.yul\":7557:7569   */\n      revert\n        /* \"#utility.yul\":7581:7698   */\n    tag_79:\n        /* \"#utility.yul\":7690:7691   */\n      0x00\n        /* \"#utility.yul\":7687:7688   */\n      dup1\n        /* \"#utility.yul\":7680:7692   */\n      revert\n        /* \"#utility.yul\":7704:7806   */\n    tag_104:\n        /* \"#utility.yul\":7745:7751   */\n      0x00\n        /* \"#utility.yul\":7796:7798   */\n      0x1f\n        /* \"#utility.yul\":7792:7799   */\n      not\n        /* \"#utility.yul\":7787:7789   */\n      0x1f\n        /* \"#utility.yul\":7780:7785   */\n      dup4\n        /* \"#utility.yul\":7776:7790   */\n      add\n        /* \"#utility.yul\":7772:7800   */\n      and\n        /* \"#utility.yul\":7762:7800   */\n      swap1\n      pop\n        /* \"#utility.yul\":7704:7806   */\n      swap2\n      swap1\n      pop\n      jump\t// out\n        /* \"#utility.yul\":7812:7934   */\n    tag_75:\n        /* \"#utility.yul\":7885:7909   */\n      tag_167\n        /* \"#utility.yul\":7903:7908   */\n      dup2\n        /* \"#utility.yul\":7885:7909   */\n      tag_114\n      jump\t// in\n    tag_167:\n        /* \"#utility.yul\":7878:7883   */\n      dup2\n        /* \"#utility.yul\":7875:7910   */\n      eq\n        /* \"#utility.yul\":7865:7928   */\n      tag_168\n      jumpi\n        /* \"#utility.yul\":7924:7925   */\n      0x00\n        /* \"#utility.yul\":7921:7922   */\n      dup1\n        /* \"#utility.yul\":7914:7926   */\n      revert\n        /* \"#utility.yul\":7865:7928   */\n    tag_168:\n        /* \"#utility.yul\":7812:7934   */\n      pop\n      jump\t// out\n\n    auxdata: 0xa2646970667358221220339332ade02af324ce3aeb20dcb6eb3903271ec994622a90be352abfbb46c4b064736f6c63430008070033\n}\n",
				"bytecode": {
					"linkReferences": {},
					"object": "60806040526000805534801561001457600080fd5b506108d1806100246000396000f3fe608060405234801561001057600080fd5b506004361061004c5760003560e01c80630b1e7f8314610051578063392338f51461008157806361bc221a1461009d578063fdd6ea71146100bb575b600080fd5b61006b6004803603810190610066919061055c565b6100ed565b6040516100789190610628565b60405180910390f35b61009b600480360381019061009691906104e4565b610120565b005b6100a561025c565b6040516100b29190610688565b60405180910390f35b6100d560048036038101906100d0919061055c565b610262565b6040516100e493929190610643565b60405180910390f35b60016020528060005260406000206000915054906101000a900473ffffffffffffffffffffffffffffffffffffffff1681565b60405180606001604052808381526020018281526020013373ffffffffffffffffffffffffffffffffffffffff16815250600260008054815260200190815260200160002060008201518160000190805190602001906101819291906103bc565b50602082015181600101908051906020019061019e9291906103bc565b5060408201518160020160006101000a81548173ffffffffffffffffffffffffffffffffffffffff021916908373ffffffffffffffffffffffffffffffffffffffff160217905550905050806040516101f79190610611565b60405180910390208260405161020d9190610611565b60405180910390203373ffffffffffffffffffffffffffffffffffffffff167f4eacffc497062f11928adc3628e2047cd720623235f6f37529db1d95cc75ecbf60405160405180910390a45050565b60005481565b60026020528060005260406000206000915090508060000180546102859061079e565b80601f01602080910402602001604051908101604052809291908181526020018280546102b19061079e565b80156102fe5780601f106102d3576101008083540402835291602001916102fe565b820191906000526020600020905b8154815290600101906020018083116102e157829003601f168201915b5050505050908060010180546103139061079e565b80601f016020809104026020016040519081016040528092919081815260200182805461033f9061079e565b801561038c5780601f106103615761010080835404028352916020019161038c565b820191906000526020600020905b81548152906001019060200180831161036f57829003601f168201915b5050505050908060020160009054906101000a900473ffffffffffffffffffffffffffffffffffffffff16905083565b8280546103c89061079e565b90600052602060002090601f0160209004810192826103ea5760008555610431565b82601f1061040357805160ff1916838001178555610431565b82800160010185558215610431579182015b82811115610430578251825591602001919060010190610415565b5b50905061043e9190610442565b5090565b5b8082111561045b576000816000905550600101610443565b5090565b600061047261046d846106c8565b6106a3565b90508281526020810184848401111561048e5761048d610864565b5b61049984828561075c565b509392505050565b600082601f8301126104b6576104b561085f565b5b81356104c684826020860161045f565b91505092915050565b6000813590506104de81610884565b92915050565b600080604083850312156104fb576104fa61086e565b5b600083013567ffffffffffffffff81111561051957610518610869565b5b610525858286016104a1565b925050602083013567ffffffffffffffff81111561054657610545610869565b5b610552858286016104a1565b9150509250929050565b6000602082840312156105725761057161086e565b5b6000610580848285016104cf565b91505092915050565b61059281610720565b82525050565b60006105a3826106f9565b6105ad8185610704565b93506105bd81856020860161076b565b6105c681610873565b840191505092915050565b60006105dc826106f9565b6105e68185610715565b93506105f681856020860161076b565b80840191505092915050565b61060b81610752565b82525050565b600061061d82846105d1565b915081905092915050565b600060208201905061063d6000830184610589565b92915050565b6000606082019050818103600083015261065d8186610598565b905081810360208301526106718185610598565b90506106806040830184610589565b949350505050565b600060208201905061069d6000830184610602565b92915050565b60006106ad6106be565b90506106b982826107d0565b919050565b6000604051905090565b600067ffffffffffffffff8211156106e3576106e2610830565b5b6106ec82610873565b9050602081019050919050565b600081519050919050565b600082825260208201905092915050565b600081905092915050565b600061072b82610732565b9050919050565b600073ffffffffffffffffffffffffffffffffffffffff82169050919050565b6000819050919050565b82818337600083830152505050565b60005b8381101561078957808201518184015260208101905061076e565b83811115610798576000848401525b50505050565b600060028204905060018216806107b657607f821691505b602082108114156107ca576107c9610801565b5b50919050565b6107d982610873565b810181811067ffffffffffffffff821117156107f8576107f7610830565b5b80604052505050565b7f4e487b7100000000000000000000000000000000000000000000000000000000600052602260045260246000fd5b7f4e487b7100000000000000000000000000000000000000000000000000000000600052604160045260246000fd5b600080fd5b600080fd5b600080fd5b600080fd5b6000601f19601f8301169050919050565b61088d81610752565b811461089857600080fd5b5056fea2646970667358221220339332ade02af324ce3aeb20dcb6eb3903271ec994622a90be352abfbb46c4b064736f6c63430008070033",
					"opcodes": "PUSH1 0x80 PUSH1 0x40 MSTORE PUSH1 0x0 DUP1 SSTORE CALLVALUE DUP1 ISZERO PUSH2 0x14 JUMPI PUSH1 0x0 DUP1 REVERT JUMPDEST POP PUSH2 0x8D1 DUP1 PUSH2 0x24 PUSH1 0x0 CODECOPY PUSH1 0x0 RETURN INVALID PUSH1 0x80 PUSH1 0x40 MSTORE CALLVALUE DUP1 ISZERO PUSH2 0x10 JUMPI PUSH1 0x0 DUP1 REVERT JUMPDEST POP PUSH1 0x4 CALLDATASIZE LT PUSH2 0x4C JUMPI PUSH1 0x0 CALLDATALOAD PUSH1 0xE0 SHR DUP1 PUSH4 0xB1E7F83 EQ PUSH2 0x51 JUMPI DUP1 PUSH4 0x392338F5 EQ PUSH2 0x81 JUMPI DUP1 PUSH4 0x61BC221A EQ PUSH2 0x9D JUMPI DUP1 PUSH4 0xFDD6EA71 EQ PUSH2 0xBB JUMPI JUMPDEST PUSH1 0x0 DUP1 REVERT JUMPDEST PUSH2 0x6B PUSH1 0x4 DUP1 CALLDATASIZE SUB DUP2 ADD SWAP1 PUSH2 0x66 SWAP2 SWAP1 PUSH2 0x55C JUMP JUMPDEST PUSH2 0xED JUMP JUMPDEST PUSH1 0x40 MLOAD PUSH2 0x78 SWAP2 SWAP1 PUSH2 0x628 JUMP JUMPDEST PUSH1 0x40 MLOAD DUP1 SWAP2 SUB SWAP1 RETURN JUMPDEST PUSH2 0x9B PUSH1 0x4 DUP1 CALLDATASIZE SUB DUP2 ADD SWAP1 PUSH2 0x96 SWAP2 SWAP1 PUSH2 0x4E4 JUMP JUMPDEST PUSH2 0x120 JUMP JUMPDEST STOP JUMPDEST PUSH2 0xA5 PUSH2 0x25C JUMP JUMPDEST PUSH1 0x40 MLOAD PUSH2 0xB2 SWAP2 SWAP1 PUSH2 0x688 JUMP JUMPDEST PUSH1 0x40 MLOAD DUP1 SWAP2 SUB SWAP1 RETURN JUMPDEST PUSH2 0xD5 PUSH1 0x4 DUP1 CALLDATASIZE SUB DUP2 ADD SWAP1 PUSH2 0xD0 SWAP2 SWAP1 PUSH2 0x55C JUMP JUMPDEST PUSH2 0x262 JUMP JUMPDEST PUSH1 0x40 MLOAD PUSH2 0xE4 SWAP4 SWAP3 SWAP2 SWAP1 PUSH2 0x643 JUMP JUMPDEST PUSH1 0x40 MLOAD DUP1 SWAP2 SUB SWAP1 RETURN JUMPDEST PUSH1 0x1 PUSH1 0x20 MSTORE DUP1 PUSH1 0x0 MSTORE PUSH1 0x40 PUSH1 0x0 KECCAK256 PUSH1 0x0 SWAP2 POP SLOAD SWAP1 PUSH2 0x100 EXP SWAP1 DIV PUSH20 0xFFFFFFFFFFFFFFFFFFFFFFFFFFFFFFFFFFFFFFFF AND DUP2 JUMP JUMPDEST PUSH1 0x40 MLOAD DUP1 PUSH1 0x60 ADD PUSH1 0x40 MSTORE DUP1 DUP4 DUP2 MSTORE PUSH1 0x20 ADD DUP3 DUP2 MSTORE PUSH1 0x20 ADD CALLER PUSH20 0xFFFFFFFFFFFFFFFFFFFFFFFFFFFFFFFFFFFFFFFF AND DUP2 MSTORE POP PUSH1 0x2 PUSH1 0x0 DUP1 SLOAD DUP2 MSTORE PUSH1 0x20 ADD SWAP1 DUP2 MSTORE PUSH1 0x20 ADD PUSH1 0x0 KECCAK256 PUSH1 0x0 DUP3 ADD MLOAD DUP2 PUSH1 0x0 ADD SWAP1 DUP1 MLOAD SWAP1 PUSH1 0x20 ADD SWAP1 PUSH2 0x181 SWAP3 SWAP2 SWAP1 PUSH2 0x3BC JUMP JUMPDEST POP PUSH1 0x20 DUP3 ADD MLOAD DUP2 PUSH1 0x1 ADD SWAP1 DUP1 MLOAD SWAP1 PUSH1 0x20 ADD SWAP1 PUSH2 0x19E SWAP3 SWAP2 SWAP1 PUSH2 0x3BC JUMP JUMPDEST POP PUSH1 0x40 DUP3 ADD MLOAD DUP2 PUSH1 0x2 ADD PUSH1 0x0 PUSH2 0x100 EXP DUP2 SLOAD DUP2 PUSH20 0xFFFFFFFFFFFFFFFFFFFFFFFFFFFFFFFFFFFFFFFF MUL NOT AND SWAP1 DUP4 PUSH20 0xFFFFFFFFFFFFFFFFFFFFFFFFFFFFFFFFFFFFFFFF AND MUL OR SWAP1 SSTORE POP SWAP1 POP POP DUP1 PUSH1 0x40 MLOAD PUSH2 0x1F7 SWAP2 SWAP1 PUSH2 0x611 JUMP JUMPDEST PUSH1 0x40 MLOAD DUP1 SWAP2 SUB SWAP1 KECCAK256 DUP3 PUSH1 0x40 MLOAD PUSH2 0x20D SWAP2 SWAP1 PUSH2 0x611 JUMP JUMPDEST PUSH1 0x40 MLOAD DUP1 SWAP2 SUB SWAP1 KECCAK256 CALLER PUSH20 0xFFFFFFFFFFFFFFFFFFFFFFFFFFFFFFFFFFFFFFFF AND PUSH32 0x4EACFFC497062F11928ADC3628E2047CD720623235F6F37529DB1D95CC75ECBF PUSH1 0x40 MLOAD PUSH1 0x40 MLOAD DUP1 SWAP2 SUB SWAP1 LOG4 POP POP JUMP JUMPDEST PUSH1 0x0 SLOAD DUP2 JUMP JUMPDEST PUSH1 0x2 PUSH1 0x20 MSTORE DUP1 PUSH1 0x0 MSTORE PUSH1 0x40 PUSH1 0x0 KECCAK256 PUSH1 0x0 SWAP2 POP SWAP1 POP DUP1 PUSH1 0x0 ADD DUP1 SLOAD PUSH2 0x285 SWAP1 PUSH2 0x79E JUMP JUMPDEST DUP1 PUSH1 0x1F ADD PUSH1 0x20 DUP1 SWAP2 DIV MUL PUSH1 0x20 ADD PUSH1 0x40 MLOAD SWAP1 DUP2 ADD PUSH1 0x40 MSTORE DUP1 SWAP3 SWAP2 SWAP1 DUP2 DUP2 MSTORE PUSH1 0x20 ADD DUP3 DUP1 SLOAD PUSH2 0x2B1 SWAP1 PUSH2 0x79E JUMP JUMPDEST DUP1 ISZERO PUSH2 0x2FE JUMPI DUP1 PUSH1 0x1F LT PUSH2 0x2D3 JUMPI PUSH2 0x100 DUP1 DUP4 SLOAD DIV MUL DUP4 MSTORE SWAP2 PUSH1 0x20 ADD SWAP2 PUSH2 0x2FE JUMP JUMPDEST DUP3 ADD SWAP2 SWAP1 PUSH1 0x0 MSTORE PUSH1 0x20 PUSH1 0x0 KECCAK256 SWAP1 JUMPDEST DUP2 SLOAD DUP2 MSTORE SWAP1 PUSH1 0x1 ADD SWAP1 PUSH1 0x20 ADD DUP1 DUP4 GT PUSH2 0x2E1 JUMPI DUP3 SWAP1 SUB PUSH1 0x1F AND DUP3 ADD SWAP2 JUMPDEST POP POP POP POP POP SWAP1 DUP1 PUSH1 0x1 ADD DUP1 SLOAD PUSH2 0x313 SWAP1 PUSH2 0x79E JUMP JUMPDEST DUP1 PUSH1 0x1F ADD PUSH1 0x20 DUP1 SWAP2 DIV MUL PUSH1 0x20 ADD PUSH1 0x40 MLOAD SWAP1 DUP2 ADD PUSH1 0x40 MSTORE DUP1 SWAP3 SWAP2 SWAP1 DUP2 DUP2 MSTORE PUSH1 0x20 ADD DUP3 DUP1 SLOAD PUSH2 0x33F SWAP1 PUSH2 0x79E JUMP JUMPDEST DUP1 ISZERO PUSH2 0x38C JUMPI DUP1 PUSH1 0x1F LT PUSH2 0x361 JUMPI PUSH2 0x100 DUP1 DUP4 SLOAD DIV MUL DUP4 MSTORE SWAP2 PUSH1 0x20 ADD SWAP2 PUSH2 0x38C JUMP JUMPDEST DUP3 ADD SWAP2 SWAP1 PUSH1 0x0 MSTORE PUSH1 0x20 PUSH1 0x0 KECCAK256 SWAP1 JUMPDEST DUP2 SLOAD DUP2 MSTORE SWAP1 PUSH1 0x1 ADD SWAP1 PUSH1 0x20 ADD DUP1 DUP4 GT PUSH2 0x36F JUMPI DUP3 SWAP1 SUB PUSH1 0x1F AND DUP3 ADD SWAP2 JUMPDEST POP POP POP POP POP SWAP1 DUP1 PUSH1 0x2 ADD PUSH1 0x0 SWAP1 SLOAD SWAP1 PUSH2 0x100 EXP SWAP1 DIV PUSH20 0xFFFFFFFFFFFFFFFFFFFFFFFFFFFFFFFFFFFFFFFF AND SWAP1 POP DUP4 JUMP JUMPDEST DUP3 DUP1 SLOAD PUSH2 0x3C8 SWAP1 PUSH2 0x79E JUMP JUMPDEST SWAP1 PUSH1 0x0 MSTORE PUSH1 0x20 PUSH1 0x0 KECCAK256 SWAP1 PUSH1 0x1F ADD PUSH1 0x20 SWAP1 DIV DUP2 ADD SWAP3 DUP3 PUSH2 0x3EA JUMPI PUSH1 0x0 DUP6 SSTORE PUSH2 0x431 JUMP JUMPDEST DUP3 PUSH1 0x1F LT PUSH2 0x403 JUMPI DUP1 MLOAD PUSH1 0xFF NOT AND DUP4 DUP1 ADD OR DUP6 SSTORE PUSH2 0x431 JUMP JUMPDEST DUP3 DUP1 ADD PUSH1 0x1 ADD DUP6 SSTORE DUP3 ISZERO PUSH2 0x431 JUMPI SWAP2 DUP3 ADD JUMPDEST DUP3 DUP2 GT ISZERO PUSH2 0x430 JUMPI DUP3 MLOAD DUP3 SSTORE SWAP2 PUSH1 0x20 ADD SWAP2 SWAP1 PUSH1 0x1 ADD SWAP1 PUSH2 0x415 JUMP JUMPDEST JUMPDEST POP SWAP1 POP PUSH2 0x43E SWAP2 SWAP1 PUSH2 0x442 JUMP JUMPDEST POP SWAP1 JUMP JUMPDEST JUMPDEST DUP1 DUP3 GT ISZERO PUSH2 0x45B JUMPI PUSH1 0x0 DUP2 PUSH1 0x0 SWAP1 SSTORE POP PUSH1 0x1 ADD PUSH2 0x443 JUMP JUMPDEST POP SWAP1 JUMP JUMPDEST PUSH1 0x0 PUSH2 0x472 PUSH2 0x46D DUP5 PUSH2 0x6C8 JUMP JUMPDEST PUSH2 0x6A3 JUMP JUMPDEST SWAP1 POP DUP3 DUP2 MSTORE PUSH1 0x20 DUP2 ADD DUP5 DUP5 DUP5 ADD GT ISZERO PUSH2 0x48E JUMPI PUSH2 0x48D PUSH2 0x864 JUMP JUMPDEST JUMPDEST PUSH2 0x499 DUP5 DUP3 DUP6 PUSH2 0x75C JUMP JUMPDEST POP SWAP4 SWAP3 POP POP POP JUMP JUMPDEST PUSH1 0x0 DUP3 PUSH1 0x1F DUP4 ADD SLT PUSH2 0x4B6 JUMPI PUSH2 0x4B5 PUSH2 0x85F JUMP JUMPDEST JUMPDEST DUP2 CALLDATALOAD PUSH2 0x4C6 DUP5 DUP3 PUSH1 0x20 DUP7 ADD PUSH2 0x45F JUMP JUMPDEST SWAP2 POP POP SWAP3 SWAP2 POP POP JUMP JUMPDEST PUSH1 0x0 DUP2 CALLDATALOAD SWAP1 POP PUSH2 0x4DE DUP2 PUSH2 0x884 JUMP JUMPDEST SWAP3 SWAP2 POP POP JUMP JUMPDEST PUSH1 0x0 DUP1 PUSH1 0x40 DUP4 DUP6 SUB SLT ISZERO PUSH2 0x4FB JUMPI PUSH2 0x4FA PUSH2 0x86E JUMP JUMPDEST JUMPDEST PUSH1 0x0 DUP4 ADD CALLDATALOAD PUSH8 0xFFFFFFFFFFFFFFFF DUP2 GT ISZERO PUSH2 0x519 JUMPI PUSH2 0x518 PUSH2 0x869 JUMP JUMPDEST JUMPDEST PUSH2 0x525 DUP6 DUP3 DUP7 ADD PUSH2 0x4A1 JUMP JUMPDEST SWAP3 POP POP PUSH1 0x20 DUP4 ADD CALLDATALOAD PUSH8 0xFFFFFFFFFFFFFFFF DUP2 GT ISZERO PUSH2 0x546 JUMPI PUSH2 0x545 PUSH2 0x869 JUMP JUMPDEST JUMPDEST PUSH2 0x552 DUP6 DUP3 DUP7 ADD PUSH2 0x4A1 JUMP JUMPDEST SWAP2 POP POP SWAP3 POP SWAP3 SWAP1 POP JUMP JUMPDEST PUSH1 0x0 PUSH1 0x20 DUP3 DUP5 SUB SLT ISZERO PUSH2 0x572 JUMPI PUSH2 0x571 PUSH2 0x86E JUMP JUMPDEST JUMPDEST PUSH1 0x0 PUSH2 0x580 DUP5 DUP3 DUP6 ADD PUSH2 0x4CF JUMP JUMPDEST SWAP2 POP POP SWAP3 SWAP2 POP POP JUMP JUMPDEST PUSH2 0x592 DUP2 PUSH2 0x720 JUMP JUMPDEST DUP3 MSTORE POP POP JUMP JUMPDEST PUSH1 0x0 PUSH2 0x5A3 DUP3 PUSH2 0x6F9 JUMP JUMPDEST PUSH2 0x5AD DUP2 DUP6 PUSH2 0x704 JUMP JUMPDEST SWAP4 POP PUSH2 0x5BD DUP2 DUP6 PUSH1 0x20 DUP7 ADD PUSH2 0x76B JUMP JUMPDEST PUSH2 0x5C6 DUP2 PUSH2 0x873 JUMP JUMPDEST DUP5 ADD SWAP2 POP POP SWAP3 SWAP2 POP POP JUMP JUMPDEST PUSH1 0x0 PUSH2 0x5DC DUP3 PUSH2 0x6F9 JUMP JUMPDEST PUSH2 0x5E6 DUP2 DUP6 PUSH2 0x715 JUMP JUMPDEST SWAP4 POP PUSH2 0x5F6 DUP2 DUP6 PUSH1 0x20 DUP7 ADD PUSH2 0x76B JUMP JUMPDEST DUP1 DUP5 ADD SWAP2 POP POP SWAP3 SWAP2 POP POP JUMP JUMPDEST PUSH2 0x60B DUP2 PUSH2 0x752 JUMP JUMPDEST DUP3 MSTORE POP POP JUMP JUMPDEST PUSH1 0x0 PUSH2 0x61D DUP3 DUP5 PUSH2 0x5D1 JUMP JUMPDEST SWAP2 POP DUP2 SWAP1 POP SWAP3 SWAP2 POP POP JUMP JUMPDEST PUSH1 0x0 PUSH1 0x20 DUP3 ADD SWAP1 POP PUSH2 0x63D PUSH1 0x0 DUP4 ADD DUP5 PUSH2 0x589 JUMP JUMPDEST SWAP3 SWAP2 POP POP JUMP JUMPDEST PUSH1 0x0 PUSH1 0x60 DUP3 ADD SWAP1 POP DUP2 DUP2 SUB PUSH1 0x0 DUP4 ADD MSTORE PUSH2 0x65D DUP2 DUP7 PUSH2 0x598 JUMP JUMPDEST SWAP1 POP DUP2 DUP2 SUB PUSH1 0x20 DUP4 ADD MSTORE PUSH2 0x671 DUP2 DUP6 PUSH2 0x598 JUMP JUMPDEST SWAP1 POP PUSH2 0x680 PUSH1 0x40 DUP4 ADD DUP5 PUSH2 0x589 JUMP JUMPDEST SWAP5 SWAP4 POP POP POP POP JUMP JUMPDEST PUSH1 0x0 PUSH1 0x20 DUP3 ADD SWAP1 POP PUSH2 0x69D PUSH1 0x0 DUP4 ADD DUP5 PUSH2 0x602 JUMP JUMPDEST SWAP3 SWAP2 POP POP JUMP JUMPDEST PUSH1 0x0 PUSH2 0x6AD PUSH2 0x6BE JUMP JUMPDEST SWAP1 POP PUSH2 0x6B9 DUP3 DUP3 PUSH2 0x7D0 JUMP JUMPDEST SWAP2 SWAP1 POP JUMP JUMPDEST PUSH1 0x0 PUSH1 0x40 MLOAD SWAP1 POP SWAP1 JUMP JUMPDEST PUSH1 0x0 PUSH8 0xFFFFFFFFFFFFFFFF DUP3 GT ISZERO PUSH2 0x6E3 JUMPI PUSH2 0x6E2 PUSH2 0x830 JUMP JUMPDEST JUMPDEST PUSH2 0x6EC DUP3 PUSH2 0x873 JUMP JUMPDEST SWAP1 POP PUSH1 0x20 DUP2 ADD SWAP1 POP SWAP2 SWAP1 POP JUMP JUMPDEST PUSH1 0x0 DUP2 MLOAD SWAP1 POP SWAP2 SWAP1 POP JUMP JUMPDEST PUSH1 0x0 DUP3 DUP3 MSTORE PUSH1 0x20 DUP3 ADD SWAP1 POP SWAP3 SWAP2 POP POP JUMP JUMPDEST PUSH1 0x0 DUP2 SWAP1 POP SWAP3 SWAP2 POP POP JUMP JUMPDEST PUSH1 0x0 PUSH2 0x72B DUP3 PUSH2 0x732 JUMP JUMPDEST SWAP1 POP SWAP2 SWAP1 POP JUMP JUMPDEST PUSH1 0x0 PUSH20 0xFFFFFFFFFFFFFFFFFFFFFFFFFFFFFFFFFFFFFFFF DUP3 AND SWAP1 POP SWAP2 SWAP1 POP JUMP JUMPDEST PUSH1 0x0 DUP2 SWAP1 POP SWAP2 SWAP1 POP JUMP JUMPDEST DUP3 DUP2 DUP4 CALLDATACOPY PUSH1 0x0 DUP4 DUP4 ADD MSTORE POP POP POP JUMP JUMPDEST PUSH1 0x0 JUMPDEST DUP4 DUP2 LT ISZERO PUSH2 0x789 JUMPI DUP1 DUP3 ADD MLOAD DUP2 DUP5 ADD MSTORE PUSH1 0x20 DUP2 ADD SWAP1 POP PUSH2 0x76E JUMP JUMPDEST DUP4 DUP2 GT ISZERO PUSH2 0x798 JUMPI PUSH1 0x0 DUP5 DUP5 ADD MSTORE JUMPDEST POP POP POP POP JUMP JUMPDEST PUSH1 0x0 PUSH1 0x2 DUP3 DIV SWAP1 POP PUSH1 0x1 DUP3 AND DUP1 PUSH2 0x7B6 JUMPI PUSH1 0x7F DUP3 AND SWAP2 POP JUMPDEST PUSH1 0x20 DUP3 LT DUP2 EQ ISZERO PUSH2 0x7CA JUMPI PUSH2 0x7C9 PUSH2 0x801 JUMP JUMPDEST JUMPDEST POP SWAP2 SWAP1 POP JUMP JUMPDEST PUSH2 0x7D9 DUP3 PUSH2 0x873 JUMP JUMPDEST DUP2 ADD DUP2 DUP2 LT PUSH8 0xFFFFFFFFFFFFFFFF DUP3 GT OR ISZERO PUSH2 0x7F8 JUMPI PUSH2 0x7F7 PUSH2 0x830 JUMP JUMPDEST JUMPDEST DUP1 PUSH1 0x40 MSTORE POP POP POP JUMP JUMPDEST PUSH32 0x4E487B7100000000000000000000000000000000000000000000000000000000 PUSH1 0x0 MSTORE PUSH1 0x22 PUSH1 0x4 MSTORE PUSH1 0x24 PUSH1 0x0 REVERT JUMPDEST PUSH32 0x4E487B7100000000000000000000000000000000000000000000000000000000 PUSH1 0x0 MSTORE PUSH1 0x41 PUSH1 0x4 MSTORE PUSH1 0x24 PUSH1 0x0 REVERT JUMPDEST PUSH1 0x0 DUP1 REVERT JUMPDEST PUSH1 0x0 DUP1 REVERT JUMPDEST PUSH1 0x0 DUP1 REVERT JUMPDEST PUSH1 0x0 DUP1 REVERT JUMPDEST PUSH1 0x0 PUSH1 0x1F NOT PUSH1 0x1F DUP4 ADD AND SWAP1 POP SWAP2 SWAP1 POP JUMP JUMPDEST PUSH2 0x88D DUP2 PUSH2 0x752 JUMP JUMPDEST DUP2 EQ PUSH2 0x898 JUMPI PUSH1 0x0 DUP1 REVERT JUMPDEST POP JUMP INVALID LOG2 PUSH5 0x6970667358 0x22 SLT KECCAK256 CALLER SWAP4 ORIGIN 0xAD 0xE0 0x2A RETURN 0x24 0xCE GASPRICE 0xEB KECCAK256 0xDC 0xB6 0xEB CODECOPY SUB 0x27 0x1E 0xC9 SWAP5 PUSH3 0x2A90BE CALLDATALOAD 0x2A 0xBF 0xBB CHAINID 0xC4 0xB0 PUSH5 0x736F6C6343 STOP ADDMOD SMOD STOP CALLER "
				},
				"gasEstimates": {
					"creation": {
						"codeDepositCost": "451400",
						"executionCost": "5492",
						"totalCost": "456892"
					},
					"external": {
						"counter()": "2451",
						"createPost(string,string)": "infinite",
						"posts(uint256)": "2817",
						"userPosts(uint256)": "infinite"
					}
				},
				"methodIdentifiers": {
					"counter()": "61bc221a",
					"createPost(string,string)": "392338f5",
					"posts(uint256)": "0b1e7f83",
					"userPosts(uint256)": "fdd6ea71"
				}
			},
			"storageLayout": {
				"storage": [
					{
						"astId": 4,
						"contract": "contracts/blog.sol:blog",
						"label": "counter",
						"offset": 0,
						"slot": "0",
						"type": "t_uint256"
					},
					{
						"astId": 21,
						"contract": "contracts/blog.sol:blog",
						"label": "posts",
						"offset": 0,
						"slot": "1",
						"type": "t_mapping(t_uint256,t_address)"
					},
					{
						"astId": 26,
						"contract": "contracts/blog.sol:blog",
						"label": "userPosts",
						"offset": 0,
						"slot": "2",
						"type": "t_mapping(t_uint256,t_struct(Post)17_storage)"
					}
				],
				"types": {
					"t_address": {
						"encoding": "inplace",
						"label": "address",
						"numberOfBytes": "20"
					},
					"t_mapping(t_uint256,t_address)": {
						"encoding": "mapping",
						"key": "t_uint256",
						"label": "mapping(uint256 => address)",
						"numberOfBytes": "32",
						"value": "t_address"
					},
					"t_mapping(t_uint256,t_struct(Post)17_storage)": {
						"encoding": "mapping",
						"key": "t_uint256",
						"label": "mapping(uint256 => struct blog.Post)",
						"numberOfBytes": "32",
						"value": "t_struct(Post)17_storage"
					},
					"t_string_storage": {
						"encoding": "bytes",
						"label": "string",
						"numberOfBytes": "32"
					},
					"t_struct(Post)17_storage": {
						"encoding": "inplace",
						"label": "struct blog.Post",
						"members": [
							{
								"astId": 12,
								"contract": "contracts/blog.sol:blog",
								"label": "title",
								"offset": 0,
								"slot": "0",
								"type": "t_string_storage"
							},
							{
								"astId": 14,
								"contract": "contracts/blog.sol:blog",
								"label": "description",
								"offset": 0,
								"slot": "1",
								"type": "t_string_storage"
							},
							{
								"astId": 16,
								"contract": "contracts/blog.sol:blog",
								"label": "user",
								"offset": 0,
								"slot": "2",
								"type": "t_address"
							}
						],
						"numberOfBytes": "96"
					},
					"t_uint256": {
						"encoding": "inplace",
						"label": "uint256",
						"numberOfBytes": "32"
					}
				}
			},
			"userdoc": {
				"kind": "user",
				"methods": {},
				"version": 1
			}
		}
	}
}