{
	"contracts/basics.sol": {
		"Person": {
			"abi": [
				{
					"inputs": [
						{
							"internalType": "string",
							"name": "_name",
							"type": "string"
						},
						{
							"internalType": "uint256",
							"name": "_age",
							"type": "uint256"
						}
					],
					"stateMutability": "nonpayable",
					"type": "constructor"
				},
				{
					"inputs": [],
					"name": "age",
					"outputs": [
						{
							"internalType": "uint256",
							"name": "",
							"type": "uint256"
						}
					],
					"stateMutability": "view",
					"type": "function"
				},
				{
					"inputs": [],
					"name": "characterOfAPerson",
					"outputs": [
						{
							"internalType": "string",
							"name": "color",
							"type": "string"
						},
						{
							"internalType": "string",
							"name": "country",
							"type": "string"
						},
						{
							"internalType": "uint256",
							"name": "height",
							"type": "uint256"
						}
					],
					"stateMutability": "view",
					"type": "function"
				},
				{
					"inputs": [
						{
							"internalType": "uint256",
							"name": "a",
							"type": "uint256"
						},
						{
							"internalType": "uint256",
							"name": "b",
							"type": "uint256"
						}
					],
					"name": "enterValues",
					"outputs": [],
					"stateMutability": "nonpayable",
					"type": "function"
				},
				{
					"inputs": [
						{
							"internalType": "uint256",
							"name": "a",
							"type": "uint256"
						},
						{
							"internalType": "uint256",
							"name": "b",
							"type": "uint256"
						},
						{
							"internalType": "uint256",
							"name": "c",
							"type": "uint256"
						},
						{
							"internalType": "uint256",
							"name": "d",
							"type": "uint256"
						}
					],
					"name": "enterValuesAgain",
					"outputs": [],
					"stateMutability": "nonpayable",
					"type": "function"
				},
				{
					"inputs": [
						{
							"internalType": "uint256",
							"name": "",
							"type": "uint256"
						}
					],
					"name": "luckNumbers2",
					"outputs": [
						{
							"internalType": "uint256",
							"name": "",
							"type": "uint256"
						}
					],
					"stateMutability": "view",
					"type": "function"
				},
				{
					"inputs": [
						{
							"internalType": "uint256",
							"name": "",
							"type": "uint256"
						}
					],
					"name": "luckyNumbers",
					"outputs": [
						{
							"internalType": "uint256",
							"name": "",
							"type": "uint256"
						}
					],
					"stateMutability": "view",
					"type": "function"
				},
				{
					"inputs": [],
					"name": "name",
					"outputs": [
						{
							"internalType": "string",
							"name": "",
							"type": "string"
						}
					],
					"stateMutability": "view",
					"type": "function"
				}
			],
			"devdoc": {
				"kind": "dev",
				"methods": {},
				"version": 1
			},
			"evm": {
				"assembly": "    /* \"contracts/basics.sol\":96:1510  contract Person{\r... */\n  mstore(0x40, 0x80)\n    /* \"contracts/basics.sol\":315:475  constructor(string memory _name,uint _age) public{\r... */\n  callvalue\n  dup1\n  iszero\n  tag_1\n  jumpi\n  0x00\n  dup1\n  revert\ntag_1:\n  pop\n  mload(0x40)\n  sub(codesize, bytecodeSize)\n  dup1\n  bytecodeSize\n  dup4\n  codecopy\n  dup2\n  dup2\n  add\n  0x40\n  mstore\n  dup2\n  add\n  swap1\n  tag_2\n  swap2\n  swap1\n  tag_3\n  jump\t// in\ntag_2:\n    /* \"contracts/basics.sol\":384:389  _name */\n  dup2\n    /* \"contracts/basics.sol\":377:381  name */\n  0x00\n    /* \"contracts/basics.sol\":377:389  name = _name */\n  swap1\n  dup1\n  mload\n  swap1\n  0x20\n  add\n  swap1\n  tag_6\n  swap3\n  swap2\n  swap1\n  tag_7\n  jump\t// in\ntag_6:\n  pop\n    /* \"contracts/basics.sol\":461:465  _age */\n  dup1\n    /* \"contracts/basics.sol\":454:457  age */\n  0x01\n    /* \"contracts/basics.sol\":454:465  age  = _age */\n  dup2\n  swap1\n  sstore\n  pop\n    /* \"contracts/basics.sol\":315:475  constructor(string memory _name,uint _age) public{\r... */\n  pop\n  pop\n    /* \"contracts/basics.sol\":96:1510  contract Person{\r... */\n  jump(tag_8)\ntag_7:\n  dup3\n  dup1\n  sload\n  tag_9\n  swap1\n  tag_10\n  jump\t// in\ntag_9:\n  swap1\n  0x00\n  mstore\n  keccak256(0x00, 0x20)\n  swap1\n  0x1f\n  add\n  0x20\n  swap1\n  div\n  dup2\n  add\n  swap3\n  dup3\n  tag_12\n  jumpi\n  0x00\n  dup6\n  sstore\n  jump(tag_11)\ntag_12:\n  dup3\n  0x1f\n  lt\n  tag_13\n  jumpi\n  dup1\n  mload\n  not(0xff)\n  and\n  dup4\n  dup1\n  add\n  or\n  dup6\n  sstore\n  jump(tag_11)\ntag_13:\n  dup3\n  dup1\n  add\n  0x01\n  add\n  dup6\n  sstore\n  dup3\n  iszero\n  tag_11\n  jumpi\n  swap2\n  dup3\n  add\ntag_14:\n  dup3\n  dup2\n  gt\n  iszero\n  tag_15\n  jumpi\n  dup3\n  mload\n  dup3\n  sstore\n  swap2\n  0x20\n  add\n  swap2\n  swap1\n  0x01\n  add\n  swap1\n  jump(tag_14)\ntag_15:\ntag_11:\n  pop\n  swap1\n  pop\n  tag_16\n  swap2\n  swap1\n  tag_17\n  jump\t// in\ntag_16:\n  pop\n  swap1\n  jump\t// out\ntag_17:\ntag_18:\n  dup1\n  dup3\n  gt\n  iszero\n  tag_19\n  jumpi\n  0x00\n  dup2\n  0x00\n  swap1\n  sstore\n  pop\n  0x01\n  add\n  jump(tag_18)\ntag_19:\n  pop\n  swap1\n  jump\t// out\n    /* \"#utility.yul\":7:428   */\ntag_21:\n    /* \"#utility.yul\":96:101   */\n  0x00\n    /* \"#utility.yul\":121:187   */\n  tag_23\n    /* \"#utility.yul\":137:186   */\n  tag_24\n    /* \"#utility.yul\":179:185   */\n  dup5\n    /* \"#utility.yul\":137:186   */\n  tag_25\n  jump\t// in\ntag_24:\n    /* \"#utility.yul\":121:187   */\n  tag_26\n  jump\t// in\ntag_23:\n    /* \"#utility.yul\":112:187   */\n  swap1\n  pop\n    /* \"#utility.yul\":210:216   */\n  dup3\n    /* \"#utility.yul\":203:208   */\n  dup2\n    /* \"#utility.yul\":196:217   */\n  mstore\n    /* \"#utility.yul\":248:252   */\n  0x20\n    /* \"#utility.yul\":241:246   */\n  dup2\n    /* \"#utility.yul\":237:253   */\n  add\n    /* \"#utility.yul\":286:289   */\n  dup5\n    /* \"#utility.yul\":277:283   */\n  dup5\n    /* \"#utility.yul\":272:275   */\n  dup5\n    /* \"#utility.yul\":268:284   */\n  add\n    /* \"#utility.yul\":265:290   */\n  gt\n    /* \"#utility.yul\":262:374   */\n  iszero\n  tag_27\n  jumpi\n    /* \"#utility.yul\":293:372   */\n  tag_28\n  tag_29\n  jump\t// in\ntag_28:\n    /* \"#utility.yul\":262:374   */\ntag_27:\n    /* \"#utility.yul\":383:422   */\n  tag_30\n    /* \"#utility.yul\":415:421   */\n  dup5\n    /* \"#utility.yul\":410:413   */\n  dup3\n    /* \"#utility.yul\":405:408   */\n  dup6\n    /* \"#utility.yul\":383:422   */\n  tag_31\n  jump\t// in\ntag_30:\n    /* \"#utility.yul\":102:428   */\n  pop\n    /* \"#utility.yul\":7:428   */\n  swap4\n  swap3\n  pop\n  pop\n  pop\n  jump\t// out\n    /* \"#utility.yul\":448:803   */\ntag_32:\n    /* \"#utility.yul\":515:520   */\n  0x00\n    /* \"#utility.yul\":564:567   */\n  dup3\n    /* \"#utility.yul\":557:561   */\n  0x1f\n    /* \"#utility.yul\":549:555   */\n  dup4\n    /* \"#utility.yul\":545:562   */\n  add\n    /* \"#utility.yul\":541:568   */\n  slt\n    /* \"#utility.yul\":531:653   */\n  tag_34\n  jumpi\n    /* \"#utility.yul\":572:651   */\n  tag_35\n  tag_36\n  jump\t// in\ntag_35:\n    /* \"#utility.yul\":531:653   */\ntag_34:\n    /* \"#utility.yul\":682:688   */\n  dup2\n    /* \"#utility.yul\":676:689   */\n  mload\n    /* \"#utility.yul\":707:797   */\n  tag_37\n    /* \"#utility.yul\":793:796   */\n  dup5\n    /* \"#utility.yul\":785:791   */\n  dup3\n    /* \"#utility.yul\":778:782   */\n  0x20\n    /* \"#utility.yul\":770:776   */\n  dup7\n    /* \"#utility.yul\":766:783   */\n  add\n    /* \"#utility.yul\":707:797   */\n  tag_21\n  jump\t// in\ntag_37:\n    /* \"#utility.yul\":698:797   */\n  swap2\n  pop\n    /* \"#utility.yul\":521:803   */\n  pop\n    /* \"#utility.yul\":448:803   */\n  swap3\n  swap2\n  pop\n  pop\n  jump\t// out\n    /* \"#utility.yul\":809:952   */\ntag_38:\n    /* \"#utility.yul\":866:871   */\n  0x00\n    /* \"#utility.yul\":897:903   */\n  dup2\n    /* \"#utility.yul\":891:904   */\n  mload\n    /* \"#utility.yul\":882:904   */\n  swap1\n  pop\n    /* \"#utility.yul\":913:946   */\n  tag_40\n    /* \"#utility.yul\":940:945   */\n  dup2\n    /* \"#utility.yul\":913:946   */\n  tag_41\n  jump\t// in\ntag_40:\n    /* \"#utility.yul\":809:952   */\n  swap3\n  swap2\n  pop\n  pop\n  jump\t// out\n    /* \"#utility.yul\":958:1638   */\ntag_3:\n    /* \"#utility.yul\":1047:1053   */\n  0x00\n    /* \"#utility.yul\":1055:1061   */\n  dup1\n    /* \"#utility.yul\":1104:1106   */\n  0x40\n    /* \"#utility.yul\":1092:1101   */\n  dup4\n    /* \"#utility.yul\":1083:1090   */\n  dup6\n    /* \"#utility.yul\":1079:1102   */\n  sub\n    /* \"#utility.yul\":1075:1107   */\n  slt\n    /* \"#utility.yul\":1072:1191   */\n  iszero\n  tag_43\n  jumpi\n    /* \"#utility.yul\":1110:1189   */\n  tag_44\n  tag_45\n  jump\t// in\ntag_44:\n    /* \"#utility.yul\":1072:1191   */\ntag_43:\n    /* \"#utility.yul\":1251:1252   */\n  0x00\n    /* \"#utility.yul\":1240:1249   */\n  dup4\n    /* \"#utility.yul\":1236:1253   */\n  add\n    /* \"#utility.yul\":1230:1254   */\n  mload\n    /* \"#utility.yul\":1281:1299   */\n  0xffffffffffffffff\n    /* \"#utility.yul\":1273:1279   */\n  dup2\n    /* \"#utility.yul\":1270:1300   */\n  gt\n    /* \"#utility.yul\":1267:1384   */\n  iszero\n  tag_46\n  jumpi\n    /* \"#utility.yul\":1303:1382   */\n  tag_47\n  tag_48\n  jump\t// in\ntag_47:\n    /* \"#utility.yul\":1267:1384   */\ntag_46:\n    /* \"#utility.yul\":1408:1482   */\n  tag_49\n    /* \"#utility.yul\":1474:1481   */\n  dup6\n    /* \"#utility.yul\":1465:1471   */\n  dup3\n    /* \"#utility.yul\":1454:1463   */\n  dup7\n    /* \"#utility.yul\":1450:1472   */\n  add\n    /* \"#utility.yul\":1408:1482   */\n  tag_32\n  jump\t// in\ntag_49:\n    /* \"#utility.yul\":1398:1482   */\n  swap3\n  pop\n    /* \"#utility.yul\":1201:1492   */\n  pop\n    /* \"#utility.yul\":1531:1533   */\n  0x20\n    /* \"#utility.yul\":1557:1621   */\n  tag_50\n    /* \"#utility.yul\":1613:1620   */\n  dup6\n    /* \"#utility.yul\":1604:1610   */\n  dup3\n    /* \"#utility.yul\":1593:1602   */\n  dup7\n    /* \"#utility.yul\":1589:1611   */\n  add\n    /* \"#utility.yul\":1557:1621   */\n  tag_38\n  jump\t// in\ntag_50:\n    /* \"#utility.yul\":1547:1621   */\n  swap2\n  pop\n    /* \"#utility.yul\":1502:1631   */\n  pop\n    /* \"#utility.yul\":958:1638   */\n  swap3\n  pop\n  swap3\n  swap1\n  pop\n  jump\t// out\n    /* \"#utility.yul\":1644:1773   */\ntag_26:\n    /* \"#utility.yul\":1678:1684   */\n  0x00\n    /* \"#utility.yul\":1705:1725   */\n  tag_52\n  tag_53\n  jump\t// in\ntag_52:\n    /* \"#utility.yul\":1695:1725   */\n  swap1\n  pop\n    /* \"#utility.yul\":1734:1767   */\n  tag_54\n    /* \"#utility.yul\":1762:1766   */\n  dup3\n    /* \"#utility.yul\":1754:1760   */\n  dup3\n    /* \"#utility.yul\":1734:1767   */\n  tag_55\n  jump\t// in\ntag_54:\n    /* \"#utility.yul\":1644:1773   */\n  swap2\n  swap1\n  pop\n  jump\t// out\n    /* \"#utility.yul\":1779:1854   */\ntag_53:\n    /* \"#utility.yul\":1812:1818   */\n  0x00\n    /* \"#utility.yul\":1845:1847   */\n  0x40\n    /* \"#utility.yul\":1839:1848   */\n  mload\n    /* \"#utility.yul\":1829:1848   */\n  swap1\n  pop\n    /* \"#utility.yul\":1779:1854   */\n  swap1\n  jump\t// out\n    /* \"#utility.yul\":1860:2168   */\ntag_25:\n    /* \"#utility.yul\":1922:1926   */\n  0x00\n    /* \"#utility.yul\":2012:2030   */\n  0xffffffffffffffff\n    /* \"#utility.yul\":2004:2010   */\n  dup3\n    /* \"#utility.yul\":2001:2031   */\n  gt\n    /* \"#utility.yul\":1998:2054   */\n  iszero\n  tag_58\n  jumpi\n    /* \"#utility.yul\":2034:2052   */\n  tag_59\n  tag_60\n  jump\t// in\ntag_59:\n    /* \"#utility.yul\":1998:2054   */\ntag_58:\n    /* \"#utility.yul\":2072:2101   */\n  tag_61\n    /* \"#utility.yul\":2094:2100   */\n  dup3\n    /* \"#utility.yul\":2072:2101   */\n  tag_62\n  jump\t// in\ntag_61:\n    /* \"#utility.yul\":2064:2101   */\n  swap1\n  pop\n    /* \"#utility.yul\":2156:2160   */\n  0x20\n    /* \"#utility.yul\":2150:2154   */\n  dup2\n    /* \"#utility.yul\":2146:2161   */\n  add\n    /* \"#utility.yul\":2138:2161   */\n  swap1\n  pop\n    /* \"#utility.yul\":1860:2168   */\n  swap2\n  swap1\n  pop\n  jump\t// out\n    /* \"#utility.yul\":2174:2251   */\ntag_63:\n    /* \"#utility.yul\":2211:2218   */\n  0x00\n    /* \"#utility.yul\":2240:2245   */\n  dup2\n    /* \"#utility.yul\":2229:2245   */\n  swap1\n  pop\n    /* \"#utility.yul\":2174:2251   */\n  swap2\n  swap1\n  pop\n  jump\t// out\n    /* \"#utility.yul\":2257:2564   */\ntag_31:\n    /* \"#utility.yul\":2325:2326   */\n  0x00\n    /* \"#utility.yul\":2335:2448   */\ntag_66:\n    /* \"#utility.yul\":2349:2355   */\n  dup4\n    /* \"#utility.yul\":2346:2347   */\n  dup2\n    /* \"#utility.yul\":2343:2356   */\n  lt\n    /* \"#utility.yul\":2335:2448   */\n  iszero\n  tag_68\n  jumpi\n    /* \"#utility.yul\":2434:2435   */\n  dup1\n    /* \"#utility.yul\":2429:2432   */\n  dup3\n    /* \"#utility.yul\":2425:2436   */\n  add\n    /* \"#utility.yul\":2419:2437   */\n  mload\n    /* \"#utility.yul\":2415:2416   */\n  dup2\n    /* \"#utility.yul\":2410:2413   */\n  dup5\n    /* \"#utility.yul\":2406:2417   */\n  add\n    /* \"#utility.yul\":2399:2438   */\n  mstore\n    /* \"#utility.yul\":2371:2373   */\n  0x20\n    /* \"#utility.yul\":2368:2369   */\n  dup2\n    /* \"#utility.yul\":2364:2374   */\n  add\n    /* \"#utility.yul\":2359:2374   */\n  swap1\n  pop\n    /* \"#utility.yul\":2335:2448   */\n  jump(tag_66)\ntag_68:\n    /* \"#utility.yul\":2466:2472   */\n  dup4\n    /* \"#utility.yul\":2463:2464   */\n  dup2\n    /* \"#utility.yul\":2460:2473   */\n  gt\n    /* \"#utility.yul\":2457:2558   */\n  iszero\n  tag_69\n  jumpi\n    /* \"#utility.yul\":2546:2547   */\n  0x00\n    /* \"#utility.yul\":2537:2543   */\n  dup5\n    /* \"#utility.yul\":2532:2535   */\n  dup5\n    /* \"#utility.yul\":2528:2544   */\n  add\n    /* \"#utility.yul\":2521:2548   */\n  mstore\n    /* \"#utility.yul\":2457:2558   */\ntag_69:\n    /* \"#utility.yul\":2306:2564   */\n  pop\n    /* \"#utility.yul\":2257:2564   */\n  pop\n  pop\n  pop\n  jump\t// out\n    /* \"#utility.yul\":2570:2890   */\ntag_10:\n    /* \"#utility.yul\":2614:2620   */\n  0x00\n    /* \"#utility.yul\":2651:2652   */\n  0x02\n    /* \"#utility.yul\":2645:2649   */\n  dup3\n    /* \"#utility.yul\":2641:2653   */\n  div\n    /* \"#utility.yul\":2631:2653   */\n  swap1\n  pop\n    /* \"#utility.yul\":2698:2699   */\n  0x01\n    /* \"#utility.yul\":2692:2696   */\n  dup3\n    /* \"#utility.yul\":2688:2700   */\n  and\n    /* \"#utility.yul\":2719:2737   */\n  dup1\n    /* \"#utility.yul\":2709:2790   */\n  tag_71\n  jumpi\n    /* \"#utility.yul\":2775:2779   */\n  0x7f\n    /* \"#utility.yul\":2767:2773   */\n  dup3\n    /* \"#utility.yul\":2763:2780   */\n  and\n    /* \"#utility.yul\":2753:2780   */\n  swap2\n  pop\n    /* \"#utility.yul\":2709:2790   */\ntag_71:\n    /* \"#utility.yul\":2837:2839   */\n  0x20\n    /* \"#utility.yul\":2829:2835   */\n  dup3\n    /* \"#utility.yul\":2826:2840   */\n  lt\n    /* \"#utility.yul\":2806:2824   */\n  dup2\n    /* \"#utility.yul\":2803:2841   */\n  eq\n    /* \"#utility.yul\":2800:2884   */\n  iszero\n  tag_72\n  jumpi\n    /* \"#utility.yul\":2856:2874   */\n  tag_73\n  tag_74\n  jump\t// in\ntag_73:\n    /* \"#utility.yul\":2800:2884   */\ntag_72:\n    /* \"#utility.yul\":2621:2890   */\n  pop\n    /* \"#utility.yul\":2570:2890   */\n  swap2\n  swap1\n  pop\n  jump\t// out\n    /* \"#utility.yul\":2896:3177   */\ntag_55:\n    /* \"#utility.yul\":2979:3006   */\n  tag_76\n    /* \"#utility.yul\":3001:3005   */\n  dup3\n    /* \"#utility.yul\":2979:3006   */\n  tag_62\n  jump\t// in\ntag_76:\n    /* \"#utility.yul\":2971:2977   */\n  dup2\n    /* \"#utility.yul\":2967:3007   */\n  add\n    /* \"#utility.yul\":3109:3115   */\n  dup2\n    /* \"#utility.yul\":3097:3107   */\n  dup2\n    /* \"#utility.yul\":3094:3116   */\n  lt\n    /* \"#utility.yul\":3073:3091   */\n  0xffffffffffffffff\n    /* \"#utility.yul\":3061:3071   */\n  dup3\n    /* \"#utility.yul\":3058:3092   */\n  gt\n    /* \"#utility.yul\":3055:3117   */\n  or\n    /* \"#utility.yul\":3052:3140   */\n  iszero\n  tag_77\n  jumpi\n    /* \"#utility.yul\":3120:3138   */\n  tag_78\n  tag_60\n  jump\t// in\ntag_78:\n    /* \"#utility.yul\":3052:3140   */\ntag_77:\n    /* \"#utility.yul\":3160:3170   */\n  dup1\n    /* \"#utility.yul\":3156:3158   */\n  0x40\n    /* \"#utility.yul\":3149:3171   */\n  mstore\n    /* \"#utility.yul\":2939:3177   */\n  pop\n    /* \"#utility.yul\":2896:3177   */\n  pop\n  pop\n  jump\t// out\n    /* \"#utility.yul\":3183:3363   */\ntag_74:\n    /* \"#utility.yul\":3231:3308   */\n  0x4e487b7100000000000000000000000000000000000000000000000000000000\n    /* \"#utility.yul\":3228:3229   */\n  0x00\n    /* \"#utility.yul\":3221:3309   */\n  mstore\n    /* \"#utility.yul\":3328:3332   */\n  0x22\n    /* \"#utility.yul\":3325:3326   */\n  0x04\n    /* \"#utility.yul\":3318:3333   */\n  mstore\n    /* \"#utility.yul\":3352:3356   */\n  0x24\n    /* \"#utility.yul\":3349:3350   */\n  0x00\n    /* \"#utility.yul\":3342:3357   */\n  revert\n    /* \"#utility.yul\":3369:3549   */\ntag_60:\n    /* \"#utility.yul\":3417:3494   */\n  0x4e487b7100000000000000000000000000000000000000000000000000000000\n    /* \"#utility.yul\":3414:3415   */\n  0x00\n    /* \"#utility.yul\":3407:3495   */\n  mstore\n    /* \"#utility.yul\":3514:3518   */\n  0x41\n    /* \"#utility.yul\":3511:3512   */\n  0x04\n    /* \"#utility.yul\":3504:3519   */\n  mstore\n    /* \"#utility.yul\":3538:3542   */\n  0x24\n    /* \"#utility.yul\":3535:3536   */\n  0x00\n    /* \"#utility.yul\":3528:3543   */\n  revert\n    /* \"#utility.yul\":3555:3672   */\ntag_36:\n    /* \"#utility.yul\":3664:3665   */\n  0x00\n    /* \"#utility.yul\":3661:3662   */\n  dup1\n    /* \"#utility.yul\":3654:3666   */\n  revert\n    /* \"#utility.yul\":3678:3795   */\ntag_29:\n    /* \"#utility.yul\":3787:3788   */\n  0x00\n    /* \"#utility.yul\":3784:3785   */\n  dup1\n    /* \"#utility.yul\":3777:3789   */\n  revert\n    /* \"#utility.yul\":3801:3918   */\ntag_48:\n    /* \"#utility.yul\":3910:3911   */\n  0x00\n    /* \"#utility.yul\":3907:3908   */\n  dup1\n    /* \"#utility.yul\":3900:3912   */\n  revert\n    /* \"#utility.yul\":3924:4041   */\ntag_45:\n    /* \"#utility.yul\":4033:4034   */\n  0x00\n    /* \"#utility.yul\":4030:4031   */\n  dup1\n    /* \"#utility.yul\":4023:4035   */\n  revert\n    /* \"#utility.yul\":4047:4149   */\ntag_62:\n    /* \"#utility.yul\":4088:4094   */\n  0x00\n    /* \"#utility.yul\":4139:4141   */\n  0x1f\n    /* \"#utility.yul\":4135:4142   */\n  not\n    /* \"#utility.yul\":4130:4132   */\n  0x1f\n    /* \"#utility.yul\":4123:4128   */\n  dup4\n    /* \"#utility.yul\":4119:4133   */\n  add\n    /* \"#utility.yul\":4115:4143   */\n  and\n    /* \"#utility.yul\":4105:4143   */\n  swap1\n  pop\n    /* \"#utility.yul\":4047:4149   */\n  swap2\n  swap1\n  pop\n  jump\t// out\n    /* \"#utility.yul\":4155:4277   */\ntag_41:\n    /* \"#utility.yul\":4228:4252   */\n  tag_87\n    /* \"#utility.yul\":4246:4251   */\n  dup2\n    /* \"#utility.yul\":4228:4252   */\n  tag_63\n  jump\t// in\ntag_87:\n    /* \"#utility.yul\":4221:4226   */\n  dup2\n    /* \"#utility.yul\":4218:4253   */\n  eq\n    /* \"#utility.yul\":4208:4271   */\n  tag_88\n  jumpi\n    /* \"#utility.yul\":4267:4268   */\n  0x00\n    /* \"#utility.yul\":4264:4265   */\n  dup1\n    /* \"#utility.yul\":4257:4269   */\n  revert\n    /* \"#utility.yul\":4208:4271   */\ntag_88:\n    /* \"#utility.yul\":4155:4277   */\n  pop\n  jump\t// out\n    /* \"contracts/basics.sol\":96:1510  contract Person{\r... */\ntag_8:\n  dataSize(sub_0)\n  dup1\n  dataOffset(sub_0)\n  0x00\n  codecopy\n  0x00\n  return\nstop\n\nsub_0: assembly {\n        /* \"contracts/basics.sol\":96:1510  contract Person{\r... */\n      mstore(0x40, 0x80)\n      callvalue\n      dup1\n      iszero\n      tag_1\n      jumpi\n      0x00\n      dup1\n      revert\n    tag_1:\n      pop\n      jumpi(tag_2, lt(calldatasize, 0x04))\n      shr(0xe0, calldataload(0x00))\n      dup1\n      0x465fe0ee\n      gt\n      tag_10\n      jumpi\n      dup1\n      0x465fe0ee\n      eq\n      tag_6\n      jumpi\n      dup1\n      0x6d35e346\n      eq\n      tag_7\n      jumpi\n      dup1\n      0xd653f307\n      eq\n      tag_8\n      jumpi\n      dup1\n      0xe780faa3\n      eq\n      tag_9\n      jumpi\n      jump(tag_2)\n    tag_10:\n      dup1\n      0x06fdde03\n      eq\n      tag_3\n      jumpi\n      dup1\n      0x204653d3\n      eq\n      tag_4\n      jumpi\n      dup1\n      0x262a9dff\n      eq\n      tag_5\n      jumpi\n    tag_2:\n      0x00\n      dup1\n      revert\n        /* \"contracts/basics.sol\":251:269  string public name */\n    tag_3:\n      tag_11\n      tag_12\n      jump\t// in\n    tag_11:\n      mload(0x40)\n      tag_13\n      swap2\n      swap1\n      tag_14\n      jump\t// in\n    tag_13:\n      mload(0x40)\n      dup1\n      swap2\n      sub\n      swap1\n      return\n        /* \"contracts/basics.sol\":806:928  function enterValues(uint a, uint b) public {\r... */\n    tag_4:\n      tag_15\n      0x04\n      dup1\n      calldatasize\n      sub\n      dup2\n      add\n      swap1\n      tag_16\n      swap2\n      swap1\n      tag_17\n      jump\t// in\n    tag_16:\n      tag_18\n      jump\t// in\n    tag_15:\n      stop\n        /* \"contracts/basics.sol\":290:305  uint public age */\n    tag_5:\n      tag_19\n      tag_20\n      jump\t// in\n    tag_19:\n      mload(0x40)\n      tag_21\n      swap2\n      swap1\n      tag_22\n      jump\t// in\n    tag_21:\n      mload(0x40)\n      dup1\n      swap2\n      sub\n      swap1\n      return\n        /* \"contracts/basics.sol\":1464:1496  Traits public characterOfAPerson */\n    tag_6:\n      tag_23\n      tag_24\n      jump\t// in\n    tag_23:\n      mload(0x40)\n      tag_25\n      swap4\n      swap3\n      swap2\n      swap1\n      tag_26\n      jump\t// in\n    tag_25:\n      mload(0x40)\n      dup1\n      swap2\n      sub\n      swap1\n      return\n        /* \"contracts/basics.sol\":936:1137  function enterValuesAgain(uint a, uint b,uint c,uint d) public {\r... */\n    tag_7:\n      tag_27\n      0x04\n      dup1\n      calldatasize\n      sub\n      dup2\n      add\n      swap1\n      tag_28\n      swap2\n      swap1\n      tag_29\n      jump\t// in\n    tag_28:\n      tag_30\n      jump\t// in\n    tag_27:\n      stop\n        /* \"contracts/basics.sol\":771:797  uint[] public luckNumbers2 */\n    tag_8:\n      tag_31\n      0x04\n      dup1\n      calldatasize\n      sub\n      dup2\n      add\n      swap1\n      tag_32\n      swap2\n      swap1\n      tag_33\n      jump\t// in\n    tag_32:\n      tag_34\n      jump\t// in\n    tag_31:\n      mload(0x40)\n      tag_35\n      swap2\n      swap1\n      tag_22\n      jump\t// in\n    tag_35:\n      mload(0x40)\n      dup1\n      swap2\n      sub\n      swap1\n      return\n        /* \"contracts/basics.sol\":613:640  uint[2] public luckyNumbers */\n    tag_9:\n      tag_36\n      0x04\n      dup1\n      calldatasize\n      sub\n      dup2\n      add\n      swap1\n      tag_37\n      swap2\n      swap1\n      tag_33\n      jump\t// in\n    tag_37:\n      tag_38\n      jump\t// in\n    tag_36:\n      mload(0x40)\n      tag_39\n      swap2\n      swap1\n      tag_22\n      jump\t// in\n    tag_39:\n      mload(0x40)\n      dup1\n      swap2\n      sub\n      swap1\n      return\n        /* \"contracts/basics.sol\":251:269  string public name */\n    tag_12:\n      0x00\n      dup1\n      sload\n      tag_40\n      swap1\n      tag_41\n      jump\t// in\n    tag_40:\n      dup1\n      0x1f\n      add\n      0x20\n      dup1\n      swap2\n      div\n      mul\n      0x20\n      add\n      mload(0x40)\n      swap1\n      dup2\n      add\n      0x40\n      mstore\n      dup1\n      swap3\n      swap2\n      swap1\n      dup2\n      dup2\n      mstore\n      0x20\n      add\n      dup3\n      dup1\n      sload\n      tag_42\n      swap1\n      tag_41\n      jump\t// in\n    tag_42:\n      dup1\n      iszero\n      tag_43\n      jumpi\n      dup1\n      0x1f\n      lt\n      tag_44\n      jumpi\n      0x0100\n      dup1\n      dup4\n      sload\n      div\n      mul\n      dup4\n      mstore\n      swap2\n      0x20\n      add\n      swap2\n      jump(tag_43)\n    tag_44:\n      dup3\n      add\n      swap2\n      swap1\n      0x00\n      mstore\n      keccak256(0x00, 0x20)\n      swap1\n    tag_45:\n      dup2\n      sload\n      dup2\n      mstore\n      swap1\n      0x01\n      add\n      swap1\n      0x20\n      add\n      dup1\n      dup4\n      gt\n      tag_45\n      jumpi\n      dup3\n      swap1\n      sub\n      0x1f\n      and\n      dup3\n      add\n      swap2\n    tag_43:\n      pop\n      pop\n      pop\n      pop\n      pop\n      dup2\n      jump\t// out\n        /* \"contracts/basics.sol\":806:928  function enterValues(uint a, uint b) public {\r... */\n    tag_18:\n        /* \"contracts/basics.sol\":880:881  a */\n      dup2\n        /* \"contracts/basics.sol\":862:874  luckyNumbers */\n      0x02\n        /* \"contracts/basics.sol\":875:876  0 */\n      0x00\n        /* \"contracts/basics.sol\":862:877  luckyNumbers[0] */\n      0x02\n      dup2\n      lt\n      tag_47\n      jumpi\n      tag_48\n      tag_49\n      jump\t// in\n    tag_48:\n    tag_47:\n      add\n        /* \"contracts/basics.sol\":862:881  luckyNumbers[0] = a */\n      dup2\n      swap1\n      sstore\n      pop\n        /* \"contracts/basics.sol\":909:910  b */\n      dup1\n        /* \"contracts/basics.sol\":891:903  luckyNumbers */\n      0x02\n        /* \"contracts/basics.sol\":904:905  1 */\n      0x01\n        /* \"contracts/basics.sol\":891:906  luckyNumbers[1] */\n      0x02\n      dup2\n      lt\n      tag_51\n      jumpi\n      tag_52\n      tag_49\n      jump\t// in\n    tag_52:\n    tag_51:\n      add\n        /* \"contracts/basics.sol\":891:910  luckyNumbers[1] = b */\n      dup2\n      swap1\n      sstore\n      pop\n        /* \"contracts/basics.sol\":806:928  function enterValues(uint a, uint b) public {\r... */\n      pop\n      pop\n      jump\t// out\n        /* \"contracts/basics.sol\":290:305  uint public age */\n    tag_20:\n      sload(0x01)\n      dup2\n      jump\t// out\n        /* \"contracts/basics.sol\":1464:1496  Traits public characterOfAPerson */\n    tag_24:\n      0x05\n      dup1\n      0x00\n      add\n      dup1\n      sload\n      tag_54\n      swap1\n      tag_41\n      jump\t// in\n    tag_54:\n      dup1\n      0x1f\n      add\n      0x20\n      dup1\n      swap2\n      div\n      mul\n      0x20\n      add\n      mload(0x40)\n      swap1\n      dup2\n      add\n      0x40\n      mstore\n      dup1\n      swap3\n      swap2\n      swap1\n      dup2\n      dup2\n      mstore\n      0x20\n      add\n      dup3\n      dup1\n      sload\n      tag_55\n      swap1\n      tag_41\n      jump\t// in\n    tag_55:\n      dup1\n      iszero\n      tag_56\n      jumpi\n      dup1\n      0x1f\n      lt\n      tag_57\n      jumpi\n      0x0100\n      dup1\n      dup4\n      sload\n      div\n      mul\n      dup4\n      mstore\n      swap2\n      0x20\n      add\n      swap2\n      jump(tag_56)\n    tag_57:\n      dup3\n      add\n      swap2\n      swap1\n      0x00\n      mstore\n      keccak256(0x00, 0x20)\n      swap1\n    tag_58:\n      dup2\n      sload\n      dup2\n      mstore\n      swap1\n      0x01\n      add\n      swap1\n      0x20\n      add\n      dup1\n      dup4\n      gt\n      tag_58\n      jumpi\n      dup3\n      swap1\n      sub\n      0x1f\n      and\n      dup3\n      add\n      swap2\n    tag_56:\n      pop\n      pop\n      pop\n      pop\n      pop\n      swap1\n      dup1\n      0x01\n      add\n      dup1\n      sload\n      tag_59\n      swap1\n      tag_41\n      jump\t// in\n    tag_59:\n      dup1\n      0x1f\n      add\n      0x20\n      dup1\n      swap2\n      div\n      mul\n      0x20\n      add\n      mload(0x40)\n      swap1\n      dup2\n      add\n      0x40\n      mstore\n      dup1\n      swap3\n      swap2\n      swap1\n      dup2\n      dup2\n      mstore\n      0x20\n      add\n      dup3\n      dup1\n      sload\n      tag_60\n      swap1\n      tag_41\n      jump\t// in\n    tag_60:\n      dup1\n      iszero\n      tag_61\n      jumpi\n      dup1\n      0x1f\n      lt\n      tag_62\n      jumpi\n      0x0100\n      dup1\n      dup4\n      sload\n      div\n      mul\n      dup4\n      mstore\n      swap2\n      0x20\n      add\n      swap2\n      jump(tag_61)\n    tag_62:\n      dup3\n      add\n      swap2\n      swap1\n      0x00\n      mstore\n      keccak256(0x00, 0x20)\n      swap1\n    tag_63:\n      dup2\n      sload\n      dup2\n      mstore\n      swap1\n      0x01\n      add\n      swap1\n      0x20\n      add\n      dup1\n      dup4\n      gt\n      tag_63\n      jumpi\n      dup3\n      swap1\n      sub\n      0x1f\n      and\n      dup3\n      add\n      swap2\n    tag_61:\n      pop\n      pop\n      pop\n      pop\n      pop\n      swap1\n      dup1\n      0x02\n      add\n      sload\n      swap1\n      pop\n      dup4\n      jump\t// out\n        /* \"contracts/basics.sol\":936:1137  function enterValuesAgain(uint a, uint b,uint c,uint d) public {\r... */\n    tag_30:\n        /* \"contracts/basics.sol\":1012:1024  luckNumbers2 */\n      0x04\n        /* \"contracts/basics.sol\":1030:1031  a */\n      dup5\n        /* \"contracts/basics.sol\":1012:1032  luckNumbers2.push(a) */\n      swap1\n      dup1\n      0x01\n      dup2\n      sload\n      add\n      dup1\n      dup3\n      sstore\n      dup1\n      swap2\n      pop\n      pop\n      0x01\n      swap1\n      sub\n      swap1\n      0x00\n      mstore\n      keccak256(0x00, 0x20)\n      add\n      0x00\n      swap1\n      swap2\n      swap1\n      swap2\n      swap1\n      swap2\n      pop\n      sstore\n        /* \"contracts/basics.sol\":1043:1055  luckNumbers2 */\n      0x04\n        /* \"contracts/basics.sol\":1061:1062  b */\n      dup4\n        /* \"contracts/basics.sol\":1043:1063  luckNumbers2.push(b) */\n      swap1\n      dup1\n      0x01\n      dup2\n      sload\n      add\n      dup1\n      dup3\n      sstore\n      dup1\n      swap2\n      pop\n      pop\n      0x01\n      swap1\n      sub\n      swap1\n      0x00\n      mstore\n      keccak256(0x00, 0x20)\n      add\n      0x00\n      swap1\n      swap2\n      swap1\n      swap2\n      swap1\n      swap2\n      pop\n      sstore\n        /* \"contracts/basics.sol\":1074:1086  luckNumbers2 */\n      0x04\n        /* \"contracts/basics.sol\":1092:1093  c */\n      dup3\n        /* \"contracts/basics.sol\":1074:1094  luckNumbers2.push(c) */\n      swap1\n      dup1\n      0x01\n      dup2\n      sload\n      add\n      dup1\n      dup3\n      sstore\n      dup1\n      swap2\n      pop\n      pop\n      0x01\n      swap1\n      sub\n      swap1\n      0x00\n      mstore\n      keccak256(0x00, 0x20)\n      add\n      0x00\n      swap1\n      swap2\n      swap1\n      swap2\n      swap1\n      swap2\n      pop\n      sstore\n        /* \"contracts/basics.sol\":1105:1117  luckNumbers2 */\n      0x04\n        /* \"contracts/basics.sol\":1123:1124  d */\n      dup2\n        /* \"contracts/basics.sol\":1105:1125  luckNumbers2.push(d) */\n      swap1\n      dup1\n      0x01\n      dup2\n      sload\n      add\n      dup1\n      dup3\n      sstore\n      dup1\n      swap2\n      pop\n      pop\n      0x01\n      swap1\n      sub\n      swap1\n      0x00\n      mstore\n      keccak256(0x00, 0x20)\n      add\n      0x00\n      swap1\n      swap2\n      swap1\n      swap2\n      swap1\n      swap2\n      pop\n      sstore\n        /* \"contracts/basics.sol\":936:1137  function enterValuesAgain(uint a, uint b,uint c,uint d) public {\r... */\n      pop\n      pop\n      pop\n      pop\n      jump\t// out\n        /* \"contracts/basics.sol\":771:797  uint[] public luckNumbers2 */\n    tag_34:\n      0x04\n      dup2\n      dup2\n      sload\n      dup2\n      lt\n      tag_69\n      jumpi\n      0x00\n      dup1\n      revert\n    tag_69:\n      swap1\n      0x00\n      mstore\n      keccak256(0x00, 0x20)\n      add\n      0x00\n      swap2\n      pop\n      swap1\n      pop\n      sload\n      dup2\n      jump\t// out\n        /* \"contracts/basics.sol\":613:640  uint[2] public luckyNumbers */\n    tag_38:\n      0x02\n      dup2\n      0x02\n      dup2\n      lt\n      tag_71\n      jumpi\n      0x00\n      dup1\n      revert\n    tag_71:\n      add\n      0x00\n      swap2\n      pop\n      swap1\n      pop\n      sload\n      dup2\n      jump\t// out\n        /* \"#utility.yul\":7:146   */\n    tag_74:\n        /* \"#utility.yul\":53:58   */\n      0x00\n        /* \"#utility.yul\":91:97   */\n      dup2\n        /* \"#utility.yul\":78:98   */\n      calldataload\n        /* \"#utility.yul\":69:98   */\n      swap1\n      pop\n        /* \"#utility.yul\":107:140   */\n      tag_76\n        /* \"#utility.yul\":134:139   */\n      dup2\n        /* \"#utility.yul\":107:140   */\n      tag_77\n      jump\t// in\n    tag_76:\n        /* \"#utility.yul\":7:146   */\n      swap3\n      swap2\n      pop\n      pop\n      jump\t// out\n        /* \"#utility.yul\":152:481   */\n    tag_33:\n        /* \"#utility.yul\":211:217   */\n      0x00\n        /* \"#utility.yul\":260:262   */\n      0x20\n        /* \"#utility.yul\":248:257   */\n      dup3\n        /* \"#utility.yul\":239:246   */\n      dup5\n        /* \"#utility.yul\":235:258   */\n      sub\n        /* \"#utility.yul\":231:263   */\n      slt\n        /* \"#utility.yul\":228:347   */\n      iszero\n      tag_79\n      jumpi\n        /* \"#utility.yul\":266:345   */\n      tag_80\n      tag_81\n      jump\t// in\n    tag_80:\n        /* \"#utility.yul\":228:347   */\n    tag_79:\n        /* \"#utility.yul\":386:387   */\n      0x00\n        /* \"#utility.yul\":411:464   */\n      tag_82\n        /* \"#utility.yul\":456:463   */\n      dup5\n        /* \"#utility.yul\":447:453   */\n      dup3\n        /* \"#utility.yul\":436:445   */\n      dup6\n        /* \"#utility.yul\":432:454   */\n      add\n        /* \"#utility.yul\":411:464   */\n      tag_74\n      jump\t// in\n    tag_82:\n        /* \"#utility.yul\":401:464   */\n      swap2\n      pop\n        /* \"#utility.yul\":357:474   */\n      pop\n        /* \"#utility.yul\":152:481   */\n      swap3\n      swap2\n      pop\n      pop\n      jump\t// out\n        /* \"#utility.yul\":487:961   */\n    tag_17:\n        /* \"#utility.yul\":555:561   */\n      0x00\n        /* \"#utility.yul\":563:569   */\n      dup1\n        /* \"#utility.yul\":612:614   */\n      0x40\n        /* \"#utility.yul\":600:609   */\n      dup4\n        /* \"#utility.yul\":591:598   */\n      dup6\n        /* \"#utility.yul\":587:610   */\n      sub\n        /* \"#utility.yul\":583:615   */\n      slt\n        /* \"#utility.yul\":580:699   */\n      iszero\n      tag_84\n      jumpi\n        /* \"#utility.yul\":618:697   */\n      tag_85\n      tag_81\n      jump\t// in\n    tag_85:\n        /* \"#utility.yul\":580:699   */\n    tag_84:\n        /* \"#utility.yul\":738:739   */\n      0x00\n        /* \"#utility.yul\":763:816   */\n      tag_86\n        /* \"#utility.yul\":808:815   */\n      dup6\n        /* \"#utility.yul\":799:805   */\n      dup3\n        /* \"#utility.yul\":788:797   */\n      dup7\n        /* \"#utility.yul\":784:806   */\n      add\n        /* \"#utility.yul\":763:816   */\n      tag_74\n      jump\t// in\n    tag_86:\n        /* \"#utility.yul\":753:816   */\n      swap3\n      pop\n        /* \"#utility.yul\":709:826   */\n      pop\n        /* \"#utility.yul\":865:867   */\n      0x20\n        /* \"#utility.yul\":891:944   */\n      tag_87\n        /* \"#utility.yul\":936:943   */\n      dup6\n        /* \"#utility.yul\":927:933   */\n      dup3\n        /* \"#utility.yul\":916:925   */\n      dup7\n        /* \"#utility.yul\":912:934   */\n      add\n        /* \"#utility.yul\":891:944   */\n      tag_74\n      jump\t// in\n    tag_87:\n        /* \"#utility.yul\":881:944   */\n      swap2\n      pop\n        /* \"#utility.yul\":836:954   */\n      pop\n        /* \"#utility.yul\":487:961   */\n      swap3\n      pop\n      swap3\n      swap1\n      pop\n      jump\t// out\n        /* \"#utility.yul\":967:1732   */\n    tag_29:\n        /* \"#utility.yul\":1053:1059   */\n      0x00\n        /* \"#utility.yul\":1061:1067   */\n      dup1\n        /* \"#utility.yul\":1069:1075   */\n      0x00\n        /* \"#utility.yul\":1077:1083   */\n      dup1\n        /* \"#utility.yul\":1126:1129   */\n      0x80\n        /* \"#utility.yul\":1114:1123   */\n      dup6\n        /* \"#utility.yul\":1105:1112   */\n      dup8\n        /* \"#utility.yul\":1101:1124   */\n      sub\n        /* \"#utility.yul\":1097:1130   */\n      slt\n        /* \"#utility.yul\":1094:1214   */\n      iszero\n      tag_89\n      jumpi\n        /* \"#utility.yul\":1133:1212   */\n      tag_90\n      tag_81\n      jump\t// in\n    tag_90:\n        /* \"#utility.yul\":1094:1214   */\n    tag_89:\n        /* \"#utility.yul\":1253:1254   */\n      0x00\n        /* \"#utility.yul\":1278:1331   */\n      tag_91\n        /* \"#utility.yul\":1323:1330   */\n      dup8\n        /* \"#utility.yul\":1314:1320   */\n      dup3\n        /* \"#utility.yul\":1303:1312   */\n      dup9\n        /* \"#utility.yul\":1299:1321   */\n      add\n        /* \"#utility.yul\":1278:1331   */\n      tag_74\n      jump\t// in\n    tag_91:\n        /* \"#utility.yul\":1268:1331   */\n      swap5\n      pop\n        /* \"#utility.yul\":1224:1341   */\n      pop\n        /* \"#utility.yul\":1380:1382   */\n      0x20\n        /* \"#utility.yul\":1406:1459   */\n      tag_92\n        /* \"#utility.yul\":1451:1458   */\n      dup8\n        /* \"#utility.yul\":1442:1448   */\n      dup3\n        /* \"#utility.yul\":1431:1440   */\n      dup9\n        /* \"#utility.yul\":1427:1449   */\n      add\n        /* \"#utility.yul\":1406:1459   */\n      tag_74\n      jump\t// in\n    tag_92:\n        /* \"#utility.yul\":1396:1459   */\n      swap4\n      pop\n        /* \"#utility.yul\":1351:1469   */\n      pop\n        /* \"#utility.yul\":1508:1510   */\n      0x40\n        /* \"#utility.yul\":1534:1587   */\n      tag_93\n        /* \"#utility.yul\":1579:1586   */\n      dup8\n        /* \"#utility.yul\":1570:1576   */\n      dup3\n        /* \"#utility.yul\":1559:1568   */\n      dup9\n        /* \"#utility.yul\":1555:1577   */\n      add\n        /* \"#utility.yul\":1534:1587   */\n      tag_74\n      jump\t// in\n    tag_93:\n        /* \"#utility.yul\":1524:1587   */\n      swap3\n      pop\n        /* \"#utility.yul\":1479:1597   */\n      pop\n        /* \"#utility.yul\":1636:1638   */\n      0x60\n        /* \"#utility.yul\":1662:1715   */\n      tag_94\n        /* \"#utility.yul\":1707:1714   */\n      dup8\n        /* \"#utility.yul\":1698:1704   */\n      dup3\n        /* \"#utility.yul\":1687:1696   */\n      dup9\n        /* \"#utility.yul\":1683:1705   */\n      add\n        /* \"#utility.yul\":1662:1715   */\n      tag_74\n      jump\t// in\n    tag_94:\n        /* \"#utility.yul\":1652:1715   */\n      swap2\n      pop\n        /* \"#utility.yul\":1607:1725   */\n      pop\n        /* \"#utility.yul\":967:1732   */\n      swap3\n      swap6\n      swap2\n      swap5\n      pop\n      swap3\n      pop\n      jump\t// out\n        /* \"#utility.yul\":1738:2102   */\n    tag_95:\n        /* \"#utility.yul\":1826:1829   */\n      0x00\n        /* \"#utility.yul\":1854:1893   */\n      tag_97\n        /* \"#utility.yul\":1887:1892   */\n      dup3\n        /* \"#utility.yul\":1854:1893   */\n      tag_98\n      jump\t// in\n    tag_97:\n        /* \"#utility.yul\":1909:1980   */\n      tag_99\n        /* \"#utility.yul\":1973:1979   */\n      dup2\n        /* \"#utility.yul\":1968:1971   */\n      dup6\n        /* \"#utility.yul\":1909:1980   */\n      tag_100\n      jump\t// in\n    tag_99:\n        /* \"#utility.yul\":1902:1980   */\n      swap4\n      pop\n        /* \"#utility.yul\":1989:2041   */\n      tag_101\n        /* \"#utility.yul\":2034:2040   */\n      dup2\n        /* \"#utility.yul\":2029:2032   */\n      dup6\n        /* \"#utility.yul\":2022:2026   */\n      0x20\n        /* \"#utility.yul\":2015:2020   */\n      dup7\n        /* \"#utility.yul\":2011:2027   */\n      add\n        /* \"#utility.yul\":1989:2041   */\n      tag_102\n      jump\t// in\n    tag_101:\n        /* \"#utility.yul\":2066:2095   */\n      tag_103\n        /* \"#utility.yul\":2088:2094   */\n      dup2\n        /* \"#utility.yul\":2066:2095   */\n      tag_104\n      jump\t// in\n    tag_103:\n        /* \"#utility.yul\":2061:2064   */\n      dup5\n        /* \"#utility.yul\":2057:2096   */\n      add\n        /* \"#utility.yul\":2050:2096   */\n      swap2\n      pop\n        /* \"#utility.yul\":1830:2102   */\n      pop\n        /* \"#utility.yul\":1738:2102   */\n      swap3\n      swap2\n      pop\n      pop\n      jump\t// out\n        /* \"#utility.yul\":2108:2226   */\n    tag_105:\n        /* \"#utility.yul\":2195:2219   */\n      tag_107\n        /* \"#utility.yul\":2213:2218   */\n      dup2\n        /* \"#utility.yul\":2195:2219   */\n      tag_108\n      jump\t// in\n    tag_107:\n        /* \"#utility.yul\":2190:2193   */\n      dup3\n        /* \"#utility.yul\":2183:2220   */\n      mstore\n        /* \"#utility.yul\":2108:2226   */\n      pop\n      pop\n      jump\t// out\n        /* \"#utility.yul\":2232:2545   */\n    tag_14:\n        /* \"#utility.yul\":2345:2349   */\n      0x00\n        /* \"#utility.yul\":2383:2385   */\n      0x20\n        /* \"#utility.yul\":2372:2381   */\n      dup3\n        /* \"#utility.yul\":2368:2386   */\n      add\n        /* \"#utility.yul\":2360:2386   */\n      swap1\n      pop\n        /* \"#utility.yul\":2432:2441   */\n      dup2\n        /* \"#utility.yul\":2426:2430   */\n      dup2\n        /* \"#utility.yul\":2422:2442   */\n      sub\n        /* \"#utility.yul\":2418:2419   */\n      0x00\n        /* \"#utility.yul\":2407:2416   */\n      dup4\n        /* \"#utility.yul\":2403:2420   */\n      add\n        /* \"#utility.yul\":2396:2443   */\n      mstore\n        /* \"#utility.yul\":2460:2538   */\n      tag_110\n        /* \"#utility.yul\":2533:2537   */\n      dup2\n        /* \"#utility.yul\":2524:2530   */\n      dup5\n        /* \"#utility.yul\":2460:2538   */\n      tag_95\n      jump\t// in\n    tag_110:\n        /* \"#utility.yul\":2452:2538   */\n      swap1\n      pop\n        /* \"#utility.yul\":2232:2545   */\n      swap3\n      swap2\n      pop\n      pop\n      jump\t// out\n        /* \"#utility.yul\":2551:3175   */\n    tag_26:\n        /* \"#utility.yul\":2740:2744   */\n      0x00\n        /* \"#utility.yul\":2778:2780   */\n      0x60\n        /* \"#utility.yul\":2767:2776   */\n      dup3\n        /* \"#utility.yul\":2763:2781   */\n      add\n        /* \"#utility.yul\":2755:2781   */\n      swap1\n      pop\n        /* \"#utility.yul\":2827:2836   */\n      dup2\n        /* \"#utility.yul\":2821:2825   */\n      dup2\n        /* \"#utility.yul\":2817:2837   */\n      sub\n        /* \"#utility.yul\":2813:2814   */\n      0x00\n        /* \"#utility.yul\":2802:2811   */\n      dup4\n        /* \"#utility.yul\":2798:2815   */\n      add\n        /* \"#utility.yul\":2791:2838   */\n      mstore\n        /* \"#utility.yul\":2855:2933   */\n      tag_112\n        /* \"#utility.yul\":2928:2932   */\n      dup2\n        /* \"#utility.yul\":2919:2925   */\n      dup7\n        /* \"#utility.yul\":2855:2933   */\n      tag_95\n      jump\t// in\n    tag_112:\n        /* \"#utility.yul\":2847:2933   */\n      swap1\n      pop\n        /* \"#utility.yul\":2980:2989   */\n      dup2\n        /* \"#utility.yul\":2974:2978   */\n      dup2\n        /* \"#utility.yul\":2970:2990   */\n      sub\n        /* \"#utility.yul\":2965:2967   */\n      0x20\n        /* \"#utility.yul\":2954:2963   */\n      dup4\n        /* \"#utility.yul\":2950:2968   */\n      add\n        /* \"#utility.yul\":2943:2991   */\n      mstore\n        /* \"#utility.yul\":3008:3086   */\n      tag_113\n        /* \"#utility.yul\":3081:3085   */\n      dup2\n        /* \"#utility.yul\":3072:3078   */\n      dup6\n        /* \"#utility.yul\":3008:3086   */\n      tag_95\n      jump\t// in\n    tag_113:\n        /* \"#utility.yul\":3000:3086   */\n      swap1\n      pop\n        /* \"#utility.yul\":3096:3168   */\n      tag_114\n        /* \"#utility.yul\":3164:3166   */\n      0x40\n        /* \"#utility.yul\":3153:3162   */\n      dup4\n        /* \"#utility.yul\":3149:3167   */\n      add\n        /* \"#utility.yul\":3140:3146   */\n      dup5\n        /* \"#utility.yul\":3096:3168   */\n      tag_105\n      jump\t// in\n    tag_114:\n        /* \"#utility.yul\":2551:3175   */\n      swap5\n      swap4\n      pop\n      pop\n      pop\n      pop\n      jump\t// out\n        /* \"#utility.yul\":3181:3403   */\n    tag_22:\n        /* \"#utility.yul\":3274:3278   */\n      0x00\n        /* \"#utility.yul\":3312:3314   */\n      0x20\n        /* \"#utility.yul\":3301:3310   */\n      dup3\n        /* \"#utility.yul\":3297:3315   */\n      add\n        /* \"#utility.yul\":3289:3315   */\n      swap1\n      pop\n        /* \"#utility.yul\":3325:3396   */\n      tag_116\n        /* \"#utility.yul\":3393:3394   */\n      0x00\n        /* \"#utility.yul\":3382:3391   */\n      dup4\n        /* \"#utility.yul\":3378:3395   */\n      add\n        /* \"#utility.yul\":3369:3375   */\n      dup5\n        /* \"#utility.yul\":3325:3396   */\n      tag_105\n      jump\t// in\n    tag_116:\n        /* \"#utility.yul\":3181:3403   */\n      swap3\n      swap2\n      pop\n      pop\n      jump\t// out\n        /* \"#utility.yul\":3490:3589   */\n    tag_98:\n        /* \"#utility.yul\":3542:3548   */\n      0x00\n        /* \"#utility.yul\":3576:3581   */\n      dup2\n        /* \"#utility.yul\":3570:3582   */\n      mload\n        /* \"#utility.yul\":3560:3582   */\n      swap1\n      pop\n        /* \"#utility.yul\":3490:3589   */\n      swap2\n      swap1\n      pop\n      jump\t// out\n        /* \"#utility.yul\":3595:3764   */\n    tag_100:\n        /* \"#utility.yul\":3679:3690   */\n      0x00\n        /* \"#utility.yul\":3713:3719   */\n      dup3\n        /* \"#utility.yul\":3708:3711   */\n      dup3\n        /* \"#utility.yul\":3701:3720   */\n      mstore\n        /* \"#utility.yul\":3753:3757   */\n      0x20\n        /* \"#utility.yul\":3748:3751   */\n      dup3\n        /* \"#utility.yul\":3744:3758   */\n      add\n        /* \"#utility.yul\":3729:3758   */\n      swap1\n      pop\n        /* \"#utility.yul\":3595:3764   */\n      swap3\n      swap2\n      pop\n      pop\n      jump\t// out\n        /* \"#utility.yul\":3770:3847   */\n    tag_108:\n        /* \"#utility.yul\":3807:3814   */\n      0x00\n        /* \"#utility.yul\":3836:3841   */\n      dup2\n        /* \"#utility.yul\":3825:3841   */\n      swap1\n      pop\n        /* \"#utility.yul\":3770:3847   */\n      swap2\n      swap1\n      pop\n      jump\t// out\n        /* \"#utility.yul\":3853:4160   */\n    tag_102:\n        /* \"#utility.yul\":3921:3922   */\n      0x00\n        /* \"#utility.yul\":3931:4044   */\n    tag_123:\n        /* \"#utility.yul\":3945:3951   */\n      dup4\n        /* \"#utility.yul\":3942:3943   */\n      dup2\n        /* \"#utility.yul\":3939:3952   */\n      lt\n        /* \"#utility.yul\":3931:4044   */\n      iszero\n      tag_125\n      jumpi\n        /* \"#utility.yul\":4030:4031   */\n      dup1\n        /* \"#utility.yul\":4025:4028   */\n      dup3\n        /* \"#utility.yul\":4021:4032   */\n      add\n        /* \"#utility.yul\":4015:4033   */\n      mload\n        /* \"#utility.yul\":4011:4012   */\n      dup2\n        /* \"#utility.yul\":4006:4009   */\n      dup5\n        /* \"#utility.yul\":4002:4013   */\n      add\n        /* \"#utility.yul\":3995:4034   */\n      mstore\n        /* \"#utility.yul\":3967:3969   */\n      0x20\n        /* \"#utility.yul\":3964:3965   */\n      dup2\n        /* \"#utility.yul\":3960:3970   */\n      add\n        /* \"#utility.yul\":3955:3970   */\n      swap1\n      pop\n        /* \"#utility.yul\":3931:4044   */\n      jump(tag_123)\n    tag_125:\n        /* \"#utility.yul\":4062:4068   */\n      dup4\n        /* \"#utility.yul\":4059:4060   */\n      dup2\n        /* \"#utility.yul\":4056:4069   */\n      gt\n        /* \"#utility.yul\":4053:4154   */\n      iszero\n      tag_126\n      jumpi\n        /* \"#utility.yul\":4142:4143   */\n      0x00\n        /* \"#utility.yul\":4133:4139   */\n      dup5\n        /* \"#utility.yul\":4128:4131   */\n      dup5\n        /* \"#utility.yul\":4124:4140   */\n      add\n        /* \"#utility.yul\":4117:4144   */\n      mstore\n        /* \"#utility.yul\":4053:4154   */\n    tag_126:\n        /* \"#utility.yul\":3902:4160   */\n      pop\n        /* \"#utility.yul\":3853:4160   */\n      pop\n      pop\n      pop\n      jump\t// out\n        /* \"#utility.yul\":4166:4486   */\n    tag_41:\n        /* \"#utility.yul\":4210:4216   */\n      0x00\n        /* \"#utility.yul\":4247:4248   */\n      0x02\n        /* \"#utility.yul\":4241:4245   */\n      dup3\n        /* \"#utility.yul\":4237:4249   */\n      div\n        /* \"#utility.yul\":4227:4249   */\n      swap1\n      pop\n        /* \"#utility.yul\":4294:4295   */\n      0x01\n        /* \"#utility.yul\":4288:4292   */\n      dup3\n        /* \"#utility.yul\":4284:4296   */\n      and\n        /* \"#utility.yul\":4315:4333   */\n      dup1\n        /* \"#utility.yul\":4305:4386   */\n      tag_128\n      jumpi\n        /* \"#utility.yul\":4371:4375   */\n      0x7f\n        /* \"#utility.yul\":4363:4369   */\n      dup3\n        /* \"#utility.yul\":4359:4376   */\n      and\n        /* \"#utility.yul\":4349:4376   */\n      swap2\n      pop\n        /* \"#utility.yul\":4305:4386   */\n    tag_128:\n        /* \"#utility.yul\":4433:4435   */\n      0x20\n        /* \"#utility.yul\":4425:4431   */\n      dup3\n        /* \"#utility.yul\":4422:4436   */\n      lt\n        /* \"#utility.yul\":4402:4420   */\n      dup2\n        /* \"#utility.yul\":4399:4437   */\n      eq\n        /* \"#utility.yul\":4396:4480   */\n      iszero\n      tag_129\n      jumpi\n        /* \"#utility.yul\":4452:4470   */\n      tag_130\n      tag_131\n      jump\t// in\n    tag_130:\n        /* \"#utility.yul\":4396:4480   */\n    tag_129:\n        /* \"#utility.yul\":4217:4486   */\n      pop\n        /* \"#utility.yul\":4166:4486   */\n      swap2\n      swap1\n      pop\n      jump\t// out\n        /* \"#utility.yul\":4492:4672   */\n    tag_131:\n        /* \"#utility.yul\":4540:4617   */\n      0x4e487b7100000000000000000000000000000000000000000000000000000000\n        /* \"#utility.yul\":4537:4538   */\n      0x00\n        /* \"#utility.yul\":4530:4618   */\n      mstore\n        /* \"#utility.yul\":4637:4641   */\n      0x22\n        /* \"#utility.yul\":4634:4635   */\n      0x04\n        /* \"#utility.yul\":4627:4642   */\n      mstore\n        /* \"#utility.yul\":4661:4665   */\n      0x24\n        /* \"#utility.yul\":4658:4659   */\n      0x00\n        /* \"#utility.yul\":4651:4666   */\n      revert\n        /* \"#utility.yul\":4678:4858   */\n    tag_49:\n        /* \"#utility.yul\":4726:4803   */\n      0x4e487b7100000000000000000000000000000000000000000000000000000000\n        /* \"#utility.yul\":4723:4724   */\n      0x00\n        /* \"#utility.yul\":4716:4804   */\n      mstore\n        /* \"#utility.yul\":4823:4827   */\n      0x32\n        /* \"#utility.yul\":4820:4821   */\n      0x04\n        /* \"#utility.yul\":4813:4828   */\n      mstore\n        /* \"#utility.yul\":4847:4851   */\n      0x24\n        /* \"#utility.yul\":4844:4845   */\n      0x00\n        /* \"#utility.yul\":4837:4852   */\n      revert\n        /* \"#utility.yul\":4987:5104   */\n    tag_81:\n        /* \"#utility.yul\":5096:5097   */\n      0x00\n        /* \"#utility.yul\":5093:5094   */\n      dup1\n        /* \"#utility.yul\":5086:5098   */\n      revert\n        /* \"#utility.yul\":5110:5212   */\n    tag_104:\n        /* \"#utility.yul\":5151:5157   */\n      0x00\n        /* \"#utility.yul\":5202:5204   */\n      0x1f\n        /* \"#utility.yul\":5198:5205   */\n      not\n        /* \"#utility.yul\":5193:5195   */\n      0x1f\n        /* \"#utility.yul\":5186:5191   */\n      dup4\n        /* \"#utility.yul\":5182:5196   */\n      add\n        /* \"#utility.yul\":5178:5206   */\n      and\n        /* \"#utility.yul\":5168:5206   */\n      swap1\n      pop\n        /* \"#utility.yul\":5110:5212   */\n      swap2\n      swap1\n      pop\n      jump\t// out\n        /* \"#utility.yul\":5218:5340   */\n    tag_77:\n        /* \"#utility.yul\":5291:5315   */\n      tag_139\n        /* \"#utility.yul\":5309:5314   */\n      dup2\n        /* \"#utility.yul\":5291:5315   */\n      tag_108\n      jump\t// in\n    tag_139:\n        /* \"#utility.yul\":5284:5289   */\n      dup2\n        /* \"#utility.yul\":5281:5316   */\n      eq\n        /* \"#utility.yul\":5271:5334   */\n      tag_140\n      jumpi\n        /* \"#utility.yul\":5330:5331   */\n      0x00\n        /* \"#utility.yul\":5327:5328   */\n      dup1\n        /* \"#utility.yul\":5320:5332   */\n      revert\n        /* \"#utility.yul\":5271:5334   */\n    tag_140:\n        /* \"#utility.yul\":5218:5340   */\n      pop\n      jump\t// out\n\n    auxdata: 0xa2646970667358221220f16bdd01b3eb887c8e3c64dfb2bba544259f90d5ad8cc320ddab95d6022cbdb164736f6c63430008070033\n}\n",
				"bytecode": {
					"linkReferences": {},
					"object": "60806040523480156200001157600080fd5b5060405162000b1638038062000b168339818101604052810190620000379190620001a4565b81600090805190602001906200004f9291906200005f565b50806001819055505050620003b2565b8280546200006d90620002a9565b90600052602060002090601f016020900481019282620000915760008555620000dd565b82601f10620000ac57805160ff1916838001178555620000dd565b82800160010185558215620000dd579182015b82811115620000dc578251825591602001919060010190620000bf565b5b509050620000ec9190620000f0565b5090565b5b808211156200010b576000816000905550600101620000f1565b5090565b600062000126620001208462000233565b6200020a565b90508281526020810184848401111562000145576200014462000378565b5b6200015284828562000273565b509392505050565b600082601f83011262000172576200017162000373565b5b8151620001848482602086016200010f565b91505092915050565b6000815190506200019e8162000398565b92915050565b60008060408385031215620001be57620001bd62000382565b5b600083015167ffffffffffffffff811115620001df57620001de6200037d565b5b620001ed858286016200015a565b925050602062000200858286016200018d565b9150509250929050565b60006200021662000229565b9050620002248282620002df565b919050565b6000604051905090565b600067ffffffffffffffff82111562000251576200025062000344565b5b6200025c8262000387565b9050602081019050919050565b6000819050919050565b60005b838110156200029357808201518184015260208101905062000276565b83811115620002a3576000848401525b50505050565b60006002820490506001821680620002c257607f821691505b60208210811415620002d957620002d862000315565b5b50919050565b620002ea8262000387565b810181811067ffffffffffffffff821117156200030c576200030b62000344565b5b80604052505050565b7f4e487b7100000000000000000000000000000000000000000000000000000000600052602260045260246000fd5b7f4e487b7100000000000000000000000000000000000000000000000000000000600052604160045260246000fd5b600080fd5b600080fd5b600080fd5b600080fd5b6000601f19601f8301169050919050565b620003a38162000269565b8114620003af57600080fd5b50565b61075480620003c26000396000f3fe608060405234801561001057600080fd5b506004361061007d5760003560e01c8063465fe0ee1161005b578063465fe0ee146100da5780636d35e346146100fa578063d653f30714610116578063e780faa3146101465761007d565b806306fdde0314610082578063204653d3146100a0578063262a9dff146100bc575b600080fd5b61008a610176565b6040516100979190610586565b60405180910390f35b6100ba60048036038101906100b59190610497565b610204565b005b6100c461023e565b6040516100d191906105ed565b60405180910390f35b6100e2610244565b6040516100f1939291906105a8565b60405180910390f35b610114600480360381019061010f91906104d7565b61036c565b005b610130600480360381019061012b919061046a565b610416565b60405161013d91906105ed565b60405180910390f35b610160600480360381019061015b919061046a565b61043a565b60405161016d91906105ed565b60405180910390f35b6000805461018390610661565b80601f01602080910402602001604051908101604052809291908181526020018280546101af90610661565b80156101fc5780601f106101d1576101008083540402835291602001916101fc565b820191906000526020600020905b8154815290600101906020018083116101df57829003601f168201915b505050505081565b81600260006002811061021a576102196106c2565b5b0181905550806002600160028110610235576102346106c2565b5b01819055505050565b60015481565b600580600001805461025590610661565b80601f016020809104026020016040519081016040528092919081815260200182805461028190610661565b80156102ce5780601f106102a3576101008083540402835291602001916102ce565b820191906000526020600020905b8154815290600101906020018083116102b157829003601f168201915b5050505050908060010180546102e390610661565b80601f016020809104026020016040519081016040528092919081815260200182805461030f90610661565b801561035c5780601f106103315761010080835404028352916020019161035c565b820191906000526020600020905b81548152906001019060200180831161033f57829003601f168201915b5050505050908060020154905083565b600484908060018154018082558091505060019003906000526020600020016000909190919091505560048390806001815401808255809150506001900390600052602060002001600090919091909150556004829080600181540180825580915050600190039060005260206000200160009091909190915055600481908060018154018082558091505060019003906000526020600020016000909190919091505550505050565b6004818154811061042657600080fd5b906000526020600020016000915090505481565b6002816002811061044a57600080fd5b016000915090505481565b60008135905061046481610707565b92915050565b6000602082840312156104805761047f6106f1565b5b600061048e84828501610455565b91505092915050565b600080604083850312156104ae576104ad6106f1565b5b60006104bc85828601610455565b92505060206104cd85828601610455565b9150509250929050565b600080600080608085870312156104f1576104f06106f1565b5b60006104ff87828801610455565b945050602061051087828801610455565b935050604061052187828801610455565b925050606061053287828801610455565b91505092959194509250565b600061054982610608565b6105538185610613565b935061056381856020860161062e565b61056c816106f6565b840191505092915050565b61058081610624565b82525050565b600060208201905081810360008301526105a0818461053e565b905092915050565b600060608201905081810360008301526105c2818661053e565b905081810360208301526105d6818561053e565b90506105e56040830184610577565b949350505050565b60006020820190506106026000830184610577565b92915050565b600081519050919050565b600082825260208201905092915050565b6000819050919050565b60005b8381101561064c578082015181840152602081019050610631565b8381111561065b576000848401525b50505050565b6000600282049050600182168061067957607f821691505b6020821081141561068d5761068c610693565b5b50919050565b7f4e487b7100000000000000000000000000000000000000000000000000000000600052602260045260246000fd5b7f4e487b7100000000000000000000000000000000000000000000000000000000600052603260045260246000fd5b600080fd5b6000601f19601f8301169050919050565b61071081610624565b811461071b57600080fd5b5056fea2646970667358221220f16bdd01b3eb887c8e3c64dfb2bba544259f90d5ad8cc320ddab95d6022cbdb164736f6c63430008070033",
					"opcodes": "PUSH1 0x80 PUSH1 0x40 MSTORE CALLVALUE DUP1 ISZERO PUSH3 0x11 JUMPI PUSH1 0x0 DUP1 REVERT JUMPDEST POP PUSH1 0x40 MLOAD PUSH3 0xB16 CODESIZE SUB DUP1 PUSH3 0xB16 DUP4 CODECOPY DUP2 DUP2 ADD PUSH1 0x40 MSTORE DUP2 ADD SWAP1 PUSH3 0x37 SWAP2 SWAP1 PUSH3 0x1A4 JUMP JUMPDEST DUP2 PUSH1 0x0 SWAP1 DUP1 MLOAD SWAP1 PUSH1 0x20 ADD SWAP1 PUSH3 0x4F SWAP3 SWAP2 SWAP1 PUSH3 0x5F JUMP JUMPDEST POP DUP1 PUSH1 0x1 DUP2 SWAP1 SSTORE POP POP POP PUSH3 0x3B2 JUMP JUMPDEST DUP3 DUP1 SLOAD PUSH3 0x6D SWAP1 PUSH3 0x2A9 JUMP JUMPDEST SWAP1 PUSH1 0x0 MSTORE PUSH1 0x20 PUSH1 0x0 KECCAK256 SWAP1 PUSH1 0x1F ADD PUSH1 0x20 SWAP1 DIV DUP2 ADD SWAP3 DUP3 PUSH3 0x91 JUMPI PUSH1 0x0 DUP6 SSTORE PUSH3 0xDD JUMP JUMPDEST DUP3 PUSH1 0x1F LT PUSH3 0xAC JUMPI DUP1 MLOAD PUSH1 0xFF NOT AND DUP4 DUP1 ADD OR DUP6 SSTORE PUSH3 0xDD JUMP JUMPDEST DUP3 DUP1 ADD PUSH1 0x1 ADD DUP6 SSTORE DUP3 ISZERO PUSH3 0xDD JUMPI SWAP2 DUP3 ADD JUMPDEST DUP3 DUP2 GT ISZERO PUSH3 0xDC JUMPI DUP3 MLOAD DUP3 SSTORE SWAP2 PUSH1 0x20 ADD SWAP2 SWAP1 PUSH1 0x1 ADD SWAP1 PUSH3 0xBF JUMP JUMPDEST JUMPDEST POP SWAP1 POP PUSH3 0xEC SWAP2 SWAP1 PUSH3 0xF0 JUMP JUMPDEST POP SWAP1 JUMP JUMPDEST JUMPDEST DUP1 DUP3 GT ISZERO PUSH3 0x10B JUMPI PUSH1 0x0 DUP2 PUSH1 0x0 SWAP1 SSTORE POP PUSH1 0x1 ADD PUSH3 0xF1 JUMP JUMPDEST POP SWAP1 JUMP JUMPDEST PUSH1 0x0 PUSH3 0x126 PUSH3 0x120 DUP5 PUSH3 0x233 JUMP JUMPDEST PUSH3 0x20A JUMP JUMPDEST SWAP1 POP DUP3 DUP2 MSTORE PUSH1 0x20 DUP2 ADD DUP5 DUP5 DUP5 ADD GT ISZERO PUSH3 0x145 JUMPI PUSH3 0x144 PUSH3 0x378 JUMP JUMPDEST JUMPDEST PUSH3 0x152 DUP5 DUP3 DUP6 PUSH3 0x273 JUMP JUMPDEST POP SWAP4 SWAP3 POP POP POP JUMP JUMPDEST PUSH1 0x0 DUP3 PUSH1 0x1F DUP4 ADD SLT PUSH3 0x172 JUMPI PUSH3 0x171 PUSH3 0x373 JUMP JUMPDEST JUMPDEST DUP2 MLOAD PUSH3 0x184 DUP5 DUP3 PUSH1 0x20 DUP7 ADD PUSH3 0x10F JUMP JUMPDEST SWAP2 POP POP SWAP3 SWAP2 POP POP JUMP JUMPDEST PUSH1 0x0 DUP2 MLOAD SWAP1 POP PUSH3 0x19E DUP2 PUSH3 0x398 JUMP JUMPDEST SWAP3 SWAP2 POP POP JUMP JUMPDEST PUSH1 0x0 DUP1 PUSH1 0x40 DUP4 DUP6 SUB SLT ISZERO PUSH3 0x1BE JUMPI PUSH3 0x1BD PUSH3 0x382 JUMP JUMPDEST JUMPDEST PUSH1 0x0 DUP4 ADD MLOAD PUSH8 0xFFFFFFFFFFFFFFFF DUP2 GT ISZERO PUSH3 0x1DF JUMPI PUSH3 0x1DE PUSH3 0x37D JUMP JUMPDEST JUMPDEST PUSH3 0x1ED DUP6 DUP3 DUP7 ADD PUSH3 0x15A JUMP JUMPDEST SWAP3 POP POP PUSH1 0x20 PUSH3 0x200 DUP6 DUP3 DUP7 ADD PUSH3 0x18D JUMP JUMPDEST SWAP2 POP POP SWAP3 POP SWAP3 SWAP1 POP JUMP JUMPDEST PUSH1 0x0 PUSH3 0x216 PUSH3 0x229 JUMP JUMPDEST SWAP1 POP PUSH3 0x224 DUP3 DUP3 PUSH3 0x2DF JUMP JUMPDEST SWAP2 SWAP1 POP JUMP JUMPDEST PUSH1 0x0 PUSH1 0x40 MLOAD SWAP1 POP SWAP1 JUMP JUMPDEST PUSH1 0x0 PUSH8 0xFFFFFFFFFFFFFFFF DUP3 GT ISZERO PUSH3 0x251 JUMPI PUSH3 0x250 PUSH3 0x344 JUMP JUMPDEST JUMPDEST PUSH3 0x25C DUP3 PUSH3 0x387 JUMP JUMPDEST SWAP1 POP PUSH1 0x20 DUP2 ADD SWAP1 POP SWAP2 SWAP1 POP JUMP JUMPDEST PUSH1 0x0 DUP2 SWAP1 POP SWAP2 SWAP1 POP JUMP JUMPDEST PUSH1 0x0 JUMPDEST DUP4 DUP2 LT ISZERO PUSH3 0x293 JUMPI DUP1 DUP3 ADD MLOAD DUP2 DUP5 ADD MSTORE PUSH1 0x20 DUP2 ADD SWAP1 POP PUSH3 0x276 JUMP JUMPDEST DUP4 DUP2 GT ISZERO PUSH3 0x2A3 JUMPI PUSH1 0x0 DUP5 DUP5 ADD MSTORE JUMPDEST POP POP POP POP JUMP JUMPDEST PUSH1 0x0 PUSH1 0x2 DUP3 DIV SWAP1 POP PUSH1 0x1 DUP3 AND DUP1 PUSH3 0x2C2 JUMPI PUSH1 0x7F DUP3 AND SWAP2 POP JUMPDEST PUSH1 0x20 DUP3 LT DUP2 EQ ISZERO PUSH3 0x2D9 JUMPI PUSH3 0x2D8 PUSH3 0x315 JUMP JUMPDEST JUMPDEST POP SWAP2 SWAP1 POP JUMP JUMPDEST PUSH3 0x2EA DUP3 PUSH3 0x387 JUMP JUMPDEST DUP2 ADD DUP2 DUP2 LT PUSH8 0xFFFFFFFFFFFFFFFF DUP3 GT OR ISZERO PUSH3 0x30C JUMPI PUSH3 0x30B PUSH3 0x344 JUMP JUMPDEST JUMPDEST DUP1 PUSH1 0x40 MSTORE POP POP POP JUMP JUMPDEST PUSH32 0x4E487B7100000000000000000000000000000000000000000000000000000000 PUSH1 0x0 MSTORE PUSH1 0x22 PUSH1 0x4 MSTORE PUSH1 0x24 PUSH1 0x0 REVERT JUMPDEST PUSH32 0x4E487B7100000000000000000000000000000000000000000000000000000000 PUSH1 0x0 MSTORE PUSH1 0x41 PUSH1 0x4 MSTORE PUSH1 0x24 PUSH1 0x0 REVERT JUMPDEST PUSH1 0x0 DUP1 REVERT JUMPDEST PUSH1 0x0 DUP1 REVERT JUMPDEST PUSH1 0x0 DUP1 REVERT JUMPDEST PUSH1 0x0 DUP1 REVERT JUMPDEST PUSH1 0x0 PUSH1 0x1F NOT PUSH1 0x1F DUP4 ADD AND SWAP1 POP SWAP2 SWAP1 POP JUMP JUMPDEST PUSH3 0x3A3 DUP2 PUSH3 0x269 JUMP JUMPDEST DUP2 EQ PUSH3 0x3AF JUMPI PUSH1 0x0 DUP1 REVERT JUMPDEST POP JUMP JUMPDEST PUSH2 0x754 DUP1 PUSH3 0x3C2 PUSH1 0x0 CODECOPY PUSH1 0x0 RETURN INVALID PUSH1 0x80 PUSH1 0x40 MSTORE CALLVALUE DUP1 ISZERO PUSH2 0x10 JUMPI PUSH1 0x0 DUP1 REVERT JUMPDEST POP PUSH1 0x4 CALLDATASIZE LT PUSH2 0x7D JUMPI PUSH1 0x0 CALLDATALOAD PUSH1 0xE0 SHR DUP1 PUSH4 0x465FE0EE GT PUSH2 0x5B JUMPI DUP1 PUSH4 0x465FE0EE EQ PUSH2 0xDA JUMPI DUP1 PUSH4 0x6D35E346 EQ PUSH2 0xFA JUMPI DUP1 PUSH4 0xD653F307 EQ PUSH2 0x116 JUMPI DUP1 PUSH4 0xE780FAA3 EQ PUSH2 0x146 JUMPI PUSH2 0x7D JUMP JUMPDEST DUP1 PUSH4 0x6FDDE03 EQ PUSH2 0x82 JUMPI DUP1 PUSH4 0x204653D3 EQ PUSH2 0xA0 JUMPI DUP1 PUSH4 0x262A9DFF EQ PUSH2 0xBC JUMPI JUMPDEST PUSH1 0x0 DUP1 REVERT JUMPDEST PUSH2 0x8A PUSH2 0x176 JUMP JUMPDEST PUSH1 0x40 MLOAD PUSH2 0x97 SWAP2 SWAP1 PUSH2 0x586 JUMP JUMPDEST PUSH1 0x40 MLOAD DUP1 SWAP2 SUB SWAP1 RETURN JUMPDEST PUSH2 0xBA PUSH1 0x4 DUP1 CALLDATASIZE SUB DUP2 ADD SWAP1 PUSH2 0xB5 SWAP2 SWAP1 PUSH2 0x497 JUMP JUMPDEST PUSH2 0x204 JUMP JUMPDEST STOP JUMPDEST PUSH2 0xC4 PUSH2 0x23E JUMP JUMPDEST PUSH1 0x40 MLOAD PUSH2 0xD1 SWAP2 SWAP1 PUSH2 0x5ED JUMP JUMPDEST PUSH1 0x40 MLOAD DUP1 SWAP2 SUB SWAP1 RETURN JUMPDEST PUSH2 0xE2 PUSH2 0x244 JUMP JUMPDEST PUSH1 0x40 MLOAD PUSH2 0xF1 SWAP4 SWAP3 SWAP2 SWAP1 PUSH2 0x5A8 JUMP JUMPDEST PUSH1 0x40 MLOAD DUP1 SWAP2 SUB SWAP1 RETURN JUMPDEST PUSH2 0x114 PUSH1 0x4 DUP1 CALLDATASIZE SUB DUP2 ADD SWAP1 PUSH2 0x10F SWAP2 SWAP1 PUSH2 0x4D7 JUMP JUMPDEST PUSH2 0x36C JUMP JUMPDEST STOP JUMPDEST PUSH2 0x130 PUSH1 0x4 DUP1 CALLDATASIZE SUB DUP2 ADD SWAP1 PUSH2 0x12B SWAP2 SWAP1 PUSH2 0x46A JUMP JUMPDEST PUSH2 0x416 JUMP JUMPDEST PUSH1 0x40 MLOAD PUSH2 0x13D SWAP2 SWAP1 PUSH2 0x5ED JUMP JUMPDEST PUSH1 0x40 MLOAD DUP1 SWAP2 SUB SWAP1 RETURN JUMPDEST PUSH2 0x160 PUSH1 0x4 DUP1 CALLDATASIZE SUB DUP2 ADD SWAP1 PUSH2 0x15B SWAP2 SWAP1 PUSH2 0x46A JUMP JUMPDEST PUSH2 0x43A JUMP JUMPDEST PUSH1 0x40 MLOAD PUSH2 0x16D SWAP2 SWAP1 PUSH2 0x5ED JUMP JUMPDEST PUSH1 0x40 MLOAD DUP1 SWAP2 SUB SWAP1 RETURN JUMPDEST PUSH1 0x0 DUP1 SLOAD PUSH2 0x183 SWAP1 PUSH2 0x661 JUMP JUMPDEST DUP1 PUSH1 0x1F ADD PUSH1 0x20 DUP1 SWAP2 DIV MUL PUSH1 0x20 ADD PUSH1 0x40 MLOAD SWAP1 DUP2 ADD PUSH1 0x40 MSTORE DUP1 SWAP3 SWAP2 SWAP1 DUP2 DUP2 MSTORE PUSH1 0x20 ADD DUP3 DUP1 SLOAD PUSH2 0x1AF SWAP1 PUSH2 0x661 JUMP JUMPDEST DUP1 ISZERO PUSH2 0x1FC JUMPI DUP1 PUSH1 0x1F LT PUSH2 0x1D1 JUMPI PUSH2 0x100 DUP1 DUP4 SLOAD DIV MUL DUP4 MSTORE SWAP2 PUSH1 0x20 ADD SWAP2 PUSH2 0x1FC JUMP JUMPDEST DUP3 ADD SWAP2 SWAP1 PUSH1 0x0 MSTORE PUSH1 0x20 PUSH1 0x0 KECCAK256 SWAP1 JUMPDEST DUP2 SLOAD DUP2 MSTORE SWAP1 PUSH1 0x1 ADD SWAP1 PUSH1 0x20 ADD DUP1 DUP4 GT PUSH2 0x1DF JUMPI DUP3 SWAP1 SUB PUSH1 0x1F AND DUP3 ADD SWAP2 JUMPDEST POP POP POP POP POP DUP2 JUMP JUMPDEST DUP2 PUSH1 0x2 PUSH1 0x0 PUSH1 0x2 DUP2 LT PUSH2 0x21A JUMPI PUSH2 0x219 PUSH2 0x6C2 JUMP JUMPDEST JUMPDEST ADD DUP2 SWAP1 SSTORE POP DUP1 PUSH1 0x2 PUSH1 0x1 PUSH1 0x2 DUP2 LT PUSH2 0x235 JUMPI PUSH2 0x234 PUSH2 0x6C2 JUMP JUMPDEST JUMPDEST ADD DUP2 SWAP1 SSTORE POP POP POP JUMP JUMPDEST PUSH1 0x1 SLOAD DUP2 JUMP JUMPDEST PUSH1 0x5 DUP1 PUSH1 0x0 ADD DUP1 SLOAD PUSH2 0x255 SWAP1 PUSH2 0x661 JUMP JUMPDEST DUP1 PUSH1 0x1F ADD PUSH1 0x20 DUP1 SWAP2 DIV MUL PUSH1 0x20 ADD PUSH1 0x40 MLOAD SWAP1 DUP2 ADD PUSH1 0x40 MSTORE DUP1 SWAP3 SWAP2 SWAP1 DUP2 DUP2 MSTORE PUSH1 0x20 ADD DUP3 DUP1 SLOAD PUSH2 0x281 SWAP1 PUSH2 0x661 JUMP JUMPDEST DUP1 ISZERO PUSH2 0x2CE JUMPI DUP1 PUSH1 0x1F LT PUSH2 0x2A3 JUMPI PUSH2 0x100 DUP1 DUP4 SLOAD DIV MUL DUP4 MSTORE SWAP2 PUSH1 0x20 ADD SWAP2 PUSH2 0x2CE JUMP JUMPDEST DUP3 ADD SWAP2 SWAP1 PUSH1 0x0 MSTORE PUSH1 0x20 PUSH1 0x0 KECCAK256 SWAP1 JUMPDEST DUP2 SLOAD DUP2 MSTORE SWAP1 PUSH1 0x1 ADD SWAP1 PUSH1 0x20 ADD DUP1 DUP4 GT PUSH2 0x2B1 JUMPI DUP3 SWAP1 SUB PUSH1 0x1F AND DUP3 ADD SWAP2 JUMPDEST POP POP POP POP POP SWAP1 DUP1 PUSH1 0x1 ADD DUP1 SLOAD PUSH2 0x2E3 SWAP1 PUSH2 0x661 JUMP JUMPDEST DUP1 PUSH1 0x1F ADD PUSH1 0x20 DUP1 SWAP2 DIV MUL PUSH1 0x20 ADD PUSH1 0x40 MLOAD SWAP1 DUP2 ADD PUSH1 0x40 MSTORE DUP1 SWAP3 SWAP2 SWAP1 DUP2 DUP2 MSTORE PUSH1 0x20 ADD DUP3 DUP1 SLOAD PUSH2 0x30F SWAP1 PUSH2 0x661 JUMP JUMPDEST DUP1 ISZERO PUSH2 0x35C JUMPI DUP1 PUSH1 0x1F LT PUSH2 0x331 JUMPI PUSH2 0x100 DUP1 DUP4 SLOAD DIV MUL DUP4 MSTORE SWAP2 PUSH1 0x20 ADD SWAP2 PUSH2 0x35C JUMP JUMPDEST DUP3 ADD SWAP2 SWAP1 PUSH1 0x0 MSTORE PUSH1 0x20 PUSH1 0x0 KECCAK256 SWAP1 JUMPDEST DUP2 SLOAD DUP2 MSTORE SWAP1 PUSH1 0x1 ADD SWAP1 PUSH1 0x20 ADD DUP1 DUP4 GT PUSH2 0x33F JUMPI DUP3 SWAP1 SUB PUSH1 0x1F AND DUP3 ADD SWAP2 JUMPDEST POP POP POP POP POP SWAP1 DUP1 PUSH1 0x2 ADD SLOAD SWAP1 POP DUP4 JUMP JUMPDEST PUSH1 0x4 DUP5 SWAP1 DUP1 PUSH1 0x1 DUP2 SLOAD ADD DUP1 DUP3 SSTORE DUP1 SWAP2 POP POP PUSH1 0x1 SWAP1 SUB SWAP1 PUSH1 0x0 MSTORE PUSH1 0x20 PUSH1 0x0 KECCAK256 ADD PUSH1 0x0 SWAP1 SWAP2 SWAP1 SWAP2 SWAP1 SWAP2 POP SSTORE PUSH1 0x4 DUP4 SWAP1 DUP1 PUSH1 0x1 DUP2 SLOAD ADD DUP1 DUP3 SSTORE DUP1 SWAP2 POP POP PUSH1 0x1 SWAP1 SUB SWAP1 PUSH1 0x0 MSTORE PUSH1 0x20 PUSH1 0x0 KECCAK256 ADD PUSH1 0x0 SWAP1 SWAP2 SWAP1 SWAP2 SWAP1 SWAP2 POP SSTORE PUSH1 0x4 DUP3 SWAP1 DUP1 PUSH1 0x1 DUP2 SLOAD ADD DUP1 DUP3 SSTORE DUP1 SWAP2 POP POP PUSH1 0x1 SWAP1 SUB SWAP1 PUSH1 0x0 MSTORE PUSH1 0x20 PUSH1 0x0 KECCAK256 ADD PUSH1 0x0 SWAP1 SWAP2 SWAP1 SWAP2 SWAP1 SWAP2 POP SSTORE PUSH1 0x4 DUP2 SWAP1 DUP1 PUSH1 0x1 DUP2 SLOAD ADD DUP1 DUP3 SSTORE DUP1 SWAP2 POP POP PUSH1 0x1 SWAP1 SUB SWAP1 PUSH1 0x0 MSTORE PUSH1 0x20 PUSH1 0x0 KECCAK256 ADD PUSH1 0x0 SWAP1 SWAP2 SWAP1 SWAP2 SWAP1 SWAP2 POP SSTORE POP POP POP POP JUMP JUMPDEST PUSH1 0x4 DUP2 DUP2 SLOAD DUP2 LT PUSH2 0x426 JUMPI PUSH1 0x0 DUP1 REVERT JUMPDEST SWAP1 PUSH1 0x0 MSTORE PUSH1 0x20 PUSH1 0x0 KECCAK256 ADD PUSH1 0x0 SWAP2 POP SWAP1 POP SLOAD DUP2 JUMP JUMPDEST PUSH1 0x2 DUP2 PUSH1 0x2 DUP2 LT PUSH2 0x44A JUMPI PUSH1 0x0 DUP1 REVERT JUMPDEST ADD PUSH1 0x0 SWAP2 POP SWAP1 POP SLOAD DUP2 JUMP JUMPDEST PUSH1 0x0 DUP2 CALLDATALOAD SWAP1 POP PUSH2 0x464 DUP2 PUSH2 0x707 JUMP JUMPDEST SWAP3 SWAP2 POP POP JUMP JUMPDEST PUSH1 0x0 PUSH1 0x20 DUP3 DUP5 SUB SLT ISZERO PUSH2 0x480 JUMPI PUSH2 0x47F PUSH2 0x6F1 JUMP JUMPDEST JUMPDEST PUSH1 0x0 PUSH2 0x48E DUP5 DUP3 DUP6 ADD PUSH2 0x455 JUMP JUMPDEST SWAP2 POP POP SWAP3 SWAP2 POP POP JUMP JUMPDEST PUSH1 0x0 DUP1 PUSH1 0x40 DUP4 DUP6 SUB SLT ISZERO PUSH2 0x4AE JUMPI PUSH2 0x4AD PUSH2 0x6F1 JUMP JUMPDEST JUMPDEST PUSH1 0x0 PUSH2 0x4BC DUP6 DUP3 DUP7 ADD PUSH2 0x455 JUMP JUMPDEST SWAP3 POP POP PUSH1 0x20 PUSH2 0x4CD DUP6 DUP3 DUP7 ADD PUSH2 0x455 JUMP JUMPDEST SWAP2 POP POP SWAP3 POP SWAP3 SWAP1 POP JUMP JUMPDEST PUSH1 0x0 DUP1 PUSH1 0x0 DUP1 PUSH1 0x80 DUP6 DUP8 SUB SLT ISZERO PUSH2 0x4F1 JUMPI PUSH2 0x4F0 PUSH2 0x6F1 JUMP JUMPDEST JUMPDEST PUSH1 0x0 PUSH2 0x4FF DUP8 DUP3 DUP9 ADD PUSH2 0x455 JUMP JUMPDEST SWAP5 POP POP PUSH1 0x20 PUSH2 0x510 DUP8 DUP3 DUP9 ADD PUSH2 0x455 JUMP JUMPDEST SWAP4 POP POP PUSH1 0x40 PUSH2 0x521 DUP8 DUP3 DUP9 ADD PUSH2 0x455 JUMP JUMPDEST SWAP3 POP POP PUSH1 0x60 PUSH2 0x532 DUP8 DUP3 DUP9 ADD PUSH2 0x455 JUMP JUMPDEST SWAP2 POP POP SWAP3 SWAP6 SWAP2 SWAP5 POP SWAP3 POP JUMP JUMPDEST PUSH1 0x0 PUSH2 0x549 DUP3 PUSH2 0x608 JUMP JUMPDEST PUSH2 0x553 DUP2 DUP6 PUSH2 0x613 JUMP JUMPDEST SWAP4 POP PUSH2 0x563 DUP2 DUP6 PUSH1 0x20 DUP7 ADD PUSH2 0x62E JUMP JUMPDEST PUSH2 0x56C DUP2 PUSH2 0x6F6 JUMP JUMPDEST DUP5 ADD SWAP2 POP POP SWAP3 SWAP2 POP POP JUMP JUMPDEST PUSH2 0x580 DUP2 PUSH2 0x624 JUMP JUMPDEST DUP3 MSTORE POP POP JUMP JUMPDEST PUSH1 0x0 PUSH1 0x20 DUP3 ADD SWAP1 POP DUP2 DUP2 SUB PUSH1 0x0 DUP4 ADD MSTORE PUSH2 0x5A0 DUP2 DUP5 PUSH2 0x53E JUMP JUMPDEST SWAP1 POP SWAP3 SWAP2 POP POP JUMP JUMPDEST PUSH1 0x0 PUSH1 0x60 DUP3 ADD SWAP1 POP DUP2 DUP2 SUB PUSH1 0x0 DUP4 ADD MSTORE PUSH2 0x5C2 DUP2 DUP7 PUSH2 0x53E JUMP JUMPDEST SWAP1 POP DUP2 DUP2 SUB PUSH1 0x20 DUP4 ADD MSTORE PUSH2 0x5D6 DUP2 DUP6 PUSH2 0x53E JUMP JUMPDEST SWAP1 POP PUSH2 0x5E5 PUSH1 0x40 DUP4 ADD DUP5 PUSH2 0x577 JUMP JUMPDEST SWAP5 SWAP4 POP POP POP POP JUMP JUMPDEST PUSH1 0x0 PUSH1 0x20 DUP3 ADD SWAP1 POP PUSH2 0x602 PUSH1 0x0 DUP4 ADD DUP5 PUSH2 0x577 JUMP JUMPDEST SWAP3 SWAP2 POP POP JUMP JUMPDEST PUSH1 0x0 DUP2 MLOAD SWAP1 POP SWAP2 SWAP1 POP JUMP JUMPDEST PUSH1 0x0 DUP3 DUP3 MSTORE PUSH1 0x20 DUP3 ADD SWAP1 POP SWAP3 SWAP2 POP POP JUMP JUMPDEST PUSH1 0x0 DUP2 SWAP1 POP SWAP2 SWAP1 POP JUMP JUMPDEST PUSH1 0x0 JUMPDEST DUP4 DUP2 LT ISZERO PUSH2 0x64C JUMPI DUP1 DUP3 ADD MLOAD DUP2 DUP5 ADD MSTORE PUSH1 0x20 DUP2 ADD SWAP1 POP PUSH2 0x631 JUMP JUMPDEST DUP4 DUP2 GT ISZERO PUSH2 0x65B JUMPI PUSH1 0x0 DUP5 DUP5 ADD MSTORE JUMPDEST POP POP POP POP JUMP JUMPDEST PUSH1 0x0 PUSH1 0x2 DUP3 DIV SWAP1 POP PUSH1 0x1 DUP3 AND DUP1 PUSH2 0x679 JUMPI PUSH1 0x7F DUP3 AND SWAP2 POP JUMPDEST PUSH1 0x20 DUP3 LT DUP2 EQ ISZERO PUSH2 0x68D JUMPI PUSH2 0x68C PUSH2 0x693 JUMP JUMPDEST JUMPDEST POP SWAP2 SWAP1 POP JUMP JUMPDEST PUSH32 0x4E487B7100000000000000000000000000000000000000000000000000000000 PUSH1 0x0 MSTORE PUSH1 0x22 PUSH1 0x4 MSTORE PUSH1 0x24 PUSH1 0x0 REVERT JUMPDEST PUSH32 0x4E487B7100000000000000000000000000000000000000000000000000000000 PUSH1 0x0 MSTORE PUSH1 0x32 PUSH1 0x4 MSTORE PUSH1 0x24 PUSH1 0x0 REVERT JUMPDEST PUSH1 0x0 DUP1 REVERT JUMPDEST PUSH1 0x0 PUSH1 0x1F NOT PUSH1 0x1F DUP4 ADD AND SWAP1 POP SWAP2 SWAP1 POP JUMP JUMPDEST PUSH2 0x710 DUP2 PUSH2 0x624 JUMP JUMPDEST DUP2 EQ PUSH2 0x71B JUMPI PUSH1 0x0 DUP1 REVERT JUMPDEST POP JUMP INVALID LOG2 PUSH5 0x6970667358 0x22 SLT KECCAK256 CALL PUSH12 0xDD01B3EB887C8E3C64DFB2BB 0xA5 DIFFICULTY 0x25 SWAP16 SWAP1 0xD5 0xAD DUP13 0xC3 KECCAK256 0xDD 0xAB SWAP6 0xD6 MUL 0x2C 0xBD 0xB1 PUSH5 0x736F6C6343 STOP ADDMOD SMOD STOP CALLER "
				},
				"gasEstimates": {
					"creation": {
						"codeDepositCost": "375200",
						"executionCost": "infinite",
						"totalCost": "infinite"
					},
					"external": {
						"age()": "2474",
						"characterOfAPerson()": "infinite",
						"enterValues(uint256,uint256)": "infinite",
						"enterValuesAgain(uint256,uint256,uint256,uint256)": "infinite",
						"luckNumbers2(uint256)": "infinite",
						"luckyNumbers(uint256)": "infinite",
						"name()": "infinite"
					}
				},
				"methodIdentifiers": {
					"age()": "262a9dff",
					"characterOfAPerson()": "465fe0ee",
					"enterValues(uint256,uint256)": "204653d3",
					"enterValuesAgain(uint256,uint256,uint256,uint256)": "6d35e346",
					"luckNumbers2(uint256)": "d653f307",
					"luckyNumbers(uint256)": "e780faa3",
					"name()": "06fdde03"
				}
			},
			"storageLayout": {
				"storage": [
					{
						"astId": 3,
						"contract": "contracts/basics.sol:Person",
						"label": "name",
						"offset": 0,
						"slot": "0",
						"type": "t_string_storage"
					},
					{
						"astId": 5,
						"contract": "contracts/basics.sol:Person",
						"label": "age",
						"offset": 0,
						"slot": "1",
						"type": "t_uint256"
					},
					{
						"astId": 25,
						"contract": "contracts/basics.sol:Person",
						"label": "luckyNumbers",
						"offset": 0,
						"slot": "2",
						"type": "t_array(t_uint256)2_storage"
					},
					{
						"astId": 28,
						"contract": "contracts/basics.sol:Person",
						"label": "luckNumbers2",
						"offset": 0,
						"slot": "4",
						"type": "t_array(t_uint256)dyn_storage"
					},
					{
						"astId": 94,
						"contract": "contracts/basics.sol:Person",
						"label": "characterOfAPerson",
						"offset": 0,
						"slot": "5",
						"type": "t_struct(Traits)91_storage"
					}
				],
				"types": {
					"t_array(t_uint256)2_storage": {
						"base": "t_uint256",
						"encoding": "inplace",
						"label": "uint256[2]",
						"numberOfBytes": "64"
					},
					"t_array(t_uint256)dyn_storage": {
						"base": "t_uint256",
						"encoding": "dynamic_array",
						"label": "uint256[]",
						"numberOfBytes": "32"
					},
					"t_string_storage": {
						"encoding": "bytes",
						"label": "string",
						"numberOfBytes": "32"
					},
					"t_struct(Traits)91_storage": {
						"encoding": "inplace",
						"label": "struct Person.Traits",
						"members": [
							{
								"astId": 86,
								"contract": "contracts/basics.sol:Person",
								"label": "color",
								"offset": 0,
								"slot": "0",
								"type": "t_string_storage"
							},
							{
								"astId": 88,
								"contract": "contracts/basics.sol:Person",
								"label": "country",
								"offset": 0,
								"slot": "1",
								"type": "t_string_storage"
							},
							{
								"astId": 90,
								"contract": "contracts/basics.sol:Person",
								"label": "height",
								"offset": 0,
								"slot": "2",
								"type": "t_uint256"
							}
						],
						"numberOfBytes": "96"
					},
					"t_uint256": {
						"encoding": "inplace",
						"label": "uint256",
						"numberOfBytes": "32"
					}
				}
			},
			"userdoc": {
				"kind": "user",
				"methods": {},
				"version": 1
			}
		}
	}
}