{
	"contracts/blog.sol": {
		"blog": {
			"abi": [
				{
					"anonymous": false,
					"inputs": [
						{
							"indexed": true,
							"internalType": "address",
							"name": "user",
							"type": "address"
						},
						{
							"indexed": true,
							"internalType": "string",
							"name": "title",
							"type": "string"
						},
						{
							"indexed": true,
							"internalType": "string",
							"name": "description",
							"type": "string"
						}
					],
					"name": "broadcastDetails",
					"type": "event"
				},
				{
					"inputs": [],
					"name": "counter",
					"outputs": [
						{
							"internalType": "uint256",
							"name": "",
							"type": "uint256"
						}
					],
					"stateMutability": "view",
					"type": "function"
				},
				{
					"inputs": [
						{
							"internalType": "string",
							"name": "_title",
							"type": "string"
						},
						{
							"internalType": "string",
							"name": "_description",
							"type": "string"
						}
					],
					"name": "createPost",
					"outputs": [],
					"stateMutability": "nonpayable",
					"type": "function"
				},
				{
					"inputs": [
						{
							"internalType": "uint256",
							"name": "",
							"type": "uint256"
						}
					],
					"name": "posts",
					"outputs": [
						{
							"internalType": "address",
							"name": "",
							"type": "address"
						}
					],
					"stateMutability": "view",
					"type": "function"
				},
				{
					"inputs": [
						{
							"internalType": "uint256",
							"name": "_id",
							"type": "uint256"
						}
					],
					"name": "readPost",
					"outputs": [
						{
							"components": [
								{
									"internalType": "string",
									"name": "title",
									"type": "string"
								},
								{
									"internalType": "string",
									"name": "description",
									"type": "string"
								},
								{
									"internalType": "address",
									"name": "user",
									"type": "address"
								}
							],
							"internalType": "struct blog.Post",
							"name": "",
							"type": "tuple"
						}
					],
					"stateMutability": "view",
					"type": "function"
				},
				{
					"inputs": [
						{
							"internalType": "uint256",
							"name": "_postID",
							"type": "uint256"
						},
						{
							"internalType": "string",
							"name": "_title",
							"type": "string"
						},
						{
							"internalType": "string",
							"name": "_description",
							"type": "string"
						}
					],
					"name": "updatePost",
					"outputs": [],
					"stateMutability": "nonpayable",
					"type": "function"
				},
				{
					"inputs": [
						{
							"internalType": "uint256",
							"name": "",
							"type": "uint256"
						}
					],
					"name": "userPosts",
					"outputs": [
						{
							"internalType": "string",
							"name": "title",
							"type": "string"
						},
						{
							"internalType": "string",
							"name": "description",
							"type": "string"
						},
						{
							"internalType": "address",
							"name": "user",
							"type": "address"
						}
					],
					"stateMutability": "view",
					"type": "function"
				}
			],
			"devdoc": {
				"kind": "dev",
				"methods": {},
				"version": 1
			},
			"evm": {
				"assembly": "    /* \"contracts/blog.sol\":90:1484  contract blog{\r... */\n  mstore(0x40, 0x80)\n    /* \"contracts/blog.sol\":157:158  0 */\n  0x00\n    /* \"contracts/blog.sol\":135:158  uint public counter = 0 */\n  dup1\n  sstore\n    /* \"contracts/blog.sol\":90:1484  contract blog{\r... */\n  callvalue\n  dup1\n  iszero\n  tag_1\n  jumpi\n  0x00\n  dup1\n  revert\ntag_1:\n  pop\n  dataSize(sub_0)\n  dup1\n  dataOffset(sub_0)\n  0x00\n  codecopy\n  0x00\n  return\nstop\n\nsub_0: assembly {\n        /* \"contracts/blog.sol\":90:1484  contract blog{\r... */\n      mstore(0x40, 0x80)\n      callvalue\n      dup1\n      iszero\n      tag_1\n      jumpi\n      0x00\n      dup1\n      revert\n    tag_1:\n      pop\n      jumpi(tag_2, lt(calldatasize, 0x04))\n      shr(0xe0, calldataload(0x00))\n      dup1\n      0x0b1e7f83\n      eq\n      tag_3\n      jumpi\n      dup1\n      0x392338f5\n      eq\n      tag_4\n      jumpi\n      dup1\n      0x61bc221a\n      eq\n      tag_5\n      jumpi\n      dup1\n      0x66d1cac9\n      eq\n      tag_6\n      jumpi\n      dup1\n      0xca6f69f5\n      eq\n      tag_7\n      jumpi\n      dup1\n      0xfdd6ea71\n      eq\n      tag_8\n      jumpi\n    tag_2:\n      0x00\n      dup1\n      revert\n        /* \"contracts/blog.sol\":554:591  mapping(uint => address) public posts */\n    tag_3:\n      tag_9\n      0x04\n      dup1\n      calldatasize\n      sub\n      dup2\n      add\n      swap1\n      tag_10\n      swap2\n      swap1\n      tag_11\n      jump\t// in\n    tag_10:\n      tag_12\n      jump\t// in\n    tag_9:\n      mload(0x40)\n      tag_13\n      swap2\n      swap1\n      tag_14\n      jump\t// in\n    tag_13:\n      mload(0x40)\n      dup1\n      swap2\n      sub\n      swap1\n      return\n        /* \"contracts/blog.sol\":869:1128  function createPost(string memory _title,string memory _description)\r... */\n    tag_4:\n      tag_15\n      0x04\n      dup1\n      calldatasize\n      sub\n      dup2\n      add\n      swap1\n      tag_16\n      swap2\n      swap1\n      tag_17\n      jump\t// in\n    tag_16:\n      tag_18\n      jump\t// in\n    tag_15:\n      stop\n        /* \"contracts/blog.sol\":135:158  uint public counter = 0 */\n    tag_5:\n      tag_19\n      tag_20\n      jump\t// in\n    tag_19:\n      mload(0x40)\n      tag_21\n      swap2\n      swap1\n      tag_22\n      jump\t// in\n    tag_21:\n      mload(0x40)\n      dup1\n      swap2\n      sub\n      swap1\n      return\n        /* \"contracts/blog.sol\":1305:1475  function updatePost(uint _postID,string memory _title, string memory _description)\r... */\n    tag_6:\n      tag_23\n      0x04\n      dup1\n      calldatasize\n      sub\n      dup2\n      add\n      swap1\n      tag_24\n      swap2\n      swap1\n      tag_25\n      jump\t// in\n    tag_24:\n      tag_26\n      jump\t// in\n    tag_23:\n      stop\n        /* \"contracts/blog.sol\":1158:1273  function readPost(uint _id)\r... */\n    tag_7:\n      tag_27\n      0x04\n      dup1\n      calldatasize\n      sub\n      dup2\n      add\n      swap1\n      tag_28\n      swap2\n      swap1\n      tag_11\n      jump\t// in\n    tag_28:\n      tag_29\n      jump\t// in\n    tag_27:\n      mload(0x40)\n      tag_30\n      swap2\n      swap1\n      tag_31\n      jump\t// in\n    tag_30:\n      mload(0x40)\n      dup1\n      swap2\n      sub\n      swap1\n      return\n        /* \"contracts/blog.sol\":635:673  mapping(uint => Post) public userPosts */\n    tag_8:\n      tag_32\n      0x04\n      dup1\n      calldatasize\n      sub\n      dup2\n      add\n      swap1\n      tag_33\n      swap2\n      swap1\n      tag_11\n      jump\t// in\n    tag_33:\n      tag_34\n      jump\t// in\n    tag_32:\n      mload(0x40)\n      tag_35\n      swap4\n      swap3\n      swap2\n      swap1\n      tag_36\n      jump\t// in\n    tag_35:\n      mload(0x40)\n      dup1\n      swap2\n      sub\n      swap1\n      return\n        /* \"contracts/blog.sol\":554:591  mapping(uint => address) public posts */\n    tag_12:\n      mstore(0x20, 0x01)\n      dup1\n      0x00\n      mstore\n      keccak256(0x00, 0x40)\n      0x00\n      swap2\n      pop\n      sload\n      swap1\n      0x0100\n      exp\n      swap1\n      div\n      0xffffffffffffffffffffffffffffffffffffffff\n      and\n      dup2\n      jump\t// out\n        /* \"contracts/blog.sol\":869:1128  function createPost(string memory _title,string memory _description)\r... */\n    tag_18:\n        /* \"contracts/blog.sol\":991:1027  Post(_title,_description,msg.sender) */\n      mload(0x40)\n      dup1\n      0x60\n      add\n      0x40\n      mstore\n      dup1\n        /* \"contracts/blog.sol\":996:1002  _title */\n      dup4\n        /* \"contracts/blog.sol\":991:1027  Post(_title,_description,msg.sender) */\n      dup2\n      mstore\n      0x20\n      add\n        /* \"contracts/blog.sol\":1003:1015  _description */\n      dup3\n        /* \"contracts/blog.sol\":991:1027  Post(_title,_description,msg.sender) */\n      dup2\n      mstore\n      0x20\n      add\n        /* \"contracts/blog.sol\":1016:1026  msg.sender */\n      caller\n        /* \"contracts/blog.sol\":991:1027  Post(_title,_description,msg.sender) */\n      0xffffffffffffffffffffffffffffffffffffffff\n      and\n      dup2\n      mstore\n      pop\n        /* \"contracts/blog.sol\":970:979  userPosts */\n      0x02\n        /* \"contracts/blog.sol\":970:988  userPosts[counter] */\n      0x00\n        /* \"contracts/blog.sol\":980:987  counter */\n      dup1\n      sload\n        /* \"contracts/blog.sol\":970:988  userPosts[counter] */\n      dup2\n      mstore\n      0x20\n      add\n      swap1\n      dup2\n      mstore\n      0x20\n      add\n      0x00\n      keccak256\n        /* \"contracts/blog.sol\":970:1027  userPosts[counter] = Post(_title,_description,msg.sender) */\n      0x00\n      dup3\n      add\n      mload\n      dup2\n      0x00\n      add\n      swap1\n      dup1\n      mload\n      swap1\n      0x20\n      add\n      swap1\n      tag_38\n      swap3\n      swap2\n      swap1\n      tag_39\n      jump\t// in\n    tag_38:\n      pop\n      0x20\n      dup3\n      add\n      mload\n      dup2\n      0x01\n      add\n      swap1\n      dup1\n      mload\n      swap1\n      0x20\n      add\n      swap1\n      tag_40\n      swap3\n      swap2\n      swap1\n      tag_39\n      jump\t// in\n    tag_40:\n      pop\n      0x40\n      dup3\n      add\n      mload\n      dup2\n      0x02\n      add\n      exp(0x0100, 0x00)\n      dup2\n      sload\n      dup2\n      0xffffffffffffffffffffffffffffffffffffffff\n      mul\n      not\n      and\n      swap1\n      dup4\n      0xffffffffffffffffffffffffffffffffffffffff\n      and\n      mul\n      or\n      swap1\n      sstore\n      pop\n      swap1\n      pop\n      pop\n        /* \"contracts/blog.sol\":1083:1095  _description */\n      dup1\n        /* \"contracts/blog.sol\":1047:1096  broadcastDetails(msg.sender, _title,_description) */\n      mload(0x40)\n      tag_41\n      swap2\n      swap1\n      tag_42\n      jump\t// in\n    tag_41:\n      mload(0x40)\n      dup1\n      swap2\n      sub\n      swap1\n      keccak256\n        /* \"contracts/blog.sol\":1076:1082  _title */\n      dup3\n        /* \"contracts/blog.sol\":1047:1096  broadcastDetails(msg.sender, _title,_description) */\n      mload(0x40)\n      tag_43\n      swap2\n      swap1\n      tag_42\n      jump\t// in\n    tag_43:\n      mload(0x40)\n      dup1\n      swap2\n      sub\n      swap1\n      keccak256\n        /* \"contracts/blog.sol\":1064:1074  msg.sender */\n      caller\n        /* \"contracts/blog.sol\":1047:1096  broadcastDetails(msg.sender, _title,_description) */\n      0xffffffffffffffffffffffffffffffffffffffff\n      and\n      0x4eacffc497062f11928adc3628e2047cd720623235f6f37529db1d95cc75ecbf\n      mload(0x40)\n      mload(0x40)\n      dup1\n      swap2\n      sub\n      swap1\n      log4\n        /* \"contracts/blog.sol\":1111:1118  counter */\n      0x00\n      dup1\n        /* \"contracts/blog.sol\":1111:1120  counter++ */\n      dup2\n      sload\n      dup1\n      swap3\n      swap2\n      swap1\n      tag_44\n      swap1\n      tag_45\n      jump\t// in\n    tag_44:\n      swap2\n      swap1\n      pop\n      sstore\n      pop\n        /* \"contracts/blog.sol\":869:1128  function createPost(string memory _title,string memory _description)\r... */\n      pop\n      pop\n      jump\t// out\n        /* \"contracts/blog.sol\":135:158  uint public counter = 0 */\n    tag_20:\n      sload(0x00)\n      dup2\n      jump\t// out\n        /* \"contracts/blog.sol\":1305:1475  function updatePost(uint _postID,string memory _title, string memory _description)\r... */\n    tag_26:\n        /* \"contracts/blog.sol\":1431:1467  Post(_title,_description,msg.sender) */\n      mload(0x40)\n      dup1\n      0x60\n      add\n      0x40\n      mstore\n      dup1\n        /* \"contracts/blog.sol\":1436:1442  _title */\n      dup4\n        /* \"contracts/blog.sol\":1431:1467  Post(_title,_description,msg.sender) */\n      dup2\n      mstore\n      0x20\n      add\n        /* \"contracts/blog.sol\":1443:1455  _description */\n      dup3\n        /* \"contracts/blog.sol\":1431:1467  Post(_title,_description,msg.sender) */\n      dup2\n      mstore\n      0x20\n      add\n        /* \"contracts/blog.sol\":1456:1466  msg.sender */\n      caller\n        /* \"contracts/blog.sol\":1431:1467  Post(_title,_description,msg.sender) */\n      0xffffffffffffffffffffffffffffffffffffffff\n      and\n      dup2\n      mstore\n      pop\n        /* \"contracts/blog.sol\":1410:1419  userPosts */\n      0x02\n        /* \"contracts/blog.sol\":1410:1428  userPosts[_postID] */\n      0x00\n        /* \"contracts/blog.sol\":1420:1427  _postID */\n      dup6\n        /* \"contracts/blog.sol\":1410:1428  userPosts[_postID] */\n      dup2\n      mstore\n      0x20\n      add\n      swap1\n      dup2\n      mstore\n      0x20\n      add\n      0x00\n      keccak256\n        /* \"contracts/blog.sol\":1410:1467  userPosts[_postID] = Post(_title,_description,msg.sender) */\n      0x00\n      dup3\n      add\n      mload\n      dup2\n      0x00\n      add\n      swap1\n      dup1\n      mload\n      swap1\n      0x20\n      add\n      swap1\n      tag_47\n      swap3\n      swap2\n      swap1\n      tag_39\n      jump\t// in\n    tag_47:\n      pop\n      0x20\n      dup3\n      add\n      mload\n      dup2\n      0x01\n      add\n      swap1\n      dup1\n      mload\n      swap1\n      0x20\n      add\n      swap1\n      tag_48\n      swap3\n      swap2\n      swap1\n      tag_39\n      jump\t// in\n    tag_48:\n      pop\n      0x40\n      dup3\n      add\n      mload\n      dup2\n      0x02\n      add\n      exp(0x0100, 0x00)\n      dup2\n      sload\n      dup2\n      0xffffffffffffffffffffffffffffffffffffffff\n      mul\n      not\n      and\n      swap1\n      dup4\n      0xffffffffffffffffffffffffffffffffffffffff\n      and\n      mul\n      or\n      swap1\n      sstore\n      pop\n      swap1\n      pop\n      pop\n        /* \"contracts/blog.sol\":1305:1475  function updatePost(uint _postID,string memory _title, string memory _description)\r... */\n      pop\n      pop\n      pop\n      jump\t// out\n        /* \"contracts/blog.sol\":1158:1273  function readPost(uint _id)\r... */\n    tag_29:\n        /* \"contracts/blog.sol\":1221:1232  Post memory */\n      tag_49\n      tag_50\n      jump\t// in\n    tag_49:\n        /* \"contracts/blog.sol\":1251:1260  userPosts */\n      0x02\n        /* \"contracts/blog.sol\":1251:1265  userPosts[_id] */\n      0x00\n        /* \"contracts/blog.sol\":1261:1264  _id */\n      dup4\n        /* \"contracts/blog.sol\":1251:1265  userPosts[_id] */\n      dup2\n      mstore\n      0x20\n      add\n      swap1\n      dup2\n      mstore\n      0x20\n      add\n      0x00\n      keccak256\n        /* \"contracts/blog.sol\":1244:1265  return userPosts[_id] */\n      mload(0x40)\n      dup1\n      0x60\n      add\n      0x40\n      mstore\n      swap1\n      dup2\n      0x00\n      dup3\n      add\n      dup1\n      sload\n      tag_52\n      swap1\n      tag_53\n      jump\t// in\n    tag_52:\n      dup1\n      0x1f\n      add\n      0x20\n      dup1\n      swap2\n      div\n      mul\n      0x20\n      add\n      mload(0x40)\n      swap1\n      dup2\n      add\n      0x40\n      mstore\n      dup1\n      swap3\n      swap2\n      swap1\n      dup2\n      dup2\n      mstore\n      0x20\n      add\n      dup3\n      dup1\n      sload\n      tag_54\n      swap1\n      tag_53\n      jump\t// in\n    tag_54:\n      dup1\n      iszero\n      tag_55\n      jumpi\n      dup1\n      0x1f\n      lt\n      tag_56\n      jumpi\n      0x0100\n      dup1\n      dup4\n      sload\n      div\n      mul\n      dup4\n      mstore\n      swap2\n      0x20\n      add\n      swap2\n      jump(tag_55)\n    tag_56:\n      dup3\n      add\n      swap2\n      swap1\n      0x00\n      mstore\n      keccak256(0x00, 0x20)\n      swap1\n    tag_57:\n      dup2\n      sload\n      dup2\n      mstore\n      swap1\n      0x01\n      add\n      swap1\n      0x20\n      add\n      dup1\n      dup4\n      gt\n      tag_57\n      jumpi\n      dup3\n      swap1\n      sub\n      0x1f\n      and\n      dup3\n      add\n      swap2\n    tag_55:\n      pop\n      pop\n      pop\n      pop\n      pop\n      dup2\n      mstore\n      0x20\n      add\n      0x01\n      dup3\n      add\n      dup1\n      sload\n      tag_58\n      swap1\n      tag_53\n      jump\t// in\n    tag_58:\n      dup1\n      0x1f\n      add\n      0x20\n      dup1\n      swap2\n      div\n      mul\n      0x20\n      add\n      mload(0x40)\n      swap1\n      dup2\n      add\n      0x40\n      mstore\n      dup1\n      swap3\n      swap2\n      swap1\n      dup2\n      dup2\n      mstore\n      0x20\n      add\n      dup3\n      dup1\n      sload\n      tag_59\n      swap1\n      tag_53\n      jump\t// in\n    tag_59:\n      dup1\n      iszero\n      tag_60\n      jumpi\n      dup1\n      0x1f\n      lt\n      tag_61\n      jumpi\n      0x0100\n      dup1\n      dup4\n      sload\n      div\n      mul\n      dup4\n      mstore\n      swap2\n      0x20\n      add\n      swap2\n      jump(tag_60)\n    tag_61:\n      dup3\n      add\n      swap2\n      swap1\n      0x00\n      mstore\n      keccak256(0x00, 0x20)\n      swap1\n    tag_62:\n      dup2\n      sload\n      dup2\n      mstore\n      swap1\n      0x01\n      add\n      swap1\n      0x20\n      add\n      dup1\n      dup4\n      gt\n      tag_62\n      jumpi\n      dup3\n      swap1\n      sub\n      0x1f\n      and\n      dup3\n      add\n      swap2\n    tag_60:\n      pop\n      pop\n      pop\n      pop\n      pop\n      dup2\n      mstore\n      0x20\n      add\n      0x02\n      dup3\n      add\n      0x00\n      swap1\n      sload\n      swap1\n      0x0100\n      exp\n      swap1\n      div\n      0xffffffffffffffffffffffffffffffffffffffff\n      and\n      0xffffffffffffffffffffffffffffffffffffffff\n      and\n      0xffffffffffffffffffffffffffffffffffffffff\n      and\n      dup2\n      mstore\n      pop\n      pop\n      swap1\n      pop\n        /* \"contracts/blog.sol\":1158:1273  function readPost(uint _id)\r... */\n      swap2\n      swap1\n      pop\n      jump\t// out\n        /* \"contracts/blog.sol\":635:673  mapping(uint => Post) public userPosts */\n    tag_34:\n      mstore(0x20, 0x02)\n      dup1\n      0x00\n      mstore\n      keccak256(0x00, 0x40)\n      0x00\n      swap2\n      pop\n      swap1\n      pop\n      dup1\n      0x00\n      add\n      dup1\n      sload\n      tag_63\n      swap1\n      tag_53\n      jump\t// in\n    tag_63:\n      dup1\n      0x1f\n      add\n      0x20\n      dup1\n      swap2\n      div\n      mul\n      0x20\n      add\n      mload(0x40)\n      swap1\n      dup2\n      add\n      0x40\n      mstore\n      dup1\n      swap3\n      swap2\n      swap1\n      dup2\n      dup2\n      mstore\n      0x20\n      add\n      dup3\n      dup1\n      sload\n      tag_64\n      swap1\n      tag_53\n      jump\t// in\n    tag_64:\n      dup1\n      iszero\n      tag_65\n      jumpi\n      dup1\n      0x1f\n      lt\n      tag_66\n      jumpi\n      0x0100\n      dup1\n      dup4\n      sload\n      div\n      mul\n      dup4\n      mstore\n      swap2\n      0x20\n      add\n      swap2\n      jump(tag_65)\n    tag_66:\n      dup3\n      add\n      swap2\n      swap1\n      0x00\n      mstore\n      keccak256(0x00, 0x20)\n      swap1\n    tag_67:\n      dup2\n      sload\n      dup2\n      mstore\n      swap1\n      0x01\n      add\n      swap1\n      0x20\n      add\n      dup1\n      dup4\n      gt\n      tag_67\n      jumpi\n      dup3\n      swap1\n      sub\n      0x1f\n      and\n      dup3\n      add\n      swap2\n    tag_65:\n      pop\n      pop\n      pop\n      pop\n      pop\n      swap1\n      dup1\n      0x01\n      add\n      dup1\n      sload\n      tag_68\n      swap1\n      tag_53\n      jump\t// in\n    tag_68:\n      dup1\n      0x1f\n      add\n      0x20\n      dup1\n      swap2\n      div\n      mul\n      0x20\n      add\n      mload(0x40)\n      swap1\n      dup2\n      add\n      0x40\n      mstore\n      dup1\n      swap3\n      swap2\n      swap1\n      dup2\n      dup2\n      mstore\n      0x20\n      add\n      dup3\n      dup1\n      sload\n      tag_69\n      swap1\n      tag_53\n      jump\t// in\n    tag_69:\n      dup1\n      iszero\n      tag_70\n      jumpi\n      dup1\n      0x1f\n      lt\n      tag_71\n      jumpi\n      0x0100\n      dup1\n      dup4\n      sload\n      div\n      mul\n      dup4\n      mstore\n      swap2\n      0x20\n      add\n      swap2\n      jump(tag_70)\n    tag_71:\n      dup3\n      add\n      swap2\n      swap1\n      0x00\n      mstore\n      keccak256(0x00, 0x20)\n      swap1\n    tag_72:\n      dup2\n      sload\n      dup2\n      mstore\n      swap1\n      0x01\n      add\n      swap1\n      0x20\n      add\n      dup1\n      dup4\n      gt\n      tag_72\n      jumpi\n      dup3\n      swap1\n      sub\n      0x1f\n      and\n      dup3\n      add\n      swap2\n    tag_70:\n      pop\n      pop\n      pop\n      pop\n      pop\n      swap1\n      dup1\n      0x02\n      add\n      0x00\n      swap1\n      sload\n      swap1\n      0x0100\n      exp\n      swap1\n      div\n      0xffffffffffffffffffffffffffffffffffffffff\n      and\n      swap1\n      pop\n      dup4\n      jump\t// out\n    tag_39:\n      dup3\n      dup1\n      sload\n      tag_73\n      swap1\n      tag_53\n      jump\t// in\n    tag_73:\n      swap1\n      0x00\n      mstore\n      keccak256(0x00, 0x20)\n      swap1\n      0x1f\n      add\n      0x20\n      swap1\n      div\n      dup2\n      add\n      swap3\n      dup3\n      tag_75\n      jumpi\n      0x00\n      dup6\n      sstore\n      jump(tag_74)\n    tag_75:\n      dup3\n      0x1f\n      lt\n      tag_76\n      jumpi\n      dup1\n      mload\n      not(0xff)\n      and\n      dup4\n      dup1\n      add\n      or\n      dup6\n      sstore\n      jump(tag_74)\n    tag_76:\n      dup3\n      dup1\n      add\n      0x01\n      add\n      dup6\n      sstore\n      dup3\n      iszero\n      tag_74\n      jumpi\n      swap2\n      dup3\n      add\n    tag_77:\n      dup3\n      dup2\n      gt\n      iszero\n      tag_78\n      jumpi\n      dup3\n      mload\n      dup3\n      sstore\n      swap2\n      0x20\n      add\n      swap2\n      swap1\n      0x01\n      add\n      swap1\n      jump(tag_77)\n    tag_78:\n    tag_74:\n      pop\n      swap1\n      pop\n      tag_79\n      swap2\n      swap1\n      tag_80\n      jump\t// in\n    tag_79:\n      pop\n      swap1\n      jump\t// out\n    tag_50:\n      mload(0x40)\n      dup1\n      0x60\n      add\n      0x40\n      mstore\n      dup1\n      0x60\n      dup2\n      mstore\n      0x20\n      add\n      0x60\n      dup2\n      mstore\n      0x20\n      add\n      and(0xffffffffffffffffffffffffffffffffffffffff, 0x00)\n      dup2\n      mstore\n      pop\n      swap1\n      jump\t// out\n    tag_80:\n    tag_81:\n      dup1\n      dup3\n      gt\n      iszero\n      tag_82\n      jumpi\n      0x00\n      dup2\n      0x00\n      swap1\n      sstore\n      pop\n      0x01\n      add\n      jump(tag_81)\n    tag_82:\n      pop\n      swap1\n      jump\t// out\n        /* \"#utility.yul\":7:419   */\n    tag_84:\n        /* \"#utility.yul\":85:90   */\n      0x00\n        /* \"#utility.yul\":110:176   */\n      tag_86\n        /* \"#utility.yul\":126:175   */\n      tag_87\n        /* \"#utility.yul\":168:174   */\n      dup5\n        /* \"#utility.yul\":126:175   */\n      tag_88\n      jump\t// in\n    tag_87:\n        /* \"#utility.yul\":110:176   */\n      tag_89\n      jump\t// in\n    tag_86:\n        /* \"#utility.yul\":101:176   */\n      swap1\n      pop\n        /* \"#utility.yul\":199:205   */\n      dup3\n        /* \"#utility.yul\":192:197   */\n      dup2\n        /* \"#utility.yul\":185:206   */\n      mstore\n        /* \"#utility.yul\":237:241   */\n      0x20\n        /* \"#utility.yul\":230:235   */\n      dup2\n        /* \"#utility.yul\":226:242   */\n      add\n        /* \"#utility.yul\":275:278   */\n      dup5\n        /* \"#utility.yul\":266:272   */\n      dup5\n        /* \"#utility.yul\":261:264   */\n      dup5\n        /* \"#utility.yul\":257:273   */\n      add\n        /* \"#utility.yul\":254:279   */\n      gt\n        /* \"#utility.yul\":251:363   */\n      iszero\n      tag_90\n      jumpi\n        /* \"#utility.yul\":282:361   */\n      tag_91\n      tag_92\n      jump\t// in\n    tag_91:\n        /* \"#utility.yul\":251:363   */\n    tag_90:\n        /* \"#utility.yul\":372:413   */\n      tag_93\n        /* \"#utility.yul\":406:412   */\n      dup5\n        /* \"#utility.yul\":401:404   */\n      dup3\n        /* \"#utility.yul\":396:399   */\n      dup6\n        /* \"#utility.yul\":372:413   */\n      tag_94\n      jump\t// in\n    tag_93:\n        /* \"#utility.yul\":91:419   */\n      pop\n        /* \"#utility.yul\":7:419   */\n      swap4\n      swap3\n      pop\n      pop\n      pop\n      jump\t// out\n        /* \"#utility.yul\":439:779   */\n    tag_95:\n        /* \"#utility.yul\":495:500   */\n      0x00\n        /* \"#utility.yul\":544:547   */\n      dup3\n        /* \"#utility.yul\":537:541   */\n      0x1f\n        /* \"#utility.yul\":529:535   */\n      dup4\n        /* \"#utility.yul\":525:542   */\n      add\n        /* \"#utility.yul\":521:548   */\n      slt\n        /* \"#utility.yul\":511:633   */\n      tag_97\n      jumpi\n        /* \"#utility.yul\":552:631   */\n      tag_98\n      tag_99\n      jump\t// in\n    tag_98:\n        /* \"#utility.yul\":511:633   */\n    tag_97:\n        /* \"#utility.yul\":669:675   */\n      dup2\n        /* \"#utility.yul\":656:676   */\n      calldataload\n        /* \"#utility.yul\":694:773   */\n      tag_100\n        /* \"#utility.yul\":769:772   */\n      dup5\n        /* \"#utility.yul\":761:767   */\n      dup3\n        /* \"#utility.yul\":754:758   */\n      0x20\n        /* \"#utility.yul\":746:752   */\n      dup7\n        /* \"#utility.yul\":742:759   */\n      add\n        /* \"#utility.yul\":694:773   */\n      tag_84\n      jump\t// in\n    tag_100:\n        /* \"#utility.yul\":685:773   */\n      swap2\n      pop\n        /* \"#utility.yul\":501:779   */\n      pop\n        /* \"#utility.yul\":439:779   */\n      swap3\n      swap2\n      pop\n      pop\n      jump\t// out\n        /* \"#utility.yul\":785:924   */\n    tag_101:\n        /* \"#utility.yul\":831:836   */\n      0x00\n        /* \"#utility.yul\":869:875   */\n      dup2\n        /* \"#utility.yul\":856:876   */\n      calldataload\n        /* \"#utility.yul\":847:876   */\n      swap1\n      pop\n        /* \"#utility.yul\":885:918   */\n      tag_103\n        /* \"#utility.yul\":912:917   */\n      dup2\n        /* \"#utility.yul\":885:918   */\n      tag_104\n      jump\t// in\n    tag_103:\n        /* \"#utility.yul\":785:924   */\n      swap3\n      swap2\n      pop\n      pop\n      jump\t// out\n        /* \"#utility.yul\":930:1764   */\n    tag_17:\n        /* \"#utility.yul\":1018:1024   */\n      0x00\n        /* \"#utility.yul\":1026:1032   */\n      dup1\n        /* \"#utility.yul\":1075:1077   */\n      0x40\n        /* \"#utility.yul\":1063:1072   */\n      dup4\n        /* \"#utility.yul\":1054:1061   */\n      dup6\n        /* \"#utility.yul\":1050:1073   */\n      sub\n        /* \"#utility.yul\":1046:1078   */\n      slt\n        /* \"#utility.yul\":1043:1162   */\n      iszero\n      tag_106\n      jumpi\n        /* \"#utility.yul\":1081:1160   */\n      tag_107\n      tag_108\n      jump\t// in\n    tag_107:\n        /* \"#utility.yul\":1043:1162   */\n    tag_106:\n        /* \"#utility.yul\":1229:1230   */\n      0x00\n        /* \"#utility.yul\":1218:1227   */\n      dup4\n        /* \"#utility.yul\":1214:1231   */\n      add\n        /* \"#utility.yul\":1201:1232   */\n      calldataload\n        /* \"#utility.yul\":1259:1277   */\n      0xffffffffffffffff\n        /* \"#utility.yul\":1251:1257   */\n      dup2\n        /* \"#utility.yul\":1248:1278   */\n      gt\n        /* \"#utility.yul\":1245:1362   */\n      iszero\n      tag_109\n      jumpi\n        /* \"#utility.yul\":1281:1360   */\n      tag_110\n      tag_111\n      jump\t// in\n    tag_110:\n        /* \"#utility.yul\":1245:1362   */\n    tag_109:\n        /* \"#utility.yul\":1386:1449   */\n      tag_112\n        /* \"#utility.yul\":1441:1448   */\n      dup6\n        /* \"#utility.yul\":1432:1438   */\n      dup3\n        /* \"#utility.yul\":1421:1430   */\n      dup7\n        /* \"#utility.yul\":1417:1439   */\n      add\n        /* \"#utility.yul\":1386:1449   */\n      tag_95\n      jump\t// in\n    tag_112:\n        /* \"#utility.yul\":1376:1449   */\n      swap3\n      pop\n        /* \"#utility.yul\":1172:1459   */\n      pop\n        /* \"#utility.yul\":1526:1528   */\n      0x20\n        /* \"#utility.yul\":1515:1524   */\n      dup4\n        /* \"#utility.yul\":1511:1529   */\n      add\n        /* \"#utility.yul\":1498:1530   */\n      calldataload\n        /* \"#utility.yul\":1557:1575   */\n      0xffffffffffffffff\n        /* \"#utility.yul\":1549:1555   */\n      dup2\n        /* \"#utility.yul\":1546:1576   */\n      gt\n        /* \"#utility.yul\":1543:1660   */\n      iszero\n      tag_113\n      jumpi\n        /* \"#utility.yul\":1579:1658   */\n      tag_114\n      tag_111\n      jump\t// in\n    tag_114:\n        /* \"#utility.yul\":1543:1660   */\n    tag_113:\n        /* \"#utility.yul\":1684:1747   */\n      tag_115\n        /* \"#utility.yul\":1739:1746   */\n      dup6\n        /* \"#utility.yul\":1730:1736   */\n      dup3\n        /* \"#utility.yul\":1719:1728   */\n      dup7\n        /* \"#utility.yul\":1715:1737   */\n      add\n        /* \"#utility.yul\":1684:1747   */\n      tag_95\n      jump\t// in\n    tag_115:\n        /* \"#utility.yul\":1674:1747   */\n      swap2\n      pop\n        /* \"#utility.yul\":1469:1757   */\n      pop\n        /* \"#utility.yul\":930:1764   */\n      swap3\n      pop\n      swap3\n      swap1\n      pop\n      jump\t// out\n        /* \"#utility.yul\":1770:2099   */\n    tag_11:\n        /* \"#utility.yul\":1829:1835   */\n      0x00\n        /* \"#utility.yul\":1878:1880   */\n      0x20\n        /* \"#utility.yul\":1866:1875   */\n      dup3\n        /* \"#utility.yul\":1857:1864   */\n      dup5\n        /* \"#utility.yul\":1853:1876   */\n      sub\n        /* \"#utility.yul\":1849:1881   */\n      slt\n        /* \"#utility.yul\":1846:1965   */\n      iszero\n      tag_117\n      jumpi\n        /* \"#utility.yul\":1884:1963   */\n      tag_118\n      tag_108\n      jump\t// in\n    tag_118:\n        /* \"#utility.yul\":1846:1965   */\n    tag_117:\n        /* \"#utility.yul\":2004:2005   */\n      0x00\n        /* \"#utility.yul\":2029:2082   */\n      tag_119\n        /* \"#utility.yul\":2074:2081   */\n      dup5\n        /* \"#utility.yul\":2065:2071   */\n      dup3\n        /* \"#utility.yul\":2054:2063   */\n      dup6\n        /* \"#utility.yul\":2050:2072   */\n      add\n        /* \"#utility.yul\":2029:2082   */\n      tag_101\n      jump\t// in\n    tag_119:\n        /* \"#utility.yul\":2019:2082   */\n      swap2\n      pop\n        /* \"#utility.yul\":1975:2092   */\n      pop\n        /* \"#utility.yul\":1770:2099   */\n      swap3\n      swap2\n      pop\n      pop\n      jump\t// out\n        /* \"#utility.yul\":2105:3084   */\n    tag_25:\n        /* \"#utility.yul\":2202:2208   */\n      0x00\n        /* \"#utility.yul\":2210:2216   */\n      dup1\n        /* \"#utility.yul\":2218:2224   */\n      0x00\n        /* \"#utility.yul\":2267:2269   */\n      0x60\n        /* \"#utility.yul\":2255:2264   */\n      dup5\n        /* \"#utility.yul\":2246:2253   */\n      dup7\n        /* \"#utility.yul\":2242:2265   */\n      sub\n        /* \"#utility.yul\":2238:2270   */\n      slt\n        /* \"#utility.yul\":2235:2354   */\n      iszero\n      tag_121\n      jumpi\n        /* \"#utility.yul\":2273:2352   */\n      tag_122\n      tag_108\n      jump\t// in\n    tag_122:\n        /* \"#utility.yul\":2235:2354   */\n    tag_121:\n        /* \"#utility.yul\":2393:2394   */\n      0x00\n        /* \"#utility.yul\":2418:2471   */\n      tag_123\n        /* \"#utility.yul\":2463:2470   */\n      dup7\n        /* \"#utility.yul\":2454:2460   */\n      dup3\n        /* \"#utility.yul\":2443:2452   */\n      dup8\n        /* \"#utility.yul\":2439:2461   */\n      add\n        /* \"#utility.yul\":2418:2471   */\n      tag_101\n      jump\t// in\n    tag_123:\n        /* \"#utility.yul\":2408:2471   */\n      swap4\n      pop\n        /* \"#utility.yul\":2364:2481   */\n      pop\n        /* \"#utility.yul\":2548:2550   */\n      0x20\n        /* \"#utility.yul\":2537:2546   */\n      dup5\n        /* \"#utility.yul\":2533:2551   */\n      add\n        /* \"#utility.yul\":2520:2552   */\n      calldataload\n        /* \"#utility.yul\":2579:2597   */\n      0xffffffffffffffff\n        /* \"#utility.yul\":2571:2577   */\n      dup2\n        /* \"#utility.yul\":2568:2598   */\n      gt\n        /* \"#utility.yul\":2565:2682   */\n      iszero\n      tag_124\n      jumpi\n        /* \"#utility.yul\":2601:2680   */\n      tag_125\n      tag_111\n      jump\t// in\n    tag_125:\n        /* \"#utility.yul\":2565:2682   */\n    tag_124:\n        /* \"#utility.yul\":2706:2769   */\n      tag_126\n        /* \"#utility.yul\":2761:2768   */\n      dup7\n        /* \"#utility.yul\":2752:2758   */\n      dup3\n        /* \"#utility.yul\":2741:2750   */\n      dup8\n        /* \"#utility.yul\":2737:2759   */\n      add\n        /* \"#utility.yul\":2706:2769   */\n      tag_95\n      jump\t// in\n    tag_126:\n        /* \"#utility.yul\":2696:2769   */\n      swap3\n      pop\n        /* \"#utility.yul\":2491:2779   */\n      pop\n        /* \"#utility.yul\":2846:2848   */\n      0x40\n        /* \"#utility.yul\":2835:2844   */\n      dup5\n        /* \"#utility.yul\":2831:2849   */\n      add\n        /* \"#utility.yul\":2818:2850   */\n      calldataload\n        /* \"#utility.yul\":2877:2895   */\n      0xffffffffffffffff\n        /* \"#utility.yul\":2869:2875   */\n      dup2\n        /* \"#utility.yul\":2866:2896   */\n      gt\n        /* \"#utility.yul\":2863:2980   */\n      iszero\n      tag_127\n      jumpi\n        /* \"#utility.yul\":2899:2978   */\n      tag_128\n      tag_111\n      jump\t// in\n    tag_128:\n        /* \"#utility.yul\":2863:2980   */\n    tag_127:\n        /* \"#utility.yul\":3004:3067   */\n      tag_129\n        /* \"#utility.yul\":3059:3066   */\n      dup7\n        /* \"#utility.yul\":3050:3056   */\n      dup3\n        /* \"#utility.yul\":3039:3048   */\n      dup8\n        /* \"#utility.yul\":3035:3057   */\n      add\n        /* \"#utility.yul\":3004:3067   */\n      tag_95\n      jump\t// in\n    tag_129:\n        /* \"#utility.yul\":2994:3067   */\n      swap2\n      pop\n        /* \"#utility.yul\":2789:3077   */\n      pop\n        /* \"#utility.yul\":2105:3084   */\n      swap3\n      pop\n      swap3\n      pop\n      swap3\n      jump\t// out\n        /* \"#utility.yul\":3090:3198   */\n    tag_130:\n        /* \"#utility.yul\":3167:3191   */\n      tag_132\n        /* \"#utility.yul\":3185:3190   */\n      dup2\n        /* \"#utility.yul\":3167:3191   */\n      tag_133\n      jump\t// in\n    tag_132:\n        /* \"#utility.yul\":3162:3165   */\n      dup3\n        /* \"#utility.yul\":3155:3192   */\n      mstore\n        /* \"#utility.yul\":3090:3198   */\n      pop\n      pop\n      jump\t// out\n        /* \"#utility.yul\":3204:3322   */\n    tag_134:\n        /* \"#utility.yul\":3291:3315   */\n      tag_136\n        /* \"#utility.yul\":3309:3314   */\n      dup2\n        /* \"#utility.yul\":3291:3315   */\n      tag_133\n      jump\t// in\n    tag_136:\n        /* \"#utility.yul\":3286:3289   */\n      dup3\n        /* \"#utility.yul\":3279:3316   */\n      mstore\n        /* \"#utility.yul\":3204:3322   */\n      pop\n      pop\n      jump\t// out\n        /* \"#utility.yul\":3328:3672   */\n    tag_137:\n        /* \"#utility.yul\":3406:3409   */\n      0x00\n        /* \"#utility.yul\":3434:3473   */\n      tag_139\n        /* \"#utility.yul\":3467:3472   */\n      dup3\n        /* \"#utility.yul\":3434:3473   */\n      tag_140\n      jump\t// in\n    tag_139:\n        /* \"#utility.yul\":3489:3550   */\n      tag_141\n        /* \"#utility.yul\":3543:3549   */\n      dup2\n        /* \"#utility.yul\":3538:3541   */\n      dup6\n        /* \"#utility.yul\":3489:3550   */\n      tag_142\n      jump\t// in\n    tag_141:\n        /* \"#utility.yul\":3482:3550   */\n      swap4\n      pop\n        /* \"#utility.yul\":3559:3611   */\n      tag_143\n        /* \"#utility.yul\":3604:3610   */\n      dup2\n        /* \"#utility.yul\":3599:3602   */\n      dup6\n        /* \"#utility.yul\":3592:3596   */\n      0x20\n        /* \"#utility.yul\":3585:3590   */\n      dup7\n        /* \"#utility.yul\":3581:3597   */\n      add\n        /* \"#utility.yul\":3559:3611   */\n      tag_144\n      jump\t// in\n    tag_143:\n        /* \"#utility.yul\":3636:3665   */\n      tag_145\n        /* \"#utility.yul\":3658:3664   */\n      dup2\n        /* \"#utility.yul\":3636:3665   */\n      tag_146\n      jump\t// in\n    tag_145:\n        /* \"#utility.yul\":3631:3634   */\n      dup5\n        /* \"#utility.yul\":3627:3666   */\n      add\n        /* \"#utility.yul\":3620:3666   */\n      swap2\n      pop\n        /* \"#utility.yul\":3410:3672   */\n      pop\n        /* \"#utility.yul\":3328:3672   */\n      swap3\n      swap2\n      pop\n      pop\n      jump\t// out\n        /* \"#utility.yul\":3678:4042   */\n    tag_147:\n        /* \"#utility.yul\":3766:3769   */\n      0x00\n        /* \"#utility.yul\":3794:3833   */\n      tag_149\n        /* \"#utility.yul\":3827:3832   */\n      dup3\n        /* \"#utility.yul\":3794:3833   */\n      tag_140\n      jump\t// in\n    tag_149:\n        /* \"#utility.yul\":3849:3920   */\n      tag_150\n        /* \"#utility.yul\":3913:3919   */\n      dup2\n        /* \"#utility.yul\":3908:3911   */\n      dup6\n        /* \"#utility.yul\":3849:3920   */\n      tag_151\n      jump\t// in\n    tag_150:\n        /* \"#utility.yul\":3842:3920   */\n      swap4\n      pop\n        /* \"#utility.yul\":3929:3981   */\n      tag_152\n        /* \"#utility.yul\":3974:3980   */\n      dup2\n        /* \"#utility.yul\":3969:3972   */\n      dup6\n        /* \"#utility.yul\":3962:3966   */\n      0x20\n        /* \"#utility.yul\":3955:3960   */\n      dup7\n        /* \"#utility.yul\":3951:3967   */\n      add\n        /* \"#utility.yul\":3929:3981   */\n      tag_144\n      jump\t// in\n    tag_152:\n        /* \"#utility.yul\":4006:4035   */\n      tag_153\n        /* \"#utility.yul\":4028:4034   */\n      dup2\n        /* \"#utility.yul\":4006:4035   */\n      tag_146\n      jump\t// in\n    tag_153:\n        /* \"#utility.yul\":4001:4004   */\n      dup5\n        /* \"#utility.yul\":3997:4036   */\n      add\n        /* \"#utility.yul\":3990:4036   */\n      swap2\n      pop\n        /* \"#utility.yul\":3770:4042   */\n      pop\n        /* \"#utility.yul\":3678:4042   */\n      swap3\n      swap2\n      pop\n      pop\n      jump\t// out\n        /* \"#utility.yul\":4048:4425   */\n    tag_154:\n        /* \"#utility.yul\":4154:4157   */\n      0x00\n        /* \"#utility.yul\":4182:4221   */\n      tag_156\n        /* \"#utility.yul\":4215:4220   */\n      dup3\n        /* \"#utility.yul\":4182:4221   */\n      tag_140\n      jump\t// in\n    tag_156:\n        /* \"#utility.yul\":4237:4326   */\n      tag_157\n        /* \"#utility.yul\":4319:4325   */\n      dup2\n        /* \"#utility.yul\":4314:4317   */\n      dup6\n        /* \"#utility.yul\":4237:4326   */\n      tag_158\n      jump\t// in\n    tag_157:\n        /* \"#utility.yul\":4230:4326   */\n      swap4\n      pop\n        /* \"#utility.yul\":4335:4387   */\n      tag_159\n        /* \"#utility.yul\":4380:4386   */\n      dup2\n        /* \"#utility.yul\":4375:4378   */\n      dup6\n        /* \"#utility.yul\":4368:4372   */\n      0x20\n        /* \"#utility.yul\":4361:4366   */\n      dup7\n        /* \"#utility.yul\":4357:4373   */\n      add\n        /* \"#utility.yul\":4335:4387   */\n      tag_144\n      jump\t// in\n    tag_159:\n        /* \"#utility.yul\":4412:4418   */\n      dup1\n        /* \"#utility.yul\":4407:4410   */\n      dup5\n        /* \"#utility.yul\":4403:4419   */\n      add\n        /* \"#utility.yul\":4396:4419   */\n      swap2\n      pop\n        /* \"#utility.yul\":4158:4425   */\n      pop\n        /* \"#utility.yul\":4048:4425   */\n      swap3\n      swap2\n      pop\n      pop\n      jump\t// out\n        /* \"#utility.yul\":4475:5324   */\n    tag_160:\n        /* \"#utility.yul\":4584:4587   */\n      0x00\n        /* \"#utility.yul\":4620:4624   */\n      0x60\n        /* \"#utility.yul\":4615:4618   */\n      dup4\n        /* \"#utility.yul\":4611:4625   */\n      add\n        /* \"#utility.yul\":4708:4712   */\n      0x00\n        /* \"#utility.yul\":4701:4706   */\n      dup4\n        /* \"#utility.yul\":4697:4713   */\n      add\n        /* \"#utility.yul\":4691:4714   */\n      mload\n        /* \"#utility.yul\":4761:4764   */\n      dup5\n        /* \"#utility.yul\":4755:4759   */\n      dup3\n        /* \"#utility.yul\":4751:4765   */\n      sub\n        /* \"#utility.yul\":4744:4748   */\n      0x00\n        /* \"#utility.yul\":4739:4742   */\n      dup7\n        /* \"#utility.yul\":4735:4749   */\n      add\n        /* \"#utility.yul\":4728:4766   */\n      mstore\n        /* \"#utility.yul\":4787:4860   */\n      tag_162\n        /* \"#utility.yul\":4855:4859   */\n      dup3\n        /* \"#utility.yul\":4841:4853   */\n      dup3\n        /* \"#utility.yul\":4787:4860   */\n      tag_137\n      jump\t// in\n    tag_162:\n        /* \"#utility.yul\":4779:4860   */\n      swap2\n      pop\n        /* \"#utility.yul\":4635:4871   */\n      pop\n        /* \"#utility.yul\":4960:4964   */\n      0x20\n        /* \"#utility.yul\":4953:4958   */\n      dup4\n        /* \"#utility.yul\":4949:4965   */\n      add\n        /* \"#utility.yul\":4943:4966   */\n      mload\n        /* \"#utility.yul\":5013:5016   */\n      dup5\n        /* \"#utility.yul\":5007:5011   */\n      dup3\n        /* \"#utility.yul\":5003:5017   */\n      sub\n        /* \"#utility.yul\":4996:5000   */\n      0x20\n        /* \"#utility.yul\":4991:4994   */\n      dup7\n        /* \"#utility.yul\":4987:5001   */\n      add\n        /* \"#utility.yul\":4980:5018   */\n      mstore\n        /* \"#utility.yul\":5039:5112   */\n      tag_163\n        /* \"#utility.yul\":5107:5111   */\n      dup3\n        /* \"#utility.yul\":5093:5105   */\n      dup3\n        /* \"#utility.yul\":5039:5112   */\n      tag_137\n      jump\t// in\n    tag_163:\n        /* \"#utility.yul\":5031:5112   */\n      swap2\n      pop\n        /* \"#utility.yul\":4881:5123   */\n      pop\n        /* \"#utility.yul\":5205:5209   */\n      0x40\n        /* \"#utility.yul\":5198:5203   */\n      dup4\n        /* \"#utility.yul\":5194:5210   */\n      add\n        /* \"#utility.yul\":5188:5211   */\n      mload\n        /* \"#utility.yul\":5224:5287   */\n      tag_164\n        /* \"#utility.yul\":5281:5285   */\n      0x40\n        /* \"#utility.yul\":5276:5279   */\n      dup7\n        /* \"#utility.yul\":5272:5286   */\n      add\n        /* \"#utility.yul\":5258:5270   */\n      dup3\n        /* \"#utility.yul\":5224:5287   */\n      tag_130\n      jump\t// in\n    tag_164:\n        /* \"#utility.yul\":5133:5297   */\n      pop\n        /* \"#utility.yul\":5314:5318   */\n      dup1\n        /* \"#utility.yul\":5307:5318   */\n      swap2\n      pop\n        /* \"#utility.yul\":4589:5324   */\n      pop\n        /* \"#utility.yul\":4475:5324   */\n      swap3\n      swap2\n      pop\n      pop\n      jump\t// out\n        /* \"#utility.yul\":5330:5448   */\n    tag_165:\n        /* \"#utility.yul\":5417:5441   */\n      tag_167\n        /* \"#utility.yul\":5435:5440   */\n      dup2\n        /* \"#utility.yul\":5417:5441   */\n      tag_168\n      jump\t// in\n    tag_167:\n        /* \"#utility.yul\":5412:5415   */\n      dup3\n        /* \"#utility.yul\":5405:5442   */\n      mstore\n        /* \"#utility.yul\":5330:5448   */\n      pop\n      pop\n      jump\t// out\n        /* \"#utility.yul\":5454:5729   */\n    tag_42:\n        /* \"#utility.yul\":5586:5589   */\n      0x00\n        /* \"#utility.yul\":5608:5703   */\n      tag_170\n        /* \"#utility.yul\":5699:5702   */\n      dup3\n        /* \"#utility.yul\":5690:5696   */\n      dup5\n        /* \"#utility.yul\":5608:5703   */\n      tag_154\n      jump\t// in\n    tag_170:\n        /* \"#utility.yul\":5601:5703   */\n      swap2\n      pop\n        /* \"#utility.yul\":5720:5723   */\n      dup2\n        /* \"#utility.yul\":5713:5723   */\n      swap1\n      pop\n        /* \"#utility.yul\":5454:5729   */\n      swap3\n      swap2\n      pop\n      pop\n      jump\t// out\n        /* \"#utility.yul\":5735:5957   */\n    tag_14:\n        /* \"#utility.yul\":5828:5832   */\n      0x00\n        /* \"#utility.yul\":5866:5868   */\n      0x20\n        /* \"#utility.yul\":5855:5864   */\n      dup3\n        /* \"#utility.yul\":5851:5869   */\n      add\n        /* \"#utility.yul\":5843:5869   */\n      swap1\n      pop\n        /* \"#utility.yul\":5879:5950   */\n      tag_172\n        /* \"#utility.yul\":5947:5948   */\n      0x00\n        /* \"#utility.yul\":5936:5945   */\n      dup4\n        /* \"#utility.yul\":5932:5949   */\n      add\n        /* \"#utility.yul\":5923:5929   */\n      dup5\n        /* \"#utility.yul\":5879:5950   */\n      tag_134\n      jump\t// in\n    tag_172:\n        /* \"#utility.yul\":5735:5957   */\n      swap3\n      swap2\n      pop\n      pop\n      jump\t// out\n        /* \"#utility.yul\":5963:6587   */\n    tag_36:\n        /* \"#utility.yul\":6152:6156   */\n      0x00\n        /* \"#utility.yul\":6190:6192   */\n      0x60\n        /* \"#utility.yul\":6179:6188   */\n      dup3\n        /* \"#utility.yul\":6175:6193   */\n      add\n        /* \"#utility.yul\":6167:6193   */\n      swap1\n      pop\n        /* \"#utility.yul\":6239:6248   */\n      dup2\n        /* \"#utility.yul\":6233:6237   */\n      dup2\n        /* \"#utility.yul\":6229:6249   */\n      sub\n        /* \"#utility.yul\":6225:6226   */\n      0x00\n        /* \"#utility.yul\":6214:6223   */\n      dup4\n        /* \"#utility.yul\":6210:6227   */\n      add\n        /* \"#utility.yul\":6203:6250   */\n      mstore\n        /* \"#utility.yul\":6267:6345   */\n      tag_174\n        /* \"#utility.yul\":6340:6344   */\n      dup2\n        /* \"#utility.yul\":6331:6337   */\n      dup7\n        /* \"#utility.yul\":6267:6345   */\n      tag_147\n      jump\t// in\n    tag_174:\n        /* \"#utility.yul\":6259:6345   */\n      swap1\n      pop\n        /* \"#utility.yul\":6392:6401   */\n      dup2\n        /* \"#utility.yul\":6386:6390   */\n      dup2\n        /* \"#utility.yul\":6382:6402   */\n      sub\n        /* \"#utility.yul\":6377:6379   */\n      0x20\n        /* \"#utility.yul\":6366:6375   */\n      dup4\n        /* \"#utility.yul\":6362:6380   */\n      add\n        /* \"#utility.yul\":6355:6403   */\n      mstore\n        /* \"#utility.yul\":6420:6498   */\n      tag_175\n        /* \"#utility.yul\":6493:6497   */\n      dup2\n        /* \"#utility.yul\":6484:6490   */\n      dup6\n        /* \"#utility.yul\":6420:6498   */\n      tag_147\n      jump\t// in\n    tag_175:\n        /* \"#utility.yul\":6412:6498   */\n      swap1\n      pop\n        /* \"#utility.yul\":6508:6580   */\n      tag_176\n        /* \"#utility.yul\":6576:6578   */\n      0x40\n        /* \"#utility.yul\":6565:6574   */\n      dup4\n        /* \"#utility.yul\":6561:6579   */\n      add\n        /* \"#utility.yul\":6552:6558   */\n      dup5\n        /* \"#utility.yul\":6508:6580   */\n      tag_134\n      jump\t// in\n    tag_176:\n        /* \"#utility.yul\":5963:6587   */\n      swap5\n      swap4\n      pop\n      pop\n      pop\n      pop\n      jump\t// out\n        /* \"#utility.yul\":6593:6946   */\n    tag_31:\n        /* \"#utility.yul\":6726:6730   */\n      0x00\n        /* \"#utility.yul\":6764:6766   */\n      0x20\n        /* \"#utility.yul\":6753:6762   */\n      dup3\n        /* \"#utility.yul\":6749:6767   */\n      add\n        /* \"#utility.yul\":6741:6767   */\n      swap1\n      pop\n        /* \"#utility.yul\":6813:6822   */\n      dup2\n        /* \"#utility.yul\":6807:6811   */\n      dup2\n        /* \"#utility.yul\":6803:6823   */\n      sub\n        /* \"#utility.yul\":6799:6800   */\n      0x00\n        /* \"#utility.yul\":6788:6797   */\n      dup4\n        /* \"#utility.yul\":6784:6801   */\n      add\n        /* \"#utility.yul\":6777:6824   */\n      mstore\n        /* \"#utility.yul\":6841:6939   */\n      tag_178\n        /* \"#utility.yul\":6934:6938   */\n      dup2\n        /* \"#utility.yul\":6925:6931   */\n      dup5\n        /* \"#utility.yul\":6841:6939   */\n      tag_160\n      jump\t// in\n    tag_178:\n        /* \"#utility.yul\":6833:6939   */\n      swap1\n      pop\n        /* \"#utility.yul\":6593:6946   */\n      swap3\n      swap2\n      pop\n      pop\n      jump\t// out\n        /* \"#utility.yul\":6952:7174   */\n    tag_22:\n        /* \"#utility.yul\":7045:7049   */\n      0x00\n        /* \"#utility.yul\":7083:7085   */\n      0x20\n        /* \"#utility.yul\":7072:7081   */\n      dup3\n        /* \"#utility.yul\":7068:7086   */\n      add\n        /* \"#utility.yul\":7060:7086   */\n      swap1\n      pop\n        /* \"#utility.yul\":7096:7167   */\n      tag_180\n        /* \"#utility.yul\":7164:7165   */\n      0x00\n        /* \"#utility.yul\":7153:7162   */\n      dup4\n        /* \"#utility.yul\":7149:7166   */\n      add\n        /* \"#utility.yul\":7140:7146   */\n      dup5\n        /* \"#utility.yul\":7096:7167   */\n      tag_165\n      jump\t// in\n    tag_180:\n        /* \"#utility.yul\":6952:7174   */\n      swap3\n      swap2\n      pop\n      pop\n      jump\t// out\n        /* \"#utility.yul\":7180:7309   */\n    tag_89:\n        /* \"#utility.yul\":7214:7220   */\n      0x00\n        /* \"#utility.yul\":7241:7261   */\n      tag_182\n      tag_183\n      jump\t// in\n    tag_182:\n        /* \"#utility.yul\":7231:7261   */\n      swap1\n      pop\n        /* \"#utility.yul\":7270:7303   */\n      tag_184\n        /* \"#utility.yul\":7298:7302   */\n      dup3\n        /* \"#utility.yul\":7290:7296   */\n      dup3\n        /* \"#utility.yul\":7270:7303   */\n      tag_185\n      jump\t// in\n    tag_184:\n        /* \"#utility.yul\":7180:7309   */\n      swap2\n      swap1\n      pop\n      jump\t// out\n        /* \"#utility.yul\":7315:7390   */\n    tag_183:\n        /* \"#utility.yul\":7348:7354   */\n      0x00\n        /* \"#utility.yul\":7381:7383   */\n      0x40\n        /* \"#utility.yul\":7375:7384   */\n      mload\n        /* \"#utility.yul\":7365:7384   */\n      swap1\n      pop\n        /* \"#utility.yul\":7315:7390   */\n      swap1\n      jump\t// out\n        /* \"#utility.yul\":7396:7704   */\n    tag_88:\n        /* \"#utility.yul\":7458:7462   */\n      0x00\n        /* \"#utility.yul\":7548:7566   */\n      0xffffffffffffffff\n        /* \"#utility.yul\":7540:7546   */\n      dup3\n        /* \"#utility.yul\":7537:7567   */\n      gt\n        /* \"#utility.yul\":7534:7590   */\n      iszero\n      tag_188\n      jumpi\n        /* \"#utility.yul\":7570:7588   */\n      tag_189\n      tag_190\n      jump\t// in\n    tag_189:\n        /* \"#utility.yul\":7534:7590   */\n    tag_188:\n        /* \"#utility.yul\":7608:7637   */\n      tag_191\n        /* \"#utility.yul\":7630:7636   */\n      dup3\n        /* \"#utility.yul\":7608:7637   */\n      tag_146\n      jump\t// in\n    tag_191:\n        /* \"#utility.yul\":7600:7637   */\n      swap1\n      pop\n        /* \"#utility.yul\":7692:7696   */\n      0x20\n        /* \"#utility.yul\":7686:7690   */\n      dup2\n        /* \"#utility.yul\":7682:7697   */\n      add\n        /* \"#utility.yul\":7674:7697   */\n      swap1\n      pop\n        /* \"#utility.yul\":7396:7704   */\n      swap2\n      swap1\n      pop\n      jump\t// out\n        /* \"#utility.yul\":7710:7809   */\n    tag_140:\n        /* \"#utility.yul\":7762:7768   */\n      0x00\n        /* \"#utility.yul\":7796:7801   */\n      dup2\n        /* \"#utility.yul\":7790:7802   */\n      mload\n        /* \"#utility.yul\":7780:7802   */\n      swap1\n      pop\n        /* \"#utility.yul\":7710:7809   */\n      swap2\n      swap1\n      pop\n      jump\t// out\n        /* \"#utility.yul\":7815:7974   */\n    tag_142:\n        /* \"#utility.yul\":7889:7900   */\n      0x00\n        /* \"#utility.yul\":7923:7929   */\n      dup3\n        /* \"#utility.yul\":7918:7921   */\n      dup3\n        /* \"#utility.yul\":7911:7930   */\n      mstore\n        /* \"#utility.yul\":7963:7967   */\n      0x20\n        /* \"#utility.yul\":7958:7961   */\n      dup3\n        /* \"#utility.yul\":7954:7968   */\n      add\n        /* \"#utility.yul\":7939:7968   */\n      swap1\n      pop\n        /* \"#utility.yul\":7815:7974   */\n      swap3\n      swap2\n      pop\n      pop\n      jump\t// out\n        /* \"#utility.yul\":7980:8149   */\n    tag_151:\n        /* \"#utility.yul\":8064:8075   */\n      0x00\n        /* \"#utility.yul\":8098:8104   */\n      dup3\n        /* \"#utility.yul\":8093:8096   */\n      dup3\n        /* \"#utility.yul\":8086:8105   */\n      mstore\n        /* \"#utility.yul\":8138:8142   */\n      0x20\n        /* \"#utility.yul\":8133:8136   */\n      dup3\n        /* \"#utility.yul\":8129:8143   */\n      add\n        /* \"#utility.yul\":8114:8143   */\n      swap1\n      pop\n        /* \"#utility.yul\":7980:8149   */\n      swap3\n      swap2\n      pop\n      pop\n      jump\t// out\n        /* \"#utility.yul\":8155:8303   */\n    tag_158:\n        /* \"#utility.yul\":8257:8268   */\n      0x00\n        /* \"#utility.yul\":8294:8297   */\n      dup2\n        /* \"#utility.yul\":8279:8297   */\n      swap1\n      pop\n        /* \"#utility.yul\":8155:8303   */\n      swap3\n      swap2\n      pop\n      pop\n      jump\t// out\n        /* \"#utility.yul\":8309:8405   */\n    tag_133:\n        /* \"#utility.yul\":8346:8353   */\n      0x00\n        /* \"#utility.yul\":8375:8399   */\n      tag_197\n        /* \"#utility.yul\":8393:8398   */\n      dup3\n        /* \"#utility.yul\":8375:8399   */\n      tag_198\n      jump\t// in\n    tag_197:\n        /* \"#utility.yul\":8364:8399   */\n      swap1\n      pop\n        /* \"#utility.yul\":8309:8405   */\n      swap2\n      swap1\n      pop\n      jump\t// out\n        /* \"#utility.yul\":8411:8537   */\n    tag_198:\n        /* \"#utility.yul\":8448:8455   */\n      0x00\n        /* \"#utility.yul\":8488:8530   */\n      0xffffffffffffffffffffffffffffffffffffffff\n        /* \"#utility.yul\":8481:8486   */\n      dup3\n        /* \"#utility.yul\":8477:8531   */\n      and\n        /* \"#utility.yul\":8466:8531   */\n      swap1\n      pop\n        /* \"#utility.yul\":8411:8537   */\n      swap2\n      swap1\n      pop\n      jump\t// out\n        /* \"#utility.yul\":8543:8620   */\n    tag_168:\n        /* \"#utility.yul\":8580:8587   */\n      0x00\n        /* \"#utility.yul\":8609:8614   */\n      dup2\n        /* \"#utility.yul\":8598:8614   */\n      swap1\n      pop\n        /* \"#utility.yul\":8543:8620   */\n      swap2\n      swap1\n      pop\n      jump\t// out\n        /* \"#utility.yul\":8626:8780   */\n    tag_94:\n        /* \"#utility.yul\":8710:8716   */\n      dup3\n        /* \"#utility.yul\":8705:8708   */\n      dup2\n        /* \"#utility.yul\":8700:8703   */\n      dup4\n        /* \"#utility.yul\":8687:8717   */\n      calldatacopy\n        /* \"#utility.yul\":8772:8773   */\n      0x00\n        /* \"#utility.yul\":8763:8769   */\n      dup4\n        /* \"#utility.yul\":8758:8761   */\n      dup4\n        /* \"#utility.yul\":8754:8770   */\n      add\n        /* \"#utility.yul\":8747:8774   */\n      mstore\n        /* \"#utility.yul\":8626:8780   */\n      pop\n      pop\n      pop\n      jump\t// out\n        /* \"#utility.yul\":8786:9093   */\n    tag_144:\n        /* \"#utility.yul\":8854:8855   */\n      0x00\n        /* \"#utility.yul\":8864:8977   */\n    tag_203:\n        /* \"#utility.yul\":8878:8884   */\n      dup4\n        /* \"#utility.yul\":8875:8876   */\n      dup2\n        /* \"#utility.yul\":8872:8885   */\n      lt\n        /* \"#utility.yul\":8864:8977   */\n      iszero\n      tag_205\n      jumpi\n        /* \"#utility.yul\":8963:8964   */\n      dup1\n        /* \"#utility.yul\":8958:8961   */\n      dup3\n        /* \"#utility.yul\":8954:8965   */\n      add\n        /* \"#utility.yul\":8948:8966   */\n      mload\n        /* \"#utility.yul\":8944:8945   */\n      dup2\n        /* \"#utility.yul\":8939:8942   */\n      dup5\n        /* \"#utility.yul\":8935:8946   */\n      add\n        /* \"#utility.yul\":8928:8967   */\n      mstore\n        /* \"#utility.yul\":8900:8902   */\n      0x20\n        /* \"#utility.yul\":8897:8898   */\n      dup2\n        /* \"#utility.yul\":8893:8903   */\n      add\n        /* \"#utility.yul\":8888:8903   */\n      swap1\n      pop\n        /* \"#utility.yul\":8864:8977   */\n      jump(tag_203)\n    tag_205:\n        /* \"#utility.yul\":8995:9001   */\n      dup4\n        /* \"#utility.yul\":8992:8993   */\n      dup2\n        /* \"#utility.yul\":8989:9002   */\n      gt\n        /* \"#utility.yul\":8986:9087   */\n      iszero\n      tag_206\n      jumpi\n        /* \"#utility.yul\":9075:9076   */\n      0x00\n        /* \"#utility.yul\":9066:9072   */\n      dup5\n        /* \"#utility.yul\":9061:9064   */\n      dup5\n        /* \"#utility.yul\":9057:9073   */\n      add\n        /* \"#utility.yul\":9050:9077   */\n      mstore\n        /* \"#utility.yul\":8986:9087   */\n    tag_206:\n        /* \"#utility.yul\":8835:9093   */\n      pop\n        /* \"#utility.yul\":8786:9093   */\n      pop\n      pop\n      pop\n      jump\t// out\n        /* \"#utility.yul\":9099:9419   */\n    tag_53:\n        /* \"#utility.yul\":9143:9149   */\n      0x00\n        /* \"#utility.yul\":9180:9181   */\n      0x02\n        /* \"#utility.yul\":9174:9178   */\n      dup3\n        /* \"#utility.yul\":9170:9182   */\n      div\n        /* \"#utility.yul\":9160:9182   */\n      swap1\n      pop\n        /* \"#utility.yul\":9227:9228   */\n      0x01\n        /* \"#utility.yul\":9221:9225   */\n      dup3\n        /* \"#utility.yul\":9217:9229   */\n      and\n        /* \"#utility.yul\":9248:9266   */\n      dup1\n        /* \"#utility.yul\":9238:9319   */\n      tag_208\n      jumpi\n        /* \"#utility.yul\":9304:9308   */\n      0x7f\n        /* \"#utility.yul\":9296:9302   */\n      dup3\n        /* \"#utility.yul\":9292:9309   */\n      and\n        /* \"#utility.yul\":9282:9309   */\n      swap2\n      pop\n        /* \"#utility.yul\":9238:9319   */\n    tag_208:\n        /* \"#utility.yul\":9366:9368   */\n      0x20\n        /* \"#utility.yul\":9358:9364   */\n      dup3\n        /* \"#utility.yul\":9355:9369   */\n      lt\n        /* \"#utility.yul\":9335:9353   */\n      dup2\n        /* \"#utility.yul\":9332:9370   */\n      eq\n        /* \"#utility.yul\":9329:9413   */\n      iszero\n      tag_209\n      jumpi\n        /* \"#utility.yul\":9385:9403   */\n      tag_210\n      tag_211\n      jump\t// in\n    tag_210:\n        /* \"#utility.yul\":9329:9413   */\n    tag_209:\n        /* \"#utility.yul\":9150:9419   */\n      pop\n        /* \"#utility.yul\":9099:9419   */\n      swap2\n      swap1\n      pop\n      jump\t// out\n        /* \"#utility.yul\":9425:9706   */\n    tag_185:\n        /* \"#utility.yul\":9508:9535   */\n      tag_213\n        /* \"#utility.yul\":9530:9534   */\n      dup3\n        /* \"#utility.yul\":9508:9535   */\n      tag_146\n      jump\t// in\n    tag_213:\n        /* \"#utility.yul\":9500:9506   */\n      dup2\n        /* \"#utility.yul\":9496:9536   */\n      add\n        /* \"#utility.yul\":9638:9644   */\n      dup2\n        /* \"#utility.yul\":9626:9636   */\n      dup2\n        /* \"#utility.yul\":9623:9645   */\n      lt\n        /* \"#utility.yul\":9602:9620   */\n      0xffffffffffffffff\n        /* \"#utility.yul\":9590:9600   */\n      dup3\n        /* \"#utility.yul\":9587:9621   */\n      gt\n        /* \"#utility.yul\":9584:9646   */\n      or\n        /* \"#utility.yul\":9581:9669   */\n      iszero\n      tag_214\n      jumpi\n        /* \"#utility.yul\":9649:9667   */\n      tag_215\n      tag_190\n      jump\t// in\n    tag_215:\n        /* \"#utility.yul\":9581:9669   */\n    tag_214:\n        /* \"#utility.yul\":9689:9699   */\n      dup1\n        /* \"#utility.yul\":9685:9687   */\n      0x40\n        /* \"#utility.yul\":9678:9700   */\n      mstore\n        /* \"#utility.yul\":9468:9706   */\n      pop\n        /* \"#utility.yul\":9425:9706   */\n      pop\n      pop\n      jump\t// out\n        /* \"#utility.yul\":9712:9945   */\n    tag_45:\n        /* \"#utility.yul\":9751:9754   */\n      0x00\n        /* \"#utility.yul\":9774:9798   */\n      tag_217\n        /* \"#utility.yul\":9792:9797   */\n      dup3\n        /* \"#utility.yul\":9774:9798   */\n      tag_168\n      jump\t// in\n    tag_217:\n        /* \"#utility.yul\":9765:9798   */\n      swap2\n      pop\n        /* \"#utility.yul\":9820:9886   */\n      0xffffffffffffffffffffffffffffffffffffffffffffffffffffffffffffffff\n        /* \"#utility.yul\":9813:9818   */\n      dup3\n        /* \"#utility.yul\":9810:9887   */\n      eq\n        /* \"#utility.yul\":9807:9910   */\n      iszero\n      tag_218\n      jumpi\n        /* \"#utility.yul\":9890:9908   */\n      tag_219\n      tag_220\n      jump\t// in\n    tag_219:\n        /* \"#utility.yul\":9807:9910   */\n    tag_218:\n        /* \"#utility.yul\":9937:9938   */\n      0x01\n        /* \"#utility.yul\":9930:9935   */\n      dup3\n        /* \"#utility.yul\":9926:9939   */\n      add\n        /* \"#utility.yul\":9919:9939   */\n      swap1\n      pop\n        /* \"#utility.yul\":9712:9945   */\n      swap2\n      swap1\n      pop\n      jump\t// out\n        /* \"#utility.yul\":9951:10131   */\n    tag_220:\n        /* \"#utility.yul\":9999:10076   */\n      0x4e487b7100000000000000000000000000000000000000000000000000000000\n        /* \"#utility.yul\":9996:9997   */\n      0x00\n        /* \"#utility.yul\":9989:10077   */\n      mstore\n        /* \"#utility.yul\":10096:10100   */\n      0x11\n        /* \"#utility.yul\":10093:10094   */\n      0x04\n        /* \"#utility.yul\":10086:10101   */\n      mstore\n        /* \"#utility.yul\":10120:10124   */\n      0x24\n        /* \"#utility.yul\":10117:10118   */\n      0x00\n        /* \"#utility.yul\":10110:10125   */\n      revert\n        /* \"#utility.yul\":10137:10317   */\n    tag_211:\n        /* \"#utility.yul\":10185:10262   */\n      0x4e487b7100000000000000000000000000000000000000000000000000000000\n        /* \"#utility.yul\":10182:10183   */\n      0x00\n        /* \"#utility.yul\":10175:10263   */\n      mstore\n        /* \"#utility.yul\":10282:10286   */\n      0x22\n        /* \"#utility.yul\":10279:10280   */\n      0x04\n        /* \"#utility.yul\":10272:10287   */\n      mstore\n        /* \"#utility.yul\":10306:10310   */\n      0x24\n        /* \"#utility.yul\":10303:10304   */\n      0x00\n        /* \"#utility.yul\":10296:10311   */\n      revert\n        /* \"#utility.yul\":10323:10503   */\n    tag_190:\n        /* \"#utility.yul\":10371:10448   */\n      0x4e487b7100000000000000000000000000000000000000000000000000000000\n        /* \"#utility.yul\":10368:10369   */\n      0x00\n        /* \"#utility.yul\":10361:10449   */\n      mstore\n        /* \"#utility.yul\":10468:10472   */\n      0x41\n        /* \"#utility.yul\":10465:10466   */\n      0x04\n        /* \"#utility.yul\":10458:10473   */\n      mstore\n        /* \"#utility.yul\":10492:10496   */\n      0x24\n        /* \"#utility.yul\":10489:10490   */\n      0x00\n        /* \"#utility.yul\":10482:10497   */\n      revert\n        /* \"#utility.yul\":10509:10626   */\n    tag_99:\n        /* \"#utility.yul\":10618:10619   */\n      0x00\n        /* \"#utility.yul\":10615:10616   */\n      dup1\n        /* \"#utility.yul\":10608:10620   */\n      revert\n        /* \"#utility.yul\":10632:10749   */\n    tag_92:\n        /* \"#utility.yul\":10741:10742   */\n      0x00\n        /* \"#utility.yul\":10738:10739   */\n      dup1\n        /* \"#utility.yul\":10731:10743   */\n      revert\n        /* \"#utility.yul\":10755:10872   */\n    tag_111:\n        /* \"#utility.yul\":10864:10865   */\n      0x00\n        /* \"#utility.yul\":10861:10862   */\n      dup1\n        /* \"#utility.yul\":10854:10866   */\n      revert\n        /* \"#utility.yul\":10878:10995   */\n    tag_108:\n        /* \"#utility.yul\":10987:10988   */\n      0x00\n        /* \"#utility.yul\":10984:10985   */\n      dup1\n        /* \"#utility.yul\":10977:10989   */\n      revert\n        /* \"#utility.yul\":11001:11103   */\n    tag_146:\n        /* \"#utility.yul\":11042:11048   */\n      0x00\n        /* \"#utility.yul\":11093:11095   */\n      0x1f\n        /* \"#utility.yul\":11089:11096   */\n      not\n        /* \"#utility.yul\":11084:11086   */\n      0x1f\n        /* \"#utility.yul\":11077:11082   */\n      dup4\n        /* \"#utility.yul\":11073:11087   */\n      add\n        /* \"#utility.yul\":11069:11097   */\n      and\n        /* \"#utility.yul\":11059:11097   */\n      swap1\n      pop\n        /* \"#utility.yul\":11001:11103   */\n      swap2\n      swap1\n      pop\n      jump\t// out\n        /* \"#utility.yul\":11109:11231   */\n    tag_104:\n        /* \"#utility.yul\":11182:11206   */\n      tag_230\n        /* \"#utility.yul\":11200:11205   */\n      dup2\n        /* \"#utility.yul\":11182:11206   */\n      tag_168\n      jump\t// in\n    tag_230:\n        /* \"#utility.yul\":11175:11180   */\n      dup2\n        /* \"#utility.yul\":11172:11207   */\n      eq\n        /* \"#utility.yul\":11162:11225   */\n      tag_231\n      jumpi\n        /* \"#utility.yul\":11221:11222   */\n      0x00\n        /* \"#utility.yul\":11218:11219   */\n      dup1\n        /* \"#utility.yul\":11211:11223   */\n      revert\n        /* \"#utility.yul\":11162:11225   */\n    tag_231:\n        /* \"#utility.yul\":11109:11231   */\n      pop\n      jump\t// out\n\n    auxdata: 0xa2646970667358221220f951979bc1984b59e7217ec8fa79f0e2eb9f4ea6f6a57c27d763e1973ff900b664736f6c63430008070033\n}\n",
				"bytecode": {
					"linkReferences": {},
					"object": "60806040526000805534801561001457600080fd5b50610dca806100246000396000f3fe608060405234801561001057600080fd5b50600436106100625760003560e01c80630b1e7f8314610067578063392338f51461009757806361bc221a146100b357806366d1cac9146100d1578063ca6f69f5146100ed578063fdd6ea711461011d575b600080fd5b610081600480360381019061007c9190610880565b61014f565b60405161008e9190610a76565b60405180910390f35b6100b160048036038101906100ac9190610808565b610182565b005b6100bb6102d5565b6040516100c89190610af8565b60405180910390f35b6100eb60048036038101906100e691906108ad565b6102db565b005b61010760048036038101906101029190610880565b6103a8565b6040516101149190610ad6565b60405180910390f35b61013760048036038101906101329190610880565b61054f565b60405161014693929190610a91565b60405180910390f35b60016020528060005260406000206000915054906101000a900473ffffffffffffffffffffffffffffffffffffffff1681565b60405180606001604052808381526020018281526020013373ffffffffffffffffffffffffffffffffffffffff16815250600260008054815260200190815260200160002060008201518160000190805190602001906101e39291906106a9565b5060208201518160010190805190602001906102009291906106a9565b5060408201518160020160006101000a81548173ffffffffffffffffffffffffffffffffffffffff021916908373ffffffffffffffffffffffffffffffffffffffff160217905550905050806040516102599190610a5f565b60405180910390208260405161026f9190610a5f565b60405180910390203373ffffffffffffffffffffffffffffffffffffffff167f4eacffc497062f11928adc3628e2047cd720623235f6f37529db1d95cc75ecbf60405160405180910390a46000808154809291906102cc90610c82565b91905055505050565b60005481565b60405180606001604052808381526020018281526020013373ffffffffffffffffffffffffffffffffffffffff1681525060026000858152602001908152602001600020600082015181600001908051906020019061033b9291906106a9565b5060208201518160010190805190602001906103589291906106a9565b5060408201518160020160006101000a81548173ffffffffffffffffffffffffffffffffffffffff021916908373ffffffffffffffffffffffffffffffffffffffff160217905550905050505050565b6103b061072f565b600260008381526020019081526020016000206040518060600160405290816000820180546103de90610c1f565b80601f016020809104026020016040519081016040528092919081815260200182805461040a90610c1f565b80156104575780601f1061042c57610100808354040283529160200191610457565b820191906000526020600020905b81548152906001019060200180831161043a57829003601f168201915b5050505050815260200160018201805461047090610c1f565b80601f016020809104026020016040519081016040528092919081815260200182805461049c90610c1f565b80156104e95780601f106104be576101008083540402835291602001916104e9565b820191906000526020600020905b8154815290600101906020018083116104cc57829003601f168201915b505050505081526020016002820160009054906101000a900473ffffffffffffffffffffffffffffffffffffffff1673ffffffffffffffffffffffffffffffffffffffff1673ffffffffffffffffffffffffffffffffffffffff16815250509050919050565b600260205280600052604060002060009150905080600001805461057290610c1f565b80601f016020809104026020016040519081016040528092919081815260200182805461059e90610c1f565b80156105eb5780601f106105c0576101008083540402835291602001916105eb565b820191906000526020600020905b8154815290600101906020018083116105ce57829003601f168201915b50505050509080600101805461060090610c1f565b80601f016020809104026020016040519081016040528092919081815260200182805461062c90610c1f565b80156106795780601f1061064e57610100808354040283529160200191610679565b820191906000526020600020905b81548152906001019060200180831161065c57829003601f168201915b5050505050908060020160009054906101000a900473ffffffffffffffffffffffffffffffffffffffff16905083565b8280546106b590610c1f565b90600052602060002090601f0160209004810192826106d7576000855561071e565b82601f106106f057805160ff191683800117855561071e565b8280016001018555821561071e579182015b8281111561071d578251825591602001919060010190610702565b5b50905061072b9190610766565b5090565b60405180606001604052806060815260200160608152602001600073ffffffffffffffffffffffffffffffffffffffff1681525090565b5b8082111561077f576000816000905550600101610767565b5090565b600061079661079184610b38565b610b13565b9050828152602081018484840111156107b2576107b1610d5d565b5b6107bd848285610bdd565b509392505050565b600082601f8301126107da576107d9610d58565b5b81356107ea848260208601610783565b91505092915050565b60008135905061080281610d7d565b92915050565b6000806040838503121561081f5761081e610d67565b5b600083013567ffffffffffffffff81111561083d5761083c610d62565b5b610849858286016107c5565b925050602083013567ffffffffffffffff81111561086a57610869610d62565b5b610876858286016107c5565b9150509250929050565b60006020828403121561089657610895610d67565b5b60006108a4848285016107f3565b91505092915050565b6000806000606084860312156108c6576108c5610d67565b5b60006108d4868287016107f3565b935050602084013567ffffffffffffffff8111156108f5576108f4610d62565b5b610901868287016107c5565b925050604084013567ffffffffffffffff81111561092257610921610d62565b5b61092e868287016107c5565b9150509250925092565b61094181610ba1565b82525050565b61095081610ba1565b82525050565b600061096182610b69565b61096b8185610b74565b935061097b818560208601610bec565b61098481610d6c565b840191505092915050565b600061099a82610b69565b6109a48185610b85565b93506109b4818560208601610bec565b6109bd81610d6c565b840191505092915050565b60006109d382610b69565b6109dd8185610b96565b93506109ed818560208601610bec565b80840191505092915050565b60006060830160008301518482036000860152610a168282610956565b91505060208301518482036020860152610a308282610956565b9150506040830151610a456040860182610938565b508091505092915050565b610a5981610bd3565b82525050565b6000610a6b82846109c8565b915081905092915050565b6000602082019050610a8b6000830184610947565b92915050565b60006060820190508181036000830152610aab818661098f565b90508181036020830152610abf818561098f565b9050610ace6040830184610947565b949350505050565b60006020820190508181036000830152610af081846109f9565b905092915050565b6000602082019050610b0d6000830184610a50565b92915050565b6000610b1d610b2e565b9050610b298282610c51565b919050565b6000604051905090565b600067ffffffffffffffff821115610b5357610b52610d29565b5b610b5c82610d6c565b9050602081019050919050565b600081519050919050565b600082825260208201905092915050565b600082825260208201905092915050565b600081905092915050565b6000610bac82610bb3565b9050919050565b600073ffffffffffffffffffffffffffffffffffffffff82169050919050565b6000819050919050565b82818337600083830152505050565b60005b83811015610c0a578082015181840152602081019050610bef565b83811115610c19576000848401525b50505050565b60006002820490506001821680610c3757607f821691505b60208210811415610c4b57610c4a610cfa565b5b50919050565b610c5a82610d6c565b810181811067ffffffffffffffff82111715610c7957610c78610d29565b5b80604052505050565b6000610c8d82610bd3565b91507fffffffffffffffffffffffffffffffffffffffffffffffffffffffffffffffff821415610cc057610cbf610ccb565b5b600182019050919050565b7f4e487b7100000000000000000000000000000000000000000000000000000000600052601160045260246000fd5b7f4e487b7100000000000000000000000000000000000000000000000000000000600052602260045260246000fd5b7f4e487b7100000000000000000000000000000000000000000000000000000000600052604160045260246000fd5b600080fd5b600080fd5b600080fd5b600080fd5b6000601f19601f8301169050919050565b610d8681610bd3565b8114610d9157600080fd5b5056fea2646970667358221220f951979bc1984b59e7217ec8fa79f0e2eb9f4ea6f6a57c27d763e1973ff900b664736f6c63430008070033",
					"opcodes": "PUSH1 0x80 PUSH1 0x40 MSTORE PUSH1 0x0 DUP1 SSTORE CALLVALUE DUP1 ISZERO PUSH2 0x14 JUMPI PUSH1 0x0 DUP1 REVERT JUMPDEST POP PUSH2 0xDCA DUP1 PUSH2 0x24 PUSH1 0x0 CODECOPY PUSH1 0x0 RETURN INVALID PUSH1 0x80 PUSH1 0x40 MSTORE CALLVALUE DUP1 ISZERO PUSH2 0x10 JUMPI PUSH1 0x0 DUP1 REVERT JUMPDEST POP PUSH1 0x4 CALLDATASIZE LT PUSH2 0x62 JUMPI PUSH1 0x0 CALLDATALOAD PUSH1 0xE0 SHR DUP1 PUSH4 0xB1E7F83 EQ PUSH2 0x67 JUMPI DUP1 PUSH4 0x392338F5 EQ PUSH2 0x97 JUMPI DUP1 PUSH4 0x61BC221A EQ PUSH2 0xB3 JUMPI DUP1 PUSH4 0x66D1CAC9 EQ PUSH2 0xD1 JUMPI DUP1 PUSH4 0xCA6F69F5 EQ PUSH2 0xED JUMPI DUP1 PUSH4 0xFDD6EA71 EQ PUSH2 0x11D JUMPI JUMPDEST PUSH1 0x0 DUP1 REVERT JUMPDEST PUSH2 0x81 PUSH1 0x4 DUP1 CALLDATASIZE SUB DUP2 ADD SWAP1 PUSH2 0x7C SWAP2 SWAP1 PUSH2 0x880 JUMP JUMPDEST PUSH2 0x14F JUMP JUMPDEST PUSH1 0x40 MLOAD PUSH2 0x8E SWAP2 SWAP1 PUSH2 0xA76 JUMP JUMPDEST PUSH1 0x40 MLOAD DUP1 SWAP2 SUB SWAP1 RETURN JUMPDEST PUSH2 0xB1 PUSH1 0x4 DUP1 CALLDATASIZE SUB DUP2 ADD SWAP1 PUSH2 0xAC SWAP2 SWAP1 PUSH2 0x808 JUMP JUMPDEST PUSH2 0x182 JUMP JUMPDEST STOP JUMPDEST PUSH2 0xBB PUSH2 0x2D5 JUMP JUMPDEST PUSH1 0x40 MLOAD PUSH2 0xC8 SWAP2 SWAP1 PUSH2 0xAF8 JUMP JUMPDEST PUSH1 0x40 MLOAD DUP1 SWAP2 SUB SWAP1 RETURN JUMPDEST PUSH2 0xEB PUSH1 0x4 DUP1 CALLDATASIZE SUB DUP2 ADD SWAP1 PUSH2 0xE6 SWAP2 SWAP1 PUSH2 0x8AD JUMP JUMPDEST PUSH2 0x2DB JUMP JUMPDEST STOP JUMPDEST PUSH2 0x107 PUSH1 0x4 DUP1 CALLDATASIZE SUB DUP2 ADD SWAP1 PUSH2 0x102 SWAP2 SWAP1 PUSH2 0x880 JUMP JUMPDEST PUSH2 0x3A8 JUMP JUMPDEST PUSH1 0x40 MLOAD PUSH2 0x114 SWAP2 SWAP1 PUSH2 0xAD6 JUMP JUMPDEST PUSH1 0x40 MLOAD DUP1 SWAP2 SUB SWAP1 RETURN JUMPDEST PUSH2 0x137 PUSH1 0x4 DUP1 CALLDATASIZE SUB DUP2 ADD SWAP1 PUSH2 0x132 SWAP2 SWAP1 PUSH2 0x880 JUMP JUMPDEST PUSH2 0x54F JUMP JUMPDEST PUSH1 0x40 MLOAD PUSH2 0x146 SWAP4 SWAP3 SWAP2 SWAP1 PUSH2 0xA91 JUMP JUMPDEST PUSH1 0x40 MLOAD DUP1 SWAP2 SUB SWAP1 RETURN JUMPDEST PUSH1 0x1 PUSH1 0x20 MSTORE DUP1 PUSH1 0x0 MSTORE PUSH1 0x40 PUSH1 0x0 KECCAK256 PUSH1 0x0 SWAP2 POP SLOAD SWAP1 PUSH2 0x100 EXP SWAP1 DIV PUSH20 0xFFFFFFFFFFFFFFFFFFFFFFFFFFFFFFFFFFFFFFFF AND DUP2 JUMP JUMPDEST PUSH1 0x40 MLOAD DUP1 PUSH1 0x60 ADD PUSH1 0x40 MSTORE DUP1 DUP4 DUP2 MSTORE PUSH1 0x20 ADD DUP3 DUP2 MSTORE PUSH1 0x20 ADD CALLER PUSH20 0xFFFFFFFFFFFFFFFFFFFFFFFFFFFFFFFFFFFFFFFF AND DUP2 MSTORE POP PUSH1 0x2 PUSH1 0x0 DUP1 SLOAD DUP2 MSTORE PUSH1 0x20 ADD SWAP1 DUP2 MSTORE PUSH1 0x20 ADD PUSH1 0x0 KECCAK256 PUSH1 0x0 DUP3 ADD MLOAD DUP2 PUSH1 0x0 ADD SWAP1 DUP1 MLOAD SWAP1 PUSH1 0x20 ADD SWAP1 PUSH2 0x1E3 SWAP3 SWAP2 SWAP1 PUSH2 0x6A9 JUMP JUMPDEST POP PUSH1 0x20 DUP3 ADD MLOAD DUP2 PUSH1 0x1 ADD SWAP1 DUP1 MLOAD SWAP1 PUSH1 0x20 ADD SWAP1 PUSH2 0x200 SWAP3 SWAP2 SWAP1 PUSH2 0x6A9 JUMP JUMPDEST POP PUSH1 0x40 DUP3 ADD MLOAD DUP2 PUSH1 0x2 ADD PUSH1 0x0 PUSH2 0x100 EXP DUP2 SLOAD DUP2 PUSH20 0xFFFFFFFFFFFFFFFFFFFFFFFFFFFFFFFFFFFFFFFF MUL NOT AND SWAP1 DUP4 PUSH20 0xFFFFFFFFFFFFFFFFFFFFFFFFFFFFFFFFFFFFFFFF AND MUL OR SWAP1 SSTORE POP SWAP1 POP POP DUP1 PUSH1 0x40 MLOAD PUSH2 0x259 SWAP2 SWAP1 PUSH2 0xA5F JUMP JUMPDEST PUSH1 0x40 MLOAD DUP1 SWAP2 SUB SWAP1 KECCAK256 DUP3 PUSH1 0x40 MLOAD PUSH2 0x26F SWAP2 SWAP1 PUSH2 0xA5F JUMP JUMPDEST PUSH1 0x40 MLOAD DUP1 SWAP2 SUB SWAP1 KECCAK256 CALLER PUSH20 0xFFFFFFFFFFFFFFFFFFFFFFFFFFFFFFFFFFFFFFFF AND PUSH32 0x4EACFFC497062F11928ADC3628E2047CD720623235F6F37529DB1D95CC75ECBF PUSH1 0x40 MLOAD PUSH1 0x40 MLOAD DUP1 SWAP2 SUB SWAP1 LOG4 PUSH1 0x0 DUP1 DUP2 SLOAD DUP1 SWAP3 SWAP2 SWAP1 PUSH2 0x2CC SWAP1 PUSH2 0xC82 JUMP JUMPDEST SWAP2 SWAP1 POP SSTORE POP POP POP JUMP JUMPDEST PUSH1 0x0 SLOAD DUP2 JUMP JUMPDEST PUSH1 0x40 MLOAD DUP1 PUSH1 0x60 ADD PUSH1 0x40 MSTORE DUP1 DUP4 DUP2 MSTORE PUSH1 0x20 ADD DUP3 DUP2 MSTORE PUSH1 0x20 ADD CALLER PUSH20 0xFFFFFFFFFFFFFFFFFFFFFFFFFFFFFFFFFFFFFFFF AND DUP2 MSTORE POP PUSH1 0x2 PUSH1 0x0 DUP6 DUP2 MSTORE PUSH1 0x20 ADD SWAP1 DUP2 MSTORE PUSH1 0x20 ADD PUSH1 0x0 KECCAK256 PUSH1 0x0 DUP3 ADD MLOAD DUP2 PUSH1 0x0 ADD SWAP1 DUP1 MLOAD SWAP1 PUSH1 0x20 ADD SWAP1 PUSH2 0x33B SWAP3 SWAP2 SWAP1 PUSH2 0x6A9 JUMP JUMPDEST POP PUSH1 0x20 DUP3 ADD MLOAD DUP2 PUSH1 0x1 ADD SWAP1 DUP1 MLOAD SWAP1 PUSH1 0x20 ADD SWAP1 PUSH2 0x358 SWAP3 SWAP2 SWAP1 PUSH2 0x6A9 JUMP JUMPDEST POP PUSH1 0x40 DUP3 ADD MLOAD DUP2 PUSH1 0x2 ADD PUSH1 0x0 PUSH2 0x100 EXP DUP2 SLOAD DUP2 PUSH20 0xFFFFFFFFFFFFFFFFFFFFFFFFFFFFFFFFFFFFFFFF MUL NOT AND SWAP1 DUP4 PUSH20 0xFFFFFFFFFFFFFFFFFFFFFFFFFFFFFFFFFFFFFFFF AND MUL OR SWAP1 SSTORE POP SWAP1 POP POP POP POP POP JUMP JUMPDEST PUSH2 0x3B0 PUSH2 0x72F JUMP JUMPDEST PUSH1 0x2 PUSH1 0x0 DUP4 DUP2 MSTORE PUSH1 0x20 ADD SWAP1 DUP2 MSTORE PUSH1 0x20 ADD PUSH1 0x0 KECCAK256 PUSH1 0x40 MLOAD DUP1 PUSH1 0x60 ADD PUSH1 0x40 MSTORE SWAP1 DUP2 PUSH1 0x0 DUP3 ADD DUP1 SLOAD PUSH2 0x3DE SWAP1 PUSH2 0xC1F JUMP JUMPDEST DUP1 PUSH1 0x1F ADD PUSH1 0x20 DUP1 SWAP2 DIV MUL PUSH1 0x20 ADD PUSH1 0x40 MLOAD SWAP1 DUP2 ADD PUSH1 0x40 MSTORE DUP1 SWAP3 SWAP2 SWAP1 DUP2 DUP2 MSTORE PUSH1 0x20 ADD DUP3 DUP1 SLOAD PUSH2 0x40A SWAP1 PUSH2 0xC1F JUMP JUMPDEST DUP1 ISZERO PUSH2 0x457 JUMPI DUP1 PUSH1 0x1F LT PUSH2 0x42C JUMPI PUSH2 0x100 DUP1 DUP4 SLOAD DIV MUL DUP4 MSTORE SWAP2 PUSH1 0x20 ADD SWAP2 PUSH2 0x457 JUMP JUMPDEST DUP3 ADD SWAP2 SWAP1 PUSH1 0x0 MSTORE PUSH1 0x20 PUSH1 0x0 KECCAK256 SWAP1 JUMPDEST DUP2 SLOAD DUP2 MSTORE SWAP1 PUSH1 0x1 ADD SWAP1 PUSH1 0x20 ADD DUP1 DUP4 GT PUSH2 0x43A JUMPI DUP3 SWAP1 SUB PUSH1 0x1F AND DUP3 ADD SWAP2 JUMPDEST POP POP POP POP POP DUP2 MSTORE PUSH1 0x20 ADD PUSH1 0x1 DUP3 ADD DUP1 SLOAD PUSH2 0x470 SWAP1 PUSH2 0xC1F JUMP JUMPDEST DUP1 PUSH1 0x1F ADD PUSH1 0x20 DUP1 SWAP2 DIV MUL PUSH1 0x20 ADD PUSH1 0x40 MLOAD SWAP1 DUP2 ADD PUSH1 0x40 MSTORE DUP1 SWAP3 SWAP2 SWAP1 DUP2 DUP2 MSTORE PUSH1 0x20 ADD DUP3 DUP1 SLOAD PUSH2 0x49C SWAP1 PUSH2 0xC1F JUMP JUMPDEST DUP1 ISZERO PUSH2 0x4E9 JUMPI DUP1 PUSH1 0x1F LT PUSH2 0x4BE JUMPI PUSH2 0x100 DUP1 DUP4 SLOAD DIV MUL DUP4 MSTORE SWAP2 PUSH1 0x20 ADD SWAP2 PUSH2 0x4E9 JUMP JUMPDEST DUP3 ADD SWAP2 SWAP1 PUSH1 0x0 MSTORE PUSH1 0x20 PUSH1 0x0 KECCAK256 SWAP1 JUMPDEST DUP2 SLOAD DUP2 MSTORE SWAP1 PUSH1 0x1 ADD SWAP1 PUSH1 0x20 ADD DUP1 DUP4 GT PUSH2 0x4CC JUMPI DUP3 SWAP1 SUB PUSH1 0x1F AND DUP3 ADD SWAP2 JUMPDEST POP POP POP POP POP DUP2 MSTORE PUSH1 0x20 ADD PUSH1 0x2 DUP3 ADD PUSH1 0x0 SWAP1 SLOAD SWAP1 PUSH2 0x100 EXP SWAP1 DIV PUSH20 0xFFFFFFFFFFFFFFFFFFFFFFFFFFFFFFFFFFFFFFFF AND PUSH20 0xFFFFFFFFFFFFFFFFFFFFFFFFFFFFFFFFFFFFFFFF AND PUSH20 0xFFFFFFFFFFFFFFFFFFFFFFFFFFFFFFFFFFFFFFFF AND DUP2 MSTORE POP POP SWAP1 POP SWAP2 SWAP1 POP JUMP JUMPDEST PUSH1 0x2 PUSH1 0x20 MSTORE DUP1 PUSH1 0x0 MSTORE PUSH1 0x40 PUSH1 0x0 KECCAK256 PUSH1 0x0 SWAP2 POP SWAP1 POP DUP1 PUSH1 0x0 ADD DUP1 SLOAD PUSH2 0x572 SWAP1 PUSH2 0xC1F JUMP JUMPDEST DUP1 PUSH1 0x1F ADD PUSH1 0x20 DUP1 SWAP2 DIV MUL PUSH1 0x20 ADD PUSH1 0x40 MLOAD SWAP1 DUP2 ADD PUSH1 0x40 MSTORE DUP1 SWAP3 SWAP2 SWAP1 DUP2 DUP2 MSTORE PUSH1 0x20 ADD DUP3 DUP1 SLOAD PUSH2 0x59E SWAP1 PUSH2 0xC1F JUMP JUMPDEST DUP1 ISZERO PUSH2 0x5EB JUMPI DUP1 PUSH1 0x1F LT PUSH2 0x5C0 JUMPI PUSH2 0x100 DUP1 DUP4 SLOAD DIV MUL DUP4 MSTORE SWAP2 PUSH1 0x20 ADD SWAP2 PUSH2 0x5EB JUMP JUMPDEST DUP3 ADD SWAP2 SWAP1 PUSH1 0x0 MSTORE PUSH1 0x20 PUSH1 0x0 KECCAK256 SWAP1 JUMPDEST DUP2 SLOAD DUP2 MSTORE SWAP1 PUSH1 0x1 ADD SWAP1 PUSH1 0x20 ADD DUP1 DUP4 GT PUSH2 0x5CE JUMPI DUP3 SWAP1 SUB PUSH1 0x1F AND DUP3 ADD SWAP2 JUMPDEST POP POP POP POP POP SWAP1 DUP1 PUSH1 0x1 ADD DUP1 SLOAD PUSH2 0x600 SWAP1 PUSH2 0xC1F JUMP JUMPDEST DUP1 PUSH1 0x1F ADD PUSH1 0x20 DUP1 SWAP2 DIV MUL PUSH1 0x20 ADD PUSH1 0x40 MLOAD SWAP1 DUP2 ADD PUSH1 0x40 MSTORE DUP1 SWAP3 SWAP2 SWAP1 DUP2 DUP2 MSTORE PUSH1 0x20 ADD DUP3 DUP1 SLOAD PUSH2 0x62C SWAP1 PUSH2 0xC1F JUMP JUMPDEST DUP1 ISZERO PUSH2 0x679 JUMPI DUP1 PUSH1 0x1F LT PUSH2 0x64E JUMPI PUSH2 0x100 DUP1 DUP4 SLOAD DIV MUL DUP4 MSTORE SWAP2 PUSH1 0x20 ADD SWAP2 PUSH2 0x679 JUMP JUMPDEST DUP3 ADD SWAP2 SWAP1 PUSH1 0x0 MSTORE PUSH1 0x20 PUSH1 0x0 KECCAK256 SWAP1 JUMPDEST DUP2 SLOAD DUP2 MSTORE SWAP1 PUSH1 0x1 ADD SWAP1 PUSH1 0x20 ADD DUP1 DUP4 GT PUSH2 0x65C JUMPI DUP3 SWAP1 SUB PUSH1 0x1F AND DUP3 ADD SWAP2 JUMPDEST POP POP POP POP POP SWAP1 DUP1 PUSH1 0x2 ADD PUSH1 0x0 SWAP1 SLOAD SWAP1 PUSH2 0x100 EXP SWAP1 DIV PUSH20 0xFFFFFFFFFFFFFFFFFFFFFFFFFFFFFFFFFFFFFFFF AND SWAP1 POP DUP4 JUMP JUMPDEST DUP3 DUP1 SLOAD PUSH2 0x6B5 SWAP1 PUSH2 0xC1F JUMP JUMPDEST SWAP1 PUSH1 0x0 MSTORE PUSH1 0x20 PUSH1 0x0 KECCAK256 SWAP1 PUSH1 0x1F ADD PUSH1 0x20 SWAP1 DIV DUP2 ADD SWAP3 DUP3 PUSH2 0x6D7 JUMPI PUSH1 0x0 DUP6 SSTORE PUSH2 0x71E JUMP JUMPDEST DUP3 PUSH1 0x1F LT PUSH2 0x6F0 JUMPI DUP1 MLOAD PUSH1 0xFF NOT AND DUP4 DUP1 ADD OR DUP6 SSTORE PUSH2 0x71E JUMP JUMPDEST DUP3 DUP1 ADD PUSH1 0x1 ADD DUP6 SSTORE DUP3 ISZERO PUSH2 0x71E JUMPI SWAP2 DUP3 ADD JUMPDEST DUP3 DUP2 GT ISZERO PUSH2 0x71D JUMPI DUP3 MLOAD DUP3 SSTORE SWAP2 PUSH1 0x20 ADD SWAP2 SWAP1 PUSH1 0x1 ADD SWAP1 PUSH2 0x702 JUMP JUMPDEST JUMPDEST POP SWAP1 POP PUSH2 0x72B SWAP2 SWAP1 PUSH2 0x766 JUMP JUMPDEST POP SWAP1 JUMP JUMPDEST PUSH1 0x40 MLOAD DUP1 PUSH1 0x60 ADD PUSH1 0x40 MSTORE DUP1 PUSH1 0x60 DUP2 MSTORE PUSH1 0x20 ADD PUSH1 0x60 DUP2 MSTORE PUSH1 0x20 ADD PUSH1 0x0 PUSH20 0xFFFFFFFFFFFFFFFFFFFFFFFFFFFFFFFFFFFFFFFF AND DUP2 MSTORE POP SWAP1 JUMP JUMPDEST JUMPDEST DUP1 DUP3 GT ISZERO PUSH2 0x77F JUMPI PUSH1 0x0 DUP2 PUSH1 0x0 SWAP1 SSTORE POP PUSH1 0x1 ADD PUSH2 0x767 JUMP JUMPDEST POP SWAP1 JUMP JUMPDEST PUSH1 0x0 PUSH2 0x796 PUSH2 0x791 DUP5 PUSH2 0xB38 JUMP JUMPDEST PUSH2 0xB13 JUMP JUMPDEST SWAP1 POP DUP3 DUP2 MSTORE PUSH1 0x20 DUP2 ADD DUP5 DUP5 DUP5 ADD GT ISZERO PUSH2 0x7B2 JUMPI PUSH2 0x7B1 PUSH2 0xD5D JUMP JUMPDEST JUMPDEST PUSH2 0x7BD DUP5 DUP3 DUP6 PUSH2 0xBDD JUMP JUMPDEST POP SWAP4 SWAP3 POP POP POP JUMP JUMPDEST PUSH1 0x0 DUP3 PUSH1 0x1F DUP4 ADD SLT PUSH2 0x7DA JUMPI PUSH2 0x7D9 PUSH2 0xD58 JUMP JUMPDEST JUMPDEST DUP2 CALLDATALOAD PUSH2 0x7EA DUP5 DUP3 PUSH1 0x20 DUP7 ADD PUSH2 0x783 JUMP JUMPDEST SWAP2 POP POP SWAP3 SWAP2 POP POP JUMP JUMPDEST PUSH1 0x0 DUP2 CALLDATALOAD SWAP1 POP PUSH2 0x802 DUP2 PUSH2 0xD7D JUMP JUMPDEST SWAP3 SWAP2 POP POP JUMP JUMPDEST PUSH1 0x0 DUP1 PUSH1 0x40 DUP4 DUP6 SUB SLT ISZERO PUSH2 0x81F JUMPI PUSH2 0x81E PUSH2 0xD67 JUMP JUMPDEST JUMPDEST PUSH1 0x0 DUP4 ADD CALLDATALOAD PUSH8 0xFFFFFFFFFFFFFFFF DUP2 GT ISZERO PUSH2 0x83D JUMPI PUSH2 0x83C PUSH2 0xD62 JUMP JUMPDEST JUMPDEST PUSH2 0x849 DUP6 DUP3 DUP7 ADD PUSH2 0x7C5 JUMP JUMPDEST SWAP3 POP POP PUSH1 0x20 DUP4 ADD CALLDATALOAD PUSH8 0xFFFFFFFFFFFFFFFF DUP2 GT ISZERO PUSH2 0x86A JUMPI PUSH2 0x869 PUSH2 0xD62 JUMP JUMPDEST JUMPDEST PUSH2 0x876 DUP6 DUP3 DUP7 ADD PUSH2 0x7C5 JUMP JUMPDEST SWAP2 POP POP SWAP3 POP SWAP3 SWAP1 POP JUMP JUMPDEST PUSH1 0x0 PUSH1 0x20 DUP3 DUP5 SUB SLT ISZERO PUSH2 0x896 JUMPI PUSH2 0x895 PUSH2 0xD67 JUMP JUMPDEST JUMPDEST PUSH1 0x0 PUSH2 0x8A4 DUP5 DUP3 DUP6 ADD PUSH2 0x7F3 JUMP JUMPDEST SWAP2 POP POP SWAP3 SWAP2 POP POP JUMP JUMPDEST PUSH1 0x0 DUP1 PUSH1 0x0 PUSH1 0x60 DUP5 DUP7 SUB SLT ISZERO PUSH2 0x8C6 JUMPI PUSH2 0x8C5 PUSH2 0xD67 JUMP JUMPDEST JUMPDEST PUSH1 0x0 PUSH2 0x8D4 DUP7 DUP3 DUP8 ADD PUSH2 0x7F3 JUMP JUMPDEST SWAP4 POP POP PUSH1 0x20 DUP5 ADD CALLDATALOAD PUSH8 0xFFFFFFFFFFFFFFFF DUP2 GT ISZERO PUSH2 0x8F5 JUMPI PUSH2 0x8F4 PUSH2 0xD62 JUMP JUMPDEST JUMPDEST PUSH2 0x901 DUP7 DUP3 DUP8 ADD PUSH2 0x7C5 JUMP JUMPDEST SWAP3 POP POP PUSH1 0x40 DUP5 ADD CALLDATALOAD PUSH8 0xFFFFFFFFFFFFFFFF DUP2 GT ISZERO PUSH2 0x922 JUMPI PUSH2 0x921 PUSH2 0xD62 JUMP JUMPDEST JUMPDEST PUSH2 0x92E DUP7 DUP3 DUP8 ADD PUSH2 0x7C5 JUMP JUMPDEST SWAP2 POP POP SWAP3 POP SWAP3 POP SWAP3 JUMP JUMPDEST PUSH2 0x941 DUP2 PUSH2 0xBA1 JUMP JUMPDEST DUP3 MSTORE POP POP JUMP JUMPDEST PUSH2 0x950 DUP2 PUSH2 0xBA1 JUMP JUMPDEST DUP3 MSTORE POP POP JUMP JUMPDEST PUSH1 0x0 PUSH2 0x961 DUP3 PUSH2 0xB69 JUMP JUMPDEST PUSH2 0x96B DUP2 DUP6 PUSH2 0xB74 JUMP JUMPDEST SWAP4 POP PUSH2 0x97B DUP2 DUP6 PUSH1 0x20 DUP7 ADD PUSH2 0xBEC JUMP JUMPDEST PUSH2 0x984 DUP2 PUSH2 0xD6C JUMP JUMPDEST DUP5 ADD SWAP2 POP POP SWAP3 SWAP2 POP POP JUMP JUMPDEST PUSH1 0x0 PUSH2 0x99A DUP3 PUSH2 0xB69 JUMP JUMPDEST PUSH2 0x9A4 DUP2 DUP6 PUSH2 0xB85 JUMP JUMPDEST SWAP4 POP PUSH2 0x9B4 DUP2 DUP6 PUSH1 0x20 DUP7 ADD PUSH2 0xBEC JUMP JUMPDEST PUSH2 0x9BD DUP2 PUSH2 0xD6C JUMP JUMPDEST DUP5 ADD SWAP2 POP POP SWAP3 SWAP2 POP POP JUMP JUMPDEST PUSH1 0x0 PUSH2 0x9D3 DUP3 PUSH2 0xB69 JUMP JUMPDEST PUSH2 0x9DD DUP2 DUP6 PUSH2 0xB96 JUMP JUMPDEST SWAP4 POP PUSH2 0x9ED DUP2 DUP6 PUSH1 0x20 DUP7 ADD PUSH2 0xBEC JUMP JUMPDEST DUP1 DUP5 ADD SWAP2 POP POP SWAP3 SWAP2 POP POP JUMP JUMPDEST PUSH1 0x0 PUSH1 0x60 DUP4 ADD PUSH1 0x0 DUP4 ADD MLOAD DUP5 DUP3 SUB PUSH1 0x0 DUP7 ADD MSTORE PUSH2 0xA16 DUP3 DUP3 PUSH2 0x956 JUMP JUMPDEST SWAP2 POP POP PUSH1 0x20 DUP4 ADD MLOAD DUP5 DUP3 SUB PUSH1 0x20 DUP7 ADD MSTORE PUSH2 0xA30 DUP3 DUP3 PUSH2 0x956 JUMP JUMPDEST SWAP2 POP POP PUSH1 0x40 DUP4 ADD MLOAD PUSH2 0xA45 PUSH1 0x40 DUP7 ADD DUP3 PUSH2 0x938 JUMP JUMPDEST POP DUP1 SWAP2 POP POP SWAP3 SWAP2 POP POP JUMP JUMPDEST PUSH2 0xA59 DUP2 PUSH2 0xBD3 JUMP JUMPDEST DUP3 MSTORE POP POP JUMP JUMPDEST PUSH1 0x0 PUSH2 0xA6B DUP3 DUP5 PUSH2 0x9C8 JUMP JUMPDEST SWAP2 POP DUP2 SWAP1 POP SWAP3 SWAP2 POP POP JUMP JUMPDEST PUSH1 0x0 PUSH1 0x20 DUP3 ADD SWAP1 POP PUSH2 0xA8B PUSH1 0x0 DUP4 ADD DUP5 PUSH2 0x947 JUMP JUMPDEST SWAP3 SWAP2 POP POP JUMP JUMPDEST PUSH1 0x0 PUSH1 0x60 DUP3 ADD SWAP1 POP DUP2 DUP2 SUB PUSH1 0x0 DUP4 ADD MSTORE PUSH2 0xAAB DUP2 DUP7 PUSH2 0x98F JUMP JUMPDEST SWAP1 POP DUP2 DUP2 SUB PUSH1 0x20 DUP4 ADD MSTORE PUSH2 0xABF DUP2 DUP6 PUSH2 0x98F JUMP JUMPDEST SWAP1 POP PUSH2 0xACE PUSH1 0x40 DUP4 ADD DUP5 PUSH2 0x947 JUMP JUMPDEST SWAP5 SWAP4 POP POP POP POP JUMP JUMPDEST PUSH1 0x0 PUSH1 0x20 DUP3 ADD SWAP1 POP DUP2 DUP2 SUB PUSH1 0x0 DUP4 ADD MSTORE PUSH2 0xAF0 DUP2 DUP5 PUSH2 0x9F9 JUMP JUMPDEST SWAP1 POP SWAP3 SWAP2 POP POP JUMP JUMPDEST PUSH1 0x0 PUSH1 0x20 DUP3 ADD SWAP1 POP PUSH2 0xB0D PUSH1 0x0 DUP4 ADD DUP5 PUSH2 0xA50 JUMP JUMPDEST SWAP3 SWAP2 POP POP JUMP JUMPDEST PUSH1 0x0 PUSH2 0xB1D PUSH2 0xB2E JUMP JUMPDEST SWAP1 POP PUSH2 0xB29 DUP3 DUP3 PUSH2 0xC51 JUMP JUMPDEST SWAP2 SWAP1 POP JUMP JUMPDEST PUSH1 0x0 PUSH1 0x40 MLOAD SWAP1 POP SWAP1 JUMP JUMPDEST PUSH1 0x0 PUSH8 0xFFFFFFFFFFFFFFFF DUP3 GT ISZERO PUSH2 0xB53 JUMPI PUSH2 0xB52 PUSH2 0xD29 JUMP JUMPDEST JUMPDEST PUSH2 0xB5C DUP3 PUSH2 0xD6C JUMP JUMPDEST SWAP1 POP PUSH1 0x20 DUP2 ADD SWAP1 POP SWAP2 SWAP1 POP JUMP JUMPDEST PUSH1 0x0 DUP2 MLOAD SWAP1 POP SWAP2 SWAP1 POP JUMP JUMPDEST PUSH1 0x0 DUP3 DUP3 MSTORE PUSH1 0x20 DUP3 ADD SWAP1 POP SWAP3 SWAP2 POP POP JUMP JUMPDEST PUSH1 0x0 DUP3 DUP3 MSTORE PUSH1 0x20 DUP3 ADD SWAP1 POP SWAP3 SWAP2 POP POP JUMP JUMPDEST PUSH1 0x0 DUP2 SWAP1 POP SWAP3 SWAP2 POP POP JUMP JUMPDEST PUSH1 0x0 PUSH2 0xBAC DUP3 PUSH2 0xBB3 JUMP JUMPDEST SWAP1 POP SWAP2 SWAP1 POP JUMP JUMPDEST PUSH1 0x0 PUSH20 0xFFFFFFFFFFFFFFFFFFFFFFFFFFFFFFFFFFFFFFFF DUP3 AND SWAP1 POP SWAP2 SWAP1 POP JUMP JUMPDEST PUSH1 0x0 DUP2 SWAP1 POP SWAP2 SWAP1 POP JUMP JUMPDEST DUP3 DUP2 DUP4 CALLDATACOPY PUSH1 0x0 DUP4 DUP4 ADD MSTORE POP POP POP JUMP JUMPDEST PUSH1 0x0 JUMPDEST DUP4 DUP2 LT ISZERO PUSH2 0xC0A JUMPI DUP1 DUP3 ADD MLOAD DUP2 DUP5 ADD MSTORE PUSH1 0x20 DUP2 ADD SWAP1 POP PUSH2 0xBEF JUMP JUMPDEST DUP4 DUP2 GT ISZERO PUSH2 0xC19 JUMPI PUSH1 0x0 DUP5 DUP5 ADD MSTORE JUMPDEST POP POP POP POP JUMP JUMPDEST PUSH1 0x0 PUSH1 0x2 DUP3 DIV SWAP1 POP PUSH1 0x1 DUP3 AND DUP1 PUSH2 0xC37 JUMPI PUSH1 0x7F DUP3 AND SWAP2 POP JUMPDEST PUSH1 0x20 DUP3 LT DUP2 EQ ISZERO PUSH2 0xC4B JUMPI PUSH2 0xC4A PUSH2 0xCFA JUMP JUMPDEST JUMPDEST POP SWAP2 SWAP1 POP JUMP JUMPDEST PUSH2 0xC5A DUP3 PUSH2 0xD6C JUMP JUMPDEST DUP2 ADD DUP2 DUP2 LT PUSH8 0xFFFFFFFFFFFFFFFF DUP3 GT OR ISZERO PUSH2 0xC79 JUMPI PUSH2 0xC78 PUSH2 0xD29 JUMP JUMPDEST JUMPDEST DUP1 PUSH1 0x40 MSTORE POP POP POP JUMP JUMPDEST PUSH1 0x0 PUSH2 0xC8D DUP3 PUSH2 0xBD3 JUMP JUMPDEST SWAP2 POP PUSH32 0xFFFFFFFFFFFFFFFFFFFFFFFFFFFFFFFFFFFFFFFFFFFFFFFFFFFFFFFFFFFFFFFF DUP3 EQ ISZERO PUSH2 0xCC0 JUMPI PUSH2 0xCBF PUSH2 0xCCB JUMP JUMPDEST JUMPDEST PUSH1 0x1 DUP3 ADD SWAP1 POP SWAP2 SWAP1 POP JUMP JUMPDEST PUSH32 0x4E487B7100000000000000000000000000000000000000000000000000000000 PUSH1 0x0 MSTORE PUSH1 0x11 PUSH1 0x4 MSTORE PUSH1 0x24 PUSH1 0x0 REVERT JUMPDEST PUSH32 0x4E487B7100000000000000000000000000000000000000000000000000000000 PUSH1 0x0 MSTORE PUSH1 0x22 PUSH1 0x4 MSTORE PUSH1 0x24 PUSH1 0x0 REVERT JUMPDEST PUSH32 0x4E487B7100000000000000000000000000000000000000000000000000000000 PUSH1 0x0 MSTORE PUSH1 0x41 PUSH1 0x4 MSTORE PUSH1 0x24 PUSH1 0x0 REVERT JUMPDEST PUSH1 0x0 DUP1 REVERT JUMPDEST PUSH1 0x0 DUP1 REVERT JUMPDEST PUSH1 0x0 DUP1 REVERT JUMPDEST PUSH1 0x0 DUP1 REVERT JUMPDEST PUSH1 0x0 PUSH1 0x1F NOT PUSH1 0x1F DUP4 ADD AND SWAP1 POP SWAP2 SWAP1 POP JUMP JUMPDEST PUSH2 0xD86 DUP2 PUSH2 0xBD3 JUMP JUMPDEST DUP2 EQ PUSH2 0xD91 JUMPI PUSH1 0x0 DUP1 REVERT JUMPDEST POP JUMP INVALID LOG2 PUSH5 0x6970667358 0x22 SLT KECCAK256 0xF9 MLOAD SWAP8 SWAP12 0xC1 SWAP9 0x4B MSIZE 0xE7 0x21 PUSH31 0xC8FA79F0E2EB9F4EA6F6A57C27D763E1973FF900B664736F6C634300080700 CALLER "
				},
				"gasEstimates": {
					"creation": {
						"codeDepositCost": "706000",
						"executionCost": "5747",
						"totalCost": "711747"
					},
					"external": {
						"counter()": "2451",
						"createPost(string,string)": "infinite",
						"posts(uint256)": "2817",
						"readPost(uint256)": "infinite",
						"updatePost(uint256,string,string)": "infinite",
						"userPosts(uint256)": "infinite"
					}
				},
				"methodIdentifiers": {
					"counter()": "61bc221a",
					"createPost(string,string)": "392338f5",
					"posts(uint256)": "0b1e7f83",
					"readPost(uint256)": "ca6f69f5",
					"updatePost(uint256,string,string)": "66d1cac9",
					"userPosts(uint256)": "fdd6ea71"
				}
			},
			"storageLayout": {
				"storage": [
					{
						"astId": 4,
						"contract": "contracts/blog.sol:blog",
						"label": "counter",
						"offset": 0,
						"slot": "0",
						"type": "t_uint256"
					},
					{
						"astId": 21,
						"contract": "contracts/blog.sol:blog",
						"label": "posts",
						"offset": 0,
						"slot": "1",
						"type": "t_mapping(t_uint256,t_address)"
					},
					{
						"astId": 26,
						"contract": "contracts/blog.sol:blog",
						"label": "userPosts",
						"offset": 0,
						"slot": "2",
						"type": "t_mapping(t_uint256,t_struct(Post)17_storage)"
					}
				],
				"types": {
					"t_address": {
						"encoding": "inplace",
						"label": "address",
						"numberOfBytes": "20"
					},
					"t_mapping(t_uint256,t_address)": {
						"encoding": "mapping",
						"key": "t_uint256",
						"label": "mapping(uint256 => address)",
						"numberOfBytes": "32",
						"value": "t_address"
					},
					"t_mapping(t_uint256,t_struct(Post)17_storage)": {
						"encoding": "mapping",
						"key": "t_uint256",
						"label": "mapping(uint256 => struct blog.Post)",
						"numberOfBytes": "32",
						"value": "t_struct(Post)17_storage"
					},
					"t_string_storage": {
						"encoding": "bytes",
						"label": "string",
						"numberOfBytes": "32"
					},
					"t_struct(Post)17_storage": {
						"encoding": "inplace",
						"label": "struct blog.Post",
						"members": [
							{
								"astId": 12,
								"contract": "contracts/blog.sol:blog",
								"label": "title",
								"offset": 0,
								"slot": "0",
								"type": "t_string_storage"
							},
							{
								"astId": 14,
								"contract": "contracts/blog.sol:blog",
								"label": "description",
								"offset": 0,
								"slot": "1",
								"type": "t_string_storage"
							},
							{
								"astId": 16,
								"contract": "contracts/blog.sol:blog",
								"label": "user",
								"offset": 0,
								"slot": "2",
								"type": "t_address"
							}
						],
						"numberOfBytes": "96"
					},
					"t_uint256": {
						"encoding": "inplace",
						"label": "uint256",
						"numberOfBytes": "32"
					}
				}
			},
			"userdoc": {
				"kind": "user",
				"methods": {},
				"version": 1
			}
		}
	}
}