{
	"contracts/mappings.sol": {
		"MappingsSample": {
			"abi": [
				{
					"inputs": [],
					"stateMutability": "nonpayable",
					"type": "constructor"
				},
				{
					"inputs": [],
					"name": "getOwner",
					"outputs": [
						{
							"internalType": "address",
							"name": "",
							"type": "address"
						}
					],
					"stateMutability": "view",
					"type": "function"
				},
				{
					"inputs": [
						{
							"internalType": "address",
							"name": "",
							"type": "address"
						},
						{
							"internalType": "uint256",
							"name": "",
							"type": "uint256"
						}
					],
					"name": "names",
					"outputs": [
						{
							"internalType": "string",
							"name": "",
							"type": "string"
						}
					],
					"stateMutability": "view",
					"type": "function"
				},
				{
					"inputs": [
						{
							"internalType": "string",
							"name": "_color",
							"type": "string"
						},
						{
							"internalType": "string",
							"name": "_country",
							"type": "string"
						}
					],
					"name": "pushValues",
					"outputs": [],
					"stateMutability": "nonpayable",
					"type": "function"
				},
				{
					"inputs": [
						{
							"internalType": "string",
							"name": "_name",
							"type": "string"
						}
					],
					"name": "setValues",
					"outputs": [],
					"stateMutability": "nonpayable",
					"type": "function"
				},
				{
					"inputs": [
						{
							"internalType": "string",
							"name": "",
							"type": "string"
						}
					],
					"name": "traits",
					"outputs": [
						{
							"internalType": "string",
							"name": "color",
							"type": "string"
						},
						{
							"internalType": "string",
							"name": "country",
							"type": "string"
						}
					],
					"stateMutability": "view",
					"type": "function"
				}
			],
			"devdoc": {
				"kind": "dev",
				"methods": {},
				"version": 1
			},
			"evm": {
				"assembly": "    /* \"contracts/mappings.sol\":64:1291  contract MappingsSample{\r... */\n  mstore(0x40, 0x80)\n    /* \"contracts/mappings.sol\":273:308  constructor() public{     \r... */\n  callvalue\n  dup1\n  iszero\n  tag_1\n  jumpi\n  0x00\n  dup1\n  revert\ntag_1:\n  pop\n    /* \"contracts/mappings.sol\":64:1291  contract MappingsSample{\r... */\n  dataSize(sub_0)\n  dup1\n  dataOffset(sub_0)\n  0x00\n  codecopy\n  0x00\n  return\nstop\n\nsub_0: assembly {\n        /* \"contracts/mappings.sol\":64:1291  contract MappingsSample{\r... */\n      mstore(0x40, 0x80)\n      callvalue\n      dup1\n      iszero\n      tag_1\n      jumpi\n      0x00\n      dup1\n      revert\n    tag_1:\n      pop\n      jumpi(tag_2, lt(calldatasize, 0x04))\n      shr(0xe0, calldataload(0x00))\n      dup1\n      0x2d9daa00\n      eq\n      tag_3\n      jumpi\n      dup1\n      0x420069b3\n      eq\n      tag_4\n      jumpi\n      dup1\n      0x893d20e8\n      eq\n      tag_5\n      jumpi\n      dup1\n      0xa5f21827\n      eq\n      tag_6\n      jumpi\n      dup1\n      0xb914d7ab\n      eq\n      tag_7\n      jumpi\n    tag_2:\n      0x00\n      dup1\n      revert\n        /* \"contracts/mappings.sol\":1145:1286  function\r... */\n    tag_3:\n      tag_8\n      0x04\n      dup1\n      calldatasize\n      sub\n      dup2\n      add\n      swap1\n      tag_9\n      swap2\n      swap1\n      tag_10\n      jump\t// in\n    tag_9:\n      tag_11\n      jump\t// in\n    tag_8:\n      stop\n        /* \"contracts/mappings.sol\":533:668  function setValues (string memory _name)\r... */\n    tag_4:\n      tag_12\n      0x04\n      dup1\n      calldatasize\n      sub\n      dup2\n      add\n      swap1\n      tag_13\n      swap2\n      swap1\n      tag_14\n      jump\t// in\n    tag_13:\n      tag_15\n      jump\t// in\n    tag_12:\n      stop\n        /* \"contracts/mappings.sol\":739:843  function getOwner()\r... */\n    tag_5:\n      tag_16\n      tag_17\n      jump\t// in\n    tag_16:\n      mload(0x40)\n      tag_18\n      swap2\n      swap1\n      tag_19\n      jump\t// in\n    tag_18:\n      mload(0x40)\n      dup1\n      swap2\n      sub\n      swap1\n      return\n        /* \"contracts/mappings.sol\":1096:1135  mapping(string => Traits) public traits */\n    tag_6:\n      tag_20\n      0x04\n      dup1\n      calldatasize\n      sub\n      dup2\n      add\n      swap1\n      tag_21\n      swap2\n      swap1\n      tag_14\n      jump\t// in\n    tag_21:\n      tag_22\n      jump\t// in\n    tag_20:\n      mload(0x40)\n      tag_23\n      swap3\n      swap2\n      swap1\n      tag_24\n      jump\t// in\n    tag_23:\n      mload(0x40)\n      dup1\n      swap2\n      sub\n      swap1\n      return\n        /* \"contracts/mappings.sol\":223:264  mapping(address => string[]) public names */\n    tag_7:\n      tag_25\n      0x04\n      dup1\n      calldatasize\n      sub\n      dup2\n      add\n      swap1\n      tag_26\n      swap2\n      swap1\n      tag_27\n      jump\t// in\n    tag_26:\n      tag_28\n      jump\t// in\n    tag_25:\n      mload(0x40)\n      tag_29\n      swap2\n      swap1\n      tag_30\n      jump\t// in\n    tag_29:\n      mload(0x40)\n      dup1\n      swap2\n      sub\n      swap1\n      return\n        /* \"contracts/mappings.sol\":1145:1286  function\r... */\n    tag_11:\n        /* \"contracts/mappings.sol\":1254:1277  Traits(_color,_country) */\n      mload(0x40)\n      dup1\n      0x40\n      add\n      0x40\n      mstore\n      dup1\n        /* \"contracts/mappings.sol\":1261:1267  _color */\n      dup4\n        /* \"contracts/mappings.sol\":1254:1277  Traits(_color,_country) */\n      dup2\n      mstore\n      0x20\n      add\n        /* \"contracts/mappings.sol\":1268:1276  _country */\n      dup3\n        /* \"contracts/mappings.sol\":1254:1277  Traits(_color,_country) */\n      dup2\n      mstore\n      pop\n        /* \"contracts/mappings.sol\":1240:1246  traits */\n      0x01\n        /* \"contracts/mappings.sol\":1240:1251  traits[\"V\"] */\n      mload(0x40)\n      tag_32\n      swap1\n      tag_33\n      jump\t// in\n    tag_32:\n      swap1\n      dup2\n      mstore\n      0x20\n      add\n      mload(0x40)\n      dup1\n      swap2\n      sub\n      swap1\n      keccak256\n        /* \"contracts/mappings.sol\":1240:1277  traits[\"V\"] = Traits(_color,_country) */\n      0x00\n      dup3\n      add\n      mload\n      dup2\n      0x00\n      add\n      swap1\n      dup1\n      mload\n      swap1\n      0x20\n      add\n      swap1\n      tag_34\n      swap3\n      swap2\n      swap1\n      tag_35\n      jump\t// in\n    tag_34:\n      pop\n      0x20\n      dup3\n      add\n      mload\n      dup2\n      0x01\n      add\n      swap1\n      dup1\n      mload\n      swap1\n      0x20\n      add\n      swap1\n      tag_36\n      swap3\n      swap2\n      swap1\n      tag_35\n      jump\t// in\n    tag_36:\n      pop\n      swap1\n      pop\n      pop\n        /* \"contracts/mappings.sol\":1145:1286  function\r... */\n      pop\n      pop\n      jump\t// out\n        /* \"contracts/mappings.sol\":533:668  function setValues (string memory _name)\r... */\n    tag_15:\n        /* \"contracts/mappings.sol\":598:603  names */\n      0x00\n        /* \"contracts/mappings.sol\":598:647  names[0xAb8483F64d9C6d1EcF9b849Ae677dD3315835cb2] */\n      dup1\n        /* \"contracts/mappings.sol\":604:646  0xAb8483F64d9C6d1EcF9b849Ae677dD3315835cb2 */\n      0xab8483f64d9c6d1ecf9b849ae677dd3315835cb2\n        /* \"contracts/mappings.sol\":598:647  names[0xAb8483F64d9C6d1EcF9b849Ae677dD3315835cb2] */\n      0xffffffffffffffffffffffffffffffffffffffff\n      and\n      0xffffffffffffffffffffffffffffffffffffffff\n      and\n      dup2\n      mstore\n      0x20\n      add\n      swap1\n      dup2\n      mstore\n      0x20\n      add\n      0x00\n      keccak256\n        /* \"contracts/mappings.sol\":653:658  _name */\n      dup2\n        /* \"contracts/mappings.sol\":598:659  names[0xAb8483F64d9C6d1EcF9b849Ae677dD3315835cb2].push(_name) */\n      swap1\n      dup1\n      0x01\n      dup2\n      sload\n      add\n      dup1\n      dup3\n      sstore\n      dup1\n      swap2\n      pop\n      pop\n      0x01\n      swap1\n      sub\n      swap1\n      0x00\n      mstore\n      keccak256(0x00, 0x20)\n      add\n      0x00\n      swap1\n      swap2\n      swap1\n      swap2\n      swap1\n      swap2\n      pop\n      swap1\n      dup1\n      mload\n      swap1\n      0x20\n      add\n      swap1\n      tag_39\n      swap3\n      swap2\n      swap1\n      tag_35\n      jump\t// in\n    tag_39:\n      pop\n        /* \"contracts/mappings.sol\":533:668  function setValues (string memory _name)\r... */\n      pop\n      jump\t// out\n        /* \"contracts/mappings.sol\":739:843  function getOwner()\r... */\n    tag_17:\n        /* \"contracts/mappings.sol\":797:804  address */\n      0x00\n        /* \"contracts/mappings.sol\":824:834  msg.sender */\n      caller\n        /* \"contracts/mappings.sol\":817:834  return msg.sender */\n      swap1\n      pop\n        /* \"contracts/mappings.sol\":739:843  function getOwner()\r... */\n      swap1\n      jump\t// out\n        /* \"contracts/mappings.sol\":1096:1135  mapping(string => Traits) public traits */\n    tag_22:\n      0x01\n      dup2\n      dup1\n      mload\n      0x20\n      dup2\n      add\n      dup3\n      add\n      dup1\n      mload\n      dup5\n      dup3\n      mstore\n      0x20\n      dup4\n      add\n      0x20\n      dup6\n      add\n      keccak256\n      dup2\n      dup4\n      mstore\n      dup1\n      swap6\n      pop\n      pop\n      pop\n      pop\n      pop\n      pop\n      0x00\n      swap2\n      pop\n      swap1\n      pop\n      dup1\n      0x00\n      add\n      dup1\n      sload\n      tag_41\n      swap1\n      tag_42\n      jump\t// in\n    tag_41:\n      dup1\n      0x1f\n      add\n      0x20\n      dup1\n      swap2\n      div\n      mul\n      0x20\n      add\n      mload(0x40)\n      swap1\n      dup2\n      add\n      0x40\n      mstore\n      dup1\n      swap3\n      swap2\n      swap1\n      dup2\n      dup2\n      mstore\n      0x20\n      add\n      dup3\n      dup1\n      sload\n      tag_43\n      swap1\n      tag_42\n      jump\t// in\n    tag_43:\n      dup1\n      iszero\n      tag_44\n      jumpi\n      dup1\n      0x1f\n      lt\n      tag_45\n      jumpi\n      0x0100\n      dup1\n      dup4\n      sload\n      div\n      mul\n      dup4\n      mstore\n      swap2\n      0x20\n      add\n      swap2\n      jump(tag_44)\n    tag_45:\n      dup3\n      add\n      swap2\n      swap1\n      0x00\n      mstore\n      keccak256(0x00, 0x20)\n      swap1\n    tag_46:\n      dup2\n      sload\n      dup2\n      mstore\n      swap1\n      0x01\n      add\n      swap1\n      0x20\n      add\n      dup1\n      dup4\n      gt\n      tag_46\n      jumpi\n      dup3\n      swap1\n      sub\n      0x1f\n      and\n      dup3\n      add\n      swap2\n    tag_44:\n      pop\n      pop\n      pop\n      pop\n      pop\n      swap1\n      dup1\n      0x01\n      add\n      dup1\n      sload\n      tag_47\n      swap1\n      tag_42\n      jump\t// in\n    tag_47:\n      dup1\n      0x1f\n      add\n      0x20\n      dup1\n      swap2\n      div\n      mul\n      0x20\n      add\n      mload(0x40)\n      swap1\n      dup2\n      add\n      0x40\n      mstore\n      dup1\n      swap3\n      swap2\n      swap1\n      dup2\n      dup2\n      mstore\n      0x20\n      add\n      dup3\n      dup1\n      sload\n      tag_48\n      swap1\n      tag_42\n      jump\t// in\n    tag_48:\n      dup1\n      iszero\n      tag_49\n      jumpi\n      dup1\n      0x1f\n      lt\n      tag_50\n      jumpi\n      0x0100\n      dup1\n      dup4\n      sload\n      div\n      mul\n      dup4\n      mstore\n      swap2\n      0x20\n      add\n      swap2\n      jump(tag_49)\n    tag_50:\n      dup3\n      add\n      swap2\n      swap1\n      0x00\n      mstore\n      keccak256(0x00, 0x20)\n      swap1\n    tag_51:\n      dup2\n      sload\n      dup2\n      mstore\n      swap1\n      0x01\n      add\n      swap1\n      0x20\n      add\n      dup1\n      dup4\n      gt\n      tag_51\n      jumpi\n      dup3\n      swap1\n      sub\n      0x1f\n      and\n      dup3\n      add\n      swap2\n    tag_49:\n      pop\n      pop\n      pop\n      pop\n      pop\n      swap1\n      pop\n      dup3\n      jump\t// out\n        /* \"contracts/mappings.sol\":223:264  mapping(address => string[]) public names */\n    tag_28:\n      mstore(0x20, 0x00)\n      dup2\n      0x00\n      mstore\n      keccak256(0x00, 0x40)\n      dup2\n      dup2\n      sload\n      dup2\n      lt\n      tag_52\n      jumpi\n      0x00\n      dup1\n      revert\n    tag_52:\n      swap1\n      0x00\n      mstore\n      keccak256(0x00, 0x20)\n      add\n      0x00\n      swap2\n      pop\n      swap2\n      pop\n      pop\n      dup1\n      sload\n      tag_54\n      swap1\n      tag_42\n      jump\t// in\n    tag_54:\n      dup1\n      0x1f\n      add\n      0x20\n      dup1\n      swap2\n      div\n      mul\n      0x20\n      add\n      mload(0x40)\n      swap1\n      dup2\n      add\n      0x40\n      mstore\n      dup1\n      swap3\n      swap2\n      swap1\n      dup2\n      dup2\n      mstore\n      0x20\n      add\n      dup3\n      dup1\n      sload\n      tag_55\n      swap1\n      tag_42\n      jump\t// in\n    tag_55:\n      dup1\n      iszero\n      tag_56\n      jumpi\n      dup1\n      0x1f\n      lt\n      tag_57\n      jumpi\n      0x0100\n      dup1\n      dup4\n      sload\n      div\n      mul\n      dup4\n      mstore\n      swap2\n      0x20\n      add\n      swap2\n      jump(tag_56)\n    tag_57:\n      dup3\n      add\n      swap2\n      swap1\n      0x00\n      mstore\n      keccak256(0x00, 0x20)\n      swap1\n    tag_58:\n      dup2\n      sload\n      dup2\n      mstore\n      swap1\n      0x01\n      add\n      swap1\n      0x20\n      add\n      dup1\n      dup4\n      gt\n      tag_58\n      jumpi\n      dup3\n      swap1\n      sub\n      0x1f\n      and\n      dup3\n      add\n      swap2\n    tag_56:\n      pop\n      pop\n      pop\n      pop\n      pop\n      dup2\n      jump\t// out\n    tag_35:\n      dup3\n      dup1\n      sload\n      tag_59\n      swap1\n      tag_42\n      jump\t// in\n    tag_59:\n      swap1\n      0x00\n      mstore\n      keccak256(0x00, 0x20)\n      swap1\n      0x1f\n      add\n      0x20\n      swap1\n      div\n      dup2\n      add\n      swap3\n      dup3\n      tag_61\n      jumpi\n      0x00\n      dup6\n      sstore\n      jump(tag_60)\n    tag_61:\n      dup3\n      0x1f\n      lt\n      tag_62\n      jumpi\n      dup1\n      mload\n      not(0xff)\n      and\n      dup4\n      dup1\n      add\n      or\n      dup6\n      sstore\n      jump(tag_60)\n    tag_62:\n      dup3\n      dup1\n      add\n      0x01\n      add\n      dup6\n      sstore\n      dup3\n      iszero\n      tag_60\n      jumpi\n      swap2\n      dup3\n      add\n    tag_63:\n      dup3\n      dup2\n      gt\n      iszero\n      tag_64\n      jumpi\n      dup3\n      mload\n      dup3\n      sstore\n      swap2\n      0x20\n      add\n      swap2\n      swap1\n      0x01\n      add\n      swap1\n      jump(tag_63)\n    tag_64:\n    tag_60:\n      pop\n      swap1\n      pop\n      tag_65\n      swap2\n      swap1\n      tag_66\n      jump\t// in\n    tag_65:\n      pop\n      swap1\n      jump\t// out\n    tag_66:\n    tag_67:\n      dup1\n      dup3\n      gt\n      iszero\n      tag_68\n      jumpi\n      0x00\n      dup2\n      0x00\n      swap1\n      sstore\n      pop\n      0x01\n      add\n      jump(tag_67)\n    tag_68:\n      pop\n      swap1\n      jump\t// out\n        /* \"#utility.yul\":7:419   */\n    tag_70:\n        /* \"#utility.yul\":85:90   */\n      0x00\n        /* \"#utility.yul\":110:176   */\n      tag_72\n        /* \"#utility.yul\":126:175   */\n      tag_73\n        /* \"#utility.yul\":168:174   */\n      dup5\n        /* \"#utility.yul\":126:175   */\n      tag_74\n      jump\t// in\n    tag_73:\n        /* \"#utility.yul\":110:176   */\n      tag_75\n      jump\t// in\n    tag_72:\n        /* \"#utility.yul\":101:176   */\n      swap1\n      pop\n        /* \"#utility.yul\":199:205   */\n      dup3\n        /* \"#utility.yul\":192:197   */\n      dup2\n        /* \"#utility.yul\":185:206   */\n      mstore\n        /* \"#utility.yul\":237:241   */\n      0x20\n        /* \"#utility.yul\":230:235   */\n      dup2\n        /* \"#utility.yul\":226:242   */\n      add\n        /* \"#utility.yul\":275:278   */\n      dup5\n        /* \"#utility.yul\":266:272   */\n      dup5\n        /* \"#utility.yul\":261:264   */\n      dup5\n        /* \"#utility.yul\":257:273   */\n      add\n        /* \"#utility.yul\":254:279   */\n      gt\n        /* \"#utility.yul\":251:363   */\n      iszero\n      tag_76\n      jumpi\n        /* \"#utility.yul\":282:361   */\n      tag_77\n      tag_78\n      jump\t// in\n    tag_77:\n        /* \"#utility.yul\":251:363   */\n    tag_76:\n        /* \"#utility.yul\":372:413   */\n      tag_79\n        /* \"#utility.yul\":406:412   */\n      dup5\n        /* \"#utility.yul\":401:404   */\n      dup3\n        /* \"#utility.yul\":396:399   */\n      dup6\n        /* \"#utility.yul\":372:413   */\n      tag_80\n      jump\t// in\n    tag_79:\n        /* \"#utility.yul\":91:419   */\n      pop\n        /* \"#utility.yul\":7:419   */\n      swap4\n      swap3\n      pop\n      pop\n      pop\n      jump\t// out\n        /* \"#utility.yul\":425:564   */\n    tag_81:\n        /* \"#utility.yul\":471:476   */\n      0x00\n        /* \"#utility.yul\":509:515   */\n      dup2\n        /* \"#utility.yul\":496:516   */\n      calldataload\n        /* \"#utility.yul\":487:516   */\n      swap1\n      pop\n        /* \"#utility.yul\":525:558   */\n      tag_83\n        /* \"#utility.yul\":552:557   */\n      dup2\n        /* \"#utility.yul\":525:558   */\n      tag_84\n      jump\t// in\n    tag_83:\n        /* \"#utility.yul\":425:564   */\n      swap3\n      swap2\n      pop\n      pop\n      jump\t// out\n        /* \"#utility.yul\":584:924   */\n    tag_85:\n        /* \"#utility.yul\":640:645   */\n      0x00\n        /* \"#utility.yul\":689:692   */\n      dup3\n        /* \"#utility.yul\":682:686   */\n      0x1f\n        /* \"#utility.yul\":674:680   */\n      dup4\n        /* \"#utility.yul\":670:687   */\n      add\n        /* \"#utility.yul\":666:693   */\n      slt\n        /* \"#utility.yul\":656:778   */\n      tag_87\n      jumpi\n        /* \"#utility.yul\":697:776   */\n      tag_88\n      tag_89\n      jump\t// in\n    tag_88:\n        /* \"#utility.yul\":656:778   */\n    tag_87:\n        /* \"#utility.yul\":814:820   */\n      dup2\n        /* \"#utility.yul\":801:821   */\n      calldataload\n        /* \"#utility.yul\":839:918   */\n      tag_90\n        /* \"#utility.yul\":914:917   */\n      dup5\n        /* \"#utility.yul\":906:912   */\n      dup3\n        /* \"#utility.yul\":899:903   */\n      0x20\n        /* \"#utility.yul\":891:897   */\n      dup7\n        /* \"#utility.yul\":887:904   */\n      add\n        /* \"#utility.yul\":839:918   */\n      tag_70\n      jump\t// in\n    tag_90:\n        /* \"#utility.yul\":830:918   */\n      swap2\n      pop\n        /* \"#utility.yul\":646:924   */\n      pop\n        /* \"#utility.yul\":584:924   */\n      swap3\n      swap2\n      pop\n      pop\n      jump\t// out\n        /* \"#utility.yul\":930:1069   */\n    tag_91:\n        /* \"#utility.yul\":976:981   */\n      0x00\n        /* \"#utility.yul\":1014:1020   */\n      dup2\n        /* \"#utility.yul\":1001:1021   */\n      calldataload\n        /* \"#utility.yul\":992:1021   */\n      swap1\n      pop\n        /* \"#utility.yul\":1030:1063   */\n      tag_93\n        /* \"#utility.yul\":1057:1062   */\n      dup2\n        /* \"#utility.yul\":1030:1063   */\n      tag_94\n      jump\t// in\n    tag_93:\n        /* \"#utility.yul\":930:1069   */\n      swap3\n      swap2\n      pop\n      pop\n      jump\t// out\n        /* \"#utility.yul\":1075:1549   */\n    tag_27:\n        /* \"#utility.yul\":1143:1149   */\n      0x00\n        /* \"#utility.yul\":1151:1157   */\n      dup1\n        /* \"#utility.yul\":1200:1202   */\n      0x40\n        /* \"#utility.yul\":1188:1197   */\n      dup4\n        /* \"#utility.yul\":1179:1186   */\n      dup6\n        /* \"#utility.yul\":1175:1198   */\n      sub\n        /* \"#utility.yul\":1171:1203   */\n      slt\n        /* \"#utility.yul\":1168:1287   */\n      iszero\n      tag_96\n      jumpi\n        /* \"#utility.yul\":1206:1285   */\n      tag_97\n      tag_98\n      jump\t// in\n    tag_97:\n        /* \"#utility.yul\":1168:1287   */\n    tag_96:\n        /* \"#utility.yul\":1326:1327   */\n      0x00\n        /* \"#utility.yul\":1351:1404   */\n      tag_99\n        /* \"#utility.yul\":1396:1403   */\n      dup6\n        /* \"#utility.yul\":1387:1393   */\n      dup3\n        /* \"#utility.yul\":1376:1385   */\n      dup7\n        /* \"#utility.yul\":1372:1394   */\n      add\n        /* \"#utility.yul\":1351:1404   */\n      tag_81\n      jump\t// in\n    tag_99:\n        /* \"#utility.yul\":1341:1404   */\n      swap3\n      pop\n        /* \"#utility.yul\":1297:1414   */\n      pop\n        /* \"#utility.yul\":1453:1455   */\n      0x20\n        /* \"#utility.yul\":1479:1532   */\n      tag_100\n        /* \"#utility.yul\":1524:1531   */\n      dup6\n        /* \"#utility.yul\":1515:1521   */\n      dup3\n        /* \"#utility.yul\":1504:1513   */\n      dup7\n        /* \"#utility.yul\":1500:1522   */\n      add\n        /* \"#utility.yul\":1479:1532   */\n      tag_91\n      jump\t// in\n    tag_100:\n        /* \"#utility.yul\":1469:1532   */\n      swap2\n      pop\n        /* \"#utility.yul\":1424:1542   */\n      pop\n        /* \"#utility.yul\":1075:1549   */\n      swap3\n      pop\n      swap3\n      swap1\n      pop\n      jump\t// out\n        /* \"#utility.yul\":1555:2064   */\n    tag_14:\n        /* \"#utility.yul\":1624:1630   */\n      0x00\n        /* \"#utility.yul\":1673:1675   */\n      0x20\n        /* \"#utility.yul\":1661:1670   */\n      dup3\n        /* \"#utility.yul\":1652:1659   */\n      dup5\n        /* \"#utility.yul\":1648:1671   */\n      sub\n        /* \"#utility.yul\":1644:1676   */\n      slt\n        /* \"#utility.yul\":1641:1760   */\n      iszero\n      tag_102\n      jumpi\n        /* \"#utility.yul\":1679:1758   */\n      tag_103\n      tag_98\n      jump\t// in\n    tag_103:\n        /* \"#utility.yul\":1641:1760   */\n    tag_102:\n        /* \"#utility.yul\":1827:1828   */\n      0x00\n        /* \"#utility.yul\":1816:1825   */\n      dup3\n        /* \"#utility.yul\":1812:1829   */\n      add\n        /* \"#utility.yul\":1799:1830   */\n      calldataload\n        /* \"#utility.yul\":1857:1875   */\n      0xffffffffffffffff\n        /* \"#utility.yul\":1849:1855   */\n      dup2\n        /* \"#utility.yul\":1846:1876   */\n      gt\n        /* \"#utility.yul\":1843:1960   */\n      iszero\n      tag_104\n      jumpi\n        /* \"#utility.yul\":1879:1958   */\n      tag_105\n      tag_106\n      jump\t// in\n    tag_105:\n        /* \"#utility.yul\":1843:1960   */\n    tag_104:\n        /* \"#utility.yul\":1984:2047   */\n      tag_107\n        /* \"#utility.yul\":2039:2046   */\n      dup5\n        /* \"#utility.yul\":2030:2036   */\n      dup3\n        /* \"#utility.yul\":2019:2028   */\n      dup6\n        /* \"#utility.yul\":2015:2037   */\n      add\n        /* \"#utility.yul\":1984:2047   */\n      tag_85\n      jump\t// in\n    tag_107:\n        /* \"#utility.yul\":1974:2047   */\n      swap2\n      pop\n        /* \"#utility.yul\":1770:2057   */\n      pop\n        /* \"#utility.yul\":1555:2064   */\n      swap3\n      swap2\n      pop\n      pop\n      jump\t// out\n        /* \"#utility.yul\":2070:2904   */\n    tag_10:\n        /* \"#utility.yul\":2158:2164   */\n      0x00\n        /* \"#utility.yul\":2166:2172   */\n      dup1\n        /* \"#utility.yul\":2215:2217   */\n      0x40\n        /* \"#utility.yul\":2203:2212   */\n      dup4\n        /* \"#utility.yul\":2194:2201   */\n      dup6\n        /* \"#utility.yul\":2190:2213   */\n      sub\n        /* \"#utility.yul\":2186:2218   */\n      slt\n        /* \"#utility.yul\":2183:2302   */\n      iszero\n      tag_109\n      jumpi\n        /* \"#utility.yul\":2221:2300   */\n      tag_110\n      tag_98\n      jump\t// in\n    tag_110:\n        /* \"#utility.yul\":2183:2302   */\n    tag_109:\n        /* \"#utility.yul\":2369:2370   */\n      0x00\n        /* \"#utility.yul\":2358:2367   */\n      dup4\n        /* \"#utility.yul\":2354:2371   */\n      add\n        /* \"#utility.yul\":2341:2372   */\n      calldataload\n        /* \"#utility.yul\":2399:2417   */\n      0xffffffffffffffff\n        /* \"#utility.yul\":2391:2397   */\n      dup2\n        /* \"#utility.yul\":2388:2418   */\n      gt\n        /* \"#utility.yul\":2385:2502   */\n      iszero\n      tag_111\n      jumpi\n        /* \"#utility.yul\":2421:2500   */\n      tag_112\n      tag_106\n      jump\t// in\n    tag_112:\n        /* \"#utility.yul\":2385:2502   */\n    tag_111:\n        /* \"#utility.yul\":2526:2589   */\n      tag_113\n        /* \"#utility.yul\":2581:2588   */\n      dup6\n        /* \"#utility.yul\":2572:2578   */\n      dup3\n        /* \"#utility.yul\":2561:2570   */\n      dup7\n        /* \"#utility.yul\":2557:2579   */\n      add\n        /* \"#utility.yul\":2526:2589   */\n      tag_85\n      jump\t// in\n    tag_113:\n        /* \"#utility.yul\":2516:2589   */\n      swap3\n      pop\n        /* \"#utility.yul\":2312:2599   */\n      pop\n        /* \"#utility.yul\":2666:2668   */\n      0x20\n        /* \"#utility.yul\":2655:2664   */\n      dup4\n        /* \"#utility.yul\":2651:2669   */\n      add\n        /* \"#utility.yul\":2638:2670   */\n      calldataload\n        /* \"#utility.yul\":2697:2715   */\n      0xffffffffffffffff\n        /* \"#utility.yul\":2689:2695   */\n      dup2\n        /* \"#utility.yul\":2686:2716   */\n      gt\n        /* \"#utility.yul\":2683:2800   */\n      iszero\n      tag_114\n      jumpi\n        /* \"#utility.yul\":2719:2798   */\n      tag_115\n      tag_106\n      jump\t// in\n    tag_115:\n        /* \"#utility.yul\":2683:2800   */\n    tag_114:\n        /* \"#utility.yul\":2824:2887   */\n      tag_116\n        /* \"#utility.yul\":2879:2886   */\n      dup6\n        /* \"#utility.yul\":2870:2876   */\n      dup3\n        /* \"#utility.yul\":2859:2868   */\n      dup7\n        /* \"#utility.yul\":2855:2877   */\n      add\n        /* \"#utility.yul\":2824:2887   */\n      tag_85\n      jump\t// in\n    tag_116:\n        /* \"#utility.yul\":2814:2887   */\n      swap2\n      pop\n        /* \"#utility.yul\":2609:2897   */\n      pop\n        /* \"#utility.yul\":2070:2904   */\n      swap3\n      pop\n      swap3\n      swap1\n      pop\n      jump\t// out\n        /* \"#utility.yul\":2910:3028   */\n    tag_117:\n        /* \"#utility.yul\":2997:3021   */\n      tag_119\n        /* \"#utility.yul\":3015:3020   */\n      dup2\n        /* \"#utility.yul\":2997:3021   */\n      tag_120\n      jump\t// in\n    tag_119:\n        /* \"#utility.yul\":2992:2995   */\n      dup3\n        /* \"#utility.yul\":2985:3022   */\n      mstore\n        /* \"#utility.yul\":2910:3028   */\n      pop\n      pop\n      jump\t// out\n        /* \"#utility.yul\":3034:3398   */\n    tag_121:\n        /* \"#utility.yul\":3122:3125   */\n      0x00\n        /* \"#utility.yul\":3150:3189   */\n      tag_123\n        /* \"#utility.yul\":3183:3188   */\n      dup3\n        /* \"#utility.yul\":3150:3189   */\n      tag_124\n      jump\t// in\n    tag_123:\n        /* \"#utility.yul\":3205:3276   */\n      tag_125\n        /* \"#utility.yul\":3269:3275   */\n      dup2\n        /* \"#utility.yul\":3264:3267   */\n      dup6\n        /* \"#utility.yul\":3205:3276   */\n      tag_126\n      jump\t// in\n    tag_125:\n        /* \"#utility.yul\":3198:3276   */\n      swap4\n      pop\n        /* \"#utility.yul\":3285:3337   */\n      tag_127\n        /* \"#utility.yul\":3330:3336   */\n      dup2\n        /* \"#utility.yul\":3325:3328   */\n      dup6\n        /* \"#utility.yul\":3318:3322   */\n      0x20\n        /* \"#utility.yul\":3311:3316   */\n      dup7\n        /* \"#utility.yul\":3307:3323   */\n      add\n        /* \"#utility.yul\":3285:3337   */\n      tag_128\n      jump\t// in\n    tag_127:\n        /* \"#utility.yul\":3362:3391   */\n      tag_129\n        /* \"#utility.yul\":3384:3390   */\n      dup2\n        /* \"#utility.yul\":3362:3391   */\n      tag_130\n      jump\t// in\n    tag_129:\n        /* \"#utility.yul\":3357:3360   */\n      dup5\n        /* \"#utility.yul\":3353:3392   */\n      add\n        /* \"#utility.yul\":3346:3392   */\n      swap2\n      pop\n        /* \"#utility.yul\":3126:3398   */\n      pop\n        /* \"#utility.yul\":3034:3398   */\n      swap3\n      swap2\n      pop\n      pop\n      jump\t// out\n        /* \"#utility.yul\":3404:3804   */\n    tag_131:\n        /* \"#utility.yul\":3564:3567   */\n      0x00\n        /* \"#utility.yul\":3585:3669   */\n      tag_133\n        /* \"#utility.yul\":3667:3668   */\n      0x01\n        /* \"#utility.yul\":3662:3665   */\n      dup4\n        /* \"#utility.yul\":3585:3669   */\n      tag_134\n      jump\t// in\n    tag_133:\n        /* \"#utility.yul\":3578:3669   */\n      swap2\n      pop\n        /* \"#utility.yul\":3678:3771   */\n      tag_135\n        /* \"#utility.yul\":3767:3770   */\n      dup3\n        /* \"#utility.yul\":3678:3771   */\n      tag_136\n      jump\t// in\n    tag_135:\n        /* \"#utility.yul\":3796:3797   */\n      0x01\n        /* \"#utility.yul\":3791:3794   */\n      dup3\n        /* \"#utility.yul\":3787:3798   */\n      add\n        /* \"#utility.yul\":3780:3798   */\n      swap1\n      pop\n        /* \"#utility.yul\":3404:3804   */\n      swap2\n      swap1\n      pop\n      jump\t// out\n        /* \"#utility.yul\":3810:4191   */\n    tag_33:\n        /* \"#utility.yul\":3995:3998   */\n      0x00\n        /* \"#utility.yul\":4017:4165   */\n      tag_138\n        /* \"#utility.yul\":4161:4164   */\n      dup3\n        /* \"#utility.yul\":4017:4165   */\n      tag_131\n      jump\t// in\n    tag_138:\n        /* \"#utility.yul\":4010:4165   */\n      swap2\n      pop\n        /* \"#utility.yul\":4182:4185   */\n      dup2\n        /* \"#utility.yul\":4175:4185   */\n      swap1\n      pop\n        /* \"#utility.yul\":3810:4191   */\n      swap2\n      swap1\n      pop\n      jump\t// out\n        /* \"#utility.yul\":4197:4419   */\n    tag_19:\n        /* \"#utility.yul\":4290:4294   */\n      0x00\n        /* \"#utility.yul\":4328:4330   */\n      0x20\n        /* \"#utility.yul\":4317:4326   */\n      dup3\n        /* \"#utility.yul\":4313:4331   */\n      add\n        /* \"#utility.yul\":4305:4331   */\n      swap1\n      pop\n        /* \"#utility.yul\":4341:4412   */\n      tag_140\n        /* \"#utility.yul\":4409:4410   */\n      0x00\n        /* \"#utility.yul\":4398:4407   */\n      dup4\n        /* \"#utility.yul\":4394:4411   */\n      add\n        /* \"#utility.yul\":4385:4391   */\n      dup5\n        /* \"#utility.yul\":4341:4412   */\n      tag_117\n      jump\t// in\n    tag_140:\n        /* \"#utility.yul\":4197:4419   */\n      swap3\n      swap2\n      pop\n      pop\n      jump\t// out\n        /* \"#utility.yul\":4425:4738   */\n    tag_30:\n        /* \"#utility.yul\":4538:4542   */\n      0x00\n        /* \"#utility.yul\":4576:4578   */\n      0x20\n        /* \"#utility.yul\":4565:4574   */\n      dup3\n        /* \"#utility.yul\":4561:4579   */\n      add\n        /* \"#utility.yul\":4553:4579   */\n      swap1\n      pop\n        /* \"#utility.yul\":4625:4634   */\n      dup2\n        /* \"#utility.yul\":4619:4623   */\n      dup2\n        /* \"#utility.yul\":4615:4635   */\n      sub\n        /* \"#utility.yul\":4611:4612   */\n      0x00\n        /* \"#utility.yul\":4600:4609   */\n      dup4\n        /* \"#utility.yul\":4596:4613   */\n      add\n        /* \"#utility.yul\":4589:4636   */\n      mstore\n        /* \"#utility.yul\":4653:4731   */\n      tag_142\n        /* \"#utility.yul\":4726:4730   */\n      dup2\n        /* \"#utility.yul\":4717:4723   */\n      dup5\n        /* \"#utility.yul\":4653:4731   */\n      tag_121\n      jump\t// in\n    tag_142:\n        /* \"#utility.yul\":4645:4731   */\n      swap1\n      pop\n        /* \"#utility.yul\":4425:4738   */\n      swap3\n      swap2\n      pop\n      pop\n      jump\t// out\n        /* \"#utility.yul\":4744:5258   */\n    tag_24:\n        /* \"#utility.yul\":4905:4909   */\n      0x00\n        /* \"#utility.yul\":4943:4945   */\n      0x40\n        /* \"#utility.yul\":4932:4941   */\n      dup3\n        /* \"#utility.yul\":4928:4946   */\n      add\n        /* \"#utility.yul\":4920:4946   */\n      swap1\n      pop\n        /* \"#utility.yul\":4992:5001   */\n      dup2\n        /* \"#utility.yul\":4986:4990   */\n      dup2\n        /* \"#utility.yul\":4982:5002   */\n      sub\n        /* \"#utility.yul\":4978:4979   */\n      0x00\n        /* \"#utility.yul\":4967:4976   */\n      dup4\n        /* \"#utility.yul\":4963:4980   */\n      add\n        /* \"#utility.yul\":4956:5003   */\n      mstore\n        /* \"#utility.yul\":5020:5098   */\n      tag_144\n        /* \"#utility.yul\":5093:5097   */\n      dup2\n        /* \"#utility.yul\":5084:5090   */\n      dup6\n        /* \"#utility.yul\":5020:5098   */\n      tag_121\n      jump\t// in\n    tag_144:\n        /* \"#utility.yul\":5012:5098   */\n      swap1\n      pop\n        /* \"#utility.yul\":5145:5154   */\n      dup2\n        /* \"#utility.yul\":5139:5143   */\n      dup2\n        /* \"#utility.yul\":5135:5155   */\n      sub\n        /* \"#utility.yul\":5130:5132   */\n      0x20\n        /* \"#utility.yul\":5119:5128   */\n      dup4\n        /* \"#utility.yul\":5115:5133   */\n      add\n        /* \"#utility.yul\":5108:5156   */\n      mstore\n        /* \"#utility.yul\":5173:5251   */\n      tag_145\n        /* \"#utility.yul\":5246:5250   */\n      dup2\n        /* \"#utility.yul\":5237:5243   */\n      dup5\n        /* \"#utility.yul\":5173:5251   */\n      tag_121\n      jump\t// in\n    tag_145:\n        /* \"#utility.yul\":5165:5251   */\n      swap1\n      pop\n        /* \"#utility.yul\":4744:5258   */\n      swap4\n      swap3\n      pop\n      pop\n      pop\n      jump\t// out\n        /* \"#utility.yul\":5264:5393   */\n    tag_75:\n        /* \"#utility.yul\":5298:5304   */\n      0x00\n        /* \"#utility.yul\":5325:5345   */\n      tag_147\n      tag_148\n      jump\t// in\n    tag_147:\n        /* \"#utility.yul\":5315:5345   */\n      swap1\n      pop\n        /* \"#utility.yul\":5354:5387   */\n      tag_149\n        /* \"#utility.yul\":5382:5386   */\n      dup3\n        /* \"#utility.yul\":5374:5380   */\n      dup3\n        /* \"#utility.yul\":5354:5387   */\n      tag_150\n      jump\t// in\n    tag_149:\n        /* \"#utility.yul\":5264:5393   */\n      swap2\n      swap1\n      pop\n      jump\t// out\n        /* \"#utility.yul\":5399:5474   */\n    tag_148:\n        /* \"#utility.yul\":5432:5438   */\n      0x00\n        /* \"#utility.yul\":5465:5467   */\n      0x40\n        /* \"#utility.yul\":5459:5468   */\n      mload\n        /* \"#utility.yul\":5449:5468   */\n      swap1\n      pop\n        /* \"#utility.yul\":5399:5474   */\n      swap1\n      jump\t// out\n        /* \"#utility.yul\":5480:5788   */\n    tag_74:\n        /* \"#utility.yul\":5542:5546   */\n      0x00\n        /* \"#utility.yul\":5632:5650   */\n      0xffffffffffffffff\n        /* \"#utility.yul\":5624:5630   */\n      dup3\n        /* \"#utility.yul\":5621:5651   */\n      gt\n        /* \"#utility.yul\":5618:5674   */\n      iszero\n      tag_153\n      jumpi\n        /* \"#utility.yul\":5654:5672   */\n      tag_154\n      tag_155\n      jump\t// in\n    tag_154:\n        /* \"#utility.yul\":5618:5674   */\n    tag_153:\n        /* \"#utility.yul\":5692:5721   */\n      tag_156\n        /* \"#utility.yul\":5714:5720   */\n      dup3\n        /* \"#utility.yul\":5692:5721   */\n      tag_130\n      jump\t// in\n    tag_156:\n        /* \"#utility.yul\":5684:5721   */\n      swap1\n      pop\n        /* \"#utility.yul\":5776:5780   */\n      0x20\n        /* \"#utility.yul\":5770:5774   */\n      dup2\n        /* \"#utility.yul\":5766:5781   */\n      add\n        /* \"#utility.yul\":5758:5781   */\n      swap1\n      pop\n        /* \"#utility.yul\":5480:5788   */\n      swap2\n      swap1\n      pop\n      jump\t// out\n        /* \"#utility.yul\":5794:5893   */\n    tag_124:\n        /* \"#utility.yul\":5846:5852   */\n      0x00\n        /* \"#utility.yul\":5880:5885   */\n      dup2\n        /* \"#utility.yul\":5874:5886   */\n      mload\n        /* \"#utility.yul\":5864:5886   */\n      swap1\n      pop\n        /* \"#utility.yul\":5794:5893   */\n      swap2\n      swap1\n      pop\n      jump\t// out\n        /* \"#utility.yul\":5899:6068   */\n    tag_126:\n        /* \"#utility.yul\":5983:5994   */\n      0x00\n        /* \"#utility.yul\":6017:6023   */\n      dup3\n        /* \"#utility.yul\":6012:6015   */\n      dup3\n        /* \"#utility.yul\":6005:6024   */\n      mstore\n        /* \"#utility.yul\":6057:6061   */\n      0x20\n        /* \"#utility.yul\":6052:6055   */\n      dup3\n        /* \"#utility.yul\":6048:6062   */\n      add\n        /* \"#utility.yul\":6033:6062   */\n      swap1\n      pop\n        /* \"#utility.yul\":5899:6068   */\n      swap3\n      swap2\n      pop\n      pop\n      jump\t// out\n        /* \"#utility.yul\":6074:6222   */\n    tag_134:\n        /* \"#utility.yul\":6176:6187   */\n      0x00\n        /* \"#utility.yul\":6213:6216   */\n      dup2\n        /* \"#utility.yul\":6198:6216   */\n      swap1\n      pop\n        /* \"#utility.yul\":6074:6222   */\n      swap3\n      swap2\n      pop\n      pop\n      jump\t// out\n        /* \"#utility.yul\":6228:6324   */\n    tag_120:\n        /* \"#utility.yul\":6265:6272   */\n      0x00\n        /* \"#utility.yul\":6294:6318   */\n      tag_161\n        /* \"#utility.yul\":6312:6317   */\n      dup3\n        /* \"#utility.yul\":6294:6318   */\n      tag_162\n      jump\t// in\n    tag_161:\n        /* \"#utility.yul\":6283:6318   */\n      swap1\n      pop\n        /* \"#utility.yul\":6228:6324   */\n      swap2\n      swap1\n      pop\n      jump\t// out\n        /* \"#utility.yul\":6330:6456   */\n    tag_162:\n        /* \"#utility.yul\":6367:6374   */\n      0x00\n        /* \"#utility.yul\":6407:6449   */\n      0xffffffffffffffffffffffffffffffffffffffff\n        /* \"#utility.yul\":6400:6405   */\n      dup3\n        /* \"#utility.yul\":6396:6450   */\n      and\n        /* \"#utility.yul\":6385:6450   */\n      swap1\n      pop\n        /* \"#utility.yul\":6330:6456   */\n      swap2\n      swap1\n      pop\n      jump\t// out\n        /* \"#utility.yul\":6462:6539   */\n    tag_164:\n        /* \"#utility.yul\":6499:6506   */\n      0x00\n        /* \"#utility.yul\":6528:6533   */\n      dup2\n        /* \"#utility.yul\":6517:6533   */\n      swap1\n      pop\n        /* \"#utility.yul\":6462:6539   */\n      swap2\n      swap1\n      pop\n      jump\t// out\n        /* \"#utility.yul\":6545:6699   */\n    tag_80:\n        /* \"#utility.yul\":6629:6635   */\n      dup3\n        /* \"#utility.yul\":6624:6627   */\n      dup2\n        /* \"#utility.yul\":6619:6622   */\n      dup4\n        /* \"#utility.yul\":6606:6636   */\n      calldatacopy\n        /* \"#utility.yul\":6691:6692   */\n      0x00\n        /* \"#utility.yul\":6682:6688   */\n      dup4\n        /* \"#utility.yul\":6677:6680   */\n      dup4\n        /* \"#utility.yul\":6673:6689   */\n      add\n        /* \"#utility.yul\":6666:6693   */\n      mstore\n        /* \"#utility.yul\":6545:6699   */\n      pop\n      pop\n      pop\n      jump\t// out\n        /* \"#utility.yul\":6705:7012   */\n    tag_128:\n        /* \"#utility.yul\":6773:6774   */\n      0x00\n        /* \"#utility.yul\":6783:6896   */\n    tag_168:\n        /* \"#utility.yul\":6797:6803   */\n      dup4\n        /* \"#utility.yul\":6794:6795   */\n      dup2\n        /* \"#utility.yul\":6791:6804   */\n      lt\n        /* \"#utility.yul\":6783:6896   */\n      iszero\n      tag_170\n      jumpi\n        /* \"#utility.yul\":6882:6883   */\n      dup1\n        /* \"#utility.yul\":6877:6880   */\n      dup3\n        /* \"#utility.yul\":6873:6884   */\n      add\n        /* \"#utility.yul\":6867:6885   */\n      mload\n        /* \"#utility.yul\":6863:6864   */\n      dup2\n        /* \"#utility.yul\":6858:6861   */\n      dup5\n        /* \"#utility.yul\":6854:6865   */\n      add\n        /* \"#utility.yul\":6847:6886   */\n      mstore\n        /* \"#utility.yul\":6819:6821   */\n      0x20\n        /* \"#utility.yul\":6816:6817   */\n      dup2\n        /* \"#utility.yul\":6812:6822   */\n      add\n        /* \"#utility.yul\":6807:6822   */\n      swap1\n      pop\n        /* \"#utility.yul\":6783:6896   */\n      jump(tag_168)\n    tag_170:\n        /* \"#utility.yul\":6914:6920   */\n      dup4\n        /* \"#utility.yul\":6911:6912   */\n      dup2\n        /* \"#utility.yul\":6908:6921   */\n      gt\n        /* \"#utility.yul\":6905:7006   */\n      iszero\n      tag_171\n      jumpi\n        /* \"#utility.yul\":6994:6995   */\n      0x00\n        /* \"#utility.yul\":6985:6991   */\n      dup5\n        /* \"#utility.yul\":6980:6983   */\n      dup5\n        /* \"#utility.yul\":6976:6992   */\n      add\n        /* \"#utility.yul\":6969:6996   */\n      mstore\n        /* \"#utility.yul\":6905:7006   */\n    tag_171:\n        /* \"#utility.yul\":6754:7012   */\n      pop\n        /* \"#utility.yul\":6705:7012   */\n      pop\n      pop\n      pop\n      jump\t// out\n        /* \"#utility.yul\":7018:7338   */\n    tag_42:\n        /* \"#utility.yul\":7062:7068   */\n      0x00\n        /* \"#utility.yul\":7099:7100   */\n      0x02\n        /* \"#utility.yul\":7093:7097   */\n      dup3\n        /* \"#utility.yul\":7089:7101   */\n      div\n        /* \"#utility.yul\":7079:7101   */\n      swap1\n      pop\n        /* \"#utility.yul\":7146:7147   */\n      0x01\n        /* \"#utility.yul\":7140:7144   */\n      dup3\n        /* \"#utility.yul\":7136:7148   */\n      and\n        /* \"#utility.yul\":7167:7185   */\n      dup1\n        /* \"#utility.yul\":7157:7238   */\n      tag_173\n      jumpi\n        /* \"#utility.yul\":7223:7227   */\n      0x7f\n        /* \"#utility.yul\":7215:7221   */\n      dup3\n        /* \"#utility.yul\":7211:7228   */\n      and\n        /* \"#utility.yul\":7201:7228   */\n      swap2\n      pop\n        /* \"#utility.yul\":7157:7238   */\n    tag_173:\n        /* \"#utility.yul\":7285:7287   */\n      0x20\n        /* \"#utility.yul\":7277:7283   */\n      dup3\n        /* \"#utility.yul\":7274:7288   */\n      lt\n        /* \"#utility.yul\":7254:7272   */\n      dup2\n        /* \"#utility.yul\":7251:7289   */\n      eq\n        /* \"#utility.yul\":7248:7332   */\n      iszero\n      tag_174\n      jumpi\n        /* \"#utility.yul\":7304:7322   */\n      tag_175\n      tag_176\n      jump\t// in\n    tag_175:\n        /* \"#utility.yul\":7248:7332   */\n    tag_174:\n        /* \"#utility.yul\":7069:7338   */\n      pop\n        /* \"#utility.yul\":7018:7338   */\n      swap2\n      swap1\n      pop\n      jump\t// out\n        /* \"#utility.yul\":7344:7625   */\n    tag_150:\n        /* \"#utility.yul\":7427:7454   */\n      tag_178\n        /* \"#utility.yul\":7449:7453   */\n      dup3\n        /* \"#utility.yul\":7427:7454   */\n      tag_130\n      jump\t// in\n    tag_178:\n        /* \"#utility.yul\":7419:7425   */\n      dup2\n        /* \"#utility.yul\":7415:7455   */\n      add\n        /* \"#utility.yul\":7557:7563   */\n      dup2\n        /* \"#utility.yul\":7545:7555   */\n      dup2\n        /* \"#utility.yul\":7542:7564   */\n      lt\n        /* \"#utility.yul\":7521:7539   */\n      0xffffffffffffffff\n        /* \"#utility.yul\":7509:7519   */\n      dup3\n        /* \"#utility.yul\":7506:7540   */\n      gt\n        /* \"#utility.yul\":7503:7565   */\n      or\n        /* \"#utility.yul\":7500:7588   */\n      iszero\n      tag_179\n      jumpi\n        /* \"#utility.yul\":7568:7586   */\n      tag_180\n      tag_155\n      jump\t// in\n    tag_180:\n        /* \"#utility.yul\":7500:7588   */\n    tag_179:\n        /* \"#utility.yul\":7608:7618   */\n      dup1\n        /* \"#utility.yul\":7604:7606   */\n      0x40\n        /* \"#utility.yul\":7597:7619   */\n      mstore\n        /* \"#utility.yul\":7387:7625   */\n      pop\n        /* \"#utility.yul\":7344:7625   */\n      pop\n      pop\n      jump\t// out\n        /* \"#utility.yul\":7631:7811   */\n    tag_176:\n        /* \"#utility.yul\":7679:7756   */\n      0x4e487b7100000000000000000000000000000000000000000000000000000000\n        /* \"#utility.yul\":7676:7677   */\n      0x00\n        /* \"#utility.yul\":7669:7757   */\n      mstore\n        /* \"#utility.yul\":7776:7780   */\n      0x22\n        /* \"#utility.yul\":7773:7774   */\n      0x04\n        /* \"#utility.yul\":7766:7781   */\n      mstore\n        /* \"#utility.yul\":7800:7804   */\n      0x24\n        /* \"#utility.yul\":7797:7798   */\n      0x00\n        /* \"#utility.yul\":7790:7805   */\n      revert\n        /* \"#utility.yul\":7817:7997   */\n    tag_155:\n        /* \"#utility.yul\":7865:7942   */\n      0x4e487b7100000000000000000000000000000000000000000000000000000000\n        /* \"#utility.yul\":7862:7863   */\n      0x00\n        /* \"#utility.yul\":7855:7943   */\n      mstore\n        /* \"#utility.yul\":7962:7966   */\n      0x41\n        /* \"#utility.yul\":7959:7960   */\n      0x04\n        /* \"#utility.yul\":7952:7967   */\n      mstore\n        /* \"#utility.yul\":7986:7990   */\n      0x24\n        /* \"#utility.yul\":7983:7984   */\n      0x00\n        /* \"#utility.yul\":7976:7991   */\n      revert\n        /* \"#utility.yul\":8003:8120   */\n    tag_89:\n        /* \"#utility.yul\":8112:8113   */\n      0x00\n        /* \"#utility.yul\":8109:8110   */\n      dup1\n        /* \"#utility.yul\":8102:8114   */\n      revert\n        /* \"#utility.yul\":8126:8243   */\n    tag_78:\n        /* \"#utility.yul\":8235:8236   */\n      0x00\n        /* \"#utility.yul\":8232:8233   */\n      dup1\n        /* \"#utility.yul\":8225:8237   */\n      revert\n        /* \"#utility.yul\":8249:8366   */\n    tag_106:\n        /* \"#utility.yul\":8358:8359   */\n      0x00\n        /* \"#utility.yul\":8355:8356   */\n      dup1\n        /* \"#utility.yul\":8348:8360   */\n      revert\n        /* \"#utility.yul\":8372:8489   */\n    tag_98:\n        /* \"#utility.yul\":8481:8482   */\n      0x00\n        /* \"#utility.yul\":8478:8479   */\n      dup1\n        /* \"#utility.yul\":8471:8483   */\n      revert\n        /* \"#utility.yul\":8495:8597   */\n    tag_130:\n        /* \"#utility.yul\":8536:8542   */\n      0x00\n        /* \"#utility.yul\":8587:8589   */\n      0x1f\n        /* \"#utility.yul\":8583:8590   */\n      not\n        /* \"#utility.yul\":8578:8580   */\n      0x1f\n        /* \"#utility.yul\":8571:8576   */\n      dup4\n        /* \"#utility.yul\":8567:8581   */\n      add\n        /* \"#utility.yul\":8563:8591   */\n      and\n        /* \"#utility.yul\":8553:8591   */\n      swap1\n      pop\n        /* \"#utility.yul\":8495:8597   */\n      swap2\n      swap1\n      pop\n      jump\t// out\n        /* \"#utility.yul\":8603:8754   */\n    tag_136:\n        /* \"#utility.yul\":8743:8746   */\n      0x5600000000000000000000000000000000000000000000000000000000000000\n        /* \"#utility.yul\":8739:8740   */\n      0x00\n        /* \"#utility.yul\":8731:8737   */\n      dup3\n        /* \"#utility.yul\":8727:8741   */\n      add\n        /* \"#utility.yul\":8720:8747   */\n      mstore\n        /* \"#utility.yul\":8603:8754   */\n      pop\n      jump\t// out\n        /* \"#utility.yul\":8760:8882   */\n    tag_84:\n        /* \"#utility.yul\":8833:8857   */\n      tag_190\n        /* \"#utility.yul\":8851:8856   */\n      dup2\n        /* \"#utility.yul\":8833:8857   */\n      tag_120\n      jump\t// in\n    tag_190:\n        /* \"#utility.yul\":8826:8831   */\n      dup2\n        /* \"#utility.yul\":8823:8858   */\n      eq\n        /* \"#utility.yul\":8813:8876   */\n      tag_191\n      jumpi\n        /* \"#utility.yul\":8872:8873   */\n      0x00\n        /* \"#utility.yul\":8869:8870   */\n      dup1\n        /* \"#utility.yul\":8862:8874   */\n      revert\n        /* \"#utility.yul\":8813:8876   */\n    tag_191:\n        /* \"#utility.yul\":8760:8882   */\n      pop\n      jump\t// out\n        /* \"#utility.yul\":8888:9010   */\n    tag_94:\n        /* \"#utility.yul\":8961:8985   */\n      tag_193\n        /* \"#utility.yul\":8979:8984   */\n      dup2\n        /* \"#utility.yul\":8961:8985   */\n      tag_164\n      jump\t// in\n    tag_193:\n        /* \"#utility.yul\":8954:8959   */\n      dup2\n        /* \"#utility.yul\":8951:8986   */\n      eq\n        /* \"#utility.yul\":8941:9004   */\n      tag_194\n      jumpi\n        /* \"#utility.yul\":9000:9001   */\n      0x00\n        /* \"#utility.yul\":8997:8998   */\n      dup1\n        /* \"#utility.yul\":8990:9002   */\n      revert\n        /* \"#utility.yul\":8941:9004   */\n    tag_194:\n        /* \"#utility.yul\":8888:9010   */\n      pop\n      jump\t// out\n\n    auxdata: 0xa26469706673582212207ae7cde0c907ab81b440f1f1b9b1290e2c08211bc22cf05ee4b30c5c06bb36d464736f6c63430008070033\n}\n",
				"bytecode": {
					"linkReferences": {},
					"object": "608060405234801561001057600080fd5b506109bf806100206000396000f3fe608060405234801561001057600080fd5b50600436106100575760003560e01c80632d9daa001461005c578063420069b314610078578063893d20e814610094578063a5f21827146100b2578063b914d7ab146100e3575b600080fd5b610076600480360381019061007191906105e5565b610113565b005b610092600480360381019061008d919061059c565b610185565b005b61009c610214565b6040516100a991906106dd565b60405180910390f35b6100cc60048036038101906100c7919061059c565b61021c565b6040516100da92919061071a565b60405180910390f35b6100fd60048036038101906100f8919061055c565b610366565b60405161010a91906106f8565b60405180910390f35b6040518060400160405280838152602001828152506001604051610136906106c8565b9081526020016040518091039020600082015181600001908051906020019061016092919061041f565b50602082015181600101908051906020019061017d92919061041f565b509050505050565b60008073ab8483f64d9c6d1ecf9b849ae677dd3315835cb273ffffffffffffffffffffffffffffffffffffffff1673ffffffffffffffffffffffffffffffffffffffff1681526020019081526020016000208190806001815401808255809150506001900390600052602060002001600090919091909150908051906020019061021092919061041f565b5050565b600033905090565b6001818051602081018201805184825260208301602085012081835280955050505050506000915090508060000180546102559061084c565b80601f01602080910402602001604051908101604052809291908181526020018280546102819061084c565b80156102ce5780601f106102a3576101008083540402835291602001916102ce565b820191906000526020600020905b8154815290600101906020018083116102b157829003601f168201915b5050505050908060010180546102e39061084c565b80601f016020809104026020016040519081016040528092919081815260200182805461030f9061084c565b801561035c5780601f106103315761010080835404028352916020019161035c565b820191906000526020600020905b81548152906001019060200180831161033f57829003601f168201915b5050505050905082565b6000602052816000526040600020818154811061038257600080fd5b9060005260206000200160009150915050805461039e9061084c565b80601f01602080910402602001604051908101604052809291908181526020018280546103ca9061084c565b80156104175780601f106103ec57610100808354040283529160200191610417565b820191906000526020600020905b8154815290600101906020018083116103fa57829003601f168201915b505050505081565b82805461042b9061084c565b90600052602060002090601f01602090048101928261044d5760008555610494565b82601f1061046657805160ff1916838001178555610494565b82800160010185558215610494579182015b82811115610493578251825591602001919060010190610478565b5b5090506104a191906104a5565b5090565b5b808211156104be5760008160009055506001016104a6565b5090565b60006104d56104d084610776565b610751565b9050828152602081018484840111156104f1576104f0610912565b5b6104fc84828561080a565b509392505050565b6000813590506105138161095b565b92915050565b600082601f83011261052e5761052d61090d565b5b813561053e8482602086016104c2565b91505092915050565b60008135905061055681610972565b92915050565b600080604083850312156105735761057261091c565b5b600061058185828601610504565b925050602061059285828601610547565b9150509250929050565b6000602082840312156105b2576105b161091c565b5b600082013567ffffffffffffffff8111156105d0576105cf610917565b5b6105dc84828501610519565b91505092915050565b600080604083850312156105fc576105fb61091c565b5b600083013567ffffffffffffffff81111561061a57610619610917565b5b61062685828601610519565b925050602083013567ffffffffffffffff81111561064757610646610917565b5b61065385828601610519565b9150509250929050565b610666816107ce565b82525050565b6000610677826107a7565b61068181856107b2565b9350610691818560208601610819565b61069a81610921565b840191505092915050565b60006106b26001836107c3565b91506106bd82610932565b600182019050919050565b60006106d3826106a5565b9150819050919050565b60006020820190506106f2600083018461065d565b92915050565b60006020820190508181036000830152610712818461066c565b905092915050565b60006040820190508181036000830152610734818561066c565b90508181036020830152610748818461066c565b90509392505050565b600061075b61076c565b9050610767828261087e565b919050565b6000604051905090565b600067ffffffffffffffff821115610791576107906108de565b5b61079a82610921565b9050602081019050919050565b600081519050919050565b600082825260208201905092915050565b600081905092915050565b60006107d9826107e0565b9050919050565b600073ffffffffffffffffffffffffffffffffffffffff82169050919050565b6000819050919050565b82818337600083830152505050565b60005b8381101561083757808201518184015260208101905061081c565b83811115610846576000848401525b50505050565b6000600282049050600182168061086457607f821691505b60208210811415610878576108776108af565b5b50919050565b61088782610921565b810181811067ffffffffffffffff821117156108a6576108a56108de565b5b80604052505050565b7f4e487b7100000000000000000000000000000000000000000000000000000000600052602260045260246000fd5b7f4e487b7100000000000000000000000000000000000000000000000000000000600052604160045260246000fd5b600080fd5b600080fd5b600080fd5b600080fd5b6000601f19601f8301169050919050565b7f5600000000000000000000000000000000000000000000000000000000000000600082015250565b610964816107ce565b811461096f57600080fd5b50565b61097b81610800565b811461098657600080fd5b5056fea26469706673582212207ae7cde0c907ab81b440f1f1b9b1290e2c08211bc22cf05ee4b30c5c06bb36d464736f6c63430008070033",
					"opcodes": "PUSH1 0x80 PUSH1 0x40 MSTORE CALLVALUE DUP1 ISZERO PUSH2 0x10 JUMPI PUSH1 0x0 DUP1 REVERT JUMPDEST POP PUSH2 0x9BF DUP1 PUSH2 0x20 PUSH1 0x0 CODECOPY PUSH1 0x0 RETURN INVALID PUSH1 0x80 PUSH1 0x40 MSTORE CALLVALUE DUP1 ISZERO PUSH2 0x10 JUMPI PUSH1 0x0 DUP1 REVERT JUMPDEST POP PUSH1 0x4 CALLDATASIZE LT PUSH2 0x57 JUMPI PUSH1 0x0 CALLDATALOAD PUSH1 0xE0 SHR DUP1 PUSH4 0x2D9DAA00 EQ PUSH2 0x5C JUMPI DUP1 PUSH4 0x420069B3 EQ PUSH2 0x78 JUMPI DUP1 PUSH4 0x893D20E8 EQ PUSH2 0x94 JUMPI DUP1 PUSH4 0xA5F21827 EQ PUSH2 0xB2 JUMPI DUP1 PUSH4 0xB914D7AB EQ PUSH2 0xE3 JUMPI JUMPDEST PUSH1 0x0 DUP1 REVERT JUMPDEST PUSH2 0x76 PUSH1 0x4 DUP1 CALLDATASIZE SUB DUP2 ADD SWAP1 PUSH2 0x71 SWAP2 SWAP1 PUSH2 0x5E5 JUMP JUMPDEST PUSH2 0x113 JUMP JUMPDEST STOP JUMPDEST PUSH2 0x92 PUSH1 0x4 DUP1 CALLDATASIZE SUB DUP2 ADD SWAP1 PUSH2 0x8D SWAP2 SWAP1 PUSH2 0x59C JUMP JUMPDEST PUSH2 0x185 JUMP JUMPDEST STOP JUMPDEST PUSH2 0x9C PUSH2 0x214 JUMP JUMPDEST PUSH1 0x40 MLOAD PUSH2 0xA9 SWAP2 SWAP1 PUSH2 0x6DD JUMP JUMPDEST PUSH1 0x40 MLOAD DUP1 SWAP2 SUB SWAP1 RETURN JUMPDEST PUSH2 0xCC PUSH1 0x4 DUP1 CALLDATASIZE SUB DUP2 ADD SWAP1 PUSH2 0xC7 SWAP2 SWAP1 PUSH2 0x59C JUMP JUMPDEST PUSH2 0x21C JUMP JUMPDEST PUSH1 0x40 MLOAD PUSH2 0xDA SWAP3 SWAP2 SWAP1 PUSH2 0x71A JUMP JUMPDEST PUSH1 0x40 MLOAD DUP1 SWAP2 SUB SWAP1 RETURN JUMPDEST PUSH2 0xFD PUSH1 0x4 DUP1 CALLDATASIZE SUB DUP2 ADD SWAP1 PUSH2 0xF8 SWAP2 SWAP1 PUSH2 0x55C JUMP JUMPDEST PUSH2 0x366 JUMP JUMPDEST PUSH1 0x40 MLOAD PUSH2 0x10A SWAP2 SWAP1 PUSH2 0x6F8 JUMP JUMPDEST PUSH1 0x40 MLOAD DUP1 SWAP2 SUB SWAP1 RETURN JUMPDEST PUSH1 0x40 MLOAD DUP1 PUSH1 0x40 ADD PUSH1 0x40 MSTORE DUP1 DUP4 DUP2 MSTORE PUSH1 0x20 ADD DUP3 DUP2 MSTORE POP PUSH1 0x1 PUSH1 0x40 MLOAD PUSH2 0x136 SWAP1 PUSH2 0x6C8 JUMP JUMPDEST SWAP1 DUP2 MSTORE PUSH1 0x20 ADD PUSH1 0x40 MLOAD DUP1 SWAP2 SUB SWAP1 KECCAK256 PUSH1 0x0 DUP3 ADD MLOAD DUP2 PUSH1 0x0 ADD SWAP1 DUP1 MLOAD SWAP1 PUSH1 0x20 ADD SWAP1 PUSH2 0x160 SWAP3 SWAP2 SWAP1 PUSH2 0x41F JUMP JUMPDEST POP PUSH1 0x20 DUP3 ADD MLOAD DUP2 PUSH1 0x1 ADD SWAP1 DUP1 MLOAD SWAP1 PUSH1 0x20 ADD SWAP1 PUSH2 0x17D SWAP3 SWAP2 SWAP1 PUSH2 0x41F JUMP JUMPDEST POP SWAP1 POP POP POP POP JUMP JUMPDEST PUSH1 0x0 DUP1 PUSH20 0xAB8483F64D9C6D1ECF9B849AE677DD3315835CB2 PUSH20 0xFFFFFFFFFFFFFFFFFFFFFFFFFFFFFFFFFFFFFFFF AND PUSH20 0xFFFFFFFFFFFFFFFFFFFFFFFFFFFFFFFFFFFFFFFF AND DUP2 MSTORE PUSH1 0x20 ADD SWAP1 DUP2 MSTORE PUSH1 0x20 ADD PUSH1 0x0 KECCAK256 DUP2 SWAP1 DUP1 PUSH1 0x1 DUP2 SLOAD ADD DUP1 DUP3 SSTORE DUP1 SWAP2 POP POP PUSH1 0x1 SWAP1 SUB SWAP1 PUSH1 0x0 MSTORE PUSH1 0x20 PUSH1 0x0 KECCAK256 ADD PUSH1 0x0 SWAP1 SWAP2 SWAP1 SWAP2 SWAP1 SWAP2 POP SWAP1 DUP1 MLOAD SWAP1 PUSH1 0x20 ADD SWAP1 PUSH2 0x210 SWAP3 SWAP2 SWAP1 PUSH2 0x41F JUMP JUMPDEST POP POP JUMP JUMPDEST PUSH1 0x0 CALLER SWAP1 POP SWAP1 JUMP JUMPDEST PUSH1 0x1 DUP2 DUP1 MLOAD PUSH1 0x20 DUP2 ADD DUP3 ADD DUP1 MLOAD DUP5 DUP3 MSTORE PUSH1 0x20 DUP4 ADD PUSH1 0x20 DUP6 ADD KECCAK256 DUP2 DUP4 MSTORE DUP1 SWAP6 POP POP POP POP POP POP PUSH1 0x0 SWAP2 POP SWAP1 POP DUP1 PUSH1 0x0 ADD DUP1 SLOAD PUSH2 0x255 SWAP1 PUSH2 0x84C JUMP JUMPDEST DUP1 PUSH1 0x1F ADD PUSH1 0x20 DUP1 SWAP2 DIV MUL PUSH1 0x20 ADD PUSH1 0x40 MLOAD SWAP1 DUP2 ADD PUSH1 0x40 MSTORE DUP1 SWAP3 SWAP2 SWAP1 DUP2 DUP2 MSTORE PUSH1 0x20 ADD DUP3 DUP1 SLOAD PUSH2 0x281 SWAP1 PUSH2 0x84C JUMP JUMPDEST DUP1 ISZERO PUSH2 0x2CE JUMPI DUP1 PUSH1 0x1F LT PUSH2 0x2A3 JUMPI PUSH2 0x100 DUP1 DUP4 SLOAD DIV MUL DUP4 MSTORE SWAP2 PUSH1 0x20 ADD SWAP2 PUSH2 0x2CE JUMP JUMPDEST DUP3 ADD SWAP2 SWAP1 PUSH1 0x0 MSTORE PUSH1 0x20 PUSH1 0x0 KECCAK256 SWAP1 JUMPDEST DUP2 SLOAD DUP2 MSTORE SWAP1 PUSH1 0x1 ADD SWAP1 PUSH1 0x20 ADD DUP1 DUP4 GT PUSH2 0x2B1 JUMPI DUP3 SWAP1 SUB PUSH1 0x1F AND DUP3 ADD SWAP2 JUMPDEST POP POP POP POP POP SWAP1 DUP1 PUSH1 0x1 ADD DUP1 SLOAD PUSH2 0x2E3 SWAP1 PUSH2 0x84C JUMP JUMPDEST DUP1 PUSH1 0x1F ADD PUSH1 0x20 DUP1 SWAP2 DIV MUL PUSH1 0x20 ADD PUSH1 0x40 MLOAD SWAP1 DUP2 ADD PUSH1 0x40 MSTORE DUP1 SWAP3 SWAP2 SWAP1 DUP2 DUP2 MSTORE PUSH1 0x20 ADD DUP3 DUP1 SLOAD PUSH2 0x30F SWAP1 PUSH2 0x84C JUMP JUMPDEST DUP1 ISZERO PUSH2 0x35C JUMPI DUP1 PUSH1 0x1F LT PUSH2 0x331 JUMPI PUSH2 0x100 DUP1 DUP4 SLOAD DIV MUL DUP4 MSTORE SWAP2 PUSH1 0x20 ADD SWAP2 PUSH2 0x35C JUMP JUMPDEST DUP3 ADD SWAP2 SWAP1 PUSH1 0x0 MSTORE PUSH1 0x20 PUSH1 0x0 KECCAK256 SWAP1 JUMPDEST DUP2 SLOAD DUP2 MSTORE SWAP1 PUSH1 0x1 ADD SWAP1 PUSH1 0x20 ADD DUP1 DUP4 GT PUSH2 0x33F JUMPI DUP3 SWAP1 SUB PUSH1 0x1F AND DUP3 ADD SWAP2 JUMPDEST POP POP POP POP POP SWAP1 POP DUP3 JUMP JUMPDEST PUSH1 0x0 PUSH1 0x20 MSTORE DUP2 PUSH1 0x0 MSTORE PUSH1 0x40 PUSH1 0x0 KECCAK256 DUP2 DUP2 SLOAD DUP2 LT PUSH2 0x382 JUMPI PUSH1 0x0 DUP1 REVERT JUMPDEST SWAP1 PUSH1 0x0 MSTORE PUSH1 0x20 PUSH1 0x0 KECCAK256 ADD PUSH1 0x0 SWAP2 POP SWAP2 POP POP DUP1 SLOAD PUSH2 0x39E SWAP1 PUSH2 0x84C JUMP JUMPDEST DUP1 PUSH1 0x1F ADD PUSH1 0x20 DUP1 SWAP2 DIV MUL PUSH1 0x20 ADD PUSH1 0x40 MLOAD SWAP1 DUP2 ADD PUSH1 0x40 MSTORE DUP1 SWAP3 SWAP2 SWAP1 DUP2 DUP2 MSTORE PUSH1 0x20 ADD DUP3 DUP1 SLOAD PUSH2 0x3CA SWAP1 PUSH2 0x84C JUMP JUMPDEST DUP1 ISZERO PUSH2 0x417 JUMPI DUP1 PUSH1 0x1F LT PUSH2 0x3EC JUMPI PUSH2 0x100 DUP1 DUP4 SLOAD DIV MUL DUP4 MSTORE SWAP2 PUSH1 0x20 ADD SWAP2 PUSH2 0x417 JUMP JUMPDEST DUP3 ADD SWAP2 SWAP1 PUSH1 0x0 MSTORE PUSH1 0x20 PUSH1 0x0 KECCAK256 SWAP1 JUMPDEST DUP2 SLOAD DUP2 MSTORE SWAP1 PUSH1 0x1 ADD SWAP1 PUSH1 0x20 ADD DUP1 DUP4 GT PUSH2 0x3FA JUMPI DUP3 SWAP1 SUB PUSH1 0x1F AND DUP3 ADD SWAP2 JUMPDEST POP POP POP POP POP DUP2 JUMP JUMPDEST DUP3 DUP1 SLOAD PUSH2 0x42B SWAP1 PUSH2 0x84C JUMP JUMPDEST SWAP1 PUSH1 0x0 MSTORE PUSH1 0x20 PUSH1 0x0 KECCAK256 SWAP1 PUSH1 0x1F ADD PUSH1 0x20 SWAP1 DIV DUP2 ADD SWAP3 DUP3 PUSH2 0x44D JUMPI PUSH1 0x0 DUP6 SSTORE PUSH2 0x494 JUMP JUMPDEST DUP3 PUSH1 0x1F LT PUSH2 0x466 JUMPI DUP1 MLOAD PUSH1 0xFF NOT AND DUP4 DUP1 ADD OR DUP6 SSTORE PUSH2 0x494 JUMP JUMPDEST DUP3 DUP1 ADD PUSH1 0x1 ADD DUP6 SSTORE DUP3 ISZERO PUSH2 0x494 JUMPI SWAP2 DUP3 ADD JUMPDEST DUP3 DUP2 GT ISZERO PUSH2 0x493 JUMPI DUP3 MLOAD DUP3 SSTORE SWAP2 PUSH1 0x20 ADD SWAP2 SWAP1 PUSH1 0x1 ADD SWAP1 PUSH2 0x478 JUMP JUMPDEST JUMPDEST POP SWAP1 POP PUSH2 0x4A1 SWAP2 SWAP1 PUSH2 0x4A5 JUMP JUMPDEST POP SWAP1 JUMP JUMPDEST JUMPDEST DUP1 DUP3 GT ISZERO PUSH2 0x4BE JUMPI PUSH1 0x0 DUP2 PUSH1 0x0 SWAP1 SSTORE POP PUSH1 0x1 ADD PUSH2 0x4A6 JUMP JUMPDEST POP SWAP1 JUMP JUMPDEST PUSH1 0x0 PUSH2 0x4D5 PUSH2 0x4D0 DUP5 PUSH2 0x776 JUMP JUMPDEST PUSH2 0x751 JUMP JUMPDEST SWAP1 POP DUP3 DUP2 MSTORE PUSH1 0x20 DUP2 ADD DUP5 DUP5 DUP5 ADD GT ISZERO PUSH2 0x4F1 JUMPI PUSH2 0x4F0 PUSH2 0x912 JUMP JUMPDEST JUMPDEST PUSH2 0x4FC DUP5 DUP3 DUP6 PUSH2 0x80A JUMP JUMPDEST POP SWAP4 SWAP3 POP POP POP JUMP JUMPDEST PUSH1 0x0 DUP2 CALLDATALOAD SWAP1 POP PUSH2 0x513 DUP2 PUSH2 0x95B JUMP JUMPDEST SWAP3 SWAP2 POP POP JUMP JUMPDEST PUSH1 0x0 DUP3 PUSH1 0x1F DUP4 ADD SLT PUSH2 0x52E JUMPI PUSH2 0x52D PUSH2 0x90D JUMP JUMPDEST JUMPDEST DUP2 CALLDATALOAD PUSH2 0x53E DUP5 DUP3 PUSH1 0x20 DUP7 ADD PUSH2 0x4C2 JUMP JUMPDEST SWAP2 POP POP SWAP3 SWAP2 POP POP JUMP JUMPDEST PUSH1 0x0 DUP2 CALLDATALOAD SWAP1 POP PUSH2 0x556 DUP2 PUSH2 0x972 JUMP JUMPDEST SWAP3 SWAP2 POP POP JUMP JUMPDEST PUSH1 0x0 DUP1 PUSH1 0x40 DUP4 DUP6 SUB SLT ISZERO PUSH2 0x573 JUMPI PUSH2 0x572 PUSH2 0x91C JUMP JUMPDEST JUMPDEST PUSH1 0x0 PUSH2 0x581 DUP6 DUP3 DUP7 ADD PUSH2 0x504 JUMP JUMPDEST SWAP3 POP POP PUSH1 0x20 PUSH2 0x592 DUP6 DUP3 DUP7 ADD PUSH2 0x547 JUMP JUMPDEST SWAP2 POP POP SWAP3 POP SWAP3 SWAP1 POP JUMP JUMPDEST PUSH1 0x0 PUSH1 0x20 DUP3 DUP5 SUB SLT ISZERO PUSH2 0x5B2 JUMPI PUSH2 0x5B1 PUSH2 0x91C JUMP JUMPDEST JUMPDEST PUSH1 0x0 DUP3 ADD CALLDATALOAD PUSH8 0xFFFFFFFFFFFFFFFF DUP2 GT ISZERO PUSH2 0x5D0 JUMPI PUSH2 0x5CF PUSH2 0x917 JUMP JUMPDEST JUMPDEST PUSH2 0x5DC DUP5 DUP3 DUP6 ADD PUSH2 0x519 JUMP JUMPDEST SWAP2 POP POP SWAP3 SWAP2 POP POP JUMP JUMPDEST PUSH1 0x0 DUP1 PUSH1 0x40 DUP4 DUP6 SUB SLT ISZERO PUSH2 0x5FC JUMPI PUSH2 0x5FB PUSH2 0x91C JUMP JUMPDEST JUMPDEST PUSH1 0x0 DUP4 ADD CALLDATALOAD PUSH8 0xFFFFFFFFFFFFFFFF DUP2 GT ISZERO PUSH2 0x61A JUMPI PUSH2 0x619 PUSH2 0x917 JUMP JUMPDEST JUMPDEST PUSH2 0x626 DUP6 DUP3 DUP7 ADD PUSH2 0x519 JUMP JUMPDEST SWAP3 POP POP PUSH1 0x20 DUP4 ADD CALLDATALOAD PUSH8 0xFFFFFFFFFFFFFFFF DUP2 GT ISZERO PUSH2 0x647 JUMPI PUSH2 0x646 PUSH2 0x917 JUMP JUMPDEST JUMPDEST PUSH2 0x653 DUP6 DUP3 DUP7 ADD PUSH2 0x519 JUMP JUMPDEST SWAP2 POP POP SWAP3 POP SWAP3 SWAP1 POP JUMP JUMPDEST PUSH2 0x666 DUP2 PUSH2 0x7CE JUMP JUMPDEST DUP3 MSTORE POP POP JUMP JUMPDEST PUSH1 0x0 PUSH2 0x677 DUP3 PUSH2 0x7A7 JUMP JUMPDEST PUSH2 0x681 DUP2 DUP6 PUSH2 0x7B2 JUMP JUMPDEST SWAP4 POP PUSH2 0x691 DUP2 DUP6 PUSH1 0x20 DUP7 ADD PUSH2 0x819 JUMP JUMPDEST PUSH2 0x69A DUP2 PUSH2 0x921 JUMP JUMPDEST DUP5 ADD SWAP2 POP POP SWAP3 SWAP2 POP POP JUMP JUMPDEST PUSH1 0x0 PUSH2 0x6B2 PUSH1 0x1 DUP4 PUSH2 0x7C3 JUMP JUMPDEST SWAP2 POP PUSH2 0x6BD DUP3 PUSH2 0x932 JUMP JUMPDEST PUSH1 0x1 DUP3 ADD SWAP1 POP SWAP2 SWAP1 POP JUMP JUMPDEST PUSH1 0x0 PUSH2 0x6D3 DUP3 PUSH2 0x6A5 JUMP JUMPDEST SWAP2 POP DUP2 SWAP1 POP SWAP2 SWAP1 POP JUMP JUMPDEST PUSH1 0x0 PUSH1 0x20 DUP3 ADD SWAP1 POP PUSH2 0x6F2 PUSH1 0x0 DUP4 ADD DUP5 PUSH2 0x65D JUMP JUMPDEST SWAP3 SWAP2 POP POP JUMP JUMPDEST PUSH1 0x0 PUSH1 0x20 DUP3 ADD SWAP1 POP DUP2 DUP2 SUB PUSH1 0x0 DUP4 ADD MSTORE PUSH2 0x712 DUP2 DUP5 PUSH2 0x66C JUMP JUMPDEST SWAP1 POP SWAP3 SWAP2 POP POP JUMP JUMPDEST PUSH1 0x0 PUSH1 0x40 DUP3 ADD SWAP1 POP DUP2 DUP2 SUB PUSH1 0x0 DUP4 ADD MSTORE PUSH2 0x734 DUP2 DUP6 PUSH2 0x66C JUMP JUMPDEST SWAP1 POP DUP2 DUP2 SUB PUSH1 0x20 DUP4 ADD MSTORE PUSH2 0x748 DUP2 DUP5 PUSH2 0x66C JUMP JUMPDEST SWAP1 POP SWAP4 SWAP3 POP POP POP JUMP JUMPDEST PUSH1 0x0 PUSH2 0x75B PUSH2 0x76C JUMP JUMPDEST SWAP1 POP PUSH2 0x767 DUP3 DUP3 PUSH2 0x87E JUMP JUMPDEST SWAP2 SWAP1 POP JUMP JUMPDEST PUSH1 0x0 PUSH1 0x40 MLOAD SWAP1 POP SWAP1 JUMP JUMPDEST PUSH1 0x0 PUSH8 0xFFFFFFFFFFFFFFFF DUP3 GT ISZERO PUSH2 0x791 JUMPI PUSH2 0x790 PUSH2 0x8DE JUMP JUMPDEST JUMPDEST PUSH2 0x79A DUP3 PUSH2 0x921 JUMP JUMPDEST SWAP1 POP PUSH1 0x20 DUP2 ADD SWAP1 POP SWAP2 SWAP1 POP JUMP JUMPDEST PUSH1 0x0 DUP2 MLOAD SWAP1 POP SWAP2 SWAP1 POP JUMP JUMPDEST PUSH1 0x0 DUP3 DUP3 MSTORE PUSH1 0x20 DUP3 ADD SWAP1 POP SWAP3 SWAP2 POP POP JUMP JUMPDEST PUSH1 0x0 DUP2 SWAP1 POP SWAP3 SWAP2 POP POP JUMP JUMPDEST PUSH1 0x0 PUSH2 0x7D9 DUP3 PUSH2 0x7E0 JUMP JUMPDEST SWAP1 POP SWAP2 SWAP1 POP JUMP JUMPDEST PUSH1 0x0 PUSH20 0xFFFFFFFFFFFFFFFFFFFFFFFFFFFFFFFFFFFFFFFF DUP3 AND SWAP1 POP SWAP2 SWAP1 POP JUMP JUMPDEST PUSH1 0x0 DUP2 SWAP1 POP SWAP2 SWAP1 POP JUMP JUMPDEST DUP3 DUP2 DUP4 CALLDATACOPY PUSH1 0x0 DUP4 DUP4 ADD MSTORE POP POP POP JUMP JUMPDEST PUSH1 0x0 JUMPDEST DUP4 DUP2 LT ISZERO PUSH2 0x837 JUMPI DUP1 DUP3 ADD MLOAD DUP2 DUP5 ADD MSTORE PUSH1 0x20 DUP2 ADD SWAP1 POP PUSH2 0x81C JUMP JUMPDEST DUP4 DUP2 GT ISZERO PUSH2 0x846 JUMPI PUSH1 0x0 DUP5 DUP5 ADD MSTORE JUMPDEST POP POP POP POP JUMP JUMPDEST PUSH1 0x0 PUSH1 0x2 DUP3 DIV SWAP1 POP PUSH1 0x1 DUP3 AND DUP1 PUSH2 0x864 JUMPI PUSH1 0x7F DUP3 AND SWAP2 POP JUMPDEST PUSH1 0x20 DUP3 LT DUP2 EQ ISZERO PUSH2 0x878 JUMPI PUSH2 0x877 PUSH2 0x8AF JUMP JUMPDEST JUMPDEST POP SWAP2 SWAP1 POP JUMP JUMPDEST PUSH2 0x887 DUP3 PUSH2 0x921 JUMP JUMPDEST DUP2 ADD DUP2 DUP2 LT PUSH8 0xFFFFFFFFFFFFFFFF DUP3 GT OR ISZERO PUSH2 0x8A6 JUMPI PUSH2 0x8A5 PUSH2 0x8DE JUMP JUMPDEST JUMPDEST DUP1 PUSH1 0x40 MSTORE POP POP POP JUMP JUMPDEST PUSH32 0x4E487B7100000000000000000000000000000000000000000000000000000000 PUSH1 0x0 MSTORE PUSH1 0x22 PUSH1 0x4 MSTORE PUSH1 0x24 PUSH1 0x0 REVERT JUMPDEST PUSH32 0x4E487B7100000000000000000000000000000000000000000000000000000000 PUSH1 0x0 MSTORE PUSH1 0x41 PUSH1 0x4 MSTORE PUSH1 0x24 PUSH1 0x0 REVERT JUMPDEST PUSH1 0x0 DUP1 REVERT JUMPDEST PUSH1 0x0 DUP1 REVERT JUMPDEST PUSH1 0x0 DUP1 REVERT JUMPDEST PUSH1 0x0 DUP1 REVERT JUMPDEST PUSH1 0x0 PUSH1 0x1F NOT PUSH1 0x1F DUP4 ADD AND SWAP1 POP SWAP2 SWAP1 POP JUMP JUMPDEST PUSH32 0x5600000000000000000000000000000000000000000000000000000000000000 PUSH1 0x0 DUP3 ADD MSTORE POP JUMP JUMPDEST PUSH2 0x964 DUP2 PUSH2 0x7CE JUMP JUMPDEST DUP2 EQ PUSH2 0x96F JUMPI PUSH1 0x0 DUP1 REVERT JUMPDEST POP JUMP JUMPDEST PUSH2 0x97B DUP2 PUSH2 0x800 JUMP JUMPDEST DUP2 EQ PUSH2 0x986 JUMPI PUSH1 0x0 DUP1 REVERT JUMPDEST POP JUMP INVALID LOG2 PUSH5 0x6970667358 0x22 SLT KECCAK256 PUSH27 0xE7CDE0C907AB81B440F1F1B9B1290E2C08211BC22CF05EE4B30C5C MOD 0xBB CALLDATASIZE 0xD4 PUSH5 0x736F6C6343 STOP ADDMOD SMOD STOP CALLER "
				},
				"gasEstimates": {
					"creation": {
						"codeDepositCost": "499000",
						"executionCost": "530",
						"totalCost": "499530"
					},
					"external": {
						"getOwner()": "407",
						"names(address,uint256)": "infinite",
						"pushValues(string,string)": "infinite",
						"setValues(string)": "infinite",
						"traits(string)": "infinite"
					}
				},
				"methodIdentifiers": {
					"getOwner()": "893d20e8",
					"names(address,uint256)": "b914d7ab",
					"pushValues(string,string)": "2d9daa00",
					"setValues(string)": "420069b3",
					"traits(string)": "a5f21827"
				}
			},
			"storageLayout": {
				"storage": [
					{
						"astId": 6,
						"contract": "contracts/mappings.sol:MappingsSample",
						"label": "names",
						"offset": 0,
						"slot": "0",
						"type": "t_mapping(t_address,t_array(t_string_storage)dyn_storage)"
					},
					{
						"astId": 42,
						"contract": "contracts/mappings.sol:MappingsSample",
						"label": "traits",
						"offset": 0,
						"slot": "1",
						"type": "t_mapping(t_string_memory_ptr,t_struct(Traits)37_storage)"
					}
				],
				"types": {
					"t_address": {
						"encoding": "inplace",
						"label": "address",
						"numberOfBytes": "20"
					},
					"t_array(t_string_storage)dyn_storage": {
						"base": "t_string_storage",
						"encoding": "dynamic_array",
						"label": "string[]",
						"numberOfBytes": "32"
					},
					"t_mapping(t_address,t_array(t_string_storage)dyn_storage)": {
						"encoding": "mapping",
						"key": "t_address",
						"label": "mapping(address => string[])",
						"numberOfBytes": "32",
						"value": "t_array(t_string_storage)dyn_storage"
					},
					"t_mapping(t_string_memory_ptr,t_struct(Traits)37_storage)": {
						"encoding": "mapping",
						"key": "t_string_memory_ptr",
						"label": "mapping(string => struct MappingsSample.Traits)",
						"numberOfBytes": "32",
						"value": "t_struct(Traits)37_storage"
					},
					"t_string_memory_ptr": {
						"encoding": "bytes",
						"label": "string",
						"numberOfBytes": "32"
					},
					"t_string_storage": {
						"encoding": "bytes",
						"label": "string",
						"numberOfBytes": "32"
					},
					"t_struct(Traits)37_storage": {
						"encoding": "inplace",
						"label": "struct MappingsSample.Traits",
						"members": [
							{
								"astId": 34,
								"contract": "contracts/mappings.sol:MappingsSample",
								"label": "color",
								"offset": 0,
								"slot": "0",
								"type": "t_string_storage"
							},
							{
								"astId": 36,
								"contract": "contracts/mappings.sol:MappingsSample",
								"label": "country",
								"offset": 0,
								"slot": "1",
								"type": "t_string_storage"
							}
						],
						"numberOfBytes": "64"
					}
				}
			},
			"userdoc": {
				"kind": "user",
				"methods": {},
				"version": 1
			}
		}
	}
}