{
	"contracts/overloading.sol": {
		"checkOverLoad": {
			"abi": [
				{
					"inputs": [
						{
							"internalType": "uint256",
							"name": "a",
							"type": "uint256"
						},
						{
							"internalType": "uint256",
							"name": "b",
							"type": "uint256"
						}
					],
					"name": "add",
					"outputs": [
						{
							"internalType": "uint256",
							"name": "",
							"type": "uint256"
						}
					],
					"stateMutability": "pure",
					"type": "function"
				},
				{
					"inputs": [
						{
							"internalType": "string",
							"name": "a",
							"type": "string"
						},
						{
							"internalType": "string",
							"name": "b",
							"type": "string"
						},
						{
							"internalType": "string",
							"name": "c",
							"type": "string"
						}
					],
					"name": "add",
					"outputs": [
						{
							"internalType": "uint256",
							"name": "",
							"type": "uint256"
						}
					],
					"stateMutability": "pure",
					"type": "function"
				}
			],
			"devdoc": {
				"kind": "dev",
				"methods": {},
				"version": 1
			},
			"evm": {
				"assembly": "    /* \"contracts/overloading.sol\":66:476  contract checkOverLoad{\r... */\n  mstore(0x40, 0x80)\n  callvalue\n  dup1\n  iszero\n  tag_1\n  jumpi\n  0x00\n  dup1\n  revert\ntag_1:\n  pop\n  dataSize(sub_0)\n  dup1\n  dataOffset(sub_0)\n  0x00\n  codecopy\n  0x00\n  return\nstop\n\nsub_0: assembly {\n        /* \"contracts/overloading.sol\":66:476  contract checkOverLoad{\r... */\n      mstore(0x40, 0x80)\n      callvalue\n      dup1\n      iszero\n      tag_1\n      jumpi\n      0x00\n      dup1\n      revert\n    tag_1:\n      pop\n      jumpi(tag_2, lt(calldatasize, 0x04))\n      shr(0xe0, calldataload(0x00))\n      dup1\n      0x771602f7\n      eq\n      tag_3\n      jumpi\n      dup1\n      0xf034d6b1\n      eq\n      tag_4\n      jumpi\n    tag_2:\n      0x00\n      dup1\n      revert\n        /* \"contracts/overloading.sol\":148:307  function add(uint a,uint b)// You can have different arguments or different datatypes\r... */\n    tag_3:\n      tag_5\n      0x04\n      dup1\n      calldatasize\n      sub\n      dup2\n      add\n      swap1\n      tag_6\n      swap2\n      swap1\n      tag_7\n      jump\t// in\n    tag_6:\n      tag_8\n      jump\t// in\n    tag_5:\n      mload(0x40)\n      tag_9\n      swap2\n      swap1\n      tag_10\n      jump\t// in\n    tag_9:\n      mload(0x40)\n      dup1\n      swap2\n      sub\n      swap1\n      return\n        /* \"contracts/overloading.sol\":336:467  function add(string memory a, string memory b, string memory c)\r... */\n    tag_4:\n      tag_11\n      0x04\n      dup1\n      calldatasize\n      sub\n      dup2\n      add\n      swap1\n      tag_12\n      swap2\n      swap1\n      tag_13\n      jump\t// in\n    tag_12:\n      tag_14\n      jump\t// in\n    tag_11:\n      mload(0x40)\n      tag_15\n      swap2\n      swap1\n      tag_10\n      jump\t// in\n    tag_15:\n      mload(0x40)\n      dup1\n      swap2\n      sub\n      swap1\n      return\n        /* \"contracts/overloading.sol\":148:307  function add(uint a,uint b)// You can have different arguments or different datatypes\r... */\n    tag_8:\n        /* \"contracts/overloading.sol\":269:273  uint */\n      0x00\n        /* \"contracts/overloading.sol\":296:297  b */\n      dup2\n        /* \"contracts/overloading.sol\":294:295  a */\n      dup4\n        /* \"contracts/overloading.sol\":294:297  a+b */\n      tag_17\n      swap2\n      swap1\n      tag_18\n      jump\t// in\n    tag_17:\n        /* \"contracts/overloading.sol\":287:297  return a+b */\n      swap1\n      pop\n        /* \"contracts/overloading.sol\":148:307  function add(uint a,uint b)// You can have different arguments or different datatypes\r... */\n      swap3\n      swap2\n      pop\n      pop\n      jump\t// out\n        /* \"contracts/overloading.sol\":336:467  function add(string memory a, string memory b, string memory c)\r... */\n    tag_14:\n        /* \"contracts/overloading.sol\":435:439  uint */\n      0x00\n        /* \"contracts/overloading.sol\":458:459  1 */\n      0x01\n        /* \"contracts/overloading.sol\":451:459  return 1 */\n      swap1\n      pop\n        /* \"contracts/overloading.sol\":336:467  function add(string memory a, string memory b, string memory c)\r... */\n      swap4\n      swap3\n      pop\n      pop\n      pop\n      jump\t// out\n        /* \"#utility.yul\":7:419   */\n    tag_21:\n        /* \"#utility.yul\":85:90   */\n      0x00\n        /* \"#utility.yul\":110:176   */\n      tag_23\n        /* \"#utility.yul\":126:175   */\n      tag_24\n        /* \"#utility.yul\":168:174   */\n      dup5\n        /* \"#utility.yul\":126:175   */\n      tag_25\n      jump\t// in\n    tag_24:\n        /* \"#utility.yul\":110:176   */\n      tag_26\n      jump\t// in\n    tag_23:\n        /* \"#utility.yul\":101:176   */\n      swap1\n      pop\n        /* \"#utility.yul\":199:205   */\n      dup3\n        /* \"#utility.yul\":192:197   */\n      dup2\n        /* \"#utility.yul\":185:206   */\n      mstore\n        /* \"#utility.yul\":237:241   */\n      0x20\n        /* \"#utility.yul\":230:235   */\n      dup2\n        /* \"#utility.yul\":226:242   */\n      add\n        /* \"#utility.yul\":275:278   */\n      dup5\n        /* \"#utility.yul\":266:272   */\n      dup5\n        /* \"#utility.yul\":261:264   */\n      dup5\n        /* \"#utility.yul\":257:273   */\n      add\n        /* \"#utility.yul\":254:279   */\n      gt\n        /* \"#utility.yul\":251:363   */\n      iszero\n      tag_27\n      jumpi\n        /* \"#utility.yul\":282:361   */\n      tag_28\n      tag_29\n      jump\t// in\n    tag_28:\n        /* \"#utility.yul\":251:363   */\n    tag_27:\n        /* \"#utility.yul\":372:413   */\n      tag_30\n        /* \"#utility.yul\":406:412   */\n      dup5\n        /* \"#utility.yul\":401:404   */\n      dup3\n        /* \"#utility.yul\":396:399   */\n      dup6\n        /* \"#utility.yul\":372:413   */\n      tag_31\n      jump\t// in\n    tag_30:\n        /* \"#utility.yul\":91:419   */\n      pop\n        /* \"#utility.yul\":7:419   */\n      swap4\n      swap3\n      pop\n      pop\n      pop\n      jump\t// out\n        /* \"#utility.yul\":439:779   */\n    tag_32:\n        /* \"#utility.yul\":495:500   */\n      0x00\n        /* \"#utility.yul\":544:547   */\n      dup3\n        /* \"#utility.yul\":537:541   */\n      0x1f\n        /* \"#utility.yul\":529:535   */\n      dup4\n        /* \"#utility.yul\":525:542   */\n      add\n        /* \"#utility.yul\":521:548   */\n      slt\n        /* \"#utility.yul\":511:633   */\n      tag_34\n      jumpi\n        /* \"#utility.yul\":552:631   */\n      tag_35\n      tag_36\n      jump\t// in\n    tag_35:\n        /* \"#utility.yul\":511:633   */\n    tag_34:\n        /* \"#utility.yul\":669:675   */\n      dup2\n        /* \"#utility.yul\":656:676   */\n      calldataload\n        /* \"#utility.yul\":694:773   */\n      tag_37\n        /* \"#utility.yul\":769:772   */\n      dup5\n        /* \"#utility.yul\":761:767   */\n      dup3\n        /* \"#utility.yul\":754:758   */\n      0x20\n        /* \"#utility.yul\":746:752   */\n      dup7\n        /* \"#utility.yul\":742:759   */\n      add\n        /* \"#utility.yul\":694:773   */\n      tag_21\n      jump\t// in\n    tag_37:\n        /* \"#utility.yul\":685:773   */\n      swap2\n      pop\n        /* \"#utility.yul\":501:779   */\n      pop\n        /* \"#utility.yul\":439:779   */\n      swap3\n      swap2\n      pop\n      pop\n      jump\t// out\n        /* \"#utility.yul\":785:924   */\n    tag_38:\n        /* \"#utility.yul\":831:836   */\n      0x00\n        /* \"#utility.yul\":869:875   */\n      dup2\n        /* \"#utility.yul\":856:876   */\n      calldataload\n        /* \"#utility.yul\":847:876   */\n      swap1\n      pop\n        /* \"#utility.yul\":885:918   */\n      tag_40\n        /* \"#utility.yul\":912:917   */\n      dup2\n        /* \"#utility.yul\":885:918   */\n      tag_41\n      jump\t// in\n    tag_40:\n        /* \"#utility.yul\":785:924   */\n      swap3\n      swap2\n      pop\n      pop\n      jump\t// out\n        /* \"#utility.yul\":930:2089   */\n    tag_13:\n        /* \"#utility.yul\":1037:1043   */\n      0x00\n        /* \"#utility.yul\":1045:1051   */\n      dup1\n        /* \"#utility.yul\":1053:1059   */\n      0x00\n        /* \"#utility.yul\":1102:1104   */\n      0x60\n        /* \"#utility.yul\":1090:1099   */\n      dup5\n        /* \"#utility.yul\":1081:1088   */\n      dup7\n        /* \"#utility.yul\":1077:1100   */\n      sub\n        /* \"#utility.yul\":1073:1105   */\n      slt\n        /* \"#utility.yul\":1070:1189   */\n      iszero\n      tag_43\n      jumpi\n        /* \"#utility.yul\":1108:1187   */\n      tag_44\n      tag_45\n      jump\t// in\n    tag_44:\n        /* \"#utility.yul\":1070:1189   */\n    tag_43:\n        /* \"#utility.yul\":1256:1257   */\n      0x00\n        /* \"#utility.yul\":1245:1254   */\n      dup5\n        /* \"#utility.yul\":1241:1258   */\n      add\n        /* \"#utility.yul\":1228:1259   */\n      calldataload\n        /* \"#utility.yul\":1286:1304   */\n      0xffffffffffffffff\n        /* \"#utility.yul\":1278:1284   */\n      dup2\n        /* \"#utility.yul\":1275:1305   */\n      gt\n        /* \"#utility.yul\":1272:1389   */\n      iszero\n      tag_46\n      jumpi\n        /* \"#utility.yul\":1308:1387   */\n      tag_47\n      tag_48\n      jump\t// in\n    tag_47:\n        /* \"#utility.yul\":1272:1389   */\n    tag_46:\n        /* \"#utility.yul\":1413:1476   */\n      tag_49\n        /* \"#utility.yul\":1468:1475   */\n      dup7\n        /* \"#utility.yul\":1459:1465   */\n      dup3\n        /* \"#utility.yul\":1448:1457   */\n      dup8\n        /* \"#utility.yul\":1444:1466   */\n      add\n        /* \"#utility.yul\":1413:1476   */\n      tag_32\n      jump\t// in\n    tag_49:\n        /* \"#utility.yul\":1403:1476   */\n      swap4\n      pop\n        /* \"#utility.yul\":1199:1486   */\n      pop\n        /* \"#utility.yul\":1553:1555   */\n      0x20\n        /* \"#utility.yul\":1542:1551   */\n      dup5\n        /* \"#utility.yul\":1538:1556   */\n      add\n        /* \"#utility.yul\":1525:1557   */\n      calldataload\n        /* \"#utility.yul\":1584:1602   */\n      0xffffffffffffffff\n        /* \"#utility.yul\":1576:1582   */\n      dup2\n        /* \"#utility.yul\":1573:1603   */\n      gt\n        /* \"#utility.yul\":1570:1687   */\n      iszero\n      tag_50\n      jumpi\n        /* \"#utility.yul\":1606:1685   */\n      tag_51\n      tag_48\n      jump\t// in\n    tag_51:\n        /* \"#utility.yul\":1570:1687   */\n    tag_50:\n        /* \"#utility.yul\":1711:1774   */\n      tag_52\n        /* \"#utility.yul\":1766:1773   */\n      dup7\n        /* \"#utility.yul\":1757:1763   */\n      dup3\n        /* \"#utility.yul\":1746:1755   */\n      dup8\n        /* \"#utility.yul\":1742:1764   */\n      add\n        /* \"#utility.yul\":1711:1774   */\n      tag_32\n      jump\t// in\n    tag_52:\n        /* \"#utility.yul\":1701:1774   */\n      swap3\n      pop\n        /* \"#utility.yul\":1496:1784   */\n      pop\n        /* \"#utility.yul\":1851:1853   */\n      0x40\n        /* \"#utility.yul\":1840:1849   */\n      dup5\n        /* \"#utility.yul\":1836:1854   */\n      add\n        /* \"#utility.yul\":1823:1855   */\n      calldataload\n        /* \"#utility.yul\":1882:1900   */\n      0xffffffffffffffff\n        /* \"#utility.yul\":1874:1880   */\n      dup2\n        /* \"#utility.yul\":1871:1901   */\n      gt\n        /* \"#utility.yul\":1868:1985   */\n      iszero\n      tag_53\n      jumpi\n        /* \"#utility.yul\":1904:1983   */\n      tag_54\n      tag_48\n      jump\t// in\n    tag_54:\n        /* \"#utility.yul\":1868:1985   */\n    tag_53:\n        /* \"#utility.yul\":2009:2072   */\n      tag_55\n        /* \"#utility.yul\":2064:2071   */\n      dup7\n        /* \"#utility.yul\":2055:2061   */\n      dup3\n        /* \"#utility.yul\":2044:2053   */\n      dup8\n        /* \"#utility.yul\":2040:2062   */\n      add\n        /* \"#utility.yul\":2009:2072   */\n      tag_32\n      jump\t// in\n    tag_55:\n        /* \"#utility.yul\":1999:2072   */\n      swap2\n      pop\n        /* \"#utility.yul\":1794:2082   */\n      pop\n        /* \"#utility.yul\":930:2089   */\n      swap3\n      pop\n      swap3\n      pop\n      swap3\n      jump\t// out\n        /* \"#utility.yul\":2095:2569   */\n    tag_7:\n        /* \"#utility.yul\":2163:2169   */\n      0x00\n        /* \"#utility.yul\":2171:2177   */\n      dup1\n        /* \"#utility.yul\":2220:2222   */\n      0x40\n        /* \"#utility.yul\":2208:2217   */\n      dup4\n        /* \"#utility.yul\":2199:2206   */\n      dup6\n        /* \"#utility.yul\":2195:2218   */\n      sub\n        /* \"#utility.yul\":2191:2223   */\n      slt\n        /* \"#utility.yul\":2188:2307   */\n      iszero\n      tag_57\n      jumpi\n        /* \"#utility.yul\":2226:2305   */\n      tag_58\n      tag_45\n      jump\t// in\n    tag_58:\n        /* \"#utility.yul\":2188:2307   */\n    tag_57:\n        /* \"#utility.yul\":2346:2347   */\n      0x00\n        /* \"#utility.yul\":2371:2424   */\n      tag_59\n        /* \"#utility.yul\":2416:2423   */\n      dup6\n        /* \"#utility.yul\":2407:2413   */\n      dup3\n        /* \"#utility.yul\":2396:2405   */\n      dup7\n        /* \"#utility.yul\":2392:2414   */\n      add\n        /* \"#utility.yul\":2371:2424   */\n      tag_38\n      jump\t// in\n    tag_59:\n        /* \"#utility.yul\":2361:2424   */\n      swap3\n      pop\n        /* \"#utility.yul\":2317:2434   */\n      pop\n        /* \"#utility.yul\":2473:2475   */\n      0x20\n        /* \"#utility.yul\":2499:2552   */\n      tag_60\n        /* \"#utility.yul\":2544:2551   */\n      dup6\n        /* \"#utility.yul\":2535:2541   */\n      dup3\n        /* \"#utility.yul\":2524:2533   */\n      dup7\n        /* \"#utility.yul\":2520:2542   */\n      add\n        /* \"#utility.yul\":2499:2552   */\n      tag_38\n      jump\t// in\n    tag_60:\n        /* \"#utility.yul\":2489:2552   */\n      swap2\n      pop\n        /* \"#utility.yul\":2444:2562   */\n      pop\n        /* \"#utility.yul\":2095:2569   */\n      swap3\n      pop\n      swap3\n      swap1\n      pop\n      jump\t// out\n        /* \"#utility.yul\":2575:2693   */\n    tag_61:\n        /* \"#utility.yul\":2662:2686   */\n      tag_63\n        /* \"#utility.yul\":2680:2685   */\n      dup2\n        /* \"#utility.yul\":2662:2686   */\n      tag_64\n      jump\t// in\n    tag_63:\n        /* \"#utility.yul\":2657:2660   */\n      dup3\n        /* \"#utility.yul\":2650:2687   */\n      mstore\n        /* \"#utility.yul\":2575:2693   */\n      pop\n      pop\n      jump\t// out\n        /* \"#utility.yul\":2699:2921   */\n    tag_10:\n        /* \"#utility.yul\":2792:2796   */\n      0x00\n        /* \"#utility.yul\":2830:2832   */\n      0x20\n        /* \"#utility.yul\":2819:2828   */\n      dup3\n        /* \"#utility.yul\":2815:2833   */\n      add\n        /* \"#utility.yul\":2807:2833   */\n      swap1\n      pop\n        /* \"#utility.yul\":2843:2914   */\n      tag_66\n        /* \"#utility.yul\":2911:2912   */\n      0x00\n        /* \"#utility.yul\":2900:2909   */\n      dup4\n        /* \"#utility.yul\":2896:2913   */\n      add\n        /* \"#utility.yul\":2887:2893   */\n      dup5\n        /* \"#utility.yul\":2843:2914   */\n      tag_61\n      jump\t// in\n    tag_66:\n        /* \"#utility.yul\":2699:2921   */\n      swap3\n      swap2\n      pop\n      pop\n      jump\t// out\n        /* \"#utility.yul\":2927:3056   */\n    tag_26:\n        /* \"#utility.yul\":2961:2967   */\n      0x00\n        /* \"#utility.yul\":2988:3008   */\n      tag_68\n      tag_69\n      jump\t// in\n    tag_68:\n        /* \"#utility.yul\":2978:3008   */\n      swap1\n      pop\n        /* \"#utility.yul\":3017:3050   */\n      tag_70\n        /* \"#utility.yul\":3045:3049   */\n      dup3\n        /* \"#utility.yul\":3037:3043   */\n      dup3\n        /* \"#utility.yul\":3017:3050   */\n      tag_71\n      jump\t// in\n    tag_70:\n        /* \"#utility.yul\":2927:3056   */\n      swap2\n      swap1\n      pop\n      jump\t// out\n        /* \"#utility.yul\":3062:3137   */\n    tag_69:\n        /* \"#utility.yul\":3095:3101   */\n      0x00\n        /* \"#utility.yul\":3128:3130   */\n      0x40\n        /* \"#utility.yul\":3122:3131   */\n      mload\n        /* \"#utility.yul\":3112:3131   */\n      swap1\n      pop\n        /* \"#utility.yul\":3062:3137   */\n      swap1\n      jump\t// out\n        /* \"#utility.yul\":3143:3451   */\n    tag_25:\n        /* \"#utility.yul\":3205:3209   */\n      0x00\n        /* \"#utility.yul\":3295:3313   */\n      0xffffffffffffffff\n        /* \"#utility.yul\":3287:3293   */\n      dup3\n        /* \"#utility.yul\":3284:3314   */\n      gt\n        /* \"#utility.yul\":3281:3337   */\n      iszero\n      tag_74\n      jumpi\n        /* \"#utility.yul\":3317:3335   */\n      tag_75\n      tag_76\n      jump\t// in\n    tag_75:\n        /* \"#utility.yul\":3281:3337   */\n    tag_74:\n        /* \"#utility.yul\":3355:3384   */\n      tag_77\n        /* \"#utility.yul\":3377:3383   */\n      dup3\n        /* \"#utility.yul\":3355:3384   */\n      tag_78\n      jump\t// in\n    tag_77:\n        /* \"#utility.yul\":3347:3384   */\n      swap1\n      pop\n        /* \"#utility.yul\":3439:3443   */\n      0x20\n        /* \"#utility.yul\":3433:3437   */\n      dup2\n        /* \"#utility.yul\":3429:3444   */\n      add\n        /* \"#utility.yul\":3421:3444   */\n      swap1\n      pop\n        /* \"#utility.yul\":3143:3451   */\n      swap2\n      swap1\n      pop\n      jump\t// out\n        /* \"#utility.yul\":3457:3762   */\n    tag_18:\n        /* \"#utility.yul\":3497:3500   */\n      0x00\n        /* \"#utility.yul\":3516:3536   */\n      tag_80\n        /* \"#utility.yul\":3534:3535   */\n      dup3\n        /* \"#utility.yul\":3516:3536   */\n      tag_64\n      jump\t// in\n    tag_80:\n        /* \"#utility.yul\":3511:3536   */\n      swap2\n      pop\n        /* \"#utility.yul\":3550:3570   */\n      tag_81\n        /* \"#utility.yul\":3568:3569   */\n      dup4\n        /* \"#utility.yul\":3550:3570   */\n      tag_64\n      jump\t// in\n    tag_81:\n        /* \"#utility.yul\":3545:3570   */\n      swap3\n      pop\n        /* \"#utility.yul\":3704:3705   */\n      dup3\n        /* \"#utility.yul\":3636:3702   */\n      0xffffffffffffffffffffffffffffffffffffffffffffffffffffffffffffffff\n        /* \"#utility.yul\":3632:3706   */\n      sub\n        /* \"#utility.yul\":3629:3630   */\n      dup3\n        /* \"#utility.yul\":3626:3707   */\n      gt\n        /* \"#utility.yul\":3623:3730   */\n      iszero\n      tag_82\n      jumpi\n        /* \"#utility.yul\":3710:3728   */\n      tag_83\n      tag_84\n      jump\t// in\n    tag_83:\n        /* \"#utility.yul\":3623:3730   */\n    tag_82:\n        /* \"#utility.yul\":3754:3755   */\n      dup3\n        /* \"#utility.yul\":3751:3752   */\n      dup3\n        /* \"#utility.yul\":3747:3756   */\n      add\n        /* \"#utility.yul\":3740:3756   */\n      swap1\n      pop\n        /* \"#utility.yul\":3457:3762   */\n      swap3\n      swap2\n      pop\n      pop\n      jump\t// out\n        /* \"#utility.yul\":3768:3845   */\n    tag_64:\n        /* \"#utility.yul\":3805:3812   */\n      0x00\n        /* \"#utility.yul\":3834:3839   */\n      dup2\n        /* \"#utility.yul\":3823:3839   */\n      swap1\n      pop\n        /* \"#utility.yul\":3768:3845   */\n      swap2\n      swap1\n      pop\n      jump\t// out\n        /* \"#utility.yul\":3851:4005   */\n    tag_31:\n        /* \"#utility.yul\":3935:3941   */\n      dup3\n        /* \"#utility.yul\":3930:3933   */\n      dup2\n        /* \"#utility.yul\":3925:3928   */\n      dup4\n        /* \"#utility.yul\":3912:3942   */\n      calldatacopy\n        /* \"#utility.yul\":3997:3998   */\n      0x00\n        /* \"#utility.yul\":3988:3994   */\n      dup4\n        /* \"#utility.yul\":3983:3986   */\n      dup4\n        /* \"#utility.yul\":3979:3995   */\n      add\n        /* \"#utility.yul\":3972:3999   */\n      mstore\n        /* \"#utility.yul\":3851:4005   */\n      pop\n      pop\n      pop\n      jump\t// out\n        /* \"#utility.yul\":4011:4292   */\n    tag_71:\n        /* \"#utility.yul\":4094:4121   */\n      tag_88\n        /* \"#utility.yul\":4116:4120   */\n      dup3\n        /* \"#utility.yul\":4094:4121   */\n      tag_78\n      jump\t// in\n    tag_88:\n        /* \"#utility.yul\":4086:4092   */\n      dup2\n        /* \"#utility.yul\":4082:4122   */\n      add\n        /* \"#utility.yul\":4224:4230   */\n      dup2\n        /* \"#utility.yul\":4212:4222   */\n      dup2\n        /* \"#utility.yul\":4209:4231   */\n      lt\n        /* \"#utility.yul\":4188:4206   */\n      0xffffffffffffffff\n        /* \"#utility.yul\":4176:4186   */\n      dup3\n        /* \"#utility.yul\":4173:4207   */\n      gt\n        /* \"#utility.yul\":4170:4232   */\n      or\n        /* \"#utility.yul\":4167:4255   */\n      iszero\n      tag_89\n      jumpi\n        /* \"#utility.yul\":4235:4253   */\n      tag_90\n      tag_76\n      jump\t// in\n    tag_90:\n        /* \"#utility.yul\":4167:4255   */\n    tag_89:\n        /* \"#utility.yul\":4275:4285   */\n      dup1\n        /* \"#utility.yul\":4271:4273   */\n      0x40\n        /* \"#utility.yul\":4264:4286   */\n      mstore\n        /* \"#utility.yul\":4054:4292   */\n      pop\n        /* \"#utility.yul\":4011:4292   */\n      pop\n      pop\n      jump\t// out\n        /* \"#utility.yul\":4298:4478   */\n    tag_84:\n        /* \"#utility.yul\":4346:4423   */\n      0x4e487b7100000000000000000000000000000000000000000000000000000000\n        /* \"#utility.yul\":4343:4344   */\n      0x00\n        /* \"#utility.yul\":4336:4424   */\n      mstore\n        /* \"#utility.yul\":4443:4447   */\n      0x11\n        /* \"#utility.yul\":4440:4441   */\n      0x04\n        /* \"#utility.yul\":4433:4448   */\n      mstore\n        /* \"#utility.yul\":4467:4471   */\n      0x24\n        /* \"#utility.yul\":4464:4465   */\n      0x00\n        /* \"#utility.yul\":4457:4472   */\n      revert\n        /* \"#utility.yul\":4484:4664   */\n    tag_76:\n        /* \"#utility.yul\":4532:4609   */\n      0x4e487b7100000000000000000000000000000000000000000000000000000000\n        /* \"#utility.yul\":4529:4530   */\n      0x00\n        /* \"#utility.yul\":4522:4610   */\n      mstore\n        /* \"#utility.yul\":4629:4633   */\n      0x41\n        /* \"#utility.yul\":4626:4627   */\n      0x04\n        /* \"#utility.yul\":4619:4634   */\n      mstore\n        /* \"#utility.yul\":4653:4657   */\n      0x24\n        /* \"#utility.yul\":4650:4651   */\n      0x00\n        /* \"#utility.yul\":4643:4658   */\n      revert\n        /* \"#utility.yul\":4670:4787   */\n    tag_36:\n        /* \"#utility.yul\":4779:4780   */\n      0x00\n        /* \"#utility.yul\":4776:4777   */\n      dup1\n        /* \"#utility.yul\":4769:4781   */\n      revert\n        /* \"#utility.yul\":4793:4910   */\n    tag_29:\n        /* \"#utility.yul\":4902:4903   */\n      0x00\n        /* \"#utility.yul\":4899:4900   */\n      dup1\n        /* \"#utility.yul\":4892:4904   */\n      revert\n        /* \"#utility.yul\":4916:5033   */\n    tag_48:\n        /* \"#utility.yul\":5025:5026   */\n      0x00\n        /* \"#utility.yul\":5022:5023   */\n      dup1\n        /* \"#utility.yul\":5015:5027   */\n      revert\n        /* \"#utility.yul\":5039:5156   */\n    tag_45:\n        /* \"#utility.yul\":5148:5149   */\n      0x00\n        /* \"#utility.yul\":5145:5146   */\n      dup1\n        /* \"#utility.yul\":5138:5150   */\n      revert\n        /* \"#utility.yul\":5162:5264   */\n    tag_78:\n        /* \"#utility.yul\":5203:5209   */\n      0x00\n        /* \"#utility.yul\":5254:5256   */\n      0x1f\n        /* \"#utility.yul\":5250:5257   */\n      not\n        /* \"#utility.yul\":5245:5247   */\n      0x1f\n        /* \"#utility.yul\":5238:5243   */\n      dup4\n        /* \"#utility.yul\":5234:5248   */\n      add\n        /* \"#utility.yul\":5230:5258   */\n      and\n        /* \"#utility.yul\":5220:5258   */\n      swap1\n      pop\n        /* \"#utility.yul\":5162:5264   */\n      swap2\n      swap1\n      pop\n      jump\t// out\n        /* \"#utility.yul\":5270:5392   */\n    tag_41:\n        /* \"#utility.yul\":5343:5367   */\n      tag_99\n        /* \"#utility.yul\":5361:5366   */\n      dup2\n        /* \"#utility.yul\":5343:5367   */\n      tag_64\n      jump\t// in\n    tag_99:\n        /* \"#utility.yul\":5336:5341   */\n      dup2\n        /* \"#utility.yul\":5333:5368   */\n      eq\n        /* \"#utility.yul\":5323:5386   */\n      tag_100\n      jumpi\n        /* \"#utility.yul\":5382:5383   */\n      0x00\n        /* \"#utility.yul\":5379:5380   */\n      dup1\n        /* \"#utility.yul\":5372:5384   */\n      revert\n        /* \"#utility.yul\":5323:5386   */\n    tag_100:\n        /* \"#utility.yul\":5270:5392   */\n      pop\n      jump\t// out\n\n    auxdata: 0xa264697066735822122056e0c39f6db82edb808d5ad1c0c163b8af72c95fc8c8ab53eb06440cec64068f64736f6c63430008070033\n}\n",
				"bytecode": {
					"linkReferences": {},
					"object": "608060405234801561001057600080fd5b5061041a806100206000396000f3fe608060405234801561001057600080fd5b50600436106100365760003560e01c8063771602f71461003b578063f034d6b11461006b575b600080fd5b610055600480360381019061005091906101ea565b61009b565b6040516100629190610239565b60405180910390f35b61008560048036038101906100809190610143565b6100b1565b6040516100929190610239565b60405180910390f35b600081836100a991906102aa565b905092915050565b6000600190509392505050565b60006100d16100cc84610279565b610254565b9050828152602081018484840111156100ed576100ec6103ad565b5b6100f884828561030a565b509392505050565b600082601f830112610115576101146103a8565b5b81356101258482602086016100be565b91505092915050565b60008135905061013d816103cd565b92915050565b60008060006060848603121561015c5761015b6103b7565b5b600084013567ffffffffffffffff81111561017a576101796103b2565b5b61018686828701610100565b935050602084013567ffffffffffffffff8111156101a7576101a66103b2565b5b6101b386828701610100565b925050604084013567ffffffffffffffff8111156101d4576101d36103b2565b5b6101e086828701610100565b9150509250925092565b60008060408385031215610201576102006103b7565b5b600061020f8582860161012e565b92505060206102208582860161012e565b9150509250929050565b61023381610300565b82525050565b600060208201905061024e600083018461022a565b92915050565b600061025e61026f565b905061026a8282610319565b919050565b6000604051905090565b600067ffffffffffffffff82111561029457610293610379565b5b61029d826103bc565b9050602081019050919050565b60006102b582610300565b91506102c083610300565b9250827fffffffffffffffffffffffffffffffffffffffffffffffffffffffffffffffff038211156102f5576102f461034a565b5b828201905092915050565b6000819050919050565b82818337600083830152505050565b610322826103bc565b810181811067ffffffffffffffff8211171561034157610340610379565b5b80604052505050565b7f4e487b7100000000000000000000000000000000000000000000000000000000600052601160045260246000fd5b7f4e487b7100000000000000000000000000000000000000000000000000000000600052604160045260246000fd5b600080fd5b600080fd5b600080fd5b600080fd5b6000601f19601f8301169050919050565b6103d681610300565b81146103e157600080fd5b5056fea264697066735822122056e0c39f6db82edb808d5ad1c0c163b8af72c95fc8c8ab53eb06440cec64068f64736f6c63430008070033",
					"opcodes": "PUSH1 0x80 PUSH1 0x40 MSTORE CALLVALUE DUP1 ISZERO PUSH2 0x10 JUMPI PUSH1 0x0 DUP1 REVERT JUMPDEST POP PUSH2 0x41A DUP1 PUSH2 0x20 PUSH1 0x0 CODECOPY PUSH1 0x0 RETURN INVALID PUSH1 0x80 PUSH1 0x40 MSTORE CALLVALUE DUP1 ISZERO PUSH2 0x10 JUMPI PUSH1 0x0 DUP1 REVERT JUMPDEST POP PUSH1 0x4 CALLDATASIZE LT PUSH2 0x36 JUMPI PUSH1 0x0 CALLDATALOAD PUSH1 0xE0 SHR DUP1 PUSH4 0x771602F7 EQ PUSH2 0x3B JUMPI DUP1 PUSH4 0xF034D6B1 EQ PUSH2 0x6B JUMPI JUMPDEST PUSH1 0x0 DUP1 REVERT JUMPDEST PUSH2 0x55 PUSH1 0x4 DUP1 CALLDATASIZE SUB DUP2 ADD SWAP1 PUSH2 0x50 SWAP2 SWAP1 PUSH2 0x1EA JUMP JUMPDEST PUSH2 0x9B JUMP JUMPDEST PUSH1 0x40 MLOAD PUSH2 0x62 SWAP2 SWAP1 PUSH2 0x239 JUMP JUMPDEST PUSH1 0x40 MLOAD DUP1 SWAP2 SUB SWAP1 RETURN JUMPDEST PUSH2 0x85 PUSH1 0x4 DUP1 CALLDATASIZE SUB DUP2 ADD SWAP1 PUSH2 0x80 SWAP2 SWAP1 PUSH2 0x143 JUMP JUMPDEST PUSH2 0xB1 JUMP JUMPDEST PUSH1 0x40 MLOAD PUSH2 0x92 SWAP2 SWAP1 PUSH2 0x239 JUMP JUMPDEST PUSH1 0x40 MLOAD DUP1 SWAP2 SUB SWAP1 RETURN JUMPDEST PUSH1 0x0 DUP2 DUP4 PUSH2 0xA9 SWAP2 SWAP1 PUSH2 0x2AA JUMP JUMPDEST SWAP1 POP SWAP3 SWAP2 POP POP JUMP JUMPDEST PUSH1 0x0 PUSH1 0x1 SWAP1 POP SWAP4 SWAP3 POP POP POP JUMP JUMPDEST PUSH1 0x0 PUSH2 0xD1 PUSH2 0xCC DUP5 PUSH2 0x279 JUMP JUMPDEST PUSH2 0x254 JUMP JUMPDEST SWAP1 POP DUP3 DUP2 MSTORE PUSH1 0x20 DUP2 ADD DUP5 DUP5 DUP5 ADD GT ISZERO PUSH2 0xED JUMPI PUSH2 0xEC PUSH2 0x3AD JUMP JUMPDEST JUMPDEST PUSH2 0xF8 DUP5 DUP3 DUP6 PUSH2 0x30A JUMP JUMPDEST POP SWAP4 SWAP3 POP POP POP JUMP JUMPDEST PUSH1 0x0 DUP3 PUSH1 0x1F DUP4 ADD SLT PUSH2 0x115 JUMPI PUSH2 0x114 PUSH2 0x3A8 JUMP JUMPDEST JUMPDEST DUP2 CALLDATALOAD PUSH2 0x125 DUP5 DUP3 PUSH1 0x20 DUP7 ADD PUSH2 0xBE JUMP JUMPDEST SWAP2 POP POP SWAP3 SWAP2 POP POP JUMP JUMPDEST PUSH1 0x0 DUP2 CALLDATALOAD SWAP1 POP PUSH2 0x13D DUP2 PUSH2 0x3CD JUMP JUMPDEST SWAP3 SWAP2 POP POP JUMP JUMPDEST PUSH1 0x0 DUP1 PUSH1 0x0 PUSH1 0x60 DUP5 DUP7 SUB SLT ISZERO PUSH2 0x15C JUMPI PUSH2 0x15B PUSH2 0x3B7 JUMP JUMPDEST JUMPDEST PUSH1 0x0 DUP5 ADD CALLDATALOAD PUSH8 0xFFFFFFFFFFFFFFFF DUP2 GT ISZERO PUSH2 0x17A JUMPI PUSH2 0x179 PUSH2 0x3B2 JUMP JUMPDEST JUMPDEST PUSH2 0x186 DUP7 DUP3 DUP8 ADD PUSH2 0x100 JUMP JUMPDEST SWAP4 POP POP PUSH1 0x20 DUP5 ADD CALLDATALOAD PUSH8 0xFFFFFFFFFFFFFFFF DUP2 GT ISZERO PUSH2 0x1A7 JUMPI PUSH2 0x1A6 PUSH2 0x3B2 JUMP JUMPDEST JUMPDEST PUSH2 0x1B3 DUP7 DUP3 DUP8 ADD PUSH2 0x100 JUMP JUMPDEST SWAP3 POP POP PUSH1 0x40 DUP5 ADD CALLDATALOAD PUSH8 0xFFFFFFFFFFFFFFFF DUP2 GT ISZERO PUSH2 0x1D4 JUMPI PUSH2 0x1D3 PUSH2 0x3B2 JUMP JUMPDEST JUMPDEST PUSH2 0x1E0 DUP7 DUP3 DUP8 ADD PUSH2 0x100 JUMP JUMPDEST SWAP2 POP POP SWAP3 POP SWAP3 POP SWAP3 JUMP JUMPDEST PUSH1 0x0 DUP1 PUSH1 0x40 DUP4 DUP6 SUB SLT ISZERO PUSH2 0x201 JUMPI PUSH2 0x200 PUSH2 0x3B7 JUMP JUMPDEST JUMPDEST PUSH1 0x0 PUSH2 0x20F DUP6 DUP3 DUP7 ADD PUSH2 0x12E JUMP JUMPDEST SWAP3 POP POP PUSH1 0x20 PUSH2 0x220 DUP6 DUP3 DUP7 ADD PUSH2 0x12E JUMP JUMPDEST SWAP2 POP POP SWAP3 POP SWAP3 SWAP1 POP JUMP JUMPDEST PUSH2 0x233 DUP2 PUSH2 0x300 JUMP JUMPDEST DUP3 MSTORE POP POP JUMP JUMPDEST PUSH1 0x0 PUSH1 0x20 DUP3 ADD SWAP1 POP PUSH2 0x24E PUSH1 0x0 DUP4 ADD DUP5 PUSH2 0x22A JUMP JUMPDEST SWAP3 SWAP2 POP POP JUMP JUMPDEST PUSH1 0x0 PUSH2 0x25E PUSH2 0x26F JUMP JUMPDEST SWAP1 POP PUSH2 0x26A DUP3 DUP3 PUSH2 0x319 JUMP JUMPDEST SWAP2 SWAP1 POP JUMP JUMPDEST PUSH1 0x0 PUSH1 0x40 MLOAD SWAP1 POP SWAP1 JUMP JUMPDEST PUSH1 0x0 PUSH8 0xFFFFFFFFFFFFFFFF DUP3 GT ISZERO PUSH2 0x294 JUMPI PUSH2 0x293 PUSH2 0x379 JUMP JUMPDEST JUMPDEST PUSH2 0x29D DUP3 PUSH2 0x3BC JUMP JUMPDEST SWAP1 POP PUSH1 0x20 DUP2 ADD SWAP1 POP SWAP2 SWAP1 POP JUMP JUMPDEST PUSH1 0x0 PUSH2 0x2B5 DUP3 PUSH2 0x300 JUMP JUMPDEST SWAP2 POP PUSH2 0x2C0 DUP4 PUSH2 0x300 JUMP JUMPDEST SWAP3 POP DUP3 PUSH32 0xFFFFFFFFFFFFFFFFFFFFFFFFFFFFFFFFFFFFFFFFFFFFFFFFFFFFFFFFFFFFFFFF SUB DUP3 GT ISZERO PUSH2 0x2F5 JUMPI PUSH2 0x2F4 PUSH2 0x34A JUMP JUMPDEST JUMPDEST DUP3 DUP3 ADD SWAP1 POP SWAP3 SWAP2 POP POP JUMP JUMPDEST PUSH1 0x0 DUP2 SWAP1 POP SWAP2 SWAP1 POP JUMP JUMPDEST DUP3 DUP2 DUP4 CALLDATACOPY PUSH1 0x0 DUP4 DUP4 ADD MSTORE POP POP POP JUMP JUMPDEST PUSH2 0x322 DUP3 PUSH2 0x3BC JUMP JUMPDEST DUP2 ADD DUP2 DUP2 LT PUSH8 0xFFFFFFFFFFFFFFFF DUP3 GT OR ISZERO PUSH2 0x341 JUMPI PUSH2 0x340 PUSH2 0x379 JUMP JUMPDEST JUMPDEST DUP1 PUSH1 0x40 MSTORE POP POP POP JUMP JUMPDEST PUSH32 0x4E487B7100000000000000000000000000000000000000000000000000000000 PUSH1 0x0 MSTORE PUSH1 0x11 PUSH1 0x4 MSTORE PUSH1 0x24 PUSH1 0x0 REVERT JUMPDEST PUSH32 0x4E487B7100000000000000000000000000000000000000000000000000000000 PUSH1 0x0 MSTORE PUSH1 0x41 PUSH1 0x4 MSTORE PUSH1 0x24 PUSH1 0x0 REVERT JUMPDEST PUSH1 0x0 DUP1 REVERT JUMPDEST PUSH1 0x0 DUP1 REVERT JUMPDEST PUSH1 0x0 DUP1 REVERT JUMPDEST PUSH1 0x0 DUP1 REVERT JUMPDEST PUSH1 0x0 PUSH1 0x1F NOT PUSH1 0x1F DUP4 ADD AND SWAP1 POP SWAP2 SWAP1 POP JUMP JUMPDEST PUSH2 0x3D6 DUP2 PUSH2 0x300 JUMP JUMPDEST DUP2 EQ PUSH2 0x3E1 JUMPI PUSH1 0x0 DUP1 REVERT JUMPDEST POP JUMP INVALID LOG2 PUSH5 0x6970667358 0x22 SLT KECCAK256 JUMP 0xE0 0xC3 SWAP16 PUSH14 0xB82EDB808D5AD1C0C163B8AF72C9 0x5F 0xC8 0xC8 0xAB MSTORE8 0xEB MOD DIFFICULTY 0xC 0xEC PUSH5 0x68F64736F PUSH13 0x63430008070033000000000000 "
				},
				"gasEstimates": {
					"creation": {
						"codeDepositCost": "210000",
						"executionCost": "251",
						"totalCost": "210251"
					},
					"external": {
						"add(string,string,string)": "infinite",
						"add(uint256,uint256)": "infinite"
					}
				},
				"methodIdentifiers": {
					"add(string,string,string)": "f034d6b1",
					"add(uint256,uint256)": "771602f7"
				}
			},
			"storageLayout": {
				"storage": [],
				"types": null
			},
			"userdoc": {
				"kind": "user",
				"methods": {},
				"version": 1
			}
		}
	}
}