{
	"contracts/mappings.sol": {
		"MappingsSample": {
			"abi": [
				{
					"inputs": [],
					"stateMutability": "nonpayable",
					"type": "constructor"
				},
				{
					"inputs": [],
					"name": "getOwner",
					"outputs": [
						{
							"internalType": "address",
							"name": "",
							"type": "address"
						}
					],
					"stateMutability": "view",
					"type": "function"
				},
				{
					"inputs": [
						{
							"internalType": "string",
							"name": "",
							"type": "string"
						}
					],
					"name": "names",
					"outputs": [
						{
							"internalType": "string",
							"name": "",
							"type": "string"
						}
					],
					"stateMutability": "view",
					"type": "function"
				}
			],
			"devdoc": {
				"kind": "dev",
				"methods": {},
				"version": 1
			},
			"evm": {
				"assembly": "    /* \"contracts/mappings.sol\":64:801  contract MappingsSample{\r... */\n  mstore(0x40, 0x80)\n    /* \"contracts/mappings.sol\":270:467  constructor() public{\r... */\n  callvalue\n  dup1\n  iszero\n  tag_1\n  jumpi\n  0x00\n  dup1\n  revert\ntag_1:\n  pop\n    /* \"contracts/mappings.sol\":302:322  names[\"V\"]     = \"V\" */\n  mload(0x40)\n  dup1\n  0x40\n  add\n  0x40\n  mstore\n  dup1\n  0x01\n  dup2\n  mstore\n  0x20\n  add\n  0x5600000000000000000000000000000000000000000000000000000000000000\n  dup2\n  mstore\n  pop\n    /* \"contracts/mappings.sol\":302:307  names */\n  0x00\n    /* \"contracts/mappings.sol\":302:312  names[\"V\"] */\n  mload(0x40)\n  tag_4\n  swap1\n  tag_5\n  jump\t// in\ntag_4:\n  swap1\n  dup2\n  mstore\n  0x20\n  add\n  mload(0x40)\n  dup1\n  swap2\n  sub\n  swap1\n  keccak256\n    /* \"contracts/mappings.sol\":302:322  names[\"V\"]     = \"V\" */\n  swap1\n  dup1\n  mload\n  swap1\n  0x20\n  add\n  swap1\n  tag_6\n  swap3\n  swap2\n  swap1\n  tag_7\n  jump\t// in\ntag_6:\n  pop\n    /* \"contracts/mappings.sol\":332:356  names[\"Toyin\"] = \"Toyin\" */\n  mload(0x40)\n  dup1\n  0x40\n  add\n  0x40\n  mstore\n  dup1\n  0x05\n  dup2\n  mstore\n  0x20\n  add\n  0x546f79696e000000000000000000000000000000000000000000000000000000\n  dup2\n  mstore\n  pop\n    /* \"contracts/mappings.sol\":332:337  names */\n  0x00\n    /* \"contracts/mappings.sol\":332:346  names[\"Toyin\"] */\n  mload(0x40)\n  tag_8\n  swap1\n  tag_9\n  jump\t// in\ntag_8:\n  swap1\n  dup2\n  mstore\n  0x20\n  add\n  mload(0x40)\n  dup1\n  swap2\n  sub\n  swap1\n  keccak256\n    /* \"contracts/mappings.sol\":332:356  names[\"Toyin\"] = \"Toyin\" */\n  swap1\n  dup1\n  mload\n  swap1\n  0x20\n  add\n  swap1\n  tag_10\n  swap3\n  swap2\n  swap1\n  tag_7\n  jump\t// in\ntag_10:\n  pop\n    /* \"contracts/mappings.sol\":366:389  names[\"Mark\"]  = \"Mark\" */\n  mload(0x40)\n  dup1\n  0x40\n  add\n  0x40\n  mstore\n  dup1\n  0x04\n  dup2\n  mstore\n  0x20\n  add\n  0x4d61726b00000000000000000000000000000000000000000000000000000000\n  dup2\n  mstore\n  pop\n    /* \"contracts/mappings.sol\":366:371  names */\n  0x00\n    /* \"contracts/mappings.sol\":366:379  names[\"Mark\"] */\n  mload(0x40)\n  tag_11\n  swap1\n  tag_12\n  jump\t// in\ntag_11:\n  swap1\n  dup2\n  mstore\n  0x20\n  add\n  mload(0x40)\n  dup1\n  swap2\n  sub\n  swap1\n  keccak256\n    /* \"contracts/mappings.sol\":366:389  names[\"Mark\"]  = \"Mark\" */\n  swap1\n  dup1\n  mload\n  swap1\n  0x20\n  add\n  swap1\n  tag_13\n  swap3\n  swap2\n  swap1\n  tag_7\n  jump\t// in\ntag_13:\n  pop\n    /* \"contracts/mappings.sol\":399:423  names[\"Milad\"] = \"Milad\" */\n  mload(0x40)\n  dup1\n  0x40\n  add\n  0x40\n  mstore\n  dup1\n  0x05\n  dup2\n  mstore\n  0x20\n  add\n  0x4d696c6164000000000000000000000000000000000000000000000000000000\n  dup2\n  mstore\n  pop\n    /* \"contracts/mappings.sol\":399:404  names */\n  0x00\n    /* \"contracts/mappings.sol\":399:413  names[\"Milad\"] */\n  mload(0x40)\n  tag_14\n  swap1\n  tag_15\n  jump\t// in\ntag_14:\n  swap1\n  dup2\n  mstore\n  0x20\n  add\n  mload(0x40)\n  dup1\n  swap2\n  sub\n  swap1\n  keccak256\n    /* \"contracts/mappings.sol\":399:423  names[\"Milad\"] = \"Milad\" */\n  swap1\n  dup1\n  mload\n  swap1\n  0x20\n  add\n  swap1\n  tag_16\n  swap3\n  swap2\n  swap1\n  tag_7\n  jump\t// in\ntag_16:\n  pop\n    /* \"contracts/mappings.sol\":433:457  names[\"Taher\"] = \"Taher\" */\n  mload(0x40)\n  dup1\n  0x40\n  add\n  0x40\n  mstore\n  dup1\n  0x05\n  dup2\n  mstore\n  0x20\n  add\n  0x5461686572000000000000000000000000000000000000000000000000000000\n  dup2\n  mstore\n  pop\n    /* \"contracts/mappings.sol\":433:438  names */\n  0x00\n    /* \"contracts/mappings.sol\":433:447  names[\"Taher\"] */\n  mload(0x40)\n  tag_17\n  swap1\n  tag_18\n  jump\t// in\ntag_17:\n  swap1\n  dup2\n  mstore\n  0x20\n  add\n  mload(0x40)\n  dup1\n  swap2\n  sub\n  swap1\n  keccak256\n    /* \"contracts/mappings.sol\":433:457  names[\"Taher\"] = \"Taher\" */\n  swap1\n  dup1\n  mload\n  swap1\n  0x20\n  add\n  swap1\n  tag_19\n  swap3\n  swap2\n  swap1\n  tag_7\n  jump\t// in\ntag_19:\n  pop\n    /* \"contracts/mappings.sol\":64:801  contract MappingsSample{\r... */\n  jump(tag_20)\ntag_7:\n  dup3\n  dup1\n  sload\n  tag_21\n  swap1\n  tag_22\n  jump\t// in\ntag_21:\n  swap1\n  0x00\n  mstore\n  keccak256(0x00, 0x20)\n  swap1\n  0x1f\n  add\n  0x20\n  swap1\n  div\n  dup2\n  add\n  swap3\n  dup3\n  tag_24\n  jumpi\n  0x00\n  dup6\n  sstore\n  jump(tag_23)\ntag_24:\n  dup3\n  0x1f\n  lt\n  tag_25\n  jumpi\n  dup1\n  mload\n  not(0xff)\n  and\n  dup4\n  dup1\n  add\n  or\n  dup6\n  sstore\n  jump(tag_23)\ntag_25:\n  dup3\n  dup1\n  add\n  0x01\n  add\n  dup6\n  sstore\n  dup3\n  iszero\n  tag_23\n  jumpi\n  swap2\n  dup3\n  add\ntag_26:\n  dup3\n  dup2\n  gt\n  iszero\n  tag_27\n  jumpi\n  dup3\n  mload\n  dup3\n  sstore\n  swap2\n  0x20\n  add\n  swap2\n  swap1\n  0x01\n  add\n  swap1\n  jump(tag_26)\ntag_27:\ntag_23:\n  pop\n  swap1\n  pop\n  tag_28\n  swap2\n  swap1\n  tag_29\n  jump\t// in\ntag_28:\n  pop\n  swap1\n  jump\t// out\ntag_29:\ntag_30:\n  dup1\n  dup3\n  gt\n  iszero\n  tag_31\n  jumpi\n  0x00\n  dup2\n  0x00\n  swap1\n  sstore\n  pop\n  0x01\n  add\n  jump(tag_30)\ntag_31:\n  pop\n  swap1\n  jump\t// out\n    /* \"#utility.yul\":7:407   */\ntag_33:\n    /* \"#utility.yul\":167:170   */\n  0x00\n    /* \"#utility.yul\":188:272   */\n  tag_35\n    /* \"#utility.yul\":270:271   */\n  0x04\n    /* \"#utility.yul\":265:268   */\n  dup4\n    /* \"#utility.yul\":188:272   */\n  tag_36\n  jump\t// in\ntag_35:\n    /* \"#utility.yul\":181:272   */\n  swap2\n  pop\n    /* \"#utility.yul\":281:374   */\n  tag_37\n    /* \"#utility.yul\":370:373   */\n  dup3\n    /* \"#utility.yul\":281:374   */\n  tag_38\n  jump\t// in\ntag_37:\n    /* \"#utility.yul\":399:400   */\n  0x04\n    /* \"#utility.yul\":394:397   */\n  dup3\n    /* \"#utility.yul\":390:401   */\n  add\n    /* \"#utility.yul\":383:401   */\n  swap1\n  pop\n    /* \"#utility.yul\":7:407   */\n  swap2\n  swap1\n  pop\n  jump\t// out\n    /* \"#utility.yul\":413:813   */\ntag_39:\n    /* \"#utility.yul\":573:576   */\n  0x00\n    /* \"#utility.yul\":594:678   */\n  tag_41\n    /* \"#utility.yul\":676:677   */\n  0x05\n    /* \"#utility.yul\":671:674   */\n  dup4\n    /* \"#utility.yul\":594:678   */\n  tag_36\n  jump\t// in\ntag_41:\n    /* \"#utility.yul\":587:678   */\n  swap2\n  pop\n    /* \"#utility.yul\":687:780   */\n  tag_42\n    /* \"#utility.yul\":776:779   */\n  dup3\n    /* \"#utility.yul\":687:780   */\n  tag_43\n  jump\t// in\ntag_42:\n    /* \"#utility.yul\":805:806   */\n  0x05\n    /* \"#utility.yul\":800:803   */\n  dup3\n    /* \"#utility.yul\":796:807   */\n  add\n    /* \"#utility.yul\":789:807   */\n  swap1\n  pop\n    /* \"#utility.yul\":413:813   */\n  swap2\n  swap1\n  pop\n  jump\t// out\n    /* \"#utility.yul\":819:1219   */\ntag_44:\n    /* \"#utility.yul\":979:982   */\n  0x00\n    /* \"#utility.yul\":1000:1084   */\n  tag_46\n    /* \"#utility.yul\":1082:1083   */\n  0x05\n    /* \"#utility.yul\":1077:1080   */\n  dup4\n    /* \"#utility.yul\":1000:1084   */\n  tag_36\n  jump\t// in\ntag_46:\n    /* \"#utility.yul\":993:1084   */\n  swap2\n  pop\n    /* \"#utility.yul\":1093:1186   */\n  tag_47\n    /* \"#utility.yul\":1182:1185   */\n  dup3\n    /* \"#utility.yul\":1093:1186   */\n  tag_48\n  jump\t// in\ntag_47:\n    /* \"#utility.yul\":1211:1212   */\n  0x05\n    /* \"#utility.yul\":1206:1209   */\n  dup3\n    /* \"#utility.yul\":1202:1213   */\n  add\n    /* \"#utility.yul\":1195:1213   */\n  swap1\n  pop\n    /* \"#utility.yul\":819:1219   */\n  swap2\n  swap1\n  pop\n  jump\t// out\n    /* \"#utility.yul\":1225:1625   */\ntag_49:\n    /* \"#utility.yul\":1385:1388   */\n  0x00\n    /* \"#utility.yul\":1406:1490   */\n  tag_51\n    /* \"#utility.yul\":1488:1489   */\n  0x05\n    /* \"#utility.yul\":1483:1486   */\n  dup4\n    /* \"#utility.yul\":1406:1490   */\n  tag_36\n  jump\t// in\ntag_51:\n    /* \"#utility.yul\":1399:1490   */\n  swap2\n  pop\n    /* \"#utility.yul\":1499:1592   */\n  tag_52\n    /* \"#utility.yul\":1588:1591   */\n  dup3\n    /* \"#utility.yul\":1499:1592   */\n  tag_53\n  jump\t// in\ntag_52:\n    /* \"#utility.yul\":1617:1618   */\n  0x05\n    /* \"#utility.yul\":1612:1615   */\n  dup3\n    /* \"#utility.yul\":1608:1619   */\n  add\n    /* \"#utility.yul\":1601:1619   */\n  swap1\n  pop\n    /* \"#utility.yul\":1225:1625   */\n  swap2\n  swap1\n  pop\n  jump\t// out\n    /* \"#utility.yul\":1631:2031   */\ntag_54:\n    /* \"#utility.yul\":1791:1794   */\n  0x00\n    /* \"#utility.yul\":1812:1896   */\n  tag_56\n    /* \"#utility.yul\":1894:1895   */\n  0x01\n    /* \"#utility.yul\":1889:1892   */\n  dup4\n    /* \"#utility.yul\":1812:1896   */\n  tag_36\n  jump\t// in\ntag_56:\n    /* \"#utility.yul\":1805:1896   */\n  swap2\n  pop\n    /* \"#utility.yul\":1905:1998   */\n  tag_57\n    /* \"#utility.yul\":1994:1997   */\n  dup3\n    /* \"#utility.yul\":1905:1998   */\n  tag_58\n  jump\t// in\ntag_57:\n    /* \"#utility.yul\":2023:2024   */\n  0x01\n    /* \"#utility.yul\":2018:2021   */\n  dup3\n    /* \"#utility.yul\":2014:2025   */\n  add\n    /* \"#utility.yul\":2007:2025   */\n  swap1\n  pop\n    /* \"#utility.yul\":1631:2031   */\n  swap2\n  swap1\n  pop\n  jump\t// out\n    /* \"#utility.yul\":2037:2418   */\ntag_12:\n    /* \"#utility.yul\":2222:2225   */\n  0x00\n    /* \"#utility.yul\":2244:2392   */\n  tag_60\n    /* \"#utility.yul\":2388:2391   */\n  dup3\n    /* \"#utility.yul\":2244:2392   */\n  tag_33\n  jump\t// in\ntag_60:\n    /* \"#utility.yul\":2237:2392   */\n  swap2\n  pop\n    /* \"#utility.yul\":2409:2412   */\n  dup2\n    /* \"#utility.yul\":2402:2412   */\n  swap1\n  pop\n    /* \"#utility.yul\":2037:2418   */\n  swap2\n  swap1\n  pop\n  jump\t// out\n    /* \"#utility.yul\":2424:2805   */\ntag_9:\n    /* \"#utility.yul\":2609:2612   */\n  0x00\n    /* \"#utility.yul\":2631:2779   */\n  tag_62\n    /* \"#utility.yul\":2775:2778   */\n  dup3\n    /* \"#utility.yul\":2631:2779   */\n  tag_39\n  jump\t// in\ntag_62:\n    /* \"#utility.yul\":2624:2779   */\n  swap2\n  pop\n    /* \"#utility.yul\":2796:2799   */\n  dup2\n    /* \"#utility.yul\":2789:2799   */\n  swap1\n  pop\n    /* \"#utility.yul\":2424:2805   */\n  swap2\n  swap1\n  pop\n  jump\t// out\n    /* \"#utility.yul\":2811:3192   */\ntag_15:\n    /* \"#utility.yul\":2996:2999   */\n  0x00\n    /* \"#utility.yul\":3018:3166   */\n  tag_64\n    /* \"#utility.yul\":3162:3165   */\n  dup3\n    /* \"#utility.yul\":3018:3166   */\n  tag_44\n  jump\t// in\ntag_64:\n    /* \"#utility.yul\":3011:3166   */\n  swap2\n  pop\n    /* \"#utility.yul\":3183:3186   */\n  dup2\n    /* \"#utility.yul\":3176:3186   */\n  swap1\n  pop\n    /* \"#utility.yul\":2811:3192   */\n  swap2\n  swap1\n  pop\n  jump\t// out\n    /* \"#utility.yul\":3198:3579   */\ntag_18:\n    /* \"#utility.yul\":3383:3386   */\n  0x00\n    /* \"#utility.yul\":3405:3553   */\n  tag_66\n    /* \"#utility.yul\":3549:3552   */\n  dup3\n    /* \"#utility.yul\":3405:3553   */\n  tag_49\n  jump\t// in\ntag_66:\n    /* \"#utility.yul\":3398:3553   */\n  swap2\n  pop\n    /* \"#utility.yul\":3570:3573   */\n  dup2\n    /* \"#utility.yul\":3563:3573   */\n  swap1\n  pop\n    /* \"#utility.yul\":3198:3579   */\n  swap2\n  swap1\n  pop\n  jump\t// out\n    /* \"#utility.yul\":3585:3966   */\ntag_5:\n    /* \"#utility.yul\":3770:3773   */\n  0x00\n    /* \"#utility.yul\":3792:3940   */\n  tag_68\n    /* \"#utility.yul\":3936:3939   */\n  dup3\n    /* \"#utility.yul\":3792:3940   */\n  tag_54\n  jump\t// in\ntag_68:\n    /* \"#utility.yul\":3785:3940   */\n  swap2\n  pop\n    /* \"#utility.yul\":3957:3960   */\n  dup2\n    /* \"#utility.yul\":3950:3960   */\n  swap1\n  pop\n    /* \"#utility.yul\":3585:3966   */\n  swap2\n  swap1\n  pop\n  jump\t// out\n    /* \"#utility.yul\":3972:4120   */\ntag_36:\n    /* \"#utility.yul\":4074:4085   */\n  0x00\n    /* \"#utility.yul\":4111:4114   */\n  dup2\n    /* \"#utility.yul\":4096:4114   */\n  swap1\n  pop\n    /* \"#utility.yul\":3972:4120   */\n  swap3\n  swap2\n  pop\n  pop\n  jump\t// out\n    /* \"#utility.yul\":4126:4446   */\ntag_22:\n    /* \"#utility.yul\":4170:4176   */\n  0x00\n    /* \"#utility.yul\":4207:4208   */\n  0x02\n    /* \"#utility.yul\":4201:4205   */\n  dup3\n    /* \"#utility.yul\":4197:4209   */\n  div\n    /* \"#utility.yul\":4187:4209   */\n  swap1\n  pop\n    /* \"#utility.yul\":4254:4255   */\n  0x01\n    /* \"#utility.yul\":4248:4252   */\n  dup3\n    /* \"#utility.yul\":4244:4256   */\n  and\n    /* \"#utility.yul\":4275:4293   */\n  dup1\n    /* \"#utility.yul\":4265:4346   */\n  tag_71\n  jumpi\n    /* \"#utility.yul\":4331:4335   */\n  0x7f\n    /* \"#utility.yul\":4323:4329   */\n  dup3\n    /* \"#utility.yul\":4319:4336   */\n  and\n    /* \"#utility.yul\":4309:4336   */\n  swap2\n  pop\n    /* \"#utility.yul\":4265:4346   */\ntag_71:\n    /* \"#utility.yul\":4393:4395   */\n  0x20\n    /* \"#utility.yul\":4385:4391   */\n  dup3\n    /* \"#utility.yul\":4382:4396   */\n  lt\n    /* \"#utility.yul\":4362:4380   */\n  dup2\n    /* \"#utility.yul\":4359:4397   */\n  eq\n    /* \"#utility.yul\":4356:4440   */\n  iszero\n  tag_72\n  jumpi\n    /* \"#utility.yul\":4412:4430   */\n  tag_73\n  tag_74\n  jump\t// in\ntag_73:\n    /* \"#utility.yul\":4356:4440   */\ntag_72:\n    /* \"#utility.yul\":4177:4446   */\n  pop\n    /* \"#utility.yul\":4126:4446   */\n  swap2\n  swap1\n  pop\n  jump\t// out\n    /* \"#utility.yul\":4452:4632   */\ntag_74:\n    /* \"#utility.yul\":4500:4577   */\n  0x4e487b7100000000000000000000000000000000000000000000000000000000\n    /* \"#utility.yul\":4497:4498   */\n  0x00\n    /* \"#utility.yul\":4490:4578   */\n  mstore\n    /* \"#utility.yul\":4597:4601   */\n  0x22\n    /* \"#utility.yul\":4594:4595   */\n  0x04\n    /* \"#utility.yul\":4587:4602   */\n  mstore\n    /* \"#utility.yul\":4621:4625   */\n  0x24\n    /* \"#utility.yul\":4618:4619   */\n  0x00\n    /* \"#utility.yul\":4611:4626   */\n  revert\n    /* \"#utility.yul\":4638:4792   */\ntag_38:\n    /* \"#utility.yul\":4778:4784   */\n  0x4d61726b00000000000000000000000000000000000000000000000000000000\n    /* \"#utility.yul\":4774:4775   */\n  0x00\n    /* \"#utility.yul\":4766:4772   */\n  dup3\n    /* \"#utility.yul\":4762:4776   */\n  add\n    /* \"#utility.yul\":4755:4785   */\n  mstore\n    /* \"#utility.yul\":4638:4792   */\n  pop\n  jump\t// out\n    /* \"#utility.yul\":4798:4953   */\ntag_43:\n    /* \"#utility.yul\":4938:4945   */\n  0x546f79696e000000000000000000000000000000000000000000000000000000\n    /* \"#utility.yul\":4934:4935   */\n  0x00\n    /* \"#utility.yul\":4926:4932   */\n  dup3\n    /* \"#utility.yul\":4922:4936   */\n  add\n    /* \"#utility.yul\":4915:4946   */\n  mstore\n    /* \"#utility.yul\":4798:4953   */\n  pop\n  jump\t// out\n    /* \"#utility.yul\":4959:5114   */\ntag_48:\n    /* \"#utility.yul\":5099:5106   */\n  0x4d696c6164000000000000000000000000000000000000000000000000000000\n    /* \"#utility.yul\":5095:5096   */\n  0x00\n    /* \"#utility.yul\":5087:5093   */\n  dup3\n    /* \"#utility.yul\":5083:5097   */\n  add\n    /* \"#utility.yul\":5076:5107   */\n  mstore\n    /* \"#utility.yul\":4959:5114   */\n  pop\n  jump\t// out\n    /* \"#utility.yul\":5120:5275   */\ntag_53:\n    /* \"#utility.yul\":5260:5267   */\n  0x5461686572000000000000000000000000000000000000000000000000000000\n    /* \"#utility.yul\":5256:5257   */\n  0x00\n    /* \"#utility.yul\":5248:5254   */\n  dup3\n    /* \"#utility.yul\":5244:5258   */\n  add\n    /* \"#utility.yul\":5237:5268   */\n  mstore\n    /* \"#utility.yul\":5120:5275   */\n  pop\n  jump\t// out\n    /* \"#utility.yul\":5281:5432   */\ntag_58:\n    /* \"#utility.yul\":5421:5424   */\n  0x5600000000000000000000000000000000000000000000000000000000000000\n    /* \"#utility.yul\":5417:5418   */\n  0x00\n    /* \"#utility.yul\":5409:5415   */\n  dup3\n    /* \"#utility.yul\":5405:5419   */\n  add\n    /* \"#utility.yul\":5398:5425   */\n  mstore\n    /* \"#utility.yul\":5281:5432   */\n  pop\n  jump\t// out\n    /* \"contracts/mappings.sol\":64:801  contract MappingsSample{\r... */\ntag_20:\n  dataSize(sub_0)\n  dup1\n  dataOffset(sub_0)\n  0x00\n  codecopy\n  0x00\n  return\nstop\n\nsub_0: assembly {\n        /* \"contracts/mappings.sol\":64:801  contract MappingsSample{\r... */\n      mstore(0x40, 0x80)\n      callvalue\n      dup1\n      iszero\n      tag_1\n      jumpi\n      0x00\n      dup1\n      revert\n    tag_1:\n      pop\n      jumpi(tag_2, lt(calldatasize, 0x04))\n      shr(0xe0, calldataload(0x00))\n      dup1\n      0x822fbf58\n      eq\n      tag_3\n      jumpi\n      dup1\n      0x893d20e8\n      eq\n      tag_4\n      jumpi\n    tag_2:\n      0x00\n      dup1\n      revert\n        /* \"contracts/mappings.sol\":223:261  mapping(string => string) public names */\n    tag_3:\n      tag_5\n      0x04\n      dup1\n      calldatasize\n      sub\n      dup2\n      add\n      swap1\n      tag_6\n      swap2\n      swap1\n      tag_7\n      jump\t// in\n    tag_6:\n      tag_8\n      jump\t// in\n    tag_5:\n      mload(0x40)\n      tag_9\n      swap2\n      swap1\n      tag_10\n      jump\t// in\n    tag_9:\n      mload(0x40)\n      dup1\n      swap2\n      sub\n      swap1\n      return\n        /* \"contracts/mappings.sol\":690:794  function getOwner()\r... */\n    tag_4:\n      tag_11\n      tag_12\n      jump\t// in\n    tag_11:\n      mload(0x40)\n      tag_13\n      swap2\n      swap1\n      tag_14\n      jump\t// in\n    tag_13:\n      mload(0x40)\n      dup1\n      swap2\n      sub\n      swap1\n      return\n        /* \"contracts/mappings.sol\":223:261  mapping(string => string) public names */\n    tag_8:\n      0x00\n      dup2\n      dup1\n      mload\n      0x20\n      dup2\n      add\n      dup3\n      add\n      dup1\n      mload\n      dup5\n      dup3\n      mstore\n      0x20\n      dup4\n      add\n      0x20\n      dup6\n      add\n      keccak256\n      dup2\n      dup4\n      mstore\n      dup1\n      swap6\n      pop\n      pop\n      pop\n      pop\n      pop\n      pop\n      0x00\n      swap2\n      pop\n      swap1\n      pop\n      dup1\n      sload\n      tag_15\n      swap1\n      tag_16\n      jump\t// in\n    tag_15:\n      dup1\n      0x1f\n      add\n      0x20\n      dup1\n      swap2\n      div\n      mul\n      0x20\n      add\n      mload(0x40)\n      swap1\n      dup2\n      add\n      0x40\n      mstore\n      dup1\n      swap3\n      swap2\n      swap1\n      dup2\n      dup2\n      mstore\n      0x20\n      add\n      dup3\n      dup1\n      sload\n      tag_17\n      swap1\n      tag_16\n      jump\t// in\n    tag_17:\n      dup1\n      iszero\n      tag_18\n      jumpi\n      dup1\n      0x1f\n      lt\n      tag_19\n      jumpi\n      0x0100\n      dup1\n      dup4\n      sload\n      div\n      mul\n      dup4\n      mstore\n      swap2\n      0x20\n      add\n      swap2\n      jump(tag_18)\n    tag_19:\n      dup3\n      add\n      swap2\n      swap1\n      0x00\n      mstore\n      keccak256(0x00, 0x20)\n      swap1\n    tag_20:\n      dup2\n      sload\n      dup2\n      mstore\n      swap1\n      0x01\n      add\n      swap1\n      0x20\n      add\n      dup1\n      dup4\n      gt\n      tag_20\n      jumpi\n      dup3\n      swap1\n      sub\n      0x1f\n      and\n      dup3\n      add\n      swap2\n    tag_18:\n      pop\n      pop\n      pop\n      pop\n      pop\n      dup2\n      jump\t// out\n        /* \"contracts/mappings.sol\":690:794  function getOwner()\r... */\n    tag_12:\n        /* \"contracts/mappings.sol\":748:755  address */\n      0x00\n        /* \"contracts/mappings.sol\":775:785  msg.sender */\n      caller\n        /* \"contracts/mappings.sol\":768:785  return msg.sender */\n      swap1\n      pop\n        /* \"contracts/mappings.sol\":690:794  function getOwner()\r... */\n      swap1\n      jump\t// out\n        /* \"#utility.yul\":7:419   */\n    tag_23:\n        /* \"#utility.yul\":85:90   */\n      0x00\n        /* \"#utility.yul\":110:176   */\n      tag_25\n        /* \"#utility.yul\":126:175   */\n      tag_26\n        /* \"#utility.yul\":168:174   */\n      dup5\n        /* \"#utility.yul\":126:175   */\n      tag_27\n      jump\t// in\n    tag_26:\n        /* \"#utility.yul\":110:176   */\n      tag_28\n      jump\t// in\n    tag_25:\n        /* \"#utility.yul\":101:176   */\n      swap1\n      pop\n        /* \"#utility.yul\":199:205   */\n      dup3\n        /* \"#utility.yul\":192:197   */\n      dup2\n        /* \"#utility.yul\":185:206   */\n      mstore\n        /* \"#utility.yul\":237:241   */\n      0x20\n        /* \"#utility.yul\":230:235   */\n      dup2\n        /* \"#utility.yul\":226:242   */\n      add\n        /* \"#utility.yul\":275:278   */\n      dup5\n        /* \"#utility.yul\":266:272   */\n      dup5\n        /* \"#utility.yul\":261:264   */\n      dup5\n        /* \"#utility.yul\":257:273   */\n      add\n        /* \"#utility.yul\":254:279   */\n      gt\n        /* \"#utility.yul\":251:363   */\n      iszero\n      tag_29\n      jumpi\n        /* \"#utility.yul\":282:361   */\n      tag_30\n      tag_31\n      jump\t// in\n    tag_30:\n        /* \"#utility.yul\":251:363   */\n    tag_29:\n        /* \"#utility.yul\":372:413   */\n      tag_32\n        /* \"#utility.yul\":406:412   */\n      dup5\n        /* \"#utility.yul\":401:404   */\n      dup3\n        /* \"#utility.yul\":396:399   */\n      dup6\n        /* \"#utility.yul\":372:413   */\n      tag_33\n      jump\t// in\n    tag_32:\n        /* \"#utility.yul\":91:419   */\n      pop\n        /* \"#utility.yul\":7:419   */\n      swap4\n      swap3\n      pop\n      pop\n      pop\n      jump\t// out\n        /* \"#utility.yul\":439:779   */\n    tag_34:\n        /* \"#utility.yul\":495:500   */\n      0x00\n        /* \"#utility.yul\":544:547   */\n      dup3\n        /* \"#utility.yul\":537:541   */\n      0x1f\n        /* \"#utility.yul\":529:535   */\n      dup4\n        /* \"#utility.yul\":525:542   */\n      add\n        /* \"#utility.yul\":521:548   */\n      slt\n        /* \"#utility.yul\":511:633   */\n      tag_36\n      jumpi\n        /* \"#utility.yul\":552:631   */\n      tag_37\n      tag_38\n      jump\t// in\n    tag_37:\n        /* \"#utility.yul\":511:633   */\n    tag_36:\n        /* \"#utility.yul\":669:675   */\n      dup2\n        /* \"#utility.yul\":656:676   */\n      calldataload\n        /* \"#utility.yul\":694:773   */\n      tag_39\n        /* \"#utility.yul\":769:772   */\n      dup5\n        /* \"#utility.yul\":761:767   */\n      dup3\n        /* \"#utility.yul\":754:758   */\n      0x20\n        /* \"#utility.yul\":746:752   */\n      dup7\n        /* \"#utility.yul\":742:759   */\n      add\n        /* \"#utility.yul\":694:773   */\n      tag_23\n      jump\t// in\n    tag_39:\n        /* \"#utility.yul\":685:773   */\n      swap2\n      pop\n        /* \"#utility.yul\":501:779   */\n      pop\n        /* \"#utility.yul\":439:779   */\n      swap3\n      swap2\n      pop\n      pop\n      jump\t// out\n        /* \"#utility.yul\":785:1294   */\n    tag_7:\n        /* \"#utility.yul\":854:860   */\n      0x00\n        /* \"#utility.yul\":903:905   */\n      0x20\n        /* \"#utility.yul\":891:900   */\n      dup3\n        /* \"#utility.yul\":882:889   */\n      dup5\n        /* \"#utility.yul\":878:901   */\n      sub\n        /* \"#utility.yul\":874:906   */\n      slt\n        /* \"#utility.yul\":871:990   */\n      iszero\n      tag_41\n      jumpi\n        /* \"#utility.yul\":909:988   */\n      tag_42\n      tag_43\n      jump\t// in\n    tag_42:\n        /* \"#utility.yul\":871:990   */\n    tag_41:\n        /* \"#utility.yul\":1057:1058   */\n      0x00\n        /* \"#utility.yul\":1046:1055   */\n      dup3\n        /* \"#utility.yul\":1042:1059   */\n      add\n        /* \"#utility.yul\":1029:1060   */\n      calldataload\n        /* \"#utility.yul\":1087:1105   */\n      0xffffffffffffffff\n        /* \"#utility.yul\":1079:1085   */\n      dup2\n        /* \"#utility.yul\":1076:1106   */\n      gt\n        /* \"#utility.yul\":1073:1190   */\n      iszero\n      tag_44\n      jumpi\n        /* \"#utility.yul\":1109:1188   */\n      tag_45\n      tag_46\n      jump\t// in\n    tag_45:\n        /* \"#utility.yul\":1073:1190   */\n    tag_44:\n        /* \"#utility.yul\":1214:1277   */\n      tag_47\n        /* \"#utility.yul\":1269:1276   */\n      dup5\n        /* \"#utility.yul\":1260:1266   */\n      dup3\n        /* \"#utility.yul\":1249:1258   */\n      dup6\n        /* \"#utility.yul\":1245:1267   */\n      add\n        /* \"#utility.yul\":1214:1277   */\n      tag_34\n      jump\t// in\n    tag_47:\n        /* \"#utility.yul\":1204:1277   */\n      swap2\n      pop\n        /* \"#utility.yul\":1000:1287   */\n      pop\n        /* \"#utility.yul\":785:1294   */\n      swap3\n      swap2\n      pop\n      pop\n      jump\t// out\n        /* \"#utility.yul\":1300:1418   */\n    tag_48:\n        /* \"#utility.yul\":1387:1411   */\n      tag_50\n        /* \"#utility.yul\":1405:1410   */\n      dup2\n        /* \"#utility.yul\":1387:1411   */\n      tag_51\n      jump\t// in\n    tag_50:\n        /* \"#utility.yul\":1382:1385   */\n      dup3\n        /* \"#utility.yul\":1375:1412   */\n      mstore\n        /* \"#utility.yul\":1300:1418   */\n      pop\n      pop\n      jump\t// out\n        /* \"#utility.yul\":1424:1788   */\n    tag_52:\n        /* \"#utility.yul\":1512:1515   */\n      0x00\n        /* \"#utility.yul\":1540:1579   */\n      tag_54\n        /* \"#utility.yul\":1573:1578   */\n      dup3\n        /* \"#utility.yul\":1540:1579   */\n      tag_55\n      jump\t// in\n    tag_54:\n        /* \"#utility.yul\":1595:1666   */\n      tag_56\n        /* \"#utility.yul\":1659:1665   */\n      dup2\n        /* \"#utility.yul\":1654:1657   */\n      dup6\n        /* \"#utility.yul\":1595:1666   */\n      tag_57\n      jump\t// in\n    tag_56:\n        /* \"#utility.yul\":1588:1666   */\n      swap4\n      pop\n        /* \"#utility.yul\":1675:1727   */\n      tag_58\n        /* \"#utility.yul\":1720:1726   */\n      dup2\n        /* \"#utility.yul\":1715:1718   */\n      dup6\n        /* \"#utility.yul\":1708:1712   */\n      0x20\n        /* \"#utility.yul\":1701:1706   */\n      dup7\n        /* \"#utility.yul\":1697:1713   */\n      add\n        /* \"#utility.yul\":1675:1727   */\n      tag_59\n      jump\t// in\n    tag_58:\n        /* \"#utility.yul\":1752:1781   */\n      tag_60\n        /* \"#utility.yul\":1774:1780   */\n      dup2\n        /* \"#utility.yul\":1752:1781   */\n      tag_61\n      jump\t// in\n    tag_60:\n        /* \"#utility.yul\":1747:1750   */\n      dup5\n        /* \"#utility.yul\":1743:1782   */\n      add\n        /* \"#utility.yul\":1736:1782   */\n      swap2\n      pop\n        /* \"#utility.yul\":1516:1788   */\n      pop\n        /* \"#utility.yul\":1424:1788   */\n      swap3\n      swap2\n      pop\n      pop\n      jump\t// out\n        /* \"#utility.yul\":1794:2016   */\n    tag_14:\n        /* \"#utility.yul\":1887:1891   */\n      0x00\n        /* \"#utility.yul\":1925:1927   */\n      0x20\n        /* \"#utility.yul\":1914:1923   */\n      dup3\n        /* \"#utility.yul\":1910:1928   */\n      add\n        /* \"#utility.yul\":1902:1928   */\n      swap1\n      pop\n        /* \"#utility.yul\":1938:2009   */\n      tag_63\n        /* \"#utility.yul\":2006:2007   */\n      0x00\n        /* \"#utility.yul\":1995:2004   */\n      dup4\n        /* \"#utility.yul\":1991:2008   */\n      add\n        /* \"#utility.yul\":1982:1988   */\n      dup5\n        /* \"#utility.yul\":1938:2009   */\n      tag_48\n      jump\t// in\n    tag_63:\n        /* \"#utility.yul\":1794:2016   */\n      swap3\n      swap2\n      pop\n      pop\n      jump\t// out\n        /* \"#utility.yul\":2022:2335   */\n    tag_10:\n        /* \"#utility.yul\":2135:2139   */\n      0x00\n        /* \"#utility.yul\":2173:2175   */\n      0x20\n        /* \"#utility.yul\":2162:2171   */\n      dup3\n        /* \"#utility.yul\":2158:2176   */\n      add\n        /* \"#utility.yul\":2150:2176   */\n      swap1\n      pop\n        /* \"#utility.yul\":2222:2231   */\n      dup2\n        /* \"#utility.yul\":2216:2220   */\n      dup2\n        /* \"#utility.yul\":2212:2232   */\n      sub\n        /* \"#utility.yul\":2208:2209   */\n      0x00\n        /* \"#utility.yul\":2197:2206   */\n      dup4\n        /* \"#utility.yul\":2193:2210   */\n      add\n        /* \"#utility.yul\":2186:2233   */\n      mstore\n        /* \"#utility.yul\":2250:2328   */\n      tag_65\n        /* \"#utility.yul\":2323:2327   */\n      dup2\n        /* \"#utility.yul\":2314:2320   */\n      dup5\n        /* \"#utility.yul\":2250:2328   */\n      tag_52\n      jump\t// in\n    tag_65:\n        /* \"#utility.yul\":2242:2328   */\n      swap1\n      pop\n        /* \"#utility.yul\":2022:2335   */\n      swap3\n      swap2\n      pop\n      pop\n      jump\t// out\n        /* \"#utility.yul\":2341:2470   */\n    tag_28:\n        /* \"#utility.yul\":2375:2381   */\n      0x00\n        /* \"#utility.yul\":2402:2422   */\n      tag_67\n      tag_68\n      jump\t// in\n    tag_67:\n        /* \"#utility.yul\":2392:2422   */\n      swap1\n      pop\n        /* \"#utility.yul\":2431:2464   */\n      tag_69\n        /* \"#utility.yul\":2459:2463   */\n      dup3\n        /* \"#utility.yul\":2451:2457   */\n      dup3\n        /* \"#utility.yul\":2431:2464   */\n      tag_70\n      jump\t// in\n    tag_69:\n        /* \"#utility.yul\":2341:2470   */\n      swap2\n      swap1\n      pop\n      jump\t// out\n        /* \"#utility.yul\":2476:2551   */\n    tag_68:\n        /* \"#utility.yul\":2509:2515   */\n      0x00\n        /* \"#utility.yul\":2542:2544   */\n      0x40\n        /* \"#utility.yul\":2536:2545   */\n      mload\n        /* \"#utility.yul\":2526:2545   */\n      swap1\n      pop\n        /* \"#utility.yul\":2476:2551   */\n      swap1\n      jump\t// out\n        /* \"#utility.yul\":2557:2865   */\n    tag_27:\n        /* \"#utility.yul\":2619:2623   */\n      0x00\n        /* \"#utility.yul\":2709:2727   */\n      0xffffffffffffffff\n        /* \"#utility.yul\":2701:2707   */\n      dup3\n        /* \"#utility.yul\":2698:2728   */\n      gt\n        /* \"#utility.yul\":2695:2751   */\n      iszero\n      tag_73\n      jumpi\n        /* \"#utility.yul\":2731:2749   */\n      tag_74\n      tag_75\n      jump\t// in\n    tag_74:\n        /* \"#utility.yul\":2695:2751   */\n    tag_73:\n        /* \"#utility.yul\":2769:2798   */\n      tag_76\n        /* \"#utility.yul\":2791:2797   */\n      dup3\n        /* \"#utility.yul\":2769:2798   */\n      tag_61\n      jump\t// in\n    tag_76:\n        /* \"#utility.yul\":2761:2798   */\n      swap1\n      pop\n        /* \"#utility.yul\":2853:2857   */\n      0x20\n        /* \"#utility.yul\":2847:2851   */\n      dup2\n        /* \"#utility.yul\":2843:2858   */\n      add\n        /* \"#utility.yul\":2835:2858   */\n      swap1\n      pop\n        /* \"#utility.yul\":2557:2865   */\n      swap2\n      swap1\n      pop\n      jump\t// out\n        /* \"#utility.yul\":2871:2970   */\n    tag_55:\n        /* \"#utility.yul\":2923:2929   */\n      0x00\n        /* \"#utility.yul\":2957:2962   */\n      dup2\n        /* \"#utility.yul\":2951:2963   */\n      mload\n        /* \"#utility.yul\":2941:2963   */\n      swap1\n      pop\n        /* \"#utility.yul\":2871:2970   */\n      swap2\n      swap1\n      pop\n      jump\t// out\n        /* \"#utility.yul\":2976:3145   */\n    tag_57:\n        /* \"#utility.yul\":3060:3071   */\n      0x00\n        /* \"#utility.yul\":3094:3100   */\n      dup3\n        /* \"#utility.yul\":3089:3092   */\n      dup3\n        /* \"#utility.yul\":3082:3101   */\n      mstore\n        /* \"#utility.yul\":3134:3138   */\n      0x20\n        /* \"#utility.yul\":3129:3132   */\n      dup3\n        /* \"#utility.yul\":3125:3139   */\n      add\n        /* \"#utility.yul\":3110:3139   */\n      swap1\n      pop\n        /* \"#utility.yul\":2976:3145   */\n      swap3\n      swap2\n      pop\n      pop\n      jump\t// out\n        /* \"#utility.yul\":3151:3247   */\n    tag_51:\n        /* \"#utility.yul\":3188:3195   */\n      0x00\n        /* \"#utility.yul\":3217:3241   */\n      tag_80\n        /* \"#utility.yul\":3235:3240   */\n      dup3\n        /* \"#utility.yul\":3217:3241   */\n      tag_81\n      jump\t// in\n    tag_80:\n        /* \"#utility.yul\":3206:3241   */\n      swap1\n      pop\n        /* \"#utility.yul\":3151:3247   */\n      swap2\n      swap1\n      pop\n      jump\t// out\n        /* \"#utility.yul\":3253:3379   */\n    tag_81:\n        /* \"#utility.yul\":3290:3297   */\n      0x00\n        /* \"#utility.yul\":3330:3372   */\n      0xffffffffffffffffffffffffffffffffffffffff\n        /* \"#utility.yul\":3323:3328   */\n      dup3\n        /* \"#utility.yul\":3319:3373   */\n      and\n        /* \"#utility.yul\":3308:3373   */\n      swap1\n      pop\n        /* \"#utility.yul\":3253:3379   */\n      swap2\n      swap1\n      pop\n      jump\t// out\n        /* \"#utility.yul\":3385:3539   */\n    tag_33:\n        /* \"#utility.yul\":3469:3475   */\n      dup3\n        /* \"#utility.yul\":3464:3467   */\n      dup2\n        /* \"#utility.yul\":3459:3462   */\n      dup4\n        /* \"#utility.yul\":3446:3476   */\n      calldatacopy\n        /* \"#utility.yul\":3531:3532   */\n      0x00\n        /* \"#utility.yul\":3522:3528   */\n      dup4\n        /* \"#utility.yul\":3517:3520   */\n      dup4\n        /* \"#utility.yul\":3513:3529   */\n      add\n        /* \"#utility.yul\":3506:3533   */\n      mstore\n        /* \"#utility.yul\":3385:3539   */\n      pop\n      pop\n      pop\n      jump\t// out\n        /* \"#utility.yul\":3545:3852   */\n    tag_59:\n        /* \"#utility.yul\":3613:3614   */\n      0x00\n        /* \"#utility.yul\":3623:3736   */\n    tag_85:\n        /* \"#utility.yul\":3637:3643   */\n      dup4\n        /* \"#utility.yul\":3634:3635   */\n      dup2\n        /* \"#utility.yul\":3631:3644   */\n      lt\n        /* \"#utility.yul\":3623:3736   */\n      iszero\n      tag_87\n      jumpi\n        /* \"#utility.yul\":3722:3723   */\n      dup1\n        /* \"#utility.yul\":3717:3720   */\n      dup3\n        /* \"#utility.yul\":3713:3724   */\n      add\n        /* \"#utility.yul\":3707:3725   */\n      mload\n        /* \"#utility.yul\":3703:3704   */\n      dup2\n        /* \"#utility.yul\":3698:3701   */\n      dup5\n        /* \"#utility.yul\":3694:3705   */\n      add\n        /* \"#utility.yul\":3687:3726   */\n      mstore\n        /* \"#utility.yul\":3659:3661   */\n      0x20\n        /* \"#utility.yul\":3656:3657   */\n      dup2\n        /* \"#utility.yul\":3652:3662   */\n      add\n        /* \"#utility.yul\":3647:3662   */\n      swap1\n      pop\n        /* \"#utility.yul\":3623:3736   */\n      jump(tag_85)\n    tag_87:\n        /* \"#utility.yul\":3754:3760   */\n      dup4\n        /* \"#utility.yul\":3751:3752   */\n      dup2\n        /* \"#utility.yul\":3748:3761   */\n      gt\n        /* \"#utility.yul\":3745:3846   */\n      iszero\n      tag_88\n      jumpi\n        /* \"#utility.yul\":3834:3835   */\n      0x00\n        /* \"#utility.yul\":3825:3831   */\n      dup5\n        /* \"#utility.yul\":3820:3823   */\n      dup5\n        /* \"#utility.yul\":3816:3832   */\n      add\n        /* \"#utility.yul\":3809:3836   */\n      mstore\n        /* \"#utility.yul\":3745:3846   */\n    tag_88:\n        /* \"#utility.yul\":3594:3852   */\n      pop\n        /* \"#utility.yul\":3545:3852   */\n      pop\n      pop\n      pop\n      jump\t// out\n        /* \"#utility.yul\":3858:4178   */\n    tag_16:\n        /* \"#utility.yul\":3902:3908   */\n      0x00\n        /* \"#utility.yul\":3939:3940   */\n      0x02\n        /* \"#utility.yul\":3933:3937   */\n      dup3\n        /* \"#utility.yul\":3929:3941   */\n      div\n        /* \"#utility.yul\":3919:3941   */\n      swap1\n      pop\n        /* \"#utility.yul\":3986:3987   */\n      0x01\n        /* \"#utility.yul\":3980:3984   */\n      dup3\n        /* \"#utility.yul\":3976:3988   */\n      and\n        /* \"#utility.yul\":4007:4025   */\n      dup1\n        /* \"#utility.yul\":3997:4078   */\n      tag_90\n      jumpi\n        /* \"#utility.yul\":4063:4067   */\n      0x7f\n        /* \"#utility.yul\":4055:4061   */\n      dup3\n        /* \"#utility.yul\":4051:4068   */\n      and\n        /* \"#utility.yul\":4041:4068   */\n      swap2\n      pop\n        /* \"#utility.yul\":3997:4078   */\n    tag_90:\n        /* \"#utility.yul\":4125:4127   */\n      0x20\n        /* \"#utility.yul\":4117:4123   */\n      dup3\n        /* \"#utility.yul\":4114:4128   */\n      lt\n        /* \"#utility.yul\":4094:4112   */\n      dup2\n        /* \"#utility.yul\":4091:4129   */\n      eq\n        /* \"#utility.yul\":4088:4172   */\n      iszero\n      tag_91\n      jumpi\n        /* \"#utility.yul\":4144:4162   */\n      tag_92\n      tag_93\n      jump\t// in\n    tag_92:\n        /* \"#utility.yul\":4088:4172   */\n    tag_91:\n        /* \"#utility.yul\":3909:4178   */\n      pop\n        /* \"#utility.yul\":3858:4178   */\n      swap2\n      swap1\n      pop\n      jump\t// out\n        /* \"#utility.yul\":4184:4465   */\n    tag_70:\n        /* \"#utility.yul\":4267:4294   */\n      tag_95\n        /* \"#utility.yul\":4289:4293   */\n      dup3\n        /* \"#utility.yul\":4267:4294   */\n      tag_61\n      jump\t// in\n    tag_95:\n        /* \"#utility.yul\":4259:4265   */\n      dup2\n        /* \"#utility.yul\":4255:4295   */\n      add\n        /* \"#utility.yul\":4397:4403   */\n      dup2\n        /* \"#utility.yul\":4385:4395   */\n      dup2\n        /* \"#utility.yul\":4382:4404   */\n      lt\n        /* \"#utility.yul\":4361:4379   */\n      0xffffffffffffffff\n        /* \"#utility.yul\":4349:4359   */\n      dup3\n        /* \"#utility.yul\":4346:4380   */\n      gt\n        /* \"#utility.yul\":4343:4405   */\n      or\n        /* \"#utility.yul\":4340:4428   */\n      iszero\n      tag_96\n      jumpi\n        /* \"#utility.yul\":4408:4426   */\n      tag_97\n      tag_75\n      jump\t// in\n    tag_97:\n        /* \"#utility.yul\":4340:4428   */\n    tag_96:\n        /* \"#utility.yul\":4448:4458   */\n      dup1\n        /* \"#utility.yul\":4444:4446   */\n      0x40\n        /* \"#utility.yul\":4437:4459   */\n      mstore\n        /* \"#utility.yul\":4227:4465   */\n      pop\n        /* \"#utility.yul\":4184:4465   */\n      pop\n      pop\n      jump\t// out\n        /* \"#utility.yul\":4471:4651   */\n    tag_93:\n        /* \"#utility.yul\":4519:4596   */\n      0x4e487b7100000000000000000000000000000000000000000000000000000000\n        /* \"#utility.yul\":4516:4517   */\n      0x00\n        /* \"#utility.yul\":4509:4597   */\n      mstore\n        /* \"#utility.yul\":4616:4620   */\n      0x22\n        /* \"#utility.yul\":4613:4614   */\n      0x04\n        /* \"#utility.yul\":4606:4621   */\n      mstore\n        /* \"#utility.yul\":4640:4644   */\n      0x24\n        /* \"#utility.yul\":4637:4638   */\n      0x00\n        /* \"#utility.yul\":4630:4645   */\n      revert\n        /* \"#utility.yul\":4657:4837   */\n    tag_75:\n        /* \"#utility.yul\":4705:4782   */\n      0x4e487b7100000000000000000000000000000000000000000000000000000000\n        /* \"#utility.yul\":4702:4703   */\n      0x00\n        /* \"#utility.yul\":4695:4783   */\n      mstore\n        /* \"#utility.yul\":4802:4806   */\n      0x41\n        /* \"#utility.yul\":4799:4800   */\n      0x04\n        /* \"#utility.yul\":4792:4807   */\n      mstore\n        /* \"#utility.yul\":4826:4830   */\n      0x24\n        /* \"#utility.yul\":4823:4824   */\n      0x00\n        /* \"#utility.yul\":4816:4831   */\n      revert\n        /* \"#utility.yul\":4843:4960   */\n    tag_38:\n        /* \"#utility.yul\":4952:4953   */\n      0x00\n        /* \"#utility.yul\":4949:4950   */\n      dup1\n        /* \"#utility.yul\":4942:4954   */\n      revert\n        /* \"#utility.yul\":4966:5083   */\n    tag_31:\n        /* \"#utility.yul\":5075:5076   */\n      0x00\n        /* \"#utility.yul\":5072:5073   */\n      dup1\n        /* \"#utility.yul\":5065:5077   */\n      revert\n        /* \"#utility.yul\":5089:5206   */\n    tag_46:\n        /* \"#utility.yul\":5198:5199   */\n      0x00\n        /* \"#utility.yul\":5195:5196   */\n      dup1\n        /* \"#utility.yul\":5188:5200   */\n      revert\n        /* \"#utility.yul\":5212:5329   */\n    tag_43:\n        /* \"#utility.yul\":5321:5322   */\n      0x00\n        /* \"#utility.yul\":5318:5319   */\n      dup1\n        /* \"#utility.yul\":5311:5323   */\n      revert\n        /* \"#utility.yul\":5335:5437   */\n    tag_61:\n        /* \"#utility.yul\":5376:5382   */\n      0x00\n        /* \"#utility.yul\":5427:5429   */\n      0x1f\n        /* \"#utility.yul\":5423:5430   */\n      not\n        /* \"#utility.yul\":5418:5420   */\n      0x1f\n        /* \"#utility.yul\":5411:5416   */\n      dup4\n        /* \"#utility.yul\":5407:5421   */\n      add\n        /* \"#utility.yul\":5403:5431   */\n      and\n        /* \"#utility.yul\":5393:5431   */\n      swap1\n      pop\n        /* \"#utility.yul\":5335:5437   */\n      swap2\n      swap1\n      pop\n      jump\t// out\n\n    auxdata: 0xa26469706673582212206beec781f951d45aedee53ea39da4c1c04df0532da7b39ec452a44f466d8403364736f6c63430008070033\n}\n",
				"bytecode": {
					"linkReferences": {},
					"object": "60806040523480156200001157600080fd5b506040518060400160405280600181526020017f560000000000000000000000000000000000000000000000000000000000000081525060006040516200005890620003f9565b908152602001604051809103902090805190602001906200007b9291906200022a565b506040518060400160405280600581526020017f546f79696e0000000000000000000000000000000000000000000000000000008152506000604051620000c290620003b4565b90815260200160405180910390209080519060200190620000e59291906200022a565b506040518060400160405280600481526020017f4d61726b0000000000000000000000000000000000000000000000000000000081525060006040516200012c906200039d565b908152602001604051809103902090805190602001906200014f9291906200022a565b506040518060400160405280600581526020017f4d696c616400000000000000000000000000000000000000000000000000000081525060006040516200019690620003cb565b90815260200160405180910390209080519060200190620001b99291906200022a565b506040518060400160405280600581526020017f546168657200000000000000000000000000000000000000000000000000000081525060006040516200020090620003e2565b90815260200160405180910390209080519060200190620002239291906200022a565b506200054d565b82805462000238906200041b565b90600052602060002090601f0160209004810192826200025c5760008555620002a8565b82601f106200027757805160ff1916838001178555620002a8565b82800160010185558215620002a8579182015b82811115620002a75782518255916020019190600101906200028a565b5b509050620002b79190620002bb565b5090565b5b80821115620002d6576000816000905550600101620002bc565b5090565b6000620002e960048362000410565b9150620002f68262000480565b600482019050919050565b60006200031060058362000410565b91506200031d82620004a9565b600582019050919050565b60006200033760058362000410565b91506200034482620004d2565b600582019050919050565b60006200035e60058362000410565b91506200036b82620004fb565b600582019050919050565b60006200038560018362000410565b9150620003928262000524565b600182019050919050565b6000620003aa82620002da565b9150819050919050565b6000620003c18262000301565b9150819050919050565b6000620003d88262000328565b9150819050919050565b6000620003ef826200034f565b9150819050919050565b6000620004068262000376565b9150819050919050565b600081905092915050565b600060028204905060018216806200043457607f821691505b602082108114156200044b576200044a62000451565b5b50919050565b7f4e487b7100000000000000000000000000000000000000000000000000000000600052602260045260246000fd5b7f4d61726b00000000000000000000000000000000000000000000000000000000600082015250565b7f546f79696e000000000000000000000000000000000000000000000000000000600082015250565b7f4d696c6164000000000000000000000000000000000000000000000000000000600082015250565b7f5461686572000000000000000000000000000000000000000000000000000000600082015250565b7f5600000000000000000000000000000000000000000000000000000000000000600082015250565b610487806200055d6000396000f3fe608060405234801561001057600080fd5b50600436106100365760003560e01c8063822fbf581461003b578063893d20e81461006b575b600080fd5b610055600480360381019061005091906101b7565b610089565b6040516100629190610263565b60405180910390f35b61007361013f565b6040516100809190610248565b60405180910390f35b60008180516020810182018051848252602083016020850120818352809550505050505060009150905080546100be9061036b565b80601f01602080910402602001604051908101604052809291908181526020018280546100ea9061036b565b80156101375780601f1061010c57610100808354040283529160200191610137565b820191906000526020600020905b81548152906001019060200180831161011a57829003601f168201915b505050505081565b600033905090565b600061015a610155846102aa565b610285565b90508281526020810184848401111561017657610175610431565b5b610181848285610329565b509392505050565b600082601f83011261019e5761019d61042c565b5b81356101ae848260208601610147565b91505092915050565b6000602082840312156101cd576101cc61043b565b5b600082013567ffffffffffffffff8111156101eb576101ea610436565b5b6101f784828501610189565b91505092915050565b610209816102f7565b82525050565b600061021a826102db565b61022481856102e6565b9350610234818560208601610338565b61023d81610440565b840191505092915050565b600060208201905061025d6000830184610200565b92915050565b6000602082019050818103600083015261027d818461020f565b905092915050565b600061028f6102a0565b905061029b828261039d565b919050565b6000604051905090565b600067ffffffffffffffff8211156102c5576102c46103fd565b5b6102ce82610440565b9050602081019050919050565b600081519050919050565b600082825260208201905092915050565b600061030282610309565b9050919050565b600073ffffffffffffffffffffffffffffffffffffffff82169050919050565b82818337600083830152505050565b60005b8381101561035657808201518184015260208101905061033b565b83811115610365576000848401525b50505050565b6000600282049050600182168061038357607f821691505b60208210811415610397576103966103ce565b5b50919050565b6103a682610440565b810181811067ffffffffffffffff821117156103c5576103c46103fd565b5b80604052505050565b7f4e487b7100000000000000000000000000000000000000000000000000000000600052602260045260246000fd5b7f4e487b7100000000000000000000000000000000000000000000000000000000600052604160045260246000fd5b600080fd5b600080fd5b600080fd5b600080fd5b6000601f19601f830116905091905056fea26469706673582212206beec781f951d45aedee53ea39da4c1c04df0532da7b39ec452a44f466d8403364736f6c63430008070033",
					"opcodes": "PUSH1 0x80 PUSH1 0x40 MSTORE CALLVALUE DUP1 ISZERO PUSH3 0x11 JUMPI PUSH1 0x0 DUP1 REVERT JUMPDEST POP PUSH1 0x40 MLOAD DUP1 PUSH1 0x40 ADD PUSH1 0x40 MSTORE DUP1 PUSH1 0x1 DUP2 MSTORE PUSH1 0x20 ADD PUSH32 0x5600000000000000000000000000000000000000000000000000000000000000 DUP2 MSTORE POP PUSH1 0x0 PUSH1 0x40 MLOAD PUSH3 0x58 SWAP1 PUSH3 0x3F9 JUMP JUMPDEST SWAP1 DUP2 MSTORE PUSH1 0x20 ADD PUSH1 0x40 MLOAD DUP1 SWAP2 SUB SWAP1 KECCAK256 SWAP1 DUP1 MLOAD SWAP1 PUSH1 0x20 ADD SWAP1 PUSH3 0x7B SWAP3 SWAP2 SWAP1 PUSH3 0x22A JUMP JUMPDEST POP PUSH1 0x40 MLOAD DUP1 PUSH1 0x40 ADD PUSH1 0x40 MSTORE DUP1 PUSH1 0x5 DUP2 MSTORE PUSH1 0x20 ADD PUSH32 0x546F79696E000000000000000000000000000000000000000000000000000000 DUP2 MSTORE POP PUSH1 0x0 PUSH1 0x40 MLOAD PUSH3 0xC2 SWAP1 PUSH3 0x3B4 JUMP JUMPDEST SWAP1 DUP2 MSTORE PUSH1 0x20 ADD PUSH1 0x40 MLOAD DUP1 SWAP2 SUB SWAP1 KECCAK256 SWAP1 DUP1 MLOAD SWAP1 PUSH1 0x20 ADD SWAP1 PUSH3 0xE5 SWAP3 SWAP2 SWAP1 PUSH3 0x22A JUMP JUMPDEST POP PUSH1 0x40 MLOAD DUP1 PUSH1 0x40 ADD PUSH1 0x40 MSTORE DUP1 PUSH1 0x4 DUP2 MSTORE PUSH1 0x20 ADD PUSH32 0x4D61726B00000000000000000000000000000000000000000000000000000000 DUP2 MSTORE POP PUSH1 0x0 PUSH1 0x40 MLOAD PUSH3 0x12C SWAP1 PUSH3 0x39D JUMP JUMPDEST SWAP1 DUP2 MSTORE PUSH1 0x20 ADD PUSH1 0x40 MLOAD DUP1 SWAP2 SUB SWAP1 KECCAK256 SWAP1 DUP1 MLOAD SWAP1 PUSH1 0x20 ADD SWAP1 PUSH3 0x14F SWAP3 SWAP2 SWAP1 PUSH3 0x22A JUMP JUMPDEST POP PUSH1 0x40 MLOAD DUP1 PUSH1 0x40 ADD PUSH1 0x40 MSTORE DUP1 PUSH1 0x5 DUP2 MSTORE PUSH1 0x20 ADD PUSH32 0x4D696C6164000000000000000000000000000000000000000000000000000000 DUP2 MSTORE POP PUSH1 0x0 PUSH1 0x40 MLOAD PUSH3 0x196 SWAP1 PUSH3 0x3CB JUMP JUMPDEST SWAP1 DUP2 MSTORE PUSH1 0x20 ADD PUSH1 0x40 MLOAD DUP1 SWAP2 SUB SWAP1 KECCAK256 SWAP1 DUP1 MLOAD SWAP1 PUSH1 0x20 ADD SWAP1 PUSH3 0x1B9 SWAP3 SWAP2 SWAP1 PUSH3 0x22A JUMP JUMPDEST POP PUSH1 0x40 MLOAD DUP1 PUSH1 0x40 ADD PUSH1 0x40 MSTORE DUP1 PUSH1 0x5 DUP2 MSTORE PUSH1 0x20 ADD PUSH32 0x5461686572000000000000000000000000000000000000000000000000000000 DUP2 MSTORE POP PUSH1 0x0 PUSH1 0x40 MLOAD PUSH3 0x200 SWAP1 PUSH3 0x3E2 JUMP JUMPDEST SWAP1 DUP2 MSTORE PUSH1 0x20 ADD PUSH1 0x40 MLOAD DUP1 SWAP2 SUB SWAP1 KECCAK256 SWAP1 DUP1 MLOAD SWAP1 PUSH1 0x20 ADD SWAP1 PUSH3 0x223 SWAP3 SWAP2 SWAP1 PUSH3 0x22A JUMP JUMPDEST POP PUSH3 0x54D JUMP JUMPDEST DUP3 DUP1 SLOAD PUSH3 0x238 SWAP1 PUSH3 0x41B JUMP JUMPDEST SWAP1 PUSH1 0x0 MSTORE PUSH1 0x20 PUSH1 0x0 KECCAK256 SWAP1 PUSH1 0x1F ADD PUSH1 0x20 SWAP1 DIV DUP2 ADD SWAP3 DUP3 PUSH3 0x25C JUMPI PUSH1 0x0 DUP6 SSTORE PUSH3 0x2A8 JUMP JUMPDEST DUP3 PUSH1 0x1F LT PUSH3 0x277 JUMPI DUP1 MLOAD PUSH1 0xFF NOT AND DUP4 DUP1 ADD OR DUP6 SSTORE PUSH3 0x2A8 JUMP JUMPDEST DUP3 DUP1 ADD PUSH1 0x1 ADD DUP6 SSTORE DUP3 ISZERO PUSH3 0x2A8 JUMPI SWAP2 DUP3 ADD JUMPDEST DUP3 DUP2 GT ISZERO PUSH3 0x2A7 JUMPI DUP3 MLOAD DUP3 SSTORE SWAP2 PUSH1 0x20 ADD SWAP2 SWAP1 PUSH1 0x1 ADD SWAP1 PUSH3 0x28A JUMP JUMPDEST JUMPDEST POP SWAP1 POP PUSH3 0x2B7 SWAP2 SWAP1 PUSH3 0x2BB JUMP JUMPDEST POP SWAP1 JUMP JUMPDEST JUMPDEST DUP1 DUP3 GT ISZERO PUSH3 0x2D6 JUMPI PUSH1 0x0 DUP2 PUSH1 0x0 SWAP1 SSTORE POP PUSH1 0x1 ADD PUSH3 0x2BC JUMP JUMPDEST POP SWAP1 JUMP JUMPDEST PUSH1 0x0 PUSH3 0x2E9 PUSH1 0x4 DUP4 PUSH3 0x410 JUMP JUMPDEST SWAP2 POP PUSH3 0x2F6 DUP3 PUSH3 0x480 JUMP JUMPDEST PUSH1 0x4 DUP3 ADD SWAP1 POP SWAP2 SWAP1 POP JUMP JUMPDEST PUSH1 0x0 PUSH3 0x310 PUSH1 0x5 DUP4 PUSH3 0x410 JUMP JUMPDEST SWAP2 POP PUSH3 0x31D DUP3 PUSH3 0x4A9 JUMP JUMPDEST PUSH1 0x5 DUP3 ADD SWAP1 POP SWAP2 SWAP1 POP JUMP JUMPDEST PUSH1 0x0 PUSH3 0x337 PUSH1 0x5 DUP4 PUSH3 0x410 JUMP JUMPDEST SWAP2 POP PUSH3 0x344 DUP3 PUSH3 0x4D2 JUMP JUMPDEST PUSH1 0x5 DUP3 ADD SWAP1 POP SWAP2 SWAP1 POP JUMP JUMPDEST PUSH1 0x0 PUSH3 0x35E PUSH1 0x5 DUP4 PUSH3 0x410 JUMP JUMPDEST SWAP2 POP PUSH3 0x36B DUP3 PUSH3 0x4FB JUMP JUMPDEST PUSH1 0x5 DUP3 ADD SWAP1 POP SWAP2 SWAP1 POP JUMP JUMPDEST PUSH1 0x0 PUSH3 0x385 PUSH1 0x1 DUP4 PUSH3 0x410 JUMP JUMPDEST SWAP2 POP PUSH3 0x392 DUP3 PUSH3 0x524 JUMP JUMPDEST PUSH1 0x1 DUP3 ADD SWAP1 POP SWAP2 SWAP1 POP JUMP JUMPDEST PUSH1 0x0 PUSH3 0x3AA DUP3 PUSH3 0x2DA JUMP JUMPDEST SWAP2 POP DUP2 SWAP1 POP SWAP2 SWAP1 POP JUMP JUMPDEST PUSH1 0x0 PUSH3 0x3C1 DUP3 PUSH3 0x301 JUMP JUMPDEST SWAP2 POP DUP2 SWAP1 POP SWAP2 SWAP1 POP JUMP JUMPDEST PUSH1 0x0 PUSH3 0x3D8 DUP3 PUSH3 0x328 JUMP JUMPDEST SWAP2 POP DUP2 SWAP1 POP SWAP2 SWAP1 POP JUMP JUMPDEST PUSH1 0x0 PUSH3 0x3EF DUP3 PUSH3 0x34F JUMP JUMPDEST SWAP2 POP DUP2 SWAP1 POP SWAP2 SWAP1 POP JUMP JUMPDEST PUSH1 0x0 PUSH3 0x406 DUP3 PUSH3 0x376 JUMP JUMPDEST SWAP2 POP DUP2 SWAP1 POP SWAP2 SWAP1 POP JUMP JUMPDEST PUSH1 0x0 DUP2 SWAP1 POP SWAP3 SWAP2 POP POP JUMP JUMPDEST PUSH1 0x0 PUSH1 0x2 DUP3 DIV SWAP1 POP PUSH1 0x1 DUP3 AND DUP1 PUSH3 0x434 JUMPI PUSH1 0x7F DUP3 AND SWAP2 POP JUMPDEST PUSH1 0x20 DUP3 LT DUP2 EQ ISZERO PUSH3 0x44B JUMPI PUSH3 0x44A PUSH3 0x451 JUMP JUMPDEST JUMPDEST POP SWAP2 SWAP1 POP JUMP JUMPDEST PUSH32 0x4E487B7100000000000000000000000000000000000000000000000000000000 PUSH1 0x0 MSTORE PUSH1 0x22 PUSH1 0x4 MSTORE PUSH1 0x24 PUSH1 0x0 REVERT JUMPDEST PUSH32 0x4D61726B00000000000000000000000000000000000000000000000000000000 PUSH1 0x0 DUP3 ADD MSTORE POP JUMP JUMPDEST PUSH32 0x546F79696E000000000000000000000000000000000000000000000000000000 PUSH1 0x0 DUP3 ADD MSTORE POP JUMP JUMPDEST PUSH32 0x4D696C6164000000000000000000000000000000000000000000000000000000 PUSH1 0x0 DUP3 ADD MSTORE POP JUMP JUMPDEST PUSH32 0x5461686572000000000000000000000000000000000000000000000000000000 PUSH1 0x0 DUP3 ADD MSTORE POP JUMP JUMPDEST PUSH32 0x5600000000000000000000000000000000000000000000000000000000000000 PUSH1 0x0 DUP3 ADD MSTORE POP JUMP JUMPDEST PUSH2 0x487 DUP1 PUSH3 0x55D PUSH1 0x0 CODECOPY PUSH1 0x0 RETURN INVALID PUSH1 0x80 PUSH1 0x40 MSTORE CALLVALUE DUP1 ISZERO PUSH2 0x10 JUMPI PUSH1 0x0 DUP1 REVERT JUMPDEST POP PUSH1 0x4 CALLDATASIZE LT PUSH2 0x36 JUMPI PUSH1 0x0 CALLDATALOAD PUSH1 0xE0 SHR DUP1 PUSH4 0x822FBF58 EQ PUSH2 0x3B JUMPI DUP1 PUSH4 0x893D20E8 EQ PUSH2 0x6B JUMPI JUMPDEST PUSH1 0x0 DUP1 REVERT JUMPDEST PUSH2 0x55 PUSH1 0x4 DUP1 CALLDATASIZE SUB DUP2 ADD SWAP1 PUSH2 0x50 SWAP2 SWAP1 PUSH2 0x1B7 JUMP JUMPDEST PUSH2 0x89 JUMP JUMPDEST PUSH1 0x40 MLOAD PUSH2 0x62 SWAP2 SWAP1 PUSH2 0x263 JUMP JUMPDEST PUSH1 0x40 MLOAD DUP1 SWAP2 SUB SWAP1 RETURN JUMPDEST PUSH2 0x73 PUSH2 0x13F JUMP JUMPDEST PUSH1 0x40 MLOAD PUSH2 0x80 SWAP2 SWAP1 PUSH2 0x248 JUMP JUMPDEST PUSH1 0x40 MLOAD DUP1 SWAP2 SUB SWAP1 RETURN JUMPDEST PUSH1 0x0 DUP2 DUP1 MLOAD PUSH1 0x20 DUP2 ADD DUP3 ADD DUP1 MLOAD DUP5 DUP3 MSTORE PUSH1 0x20 DUP4 ADD PUSH1 0x20 DUP6 ADD KECCAK256 DUP2 DUP4 MSTORE DUP1 SWAP6 POP POP POP POP POP POP PUSH1 0x0 SWAP2 POP SWAP1 POP DUP1 SLOAD PUSH2 0xBE SWAP1 PUSH2 0x36B JUMP JUMPDEST DUP1 PUSH1 0x1F ADD PUSH1 0x20 DUP1 SWAP2 DIV MUL PUSH1 0x20 ADD PUSH1 0x40 MLOAD SWAP1 DUP2 ADD PUSH1 0x40 MSTORE DUP1 SWAP3 SWAP2 SWAP1 DUP2 DUP2 MSTORE PUSH1 0x20 ADD DUP3 DUP1 SLOAD PUSH2 0xEA SWAP1 PUSH2 0x36B JUMP JUMPDEST DUP1 ISZERO PUSH2 0x137 JUMPI DUP1 PUSH1 0x1F LT PUSH2 0x10C JUMPI PUSH2 0x100 DUP1 DUP4 SLOAD DIV MUL DUP4 MSTORE SWAP2 PUSH1 0x20 ADD SWAP2 PUSH2 0x137 JUMP JUMPDEST DUP3 ADD SWAP2 SWAP1 PUSH1 0x0 MSTORE PUSH1 0x20 PUSH1 0x0 KECCAK256 SWAP1 JUMPDEST DUP2 SLOAD DUP2 MSTORE SWAP1 PUSH1 0x1 ADD SWAP1 PUSH1 0x20 ADD DUP1 DUP4 GT PUSH2 0x11A JUMPI DUP3 SWAP1 SUB PUSH1 0x1F AND DUP3 ADD SWAP2 JUMPDEST POP POP POP POP POP DUP2 JUMP JUMPDEST PUSH1 0x0 CALLER SWAP1 POP SWAP1 JUMP JUMPDEST PUSH1 0x0 PUSH2 0x15A PUSH2 0x155 DUP5 PUSH2 0x2AA JUMP JUMPDEST PUSH2 0x285 JUMP JUMPDEST SWAP1 POP DUP3 DUP2 MSTORE PUSH1 0x20 DUP2 ADD DUP5 DUP5 DUP5 ADD GT ISZERO PUSH2 0x176 JUMPI PUSH2 0x175 PUSH2 0x431 JUMP JUMPDEST JUMPDEST PUSH2 0x181 DUP5 DUP3 DUP6 PUSH2 0x329 JUMP JUMPDEST POP SWAP4 SWAP3 POP POP POP JUMP JUMPDEST PUSH1 0x0 DUP3 PUSH1 0x1F DUP4 ADD SLT PUSH2 0x19E JUMPI PUSH2 0x19D PUSH2 0x42C JUMP JUMPDEST JUMPDEST DUP2 CALLDATALOAD PUSH2 0x1AE DUP5 DUP3 PUSH1 0x20 DUP7 ADD PUSH2 0x147 JUMP JUMPDEST SWAP2 POP POP SWAP3 SWAP2 POP POP JUMP JUMPDEST PUSH1 0x0 PUSH1 0x20 DUP3 DUP5 SUB SLT ISZERO PUSH2 0x1CD JUMPI PUSH2 0x1CC PUSH2 0x43B JUMP JUMPDEST JUMPDEST PUSH1 0x0 DUP3 ADD CALLDATALOAD PUSH8 0xFFFFFFFFFFFFFFFF DUP2 GT ISZERO PUSH2 0x1EB JUMPI PUSH2 0x1EA PUSH2 0x436 JUMP JUMPDEST JUMPDEST PUSH2 0x1F7 DUP5 DUP3 DUP6 ADD PUSH2 0x189 JUMP JUMPDEST SWAP2 POP POP SWAP3 SWAP2 POP POP JUMP JUMPDEST PUSH2 0x209 DUP2 PUSH2 0x2F7 JUMP JUMPDEST DUP3 MSTORE POP POP JUMP JUMPDEST PUSH1 0x0 PUSH2 0x21A DUP3 PUSH2 0x2DB JUMP JUMPDEST PUSH2 0x224 DUP2 DUP6 PUSH2 0x2E6 JUMP JUMPDEST SWAP4 POP PUSH2 0x234 DUP2 DUP6 PUSH1 0x20 DUP7 ADD PUSH2 0x338 JUMP JUMPDEST PUSH2 0x23D DUP2 PUSH2 0x440 JUMP JUMPDEST DUP5 ADD SWAP2 POP POP SWAP3 SWAP2 POP POP JUMP JUMPDEST PUSH1 0x0 PUSH1 0x20 DUP3 ADD SWAP1 POP PUSH2 0x25D PUSH1 0x0 DUP4 ADD DUP5 PUSH2 0x200 JUMP JUMPDEST SWAP3 SWAP2 POP POP JUMP JUMPDEST PUSH1 0x0 PUSH1 0x20 DUP3 ADD SWAP1 POP DUP2 DUP2 SUB PUSH1 0x0 DUP4 ADD MSTORE PUSH2 0x27D DUP2 DUP5 PUSH2 0x20F JUMP JUMPDEST SWAP1 POP SWAP3 SWAP2 POP POP JUMP JUMPDEST PUSH1 0x0 PUSH2 0x28F PUSH2 0x2A0 JUMP JUMPDEST SWAP1 POP PUSH2 0x29B DUP3 DUP3 PUSH2 0x39D JUMP JUMPDEST SWAP2 SWAP1 POP JUMP JUMPDEST PUSH1 0x0 PUSH1 0x40 MLOAD SWAP1 POP SWAP1 JUMP JUMPDEST PUSH1 0x0 PUSH8 0xFFFFFFFFFFFFFFFF DUP3 GT ISZERO PUSH2 0x2C5 JUMPI PUSH2 0x2C4 PUSH2 0x3FD JUMP JUMPDEST JUMPDEST PUSH2 0x2CE DUP3 PUSH2 0x440 JUMP JUMPDEST SWAP1 POP PUSH1 0x20 DUP2 ADD SWAP1 POP SWAP2 SWAP1 POP JUMP JUMPDEST PUSH1 0x0 DUP2 MLOAD SWAP1 POP SWAP2 SWAP1 POP JUMP JUMPDEST PUSH1 0x0 DUP3 DUP3 MSTORE PUSH1 0x20 DUP3 ADD SWAP1 POP SWAP3 SWAP2 POP POP JUMP JUMPDEST PUSH1 0x0 PUSH2 0x302 DUP3 PUSH2 0x309 JUMP JUMPDEST SWAP1 POP SWAP2 SWAP1 POP JUMP JUMPDEST PUSH1 0x0 PUSH20 0xFFFFFFFFFFFFFFFFFFFFFFFFFFFFFFFFFFFFFFFF DUP3 AND SWAP1 POP SWAP2 SWAP1 POP JUMP JUMPDEST DUP3 DUP2 DUP4 CALLDATACOPY PUSH1 0x0 DUP4 DUP4 ADD MSTORE POP POP POP JUMP JUMPDEST PUSH1 0x0 JUMPDEST DUP4 DUP2 LT ISZERO PUSH2 0x356 JUMPI DUP1 DUP3 ADD MLOAD DUP2 DUP5 ADD MSTORE PUSH1 0x20 DUP2 ADD SWAP1 POP PUSH2 0x33B JUMP JUMPDEST DUP4 DUP2 GT ISZERO PUSH2 0x365 JUMPI PUSH1 0x0 DUP5 DUP5 ADD MSTORE JUMPDEST POP POP POP POP JUMP JUMPDEST PUSH1 0x0 PUSH1 0x2 DUP3 DIV SWAP1 POP PUSH1 0x1 DUP3 AND DUP1 PUSH2 0x383 JUMPI PUSH1 0x7F DUP3 AND SWAP2 POP JUMPDEST PUSH1 0x20 DUP3 LT DUP2 EQ ISZERO PUSH2 0x397 JUMPI PUSH2 0x396 PUSH2 0x3CE JUMP JUMPDEST JUMPDEST POP SWAP2 SWAP1 POP JUMP JUMPDEST PUSH2 0x3A6 DUP3 PUSH2 0x440 JUMP JUMPDEST DUP2 ADD DUP2 DUP2 LT PUSH8 0xFFFFFFFFFFFFFFFF DUP3 GT OR ISZERO PUSH2 0x3C5 JUMPI PUSH2 0x3C4 PUSH2 0x3FD JUMP JUMPDEST JUMPDEST DUP1 PUSH1 0x40 MSTORE POP POP POP JUMP JUMPDEST PUSH32 0x4E487B7100000000000000000000000000000000000000000000000000000000 PUSH1 0x0 MSTORE PUSH1 0x22 PUSH1 0x4 MSTORE PUSH1 0x24 PUSH1 0x0 REVERT JUMPDEST PUSH32 0x4E487B7100000000000000000000000000000000000000000000000000000000 PUSH1 0x0 MSTORE PUSH1 0x41 PUSH1 0x4 MSTORE PUSH1 0x24 PUSH1 0x0 REVERT JUMPDEST PUSH1 0x0 DUP1 REVERT JUMPDEST PUSH1 0x0 DUP1 REVERT JUMPDEST PUSH1 0x0 DUP1 REVERT JUMPDEST PUSH1 0x0 DUP1 REVERT JUMPDEST PUSH1 0x0 PUSH1 0x1F NOT PUSH1 0x1F DUP4 ADD AND SWAP1 POP SWAP2 SWAP1 POP JUMP INVALID LOG2 PUSH5 0x6970667358 0x22 SLT KECCAK256 PUSH12 0xEEC781F951D45AEDEE53EA39 0xDA 0x4C SHR DIV 0xDF SDIV ORIGIN 0xDA PUSH28 0x39EC452A44F466D8403364736F6C6343000807003300000000000000 "
				},
				"gasEstimates": {
					"creation": {
						"codeDepositCost": "231800",
						"executionCost": "infinite",
						"totalCost": "infinite"
					},
					"external": {
						"getOwner()": "385",
						"names(string)": "infinite"
					}
				},
				"methodIdentifiers": {
					"getOwner()": "893d20e8",
					"names(string)": "822fbf58"
				}
			},
			"storageLayout": {
				"storage": [
					{
						"astId": 5,
						"contract": "contracts/mappings.sol:MappingsSample",
						"label": "names",
						"offset": 0,
						"slot": "0",
						"type": "t_mapping(t_string_memory_ptr,t_string_storage)"
					}
				],
				"types": {
					"t_mapping(t_string_memory_ptr,t_string_storage)": {
						"encoding": "mapping",
						"key": "t_string_memory_ptr",
						"label": "mapping(string => string)",
						"numberOfBytes": "32",
						"value": "t_string_storage"
					},
					"t_string_memory_ptr": {
						"encoding": "bytes",
						"label": "string",
						"numberOfBytes": "32"
					},
					"t_string_storage": {
						"encoding": "bytes",
						"label": "string",
						"numberOfBytes": "32"
					}
				}
			},
			"userdoc": {
				"kind": "user",
				"methods": {},
				"version": 1
			}
		}
	}
}