{
	"contracts/mappings.sol": {
		"MappingsSample": {
			"abi": [
				{
					"inputs": [],
					"stateMutability": "nonpayable",
					"type": "constructor"
				},
				{
					"inputs": [],
					"name": "getOwner",
					"outputs": [
						{
							"internalType": "address",
							"name": "",
							"type": "address"
						}
					],
					"stateMutability": "view",
					"type": "function"
				},
				{
					"inputs": [
						{
							"internalType": "address",
							"name": "",
							"type": "address"
						},
						{
							"internalType": "uint256",
							"name": "",
							"type": "uint256"
						}
					],
					"name": "names",
					"outputs": [
						{
							"internalType": "string",
							"name": "",
							"type": "string"
						}
					],
					"stateMutability": "view",
					"type": "function"
				}
			],
			"devdoc": {
				"kind": "dev",
				"methods": {},
				"version": 1
			},
			"evm": {
				"assembly": "    /* \"contracts/mappings.sol\":64:648  contract MappingsSample{\r... */\n  mstore(0x40, 0x80)\n    /* \"contracts/mappings.sol\":273:314  constructor() public{\r... */\n  callvalue\n  dup1\n  iszero\n  tag_1\n  jumpi\n  0x00\n  dup1\n  revert\ntag_1:\n  pop\n    /* \"contracts/mappings.sol\":64:648  contract MappingsSample{\r... */\n  dataSize(sub_0)\n  dup1\n  dataOffset(sub_0)\n  0x00\n  codecopy\n  0x00\n  return\nstop\n\nsub_0: assembly {\n        /* \"contracts/mappings.sol\":64:648  contract MappingsSample{\r... */\n      mstore(0x40, 0x80)\n      callvalue\n      dup1\n      iszero\n      tag_1\n      jumpi\n      0x00\n      dup1\n      revert\n    tag_1:\n      pop\n      jumpi(tag_2, lt(calldatasize, 0x04))\n      shr(0xe0, calldataload(0x00))\n      dup1\n      0x893d20e8\n      eq\n      tag_3\n      jumpi\n      dup1\n      0xb914d7ab\n      eq\n      tag_4\n      jumpi\n    tag_2:\n      0x00\n      dup1\n      revert\n        /* \"contracts/mappings.sol\":537:641  function getOwner()\r... */\n    tag_3:\n      tag_5\n      tag_6\n      jump\t// in\n    tag_5:\n      mload(0x40)\n      tag_7\n      swap2\n      swap1\n      tag_8\n      jump\t// in\n    tag_7:\n      mload(0x40)\n      dup1\n      swap2\n      sub\n      swap1\n      return\n        /* \"contracts/mappings.sol\":223:264  mapping(address => string[]) public names */\n    tag_4:\n      tag_9\n      0x04\n      dup1\n      calldatasize\n      sub\n      dup2\n      add\n      swap1\n      tag_10\n      swap2\n      swap1\n      tag_11\n      jump\t// in\n    tag_10:\n      tag_12\n      jump\t// in\n    tag_9:\n      mload(0x40)\n      tag_13\n      swap2\n      swap1\n      tag_14\n      jump\t// in\n    tag_13:\n      mload(0x40)\n      dup1\n      swap2\n      sub\n      swap1\n      return\n        /* \"contracts/mappings.sol\":537:641  function getOwner()\r... */\n    tag_6:\n        /* \"contracts/mappings.sol\":595:602  address */\n      0x00\n        /* \"contracts/mappings.sol\":622:632  msg.sender */\n      caller\n        /* \"contracts/mappings.sol\":615:632  return msg.sender */\n      swap1\n      pop\n        /* \"contracts/mappings.sol\":537:641  function getOwner()\r... */\n      swap1\n      jump\t// out\n        /* \"contracts/mappings.sol\":223:264  mapping(address => string[]) public names */\n    tag_12:\n      mstore(0x20, 0x00)\n      dup2\n      0x00\n      mstore\n      keccak256(0x00, 0x40)\n      dup2\n      dup2\n      sload\n      dup2\n      lt\n      tag_16\n      jumpi\n      0x00\n      dup1\n      revert\n    tag_16:\n      swap1\n      0x00\n      mstore\n      keccak256(0x00, 0x20)\n      add\n      0x00\n      swap2\n      pop\n      swap2\n      pop\n      pop\n      dup1\n      sload\n      tag_18\n      swap1\n      tag_19\n      jump\t// in\n    tag_18:\n      dup1\n      0x1f\n      add\n      0x20\n      dup1\n      swap2\n      div\n      mul\n      0x20\n      add\n      mload(0x40)\n      swap1\n      dup2\n      add\n      0x40\n      mstore\n      dup1\n      swap3\n      swap2\n      swap1\n      dup2\n      dup2\n      mstore\n      0x20\n      add\n      dup3\n      dup1\n      sload\n      tag_20\n      swap1\n      tag_19\n      jump\t// in\n    tag_20:\n      dup1\n      iszero\n      tag_21\n      jumpi\n      dup1\n      0x1f\n      lt\n      tag_22\n      jumpi\n      0x0100\n      dup1\n      dup4\n      sload\n      div\n      mul\n      dup4\n      mstore\n      swap2\n      0x20\n      add\n      swap2\n      jump(tag_21)\n    tag_22:\n      dup3\n      add\n      swap2\n      swap1\n      0x00\n      mstore\n      keccak256(0x00, 0x20)\n      swap1\n    tag_23:\n      dup2\n      sload\n      dup2\n      mstore\n      swap1\n      0x01\n      add\n      swap1\n      0x20\n      add\n      dup1\n      dup4\n      gt\n      tag_23\n      jumpi\n      dup3\n      swap1\n      sub\n      0x1f\n      and\n      dup3\n      add\n      swap2\n    tag_21:\n      pop\n      pop\n      pop\n      pop\n      pop\n      dup2\n      jump\t// out\n        /* \"#utility.yul\":7:146   */\n    tag_25:\n        /* \"#utility.yul\":53:58   */\n      0x00\n        /* \"#utility.yul\":91:97   */\n      dup2\n        /* \"#utility.yul\":78:98   */\n      calldataload\n        /* \"#utility.yul\":69:98   */\n      swap1\n      pop\n        /* \"#utility.yul\":107:140   */\n      tag_27\n        /* \"#utility.yul\":134:139   */\n      dup2\n        /* \"#utility.yul\":107:140   */\n      tag_28\n      jump\t// in\n    tag_27:\n        /* \"#utility.yul\":7:146   */\n      swap3\n      swap2\n      pop\n      pop\n      jump\t// out\n        /* \"#utility.yul\":152:291   */\n    tag_29:\n        /* \"#utility.yul\":198:203   */\n      0x00\n        /* \"#utility.yul\":236:242   */\n      dup2\n        /* \"#utility.yul\":223:243   */\n      calldataload\n        /* \"#utility.yul\":214:243   */\n      swap1\n      pop\n        /* \"#utility.yul\":252:285   */\n      tag_31\n        /* \"#utility.yul\":279:284   */\n      dup2\n        /* \"#utility.yul\":252:285   */\n      tag_32\n      jump\t// in\n    tag_31:\n        /* \"#utility.yul\":152:291   */\n      swap3\n      swap2\n      pop\n      pop\n      jump\t// out\n        /* \"#utility.yul\":297:771   */\n    tag_11:\n        /* \"#utility.yul\":365:371   */\n      0x00\n        /* \"#utility.yul\":373:379   */\n      dup1\n        /* \"#utility.yul\":422:424   */\n      0x40\n        /* \"#utility.yul\":410:419   */\n      dup4\n        /* \"#utility.yul\":401:408   */\n      dup6\n        /* \"#utility.yul\":397:420   */\n      sub\n        /* \"#utility.yul\":393:425   */\n      slt\n        /* \"#utility.yul\":390:509   */\n      iszero\n      tag_34\n      jumpi\n        /* \"#utility.yul\":428:507   */\n      tag_35\n      tag_36\n      jump\t// in\n    tag_35:\n        /* \"#utility.yul\":390:509   */\n    tag_34:\n        /* \"#utility.yul\":548:549   */\n      0x00\n        /* \"#utility.yul\":573:626   */\n      tag_37\n        /* \"#utility.yul\":618:625   */\n      dup6\n        /* \"#utility.yul\":609:615   */\n      dup3\n        /* \"#utility.yul\":598:607   */\n      dup7\n        /* \"#utility.yul\":594:616   */\n      add\n        /* \"#utility.yul\":573:626   */\n      tag_25\n      jump\t// in\n    tag_37:\n        /* \"#utility.yul\":563:626   */\n      swap3\n      pop\n        /* \"#utility.yul\":519:636   */\n      pop\n        /* \"#utility.yul\":675:677   */\n      0x20\n        /* \"#utility.yul\":701:754   */\n      tag_38\n        /* \"#utility.yul\":746:753   */\n      dup6\n        /* \"#utility.yul\":737:743   */\n      dup3\n        /* \"#utility.yul\":726:735   */\n      dup7\n        /* \"#utility.yul\":722:744   */\n      add\n        /* \"#utility.yul\":701:754   */\n      tag_29\n      jump\t// in\n    tag_38:\n        /* \"#utility.yul\":691:754   */\n      swap2\n      pop\n        /* \"#utility.yul\":646:764   */\n      pop\n        /* \"#utility.yul\":297:771   */\n      swap3\n      pop\n      swap3\n      swap1\n      pop\n      jump\t// out\n        /* \"#utility.yul\":777:895   */\n    tag_39:\n        /* \"#utility.yul\":864:888   */\n      tag_41\n        /* \"#utility.yul\":882:887   */\n      dup2\n        /* \"#utility.yul\":864:888   */\n      tag_42\n      jump\t// in\n    tag_41:\n        /* \"#utility.yul\":859:862   */\n      dup3\n        /* \"#utility.yul\":852:889   */\n      mstore\n        /* \"#utility.yul\":777:895   */\n      pop\n      pop\n      jump\t// out\n        /* \"#utility.yul\":901:1265   */\n    tag_43:\n        /* \"#utility.yul\":989:992   */\n      0x00\n        /* \"#utility.yul\":1017:1056   */\n      tag_45\n        /* \"#utility.yul\":1050:1055   */\n      dup3\n        /* \"#utility.yul\":1017:1056   */\n      tag_46\n      jump\t// in\n    tag_45:\n        /* \"#utility.yul\":1072:1143   */\n      tag_47\n        /* \"#utility.yul\":1136:1142   */\n      dup2\n        /* \"#utility.yul\":1131:1134   */\n      dup6\n        /* \"#utility.yul\":1072:1143   */\n      tag_48\n      jump\t// in\n    tag_47:\n        /* \"#utility.yul\":1065:1143   */\n      swap4\n      pop\n        /* \"#utility.yul\":1152:1204   */\n      tag_49\n        /* \"#utility.yul\":1197:1203   */\n      dup2\n        /* \"#utility.yul\":1192:1195   */\n      dup6\n        /* \"#utility.yul\":1185:1189   */\n      0x20\n        /* \"#utility.yul\":1178:1183   */\n      dup7\n        /* \"#utility.yul\":1174:1190   */\n      add\n        /* \"#utility.yul\":1152:1204   */\n      tag_50\n      jump\t// in\n    tag_49:\n        /* \"#utility.yul\":1229:1258   */\n      tag_51\n        /* \"#utility.yul\":1251:1257   */\n      dup2\n        /* \"#utility.yul\":1229:1258   */\n      tag_52\n      jump\t// in\n    tag_51:\n        /* \"#utility.yul\":1224:1227   */\n      dup5\n        /* \"#utility.yul\":1220:1259   */\n      add\n        /* \"#utility.yul\":1213:1259   */\n      swap2\n      pop\n        /* \"#utility.yul\":993:1265   */\n      pop\n        /* \"#utility.yul\":901:1265   */\n      swap3\n      swap2\n      pop\n      pop\n      jump\t// out\n        /* \"#utility.yul\":1271:1493   */\n    tag_8:\n        /* \"#utility.yul\":1364:1368   */\n      0x00\n        /* \"#utility.yul\":1402:1404   */\n      0x20\n        /* \"#utility.yul\":1391:1400   */\n      dup3\n        /* \"#utility.yul\":1387:1405   */\n      add\n        /* \"#utility.yul\":1379:1405   */\n      swap1\n      pop\n        /* \"#utility.yul\":1415:1486   */\n      tag_54\n        /* \"#utility.yul\":1483:1484   */\n      0x00\n        /* \"#utility.yul\":1472:1481   */\n      dup4\n        /* \"#utility.yul\":1468:1485   */\n      add\n        /* \"#utility.yul\":1459:1465   */\n      dup5\n        /* \"#utility.yul\":1415:1486   */\n      tag_39\n      jump\t// in\n    tag_54:\n        /* \"#utility.yul\":1271:1493   */\n      swap3\n      swap2\n      pop\n      pop\n      jump\t// out\n        /* \"#utility.yul\":1499:1812   */\n    tag_14:\n        /* \"#utility.yul\":1612:1616   */\n      0x00\n        /* \"#utility.yul\":1650:1652   */\n      0x20\n        /* \"#utility.yul\":1639:1648   */\n      dup3\n        /* \"#utility.yul\":1635:1653   */\n      add\n        /* \"#utility.yul\":1627:1653   */\n      swap1\n      pop\n        /* \"#utility.yul\":1699:1708   */\n      dup2\n        /* \"#utility.yul\":1693:1697   */\n      dup2\n        /* \"#utility.yul\":1689:1709   */\n      sub\n        /* \"#utility.yul\":1685:1686   */\n      0x00\n        /* \"#utility.yul\":1674:1683   */\n      dup4\n        /* \"#utility.yul\":1670:1687   */\n      add\n        /* \"#utility.yul\":1663:1710   */\n      mstore\n        /* \"#utility.yul\":1727:1805   */\n      tag_56\n        /* \"#utility.yul\":1800:1804   */\n      dup2\n        /* \"#utility.yul\":1791:1797   */\n      dup5\n        /* \"#utility.yul\":1727:1805   */\n      tag_43\n      jump\t// in\n    tag_56:\n        /* \"#utility.yul\":1719:1805   */\n      swap1\n      pop\n        /* \"#utility.yul\":1499:1812   */\n      swap3\n      swap2\n      pop\n      pop\n      jump\t// out\n        /* \"#utility.yul\":1899:1998   */\n    tag_46:\n        /* \"#utility.yul\":1951:1957   */\n      0x00\n        /* \"#utility.yul\":1985:1990   */\n      dup2\n        /* \"#utility.yul\":1979:1991   */\n      mload\n        /* \"#utility.yul\":1969:1991   */\n      swap1\n      pop\n        /* \"#utility.yul\":1899:1998   */\n      swap2\n      swap1\n      pop\n      jump\t// out\n        /* \"#utility.yul\":2004:2173   */\n    tag_48:\n        /* \"#utility.yul\":2088:2099   */\n      0x00\n        /* \"#utility.yul\":2122:2128   */\n      dup3\n        /* \"#utility.yul\":2117:2120   */\n      dup3\n        /* \"#utility.yul\":2110:2129   */\n      mstore\n        /* \"#utility.yul\":2162:2166   */\n      0x20\n        /* \"#utility.yul\":2157:2160   */\n      dup3\n        /* \"#utility.yul\":2153:2167   */\n      add\n        /* \"#utility.yul\":2138:2167   */\n      swap1\n      pop\n        /* \"#utility.yul\":2004:2173   */\n      swap3\n      swap2\n      pop\n      pop\n      jump\t// out\n        /* \"#utility.yul\":2179:2275   */\n    tag_42:\n        /* \"#utility.yul\":2216:2223   */\n      0x00\n        /* \"#utility.yul\":2245:2269   */\n      tag_62\n        /* \"#utility.yul\":2263:2268   */\n      dup3\n        /* \"#utility.yul\":2245:2269   */\n      tag_63\n      jump\t// in\n    tag_62:\n        /* \"#utility.yul\":2234:2269   */\n      swap1\n      pop\n        /* \"#utility.yul\":2179:2275   */\n      swap2\n      swap1\n      pop\n      jump\t// out\n        /* \"#utility.yul\":2281:2407   */\n    tag_63:\n        /* \"#utility.yul\":2318:2325   */\n      0x00\n        /* \"#utility.yul\":2358:2400   */\n      0xffffffffffffffffffffffffffffffffffffffff\n        /* \"#utility.yul\":2351:2356   */\n      dup3\n        /* \"#utility.yul\":2347:2401   */\n      and\n        /* \"#utility.yul\":2336:2401   */\n      swap1\n      pop\n        /* \"#utility.yul\":2281:2407   */\n      swap2\n      swap1\n      pop\n      jump\t// out\n        /* \"#utility.yul\":2413:2490   */\n    tag_65:\n        /* \"#utility.yul\":2450:2457   */\n      0x00\n        /* \"#utility.yul\":2479:2484   */\n      dup2\n        /* \"#utility.yul\":2468:2484   */\n      swap1\n      pop\n        /* \"#utility.yul\":2413:2490   */\n      swap2\n      swap1\n      pop\n      jump\t// out\n        /* \"#utility.yul\":2496:2803   */\n    tag_50:\n        /* \"#utility.yul\":2564:2565   */\n      0x00\n        /* \"#utility.yul\":2574:2687   */\n    tag_68:\n        /* \"#utility.yul\":2588:2594   */\n      dup4\n        /* \"#utility.yul\":2585:2586   */\n      dup2\n        /* \"#utility.yul\":2582:2595   */\n      lt\n        /* \"#utility.yul\":2574:2687   */\n      iszero\n      tag_70\n      jumpi\n        /* \"#utility.yul\":2673:2674   */\n      dup1\n        /* \"#utility.yul\":2668:2671   */\n      dup3\n        /* \"#utility.yul\":2664:2675   */\n      add\n        /* \"#utility.yul\":2658:2676   */\n      mload\n        /* \"#utility.yul\":2654:2655   */\n      dup2\n        /* \"#utility.yul\":2649:2652   */\n      dup5\n        /* \"#utility.yul\":2645:2656   */\n      add\n        /* \"#utility.yul\":2638:2677   */\n      mstore\n        /* \"#utility.yul\":2610:2612   */\n      0x20\n        /* \"#utility.yul\":2607:2608   */\n      dup2\n        /* \"#utility.yul\":2603:2613   */\n      add\n        /* \"#utility.yul\":2598:2613   */\n      swap1\n      pop\n        /* \"#utility.yul\":2574:2687   */\n      jump(tag_68)\n    tag_70:\n        /* \"#utility.yul\":2705:2711   */\n      dup4\n        /* \"#utility.yul\":2702:2703   */\n      dup2\n        /* \"#utility.yul\":2699:2712   */\n      gt\n        /* \"#utility.yul\":2696:2797   */\n      iszero\n      tag_71\n      jumpi\n        /* \"#utility.yul\":2785:2786   */\n      0x00\n        /* \"#utility.yul\":2776:2782   */\n      dup5\n        /* \"#utility.yul\":2771:2774   */\n      dup5\n        /* \"#utility.yul\":2767:2783   */\n      add\n        /* \"#utility.yul\":2760:2787   */\n      mstore\n        /* \"#utility.yul\":2696:2797   */\n    tag_71:\n        /* \"#utility.yul\":2545:2803   */\n      pop\n        /* \"#utility.yul\":2496:2803   */\n      pop\n      pop\n      pop\n      jump\t// out\n        /* \"#utility.yul\":2809:3129   */\n    tag_19:\n        /* \"#utility.yul\":2853:2859   */\n      0x00\n        /* \"#utility.yul\":2890:2891   */\n      0x02\n        /* \"#utility.yul\":2884:2888   */\n      dup3\n        /* \"#utility.yul\":2880:2892   */\n      div\n        /* \"#utility.yul\":2870:2892   */\n      swap1\n      pop\n        /* \"#utility.yul\":2937:2938   */\n      0x01\n        /* \"#utility.yul\":2931:2935   */\n      dup3\n        /* \"#utility.yul\":2927:2939   */\n      and\n        /* \"#utility.yul\":2958:2976   */\n      dup1\n        /* \"#utility.yul\":2948:3029   */\n      tag_73\n      jumpi\n        /* \"#utility.yul\":3014:3018   */\n      0x7f\n        /* \"#utility.yul\":3006:3012   */\n      dup3\n        /* \"#utility.yul\":3002:3019   */\n      and\n        /* \"#utility.yul\":2992:3019   */\n      swap2\n      pop\n        /* \"#utility.yul\":2948:3029   */\n    tag_73:\n        /* \"#utility.yul\":3076:3078   */\n      0x20\n        /* \"#utility.yul\":3068:3074   */\n      dup3\n        /* \"#utility.yul\":3065:3079   */\n      lt\n        /* \"#utility.yul\":3045:3063   */\n      dup2\n        /* \"#utility.yul\":3042:3080   */\n      eq\n        /* \"#utility.yul\":3039:3123   */\n      iszero\n      tag_74\n      jumpi\n        /* \"#utility.yul\":3095:3113   */\n      tag_75\n      tag_76\n      jump\t// in\n    tag_75:\n        /* \"#utility.yul\":3039:3123   */\n    tag_74:\n        /* \"#utility.yul\":2860:3129   */\n      pop\n        /* \"#utility.yul\":2809:3129   */\n      swap2\n      swap1\n      pop\n      jump\t// out\n        /* \"#utility.yul\":3135:3315   */\n    tag_76:\n        /* \"#utility.yul\":3183:3260   */\n      0x4e487b7100000000000000000000000000000000000000000000000000000000\n        /* \"#utility.yul\":3180:3181   */\n      0x00\n        /* \"#utility.yul\":3173:3261   */\n      mstore\n        /* \"#utility.yul\":3280:3284   */\n      0x22\n        /* \"#utility.yul\":3277:3278   */\n      0x04\n        /* \"#utility.yul\":3270:3285   */\n      mstore\n        /* \"#utility.yul\":3304:3308   */\n      0x24\n        /* \"#utility.yul\":3301:3302   */\n      0x00\n        /* \"#utility.yul\":3294:3309   */\n      revert\n        /* \"#utility.yul\":3444:3561   */\n    tag_36:\n        /* \"#utility.yul\":3553:3554   */\n      0x00\n        /* \"#utility.yul\":3550:3551   */\n      dup1\n        /* \"#utility.yul\":3543:3555   */\n      revert\n        /* \"#utility.yul\":3567:3669   */\n    tag_52:\n        /* \"#utility.yul\":3608:3614   */\n      0x00\n        /* \"#utility.yul\":3659:3661   */\n      0x1f\n        /* \"#utility.yul\":3655:3662   */\n      not\n        /* \"#utility.yul\":3650:3652   */\n      0x1f\n        /* \"#utility.yul\":3643:3648   */\n      dup4\n        /* \"#utility.yul\":3639:3653   */\n      add\n        /* \"#utility.yul\":3635:3663   */\n      and\n        /* \"#utility.yul\":3625:3663   */\n      swap1\n      pop\n        /* \"#utility.yul\":3567:3669   */\n      swap2\n      swap1\n      pop\n      jump\t// out\n        /* \"#utility.yul\":3675:3797   */\n    tag_28:\n        /* \"#utility.yul\":3748:3772   */\n      tag_83\n        /* \"#utility.yul\":3766:3771   */\n      dup2\n        /* \"#utility.yul\":3748:3772   */\n      tag_42\n      jump\t// in\n    tag_83:\n        /* \"#utility.yul\":3741:3746   */\n      dup2\n        /* \"#utility.yul\":3738:3773   */\n      eq\n        /* \"#utility.yul\":3728:3791   */\n      tag_84\n      jumpi\n        /* \"#utility.yul\":3787:3788   */\n      0x00\n        /* \"#utility.yul\":3784:3785   */\n      dup1\n        /* \"#utility.yul\":3777:3789   */\n      revert\n        /* \"#utility.yul\":3728:3791   */\n    tag_84:\n        /* \"#utility.yul\":3675:3797   */\n      pop\n      jump\t// out\n        /* \"#utility.yul\":3803:3925   */\n    tag_32:\n        /* \"#utility.yul\":3876:3900   */\n      tag_86\n        /* \"#utility.yul\":3894:3899   */\n      dup2\n        /* \"#utility.yul\":3876:3900   */\n      tag_65\n      jump\t// in\n    tag_86:\n        /* \"#utility.yul\":3869:3874   */\n      dup2\n        /* \"#utility.yul\":3866:3901   */\n      eq\n        /* \"#utility.yul\":3856:3919   */\n      tag_87\n      jumpi\n        /* \"#utility.yul\":3915:3916   */\n      0x00\n        /* \"#utility.yul\":3912:3913   */\n      dup1\n        /* \"#utility.yul\":3905:3917   */\n      revert\n        /* \"#utility.yul\":3856:3919   */\n    tag_87:\n        /* \"#utility.yul\":3803:3925   */\n      pop\n      jump\t// out\n\n    auxdata: 0xa2646970667358221220b2c1f9f17d9e40e312263e49ac1cf5a79a76c6ab6bbeec452207d95450b80a5964736f6c63430008070033\n}\n",
				"bytecode": {
					"linkReferences": {},
					"object": "608060405234801561001057600080fd5b5061039f806100206000396000f3fe608060405234801561001057600080fd5b50600436106100365760003560e01c8063893d20e81461003b578063b914d7ab14610059575b600080fd5b610043610089565b60405161005091906101fc565b60405180910390f35b610073600480360381019061006e9190610174565b610091565b6040516100809190610217565b60405180910390f35b600033905090565b600060205281600052604060002081815481106100ad57600080fd5b906000526020600020016000915091505080546100c9906102c4565b80601f01602080910402602001604051908101604052809291908181526020018280546100f5906102c4565b80156101425780601f1061011757610100808354040283529160200191610142565b820191906000526020600020905b81548152906001019060200180831161012557829003601f168201915b505050505081565b6000813590506101598161033b565b92915050565b60008135905061016e81610352565b92915050565b6000806040838503121561018b5761018a610325565b5b60006101998582860161014a565b92505060206101aa8582860161015f565b9150509250929050565b6101bd81610255565b82525050565b60006101ce82610239565b6101d88185610244565b93506101e8818560208601610291565b6101f18161032a565b840191505092915050565b600060208201905061021160008301846101b4565b92915050565b6000602082019050818103600083015261023181846101c3565b905092915050565b600081519050919050565b600082825260208201905092915050565b600061026082610267565b9050919050565b600073ffffffffffffffffffffffffffffffffffffffff82169050919050565b6000819050919050565b60005b838110156102af578082015181840152602081019050610294565b838111156102be576000848401525b50505050565b600060028204905060018216806102dc57607f821691505b602082108114156102f0576102ef6102f6565b5b50919050565b7f4e487b7100000000000000000000000000000000000000000000000000000000600052602260045260246000fd5b600080fd5b6000601f19601f8301169050919050565b61034481610255565b811461034f57600080fd5b50565b61035b81610287565b811461036657600080fd5b5056fea2646970667358221220b2c1f9f17d9e40e312263e49ac1cf5a79a76c6ab6bbeec452207d95450b80a5964736f6c63430008070033",
					"opcodes": "PUSH1 0x80 PUSH1 0x40 MSTORE CALLVALUE DUP1 ISZERO PUSH2 0x10 JUMPI PUSH1 0x0 DUP1 REVERT JUMPDEST POP PUSH2 0x39F DUP1 PUSH2 0x20 PUSH1 0x0 CODECOPY PUSH1 0x0 RETURN INVALID PUSH1 0x80 PUSH1 0x40 MSTORE CALLVALUE DUP1 ISZERO PUSH2 0x10 JUMPI PUSH1 0x0 DUP1 REVERT JUMPDEST POP PUSH1 0x4 CALLDATASIZE LT PUSH2 0x36 JUMPI PUSH1 0x0 CALLDATALOAD PUSH1 0xE0 SHR DUP1 PUSH4 0x893D20E8 EQ PUSH2 0x3B JUMPI DUP1 PUSH4 0xB914D7AB EQ PUSH2 0x59 JUMPI JUMPDEST PUSH1 0x0 DUP1 REVERT JUMPDEST PUSH2 0x43 PUSH2 0x89 JUMP JUMPDEST PUSH1 0x40 MLOAD PUSH2 0x50 SWAP2 SWAP1 PUSH2 0x1FC JUMP JUMPDEST PUSH1 0x40 MLOAD DUP1 SWAP2 SUB SWAP1 RETURN JUMPDEST PUSH2 0x73 PUSH1 0x4 DUP1 CALLDATASIZE SUB DUP2 ADD SWAP1 PUSH2 0x6E SWAP2 SWAP1 PUSH2 0x174 JUMP JUMPDEST PUSH2 0x91 JUMP JUMPDEST PUSH1 0x40 MLOAD PUSH2 0x80 SWAP2 SWAP1 PUSH2 0x217 JUMP JUMPDEST PUSH1 0x40 MLOAD DUP1 SWAP2 SUB SWAP1 RETURN JUMPDEST PUSH1 0x0 CALLER SWAP1 POP SWAP1 JUMP JUMPDEST PUSH1 0x0 PUSH1 0x20 MSTORE DUP2 PUSH1 0x0 MSTORE PUSH1 0x40 PUSH1 0x0 KECCAK256 DUP2 DUP2 SLOAD DUP2 LT PUSH2 0xAD JUMPI PUSH1 0x0 DUP1 REVERT JUMPDEST SWAP1 PUSH1 0x0 MSTORE PUSH1 0x20 PUSH1 0x0 KECCAK256 ADD PUSH1 0x0 SWAP2 POP SWAP2 POP POP DUP1 SLOAD PUSH2 0xC9 SWAP1 PUSH2 0x2C4 JUMP JUMPDEST DUP1 PUSH1 0x1F ADD PUSH1 0x20 DUP1 SWAP2 DIV MUL PUSH1 0x20 ADD PUSH1 0x40 MLOAD SWAP1 DUP2 ADD PUSH1 0x40 MSTORE DUP1 SWAP3 SWAP2 SWAP1 DUP2 DUP2 MSTORE PUSH1 0x20 ADD DUP3 DUP1 SLOAD PUSH2 0xF5 SWAP1 PUSH2 0x2C4 JUMP JUMPDEST DUP1 ISZERO PUSH2 0x142 JUMPI DUP1 PUSH1 0x1F LT PUSH2 0x117 JUMPI PUSH2 0x100 DUP1 DUP4 SLOAD DIV MUL DUP4 MSTORE SWAP2 PUSH1 0x20 ADD SWAP2 PUSH2 0x142 JUMP JUMPDEST DUP3 ADD SWAP2 SWAP1 PUSH1 0x0 MSTORE PUSH1 0x20 PUSH1 0x0 KECCAK256 SWAP1 JUMPDEST DUP2 SLOAD DUP2 MSTORE SWAP1 PUSH1 0x1 ADD SWAP1 PUSH1 0x20 ADD DUP1 DUP4 GT PUSH2 0x125 JUMPI DUP3 SWAP1 SUB PUSH1 0x1F AND DUP3 ADD SWAP2 JUMPDEST POP POP POP POP POP DUP2 JUMP JUMPDEST PUSH1 0x0 DUP2 CALLDATALOAD SWAP1 POP PUSH2 0x159 DUP2 PUSH2 0x33B JUMP JUMPDEST SWAP3 SWAP2 POP POP JUMP JUMPDEST PUSH1 0x0 DUP2 CALLDATALOAD SWAP1 POP PUSH2 0x16E DUP2 PUSH2 0x352 JUMP JUMPDEST SWAP3 SWAP2 POP POP JUMP JUMPDEST PUSH1 0x0 DUP1 PUSH1 0x40 DUP4 DUP6 SUB SLT ISZERO PUSH2 0x18B JUMPI PUSH2 0x18A PUSH2 0x325 JUMP JUMPDEST JUMPDEST PUSH1 0x0 PUSH2 0x199 DUP6 DUP3 DUP7 ADD PUSH2 0x14A JUMP JUMPDEST SWAP3 POP POP PUSH1 0x20 PUSH2 0x1AA DUP6 DUP3 DUP7 ADD PUSH2 0x15F JUMP JUMPDEST SWAP2 POP POP SWAP3 POP SWAP3 SWAP1 POP JUMP JUMPDEST PUSH2 0x1BD DUP2 PUSH2 0x255 JUMP JUMPDEST DUP3 MSTORE POP POP JUMP JUMPDEST PUSH1 0x0 PUSH2 0x1CE DUP3 PUSH2 0x239 JUMP JUMPDEST PUSH2 0x1D8 DUP2 DUP6 PUSH2 0x244 JUMP JUMPDEST SWAP4 POP PUSH2 0x1E8 DUP2 DUP6 PUSH1 0x20 DUP7 ADD PUSH2 0x291 JUMP JUMPDEST PUSH2 0x1F1 DUP2 PUSH2 0x32A JUMP JUMPDEST DUP5 ADD SWAP2 POP POP SWAP3 SWAP2 POP POP JUMP JUMPDEST PUSH1 0x0 PUSH1 0x20 DUP3 ADD SWAP1 POP PUSH2 0x211 PUSH1 0x0 DUP4 ADD DUP5 PUSH2 0x1B4 JUMP JUMPDEST SWAP3 SWAP2 POP POP JUMP JUMPDEST PUSH1 0x0 PUSH1 0x20 DUP3 ADD SWAP1 POP DUP2 DUP2 SUB PUSH1 0x0 DUP4 ADD MSTORE PUSH2 0x231 DUP2 DUP5 PUSH2 0x1C3 JUMP JUMPDEST SWAP1 POP SWAP3 SWAP2 POP POP JUMP JUMPDEST PUSH1 0x0 DUP2 MLOAD SWAP1 POP SWAP2 SWAP1 POP JUMP JUMPDEST PUSH1 0x0 DUP3 DUP3 MSTORE PUSH1 0x20 DUP3 ADD SWAP1 POP SWAP3 SWAP2 POP POP JUMP JUMPDEST PUSH1 0x0 PUSH2 0x260 DUP3 PUSH2 0x267 JUMP JUMPDEST SWAP1 POP SWAP2 SWAP1 POP JUMP JUMPDEST PUSH1 0x0 PUSH20 0xFFFFFFFFFFFFFFFFFFFFFFFFFFFFFFFFFFFFFFFF DUP3 AND SWAP1 POP SWAP2 SWAP1 POP JUMP JUMPDEST PUSH1 0x0 DUP2 SWAP1 POP SWAP2 SWAP1 POP JUMP JUMPDEST PUSH1 0x0 JUMPDEST DUP4 DUP2 LT ISZERO PUSH2 0x2AF JUMPI DUP1 DUP3 ADD MLOAD DUP2 DUP5 ADD MSTORE PUSH1 0x20 DUP2 ADD SWAP1 POP PUSH2 0x294 JUMP JUMPDEST DUP4 DUP2 GT ISZERO PUSH2 0x2BE JUMPI PUSH1 0x0 DUP5 DUP5 ADD MSTORE JUMPDEST POP POP POP POP JUMP JUMPDEST PUSH1 0x0 PUSH1 0x2 DUP3 DIV SWAP1 POP PUSH1 0x1 DUP3 AND DUP1 PUSH2 0x2DC JUMPI PUSH1 0x7F DUP3 AND SWAP2 POP JUMPDEST PUSH1 0x20 DUP3 LT DUP2 EQ ISZERO PUSH2 0x2F0 JUMPI PUSH2 0x2EF PUSH2 0x2F6 JUMP JUMPDEST JUMPDEST POP SWAP2 SWAP1 POP JUMP JUMPDEST PUSH32 0x4E487B7100000000000000000000000000000000000000000000000000000000 PUSH1 0x0 MSTORE PUSH1 0x22 PUSH1 0x4 MSTORE PUSH1 0x24 PUSH1 0x0 REVERT JUMPDEST PUSH1 0x0 DUP1 REVERT JUMPDEST PUSH1 0x0 PUSH1 0x1F NOT PUSH1 0x1F DUP4 ADD AND SWAP1 POP SWAP2 SWAP1 POP JUMP JUMPDEST PUSH2 0x344 DUP2 PUSH2 0x255 JUMP JUMPDEST DUP2 EQ PUSH2 0x34F JUMPI PUSH1 0x0 DUP1 REVERT JUMPDEST POP JUMP JUMPDEST PUSH2 0x35B DUP2 PUSH2 0x287 JUMP JUMPDEST DUP2 EQ PUSH2 0x366 JUMPI PUSH1 0x0 DUP1 REVERT JUMPDEST POP JUMP INVALID LOG2 PUSH5 0x6970667358 0x22 SLT KECCAK256 0xB2 0xC1 0xF9 CALL PUSH30 0x9E40E312263E49AC1CF5A79A76C6AB6BBEEC452207D95450B80A5964736F PUSH13 0x63430008070033000000000000 "
				},
				"gasEstimates": {
					"creation": {
						"codeDepositCost": "185400",
						"executionCost": "226",
						"totalCost": "185626"
					},
					"external": {
						"getOwner()": "363",
						"names(address,uint256)": "infinite"
					}
				},
				"methodIdentifiers": {
					"getOwner()": "893d20e8",
					"names(address,uint256)": "b914d7ab"
				}
			},
			"storageLayout": {
				"storage": [
					{
						"astId": 6,
						"contract": "contracts/mappings.sol:MappingsSample",
						"label": "names",
						"offset": 0,
						"slot": "0",
						"type": "t_mapping(t_address,t_array(t_string_storage)dyn_storage)"
					}
				],
				"types": {
					"t_address": {
						"encoding": "inplace",
						"label": "address",
						"numberOfBytes": "20"
					},
					"t_array(t_string_storage)dyn_storage": {
						"base": "t_string_storage",
						"encoding": "dynamic_array",
						"label": "string[]",
						"numberOfBytes": "32"
					},
					"t_mapping(t_address,t_array(t_string_storage)dyn_storage)": {
						"encoding": "mapping",
						"key": "t_address",
						"label": "mapping(address => string[])",
						"numberOfBytes": "32",
						"value": "t_array(t_string_storage)dyn_storage"
					},
					"t_string_storage": {
						"encoding": "bytes",
						"label": "string",
						"numberOfBytes": "32"
					}
				}
			},
			"userdoc": {
				"kind": "user",
				"methods": {},
				"version": 1
			}
		}
	}
}