{
	"contracts/basics.sol": {
		"Person": {
			"abi": [
				{
					"inputs": [
						{
							"internalType": "string",
							"name": "_name",
							"type": "string"
						},
						{
							"internalType": "uint256",
							"name": "_age",
							"type": "uint256"
						}
					],
					"stateMutability": "nonpayable",
					"type": "constructor"
				},
				{
					"inputs": [],
					"name": "age",
					"outputs": [
						{
							"internalType": "uint256",
							"name": "",
							"type": "uint256"
						}
					],
					"stateMutability": "view",
					"type": "function"
				},
				{
					"inputs": [
						{
							"internalType": "string",
							"name": "_color",
							"type": "string"
						},
						{
							"internalType": "string",
							"name": "_country",
							"type": "string"
						},
						{
							"internalType": "uint256",
							"name": "_height",
							"type": "uint256"
						}
					],
					"name": "assignValues",
					"outputs": [],
					"stateMutability": "nonpayable",
					"type": "function"
				},
				{
					"inputs": [],
					"name": "characterOfAPerson",
					"outputs": [
						{
							"internalType": "string",
							"name": "color",
							"type": "string"
						},
						{
							"internalType": "string",
							"name": "country",
							"type": "string"
						},
						{
							"internalType": "uint256",
							"name": "height",
							"type": "uint256"
						}
					],
					"stateMutability": "view",
					"type": "function"
				},
				{
					"inputs": [
						{
							"internalType": "uint256",
							"name": "a",
							"type": "uint256"
						},
						{
							"internalType": "uint256",
							"name": "b",
							"type": "uint256"
						}
					],
					"name": "enterValues",
					"outputs": [],
					"stateMutability": "nonpayable",
					"type": "function"
				},
				{
					"inputs": [
						{
							"internalType": "uint256",
							"name": "a",
							"type": "uint256"
						},
						{
							"internalType": "uint256",
							"name": "b",
							"type": "uint256"
						},
						{
							"internalType": "uint256",
							"name": "c",
							"type": "uint256"
						},
						{
							"internalType": "uint256",
							"name": "d",
							"type": "uint256"
						}
					],
					"name": "enterValuesAgain",
					"outputs": [],
					"stateMutability": "nonpayable",
					"type": "function"
				},
				{
					"inputs": [],
					"name": "getTraits",
					"outputs": [
						{
							"components": [
								{
									"internalType": "string",
									"name": "color",
									"type": "string"
								},
								{
									"internalType": "string",
									"name": "country",
									"type": "string"
								},
								{
									"internalType": "uint256",
									"name": "height",
									"type": "uint256"
								}
							],
							"internalType": "struct Person.Traits",
							"name": "",
							"type": "tuple"
						}
					],
					"stateMutability": "view",
					"type": "function"
				},
				{
					"inputs": [
						{
							"internalType": "uint256",
							"name": "",
							"type": "uint256"
						}
					],
					"name": "luckNumbers2",
					"outputs": [
						{
							"internalType": "uint256",
							"name": "",
							"type": "uint256"
						}
					],
					"stateMutability": "view",
					"type": "function"
				},
				{
					"inputs": [
						{
							"internalType": "uint256",
							"name": "",
							"type": "uint256"
						}
					],
					"name": "luckyNumbers",
					"outputs": [
						{
							"internalType": "uint256",
							"name": "",
							"type": "uint256"
						}
					],
					"stateMutability": "view",
					"type": "function"
				},
				{
					"inputs": [],
					"name": "name",
					"outputs": [
						{
							"internalType": "string",
							"name": "",
							"type": "string"
						}
					],
					"stateMutability": "view",
					"type": "function"
				}
			],
			"devdoc": {
				"kind": "dev",
				"methods": {},
				"version": 1
			},
			"evm": {
				"assembly": "    /* \"contracts/basics.sol\":96:1823  contract Person{\r... */\n  mstore(0x40, 0x80)\n    /* \"contracts/basics.sol\":315:475  constructor(string memory _name,uint _age) public{\r... */\n  callvalue\n  dup1\n  iszero\n  tag_1\n  jumpi\n  0x00\n  dup1\n  revert\ntag_1:\n  pop\n  mload(0x40)\n  sub(codesize, bytecodeSize)\n  dup1\n  bytecodeSize\n  dup4\n  codecopy\n  dup2\n  dup2\n  add\n  0x40\n  mstore\n  dup2\n  add\n  swap1\n  tag_2\n  swap2\n  swap1\n  tag_3\n  jump\t// in\ntag_2:\n    /* \"contracts/basics.sol\":384:389  _name */\n  dup2\n    /* \"contracts/basics.sol\":377:381  name */\n  0x00\n    /* \"contracts/basics.sol\":377:389  name = _name */\n  swap1\n  dup1\n  mload\n  swap1\n  0x20\n  add\n  swap1\n  tag_6\n  swap3\n  swap2\n  swap1\n  tag_7\n  jump\t// in\ntag_6:\n  pop\n    /* \"contracts/basics.sol\":461:465  _age */\n  dup1\n    /* \"contracts/basics.sol\":454:457  age */\n  0x01\n    /* \"contracts/basics.sol\":454:465  age  = _age */\n  dup2\n  swap1\n  sstore\n  pop\n    /* \"contracts/basics.sol\":315:475  constructor(string memory _name,uint _age) public{\r... */\n  pop\n  pop\n    /* \"contracts/basics.sol\":96:1823  contract Person{\r... */\n  jump(tag_8)\ntag_7:\n  dup3\n  dup1\n  sload\n  tag_9\n  swap1\n  tag_10\n  jump\t// in\ntag_9:\n  swap1\n  0x00\n  mstore\n  keccak256(0x00, 0x20)\n  swap1\n  0x1f\n  add\n  0x20\n  swap1\n  div\n  dup2\n  add\n  swap3\n  dup3\n  tag_12\n  jumpi\n  0x00\n  dup6\n  sstore\n  jump(tag_11)\ntag_12:\n  dup3\n  0x1f\n  lt\n  tag_13\n  jumpi\n  dup1\n  mload\n  not(0xff)\n  and\n  dup4\n  dup1\n  add\n  or\n  dup6\n  sstore\n  jump(tag_11)\ntag_13:\n  dup3\n  dup1\n  add\n  0x01\n  add\n  dup6\n  sstore\n  dup3\n  iszero\n  tag_11\n  jumpi\n  swap2\n  dup3\n  add\ntag_14:\n  dup3\n  dup2\n  gt\n  iszero\n  tag_15\n  jumpi\n  dup3\n  mload\n  dup3\n  sstore\n  swap2\n  0x20\n  add\n  swap2\n  swap1\n  0x01\n  add\n  swap1\n  jump(tag_14)\ntag_15:\ntag_11:\n  pop\n  swap1\n  pop\n  tag_16\n  swap2\n  swap1\n  tag_17\n  jump\t// in\ntag_16:\n  pop\n  swap1\n  jump\t// out\ntag_17:\ntag_18:\n  dup1\n  dup3\n  gt\n  iszero\n  tag_19\n  jumpi\n  0x00\n  dup2\n  0x00\n  swap1\n  sstore\n  pop\n  0x01\n  add\n  jump(tag_18)\ntag_19:\n  pop\n  swap1\n  jump\t// out\n    /* \"#utility.yul\":7:428   */\ntag_21:\n    /* \"#utility.yul\":96:101   */\n  0x00\n    /* \"#utility.yul\":121:187   */\n  tag_23\n    /* \"#utility.yul\":137:186   */\n  tag_24\n    /* \"#utility.yul\":179:185   */\n  dup5\n    /* \"#utility.yul\":137:186   */\n  tag_25\n  jump\t// in\ntag_24:\n    /* \"#utility.yul\":121:187   */\n  tag_26\n  jump\t// in\ntag_23:\n    /* \"#utility.yul\":112:187   */\n  swap1\n  pop\n    /* \"#utility.yul\":210:216   */\n  dup3\n    /* \"#utility.yul\":203:208   */\n  dup2\n    /* \"#utility.yul\":196:217   */\n  mstore\n    /* \"#utility.yul\":248:252   */\n  0x20\n    /* \"#utility.yul\":241:246   */\n  dup2\n    /* \"#utility.yul\":237:253   */\n  add\n    /* \"#utility.yul\":286:289   */\n  dup5\n    /* \"#utility.yul\":277:283   */\n  dup5\n    /* \"#utility.yul\":272:275   */\n  dup5\n    /* \"#utility.yul\":268:284   */\n  add\n    /* \"#utility.yul\":265:290   */\n  gt\n    /* \"#utility.yul\":262:374   */\n  iszero\n  tag_27\n  jumpi\n    /* \"#utility.yul\":293:372   */\n  tag_28\n  tag_29\n  jump\t// in\ntag_28:\n    /* \"#utility.yul\":262:374   */\ntag_27:\n    /* \"#utility.yul\":383:422   */\n  tag_30\n    /* \"#utility.yul\":415:421   */\n  dup5\n    /* \"#utility.yul\":410:413   */\n  dup3\n    /* \"#utility.yul\":405:408   */\n  dup6\n    /* \"#utility.yul\":383:422   */\n  tag_31\n  jump\t// in\ntag_30:\n    /* \"#utility.yul\":102:428   */\n  pop\n    /* \"#utility.yul\":7:428   */\n  swap4\n  swap3\n  pop\n  pop\n  pop\n  jump\t// out\n    /* \"#utility.yul\":448:803   */\ntag_32:\n    /* \"#utility.yul\":515:520   */\n  0x00\n    /* \"#utility.yul\":564:567   */\n  dup3\n    /* \"#utility.yul\":557:561   */\n  0x1f\n    /* \"#utility.yul\":549:555   */\n  dup4\n    /* \"#utility.yul\":545:562   */\n  add\n    /* \"#utility.yul\":541:568   */\n  slt\n    /* \"#utility.yul\":531:653   */\n  tag_34\n  jumpi\n    /* \"#utility.yul\":572:651   */\n  tag_35\n  tag_36\n  jump\t// in\ntag_35:\n    /* \"#utility.yul\":531:653   */\ntag_34:\n    /* \"#utility.yul\":682:688   */\n  dup2\n    /* \"#utility.yul\":676:689   */\n  mload\n    /* \"#utility.yul\":707:797   */\n  tag_37\n    /* \"#utility.yul\":793:796   */\n  dup5\n    /* \"#utility.yul\":785:791   */\n  dup3\n    /* \"#utility.yul\":778:782   */\n  0x20\n    /* \"#utility.yul\":770:776   */\n  dup7\n    /* \"#utility.yul\":766:783   */\n  add\n    /* \"#utility.yul\":707:797   */\n  tag_21\n  jump\t// in\ntag_37:\n    /* \"#utility.yul\":698:797   */\n  swap2\n  pop\n    /* \"#utility.yul\":521:803   */\n  pop\n    /* \"#utility.yul\":448:803   */\n  swap3\n  swap2\n  pop\n  pop\n  jump\t// out\n    /* \"#utility.yul\":809:952   */\ntag_38:\n    /* \"#utility.yul\":866:871   */\n  0x00\n    /* \"#utility.yul\":897:903   */\n  dup2\n    /* \"#utility.yul\":891:904   */\n  mload\n    /* \"#utility.yul\":882:904   */\n  swap1\n  pop\n    /* \"#utility.yul\":913:946   */\n  tag_40\n    /* \"#utility.yul\":940:945   */\n  dup2\n    /* \"#utility.yul\":913:946   */\n  tag_41\n  jump\t// in\ntag_40:\n    /* \"#utility.yul\":809:952   */\n  swap3\n  swap2\n  pop\n  pop\n  jump\t// out\n    /* \"#utility.yul\":958:1638   */\ntag_3:\n    /* \"#utility.yul\":1047:1053   */\n  0x00\n    /* \"#utility.yul\":1055:1061   */\n  dup1\n    /* \"#utility.yul\":1104:1106   */\n  0x40\n    /* \"#utility.yul\":1092:1101   */\n  dup4\n    /* \"#utility.yul\":1083:1090   */\n  dup6\n    /* \"#utility.yul\":1079:1102   */\n  sub\n    /* \"#utility.yul\":1075:1107   */\n  slt\n    /* \"#utility.yul\":1072:1191   */\n  iszero\n  tag_43\n  jumpi\n    /* \"#utility.yul\":1110:1189   */\n  tag_44\n  tag_45\n  jump\t// in\ntag_44:\n    /* \"#utility.yul\":1072:1191   */\ntag_43:\n    /* \"#utility.yul\":1251:1252   */\n  0x00\n    /* \"#utility.yul\":1240:1249   */\n  dup4\n    /* \"#utility.yul\":1236:1253   */\n  add\n    /* \"#utility.yul\":1230:1254   */\n  mload\n    /* \"#utility.yul\":1281:1299   */\n  0xffffffffffffffff\n    /* \"#utility.yul\":1273:1279   */\n  dup2\n    /* \"#utility.yul\":1270:1300   */\n  gt\n    /* \"#utility.yul\":1267:1384   */\n  iszero\n  tag_46\n  jumpi\n    /* \"#utility.yul\":1303:1382   */\n  tag_47\n  tag_48\n  jump\t// in\ntag_47:\n    /* \"#utility.yul\":1267:1384   */\ntag_46:\n    /* \"#utility.yul\":1408:1482   */\n  tag_49\n    /* \"#utility.yul\":1474:1481   */\n  dup6\n    /* \"#utility.yul\":1465:1471   */\n  dup3\n    /* \"#utility.yul\":1454:1463   */\n  dup7\n    /* \"#utility.yul\":1450:1472   */\n  add\n    /* \"#utility.yul\":1408:1482   */\n  tag_32\n  jump\t// in\ntag_49:\n    /* \"#utility.yul\":1398:1482   */\n  swap3\n  pop\n    /* \"#utility.yul\":1201:1492   */\n  pop\n    /* \"#utility.yul\":1531:1533   */\n  0x20\n    /* \"#utility.yul\":1557:1621   */\n  tag_50\n    /* \"#utility.yul\":1613:1620   */\n  dup6\n    /* \"#utility.yul\":1604:1610   */\n  dup3\n    /* \"#utility.yul\":1593:1602   */\n  dup7\n    /* \"#utility.yul\":1589:1611   */\n  add\n    /* \"#utility.yul\":1557:1621   */\n  tag_38\n  jump\t// in\ntag_50:\n    /* \"#utility.yul\":1547:1621   */\n  swap2\n  pop\n    /* \"#utility.yul\":1502:1631   */\n  pop\n    /* \"#utility.yul\":958:1638   */\n  swap3\n  pop\n  swap3\n  swap1\n  pop\n  jump\t// out\n    /* \"#utility.yul\":1644:1773   */\ntag_26:\n    /* \"#utility.yul\":1678:1684   */\n  0x00\n    /* \"#utility.yul\":1705:1725   */\n  tag_52\n  tag_53\n  jump\t// in\ntag_52:\n    /* \"#utility.yul\":1695:1725   */\n  swap1\n  pop\n    /* \"#utility.yul\":1734:1767   */\n  tag_54\n    /* \"#utility.yul\":1762:1766   */\n  dup3\n    /* \"#utility.yul\":1754:1760   */\n  dup3\n    /* \"#utility.yul\":1734:1767   */\n  tag_55\n  jump\t// in\ntag_54:\n    /* \"#utility.yul\":1644:1773   */\n  swap2\n  swap1\n  pop\n  jump\t// out\n    /* \"#utility.yul\":1779:1854   */\ntag_53:\n    /* \"#utility.yul\":1812:1818   */\n  0x00\n    /* \"#utility.yul\":1845:1847   */\n  0x40\n    /* \"#utility.yul\":1839:1848   */\n  mload\n    /* \"#utility.yul\":1829:1848   */\n  swap1\n  pop\n    /* \"#utility.yul\":1779:1854   */\n  swap1\n  jump\t// out\n    /* \"#utility.yul\":1860:2168   */\ntag_25:\n    /* \"#utility.yul\":1922:1926   */\n  0x00\n    /* \"#utility.yul\":2012:2030   */\n  0xffffffffffffffff\n    /* \"#utility.yul\":2004:2010   */\n  dup3\n    /* \"#utility.yul\":2001:2031   */\n  gt\n    /* \"#utility.yul\":1998:2054   */\n  iszero\n  tag_58\n  jumpi\n    /* \"#utility.yul\":2034:2052   */\n  tag_59\n  tag_60\n  jump\t// in\ntag_59:\n    /* \"#utility.yul\":1998:2054   */\ntag_58:\n    /* \"#utility.yul\":2072:2101   */\n  tag_61\n    /* \"#utility.yul\":2094:2100   */\n  dup3\n    /* \"#utility.yul\":2072:2101   */\n  tag_62\n  jump\t// in\ntag_61:\n    /* \"#utility.yul\":2064:2101   */\n  swap1\n  pop\n    /* \"#utility.yul\":2156:2160   */\n  0x20\n    /* \"#utility.yul\":2150:2154   */\n  dup2\n    /* \"#utility.yul\":2146:2161   */\n  add\n    /* \"#utility.yul\":2138:2161   */\n  swap1\n  pop\n    /* \"#utility.yul\":1860:2168   */\n  swap2\n  swap1\n  pop\n  jump\t// out\n    /* \"#utility.yul\":2174:2251   */\ntag_63:\n    /* \"#utility.yul\":2211:2218   */\n  0x00\n    /* \"#utility.yul\":2240:2245   */\n  dup2\n    /* \"#utility.yul\":2229:2245   */\n  swap1\n  pop\n    /* \"#utility.yul\":2174:2251   */\n  swap2\n  swap1\n  pop\n  jump\t// out\n    /* \"#utility.yul\":2257:2564   */\ntag_31:\n    /* \"#utility.yul\":2325:2326   */\n  0x00\n    /* \"#utility.yul\":2335:2448   */\ntag_66:\n    /* \"#utility.yul\":2349:2355   */\n  dup4\n    /* \"#utility.yul\":2346:2347   */\n  dup2\n    /* \"#utility.yul\":2343:2356   */\n  lt\n    /* \"#utility.yul\":2335:2448   */\n  iszero\n  tag_68\n  jumpi\n    /* \"#utility.yul\":2434:2435   */\n  dup1\n    /* \"#utility.yul\":2429:2432   */\n  dup3\n    /* \"#utility.yul\":2425:2436   */\n  add\n    /* \"#utility.yul\":2419:2437   */\n  mload\n    /* \"#utility.yul\":2415:2416   */\n  dup2\n    /* \"#utility.yul\":2410:2413   */\n  dup5\n    /* \"#utility.yul\":2406:2417   */\n  add\n    /* \"#utility.yul\":2399:2438   */\n  mstore\n    /* \"#utility.yul\":2371:2373   */\n  0x20\n    /* \"#utility.yul\":2368:2369   */\n  dup2\n    /* \"#utility.yul\":2364:2374   */\n  add\n    /* \"#utility.yul\":2359:2374   */\n  swap1\n  pop\n    /* \"#utility.yul\":2335:2448   */\n  jump(tag_66)\ntag_68:\n    /* \"#utility.yul\":2466:2472   */\n  dup4\n    /* \"#utility.yul\":2463:2464   */\n  dup2\n    /* \"#utility.yul\":2460:2473   */\n  gt\n    /* \"#utility.yul\":2457:2558   */\n  iszero\n  tag_69\n  jumpi\n    /* \"#utility.yul\":2546:2547   */\n  0x00\n    /* \"#utility.yul\":2537:2543   */\n  dup5\n    /* \"#utility.yul\":2532:2535   */\n  dup5\n    /* \"#utility.yul\":2528:2544   */\n  add\n    /* \"#utility.yul\":2521:2548   */\n  mstore\n    /* \"#utility.yul\":2457:2558   */\ntag_69:\n    /* \"#utility.yul\":2306:2564   */\n  pop\n    /* \"#utility.yul\":2257:2564   */\n  pop\n  pop\n  pop\n  jump\t// out\n    /* \"#utility.yul\":2570:2890   */\ntag_10:\n    /* \"#utility.yul\":2614:2620   */\n  0x00\n    /* \"#utility.yul\":2651:2652   */\n  0x02\n    /* \"#utility.yul\":2645:2649   */\n  dup3\n    /* \"#utility.yul\":2641:2653   */\n  div\n    /* \"#utility.yul\":2631:2653   */\n  swap1\n  pop\n    /* \"#utility.yul\":2698:2699   */\n  0x01\n    /* \"#utility.yul\":2692:2696   */\n  dup3\n    /* \"#utility.yul\":2688:2700   */\n  and\n    /* \"#utility.yul\":2719:2737   */\n  dup1\n    /* \"#utility.yul\":2709:2790   */\n  tag_71\n  jumpi\n    /* \"#utility.yul\":2775:2779   */\n  0x7f\n    /* \"#utility.yul\":2767:2773   */\n  dup3\n    /* \"#utility.yul\":2763:2780   */\n  and\n    /* \"#utility.yul\":2753:2780   */\n  swap2\n  pop\n    /* \"#utility.yul\":2709:2790   */\ntag_71:\n    /* \"#utility.yul\":2837:2839   */\n  0x20\n    /* \"#utility.yul\":2829:2835   */\n  dup3\n    /* \"#utility.yul\":2826:2840   */\n  lt\n    /* \"#utility.yul\":2806:2824   */\n  dup2\n    /* \"#utility.yul\":2803:2841   */\n  eq\n    /* \"#utility.yul\":2800:2884   */\n  iszero\n  tag_72\n  jumpi\n    /* \"#utility.yul\":2856:2874   */\n  tag_73\n  tag_74\n  jump\t// in\ntag_73:\n    /* \"#utility.yul\":2800:2884   */\ntag_72:\n    /* \"#utility.yul\":2621:2890   */\n  pop\n    /* \"#utility.yul\":2570:2890   */\n  swap2\n  swap1\n  pop\n  jump\t// out\n    /* \"#utility.yul\":2896:3177   */\ntag_55:\n    /* \"#utility.yul\":2979:3006   */\n  tag_76\n    /* \"#utility.yul\":3001:3005   */\n  dup3\n    /* \"#utility.yul\":2979:3006   */\n  tag_62\n  jump\t// in\ntag_76:\n    /* \"#utility.yul\":2971:2977   */\n  dup2\n    /* \"#utility.yul\":2967:3007   */\n  add\n    /* \"#utility.yul\":3109:3115   */\n  dup2\n    /* \"#utility.yul\":3097:3107   */\n  dup2\n    /* \"#utility.yul\":3094:3116   */\n  lt\n    /* \"#utility.yul\":3073:3091   */\n  0xffffffffffffffff\n    /* \"#utility.yul\":3061:3071   */\n  dup3\n    /* \"#utility.yul\":3058:3092   */\n  gt\n    /* \"#utility.yul\":3055:3117   */\n  or\n    /* \"#utility.yul\":3052:3140   */\n  iszero\n  tag_77\n  jumpi\n    /* \"#utility.yul\":3120:3138   */\n  tag_78\n  tag_60\n  jump\t// in\ntag_78:\n    /* \"#utility.yul\":3052:3140   */\ntag_77:\n    /* \"#utility.yul\":3160:3170   */\n  dup1\n    /* \"#utility.yul\":3156:3158   */\n  0x40\n    /* \"#utility.yul\":3149:3171   */\n  mstore\n    /* \"#utility.yul\":2939:3177   */\n  pop\n    /* \"#utility.yul\":2896:3177   */\n  pop\n  pop\n  jump\t// out\n    /* \"#utility.yul\":3183:3363   */\ntag_74:\n    /* \"#utility.yul\":3231:3308   */\n  0x4e487b7100000000000000000000000000000000000000000000000000000000\n    /* \"#utility.yul\":3228:3229   */\n  0x00\n    /* \"#utility.yul\":3221:3309   */\n  mstore\n    /* \"#utility.yul\":3328:3332   */\n  0x22\n    /* \"#utility.yul\":3325:3326   */\n  0x04\n    /* \"#utility.yul\":3318:3333   */\n  mstore\n    /* \"#utility.yul\":3352:3356   */\n  0x24\n    /* \"#utility.yul\":3349:3350   */\n  0x00\n    /* \"#utility.yul\":3342:3357   */\n  revert\n    /* \"#utility.yul\":3369:3549   */\ntag_60:\n    /* \"#utility.yul\":3417:3494   */\n  0x4e487b7100000000000000000000000000000000000000000000000000000000\n    /* \"#utility.yul\":3414:3415   */\n  0x00\n    /* \"#utility.yul\":3407:3495   */\n  mstore\n    /* \"#utility.yul\":3514:3518   */\n  0x41\n    /* \"#utility.yul\":3511:3512   */\n  0x04\n    /* \"#utility.yul\":3504:3519   */\n  mstore\n    /* \"#utility.yul\":3538:3542   */\n  0x24\n    /* \"#utility.yul\":3535:3536   */\n  0x00\n    /* \"#utility.yul\":3528:3543   */\n  revert\n    /* \"#utility.yul\":3555:3672   */\ntag_36:\n    /* \"#utility.yul\":3664:3665   */\n  0x00\n    /* \"#utility.yul\":3661:3662   */\n  dup1\n    /* \"#utility.yul\":3654:3666   */\n  revert\n    /* \"#utility.yul\":3678:3795   */\ntag_29:\n    /* \"#utility.yul\":3787:3788   */\n  0x00\n    /* \"#utility.yul\":3784:3785   */\n  dup1\n    /* \"#utility.yul\":3777:3789   */\n  revert\n    /* \"#utility.yul\":3801:3918   */\ntag_48:\n    /* \"#utility.yul\":3910:3911   */\n  0x00\n    /* \"#utility.yul\":3907:3908   */\n  dup1\n    /* \"#utility.yul\":3900:3912   */\n  revert\n    /* \"#utility.yul\":3924:4041   */\ntag_45:\n    /* \"#utility.yul\":4033:4034   */\n  0x00\n    /* \"#utility.yul\":4030:4031   */\n  dup1\n    /* \"#utility.yul\":4023:4035   */\n  revert\n    /* \"#utility.yul\":4047:4149   */\ntag_62:\n    /* \"#utility.yul\":4088:4094   */\n  0x00\n    /* \"#utility.yul\":4139:4141   */\n  0x1f\n    /* \"#utility.yul\":4135:4142   */\n  not\n    /* \"#utility.yul\":4130:4132   */\n  0x1f\n    /* \"#utility.yul\":4123:4128   */\n  dup4\n    /* \"#utility.yul\":4119:4133   */\n  add\n    /* \"#utility.yul\":4115:4143   */\n  and\n    /* \"#utility.yul\":4105:4143   */\n  swap1\n  pop\n    /* \"#utility.yul\":4047:4149   */\n  swap2\n  swap1\n  pop\n  jump\t// out\n    /* \"#utility.yul\":4155:4277   */\ntag_41:\n    /* \"#utility.yul\":4228:4252   */\n  tag_87\n    /* \"#utility.yul\":4246:4251   */\n  dup2\n    /* \"#utility.yul\":4228:4252   */\n  tag_63\n  jump\t// in\ntag_87:\n    /* \"#utility.yul\":4221:4226   */\n  dup2\n    /* \"#utility.yul\":4218:4253   */\n  eq\n    /* \"#utility.yul\":4208:4271   */\n  tag_88\n  jumpi\n    /* \"#utility.yul\":4267:4268   */\n  0x00\n    /* \"#utility.yul\":4264:4265   */\n  dup1\n    /* \"#utility.yul\":4257:4269   */\n  revert\n    /* \"#utility.yul\":4208:4271   */\ntag_88:\n    /* \"#utility.yul\":4155:4277   */\n  pop\n  jump\t// out\n    /* \"contracts/basics.sol\":96:1823  contract Person{\r... */\ntag_8:\n  dataSize(sub_0)\n  dup1\n  dataOffset(sub_0)\n  0x00\n  codecopy\n  0x00\n  return\nstop\n\nsub_0: assembly {\n        /* \"contracts/basics.sol\":96:1823  contract Person{\r... */\n      mstore(0x40, 0x80)\n      callvalue\n      dup1\n      iszero\n      tag_1\n      jumpi\n      0x00\n      dup1\n      revert\n    tag_1:\n      pop\n      jumpi(tag_2, lt(calldatasize, 0x04))\n      shr(0xe0, calldataload(0x00))\n      dup1\n      0x6d35e346\n      gt\n      tag_12\n      jumpi\n      dup1\n      0x6d35e346\n      eq\n      tag_7\n      jumpi\n      dup1\n      0x767f9dcf\n      eq\n      tag_8\n      jumpi\n      dup1\n      0x7f0429ef\n      eq\n      tag_9\n      jumpi\n      dup1\n      0xd653f307\n      eq\n      tag_10\n      jumpi\n      dup1\n      0xe780faa3\n      eq\n      tag_11\n      jumpi\n      jump(tag_2)\n    tag_12:\n      dup1\n      0x06fdde03\n      eq\n      tag_3\n      jumpi\n      dup1\n      0x204653d3\n      eq\n      tag_4\n      jumpi\n      dup1\n      0x262a9dff\n      eq\n      tag_5\n      jumpi\n      dup1\n      0x465fe0ee\n      eq\n      tag_6\n      jumpi\n    tag_2:\n      0x00\n      dup1\n      revert\n        /* \"contracts/basics.sol\":251:269  string public name */\n    tag_3:\n      tag_13\n      tag_14\n      jump\t// in\n    tag_13:\n      mload(0x40)\n      tag_15\n      swap2\n      swap1\n      tag_16\n      jump\t// in\n    tag_15:\n      mload(0x40)\n      dup1\n      swap2\n      sub\n      swap1\n      return\n        /* \"contracts/basics.sol\":806:928  function enterValues(uint a, uint b) public {\r... */\n    tag_4:\n      tag_17\n      0x04\n      dup1\n      calldatasize\n      sub\n      dup2\n      add\n      swap1\n      tag_18\n      swap2\n      swap1\n      tag_19\n      jump\t// in\n    tag_18:\n      tag_20\n      jump\t// in\n    tag_17:\n      stop\n        /* \"contracts/basics.sol\":290:305  uint public age */\n    tag_5:\n      tag_21\n      tag_22\n      jump\t// in\n    tag_21:\n      mload(0x40)\n      tag_23\n      swap2\n      swap1\n      tag_24\n      jump\t// in\n    tag_23:\n      mload(0x40)\n      dup1\n      swap2\n      sub\n      swap1\n      return\n        /* \"contracts/basics.sol\":1464:1496  Traits public characterOfAPerson */\n    tag_6:\n      tag_25\n      tag_26\n      jump\t// in\n    tag_25:\n      mload(0x40)\n      tag_27\n      swap4\n      swap3\n      swap2\n      swap1\n      tag_28\n      jump\t// in\n    tag_27:\n      mload(0x40)\n      dup1\n      swap2\n      sub\n      swap1\n      return\n        /* \"contracts/basics.sol\":936:1137  function enterValuesAgain(uint a, uint b,uint c,uint d) public {\r... */\n    tag_7:\n      tag_29\n      0x04\n      dup1\n      calldatasize\n      sub\n      dup2\n      add\n      swap1\n      tag_30\n      swap2\n      swap1\n      tag_31\n      jump\t// in\n    tag_30:\n      tag_32\n      jump\t// in\n    tag_29:\n      stop\n        /* \"contracts/basics.sol\":1523:1687  function assignValues(string memory _color,string memory _country,uint _height) \r... */\n    tag_8:\n      tag_33\n      0x04\n      dup1\n      calldatasize\n      sub\n      dup2\n      add\n      swap1\n      tag_34\n      swap2\n      swap1\n      tag_35\n      jump\t// in\n    tag_34:\n      tag_36\n      jump\t// in\n    tag_33:\n      stop\n        /* \"contracts/basics.sol\":1711:1810  function getTraits() public view returns(Traits memory){\r... */\n    tag_9:\n      tag_37\n      tag_38\n      jump\t// in\n    tag_37:\n      mload(0x40)\n      tag_39\n      swap2\n      swap1\n      tag_40\n      jump\t// in\n    tag_39:\n      mload(0x40)\n      dup1\n      swap2\n      sub\n      swap1\n      return\n        /* \"contracts/basics.sol\":771:797  uint[] public luckNumbers2 */\n    tag_10:\n      tag_41\n      0x04\n      dup1\n      calldatasize\n      sub\n      dup2\n      add\n      swap1\n      tag_42\n      swap2\n      swap1\n      tag_43\n      jump\t// in\n    tag_42:\n      tag_44\n      jump\t// in\n    tag_41:\n      mload(0x40)\n      tag_45\n      swap2\n      swap1\n      tag_24\n      jump\t// in\n    tag_45:\n      mload(0x40)\n      dup1\n      swap2\n      sub\n      swap1\n      return\n        /* \"contracts/basics.sol\":613:640  uint[2] public luckyNumbers */\n    tag_11:\n      tag_46\n      0x04\n      dup1\n      calldatasize\n      sub\n      dup2\n      add\n      swap1\n      tag_47\n      swap2\n      swap1\n      tag_43\n      jump\t// in\n    tag_47:\n      tag_48\n      jump\t// in\n    tag_46:\n      mload(0x40)\n      tag_49\n      swap2\n      swap1\n      tag_24\n      jump\t// in\n    tag_49:\n      mload(0x40)\n      dup1\n      swap2\n      sub\n      swap1\n      return\n        /* \"contracts/basics.sol\":251:269  string public name */\n    tag_14:\n      0x00\n      dup1\n      sload\n      tag_50\n      swap1\n      tag_51\n      jump\t// in\n    tag_50:\n      dup1\n      0x1f\n      add\n      0x20\n      dup1\n      swap2\n      div\n      mul\n      0x20\n      add\n      mload(0x40)\n      swap1\n      dup2\n      add\n      0x40\n      mstore\n      dup1\n      swap3\n      swap2\n      swap1\n      dup2\n      dup2\n      mstore\n      0x20\n      add\n      dup3\n      dup1\n      sload\n      tag_52\n      swap1\n      tag_51\n      jump\t// in\n    tag_52:\n      dup1\n      iszero\n      tag_53\n      jumpi\n      dup1\n      0x1f\n      lt\n      tag_54\n      jumpi\n      0x0100\n      dup1\n      dup4\n      sload\n      div\n      mul\n      dup4\n      mstore\n      swap2\n      0x20\n      add\n      swap2\n      jump(tag_53)\n    tag_54:\n      dup3\n      add\n      swap2\n      swap1\n      0x00\n      mstore\n      keccak256(0x00, 0x20)\n      swap1\n    tag_55:\n      dup2\n      sload\n      dup2\n      mstore\n      swap1\n      0x01\n      add\n      swap1\n      0x20\n      add\n      dup1\n      dup4\n      gt\n      tag_55\n      jumpi\n      dup3\n      swap1\n      sub\n      0x1f\n      and\n      dup3\n      add\n      swap2\n    tag_53:\n      pop\n      pop\n      pop\n      pop\n      pop\n      dup2\n      jump\t// out\n        /* \"contracts/basics.sol\":806:928  function enterValues(uint a, uint b) public {\r... */\n    tag_20:\n        /* \"contracts/basics.sol\":880:881  a */\n      dup2\n        /* \"contracts/basics.sol\":862:874  luckyNumbers */\n      0x02\n        /* \"contracts/basics.sol\":875:876  0 */\n      0x00\n        /* \"contracts/basics.sol\":862:877  luckyNumbers[0] */\n      0x02\n      dup2\n      lt\n      tag_57\n      jumpi\n      tag_58\n      tag_59\n      jump\t// in\n    tag_58:\n    tag_57:\n      add\n        /* \"contracts/basics.sol\":862:881  luckyNumbers[0] = a */\n      dup2\n      swap1\n      sstore\n      pop\n        /* \"contracts/basics.sol\":909:910  b */\n      dup1\n        /* \"contracts/basics.sol\":891:903  luckyNumbers */\n      0x02\n        /* \"contracts/basics.sol\":904:905  1 */\n      0x01\n        /* \"contracts/basics.sol\":891:906  luckyNumbers[1] */\n      0x02\n      dup2\n      lt\n      tag_61\n      jumpi\n      tag_62\n      tag_59\n      jump\t// in\n    tag_62:\n    tag_61:\n      add\n        /* \"contracts/basics.sol\":891:910  luckyNumbers[1] = b */\n      dup2\n      swap1\n      sstore\n      pop\n        /* \"contracts/basics.sol\":806:928  function enterValues(uint a, uint b) public {\r... */\n      pop\n      pop\n      jump\t// out\n        /* \"contracts/basics.sol\":290:305  uint public age */\n    tag_22:\n      sload(0x01)\n      dup2\n      jump\t// out\n        /* \"contracts/basics.sol\":1464:1496  Traits public characterOfAPerson */\n    tag_26:\n      0x05\n      dup1\n      0x00\n      add\n      dup1\n      sload\n      tag_64\n      swap1\n      tag_51\n      jump\t// in\n    tag_64:\n      dup1\n      0x1f\n      add\n      0x20\n      dup1\n      swap2\n      div\n      mul\n      0x20\n      add\n      mload(0x40)\n      swap1\n      dup2\n      add\n      0x40\n      mstore\n      dup1\n      swap3\n      swap2\n      swap1\n      dup2\n      dup2\n      mstore\n      0x20\n      add\n      dup3\n      dup1\n      sload\n      tag_65\n      swap1\n      tag_51\n      jump\t// in\n    tag_65:\n      dup1\n      iszero\n      tag_66\n      jumpi\n      dup1\n      0x1f\n      lt\n      tag_67\n      jumpi\n      0x0100\n      dup1\n      dup4\n      sload\n      div\n      mul\n      dup4\n      mstore\n      swap2\n      0x20\n      add\n      swap2\n      jump(tag_66)\n    tag_67:\n      dup3\n      add\n      swap2\n      swap1\n      0x00\n      mstore\n      keccak256(0x00, 0x20)\n      swap1\n    tag_68:\n      dup2\n      sload\n      dup2\n      mstore\n      swap1\n      0x01\n      add\n      swap1\n      0x20\n      add\n      dup1\n      dup4\n      gt\n      tag_68\n      jumpi\n      dup3\n      swap1\n      sub\n      0x1f\n      and\n      dup3\n      add\n      swap2\n    tag_66:\n      pop\n      pop\n      pop\n      pop\n      pop\n      swap1\n      dup1\n      0x01\n      add\n      dup1\n      sload\n      tag_69\n      swap1\n      tag_51\n      jump\t// in\n    tag_69:\n      dup1\n      0x1f\n      add\n      0x20\n      dup1\n      swap2\n      div\n      mul\n      0x20\n      add\n      mload(0x40)\n      swap1\n      dup2\n      add\n      0x40\n      mstore\n      dup1\n      swap3\n      swap2\n      swap1\n      dup2\n      dup2\n      mstore\n      0x20\n      add\n      dup3\n      dup1\n      sload\n      tag_70\n      swap1\n      tag_51\n      jump\t// in\n    tag_70:\n      dup1\n      iszero\n      tag_71\n      jumpi\n      dup1\n      0x1f\n      lt\n      tag_72\n      jumpi\n      0x0100\n      dup1\n      dup4\n      sload\n      div\n      mul\n      dup4\n      mstore\n      swap2\n      0x20\n      add\n      swap2\n      jump(tag_71)\n    tag_72:\n      dup3\n      add\n      swap2\n      swap1\n      0x00\n      mstore\n      keccak256(0x00, 0x20)\n      swap1\n    tag_73:\n      dup2\n      sload\n      dup2\n      mstore\n      swap1\n      0x01\n      add\n      swap1\n      0x20\n      add\n      dup1\n      dup4\n      gt\n      tag_73\n      jumpi\n      dup3\n      swap1\n      sub\n      0x1f\n      and\n      dup3\n      add\n      swap2\n    tag_71:\n      pop\n      pop\n      pop\n      pop\n      pop\n      swap1\n      dup1\n      0x02\n      add\n      sload\n      swap1\n      pop\n      dup4\n      jump\t// out\n        /* \"contracts/basics.sol\":936:1137  function enterValuesAgain(uint a, uint b,uint c,uint d) public {\r... */\n    tag_32:\n        /* \"contracts/basics.sol\":1012:1024  luckNumbers2 */\n      0x04\n        /* \"contracts/basics.sol\":1030:1031  a */\n      dup5\n        /* \"contracts/basics.sol\":1012:1032  luckNumbers2.push(a) */\n      swap1\n      dup1\n      0x01\n      dup2\n      sload\n      add\n      dup1\n      dup3\n      sstore\n      dup1\n      swap2\n      pop\n      pop\n      0x01\n      swap1\n      sub\n      swap1\n      0x00\n      mstore\n      keccak256(0x00, 0x20)\n      add\n      0x00\n      swap1\n      swap2\n      swap1\n      swap2\n      swap1\n      swap2\n      pop\n      sstore\n        /* \"contracts/basics.sol\":1043:1055  luckNumbers2 */\n      0x04\n        /* \"contracts/basics.sol\":1061:1062  b */\n      dup4\n        /* \"contracts/basics.sol\":1043:1063  luckNumbers2.push(b) */\n      swap1\n      dup1\n      0x01\n      dup2\n      sload\n      add\n      dup1\n      dup3\n      sstore\n      dup1\n      swap2\n      pop\n      pop\n      0x01\n      swap1\n      sub\n      swap1\n      0x00\n      mstore\n      keccak256(0x00, 0x20)\n      add\n      0x00\n      swap1\n      swap2\n      swap1\n      swap2\n      swap1\n      swap2\n      pop\n      sstore\n        /* \"contracts/basics.sol\":1074:1086  luckNumbers2 */\n      0x04\n        /* \"contracts/basics.sol\":1092:1093  c */\n      dup3\n        /* \"contracts/basics.sol\":1074:1094  luckNumbers2.push(c) */\n      swap1\n      dup1\n      0x01\n      dup2\n      sload\n      add\n      dup1\n      dup3\n      sstore\n      dup1\n      swap2\n      pop\n      pop\n      0x01\n      swap1\n      sub\n      swap1\n      0x00\n      mstore\n      keccak256(0x00, 0x20)\n      add\n      0x00\n      swap1\n      swap2\n      swap1\n      swap2\n      swap1\n      swap2\n      pop\n      sstore\n        /* \"contracts/basics.sol\":1105:1117  luckNumbers2 */\n      0x04\n        /* \"contracts/basics.sol\":1123:1124  d */\n      dup2\n        /* \"contracts/basics.sol\":1105:1125  luckNumbers2.push(d) */\n      swap1\n      dup1\n      0x01\n      dup2\n      sload\n      add\n      dup1\n      dup3\n      sstore\n      dup1\n      swap2\n      pop\n      pop\n      0x01\n      swap1\n      sub\n      swap1\n      0x00\n      mstore\n      keccak256(0x00, 0x20)\n      add\n      0x00\n      swap1\n      swap2\n      swap1\n      swap2\n      swap1\n      swap2\n      pop\n      sstore\n        /* \"contracts/basics.sol\":936:1137  function enterValuesAgain(uint a, uint b,uint c,uint d) public {\r... */\n      pop\n      pop\n      pop\n      pop\n      jump\t// out\n        /* \"contracts/basics.sol\":1523:1687  function assignValues(string memory _color,string memory _country,uint _height) \r... */\n    tag_36:\n        /* \"contracts/basics.sol\":1648:1679  Traits(_color,_country,_height) */\n      mload(0x40)\n      dup1\n      0x60\n      add\n      0x40\n      mstore\n      dup1\n        /* \"contracts/basics.sol\":1655:1661  _color */\n      dup5\n        /* \"contracts/basics.sol\":1648:1679  Traits(_color,_country,_height) */\n      dup2\n      mstore\n      0x20\n      add\n        /* \"contracts/basics.sol\":1662:1670  _country */\n      dup4\n        /* \"contracts/basics.sol\":1648:1679  Traits(_color,_country,_height) */\n      dup2\n      mstore\n      0x20\n      add\n        /* \"contracts/basics.sol\":1671:1678  _height */\n      dup3\n        /* \"contracts/basics.sol\":1648:1679  Traits(_color,_country,_height) */\n      dup2\n      mstore\n      pop\n        /* \"contracts/basics.sol\":1627:1645  characterOfAPerson */\n      0x05\n        /* \"contracts/basics.sol\":1627:1679  characterOfAPerson = Traits(_color,_country,_height) */\n      0x00\n      dup3\n      add\n      mload\n      dup2\n      0x00\n      add\n      swap1\n      dup1\n      mload\n      swap1\n      0x20\n      add\n      swap1\n      tag_80\n      swap3\n      swap2\n      swap1\n      tag_81\n      jump\t// in\n    tag_80:\n      pop\n      0x20\n      dup3\n      add\n      mload\n      dup2\n      0x01\n      add\n      swap1\n      dup1\n      mload\n      swap1\n      0x20\n      add\n      swap1\n      tag_82\n      swap3\n      swap2\n      swap1\n      tag_81\n      jump\t// in\n    tag_82:\n      pop\n      0x40\n      dup3\n      add\n      mload\n      dup2\n      0x02\n      add\n      sstore\n      swap1\n      pop\n      pop\n        /* \"contracts/basics.sol\":1523:1687  function assignValues(string memory _color,string memory _country,uint _height) \r... */\n      pop\n      pop\n      pop\n      jump\t// out\n        /* \"contracts/basics.sol\":1711:1810  function getTraits() public view returns(Traits memory){\r... */\n    tag_38:\n        /* \"contracts/basics.sol\":1752:1765  Traits memory */\n      tag_83\n      tag_84\n      jump\t// in\n    tag_83:\n        /* \"contracts/basics.sol\":1784:1802  characterOfAPerson */\n      0x05\n        /* \"contracts/basics.sol\":1777:1802  return characterOfAPerson */\n      mload(0x40)\n      dup1\n      0x60\n      add\n      0x40\n      mstore\n      swap1\n      dup2\n      0x00\n      dup3\n      add\n      dup1\n      sload\n      tag_86\n      swap1\n      tag_51\n      jump\t// in\n    tag_86:\n      dup1\n      0x1f\n      add\n      0x20\n      dup1\n      swap2\n      div\n      mul\n      0x20\n      add\n      mload(0x40)\n      swap1\n      dup2\n      add\n      0x40\n      mstore\n      dup1\n      swap3\n      swap2\n      swap1\n      dup2\n      dup2\n      mstore\n      0x20\n      add\n      dup3\n      dup1\n      sload\n      tag_87\n      swap1\n      tag_51\n      jump\t// in\n    tag_87:\n      dup1\n      iszero\n      tag_88\n      jumpi\n      dup1\n      0x1f\n      lt\n      tag_89\n      jumpi\n      0x0100\n      dup1\n      dup4\n      sload\n      div\n      mul\n      dup4\n      mstore\n      swap2\n      0x20\n      add\n      swap2\n      jump(tag_88)\n    tag_89:\n      dup3\n      add\n      swap2\n      swap1\n      0x00\n      mstore\n      keccak256(0x00, 0x20)\n      swap1\n    tag_90:\n      dup2\n      sload\n      dup2\n      mstore\n      swap1\n      0x01\n      add\n      swap1\n      0x20\n      add\n      dup1\n      dup4\n      gt\n      tag_90\n      jumpi\n      dup3\n      swap1\n      sub\n      0x1f\n      and\n      dup3\n      add\n      swap2\n    tag_88:\n      pop\n      pop\n      pop\n      pop\n      pop\n      dup2\n      mstore\n      0x20\n      add\n      0x01\n      dup3\n      add\n      dup1\n      sload\n      tag_91\n      swap1\n      tag_51\n      jump\t// in\n    tag_91:\n      dup1\n      0x1f\n      add\n      0x20\n      dup1\n      swap2\n      div\n      mul\n      0x20\n      add\n      mload(0x40)\n      swap1\n      dup2\n      add\n      0x40\n      mstore\n      dup1\n      swap3\n      swap2\n      swap1\n      dup2\n      dup2\n      mstore\n      0x20\n      add\n      dup3\n      dup1\n      sload\n      tag_92\n      swap1\n      tag_51\n      jump\t// in\n    tag_92:\n      dup1\n      iszero\n      tag_93\n      jumpi\n      dup1\n      0x1f\n      lt\n      tag_94\n      jumpi\n      0x0100\n      dup1\n      dup4\n      sload\n      div\n      mul\n      dup4\n      mstore\n      swap2\n      0x20\n      add\n      swap2\n      jump(tag_93)\n    tag_94:\n      dup3\n      add\n      swap2\n      swap1\n      0x00\n      mstore\n      keccak256(0x00, 0x20)\n      swap1\n    tag_95:\n      dup2\n      sload\n      dup2\n      mstore\n      swap1\n      0x01\n      add\n      swap1\n      0x20\n      add\n      dup1\n      dup4\n      gt\n      tag_95\n      jumpi\n      dup3\n      swap1\n      sub\n      0x1f\n      and\n      dup3\n      add\n      swap2\n    tag_93:\n      pop\n      pop\n      pop\n      pop\n      pop\n      dup2\n      mstore\n      0x20\n      add\n      0x02\n      dup3\n      add\n      sload\n      dup2\n      mstore\n      pop\n      pop\n      swap1\n      pop\n        /* \"contracts/basics.sol\":1711:1810  function getTraits() public view returns(Traits memory){\r... */\n      swap1\n      jump\t// out\n        /* \"contracts/basics.sol\":771:797  uint[] public luckNumbers2 */\n    tag_44:\n      0x04\n      dup2\n      dup2\n      sload\n      dup2\n      lt\n      tag_96\n      jumpi\n      0x00\n      dup1\n      revert\n    tag_96:\n      swap1\n      0x00\n      mstore\n      keccak256(0x00, 0x20)\n      add\n      0x00\n      swap2\n      pop\n      swap1\n      pop\n      sload\n      dup2\n      jump\t// out\n        /* \"contracts/basics.sol\":613:640  uint[2] public luckyNumbers */\n    tag_48:\n      0x02\n      dup2\n      0x02\n      dup2\n      lt\n      tag_98\n      jumpi\n      0x00\n      dup1\n      revert\n    tag_98:\n      add\n      0x00\n      swap2\n      pop\n      swap1\n      pop\n      sload\n      dup2\n      jump\t// out\n    tag_81:\n      dup3\n      dup1\n      sload\n      tag_100\n      swap1\n      tag_51\n      jump\t// in\n    tag_100:\n      swap1\n      0x00\n      mstore\n      keccak256(0x00, 0x20)\n      swap1\n      0x1f\n      add\n      0x20\n      swap1\n      div\n      dup2\n      add\n      swap3\n      dup3\n      tag_102\n      jumpi\n      0x00\n      dup6\n      sstore\n      jump(tag_101)\n    tag_102:\n      dup3\n      0x1f\n      lt\n      tag_103\n      jumpi\n      dup1\n      mload\n      not(0xff)\n      and\n      dup4\n      dup1\n      add\n      or\n      dup6\n      sstore\n      jump(tag_101)\n    tag_103:\n      dup3\n      dup1\n      add\n      0x01\n      add\n      dup6\n      sstore\n      dup3\n      iszero\n      tag_101\n      jumpi\n      swap2\n      dup3\n      add\n    tag_104:\n      dup3\n      dup2\n      gt\n      iszero\n      tag_105\n      jumpi\n      dup3\n      mload\n      dup3\n      sstore\n      swap2\n      0x20\n      add\n      swap2\n      swap1\n      0x01\n      add\n      swap1\n      jump(tag_104)\n    tag_105:\n    tag_101:\n      pop\n      swap1\n      pop\n      tag_106\n      swap2\n      swap1\n      tag_107\n      jump\t// in\n    tag_106:\n      pop\n      swap1\n      jump\t// out\n    tag_84:\n      mload(0x40)\n      dup1\n      0x60\n      add\n      0x40\n      mstore\n      dup1\n      0x60\n      dup2\n      mstore\n      0x20\n      add\n      0x60\n      dup2\n      mstore\n      0x20\n      add\n      0x00\n      dup2\n      mstore\n      pop\n      swap1\n      jump\t// out\n    tag_107:\n    tag_108:\n      dup1\n      dup3\n      gt\n      iszero\n      tag_109\n      jumpi\n      0x00\n      dup2\n      0x00\n      swap1\n      sstore\n      pop\n      0x01\n      add\n      jump(tag_108)\n    tag_109:\n      pop\n      swap1\n      jump\t// out\n        /* \"#utility.yul\":7:419   */\n    tag_111:\n        /* \"#utility.yul\":85:90   */\n      0x00\n        /* \"#utility.yul\":110:176   */\n      tag_113\n        /* \"#utility.yul\":126:175   */\n      tag_114\n        /* \"#utility.yul\":168:174   */\n      dup5\n        /* \"#utility.yul\":126:175   */\n      tag_115\n      jump\t// in\n    tag_114:\n        /* \"#utility.yul\":110:176   */\n      tag_116\n      jump\t// in\n    tag_113:\n        /* \"#utility.yul\":101:176   */\n      swap1\n      pop\n        /* \"#utility.yul\":199:205   */\n      dup3\n        /* \"#utility.yul\":192:197   */\n      dup2\n        /* \"#utility.yul\":185:206   */\n      mstore\n        /* \"#utility.yul\":237:241   */\n      0x20\n        /* \"#utility.yul\":230:235   */\n      dup2\n        /* \"#utility.yul\":226:242   */\n      add\n        /* \"#utility.yul\":275:278   */\n      dup5\n        /* \"#utility.yul\":266:272   */\n      dup5\n        /* \"#utility.yul\":261:264   */\n      dup5\n        /* \"#utility.yul\":257:273   */\n      add\n        /* \"#utility.yul\":254:279   */\n      gt\n        /* \"#utility.yul\":251:363   */\n      iszero\n      tag_117\n      jumpi\n        /* \"#utility.yul\":282:361   */\n      tag_118\n      tag_119\n      jump\t// in\n    tag_118:\n        /* \"#utility.yul\":251:363   */\n    tag_117:\n        /* \"#utility.yul\":372:413   */\n      tag_120\n        /* \"#utility.yul\":406:412   */\n      dup5\n        /* \"#utility.yul\":401:404   */\n      dup3\n        /* \"#utility.yul\":396:399   */\n      dup6\n        /* \"#utility.yul\":372:413   */\n      tag_121\n      jump\t// in\n    tag_120:\n        /* \"#utility.yul\":91:419   */\n      pop\n        /* \"#utility.yul\":7:419   */\n      swap4\n      swap3\n      pop\n      pop\n      pop\n      jump\t// out\n        /* \"#utility.yul\":439:779   */\n    tag_122:\n        /* \"#utility.yul\":495:500   */\n      0x00\n        /* \"#utility.yul\":544:547   */\n      dup3\n        /* \"#utility.yul\":537:541   */\n      0x1f\n        /* \"#utility.yul\":529:535   */\n      dup4\n        /* \"#utility.yul\":525:542   */\n      add\n        /* \"#utility.yul\":521:548   */\n      slt\n        /* \"#utility.yul\":511:633   */\n      tag_124\n      jumpi\n        /* \"#utility.yul\":552:631   */\n      tag_125\n      tag_126\n      jump\t// in\n    tag_125:\n        /* \"#utility.yul\":511:633   */\n    tag_124:\n        /* \"#utility.yul\":669:675   */\n      dup2\n        /* \"#utility.yul\":656:676   */\n      calldataload\n        /* \"#utility.yul\":694:773   */\n      tag_127\n        /* \"#utility.yul\":769:772   */\n      dup5\n        /* \"#utility.yul\":761:767   */\n      dup3\n        /* \"#utility.yul\":754:758   */\n      0x20\n        /* \"#utility.yul\":746:752   */\n      dup7\n        /* \"#utility.yul\":742:759   */\n      add\n        /* \"#utility.yul\":694:773   */\n      tag_111\n      jump\t// in\n    tag_127:\n        /* \"#utility.yul\":685:773   */\n      swap2\n      pop\n        /* \"#utility.yul\":501:779   */\n      pop\n        /* \"#utility.yul\":439:779   */\n      swap3\n      swap2\n      pop\n      pop\n      jump\t// out\n        /* \"#utility.yul\":785:924   */\n    tag_128:\n        /* \"#utility.yul\":831:836   */\n      0x00\n        /* \"#utility.yul\":869:875   */\n      dup2\n        /* \"#utility.yul\":856:876   */\n      calldataload\n        /* \"#utility.yul\":847:876   */\n      swap1\n      pop\n        /* \"#utility.yul\":885:918   */\n      tag_130\n        /* \"#utility.yul\":912:917   */\n      dup2\n        /* \"#utility.yul\":885:918   */\n      tag_131\n      jump\t// in\n    tag_130:\n        /* \"#utility.yul\":785:924   */\n      swap3\n      swap2\n      pop\n      pop\n      jump\t// out\n        /* \"#utility.yul\":930:1909   */\n    tag_35:\n        /* \"#utility.yul\":1027:1033   */\n      0x00\n        /* \"#utility.yul\":1035:1041   */\n      dup1\n        /* \"#utility.yul\":1043:1049   */\n      0x00\n        /* \"#utility.yul\":1092:1094   */\n      0x60\n        /* \"#utility.yul\":1080:1089   */\n      dup5\n        /* \"#utility.yul\":1071:1078   */\n      dup7\n        /* \"#utility.yul\":1067:1090   */\n      sub\n        /* \"#utility.yul\":1063:1095   */\n      slt\n        /* \"#utility.yul\":1060:1179   */\n      iszero\n      tag_133\n      jumpi\n        /* \"#utility.yul\":1098:1177   */\n      tag_134\n      tag_135\n      jump\t// in\n    tag_134:\n        /* \"#utility.yul\":1060:1179   */\n    tag_133:\n        /* \"#utility.yul\":1246:1247   */\n      0x00\n        /* \"#utility.yul\":1235:1244   */\n      dup5\n        /* \"#utility.yul\":1231:1248   */\n      add\n        /* \"#utility.yul\":1218:1249   */\n      calldataload\n        /* \"#utility.yul\":1276:1294   */\n      0xffffffffffffffff\n        /* \"#utility.yul\":1268:1274   */\n      dup2\n        /* \"#utility.yul\":1265:1295   */\n      gt\n        /* \"#utility.yul\":1262:1379   */\n      iszero\n      tag_136\n      jumpi\n        /* \"#utility.yul\":1298:1377   */\n      tag_137\n      tag_138\n      jump\t// in\n    tag_137:\n        /* \"#utility.yul\":1262:1379   */\n    tag_136:\n        /* \"#utility.yul\":1403:1466   */\n      tag_139\n        /* \"#utility.yul\":1458:1465   */\n      dup7\n        /* \"#utility.yul\":1449:1455   */\n      dup3\n        /* \"#utility.yul\":1438:1447   */\n      dup8\n        /* \"#utility.yul\":1434:1456   */\n      add\n        /* \"#utility.yul\":1403:1466   */\n      tag_122\n      jump\t// in\n    tag_139:\n        /* \"#utility.yul\":1393:1466   */\n      swap4\n      pop\n        /* \"#utility.yul\":1189:1476   */\n      pop\n        /* \"#utility.yul\":1543:1545   */\n      0x20\n        /* \"#utility.yul\":1532:1541   */\n      dup5\n        /* \"#utility.yul\":1528:1546   */\n      add\n        /* \"#utility.yul\":1515:1547   */\n      calldataload\n        /* \"#utility.yul\":1574:1592   */\n      0xffffffffffffffff\n        /* \"#utility.yul\":1566:1572   */\n      dup2\n        /* \"#utility.yul\":1563:1593   */\n      gt\n        /* \"#utility.yul\":1560:1677   */\n      iszero\n      tag_140\n      jumpi\n        /* \"#utility.yul\":1596:1675   */\n      tag_141\n      tag_138\n      jump\t// in\n    tag_141:\n        /* \"#utility.yul\":1560:1677   */\n    tag_140:\n        /* \"#utility.yul\":1701:1764   */\n      tag_142\n        /* \"#utility.yul\":1756:1763   */\n      dup7\n        /* \"#utility.yul\":1747:1753   */\n      dup3\n        /* \"#utility.yul\":1736:1745   */\n      dup8\n        /* \"#utility.yul\":1732:1754   */\n      add\n        /* \"#utility.yul\":1701:1764   */\n      tag_122\n      jump\t// in\n    tag_142:\n        /* \"#utility.yul\":1691:1764   */\n      swap3\n      pop\n        /* \"#utility.yul\":1486:1774   */\n      pop\n        /* \"#utility.yul\":1813:1815   */\n      0x40\n        /* \"#utility.yul\":1839:1892   */\n      tag_143\n        /* \"#utility.yul\":1884:1891   */\n      dup7\n        /* \"#utility.yul\":1875:1881   */\n      dup3\n        /* \"#utility.yul\":1864:1873   */\n      dup8\n        /* \"#utility.yul\":1860:1882   */\n      add\n        /* \"#utility.yul\":1839:1892   */\n      tag_128\n      jump\t// in\n    tag_143:\n        /* \"#utility.yul\":1829:1892   */\n      swap2\n      pop\n        /* \"#utility.yul\":1784:1902   */\n      pop\n        /* \"#utility.yul\":930:1909   */\n      swap3\n      pop\n      swap3\n      pop\n      swap3\n      jump\t// out\n        /* \"#utility.yul\":1915:2244   */\n    tag_43:\n        /* \"#utility.yul\":1974:1980   */\n      0x00\n        /* \"#utility.yul\":2023:2025   */\n      0x20\n        /* \"#utility.yul\":2011:2020   */\n      dup3\n        /* \"#utility.yul\":2002:2009   */\n      dup5\n        /* \"#utility.yul\":1998:2021   */\n      sub\n        /* \"#utility.yul\":1994:2026   */\n      slt\n        /* \"#utility.yul\":1991:2110   */\n      iszero\n      tag_145\n      jumpi\n        /* \"#utility.yul\":2029:2108   */\n      tag_146\n      tag_135\n      jump\t// in\n    tag_146:\n        /* \"#utility.yul\":1991:2110   */\n    tag_145:\n        /* \"#utility.yul\":2149:2150   */\n      0x00\n        /* \"#utility.yul\":2174:2227   */\n      tag_147\n        /* \"#utility.yul\":2219:2226   */\n      dup5\n        /* \"#utility.yul\":2210:2216   */\n      dup3\n        /* \"#utility.yul\":2199:2208   */\n      dup6\n        /* \"#utility.yul\":2195:2217   */\n      add\n        /* \"#utility.yul\":2174:2227   */\n      tag_128\n      jump\t// in\n    tag_147:\n        /* \"#utility.yul\":2164:2227   */\n      swap2\n      pop\n        /* \"#utility.yul\":2120:2237   */\n      pop\n        /* \"#utility.yul\":1915:2244   */\n      swap3\n      swap2\n      pop\n      pop\n      jump\t// out\n        /* \"#utility.yul\":2250:2724   */\n    tag_19:\n        /* \"#utility.yul\":2318:2324   */\n      0x00\n        /* \"#utility.yul\":2326:2332   */\n      dup1\n        /* \"#utility.yul\":2375:2377   */\n      0x40\n        /* \"#utility.yul\":2363:2372   */\n      dup4\n        /* \"#utility.yul\":2354:2361   */\n      dup6\n        /* \"#utility.yul\":2350:2373   */\n      sub\n        /* \"#utility.yul\":2346:2378   */\n      slt\n        /* \"#utility.yul\":2343:2462   */\n      iszero\n      tag_149\n      jumpi\n        /* \"#utility.yul\":2381:2460   */\n      tag_150\n      tag_135\n      jump\t// in\n    tag_150:\n        /* \"#utility.yul\":2343:2462   */\n    tag_149:\n        /* \"#utility.yul\":2501:2502   */\n      0x00\n        /* \"#utility.yul\":2526:2579   */\n      tag_151\n        /* \"#utility.yul\":2571:2578   */\n      dup6\n        /* \"#utility.yul\":2562:2568   */\n      dup3\n        /* \"#utility.yul\":2551:2560   */\n      dup7\n        /* \"#utility.yul\":2547:2569   */\n      add\n        /* \"#utility.yul\":2526:2579   */\n      tag_128\n      jump\t// in\n    tag_151:\n        /* \"#utility.yul\":2516:2579   */\n      swap3\n      pop\n        /* \"#utility.yul\":2472:2589   */\n      pop\n        /* \"#utility.yul\":2628:2630   */\n      0x20\n        /* \"#utility.yul\":2654:2707   */\n      tag_152\n        /* \"#utility.yul\":2699:2706   */\n      dup6\n        /* \"#utility.yul\":2690:2696   */\n      dup3\n        /* \"#utility.yul\":2679:2688   */\n      dup7\n        /* \"#utility.yul\":2675:2697   */\n      add\n        /* \"#utility.yul\":2654:2707   */\n      tag_128\n      jump\t// in\n    tag_152:\n        /* \"#utility.yul\":2644:2707   */\n      swap2\n      pop\n        /* \"#utility.yul\":2599:2717   */\n      pop\n        /* \"#utility.yul\":2250:2724   */\n      swap3\n      pop\n      swap3\n      swap1\n      pop\n      jump\t// out\n        /* \"#utility.yul\":2730:3495   */\n    tag_31:\n        /* \"#utility.yul\":2816:2822   */\n      0x00\n        /* \"#utility.yul\":2824:2830   */\n      dup1\n        /* \"#utility.yul\":2832:2838   */\n      0x00\n        /* \"#utility.yul\":2840:2846   */\n      dup1\n        /* \"#utility.yul\":2889:2892   */\n      0x80\n        /* \"#utility.yul\":2877:2886   */\n      dup6\n        /* \"#utility.yul\":2868:2875   */\n      dup8\n        /* \"#utility.yul\":2864:2887   */\n      sub\n        /* \"#utility.yul\":2860:2893   */\n      slt\n        /* \"#utility.yul\":2857:2977   */\n      iszero\n      tag_154\n      jumpi\n        /* \"#utility.yul\":2896:2975   */\n      tag_155\n      tag_135\n      jump\t// in\n    tag_155:\n        /* \"#utility.yul\":2857:2977   */\n    tag_154:\n        /* \"#utility.yul\":3016:3017   */\n      0x00\n        /* \"#utility.yul\":3041:3094   */\n      tag_156\n        /* \"#utility.yul\":3086:3093   */\n      dup8\n        /* \"#utility.yul\":3077:3083   */\n      dup3\n        /* \"#utility.yul\":3066:3075   */\n      dup9\n        /* \"#utility.yul\":3062:3084   */\n      add\n        /* \"#utility.yul\":3041:3094   */\n      tag_128\n      jump\t// in\n    tag_156:\n        /* \"#utility.yul\":3031:3094   */\n      swap5\n      pop\n        /* \"#utility.yul\":2987:3104   */\n      pop\n        /* \"#utility.yul\":3143:3145   */\n      0x20\n        /* \"#utility.yul\":3169:3222   */\n      tag_157\n        /* \"#utility.yul\":3214:3221   */\n      dup8\n        /* \"#utility.yul\":3205:3211   */\n      dup3\n        /* \"#utility.yul\":3194:3203   */\n      dup9\n        /* \"#utility.yul\":3190:3212   */\n      add\n        /* \"#utility.yul\":3169:3222   */\n      tag_128\n      jump\t// in\n    tag_157:\n        /* \"#utility.yul\":3159:3222   */\n      swap4\n      pop\n        /* \"#utility.yul\":3114:3232   */\n      pop\n        /* \"#utility.yul\":3271:3273   */\n      0x40\n        /* \"#utility.yul\":3297:3350   */\n      tag_158\n        /* \"#utility.yul\":3342:3349   */\n      dup8\n        /* \"#utility.yul\":3333:3339   */\n      dup3\n        /* \"#utility.yul\":3322:3331   */\n      dup9\n        /* \"#utility.yul\":3318:3340   */\n      add\n        /* \"#utility.yul\":3297:3350   */\n      tag_128\n      jump\t// in\n    tag_158:\n        /* \"#utility.yul\":3287:3350   */\n      swap3\n      pop\n        /* \"#utility.yul\":3242:3360   */\n      pop\n        /* \"#utility.yul\":3399:3401   */\n      0x60\n        /* \"#utility.yul\":3425:3478   */\n      tag_159\n        /* \"#utility.yul\":3470:3477   */\n      dup8\n        /* \"#utility.yul\":3461:3467   */\n      dup3\n        /* \"#utility.yul\":3450:3459   */\n      dup9\n        /* \"#utility.yul\":3446:3468   */\n      add\n        /* \"#utility.yul\":3425:3478   */\n      tag_128\n      jump\t// in\n    tag_159:\n        /* \"#utility.yul\":3415:3478   */\n      swap2\n      pop\n        /* \"#utility.yul\":3370:3488   */\n      pop\n        /* \"#utility.yul\":2730:3495   */\n      swap3\n      swap6\n      swap2\n      swap5\n      pop\n      swap3\n      pop\n      jump\t// out\n        /* \"#utility.yul\":3501:3845   */\n    tag_160:\n        /* \"#utility.yul\":3579:3582   */\n      0x00\n        /* \"#utility.yul\":3607:3646   */\n      tag_162\n        /* \"#utility.yul\":3640:3645   */\n      dup3\n        /* \"#utility.yul\":3607:3646   */\n      tag_163\n      jump\t// in\n    tag_162:\n        /* \"#utility.yul\":3662:3723   */\n      tag_164\n        /* \"#utility.yul\":3716:3722   */\n      dup2\n        /* \"#utility.yul\":3711:3714   */\n      dup6\n        /* \"#utility.yul\":3662:3723   */\n      tag_165\n      jump\t// in\n    tag_164:\n        /* \"#utility.yul\":3655:3723   */\n      swap4\n      pop\n        /* \"#utility.yul\":3732:3784   */\n      tag_166\n        /* \"#utility.yul\":3777:3783   */\n      dup2\n        /* \"#utility.yul\":3772:3775   */\n      dup6\n        /* \"#utility.yul\":3765:3769   */\n      0x20\n        /* \"#utility.yul\":3758:3763   */\n      dup7\n        /* \"#utility.yul\":3754:3770   */\n      add\n        /* \"#utility.yul\":3732:3784   */\n      tag_167\n      jump\t// in\n    tag_166:\n        /* \"#utility.yul\":3809:3838   */\n      tag_168\n        /* \"#utility.yul\":3831:3837   */\n      dup2\n        /* \"#utility.yul\":3809:3838   */\n      tag_169\n      jump\t// in\n    tag_168:\n        /* \"#utility.yul\":3804:3807   */\n      dup5\n        /* \"#utility.yul\":3800:3839   */\n      add\n        /* \"#utility.yul\":3793:3839   */\n      swap2\n      pop\n        /* \"#utility.yul\":3583:3845   */\n      pop\n        /* \"#utility.yul\":3501:3845   */\n      swap3\n      swap2\n      pop\n      pop\n      jump\t// out\n        /* \"#utility.yul\":3851:4215   */\n    tag_170:\n        /* \"#utility.yul\":3939:3942   */\n      0x00\n        /* \"#utility.yul\":3967:4006   */\n      tag_172\n        /* \"#utility.yul\":4000:4005   */\n      dup3\n        /* \"#utility.yul\":3967:4006   */\n      tag_163\n      jump\t// in\n    tag_172:\n        /* \"#utility.yul\":4022:4093   */\n      tag_173\n        /* \"#utility.yul\":4086:4092   */\n      dup2\n        /* \"#utility.yul\":4081:4084   */\n      dup6\n        /* \"#utility.yul\":4022:4093   */\n      tag_174\n      jump\t// in\n    tag_173:\n        /* \"#utility.yul\":4015:4093   */\n      swap4\n      pop\n        /* \"#utility.yul\":4102:4154   */\n      tag_175\n        /* \"#utility.yul\":4147:4153   */\n      dup2\n        /* \"#utility.yul\":4142:4145   */\n      dup6\n        /* \"#utility.yul\":4135:4139   */\n      0x20\n        /* \"#utility.yul\":4128:4133   */\n      dup7\n        /* \"#utility.yul\":4124:4140   */\n      add\n        /* \"#utility.yul\":4102:4154   */\n      tag_167\n      jump\t// in\n    tag_175:\n        /* \"#utility.yul\":4179:4208   */\n      tag_176\n        /* \"#utility.yul\":4201:4207   */\n      dup2\n        /* \"#utility.yul\":4179:4208   */\n      tag_169\n      jump\t// in\n    tag_176:\n        /* \"#utility.yul\":4174:4177   */\n      dup5\n        /* \"#utility.yul\":4170:4209   */\n      add\n        /* \"#utility.yul\":4163:4209   */\n      swap2\n      pop\n        /* \"#utility.yul\":3943:4215   */\n      pop\n        /* \"#utility.yul\":3851:4215   */\n      swap3\n      swap2\n      pop\n      pop\n      jump\t// out\n        /* \"#utility.yul\":4273:5124   */\n    tag_177:\n        /* \"#utility.yul\":4386:4389   */\n      0x00\n        /* \"#utility.yul\":4422:4426   */\n      0x60\n        /* \"#utility.yul\":4417:4420   */\n      dup4\n        /* \"#utility.yul\":4413:4427   */\n      add\n        /* \"#utility.yul\":4510:4514   */\n      0x00\n        /* \"#utility.yul\":4503:4508   */\n      dup4\n        /* \"#utility.yul\":4499:4515   */\n      add\n        /* \"#utility.yul\":4493:4516   */\n      mload\n        /* \"#utility.yul\":4563:4566   */\n      dup5\n        /* \"#utility.yul\":4557:4561   */\n      dup3\n        /* \"#utility.yul\":4553:4567   */\n      sub\n        /* \"#utility.yul\":4546:4550   */\n      0x00\n        /* \"#utility.yul\":4541:4544   */\n      dup7\n        /* \"#utility.yul\":4537:4551   */\n      add\n        /* \"#utility.yul\":4530:4568   */\n      mstore\n        /* \"#utility.yul\":4589:4662   */\n      tag_179\n        /* \"#utility.yul\":4657:4661   */\n      dup3\n        /* \"#utility.yul\":4643:4655   */\n      dup3\n        /* \"#utility.yul\":4589:4662   */\n      tag_160\n      jump\t// in\n    tag_179:\n        /* \"#utility.yul\":4581:4662   */\n      swap2\n      pop\n        /* \"#utility.yul\":4437:4673   */\n      pop\n        /* \"#utility.yul\":4758:4762   */\n      0x20\n        /* \"#utility.yul\":4751:4756   */\n      dup4\n        /* \"#utility.yul\":4747:4763   */\n      add\n        /* \"#utility.yul\":4741:4764   */\n      mload\n        /* \"#utility.yul\":4811:4814   */\n      dup5\n        /* \"#utility.yul\":4805:4809   */\n      dup3\n        /* \"#utility.yul\":4801:4815   */\n      sub\n        /* \"#utility.yul\":4794:4798   */\n      0x20\n        /* \"#utility.yul\":4789:4792   */\n      dup7\n        /* \"#utility.yul\":4785:4799   */\n      add\n        /* \"#utility.yul\":4778:4816   */\n      mstore\n        /* \"#utility.yul\":4837:4910   */\n      tag_180\n        /* \"#utility.yul\":4905:4909   */\n      dup3\n        /* \"#utility.yul\":4891:4903   */\n      dup3\n        /* \"#utility.yul\":4837:4910   */\n      tag_160\n      jump\t// in\n    tag_180:\n        /* \"#utility.yul\":4829:4910   */\n      swap2\n      pop\n        /* \"#utility.yul\":4683:4921   */\n      pop\n        /* \"#utility.yul\":5005:5009   */\n      0x40\n        /* \"#utility.yul\":4998:5003   */\n      dup4\n        /* \"#utility.yul\":4994:5010   */\n      add\n        /* \"#utility.yul\":4988:5011   */\n      mload\n        /* \"#utility.yul\":5024:5087   */\n      tag_181\n        /* \"#utility.yul\":5081:5085   */\n      0x40\n        /* \"#utility.yul\":5076:5079   */\n      dup7\n        /* \"#utility.yul\":5072:5086   */\n      add\n        /* \"#utility.yul\":5058:5070   */\n      dup3\n        /* \"#utility.yul\":5024:5087   */\n      tag_182\n      jump\t// in\n    tag_181:\n        /* \"#utility.yul\":4931:5097   */\n      pop\n        /* \"#utility.yul\":5114:5118   */\n      dup1\n        /* \"#utility.yul\":5107:5118   */\n      swap2\n      pop\n        /* \"#utility.yul\":4391:5124   */\n      pop\n        /* \"#utility.yul\":4273:5124   */\n      swap3\n      swap2\n      pop\n      pop\n      jump\t// out\n        /* \"#utility.yul\":5130:5238   */\n    tag_182:\n        /* \"#utility.yul\":5207:5231   */\n      tag_184\n        /* \"#utility.yul\":5225:5230   */\n      dup2\n        /* \"#utility.yul\":5207:5231   */\n      tag_185\n      jump\t// in\n    tag_184:\n        /* \"#utility.yul\":5202:5205   */\n      dup3\n        /* \"#utility.yul\":5195:5232   */\n      mstore\n        /* \"#utility.yul\":5130:5238   */\n      pop\n      pop\n      jump\t// out\n        /* \"#utility.yul\":5244:5362   */\n    tag_186:\n        /* \"#utility.yul\":5331:5355   */\n      tag_188\n        /* \"#utility.yul\":5349:5354   */\n      dup2\n        /* \"#utility.yul\":5331:5355   */\n      tag_185\n      jump\t// in\n    tag_188:\n        /* \"#utility.yul\":5326:5329   */\n      dup3\n        /* \"#utility.yul\":5319:5356   */\n      mstore\n        /* \"#utility.yul\":5244:5362   */\n      pop\n      pop\n      jump\t// out\n        /* \"#utility.yul\":5368:5681   */\n    tag_16:\n        /* \"#utility.yul\":5481:5485   */\n      0x00\n        /* \"#utility.yul\":5519:5521   */\n      0x20\n        /* \"#utility.yul\":5508:5517   */\n      dup3\n        /* \"#utility.yul\":5504:5522   */\n      add\n        /* \"#utility.yul\":5496:5522   */\n      swap1\n      pop\n        /* \"#utility.yul\":5568:5577   */\n      dup2\n        /* \"#utility.yul\":5562:5566   */\n      dup2\n        /* \"#utility.yul\":5558:5578   */\n      sub\n        /* \"#utility.yul\":5554:5555   */\n      0x00\n        /* \"#utility.yul\":5543:5552   */\n      dup4\n        /* \"#utility.yul\":5539:5556   */\n      add\n        /* \"#utility.yul\":5532:5579   */\n      mstore\n        /* \"#utility.yul\":5596:5674   */\n      tag_190\n        /* \"#utility.yul\":5669:5673   */\n      dup2\n        /* \"#utility.yul\":5660:5666   */\n      dup5\n        /* \"#utility.yul\":5596:5674   */\n      tag_170\n      jump\t// in\n    tag_190:\n        /* \"#utility.yul\":5588:5674   */\n      swap1\n      pop\n        /* \"#utility.yul\":5368:5681   */\n      swap3\n      swap2\n      pop\n      pop\n      jump\t// out\n        /* \"#utility.yul\":5687:6311   */\n    tag_28:\n        /* \"#utility.yul\":5876:5880   */\n      0x00\n        /* \"#utility.yul\":5914:5916   */\n      0x60\n        /* \"#utility.yul\":5903:5912   */\n      dup3\n        /* \"#utility.yul\":5899:5917   */\n      add\n        /* \"#utility.yul\":5891:5917   */\n      swap1\n      pop\n        /* \"#utility.yul\":5963:5972   */\n      dup2\n        /* \"#utility.yul\":5957:5961   */\n      dup2\n        /* \"#utility.yul\":5953:5973   */\n      sub\n        /* \"#utility.yul\":5949:5950   */\n      0x00\n        /* \"#utility.yul\":5938:5947   */\n      dup4\n        /* \"#utility.yul\":5934:5951   */\n      add\n        /* \"#utility.yul\":5927:5974   */\n      mstore\n        /* \"#utility.yul\":5991:6069   */\n      tag_192\n        /* \"#utility.yul\":6064:6068   */\n      dup2\n        /* \"#utility.yul\":6055:6061   */\n      dup7\n        /* \"#utility.yul\":5991:6069   */\n      tag_170\n      jump\t// in\n    tag_192:\n        /* \"#utility.yul\":5983:6069   */\n      swap1\n      pop\n        /* \"#utility.yul\":6116:6125   */\n      dup2\n        /* \"#utility.yul\":6110:6114   */\n      dup2\n        /* \"#utility.yul\":6106:6126   */\n      sub\n        /* \"#utility.yul\":6101:6103   */\n      0x20\n        /* \"#utility.yul\":6090:6099   */\n      dup4\n        /* \"#utility.yul\":6086:6104   */\n      add\n        /* \"#utility.yul\":6079:6127   */\n      mstore\n        /* \"#utility.yul\":6144:6222   */\n      tag_193\n        /* \"#utility.yul\":6217:6221   */\n      dup2\n        /* \"#utility.yul\":6208:6214   */\n      dup6\n        /* \"#utility.yul\":6144:6222   */\n      tag_170\n      jump\t// in\n    tag_193:\n        /* \"#utility.yul\":6136:6222   */\n      swap1\n      pop\n        /* \"#utility.yul\":6232:6304   */\n      tag_194\n        /* \"#utility.yul\":6300:6302   */\n      0x40\n        /* \"#utility.yul\":6289:6298   */\n      dup4\n        /* \"#utility.yul\":6285:6303   */\n      add\n        /* \"#utility.yul\":6276:6282   */\n      dup5\n        /* \"#utility.yul\":6232:6304   */\n      tag_186\n      jump\t// in\n    tag_194:\n        /* \"#utility.yul\":5687:6311   */\n      swap5\n      swap4\n      pop\n      pop\n      pop\n      pop\n      jump\t// out\n        /* \"#utility.yul\":6317:6678   */\n    tag_40:\n        /* \"#utility.yul\":6454:6458   */\n      0x00\n        /* \"#utility.yul\":6492:6494   */\n      0x20\n        /* \"#utility.yul\":6481:6490   */\n      dup3\n        /* \"#utility.yul\":6477:6495   */\n      add\n        /* \"#utility.yul\":6469:6495   */\n      swap1\n      pop\n        /* \"#utility.yul\":6541:6550   */\n      dup2\n        /* \"#utility.yul\":6535:6539   */\n      dup2\n        /* \"#utility.yul\":6531:6551   */\n      sub\n        /* \"#utility.yul\":6527:6528   */\n      0x00\n        /* \"#utility.yul\":6516:6525   */\n      dup4\n        /* \"#utility.yul\":6512:6529   */\n      add\n        /* \"#utility.yul\":6505:6552   */\n      mstore\n        /* \"#utility.yul\":6569:6671   */\n      tag_196\n        /* \"#utility.yul\":6666:6670   */\n      dup2\n        /* \"#utility.yul\":6657:6663   */\n      dup5\n        /* \"#utility.yul\":6569:6671   */\n      tag_177\n      jump\t// in\n    tag_196:\n        /* \"#utility.yul\":6561:6671   */\n      swap1\n      pop\n        /* \"#utility.yul\":6317:6678   */\n      swap3\n      swap2\n      pop\n      pop\n      jump\t// out\n        /* \"#utility.yul\":6684:6906   */\n    tag_24:\n        /* \"#utility.yul\":6777:6781   */\n      0x00\n        /* \"#utility.yul\":6815:6817   */\n      0x20\n        /* \"#utility.yul\":6804:6813   */\n      dup3\n        /* \"#utility.yul\":6800:6818   */\n      add\n        /* \"#utility.yul\":6792:6818   */\n      swap1\n      pop\n        /* \"#utility.yul\":6828:6899   */\n      tag_198\n        /* \"#utility.yul\":6896:6897   */\n      0x00\n        /* \"#utility.yul\":6885:6894   */\n      dup4\n        /* \"#utility.yul\":6881:6898   */\n      add\n        /* \"#utility.yul\":6872:6878   */\n      dup5\n        /* \"#utility.yul\":6828:6899   */\n      tag_186\n      jump\t// in\n    tag_198:\n        /* \"#utility.yul\":6684:6906   */\n      swap3\n      swap2\n      pop\n      pop\n      jump\t// out\n        /* \"#utility.yul\":6912:7041   */\n    tag_116:\n        /* \"#utility.yul\":6946:6952   */\n      0x00\n        /* \"#utility.yul\":6973:6993   */\n      tag_200\n      tag_201\n      jump\t// in\n    tag_200:\n        /* \"#utility.yul\":6963:6993   */\n      swap1\n      pop\n        /* \"#utility.yul\":7002:7035   */\n      tag_202\n        /* \"#utility.yul\":7030:7034   */\n      dup3\n        /* \"#utility.yul\":7022:7028   */\n      dup3\n        /* \"#utility.yul\":7002:7035   */\n      tag_203\n      jump\t// in\n    tag_202:\n        /* \"#utility.yul\":6912:7041   */\n      swap2\n      swap1\n      pop\n      jump\t// out\n        /* \"#utility.yul\":7047:7122   */\n    tag_201:\n        /* \"#utility.yul\":7080:7086   */\n      0x00\n        /* \"#utility.yul\":7113:7115   */\n      0x40\n        /* \"#utility.yul\":7107:7116   */\n      mload\n        /* \"#utility.yul\":7097:7116   */\n      swap1\n      pop\n        /* \"#utility.yul\":7047:7122   */\n      swap1\n      jump\t// out\n        /* \"#utility.yul\":7128:7436   */\n    tag_115:\n        /* \"#utility.yul\":7190:7194   */\n      0x00\n        /* \"#utility.yul\":7280:7298   */\n      0xffffffffffffffff\n        /* \"#utility.yul\":7272:7278   */\n      dup3\n        /* \"#utility.yul\":7269:7299   */\n      gt\n        /* \"#utility.yul\":7266:7322   */\n      iszero\n      tag_206\n      jumpi\n        /* \"#utility.yul\":7302:7320   */\n      tag_207\n      tag_208\n      jump\t// in\n    tag_207:\n        /* \"#utility.yul\":7266:7322   */\n    tag_206:\n        /* \"#utility.yul\":7340:7369   */\n      tag_209\n        /* \"#utility.yul\":7362:7368   */\n      dup3\n        /* \"#utility.yul\":7340:7369   */\n      tag_169\n      jump\t// in\n    tag_209:\n        /* \"#utility.yul\":7332:7369   */\n      swap1\n      pop\n        /* \"#utility.yul\":7424:7428   */\n      0x20\n        /* \"#utility.yul\":7418:7422   */\n      dup2\n        /* \"#utility.yul\":7414:7429   */\n      add\n        /* \"#utility.yul\":7406:7429   */\n      swap1\n      pop\n        /* \"#utility.yul\":7128:7436   */\n      swap2\n      swap1\n      pop\n      jump\t// out\n        /* \"#utility.yul\":7442:7541   */\n    tag_163:\n        /* \"#utility.yul\":7494:7500   */\n      0x00\n        /* \"#utility.yul\":7528:7533   */\n      dup2\n        /* \"#utility.yul\":7522:7534   */\n      mload\n        /* \"#utility.yul\":7512:7534   */\n      swap1\n      pop\n        /* \"#utility.yul\":7442:7541   */\n      swap2\n      swap1\n      pop\n      jump\t// out\n        /* \"#utility.yul\":7547:7706   */\n    tag_165:\n        /* \"#utility.yul\":7621:7632   */\n      0x00\n        /* \"#utility.yul\":7655:7661   */\n      dup3\n        /* \"#utility.yul\":7650:7653   */\n      dup3\n        /* \"#utility.yul\":7643:7662   */\n      mstore\n        /* \"#utility.yul\":7695:7699   */\n      0x20\n        /* \"#utility.yul\":7690:7693   */\n      dup3\n        /* \"#utility.yul\":7686:7700   */\n      add\n        /* \"#utility.yul\":7671:7700   */\n      swap1\n      pop\n        /* \"#utility.yul\":7547:7706   */\n      swap3\n      swap2\n      pop\n      pop\n      jump\t// out\n        /* \"#utility.yul\":7712:7881   */\n    tag_174:\n        /* \"#utility.yul\":7796:7807   */\n      0x00\n        /* \"#utility.yul\":7830:7836   */\n      dup3\n        /* \"#utility.yul\":7825:7828   */\n      dup3\n        /* \"#utility.yul\":7818:7837   */\n      mstore\n        /* \"#utility.yul\":7870:7874   */\n      0x20\n        /* \"#utility.yul\":7865:7868   */\n      dup3\n        /* \"#utility.yul\":7861:7875   */\n      add\n        /* \"#utility.yul\":7846:7875   */\n      swap1\n      pop\n        /* \"#utility.yul\":7712:7881   */\n      swap3\n      swap2\n      pop\n      pop\n      jump\t// out\n        /* \"#utility.yul\":7887:7964   */\n    tag_185:\n        /* \"#utility.yul\":7924:7931   */\n      0x00\n        /* \"#utility.yul\":7953:7958   */\n      dup2\n        /* \"#utility.yul\":7942:7958   */\n      swap1\n      pop\n        /* \"#utility.yul\":7887:7964   */\n      swap2\n      swap1\n      pop\n      jump\t// out\n        /* \"#utility.yul\":7970:8124   */\n    tag_121:\n        /* \"#utility.yul\":8054:8060   */\n      dup3\n        /* \"#utility.yul\":8049:8052   */\n      dup2\n        /* \"#utility.yul\":8044:8047   */\n      dup4\n        /* \"#utility.yul\":8031:8061   */\n      calldatacopy\n        /* \"#utility.yul\":8116:8117   */\n      0x00\n        /* \"#utility.yul\":8107:8113   */\n      dup4\n        /* \"#utility.yul\":8102:8105   */\n      dup4\n        /* \"#utility.yul\":8098:8114   */\n      add\n        /* \"#utility.yul\":8091:8118   */\n      mstore\n        /* \"#utility.yul\":7970:8124   */\n      pop\n      pop\n      pop\n      jump\t// out\n        /* \"#utility.yul\":8130:8437   */\n    tag_167:\n        /* \"#utility.yul\":8198:8199   */\n      0x00\n        /* \"#utility.yul\":8208:8321   */\n    tag_216:\n        /* \"#utility.yul\":8222:8228   */\n      dup4\n        /* \"#utility.yul\":8219:8220   */\n      dup2\n        /* \"#utility.yul\":8216:8229   */\n      lt\n        /* \"#utility.yul\":8208:8321   */\n      iszero\n      tag_218\n      jumpi\n        /* \"#utility.yul\":8307:8308   */\n      dup1\n        /* \"#utility.yul\":8302:8305   */\n      dup3\n        /* \"#utility.yul\":8298:8309   */\n      add\n        /* \"#utility.yul\":8292:8310   */\n      mload\n        /* \"#utility.yul\":8288:8289   */\n      dup2\n        /* \"#utility.yul\":8283:8286   */\n      dup5\n        /* \"#utility.yul\":8279:8290   */\n      add\n        /* \"#utility.yul\":8272:8311   */\n      mstore\n        /* \"#utility.yul\":8244:8246   */\n      0x20\n        /* \"#utility.yul\":8241:8242   */\n      dup2\n        /* \"#utility.yul\":8237:8247   */\n      add\n        /* \"#utility.yul\":8232:8247   */\n      swap1\n      pop\n        /* \"#utility.yul\":8208:8321   */\n      jump(tag_216)\n    tag_218:\n        /* \"#utility.yul\":8339:8345   */\n      dup4\n        /* \"#utility.yul\":8336:8337   */\n      dup2\n        /* \"#utility.yul\":8333:8346   */\n      gt\n        /* \"#utility.yul\":8330:8431   */\n      iszero\n      tag_219\n      jumpi\n        /* \"#utility.yul\":8419:8420   */\n      0x00\n        /* \"#utility.yul\":8410:8416   */\n      dup5\n        /* \"#utility.yul\":8405:8408   */\n      dup5\n        /* \"#utility.yul\":8401:8417   */\n      add\n        /* \"#utility.yul\":8394:8421   */\n      mstore\n        /* \"#utility.yul\":8330:8431   */\n    tag_219:\n        /* \"#utility.yul\":8179:8437   */\n      pop\n        /* \"#utility.yul\":8130:8437   */\n      pop\n      pop\n      pop\n      jump\t// out\n        /* \"#utility.yul\":8443:8763   */\n    tag_51:\n        /* \"#utility.yul\":8487:8493   */\n      0x00\n        /* \"#utility.yul\":8524:8525   */\n      0x02\n        /* \"#utility.yul\":8518:8522   */\n      dup3\n        /* \"#utility.yul\":8514:8526   */\n      div\n        /* \"#utility.yul\":8504:8526   */\n      swap1\n      pop\n        /* \"#utility.yul\":8571:8572   */\n      0x01\n        /* \"#utility.yul\":8565:8569   */\n      dup3\n        /* \"#utility.yul\":8561:8573   */\n      and\n        /* \"#utility.yul\":8592:8610   */\n      dup1\n        /* \"#utility.yul\":8582:8663   */\n      tag_221\n      jumpi\n        /* \"#utility.yul\":8648:8652   */\n      0x7f\n        /* \"#utility.yul\":8640:8646   */\n      dup3\n        /* \"#utility.yul\":8636:8653   */\n      and\n        /* \"#utility.yul\":8626:8653   */\n      swap2\n      pop\n        /* \"#utility.yul\":8582:8663   */\n    tag_221:\n        /* \"#utility.yul\":8710:8712   */\n      0x20\n        /* \"#utility.yul\":8702:8708   */\n      dup3\n        /* \"#utility.yul\":8699:8713   */\n      lt\n        /* \"#utility.yul\":8679:8697   */\n      dup2\n        /* \"#utility.yul\":8676:8714   */\n      eq\n        /* \"#utility.yul\":8673:8757   */\n      iszero\n      tag_222\n      jumpi\n        /* \"#utility.yul\":8729:8747   */\n      tag_223\n      tag_224\n      jump\t// in\n    tag_223:\n        /* \"#utility.yul\":8673:8757   */\n    tag_222:\n        /* \"#utility.yul\":8494:8763   */\n      pop\n        /* \"#utility.yul\":8443:8763   */\n      swap2\n      swap1\n      pop\n      jump\t// out\n        /* \"#utility.yul\":8769:9050   */\n    tag_203:\n        /* \"#utility.yul\":8852:8879   */\n      tag_226\n        /* \"#utility.yul\":8874:8878   */\n      dup3\n        /* \"#utility.yul\":8852:8879   */\n      tag_169\n      jump\t// in\n    tag_226:\n        /* \"#utility.yul\":8844:8850   */\n      dup2\n        /* \"#utility.yul\":8840:8880   */\n      add\n        /* \"#utility.yul\":8982:8988   */\n      dup2\n        /* \"#utility.yul\":8970:8980   */\n      dup2\n        /* \"#utility.yul\":8967:8989   */\n      lt\n        /* \"#utility.yul\":8946:8964   */\n      0xffffffffffffffff\n        /* \"#utility.yul\":8934:8944   */\n      dup3\n        /* \"#utility.yul\":8931:8965   */\n      gt\n        /* \"#utility.yul\":8928:8990   */\n      or\n        /* \"#utility.yul\":8925:9013   */\n      iszero\n      tag_227\n      jumpi\n        /* \"#utility.yul\":8993:9011   */\n      tag_228\n      tag_208\n      jump\t// in\n    tag_228:\n        /* \"#utility.yul\":8925:9013   */\n    tag_227:\n        /* \"#utility.yul\":9033:9043   */\n      dup1\n        /* \"#utility.yul\":9029:9031   */\n      0x40\n        /* \"#utility.yul\":9022:9044   */\n      mstore\n        /* \"#utility.yul\":8812:9050   */\n      pop\n        /* \"#utility.yul\":8769:9050   */\n      pop\n      pop\n      jump\t// out\n        /* \"#utility.yul\":9056:9236   */\n    tag_224:\n        /* \"#utility.yul\":9104:9181   */\n      0x4e487b7100000000000000000000000000000000000000000000000000000000\n        /* \"#utility.yul\":9101:9102   */\n      0x00\n        /* \"#utility.yul\":9094:9182   */\n      mstore\n        /* \"#utility.yul\":9201:9205   */\n      0x22\n        /* \"#utility.yul\":9198:9199   */\n      0x04\n        /* \"#utility.yul\":9191:9206   */\n      mstore\n        /* \"#utility.yul\":9225:9229   */\n      0x24\n        /* \"#utility.yul\":9222:9223   */\n      0x00\n        /* \"#utility.yul\":9215:9230   */\n      revert\n        /* \"#utility.yul\":9242:9422   */\n    tag_59:\n        /* \"#utility.yul\":9290:9367   */\n      0x4e487b7100000000000000000000000000000000000000000000000000000000\n        /* \"#utility.yul\":9287:9288   */\n      0x00\n        /* \"#utility.yul\":9280:9368   */\n      mstore\n        /* \"#utility.yul\":9387:9391   */\n      0x32\n        /* \"#utility.yul\":9384:9385   */\n      0x04\n        /* \"#utility.yul\":9377:9392   */\n      mstore\n        /* \"#utility.yul\":9411:9415   */\n      0x24\n        /* \"#utility.yul\":9408:9409   */\n      0x00\n        /* \"#utility.yul\":9401:9416   */\n      revert\n        /* \"#utility.yul\":9428:9608   */\n    tag_208:\n        /* \"#utility.yul\":9476:9553   */\n      0x4e487b7100000000000000000000000000000000000000000000000000000000\n        /* \"#utility.yul\":9473:9474   */\n      0x00\n        /* \"#utility.yul\":9466:9554   */\n      mstore\n        /* \"#utility.yul\":9573:9577   */\n      0x41\n        /* \"#utility.yul\":9570:9571   */\n      0x04\n        /* \"#utility.yul\":9563:9578   */\n      mstore\n        /* \"#utility.yul\":9597:9601   */\n      0x24\n        /* \"#utility.yul\":9594:9595   */\n      0x00\n        /* \"#utility.yul\":9587:9602   */\n      revert\n        /* \"#utility.yul\":9614:9731   */\n    tag_126:\n        /* \"#utility.yul\":9723:9724   */\n      0x00\n        /* \"#utility.yul\":9720:9721   */\n      dup1\n        /* \"#utility.yul\":9713:9725   */\n      revert\n        /* \"#utility.yul\":9737:9854   */\n    tag_119:\n        /* \"#utility.yul\":9846:9847   */\n      0x00\n        /* \"#utility.yul\":9843:9844   */\n      dup1\n        /* \"#utility.yul\":9836:9848   */\n      revert\n        /* \"#utility.yul\":9860:9977   */\n    tag_138:\n        /* \"#utility.yul\":9969:9970   */\n      0x00\n        /* \"#utility.yul\":9966:9967   */\n      dup1\n        /* \"#utility.yul\":9959:9971   */\n      revert\n        /* \"#utility.yul\":9983:10100   */\n    tag_135:\n        /* \"#utility.yul\":10092:10093   */\n      0x00\n        /* \"#utility.yul\":10089:10090   */\n      dup1\n        /* \"#utility.yul\":10082:10094   */\n      revert\n        /* \"#utility.yul\":10106:10208   */\n    tag_169:\n        /* \"#utility.yul\":10147:10153   */\n      0x00\n        /* \"#utility.yul\":10198:10200   */\n      0x1f\n        /* \"#utility.yul\":10194:10201   */\n      not\n        /* \"#utility.yul\":10189:10191   */\n      0x1f\n        /* \"#utility.yul\":10182:10187   */\n      dup4\n        /* \"#utility.yul\":10178:10192   */\n      add\n        /* \"#utility.yul\":10174:10202   */\n      and\n        /* \"#utility.yul\":10164:10202   */\n      swap1\n      pop\n        /* \"#utility.yul\":10106:10208   */\n      swap2\n      swap1\n      pop\n      jump\t// out\n        /* \"#utility.yul\":10214:10336   */\n    tag_131:\n        /* \"#utility.yul\":10287:10311   */\n      tag_238\n        /* \"#utility.yul\":10305:10310   */\n      dup2\n        /* \"#utility.yul\":10287:10311   */\n      tag_185\n      jump\t// in\n    tag_238:\n        /* \"#utility.yul\":10280:10285   */\n      dup2\n        /* \"#utility.yul\":10277:10312   */\n      eq\n        /* \"#utility.yul\":10267:10330   */\n      tag_239\n      jumpi\n        /* \"#utility.yul\":10326:10327   */\n      0x00\n        /* \"#utility.yul\":10323:10324   */\n      dup1\n        /* \"#utility.yul\":10316:10328   */\n      revert\n        /* \"#utility.yul\":10267:10330   */\n    tag_239:\n        /* \"#utility.yul\":10214:10336   */\n      pop\n      jump\t// out\n\n    auxdata: 0xa26469706673582212208be1c85d12d20f62bf4806e59b26f7be7fbbde58c97c334ef30646ea5a18eac864736f6c63430008070033\n}\n",
				"bytecode": {
					"linkReferences": {},
					"object": "60806040523480156200001157600080fd5b506040516200107c3803806200107c8339818101604052810190620000379190620001a4565b81600090805190602001906200004f9291906200005f565b50806001819055505050620003b2565b8280546200006d90620002a9565b90600052602060002090601f016020900481019282620000915760008555620000dd565b82601f10620000ac57805160ff1916838001178555620000dd565b82800160010185558215620000dd579182015b82811115620000dc578251825591602001919060010190620000bf565b5b509050620000ec9190620000f0565b5090565b5b808211156200010b576000816000905550600101620000f1565b5090565b600062000126620001208462000233565b6200020a565b90508281526020810184848401111562000145576200014462000378565b5b6200015284828562000273565b509392505050565b600082601f83011262000172576200017162000373565b5b8151620001848482602086016200010f565b91505092915050565b6000815190506200019e8162000398565b92915050565b60008060408385031215620001be57620001bd62000382565b5b600083015167ffffffffffffffff811115620001df57620001de6200037d565b5b620001ed858286016200015a565b925050602062000200858286016200018d565b9150509250929050565b60006200021662000229565b9050620002248282620002df565b919050565b6000604051905090565b600067ffffffffffffffff82111562000251576200025062000344565b5b6200025c8262000387565b9050602081019050919050565b6000819050919050565b60005b838110156200029357808201518184015260208101905062000276565b83811115620002a3576000848401525b50505050565b60006002820490506001821680620002c257607f821691505b60208210811415620002d957620002d862000315565b5b50919050565b620002ea8262000387565b810181811067ffffffffffffffff821117156200030c576200030b62000344565b5b80604052505050565b7f4e487b7100000000000000000000000000000000000000000000000000000000600052602260045260246000fd5b7f4e487b7100000000000000000000000000000000000000000000000000000000600052604160045260246000fd5b600080fd5b600080fd5b600080fd5b600080fd5b6000601f19601f8301169050919050565b620003a38162000269565b8114620003af57600080fd5b50565b610cba80620003c26000396000f3fe608060405234801561001057600080fd5b50600436106100935760003560e01c80636d35e346116100665780636d35e34614610110578063767f9dcf1461012c5780637f0429ef14610148578063d653f30714610166578063e780faa31461019657610093565b806306fdde0314610098578063204653d3146100b6578063262a9dff146100d2578063465fe0ee146100f0575b600080fd5b6100a06101c6565b6040516100ad91906109e5565b60405180910390f35b6100d060048036038101906100cb9190610857565b610254565b005b6100da61028e565b6040516100e79190610a6e565b60405180910390f35b6100f8610294565b60405161010793929190610a07565b60405180910390f35b61012a60048036038101906101259190610897565b6103bc565b005b6101466004803603810190610141919061079f565b610466565b005b6101506104cf565b60405161015d9190610a4c565b60405180910390f35b610180600480360381019061017b919061082a565b610617565b60405161018d9190610a6e565b60405180910390f35b6101b060048036038101906101ab919061082a565b61063b565b6040516101bd9190610a6e565b60405180910390f35b600080546101d390610b58565b80601f01602080910402602001604051908101604052809291908181526020018280546101ff90610b58565b801561024c5780601f106102215761010080835404028352916020019161024c565b820191906000526020600020905b81548152906001019060200180831161022f57829003601f168201915b505050505081565b81600260006002811061026a57610269610bea565b5b018190555080600260016002811061028557610284610bea565b5b01819055505050565b60015481565b60058060000180546102a590610b58565b80601f01602080910402602001604051908101604052809291908181526020018280546102d190610b58565b801561031e5780601f106102f35761010080835404028352916020019161031e565b820191906000526020600020905b81548152906001019060200180831161030157829003601f168201915b50505050509080600101805461033390610b58565b80601f016020809104026020016040519081016040528092919081815260200182805461035f90610b58565b80156103ac5780601f10610381576101008083540402835291602001916103ac565b820191906000526020600020905b81548152906001019060200180831161038f57829003601f168201915b5050505050908060020154905083565b600484908060018154018082558091505060019003906000526020600020016000909190919091505560048390806001815401808255809150506001900390600052602060002001600090919091909150556004829080600181540180825580915050600190039060005260206000200160009091909190915055600481908060018154018082558091505060019003906000526020600020016000909190919091505550505050565b6040518060600160405280848152602001838152602001828152506005600082015181600001908051906020019061049f929190610656565b5060208201518160010190805190602001906104bc929190610656565b5060408201518160020155905050505050565b6104d76106dc565b60056040518060600160405290816000820180546104f490610b58565b80601f016020809104026020016040519081016040528092919081815260200182805461052090610b58565b801561056d5780601f106105425761010080835404028352916020019161056d565b820191906000526020600020905b81548152906001019060200180831161055057829003601f168201915b5050505050815260200160018201805461058690610b58565b80601f01602080910402602001604051908101604052809291908181526020018280546105b290610b58565b80156105ff5780601f106105d4576101008083540402835291602001916105ff565b820191906000526020600020905b8154815290600101906020018083116105e257829003601f168201915b50505050508152602001600282015481525050905090565b6004818154811061062757600080fd5b906000526020600020016000915090505481565b6002816002811061064b57600080fd5b016000915090505481565b82805461066290610b58565b90600052602060002090601f01602090048101928261068457600085556106cb565b82601f1061069d57805160ff19168380011785556106cb565b828001600101855582156106cb579182015b828111156106ca5782518255916020019190600101906106af565b5b5090506106d891906106fd565b5090565b60405180606001604052806060815260200160608152602001600081525090565b5b808211156107165760008160009055506001016106fe565b5090565b600061072d61072884610aae565b610a89565b90508281526020810184848401111561074957610748610c4d565b5b610754848285610b16565b509392505050565b600082601f83011261077157610770610c48565b5b813561078184826020860161071a565b91505092915050565b60008135905061079981610c6d565b92915050565b6000806000606084860312156107b8576107b7610c57565b5b600084013567ffffffffffffffff8111156107d6576107d5610c52565b5b6107e28682870161075c565b935050602084013567ffffffffffffffff81111561080357610802610c52565b5b61080f8682870161075c565b92505060406108208682870161078a565b9150509250925092565b6000602082840312156108405761083f610c57565b5b600061084e8482850161078a565b91505092915050565b6000806040838503121561086e5761086d610c57565b5b600061087c8582860161078a565b925050602061088d8582860161078a565b9150509250929050565b600080600080608085870312156108b1576108b0610c57565b5b60006108bf8782880161078a565b94505060206108d08782880161078a565b93505060406108e18782880161078a565b92505060606108f28782880161078a565b91505092959194509250565b600061090982610adf565b6109138185610aea565b9350610923818560208601610b25565b61092c81610c5c565b840191505092915050565b600061094282610adf565b61094c8185610afb565b935061095c818560208601610b25565b61096581610c5c565b840191505092915050565b6000606083016000830151848203600086015261098d82826108fe565b915050602083015184820360208601526109a782826108fe565b91505060408301516109bc60408601826109c7565b508091505092915050565b6109d081610b0c565b82525050565b6109df81610b0c565b82525050565b600060208201905081810360008301526109ff8184610937565b905092915050565b60006060820190508181036000830152610a218186610937565b90508181036020830152610a358185610937565b9050610a4460408301846109d6565b949350505050565b60006020820190508181036000830152610a668184610970565b905092915050565b6000602082019050610a8360008301846109d6565b92915050565b6000610a93610aa4565b9050610a9f8282610b8a565b919050565b6000604051905090565b600067ffffffffffffffff821115610ac957610ac8610c19565b5b610ad282610c5c565b9050602081019050919050565b600081519050919050565b600082825260208201905092915050565b600082825260208201905092915050565b6000819050919050565b82818337600083830152505050565b60005b83811015610b43578082015181840152602081019050610b28565b83811115610b52576000848401525b50505050565b60006002820490506001821680610b7057607f821691505b60208210811415610b8457610b83610bbb565b5b50919050565b610b9382610c5c565b810181811067ffffffffffffffff82111715610bb257610bb1610c19565b5b80604052505050565b7f4e487b7100000000000000000000000000000000000000000000000000000000600052602260045260246000fd5b7f4e487b7100000000000000000000000000000000000000000000000000000000600052603260045260246000fd5b7f4e487b7100000000000000000000000000000000000000000000000000000000600052604160045260246000fd5b600080fd5b600080fd5b600080fd5b600080fd5b6000601f19601f8301169050919050565b610c7681610b0c565b8114610c8157600080fd5b5056fea26469706673582212208be1c85d12d20f62bf4806e59b26f7be7fbbde58c97c334ef30646ea5a18eac864736f6c63430008070033",
					"opcodes": "PUSH1 0x80 PUSH1 0x40 MSTORE CALLVALUE DUP1 ISZERO PUSH3 0x11 JUMPI PUSH1 0x0 DUP1 REVERT JUMPDEST POP PUSH1 0x40 MLOAD PUSH3 0x107C CODESIZE SUB DUP1 PUSH3 0x107C DUP4 CODECOPY DUP2 DUP2 ADD PUSH1 0x40 MSTORE DUP2 ADD SWAP1 PUSH3 0x37 SWAP2 SWAP1 PUSH3 0x1A4 JUMP JUMPDEST DUP2 PUSH1 0x0 SWAP1 DUP1 MLOAD SWAP1 PUSH1 0x20 ADD SWAP1 PUSH3 0x4F SWAP3 SWAP2 SWAP1 PUSH3 0x5F JUMP JUMPDEST POP DUP1 PUSH1 0x1 DUP2 SWAP1 SSTORE POP POP POP PUSH3 0x3B2 JUMP JUMPDEST DUP3 DUP1 SLOAD PUSH3 0x6D SWAP1 PUSH3 0x2A9 JUMP JUMPDEST SWAP1 PUSH1 0x0 MSTORE PUSH1 0x20 PUSH1 0x0 KECCAK256 SWAP1 PUSH1 0x1F ADD PUSH1 0x20 SWAP1 DIV DUP2 ADD SWAP3 DUP3 PUSH3 0x91 JUMPI PUSH1 0x0 DUP6 SSTORE PUSH3 0xDD JUMP JUMPDEST DUP3 PUSH1 0x1F LT PUSH3 0xAC JUMPI DUP1 MLOAD PUSH1 0xFF NOT AND DUP4 DUP1 ADD OR DUP6 SSTORE PUSH3 0xDD JUMP JUMPDEST DUP3 DUP1 ADD PUSH1 0x1 ADD DUP6 SSTORE DUP3 ISZERO PUSH3 0xDD JUMPI SWAP2 DUP3 ADD JUMPDEST DUP3 DUP2 GT ISZERO PUSH3 0xDC JUMPI DUP3 MLOAD DUP3 SSTORE SWAP2 PUSH1 0x20 ADD SWAP2 SWAP1 PUSH1 0x1 ADD SWAP1 PUSH3 0xBF JUMP JUMPDEST JUMPDEST POP SWAP1 POP PUSH3 0xEC SWAP2 SWAP1 PUSH3 0xF0 JUMP JUMPDEST POP SWAP1 JUMP JUMPDEST JUMPDEST DUP1 DUP3 GT ISZERO PUSH3 0x10B JUMPI PUSH1 0x0 DUP2 PUSH1 0x0 SWAP1 SSTORE POP PUSH1 0x1 ADD PUSH3 0xF1 JUMP JUMPDEST POP SWAP1 JUMP JUMPDEST PUSH1 0x0 PUSH3 0x126 PUSH3 0x120 DUP5 PUSH3 0x233 JUMP JUMPDEST PUSH3 0x20A JUMP JUMPDEST SWAP1 POP DUP3 DUP2 MSTORE PUSH1 0x20 DUP2 ADD DUP5 DUP5 DUP5 ADD GT ISZERO PUSH3 0x145 JUMPI PUSH3 0x144 PUSH3 0x378 JUMP JUMPDEST JUMPDEST PUSH3 0x152 DUP5 DUP3 DUP6 PUSH3 0x273 JUMP JUMPDEST POP SWAP4 SWAP3 POP POP POP JUMP JUMPDEST PUSH1 0x0 DUP3 PUSH1 0x1F DUP4 ADD SLT PUSH3 0x172 JUMPI PUSH3 0x171 PUSH3 0x373 JUMP JUMPDEST JUMPDEST DUP2 MLOAD PUSH3 0x184 DUP5 DUP3 PUSH1 0x20 DUP7 ADD PUSH3 0x10F JUMP JUMPDEST SWAP2 POP POP SWAP3 SWAP2 POP POP JUMP JUMPDEST PUSH1 0x0 DUP2 MLOAD SWAP1 POP PUSH3 0x19E DUP2 PUSH3 0x398 JUMP JUMPDEST SWAP3 SWAP2 POP POP JUMP JUMPDEST PUSH1 0x0 DUP1 PUSH1 0x40 DUP4 DUP6 SUB SLT ISZERO PUSH3 0x1BE JUMPI PUSH3 0x1BD PUSH3 0x382 JUMP JUMPDEST JUMPDEST PUSH1 0x0 DUP4 ADD MLOAD PUSH8 0xFFFFFFFFFFFFFFFF DUP2 GT ISZERO PUSH3 0x1DF JUMPI PUSH3 0x1DE PUSH3 0x37D JUMP JUMPDEST JUMPDEST PUSH3 0x1ED DUP6 DUP3 DUP7 ADD PUSH3 0x15A JUMP JUMPDEST SWAP3 POP POP PUSH1 0x20 PUSH3 0x200 DUP6 DUP3 DUP7 ADD PUSH3 0x18D JUMP JUMPDEST SWAP2 POP POP SWAP3 POP SWAP3 SWAP1 POP JUMP JUMPDEST PUSH1 0x0 PUSH3 0x216 PUSH3 0x229 JUMP JUMPDEST SWAP1 POP PUSH3 0x224 DUP3 DUP3 PUSH3 0x2DF JUMP JUMPDEST SWAP2 SWAP1 POP JUMP JUMPDEST PUSH1 0x0 PUSH1 0x40 MLOAD SWAP1 POP SWAP1 JUMP JUMPDEST PUSH1 0x0 PUSH8 0xFFFFFFFFFFFFFFFF DUP3 GT ISZERO PUSH3 0x251 JUMPI PUSH3 0x250 PUSH3 0x344 JUMP JUMPDEST JUMPDEST PUSH3 0x25C DUP3 PUSH3 0x387 JUMP JUMPDEST SWAP1 POP PUSH1 0x20 DUP2 ADD SWAP1 POP SWAP2 SWAP1 POP JUMP JUMPDEST PUSH1 0x0 DUP2 SWAP1 POP SWAP2 SWAP1 POP JUMP JUMPDEST PUSH1 0x0 JUMPDEST DUP4 DUP2 LT ISZERO PUSH3 0x293 JUMPI DUP1 DUP3 ADD MLOAD DUP2 DUP5 ADD MSTORE PUSH1 0x20 DUP2 ADD SWAP1 POP PUSH3 0x276 JUMP JUMPDEST DUP4 DUP2 GT ISZERO PUSH3 0x2A3 JUMPI PUSH1 0x0 DUP5 DUP5 ADD MSTORE JUMPDEST POP POP POP POP JUMP JUMPDEST PUSH1 0x0 PUSH1 0x2 DUP3 DIV SWAP1 POP PUSH1 0x1 DUP3 AND DUP1 PUSH3 0x2C2 JUMPI PUSH1 0x7F DUP3 AND SWAP2 POP JUMPDEST PUSH1 0x20 DUP3 LT DUP2 EQ ISZERO PUSH3 0x2D9 JUMPI PUSH3 0x2D8 PUSH3 0x315 JUMP JUMPDEST JUMPDEST POP SWAP2 SWAP1 POP JUMP JUMPDEST PUSH3 0x2EA DUP3 PUSH3 0x387 JUMP JUMPDEST DUP2 ADD DUP2 DUP2 LT PUSH8 0xFFFFFFFFFFFFFFFF DUP3 GT OR ISZERO PUSH3 0x30C JUMPI PUSH3 0x30B PUSH3 0x344 JUMP JUMPDEST JUMPDEST DUP1 PUSH1 0x40 MSTORE POP POP POP JUMP JUMPDEST PUSH32 0x4E487B7100000000000000000000000000000000000000000000000000000000 PUSH1 0x0 MSTORE PUSH1 0x22 PUSH1 0x4 MSTORE PUSH1 0x24 PUSH1 0x0 REVERT JUMPDEST PUSH32 0x4E487B7100000000000000000000000000000000000000000000000000000000 PUSH1 0x0 MSTORE PUSH1 0x41 PUSH1 0x4 MSTORE PUSH1 0x24 PUSH1 0x0 REVERT JUMPDEST PUSH1 0x0 DUP1 REVERT JUMPDEST PUSH1 0x0 DUP1 REVERT JUMPDEST PUSH1 0x0 DUP1 REVERT JUMPDEST PUSH1 0x0 DUP1 REVERT JUMPDEST PUSH1 0x0 PUSH1 0x1F NOT PUSH1 0x1F DUP4 ADD AND SWAP1 POP SWAP2 SWAP1 POP JUMP JUMPDEST PUSH3 0x3A3 DUP2 PUSH3 0x269 JUMP JUMPDEST DUP2 EQ PUSH3 0x3AF JUMPI PUSH1 0x0 DUP1 REVERT JUMPDEST POP JUMP JUMPDEST PUSH2 0xCBA DUP1 PUSH3 0x3C2 PUSH1 0x0 CODECOPY PUSH1 0x0 RETURN INVALID PUSH1 0x80 PUSH1 0x40 MSTORE CALLVALUE DUP1 ISZERO PUSH2 0x10 JUMPI PUSH1 0x0 DUP1 REVERT JUMPDEST POP PUSH1 0x4 CALLDATASIZE LT PUSH2 0x93 JUMPI PUSH1 0x0 CALLDATALOAD PUSH1 0xE0 SHR DUP1 PUSH4 0x6D35E346 GT PUSH2 0x66 JUMPI DUP1 PUSH4 0x6D35E346 EQ PUSH2 0x110 JUMPI DUP1 PUSH4 0x767F9DCF EQ PUSH2 0x12C JUMPI DUP1 PUSH4 0x7F0429EF EQ PUSH2 0x148 JUMPI DUP1 PUSH4 0xD653F307 EQ PUSH2 0x166 JUMPI DUP1 PUSH4 0xE780FAA3 EQ PUSH2 0x196 JUMPI PUSH2 0x93 JUMP JUMPDEST DUP1 PUSH4 0x6FDDE03 EQ PUSH2 0x98 JUMPI DUP1 PUSH4 0x204653D3 EQ PUSH2 0xB6 JUMPI DUP1 PUSH4 0x262A9DFF EQ PUSH2 0xD2 JUMPI DUP1 PUSH4 0x465FE0EE EQ PUSH2 0xF0 JUMPI JUMPDEST PUSH1 0x0 DUP1 REVERT JUMPDEST PUSH2 0xA0 PUSH2 0x1C6 JUMP JUMPDEST PUSH1 0x40 MLOAD PUSH2 0xAD SWAP2 SWAP1 PUSH2 0x9E5 JUMP JUMPDEST PUSH1 0x40 MLOAD DUP1 SWAP2 SUB SWAP1 RETURN JUMPDEST PUSH2 0xD0 PUSH1 0x4 DUP1 CALLDATASIZE SUB DUP2 ADD SWAP1 PUSH2 0xCB SWAP2 SWAP1 PUSH2 0x857 JUMP JUMPDEST PUSH2 0x254 JUMP JUMPDEST STOP JUMPDEST PUSH2 0xDA PUSH2 0x28E JUMP JUMPDEST PUSH1 0x40 MLOAD PUSH2 0xE7 SWAP2 SWAP1 PUSH2 0xA6E JUMP JUMPDEST PUSH1 0x40 MLOAD DUP1 SWAP2 SUB SWAP1 RETURN JUMPDEST PUSH2 0xF8 PUSH2 0x294 JUMP JUMPDEST PUSH1 0x40 MLOAD PUSH2 0x107 SWAP4 SWAP3 SWAP2 SWAP1 PUSH2 0xA07 JUMP JUMPDEST PUSH1 0x40 MLOAD DUP1 SWAP2 SUB SWAP1 RETURN JUMPDEST PUSH2 0x12A PUSH1 0x4 DUP1 CALLDATASIZE SUB DUP2 ADD SWAP1 PUSH2 0x125 SWAP2 SWAP1 PUSH2 0x897 JUMP JUMPDEST PUSH2 0x3BC JUMP JUMPDEST STOP JUMPDEST PUSH2 0x146 PUSH1 0x4 DUP1 CALLDATASIZE SUB DUP2 ADD SWAP1 PUSH2 0x141 SWAP2 SWAP1 PUSH2 0x79F JUMP JUMPDEST PUSH2 0x466 JUMP JUMPDEST STOP JUMPDEST PUSH2 0x150 PUSH2 0x4CF JUMP JUMPDEST PUSH1 0x40 MLOAD PUSH2 0x15D SWAP2 SWAP1 PUSH2 0xA4C JUMP JUMPDEST PUSH1 0x40 MLOAD DUP1 SWAP2 SUB SWAP1 RETURN JUMPDEST PUSH2 0x180 PUSH1 0x4 DUP1 CALLDATASIZE SUB DUP2 ADD SWAP1 PUSH2 0x17B SWAP2 SWAP1 PUSH2 0x82A JUMP JUMPDEST PUSH2 0x617 JUMP JUMPDEST PUSH1 0x40 MLOAD PUSH2 0x18D SWAP2 SWAP1 PUSH2 0xA6E JUMP JUMPDEST PUSH1 0x40 MLOAD DUP1 SWAP2 SUB SWAP1 RETURN JUMPDEST PUSH2 0x1B0 PUSH1 0x4 DUP1 CALLDATASIZE SUB DUP2 ADD SWAP1 PUSH2 0x1AB SWAP2 SWAP1 PUSH2 0x82A JUMP JUMPDEST PUSH2 0x63B JUMP JUMPDEST PUSH1 0x40 MLOAD PUSH2 0x1BD SWAP2 SWAP1 PUSH2 0xA6E JUMP JUMPDEST PUSH1 0x40 MLOAD DUP1 SWAP2 SUB SWAP1 RETURN JUMPDEST PUSH1 0x0 DUP1 SLOAD PUSH2 0x1D3 SWAP1 PUSH2 0xB58 JUMP JUMPDEST DUP1 PUSH1 0x1F ADD PUSH1 0x20 DUP1 SWAP2 DIV MUL PUSH1 0x20 ADD PUSH1 0x40 MLOAD SWAP1 DUP2 ADD PUSH1 0x40 MSTORE DUP1 SWAP3 SWAP2 SWAP1 DUP2 DUP2 MSTORE PUSH1 0x20 ADD DUP3 DUP1 SLOAD PUSH2 0x1FF SWAP1 PUSH2 0xB58 JUMP JUMPDEST DUP1 ISZERO PUSH2 0x24C JUMPI DUP1 PUSH1 0x1F LT PUSH2 0x221 JUMPI PUSH2 0x100 DUP1 DUP4 SLOAD DIV MUL DUP4 MSTORE SWAP2 PUSH1 0x20 ADD SWAP2 PUSH2 0x24C JUMP JUMPDEST DUP3 ADD SWAP2 SWAP1 PUSH1 0x0 MSTORE PUSH1 0x20 PUSH1 0x0 KECCAK256 SWAP1 JUMPDEST DUP2 SLOAD DUP2 MSTORE SWAP1 PUSH1 0x1 ADD SWAP1 PUSH1 0x20 ADD DUP1 DUP4 GT PUSH2 0x22F JUMPI DUP3 SWAP1 SUB PUSH1 0x1F AND DUP3 ADD SWAP2 JUMPDEST POP POP POP POP POP DUP2 JUMP JUMPDEST DUP2 PUSH1 0x2 PUSH1 0x0 PUSH1 0x2 DUP2 LT PUSH2 0x26A JUMPI PUSH2 0x269 PUSH2 0xBEA JUMP JUMPDEST JUMPDEST ADD DUP2 SWAP1 SSTORE POP DUP1 PUSH1 0x2 PUSH1 0x1 PUSH1 0x2 DUP2 LT PUSH2 0x285 JUMPI PUSH2 0x284 PUSH2 0xBEA JUMP JUMPDEST JUMPDEST ADD DUP2 SWAP1 SSTORE POP POP POP JUMP JUMPDEST PUSH1 0x1 SLOAD DUP2 JUMP JUMPDEST PUSH1 0x5 DUP1 PUSH1 0x0 ADD DUP1 SLOAD PUSH2 0x2A5 SWAP1 PUSH2 0xB58 JUMP JUMPDEST DUP1 PUSH1 0x1F ADD PUSH1 0x20 DUP1 SWAP2 DIV MUL PUSH1 0x20 ADD PUSH1 0x40 MLOAD SWAP1 DUP2 ADD PUSH1 0x40 MSTORE DUP1 SWAP3 SWAP2 SWAP1 DUP2 DUP2 MSTORE PUSH1 0x20 ADD DUP3 DUP1 SLOAD PUSH2 0x2D1 SWAP1 PUSH2 0xB58 JUMP JUMPDEST DUP1 ISZERO PUSH2 0x31E JUMPI DUP1 PUSH1 0x1F LT PUSH2 0x2F3 JUMPI PUSH2 0x100 DUP1 DUP4 SLOAD DIV MUL DUP4 MSTORE SWAP2 PUSH1 0x20 ADD SWAP2 PUSH2 0x31E JUMP JUMPDEST DUP3 ADD SWAP2 SWAP1 PUSH1 0x0 MSTORE PUSH1 0x20 PUSH1 0x0 KECCAK256 SWAP1 JUMPDEST DUP2 SLOAD DUP2 MSTORE SWAP1 PUSH1 0x1 ADD SWAP1 PUSH1 0x20 ADD DUP1 DUP4 GT PUSH2 0x301 JUMPI DUP3 SWAP1 SUB PUSH1 0x1F AND DUP3 ADD SWAP2 JUMPDEST POP POP POP POP POP SWAP1 DUP1 PUSH1 0x1 ADD DUP1 SLOAD PUSH2 0x333 SWAP1 PUSH2 0xB58 JUMP JUMPDEST DUP1 PUSH1 0x1F ADD PUSH1 0x20 DUP1 SWAP2 DIV MUL PUSH1 0x20 ADD PUSH1 0x40 MLOAD SWAP1 DUP2 ADD PUSH1 0x40 MSTORE DUP1 SWAP3 SWAP2 SWAP1 DUP2 DUP2 MSTORE PUSH1 0x20 ADD DUP3 DUP1 SLOAD PUSH2 0x35F SWAP1 PUSH2 0xB58 JUMP JUMPDEST DUP1 ISZERO PUSH2 0x3AC JUMPI DUP1 PUSH1 0x1F LT PUSH2 0x381 JUMPI PUSH2 0x100 DUP1 DUP4 SLOAD DIV MUL DUP4 MSTORE SWAP2 PUSH1 0x20 ADD SWAP2 PUSH2 0x3AC JUMP JUMPDEST DUP3 ADD SWAP2 SWAP1 PUSH1 0x0 MSTORE PUSH1 0x20 PUSH1 0x0 KECCAK256 SWAP1 JUMPDEST DUP2 SLOAD DUP2 MSTORE SWAP1 PUSH1 0x1 ADD SWAP1 PUSH1 0x20 ADD DUP1 DUP4 GT PUSH2 0x38F JUMPI DUP3 SWAP1 SUB PUSH1 0x1F AND DUP3 ADD SWAP2 JUMPDEST POP POP POP POP POP SWAP1 DUP1 PUSH1 0x2 ADD SLOAD SWAP1 POP DUP4 JUMP JUMPDEST PUSH1 0x4 DUP5 SWAP1 DUP1 PUSH1 0x1 DUP2 SLOAD ADD DUP1 DUP3 SSTORE DUP1 SWAP2 POP POP PUSH1 0x1 SWAP1 SUB SWAP1 PUSH1 0x0 MSTORE PUSH1 0x20 PUSH1 0x0 KECCAK256 ADD PUSH1 0x0 SWAP1 SWAP2 SWAP1 SWAP2 SWAP1 SWAP2 POP SSTORE PUSH1 0x4 DUP4 SWAP1 DUP1 PUSH1 0x1 DUP2 SLOAD ADD DUP1 DUP3 SSTORE DUP1 SWAP2 POP POP PUSH1 0x1 SWAP1 SUB SWAP1 PUSH1 0x0 MSTORE PUSH1 0x20 PUSH1 0x0 KECCAK256 ADD PUSH1 0x0 SWAP1 SWAP2 SWAP1 SWAP2 SWAP1 SWAP2 POP SSTORE PUSH1 0x4 DUP3 SWAP1 DUP1 PUSH1 0x1 DUP2 SLOAD ADD DUP1 DUP3 SSTORE DUP1 SWAP2 POP POP PUSH1 0x1 SWAP1 SUB SWAP1 PUSH1 0x0 MSTORE PUSH1 0x20 PUSH1 0x0 KECCAK256 ADD PUSH1 0x0 SWAP1 SWAP2 SWAP1 SWAP2 SWAP1 SWAP2 POP SSTORE PUSH1 0x4 DUP2 SWAP1 DUP1 PUSH1 0x1 DUP2 SLOAD ADD DUP1 DUP3 SSTORE DUP1 SWAP2 POP POP PUSH1 0x1 SWAP1 SUB SWAP1 PUSH1 0x0 MSTORE PUSH1 0x20 PUSH1 0x0 KECCAK256 ADD PUSH1 0x0 SWAP1 SWAP2 SWAP1 SWAP2 SWAP1 SWAP2 POP SSTORE POP POP POP POP JUMP JUMPDEST PUSH1 0x40 MLOAD DUP1 PUSH1 0x60 ADD PUSH1 0x40 MSTORE DUP1 DUP5 DUP2 MSTORE PUSH1 0x20 ADD DUP4 DUP2 MSTORE PUSH1 0x20 ADD DUP3 DUP2 MSTORE POP PUSH1 0x5 PUSH1 0x0 DUP3 ADD MLOAD DUP2 PUSH1 0x0 ADD SWAP1 DUP1 MLOAD SWAP1 PUSH1 0x20 ADD SWAP1 PUSH2 0x49F SWAP3 SWAP2 SWAP1 PUSH2 0x656 JUMP JUMPDEST POP PUSH1 0x20 DUP3 ADD MLOAD DUP2 PUSH1 0x1 ADD SWAP1 DUP1 MLOAD SWAP1 PUSH1 0x20 ADD SWAP1 PUSH2 0x4BC SWAP3 SWAP2 SWAP1 PUSH2 0x656 JUMP JUMPDEST POP PUSH1 0x40 DUP3 ADD MLOAD DUP2 PUSH1 0x2 ADD SSTORE SWAP1 POP POP POP POP POP JUMP JUMPDEST PUSH2 0x4D7 PUSH2 0x6DC JUMP JUMPDEST PUSH1 0x5 PUSH1 0x40 MLOAD DUP1 PUSH1 0x60 ADD PUSH1 0x40 MSTORE SWAP1 DUP2 PUSH1 0x0 DUP3 ADD DUP1 SLOAD PUSH2 0x4F4 SWAP1 PUSH2 0xB58 JUMP JUMPDEST DUP1 PUSH1 0x1F ADD PUSH1 0x20 DUP1 SWAP2 DIV MUL PUSH1 0x20 ADD PUSH1 0x40 MLOAD SWAP1 DUP2 ADD PUSH1 0x40 MSTORE DUP1 SWAP3 SWAP2 SWAP1 DUP2 DUP2 MSTORE PUSH1 0x20 ADD DUP3 DUP1 SLOAD PUSH2 0x520 SWAP1 PUSH2 0xB58 JUMP JUMPDEST DUP1 ISZERO PUSH2 0x56D JUMPI DUP1 PUSH1 0x1F LT PUSH2 0x542 JUMPI PUSH2 0x100 DUP1 DUP4 SLOAD DIV MUL DUP4 MSTORE SWAP2 PUSH1 0x20 ADD SWAP2 PUSH2 0x56D JUMP JUMPDEST DUP3 ADD SWAP2 SWAP1 PUSH1 0x0 MSTORE PUSH1 0x20 PUSH1 0x0 KECCAK256 SWAP1 JUMPDEST DUP2 SLOAD DUP2 MSTORE SWAP1 PUSH1 0x1 ADD SWAP1 PUSH1 0x20 ADD DUP1 DUP4 GT PUSH2 0x550 JUMPI DUP3 SWAP1 SUB PUSH1 0x1F AND DUP3 ADD SWAP2 JUMPDEST POP POP POP POP POP DUP2 MSTORE PUSH1 0x20 ADD PUSH1 0x1 DUP3 ADD DUP1 SLOAD PUSH2 0x586 SWAP1 PUSH2 0xB58 JUMP JUMPDEST DUP1 PUSH1 0x1F ADD PUSH1 0x20 DUP1 SWAP2 DIV MUL PUSH1 0x20 ADD PUSH1 0x40 MLOAD SWAP1 DUP2 ADD PUSH1 0x40 MSTORE DUP1 SWAP3 SWAP2 SWAP1 DUP2 DUP2 MSTORE PUSH1 0x20 ADD DUP3 DUP1 SLOAD PUSH2 0x5B2 SWAP1 PUSH2 0xB58 JUMP JUMPDEST DUP1 ISZERO PUSH2 0x5FF JUMPI DUP1 PUSH1 0x1F LT PUSH2 0x5D4 JUMPI PUSH2 0x100 DUP1 DUP4 SLOAD DIV MUL DUP4 MSTORE SWAP2 PUSH1 0x20 ADD SWAP2 PUSH2 0x5FF JUMP JUMPDEST DUP3 ADD SWAP2 SWAP1 PUSH1 0x0 MSTORE PUSH1 0x20 PUSH1 0x0 KECCAK256 SWAP1 JUMPDEST DUP2 SLOAD DUP2 MSTORE SWAP1 PUSH1 0x1 ADD SWAP1 PUSH1 0x20 ADD DUP1 DUP4 GT PUSH2 0x5E2 JUMPI DUP3 SWAP1 SUB PUSH1 0x1F AND DUP3 ADD SWAP2 JUMPDEST POP POP POP POP POP DUP2 MSTORE PUSH1 0x20 ADD PUSH1 0x2 DUP3 ADD SLOAD DUP2 MSTORE POP POP SWAP1 POP SWAP1 JUMP JUMPDEST PUSH1 0x4 DUP2 DUP2 SLOAD DUP2 LT PUSH2 0x627 JUMPI PUSH1 0x0 DUP1 REVERT JUMPDEST SWAP1 PUSH1 0x0 MSTORE PUSH1 0x20 PUSH1 0x0 KECCAK256 ADD PUSH1 0x0 SWAP2 POP SWAP1 POP SLOAD DUP2 JUMP JUMPDEST PUSH1 0x2 DUP2 PUSH1 0x2 DUP2 LT PUSH2 0x64B JUMPI PUSH1 0x0 DUP1 REVERT JUMPDEST ADD PUSH1 0x0 SWAP2 POP SWAP1 POP SLOAD DUP2 JUMP JUMPDEST DUP3 DUP1 SLOAD PUSH2 0x662 SWAP1 PUSH2 0xB58 JUMP JUMPDEST SWAP1 PUSH1 0x0 MSTORE PUSH1 0x20 PUSH1 0x0 KECCAK256 SWAP1 PUSH1 0x1F ADD PUSH1 0x20 SWAP1 DIV DUP2 ADD SWAP3 DUP3 PUSH2 0x684 JUMPI PUSH1 0x0 DUP6 SSTORE PUSH2 0x6CB JUMP JUMPDEST DUP3 PUSH1 0x1F LT PUSH2 0x69D JUMPI DUP1 MLOAD PUSH1 0xFF NOT AND DUP4 DUP1 ADD OR DUP6 SSTORE PUSH2 0x6CB JUMP JUMPDEST DUP3 DUP1 ADD PUSH1 0x1 ADD DUP6 SSTORE DUP3 ISZERO PUSH2 0x6CB JUMPI SWAP2 DUP3 ADD JUMPDEST DUP3 DUP2 GT ISZERO PUSH2 0x6CA JUMPI DUP3 MLOAD DUP3 SSTORE SWAP2 PUSH1 0x20 ADD SWAP2 SWAP1 PUSH1 0x1 ADD SWAP1 PUSH2 0x6AF JUMP JUMPDEST JUMPDEST POP SWAP1 POP PUSH2 0x6D8 SWAP2 SWAP1 PUSH2 0x6FD JUMP JUMPDEST POP SWAP1 JUMP JUMPDEST PUSH1 0x40 MLOAD DUP1 PUSH1 0x60 ADD PUSH1 0x40 MSTORE DUP1 PUSH1 0x60 DUP2 MSTORE PUSH1 0x20 ADD PUSH1 0x60 DUP2 MSTORE PUSH1 0x20 ADD PUSH1 0x0 DUP2 MSTORE POP SWAP1 JUMP JUMPDEST JUMPDEST DUP1 DUP3 GT ISZERO PUSH2 0x716 JUMPI PUSH1 0x0 DUP2 PUSH1 0x0 SWAP1 SSTORE POP PUSH1 0x1 ADD PUSH2 0x6FE JUMP JUMPDEST POP SWAP1 JUMP JUMPDEST PUSH1 0x0 PUSH2 0x72D PUSH2 0x728 DUP5 PUSH2 0xAAE JUMP JUMPDEST PUSH2 0xA89 JUMP JUMPDEST SWAP1 POP DUP3 DUP2 MSTORE PUSH1 0x20 DUP2 ADD DUP5 DUP5 DUP5 ADD GT ISZERO PUSH2 0x749 JUMPI PUSH2 0x748 PUSH2 0xC4D JUMP JUMPDEST JUMPDEST PUSH2 0x754 DUP5 DUP3 DUP6 PUSH2 0xB16 JUMP JUMPDEST POP SWAP4 SWAP3 POP POP POP JUMP JUMPDEST PUSH1 0x0 DUP3 PUSH1 0x1F DUP4 ADD SLT PUSH2 0x771 JUMPI PUSH2 0x770 PUSH2 0xC48 JUMP JUMPDEST JUMPDEST DUP2 CALLDATALOAD PUSH2 0x781 DUP5 DUP3 PUSH1 0x20 DUP7 ADD PUSH2 0x71A JUMP JUMPDEST SWAP2 POP POP SWAP3 SWAP2 POP POP JUMP JUMPDEST PUSH1 0x0 DUP2 CALLDATALOAD SWAP1 POP PUSH2 0x799 DUP2 PUSH2 0xC6D JUMP JUMPDEST SWAP3 SWAP2 POP POP JUMP JUMPDEST PUSH1 0x0 DUP1 PUSH1 0x0 PUSH1 0x60 DUP5 DUP7 SUB SLT ISZERO PUSH2 0x7B8 JUMPI PUSH2 0x7B7 PUSH2 0xC57 JUMP JUMPDEST JUMPDEST PUSH1 0x0 DUP5 ADD CALLDATALOAD PUSH8 0xFFFFFFFFFFFFFFFF DUP2 GT ISZERO PUSH2 0x7D6 JUMPI PUSH2 0x7D5 PUSH2 0xC52 JUMP JUMPDEST JUMPDEST PUSH2 0x7E2 DUP7 DUP3 DUP8 ADD PUSH2 0x75C JUMP JUMPDEST SWAP4 POP POP PUSH1 0x20 DUP5 ADD CALLDATALOAD PUSH8 0xFFFFFFFFFFFFFFFF DUP2 GT ISZERO PUSH2 0x803 JUMPI PUSH2 0x802 PUSH2 0xC52 JUMP JUMPDEST JUMPDEST PUSH2 0x80F DUP7 DUP3 DUP8 ADD PUSH2 0x75C JUMP JUMPDEST SWAP3 POP POP PUSH1 0x40 PUSH2 0x820 DUP7 DUP3 DUP8 ADD PUSH2 0x78A JUMP JUMPDEST SWAP2 POP POP SWAP3 POP SWAP3 POP SWAP3 JUMP JUMPDEST PUSH1 0x0 PUSH1 0x20 DUP3 DUP5 SUB SLT ISZERO PUSH2 0x840 JUMPI PUSH2 0x83F PUSH2 0xC57 JUMP JUMPDEST JUMPDEST PUSH1 0x0 PUSH2 0x84E DUP5 DUP3 DUP6 ADD PUSH2 0x78A JUMP JUMPDEST SWAP2 POP POP SWAP3 SWAP2 POP POP JUMP JUMPDEST PUSH1 0x0 DUP1 PUSH1 0x40 DUP4 DUP6 SUB SLT ISZERO PUSH2 0x86E JUMPI PUSH2 0x86D PUSH2 0xC57 JUMP JUMPDEST JUMPDEST PUSH1 0x0 PUSH2 0x87C DUP6 DUP3 DUP7 ADD PUSH2 0x78A JUMP JUMPDEST SWAP3 POP POP PUSH1 0x20 PUSH2 0x88D DUP6 DUP3 DUP7 ADD PUSH2 0x78A JUMP JUMPDEST SWAP2 POP POP SWAP3 POP SWAP3 SWAP1 POP JUMP JUMPDEST PUSH1 0x0 DUP1 PUSH1 0x0 DUP1 PUSH1 0x80 DUP6 DUP8 SUB SLT ISZERO PUSH2 0x8B1 JUMPI PUSH2 0x8B0 PUSH2 0xC57 JUMP JUMPDEST JUMPDEST PUSH1 0x0 PUSH2 0x8BF DUP8 DUP3 DUP9 ADD PUSH2 0x78A JUMP JUMPDEST SWAP5 POP POP PUSH1 0x20 PUSH2 0x8D0 DUP8 DUP3 DUP9 ADD PUSH2 0x78A JUMP JUMPDEST SWAP4 POP POP PUSH1 0x40 PUSH2 0x8E1 DUP8 DUP3 DUP9 ADD PUSH2 0x78A JUMP JUMPDEST SWAP3 POP POP PUSH1 0x60 PUSH2 0x8F2 DUP8 DUP3 DUP9 ADD PUSH2 0x78A JUMP JUMPDEST SWAP2 POP POP SWAP3 SWAP6 SWAP2 SWAP5 POP SWAP3 POP JUMP JUMPDEST PUSH1 0x0 PUSH2 0x909 DUP3 PUSH2 0xADF JUMP JUMPDEST PUSH2 0x913 DUP2 DUP6 PUSH2 0xAEA JUMP JUMPDEST SWAP4 POP PUSH2 0x923 DUP2 DUP6 PUSH1 0x20 DUP7 ADD PUSH2 0xB25 JUMP JUMPDEST PUSH2 0x92C DUP2 PUSH2 0xC5C JUMP JUMPDEST DUP5 ADD SWAP2 POP POP SWAP3 SWAP2 POP POP JUMP JUMPDEST PUSH1 0x0 PUSH2 0x942 DUP3 PUSH2 0xADF JUMP JUMPDEST PUSH2 0x94C DUP2 DUP6 PUSH2 0xAFB JUMP JUMPDEST SWAP4 POP PUSH2 0x95C DUP2 DUP6 PUSH1 0x20 DUP7 ADD PUSH2 0xB25 JUMP JUMPDEST PUSH2 0x965 DUP2 PUSH2 0xC5C JUMP JUMPDEST DUP5 ADD SWAP2 POP POP SWAP3 SWAP2 POP POP JUMP JUMPDEST PUSH1 0x0 PUSH1 0x60 DUP4 ADD PUSH1 0x0 DUP4 ADD MLOAD DUP5 DUP3 SUB PUSH1 0x0 DUP7 ADD MSTORE PUSH2 0x98D DUP3 DUP3 PUSH2 0x8FE JUMP JUMPDEST SWAP2 POP POP PUSH1 0x20 DUP4 ADD MLOAD DUP5 DUP3 SUB PUSH1 0x20 DUP7 ADD MSTORE PUSH2 0x9A7 DUP3 DUP3 PUSH2 0x8FE JUMP JUMPDEST SWAP2 POP POP PUSH1 0x40 DUP4 ADD MLOAD PUSH2 0x9BC PUSH1 0x40 DUP7 ADD DUP3 PUSH2 0x9C7 JUMP JUMPDEST POP DUP1 SWAP2 POP POP SWAP3 SWAP2 POP POP JUMP JUMPDEST PUSH2 0x9D0 DUP2 PUSH2 0xB0C JUMP JUMPDEST DUP3 MSTORE POP POP JUMP JUMPDEST PUSH2 0x9DF DUP2 PUSH2 0xB0C JUMP JUMPDEST DUP3 MSTORE POP POP JUMP JUMPDEST PUSH1 0x0 PUSH1 0x20 DUP3 ADD SWAP1 POP DUP2 DUP2 SUB PUSH1 0x0 DUP4 ADD MSTORE PUSH2 0x9FF DUP2 DUP5 PUSH2 0x937 JUMP JUMPDEST SWAP1 POP SWAP3 SWAP2 POP POP JUMP JUMPDEST PUSH1 0x0 PUSH1 0x60 DUP3 ADD SWAP1 POP DUP2 DUP2 SUB PUSH1 0x0 DUP4 ADD MSTORE PUSH2 0xA21 DUP2 DUP7 PUSH2 0x937 JUMP JUMPDEST SWAP1 POP DUP2 DUP2 SUB PUSH1 0x20 DUP4 ADD MSTORE PUSH2 0xA35 DUP2 DUP6 PUSH2 0x937 JUMP JUMPDEST SWAP1 POP PUSH2 0xA44 PUSH1 0x40 DUP4 ADD DUP5 PUSH2 0x9D6 JUMP JUMPDEST SWAP5 SWAP4 POP POP POP POP JUMP JUMPDEST PUSH1 0x0 PUSH1 0x20 DUP3 ADD SWAP1 POP DUP2 DUP2 SUB PUSH1 0x0 DUP4 ADD MSTORE PUSH2 0xA66 DUP2 DUP5 PUSH2 0x970 JUMP JUMPDEST SWAP1 POP SWAP3 SWAP2 POP POP JUMP JUMPDEST PUSH1 0x0 PUSH1 0x20 DUP3 ADD SWAP1 POP PUSH2 0xA83 PUSH1 0x0 DUP4 ADD DUP5 PUSH2 0x9D6 JUMP JUMPDEST SWAP3 SWAP2 POP POP JUMP JUMPDEST PUSH1 0x0 PUSH2 0xA93 PUSH2 0xAA4 JUMP JUMPDEST SWAP1 POP PUSH2 0xA9F DUP3 DUP3 PUSH2 0xB8A JUMP JUMPDEST SWAP2 SWAP1 POP JUMP JUMPDEST PUSH1 0x0 PUSH1 0x40 MLOAD SWAP1 POP SWAP1 JUMP JUMPDEST PUSH1 0x0 PUSH8 0xFFFFFFFFFFFFFFFF DUP3 GT ISZERO PUSH2 0xAC9 JUMPI PUSH2 0xAC8 PUSH2 0xC19 JUMP JUMPDEST JUMPDEST PUSH2 0xAD2 DUP3 PUSH2 0xC5C JUMP JUMPDEST SWAP1 POP PUSH1 0x20 DUP2 ADD SWAP1 POP SWAP2 SWAP1 POP JUMP JUMPDEST PUSH1 0x0 DUP2 MLOAD SWAP1 POP SWAP2 SWAP1 POP JUMP JUMPDEST PUSH1 0x0 DUP3 DUP3 MSTORE PUSH1 0x20 DUP3 ADD SWAP1 POP SWAP3 SWAP2 POP POP JUMP JUMPDEST PUSH1 0x0 DUP3 DUP3 MSTORE PUSH1 0x20 DUP3 ADD SWAP1 POP SWAP3 SWAP2 POP POP JUMP JUMPDEST PUSH1 0x0 DUP2 SWAP1 POP SWAP2 SWAP1 POP JUMP JUMPDEST DUP3 DUP2 DUP4 CALLDATACOPY PUSH1 0x0 DUP4 DUP4 ADD MSTORE POP POP POP JUMP JUMPDEST PUSH1 0x0 JUMPDEST DUP4 DUP2 LT ISZERO PUSH2 0xB43 JUMPI DUP1 DUP3 ADD MLOAD DUP2 DUP5 ADD MSTORE PUSH1 0x20 DUP2 ADD SWAP1 POP PUSH2 0xB28 JUMP JUMPDEST DUP4 DUP2 GT ISZERO PUSH2 0xB52 JUMPI PUSH1 0x0 DUP5 DUP5 ADD MSTORE JUMPDEST POP POP POP POP JUMP JUMPDEST PUSH1 0x0 PUSH1 0x2 DUP3 DIV SWAP1 POP PUSH1 0x1 DUP3 AND DUP1 PUSH2 0xB70 JUMPI PUSH1 0x7F DUP3 AND SWAP2 POP JUMPDEST PUSH1 0x20 DUP3 LT DUP2 EQ ISZERO PUSH2 0xB84 JUMPI PUSH2 0xB83 PUSH2 0xBBB JUMP JUMPDEST JUMPDEST POP SWAP2 SWAP1 POP JUMP JUMPDEST PUSH2 0xB93 DUP3 PUSH2 0xC5C JUMP JUMPDEST DUP2 ADD DUP2 DUP2 LT PUSH8 0xFFFFFFFFFFFFFFFF DUP3 GT OR ISZERO PUSH2 0xBB2 JUMPI PUSH2 0xBB1 PUSH2 0xC19 JUMP JUMPDEST JUMPDEST DUP1 PUSH1 0x40 MSTORE POP POP POP JUMP JUMPDEST PUSH32 0x4E487B7100000000000000000000000000000000000000000000000000000000 PUSH1 0x0 MSTORE PUSH1 0x22 PUSH1 0x4 MSTORE PUSH1 0x24 PUSH1 0x0 REVERT JUMPDEST PUSH32 0x4E487B7100000000000000000000000000000000000000000000000000000000 PUSH1 0x0 MSTORE PUSH1 0x32 PUSH1 0x4 MSTORE PUSH1 0x24 PUSH1 0x0 REVERT JUMPDEST PUSH32 0x4E487B7100000000000000000000000000000000000000000000000000000000 PUSH1 0x0 MSTORE PUSH1 0x41 PUSH1 0x4 MSTORE PUSH1 0x24 PUSH1 0x0 REVERT JUMPDEST PUSH1 0x0 DUP1 REVERT JUMPDEST PUSH1 0x0 DUP1 REVERT JUMPDEST PUSH1 0x0 DUP1 REVERT JUMPDEST PUSH1 0x0 DUP1 REVERT JUMPDEST PUSH1 0x0 PUSH1 0x1F NOT PUSH1 0x1F DUP4 ADD AND SWAP1 POP SWAP2 SWAP1 POP JUMP JUMPDEST PUSH2 0xC76 DUP2 PUSH2 0xB0C JUMP JUMPDEST DUP2 EQ PUSH2 0xC81 JUMPI PUSH1 0x0 DUP1 REVERT JUMPDEST POP JUMP INVALID LOG2 PUSH5 0x6970667358 0x22 SLT KECCAK256 DUP12 0xE1 0xC8 0x5D SLT 0xD2 0xF PUSH3 0xBF4806 0xE5 SWAP12 0x26 0xF7 0xBE PUSH32 0xBBDE58C97C334EF30646EA5A18EAC864736F6C63430008070033000000000000 "
				},
				"gasEstimates": {
					"creation": {
						"codeDepositCost": "651600",
						"executionCost": "infinite",
						"totalCost": "infinite"
					},
					"external": {
						"age()": "2474",
						"assignValues(string,string,uint256)": "infinite",
						"characterOfAPerson()": "infinite",
						"enterValues(uint256,uint256)": "infinite",
						"enterValuesAgain(uint256,uint256,uint256,uint256)": "infinite",
						"getTraits()": "infinite",
						"luckNumbers2(uint256)": "infinite",
						"luckyNumbers(uint256)": "infinite",
						"name()": "infinite"
					}
				},
				"methodIdentifiers": {
					"age()": "262a9dff",
					"assignValues(string,string,uint256)": "767f9dcf",
					"characterOfAPerson()": "465fe0ee",
					"enterValues(uint256,uint256)": "204653d3",
					"enterValuesAgain(uint256,uint256,uint256,uint256)": "6d35e346",
					"getTraits()": "7f0429ef",
					"luckNumbers2(uint256)": "d653f307",
					"luckyNumbers(uint256)": "e780faa3",
					"name()": "06fdde03"
				}
			},
			"storageLayout": {
				"storage": [
					{
						"astId": 3,
						"contract": "contracts/basics.sol:Person",
						"label": "name",
						"offset": 0,
						"slot": "0",
						"type": "t_string_storage"
					},
					{
						"astId": 5,
						"contract": "contracts/basics.sol:Person",
						"label": "age",
						"offset": 0,
						"slot": "1",
						"type": "t_uint256"
					},
					{
						"astId": 25,
						"contract": "contracts/basics.sol:Person",
						"label": "luckyNumbers",
						"offset": 0,
						"slot": "2",
						"type": "t_array(t_uint256)2_storage"
					},
					{
						"astId": 28,
						"contract": "contracts/basics.sol:Person",
						"label": "luckNumbers2",
						"offset": 0,
						"slot": "4",
						"type": "t_array(t_uint256)dyn_storage"
					},
					{
						"astId": 94,
						"contract": "contracts/basics.sol:Person",
						"label": "characterOfAPerson",
						"offset": 0,
						"slot": "5",
						"type": "t_struct(Traits)91_storage"
					}
				],
				"types": {
					"t_array(t_uint256)2_storage": {
						"base": "t_uint256",
						"encoding": "inplace",
						"label": "uint256[2]",
						"numberOfBytes": "64"
					},
					"t_array(t_uint256)dyn_storage": {
						"base": "t_uint256",
						"encoding": "dynamic_array",
						"label": "uint256[]",
						"numberOfBytes": "32"
					},
					"t_string_storage": {
						"encoding": "bytes",
						"label": "string",
						"numberOfBytes": "32"
					},
					"t_struct(Traits)91_storage": {
						"encoding": "inplace",
						"label": "struct Person.Traits",
						"members": [
							{
								"astId": 86,
								"contract": "contracts/basics.sol:Person",
								"label": "color",
								"offset": 0,
								"slot": "0",
								"type": "t_string_storage"
							},
							{
								"astId": 88,
								"contract": "contracts/basics.sol:Person",
								"label": "country",
								"offset": 0,
								"slot": "1",
								"type": "t_string_storage"
							},
							{
								"astId": 90,
								"contract": "contracts/basics.sol:Person",
								"label": "height",
								"offset": 0,
								"slot": "2",
								"type": "t_uint256"
							}
						],
						"numberOfBytes": "96"
					},
					"t_uint256": {
						"encoding": "inplace",
						"label": "uint256",
						"numberOfBytes": "32"
					}
				}
			},
			"userdoc": {
				"kind": "user",
				"methods": {},
				"version": 1
			}
		}
	}
}