{
	"contracts/visibility2.sol": {
		"parent": {
			"abi": [
				{
					"inputs": [],
					"name": "getExternal",
					"outputs": [
						{
							"internalType": "string",
							"name": "",
							"type": "string"
						}
					],
					"stateMutability": "view",
					"type": "function"
				},
				{
					"inputs": [],
					"name": "getPublic",
					"outputs": [
						{
							"internalType": "string",
							"name": "",
							"type": "string"
						}
					],
					"stateMutability": "view",
					"type": "function"
				}
			],
			"devdoc": {
				"kind": "dev",
				"methods": {},
				"version": 1
			},
			"evm": {
				"assembly": "    /* \"contracts/visibility2.sol\":64:1354  contract parent{// contract ius deployed by someone\r... */\n  mstore(0x40, 0x80)\n    /* \"contracts/visibility2.sol\":123:154  string publicValue   = \"PUBLIC\" */\n  mload(0x40)\n  dup1\n  0x40\n  add\n  0x40\n  mstore\n  dup1\n  0x06\n  dup2\n  mstore\n  0x20\n  add\n  0x5055424c49430000000000000000000000000000000000000000000000000000\n  dup2\n  mstore\n  pop\n  0x00\n  swap1\n  dup1\n  mload\n  swap1\n  0x20\n  add\n  swap1\n  tag_1\n  swap3\n  swap2\n  swap1\n  tag_2\n  jump\t// in\ntag_1:\n  pop\n    /* \"contracts/visibility2.sol\":162:194  string priavteValue  = \"PRIVATE\" */\n  mload(0x40)\n  dup1\n  0x40\n  add\n  0x40\n  mstore\n  dup1\n  0x07\n  dup2\n  mstore\n  0x20\n  add\n  0x5052495641544500000000000000000000000000000000000000000000000000\n  dup2\n  mstore\n  pop\n  0x01\n  swap1\n  dup1\n  mload\n  swap1\n  0x20\n  add\n  swap1\n  tag_3\n  swap3\n  swap2\n  swap1\n  tag_2\n  jump\t// in\ntag_3:\n  pop\n    /* \"contracts/visibility2.sol\":202:235  string internalValue = \"INTERNAL\" */\n  mload(0x40)\n  dup1\n  0x40\n  add\n  0x40\n  mstore\n  dup1\n  0x08\n  dup2\n  mstore\n  0x20\n  add\n  0x494e5445524e414c000000000000000000000000000000000000000000000000\n  dup2\n  mstore\n  pop\n  0x02\n  swap1\n  dup1\n  mload\n  swap1\n  0x20\n  add\n  swap1\n  tag_4\n  swap3\n  swap2\n  swap1\n  tag_2\n  jump\t// in\ntag_4:\n  pop\n    /* \"contracts/visibility2.sol\":243:276  string externalValue = \"EXTERNAL\" */\n  mload(0x40)\n  dup1\n  0x40\n  add\n  0x40\n  mstore\n  dup1\n  0x08\n  dup2\n  mstore\n  0x20\n  add\n  0x45585445524e414c000000000000000000000000000000000000000000000000\n  dup2\n  mstore\n  pop\n  0x03\n  swap1\n  dup1\n  mload\n  swap1\n  0x20\n  add\n  swap1\n  tag_5\n  swap3\n  swap2\n  swap1\n  tag_2\n  jump\t// in\ntag_5:\n  pop\n    /* \"contracts/visibility2.sol\":64:1354  contract parent{// contract ius deployed by someone\r... */\n  callvalue\n  dup1\n  iszero\n  tag_6\n  jumpi\n  0x00\n  dup1\n  revert\ntag_6:\n  pop\n  jump(tag_7)\ntag_2:\n  dup3\n  dup1\n  sload\n  tag_8\n  swap1\n  tag_9\n  jump\t// in\ntag_8:\n  swap1\n  0x00\n  mstore\n  keccak256(0x00, 0x20)\n  swap1\n  0x1f\n  add\n  0x20\n  swap1\n  div\n  dup2\n  add\n  swap3\n  dup3\n  tag_11\n  jumpi\n  0x00\n  dup6\n  sstore\n  jump(tag_10)\ntag_11:\n  dup3\n  0x1f\n  lt\n  tag_12\n  jumpi\n  dup1\n  mload\n  not(0xff)\n  and\n  dup4\n  dup1\n  add\n  or\n  dup6\n  sstore\n  jump(tag_10)\ntag_12:\n  dup3\n  dup1\n  add\n  0x01\n  add\n  dup6\n  sstore\n  dup3\n  iszero\n  tag_10\n  jumpi\n  swap2\n  dup3\n  add\ntag_13:\n  dup3\n  dup2\n  gt\n  iszero\n  tag_14\n  jumpi\n  dup3\n  mload\n  dup3\n  sstore\n  swap2\n  0x20\n  add\n  swap2\n  swap1\n  0x01\n  add\n  swap1\n  jump(tag_13)\ntag_14:\ntag_10:\n  pop\n  swap1\n  pop\n  tag_15\n  swap2\n  swap1\n  tag_16\n  jump\t// in\ntag_15:\n  pop\n  swap1\n  jump\t// out\ntag_16:\ntag_17:\n  dup1\n  dup3\n  gt\n  iszero\n  tag_18\n  jumpi\n  0x00\n  dup2\n  0x00\n  swap1\n  sstore\n  pop\n  0x01\n  add\n  jump(tag_17)\ntag_18:\n  pop\n  swap1\n  jump\t// out\n    /* \"#utility.yul\":7:327   */\ntag_9:\n    /* \"#utility.yul\":51:57   */\n  0x00\n    /* \"#utility.yul\":88:89   */\n  0x02\n    /* \"#utility.yul\":82:86   */\n  dup3\n    /* \"#utility.yul\":78:90   */\n  div\n    /* \"#utility.yul\":68:90   */\n  swap1\n  pop\n    /* \"#utility.yul\":135:136   */\n  0x01\n    /* \"#utility.yul\":129:133   */\n  dup3\n    /* \"#utility.yul\":125:137   */\n  and\n    /* \"#utility.yul\":156:174   */\n  dup1\n    /* \"#utility.yul\":146:227   */\n  tag_21\n  jumpi\n    /* \"#utility.yul\":212:216   */\n  0x7f\n    /* \"#utility.yul\":204:210   */\n  dup3\n    /* \"#utility.yul\":200:217   */\n  and\n    /* \"#utility.yul\":190:217   */\n  swap2\n  pop\n    /* \"#utility.yul\":146:227   */\ntag_21:\n    /* \"#utility.yul\":274:276   */\n  0x20\n    /* \"#utility.yul\":266:272   */\n  dup3\n    /* \"#utility.yul\":263:277   */\n  lt\n    /* \"#utility.yul\":243:261   */\n  dup2\n    /* \"#utility.yul\":240:278   */\n  eq\n    /* \"#utility.yul\":237:321   */\n  iszero\n  tag_22\n  jumpi\n    /* \"#utility.yul\":293:311   */\n  tag_23\n  tag_24\n  jump\t// in\ntag_23:\n    /* \"#utility.yul\":237:321   */\ntag_22:\n    /* \"#utility.yul\":58:327   */\n  pop\n    /* \"#utility.yul\":7:327   */\n  swap2\n  swap1\n  pop\n  jump\t// out\n    /* \"#utility.yul\":333:513   */\ntag_24:\n    /* \"#utility.yul\":381:458   */\n  0x4e487b7100000000000000000000000000000000000000000000000000000000\n    /* \"#utility.yul\":378:379   */\n  0x00\n    /* \"#utility.yul\":371:459   */\n  mstore\n    /* \"#utility.yul\":478:482   */\n  0x22\n    /* \"#utility.yul\":475:476   */\n  0x04\n    /* \"#utility.yul\":468:483   */\n  mstore\n    /* \"#utility.yul\":502:506   */\n  0x24\n    /* \"#utility.yul\":499:500   */\n  0x00\n    /* \"#utility.yul\":492:507   */\n  revert\n    /* \"contracts/visibility2.sol\":64:1354  contract parent{// contract ius deployed by someone\r... */\ntag_7:\n  dataSize(sub_0)\n  dup1\n  dataOffset(sub_0)\n  0x00\n  codecopy\n  0x00\n  return\nstop\n\nsub_0: assembly {\n        /* \"contracts/visibility2.sol\":64:1354  contract parent{// contract ius deployed by someone\r... */\n      mstore(0x40, 0x80)\n      callvalue\n      dup1\n      iszero\n      tag_1\n      jumpi\n      0x00\n      dup1\n      revert\n    tag_1:\n      pop\n      jumpi(tag_2, lt(calldatasize, 0x04))\n      shr(0xe0, calldataload(0x00))\n      dup1\n      0x2c044779\n      eq\n      tag_3\n      jumpi\n      dup1\n      0xc932415b\n      eq\n      tag_4\n      jumpi\n    tag_2:\n      0x00\n      dup1\n      revert\n        /* \"contracts/visibility2.sol\":377:558  function getPublic()\r... */\n    tag_3:\n      tag_5\n      tag_6\n      jump\t// in\n    tag_5:\n      mload(0x40)\n      tag_7\n      swap2\n      swap1\n      tag_8\n      jump\t// in\n    tag_7:\n      mload(0x40)\n      dup1\n      swap2\n      sub\n      swap1\n      return\n        /* \"contracts/visibility2.sol\":1007:1142  function getExternal()\r... */\n    tag_4:\n      tag_9\n      tag_10\n      jump\t// in\n    tag_9:\n      mload(0x40)\n      tag_11\n      swap2\n      swap1\n      tag_8\n      jump\t// in\n    tag_11:\n      mload(0x40)\n      dup1\n      swap2\n      sub\n      swap1\n      return\n        /* \"contracts/visibility2.sol\":377:558  function getPublic()\r... */\n    tag_6:\n        /* \"contracts/visibility2.sol\":449:462  string memory */\n      0x60\n        /* \"contracts/visibility2.sol\":490:491  2 */\n      0x02\n        /* \"contracts/visibility2.sol\":481:486  1 + 1 */\n      dup1\n        /* \"contracts/visibility2.sol\":481:491  1 + 1 == 2 */\n      eq\n        /* \"contracts/visibility2.sol\":473:500  require(1 + 1 == 2,\"False\") */\n      tag_13\n      jumpi\n      mload(0x40)\n      0x08c379a000000000000000000000000000000000000000000000000000000000\n      dup2\n      mstore\n      0x04\n      add\n      tag_14\n      swap1\n      tag_15\n      jump\t// in\n    tag_14:\n      mload(0x40)\n      dup1\n      swap2\n      sub\n      swap1\n      revert\n    tag_13:\n        /* \"contracts/visibility2.sol\":540:551  publicValue */\n      0x00\n        /* \"contracts/visibility2.sol\":533:551  return publicValue */\n      dup1\n      sload\n      tag_16\n      swap1\n      tag_17\n      jump\t// in\n    tag_16:\n      dup1\n      0x1f\n      add\n      0x20\n      dup1\n      swap2\n      div\n      mul\n      0x20\n      add\n      mload(0x40)\n      swap1\n      dup2\n      add\n      0x40\n      mstore\n      dup1\n      swap3\n      swap2\n      swap1\n      dup2\n      dup2\n      mstore\n      0x20\n      add\n      dup3\n      dup1\n      sload\n      tag_18\n      swap1\n      tag_17\n      jump\t// in\n    tag_18:\n      dup1\n      iszero\n      tag_19\n      jumpi\n      dup1\n      0x1f\n      lt\n      tag_20\n      jumpi\n      0x0100\n      dup1\n      dup4\n      sload\n      div\n      mul\n      dup4\n      mstore\n      swap2\n      0x20\n      add\n      swap2\n      jump(tag_19)\n    tag_20:\n      dup3\n      add\n      swap2\n      swap1\n      0x00\n      mstore\n      keccak256(0x00, 0x20)\n      swap1\n    tag_21:\n      dup2\n      sload\n      dup2\n      mstore\n      swap1\n      0x01\n      add\n      swap1\n      0x20\n      add\n      dup1\n      dup4\n      gt\n      tag_21\n      jumpi\n      dup3\n      swap1\n      sub\n      0x1f\n      and\n      dup3\n      add\n      swap2\n    tag_19:\n      pop\n      pop\n      pop\n      pop\n      pop\n      swap1\n      pop\n        /* \"contracts/visibility2.sol\":377:558  function getPublic()\r... */\n      swap1\n      jump\t// out\n        /* \"contracts/visibility2.sol\":1007:1142  function getExternal()\r... */\n    tag_10:\n        /* \"contracts/visibility2.sol\":1091:1104  string memory */\n      0x60\n        /* \"contracts/visibility2.sol\":1122:1135  externalValue */\n      0x03\n        /* \"contracts/visibility2.sol\":1115:1135  return externalValue */\n      dup1\n      sload\n      tag_23\n      swap1\n      tag_17\n      jump\t// in\n    tag_23:\n      dup1\n      0x1f\n      add\n      0x20\n      dup1\n      swap2\n      div\n      mul\n      0x20\n      add\n      mload(0x40)\n      swap1\n      dup2\n      add\n      0x40\n      mstore\n      dup1\n      swap3\n      swap2\n      swap1\n      dup2\n      dup2\n      mstore\n      0x20\n      add\n      dup3\n      dup1\n      sload\n      tag_24\n      swap1\n      tag_17\n      jump\t// in\n    tag_24:\n      dup1\n      iszero\n      tag_25\n      jumpi\n      dup1\n      0x1f\n      lt\n      tag_26\n      jumpi\n      0x0100\n      dup1\n      dup4\n      sload\n      div\n      mul\n      dup4\n      mstore\n      swap2\n      0x20\n      add\n      swap2\n      jump(tag_25)\n    tag_26:\n      dup3\n      add\n      swap2\n      swap1\n      0x00\n      mstore\n      keccak256(0x00, 0x20)\n      swap1\n    tag_27:\n      dup2\n      sload\n      dup2\n      mstore\n      swap1\n      0x01\n      add\n      swap1\n      0x20\n      add\n      dup1\n      dup4\n      gt\n      tag_27\n      jumpi\n      dup3\n      swap1\n      sub\n      0x1f\n      and\n      dup3\n      add\n      swap2\n    tag_25:\n      pop\n      pop\n      pop\n      pop\n      pop\n      swap1\n      pop\n        /* \"contracts/visibility2.sol\":1007:1142  function getExternal()\r... */\n      swap1\n      jump\t// out\n        /* \"#utility.yul\":7:371   */\n    tag_29:\n        /* \"#utility.yul\":95:98   */\n      0x00\n        /* \"#utility.yul\":123:162   */\n      tag_31\n        /* \"#utility.yul\":156:161   */\n      dup3\n        /* \"#utility.yul\":123:162   */\n      tag_32\n      jump\t// in\n    tag_31:\n        /* \"#utility.yul\":178:249   */\n      tag_33\n        /* \"#utility.yul\":242:248   */\n      dup2\n        /* \"#utility.yul\":237:240   */\n      dup6\n        /* \"#utility.yul\":178:249   */\n      tag_34\n      jump\t// in\n    tag_33:\n        /* \"#utility.yul\":171:249   */\n      swap4\n      pop\n        /* \"#utility.yul\":258:310   */\n      tag_35\n        /* \"#utility.yul\":303:309   */\n      dup2\n        /* \"#utility.yul\":298:301   */\n      dup6\n        /* \"#utility.yul\":291:295   */\n      0x20\n        /* \"#utility.yul\":284:289   */\n      dup7\n        /* \"#utility.yul\":280:296   */\n      add\n        /* \"#utility.yul\":258:310   */\n      tag_36\n      jump\t// in\n    tag_35:\n        /* \"#utility.yul\":335:364   */\n      tag_37\n        /* \"#utility.yul\":357:363   */\n      dup2\n        /* \"#utility.yul\":335:364   */\n      tag_38\n      jump\t// in\n    tag_37:\n        /* \"#utility.yul\":330:333   */\n      dup5\n        /* \"#utility.yul\":326:365   */\n      add\n        /* \"#utility.yul\":319:365   */\n      swap2\n      pop\n        /* \"#utility.yul\":99:371   */\n      pop\n        /* \"#utility.yul\":7:371   */\n      swap3\n      swap2\n      pop\n      pop\n      jump\t// out\n        /* \"#utility.yul\":377:742   */\n    tag_39:\n        /* \"#utility.yul\":519:522   */\n      0x00\n        /* \"#utility.yul\":540:606   */\n      tag_41\n        /* \"#utility.yul\":604:605   */\n      0x05\n        /* \"#utility.yul\":599:602   */\n      dup4\n        /* \"#utility.yul\":540:606   */\n      tag_34\n      jump\t// in\n    tag_41:\n        /* \"#utility.yul\":533:606   */\n      swap2\n      pop\n        /* \"#utility.yul\":615:708   */\n      tag_42\n        /* \"#utility.yul\":704:707   */\n      dup3\n        /* \"#utility.yul\":615:708   */\n      tag_43\n      jump\t// in\n    tag_42:\n        /* \"#utility.yul\":733:735   */\n      0x20\n        /* \"#utility.yul\":728:731   */\n      dup3\n        /* \"#utility.yul\":724:736   */\n      add\n        /* \"#utility.yul\":717:736   */\n      swap1\n      pop\n        /* \"#utility.yul\":377:742   */\n      swap2\n      swap1\n      pop\n      jump\t// out\n        /* \"#utility.yul\":748:1061   */\n    tag_8:\n        /* \"#utility.yul\":861:865   */\n      0x00\n        /* \"#utility.yul\":899:901   */\n      0x20\n        /* \"#utility.yul\":888:897   */\n      dup3\n        /* \"#utility.yul\":884:902   */\n      add\n        /* \"#utility.yul\":876:902   */\n      swap1\n      pop\n        /* \"#utility.yul\":948:957   */\n      dup2\n        /* \"#utility.yul\":942:946   */\n      dup2\n        /* \"#utility.yul\":938:958   */\n      sub\n        /* \"#utility.yul\":934:935   */\n      0x00\n        /* \"#utility.yul\":923:932   */\n      dup4\n        /* \"#utility.yul\":919:936   */\n      add\n        /* \"#utility.yul\":912:959   */\n      mstore\n        /* \"#utility.yul\":976:1054   */\n      tag_45\n        /* \"#utility.yul\":1049:1053   */\n      dup2\n        /* \"#utility.yul\":1040:1046   */\n      dup5\n        /* \"#utility.yul\":976:1054   */\n      tag_29\n      jump\t// in\n    tag_45:\n        /* \"#utility.yul\":968:1054   */\n      swap1\n      pop\n        /* \"#utility.yul\":748:1061   */\n      swap3\n      swap2\n      pop\n      pop\n      jump\t// out\n        /* \"#utility.yul\":1067:1486   */\n    tag_15:\n        /* \"#utility.yul\":1233:1237   */\n      0x00\n        /* \"#utility.yul\":1271:1273   */\n      0x20\n        /* \"#utility.yul\":1260:1269   */\n      dup3\n        /* \"#utility.yul\":1256:1274   */\n      add\n        /* \"#utility.yul\":1248:1274   */\n      swap1\n      pop\n        /* \"#utility.yul\":1320:1329   */\n      dup2\n        /* \"#utility.yul\":1314:1318   */\n      dup2\n        /* \"#utility.yul\":1310:1330   */\n      sub\n        /* \"#utility.yul\":1306:1307   */\n      0x00\n        /* \"#utility.yul\":1295:1304   */\n      dup4\n        /* \"#utility.yul\":1291:1308   */\n      add\n        /* \"#utility.yul\":1284:1331   */\n      mstore\n        /* \"#utility.yul\":1348:1479   */\n      tag_47\n        /* \"#utility.yul\":1474:1478   */\n      dup2\n        /* \"#utility.yul\":1348:1479   */\n      tag_39\n      jump\t// in\n    tag_47:\n        /* \"#utility.yul\":1340:1479   */\n      swap1\n      pop\n        /* \"#utility.yul\":1067:1486   */\n      swap2\n      swap1\n      pop\n      jump\t// out\n        /* \"#utility.yul\":1492:1591   */\n    tag_32:\n        /* \"#utility.yul\":1544:1550   */\n      0x00\n        /* \"#utility.yul\":1578:1583   */\n      dup2\n        /* \"#utility.yul\":1572:1584   */\n      mload\n        /* \"#utility.yul\":1562:1584   */\n      swap1\n      pop\n        /* \"#utility.yul\":1492:1591   */\n      swap2\n      swap1\n      pop\n      jump\t// out\n        /* \"#utility.yul\":1597:1766   */\n    tag_34:\n        /* \"#utility.yul\":1681:1692   */\n      0x00\n        /* \"#utility.yul\":1715:1721   */\n      dup3\n        /* \"#utility.yul\":1710:1713   */\n      dup3\n        /* \"#utility.yul\":1703:1722   */\n      mstore\n        /* \"#utility.yul\":1755:1759   */\n      0x20\n        /* \"#utility.yul\":1750:1753   */\n      dup3\n        /* \"#utility.yul\":1746:1760   */\n      add\n        /* \"#utility.yul\":1731:1760   */\n      swap1\n      pop\n        /* \"#utility.yul\":1597:1766   */\n      swap3\n      swap2\n      pop\n      pop\n      jump\t// out\n        /* \"#utility.yul\":1772:2079   */\n    tag_36:\n        /* \"#utility.yul\":1840:1841   */\n      0x00\n        /* \"#utility.yul\":1850:1963   */\n    tag_51:\n        /* \"#utility.yul\":1864:1870   */\n      dup4\n        /* \"#utility.yul\":1861:1862   */\n      dup2\n        /* \"#utility.yul\":1858:1871   */\n      lt\n        /* \"#utility.yul\":1850:1963   */\n      iszero\n      tag_53\n      jumpi\n        /* \"#utility.yul\":1949:1950   */\n      dup1\n        /* \"#utility.yul\":1944:1947   */\n      dup3\n        /* \"#utility.yul\":1940:1951   */\n      add\n        /* \"#utility.yul\":1934:1952   */\n      mload\n        /* \"#utility.yul\":1930:1931   */\n      dup2\n        /* \"#utility.yul\":1925:1928   */\n      dup5\n        /* \"#utility.yul\":1921:1932   */\n      add\n        /* \"#utility.yul\":1914:1953   */\n      mstore\n        /* \"#utility.yul\":1886:1888   */\n      0x20\n        /* \"#utility.yul\":1883:1884   */\n      dup2\n        /* \"#utility.yul\":1879:1889   */\n      add\n        /* \"#utility.yul\":1874:1889   */\n      swap1\n      pop\n        /* \"#utility.yul\":1850:1963   */\n      jump(tag_51)\n    tag_53:\n        /* \"#utility.yul\":1981:1987   */\n      dup4\n        /* \"#utility.yul\":1978:1979   */\n      dup2\n        /* \"#utility.yul\":1975:1988   */\n      gt\n        /* \"#utility.yul\":1972:2073   */\n      iszero\n      tag_54\n      jumpi\n        /* \"#utility.yul\":2061:2062   */\n      0x00\n        /* \"#utility.yul\":2052:2058   */\n      dup5\n        /* \"#utility.yul\":2047:2050   */\n      dup5\n        /* \"#utility.yul\":2043:2059   */\n      add\n        /* \"#utility.yul\":2036:2063   */\n      mstore\n        /* \"#utility.yul\":1972:2073   */\n    tag_54:\n        /* \"#utility.yul\":1821:2079   */\n      pop\n        /* \"#utility.yul\":1772:2079   */\n      pop\n      pop\n      pop\n      jump\t// out\n        /* \"#utility.yul\":2085:2405   */\n    tag_17:\n        /* \"#utility.yul\":2129:2135   */\n      0x00\n        /* \"#utility.yul\":2166:2167   */\n      0x02\n        /* \"#utility.yul\":2160:2164   */\n      dup3\n        /* \"#utility.yul\":2156:2168   */\n      div\n        /* \"#utility.yul\":2146:2168   */\n      swap1\n      pop\n        /* \"#utility.yul\":2213:2214   */\n      0x01\n        /* \"#utility.yul\":2207:2211   */\n      dup3\n        /* \"#utility.yul\":2203:2215   */\n      and\n        /* \"#utility.yul\":2234:2252   */\n      dup1\n        /* \"#utility.yul\":2224:2305   */\n      tag_56\n      jumpi\n        /* \"#utility.yul\":2290:2294   */\n      0x7f\n        /* \"#utility.yul\":2282:2288   */\n      dup3\n        /* \"#utility.yul\":2278:2295   */\n      and\n        /* \"#utility.yul\":2268:2295   */\n      swap2\n      pop\n        /* \"#utility.yul\":2224:2305   */\n    tag_56:\n        /* \"#utility.yul\":2352:2354   */\n      0x20\n        /* \"#utility.yul\":2344:2350   */\n      dup3\n        /* \"#utility.yul\":2341:2355   */\n      lt\n        /* \"#utility.yul\":2321:2339   */\n      dup2\n        /* \"#utility.yul\":2318:2356   */\n      eq\n        /* \"#utility.yul\":2315:2399   */\n      iszero\n      tag_57\n      jumpi\n        /* \"#utility.yul\":2371:2389   */\n      tag_58\n      tag_59\n      jump\t// in\n    tag_58:\n        /* \"#utility.yul\":2315:2399   */\n    tag_57:\n        /* \"#utility.yul\":2136:2405   */\n      pop\n        /* \"#utility.yul\":2085:2405   */\n      swap2\n      swap1\n      pop\n      jump\t// out\n        /* \"#utility.yul\":2411:2591   */\n    tag_59:\n        /* \"#utility.yul\":2459:2536   */\n      0x4e487b7100000000000000000000000000000000000000000000000000000000\n        /* \"#utility.yul\":2456:2457   */\n      0x00\n        /* \"#utility.yul\":2449:2537   */\n      mstore\n        /* \"#utility.yul\":2556:2560   */\n      0x22\n        /* \"#utility.yul\":2553:2554   */\n      0x04\n        /* \"#utility.yul\":2546:2561   */\n      mstore\n        /* \"#utility.yul\":2580:2584   */\n      0x24\n        /* \"#utility.yul\":2577:2578   */\n      0x00\n        /* \"#utility.yul\":2570:2585   */\n      revert\n        /* \"#utility.yul\":2597:2699   */\n    tag_38:\n        /* \"#utility.yul\":2638:2644   */\n      0x00\n        /* \"#utility.yul\":2689:2691   */\n      0x1f\n        /* \"#utility.yul\":2685:2692   */\n      not\n        /* \"#utility.yul\":2680:2682   */\n      0x1f\n        /* \"#utility.yul\":2673:2678   */\n      dup4\n        /* \"#utility.yul\":2669:2683   */\n      add\n        /* \"#utility.yul\":2665:2693   */\n      and\n        /* \"#utility.yul\":2655:2693   */\n      swap1\n      pop\n        /* \"#utility.yul\":2597:2699   */\n      swap2\n      swap1\n      pop\n      jump\t// out\n        /* \"#utility.yul\":2705:2860   */\n    tag_43:\n        /* \"#utility.yul\":2845:2852   */\n      0x46616c7365000000000000000000000000000000000000000000000000000000\n        /* \"#utility.yul\":2841:2842   */\n      0x00\n        /* \"#utility.yul\":2833:2839   */\n      dup3\n        /* \"#utility.yul\":2829:2843   */\n      add\n        /* \"#utility.yul\":2822:2853   */\n      mstore\n        /* \"#utility.yul\":2705:2860   */\n      pop\n      jump\t// out\n\n    auxdata: 0xa264697066735822122095a5b7db3a3f65f0f535c2c2940550f1ce396fc7cc1d9f0942cf709d1f799ff264736f6c63430008070033\n}\n",
				"bytecode": {
					"linkReferences": {},
					"object": "60806040526040518060400160405280600681526020017f5055424c494300000000000000000000000000000000000000000000000000008152506000908051906020019061004f929190610146565b506040518060400160405280600781526020017f50524956415445000000000000000000000000000000000000000000000000008152506001908051906020019061009b929190610146565b506040518060400160405280600881526020017f494e5445524e414c000000000000000000000000000000000000000000000000815250600290805190602001906100e7929190610146565b506040518060400160405280600881526020017f45585445524e414c00000000000000000000000000000000000000000000000081525060039080519060200190610133929190610146565b5034801561014057600080fd5b5061024a565b828054610152906101e9565b90600052602060002090601f01602090048101928261017457600085556101bb565b82601f1061018d57805160ff19168380011785556101bb565b828001600101855582156101bb579182015b828111156101ba57825182559160200191906001019061019f565b5b5090506101c891906101cc565b5090565b5b808211156101e55760008160009055506001016101cd565b5090565b6000600282049050600182168061020157607f821691505b602082108114156102155761021461021b565b5b50919050565b7f4e487b7100000000000000000000000000000000000000000000000000000000600052602260045260246000fd5b61039c806102596000396000f3fe608060405234801561001057600080fd5b50600436106100365760003560e01c80632c0447791461003b578063c932415b14610059575b600080fd5b610043610077565b604051610050919061023a565b60405180910390f35b61006161014c565b60405161006e919061023a565b60405180910390f35b6060600280146100bc576040517f08c379a00000000000000000000000000000000000000000000000000000000081526004016100b39061025c565b60405180910390fd5b600080546100c9906102cb565b80601f01602080910402602001604051908101604052809291908181526020018280546100f5906102cb565b80156101425780601f1061011757610100808354040283529160200191610142565b820191906000526020600020905b81548152906001019060200180831161012557829003601f168201915b5050505050905090565b60606003805461015b906102cb565b80601f0160208091040260200160405190810160405280929190818152602001828054610187906102cb565b80156101d45780601f106101a9576101008083540402835291602001916101d4565b820191906000526020600020905b8154815290600101906020018083116101b757829003601f168201915b5050505050905090565b60006101e98261027c565b6101f38185610287565b9350610203818560208601610298565b61020c8161032c565b840191505092915050565b6000610224600583610287565b915061022f8261033d565b602082019050919050565b6000602082019050818103600083015261025481846101de565b905092915050565b6000602082019050818103600083015261027581610217565b9050919050565b600081519050919050565b600082825260208201905092915050565b60005b838110156102b657808201518184015260208101905061029b565b838111156102c5576000848401525b50505050565b600060028204905060018216806102e357607f821691505b602082108114156102f7576102f66102fd565b5b50919050565b7f4e487b7100000000000000000000000000000000000000000000000000000000600052602260045260246000fd5b6000601f19601f8301169050919050565b7f46616c736500000000000000000000000000000000000000000000000000000060008201525056fea264697066735822122095a5b7db3a3f65f0f535c2c2940550f1ce396fc7cc1d9f0942cf709d1f799ff264736f6c63430008070033",
					"opcodes": "PUSH1 0x80 PUSH1 0x40 MSTORE PUSH1 0x40 MLOAD DUP1 PUSH1 0x40 ADD PUSH1 0x40 MSTORE DUP1 PUSH1 0x6 DUP2 MSTORE PUSH1 0x20 ADD PUSH32 0x5055424C49430000000000000000000000000000000000000000000000000000 DUP2 MSTORE POP PUSH1 0x0 SWAP1 DUP1 MLOAD SWAP1 PUSH1 0x20 ADD SWAP1 PUSH2 0x4F SWAP3 SWAP2 SWAP1 PUSH2 0x146 JUMP JUMPDEST POP PUSH1 0x40 MLOAD DUP1 PUSH1 0x40 ADD PUSH1 0x40 MSTORE DUP1 PUSH1 0x7 DUP2 MSTORE PUSH1 0x20 ADD PUSH32 0x5052495641544500000000000000000000000000000000000000000000000000 DUP2 MSTORE POP PUSH1 0x1 SWAP1 DUP1 MLOAD SWAP1 PUSH1 0x20 ADD SWAP1 PUSH2 0x9B SWAP3 SWAP2 SWAP1 PUSH2 0x146 JUMP JUMPDEST POP PUSH1 0x40 MLOAD DUP1 PUSH1 0x40 ADD PUSH1 0x40 MSTORE DUP1 PUSH1 0x8 DUP2 MSTORE PUSH1 0x20 ADD PUSH32 0x494E5445524E414C000000000000000000000000000000000000000000000000 DUP2 MSTORE POP PUSH1 0x2 SWAP1 DUP1 MLOAD SWAP1 PUSH1 0x20 ADD SWAP1 PUSH2 0xE7 SWAP3 SWAP2 SWAP1 PUSH2 0x146 JUMP JUMPDEST POP PUSH1 0x40 MLOAD DUP1 PUSH1 0x40 ADD PUSH1 0x40 MSTORE DUP1 PUSH1 0x8 DUP2 MSTORE PUSH1 0x20 ADD PUSH32 0x45585445524E414C000000000000000000000000000000000000000000000000 DUP2 MSTORE POP PUSH1 0x3 SWAP1 DUP1 MLOAD SWAP1 PUSH1 0x20 ADD SWAP1 PUSH2 0x133 SWAP3 SWAP2 SWAP1 PUSH2 0x146 JUMP JUMPDEST POP CALLVALUE DUP1 ISZERO PUSH2 0x140 JUMPI PUSH1 0x0 DUP1 REVERT JUMPDEST POP PUSH2 0x24A JUMP JUMPDEST DUP3 DUP1 SLOAD PUSH2 0x152 SWAP1 PUSH2 0x1E9 JUMP JUMPDEST SWAP1 PUSH1 0x0 MSTORE PUSH1 0x20 PUSH1 0x0 KECCAK256 SWAP1 PUSH1 0x1F ADD PUSH1 0x20 SWAP1 DIV DUP2 ADD SWAP3 DUP3 PUSH2 0x174 JUMPI PUSH1 0x0 DUP6 SSTORE PUSH2 0x1BB JUMP JUMPDEST DUP3 PUSH1 0x1F LT PUSH2 0x18D JUMPI DUP1 MLOAD PUSH1 0xFF NOT AND DUP4 DUP1 ADD OR DUP6 SSTORE PUSH2 0x1BB JUMP JUMPDEST DUP3 DUP1 ADD PUSH1 0x1 ADD DUP6 SSTORE DUP3 ISZERO PUSH2 0x1BB JUMPI SWAP2 DUP3 ADD JUMPDEST DUP3 DUP2 GT ISZERO PUSH2 0x1BA JUMPI DUP3 MLOAD DUP3 SSTORE SWAP2 PUSH1 0x20 ADD SWAP2 SWAP1 PUSH1 0x1 ADD SWAP1 PUSH2 0x19F JUMP JUMPDEST JUMPDEST POP SWAP1 POP PUSH2 0x1C8 SWAP2 SWAP1 PUSH2 0x1CC JUMP JUMPDEST POP SWAP1 JUMP JUMPDEST JUMPDEST DUP1 DUP3 GT ISZERO PUSH2 0x1E5 JUMPI PUSH1 0x0 DUP2 PUSH1 0x0 SWAP1 SSTORE POP PUSH1 0x1 ADD PUSH2 0x1CD JUMP JUMPDEST POP SWAP1 JUMP JUMPDEST PUSH1 0x0 PUSH1 0x2 DUP3 DIV SWAP1 POP PUSH1 0x1 DUP3 AND DUP1 PUSH2 0x201 JUMPI PUSH1 0x7F DUP3 AND SWAP2 POP JUMPDEST PUSH1 0x20 DUP3 LT DUP2 EQ ISZERO PUSH2 0x215 JUMPI PUSH2 0x214 PUSH2 0x21B JUMP JUMPDEST JUMPDEST POP SWAP2 SWAP1 POP JUMP JUMPDEST PUSH32 0x4E487B7100000000000000000000000000000000000000000000000000000000 PUSH1 0x0 MSTORE PUSH1 0x22 PUSH1 0x4 MSTORE PUSH1 0x24 PUSH1 0x0 REVERT JUMPDEST PUSH2 0x39C DUP1 PUSH2 0x259 PUSH1 0x0 CODECOPY PUSH1 0x0 RETURN INVALID PUSH1 0x80 PUSH1 0x40 MSTORE CALLVALUE DUP1 ISZERO PUSH2 0x10 JUMPI PUSH1 0x0 DUP1 REVERT JUMPDEST POP PUSH1 0x4 CALLDATASIZE LT PUSH2 0x36 JUMPI PUSH1 0x0 CALLDATALOAD PUSH1 0xE0 SHR DUP1 PUSH4 0x2C044779 EQ PUSH2 0x3B JUMPI DUP1 PUSH4 0xC932415B EQ PUSH2 0x59 JUMPI JUMPDEST PUSH1 0x0 DUP1 REVERT JUMPDEST PUSH2 0x43 PUSH2 0x77 JUMP JUMPDEST PUSH1 0x40 MLOAD PUSH2 0x50 SWAP2 SWAP1 PUSH2 0x23A JUMP JUMPDEST PUSH1 0x40 MLOAD DUP1 SWAP2 SUB SWAP1 RETURN JUMPDEST PUSH2 0x61 PUSH2 0x14C JUMP JUMPDEST PUSH1 0x40 MLOAD PUSH2 0x6E SWAP2 SWAP1 PUSH2 0x23A JUMP JUMPDEST PUSH1 0x40 MLOAD DUP1 SWAP2 SUB SWAP1 RETURN JUMPDEST PUSH1 0x60 PUSH1 0x2 DUP1 EQ PUSH2 0xBC JUMPI PUSH1 0x40 MLOAD PUSH32 0x8C379A000000000000000000000000000000000000000000000000000000000 DUP2 MSTORE PUSH1 0x4 ADD PUSH2 0xB3 SWAP1 PUSH2 0x25C JUMP JUMPDEST PUSH1 0x40 MLOAD DUP1 SWAP2 SUB SWAP1 REVERT JUMPDEST PUSH1 0x0 DUP1 SLOAD PUSH2 0xC9 SWAP1 PUSH2 0x2CB JUMP JUMPDEST DUP1 PUSH1 0x1F ADD PUSH1 0x20 DUP1 SWAP2 DIV MUL PUSH1 0x20 ADD PUSH1 0x40 MLOAD SWAP1 DUP2 ADD PUSH1 0x40 MSTORE DUP1 SWAP3 SWAP2 SWAP1 DUP2 DUP2 MSTORE PUSH1 0x20 ADD DUP3 DUP1 SLOAD PUSH2 0xF5 SWAP1 PUSH2 0x2CB JUMP JUMPDEST DUP1 ISZERO PUSH2 0x142 JUMPI DUP1 PUSH1 0x1F LT PUSH2 0x117 JUMPI PUSH2 0x100 DUP1 DUP4 SLOAD DIV MUL DUP4 MSTORE SWAP2 PUSH1 0x20 ADD SWAP2 PUSH2 0x142 JUMP JUMPDEST DUP3 ADD SWAP2 SWAP1 PUSH1 0x0 MSTORE PUSH1 0x20 PUSH1 0x0 KECCAK256 SWAP1 JUMPDEST DUP2 SLOAD DUP2 MSTORE SWAP1 PUSH1 0x1 ADD SWAP1 PUSH1 0x20 ADD DUP1 DUP4 GT PUSH2 0x125 JUMPI DUP3 SWAP1 SUB PUSH1 0x1F AND DUP3 ADD SWAP2 JUMPDEST POP POP POP POP POP SWAP1 POP SWAP1 JUMP JUMPDEST PUSH1 0x60 PUSH1 0x3 DUP1 SLOAD PUSH2 0x15B SWAP1 PUSH2 0x2CB JUMP JUMPDEST DUP1 PUSH1 0x1F ADD PUSH1 0x20 DUP1 SWAP2 DIV MUL PUSH1 0x20 ADD PUSH1 0x40 MLOAD SWAP1 DUP2 ADD PUSH1 0x40 MSTORE DUP1 SWAP3 SWAP2 SWAP1 DUP2 DUP2 MSTORE PUSH1 0x20 ADD DUP3 DUP1 SLOAD PUSH2 0x187 SWAP1 PUSH2 0x2CB JUMP JUMPDEST DUP1 ISZERO PUSH2 0x1D4 JUMPI DUP1 PUSH1 0x1F LT PUSH2 0x1A9 JUMPI PUSH2 0x100 DUP1 DUP4 SLOAD DIV MUL DUP4 MSTORE SWAP2 PUSH1 0x20 ADD SWAP2 PUSH2 0x1D4 JUMP JUMPDEST DUP3 ADD SWAP2 SWAP1 PUSH1 0x0 MSTORE PUSH1 0x20 PUSH1 0x0 KECCAK256 SWAP1 JUMPDEST DUP2 SLOAD DUP2 MSTORE SWAP1 PUSH1 0x1 ADD SWAP1 PUSH1 0x20 ADD DUP1 DUP4 GT PUSH2 0x1B7 JUMPI DUP3 SWAP1 SUB PUSH1 0x1F AND DUP3 ADD SWAP2 JUMPDEST POP POP POP POP POP SWAP1 POP SWAP1 JUMP JUMPDEST PUSH1 0x0 PUSH2 0x1E9 DUP3 PUSH2 0x27C JUMP JUMPDEST PUSH2 0x1F3 DUP2 DUP6 PUSH2 0x287 JUMP JUMPDEST SWAP4 POP PUSH2 0x203 DUP2 DUP6 PUSH1 0x20 DUP7 ADD PUSH2 0x298 JUMP JUMPDEST PUSH2 0x20C DUP2 PUSH2 0x32C JUMP JUMPDEST DUP5 ADD SWAP2 POP POP SWAP3 SWAP2 POP POP JUMP JUMPDEST PUSH1 0x0 PUSH2 0x224 PUSH1 0x5 DUP4 PUSH2 0x287 JUMP JUMPDEST SWAP2 POP PUSH2 0x22F DUP3 PUSH2 0x33D JUMP JUMPDEST PUSH1 0x20 DUP3 ADD SWAP1 POP SWAP2 SWAP1 POP JUMP JUMPDEST PUSH1 0x0 PUSH1 0x20 DUP3 ADD SWAP1 POP DUP2 DUP2 SUB PUSH1 0x0 DUP4 ADD MSTORE PUSH2 0x254 DUP2 DUP5 PUSH2 0x1DE JUMP JUMPDEST SWAP1 POP SWAP3 SWAP2 POP POP JUMP JUMPDEST PUSH1 0x0 PUSH1 0x20 DUP3 ADD SWAP1 POP DUP2 DUP2 SUB PUSH1 0x0 DUP4 ADD MSTORE PUSH2 0x275 DUP2 PUSH2 0x217 JUMP JUMPDEST SWAP1 POP SWAP2 SWAP1 POP JUMP JUMPDEST PUSH1 0x0 DUP2 MLOAD SWAP1 POP SWAP2 SWAP1 POP JUMP JUMPDEST PUSH1 0x0 DUP3 DUP3 MSTORE PUSH1 0x20 DUP3 ADD SWAP1 POP SWAP3 SWAP2 POP POP JUMP JUMPDEST PUSH1 0x0 JUMPDEST DUP4 DUP2 LT ISZERO PUSH2 0x2B6 JUMPI DUP1 DUP3 ADD MLOAD DUP2 DUP5 ADD MSTORE PUSH1 0x20 DUP2 ADD SWAP1 POP PUSH2 0x29B JUMP JUMPDEST DUP4 DUP2 GT ISZERO PUSH2 0x2C5 JUMPI PUSH1 0x0 DUP5 DUP5 ADD MSTORE JUMPDEST POP POP POP POP JUMP JUMPDEST PUSH1 0x0 PUSH1 0x2 DUP3 DIV SWAP1 POP PUSH1 0x1 DUP3 AND DUP1 PUSH2 0x2E3 JUMPI PUSH1 0x7F DUP3 AND SWAP2 POP JUMPDEST PUSH1 0x20 DUP3 LT DUP2 EQ ISZERO PUSH2 0x2F7 JUMPI PUSH2 0x2F6 PUSH2 0x2FD JUMP JUMPDEST JUMPDEST POP SWAP2 SWAP1 POP JUMP JUMPDEST PUSH32 0x4E487B7100000000000000000000000000000000000000000000000000000000 PUSH1 0x0 MSTORE PUSH1 0x22 PUSH1 0x4 MSTORE PUSH1 0x24 PUSH1 0x0 REVERT JUMPDEST PUSH1 0x0 PUSH1 0x1F NOT PUSH1 0x1F DUP4 ADD AND SWAP1 POP SWAP2 SWAP1 POP JUMP JUMPDEST PUSH32 0x46616C7365000000000000000000000000000000000000000000000000000000 PUSH1 0x0 DUP3 ADD MSTORE POP JUMP INVALID LOG2 PUSH5 0x6970667358 0x22 SLT KECCAK256 SWAP6 0xA5 0xB7 0xDB GASPRICE EXTCODEHASH PUSH6 0xF0F535C2C294 SDIV POP CALL 0xCE CODECOPY PUSH16 0xC7CC1D9F0942CF709D1F799FF264736F PUSH13 0x63430008070033000000000000 "
				},
				"gasEstimates": {
					"creation": {
						"codeDepositCost": "184800",
						"executionCost": "infinite",
						"totalCost": "infinite"
					},
					"external": {
						"getExternal()": "infinite",
						"getPublic()": "infinite"
					},
					"internal": {
						"getInternal()": "infinite",
						"getPrivate()": "infinite"
					}
				},
				"methodIdentifiers": {
					"getExternal()": "c932415b",
					"getPublic()": "2c044779"
				}
			},
			"storageLayout": {
				"storage": [
					{
						"astId": 4,
						"contract": "contracts/visibility2.sol:parent",
						"label": "publicValue",
						"offset": 0,
						"slot": "0",
						"type": "t_string_storage"
					},
					{
						"astId": 7,
						"contract": "contracts/visibility2.sol:parent",
						"label": "priavteValue",
						"offset": 0,
						"slot": "1",
						"type": "t_string_storage"
					},
					{
						"astId": 10,
						"contract": "contracts/visibility2.sol:parent",
						"label": "internalValue",
						"offset": 0,
						"slot": "2",
						"type": "t_string_storage"
					},
					{
						"astId": 13,
						"contract": "contracts/visibility2.sol:parent",
						"label": "externalValue",
						"offset": 0,
						"slot": "3",
						"type": "t_string_storage"
					}
				],
				"types": {
					"t_string_storage": {
						"encoding": "bytes",
						"label": "string",
						"numberOfBytes": "32"
					}
				}
			},
			"userdoc": {
				"kind": "user",
				"methods": {},
				"version": 1
			}
		}
	}
}