{
	"contracts/blog.sol": {
		"blog": {
			"abi": [
				{
					"anonymous": false,
					"inputs": [
						{
							"indexed": true,
							"internalType": "address",
							"name": "user",
							"type": "address"
						},
						{
							"indexed": true,
							"internalType": "string",
							"name": "title",
							"type": "string"
						},
						{
							"indexed": true,
							"internalType": "string",
							"name": "description",
							"type": "string"
						}
					],
					"name": "broadcastDetails",
					"type": "event"
				},
				{
					"inputs": [],
					"name": "counter",
					"outputs": [
						{
							"internalType": "uint256",
							"name": "",
							"type": "uint256"
						}
					],
					"stateMutability": "view",
					"type": "function"
				},
				{
					"inputs": [
						{
							"internalType": "string",
							"name": "_title",
							"type": "string"
						},
						{
							"internalType": "string",
							"name": "_description",
							"type": "string"
						}
					],
					"name": "createPost",
					"outputs": [],
					"stateMutability": "nonpayable",
					"type": "function"
				},
				{
					"inputs": [
						{
							"internalType": "address",
							"name": "",
							"type": "address"
						},
						{
							"internalType": "uint256",
							"name": "",
							"type": "uint256"
						}
					],
					"name": "postsOfUser",
					"outputs": [
						{
							"internalType": "uint256",
							"name": "",
							"type": "uint256"
						}
					],
					"stateMutability": "view",
					"type": "function"
				},
				{
					"inputs": [
						{
							"internalType": "uint256",
							"name": "_id",
							"type": "uint256"
						}
					],
					"name": "readPost",
					"outputs": [
						{
							"components": [
								{
									"internalType": "string",
									"name": "title",
									"type": "string"
								},
								{
									"internalType": "string",
									"name": "description",
									"type": "string"
								},
								{
									"internalType": "address",
									"name": "user",
									"type": "address"
								}
							],
							"internalType": "struct blog.Post",
							"name": "",
							"type": "tuple"
						}
					],
					"stateMutability": "view",
					"type": "function"
				},
				{
					"inputs": [
						{
							"internalType": "uint256",
							"name": "_postID",
							"type": "uint256"
						},
						{
							"internalType": "string",
							"name": "_title",
							"type": "string"
						},
						{
							"internalType": "string",
							"name": "_description",
							"type": "string"
						}
					],
					"name": "updatePost",
					"outputs": [],
					"stateMutability": "nonpayable",
					"type": "function"
				},
				{
					"inputs": [
						{
							"internalType": "uint256",
							"name": "",
							"type": "uint256"
						}
					],
					"name": "userPosts",
					"outputs": [
						{
							"internalType": "string",
							"name": "title",
							"type": "string"
						},
						{
							"internalType": "string",
							"name": "description",
							"type": "string"
						},
						{
							"internalType": "address",
							"name": "user",
							"type": "address"
						}
					],
					"stateMutability": "view",
					"type": "function"
				}
			],
			"devdoc": {
				"kind": "dev",
				"methods": {},
				"version": 1
			},
			"evm": {
				"assembly": "    /* \"contracts/blog.sol\":90:1957  contract blog{\r... */\n  mstore(0x40, 0x80)\n    /* \"contracts/blog.sol\":157:158  0 */\n  0x00\n    /* \"contracts/blog.sol\":135:158  uint public counter = 0 */\n  dup1\n  sstore\n    /* \"contracts/blog.sol\":90:1957  contract blog{\r... */\n  callvalue\n  dup1\n  iszero\n  tag_1\n  jumpi\n  0x00\n  dup1\n  revert\ntag_1:\n  pop\n  dataSize(sub_0)\n  dup1\n  dataOffset(sub_0)\n  0x00\n  codecopy\n  0x00\n  return\nstop\n\nsub_0: assembly {\n        /* \"contracts/blog.sol\":90:1957  contract blog{\r... */\n      mstore(0x40, 0x80)\n      callvalue\n      dup1\n      iszero\n      tag_1\n      jumpi\n      0x00\n      dup1\n      revert\n    tag_1:\n      pop\n      jumpi(tag_2, lt(calldatasize, 0x04))\n      shr(0xe0, calldataload(0x00))\n      dup1\n      0x392338f5\n      eq\n      tag_3\n      jumpi\n      dup1\n      0x442e40e7\n      eq\n      tag_4\n      jumpi\n      dup1\n      0x61bc221a\n      eq\n      tag_5\n      jumpi\n      dup1\n      0x66d1cac9\n      eq\n      tag_6\n      jumpi\n      dup1\n      0xca6f69f5\n      eq\n      tag_7\n      jumpi\n      dup1\n      0xfdd6ea71\n      eq\n      tag_8\n      jumpi\n    tag_2:\n      0x00\n      dup1\n      revert\n        /* \"contracts/blog.sol\":1201:1556  function createPost(string memory _title,string memory _description)\r... */\n    tag_3:\n      tag_9\n      0x04\n      dup1\n      calldatasize\n      sub\n      dup2\n      add\n      swap1\n      tag_10\n      swap2\n      swap1\n      tag_11\n      jump\t// in\n    tag_10:\n      tag_12\n      jump\t// in\n    tag_9:\n      stop\n        /* \"contracts/blog.sol\":600:645  mapping(address => uint[]) public postsOfUser */\n    tag_4:\n      tag_13\n      0x04\n      dup1\n      calldatasize\n      sub\n      dup2\n      add\n      swap1\n      tag_14\n      swap2\n      swap1\n      tag_15\n      jump\t// in\n    tag_14:\n      tag_16\n      jump\t// in\n    tag_13:\n      mload(0x40)\n      tag_17\n      swap2\n      swap1\n      tag_18\n      jump\t// in\n    tag_17:\n      mload(0x40)\n      dup1\n      swap2\n      sub\n      swap1\n      return\n        /* \"contracts/blog.sol\":135:158  uint public counter = 0 */\n    tag_5:\n      tag_19\n      tag_20\n      jump\t// in\n    tag_19:\n      mload(0x40)\n      tag_21\n      swap2\n      swap1\n      tag_18\n      jump\t// in\n    tag_21:\n      mload(0x40)\n      dup1\n      swap2\n      sub\n      swap1\n      return\n        /* \"contracts/blog.sol\":1733:1948  function updatePost(uint _postID,string memory _title, string memory _description)\r... */\n    tag_6:\n      tag_22\n      0x04\n      dup1\n      calldatasize\n      sub\n      dup2\n      add\n      swap1\n      tag_23\n      swap2\n      swap1\n      tag_24\n      jump\t// in\n    tag_23:\n      tag_25\n      jump\t// in\n    tag_22:\n      stop\n        /* \"contracts/blog.sol\":1586:1701  function readPost(uint _id)\r... */\n    tag_7:\n      tag_26\n      0x04\n      dup1\n      calldatasize\n      sub\n      dup2\n      add\n      swap1\n      tag_27\n      swap2\n      swap1\n      tag_28\n      jump\t// in\n    tag_27:\n      tag_29\n      jump\t// in\n    tag_26:\n      mload(0x40)\n      tag_30\n      swap2\n      swap1\n      tag_31\n      jump\t// in\n    tag_30:\n      mload(0x40)\n      dup1\n      swap2\n      sub\n      swap1\n      return\n        /* \"contracts/blog.sol\":689:727  mapping(uint => Post) public userPosts */\n    tag_8:\n      tag_32\n      0x04\n      dup1\n      calldatasize\n      sub\n      dup2\n      add\n      swap1\n      tag_33\n      swap2\n      swap1\n      tag_28\n      jump\t// in\n    tag_33:\n      tag_34\n      jump\t// in\n    tag_32:\n      mload(0x40)\n      tag_35\n      swap4\n      swap3\n      swap2\n      swap1\n      tag_36\n      jump\t// in\n    tag_35:\n      mload(0x40)\n      dup1\n      swap2\n      sub\n      swap1\n      return\n        /* \"contracts/blog.sol\":1201:1556  function createPost(string memory _title,string memory _description)\r... */\n    tag_12:\n        /* \"contracts/blog.sol\":1323:1359  Post(_title,_description,msg.sender) */\n      mload(0x40)\n      dup1\n      0x60\n      add\n      0x40\n      mstore\n      dup1\n        /* \"contracts/blog.sol\":1328:1334  _title */\n      dup4\n        /* \"contracts/blog.sol\":1323:1359  Post(_title,_description,msg.sender) */\n      dup2\n      mstore\n      0x20\n      add\n        /* \"contracts/blog.sol\":1335:1347  _description */\n      dup3\n        /* \"contracts/blog.sol\":1323:1359  Post(_title,_description,msg.sender) */\n      dup2\n      mstore\n      0x20\n      add\n        /* \"contracts/blog.sol\":1348:1358  msg.sender */\n      caller\n        /* \"contracts/blog.sol\":1323:1359  Post(_title,_description,msg.sender) */\n      0xffffffffffffffffffffffffffffffffffffffff\n      and\n      dup2\n      mstore\n      pop\n        /* \"contracts/blog.sol\":1302:1311  userPosts */\n      0x02\n        /* \"contracts/blog.sol\":1302:1320  userPosts[counter] */\n      0x00\n        /* \"contracts/blog.sol\":1312:1319  counter */\n      dup1\n      sload\n        /* \"contracts/blog.sol\":1302:1320  userPosts[counter] */\n      dup2\n      mstore\n      0x20\n      add\n      swap1\n      dup2\n      mstore\n      0x20\n      add\n      0x00\n      keccak256\n        /* \"contracts/blog.sol\":1302:1359  userPosts[counter] = Post(_title,_description,msg.sender) */\n      0x00\n      dup3\n      add\n      mload\n      dup2\n      0x00\n      add\n      swap1\n      dup1\n      mload\n      swap1\n      0x20\n      add\n      swap1\n      tag_38\n      swap3\n      swap2\n      swap1\n      tag_39\n      jump\t// in\n    tag_38:\n      pop\n      0x20\n      dup3\n      add\n      mload\n      dup2\n      0x01\n      add\n      swap1\n      dup1\n      mload\n      swap1\n      0x20\n      add\n      swap1\n      tag_40\n      swap3\n      swap2\n      swap1\n      tag_39\n      jump\t// in\n    tag_40:\n      pop\n      0x40\n      dup3\n      add\n      mload\n      dup2\n      0x02\n      add\n      exp(0x0100, 0x00)\n      dup2\n      sload\n      dup2\n      0xffffffffffffffffffffffffffffffffffffffff\n      mul\n      not\n      and\n      swap1\n      dup4\n      0xffffffffffffffffffffffffffffffffffffffff\n      and\n      mul\n      or\n      swap1\n      sstore\n      pop\n      swap1\n      pop\n      pop\n        /* \"contracts/blog.sol\":1418:1429  postsOfUser */\n      0x01\n        /* \"contracts/blog.sol\":1418:1441  postsOfUser[msg.sender] */\n      0x00\n        /* \"contracts/blog.sol\":1430:1440  msg.sender */\n      caller\n        /* \"contracts/blog.sol\":1418:1441  postsOfUser[msg.sender] */\n      0xffffffffffffffffffffffffffffffffffffffff\n      and\n      0xffffffffffffffffffffffffffffffffffffffff\n      and\n      dup2\n      mstore\n      0x20\n      add\n      swap1\n      dup2\n      mstore\n      0x20\n      add\n      0x00\n      keccak256\n        /* \"contracts/blog.sol\":1447:1454  counter */\n      sload(0x00)\n        /* \"contracts/blog.sol\":1418:1455  postsOfUser[msg.sender].push(counter) */\n      swap1\n      dup1\n      0x01\n      dup2\n      sload\n      add\n      dup1\n      dup3\n      sstore\n      dup1\n      swap2\n      pop\n      pop\n      0x01\n      swap1\n      sub\n      swap1\n      0x00\n      mstore\n      keccak256(0x00, 0x20)\n      add\n      0x00\n      swap1\n      swap2\n      swap1\n      swap2\n      swap1\n      swap2\n      pop\n      sstore\n        /* \"contracts/blog.sol\":1511:1523  _description */\n      dup1\n        /* \"contracts/blog.sol\":1475:1524  broadcastDetails(msg.sender, _title,_description) */\n      mload(0x40)\n      tag_42\n      swap2\n      swap1\n      tag_43\n      jump\t// in\n    tag_42:\n      mload(0x40)\n      dup1\n      swap2\n      sub\n      swap1\n      keccak256\n        /* \"contracts/blog.sol\":1504:1510  _title */\n      dup3\n        /* \"contracts/blog.sol\":1475:1524  broadcastDetails(msg.sender, _title,_description) */\n      mload(0x40)\n      tag_44\n      swap2\n      swap1\n      tag_43\n      jump\t// in\n    tag_44:\n      mload(0x40)\n      dup1\n      swap2\n      sub\n      swap1\n      keccak256\n        /* \"contracts/blog.sol\":1492:1502  msg.sender */\n      caller\n        /* \"contracts/blog.sol\":1475:1524  broadcastDetails(msg.sender, _title,_description) */\n      0xffffffffffffffffffffffffffffffffffffffff\n      and\n      0x4eacffc497062f11928adc3628e2047cd720623235f6f37529db1d95cc75ecbf\n      mload(0x40)\n      mload(0x40)\n      dup1\n      swap2\n      sub\n      swap1\n      log4\n        /* \"contracts/blog.sol\":1539:1546  counter */\n      0x00\n      dup1\n        /* \"contracts/blog.sol\":1539:1548  counter++ */\n      dup2\n      sload\n      dup1\n      swap3\n      swap2\n      swap1\n      tag_45\n      swap1\n      tag_46\n      jump\t// in\n    tag_45:\n      swap2\n      swap1\n      pop\n      sstore\n      pop\n        /* \"contracts/blog.sol\":1201:1556  function createPost(string memory _title,string memory _description)\r... */\n      pop\n      pop\n      jump\t// out\n        /* \"contracts/blog.sol\":600:645  mapping(address => uint[]) public postsOfUser */\n    tag_16:\n      mstore(0x20, 0x01)\n      dup2\n      0x00\n      mstore\n      keccak256(0x00, 0x40)\n      dup2\n      dup2\n      sload\n      dup2\n      lt\n      tag_47\n      jumpi\n      0x00\n      dup1\n      revert\n    tag_47:\n      swap1\n      0x00\n      mstore\n      keccak256(0x00, 0x20)\n      add\n      0x00\n      swap2\n      pop\n      swap2\n      pop\n      pop\n      sload\n      dup2\n      jump\t// out\n        /* \"contracts/blog.sol\":135:158  uint public counter = 0 */\n    tag_20:\n      sload(0x00)\n      dup2\n      jump\t// out\n        /* \"contracts/blog.sol\":1733:1948  function updatePost(uint _postID,string memory _title, string memory _description)\r... */\n    tag_25:\n        /* \"contracts/blog.sol\":1843:1850  _postID */\n      dup3\n        /* \"contracts/blog.sol\":819:828  userPosts */\n      0x02\n        /* \"contracts/blog.sol\":819:837  userPosts[_postID] */\n      0x00\n        /* \"contracts/blog.sol\":829:836  _postID */\n      dup3\n        /* \"contracts/blog.sol\":819:837  userPosts[_postID] */\n      dup2\n      mstore\n      0x20\n      add\n      swap1\n      dup2\n      mstore\n      0x20\n      add\n      0x00\n      keccak256\n        /* \"contracts/blog.sol\":819:842  userPosts[_postID].user */\n      0x02\n      add\n      0x00\n      swap1\n      sload\n      swap1\n      0x0100\n      exp\n      swap1\n      div\n      0xffffffffffffffffffffffffffffffffffffffff\n      and\n        /* \"contracts/blog.sol\":805:842  msg.sender == userPosts[_postID].user */\n      0xffffffffffffffffffffffffffffffffffffffff\n      and\n        /* \"contracts/blog.sol\":805:815  msg.sender */\n      caller\n        /* \"contracts/blog.sol\":805:842  msg.sender == userPosts[_postID].user */\n      0xffffffffffffffffffffffffffffffffffffffff\n      and\n      eq\n        /* \"contracts/blog.sol\":797:881  require(msg.sender == userPosts[_postID].user,'ERROR Because you are not the owner') */\n      tag_50\n      jumpi\n      mload(0x40)\n      0x08c379a000000000000000000000000000000000000000000000000000000000\n      dup2\n      mstore\n      0x04\n      add\n      tag_51\n      swap1\n      tag_52\n      jump\t// in\n    tag_51:\n      mload(0x40)\n      dup1\n      swap2\n      sub\n      swap1\n      revert\n    tag_50:\n        /* \"contracts/blog.sol\":1904:1940  Post(_title,_description,msg.sender) */\n      mload(0x40)\n      dup1\n      0x60\n      add\n      0x40\n      mstore\n      dup1\n        /* \"contracts/blog.sol\":1909:1915  _title */\n      dup5\n        /* \"contracts/blog.sol\":1904:1940  Post(_title,_description,msg.sender) */\n      dup2\n      mstore\n      0x20\n      add\n        /* \"contracts/blog.sol\":1916:1928  _description */\n      dup4\n        /* \"contracts/blog.sol\":1904:1940  Post(_title,_description,msg.sender) */\n      dup2\n      mstore\n      0x20\n      add\n        /* \"contracts/blog.sol\":1929:1939  msg.sender */\n      caller\n        /* \"contracts/blog.sol\":1904:1940  Post(_title,_description,msg.sender) */\n      0xffffffffffffffffffffffffffffffffffffffff\n      and\n      dup2\n      mstore\n      pop\n        /* \"contracts/blog.sol\":1883:1892  userPosts */\n      0x02\n        /* \"contracts/blog.sol\":1883:1901  userPosts[_postID] */\n      0x00\n        /* \"contracts/blog.sol\":1893:1900  _postID */\n      dup7\n        /* \"contracts/blog.sol\":1883:1901  userPosts[_postID] */\n      dup2\n      mstore\n      0x20\n      add\n      swap1\n      dup2\n      mstore\n      0x20\n      add\n      0x00\n      keccak256\n        /* \"contracts/blog.sol\":1883:1940  userPosts[_postID] = Post(_title,_description,msg.sender) */\n      0x00\n      dup3\n      add\n      mload\n      dup2\n      0x00\n      add\n      swap1\n      dup1\n      mload\n      swap1\n      0x20\n      add\n      swap1\n      tag_54\n      swap3\n      swap2\n      swap1\n      tag_39\n      jump\t// in\n    tag_54:\n      pop\n      0x20\n      dup3\n      add\n      mload\n      dup2\n      0x01\n      add\n      swap1\n      dup1\n      mload\n      swap1\n      0x20\n      add\n      swap1\n      tag_55\n      swap3\n      swap2\n      swap1\n      tag_39\n      jump\t// in\n    tag_55:\n      pop\n      0x40\n      dup3\n      add\n      mload\n      dup2\n      0x02\n      add\n      exp(0x0100, 0x00)\n      dup2\n      sload\n      dup2\n      0xffffffffffffffffffffffffffffffffffffffff\n      mul\n      not\n      and\n      swap1\n      dup4\n      0xffffffffffffffffffffffffffffffffffffffff\n      and\n      mul\n      or\n      swap1\n      sstore\n      pop\n      swap1\n      pop\n      pop\n        /* \"contracts/blog.sol\":1733:1948  function updatePost(uint _postID,string memory _title, string memory _description)\r... */\n      pop\n      pop\n      pop\n      pop\n      jump\t// out\n        /* \"contracts/blog.sol\":1586:1701  function readPost(uint _id)\r... */\n    tag_29:\n        /* \"contracts/blog.sol\":1649:1660  Post memory */\n      tag_56\n      tag_57\n      jump\t// in\n    tag_56:\n        /* \"contracts/blog.sol\":1679:1688  userPosts */\n      0x02\n        /* \"contracts/blog.sol\":1679:1693  userPosts[_id] */\n      0x00\n        /* \"contracts/blog.sol\":1689:1692  _id */\n      dup4\n        /* \"contracts/blog.sol\":1679:1693  userPosts[_id] */\n      dup2\n      mstore\n      0x20\n      add\n      swap1\n      dup2\n      mstore\n      0x20\n      add\n      0x00\n      keccak256\n        /* \"contracts/blog.sol\":1672:1693  return userPosts[_id] */\n      mload(0x40)\n      dup1\n      0x60\n      add\n      0x40\n      mstore\n      swap1\n      dup2\n      0x00\n      dup3\n      add\n      dup1\n      sload\n      tag_59\n      swap1\n      tag_60\n      jump\t// in\n    tag_59:\n      dup1\n      0x1f\n      add\n      0x20\n      dup1\n      swap2\n      div\n      mul\n      0x20\n      add\n      mload(0x40)\n      swap1\n      dup2\n      add\n      0x40\n      mstore\n      dup1\n      swap3\n      swap2\n      swap1\n      dup2\n      dup2\n      mstore\n      0x20\n      add\n      dup3\n      dup1\n      sload\n      tag_61\n      swap1\n      tag_60\n      jump\t// in\n    tag_61:\n      dup1\n      iszero\n      tag_62\n      jumpi\n      dup1\n      0x1f\n      lt\n      tag_63\n      jumpi\n      0x0100\n      dup1\n      dup4\n      sload\n      div\n      mul\n      dup4\n      mstore\n      swap2\n      0x20\n      add\n      swap2\n      jump(tag_62)\n    tag_63:\n      dup3\n      add\n      swap2\n      swap1\n      0x00\n      mstore\n      keccak256(0x00, 0x20)\n      swap1\n    tag_64:\n      dup2\n      sload\n      dup2\n      mstore\n      swap1\n      0x01\n      add\n      swap1\n      0x20\n      add\n      dup1\n      dup4\n      gt\n      tag_64\n      jumpi\n      dup3\n      swap1\n      sub\n      0x1f\n      and\n      dup3\n      add\n      swap2\n    tag_62:\n      pop\n      pop\n      pop\n      pop\n      pop\n      dup2\n      mstore\n      0x20\n      add\n      0x01\n      dup3\n      add\n      dup1\n      sload\n      tag_65\n      swap1\n      tag_60\n      jump\t// in\n    tag_65:\n      dup1\n      0x1f\n      add\n      0x20\n      dup1\n      swap2\n      div\n      mul\n      0x20\n      add\n      mload(0x40)\n      swap1\n      dup2\n      add\n      0x40\n      mstore\n      dup1\n      swap3\n      swap2\n      swap1\n      dup2\n      dup2\n      mstore\n      0x20\n      add\n      dup3\n      dup1\n      sload\n      tag_66\n      swap1\n      tag_60\n      jump\t// in\n    tag_66:\n      dup1\n      iszero\n      tag_67\n      jumpi\n      dup1\n      0x1f\n      lt\n      tag_68\n      jumpi\n      0x0100\n      dup1\n      dup4\n      sload\n      div\n      mul\n      dup4\n      mstore\n      swap2\n      0x20\n      add\n      swap2\n      jump(tag_67)\n    tag_68:\n      dup3\n      add\n      swap2\n      swap1\n      0x00\n      mstore\n      keccak256(0x00, 0x20)\n      swap1\n    tag_69:\n      dup2\n      sload\n      dup2\n      mstore\n      swap1\n      0x01\n      add\n      swap1\n      0x20\n      add\n      dup1\n      dup4\n      gt\n      tag_69\n      jumpi\n      dup3\n      swap1\n      sub\n      0x1f\n      and\n      dup3\n      add\n      swap2\n    tag_67:\n      pop\n      pop\n      pop\n      pop\n      pop\n      dup2\n      mstore\n      0x20\n      add\n      0x02\n      dup3\n      add\n      0x00\n      swap1\n      sload\n      swap1\n      0x0100\n      exp\n      swap1\n      div\n      0xffffffffffffffffffffffffffffffffffffffff\n      and\n      0xffffffffffffffffffffffffffffffffffffffff\n      and\n      0xffffffffffffffffffffffffffffffffffffffff\n      and\n      dup2\n      mstore\n      pop\n      pop\n      swap1\n      pop\n        /* \"contracts/blog.sol\":1586:1701  function readPost(uint _id)\r... */\n      swap2\n      swap1\n      pop\n      jump\t// out\n        /* \"contracts/blog.sol\":689:727  mapping(uint => Post) public userPosts */\n    tag_34:\n      mstore(0x20, 0x02)\n      dup1\n      0x00\n      mstore\n      keccak256(0x00, 0x40)\n      0x00\n      swap2\n      pop\n      swap1\n      pop\n      dup1\n      0x00\n      add\n      dup1\n      sload\n      tag_70\n      swap1\n      tag_60\n      jump\t// in\n    tag_70:\n      dup1\n      0x1f\n      add\n      0x20\n      dup1\n      swap2\n      div\n      mul\n      0x20\n      add\n      mload(0x40)\n      swap1\n      dup2\n      add\n      0x40\n      mstore\n      dup1\n      swap3\n      swap2\n      swap1\n      dup2\n      dup2\n      mstore\n      0x20\n      add\n      dup3\n      dup1\n      sload\n      tag_71\n      swap1\n      tag_60\n      jump\t// in\n    tag_71:\n      dup1\n      iszero\n      tag_72\n      jumpi\n      dup1\n      0x1f\n      lt\n      tag_73\n      jumpi\n      0x0100\n      dup1\n      dup4\n      sload\n      div\n      mul\n      dup4\n      mstore\n      swap2\n      0x20\n      add\n      swap2\n      jump(tag_72)\n    tag_73:\n      dup3\n      add\n      swap2\n      swap1\n      0x00\n      mstore\n      keccak256(0x00, 0x20)\n      swap1\n    tag_74:\n      dup2\n      sload\n      dup2\n      mstore\n      swap1\n      0x01\n      add\n      swap1\n      0x20\n      add\n      dup1\n      dup4\n      gt\n      tag_74\n      jumpi\n      dup3\n      swap1\n      sub\n      0x1f\n      and\n      dup3\n      add\n      swap2\n    tag_72:\n      pop\n      pop\n      pop\n      pop\n      pop\n      swap1\n      dup1\n      0x01\n      add\n      dup1\n      sload\n      tag_75\n      swap1\n      tag_60\n      jump\t// in\n    tag_75:\n      dup1\n      0x1f\n      add\n      0x20\n      dup1\n      swap2\n      div\n      mul\n      0x20\n      add\n      mload(0x40)\n      swap1\n      dup2\n      add\n      0x40\n      mstore\n      dup1\n      swap3\n      swap2\n      swap1\n      dup2\n      dup2\n      mstore\n      0x20\n      add\n      dup3\n      dup1\n      sload\n      tag_76\n      swap1\n      tag_60\n      jump\t// in\n    tag_76:\n      dup1\n      iszero\n      tag_77\n      jumpi\n      dup1\n      0x1f\n      lt\n      tag_78\n      jumpi\n      0x0100\n      dup1\n      dup4\n      sload\n      div\n      mul\n      dup4\n      mstore\n      swap2\n      0x20\n      add\n      swap2\n      jump(tag_77)\n    tag_78:\n      dup3\n      add\n      swap2\n      swap1\n      0x00\n      mstore\n      keccak256(0x00, 0x20)\n      swap1\n    tag_79:\n      dup2\n      sload\n      dup2\n      mstore\n      swap1\n      0x01\n      add\n      swap1\n      0x20\n      add\n      dup1\n      dup4\n      gt\n      tag_79\n      jumpi\n      dup3\n      swap1\n      sub\n      0x1f\n      and\n      dup3\n      add\n      swap2\n    tag_77:\n      pop\n      pop\n      pop\n      pop\n      pop\n      swap1\n      dup1\n      0x02\n      add\n      0x00\n      swap1\n      sload\n      swap1\n      0x0100\n      exp\n      swap1\n      div\n      0xffffffffffffffffffffffffffffffffffffffff\n      and\n      swap1\n      pop\n      dup4\n      jump\t// out\n    tag_39:\n      dup3\n      dup1\n      sload\n      tag_80\n      swap1\n      tag_60\n      jump\t// in\n    tag_80:\n      swap1\n      0x00\n      mstore\n      keccak256(0x00, 0x20)\n      swap1\n      0x1f\n      add\n      0x20\n      swap1\n      div\n      dup2\n      add\n      swap3\n      dup3\n      tag_82\n      jumpi\n      0x00\n      dup6\n      sstore\n      jump(tag_81)\n    tag_82:\n      dup3\n      0x1f\n      lt\n      tag_83\n      jumpi\n      dup1\n      mload\n      not(0xff)\n      and\n      dup4\n      dup1\n      add\n      or\n      dup6\n      sstore\n      jump(tag_81)\n    tag_83:\n      dup3\n      dup1\n      add\n      0x01\n      add\n      dup6\n      sstore\n      dup3\n      iszero\n      tag_81\n      jumpi\n      swap2\n      dup3\n      add\n    tag_84:\n      dup3\n      dup2\n      gt\n      iszero\n      tag_85\n      jumpi\n      dup3\n      mload\n      dup3\n      sstore\n      swap2\n      0x20\n      add\n      swap2\n      swap1\n      0x01\n      add\n      swap1\n      jump(tag_84)\n    tag_85:\n    tag_81:\n      pop\n      swap1\n      pop\n      tag_86\n      swap2\n      swap1\n      tag_87\n      jump\t// in\n    tag_86:\n      pop\n      swap1\n      jump\t// out\n    tag_57:\n      mload(0x40)\n      dup1\n      0x60\n      add\n      0x40\n      mstore\n      dup1\n      0x60\n      dup2\n      mstore\n      0x20\n      add\n      0x60\n      dup2\n      mstore\n      0x20\n      add\n      and(0xffffffffffffffffffffffffffffffffffffffff, 0x00)\n      dup2\n      mstore\n      pop\n      swap1\n      jump\t// out\n    tag_87:\n    tag_88:\n      dup1\n      dup3\n      gt\n      iszero\n      tag_89\n      jumpi\n      0x00\n      dup2\n      0x00\n      swap1\n      sstore\n      pop\n      0x01\n      add\n      jump(tag_88)\n    tag_89:\n      pop\n      swap1\n      jump\t// out\n        /* \"#utility.yul\":7:419   */\n    tag_91:\n        /* \"#utility.yul\":85:90   */\n      0x00\n        /* \"#utility.yul\":110:176   */\n      tag_93\n        /* \"#utility.yul\":126:175   */\n      tag_94\n        /* \"#utility.yul\":168:174   */\n      dup5\n        /* \"#utility.yul\":126:175   */\n      tag_95\n      jump\t// in\n    tag_94:\n        /* \"#utility.yul\":110:176   */\n      tag_96\n      jump\t// in\n    tag_93:\n        /* \"#utility.yul\":101:176   */\n      swap1\n      pop\n        /* \"#utility.yul\":199:205   */\n      dup3\n        /* \"#utility.yul\":192:197   */\n      dup2\n        /* \"#utility.yul\":185:206   */\n      mstore\n        /* \"#utility.yul\":237:241   */\n      0x20\n        /* \"#utility.yul\":230:235   */\n      dup2\n        /* \"#utility.yul\":226:242   */\n      add\n        /* \"#utility.yul\":275:278   */\n      dup5\n        /* \"#utility.yul\":266:272   */\n      dup5\n        /* \"#utility.yul\":261:264   */\n      dup5\n        /* \"#utility.yul\":257:273   */\n      add\n        /* \"#utility.yul\":254:279   */\n      gt\n        /* \"#utility.yul\":251:363   */\n      iszero\n      tag_97\n      jumpi\n        /* \"#utility.yul\":282:361   */\n      tag_98\n      tag_99\n      jump\t// in\n    tag_98:\n        /* \"#utility.yul\":251:363   */\n    tag_97:\n        /* \"#utility.yul\":372:413   */\n      tag_100\n        /* \"#utility.yul\":406:412   */\n      dup5\n        /* \"#utility.yul\":401:404   */\n      dup3\n        /* \"#utility.yul\":396:399   */\n      dup6\n        /* \"#utility.yul\":372:413   */\n      tag_101\n      jump\t// in\n    tag_100:\n        /* \"#utility.yul\":91:419   */\n      pop\n        /* \"#utility.yul\":7:419   */\n      swap4\n      swap3\n      pop\n      pop\n      pop\n      jump\t// out\n        /* \"#utility.yul\":425:564   */\n    tag_102:\n        /* \"#utility.yul\":471:476   */\n      0x00\n        /* \"#utility.yul\":509:515   */\n      dup2\n        /* \"#utility.yul\":496:516   */\n      calldataload\n        /* \"#utility.yul\":487:516   */\n      swap1\n      pop\n        /* \"#utility.yul\":525:558   */\n      tag_104\n        /* \"#utility.yul\":552:557   */\n      dup2\n        /* \"#utility.yul\":525:558   */\n      tag_105\n      jump\t// in\n    tag_104:\n        /* \"#utility.yul\":425:564   */\n      swap3\n      swap2\n      pop\n      pop\n      jump\t// out\n        /* \"#utility.yul\":584:924   */\n    tag_106:\n        /* \"#utility.yul\":640:645   */\n      0x00\n        /* \"#utility.yul\":689:692   */\n      dup3\n        /* \"#utility.yul\":682:686   */\n      0x1f\n        /* \"#utility.yul\":674:680   */\n      dup4\n        /* \"#utility.yul\":670:687   */\n      add\n        /* \"#utility.yul\":666:693   */\n      slt\n        /* \"#utility.yul\":656:778   */\n      tag_108\n      jumpi\n        /* \"#utility.yul\":697:776   */\n      tag_109\n      tag_110\n      jump\t// in\n    tag_109:\n        /* \"#utility.yul\":656:778   */\n    tag_108:\n        /* \"#utility.yul\":814:820   */\n      dup2\n        /* \"#utility.yul\":801:821   */\n      calldataload\n        /* \"#utility.yul\":839:918   */\n      tag_111\n        /* \"#utility.yul\":914:917   */\n      dup5\n        /* \"#utility.yul\":906:912   */\n      dup3\n        /* \"#utility.yul\":899:903   */\n      0x20\n        /* \"#utility.yul\":891:897   */\n      dup7\n        /* \"#utility.yul\":887:904   */\n      add\n        /* \"#utility.yul\":839:918   */\n      tag_91\n      jump\t// in\n    tag_111:\n        /* \"#utility.yul\":830:918   */\n      swap2\n      pop\n        /* \"#utility.yul\":646:924   */\n      pop\n        /* \"#utility.yul\":584:924   */\n      swap3\n      swap2\n      pop\n      pop\n      jump\t// out\n        /* \"#utility.yul\":930:1069   */\n    tag_112:\n        /* \"#utility.yul\":976:981   */\n      0x00\n        /* \"#utility.yul\":1014:1020   */\n      dup2\n        /* \"#utility.yul\":1001:1021   */\n      calldataload\n        /* \"#utility.yul\":992:1021   */\n      swap1\n      pop\n        /* \"#utility.yul\":1030:1063   */\n      tag_114\n        /* \"#utility.yul\":1057:1062   */\n      dup2\n        /* \"#utility.yul\":1030:1063   */\n      tag_115\n      jump\t// in\n    tag_114:\n        /* \"#utility.yul\":930:1069   */\n      swap3\n      swap2\n      pop\n      pop\n      jump\t// out\n        /* \"#utility.yul\":1075:1549   */\n    tag_15:\n        /* \"#utility.yul\":1143:1149   */\n      0x00\n        /* \"#utility.yul\":1151:1157   */\n      dup1\n        /* \"#utility.yul\":1200:1202   */\n      0x40\n        /* \"#utility.yul\":1188:1197   */\n      dup4\n        /* \"#utility.yul\":1179:1186   */\n      dup6\n        /* \"#utility.yul\":1175:1198   */\n      sub\n        /* \"#utility.yul\":1171:1203   */\n      slt\n        /* \"#utility.yul\":1168:1287   */\n      iszero\n      tag_117\n      jumpi\n        /* \"#utility.yul\":1206:1285   */\n      tag_118\n      tag_119\n      jump\t// in\n    tag_118:\n        /* \"#utility.yul\":1168:1287   */\n    tag_117:\n        /* \"#utility.yul\":1326:1327   */\n      0x00\n        /* \"#utility.yul\":1351:1404   */\n      tag_120\n        /* \"#utility.yul\":1396:1403   */\n      dup6\n        /* \"#utility.yul\":1387:1393   */\n      dup3\n        /* \"#utility.yul\":1376:1385   */\n      dup7\n        /* \"#utility.yul\":1372:1394   */\n      add\n        /* \"#utility.yul\":1351:1404   */\n      tag_102\n      jump\t// in\n    tag_120:\n        /* \"#utility.yul\":1341:1404   */\n      swap3\n      pop\n        /* \"#utility.yul\":1297:1414   */\n      pop\n        /* \"#utility.yul\":1453:1455   */\n      0x20\n        /* \"#utility.yul\":1479:1532   */\n      tag_121\n        /* \"#utility.yul\":1524:1531   */\n      dup6\n        /* \"#utility.yul\":1515:1521   */\n      dup3\n        /* \"#utility.yul\":1504:1513   */\n      dup7\n        /* \"#utility.yul\":1500:1522   */\n      add\n        /* \"#utility.yul\":1479:1532   */\n      tag_112\n      jump\t// in\n    tag_121:\n        /* \"#utility.yul\":1469:1532   */\n      swap2\n      pop\n        /* \"#utility.yul\":1424:1542   */\n      pop\n        /* \"#utility.yul\":1075:1549   */\n      swap3\n      pop\n      swap3\n      swap1\n      pop\n      jump\t// out\n        /* \"#utility.yul\":1555:2389   */\n    tag_11:\n        /* \"#utility.yul\":1643:1649   */\n      0x00\n        /* \"#utility.yul\":1651:1657   */\n      dup1\n        /* \"#utility.yul\":1700:1702   */\n      0x40\n        /* \"#utility.yul\":1688:1697   */\n      dup4\n        /* \"#utility.yul\":1679:1686   */\n      dup6\n        /* \"#utility.yul\":1675:1698   */\n      sub\n        /* \"#utility.yul\":1671:1703   */\n      slt\n        /* \"#utility.yul\":1668:1787   */\n      iszero\n      tag_123\n      jumpi\n        /* \"#utility.yul\":1706:1785   */\n      tag_124\n      tag_119\n      jump\t// in\n    tag_124:\n        /* \"#utility.yul\":1668:1787   */\n    tag_123:\n        /* \"#utility.yul\":1854:1855   */\n      0x00\n        /* \"#utility.yul\":1843:1852   */\n      dup4\n        /* \"#utility.yul\":1839:1856   */\n      add\n        /* \"#utility.yul\":1826:1857   */\n      calldataload\n        /* \"#utility.yul\":1884:1902   */\n      0xffffffffffffffff\n        /* \"#utility.yul\":1876:1882   */\n      dup2\n        /* \"#utility.yul\":1873:1903   */\n      gt\n        /* \"#utility.yul\":1870:1987   */\n      iszero\n      tag_125\n      jumpi\n        /* \"#utility.yul\":1906:1985   */\n      tag_126\n      tag_127\n      jump\t// in\n    tag_126:\n        /* \"#utility.yul\":1870:1987   */\n    tag_125:\n        /* \"#utility.yul\":2011:2074   */\n      tag_128\n        /* \"#utility.yul\":2066:2073   */\n      dup6\n        /* \"#utility.yul\":2057:2063   */\n      dup3\n        /* \"#utility.yul\":2046:2055   */\n      dup7\n        /* \"#utility.yul\":2042:2064   */\n      add\n        /* \"#utility.yul\":2011:2074   */\n      tag_106\n      jump\t// in\n    tag_128:\n        /* \"#utility.yul\":2001:2074   */\n      swap3\n      pop\n        /* \"#utility.yul\":1797:2084   */\n      pop\n        /* \"#utility.yul\":2151:2153   */\n      0x20\n        /* \"#utility.yul\":2140:2149   */\n      dup4\n        /* \"#utility.yul\":2136:2154   */\n      add\n        /* \"#utility.yul\":2123:2155   */\n      calldataload\n        /* \"#utility.yul\":2182:2200   */\n      0xffffffffffffffff\n        /* \"#utility.yul\":2174:2180   */\n      dup2\n        /* \"#utility.yul\":2171:2201   */\n      gt\n        /* \"#utility.yul\":2168:2285   */\n      iszero\n      tag_129\n      jumpi\n        /* \"#utility.yul\":2204:2283   */\n      tag_130\n      tag_127\n      jump\t// in\n    tag_130:\n        /* \"#utility.yul\":2168:2285   */\n    tag_129:\n        /* \"#utility.yul\":2309:2372   */\n      tag_131\n        /* \"#utility.yul\":2364:2371   */\n      dup6\n        /* \"#utility.yul\":2355:2361   */\n      dup3\n        /* \"#utility.yul\":2344:2353   */\n      dup7\n        /* \"#utility.yul\":2340:2362   */\n      add\n        /* \"#utility.yul\":2309:2372   */\n      tag_106\n      jump\t// in\n    tag_131:\n        /* \"#utility.yul\":2299:2372   */\n      swap2\n      pop\n        /* \"#utility.yul\":2094:2382   */\n      pop\n        /* \"#utility.yul\":1555:2389   */\n      swap3\n      pop\n      swap3\n      swap1\n      pop\n      jump\t// out\n        /* \"#utility.yul\":2395:2724   */\n    tag_28:\n        /* \"#utility.yul\":2454:2460   */\n      0x00\n        /* \"#utility.yul\":2503:2505   */\n      0x20\n        /* \"#utility.yul\":2491:2500   */\n      dup3\n        /* \"#utility.yul\":2482:2489   */\n      dup5\n        /* \"#utility.yul\":2478:2501   */\n      sub\n        /* \"#utility.yul\":2474:2506   */\n      slt\n        /* \"#utility.yul\":2471:2590   */\n      iszero\n      tag_133\n      jumpi\n        /* \"#utility.yul\":2509:2588   */\n      tag_134\n      tag_119\n      jump\t// in\n    tag_134:\n        /* \"#utility.yul\":2471:2590   */\n    tag_133:\n        /* \"#utility.yul\":2629:2630   */\n      0x00\n        /* \"#utility.yul\":2654:2707   */\n      tag_135\n        /* \"#utility.yul\":2699:2706   */\n      dup5\n        /* \"#utility.yul\":2690:2696   */\n      dup3\n        /* \"#utility.yul\":2679:2688   */\n      dup6\n        /* \"#utility.yul\":2675:2697   */\n      add\n        /* \"#utility.yul\":2654:2707   */\n      tag_112\n      jump\t// in\n    tag_135:\n        /* \"#utility.yul\":2644:2707   */\n      swap2\n      pop\n        /* \"#utility.yul\":2600:2717   */\n      pop\n        /* \"#utility.yul\":2395:2724   */\n      swap3\n      swap2\n      pop\n      pop\n      jump\t// out\n        /* \"#utility.yul\":2730:3709   */\n    tag_24:\n        /* \"#utility.yul\":2827:2833   */\n      0x00\n        /* \"#utility.yul\":2835:2841   */\n      dup1\n        /* \"#utility.yul\":2843:2849   */\n      0x00\n        /* \"#utility.yul\":2892:2894   */\n      0x60\n        /* \"#utility.yul\":2880:2889   */\n      dup5\n        /* \"#utility.yul\":2871:2878   */\n      dup7\n        /* \"#utility.yul\":2867:2890   */\n      sub\n        /* \"#utility.yul\":2863:2895   */\n      slt\n        /* \"#utility.yul\":2860:2979   */\n      iszero\n      tag_137\n      jumpi\n        /* \"#utility.yul\":2898:2977   */\n      tag_138\n      tag_119\n      jump\t// in\n    tag_138:\n        /* \"#utility.yul\":2860:2979   */\n    tag_137:\n        /* \"#utility.yul\":3018:3019   */\n      0x00\n        /* \"#utility.yul\":3043:3096   */\n      tag_139\n        /* \"#utility.yul\":3088:3095   */\n      dup7\n        /* \"#utility.yul\":3079:3085   */\n      dup3\n        /* \"#utility.yul\":3068:3077   */\n      dup8\n        /* \"#utility.yul\":3064:3086   */\n      add\n        /* \"#utility.yul\":3043:3096   */\n      tag_112\n      jump\t// in\n    tag_139:\n        /* \"#utility.yul\":3033:3096   */\n      swap4\n      pop\n        /* \"#utility.yul\":2989:3106   */\n      pop\n        /* \"#utility.yul\":3173:3175   */\n      0x20\n        /* \"#utility.yul\":3162:3171   */\n      dup5\n        /* \"#utility.yul\":3158:3176   */\n      add\n        /* \"#utility.yul\":3145:3177   */\n      calldataload\n        /* \"#utility.yul\":3204:3222   */\n      0xffffffffffffffff\n        /* \"#utility.yul\":3196:3202   */\n      dup2\n        /* \"#utility.yul\":3193:3223   */\n      gt\n        /* \"#utility.yul\":3190:3307   */\n      iszero\n      tag_140\n      jumpi\n        /* \"#utility.yul\":3226:3305   */\n      tag_141\n      tag_127\n      jump\t// in\n    tag_141:\n        /* \"#utility.yul\":3190:3307   */\n    tag_140:\n        /* \"#utility.yul\":3331:3394   */\n      tag_142\n        /* \"#utility.yul\":3386:3393   */\n      dup7\n        /* \"#utility.yul\":3377:3383   */\n      dup3\n        /* \"#utility.yul\":3366:3375   */\n      dup8\n        /* \"#utility.yul\":3362:3384   */\n      add\n        /* \"#utility.yul\":3331:3394   */\n      tag_106\n      jump\t// in\n    tag_142:\n        /* \"#utility.yul\":3321:3394   */\n      swap3\n      pop\n        /* \"#utility.yul\":3116:3404   */\n      pop\n        /* \"#utility.yul\":3471:3473   */\n      0x40\n        /* \"#utility.yul\":3460:3469   */\n      dup5\n        /* \"#utility.yul\":3456:3474   */\n      add\n        /* \"#utility.yul\":3443:3475   */\n      calldataload\n        /* \"#utility.yul\":3502:3520   */\n      0xffffffffffffffff\n        /* \"#utility.yul\":3494:3500   */\n      dup2\n        /* \"#utility.yul\":3491:3521   */\n      gt\n        /* \"#utility.yul\":3488:3605   */\n      iszero\n      tag_143\n      jumpi\n        /* \"#utility.yul\":3524:3603   */\n      tag_144\n      tag_127\n      jump\t// in\n    tag_144:\n        /* \"#utility.yul\":3488:3605   */\n    tag_143:\n        /* \"#utility.yul\":3629:3692   */\n      tag_145\n        /* \"#utility.yul\":3684:3691   */\n      dup7\n        /* \"#utility.yul\":3675:3681   */\n      dup3\n        /* \"#utility.yul\":3664:3673   */\n      dup8\n        /* \"#utility.yul\":3660:3682   */\n      add\n        /* \"#utility.yul\":3629:3692   */\n      tag_106\n      jump\t// in\n    tag_145:\n        /* \"#utility.yul\":3619:3692   */\n      swap2\n      pop\n        /* \"#utility.yul\":3414:3702   */\n      pop\n        /* \"#utility.yul\":2730:3709   */\n      swap3\n      pop\n      swap3\n      pop\n      swap3\n      jump\t// out\n        /* \"#utility.yul\":3715:3823   */\n    tag_146:\n        /* \"#utility.yul\":3792:3816   */\n      tag_148\n        /* \"#utility.yul\":3810:3815   */\n      dup2\n        /* \"#utility.yul\":3792:3816   */\n      tag_149\n      jump\t// in\n    tag_148:\n        /* \"#utility.yul\":3787:3790   */\n      dup3\n        /* \"#utility.yul\":3780:3817   */\n      mstore\n        /* \"#utility.yul\":3715:3823   */\n      pop\n      pop\n      jump\t// out\n        /* \"#utility.yul\":3829:3947   */\n    tag_150:\n        /* \"#utility.yul\":3916:3940   */\n      tag_152\n        /* \"#utility.yul\":3934:3939   */\n      dup2\n        /* \"#utility.yul\":3916:3940   */\n      tag_149\n      jump\t// in\n    tag_152:\n        /* \"#utility.yul\":3911:3914   */\n      dup3\n        /* \"#utility.yul\":3904:3941   */\n      mstore\n        /* \"#utility.yul\":3829:3947   */\n      pop\n      pop\n      jump\t// out\n        /* \"#utility.yul\":3953:4297   */\n    tag_153:\n        /* \"#utility.yul\":4031:4034   */\n      0x00\n        /* \"#utility.yul\":4059:4098   */\n      tag_155\n        /* \"#utility.yul\":4092:4097   */\n      dup3\n        /* \"#utility.yul\":4059:4098   */\n      tag_156\n      jump\t// in\n    tag_155:\n        /* \"#utility.yul\":4114:4175   */\n      tag_157\n        /* \"#utility.yul\":4168:4174   */\n      dup2\n        /* \"#utility.yul\":4163:4166   */\n      dup6\n        /* \"#utility.yul\":4114:4175   */\n      tag_158\n      jump\t// in\n    tag_157:\n        /* \"#utility.yul\":4107:4175   */\n      swap4\n      pop\n        /* \"#utility.yul\":4184:4236   */\n      tag_159\n        /* \"#utility.yul\":4229:4235   */\n      dup2\n        /* \"#utility.yul\":4224:4227   */\n      dup6\n        /* \"#utility.yul\":4217:4221   */\n      0x20\n        /* \"#utility.yul\":4210:4215   */\n      dup7\n        /* \"#utility.yul\":4206:4222   */\n      add\n        /* \"#utility.yul\":4184:4236   */\n      tag_160\n      jump\t// in\n    tag_159:\n        /* \"#utility.yul\":4261:4290   */\n      tag_161\n        /* \"#utility.yul\":4283:4289   */\n      dup2\n        /* \"#utility.yul\":4261:4290   */\n      tag_162\n      jump\t// in\n    tag_161:\n        /* \"#utility.yul\":4256:4259   */\n      dup5\n        /* \"#utility.yul\":4252:4291   */\n      add\n        /* \"#utility.yul\":4245:4291   */\n      swap2\n      pop\n        /* \"#utility.yul\":4035:4297   */\n      pop\n        /* \"#utility.yul\":3953:4297   */\n      swap3\n      swap2\n      pop\n      pop\n      jump\t// out\n        /* \"#utility.yul\":4303:4667   */\n    tag_163:\n        /* \"#utility.yul\":4391:4394   */\n      0x00\n        /* \"#utility.yul\":4419:4458   */\n      tag_165\n        /* \"#utility.yul\":4452:4457   */\n      dup3\n        /* \"#utility.yul\":4419:4458   */\n      tag_156\n      jump\t// in\n    tag_165:\n        /* \"#utility.yul\":4474:4545   */\n      tag_166\n        /* \"#utility.yul\":4538:4544   */\n      dup2\n        /* \"#utility.yul\":4533:4536   */\n      dup6\n        /* \"#utility.yul\":4474:4545   */\n      tag_167\n      jump\t// in\n    tag_166:\n        /* \"#utility.yul\":4467:4545   */\n      swap4\n      pop\n        /* \"#utility.yul\":4554:4606   */\n      tag_168\n        /* \"#utility.yul\":4599:4605   */\n      dup2\n        /* \"#utility.yul\":4594:4597   */\n      dup6\n        /* \"#utility.yul\":4587:4591   */\n      0x20\n        /* \"#utility.yul\":4580:4585   */\n      dup7\n        /* \"#utility.yul\":4576:4592   */\n      add\n        /* \"#utility.yul\":4554:4606   */\n      tag_160\n      jump\t// in\n    tag_168:\n        /* \"#utility.yul\":4631:4660   */\n      tag_169\n        /* \"#utility.yul\":4653:4659   */\n      dup2\n        /* \"#utility.yul\":4631:4660   */\n      tag_162\n      jump\t// in\n    tag_169:\n        /* \"#utility.yul\":4626:4629   */\n      dup5\n        /* \"#utility.yul\":4622:4661   */\n      add\n        /* \"#utility.yul\":4615:4661   */\n      swap2\n      pop\n        /* \"#utility.yul\":4395:4667   */\n      pop\n        /* \"#utility.yul\":4303:4667   */\n      swap3\n      swap2\n      pop\n      pop\n      jump\t// out\n        /* \"#utility.yul\":4673:5050   */\n    tag_170:\n        /* \"#utility.yul\":4779:4782   */\n      0x00\n        /* \"#utility.yul\":4807:4846   */\n      tag_172\n        /* \"#utility.yul\":4840:4845   */\n      dup3\n        /* \"#utility.yul\":4807:4846   */\n      tag_156\n      jump\t// in\n    tag_172:\n        /* \"#utility.yul\":4862:4951   */\n      tag_173\n        /* \"#utility.yul\":4944:4950   */\n      dup2\n        /* \"#utility.yul\":4939:4942   */\n      dup6\n        /* \"#utility.yul\":4862:4951   */\n      tag_174\n      jump\t// in\n    tag_173:\n        /* \"#utility.yul\":4855:4951   */\n      swap4\n      pop\n        /* \"#utility.yul\":4960:5012   */\n      tag_175\n        /* \"#utility.yul\":5005:5011   */\n      dup2\n        /* \"#utility.yul\":5000:5003   */\n      dup6\n        /* \"#utility.yul\":4993:4997   */\n      0x20\n        /* \"#utility.yul\":4986:4991   */\n      dup7\n        /* \"#utility.yul\":4982:4998   */\n      add\n        /* \"#utility.yul\":4960:5012   */\n      tag_160\n      jump\t// in\n    tag_175:\n        /* \"#utility.yul\":5037:5043   */\n      dup1\n        /* \"#utility.yul\":5032:5035   */\n      dup5\n        /* \"#utility.yul\":5028:5044   */\n      add\n        /* \"#utility.yul\":5021:5044   */\n      swap2\n      pop\n        /* \"#utility.yul\":4783:5050   */\n      pop\n        /* \"#utility.yul\":4673:5050   */\n      swap3\n      swap2\n      pop\n      pop\n      jump\t// out\n        /* \"#utility.yul\":5056:5422   */\n    tag_176:\n        /* \"#utility.yul\":5198:5201   */\n      0x00\n        /* \"#utility.yul\":5219:5286   */\n      tag_178\n        /* \"#utility.yul\":5283:5285   */\n      0x23\n        /* \"#utility.yul\":5278:5281   */\n      dup4\n        /* \"#utility.yul\":5219:5286   */\n      tag_167\n      jump\t// in\n    tag_178:\n        /* \"#utility.yul\":5212:5286   */\n      swap2\n      pop\n        /* \"#utility.yul\":5295:5388   */\n      tag_179\n        /* \"#utility.yul\":5384:5387   */\n      dup3\n        /* \"#utility.yul\":5295:5388   */\n      tag_180\n      jump\t// in\n    tag_179:\n        /* \"#utility.yul\":5413:5415   */\n      0x40\n        /* \"#utility.yul\":5408:5411   */\n      dup3\n        /* \"#utility.yul\":5404:5416   */\n      add\n        /* \"#utility.yul\":5397:5416   */\n      swap1\n      pop\n        /* \"#utility.yul\":5056:5422   */\n      swap2\n      swap1\n      pop\n      jump\t// out\n        /* \"#utility.yul\":5472:6321   */\n    tag_181:\n        /* \"#utility.yul\":5581:5584   */\n      0x00\n        /* \"#utility.yul\":5617:5621   */\n      0x60\n        /* \"#utility.yul\":5612:5615   */\n      dup4\n        /* \"#utility.yul\":5608:5622   */\n      add\n        /* \"#utility.yul\":5705:5709   */\n      0x00\n        /* \"#utility.yul\":5698:5703   */\n      dup4\n        /* \"#utility.yul\":5694:5710   */\n      add\n        /* \"#utility.yul\":5688:5711   */\n      mload\n        /* \"#utility.yul\":5758:5761   */\n      dup5\n        /* \"#utility.yul\":5752:5756   */\n      dup3\n        /* \"#utility.yul\":5748:5762   */\n      sub\n        /* \"#utility.yul\":5741:5745   */\n      0x00\n        /* \"#utility.yul\":5736:5739   */\n      dup7\n        /* \"#utility.yul\":5732:5746   */\n      add\n        /* \"#utility.yul\":5725:5763   */\n      mstore\n        /* \"#utility.yul\":5784:5857   */\n      tag_183\n        /* \"#utility.yul\":5852:5856   */\n      dup3\n        /* \"#utility.yul\":5838:5850   */\n      dup3\n        /* \"#utility.yul\":5784:5857   */\n      tag_153\n      jump\t// in\n    tag_183:\n        /* \"#utility.yul\":5776:5857   */\n      swap2\n      pop\n        /* \"#utility.yul\":5632:5868   */\n      pop\n        /* \"#utility.yul\":5957:5961   */\n      0x20\n        /* \"#utility.yul\":5950:5955   */\n      dup4\n        /* \"#utility.yul\":5946:5962   */\n      add\n        /* \"#utility.yul\":5940:5963   */\n      mload\n        /* \"#utility.yul\":6010:6013   */\n      dup5\n        /* \"#utility.yul\":6004:6008   */\n      dup3\n        /* \"#utility.yul\":6000:6014   */\n      sub\n        /* \"#utility.yul\":5993:5997   */\n      0x20\n        /* \"#utility.yul\":5988:5991   */\n      dup7\n        /* \"#utility.yul\":5984:5998   */\n      add\n        /* \"#utility.yul\":5977:6015   */\n      mstore\n        /* \"#utility.yul\":6036:6109   */\n      tag_184\n        /* \"#utility.yul\":6104:6108   */\n      dup3\n        /* \"#utility.yul\":6090:6102   */\n      dup3\n        /* \"#utility.yul\":6036:6109   */\n      tag_153\n      jump\t// in\n    tag_184:\n        /* \"#utility.yul\":6028:6109   */\n      swap2\n      pop\n        /* \"#utility.yul\":5878:6120   */\n      pop\n        /* \"#utility.yul\":6202:6206   */\n      0x40\n        /* \"#utility.yul\":6195:6200   */\n      dup4\n        /* \"#utility.yul\":6191:6207   */\n      add\n        /* \"#utility.yul\":6185:6208   */\n      mload\n        /* \"#utility.yul\":6221:6284   */\n      tag_185\n        /* \"#utility.yul\":6278:6282   */\n      0x40\n        /* \"#utility.yul\":6273:6276   */\n      dup7\n        /* \"#utility.yul\":6269:6283   */\n      add\n        /* \"#utility.yul\":6255:6267   */\n      dup3\n        /* \"#utility.yul\":6221:6284   */\n      tag_146\n      jump\t// in\n    tag_185:\n        /* \"#utility.yul\":6130:6294   */\n      pop\n        /* \"#utility.yul\":6311:6315   */\n      dup1\n        /* \"#utility.yul\":6304:6315   */\n      swap2\n      pop\n        /* \"#utility.yul\":5586:6321   */\n      pop\n        /* \"#utility.yul\":5472:6321   */\n      swap3\n      swap2\n      pop\n      pop\n      jump\t// out\n        /* \"#utility.yul\":6327:6445   */\n    tag_186:\n        /* \"#utility.yul\":6414:6438   */\n      tag_188\n        /* \"#utility.yul\":6432:6437   */\n      dup2\n        /* \"#utility.yul\":6414:6438   */\n      tag_189\n      jump\t// in\n    tag_188:\n        /* \"#utility.yul\":6409:6412   */\n      dup3\n        /* \"#utility.yul\":6402:6439   */\n      mstore\n        /* \"#utility.yul\":6327:6445   */\n      pop\n      pop\n      jump\t// out\n        /* \"#utility.yul\":6451:6726   */\n    tag_43:\n        /* \"#utility.yul\":6583:6586   */\n      0x00\n        /* \"#utility.yul\":6605:6700   */\n      tag_191\n        /* \"#utility.yul\":6696:6699   */\n      dup3\n        /* \"#utility.yul\":6687:6693   */\n      dup5\n        /* \"#utility.yul\":6605:6700   */\n      tag_170\n      jump\t// in\n    tag_191:\n        /* \"#utility.yul\":6598:6700   */\n      swap2\n      pop\n        /* \"#utility.yul\":6717:6720   */\n      dup2\n        /* \"#utility.yul\":6710:6720   */\n      swap1\n      pop\n        /* \"#utility.yul\":6451:6726   */\n      swap3\n      swap2\n      pop\n      pop\n      jump\t// out\n        /* \"#utility.yul\":6732:7356   */\n    tag_36:\n        /* \"#utility.yul\":6921:6925   */\n      0x00\n        /* \"#utility.yul\":6959:6961   */\n      0x60\n        /* \"#utility.yul\":6948:6957   */\n      dup3\n        /* \"#utility.yul\":6944:6962   */\n      add\n        /* \"#utility.yul\":6936:6962   */\n      swap1\n      pop\n        /* \"#utility.yul\":7008:7017   */\n      dup2\n        /* \"#utility.yul\":7002:7006   */\n      dup2\n        /* \"#utility.yul\":6998:7018   */\n      sub\n        /* \"#utility.yul\":6994:6995   */\n      0x00\n        /* \"#utility.yul\":6983:6992   */\n      dup4\n        /* \"#utility.yul\":6979:6996   */\n      add\n        /* \"#utility.yul\":6972:7019   */\n      mstore\n        /* \"#utility.yul\":7036:7114   */\n      tag_193\n        /* \"#utility.yul\":7109:7113   */\n      dup2\n        /* \"#utility.yul\":7100:7106   */\n      dup7\n        /* \"#utility.yul\":7036:7114   */\n      tag_163\n      jump\t// in\n    tag_193:\n        /* \"#utility.yul\":7028:7114   */\n      swap1\n      pop\n        /* \"#utility.yul\":7161:7170   */\n      dup2\n        /* \"#utility.yul\":7155:7159   */\n      dup2\n        /* \"#utility.yul\":7151:7171   */\n      sub\n        /* \"#utility.yul\":7146:7148   */\n      0x20\n        /* \"#utility.yul\":7135:7144   */\n      dup4\n        /* \"#utility.yul\":7131:7149   */\n      add\n        /* \"#utility.yul\":7124:7172   */\n      mstore\n        /* \"#utility.yul\":7189:7267   */\n      tag_194\n        /* \"#utility.yul\":7262:7266   */\n      dup2\n        /* \"#utility.yul\":7253:7259   */\n      dup6\n        /* \"#utility.yul\":7189:7267   */\n      tag_163\n      jump\t// in\n    tag_194:\n        /* \"#utility.yul\":7181:7267   */\n      swap1\n      pop\n        /* \"#utility.yul\":7277:7349   */\n      tag_195\n        /* \"#utility.yul\":7345:7347   */\n      0x40\n        /* \"#utility.yul\":7334:7343   */\n      dup4\n        /* \"#utility.yul\":7330:7348   */\n      add\n        /* \"#utility.yul\":7321:7327   */\n      dup5\n        /* \"#utility.yul\":7277:7349   */\n      tag_150\n      jump\t// in\n    tag_195:\n        /* \"#utility.yul\":6732:7356   */\n      swap5\n      swap4\n      pop\n      pop\n      pop\n      pop\n      jump\t// out\n        /* \"#utility.yul\":7362:7781   */\n    tag_52:\n        /* \"#utility.yul\":7528:7532   */\n      0x00\n        /* \"#utility.yul\":7566:7568   */\n      0x20\n        /* \"#utility.yul\":7555:7564   */\n      dup3\n        /* \"#utility.yul\":7551:7569   */\n      add\n        /* \"#utility.yul\":7543:7569   */\n      swap1\n      pop\n        /* \"#utility.yul\":7615:7624   */\n      dup2\n        /* \"#utility.yul\":7609:7613   */\n      dup2\n        /* \"#utility.yul\":7605:7625   */\n      sub\n        /* \"#utility.yul\":7601:7602   */\n      0x00\n        /* \"#utility.yul\":7590:7599   */\n      dup4\n        /* \"#utility.yul\":7586:7603   */\n      add\n        /* \"#utility.yul\":7579:7626   */\n      mstore\n        /* \"#utility.yul\":7643:7774   */\n      tag_197\n        /* \"#utility.yul\":7769:7773   */\n      dup2\n        /* \"#utility.yul\":7643:7774   */\n      tag_176\n      jump\t// in\n    tag_197:\n        /* \"#utility.yul\":7635:7774   */\n      swap1\n      pop\n        /* \"#utility.yul\":7362:7781   */\n      swap2\n      swap1\n      pop\n      jump\t// out\n        /* \"#utility.yul\":7787:8140   */\n    tag_31:\n        /* \"#utility.yul\":7920:7924   */\n      0x00\n        /* \"#utility.yul\":7958:7960   */\n      0x20\n        /* \"#utility.yul\":7947:7956   */\n      dup3\n        /* \"#utility.yul\":7943:7961   */\n      add\n        /* \"#utility.yul\":7935:7961   */\n      swap1\n      pop\n        /* \"#utility.yul\":8007:8016   */\n      dup2\n        /* \"#utility.yul\":8001:8005   */\n      dup2\n        /* \"#utility.yul\":7997:8017   */\n      sub\n        /* \"#utility.yul\":7993:7994   */\n      0x00\n        /* \"#utility.yul\":7982:7991   */\n      dup4\n        /* \"#utility.yul\":7978:7995   */\n      add\n        /* \"#utility.yul\":7971:8018   */\n      mstore\n        /* \"#utility.yul\":8035:8133   */\n      tag_199\n        /* \"#utility.yul\":8128:8132   */\n      dup2\n        /* \"#utility.yul\":8119:8125   */\n      dup5\n        /* \"#utility.yul\":8035:8133   */\n      tag_181\n      jump\t// in\n    tag_199:\n        /* \"#utility.yul\":8027:8133   */\n      swap1\n      pop\n        /* \"#utility.yul\":7787:8140   */\n      swap3\n      swap2\n      pop\n      pop\n      jump\t// out\n        /* \"#utility.yul\":8146:8368   */\n    tag_18:\n        /* \"#utility.yul\":8239:8243   */\n      0x00\n        /* \"#utility.yul\":8277:8279   */\n      0x20\n        /* \"#utility.yul\":8266:8275   */\n      dup3\n        /* \"#utility.yul\":8262:8280   */\n      add\n        /* \"#utility.yul\":8254:8280   */\n      swap1\n      pop\n        /* \"#utility.yul\":8290:8361   */\n      tag_201\n        /* \"#utility.yul\":8358:8359   */\n      0x00\n        /* \"#utility.yul\":8347:8356   */\n      dup4\n        /* \"#utility.yul\":8343:8360   */\n      add\n        /* \"#utility.yul\":8334:8340   */\n      dup5\n        /* \"#utility.yul\":8290:8361   */\n      tag_186\n      jump\t// in\n    tag_201:\n        /* \"#utility.yul\":8146:8368   */\n      swap3\n      swap2\n      pop\n      pop\n      jump\t// out\n        /* \"#utility.yul\":8374:8503   */\n    tag_96:\n        /* \"#utility.yul\":8408:8414   */\n      0x00\n        /* \"#utility.yul\":8435:8455   */\n      tag_203\n      tag_204\n      jump\t// in\n    tag_203:\n        /* \"#utility.yul\":8425:8455   */\n      swap1\n      pop\n        /* \"#utility.yul\":8464:8497   */\n      tag_205\n        /* \"#utility.yul\":8492:8496   */\n      dup3\n        /* \"#utility.yul\":8484:8490   */\n      dup3\n        /* \"#utility.yul\":8464:8497   */\n      tag_206\n      jump\t// in\n    tag_205:\n        /* \"#utility.yul\":8374:8503   */\n      swap2\n      swap1\n      pop\n      jump\t// out\n        /* \"#utility.yul\":8509:8584   */\n    tag_204:\n        /* \"#utility.yul\":8542:8548   */\n      0x00\n        /* \"#utility.yul\":8575:8577   */\n      0x40\n        /* \"#utility.yul\":8569:8578   */\n      mload\n        /* \"#utility.yul\":8559:8578   */\n      swap1\n      pop\n        /* \"#utility.yul\":8509:8584   */\n      swap1\n      jump\t// out\n        /* \"#utility.yul\":8590:8898   */\n    tag_95:\n        /* \"#utility.yul\":8652:8656   */\n      0x00\n        /* \"#utility.yul\":8742:8760   */\n      0xffffffffffffffff\n        /* \"#utility.yul\":8734:8740   */\n      dup3\n        /* \"#utility.yul\":8731:8761   */\n      gt\n        /* \"#utility.yul\":8728:8784   */\n      iszero\n      tag_209\n      jumpi\n        /* \"#utility.yul\":8764:8782   */\n      tag_210\n      tag_211\n      jump\t// in\n    tag_210:\n        /* \"#utility.yul\":8728:8784   */\n    tag_209:\n        /* \"#utility.yul\":8802:8831   */\n      tag_212\n        /* \"#utility.yul\":8824:8830   */\n      dup3\n        /* \"#utility.yul\":8802:8831   */\n      tag_162\n      jump\t// in\n    tag_212:\n        /* \"#utility.yul\":8794:8831   */\n      swap1\n      pop\n        /* \"#utility.yul\":8886:8890   */\n      0x20\n        /* \"#utility.yul\":8880:8884   */\n      dup2\n        /* \"#utility.yul\":8876:8891   */\n      add\n        /* \"#utility.yul\":8868:8891   */\n      swap1\n      pop\n        /* \"#utility.yul\":8590:8898   */\n      swap2\n      swap1\n      pop\n      jump\t// out\n        /* \"#utility.yul\":8904:9003   */\n    tag_156:\n        /* \"#utility.yul\":8956:8962   */\n      0x00\n        /* \"#utility.yul\":8990:8995   */\n      dup2\n        /* \"#utility.yul\":8984:8996   */\n      mload\n        /* \"#utility.yul\":8974:8996   */\n      swap1\n      pop\n        /* \"#utility.yul\":8904:9003   */\n      swap2\n      swap1\n      pop\n      jump\t// out\n        /* \"#utility.yul\":9009:9168   */\n    tag_158:\n        /* \"#utility.yul\":9083:9094   */\n      0x00\n        /* \"#utility.yul\":9117:9123   */\n      dup3\n        /* \"#utility.yul\":9112:9115   */\n      dup3\n        /* \"#utility.yul\":9105:9124   */\n      mstore\n        /* \"#utility.yul\":9157:9161   */\n      0x20\n        /* \"#utility.yul\":9152:9155   */\n      dup3\n        /* \"#utility.yul\":9148:9162   */\n      add\n        /* \"#utility.yul\":9133:9162   */\n      swap1\n      pop\n        /* \"#utility.yul\":9009:9168   */\n      swap3\n      swap2\n      pop\n      pop\n      jump\t// out\n        /* \"#utility.yul\":9174:9343   */\n    tag_167:\n        /* \"#utility.yul\":9258:9269   */\n      0x00\n        /* \"#utility.yul\":9292:9298   */\n      dup3\n        /* \"#utility.yul\":9287:9290   */\n      dup3\n        /* \"#utility.yul\":9280:9299   */\n      mstore\n        /* \"#utility.yul\":9332:9336   */\n      0x20\n        /* \"#utility.yul\":9327:9330   */\n      dup3\n        /* \"#utility.yul\":9323:9337   */\n      add\n        /* \"#utility.yul\":9308:9337   */\n      swap1\n      pop\n        /* \"#utility.yul\":9174:9343   */\n      swap3\n      swap2\n      pop\n      pop\n      jump\t// out\n        /* \"#utility.yul\":9349:9497   */\n    tag_174:\n        /* \"#utility.yul\":9451:9462   */\n      0x00\n        /* \"#utility.yul\":9488:9491   */\n      dup2\n        /* \"#utility.yul\":9473:9491   */\n      swap1\n      pop\n        /* \"#utility.yul\":9349:9497   */\n      swap3\n      swap2\n      pop\n      pop\n      jump\t// out\n        /* \"#utility.yul\":9503:9599   */\n    tag_149:\n        /* \"#utility.yul\":9540:9547   */\n      0x00\n        /* \"#utility.yul\":9569:9593   */\n      tag_218\n        /* \"#utility.yul\":9587:9592   */\n      dup3\n        /* \"#utility.yul\":9569:9593   */\n      tag_219\n      jump\t// in\n    tag_218:\n        /* \"#utility.yul\":9558:9593   */\n      swap1\n      pop\n        /* \"#utility.yul\":9503:9599   */\n      swap2\n      swap1\n      pop\n      jump\t// out\n        /* \"#utility.yul\":9605:9731   */\n    tag_219:\n        /* \"#utility.yul\":9642:9649   */\n      0x00\n        /* \"#utility.yul\":9682:9724   */\n      0xffffffffffffffffffffffffffffffffffffffff\n        /* \"#utility.yul\":9675:9680   */\n      dup3\n        /* \"#utility.yul\":9671:9725   */\n      and\n        /* \"#utility.yul\":9660:9725   */\n      swap1\n      pop\n        /* \"#utility.yul\":9605:9731   */\n      swap2\n      swap1\n      pop\n      jump\t// out\n        /* \"#utility.yul\":9737:9814   */\n    tag_189:\n        /* \"#utility.yul\":9774:9781   */\n      0x00\n        /* \"#utility.yul\":9803:9808   */\n      dup2\n        /* \"#utility.yul\":9792:9808   */\n      swap1\n      pop\n        /* \"#utility.yul\":9737:9814   */\n      swap2\n      swap1\n      pop\n      jump\t// out\n        /* \"#utility.yul\":9820:9974   */\n    tag_101:\n        /* \"#utility.yul\":9904:9910   */\n      dup3\n        /* \"#utility.yul\":9899:9902   */\n      dup2\n        /* \"#utility.yul\":9894:9897   */\n      dup4\n        /* \"#utility.yul\":9881:9911   */\n      calldatacopy\n        /* \"#utility.yul\":9966:9967   */\n      0x00\n        /* \"#utility.yul\":9957:9963   */\n      dup4\n        /* \"#utility.yul\":9952:9955   */\n      dup4\n        /* \"#utility.yul\":9948:9964   */\n      add\n        /* \"#utility.yul\":9941:9968   */\n      mstore\n        /* \"#utility.yul\":9820:9974   */\n      pop\n      pop\n      pop\n      jump\t// out\n        /* \"#utility.yul\":9980:10287   */\n    tag_160:\n        /* \"#utility.yul\":10048:10049   */\n      0x00\n        /* \"#utility.yul\":10058:10171   */\n    tag_224:\n        /* \"#utility.yul\":10072:10078   */\n      dup4\n        /* \"#utility.yul\":10069:10070   */\n      dup2\n        /* \"#utility.yul\":10066:10079   */\n      lt\n        /* \"#utility.yul\":10058:10171   */\n      iszero\n      tag_226\n      jumpi\n        /* \"#utility.yul\":10157:10158   */\n      dup1\n        /* \"#utility.yul\":10152:10155   */\n      dup3\n        /* \"#utility.yul\":10148:10159   */\n      add\n        /* \"#utility.yul\":10142:10160   */\n      mload\n        /* \"#utility.yul\":10138:10139   */\n      dup2\n        /* \"#utility.yul\":10133:10136   */\n      dup5\n        /* \"#utility.yul\":10129:10140   */\n      add\n        /* \"#utility.yul\":10122:10161   */\n      mstore\n        /* \"#utility.yul\":10094:10096   */\n      0x20\n        /* \"#utility.yul\":10091:10092   */\n      dup2\n        /* \"#utility.yul\":10087:10097   */\n      add\n        /* \"#utility.yul\":10082:10097   */\n      swap1\n      pop\n        /* \"#utility.yul\":10058:10171   */\n      jump(tag_224)\n    tag_226:\n        /* \"#utility.yul\":10189:10195   */\n      dup4\n        /* \"#utility.yul\":10186:10187   */\n      dup2\n        /* \"#utility.yul\":10183:10196   */\n      gt\n        /* \"#utility.yul\":10180:10281   */\n      iszero\n      tag_227\n      jumpi\n        /* \"#utility.yul\":10269:10270   */\n      0x00\n        /* \"#utility.yul\":10260:10266   */\n      dup5\n        /* \"#utility.yul\":10255:10258   */\n      dup5\n        /* \"#utility.yul\":10251:10267   */\n      add\n        /* \"#utility.yul\":10244:10271   */\n      mstore\n        /* \"#utility.yul\":10180:10281   */\n    tag_227:\n        /* \"#utility.yul\":10029:10287   */\n      pop\n        /* \"#utility.yul\":9980:10287   */\n      pop\n      pop\n      pop\n      jump\t// out\n        /* \"#utility.yul\":10293:10613   */\n    tag_60:\n        /* \"#utility.yul\":10337:10343   */\n      0x00\n        /* \"#utility.yul\":10374:10375   */\n      0x02\n        /* \"#utility.yul\":10368:10372   */\n      dup3\n        /* \"#utility.yul\":10364:10376   */\n      div\n        /* \"#utility.yul\":10354:10376   */\n      swap1\n      pop\n        /* \"#utility.yul\":10421:10422   */\n      0x01\n        /* \"#utility.yul\":10415:10419   */\n      dup3\n        /* \"#utility.yul\":10411:10423   */\n      and\n        /* \"#utility.yul\":10442:10460   */\n      dup1\n        /* \"#utility.yul\":10432:10513   */\n      tag_229\n      jumpi\n        /* \"#utility.yul\":10498:10502   */\n      0x7f\n        /* \"#utility.yul\":10490:10496   */\n      dup3\n        /* \"#utility.yul\":10486:10503   */\n      and\n        /* \"#utility.yul\":10476:10503   */\n      swap2\n      pop\n        /* \"#utility.yul\":10432:10513   */\n    tag_229:\n        /* \"#utility.yul\":10560:10562   */\n      0x20\n        /* \"#utility.yul\":10552:10558   */\n      dup3\n        /* \"#utility.yul\":10549:10563   */\n      lt\n        /* \"#utility.yul\":10529:10547   */\n      dup2\n        /* \"#utility.yul\":10526:10564   */\n      eq\n        /* \"#utility.yul\":10523:10607   */\n      iszero\n      tag_230\n      jumpi\n        /* \"#utility.yul\":10579:10597   */\n      tag_231\n      tag_232\n      jump\t// in\n    tag_231:\n        /* \"#utility.yul\":10523:10607   */\n    tag_230:\n        /* \"#utility.yul\":10344:10613   */\n      pop\n        /* \"#utility.yul\":10293:10613   */\n      swap2\n      swap1\n      pop\n      jump\t// out\n        /* \"#utility.yul\":10619:10900   */\n    tag_206:\n        /* \"#utility.yul\":10702:10729   */\n      tag_234\n        /* \"#utility.yul\":10724:10728   */\n      dup3\n        /* \"#utility.yul\":10702:10729   */\n      tag_162\n      jump\t// in\n    tag_234:\n        /* \"#utility.yul\":10694:10700   */\n      dup2\n        /* \"#utility.yul\":10690:10730   */\n      add\n        /* \"#utility.yul\":10832:10838   */\n      dup2\n        /* \"#utility.yul\":10820:10830   */\n      dup2\n        /* \"#utility.yul\":10817:10839   */\n      lt\n        /* \"#utility.yul\":10796:10814   */\n      0xffffffffffffffff\n        /* \"#utility.yul\":10784:10794   */\n      dup3\n        /* \"#utility.yul\":10781:10815   */\n      gt\n        /* \"#utility.yul\":10778:10840   */\n      or\n        /* \"#utility.yul\":10775:10863   */\n      iszero\n      tag_235\n      jumpi\n        /* \"#utility.yul\":10843:10861   */\n      tag_236\n      tag_211\n      jump\t// in\n    tag_236:\n        /* \"#utility.yul\":10775:10863   */\n    tag_235:\n        /* \"#utility.yul\":10883:10893   */\n      dup1\n        /* \"#utility.yul\":10879:10881   */\n      0x40\n        /* \"#utility.yul\":10872:10894   */\n      mstore\n        /* \"#utility.yul\":10662:10900   */\n      pop\n        /* \"#utility.yul\":10619:10900   */\n      pop\n      pop\n      jump\t// out\n        /* \"#utility.yul\":10906:11139   */\n    tag_46:\n        /* \"#utility.yul\":10945:10948   */\n      0x00\n        /* \"#utility.yul\":10968:10992   */\n      tag_238\n        /* \"#utility.yul\":10986:10991   */\n      dup3\n        /* \"#utility.yul\":10968:10992   */\n      tag_189\n      jump\t// in\n    tag_238:\n        /* \"#utility.yul\":10959:10992   */\n      swap2\n      pop\n        /* \"#utility.yul\":11014:11080   */\n      0xffffffffffffffffffffffffffffffffffffffffffffffffffffffffffffffff\n        /* \"#utility.yul\":11007:11012   */\n      dup3\n        /* \"#utility.yul\":11004:11081   */\n      eq\n        /* \"#utility.yul\":11001:11104   */\n      iszero\n      tag_239\n      jumpi\n        /* \"#utility.yul\":11084:11102   */\n      tag_240\n      tag_241\n      jump\t// in\n    tag_240:\n        /* \"#utility.yul\":11001:11104   */\n    tag_239:\n        /* \"#utility.yul\":11131:11132   */\n      0x01\n        /* \"#utility.yul\":11124:11129   */\n      dup3\n        /* \"#utility.yul\":11120:11133   */\n      add\n        /* \"#utility.yul\":11113:11133   */\n      swap1\n      pop\n        /* \"#utility.yul\":10906:11139   */\n      swap2\n      swap1\n      pop\n      jump\t// out\n        /* \"#utility.yul\":11145:11325   */\n    tag_241:\n        /* \"#utility.yul\":11193:11270   */\n      0x4e487b7100000000000000000000000000000000000000000000000000000000\n        /* \"#utility.yul\":11190:11191   */\n      0x00\n        /* \"#utility.yul\":11183:11271   */\n      mstore\n        /* \"#utility.yul\":11290:11294   */\n      0x11\n        /* \"#utility.yul\":11287:11288   */\n      0x04\n        /* \"#utility.yul\":11280:11295   */\n      mstore\n        /* \"#utility.yul\":11314:11318   */\n      0x24\n        /* \"#utility.yul\":11311:11312   */\n      0x00\n        /* \"#utility.yul\":11304:11319   */\n      revert\n        /* \"#utility.yul\":11331:11511   */\n    tag_232:\n        /* \"#utility.yul\":11379:11456   */\n      0x4e487b7100000000000000000000000000000000000000000000000000000000\n        /* \"#utility.yul\":11376:11377   */\n      0x00\n        /* \"#utility.yul\":11369:11457   */\n      mstore\n        /* \"#utility.yul\":11476:11480   */\n      0x22\n        /* \"#utility.yul\":11473:11474   */\n      0x04\n        /* \"#utility.yul\":11466:11481   */\n      mstore\n        /* \"#utility.yul\":11500:11504   */\n      0x24\n        /* \"#utility.yul\":11497:11498   */\n      0x00\n        /* \"#utility.yul\":11490:11505   */\n      revert\n        /* \"#utility.yul\":11517:11697   */\n    tag_211:\n        /* \"#utility.yul\":11565:11642   */\n      0x4e487b7100000000000000000000000000000000000000000000000000000000\n        /* \"#utility.yul\":11562:11563   */\n      0x00\n        /* \"#utility.yul\":11555:11643   */\n      mstore\n        /* \"#utility.yul\":11662:11666   */\n      0x41\n        /* \"#utility.yul\":11659:11660   */\n      0x04\n        /* \"#utility.yul\":11652:11667   */\n      mstore\n        /* \"#utility.yul\":11686:11690   */\n      0x24\n        /* \"#utility.yul\":11683:11684   */\n      0x00\n        /* \"#utility.yul\":11676:11691   */\n      revert\n        /* \"#utility.yul\":11703:11820   */\n    tag_110:\n        /* \"#utility.yul\":11812:11813   */\n      0x00\n        /* \"#utility.yul\":11809:11810   */\n      dup1\n        /* \"#utility.yul\":11802:11814   */\n      revert\n        /* \"#utility.yul\":11826:11943   */\n    tag_99:\n        /* \"#utility.yul\":11935:11936   */\n      0x00\n        /* \"#utility.yul\":11932:11933   */\n      dup1\n        /* \"#utility.yul\":11925:11937   */\n      revert\n        /* \"#utility.yul\":11949:12066   */\n    tag_127:\n        /* \"#utility.yul\":12058:12059   */\n      0x00\n        /* \"#utility.yul\":12055:12056   */\n      dup1\n        /* \"#utility.yul\":12048:12060   */\n      revert\n        /* \"#utility.yul\":12072:12189   */\n    tag_119:\n        /* \"#utility.yul\":12181:12182   */\n      0x00\n        /* \"#utility.yul\":12178:12179   */\n      dup1\n        /* \"#utility.yul\":12171:12183   */\n      revert\n        /* \"#utility.yul\":12195:12297   */\n    tag_162:\n        /* \"#utility.yul\":12236:12242   */\n      0x00\n        /* \"#utility.yul\":12287:12289   */\n      0x1f\n        /* \"#utility.yul\":12283:12290   */\n      not\n        /* \"#utility.yul\":12278:12280   */\n      0x1f\n        /* \"#utility.yul\":12271:12276   */\n      dup4\n        /* \"#utility.yul\":12267:12281   */\n      add\n        /* \"#utility.yul\":12263:12291   */\n      and\n        /* \"#utility.yul\":12253:12291   */\n      swap1\n      pop\n        /* \"#utility.yul\":12195:12297   */\n      swap2\n      swap1\n      pop\n      jump\t// out\n        /* \"#utility.yul\":12303:12525   */\n    tag_180:\n        /* \"#utility.yul\":12443:12477   */\n      0x4552524f52204265636175736520796f7520617265206e6f7420746865206f77\n        /* \"#utility.yul\":12439:12440   */\n      0x00\n        /* \"#utility.yul\":12431:12437   */\n      dup3\n        /* \"#utility.yul\":12427:12441   */\n      add\n        /* \"#utility.yul\":12420:12478   */\n      mstore\n        /* \"#utility.yul\":12512:12517   */\n      0x6e65720000000000000000000000000000000000000000000000000000000000\n        /* \"#utility.yul\":12507:12509   */\n      0x20\n        /* \"#utility.yul\":12499:12505   */\n      dup3\n        /* \"#utility.yul\":12495:12510   */\n      add\n        /* \"#utility.yul\":12488:12518   */\n      mstore\n        /* \"#utility.yul\":12303:12525   */\n      pop\n      jump\t// out\n        /* \"#utility.yul\":12531:12653   */\n    tag_105:\n        /* \"#utility.yul\":12604:12628   */\n      tag_252\n        /* \"#utility.yul\":12622:12627   */\n      dup2\n        /* \"#utility.yul\":12604:12628   */\n      tag_149\n      jump\t// in\n    tag_252:\n        /* \"#utility.yul\":12597:12602   */\n      dup2\n        /* \"#utility.yul\":12594:12629   */\n      eq\n        /* \"#utility.yul\":12584:12647   */\n      tag_253\n      jumpi\n        /* \"#utility.yul\":12643:12644   */\n      0x00\n        /* \"#utility.yul\":12640:12641   */\n      dup1\n        /* \"#utility.yul\":12633:12645   */\n      revert\n        /* \"#utility.yul\":12584:12647   */\n    tag_253:\n        /* \"#utility.yul\":12531:12653   */\n      pop\n      jump\t// out\n        /* \"#utility.yul\":12659:12781   */\n    tag_115:\n        /* \"#utility.yul\":12732:12756   */\n      tag_255\n        /* \"#utility.yul\":12750:12755   */\n      dup2\n        /* \"#utility.yul\":12732:12756   */\n      tag_189\n      jump\t// in\n    tag_255:\n        /* \"#utility.yul\":12725:12730   */\n      dup2\n        /* \"#utility.yul\":12722:12757   */\n      eq\n        /* \"#utility.yul\":12712:12775   */\n      tag_256\n      jumpi\n        /* \"#utility.yul\":12771:12772   */\n      0x00\n        /* \"#utility.yul\":12768:12769   */\n      dup1\n        /* \"#utility.yul\":12761:12773   */\n      revert\n        /* \"#utility.yul\":12712:12775   */\n    tag_256:\n        /* \"#utility.yul\":12659:12781   */\n      pop\n      jump\t// out\n\n    auxdata: 0xa26469706673582212208a0c4f1046c304eec95a6c3a9d9ed40d48ab7fc071cbfcf5a1a990fdd5cb1a3564736f6c63430008070033\n}\n",
				"bytecode": {
					"linkReferences": {},
					"object": "60806040526000805534801561001457600080fd5b50610fb9806100246000396000f3fe608060405234801561001057600080fd5b50600436106100625760003560e01c8063392338f514610067578063442e40e71461008357806361bc221a146100b357806366d1cac9146100d1578063ca6f69f5146100ed578063fdd6ea711461011d575b600080fd5b610081600480360381019061007c9190610969565b61014f565b005b61009d60048036038101906100989190610929565b61030a565b6040516100aa9190610c81565b60405180910390f35b6100bb61033b565b6040516100c89190610c81565b60405180910390f35b6100eb60048036038101906100e69190610a0e565b610341565b005b610107600480360381019061010291906109e1565b6104b4565b6040516101149190610c5f565b60405180910390f35b610137600480360381019061013291906109e1565b61065b565b60405161014693929190610bfa565b60405180910390f35b60405180606001604052808381526020018281526020013373ffffffffffffffffffffffffffffffffffffffff16815250600260008054815260200190815260200160002060008201518160000190805190602001906101b09291906107b5565b5060208201518160010190805190602001906101cd9291906107b5565b5060408201518160020160006101000a81548173ffffffffffffffffffffffffffffffffffffffff021916908373ffffffffffffffffffffffffffffffffffffffff160217905550905050600160003373ffffffffffffffffffffffffffffffffffffffff1673ffffffffffffffffffffffffffffffffffffffff16815260200190815260200160002060005490806001815401808255809150506001900390600052602060002001600090919091909150558060405161028e9190610be3565b6040518091039020826040516102a49190610be3565b60405180910390203373ffffffffffffffffffffffffffffffffffffffff167f4eacffc497062f11928adc3628e2047cd720623235f6f37529db1d95cc75ecbf60405160405180910390a460008081548092919061030190610e0b565b91905055505050565b6001602052816000526040600020818154811061032657600080fd5b90600052602060002001600091509150505481565b60005481565b826002600082815260200190815260200160002060020160009054906101000a900473ffffffffffffffffffffffffffffffffffffffff1673ffffffffffffffffffffffffffffffffffffffff163373ffffffffffffffffffffffffffffffffffffffff16146103e6576040517f08c379a00000000000000000000000000000000000000000000000000000000081526004016103dd90610c3f565b60405180910390fd5b60405180606001604052808481526020018381526020013373ffffffffffffffffffffffffffffffffffffffff168152506002600086815260200190815260200160002060008201518160000190805190602001906104469291906107b5565b5060208201518160010190805190602001906104639291906107b5565b5060408201518160020160006101000a81548173ffffffffffffffffffffffffffffffffffffffff021916908373ffffffffffffffffffffffffffffffffffffffff16021790555090505050505050565b6104bc61083b565b600260008381526020019081526020016000206040518060600160405290816000820180546104ea90610da8565b80601f016020809104026020016040519081016040528092919081815260200182805461051690610da8565b80156105635780601f1061053857610100808354040283529160200191610563565b820191906000526020600020905b81548152906001019060200180831161054657829003601f168201915b5050505050815260200160018201805461057c90610da8565b80601f01602080910402602001604051908101604052809291908181526020018280546105a890610da8565b80156105f55780601f106105ca576101008083540402835291602001916105f5565b820191906000526020600020905b8154815290600101906020018083116105d857829003601f168201915b505050505081526020016002820160009054906101000a900473ffffffffffffffffffffffffffffffffffffffff1673ffffffffffffffffffffffffffffffffffffffff1673ffffffffffffffffffffffffffffffffffffffff16815250509050919050565b600260205280600052604060002060009150905080600001805461067e90610da8565b80601f01602080910402602001604051908101604052809291908181526020018280546106aa90610da8565b80156106f75780601f106106cc576101008083540402835291602001916106f7565b820191906000526020600020905b8154815290600101906020018083116106da57829003601f168201915b50505050509080600101805461070c90610da8565b80601f016020809104026020016040519081016040528092919081815260200182805461073890610da8565b80156107855780601f1061075a57610100808354040283529160200191610785565b820191906000526020600020905b81548152906001019060200180831161076857829003601f168201915b5050505050908060020160009054906101000a900473ffffffffffffffffffffffffffffffffffffffff16905083565b8280546107c190610da8565b90600052602060002090601f0160209004810192826107e3576000855561082a565b82601f106107fc57805160ff191683800117855561082a565b8280016001018555821561082a579182015b8281111561082957825182559160200191906001019061080e565b5b5090506108379190610872565b5090565b60405180606001604052806060815260200160608152602001600073ffffffffffffffffffffffffffffffffffffffff1681525090565b5b8082111561088b576000816000905550600101610873565b5090565b60006108a261089d84610cc1565b610c9c565b9050828152602081018484840111156108be576108bd610ee6565b5b6108c9848285610d66565b509392505050565b6000813590506108e081610f55565b92915050565b600082601f8301126108fb576108fa610ee1565b5b813561090b84826020860161088f565b91505092915050565b60008135905061092381610f6c565b92915050565b600080604083850312156109405761093f610ef0565b5b600061094e858286016108d1565b925050602061095f85828601610914565b9150509250929050565b600080604083850312156109805761097f610ef0565b5b600083013567ffffffffffffffff81111561099e5761099d610eeb565b5b6109aa858286016108e6565b925050602083013567ffffffffffffffff8111156109cb576109ca610eeb565b5b6109d7858286016108e6565b9150509250929050565b6000602082840312156109f7576109f6610ef0565b5b6000610a0584828501610914565b91505092915050565b600080600060608486031215610a2757610a26610ef0565b5b6000610a3586828701610914565b935050602084013567ffffffffffffffff811115610a5657610a55610eeb565b5b610a62868287016108e6565b925050604084013567ffffffffffffffff811115610a8357610a82610eeb565b5b610a8f868287016108e6565b9150509250925092565b610aa281610d2a565b82525050565b610ab181610d2a565b82525050565b6000610ac282610cf2565b610acc8185610cfd565b9350610adc818560208601610d75565b610ae581610ef5565b840191505092915050565b6000610afb82610cf2565b610b058185610d0e565b9350610b15818560208601610d75565b610b1e81610ef5565b840191505092915050565b6000610b3482610cf2565b610b3e8185610d1f565b9350610b4e818560208601610d75565b80840191505092915050565b6000610b67602383610d0e565b9150610b7282610f06565b604082019050919050565b60006060830160008301518482036000860152610b9a8282610ab7565b91505060208301518482036020860152610bb48282610ab7565b9150506040830151610bc96040860182610a99565b508091505092915050565b610bdd81610d5c565b82525050565b6000610bef8284610b29565b915081905092915050565b60006060820190508181036000830152610c148186610af0565b90508181036020830152610c288185610af0565b9050610c376040830184610aa8565b949350505050565b60006020820190508181036000830152610c5881610b5a565b9050919050565b60006020820190508181036000830152610c798184610b7d565b905092915050565b6000602082019050610c966000830184610bd4565b92915050565b6000610ca6610cb7565b9050610cb28282610dda565b919050565b6000604051905090565b600067ffffffffffffffff821115610cdc57610cdb610eb2565b5b610ce582610ef5565b9050602081019050919050565b600081519050919050565b600082825260208201905092915050565b600082825260208201905092915050565b600081905092915050565b6000610d3582610d3c565b9050919050565b600073ffffffffffffffffffffffffffffffffffffffff82169050919050565b6000819050919050565b82818337600083830152505050565b60005b83811015610d93578082015181840152602081019050610d78565b83811115610da2576000848401525b50505050565b60006002820490506001821680610dc057607f821691505b60208210811415610dd457610dd3610e83565b5b50919050565b610de382610ef5565b810181811067ffffffffffffffff82111715610e0257610e01610eb2565b5b80604052505050565b6000610e1682610d5c565b91507fffffffffffffffffffffffffffffffffffffffffffffffffffffffffffffffff821415610e4957610e48610e54565b5b600182019050919050565b7f4e487b7100000000000000000000000000000000000000000000000000000000600052601160045260246000fd5b7f4e487b7100000000000000000000000000000000000000000000000000000000600052602260045260246000fd5b7f4e487b7100000000000000000000000000000000000000000000000000000000600052604160045260246000fd5b600080fd5b600080fd5b600080fd5b600080fd5b6000601f19601f8301169050919050565b7f4552524f52204265636175736520796f7520617265206e6f7420746865206f7760008201527f6e65720000000000000000000000000000000000000000000000000000000000602082015250565b610f5e81610d2a565b8114610f6957600080fd5b50565b610f7581610d5c565b8114610f8057600080fd5b5056fea26469706673582212208a0c4f1046c304eec95a6c3a9d9ed40d48ab7fc071cbfcf5a1a990fdd5cb1a3564736f6c63430008070033",
					"opcodes": "PUSH1 0x80 PUSH1 0x40 MSTORE PUSH1 0x0 DUP1 SSTORE CALLVALUE DUP1 ISZERO PUSH2 0x14 JUMPI PUSH1 0x0 DUP1 REVERT JUMPDEST POP PUSH2 0xFB9 DUP1 PUSH2 0x24 PUSH1 0x0 CODECOPY PUSH1 0x0 RETURN INVALID PUSH1 0x80 PUSH1 0x40 MSTORE CALLVALUE DUP1 ISZERO PUSH2 0x10 JUMPI PUSH1 0x0 DUP1 REVERT JUMPDEST POP PUSH1 0x4 CALLDATASIZE LT PUSH2 0x62 JUMPI PUSH1 0x0 CALLDATALOAD PUSH1 0xE0 SHR DUP1 PUSH4 0x392338F5 EQ PUSH2 0x67 JUMPI DUP1 PUSH4 0x442E40E7 EQ PUSH2 0x83 JUMPI DUP1 PUSH4 0x61BC221A EQ PUSH2 0xB3 JUMPI DUP1 PUSH4 0x66D1CAC9 EQ PUSH2 0xD1 JUMPI DUP1 PUSH4 0xCA6F69F5 EQ PUSH2 0xED JUMPI DUP1 PUSH4 0xFDD6EA71 EQ PUSH2 0x11D JUMPI JUMPDEST PUSH1 0x0 DUP1 REVERT JUMPDEST PUSH2 0x81 PUSH1 0x4 DUP1 CALLDATASIZE SUB DUP2 ADD SWAP1 PUSH2 0x7C SWAP2 SWAP1 PUSH2 0x969 JUMP JUMPDEST PUSH2 0x14F JUMP JUMPDEST STOP JUMPDEST PUSH2 0x9D PUSH1 0x4 DUP1 CALLDATASIZE SUB DUP2 ADD SWAP1 PUSH2 0x98 SWAP2 SWAP1 PUSH2 0x929 JUMP JUMPDEST PUSH2 0x30A JUMP JUMPDEST PUSH1 0x40 MLOAD PUSH2 0xAA SWAP2 SWAP1 PUSH2 0xC81 JUMP JUMPDEST PUSH1 0x40 MLOAD DUP1 SWAP2 SUB SWAP1 RETURN JUMPDEST PUSH2 0xBB PUSH2 0x33B JUMP JUMPDEST PUSH1 0x40 MLOAD PUSH2 0xC8 SWAP2 SWAP1 PUSH2 0xC81 JUMP JUMPDEST PUSH1 0x40 MLOAD DUP1 SWAP2 SUB SWAP1 RETURN JUMPDEST PUSH2 0xEB PUSH1 0x4 DUP1 CALLDATASIZE SUB DUP2 ADD SWAP1 PUSH2 0xE6 SWAP2 SWAP1 PUSH2 0xA0E JUMP JUMPDEST PUSH2 0x341 JUMP JUMPDEST STOP JUMPDEST PUSH2 0x107 PUSH1 0x4 DUP1 CALLDATASIZE SUB DUP2 ADD SWAP1 PUSH2 0x102 SWAP2 SWAP1 PUSH2 0x9E1 JUMP JUMPDEST PUSH2 0x4B4 JUMP JUMPDEST PUSH1 0x40 MLOAD PUSH2 0x114 SWAP2 SWAP1 PUSH2 0xC5F JUMP JUMPDEST PUSH1 0x40 MLOAD DUP1 SWAP2 SUB SWAP1 RETURN JUMPDEST PUSH2 0x137 PUSH1 0x4 DUP1 CALLDATASIZE SUB DUP2 ADD SWAP1 PUSH2 0x132 SWAP2 SWAP1 PUSH2 0x9E1 JUMP JUMPDEST PUSH2 0x65B JUMP JUMPDEST PUSH1 0x40 MLOAD PUSH2 0x146 SWAP4 SWAP3 SWAP2 SWAP1 PUSH2 0xBFA JUMP JUMPDEST PUSH1 0x40 MLOAD DUP1 SWAP2 SUB SWAP1 RETURN JUMPDEST PUSH1 0x40 MLOAD DUP1 PUSH1 0x60 ADD PUSH1 0x40 MSTORE DUP1 DUP4 DUP2 MSTORE PUSH1 0x20 ADD DUP3 DUP2 MSTORE PUSH1 0x20 ADD CALLER PUSH20 0xFFFFFFFFFFFFFFFFFFFFFFFFFFFFFFFFFFFFFFFF AND DUP2 MSTORE POP PUSH1 0x2 PUSH1 0x0 DUP1 SLOAD DUP2 MSTORE PUSH1 0x20 ADD SWAP1 DUP2 MSTORE PUSH1 0x20 ADD PUSH1 0x0 KECCAK256 PUSH1 0x0 DUP3 ADD MLOAD DUP2 PUSH1 0x0 ADD SWAP1 DUP1 MLOAD SWAP1 PUSH1 0x20 ADD SWAP1 PUSH2 0x1B0 SWAP3 SWAP2 SWAP1 PUSH2 0x7B5 JUMP JUMPDEST POP PUSH1 0x20 DUP3 ADD MLOAD DUP2 PUSH1 0x1 ADD SWAP1 DUP1 MLOAD SWAP1 PUSH1 0x20 ADD SWAP1 PUSH2 0x1CD SWAP3 SWAP2 SWAP1 PUSH2 0x7B5 JUMP JUMPDEST POP PUSH1 0x40 DUP3 ADD MLOAD DUP2 PUSH1 0x2 ADD PUSH1 0x0 PUSH2 0x100 EXP DUP2 SLOAD DUP2 PUSH20 0xFFFFFFFFFFFFFFFFFFFFFFFFFFFFFFFFFFFFFFFF MUL NOT AND SWAP1 DUP4 PUSH20 0xFFFFFFFFFFFFFFFFFFFFFFFFFFFFFFFFFFFFFFFF AND MUL OR SWAP1 SSTORE POP SWAP1 POP POP PUSH1 0x1 PUSH1 0x0 CALLER PUSH20 0xFFFFFFFFFFFFFFFFFFFFFFFFFFFFFFFFFFFFFFFF AND PUSH20 0xFFFFFFFFFFFFFFFFFFFFFFFFFFFFFFFFFFFFFFFF AND DUP2 MSTORE PUSH1 0x20 ADD SWAP1 DUP2 MSTORE PUSH1 0x20 ADD PUSH1 0x0 KECCAK256 PUSH1 0x0 SLOAD SWAP1 DUP1 PUSH1 0x1 DUP2 SLOAD ADD DUP1 DUP3 SSTORE DUP1 SWAP2 POP POP PUSH1 0x1 SWAP1 SUB SWAP1 PUSH1 0x0 MSTORE PUSH1 0x20 PUSH1 0x0 KECCAK256 ADD PUSH1 0x0 SWAP1 SWAP2 SWAP1 SWAP2 SWAP1 SWAP2 POP SSTORE DUP1 PUSH1 0x40 MLOAD PUSH2 0x28E SWAP2 SWAP1 PUSH2 0xBE3 JUMP JUMPDEST PUSH1 0x40 MLOAD DUP1 SWAP2 SUB SWAP1 KECCAK256 DUP3 PUSH1 0x40 MLOAD PUSH2 0x2A4 SWAP2 SWAP1 PUSH2 0xBE3 JUMP JUMPDEST PUSH1 0x40 MLOAD DUP1 SWAP2 SUB SWAP1 KECCAK256 CALLER PUSH20 0xFFFFFFFFFFFFFFFFFFFFFFFFFFFFFFFFFFFFFFFF AND PUSH32 0x4EACFFC497062F11928ADC3628E2047CD720623235F6F37529DB1D95CC75ECBF PUSH1 0x40 MLOAD PUSH1 0x40 MLOAD DUP1 SWAP2 SUB SWAP1 LOG4 PUSH1 0x0 DUP1 DUP2 SLOAD DUP1 SWAP3 SWAP2 SWAP1 PUSH2 0x301 SWAP1 PUSH2 0xE0B JUMP JUMPDEST SWAP2 SWAP1 POP SSTORE POP POP POP JUMP JUMPDEST PUSH1 0x1 PUSH1 0x20 MSTORE DUP2 PUSH1 0x0 MSTORE PUSH1 0x40 PUSH1 0x0 KECCAK256 DUP2 DUP2 SLOAD DUP2 LT PUSH2 0x326 JUMPI PUSH1 0x0 DUP1 REVERT JUMPDEST SWAP1 PUSH1 0x0 MSTORE PUSH1 0x20 PUSH1 0x0 KECCAK256 ADD PUSH1 0x0 SWAP2 POP SWAP2 POP POP SLOAD DUP2 JUMP JUMPDEST PUSH1 0x0 SLOAD DUP2 JUMP JUMPDEST DUP3 PUSH1 0x2 PUSH1 0x0 DUP3 DUP2 MSTORE PUSH1 0x20 ADD SWAP1 DUP2 MSTORE PUSH1 0x20 ADD PUSH1 0x0 KECCAK256 PUSH1 0x2 ADD PUSH1 0x0 SWAP1 SLOAD SWAP1 PUSH2 0x100 EXP SWAP1 DIV PUSH20 0xFFFFFFFFFFFFFFFFFFFFFFFFFFFFFFFFFFFFFFFF AND PUSH20 0xFFFFFFFFFFFFFFFFFFFFFFFFFFFFFFFFFFFFFFFF AND CALLER PUSH20 0xFFFFFFFFFFFFFFFFFFFFFFFFFFFFFFFFFFFFFFFF AND EQ PUSH2 0x3E6 JUMPI PUSH1 0x40 MLOAD PUSH32 0x8C379A000000000000000000000000000000000000000000000000000000000 DUP2 MSTORE PUSH1 0x4 ADD PUSH2 0x3DD SWAP1 PUSH2 0xC3F JUMP JUMPDEST PUSH1 0x40 MLOAD DUP1 SWAP2 SUB SWAP1 REVERT JUMPDEST PUSH1 0x40 MLOAD DUP1 PUSH1 0x60 ADD PUSH1 0x40 MSTORE DUP1 DUP5 DUP2 MSTORE PUSH1 0x20 ADD DUP4 DUP2 MSTORE PUSH1 0x20 ADD CALLER PUSH20 0xFFFFFFFFFFFFFFFFFFFFFFFFFFFFFFFFFFFFFFFF AND DUP2 MSTORE POP PUSH1 0x2 PUSH1 0x0 DUP7 DUP2 MSTORE PUSH1 0x20 ADD SWAP1 DUP2 MSTORE PUSH1 0x20 ADD PUSH1 0x0 KECCAK256 PUSH1 0x0 DUP3 ADD MLOAD DUP2 PUSH1 0x0 ADD SWAP1 DUP1 MLOAD SWAP1 PUSH1 0x20 ADD SWAP1 PUSH2 0x446 SWAP3 SWAP2 SWAP1 PUSH2 0x7B5 JUMP JUMPDEST POP PUSH1 0x20 DUP3 ADD MLOAD DUP2 PUSH1 0x1 ADD SWAP1 DUP1 MLOAD SWAP1 PUSH1 0x20 ADD SWAP1 PUSH2 0x463 SWAP3 SWAP2 SWAP1 PUSH2 0x7B5 JUMP JUMPDEST POP PUSH1 0x40 DUP3 ADD MLOAD DUP2 PUSH1 0x2 ADD PUSH1 0x0 PUSH2 0x100 EXP DUP2 SLOAD DUP2 PUSH20 0xFFFFFFFFFFFFFFFFFFFFFFFFFFFFFFFFFFFFFFFF MUL NOT AND SWAP1 DUP4 PUSH20 0xFFFFFFFFFFFFFFFFFFFFFFFFFFFFFFFFFFFFFFFF AND MUL OR SWAP1 SSTORE POP SWAP1 POP POP POP POP POP POP JUMP JUMPDEST PUSH2 0x4BC PUSH2 0x83B JUMP JUMPDEST PUSH1 0x2 PUSH1 0x0 DUP4 DUP2 MSTORE PUSH1 0x20 ADD SWAP1 DUP2 MSTORE PUSH1 0x20 ADD PUSH1 0x0 KECCAK256 PUSH1 0x40 MLOAD DUP1 PUSH1 0x60 ADD PUSH1 0x40 MSTORE SWAP1 DUP2 PUSH1 0x0 DUP3 ADD DUP1 SLOAD PUSH2 0x4EA SWAP1 PUSH2 0xDA8 JUMP JUMPDEST DUP1 PUSH1 0x1F ADD PUSH1 0x20 DUP1 SWAP2 DIV MUL PUSH1 0x20 ADD PUSH1 0x40 MLOAD SWAP1 DUP2 ADD PUSH1 0x40 MSTORE DUP1 SWAP3 SWAP2 SWAP1 DUP2 DUP2 MSTORE PUSH1 0x20 ADD DUP3 DUP1 SLOAD PUSH2 0x516 SWAP1 PUSH2 0xDA8 JUMP JUMPDEST DUP1 ISZERO PUSH2 0x563 JUMPI DUP1 PUSH1 0x1F LT PUSH2 0x538 JUMPI PUSH2 0x100 DUP1 DUP4 SLOAD DIV MUL DUP4 MSTORE SWAP2 PUSH1 0x20 ADD SWAP2 PUSH2 0x563 JUMP JUMPDEST DUP3 ADD SWAP2 SWAP1 PUSH1 0x0 MSTORE PUSH1 0x20 PUSH1 0x0 KECCAK256 SWAP1 JUMPDEST DUP2 SLOAD DUP2 MSTORE SWAP1 PUSH1 0x1 ADD SWAP1 PUSH1 0x20 ADD DUP1 DUP4 GT PUSH2 0x546 JUMPI DUP3 SWAP1 SUB PUSH1 0x1F AND DUP3 ADD SWAP2 JUMPDEST POP POP POP POP POP DUP2 MSTORE PUSH1 0x20 ADD PUSH1 0x1 DUP3 ADD DUP1 SLOAD PUSH2 0x57C SWAP1 PUSH2 0xDA8 JUMP JUMPDEST DUP1 PUSH1 0x1F ADD PUSH1 0x20 DUP1 SWAP2 DIV MUL PUSH1 0x20 ADD PUSH1 0x40 MLOAD SWAP1 DUP2 ADD PUSH1 0x40 MSTORE DUP1 SWAP3 SWAP2 SWAP1 DUP2 DUP2 MSTORE PUSH1 0x20 ADD DUP3 DUP1 SLOAD PUSH2 0x5A8 SWAP1 PUSH2 0xDA8 JUMP JUMPDEST DUP1 ISZERO PUSH2 0x5F5 JUMPI DUP1 PUSH1 0x1F LT PUSH2 0x5CA JUMPI PUSH2 0x100 DUP1 DUP4 SLOAD DIV MUL DUP4 MSTORE SWAP2 PUSH1 0x20 ADD SWAP2 PUSH2 0x5F5 JUMP JUMPDEST DUP3 ADD SWAP2 SWAP1 PUSH1 0x0 MSTORE PUSH1 0x20 PUSH1 0x0 KECCAK256 SWAP1 JUMPDEST DUP2 SLOAD DUP2 MSTORE SWAP1 PUSH1 0x1 ADD SWAP1 PUSH1 0x20 ADD DUP1 DUP4 GT PUSH2 0x5D8 JUMPI DUP3 SWAP1 SUB PUSH1 0x1F AND DUP3 ADD SWAP2 JUMPDEST POP POP POP POP POP DUP2 MSTORE PUSH1 0x20 ADD PUSH1 0x2 DUP3 ADD PUSH1 0x0 SWAP1 SLOAD SWAP1 PUSH2 0x100 EXP SWAP1 DIV PUSH20 0xFFFFFFFFFFFFFFFFFFFFFFFFFFFFFFFFFFFFFFFF AND PUSH20 0xFFFFFFFFFFFFFFFFFFFFFFFFFFFFFFFFFFFFFFFF AND PUSH20 0xFFFFFFFFFFFFFFFFFFFFFFFFFFFFFFFFFFFFFFFF AND DUP2 MSTORE POP POP SWAP1 POP SWAP2 SWAP1 POP JUMP JUMPDEST PUSH1 0x2 PUSH1 0x20 MSTORE DUP1 PUSH1 0x0 MSTORE PUSH1 0x40 PUSH1 0x0 KECCAK256 PUSH1 0x0 SWAP2 POP SWAP1 POP DUP1 PUSH1 0x0 ADD DUP1 SLOAD PUSH2 0x67E SWAP1 PUSH2 0xDA8 JUMP JUMPDEST DUP1 PUSH1 0x1F ADD PUSH1 0x20 DUP1 SWAP2 DIV MUL PUSH1 0x20 ADD PUSH1 0x40 MLOAD SWAP1 DUP2 ADD PUSH1 0x40 MSTORE DUP1 SWAP3 SWAP2 SWAP1 DUP2 DUP2 MSTORE PUSH1 0x20 ADD DUP3 DUP1 SLOAD PUSH2 0x6AA SWAP1 PUSH2 0xDA8 JUMP JUMPDEST DUP1 ISZERO PUSH2 0x6F7 JUMPI DUP1 PUSH1 0x1F LT PUSH2 0x6CC JUMPI PUSH2 0x100 DUP1 DUP4 SLOAD DIV MUL DUP4 MSTORE SWAP2 PUSH1 0x20 ADD SWAP2 PUSH2 0x6F7 JUMP JUMPDEST DUP3 ADD SWAP2 SWAP1 PUSH1 0x0 MSTORE PUSH1 0x20 PUSH1 0x0 KECCAK256 SWAP1 JUMPDEST DUP2 SLOAD DUP2 MSTORE SWAP1 PUSH1 0x1 ADD SWAP1 PUSH1 0x20 ADD DUP1 DUP4 GT PUSH2 0x6DA JUMPI DUP3 SWAP1 SUB PUSH1 0x1F AND DUP3 ADD SWAP2 JUMPDEST POP POP POP POP POP SWAP1 DUP1 PUSH1 0x1 ADD DUP1 SLOAD PUSH2 0x70C SWAP1 PUSH2 0xDA8 JUMP JUMPDEST DUP1 PUSH1 0x1F ADD PUSH1 0x20 DUP1 SWAP2 DIV MUL PUSH1 0x20 ADD PUSH1 0x40 MLOAD SWAP1 DUP2 ADD PUSH1 0x40 MSTORE DUP1 SWAP3 SWAP2 SWAP1 DUP2 DUP2 MSTORE PUSH1 0x20 ADD DUP3 DUP1 SLOAD PUSH2 0x738 SWAP1 PUSH2 0xDA8 JUMP JUMPDEST DUP1 ISZERO PUSH2 0x785 JUMPI DUP1 PUSH1 0x1F LT PUSH2 0x75A JUMPI PUSH2 0x100 DUP1 DUP4 SLOAD DIV MUL DUP4 MSTORE SWAP2 PUSH1 0x20 ADD SWAP2 PUSH2 0x785 JUMP JUMPDEST DUP3 ADD SWAP2 SWAP1 PUSH1 0x0 MSTORE PUSH1 0x20 PUSH1 0x0 KECCAK256 SWAP1 JUMPDEST DUP2 SLOAD DUP2 MSTORE SWAP1 PUSH1 0x1 ADD SWAP1 PUSH1 0x20 ADD DUP1 DUP4 GT PUSH2 0x768 JUMPI DUP3 SWAP1 SUB PUSH1 0x1F AND DUP3 ADD SWAP2 JUMPDEST POP POP POP POP POP SWAP1 DUP1 PUSH1 0x2 ADD PUSH1 0x0 SWAP1 SLOAD SWAP1 PUSH2 0x100 EXP SWAP1 DIV PUSH20 0xFFFFFFFFFFFFFFFFFFFFFFFFFFFFFFFFFFFFFFFF AND SWAP1 POP DUP4 JUMP JUMPDEST DUP3 DUP1 SLOAD PUSH2 0x7C1 SWAP1 PUSH2 0xDA8 JUMP JUMPDEST SWAP1 PUSH1 0x0 MSTORE PUSH1 0x20 PUSH1 0x0 KECCAK256 SWAP1 PUSH1 0x1F ADD PUSH1 0x20 SWAP1 DIV DUP2 ADD SWAP3 DUP3 PUSH2 0x7E3 JUMPI PUSH1 0x0 DUP6 SSTORE PUSH2 0x82A JUMP JUMPDEST DUP3 PUSH1 0x1F LT PUSH2 0x7FC JUMPI DUP1 MLOAD PUSH1 0xFF NOT AND DUP4 DUP1 ADD OR DUP6 SSTORE PUSH2 0x82A JUMP JUMPDEST DUP3 DUP1 ADD PUSH1 0x1 ADD DUP6 SSTORE DUP3 ISZERO PUSH2 0x82A JUMPI SWAP2 DUP3 ADD JUMPDEST DUP3 DUP2 GT ISZERO PUSH2 0x829 JUMPI DUP3 MLOAD DUP3 SSTORE SWAP2 PUSH1 0x20 ADD SWAP2 SWAP1 PUSH1 0x1 ADD SWAP1 PUSH2 0x80E JUMP JUMPDEST JUMPDEST POP SWAP1 POP PUSH2 0x837 SWAP2 SWAP1 PUSH2 0x872 JUMP JUMPDEST POP SWAP1 JUMP JUMPDEST PUSH1 0x40 MLOAD DUP1 PUSH1 0x60 ADD PUSH1 0x40 MSTORE DUP1 PUSH1 0x60 DUP2 MSTORE PUSH1 0x20 ADD PUSH1 0x60 DUP2 MSTORE PUSH1 0x20 ADD PUSH1 0x0 PUSH20 0xFFFFFFFFFFFFFFFFFFFFFFFFFFFFFFFFFFFFFFFF AND DUP2 MSTORE POP SWAP1 JUMP JUMPDEST JUMPDEST DUP1 DUP3 GT ISZERO PUSH2 0x88B JUMPI PUSH1 0x0 DUP2 PUSH1 0x0 SWAP1 SSTORE POP PUSH1 0x1 ADD PUSH2 0x873 JUMP JUMPDEST POP SWAP1 JUMP JUMPDEST PUSH1 0x0 PUSH2 0x8A2 PUSH2 0x89D DUP5 PUSH2 0xCC1 JUMP JUMPDEST PUSH2 0xC9C JUMP JUMPDEST SWAP1 POP DUP3 DUP2 MSTORE PUSH1 0x20 DUP2 ADD DUP5 DUP5 DUP5 ADD GT ISZERO PUSH2 0x8BE JUMPI PUSH2 0x8BD PUSH2 0xEE6 JUMP JUMPDEST JUMPDEST PUSH2 0x8C9 DUP5 DUP3 DUP6 PUSH2 0xD66 JUMP JUMPDEST POP SWAP4 SWAP3 POP POP POP JUMP JUMPDEST PUSH1 0x0 DUP2 CALLDATALOAD SWAP1 POP PUSH2 0x8E0 DUP2 PUSH2 0xF55 JUMP JUMPDEST SWAP3 SWAP2 POP POP JUMP JUMPDEST PUSH1 0x0 DUP3 PUSH1 0x1F DUP4 ADD SLT PUSH2 0x8FB JUMPI PUSH2 0x8FA PUSH2 0xEE1 JUMP JUMPDEST JUMPDEST DUP2 CALLDATALOAD PUSH2 0x90B DUP5 DUP3 PUSH1 0x20 DUP7 ADD PUSH2 0x88F JUMP JUMPDEST SWAP2 POP POP SWAP3 SWAP2 POP POP JUMP JUMPDEST PUSH1 0x0 DUP2 CALLDATALOAD SWAP1 POP PUSH2 0x923 DUP2 PUSH2 0xF6C JUMP JUMPDEST SWAP3 SWAP2 POP POP JUMP JUMPDEST PUSH1 0x0 DUP1 PUSH1 0x40 DUP4 DUP6 SUB SLT ISZERO PUSH2 0x940 JUMPI PUSH2 0x93F PUSH2 0xEF0 JUMP JUMPDEST JUMPDEST PUSH1 0x0 PUSH2 0x94E DUP6 DUP3 DUP7 ADD PUSH2 0x8D1 JUMP JUMPDEST SWAP3 POP POP PUSH1 0x20 PUSH2 0x95F DUP6 DUP3 DUP7 ADD PUSH2 0x914 JUMP JUMPDEST SWAP2 POP POP SWAP3 POP SWAP3 SWAP1 POP JUMP JUMPDEST PUSH1 0x0 DUP1 PUSH1 0x40 DUP4 DUP6 SUB SLT ISZERO PUSH2 0x980 JUMPI PUSH2 0x97F PUSH2 0xEF0 JUMP JUMPDEST JUMPDEST PUSH1 0x0 DUP4 ADD CALLDATALOAD PUSH8 0xFFFFFFFFFFFFFFFF DUP2 GT ISZERO PUSH2 0x99E JUMPI PUSH2 0x99D PUSH2 0xEEB JUMP JUMPDEST JUMPDEST PUSH2 0x9AA DUP6 DUP3 DUP7 ADD PUSH2 0x8E6 JUMP JUMPDEST SWAP3 POP POP PUSH1 0x20 DUP4 ADD CALLDATALOAD PUSH8 0xFFFFFFFFFFFFFFFF DUP2 GT ISZERO PUSH2 0x9CB JUMPI PUSH2 0x9CA PUSH2 0xEEB JUMP JUMPDEST JUMPDEST PUSH2 0x9D7 DUP6 DUP3 DUP7 ADD PUSH2 0x8E6 JUMP JUMPDEST SWAP2 POP POP SWAP3 POP SWAP3 SWAP1 POP JUMP JUMPDEST PUSH1 0x0 PUSH1 0x20 DUP3 DUP5 SUB SLT ISZERO PUSH2 0x9F7 JUMPI PUSH2 0x9F6 PUSH2 0xEF0 JUMP JUMPDEST JUMPDEST PUSH1 0x0 PUSH2 0xA05 DUP5 DUP3 DUP6 ADD PUSH2 0x914 JUMP JUMPDEST SWAP2 POP POP SWAP3 SWAP2 POP POP JUMP JUMPDEST PUSH1 0x0 DUP1 PUSH1 0x0 PUSH1 0x60 DUP5 DUP7 SUB SLT ISZERO PUSH2 0xA27 JUMPI PUSH2 0xA26 PUSH2 0xEF0 JUMP JUMPDEST JUMPDEST PUSH1 0x0 PUSH2 0xA35 DUP7 DUP3 DUP8 ADD PUSH2 0x914 JUMP JUMPDEST SWAP4 POP POP PUSH1 0x20 DUP5 ADD CALLDATALOAD PUSH8 0xFFFFFFFFFFFFFFFF DUP2 GT ISZERO PUSH2 0xA56 JUMPI PUSH2 0xA55 PUSH2 0xEEB JUMP JUMPDEST JUMPDEST PUSH2 0xA62 DUP7 DUP3 DUP8 ADD PUSH2 0x8E6 JUMP JUMPDEST SWAP3 POP POP PUSH1 0x40 DUP5 ADD CALLDATALOAD PUSH8 0xFFFFFFFFFFFFFFFF DUP2 GT ISZERO PUSH2 0xA83 JUMPI PUSH2 0xA82 PUSH2 0xEEB JUMP JUMPDEST JUMPDEST PUSH2 0xA8F DUP7 DUP3 DUP8 ADD PUSH2 0x8E6 JUMP JUMPDEST SWAP2 POP POP SWAP3 POP SWAP3 POP SWAP3 JUMP JUMPDEST PUSH2 0xAA2 DUP2 PUSH2 0xD2A JUMP JUMPDEST DUP3 MSTORE POP POP JUMP JUMPDEST PUSH2 0xAB1 DUP2 PUSH2 0xD2A JUMP JUMPDEST DUP3 MSTORE POP POP JUMP JUMPDEST PUSH1 0x0 PUSH2 0xAC2 DUP3 PUSH2 0xCF2 JUMP JUMPDEST PUSH2 0xACC DUP2 DUP6 PUSH2 0xCFD JUMP JUMPDEST SWAP4 POP PUSH2 0xADC DUP2 DUP6 PUSH1 0x20 DUP7 ADD PUSH2 0xD75 JUMP JUMPDEST PUSH2 0xAE5 DUP2 PUSH2 0xEF5 JUMP JUMPDEST DUP5 ADD SWAP2 POP POP SWAP3 SWAP2 POP POP JUMP JUMPDEST PUSH1 0x0 PUSH2 0xAFB DUP3 PUSH2 0xCF2 JUMP JUMPDEST PUSH2 0xB05 DUP2 DUP6 PUSH2 0xD0E JUMP JUMPDEST SWAP4 POP PUSH2 0xB15 DUP2 DUP6 PUSH1 0x20 DUP7 ADD PUSH2 0xD75 JUMP JUMPDEST PUSH2 0xB1E DUP2 PUSH2 0xEF5 JUMP JUMPDEST DUP5 ADD SWAP2 POP POP SWAP3 SWAP2 POP POP JUMP JUMPDEST PUSH1 0x0 PUSH2 0xB34 DUP3 PUSH2 0xCF2 JUMP JUMPDEST PUSH2 0xB3E DUP2 DUP6 PUSH2 0xD1F JUMP JUMPDEST SWAP4 POP PUSH2 0xB4E DUP2 DUP6 PUSH1 0x20 DUP7 ADD PUSH2 0xD75 JUMP JUMPDEST DUP1 DUP5 ADD SWAP2 POP POP SWAP3 SWAP2 POP POP JUMP JUMPDEST PUSH1 0x0 PUSH2 0xB67 PUSH1 0x23 DUP4 PUSH2 0xD0E JUMP JUMPDEST SWAP2 POP PUSH2 0xB72 DUP3 PUSH2 0xF06 JUMP JUMPDEST PUSH1 0x40 DUP3 ADD SWAP1 POP SWAP2 SWAP1 POP JUMP JUMPDEST PUSH1 0x0 PUSH1 0x60 DUP4 ADD PUSH1 0x0 DUP4 ADD MLOAD DUP5 DUP3 SUB PUSH1 0x0 DUP7 ADD MSTORE PUSH2 0xB9A DUP3 DUP3 PUSH2 0xAB7 JUMP JUMPDEST SWAP2 POP POP PUSH1 0x20 DUP4 ADD MLOAD DUP5 DUP3 SUB PUSH1 0x20 DUP7 ADD MSTORE PUSH2 0xBB4 DUP3 DUP3 PUSH2 0xAB7 JUMP JUMPDEST SWAP2 POP POP PUSH1 0x40 DUP4 ADD MLOAD PUSH2 0xBC9 PUSH1 0x40 DUP7 ADD DUP3 PUSH2 0xA99 JUMP JUMPDEST POP DUP1 SWAP2 POP POP SWAP3 SWAP2 POP POP JUMP JUMPDEST PUSH2 0xBDD DUP2 PUSH2 0xD5C JUMP JUMPDEST DUP3 MSTORE POP POP JUMP JUMPDEST PUSH1 0x0 PUSH2 0xBEF DUP3 DUP5 PUSH2 0xB29 JUMP JUMPDEST SWAP2 POP DUP2 SWAP1 POP SWAP3 SWAP2 POP POP JUMP JUMPDEST PUSH1 0x0 PUSH1 0x60 DUP3 ADD SWAP1 POP DUP2 DUP2 SUB PUSH1 0x0 DUP4 ADD MSTORE PUSH2 0xC14 DUP2 DUP7 PUSH2 0xAF0 JUMP JUMPDEST SWAP1 POP DUP2 DUP2 SUB PUSH1 0x20 DUP4 ADD MSTORE PUSH2 0xC28 DUP2 DUP6 PUSH2 0xAF0 JUMP JUMPDEST SWAP1 POP PUSH2 0xC37 PUSH1 0x40 DUP4 ADD DUP5 PUSH2 0xAA8 JUMP JUMPDEST SWAP5 SWAP4 POP POP POP POP JUMP JUMPDEST PUSH1 0x0 PUSH1 0x20 DUP3 ADD SWAP1 POP DUP2 DUP2 SUB PUSH1 0x0 DUP4 ADD MSTORE PUSH2 0xC58 DUP2 PUSH2 0xB5A JUMP JUMPDEST SWAP1 POP SWAP2 SWAP1 POP JUMP JUMPDEST PUSH1 0x0 PUSH1 0x20 DUP3 ADD SWAP1 POP DUP2 DUP2 SUB PUSH1 0x0 DUP4 ADD MSTORE PUSH2 0xC79 DUP2 DUP5 PUSH2 0xB7D JUMP JUMPDEST SWAP1 POP SWAP3 SWAP2 POP POP JUMP JUMPDEST PUSH1 0x0 PUSH1 0x20 DUP3 ADD SWAP1 POP PUSH2 0xC96 PUSH1 0x0 DUP4 ADD DUP5 PUSH2 0xBD4 JUMP JUMPDEST SWAP3 SWAP2 POP POP JUMP JUMPDEST PUSH1 0x0 PUSH2 0xCA6 PUSH2 0xCB7 JUMP JUMPDEST SWAP1 POP PUSH2 0xCB2 DUP3 DUP3 PUSH2 0xDDA JUMP JUMPDEST SWAP2 SWAP1 POP JUMP JUMPDEST PUSH1 0x0 PUSH1 0x40 MLOAD SWAP1 POP SWAP1 JUMP JUMPDEST PUSH1 0x0 PUSH8 0xFFFFFFFFFFFFFFFF DUP3 GT ISZERO PUSH2 0xCDC JUMPI PUSH2 0xCDB PUSH2 0xEB2 JUMP JUMPDEST JUMPDEST PUSH2 0xCE5 DUP3 PUSH2 0xEF5 JUMP JUMPDEST SWAP1 POP PUSH1 0x20 DUP2 ADD SWAP1 POP SWAP2 SWAP1 POP JUMP JUMPDEST PUSH1 0x0 DUP2 MLOAD SWAP1 POP SWAP2 SWAP1 POP JUMP JUMPDEST PUSH1 0x0 DUP3 DUP3 MSTORE PUSH1 0x20 DUP3 ADD SWAP1 POP SWAP3 SWAP2 POP POP JUMP JUMPDEST PUSH1 0x0 DUP3 DUP3 MSTORE PUSH1 0x20 DUP3 ADD SWAP1 POP SWAP3 SWAP2 POP POP JUMP JUMPDEST PUSH1 0x0 DUP2 SWAP1 POP SWAP3 SWAP2 POP POP JUMP JUMPDEST PUSH1 0x0 PUSH2 0xD35 DUP3 PUSH2 0xD3C JUMP JUMPDEST SWAP1 POP SWAP2 SWAP1 POP JUMP JUMPDEST PUSH1 0x0 PUSH20 0xFFFFFFFFFFFFFFFFFFFFFFFFFFFFFFFFFFFFFFFF DUP3 AND SWAP1 POP SWAP2 SWAP1 POP JUMP JUMPDEST PUSH1 0x0 DUP2 SWAP1 POP SWAP2 SWAP1 POP JUMP JUMPDEST DUP3 DUP2 DUP4 CALLDATACOPY PUSH1 0x0 DUP4 DUP4 ADD MSTORE POP POP POP JUMP JUMPDEST PUSH1 0x0 JUMPDEST DUP4 DUP2 LT ISZERO PUSH2 0xD93 JUMPI DUP1 DUP3 ADD MLOAD DUP2 DUP5 ADD MSTORE PUSH1 0x20 DUP2 ADD SWAP1 POP PUSH2 0xD78 JUMP JUMPDEST DUP4 DUP2 GT ISZERO PUSH2 0xDA2 JUMPI PUSH1 0x0 DUP5 DUP5 ADD MSTORE JUMPDEST POP POP POP POP JUMP JUMPDEST PUSH1 0x0 PUSH1 0x2 DUP3 DIV SWAP1 POP PUSH1 0x1 DUP3 AND DUP1 PUSH2 0xDC0 JUMPI PUSH1 0x7F DUP3 AND SWAP2 POP JUMPDEST PUSH1 0x20 DUP3 LT DUP2 EQ ISZERO PUSH2 0xDD4 JUMPI PUSH2 0xDD3 PUSH2 0xE83 JUMP JUMPDEST JUMPDEST POP SWAP2 SWAP1 POP JUMP JUMPDEST PUSH2 0xDE3 DUP3 PUSH2 0xEF5 JUMP JUMPDEST DUP2 ADD DUP2 DUP2 LT PUSH8 0xFFFFFFFFFFFFFFFF DUP3 GT OR ISZERO PUSH2 0xE02 JUMPI PUSH2 0xE01 PUSH2 0xEB2 JUMP JUMPDEST JUMPDEST DUP1 PUSH1 0x40 MSTORE POP POP POP JUMP JUMPDEST PUSH1 0x0 PUSH2 0xE16 DUP3 PUSH2 0xD5C JUMP JUMPDEST SWAP2 POP PUSH32 0xFFFFFFFFFFFFFFFFFFFFFFFFFFFFFFFFFFFFFFFFFFFFFFFFFFFFFFFFFFFFFFFF DUP3 EQ ISZERO PUSH2 0xE49 JUMPI PUSH2 0xE48 PUSH2 0xE54 JUMP JUMPDEST JUMPDEST PUSH1 0x1 DUP3 ADD SWAP1 POP SWAP2 SWAP1 POP JUMP JUMPDEST PUSH32 0x4E487B7100000000000000000000000000000000000000000000000000000000 PUSH1 0x0 MSTORE PUSH1 0x11 PUSH1 0x4 MSTORE PUSH1 0x24 PUSH1 0x0 REVERT JUMPDEST PUSH32 0x4E487B7100000000000000000000000000000000000000000000000000000000 PUSH1 0x0 MSTORE PUSH1 0x22 PUSH1 0x4 MSTORE PUSH1 0x24 PUSH1 0x0 REVERT JUMPDEST PUSH32 0x4E487B7100000000000000000000000000000000000000000000000000000000 PUSH1 0x0 MSTORE PUSH1 0x41 PUSH1 0x4 MSTORE PUSH1 0x24 PUSH1 0x0 REVERT JUMPDEST PUSH1 0x0 DUP1 REVERT JUMPDEST PUSH1 0x0 DUP1 REVERT JUMPDEST PUSH1 0x0 DUP1 REVERT JUMPDEST PUSH1 0x0 DUP1 REVERT JUMPDEST PUSH1 0x0 PUSH1 0x1F NOT PUSH1 0x1F DUP4 ADD AND SWAP1 POP SWAP2 SWAP1 POP JUMP JUMPDEST PUSH32 0x4552524F52204265636175736520796F7520617265206E6F7420746865206F77 PUSH1 0x0 DUP3 ADD MSTORE PUSH32 0x6E65720000000000000000000000000000000000000000000000000000000000 PUSH1 0x20 DUP3 ADD MSTORE POP JUMP JUMPDEST PUSH2 0xF5E DUP2 PUSH2 0xD2A JUMP JUMPDEST DUP2 EQ PUSH2 0xF69 JUMPI PUSH1 0x0 DUP1 REVERT JUMPDEST POP JUMP JUMPDEST PUSH2 0xF75 DUP2 PUSH2 0xD5C JUMP JUMPDEST DUP2 EQ PUSH2 0xF80 JUMPI PUSH1 0x0 DUP1 REVERT JUMPDEST POP JUMP INVALID LOG2 PUSH5 0x6970667358 0x22 SLT KECCAK256 DUP11 0xC 0x4F LT CHAINID 0xC3 DIV 0xEE 0xC9 GAS PUSH13 0x3A9D9ED40D48AB7FC071CBFCF5 LOG1 0xA9 SWAP1 REVERT 0xD5 0xCB BYTE CALLDATALOAD PUSH5 0x736F6C6343 STOP ADDMOD SMOD STOP CALLER "
				},
				"gasEstimates": {
					"creation": {
						"codeDepositCost": "805000",
						"executionCost": "5844",
						"totalCost": "810844"
					},
					"external": {
						"counter()": "2451",
						"createPost(string,string)": "infinite",
						"postsOfUser(address,uint256)": "infinite",
						"readPost(uint256)": "infinite",
						"updatePost(uint256,string,string)": "infinite",
						"userPosts(uint256)": "infinite"
					}
				},
				"methodIdentifiers": {
					"counter()": "61bc221a",
					"createPost(string,string)": "392338f5",
					"postsOfUser(address,uint256)": "442e40e7",
					"readPost(uint256)": "ca6f69f5",
					"updatePost(uint256,string,string)": "66d1cac9",
					"userPosts(uint256)": "fdd6ea71"
				}
			},
			"storageLayout": {
				"storage": [
					{
						"astId": 4,
						"contract": "contracts/blog.sol:blog",
						"label": "counter",
						"offset": 0,
						"slot": "0",
						"type": "t_uint256"
					},
					{
						"astId": 22,
						"contract": "contracts/blog.sol:blog",
						"label": "postsOfUser",
						"offset": 0,
						"slot": "1",
						"type": "t_mapping(t_address,t_array(t_uint256)dyn_storage)"
					},
					{
						"astId": 27,
						"contract": "contracts/blog.sol:blog",
						"label": "userPosts",
						"offset": 0,
						"slot": "2",
						"type": "t_mapping(t_uint256,t_struct(Post)17_storage)"
					}
				],
				"types": {
					"t_address": {
						"encoding": "inplace",
						"label": "address",
						"numberOfBytes": "20"
					},
					"t_array(t_uint256)dyn_storage": {
						"base": "t_uint256",
						"encoding": "dynamic_array",
						"label": "uint256[]",
						"numberOfBytes": "32"
					},
					"t_mapping(t_address,t_array(t_uint256)dyn_storage)": {
						"encoding": "mapping",
						"key": "t_address",
						"label": "mapping(address => uint256[])",
						"numberOfBytes": "32",
						"value": "t_array(t_uint256)dyn_storage"
					},
					"t_mapping(t_uint256,t_struct(Post)17_storage)": {
						"encoding": "mapping",
						"key": "t_uint256",
						"label": "mapping(uint256 => struct blog.Post)",
						"numberOfBytes": "32",
						"value": "t_struct(Post)17_storage"
					},
					"t_string_storage": {
						"encoding": "bytes",
						"label": "string",
						"numberOfBytes": "32"
					},
					"t_struct(Post)17_storage": {
						"encoding": "inplace",
						"label": "struct blog.Post",
						"members": [
							{
								"astId": 12,
								"contract": "contracts/blog.sol:blog",
								"label": "title",
								"offset": 0,
								"slot": "0",
								"type": "t_string_storage"
							},
							{
								"astId": 14,
								"contract": "contracts/blog.sol:blog",
								"label": "description",
								"offset": 0,
								"slot": "1",
								"type": "t_string_storage"
							},
							{
								"astId": 16,
								"contract": "contracts/blog.sol:blog",
								"label": "user",
								"offset": 0,
								"slot": "2",
								"type": "t_address"
							}
						],
						"numberOfBytes": "96"
					},
					"t_uint256": {
						"encoding": "inplace",
						"label": "uint256",
						"numberOfBytes": "32"
					}
				}
			},
			"userdoc": {
				"kind": "user",
				"methods": {},
				"version": 1
			}
		}
	}
}