{
	"contracts/visibility2.sol": {
		"parent": {
			"abi": [
				{
					"inputs": [],
					"name": "getExternal",
					"outputs": [
						{
							"internalType": "string",
							"name": "",
							"type": "string"
						}
					],
					"stateMutability": "view",
					"type": "function"
				},
				{
					"inputs": [],
					"name": "getPublic",
					"outputs": [
						{
							"internalType": "string",
							"name": "",
							"type": "string"
						}
					],
					"stateMutability": "view",
					"type": "function"
				}
			],
			"devdoc": {
				"kind": "dev",
				"methods": {},
				"version": 1
			},
			"evm": {
				"assembly": "    /* \"contracts/visibility2.sol\":64:1362  contract parent{// contract ius deployed by someone\r... */\n  mstore(0x40, 0x80)\n    /* \"contracts/visibility2.sol\":123:154  string publicValue   = \"PUBLIC\" */\n  mload(0x40)\n  dup1\n  0x40\n  add\n  0x40\n  mstore\n  dup1\n  0x06\n  dup2\n  mstore\n  0x20\n  add\n  0x5055424c49430000000000000000000000000000000000000000000000000000\n  dup2\n  mstore\n  pop\n  0x00\n  swap1\n  dup1\n  mload\n  swap1\n  0x20\n  add\n  swap1\n  tag_1\n  swap3\n  swap2\n  swap1\n  tag_2\n  jump\t// in\ntag_1:\n  pop\n    /* \"contracts/visibility2.sol\":162:194  string priavteValue  = \"PRIVATE\" */\n  mload(0x40)\n  dup1\n  0x40\n  add\n  0x40\n  mstore\n  dup1\n  0x07\n  dup2\n  mstore\n  0x20\n  add\n  0x5052495641544500000000000000000000000000000000000000000000000000\n  dup2\n  mstore\n  pop\n  0x01\n  swap1\n  dup1\n  mload\n  swap1\n  0x20\n  add\n  swap1\n  tag_3\n  swap3\n  swap2\n  swap1\n  tag_2\n  jump\t// in\ntag_3:\n  pop\n    /* \"contracts/visibility2.sol\":202:235  string internalValue = \"INTERNAL\" */\n  mload(0x40)\n  dup1\n  0x40\n  add\n  0x40\n  mstore\n  dup1\n  0x08\n  dup2\n  mstore\n  0x20\n  add\n  0x494e5445524e414c000000000000000000000000000000000000000000000000\n  dup2\n  mstore\n  pop\n  0x02\n  swap1\n  dup1\n  mload\n  swap1\n  0x20\n  add\n  swap1\n  tag_4\n  swap3\n  swap2\n  swap1\n  tag_2\n  jump\t// in\ntag_4:\n  pop\n    /* \"contracts/visibility2.sol\":243:276  string externalValue = \"EXTERNAL\" */\n  mload(0x40)\n  dup1\n  0x40\n  add\n  0x40\n  mstore\n  dup1\n  0x08\n  dup2\n  mstore\n  0x20\n  add\n  0x45585445524e414c000000000000000000000000000000000000000000000000\n  dup2\n  mstore\n  pop\n  0x03\n  swap1\n  dup1\n  mload\n  swap1\n  0x20\n  add\n  swap1\n  tag_5\n  swap3\n  swap2\n  swap1\n  tag_2\n  jump\t// in\ntag_5:\n  pop\n    /* \"contracts/visibility2.sol\":64:1362  contract parent{// contract ius deployed by someone\r... */\n  callvalue\n  dup1\n  iszero\n  tag_6\n  jumpi\n  0x00\n  dup1\n  revert\ntag_6:\n  pop\n  jump(tag_7)\ntag_2:\n  dup3\n  dup1\n  sload\n  tag_8\n  swap1\n  tag_9\n  jump\t// in\ntag_8:\n  swap1\n  0x00\n  mstore\n  keccak256(0x00, 0x20)\n  swap1\n  0x1f\n  add\n  0x20\n  swap1\n  div\n  dup2\n  add\n  swap3\n  dup3\n  tag_11\n  jumpi\n  0x00\n  dup6\n  sstore\n  jump(tag_10)\ntag_11:\n  dup3\n  0x1f\n  lt\n  tag_12\n  jumpi\n  dup1\n  mload\n  not(0xff)\n  and\n  dup4\n  dup1\n  add\n  or\n  dup6\n  sstore\n  jump(tag_10)\ntag_12:\n  dup3\n  dup1\n  add\n  0x01\n  add\n  dup6\n  sstore\n  dup3\n  iszero\n  tag_10\n  jumpi\n  swap2\n  dup3\n  add\ntag_13:\n  dup3\n  dup2\n  gt\n  iszero\n  tag_14\n  jumpi\n  dup3\n  mload\n  dup3\n  sstore\n  swap2\n  0x20\n  add\n  swap2\n  swap1\n  0x01\n  add\n  swap1\n  jump(tag_13)\ntag_14:\ntag_10:\n  pop\n  swap1\n  pop\n  tag_15\n  swap2\n  swap1\n  tag_16\n  jump\t// in\ntag_15:\n  pop\n  swap1\n  jump\t// out\ntag_16:\ntag_17:\n  dup1\n  dup3\n  gt\n  iszero\n  tag_18\n  jumpi\n  0x00\n  dup2\n  0x00\n  swap1\n  sstore\n  pop\n  0x01\n  add\n  jump(tag_17)\ntag_18:\n  pop\n  swap1\n  jump\t// out\n    /* \"#utility.yul\":7:327   */\ntag_9:\n    /* \"#utility.yul\":51:57   */\n  0x00\n    /* \"#utility.yul\":88:89   */\n  0x02\n    /* \"#utility.yul\":82:86   */\n  dup3\n    /* \"#utility.yul\":78:90   */\n  div\n    /* \"#utility.yul\":68:90   */\n  swap1\n  pop\n    /* \"#utility.yul\":135:136   */\n  0x01\n    /* \"#utility.yul\":129:133   */\n  dup3\n    /* \"#utility.yul\":125:137   */\n  and\n    /* \"#utility.yul\":156:174   */\n  dup1\n    /* \"#utility.yul\":146:227   */\n  tag_21\n  jumpi\n    /* \"#utility.yul\":212:216   */\n  0x7f\n    /* \"#utility.yul\":204:210   */\n  dup3\n    /* \"#utility.yul\":200:217   */\n  and\n    /* \"#utility.yul\":190:217   */\n  swap2\n  pop\n    /* \"#utility.yul\":146:227   */\ntag_21:\n    /* \"#utility.yul\":274:276   */\n  0x20\n    /* \"#utility.yul\":266:272   */\n  dup3\n    /* \"#utility.yul\":263:277   */\n  lt\n    /* \"#utility.yul\":243:261   */\n  dup2\n    /* \"#utility.yul\":240:278   */\n  eq\n    /* \"#utility.yul\":237:321   */\n  iszero\n  tag_22\n  jumpi\n    /* \"#utility.yul\":293:311   */\n  tag_23\n  tag_24\n  jump\t// in\ntag_23:\n    /* \"#utility.yul\":237:321   */\ntag_22:\n    /* \"#utility.yul\":58:327   */\n  pop\n    /* \"#utility.yul\":7:327   */\n  swap2\n  swap1\n  pop\n  jump\t// out\n    /* \"#utility.yul\":333:513   */\ntag_24:\n    /* \"#utility.yul\":381:458   */\n  0x4e487b7100000000000000000000000000000000000000000000000000000000\n    /* \"#utility.yul\":378:379   */\n  0x00\n    /* \"#utility.yul\":371:459   */\n  mstore\n    /* \"#utility.yul\":478:482   */\n  0x22\n    /* \"#utility.yul\":475:476   */\n  0x04\n    /* \"#utility.yul\":468:483   */\n  mstore\n    /* \"#utility.yul\":502:506   */\n  0x24\n    /* \"#utility.yul\":499:500   */\n  0x00\n    /* \"#utility.yul\":492:507   */\n  revert\n    /* \"contracts/visibility2.sol\":64:1362  contract parent{// contract ius deployed by someone\r... */\ntag_7:\n  dataSize(sub_0)\n  dup1\n  dataOffset(sub_0)\n  0x00\n  codecopy\n  0x00\n  return\nstop\n\nsub_0: assembly {\n        /* \"contracts/visibility2.sol\":64:1362  contract parent{// contract ius deployed by someone\r... */\n      mstore(0x40, 0x80)\n      callvalue\n      dup1\n      iszero\n      tag_1\n      jumpi\n      0x00\n      dup1\n      revert\n    tag_1:\n      pop\n      jumpi(tag_2, lt(calldatasize, 0x04))\n      shr(0xe0, calldataload(0x00))\n      dup1\n      0x2c044779\n      eq\n      tag_3\n      jumpi\n      dup1\n      0xc932415b\n      eq\n      tag_4\n      jumpi\n    tag_2:\n      0x00\n      dup1\n      revert\n        /* \"contracts/visibility2.sol\":377:566  function getPublic()\r... */\n    tag_3:\n      tag_5\n      tag_6\n      jump\t// in\n    tag_5:\n      mload(0x40)\n      tag_7\n      swap2\n      swap1\n      tag_8\n      jump\t// in\n    tag_7:\n      mload(0x40)\n      dup1\n      swap2\n      sub\n      swap1\n      return\n        /* \"contracts/visibility2.sol\":1015:1150  function getExternal()\r... */\n    tag_4:\n      tag_9\n      tag_10\n      jump\t// in\n    tag_9:\n      mload(0x40)\n      tag_11\n      swap2\n      swap1\n      tag_8\n      jump\t// in\n    tag_11:\n      mload(0x40)\n      dup1\n      swap2\n      sub\n      swap1\n      return\n        /* \"contracts/visibility2.sol\":377:566  function getPublic()\r... */\n    tag_6:\n        /* \"contracts/visibility2.sol\":449:462  string memory */\n      0x60\n        /* \"contracts/visibility2.sol\":490:491  3 */\n      0x03\n        /* \"contracts/visibility2.sol\":481:486  1 + 1 */\n      0x02\n        /* \"contracts/visibility2.sol\":481:491  1 + 1 == 3 */\n      eq\n        /* \"contracts/visibility2.sol\":473:508  require(1 + 1 == 3,\"Not the owner\") */\n      tag_13\n      jumpi\n      mload(0x40)\n      0x08c379a000000000000000000000000000000000000000000000000000000000\n      dup2\n      mstore\n      0x04\n      add\n      tag_14\n      swap1\n      tag_15\n      jump\t// in\n    tag_14:\n      mload(0x40)\n      dup1\n      swap2\n      sub\n      swap1\n      revert\n    tag_13:\n        /* \"contracts/visibility2.sol\":548:559  publicValue */\n      0x00\n        /* \"contracts/visibility2.sol\":541:559  return publicValue */\n      dup1\n      sload\n      tag_16\n      swap1\n      tag_17\n      jump\t// in\n    tag_16:\n      dup1\n      0x1f\n      add\n      0x20\n      dup1\n      swap2\n      div\n      mul\n      0x20\n      add\n      mload(0x40)\n      swap1\n      dup2\n      add\n      0x40\n      mstore\n      dup1\n      swap3\n      swap2\n      swap1\n      dup2\n      dup2\n      mstore\n      0x20\n      add\n      dup3\n      dup1\n      sload\n      tag_18\n      swap1\n      tag_17\n      jump\t// in\n    tag_18:\n      dup1\n      iszero\n      tag_19\n      jumpi\n      dup1\n      0x1f\n      lt\n      tag_20\n      jumpi\n      0x0100\n      dup1\n      dup4\n      sload\n      div\n      mul\n      dup4\n      mstore\n      swap2\n      0x20\n      add\n      swap2\n      jump(tag_19)\n    tag_20:\n      dup3\n      add\n      swap2\n      swap1\n      0x00\n      mstore\n      keccak256(0x00, 0x20)\n      swap1\n    tag_21:\n      dup2\n      sload\n      dup2\n      mstore\n      swap1\n      0x01\n      add\n      swap1\n      0x20\n      add\n      dup1\n      dup4\n      gt\n      tag_21\n      jumpi\n      dup3\n      swap1\n      sub\n      0x1f\n      and\n      dup3\n      add\n      swap2\n    tag_19:\n      pop\n      pop\n      pop\n      pop\n      pop\n      swap1\n      pop\n        /* \"contracts/visibility2.sol\":377:566  function getPublic()\r... */\n      swap1\n      jump\t// out\n        /* \"contracts/visibility2.sol\":1015:1150  function getExternal()\r... */\n    tag_10:\n        /* \"contracts/visibility2.sol\":1099:1112  string memory */\n      0x60\n        /* \"contracts/visibility2.sol\":1130:1143  externalValue */\n      0x03\n        /* \"contracts/visibility2.sol\":1123:1143  return externalValue */\n      dup1\n      sload\n      tag_23\n      swap1\n      tag_17\n      jump\t// in\n    tag_23:\n      dup1\n      0x1f\n      add\n      0x20\n      dup1\n      swap2\n      div\n      mul\n      0x20\n      add\n      mload(0x40)\n      swap1\n      dup2\n      add\n      0x40\n      mstore\n      dup1\n      swap3\n      swap2\n      swap1\n      dup2\n      dup2\n      mstore\n      0x20\n      add\n      dup3\n      dup1\n      sload\n      tag_24\n      swap1\n      tag_17\n      jump\t// in\n    tag_24:\n      dup1\n      iszero\n      tag_25\n      jumpi\n      dup1\n      0x1f\n      lt\n      tag_26\n      jumpi\n      0x0100\n      dup1\n      dup4\n      sload\n      div\n      mul\n      dup4\n      mstore\n      swap2\n      0x20\n      add\n      swap2\n      jump(tag_25)\n    tag_26:\n      dup3\n      add\n      swap2\n      swap1\n      0x00\n      mstore\n      keccak256(0x00, 0x20)\n      swap1\n    tag_27:\n      dup2\n      sload\n      dup2\n      mstore\n      swap1\n      0x01\n      add\n      swap1\n      0x20\n      add\n      dup1\n      dup4\n      gt\n      tag_27\n      jumpi\n      dup3\n      swap1\n      sub\n      0x1f\n      and\n      dup3\n      add\n      swap2\n    tag_25:\n      pop\n      pop\n      pop\n      pop\n      pop\n      swap1\n      pop\n        /* \"contracts/visibility2.sol\":1015:1150  function getExternal()\r... */\n      swap1\n      jump\t// out\n        /* \"#utility.yul\":7:371   */\n    tag_29:\n        /* \"#utility.yul\":95:98   */\n      0x00\n        /* \"#utility.yul\":123:162   */\n      tag_31\n        /* \"#utility.yul\":156:161   */\n      dup3\n        /* \"#utility.yul\":123:162   */\n      tag_32\n      jump\t// in\n    tag_31:\n        /* \"#utility.yul\":178:249   */\n      tag_33\n        /* \"#utility.yul\":242:248   */\n      dup2\n        /* \"#utility.yul\":237:240   */\n      dup6\n        /* \"#utility.yul\":178:249   */\n      tag_34\n      jump\t// in\n    tag_33:\n        /* \"#utility.yul\":171:249   */\n      swap4\n      pop\n        /* \"#utility.yul\":258:310   */\n      tag_35\n        /* \"#utility.yul\":303:309   */\n      dup2\n        /* \"#utility.yul\":298:301   */\n      dup6\n        /* \"#utility.yul\":291:295   */\n      0x20\n        /* \"#utility.yul\":284:289   */\n      dup7\n        /* \"#utility.yul\":280:296   */\n      add\n        /* \"#utility.yul\":258:310   */\n      tag_36\n      jump\t// in\n    tag_35:\n        /* \"#utility.yul\":335:364   */\n      tag_37\n        /* \"#utility.yul\":357:363   */\n      dup2\n        /* \"#utility.yul\":335:364   */\n      tag_38\n      jump\t// in\n    tag_37:\n        /* \"#utility.yul\":330:333   */\n      dup5\n        /* \"#utility.yul\":326:365   */\n      add\n        /* \"#utility.yul\":319:365   */\n      swap2\n      pop\n        /* \"#utility.yul\":99:371   */\n      pop\n        /* \"#utility.yul\":7:371   */\n      swap3\n      swap2\n      pop\n      pop\n      jump\t// out\n        /* \"#utility.yul\":377:743   */\n    tag_39:\n        /* \"#utility.yul\":519:522   */\n      0x00\n        /* \"#utility.yul\":540:607   */\n      tag_41\n        /* \"#utility.yul\":604:606   */\n      0x0d\n        /* \"#utility.yul\":599:602   */\n      dup4\n        /* \"#utility.yul\":540:607   */\n      tag_34\n      jump\t// in\n    tag_41:\n        /* \"#utility.yul\":533:607   */\n      swap2\n      pop\n        /* \"#utility.yul\":616:709   */\n      tag_42\n        /* \"#utility.yul\":705:708   */\n      dup3\n        /* \"#utility.yul\":616:709   */\n      tag_43\n      jump\t// in\n    tag_42:\n        /* \"#utility.yul\":734:736   */\n      0x20\n        /* \"#utility.yul\":729:732   */\n      dup3\n        /* \"#utility.yul\":725:737   */\n      add\n        /* \"#utility.yul\":718:737   */\n      swap1\n      pop\n        /* \"#utility.yul\":377:743   */\n      swap2\n      swap1\n      pop\n      jump\t// out\n        /* \"#utility.yul\":749:1062   */\n    tag_8:\n        /* \"#utility.yul\":862:866   */\n      0x00\n        /* \"#utility.yul\":900:902   */\n      0x20\n        /* \"#utility.yul\":889:898   */\n      dup3\n        /* \"#utility.yul\":885:903   */\n      add\n        /* \"#utility.yul\":877:903   */\n      swap1\n      pop\n        /* \"#utility.yul\":949:958   */\n      dup2\n        /* \"#utility.yul\":943:947   */\n      dup2\n        /* \"#utility.yul\":939:959   */\n      sub\n        /* \"#utility.yul\":935:936   */\n      0x00\n        /* \"#utility.yul\":924:933   */\n      dup4\n        /* \"#utility.yul\":920:937   */\n      add\n        /* \"#utility.yul\":913:960   */\n      mstore\n        /* \"#utility.yul\":977:1055   */\n      tag_45\n        /* \"#utility.yul\":1050:1054   */\n      dup2\n        /* \"#utility.yul\":1041:1047   */\n      dup5\n        /* \"#utility.yul\":977:1055   */\n      tag_29\n      jump\t// in\n    tag_45:\n        /* \"#utility.yul\":969:1055   */\n      swap1\n      pop\n        /* \"#utility.yul\":749:1062   */\n      swap3\n      swap2\n      pop\n      pop\n      jump\t// out\n        /* \"#utility.yul\":1068:1487   */\n    tag_15:\n        /* \"#utility.yul\":1234:1238   */\n      0x00\n        /* \"#utility.yul\":1272:1274   */\n      0x20\n        /* \"#utility.yul\":1261:1270   */\n      dup3\n        /* \"#utility.yul\":1257:1275   */\n      add\n        /* \"#utility.yul\":1249:1275   */\n      swap1\n      pop\n        /* \"#utility.yul\":1321:1330   */\n      dup2\n        /* \"#utility.yul\":1315:1319   */\n      dup2\n        /* \"#utility.yul\":1311:1331   */\n      sub\n        /* \"#utility.yul\":1307:1308   */\n      0x00\n        /* \"#utility.yul\":1296:1305   */\n      dup4\n        /* \"#utility.yul\":1292:1309   */\n      add\n        /* \"#utility.yul\":1285:1332   */\n      mstore\n        /* \"#utility.yul\":1349:1480   */\n      tag_47\n        /* \"#utility.yul\":1475:1479   */\n      dup2\n        /* \"#utility.yul\":1349:1480   */\n      tag_39\n      jump\t// in\n    tag_47:\n        /* \"#utility.yul\":1341:1480   */\n      swap1\n      pop\n        /* \"#utility.yul\":1068:1487   */\n      swap2\n      swap1\n      pop\n      jump\t// out\n        /* \"#utility.yul\":1493:1592   */\n    tag_32:\n        /* \"#utility.yul\":1545:1551   */\n      0x00\n        /* \"#utility.yul\":1579:1584   */\n      dup2\n        /* \"#utility.yul\":1573:1585   */\n      mload\n        /* \"#utility.yul\":1563:1585   */\n      swap1\n      pop\n        /* \"#utility.yul\":1493:1592   */\n      swap2\n      swap1\n      pop\n      jump\t// out\n        /* \"#utility.yul\":1598:1767   */\n    tag_34:\n        /* \"#utility.yul\":1682:1693   */\n      0x00\n        /* \"#utility.yul\":1716:1722   */\n      dup3\n        /* \"#utility.yul\":1711:1714   */\n      dup3\n        /* \"#utility.yul\":1704:1723   */\n      mstore\n        /* \"#utility.yul\":1756:1760   */\n      0x20\n        /* \"#utility.yul\":1751:1754   */\n      dup3\n        /* \"#utility.yul\":1747:1761   */\n      add\n        /* \"#utility.yul\":1732:1761   */\n      swap1\n      pop\n        /* \"#utility.yul\":1598:1767   */\n      swap3\n      swap2\n      pop\n      pop\n      jump\t// out\n        /* \"#utility.yul\":1773:2080   */\n    tag_36:\n        /* \"#utility.yul\":1841:1842   */\n      0x00\n        /* \"#utility.yul\":1851:1964   */\n    tag_51:\n        /* \"#utility.yul\":1865:1871   */\n      dup4\n        /* \"#utility.yul\":1862:1863   */\n      dup2\n        /* \"#utility.yul\":1859:1872   */\n      lt\n        /* \"#utility.yul\":1851:1964   */\n      iszero\n      tag_53\n      jumpi\n        /* \"#utility.yul\":1950:1951   */\n      dup1\n        /* \"#utility.yul\":1945:1948   */\n      dup3\n        /* \"#utility.yul\":1941:1952   */\n      add\n        /* \"#utility.yul\":1935:1953   */\n      mload\n        /* \"#utility.yul\":1931:1932   */\n      dup2\n        /* \"#utility.yul\":1926:1929   */\n      dup5\n        /* \"#utility.yul\":1922:1933   */\n      add\n        /* \"#utility.yul\":1915:1954   */\n      mstore\n        /* \"#utility.yul\":1887:1889   */\n      0x20\n        /* \"#utility.yul\":1884:1885   */\n      dup2\n        /* \"#utility.yul\":1880:1890   */\n      add\n        /* \"#utility.yul\":1875:1890   */\n      swap1\n      pop\n        /* \"#utility.yul\":1851:1964   */\n      jump(tag_51)\n    tag_53:\n        /* \"#utility.yul\":1982:1988   */\n      dup4\n        /* \"#utility.yul\":1979:1980   */\n      dup2\n        /* \"#utility.yul\":1976:1989   */\n      gt\n        /* \"#utility.yul\":1973:2074   */\n      iszero\n      tag_54\n      jumpi\n        /* \"#utility.yul\":2062:2063   */\n      0x00\n        /* \"#utility.yul\":2053:2059   */\n      dup5\n        /* \"#utility.yul\":2048:2051   */\n      dup5\n        /* \"#utility.yul\":2044:2060   */\n      add\n        /* \"#utility.yul\":2037:2064   */\n      mstore\n        /* \"#utility.yul\":1973:2074   */\n    tag_54:\n        /* \"#utility.yul\":1822:2080   */\n      pop\n        /* \"#utility.yul\":1773:2080   */\n      pop\n      pop\n      pop\n      jump\t// out\n        /* \"#utility.yul\":2086:2406   */\n    tag_17:\n        /* \"#utility.yul\":2130:2136   */\n      0x00\n        /* \"#utility.yul\":2167:2168   */\n      0x02\n        /* \"#utility.yul\":2161:2165   */\n      dup3\n        /* \"#utility.yul\":2157:2169   */\n      div\n        /* \"#utility.yul\":2147:2169   */\n      swap1\n      pop\n        /* \"#utility.yul\":2214:2215   */\n      0x01\n        /* \"#utility.yul\":2208:2212   */\n      dup3\n        /* \"#utility.yul\":2204:2216   */\n      and\n        /* \"#utility.yul\":2235:2253   */\n      dup1\n        /* \"#utility.yul\":2225:2306   */\n      tag_56\n      jumpi\n        /* \"#utility.yul\":2291:2295   */\n      0x7f\n        /* \"#utility.yul\":2283:2289   */\n      dup3\n        /* \"#utility.yul\":2279:2296   */\n      and\n        /* \"#utility.yul\":2269:2296   */\n      swap2\n      pop\n        /* \"#utility.yul\":2225:2306   */\n    tag_56:\n        /* \"#utility.yul\":2353:2355   */\n      0x20\n        /* \"#utility.yul\":2345:2351   */\n      dup3\n        /* \"#utility.yul\":2342:2356   */\n      lt\n        /* \"#utility.yul\":2322:2340   */\n      dup2\n        /* \"#utility.yul\":2319:2357   */\n      eq\n        /* \"#utility.yul\":2316:2400   */\n      iszero\n      tag_57\n      jumpi\n        /* \"#utility.yul\":2372:2390   */\n      tag_58\n      tag_59\n      jump\t// in\n    tag_58:\n        /* \"#utility.yul\":2316:2400   */\n    tag_57:\n        /* \"#utility.yul\":2137:2406   */\n      pop\n        /* \"#utility.yul\":2086:2406   */\n      swap2\n      swap1\n      pop\n      jump\t// out\n        /* \"#utility.yul\":2412:2592   */\n    tag_59:\n        /* \"#utility.yul\":2460:2537   */\n      0x4e487b7100000000000000000000000000000000000000000000000000000000\n        /* \"#utility.yul\":2457:2458   */\n      0x00\n        /* \"#utility.yul\":2450:2538   */\n      mstore\n        /* \"#utility.yul\":2557:2561   */\n      0x22\n        /* \"#utility.yul\":2554:2555   */\n      0x04\n        /* \"#utility.yul\":2547:2562   */\n      mstore\n        /* \"#utility.yul\":2581:2585   */\n      0x24\n        /* \"#utility.yul\":2578:2579   */\n      0x00\n        /* \"#utility.yul\":2571:2586   */\n      revert\n        /* \"#utility.yul\":2598:2700   */\n    tag_38:\n        /* \"#utility.yul\":2639:2645   */\n      0x00\n        /* \"#utility.yul\":2690:2692   */\n      0x1f\n        /* \"#utility.yul\":2686:2693   */\n      not\n        /* \"#utility.yul\":2681:2683   */\n      0x1f\n        /* \"#utility.yul\":2674:2679   */\n      dup4\n        /* \"#utility.yul\":2670:2684   */\n      add\n        /* \"#utility.yul\":2666:2694   */\n      and\n        /* \"#utility.yul\":2656:2694   */\n      swap1\n      pop\n        /* \"#utility.yul\":2598:2700   */\n      swap2\n      swap1\n      pop\n      jump\t// out\n        /* \"#utility.yul\":2706:2869   */\n    tag_43:\n        /* \"#utility.yul\":2846:2861   */\n      0x4e6f7420746865206f776e657200000000000000000000000000000000000000\n        /* \"#utility.yul\":2842:2843   */\n      0x00\n        /* \"#utility.yul\":2834:2840   */\n      dup3\n        /* \"#utility.yul\":2830:2844   */\n      add\n        /* \"#utility.yul\":2823:2862   */\n      mstore\n        /* \"#utility.yul\":2706:2869   */\n      pop\n      jump\t// out\n\n    auxdata: 0xa26469706673582212200c5827c780959d2fdee43b54e08bb3e67ed9505bac604694000b08869661151d64736f6c63430008070033\n}\n",
				"bytecode": {
					"linkReferences": {},
					"object": "60806040526040518060400160405280600681526020017f5055424c494300000000000000000000000000000000000000000000000000008152506000908051906020019061004f929190610146565b506040518060400160405280600781526020017f50524956415445000000000000000000000000000000000000000000000000008152506001908051906020019061009b929190610146565b506040518060400160405280600881526020017f494e5445524e414c000000000000000000000000000000000000000000000000815250600290805190602001906100e7929190610146565b506040518060400160405280600881526020017f45585445524e414c00000000000000000000000000000000000000000000000081525060039080519060200190610133929190610146565b5034801561014057600080fd5b5061024a565b828054610152906101e9565b90600052602060002090601f01602090048101928261017457600085556101bb565b82601f1061018d57805160ff19168380011785556101bb565b828001600101855582156101bb579182015b828111156101ba57825182559160200191906001019061019f565b5b5090506101c891906101cc565b5090565b5b808211156101e55760008160009055506001016101cd565b5090565b6000600282049050600182168061020157607f821691505b602082108114156102155761021461021b565b5b50919050565b7f4e487b7100000000000000000000000000000000000000000000000000000000600052602260045260246000fd5b61039d806102596000396000f3fe608060405234801561001057600080fd5b50600436106100365760003560e01c80632c0447791461003b578063c932415b14610059575b600080fd5b610043610077565b604051610050919061023b565b60405180910390f35b61006161014d565b60405161006e919061023b565b60405180910390f35b606060036002146100bd576040517f08c379a00000000000000000000000000000000000000000000000000000000081526004016100b49061025d565b60405180910390fd5b600080546100ca906102cc565b80601f01602080910402602001604051908101604052809291908181526020018280546100f6906102cc565b80156101435780601f1061011857610100808354040283529160200191610143565b820191906000526020600020905b81548152906001019060200180831161012657829003601f168201915b5050505050905090565b60606003805461015c906102cc565b80601f0160208091040260200160405190810160405280929190818152602001828054610188906102cc565b80156101d55780601f106101aa576101008083540402835291602001916101d5565b820191906000526020600020905b8154815290600101906020018083116101b857829003601f168201915b5050505050905090565b60006101ea8261027d565b6101f48185610288565b9350610204818560208601610299565b61020d8161032d565b840191505092915050565b6000610225600d83610288565b91506102308261033e565b602082019050919050565b6000602082019050818103600083015261025581846101df565b905092915050565b6000602082019050818103600083015261027681610218565b9050919050565b600081519050919050565b600082825260208201905092915050565b60005b838110156102b757808201518184015260208101905061029c565b838111156102c6576000848401525b50505050565b600060028204905060018216806102e457607f821691505b602082108114156102f8576102f76102fe565b5b50919050565b7f4e487b7100000000000000000000000000000000000000000000000000000000600052602260045260246000fd5b6000601f19601f8301169050919050565b7f4e6f7420746865206f776e65720000000000000000000000000000000000000060008201525056fea26469706673582212200c5827c780959d2fdee43b54e08bb3e67ed9505bac604694000b08869661151d64736f6c63430008070033",
					"opcodes": "PUSH1 0x80 PUSH1 0x40 MSTORE PUSH1 0x40 MLOAD DUP1 PUSH1 0x40 ADD PUSH1 0x40 MSTORE DUP1 PUSH1 0x6 DUP2 MSTORE PUSH1 0x20 ADD PUSH32 0x5055424C49430000000000000000000000000000000000000000000000000000 DUP2 MSTORE POP PUSH1 0x0 SWAP1 DUP1 MLOAD SWAP1 PUSH1 0x20 ADD SWAP1 PUSH2 0x4F SWAP3 SWAP2 SWAP1 PUSH2 0x146 JUMP JUMPDEST POP PUSH1 0x40 MLOAD DUP1 PUSH1 0x40 ADD PUSH1 0x40 MSTORE DUP1 PUSH1 0x7 DUP2 MSTORE PUSH1 0x20 ADD PUSH32 0x5052495641544500000000000000000000000000000000000000000000000000 DUP2 MSTORE POP PUSH1 0x1 SWAP1 DUP1 MLOAD SWAP1 PUSH1 0x20 ADD SWAP1 PUSH2 0x9B SWAP3 SWAP2 SWAP1 PUSH2 0x146 JUMP JUMPDEST POP PUSH1 0x40 MLOAD DUP1 PUSH1 0x40 ADD PUSH1 0x40 MSTORE DUP1 PUSH1 0x8 DUP2 MSTORE PUSH1 0x20 ADD PUSH32 0x494E5445524E414C000000000000000000000000000000000000000000000000 DUP2 MSTORE POP PUSH1 0x2 SWAP1 DUP1 MLOAD SWAP1 PUSH1 0x20 ADD SWAP1 PUSH2 0xE7 SWAP3 SWAP2 SWAP1 PUSH2 0x146 JUMP JUMPDEST POP PUSH1 0x40 MLOAD DUP1 PUSH1 0x40 ADD PUSH1 0x40 MSTORE DUP1 PUSH1 0x8 DUP2 MSTORE PUSH1 0x20 ADD PUSH32 0x45585445524E414C000000000000000000000000000000000000000000000000 DUP2 MSTORE POP PUSH1 0x3 SWAP1 DUP1 MLOAD SWAP1 PUSH1 0x20 ADD SWAP1 PUSH2 0x133 SWAP3 SWAP2 SWAP1 PUSH2 0x146 JUMP JUMPDEST POP CALLVALUE DUP1 ISZERO PUSH2 0x140 JUMPI PUSH1 0x0 DUP1 REVERT JUMPDEST POP PUSH2 0x24A JUMP JUMPDEST DUP3 DUP1 SLOAD PUSH2 0x152 SWAP1 PUSH2 0x1E9 JUMP JUMPDEST SWAP1 PUSH1 0x0 MSTORE PUSH1 0x20 PUSH1 0x0 KECCAK256 SWAP1 PUSH1 0x1F ADD PUSH1 0x20 SWAP1 DIV DUP2 ADD SWAP3 DUP3 PUSH2 0x174 JUMPI PUSH1 0x0 DUP6 SSTORE PUSH2 0x1BB JUMP JUMPDEST DUP3 PUSH1 0x1F LT PUSH2 0x18D JUMPI DUP1 MLOAD PUSH1 0xFF NOT AND DUP4 DUP1 ADD OR DUP6 SSTORE PUSH2 0x1BB JUMP JUMPDEST DUP3 DUP1 ADD PUSH1 0x1 ADD DUP6 SSTORE DUP3 ISZERO PUSH2 0x1BB JUMPI SWAP2 DUP3 ADD JUMPDEST DUP3 DUP2 GT ISZERO PUSH2 0x1BA JUMPI DUP3 MLOAD DUP3 SSTORE SWAP2 PUSH1 0x20 ADD SWAP2 SWAP1 PUSH1 0x1 ADD SWAP1 PUSH2 0x19F JUMP JUMPDEST JUMPDEST POP SWAP1 POP PUSH2 0x1C8 SWAP2 SWAP1 PUSH2 0x1CC JUMP JUMPDEST POP SWAP1 JUMP JUMPDEST JUMPDEST DUP1 DUP3 GT ISZERO PUSH2 0x1E5 JUMPI PUSH1 0x0 DUP2 PUSH1 0x0 SWAP1 SSTORE POP PUSH1 0x1 ADD PUSH2 0x1CD JUMP JUMPDEST POP SWAP1 JUMP JUMPDEST PUSH1 0x0 PUSH1 0x2 DUP3 DIV SWAP1 POP PUSH1 0x1 DUP3 AND DUP1 PUSH2 0x201 JUMPI PUSH1 0x7F DUP3 AND SWAP2 POP JUMPDEST PUSH1 0x20 DUP3 LT DUP2 EQ ISZERO PUSH2 0x215 JUMPI PUSH2 0x214 PUSH2 0x21B JUMP JUMPDEST JUMPDEST POP SWAP2 SWAP1 POP JUMP JUMPDEST PUSH32 0x4E487B7100000000000000000000000000000000000000000000000000000000 PUSH1 0x0 MSTORE PUSH1 0x22 PUSH1 0x4 MSTORE PUSH1 0x24 PUSH1 0x0 REVERT JUMPDEST PUSH2 0x39D DUP1 PUSH2 0x259 PUSH1 0x0 CODECOPY PUSH1 0x0 RETURN INVALID PUSH1 0x80 PUSH1 0x40 MSTORE CALLVALUE DUP1 ISZERO PUSH2 0x10 JUMPI PUSH1 0x0 DUP1 REVERT JUMPDEST POP PUSH1 0x4 CALLDATASIZE LT PUSH2 0x36 JUMPI PUSH1 0x0 CALLDATALOAD PUSH1 0xE0 SHR DUP1 PUSH4 0x2C044779 EQ PUSH2 0x3B JUMPI DUP1 PUSH4 0xC932415B EQ PUSH2 0x59 JUMPI JUMPDEST PUSH1 0x0 DUP1 REVERT JUMPDEST PUSH2 0x43 PUSH2 0x77 JUMP JUMPDEST PUSH1 0x40 MLOAD PUSH2 0x50 SWAP2 SWAP1 PUSH2 0x23B JUMP JUMPDEST PUSH1 0x40 MLOAD DUP1 SWAP2 SUB SWAP1 RETURN JUMPDEST PUSH2 0x61 PUSH2 0x14D JUMP JUMPDEST PUSH1 0x40 MLOAD PUSH2 0x6E SWAP2 SWAP1 PUSH2 0x23B JUMP JUMPDEST PUSH1 0x40 MLOAD DUP1 SWAP2 SUB SWAP1 RETURN JUMPDEST PUSH1 0x60 PUSH1 0x3 PUSH1 0x2 EQ PUSH2 0xBD JUMPI PUSH1 0x40 MLOAD PUSH32 0x8C379A000000000000000000000000000000000000000000000000000000000 DUP2 MSTORE PUSH1 0x4 ADD PUSH2 0xB4 SWAP1 PUSH2 0x25D JUMP JUMPDEST PUSH1 0x40 MLOAD DUP1 SWAP2 SUB SWAP1 REVERT JUMPDEST PUSH1 0x0 DUP1 SLOAD PUSH2 0xCA SWAP1 PUSH2 0x2CC JUMP JUMPDEST DUP1 PUSH1 0x1F ADD PUSH1 0x20 DUP1 SWAP2 DIV MUL PUSH1 0x20 ADD PUSH1 0x40 MLOAD SWAP1 DUP2 ADD PUSH1 0x40 MSTORE DUP1 SWAP3 SWAP2 SWAP1 DUP2 DUP2 MSTORE PUSH1 0x20 ADD DUP3 DUP1 SLOAD PUSH2 0xF6 SWAP1 PUSH2 0x2CC JUMP JUMPDEST DUP1 ISZERO PUSH2 0x143 JUMPI DUP1 PUSH1 0x1F LT PUSH2 0x118 JUMPI PUSH2 0x100 DUP1 DUP4 SLOAD DIV MUL DUP4 MSTORE SWAP2 PUSH1 0x20 ADD SWAP2 PUSH2 0x143 JUMP JUMPDEST DUP3 ADD SWAP2 SWAP1 PUSH1 0x0 MSTORE PUSH1 0x20 PUSH1 0x0 KECCAK256 SWAP1 JUMPDEST DUP2 SLOAD DUP2 MSTORE SWAP1 PUSH1 0x1 ADD SWAP1 PUSH1 0x20 ADD DUP1 DUP4 GT PUSH2 0x126 JUMPI DUP3 SWAP1 SUB PUSH1 0x1F AND DUP3 ADD SWAP2 JUMPDEST POP POP POP POP POP SWAP1 POP SWAP1 JUMP JUMPDEST PUSH1 0x60 PUSH1 0x3 DUP1 SLOAD PUSH2 0x15C SWAP1 PUSH2 0x2CC JUMP JUMPDEST DUP1 PUSH1 0x1F ADD PUSH1 0x20 DUP1 SWAP2 DIV MUL PUSH1 0x20 ADD PUSH1 0x40 MLOAD SWAP1 DUP2 ADD PUSH1 0x40 MSTORE DUP1 SWAP3 SWAP2 SWAP1 DUP2 DUP2 MSTORE PUSH1 0x20 ADD DUP3 DUP1 SLOAD PUSH2 0x188 SWAP1 PUSH2 0x2CC JUMP JUMPDEST DUP1 ISZERO PUSH2 0x1D5 JUMPI DUP1 PUSH1 0x1F LT PUSH2 0x1AA JUMPI PUSH2 0x100 DUP1 DUP4 SLOAD DIV MUL DUP4 MSTORE SWAP2 PUSH1 0x20 ADD SWAP2 PUSH2 0x1D5 JUMP JUMPDEST DUP3 ADD SWAP2 SWAP1 PUSH1 0x0 MSTORE PUSH1 0x20 PUSH1 0x0 KECCAK256 SWAP1 JUMPDEST DUP2 SLOAD DUP2 MSTORE SWAP1 PUSH1 0x1 ADD SWAP1 PUSH1 0x20 ADD DUP1 DUP4 GT PUSH2 0x1B8 JUMPI DUP3 SWAP1 SUB PUSH1 0x1F AND DUP3 ADD SWAP2 JUMPDEST POP POP POP POP POP SWAP1 POP SWAP1 JUMP JUMPDEST PUSH1 0x0 PUSH2 0x1EA DUP3 PUSH2 0x27D JUMP JUMPDEST PUSH2 0x1F4 DUP2 DUP6 PUSH2 0x288 JUMP JUMPDEST SWAP4 POP PUSH2 0x204 DUP2 DUP6 PUSH1 0x20 DUP7 ADD PUSH2 0x299 JUMP JUMPDEST PUSH2 0x20D DUP2 PUSH2 0x32D JUMP JUMPDEST DUP5 ADD SWAP2 POP POP SWAP3 SWAP2 POP POP JUMP JUMPDEST PUSH1 0x0 PUSH2 0x225 PUSH1 0xD DUP4 PUSH2 0x288 JUMP JUMPDEST SWAP2 POP PUSH2 0x230 DUP3 PUSH2 0x33E JUMP JUMPDEST PUSH1 0x20 DUP3 ADD SWAP1 POP SWAP2 SWAP1 POP JUMP JUMPDEST PUSH1 0x0 PUSH1 0x20 DUP3 ADD SWAP1 POP DUP2 DUP2 SUB PUSH1 0x0 DUP4 ADD MSTORE PUSH2 0x255 DUP2 DUP5 PUSH2 0x1DF JUMP JUMPDEST SWAP1 POP SWAP3 SWAP2 POP POP JUMP JUMPDEST PUSH1 0x0 PUSH1 0x20 DUP3 ADD SWAP1 POP DUP2 DUP2 SUB PUSH1 0x0 DUP4 ADD MSTORE PUSH2 0x276 DUP2 PUSH2 0x218 JUMP JUMPDEST SWAP1 POP SWAP2 SWAP1 POP JUMP JUMPDEST PUSH1 0x0 DUP2 MLOAD SWAP1 POP SWAP2 SWAP1 POP JUMP JUMPDEST PUSH1 0x0 DUP3 DUP3 MSTORE PUSH1 0x20 DUP3 ADD SWAP1 POP SWAP3 SWAP2 POP POP JUMP JUMPDEST PUSH1 0x0 JUMPDEST DUP4 DUP2 LT ISZERO PUSH2 0x2B7 JUMPI DUP1 DUP3 ADD MLOAD DUP2 DUP5 ADD MSTORE PUSH1 0x20 DUP2 ADD SWAP1 POP PUSH2 0x29C JUMP JUMPDEST DUP4 DUP2 GT ISZERO PUSH2 0x2C6 JUMPI PUSH1 0x0 DUP5 DUP5 ADD MSTORE JUMPDEST POP POP POP POP JUMP JUMPDEST PUSH1 0x0 PUSH1 0x2 DUP3 DIV SWAP1 POP PUSH1 0x1 DUP3 AND DUP1 PUSH2 0x2E4 JUMPI PUSH1 0x7F DUP3 AND SWAP2 POP JUMPDEST PUSH1 0x20 DUP3 LT DUP2 EQ ISZERO PUSH2 0x2F8 JUMPI PUSH2 0x2F7 PUSH2 0x2FE JUMP JUMPDEST JUMPDEST POP SWAP2 SWAP1 POP JUMP JUMPDEST PUSH32 0x4E487B7100000000000000000000000000000000000000000000000000000000 PUSH1 0x0 MSTORE PUSH1 0x22 PUSH1 0x4 MSTORE PUSH1 0x24 PUSH1 0x0 REVERT JUMPDEST PUSH1 0x0 PUSH1 0x1F NOT PUSH1 0x1F DUP4 ADD AND SWAP1 POP SWAP2 SWAP1 POP JUMP JUMPDEST PUSH32 0x4E6F7420746865206F776E657200000000000000000000000000000000000000 PUSH1 0x0 DUP3 ADD MSTORE POP JUMP INVALID LOG2 PUSH5 0x6970667358 0x22 SLT KECCAK256 0xC PC 0x27 0xC7 DUP1 SWAP6 SWAP14 0x2F 0xDE 0xE4 EXTCODESIZE SLOAD 0xE0 DUP12 0xB3 0xE6 PUSH31 0xD9505BAC604694000B08869661151D64736F6C634300080700330000000000 "
				},
				"gasEstimates": {
					"creation": {
						"codeDepositCost": "185000",
						"executionCost": "infinite",
						"totalCost": "infinite"
					},
					"external": {
						"getExternal()": "infinite",
						"getPublic()": "437"
					},
					"internal": {
						"getInternal()": "infinite",
						"getPrivate()": "infinite"
					}
				},
				"methodIdentifiers": {
					"getExternal()": "c932415b",
					"getPublic()": "2c044779"
				}
			},
			"storageLayout": {
				"storage": [
					{
						"astId": 4,
						"contract": "contracts/visibility2.sol:parent",
						"label": "publicValue",
						"offset": 0,
						"slot": "0",
						"type": "t_string_storage"
					},
					{
						"astId": 7,
						"contract": "contracts/visibility2.sol:parent",
						"label": "priavteValue",
						"offset": 0,
						"slot": "1",
						"type": "t_string_storage"
					},
					{
						"astId": 10,
						"contract": "contracts/visibility2.sol:parent",
						"label": "internalValue",
						"offset": 0,
						"slot": "2",
						"type": "t_string_storage"
					},
					{
						"astId": 13,
						"contract": "contracts/visibility2.sol:parent",
						"label": "externalValue",
						"offset": 0,
						"slot": "3",
						"type": "t_string_storage"
					}
				],
				"types": {
					"t_string_storage": {
						"encoding": "bytes",
						"label": "string",
						"numberOfBytes": "32"
					}
				}
			},
			"userdoc": {
				"kind": "user",
				"methods": {},
				"version": 1
			}
		}
	}
}