{
	"contracts/functions.sol": {
		"functionsContract": {
			"abi": [
				{
					"inputs": [
						{
							"internalType": "string",
							"name": "_newName",
							"type": "string"
						}
					],
					"name": "changeName",
					"outputs": [],
					"stateMutability": "nonpayable",
					"type": "function"
				},
				{
					"inputs": [
						{
							"internalType": "uint256",
							"name": "a",
							"type": "uint256"
						},
						{
							"internalType": "uint256",
							"name": "b",
							"type": "uint256"
						}
					],
					"name": "getPureName",
					"outputs": [
						{
							"internalType": "uint256",
							"name": "",
							"type": "uint256"
						}
					],
					"stateMutability": "pure",
					"type": "function"
				},
				{
					"inputs": [],
					"name": "getname",
					"outputs": [
						{
							"internalType": "string",
							"name": "",
							"type": "string"
						}
					],
					"stateMutability": "view",
					"type": "function"
				},
				{
					"inputs": [
						{
							"internalType": "address",
							"name": "owner",
							"type": "address"
						},
						{
							"internalType": "address",
							"name": "payee",
							"type": "address"
						},
						{
							"internalType": "uint256",
							"name": "value",
							"type": "uint256"
						}
					],
					"name": "payOwner",
					"outputs": [
						{
							"internalType": "uint256",
							"name": "",
							"type": "uint256"
						}
					],
					"stateMutability": "payable",
					"type": "function"
				}
			],
			"devdoc": {
				"kind": "dev",
				"methods": {},
				"version": 1
			},
			"evm": {
				"assembly": "    /* \"contracts/functions.sol\":64:1374  contract functionsContract{\r... */\n  mstore(0x40, 0x80)\n    /* \"contracts/functions.sol\":125:148  string name = \"Polygon\" */\n  mload(0x40)\n  dup1\n  0x40\n  add\n  0x40\n  mstore\n  dup1\n  0x07\n  dup2\n  mstore\n  0x20\n  add\n  0x506f6c79676f6e00000000000000000000000000000000000000000000000000\n  dup2\n  mstore\n  pop\n  0x00\n  swap1\n  dup1\n  mload\n  swap1\n  0x20\n  add\n  swap1\n  tag_1\n  swap3\n  swap2\n  swap1\n  tag_2\n  jump\t// in\ntag_1:\n  pop\n    /* \"contracts/functions.sol\":64:1374  contract functionsContract{\r... */\n  callvalue\n  dup1\n  iszero\n  tag_3\n  jumpi\n  0x00\n  dup1\n  revert\ntag_3:\n  pop\n  jump(tag_4)\ntag_2:\n  dup3\n  dup1\n  sload\n  tag_5\n  swap1\n  tag_6\n  jump\t// in\ntag_5:\n  swap1\n  0x00\n  mstore\n  keccak256(0x00, 0x20)\n  swap1\n  0x1f\n  add\n  0x20\n  swap1\n  div\n  dup2\n  add\n  swap3\n  dup3\n  tag_8\n  jumpi\n  0x00\n  dup6\n  sstore\n  jump(tag_7)\ntag_8:\n  dup3\n  0x1f\n  lt\n  tag_9\n  jumpi\n  dup1\n  mload\n  not(0xff)\n  and\n  dup4\n  dup1\n  add\n  or\n  dup6\n  sstore\n  jump(tag_7)\ntag_9:\n  dup3\n  dup1\n  add\n  0x01\n  add\n  dup6\n  sstore\n  dup3\n  iszero\n  tag_7\n  jumpi\n  swap2\n  dup3\n  add\ntag_10:\n  dup3\n  dup2\n  gt\n  iszero\n  tag_11\n  jumpi\n  dup3\n  mload\n  dup3\n  sstore\n  swap2\n  0x20\n  add\n  swap2\n  swap1\n  0x01\n  add\n  swap1\n  jump(tag_10)\ntag_11:\ntag_7:\n  pop\n  swap1\n  pop\n  tag_12\n  swap2\n  swap1\n  tag_13\n  jump\t// in\ntag_12:\n  pop\n  swap1\n  jump\t// out\ntag_13:\ntag_14:\n  dup1\n  dup3\n  gt\n  iszero\n  tag_15\n  jumpi\n  0x00\n  dup2\n  0x00\n  swap1\n  sstore\n  pop\n  0x01\n  add\n  jump(tag_14)\ntag_15:\n  pop\n  swap1\n  jump\t// out\n    /* \"#utility.yul\":7:327   */\ntag_6:\n    /* \"#utility.yul\":51:57   */\n  0x00\n    /* \"#utility.yul\":88:89   */\n  0x02\n    /* \"#utility.yul\":82:86   */\n  dup3\n    /* \"#utility.yul\":78:90   */\n  div\n    /* \"#utility.yul\":68:90   */\n  swap1\n  pop\n    /* \"#utility.yul\":135:136   */\n  0x01\n    /* \"#utility.yul\":129:133   */\n  dup3\n    /* \"#utility.yul\":125:137   */\n  and\n    /* \"#utility.yul\":156:174   */\n  dup1\n    /* \"#utility.yul\":146:227   */\n  tag_18\n  jumpi\n    /* \"#utility.yul\":212:216   */\n  0x7f\n    /* \"#utility.yul\":204:210   */\n  dup3\n    /* \"#utility.yul\":200:217   */\n  and\n    /* \"#utility.yul\":190:217   */\n  swap2\n  pop\n    /* \"#utility.yul\":146:227   */\ntag_18:\n    /* \"#utility.yul\":274:276   */\n  0x20\n    /* \"#utility.yul\":266:272   */\n  dup3\n    /* \"#utility.yul\":263:277   */\n  lt\n    /* \"#utility.yul\":243:261   */\n  dup2\n    /* \"#utility.yul\":240:278   */\n  eq\n    /* \"#utility.yul\":237:321   */\n  iszero\n  tag_19\n  jumpi\n    /* \"#utility.yul\":293:311   */\n  tag_20\n  tag_21\n  jump\t// in\ntag_20:\n    /* \"#utility.yul\":237:321   */\ntag_19:\n    /* \"#utility.yul\":58:327   */\n  pop\n    /* \"#utility.yul\":7:327   */\n  swap2\n  swap1\n  pop\n  jump\t// out\n    /* \"#utility.yul\":333:513   */\ntag_21:\n    /* \"#utility.yul\":381:458   */\n  0x4e487b7100000000000000000000000000000000000000000000000000000000\n    /* \"#utility.yul\":378:379   */\n  0x00\n    /* \"#utility.yul\":371:459   */\n  mstore\n    /* \"#utility.yul\":478:482   */\n  0x22\n    /* \"#utility.yul\":475:476   */\n  0x04\n    /* \"#utility.yul\":468:483   */\n  mstore\n    /* \"#utility.yul\":502:506   */\n  0x24\n    /* \"#utility.yul\":499:500   */\n  0x00\n    /* \"#utility.yul\":492:507   */\n  revert\n    /* \"contracts/functions.sol\":64:1374  contract functionsContract{\r... */\ntag_4:\n  dataSize(sub_0)\n  dup1\n  dataOffset(sub_0)\n  0x00\n  codecopy\n  0x00\n  return\nstop\n\nsub_0: assembly {\n        /* \"contracts/functions.sol\":64:1374  contract functionsContract{\r... */\n      mstore(0x40, 0x80)\n      jumpi(tag_1, lt(calldatasize, 0x04))\n      shr(0xe0, calldataload(0x00))\n      dup1\n      0x5353a2d8\n      eq\n      tag_2\n      jumpi\n      dup1\n      0x65efd0f5\n      eq\n      tag_3\n      jumpi\n      dup1\n      0xa990a7a7\n      eq\n      tag_4\n      jumpi\n      dup1\n      0xc6ea59b9\n      eq\n      tag_5\n      jumpi\n    tag_1:\n      0x00\n      dup1\n      revert\n        /* \"contracts/functions.sol\":1274:1363  function changeName(string memory _newName)\r... */\n    tag_2:\n      callvalue\n      dup1\n      iszero\n      tag_6\n      jumpi\n      0x00\n      dup1\n      revert\n    tag_6:\n      pop\n      tag_7\n      0x04\n      dup1\n      calldatasize\n      sub\n      dup2\n      add\n      swap1\n      tag_8\n      swap2\n      swap1\n      tag_9\n      jump\t// in\n    tag_8:\n      tag_10\n      jump\t// in\n    tag_7:\n      stop\n        /* \"contracts/functions.sol\":1030:1264  function payOwner(address owner,address payee, uint value)\r... */\n    tag_3:\n      tag_11\n      0x04\n      dup1\n      calldatasize\n      sub\n      dup2\n      add\n      swap1\n      tag_12\n      swap2\n      swap1\n      tag_13\n      jump\t// in\n    tag_12:\n      tag_14\n      jump\t// in\n    tag_11:\n      mload(0x40)\n      tag_15\n      swap2\n      swap1\n      tag_16\n      jump\t// in\n    tag_15:\n      mload(0x40)\n      dup1\n      swap2\n      sub\n      swap1\n      return\n        /* \"contracts/functions.sol\":775:1006  function getPureName(uint a, uint b)\r... */\n    tag_4:\n      callvalue\n      dup1\n      iszero\n      tag_17\n      jumpi\n      0x00\n      dup1\n      revert\n    tag_17:\n      pop\n      tag_18\n      0x04\n      dup1\n      calldatasize\n      sub\n      dup2\n      add\n      swap1\n      tag_19\n      swap2\n      swap1\n      tag_20\n      jump\t// in\n    tag_19:\n      tag_21\n      jump\t// in\n    tag_18:\n      mload(0x40)\n      tag_22\n      swap2\n      swap1\n      tag_16\n      jump\t// in\n    tag_22:\n      mload(0x40)\n      dup1\n      swap2\n      sub\n      swap1\n      return\n        /* \"contracts/functions.sol\":586:714  function getname()\r... */\n    tag_5:\n      callvalue\n      dup1\n      iszero\n      tag_23\n      jumpi\n      0x00\n      dup1\n      revert\n    tag_23:\n      pop\n      tag_24\n      tag_25\n      jump\t// in\n    tag_24:\n      mload(0x40)\n      tag_26\n      swap2\n      swap1\n      tag_27\n      jump\t// in\n    tag_26:\n      mload(0x40)\n      dup1\n      swap2\n      sub\n      swap1\n      return\n        /* \"contracts/functions.sol\":1274:1363  function changeName(string memory _newName)\r... */\n    tag_10:\n        /* \"contracts/functions.sol\":1347:1355  _newName */\n      dup1\n        /* \"contracts/functions.sol\":1340:1344  name */\n      0x00\n        /* \"contracts/functions.sol\":1340:1355  name = _newName */\n      swap1\n      dup1\n      mload\n      swap1\n      0x20\n      add\n      swap1\n      tag_29\n      swap3\n      swap2\n      swap1\n      tag_30\n      jump\t// in\n    tag_29:\n      pop\n        /* \"contracts/functions.sol\":1274:1363  function changeName(string memory _newName)\r... */\n      pop\n      jump\t// out\n        /* \"contracts/functions.sol\":1030:1264  function payOwner(address owner,address payee, uint value)\r... */\n    tag_14:\n        /* \"contracts/functions.sol\":1140:1144  uint */\n      0x00\n        /* \"contracts/functions.sol\":1158:1180  uint[] memory balances */\n      0x60\n        /* \"contracts/functions.sol\":1205:1210  value */\n      dup3\n        /* \"contracts/functions.sol\":1191:1199  balances */\n      dup2\n        /* \"contracts/functions.sol\":1200:1201  0 */\n      0x00\n        /* \"contracts/functions.sol\":1191:1202  balances[0] */\n      dup2\n      mload\n      dup2\n      lt\n      tag_32\n      jumpi\n      tag_33\n      tag_34\n      jump\t// in\n    tag_33:\n    tag_32:\n      0x20\n      mul\n      0x20\n      add\n      add\n        /* \"contracts/functions.sol\":1191:1210  balances[0] = value */\n      dup2\n      dup2\n      mstore\n      pop\n      pop\n        /* \"contracts/functions.sol\":1228:1236  balances */\n      dup1\n        /* \"contracts/functions.sol\":1237:1238  0 */\n      0x00\n        /* \"contracts/functions.sol\":1228:1239  balances[0] */\n      dup2\n      mload\n      dup2\n      lt\n      tag_35\n      jumpi\n      tag_36\n      tag_34\n      jump\t// in\n    tag_36:\n    tag_35:\n      0x20\n      mul\n      0x20\n      add\n      add\n      mload\n        /* \"contracts/functions.sol\":1221:1239  return balances[0] */\n      swap2\n      pop\n      pop\n        /* \"contracts/functions.sol\":1030:1264  function payOwner(address owner,address payee, uint value)\r... */\n      swap4\n      swap3\n      pop\n      pop\n      pop\n      jump\t// out\n        /* \"contracts/functions.sol\":775:1006  function getPureName(uint a, uint b)\r... */\n    tag_21:\n        /* \"contracts/functions.sol\":860:864  uint */\n      0x00\n        /* \"contracts/functions.sol\":876:895  string memory _name */\n      dup1\n        /* \"contracts/functions.sol\":876:901  string memory _name = \"V\" */\n      mload(0x40)\n      dup1\n      0x40\n      add\n      0x40\n      mstore\n      dup1\n      0x01\n      dup2\n      mstore\n      0x20\n      add\n      0x5600000000000000000000000000000000000000000000000000000000000000\n      dup2\n      mstore\n      pop\n      swap1\n      pop\n        /* \"contracts/functions.sol\":940:951  uint result */\n      0x00\n        /* \"contracts/functions.sol\":956:957  b */\n      dup4\n        /* \"contracts/functions.sol\":954:955  a */\n      dup6\n        /* \"contracts/functions.sol\":954:957  a+b */\n      tag_38\n      swap2\n      swap1\n      tag_39\n      jump\t// in\n    tag_38:\n        /* \"contracts/functions.sol\":940:957  uint result = a+b */\n      swap1\n      pop\n        /* \"contracts/functions.sol\":975:981  result */\n      dup1\n        /* \"contracts/functions.sol\":968:981  return result */\n      swap3\n      pop\n      pop\n      pop\n        /* \"contracts/functions.sol\":775:1006  function getPureName(uint a, uint b)\r... */\n      swap3\n      swap2\n      pop\n      pop\n      jump\t// out\n        /* \"contracts/functions.sol\":586:714  function getname()\r... */\n    tag_25:\n        /* \"contracts/functions.sol\":653:666  string memory */\n      0x60\n        /* \"contracts/functions.sol\":685:689  name */\n      0x00\n        /* \"contracts/functions.sol\":678:689  return name */\n      dup1\n      sload\n      tag_41\n      swap1\n      tag_42\n      jump\t// in\n    tag_41:\n      dup1\n      0x1f\n      add\n      0x20\n      dup1\n      swap2\n      div\n      mul\n      0x20\n      add\n      mload(0x40)\n      swap1\n      dup2\n      add\n      0x40\n      mstore\n      dup1\n      swap3\n      swap2\n      swap1\n      dup2\n      dup2\n      mstore\n      0x20\n      add\n      dup3\n      dup1\n      sload\n      tag_43\n      swap1\n      tag_42\n      jump\t// in\n    tag_43:\n      dup1\n      iszero\n      tag_44\n      jumpi\n      dup1\n      0x1f\n      lt\n      tag_45\n      jumpi\n      0x0100\n      dup1\n      dup4\n      sload\n      div\n      mul\n      dup4\n      mstore\n      swap2\n      0x20\n      add\n      swap2\n      jump(tag_44)\n    tag_45:\n      dup3\n      add\n      swap2\n      swap1\n      0x00\n      mstore\n      keccak256(0x00, 0x20)\n      swap1\n    tag_46:\n      dup2\n      sload\n      dup2\n      mstore\n      swap1\n      0x01\n      add\n      swap1\n      0x20\n      add\n      dup1\n      dup4\n      gt\n      tag_46\n      jumpi\n      dup3\n      swap1\n      sub\n      0x1f\n      and\n      dup3\n      add\n      swap2\n    tag_44:\n      pop\n      pop\n      pop\n      pop\n      pop\n      swap1\n      pop\n        /* \"contracts/functions.sol\":586:714  function getname()\r... */\n      swap1\n      jump\t// out\n    tag_30:\n      dup3\n      dup1\n      sload\n      tag_47\n      swap1\n      tag_42\n      jump\t// in\n    tag_47:\n      swap1\n      0x00\n      mstore\n      keccak256(0x00, 0x20)\n      swap1\n      0x1f\n      add\n      0x20\n      swap1\n      div\n      dup2\n      add\n      swap3\n      dup3\n      tag_49\n      jumpi\n      0x00\n      dup6\n      sstore\n      jump(tag_48)\n    tag_49:\n      dup3\n      0x1f\n      lt\n      tag_50\n      jumpi\n      dup1\n      mload\n      not(0xff)\n      and\n      dup4\n      dup1\n      add\n      or\n      dup6\n      sstore\n      jump(tag_48)\n    tag_50:\n      dup3\n      dup1\n      add\n      0x01\n      add\n      dup6\n      sstore\n      dup3\n      iszero\n      tag_48\n      jumpi\n      swap2\n      dup3\n      add\n    tag_51:\n      dup3\n      dup2\n      gt\n      iszero\n      tag_52\n      jumpi\n      dup3\n      mload\n      dup3\n      sstore\n      swap2\n      0x20\n      add\n      swap2\n      swap1\n      0x01\n      add\n      swap1\n      jump(tag_51)\n    tag_52:\n    tag_48:\n      pop\n      swap1\n      pop\n      tag_53\n      swap2\n      swap1\n      tag_54\n      jump\t// in\n    tag_53:\n      pop\n      swap1\n      jump\t// out\n    tag_54:\n    tag_55:\n      dup1\n      dup3\n      gt\n      iszero\n      tag_56\n      jumpi\n      0x00\n      dup2\n      0x00\n      swap1\n      sstore\n      pop\n      0x01\n      add\n      jump(tag_55)\n    tag_56:\n      pop\n      swap1\n      jump\t// out\n        /* \"#utility.yul\":7:419   */\n    tag_58:\n        /* \"#utility.yul\":85:90   */\n      0x00\n        /* \"#utility.yul\":110:176   */\n      tag_60\n        /* \"#utility.yul\":126:175   */\n      tag_61\n        /* \"#utility.yul\":168:174   */\n      dup5\n        /* \"#utility.yul\":126:175   */\n      tag_62\n      jump\t// in\n    tag_61:\n        /* \"#utility.yul\":110:176   */\n      tag_63\n      jump\t// in\n    tag_60:\n        /* \"#utility.yul\":101:176   */\n      swap1\n      pop\n        /* \"#utility.yul\":199:205   */\n      dup3\n        /* \"#utility.yul\":192:197   */\n      dup2\n        /* \"#utility.yul\":185:206   */\n      mstore\n        /* \"#utility.yul\":237:241   */\n      0x20\n        /* \"#utility.yul\":230:235   */\n      dup2\n        /* \"#utility.yul\":226:242   */\n      add\n        /* \"#utility.yul\":275:278   */\n      dup5\n        /* \"#utility.yul\":266:272   */\n      dup5\n        /* \"#utility.yul\":261:264   */\n      dup5\n        /* \"#utility.yul\":257:273   */\n      add\n        /* \"#utility.yul\":254:279   */\n      gt\n        /* \"#utility.yul\":251:363   */\n      iszero\n      tag_64\n      jumpi\n        /* \"#utility.yul\":282:361   */\n      tag_65\n      tag_66\n      jump\t// in\n    tag_65:\n        /* \"#utility.yul\":251:363   */\n    tag_64:\n        /* \"#utility.yul\":372:413   */\n      tag_67\n        /* \"#utility.yul\":406:412   */\n      dup5\n        /* \"#utility.yul\":401:404   */\n      dup3\n        /* \"#utility.yul\":396:399   */\n      dup6\n        /* \"#utility.yul\":372:413   */\n      tag_68\n      jump\t// in\n    tag_67:\n        /* \"#utility.yul\":91:419   */\n      pop\n        /* \"#utility.yul\":7:419   */\n      swap4\n      swap3\n      pop\n      pop\n      pop\n      jump\t// out\n        /* \"#utility.yul\":425:564   */\n    tag_69:\n        /* \"#utility.yul\":471:476   */\n      0x00\n        /* \"#utility.yul\":509:515   */\n      dup2\n        /* \"#utility.yul\":496:516   */\n      calldataload\n        /* \"#utility.yul\":487:516   */\n      swap1\n      pop\n        /* \"#utility.yul\":525:558   */\n      tag_71\n        /* \"#utility.yul\":552:557   */\n      dup2\n        /* \"#utility.yul\":525:558   */\n      tag_72\n      jump\t// in\n    tag_71:\n        /* \"#utility.yul\":425:564   */\n      swap3\n      swap2\n      pop\n      pop\n      jump\t// out\n        /* \"#utility.yul\":584:924   */\n    tag_73:\n        /* \"#utility.yul\":640:645   */\n      0x00\n        /* \"#utility.yul\":689:692   */\n      dup3\n        /* \"#utility.yul\":682:686   */\n      0x1f\n        /* \"#utility.yul\":674:680   */\n      dup4\n        /* \"#utility.yul\":670:687   */\n      add\n        /* \"#utility.yul\":666:693   */\n      slt\n        /* \"#utility.yul\":656:778   */\n      tag_75\n      jumpi\n        /* \"#utility.yul\":697:776   */\n      tag_76\n      tag_77\n      jump\t// in\n    tag_76:\n        /* \"#utility.yul\":656:778   */\n    tag_75:\n        /* \"#utility.yul\":814:820   */\n      dup2\n        /* \"#utility.yul\":801:821   */\n      calldataload\n        /* \"#utility.yul\":839:918   */\n      tag_78\n        /* \"#utility.yul\":914:917   */\n      dup5\n        /* \"#utility.yul\":906:912   */\n      dup3\n        /* \"#utility.yul\":899:903   */\n      0x20\n        /* \"#utility.yul\":891:897   */\n      dup7\n        /* \"#utility.yul\":887:904   */\n      add\n        /* \"#utility.yul\":839:918   */\n      tag_58\n      jump\t// in\n    tag_78:\n        /* \"#utility.yul\":830:918   */\n      swap2\n      pop\n        /* \"#utility.yul\":646:924   */\n      pop\n        /* \"#utility.yul\":584:924   */\n      swap3\n      swap2\n      pop\n      pop\n      jump\t// out\n        /* \"#utility.yul\":930:1069   */\n    tag_79:\n        /* \"#utility.yul\":976:981   */\n      0x00\n        /* \"#utility.yul\":1014:1020   */\n      dup2\n        /* \"#utility.yul\":1001:1021   */\n      calldataload\n        /* \"#utility.yul\":992:1021   */\n      swap1\n      pop\n        /* \"#utility.yul\":1030:1063   */\n      tag_81\n        /* \"#utility.yul\":1057:1062   */\n      dup2\n        /* \"#utility.yul\":1030:1063   */\n      tag_82\n      jump\t// in\n    tag_81:\n        /* \"#utility.yul\":930:1069   */\n      swap3\n      swap2\n      pop\n      pop\n      jump\t// out\n        /* \"#utility.yul\":1075:1694   */\n    tag_13:\n        /* \"#utility.yul\":1152:1158   */\n      0x00\n        /* \"#utility.yul\":1160:1166   */\n      dup1\n        /* \"#utility.yul\":1168:1174   */\n      0x00\n        /* \"#utility.yul\":1217:1219   */\n      0x60\n        /* \"#utility.yul\":1205:1214   */\n      dup5\n        /* \"#utility.yul\":1196:1203   */\n      dup7\n        /* \"#utility.yul\":1192:1215   */\n      sub\n        /* \"#utility.yul\":1188:1220   */\n      slt\n        /* \"#utility.yul\":1185:1304   */\n      iszero\n      tag_84\n      jumpi\n        /* \"#utility.yul\":1223:1302   */\n      tag_85\n      tag_86\n      jump\t// in\n    tag_85:\n        /* \"#utility.yul\":1185:1304   */\n    tag_84:\n        /* \"#utility.yul\":1343:1344   */\n      0x00\n        /* \"#utility.yul\":1368:1421   */\n      tag_87\n        /* \"#utility.yul\":1413:1420   */\n      dup7\n        /* \"#utility.yul\":1404:1410   */\n      dup3\n        /* \"#utility.yul\":1393:1402   */\n      dup8\n        /* \"#utility.yul\":1389:1411   */\n      add\n        /* \"#utility.yul\":1368:1421   */\n      tag_69\n      jump\t// in\n    tag_87:\n        /* \"#utility.yul\":1358:1421   */\n      swap4\n      pop\n        /* \"#utility.yul\":1314:1431   */\n      pop\n        /* \"#utility.yul\":1470:1472   */\n      0x20\n        /* \"#utility.yul\":1496:1549   */\n      tag_88\n        /* \"#utility.yul\":1541:1548   */\n      dup7\n        /* \"#utility.yul\":1532:1538   */\n      dup3\n        /* \"#utility.yul\":1521:1530   */\n      dup8\n        /* \"#utility.yul\":1517:1539   */\n      add\n        /* \"#utility.yul\":1496:1549   */\n      tag_69\n      jump\t// in\n    tag_88:\n        /* \"#utility.yul\":1486:1549   */\n      swap3\n      pop\n        /* \"#utility.yul\":1441:1559   */\n      pop\n        /* \"#utility.yul\":1598:1600   */\n      0x40\n        /* \"#utility.yul\":1624:1677   */\n      tag_89\n        /* \"#utility.yul\":1669:1676   */\n      dup7\n        /* \"#utility.yul\":1660:1666   */\n      dup3\n        /* \"#utility.yul\":1649:1658   */\n      dup8\n        /* \"#utility.yul\":1645:1667   */\n      add\n        /* \"#utility.yul\":1624:1677   */\n      tag_79\n      jump\t// in\n    tag_89:\n        /* \"#utility.yul\":1614:1677   */\n      swap2\n      pop\n        /* \"#utility.yul\":1569:1687   */\n      pop\n        /* \"#utility.yul\":1075:1694   */\n      swap3\n      pop\n      swap3\n      pop\n      swap3\n      jump\t// out\n        /* \"#utility.yul\":1700:2209   */\n    tag_9:\n        /* \"#utility.yul\":1769:1775   */\n      0x00\n        /* \"#utility.yul\":1818:1820   */\n      0x20\n        /* \"#utility.yul\":1806:1815   */\n      dup3\n        /* \"#utility.yul\":1797:1804   */\n      dup5\n        /* \"#utility.yul\":1793:1816   */\n      sub\n        /* \"#utility.yul\":1789:1821   */\n      slt\n        /* \"#utility.yul\":1786:1905   */\n      iszero\n      tag_91\n      jumpi\n        /* \"#utility.yul\":1824:1903   */\n      tag_92\n      tag_86\n      jump\t// in\n    tag_92:\n        /* \"#utility.yul\":1786:1905   */\n    tag_91:\n        /* \"#utility.yul\":1972:1973   */\n      0x00\n        /* \"#utility.yul\":1961:1970   */\n      dup3\n        /* \"#utility.yul\":1957:1974   */\n      add\n        /* \"#utility.yul\":1944:1975   */\n      calldataload\n        /* \"#utility.yul\":2002:2020   */\n      0xffffffffffffffff\n        /* \"#utility.yul\":1994:2000   */\n      dup2\n        /* \"#utility.yul\":1991:2021   */\n      gt\n        /* \"#utility.yul\":1988:2105   */\n      iszero\n      tag_93\n      jumpi\n        /* \"#utility.yul\":2024:2103   */\n      tag_94\n      tag_95\n      jump\t// in\n    tag_94:\n        /* \"#utility.yul\":1988:2105   */\n    tag_93:\n        /* \"#utility.yul\":2129:2192   */\n      tag_96\n        /* \"#utility.yul\":2184:2191   */\n      dup5\n        /* \"#utility.yul\":2175:2181   */\n      dup3\n        /* \"#utility.yul\":2164:2173   */\n      dup6\n        /* \"#utility.yul\":2160:2182   */\n      add\n        /* \"#utility.yul\":2129:2192   */\n      tag_73\n      jump\t// in\n    tag_96:\n        /* \"#utility.yul\":2119:2192   */\n      swap2\n      pop\n        /* \"#utility.yul\":1915:2202   */\n      pop\n        /* \"#utility.yul\":1700:2209   */\n      swap3\n      swap2\n      pop\n      pop\n      jump\t// out\n        /* \"#utility.yul\":2215:2689   */\n    tag_20:\n        /* \"#utility.yul\":2283:2289   */\n      0x00\n        /* \"#utility.yul\":2291:2297   */\n      dup1\n        /* \"#utility.yul\":2340:2342   */\n      0x40\n        /* \"#utility.yul\":2328:2337   */\n      dup4\n        /* \"#utility.yul\":2319:2326   */\n      dup6\n        /* \"#utility.yul\":2315:2338   */\n      sub\n        /* \"#utility.yul\":2311:2343   */\n      slt\n        /* \"#utility.yul\":2308:2427   */\n      iszero\n      tag_98\n      jumpi\n        /* \"#utility.yul\":2346:2425   */\n      tag_99\n      tag_86\n      jump\t// in\n    tag_99:\n        /* \"#utility.yul\":2308:2427   */\n    tag_98:\n        /* \"#utility.yul\":2466:2467   */\n      0x00\n        /* \"#utility.yul\":2491:2544   */\n      tag_100\n        /* \"#utility.yul\":2536:2543   */\n      dup6\n        /* \"#utility.yul\":2527:2533   */\n      dup3\n        /* \"#utility.yul\":2516:2525   */\n      dup7\n        /* \"#utility.yul\":2512:2534   */\n      add\n        /* \"#utility.yul\":2491:2544   */\n      tag_79\n      jump\t// in\n    tag_100:\n        /* \"#utility.yul\":2481:2544   */\n      swap3\n      pop\n        /* \"#utility.yul\":2437:2554   */\n      pop\n        /* \"#utility.yul\":2593:2595   */\n      0x20\n        /* \"#utility.yul\":2619:2672   */\n      tag_101\n        /* \"#utility.yul\":2664:2671   */\n      dup6\n        /* \"#utility.yul\":2655:2661   */\n      dup3\n        /* \"#utility.yul\":2644:2653   */\n      dup7\n        /* \"#utility.yul\":2640:2662   */\n      add\n        /* \"#utility.yul\":2619:2672   */\n      tag_79\n      jump\t// in\n    tag_101:\n        /* \"#utility.yul\":2609:2672   */\n      swap2\n      pop\n        /* \"#utility.yul\":2564:2682   */\n      pop\n        /* \"#utility.yul\":2215:2689   */\n      swap3\n      pop\n      swap3\n      swap1\n      pop\n      jump\t// out\n        /* \"#utility.yul\":2695:3059   */\n    tag_102:\n        /* \"#utility.yul\":2783:2786   */\n      0x00\n        /* \"#utility.yul\":2811:2850   */\n      tag_104\n        /* \"#utility.yul\":2844:2849   */\n      dup3\n        /* \"#utility.yul\":2811:2850   */\n      tag_105\n      jump\t// in\n    tag_104:\n        /* \"#utility.yul\":2866:2937   */\n      tag_106\n        /* \"#utility.yul\":2930:2936   */\n      dup2\n        /* \"#utility.yul\":2925:2928   */\n      dup6\n        /* \"#utility.yul\":2866:2937   */\n      tag_107\n      jump\t// in\n    tag_106:\n        /* \"#utility.yul\":2859:2937   */\n      swap4\n      pop\n        /* \"#utility.yul\":2946:2998   */\n      tag_108\n        /* \"#utility.yul\":2991:2997   */\n      dup2\n        /* \"#utility.yul\":2986:2989   */\n      dup6\n        /* \"#utility.yul\":2979:2983   */\n      0x20\n        /* \"#utility.yul\":2972:2977   */\n      dup7\n        /* \"#utility.yul\":2968:2984   */\n      add\n        /* \"#utility.yul\":2946:2998   */\n      tag_109\n      jump\t// in\n    tag_108:\n        /* \"#utility.yul\":3023:3052   */\n      tag_110\n        /* \"#utility.yul\":3045:3051   */\n      dup2\n        /* \"#utility.yul\":3023:3052   */\n      tag_111\n      jump\t// in\n    tag_110:\n        /* \"#utility.yul\":3018:3021   */\n      dup5\n        /* \"#utility.yul\":3014:3053   */\n      add\n        /* \"#utility.yul\":3007:3053   */\n      swap2\n      pop\n        /* \"#utility.yul\":2787:3059   */\n      pop\n        /* \"#utility.yul\":2695:3059   */\n      swap3\n      swap2\n      pop\n      pop\n      jump\t// out\n        /* \"#utility.yul\":3065:3183   */\n    tag_112:\n        /* \"#utility.yul\":3152:3176   */\n      tag_114\n        /* \"#utility.yul\":3170:3175   */\n      dup2\n        /* \"#utility.yul\":3152:3176   */\n      tag_115\n      jump\t// in\n    tag_114:\n        /* \"#utility.yul\":3147:3150   */\n      dup3\n        /* \"#utility.yul\":3140:3177   */\n      mstore\n        /* \"#utility.yul\":3065:3183   */\n      pop\n      pop\n      jump\t// out\n        /* \"#utility.yul\":3189:3502   */\n    tag_27:\n        /* \"#utility.yul\":3302:3306   */\n      0x00\n        /* \"#utility.yul\":3340:3342   */\n      0x20\n        /* \"#utility.yul\":3329:3338   */\n      dup3\n        /* \"#utility.yul\":3325:3343   */\n      add\n        /* \"#utility.yul\":3317:3343   */\n      swap1\n      pop\n        /* \"#utility.yul\":3389:3398   */\n      dup2\n        /* \"#utility.yul\":3383:3387   */\n      dup2\n        /* \"#utility.yul\":3379:3399   */\n      sub\n        /* \"#utility.yul\":3375:3376   */\n      0x00\n        /* \"#utility.yul\":3364:3373   */\n      dup4\n        /* \"#utility.yul\":3360:3377   */\n      add\n        /* \"#utility.yul\":3353:3400   */\n      mstore\n        /* \"#utility.yul\":3417:3495   */\n      tag_117\n        /* \"#utility.yul\":3490:3494   */\n      dup2\n        /* \"#utility.yul\":3481:3487   */\n      dup5\n        /* \"#utility.yul\":3417:3495   */\n      tag_102\n      jump\t// in\n    tag_117:\n        /* \"#utility.yul\":3409:3495   */\n      swap1\n      pop\n        /* \"#utility.yul\":3189:3502   */\n      swap3\n      swap2\n      pop\n      pop\n      jump\t// out\n        /* \"#utility.yul\":3508:3730   */\n    tag_16:\n        /* \"#utility.yul\":3601:3605   */\n      0x00\n        /* \"#utility.yul\":3639:3641   */\n      0x20\n        /* \"#utility.yul\":3628:3637   */\n      dup3\n        /* \"#utility.yul\":3624:3642   */\n      add\n        /* \"#utility.yul\":3616:3642   */\n      swap1\n      pop\n        /* \"#utility.yul\":3652:3723   */\n      tag_119\n        /* \"#utility.yul\":3720:3721   */\n      0x00\n        /* \"#utility.yul\":3709:3718   */\n      dup4\n        /* \"#utility.yul\":3705:3722   */\n      add\n        /* \"#utility.yul\":3696:3702   */\n      dup5\n        /* \"#utility.yul\":3652:3723   */\n      tag_112\n      jump\t// in\n    tag_119:\n        /* \"#utility.yul\":3508:3730   */\n      swap3\n      swap2\n      pop\n      pop\n      jump\t// out\n        /* \"#utility.yul\":3736:3865   */\n    tag_63:\n        /* \"#utility.yul\":3770:3776   */\n      0x00\n        /* \"#utility.yul\":3797:3817   */\n      tag_121\n      tag_122\n      jump\t// in\n    tag_121:\n        /* \"#utility.yul\":3787:3817   */\n      swap1\n      pop\n        /* \"#utility.yul\":3826:3859   */\n      tag_123\n        /* \"#utility.yul\":3854:3858   */\n      dup3\n        /* \"#utility.yul\":3846:3852   */\n      dup3\n        /* \"#utility.yul\":3826:3859   */\n      tag_124\n      jump\t// in\n    tag_123:\n        /* \"#utility.yul\":3736:3865   */\n      swap2\n      swap1\n      pop\n      jump\t// out\n        /* \"#utility.yul\":3871:3946   */\n    tag_122:\n        /* \"#utility.yul\":3904:3910   */\n      0x00\n        /* \"#utility.yul\":3937:3939   */\n      0x40\n        /* \"#utility.yul\":3931:3940   */\n      mload\n        /* \"#utility.yul\":3921:3940   */\n      swap1\n      pop\n        /* \"#utility.yul\":3871:3946   */\n      swap1\n      jump\t// out\n        /* \"#utility.yul\":3952:4260   */\n    tag_62:\n        /* \"#utility.yul\":4014:4018   */\n      0x00\n        /* \"#utility.yul\":4104:4122   */\n      0xffffffffffffffff\n        /* \"#utility.yul\":4096:4102   */\n      dup3\n        /* \"#utility.yul\":4093:4123   */\n      gt\n        /* \"#utility.yul\":4090:4146   */\n      iszero\n      tag_127\n      jumpi\n        /* \"#utility.yul\":4126:4144   */\n      tag_128\n      tag_129\n      jump\t// in\n    tag_128:\n        /* \"#utility.yul\":4090:4146   */\n    tag_127:\n        /* \"#utility.yul\":4164:4193   */\n      tag_130\n        /* \"#utility.yul\":4186:4192   */\n      dup3\n        /* \"#utility.yul\":4164:4193   */\n      tag_111\n      jump\t// in\n    tag_130:\n        /* \"#utility.yul\":4156:4193   */\n      swap1\n      pop\n        /* \"#utility.yul\":4248:4252   */\n      0x20\n        /* \"#utility.yul\":4242:4246   */\n      dup2\n        /* \"#utility.yul\":4238:4253   */\n      add\n        /* \"#utility.yul\":4230:4253   */\n      swap1\n      pop\n        /* \"#utility.yul\":3952:4260   */\n      swap2\n      swap1\n      pop\n      jump\t// out\n        /* \"#utility.yul\":4266:4365   */\n    tag_105:\n        /* \"#utility.yul\":4318:4324   */\n      0x00\n        /* \"#utility.yul\":4352:4357   */\n      dup2\n        /* \"#utility.yul\":4346:4358   */\n      mload\n        /* \"#utility.yul\":4336:4358   */\n      swap1\n      pop\n        /* \"#utility.yul\":4266:4365   */\n      swap2\n      swap1\n      pop\n      jump\t// out\n        /* \"#utility.yul\":4371:4540   */\n    tag_107:\n        /* \"#utility.yul\":4455:4466   */\n      0x00\n        /* \"#utility.yul\":4489:4495   */\n      dup3\n        /* \"#utility.yul\":4484:4487   */\n      dup3\n        /* \"#utility.yul\":4477:4496   */\n      mstore\n        /* \"#utility.yul\":4529:4533   */\n      0x20\n        /* \"#utility.yul\":4524:4527   */\n      dup3\n        /* \"#utility.yul\":4520:4534   */\n      add\n        /* \"#utility.yul\":4505:4534   */\n      swap1\n      pop\n        /* \"#utility.yul\":4371:4540   */\n      swap3\n      swap2\n      pop\n      pop\n      jump\t// out\n        /* \"#utility.yul\":4546:4851   */\n    tag_39:\n        /* \"#utility.yul\":4586:4589   */\n      0x00\n        /* \"#utility.yul\":4605:4625   */\n      tag_134\n        /* \"#utility.yul\":4623:4624   */\n      dup3\n        /* \"#utility.yul\":4605:4625   */\n      tag_115\n      jump\t// in\n    tag_134:\n        /* \"#utility.yul\":4600:4625   */\n      swap2\n      pop\n        /* \"#utility.yul\":4639:4659   */\n      tag_135\n        /* \"#utility.yul\":4657:4658   */\n      dup4\n        /* \"#utility.yul\":4639:4659   */\n      tag_115\n      jump\t// in\n    tag_135:\n        /* \"#utility.yul\":4634:4659   */\n      swap3\n      pop\n        /* \"#utility.yul\":4793:4794   */\n      dup3\n        /* \"#utility.yul\":4725:4791   */\n      0xffffffffffffffffffffffffffffffffffffffffffffffffffffffffffffffff\n        /* \"#utility.yul\":4721:4795   */\n      sub\n        /* \"#utility.yul\":4718:4719   */\n      dup3\n        /* \"#utility.yul\":4715:4796   */\n      gt\n        /* \"#utility.yul\":4712:4819   */\n      iszero\n      tag_136\n      jumpi\n        /* \"#utility.yul\":4799:4817   */\n      tag_137\n      tag_138\n      jump\t// in\n    tag_137:\n        /* \"#utility.yul\":4712:4819   */\n    tag_136:\n        /* \"#utility.yul\":4843:4844   */\n      dup3\n        /* \"#utility.yul\":4840:4841   */\n      dup3\n        /* \"#utility.yul\":4836:4845   */\n      add\n        /* \"#utility.yul\":4829:4845   */\n      swap1\n      pop\n        /* \"#utility.yul\":4546:4851   */\n      swap3\n      swap2\n      pop\n      pop\n      jump\t// out\n        /* \"#utility.yul\":4857:4953   */\n    tag_139:\n        /* \"#utility.yul\":4894:4901   */\n      0x00\n        /* \"#utility.yul\":4923:4947   */\n      tag_141\n        /* \"#utility.yul\":4941:4946   */\n      dup3\n        /* \"#utility.yul\":4923:4947   */\n      tag_142\n      jump\t// in\n    tag_141:\n        /* \"#utility.yul\":4912:4947   */\n      swap1\n      pop\n        /* \"#utility.yul\":4857:4953   */\n      swap2\n      swap1\n      pop\n      jump\t// out\n        /* \"#utility.yul\":4959:5085   */\n    tag_142:\n        /* \"#utility.yul\":4996:5003   */\n      0x00\n        /* \"#utility.yul\":5036:5078   */\n      0xffffffffffffffffffffffffffffffffffffffff\n        /* \"#utility.yul\":5029:5034   */\n      dup3\n        /* \"#utility.yul\":5025:5079   */\n      and\n        /* \"#utility.yul\":5014:5079   */\n      swap1\n      pop\n        /* \"#utility.yul\":4959:5085   */\n      swap2\n      swap1\n      pop\n      jump\t// out\n        /* \"#utility.yul\":5091:5168   */\n    tag_115:\n        /* \"#utility.yul\":5128:5135   */\n      0x00\n        /* \"#utility.yul\":5157:5162   */\n      dup2\n        /* \"#utility.yul\":5146:5162   */\n      swap1\n      pop\n        /* \"#utility.yul\":5091:5168   */\n      swap2\n      swap1\n      pop\n      jump\t// out\n        /* \"#utility.yul\":5174:5328   */\n    tag_68:\n        /* \"#utility.yul\":5258:5264   */\n      dup3\n        /* \"#utility.yul\":5253:5256   */\n      dup2\n        /* \"#utility.yul\":5248:5251   */\n      dup4\n        /* \"#utility.yul\":5235:5265   */\n      calldatacopy\n        /* \"#utility.yul\":5320:5321   */\n      0x00\n        /* \"#utility.yul\":5311:5317   */\n      dup4\n        /* \"#utility.yul\":5306:5309   */\n      dup4\n        /* \"#utility.yul\":5302:5318   */\n      add\n        /* \"#utility.yul\":5295:5322   */\n      mstore\n        /* \"#utility.yul\":5174:5328   */\n      pop\n      pop\n      pop\n      jump\t// out\n        /* \"#utility.yul\":5334:5641   */\n    tag_109:\n        /* \"#utility.yul\":5402:5403   */\n      0x00\n        /* \"#utility.yul\":5412:5525   */\n    tag_147:\n        /* \"#utility.yul\":5426:5432   */\n      dup4\n        /* \"#utility.yul\":5423:5424   */\n      dup2\n        /* \"#utility.yul\":5420:5433   */\n      lt\n        /* \"#utility.yul\":5412:5525   */\n      iszero\n      tag_149\n      jumpi\n        /* \"#utility.yul\":5511:5512   */\n      dup1\n        /* \"#utility.yul\":5506:5509   */\n      dup3\n        /* \"#utility.yul\":5502:5513   */\n      add\n        /* \"#utility.yul\":5496:5514   */\n      mload\n        /* \"#utility.yul\":5492:5493   */\n      dup2\n        /* \"#utility.yul\":5487:5490   */\n      dup5\n        /* \"#utility.yul\":5483:5494   */\n      add\n        /* \"#utility.yul\":5476:5515   */\n      mstore\n        /* \"#utility.yul\":5448:5450   */\n      0x20\n        /* \"#utility.yul\":5445:5446   */\n      dup2\n        /* \"#utility.yul\":5441:5451   */\n      add\n        /* \"#utility.yul\":5436:5451   */\n      swap1\n      pop\n        /* \"#utility.yul\":5412:5525   */\n      jump(tag_147)\n    tag_149:\n        /* \"#utility.yul\":5543:5549   */\n      dup4\n        /* \"#utility.yul\":5540:5541   */\n      dup2\n        /* \"#utility.yul\":5537:5550   */\n      gt\n        /* \"#utility.yul\":5534:5635   */\n      iszero\n      tag_150\n      jumpi\n        /* \"#utility.yul\":5623:5624   */\n      0x00\n        /* \"#utility.yul\":5614:5620   */\n      dup5\n        /* \"#utility.yul\":5609:5612   */\n      dup5\n        /* \"#utility.yul\":5605:5621   */\n      add\n        /* \"#utility.yul\":5598:5625   */\n      mstore\n        /* \"#utility.yul\":5534:5635   */\n    tag_150:\n        /* \"#utility.yul\":5383:5641   */\n      pop\n        /* \"#utility.yul\":5334:5641   */\n      pop\n      pop\n      pop\n      jump\t// out\n        /* \"#utility.yul\":5647:5967   */\n    tag_42:\n        /* \"#utility.yul\":5691:5697   */\n      0x00\n        /* \"#utility.yul\":5728:5729   */\n      0x02\n        /* \"#utility.yul\":5722:5726   */\n      dup3\n        /* \"#utility.yul\":5718:5730   */\n      div\n        /* \"#utility.yul\":5708:5730   */\n      swap1\n      pop\n        /* \"#utility.yul\":5775:5776   */\n      0x01\n        /* \"#utility.yul\":5769:5773   */\n      dup3\n        /* \"#utility.yul\":5765:5777   */\n      and\n        /* \"#utility.yul\":5796:5814   */\n      dup1\n        /* \"#utility.yul\":5786:5867   */\n      tag_152\n      jumpi\n        /* \"#utility.yul\":5852:5856   */\n      0x7f\n        /* \"#utility.yul\":5844:5850   */\n      dup3\n        /* \"#utility.yul\":5840:5857   */\n      and\n        /* \"#utility.yul\":5830:5857   */\n      swap2\n      pop\n        /* \"#utility.yul\":5786:5867   */\n    tag_152:\n        /* \"#utility.yul\":5914:5916   */\n      0x20\n        /* \"#utility.yul\":5906:5912   */\n      dup3\n        /* \"#utility.yul\":5903:5917   */\n      lt\n        /* \"#utility.yul\":5883:5901   */\n      dup2\n        /* \"#utility.yul\":5880:5918   */\n      eq\n        /* \"#utility.yul\":5877:5961   */\n      iszero\n      tag_153\n      jumpi\n        /* \"#utility.yul\":5933:5951   */\n      tag_154\n      tag_155\n      jump\t// in\n    tag_154:\n        /* \"#utility.yul\":5877:5961   */\n    tag_153:\n        /* \"#utility.yul\":5698:5967   */\n      pop\n        /* \"#utility.yul\":5647:5967   */\n      swap2\n      swap1\n      pop\n      jump\t// out\n        /* \"#utility.yul\":5973:6254   */\n    tag_124:\n        /* \"#utility.yul\":6056:6083   */\n      tag_157\n        /* \"#utility.yul\":6078:6082   */\n      dup3\n        /* \"#utility.yul\":6056:6083   */\n      tag_111\n      jump\t// in\n    tag_157:\n        /* \"#utility.yul\":6048:6054   */\n      dup2\n        /* \"#utility.yul\":6044:6084   */\n      add\n        /* \"#utility.yul\":6186:6192   */\n      dup2\n        /* \"#utility.yul\":6174:6184   */\n      dup2\n        /* \"#utility.yul\":6171:6193   */\n      lt\n        /* \"#utility.yul\":6150:6168   */\n      0xffffffffffffffff\n        /* \"#utility.yul\":6138:6148   */\n      dup3\n        /* \"#utility.yul\":6135:6169   */\n      gt\n        /* \"#utility.yul\":6132:6194   */\n      or\n        /* \"#utility.yul\":6129:6217   */\n      iszero\n      tag_158\n      jumpi\n        /* \"#utility.yul\":6197:6215   */\n      tag_159\n      tag_129\n      jump\t// in\n    tag_159:\n        /* \"#utility.yul\":6129:6217   */\n    tag_158:\n        /* \"#utility.yul\":6237:6247   */\n      dup1\n        /* \"#utility.yul\":6233:6235   */\n      0x40\n        /* \"#utility.yul\":6226:6248   */\n      mstore\n        /* \"#utility.yul\":6016:6254   */\n      pop\n        /* \"#utility.yul\":5973:6254   */\n      pop\n      pop\n      jump\t// out\n        /* \"#utility.yul\":6260:6440   */\n    tag_138:\n        /* \"#utility.yul\":6308:6385   */\n      0x4e487b7100000000000000000000000000000000000000000000000000000000\n        /* \"#utility.yul\":6305:6306   */\n      0x00\n        /* \"#utility.yul\":6298:6386   */\n      mstore\n        /* \"#utility.yul\":6405:6409   */\n      0x11\n        /* \"#utility.yul\":6402:6403   */\n      0x04\n        /* \"#utility.yul\":6395:6410   */\n      mstore\n        /* \"#utility.yul\":6429:6433   */\n      0x24\n        /* \"#utility.yul\":6426:6427   */\n      0x00\n        /* \"#utility.yul\":6419:6434   */\n      revert\n        /* \"#utility.yul\":6446:6626   */\n    tag_155:\n        /* \"#utility.yul\":6494:6571   */\n      0x4e487b7100000000000000000000000000000000000000000000000000000000\n        /* \"#utility.yul\":6491:6492   */\n      0x00\n        /* \"#utility.yul\":6484:6572   */\n      mstore\n        /* \"#utility.yul\":6591:6595   */\n      0x22\n        /* \"#utility.yul\":6588:6589   */\n      0x04\n        /* \"#utility.yul\":6581:6596   */\n      mstore\n        /* \"#utility.yul\":6615:6619   */\n      0x24\n        /* \"#utility.yul\":6612:6613   */\n      0x00\n        /* \"#utility.yul\":6605:6620   */\n      revert\n        /* \"#utility.yul\":6632:6812   */\n    tag_34:\n        /* \"#utility.yul\":6680:6757   */\n      0x4e487b7100000000000000000000000000000000000000000000000000000000\n        /* \"#utility.yul\":6677:6678   */\n      0x00\n        /* \"#utility.yul\":6670:6758   */\n      mstore\n        /* \"#utility.yul\":6777:6781   */\n      0x32\n        /* \"#utility.yul\":6774:6775   */\n      0x04\n        /* \"#utility.yul\":6767:6782   */\n      mstore\n        /* \"#utility.yul\":6801:6805   */\n      0x24\n        /* \"#utility.yul\":6798:6799   */\n      0x00\n        /* \"#utility.yul\":6791:6806   */\n      revert\n        /* \"#utility.yul\":6818:6998   */\n    tag_129:\n        /* \"#utility.yul\":6866:6943   */\n      0x4e487b7100000000000000000000000000000000000000000000000000000000\n        /* \"#utility.yul\":6863:6864   */\n      0x00\n        /* \"#utility.yul\":6856:6944   */\n      mstore\n        /* \"#utility.yul\":6963:6967   */\n      0x41\n        /* \"#utility.yul\":6960:6961   */\n      0x04\n        /* \"#utility.yul\":6953:6968   */\n      mstore\n        /* \"#utility.yul\":6987:6991   */\n      0x24\n        /* \"#utility.yul\":6984:6985   */\n      0x00\n        /* \"#utility.yul\":6977:6992   */\n      revert\n        /* \"#utility.yul\":7004:7121   */\n    tag_77:\n        /* \"#utility.yul\":7113:7114   */\n      0x00\n        /* \"#utility.yul\":7110:7111   */\n      dup1\n        /* \"#utility.yul\":7103:7115   */\n      revert\n        /* \"#utility.yul\":7127:7244   */\n    tag_66:\n        /* \"#utility.yul\":7236:7237   */\n      0x00\n        /* \"#utility.yul\":7233:7234   */\n      dup1\n        /* \"#utility.yul\":7226:7238   */\n      revert\n        /* \"#utility.yul\":7250:7367   */\n    tag_95:\n        /* \"#utility.yul\":7359:7360   */\n      0x00\n        /* \"#utility.yul\":7356:7357   */\n      dup1\n        /* \"#utility.yul\":7349:7361   */\n      revert\n        /* \"#utility.yul\":7373:7490   */\n    tag_86:\n        /* \"#utility.yul\":7482:7483   */\n      0x00\n        /* \"#utility.yul\":7479:7480   */\n      dup1\n        /* \"#utility.yul\":7472:7484   */\n      revert\n        /* \"#utility.yul\":7496:7598   */\n    tag_111:\n        /* \"#utility.yul\":7537:7543   */\n      0x00\n        /* \"#utility.yul\":7588:7590   */\n      0x1f\n        /* \"#utility.yul\":7584:7591   */\n      not\n        /* \"#utility.yul\":7579:7581   */\n      0x1f\n        /* \"#utility.yul\":7572:7577   */\n      dup4\n        /* \"#utility.yul\":7568:7582   */\n      add\n        /* \"#utility.yul\":7564:7592   */\n      and\n        /* \"#utility.yul\":7554:7592   */\n      swap1\n      pop\n        /* \"#utility.yul\":7496:7598   */\n      swap2\n      swap1\n      pop\n      jump\t// out\n        /* \"#utility.yul\":7604:7726   */\n    tag_72:\n        /* \"#utility.yul\":7677:7701   */\n      tag_170\n        /* \"#utility.yul\":7695:7700   */\n      dup2\n        /* \"#utility.yul\":7677:7701   */\n      tag_139\n      jump\t// in\n    tag_170:\n        /* \"#utility.yul\":7670:7675   */\n      dup2\n        /* \"#utility.yul\":7667:7702   */\n      eq\n        /* \"#utility.yul\":7657:7720   */\n      tag_171\n      jumpi\n        /* \"#utility.yul\":7716:7717   */\n      0x00\n        /* \"#utility.yul\":7713:7714   */\n      dup1\n        /* \"#utility.yul\":7706:7718   */\n      revert\n        /* \"#utility.yul\":7657:7720   */\n    tag_171:\n        /* \"#utility.yul\":7604:7726   */\n      pop\n      jump\t// out\n        /* \"#utility.yul\":7732:7854   */\n    tag_82:\n        /* \"#utility.yul\":7805:7829   */\n      tag_173\n        /* \"#utility.yul\":7823:7828   */\n      dup2\n        /* \"#utility.yul\":7805:7829   */\n      tag_115\n      jump\t// in\n    tag_173:\n        /* \"#utility.yul\":7798:7803   */\n      dup2\n        /* \"#utility.yul\":7795:7830   */\n      eq\n        /* \"#utility.yul\":7785:7848   */\n      tag_174\n      jumpi\n        /* \"#utility.yul\":7844:7845   */\n      0x00\n        /* \"#utility.yul\":7841:7842   */\n      dup1\n        /* \"#utility.yul\":7834:7846   */\n      revert\n        /* \"#utility.yul\":7785:7848   */\n    tag_174:\n        /* \"#utility.yul\":7732:7854   */\n      pop\n      jump\t// out\n\n    auxdata: 0xa2646970667358221220cb88424d2fbb0cdf3770a01c1e525badf7655fd31f856b323f086b029ff387ca64736f6c63430008070033\n}\n",
				"bytecode": {
					"linkReferences": {},
					"object": "60806040526040518060400160405280600781526020017f506f6c79676f6e000000000000000000000000000000000000000000000000008152506000908051906020019061004f929190610062565b5034801561005c57600080fd5b50610166565b82805461006e90610105565b90600052602060002090601f01602090048101928261009057600085556100d7565b82601f106100a957805160ff19168380011785556100d7565b828001600101855582156100d7579182015b828111156100d65782518255916020019190600101906100bb565b5b5090506100e491906100e8565b5090565b5b808211156101015760008160009055506001016100e9565b5090565b6000600282049050600182168061011d57607f821691505b6020821081141561013157610130610137565b5b50919050565b7f4e487b7100000000000000000000000000000000000000000000000000000000600052602260045260246000fd5b6107de806101756000396000f3fe60806040526004361061003f5760003560e01c80635353a2d81461004457806365efd0f51461006d578063a990a7a71461009d578063c6ea59b9146100da575b600080fd5b34801561005057600080fd5b5061006b600480360381019061006691906103e2565b610105565b005b6100876004803603810190610082919061038f565b61011f565b60405161009491906104d5565b60405180910390f35b3480156100a957600080fd5b506100c460048036038101906100bf919061042b565b61016a565b6040516100d191906104d5565b60405180910390f35b3480156100e657600080fd5b506100ef6101c0565b6040516100fc91906104b3565b60405180910390f35b806000908051906020019061011b929190610252565b5050565b600060608281600081518110610138576101376106f7565b5b60200260200101818152505080600081518110610158576101576106f7565b5b60200260200101519150509392505050565b6000806040518060400160405280600181526020017f56000000000000000000000000000000000000000000000000000000000000008152509050600083856101b39190610562565b9050809250505092915050565b6060600080546101cf90610636565b80601f01602080910402602001604051908101604052809291908181526020018280546101fb90610636565b80156102485780601f1061021d57610100808354040283529160200191610248565b820191906000526020600020905b81548152906001019060200180831161022b57829003601f168201915b5050505050905090565b82805461025e90610636565b90600052602060002090601f01602090048101928261028057600085556102c7565b82601f1061029957805160ff19168380011785556102c7565b828001600101855582156102c7579182015b828111156102c65782518255916020019190600101906102ab565b5b5090506102d491906102d8565b5090565b5b808211156102f15760008160009055506001016102d9565b5090565b600061030861030384610515565b6104f0565b9050828152602081018484840111156103245761032361075a565b5b61032f8482856105f4565b509392505050565b6000813590506103468161077a565b92915050565b600082601f83011261036157610360610755565b5b81356103718482602086016102f5565b91505092915050565b60008135905061038981610791565b92915050565b6000806000606084860312156103a8576103a7610764565b5b60006103b686828701610337565b93505060206103c786828701610337565b92505060406103d88682870161037a565b9150509250925092565b6000602082840312156103f8576103f7610764565b5b600082013567ffffffffffffffff8111156104165761041561075f565b5b6104228482850161034c565b91505092915050565b6000806040838503121561044257610441610764565b5b60006104508582860161037a565b92505060206104618582860161037a565b9150509250929050565b600061047682610546565b6104808185610551565b9350610490818560208601610603565b61049981610769565b840191505092915050565b6104ad816105ea565b82525050565b600060208201905081810360008301526104cd818461046b565b905092915050565b60006020820190506104ea60008301846104a4565b92915050565b60006104fa61050b565b90506105068282610668565b919050565b6000604051905090565b600067ffffffffffffffff8211156105305761052f610726565b5b61053982610769565b9050602081019050919050565b600081519050919050565b600082825260208201905092915050565b600061056d826105ea565b9150610578836105ea565b9250827fffffffffffffffffffffffffffffffffffffffffffffffffffffffffffffffff038211156105ad576105ac610699565b5b828201905092915050565b60006105c3826105ca565b9050919050565b600073ffffffffffffffffffffffffffffffffffffffff82169050919050565b6000819050919050565b82818337600083830152505050565b60005b83811015610621578082015181840152602081019050610606565b83811115610630576000848401525b50505050565b6000600282049050600182168061064e57607f821691505b60208210811415610662576106616106c8565b5b50919050565b61067182610769565b810181811067ffffffffffffffff821117156106905761068f610726565b5b80604052505050565b7f4e487b7100000000000000000000000000000000000000000000000000000000600052601160045260246000fd5b7f4e487b7100000000000000000000000000000000000000000000000000000000600052602260045260246000fd5b7f4e487b7100000000000000000000000000000000000000000000000000000000600052603260045260246000fd5b7f4e487b7100000000000000000000000000000000000000000000000000000000600052604160045260246000fd5b600080fd5b600080fd5b600080fd5b600080fd5b6000601f19601f8301169050919050565b610783816105b8565b811461078e57600080fd5b50565b61079a816105ea565b81146107a557600080fd5b5056fea2646970667358221220cb88424d2fbb0cdf3770a01c1e525badf7655fd31f856b323f086b029ff387ca64736f6c63430008070033",
					"opcodes": "PUSH1 0x80 PUSH1 0x40 MSTORE PUSH1 0x40 MLOAD DUP1 PUSH1 0x40 ADD PUSH1 0x40 MSTORE DUP1 PUSH1 0x7 DUP2 MSTORE PUSH1 0x20 ADD PUSH32 0x506F6C79676F6E00000000000000000000000000000000000000000000000000 DUP2 MSTORE POP PUSH1 0x0 SWAP1 DUP1 MLOAD SWAP1 PUSH1 0x20 ADD SWAP1 PUSH2 0x4F SWAP3 SWAP2 SWAP1 PUSH2 0x62 JUMP JUMPDEST POP CALLVALUE DUP1 ISZERO PUSH2 0x5C JUMPI PUSH1 0x0 DUP1 REVERT JUMPDEST POP PUSH2 0x166 JUMP JUMPDEST DUP3 DUP1 SLOAD PUSH2 0x6E SWAP1 PUSH2 0x105 JUMP JUMPDEST SWAP1 PUSH1 0x0 MSTORE PUSH1 0x20 PUSH1 0x0 KECCAK256 SWAP1 PUSH1 0x1F ADD PUSH1 0x20 SWAP1 DIV DUP2 ADD SWAP3 DUP3 PUSH2 0x90 JUMPI PUSH1 0x0 DUP6 SSTORE PUSH2 0xD7 JUMP JUMPDEST DUP3 PUSH1 0x1F LT PUSH2 0xA9 JUMPI DUP1 MLOAD PUSH1 0xFF NOT AND DUP4 DUP1 ADD OR DUP6 SSTORE PUSH2 0xD7 JUMP JUMPDEST DUP3 DUP1 ADD PUSH1 0x1 ADD DUP6 SSTORE DUP3 ISZERO PUSH2 0xD7 JUMPI SWAP2 DUP3 ADD JUMPDEST DUP3 DUP2 GT ISZERO PUSH2 0xD6 JUMPI DUP3 MLOAD DUP3 SSTORE SWAP2 PUSH1 0x20 ADD SWAP2 SWAP1 PUSH1 0x1 ADD SWAP1 PUSH2 0xBB JUMP JUMPDEST JUMPDEST POP SWAP1 POP PUSH2 0xE4 SWAP2 SWAP1 PUSH2 0xE8 JUMP JUMPDEST POP SWAP1 JUMP JUMPDEST JUMPDEST DUP1 DUP3 GT ISZERO PUSH2 0x101 JUMPI PUSH1 0x0 DUP2 PUSH1 0x0 SWAP1 SSTORE POP PUSH1 0x1 ADD PUSH2 0xE9 JUMP JUMPDEST POP SWAP1 JUMP JUMPDEST PUSH1 0x0 PUSH1 0x2 DUP3 DIV SWAP1 POP PUSH1 0x1 DUP3 AND DUP1 PUSH2 0x11D JUMPI PUSH1 0x7F DUP3 AND SWAP2 POP JUMPDEST PUSH1 0x20 DUP3 LT DUP2 EQ ISZERO PUSH2 0x131 JUMPI PUSH2 0x130 PUSH2 0x137 JUMP JUMPDEST JUMPDEST POP SWAP2 SWAP1 POP JUMP JUMPDEST PUSH32 0x4E487B7100000000000000000000000000000000000000000000000000000000 PUSH1 0x0 MSTORE PUSH1 0x22 PUSH1 0x4 MSTORE PUSH1 0x24 PUSH1 0x0 REVERT JUMPDEST PUSH2 0x7DE DUP1 PUSH2 0x175 PUSH1 0x0 CODECOPY PUSH1 0x0 RETURN INVALID PUSH1 0x80 PUSH1 0x40 MSTORE PUSH1 0x4 CALLDATASIZE LT PUSH2 0x3F JUMPI PUSH1 0x0 CALLDATALOAD PUSH1 0xE0 SHR DUP1 PUSH4 0x5353A2D8 EQ PUSH2 0x44 JUMPI DUP1 PUSH4 0x65EFD0F5 EQ PUSH2 0x6D JUMPI DUP1 PUSH4 0xA990A7A7 EQ PUSH2 0x9D JUMPI DUP1 PUSH4 0xC6EA59B9 EQ PUSH2 0xDA JUMPI JUMPDEST PUSH1 0x0 DUP1 REVERT JUMPDEST CALLVALUE DUP1 ISZERO PUSH2 0x50 JUMPI PUSH1 0x0 DUP1 REVERT JUMPDEST POP PUSH2 0x6B PUSH1 0x4 DUP1 CALLDATASIZE SUB DUP2 ADD SWAP1 PUSH2 0x66 SWAP2 SWAP1 PUSH2 0x3E2 JUMP JUMPDEST PUSH2 0x105 JUMP JUMPDEST STOP JUMPDEST PUSH2 0x87 PUSH1 0x4 DUP1 CALLDATASIZE SUB DUP2 ADD SWAP1 PUSH2 0x82 SWAP2 SWAP1 PUSH2 0x38F JUMP JUMPDEST PUSH2 0x11F JUMP JUMPDEST PUSH1 0x40 MLOAD PUSH2 0x94 SWAP2 SWAP1 PUSH2 0x4D5 JUMP JUMPDEST PUSH1 0x40 MLOAD DUP1 SWAP2 SUB SWAP1 RETURN JUMPDEST CALLVALUE DUP1 ISZERO PUSH2 0xA9 JUMPI PUSH1 0x0 DUP1 REVERT JUMPDEST POP PUSH2 0xC4 PUSH1 0x4 DUP1 CALLDATASIZE SUB DUP2 ADD SWAP1 PUSH2 0xBF SWAP2 SWAP1 PUSH2 0x42B JUMP JUMPDEST PUSH2 0x16A JUMP JUMPDEST PUSH1 0x40 MLOAD PUSH2 0xD1 SWAP2 SWAP1 PUSH2 0x4D5 JUMP JUMPDEST PUSH1 0x40 MLOAD DUP1 SWAP2 SUB SWAP1 RETURN JUMPDEST CALLVALUE DUP1 ISZERO PUSH2 0xE6 JUMPI PUSH1 0x0 DUP1 REVERT JUMPDEST POP PUSH2 0xEF PUSH2 0x1C0 JUMP JUMPDEST PUSH1 0x40 MLOAD PUSH2 0xFC SWAP2 SWAP1 PUSH2 0x4B3 JUMP JUMPDEST PUSH1 0x40 MLOAD DUP1 SWAP2 SUB SWAP1 RETURN JUMPDEST DUP1 PUSH1 0x0 SWAP1 DUP1 MLOAD SWAP1 PUSH1 0x20 ADD SWAP1 PUSH2 0x11B SWAP3 SWAP2 SWAP1 PUSH2 0x252 JUMP JUMPDEST POP POP JUMP JUMPDEST PUSH1 0x0 PUSH1 0x60 DUP3 DUP2 PUSH1 0x0 DUP2 MLOAD DUP2 LT PUSH2 0x138 JUMPI PUSH2 0x137 PUSH2 0x6F7 JUMP JUMPDEST JUMPDEST PUSH1 0x20 MUL PUSH1 0x20 ADD ADD DUP2 DUP2 MSTORE POP POP DUP1 PUSH1 0x0 DUP2 MLOAD DUP2 LT PUSH2 0x158 JUMPI PUSH2 0x157 PUSH2 0x6F7 JUMP JUMPDEST JUMPDEST PUSH1 0x20 MUL PUSH1 0x20 ADD ADD MLOAD SWAP2 POP POP SWAP4 SWAP3 POP POP POP JUMP JUMPDEST PUSH1 0x0 DUP1 PUSH1 0x40 MLOAD DUP1 PUSH1 0x40 ADD PUSH1 0x40 MSTORE DUP1 PUSH1 0x1 DUP2 MSTORE PUSH1 0x20 ADD PUSH32 0x5600000000000000000000000000000000000000000000000000000000000000 DUP2 MSTORE POP SWAP1 POP PUSH1 0x0 DUP4 DUP6 PUSH2 0x1B3 SWAP2 SWAP1 PUSH2 0x562 JUMP JUMPDEST SWAP1 POP DUP1 SWAP3 POP POP POP SWAP3 SWAP2 POP POP JUMP JUMPDEST PUSH1 0x60 PUSH1 0x0 DUP1 SLOAD PUSH2 0x1CF SWAP1 PUSH2 0x636 JUMP JUMPDEST DUP1 PUSH1 0x1F ADD PUSH1 0x20 DUP1 SWAP2 DIV MUL PUSH1 0x20 ADD PUSH1 0x40 MLOAD SWAP1 DUP2 ADD PUSH1 0x40 MSTORE DUP1 SWAP3 SWAP2 SWAP1 DUP2 DUP2 MSTORE PUSH1 0x20 ADD DUP3 DUP1 SLOAD PUSH2 0x1FB SWAP1 PUSH2 0x636 JUMP JUMPDEST DUP1 ISZERO PUSH2 0x248 JUMPI DUP1 PUSH1 0x1F LT PUSH2 0x21D JUMPI PUSH2 0x100 DUP1 DUP4 SLOAD DIV MUL DUP4 MSTORE SWAP2 PUSH1 0x20 ADD SWAP2 PUSH2 0x248 JUMP JUMPDEST DUP3 ADD SWAP2 SWAP1 PUSH1 0x0 MSTORE PUSH1 0x20 PUSH1 0x0 KECCAK256 SWAP1 JUMPDEST DUP2 SLOAD DUP2 MSTORE SWAP1 PUSH1 0x1 ADD SWAP1 PUSH1 0x20 ADD DUP1 DUP4 GT PUSH2 0x22B JUMPI DUP3 SWAP1 SUB PUSH1 0x1F AND DUP3 ADD SWAP2 JUMPDEST POP POP POP POP POP SWAP1 POP SWAP1 JUMP JUMPDEST DUP3 DUP1 SLOAD PUSH2 0x25E SWAP1 PUSH2 0x636 JUMP JUMPDEST SWAP1 PUSH1 0x0 MSTORE PUSH1 0x20 PUSH1 0x0 KECCAK256 SWAP1 PUSH1 0x1F ADD PUSH1 0x20 SWAP1 DIV DUP2 ADD SWAP3 DUP3 PUSH2 0x280 JUMPI PUSH1 0x0 DUP6 SSTORE PUSH2 0x2C7 JUMP JUMPDEST DUP3 PUSH1 0x1F LT PUSH2 0x299 JUMPI DUP1 MLOAD PUSH1 0xFF NOT AND DUP4 DUP1 ADD OR DUP6 SSTORE PUSH2 0x2C7 JUMP JUMPDEST DUP3 DUP1 ADD PUSH1 0x1 ADD DUP6 SSTORE DUP3 ISZERO PUSH2 0x2C7 JUMPI SWAP2 DUP3 ADD JUMPDEST DUP3 DUP2 GT ISZERO PUSH2 0x2C6 JUMPI DUP3 MLOAD DUP3 SSTORE SWAP2 PUSH1 0x20 ADD SWAP2 SWAP1 PUSH1 0x1 ADD SWAP1 PUSH2 0x2AB JUMP JUMPDEST JUMPDEST POP SWAP1 POP PUSH2 0x2D4 SWAP2 SWAP1 PUSH2 0x2D8 JUMP JUMPDEST POP SWAP1 JUMP JUMPDEST JUMPDEST DUP1 DUP3 GT ISZERO PUSH2 0x2F1 JUMPI PUSH1 0x0 DUP2 PUSH1 0x0 SWAP1 SSTORE POP PUSH1 0x1 ADD PUSH2 0x2D9 JUMP JUMPDEST POP SWAP1 JUMP JUMPDEST PUSH1 0x0 PUSH2 0x308 PUSH2 0x303 DUP5 PUSH2 0x515 JUMP JUMPDEST PUSH2 0x4F0 JUMP JUMPDEST SWAP1 POP DUP3 DUP2 MSTORE PUSH1 0x20 DUP2 ADD DUP5 DUP5 DUP5 ADD GT ISZERO PUSH2 0x324 JUMPI PUSH2 0x323 PUSH2 0x75A JUMP JUMPDEST JUMPDEST PUSH2 0x32F DUP5 DUP3 DUP6 PUSH2 0x5F4 JUMP JUMPDEST POP SWAP4 SWAP3 POP POP POP JUMP JUMPDEST PUSH1 0x0 DUP2 CALLDATALOAD SWAP1 POP PUSH2 0x346 DUP2 PUSH2 0x77A JUMP JUMPDEST SWAP3 SWAP2 POP POP JUMP JUMPDEST PUSH1 0x0 DUP3 PUSH1 0x1F DUP4 ADD SLT PUSH2 0x361 JUMPI PUSH2 0x360 PUSH2 0x755 JUMP JUMPDEST JUMPDEST DUP2 CALLDATALOAD PUSH2 0x371 DUP5 DUP3 PUSH1 0x20 DUP7 ADD PUSH2 0x2F5 JUMP JUMPDEST SWAP2 POP POP SWAP3 SWAP2 POP POP JUMP JUMPDEST PUSH1 0x0 DUP2 CALLDATALOAD SWAP1 POP PUSH2 0x389 DUP2 PUSH2 0x791 JUMP JUMPDEST SWAP3 SWAP2 POP POP JUMP JUMPDEST PUSH1 0x0 DUP1 PUSH1 0x0 PUSH1 0x60 DUP5 DUP7 SUB SLT ISZERO PUSH2 0x3A8 JUMPI PUSH2 0x3A7 PUSH2 0x764 JUMP JUMPDEST JUMPDEST PUSH1 0x0 PUSH2 0x3B6 DUP7 DUP3 DUP8 ADD PUSH2 0x337 JUMP JUMPDEST SWAP4 POP POP PUSH1 0x20 PUSH2 0x3C7 DUP7 DUP3 DUP8 ADD PUSH2 0x337 JUMP JUMPDEST SWAP3 POP POP PUSH1 0x40 PUSH2 0x3D8 DUP7 DUP3 DUP8 ADD PUSH2 0x37A JUMP JUMPDEST SWAP2 POP POP SWAP3 POP SWAP3 POP SWAP3 JUMP JUMPDEST PUSH1 0x0 PUSH1 0x20 DUP3 DUP5 SUB SLT ISZERO PUSH2 0x3F8 JUMPI PUSH2 0x3F7 PUSH2 0x764 JUMP JUMPDEST JUMPDEST PUSH1 0x0 DUP3 ADD CALLDATALOAD PUSH8 0xFFFFFFFFFFFFFFFF DUP2 GT ISZERO PUSH2 0x416 JUMPI PUSH2 0x415 PUSH2 0x75F JUMP JUMPDEST JUMPDEST PUSH2 0x422 DUP5 DUP3 DUP6 ADD PUSH2 0x34C JUMP JUMPDEST SWAP2 POP POP SWAP3 SWAP2 POP POP JUMP JUMPDEST PUSH1 0x0 DUP1 PUSH1 0x40 DUP4 DUP6 SUB SLT ISZERO PUSH2 0x442 JUMPI PUSH2 0x441 PUSH2 0x764 JUMP JUMPDEST JUMPDEST PUSH1 0x0 PUSH2 0x450 DUP6 DUP3 DUP7 ADD PUSH2 0x37A JUMP JUMPDEST SWAP3 POP POP PUSH1 0x20 PUSH2 0x461 DUP6 DUP3 DUP7 ADD PUSH2 0x37A JUMP JUMPDEST SWAP2 POP POP SWAP3 POP SWAP3 SWAP1 POP JUMP JUMPDEST PUSH1 0x0 PUSH2 0x476 DUP3 PUSH2 0x546 JUMP JUMPDEST PUSH2 0x480 DUP2 DUP6 PUSH2 0x551 JUMP JUMPDEST SWAP4 POP PUSH2 0x490 DUP2 DUP6 PUSH1 0x20 DUP7 ADD PUSH2 0x603 JUMP JUMPDEST PUSH2 0x499 DUP2 PUSH2 0x769 JUMP JUMPDEST DUP5 ADD SWAP2 POP POP SWAP3 SWAP2 POP POP JUMP JUMPDEST PUSH2 0x4AD DUP2 PUSH2 0x5EA JUMP JUMPDEST DUP3 MSTORE POP POP JUMP JUMPDEST PUSH1 0x0 PUSH1 0x20 DUP3 ADD SWAP1 POP DUP2 DUP2 SUB PUSH1 0x0 DUP4 ADD MSTORE PUSH2 0x4CD DUP2 DUP5 PUSH2 0x46B JUMP JUMPDEST SWAP1 POP SWAP3 SWAP2 POP POP JUMP JUMPDEST PUSH1 0x0 PUSH1 0x20 DUP3 ADD SWAP1 POP PUSH2 0x4EA PUSH1 0x0 DUP4 ADD DUP5 PUSH2 0x4A4 JUMP JUMPDEST SWAP3 SWAP2 POP POP JUMP JUMPDEST PUSH1 0x0 PUSH2 0x4FA PUSH2 0x50B JUMP JUMPDEST SWAP1 POP PUSH2 0x506 DUP3 DUP3 PUSH2 0x668 JUMP JUMPDEST SWAP2 SWAP1 POP JUMP JUMPDEST PUSH1 0x0 PUSH1 0x40 MLOAD SWAP1 POP SWAP1 JUMP JUMPDEST PUSH1 0x0 PUSH8 0xFFFFFFFFFFFFFFFF DUP3 GT ISZERO PUSH2 0x530 JUMPI PUSH2 0x52F PUSH2 0x726 JUMP JUMPDEST JUMPDEST PUSH2 0x539 DUP3 PUSH2 0x769 JUMP JUMPDEST SWAP1 POP PUSH1 0x20 DUP2 ADD SWAP1 POP SWAP2 SWAP1 POP JUMP JUMPDEST PUSH1 0x0 DUP2 MLOAD SWAP1 POP SWAP2 SWAP1 POP JUMP JUMPDEST PUSH1 0x0 DUP3 DUP3 MSTORE PUSH1 0x20 DUP3 ADD SWAP1 POP SWAP3 SWAP2 POP POP JUMP JUMPDEST PUSH1 0x0 PUSH2 0x56D DUP3 PUSH2 0x5EA JUMP JUMPDEST SWAP2 POP PUSH2 0x578 DUP4 PUSH2 0x5EA JUMP JUMPDEST SWAP3 POP DUP3 PUSH32 0xFFFFFFFFFFFFFFFFFFFFFFFFFFFFFFFFFFFFFFFFFFFFFFFFFFFFFFFFFFFFFFFF SUB DUP3 GT ISZERO PUSH2 0x5AD JUMPI PUSH2 0x5AC PUSH2 0x699 JUMP JUMPDEST JUMPDEST DUP3 DUP3 ADD SWAP1 POP SWAP3 SWAP2 POP POP JUMP JUMPDEST PUSH1 0x0 PUSH2 0x5C3 DUP3 PUSH2 0x5CA JUMP JUMPDEST SWAP1 POP SWAP2 SWAP1 POP JUMP JUMPDEST PUSH1 0x0 PUSH20 0xFFFFFFFFFFFFFFFFFFFFFFFFFFFFFFFFFFFFFFFF DUP3 AND SWAP1 POP SWAP2 SWAP1 POP JUMP JUMPDEST PUSH1 0x0 DUP2 SWAP1 POP SWAP2 SWAP1 POP JUMP JUMPDEST DUP3 DUP2 DUP4 CALLDATACOPY PUSH1 0x0 DUP4 DUP4 ADD MSTORE POP POP POP JUMP JUMPDEST PUSH1 0x0 JUMPDEST DUP4 DUP2 LT ISZERO PUSH2 0x621 JUMPI DUP1 DUP3 ADD MLOAD DUP2 DUP5 ADD MSTORE PUSH1 0x20 DUP2 ADD SWAP1 POP PUSH2 0x606 JUMP JUMPDEST DUP4 DUP2 GT ISZERO PUSH2 0x630 JUMPI PUSH1 0x0 DUP5 DUP5 ADD MSTORE JUMPDEST POP POP POP POP JUMP JUMPDEST PUSH1 0x0 PUSH1 0x2 DUP3 DIV SWAP1 POP PUSH1 0x1 DUP3 AND DUP1 PUSH2 0x64E JUMPI PUSH1 0x7F DUP3 AND SWAP2 POP JUMPDEST PUSH1 0x20 DUP3 LT DUP2 EQ ISZERO PUSH2 0x662 JUMPI PUSH2 0x661 PUSH2 0x6C8 JUMP JUMPDEST JUMPDEST POP SWAP2 SWAP1 POP JUMP JUMPDEST PUSH2 0x671 DUP3 PUSH2 0x769 JUMP JUMPDEST DUP2 ADD DUP2 DUP2 LT PUSH8 0xFFFFFFFFFFFFFFFF DUP3 GT OR ISZERO PUSH2 0x690 JUMPI PUSH2 0x68F PUSH2 0x726 JUMP JUMPDEST JUMPDEST DUP1 PUSH1 0x40 MSTORE POP POP POP JUMP JUMPDEST PUSH32 0x4E487B7100000000000000000000000000000000000000000000000000000000 PUSH1 0x0 MSTORE PUSH1 0x11 PUSH1 0x4 MSTORE PUSH1 0x24 PUSH1 0x0 REVERT JUMPDEST PUSH32 0x4E487B7100000000000000000000000000000000000000000000000000000000 PUSH1 0x0 MSTORE PUSH1 0x22 PUSH1 0x4 MSTORE PUSH1 0x24 PUSH1 0x0 REVERT JUMPDEST PUSH32 0x4E487B7100000000000000000000000000000000000000000000000000000000 PUSH1 0x0 MSTORE PUSH1 0x32 PUSH1 0x4 MSTORE PUSH1 0x24 PUSH1 0x0 REVERT JUMPDEST PUSH32 0x4E487B7100000000000000000000000000000000000000000000000000000000 PUSH1 0x0 MSTORE PUSH1 0x41 PUSH1 0x4 MSTORE PUSH1 0x24 PUSH1 0x0 REVERT JUMPDEST PUSH1 0x0 DUP1 REVERT JUMPDEST PUSH1 0x0 DUP1 REVERT JUMPDEST PUSH1 0x0 DUP1 REVERT JUMPDEST PUSH1 0x0 DUP1 REVERT JUMPDEST PUSH1 0x0 PUSH1 0x1F NOT PUSH1 0x1F DUP4 ADD AND SWAP1 POP SWAP2 SWAP1 POP JUMP JUMPDEST PUSH2 0x783 DUP2 PUSH2 0x5B8 JUMP JUMPDEST DUP2 EQ PUSH2 0x78E JUMPI PUSH1 0x0 DUP1 REVERT JUMPDEST POP JUMP JUMPDEST PUSH2 0x79A DUP2 PUSH2 0x5EA JUMP JUMPDEST DUP2 EQ PUSH2 0x7A5 JUMPI PUSH1 0x0 DUP1 REVERT JUMPDEST POP JUMP INVALID LOG2 PUSH5 0x6970667358 0x22 SLT KECCAK256 0xCB DUP9 TIMESTAMP 0x4D 0x2F 0xBB 0xC 0xDF CALLDATACOPY PUSH17 0xA01C1E525BADF7655FD31F856B323F086B MUL SWAP16 RETURN DUP8 0xCA PUSH5 0x736F6C6343 STOP ADDMOD SMOD STOP CALLER "
				},
				"gasEstimates": {
					"creation": {
						"codeDepositCost": "402800",
						"executionCost": "infinite",
						"totalCost": "infinite"
					},
					"external": {
						"changeName(string)": "infinite",
						"getPureName(uint256,uint256)": "infinite",
						"getname()": "infinite",
						"payOwner(address,address,uint256)": "infinite"
					}
				},
				"methodIdentifiers": {
					"changeName(string)": "5353a2d8",
					"getPureName(uint256,uint256)": "a990a7a7",
					"getname()": "c6ea59b9",
					"payOwner(address,address,uint256)": "65efd0f5"
				}
			},
			"storageLayout": {
				"storage": [
					{
						"astId": 4,
						"contract": "contracts/functions.sol:functionsContract",
						"label": "name",
						"offset": 0,
						"slot": "0",
						"type": "t_string_storage"
					}
				],
				"types": {
					"t_string_storage": {
						"encoding": "bytes",
						"label": "string",
						"numberOfBytes": "32"
					}
				}
			},
			"userdoc": {
				"kind": "user",
				"methods": {},
				"version": 1
			}
		}
	}
}