{
	"contracts/blog.sol": {
		"blog": {
			"abi": [
				{
					"anonymous": false,
					"inputs": [
						{
							"indexed": true,
							"internalType": "address",
							"name": "user",
							"type": "address"
						},
						{
							"indexed": true,
							"internalType": "string",
							"name": "title",
							"type": "string"
						},
						{
							"indexed": true,
							"internalType": "string",
							"name": "description",
							"type": "string"
						}
					],
					"name": "broadcastDetails",
					"type": "event"
				},
				{
					"inputs": [
						{
							"internalType": "string",
							"name": "_title",
							"type": "string"
						},
						{
							"internalType": "string",
							"name": "_description",
							"type": "string"
						}
					],
					"name": "createPost",
					"outputs": [],
					"stateMutability": "nonpayable",
					"type": "function"
				},
				{
					"inputs": [
						{
							"internalType": "uint256",
							"name": "",
							"type": "uint256"
						}
					],
					"name": "posts",
					"outputs": [
						{
							"internalType": "address",
							"name": "",
							"type": "address"
						}
					],
					"stateMutability": "view",
					"type": "function"
				},
				{
					"inputs": [
						{
							"internalType": "uint256",
							"name": "",
							"type": "uint256"
						}
					],
					"name": "userPosts",
					"outputs": [
						{
							"internalType": "string",
							"name": "title",
							"type": "string"
						},
						{
							"internalType": "string",
							"name": "description",
							"type": "string"
						},
						{
							"internalType": "address",
							"name": "user",
							"type": "address"
						}
					],
					"stateMutability": "view",
					"type": "function"
				}
			],
			"devdoc": {
				"kind": "dev",
				"methods": {},
				"version": 1
			},
			"evm": {
				"assembly": "    /* \"contracts/blog.sol\":90:1071  contract blog{\r... */\n  mstore(0x40, 0x80)\n  callvalue\n  dup1\n  iszero\n  tag_1\n  jumpi\n  0x00\n  dup1\n  revert\ntag_1:\n  pop\n  dataSize(sub_0)\n  dup1\n  dataOffset(sub_0)\n  0x00\n  codecopy\n  0x00\n  return\nstop\n\nsub_0: assembly {\n        /* \"contracts/blog.sol\":90:1071  contract blog{\r... */\n      mstore(0x40, 0x80)\n      callvalue\n      dup1\n      iszero\n      tag_1\n      jumpi\n      0x00\n      dup1\n      revert\n    tag_1:\n      pop\n      jumpi(tag_2, lt(calldatasize, 0x04))\n      shr(0xe0, calldataload(0x00))\n      dup1\n      0x0b1e7f83\n      eq\n      tag_3\n      jumpi\n      dup1\n      0x392338f5\n      eq\n      tag_4\n      jumpi\n      dup1\n      0xfdd6ea71\n      eq\n      tag_5\n      jumpi\n    tag_2:\n      0x00\n      dup1\n      revert\n        /* \"contracts/blog.sol\":524:561  mapping(uint => address) public posts */\n    tag_3:\n      tag_6\n      0x04\n      dup1\n      calldatasize\n      sub\n      dup2\n      add\n      swap1\n      tag_7\n      swap2\n      swap1\n      tag_8\n      jump\t// in\n    tag_7:\n      tag_9\n      jump\t// in\n    tag_6:\n      mload(0x40)\n      tag_10\n      swap2\n      swap1\n      tag_11\n      jump\t// in\n    tag_10:\n      mload(0x40)\n      dup1\n      swap2\n      sub\n      swap1\n      return\n        /* \"contracts/blog.sol\":839:1068  function createPost(string memory _title,string memory _description)\r... */\n    tag_4:\n      tag_12\n      0x04\n      dup1\n      calldatasize\n      sub\n      dup2\n      add\n      swap1\n      tag_13\n      swap2\n      swap1\n      tag_14\n      jump\t// in\n    tag_13:\n      tag_15\n      jump\t// in\n    tag_12:\n      stop\n        /* \"contracts/blog.sol\":605:643  mapping(uint => Post) public userPosts */\n    tag_5:\n      tag_16\n      0x04\n      dup1\n      calldatasize\n      sub\n      dup2\n      add\n      swap1\n      tag_17\n      swap2\n      swap1\n      tag_8\n      jump\t// in\n    tag_17:\n      tag_18\n      jump\t// in\n    tag_16:\n      mload(0x40)\n      tag_19\n      swap4\n      swap3\n      swap2\n      swap1\n      tag_20\n      jump\t// in\n    tag_19:\n      mload(0x40)\n      dup1\n      swap2\n      sub\n      swap1\n      return\n        /* \"contracts/blog.sol\":524:561  mapping(uint => address) public posts */\n    tag_9:\n      mstore(0x20, 0x00)\n      dup1\n      0x00\n      mstore\n      keccak256(0x00, 0x40)\n      0x00\n      swap2\n      pop\n      sload\n      swap1\n      0x0100\n      exp\n      swap1\n      div\n      0xffffffffffffffffffffffffffffffffffffffff\n      and\n      dup2\n      jump\t// out\n        /* \"contracts/blog.sol\":839:1068  function createPost(string memory _title,string memory _description)\r... */\n    tag_15:\n        /* \"contracts/blog.sol\":955:991  Post(_title,_description,msg.sender) */\n      mload(0x40)\n      dup1\n      0x60\n      add\n      0x40\n      mstore\n      dup1\n        /* \"contracts/blog.sol\":960:966  _title */\n      dup4\n        /* \"contracts/blog.sol\":955:991  Post(_title,_description,msg.sender) */\n      dup2\n      mstore\n      0x20\n      add\n        /* \"contracts/blog.sol\":967:979  _description */\n      dup3\n        /* \"contracts/blog.sol\":955:991  Post(_title,_description,msg.sender) */\n      dup2\n      mstore\n      0x20\n      add\n        /* \"contracts/blog.sol\":980:990  msg.sender */\n      caller\n        /* \"contracts/blog.sol\":955:991  Post(_title,_description,msg.sender) */\n      0xffffffffffffffffffffffffffffffffffffffff\n      and\n      dup2\n      mstore\n      pop\n        /* \"contracts/blog.sol\":940:949  userPosts */\n      0x01\n        /* \"contracts/blog.sol\":940:952  userPosts[0] */\n      0x00\n        /* \"contracts/blog.sol\":950:951  0 */\n      dup1\n        /* \"contracts/blog.sol\":940:952  userPosts[0] */\n      dup2\n      mstore\n      0x20\n      add\n      swap1\n      dup2\n      mstore\n      0x20\n      add\n      0x00\n      keccak256\n        /* \"contracts/blog.sol\":940:991  userPosts[0] = Post(_title,_description,msg.sender) */\n      0x00\n      dup3\n      add\n      mload\n      dup2\n      0x00\n      add\n      swap1\n      dup1\n      mload\n      swap1\n      0x20\n      add\n      swap1\n      tag_22\n      swap3\n      swap2\n      swap1\n      tag_23\n      jump\t// in\n    tag_22:\n      pop\n      0x20\n      dup3\n      add\n      mload\n      dup2\n      0x01\n      add\n      swap1\n      dup1\n      mload\n      swap1\n      0x20\n      add\n      swap1\n      tag_24\n      swap3\n      swap2\n      swap1\n      tag_23\n      jump\t// in\n    tag_24:\n      pop\n      0x40\n      dup3\n      add\n      mload\n      dup2\n      0x02\n      add\n      exp(0x0100, 0x00)\n      dup2\n      sload\n      dup2\n      0xffffffffffffffffffffffffffffffffffffffff\n      mul\n      not\n      and\n      swap1\n      dup4\n      0xffffffffffffffffffffffffffffffffffffffff\n      and\n      mul\n      or\n      swap1\n      sstore\n      pop\n      swap1\n      pop\n      pop\n        /* \"contracts/blog.sol\":1047:1059  _description */\n      dup1\n        /* \"contracts/blog.sol\":1011:1060  broadcastDetails(msg.sender, _title,_description) */\n      mload(0x40)\n      tag_25\n      swap2\n      swap1\n      tag_26\n      jump\t// in\n    tag_25:\n      mload(0x40)\n      dup1\n      swap2\n      sub\n      swap1\n      keccak256\n        /* \"contracts/blog.sol\":1040:1046  _title */\n      dup3\n        /* \"contracts/blog.sol\":1011:1060  broadcastDetails(msg.sender, _title,_description) */\n      mload(0x40)\n      tag_27\n      swap2\n      swap1\n      tag_26\n      jump\t// in\n    tag_27:\n      mload(0x40)\n      dup1\n      swap2\n      sub\n      swap1\n      keccak256\n        /* \"contracts/blog.sol\":1028:1038  msg.sender */\n      caller\n        /* \"contracts/blog.sol\":1011:1060  broadcastDetails(msg.sender, _title,_description) */\n      0xffffffffffffffffffffffffffffffffffffffff\n      and\n      0x4eacffc497062f11928adc3628e2047cd720623235f6f37529db1d95cc75ecbf\n      mload(0x40)\n      mload(0x40)\n      dup1\n      swap2\n      sub\n      swap1\n      log4\n        /* \"contracts/blog.sol\":839:1068  function createPost(string memory _title,string memory _description)\r... */\n      pop\n      pop\n      jump\t// out\n        /* \"contracts/blog.sol\":605:643  mapping(uint => Post) public userPosts */\n    tag_18:\n      mstore(0x20, 0x01)\n      dup1\n      0x00\n      mstore\n      keccak256(0x00, 0x40)\n      0x00\n      swap2\n      pop\n      swap1\n      pop\n      dup1\n      0x00\n      add\n      dup1\n      sload\n      tag_28\n      swap1\n      tag_29\n      jump\t// in\n    tag_28:\n      dup1\n      0x1f\n      add\n      0x20\n      dup1\n      swap2\n      div\n      mul\n      0x20\n      add\n      mload(0x40)\n      swap1\n      dup2\n      add\n      0x40\n      mstore\n      dup1\n      swap3\n      swap2\n      swap1\n      dup2\n      dup2\n      mstore\n      0x20\n      add\n      dup3\n      dup1\n      sload\n      tag_30\n      swap1\n      tag_29\n      jump\t// in\n    tag_30:\n      dup1\n      iszero\n      tag_31\n      jumpi\n      dup1\n      0x1f\n      lt\n      tag_32\n      jumpi\n      0x0100\n      dup1\n      dup4\n      sload\n      div\n      mul\n      dup4\n      mstore\n      swap2\n      0x20\n      add\n      swap2\n      jump(tag_31)\n    tag_32:\n      dup3\n      add\n      swap2\n      swap1\n      0x00\n      mstore\n      keccak256(0x00, 0x20)\n      swap1\n    tag_33:\n      dup2\n      sload\n      dup2\n      mstore\n      swap1\n      0x01\n      add\n      swap1\n      0x20\n      add\n      dup1\n      dup4\n      gt\n      tag_33\n      jumpi\n      dup3\n      swap1\n      sub\n      0x1f\n      and\n      dup3\n      add\n      swap2\n    tag_31:\n      pop\n      pop\n      pop\n      pop\n      pop\n      swap1\n      dup1\n      0x01\n      add\n      dup1\n      sload\n      tag_34\n      swap1\n      tag_29\n      jump\t// in\n    tag_34:\n      dup1\n      0x1f\n      add\n      0x20\n      dup1\n      swap2\n      div\n      mul\n      0x20\n      add\n      mload(0x40)\n      swap1\n      dup2\n      add\n      0x40\n      mstore\n      dup1\n      swap3\n      swap2\n      swap1\n      dup2\n      dup2\n      mstore\n      0x20\n      add\n      dup3\n      dup1\n      sload\n      tag_35\n      swap1\n      tag_29\n      jump\t// in\n    tag_35:\n      dup1\n      iszero\n      tag_36\n      jumpi\n      dup1\n      0x1f\n      lt\n      tag_37\n      jumpi\n      0x0100\n      dup1\n      dup4\n      sload\n      div\n      mul\n      dup4\n      mstore\n      swap2\n      0x20\n      add\n      swap2\n      jump(tag_36)\n    tag_37:\n      dup3\n      add\n      swap2\n      swap1\n      0x00\n      mstore\n      keccak256(0x00, 0x20)\n      swap1\n    tag_38:\n      dup2\n      sload\n      dup2\n      mstore\n      swap1\n      0x01\n      add\n      swap1\n      0x20\n      add\n      dup1\n      dup4\n      gt\n      tag_38\n      jumpi\n      dup3\n      swap1\n      sub\n      0x1f\n      and\n      dup3\n      add\n      swap2\n    tag_36:\n      pop\n      pop\n      pop\n      pop\n      pop\n      swap1\n      dup1\n      0x02\n      add\n      0x00\n      swap1\n      sload\n      swap1\n      0x0100\n      exp\n      swap1\n      div\n      0xffffffffffffffffffffffffffffffffffffffff\n      and\n      swap1\n      pop\n      dup4\n      jump\t// out\n    tag_23:\n      dup3\n      dup1\n      sload\n      tag_39\n      swap1\n      tag_29\n      jump\t// in\n    tag_39:\n      swap1\n      0x00\n      mstore\n      keccak256(0x00, 0x20)\n      swap1\n      0x1f\n      add\n      0x20\n      swap1\n      div\n      dup2\n      add\n      swap3\n      dup3\n      tag_41\n      jumpi\n      0x00\n      dup6\n      sstore\n      jump(tag_40)\n    tag_41:\n      dup3\n      0x1f\n      lt\n      tag_42\n      jumpi\n      dup1\n      mload\n      not(0xff)\n      and\n      dup4\n      dup1\n      add\n      or\n      dup6\n      sstore\n      jump(tag_40)\n    tag_42:\n      dup3\n      dup1\n      add\n      0x01\n      add\n      dup6\n      sstore\n      dup3\n      iszero\n      tag_40\n      jumpi\n      swap2\n      dup3\n      add\n    tag_43:\n      dup3\n      dup2\n      gt\n      iszero\n      tag_44\n      jumpi\n      dup3\n      mload\n      dup3\n      sstore\n      swap2\n      0x20\n      add\n      swap2\n      swap1\n      0x01\n      add\n      swap1\n      jump(tag_43)\n    tag_44:\n    tag_40:\n      pop\n      swap1\n      pop\n      tag_45\n      swap2\n      swap1\n      tag_46\n      jump\t// in\n    tag_45:\n      pop\n      swap1\n      jump\t// out\n    tag_46:\n    tag_47:\n      dup1\n      dup3\n      gt\n      iszero\n      tag_48\n      jumpi\n      0x00\n      dup2\n      0x00\n      swap1\n      sstore\n      pop\n      0x01\n      add\n      jump(tag_47)\n    tag_48:\n      pop\n      swap1\n      jump\t// out\n        /* \"#utility.yul\":7:419   */\n    tag_50:\n        /* \"#utility.yul\":85:90   */\n      0x00\n        /* \"#utility.yul\":110:176   */\n      tag_52\n        /* \"#utility.yul\":126:175   */\n      tag_53\n        /* \"#utility.yul\":168:174   */\n      dup5\n        /* \"#utility.yul\":126:175   */\n      tag_54\n      jump\t// in\n    tag_53:\n        /* \"#utility.yul\":110:176   */\n      tag_55\n      jump\t// in\n    tag_52:\n        /* \"#utility.yul\":101:176   */\n      swap1\n      pop\n        /* \"#utility.yul\":199:205   */\n      dup3\n        /* \"#utility.yul\":192:197   */\n      dup2\n        /* \"#utility.yul\":185:206   */\n      mstore\n        /* \"#utility.yul\":237:241   */\n      0x20\n        /* \"#utility.yul\":230:235   */\n      dup2\n        /* \"#utility.yul\":226:242   */\n      add\n        /* \"#utility.yul\":275:278   */\n      dup5\n        /* \"#utility.yul\":266:272   */\n      dup5\n        /* \"#utility.yul\":261:264   */\n      dup5\n        /* \"#utility.yul\":257:273   */\n      add\n        /* \"#utility.yul\":254:279   */\n      gt\n        /* \"#utility.yul\":251:363   */\n      iszero\n      tag_56\n      jumpi\n        /* \"#utility.yul\":282:361   */\n      tag_57\n      tag_58\n      jump\t// in\n    tag_57:\n        /* \"#utility.yul\":251:363   */\n    tag_56:\n        /* \"#utility.yul\":372:413   */\n      tag_59\n        /* \"#utility.yul\":406:412   */\n      dup5\n        /* \"#utility.yul\":401:404   */\n      dup3\n        /* \"#utility.yul\":396:399   */\n      dup6\n        /* \"#utility.yul\":372:413   */\n      tag_60\n      jump\t// in\n    tag_59:\n        /* \"#utility.yul\":91:419   */\n      pop\n        /* \"#utility.yul\":7:419   */\n      swap4\n      swap3\n      pop\n      pop\n      pop\n      jump\t// out\n        /* \"#utility.yul\":439:779   */\n    tag_61:\n        /* \"#utility.yul\":495:500   */\n      0x00\n        /* \"#utility.yul\":544:547   */\n      dup3\n        /* \"#utility.yul\":537:541   */\n      0x1f\n        /* \"#utility.yul\":529:535   */\n      dup4\n        /* \"#utility.yul\":525:542   */\n      add\n        /* \"#utility.yul\":521:548   */\n      slt\n        /* \"#utility.yul\":511:633   */\n      tag_63\n      jumpi\n        /* \"#utility.yul\":552:631   */\n      tag_64\n      tag_65\n      jump\t// in\n    tag_64:\n        /* \"#utility.yul\":511:633   */\n    tag_63:\n        /* \"#utility.yul\":669:675   */\n      dup2\n        /* \"#utility.yul\":656:676   */\n      calldataload\n        /* \"#utility.yul\":694:773   */\n      tag_66\n        /* \"#utility.yul\":769:772   */\n      dup5\n        /* \"#utility.yul\":761:767   */\n      dup3\n        /* \"#utility.yul\":754:758   */\n      0x20\n        /* \"#utility.yul\":746:752   */\n      dup7\n        /* \"#utility.yul\":742:759   */\n      add\n        /* \"#utility.yul\":694:773   */\n      tag_50\n      jump\t// in\n    tag_66:\n        /* \"#utility.yul\":685:773   */\n      swap2\n      pop\n        /* \"#utility.yul\":501:779   */\n      pop\n        /* \"#utility.yul\":439:779   */\n      swap3\n      swap2\n      pop\n      pop\n      jump\t// out\n        /* \"#utility.yul\":785:924   */\n    tag_67:\n        /* \"#utility.yul\":831:836   */\n      0x00\n        /* \"#utility.yul\":869:875   */\n      dup2\n        /* \"#utility.yul\":856:876   */\n      calldataload\n        /* \"#utility.yul\":847:876   */\n      swap1\n      pop\n        /* \"#utility.yul\":885:918   */\n      tag_69\n        /* \"#utility.yul\":912:917   */\n      dup2\n        /* \"#utility.yul\":885:918   */\n      tag_70\n      jump\t// in\n    tag_69:\n        /* \"#utility.yul\":785:924   */\n      swap3\n      swap2\n      pop\n      pop\n      jump\t// out\n        /* \"#utility.yul\":930:1764   */\n    tag_14:\n        /* \"#utility.yul\":1018:1024   */\n      0x00\n        /* \"#utility.yul\":1026:1032   */\n      dup1\n        /* \"#utility.yul\":1075:1077   */\n      0x40\n        /* \"#utility.yul\":1063:1072   */\n      dup4\n        /* \"#utility.yul\":1054:1061   */\n      dup6\n        /* \"#utility.yul\":1050:1073   */\n      sub\n        /* \"#utility.yul\":1046:1078   */\n      slt\n        /* \"#utility.yul\":1043:1162   */\n      iszero\n      tag_72\n      jumpi\n        /* \"#utility.yul\":1081:1160   */\n      tag_73\n      tag_74\n      jump\t// in\n    tag_73:\n        /* \"#utility.yul\":1043:1162   */\n    tag_72:\n        /* \"#utility.yul\":1229:1230   */\n      0x00\n        /* \"#utility.yul\":1218:1227   */\n      dup4\n        /* \"#utility.yul\":1214:1231   */\n      add\n        /* \"#utility.yul\":1201:1232   */\n      calldataload\n        /* \"#utility.yul\":1259:1277   */\n      0xffffffffffffffff\n        /* \"#utility.yul\":1251:1257   */\n      dup2\n        /* \"#utility.yul\":1248:1278   */\n      gt\n        /* \"#utility.yul\":1245:1362   */\n      iszero\n      tag_75\n      jumpi\n        /* \"#utility.yul\":1281:1360   */\n      tag_76\n      tag_77\n      jump\t// in\n    tag_76:\n        /* \"#utility.yul\":1245:1362   */\n    tag_75:\n        /* \"#utility.yul\":1386:1449   */\n      tag_78\n        /* \"#utility.yul\":1441:1448   */\n      dup6\n        /* \"#utility.yul\":1432:1438   */\n      dup3\n        /* \"#utility.yul\":1421:1430   */\n      dup7\n        /* \"#utility.yul\":1417:1439   */\n      add\n        /* \"#utility.yul\":1386:1449   */\n      tag_61\n      jump\t// in\n    tag_78:\n        /* \"#utility.yul\":1376:1449   */\n      swap3\n      pop\n        /* \"#utility.yul\":1172:1459   */\n      pop\n        /* \"#utility.yul\":1526:1528   */\n      0x20\n        /* \"#utility.yul\":1515:1524   */\n      dup4\n        /* \"#utility.yul\":1511:1529   */\n      add\n        /* \"#utility.yul\":1498:1530   */\n      calldataload\n        /* \"#utility.yul\":1557:1575   */\n      0xffffffffffffffff\n        /* \"#utility.yul\":1549:1555   */\n      dup2\n        /* \"#utility.yul\":1546:1576   */\n      gt\n        /* \"#utility.yul\":1543:1660   */\n      iszero\n      tag_79\n      jumpi\n        /* \"#utility.yul\":1579:1658   */\n      tag_80\n      tag_77\n      jump\t// in\n    tag_80:\n        /* \"#utility.yul\":1543:1660   */\n    tag_79:\n        /* \"#utility.yul\":1684:1747   */\n      tag_81\n        /* \"#utility.yul\":1739:1746   */\n      dup6\n        /* \"#utility.yul\":1730:1736   */\n      dup3\n        /* \"#utility.yul\":1719:1728   */\n      dup7\n        /* \"#utility.yul\":1715:1737   */\n      add\n        /* \"#utility.yul\":1684:1747   */\n      tag_61\n      jump\t// in\n    tag_81:\n        /* \"#utility.yul\":1674:1747   */\n      swap2\n      pop\n        /* \"#utility.yul\":1469:1757   */\n      pop\n        /* \"#utility.yul\":930:1764   */\n      swap3\n      pop\n      swap3\n      swap1\n      pop\n      jump\t// out\n        /* \"#utility.yul\":1770:2099   */\n    tag_8:\n        /* \"#utility.yul\":1829:1835   */\n      0x00\n        /* \"#utility.yul\":1878:1880   */\n      0x20\n        /* \"#utility.yul\":1866:1875   */\n      dup3\n        /* \"#utility.yul\":1857:1864   */\n      dup5\n        /* \"#utility.yul\":1853:1876   */\n      sub\n        /* \"#utility.yul\":1849:1881   */\n      slt\n        /* \"#utility.yul\":1846:1965   */\n      iszero\n      tag_83\n      jumpi\n        /* \"#utility.yul\":1884:1963   */\n      tag_84\n      tag_74\n      jump\t// in\n    tag_84:\n        /* \"#utility.yul\":1846:1965   */\n    tag_83:\n        /* \"#utility.yul\":2004:2005   */\n      0x00\n        /* \"#utility.yul\":2029:2082   */\n      tag_85\n        /* \"#utility.yul\":2074:2081   */\n      dup5\n        /* \"#utility.yul\":2065:2071   */\n      dup3\n        /* \"#utility.yul\":2054:2063   */\n      dup6\n        /* \"#utility.yul\":2050:2072   */\n      add\n        /* \"#utility.yul\":2029:2082   */\n      tag_67\n      jump\t// in\n    tag_85:\n        /* \"#utility.yul\":2019:2082   */\n      swap2\n      pop\n        /* \"#utility.yul\":1975:2092   */\n      pop\n        /* \"#utility.yul\":1770:2099   */\n      swap3\n      swap2\n      pop\n      pop\n      jump\t// out\n        /* \"#utility.yul\":2105:2223   */\n    tag_86:\n        /* \"#utility.yul\":2192:2216   */\n      tag_88\n        /* \"#utility.yul\":2210:2215   */\n      dup2\n        /* \"#utility.yul\":2192:2216   */\n      tag_89\n      jump\t// in\n    tag_88:\n        /* \"#utility.yul\":2187:2190   */\n      dup3\n        /* \"#utility.yul\":2180:2217   */\n      mstore\n        /* \"#utility.yul\":2105:2223   */\n      pop\n      pop\n      jump\t// out\n        /* \"#utility.yul\":2229:2593   */\n    tag_90:\n        /* \"#utility.yul\":2317:2320   */\n      0x00\n        /* \"#utility.yul\":2345:2384   */\n      tag_92\n        /* \"#utility.yul\":2378:2383   */\n      dup3\n        /* \"#utility.yul\":2345:2384   */\n      tag_93\n      jump\t// in\n    tag_92:\n        /* \"#utility.yul\":2400:2471   */\n      tag_94\n        /* \"#utility.yul\":2464:2470   */\n      dup2\n        /* \"#utility.yul\":2459:2462   */\n      dup6\n        /* \"#utility.yul\":2400:2471   */\n      tag_95\n      jump\t// in\n    tag_94:\n        /* \"#utility.yul\":2393:2471   */\n      swap4\n      pop\n        /* \"#utility.yul\":2480:2532   */\n      tag_96\n        /* \"#utility.yul\":2525:2531   */\n      dup2\n        /* \"#utility.yul\":2520:2523   */\n      dup6\n        /* \"#utility.yul\":2513:2517   */\n      0x20\n        /* \"#utility.yul\":2506:2511   */\n      dup7\n        /* \"#utility.yul\":2502:2518   */\n      add\n        /* \"#utility.yul\":2480:2532   */\n      tag_97\n      jump\t// in\n    tag_96:\n        /* \"#utility.yul\":2557:2586   */\n      tag_98\n        /* \"#utility.yul\":2579:2585   */\n      dup2\n        /* \"#utility.yul\":2557:2586   */\n      tag_99\n      jump\t// in\n    tag_98:\n        /* \"#utility.yul\":2552:2555   */\n      dup5\n        /* \"#utility.yul\":2548:2587   */\n      add\n        /* \"#utility.yul\":2541:2587   */\n      swap2\n      pop\n        /* \"#utility.yul\":2321:2593   */\n      pop\n        /* \"#utility.yul\":2229:2593   */\n      swap3\n      swap2\n      pop\n      pop\n      jump\t// out\n        /* \"#utility.yul\":2599:2976   */\n    tag_100:\n        /* \"#utility.yul\":2705:2708   */\n      0x00\n        /* \"#utility.yul\":2733:2772   */\n      tag_102\n        /* \"#utility.yul\":2766:2771   */\n      dup3\n        /* \"#utility.yul\":2733:2772   */\n      tag_93\n      jump\t// in\n    tag_102:\n        /* \"#utility.yul\":2788:2877   */\n      tag_103\n        /* \"#utility.yul\":2870:2876   */\n      dup2\n        /* \"#utility.yul\":2865:2868   */\n      dup6\n        /* \"#utility.yul\":2788:2877   */\n      tag_104\n      jump\t// in\n    tag_103:\n        /* \"#utility.yul\":2781:2877   */\n      swap4\n      pop\n        /* \"#utility.yul\":2886:2938   */\n      tag_105\n        /* \"#utility.yul\":2931:2937   */\n      dup2\n        /* \"#utility.yul\":2926:2929   */\n      dup6\n        /* \"#utility.yul\":2919:2923   */\n      0x20\n        /* \"#utility.yul\":2912:2917   */\n      dup7\n        /* \"#utility.yul\":2908:2924   */\n      add\n        /* \"#utility.yul\":2886:2938   */\n      tag_97\n      jump\t// in\n    tag_105:\n        /* \"#utility.yul\":2963:2969   */\n      dup1\n        /* \"#utility.yul\":2958:2961   */\n      dup5\n        /* \"#utility.yul\":2954:2970   */\n      add\n        /* \"#utility.yul\":2947:2970   */\n      swap2\n      pop\n        /* \"#utility.yul\":2709:2976   */\n      pop\n        /* \"#utility.yul\":2599:2976   */\n      swap3\n      swap2\n      pop\n      pop\n      jump\t// out\n        /* \"#utility.yul\":2982:3257   */\n    tag_26:\n        /* \"#utility.yul\":3114:3117   */\n      0x00\n        /* \"#utility.yul\":3136:3231   */\n      tag_107\n        /* \"#utility.yul\":3227:3230   */\n      dup3\n        /* \"#utility.yul\":3218:3224   */\n      dup5\n        /* \"#utility.yul\":3136:3231   */\n      tag_100\n      jump\t// in\n    tag_107:\n        /* \"#utility.yul\":3129:3231   */\n      swap2\n      pop\n        /* \"#utility.yul\":3248:3251   */\n      dup2\n        /* \"#utility.yul\":3241:3251   */\n      swap1\n      pop\n        /* \"#utility.yul\":2982:3257   */\n      swap3\n      swap2\n      pop\n      pop\n      jump\t// out\n        /* \"#utility.yul\":3263:3485   */\n    tag_11:\n        /* \"#utility.yul\":3356:3360   */\n      0x00\n        /* \"#utility.yul\":3394:3396   */\n      0x20\n        /* \"#utility.yul\":3383:3392   */\n      dup3\n        /* \"#utility.yul\":3379:3397   */\n      add\n        /* \"#utility.yul\":3371:3397   */\n      swap1\n      pop\n        /* \"#utility.yul\":3407:3478   */\n      tag_109\n        /* \"#utility.yul\":3475:3476   */\n      0x00\n        /* \"#utility.yul\":3464:3473   */\n      dup4\n        /* \"#utility.yul\":3460:3477   */\n      add\n        /* \"#utility.yul\":3451:3457   */\n      dup5\n        /* \"#utility.yul\":3407:3478   */\n      tag_86\n      jump\t// in\n    tag_109:\n        /* \"#utility.yul\":3263:3485   */\n      swap3\n      swap2\n      pop\n      pop\n      jump\t// out\n        /* \"#utility.yul\":3491:4115   */\n    tag_20:\n        /* \"#utility.yul\":3680:3684   */\n      0x00\n        /* \"#utility.yul\":3718:3720   */\n      0x60\n        /* \"#utility.yul\":3707:3716   */\n      dup3\n        /* \"#utility.yul\":3703:3721   */\n      add\n        /* \"#utility.yul\":3695:3721   */\n      swap1\n      pop\n        /* \"#utility.yul\":3767:3776   */\n      dup2\n        /* \"#utility.yul\":3761:3765   */\n      dup2\n        /* \"#utility.yul\":3757:3777   */\n      sub\n        /* \"#utility.yul\":3753:3754   */\n      0x00\n        /* \"#utility.yul\":3742:3751   */\n      dup4\n        /* \"#utility.yul\":3738:3755   */\n      add\n        /* \"#utility.yul\":3731:3778   */\n      mstore\n        /* \"#utility.yul\":3795:3873   */\n      tag_111\n        /* \"#utility.yul\":3868:3872   */\n      dup2\n        /* \"#utility.yul\":3859:3865   */\n      dup7\n        /* \"#utility.yul\":3795:3873   */\n      tag_90\n      jump\t// in\n    tag_111:\n        /* \"#utility.yul\":3787:3873   */\n      swap1\n      pop\n        /* \"#utility.yul\":3920:3929   */\n      dup2\n        /* \"#utility.yul\":3914:3918   */\n      dup2\n        /* \"#utility.yul\":3910:3930   */\n      sub\n        /* \"#utility.yul\":3905:3907   */\n      0x20\n        /* \"#utility.yul\":3894:3903   */\n      dup4\n        /* \"#utility.yul\":3890:3908   */\n      add\n        /* \"#utility.yul\":3883:3931   */\n      mstore\n        /* \"#utility.yul\":3948:4026   */\n      tag_112\n        /* \"#utility.yul\":4021:4025   */\n      dup2\n        /* \"#utility.yul\":4012:4018   */\n      dup6\n        /* \"#utility.yul\":3948:4026   */\n      tag_90\n      jump\t// in\n    tag_112:\n        /* \"#utility.yul\":3940:4026   */\n      swap1\n      pop\n        /* \"#utility.yul\":4036:4108   */\n      tag_113\n        /* \"#utility.yul\":4104:4106   */\n      0x40\n        /* \"#utility.yul\":4093:4102   */\n      dup4\n        /* \"#utility.yul\":4089:4107   */\n      add\n        /* \"#utility.yul\":4080:4086   */\n      dup5\n        /* \"#utility.yul\":4036:4108   */\n      tag_86\n      jump\t// in\n    tag_113:\n        /* \"#utility.yul\":3491:4115   */\n      swap5\n      swap4\n      pop\n      pop\n      pop\n      pop\n      jump\t// out\n        /* \"#utility.yul\":4121:4250   */\n    tag_55:\n        /* \"#utility.yul\":4155:4161   */\n      0x00\n        /* \"#utility.yul\":4182:4202   */\n      tag_115\n      tag_116\n      jump\t// in\n    tag_115:\n        /* \"#utility.yul\":4172:4202   */\n      swap1\n      pop\n        /* \"#utility.yul\":4211:4244   */\n      tag_117\n        /* \"#utility.yul\":4239:4243   */\n      dup3\n        /* \"#utility.yul\":4231:4237   */\n      dup3\n        /* \"#utility.yul\":4211:4244   */\n      tag_118\n      jump\t// in\n    tag_117:\n        /* \"#utility.yul\":4121:4250   */\n      swap2\n      swap1\n      pop\n      jump\t// out\n        /* \"#utility.yul\":4256:4331   */\n    tag_116:\n        /* \"#utility.yul\":4289:4295   */\n      0x00\n        /* \"#utility.yul\":4322:4324   */\n      0x40\n        /* \"#utility.yul\":4316:4325   */\n      mload\n        /* \"#utility.yul\":4306:4325   */\n      swap1\n      pop\n        /* \"#utility.yul\":4256:4331   */\n      swap1\n      jump\t// out\n        /* \"#utility.yul\":4337:4645   */\n    tag_54:\n        /* \"#utility.yul\":4399:4403   */\n      0x00\n        /* \"#utility.yul\":4489:4507   */\n      0xffffffffffffffff\n        /* \"#utility.yul\":4481:4487   */\n      dup3\n        /* \"#utility.yul\":4478:4508   */\n      gt\n        /* \"#utility.yul\":4475:4531   */\n      iszero\n      tag_121\n      jumpi\n        /* \"#utility.yul\":4511:4529   */\n      tag_122\n      tag_123\n      jump\t// in\n    tag_122:\n        /* \"#utility.yul\":4475:4531   */\n    tag_121:\n        /* \"#utility.yul\":4549:4578   */\n      tag_124\n        /* \"#utility.yul\":4571:4577   */\n      dup3\n        /* \"#utility.yul\":4549:4578   */\n      tag_99\n      jump\t// in\n    tag_124:\n        /* \"#utility.yul\":4541:4578   */\n      swap1\n      pop\n        /* \"#utility.yul\":4633:4637   */\n      0x20\n        /* \"#utility.yul\":4627:4631   */\n      dup2\n        /* \"#utility.yul\":4623:4638   */\n      add\n        /* \"#utility.yul\":4615:4638   */\n      swap1\n      pop\n        /* \"#utility.yul\":4337:4645   */\n      swap2\n      swap1\n      pop\n      jump\t// out\n        /* \"#utility.yul\":4651:4750   */\n    tag_93:\n        /* \"#utility.yul\":4703:4709   */\n      0x00\n        /* \"#utility.yul\":4737:4742   */\n      dup2\n        /* \"#utility.yul\":4731:4743   */\n      mload\n        /* \"#utility.yul\":4721:4743   */\n      swap1\n      pop\n        /* \"#utility.yul\":4651:4750   */\n      swap2\n      swap1\n      pop\n      jump\t// out\n        /* \"#utility.yul\":4756:4925   */\n    tag_95:\n        /* \"#utility.yul\":4840:4851   */\n      0x00\n        /* \"#utility.yul\":4874:4880   */\n      dup3\n        /* \"#utility.yul\":4869:4872   */\n      dup3\n        /* \"#utility.yul\":4862:4881   */\n      mstore\n        /* \"#utility.yul\":4914:4918   */\n      0x20\n        /* \"#utility.yul\":4909:4912   */\n      dup3\n        /* \"#utility.yul\":4905:4919   */\n      add\n        /* \"#utility.yul\":4890:4919   */\n      swap1\n      pop\n        /* \"#utility.yul\":4756:4925   */\n      swap3\n      swap2\n      pop\n      pop\n      jump\t// out\n        /* \"#utility.yul\":4931:5079   */\n    tag_104:\n        /* \"#utility.yul\":5033:5044   */\n      0x00\n        /* \"#utility.yul\":5070:5073   */\n      dup2\n        /* \"#utility.yul\":5055:5073   */\n      swap1\n      pop\n        /* \"#utility.yul\":4931:5079   */\n      swap3\n      swap2\n      pop\n      pop\n      jump\t// out\n        /* \"#utility.yul\":5085:5181   */\n    tag_89:\n        /* \"#utility.yul\":5122:5129   */\n      0x00\n        /* \"#utility.yul\":5151:5175   */\n      tag_129\n        /* \"#utility.yul\":5169:5174   */\n      dup3\n        /* \"#utility.yul\":5151:5175   */\n      tag_130\n      jump\t// in\n    tag_129:\n        /* \"#utility.yul\":5140:5175   */\n      swap1\n      pop\n        /* \"#utility.yul\":5085:5181   */\n      swap2\n      swap1\n      pop\n      jump\t// out\n        /* \"#utility.yul\":5187:5313   */\n    tag_130:\n        /* \"#utility.yul\":5224:5231   */\n      0x00\n        /* \"#utility.yul\":5264:5306   */\n      0xffffffffffffffffffffffffffffffffffffffff\n        /* \"#utility.yul\":5257:5262   */\n      dup3\n        /* \"#utility.yul\":5253:5307   */\n      and\n        /* \"#utility.yul\":5242:5307   */\n      swap1\n      pop\n        /* \"#utility.yul\":5187:5313   */\n      swap2\n      swap1\n      pop\n      jump\t// out\n        /* \"#utility.yul\":5319:5396   */\n    tag_132:\n        /* \"#utility.yul\":5356:5363   */\n      0x00\n        /* \"#utility.yul\":5385:5390   */\n      dup2\n        /* \"#utility.yul\":5374:5390   */\n      swap1\n      pop\n        /* \"#utility.yul\":5319:5396   */\n      swap2\n      swap1\n      pop\n      jump\t// out\n        /* \"#utility.yul\":5402:5556   */\n    tag_60:\n        /* \"#utility.yul\":5486:5492   */\n      dup3\n        /* \"#utility.yul\":5481:5484   */\n      dup2\n        /* \"#utility.yul\":5476:5479   */\n      dup4\n        /* \"#utility.yul\":5463:5493   */\n      calldatacopy\n        /* \"#utility.yul\":5548:5549   */\n      0x00\n        /* \"#utility.yul\":5539:5545   */\n      dup4\n        /* \"#utility.yul\":5534:5537   */\n      dup4\n        /* \"#utility.yul\":5530:5546   */\n      add\n        /* \"#utility.yul\":5523:5550   */\n      mstore\n        /* \"#utility.yul\":5402:5556   */\n      pop\n      pop\n      pop\n      jump\t// out\n        /* \"#utility.yul\":5562:5869   */\n    tag_97:\n        /* \"#utility.yul\":5630:5631   */\n      0x00\n        /* \"#utility.yul\":5640:5753   */\n    tag_136:\n        /* \"#utility.yul\":5654:5660   */\n      dup4\n        /* \"#utility.yul\":5651:5652   */\n      dup2\n        /* \"#utility.yul\":5648:5661   */\n      lt\n        /* \"#utility.yul\":5640:5753   */\n      iszero\n      tag_138\n      jumpi\n        /* \"#utility.yul\":5739:5740   */\n      dup1\n        /* \"#utility.yul\":5734:5737   */\n      dup3\n        /* \"#utility.yul\":5730:5741   */\n      add\n        /* \"#utility.yul\":5724:5742   */\n      mload\n        /* \"#utility.yul\":5720:5721   */\n      dup2\n        /* \"#utility.yul\":5715:5718   */\n      dup5\n        /* \"#utility.yul\":5711:5722   */\n      add\n        /* \"#utility.yul\":5704:5743   */\n      mstore\n        /* \"#utility.yul\":5676:5678   */\n      0x20\n        /* \"#utility.yul\":5673:5674   */\n      dup2\n        /* \"#utility.yul\":5669:5679   */\n      add\n        /* \"#utility.yul\":5664:5679   */\n      swap1\n      pop\n        /* \"#utility.yul\":5640:5753   */\n      jump(tag_136)\n    tag_138:\n        /* \"#utility.yul\":5771:5777   */\n      dup4\n        /* \"#utility.yul\":5768:5769   */\n      dup2\n        /* \"#utility.yul\":5765:5778   */\n      gt\n        /* \"#utility.yul\":5762:5863   */\n      iszero\n      tag_139\n      jumpi\n        /* \"#utility.yul\":5851:5852   */\n      0x00\n        /* \"#utility.yul\":5842:5848   */\n      dup5\n        /* \"#utility.yul\":5837:5840   */\n      dup5\n        /* \"#utility.yul\":5833:5849   */\n      add\n        /* \"#utility.yul\":5826:5853   */\n      mstore\n        /* \"#utility.yul\":5762:5863   */\n    tag_139:\n        /* \"#utility.yul\":5611:5869   */\n      pop\n        /* \"#utility.yul\":5562:5869   */\n      pop\n      pop\n      pop\n      jump\t// out\n        /* \"#utility.yul\":5875:6195   */\n    tag_29:\n        /* \"#utility.yul\":5919:5925   */\n      0x00\n        /* \"#utility.yul\":5956:5957   */\n      0x02\n        /* \"#utility.yul\":5950:5954   */\n      dup3\n        /* \"#utility.yul\":5946:5958   */\n      div\n        /* \"#utility.yul\":5936:5958   */\n      swap1\n      pop\n        /* \"#utility.yul\":6003:6004   */\n      0x01\n        /* \"#utility.yul\":5997:6001   */\n      dup3\n        /* \"#utility.yul\":5993:6005   */\n      and\n        /* \"#utility.yul\":6024:6042   */\n      dup1\n        /* \"#utility.yul\":6014:6095   */\n      tag_141\n      jumpi\n        /* \"#utility.yul\":6080:6084   */\n      0x7f\n        /* \"#utility.yul\":6072:6078   */\n      dup3\n        /* \"#utility.yul\":6068:6085   */\n      and\n        /* \"#utility.yul\":6058:6085   */\n      swap2\n      pop\n        /* \"#utility.yul\":6014:6095   */\n    tag_141:\n        /* \"#utility.yul\":6142:6144   */\n      0x20\n        /* \"#utility.yul\":6134:6140   */\n      dup3\n        /* \"#utility.yul\":6131:6145   */\n      lt\n        /* \"#utility.yul\":6111:6129   */\n      dup2\n        /* \"#utility.yul\":6108:6146   */\n      eq\n        /* \"#utility.yul\":6105:6189   */\n      iszero\n      tag_142\n      jumpi\n        /* \"#utility.yul\":6161:6179   */\n      tag_143\n      tag_144\n      jump\t// in\n    tag_143:\n        /* \"#utility.yul\":6105:6189   */\n    tag_142:\n        /* \"#utility.yul\":5926:6195   */\n      pop\n        /* \"#utility.yul\":5875:6195   */\n      swap2\n      swap1\n      pop\n      jump\t// out\n        /* \"#utility.yul\":6201:6482   */\n    tag_118:\n        /* \"#utility.yul\":6284:6311   */\n      tag_146\n        /* \"#utility.yul\":6306:6310   */\n      dup3\n        /* \"#utility.yul\":6284:6311   */\n      tag_99\n      jump\t// in\n    tag_146:\n        /* \"#utility.yul\":6276:6282   */\n      dup2\n        /* \"#utility.yul\":6272:6312   */\n      add\n        /* \"#utility.yul\":6414:6420   */\n      dup2\n        /* \"#utility.yul\":6402:6412   */\n      dup2\n        /* \"#utility.yul\":6399:6421   */\n      lt\n        /* \"#utility.yul\":6378:6396   */\n      0xffffffffffffffff\n        /* \"#utility.yul\":6366:6376   */\n      dup3\n        /* \"#utility.yul\":6363:6397   */\n      gt\n        /* \"#utility.yul\":6360:6422   */\n      or\n        /* \"#utility.yul\":6357:6445   */\n      iszero\n      tag_147\n      jumpi\n        /* \"#utility.yul\":6425:6443   */\n      tag_148\n      tag_123\n      jump\t// in\n    tag_148:\n        /* \"#utility.yul\":6357:6445   */\n    tag_147:\n        /* \"#utility.yul\":6465:6475   */\n      dup1\n        /* \"#utility.yul\":6461:6463   */\n      0x40\n        /* \"#utility.yul\":6454:6476   */\n      mstore\n        /* \"#utility.yul\":6244:6482   */\n      pop\n        /* \"#utility.yul\":6201:6482   */\n      pop\n      pop\n      jump\t// out\n        /* \"#utility.yul\":6488:6668   */\n    tag_144:\n        /* \"#utility.yul\":6536:6613   */\n      0x4e487b7100000000000000000000000000000000000000000000000000000000\n        /* \"#utility.yul\":6533:6534   */\n      0x00\n        /* \"#utility.yul\":6526:6614   */\n      mstore\n        /* \"#utility.yul\":6633:6637   */\n      0x22\n        /* \"#utility.yul\":6630:6631   */\n      0x04\n        /* \"#utility.yul\":6623:6638   */\n      mstore\n        /* \"#utility.yul\":6657:6661   */\n      0x24\n        /* \"#utility.yul\":6654:6655   */\n      0x00\n        /* \"#utility.yul\":6647:6662   */\n      revert\n        /* \"#utility.yul\":6674:6854   */\n    tag_123:\n        /* \"#utility.yul\":6722:6799   */\n      0x4e487b7100000000000000000000000000000000000000000000000000000000\n        /* \"#utility.yul\":6719:6720   */\n      0x00\n        /* \"#utility.yul\":6712:6800   */\n      mstore\n        /* \"#utility.yul\":6819:6823   */\n      0x41\n        /* \"#utility.yul\":6816:6817   */\n      0x04\n        /* \"#utility.yul\":6809:6824   */\n      mstore\n        /* \"#utility.yul\":6843:6847   */\n      0x24\n        /* \"#utility.yul\":6840:6841   */\n      0x00\n        /* \"#utility.yul\":6833:6848   */\n      revert\n        /* \"#utility.yul\":6860:6977   */\n    tag_65:\n        /* \"#utility.yul\":6969:6970   */\n      0x00\n        /* \"#utility.yul\":6966:6967   */\n      dup1\n        /* \"#utility.yul\":6959:6971   */\n      revert\n        /* \"#utility.yul\":6983:7100   */\n    tag_58:\n        /* \"#utility.yul\":7092:7093   */\n      0x00\n        /* \"#utility.yul\":7089:7090   */\n      dup1\n        /* \"#utility.yul\":7082:7094   */\n      revert\n        /* \"#utility.yul\":7106:7223   */\n    tag_77:\n        /* \"#utility.yul\":7215:7216   */\n      0x00\n        /* \"#utility.yul\":7212:7213   */\n      dup1\n        /* \"#utility.yul\":7205:7217   */\n      revert\n        /* \"#utility.yul\":7229:7346   */\n    tag_74:\n        /* \"#utility.yul\":7338:7339   */\n      0x00\n        /* \"#utility.yul\":7335:7336   */\n      dup1\n        /* \"#utility.yul\":7328:7340   */\n      revert\n        /* \"#utility.yul\":7352:7454   */\n    tag_99:\n        /* \"#utility.yul\":7393:7399   */\n      0x00\n        /* \"#utility.yul\":7444:7446   */\n      0x1f\n        /* \"#utility.yul\":7440:7447   */\n      not\n        /* \"#utility.yul\":7435:7437   */\n      0x1f\n        /* \"#utility.yul\":7428:7433   */\n      dup4\n        /* \"#utility.yul\":7424:7438   */\n      add\n        /* \"#utility.yul\":7420:7448   */\n      and\n        /* \"#utility.yul\":7410:7448   */\n      swap1\n      pop\n        /* \"#utility.yul\":7352:7454   */\n      swap2\n      swap1\n      pop\n      jump\t// out\n        /* \"#utility.yul\":7460:7582   */\n    tag_70:\n        /* \"#utility.yul\":7533:7557   */\n      tag_157\n        /* \"#utility.yul\":7551:7556   */\n      dup2\n        /* \"#utility.yul\":7533:7557   */\n      tag_132\n      jump\t// in\n    tag_157:\n        /* \"#utility.yul\":7526:7531   */\n      dup2\n        /* \"#utility.yul\":7523:7558   */\n      eq\n        /* \"#utility.yul\":7513:7576   */\n      tag_158\n      jumpi\n        /* \"#utility.yul\":7572:7573   */\n      0x00\n        /* \"#utility.yul\":7569:7570   */\n      dup1\n        /* \"#utility.yul\":7562:7574   */\n      revert\n        /* \"#utility.yul\":7513:7576   */\n    tag_158:\n        /* \"#utility.yul\":7460:7582   */\n      pop\n      jump\t// out\n\n    auxdata: 0xa2646970667358221220c93447c96486273785ebf6234316221127a793aa16095d52871f398a429b801664736f6c63430008070033\n}\n",
				"bytecode": {
					"linkReferences": {},
					"object": "608060405234801561001057600080fd5b50610877806100206000396000f3fe608060405234801561001057600080fd5b50600436106100415760003560e01c80630b1e7f8314610046578063392338f514610076578063fdd6ea7114610092575b600080fd5b610060600480360381019061005b919061052c565b6100c4565b60405161006d91906105e9565b60405180910390f35b610090600480360381019061008b91906104b4565b6100f7565b005b6100ac60048036038101906100a7919061052c565b610232565b6040516100bb93929190610604565b60405180910390f35b60006020528060005260406000206000915054906101000a900473ffffffffffffffffffffffffffffffffffffffff1681565b60405180606001604052808381526020018281526020013373ffffffffffffffffffffffffffffffffffffffff1681525060016000808152602001908152602001600020600082015181600001908051906020019061015792919061038c565b50602082015181600101908051906020019061017492919061038c565b5060408201518160020160006101000a81548173ffffffffffffffffffffffffffffffffffffffff021916908373ffffffffffffffffffffffffffffffffffffffff160217905550905050806040516101cd91906105d2565b6040518091039020826040516101e391906105d2565b60405180910390203373ffffffffffffffffffffffffffffffffffffffff167f4eacffc497062f11928adc3628e2047cd720623235f6f37529db1d95cc75ecbf60405160405180910390a45050565b600160205280600052604060002060009150905080600001805461025590610744565b80601f016020809104026020016040519081016040528092919081815260200182805461028190610744565b80156102ce5780601f106102a3576101008083540402835291602001916102ce565b820191906000526020600020905b8154815290600101906020018083116102b157829003601f168201915b5050505050908060010180546102e390610744565b80601f016020809104026020016040519081016040528092919081815260200182805461030f90610744565b801561035c5780601f106103315761010080835404028352916020019161035c565b820191906000526020600020905b81548152906001019060200180831161033f57829003601f168201915b5050505050908060020160009054906101000a900473ffffffffffffffffffffffffffffffffffffffff16905083565b82805461039890610744565b90600052602060002090601f0160209004810192826103ba5760008555610401565b82601f106103d357805160ff1916838001178555610401565b82800160010185558215610401579182015b828111156104005782518255916020019190600101906103e5565b5b50905061040e9190610412565b5090565b5b8082111561042b576000816000905550600101610413565b5090565b600061044261043d8461066e565b610649565b90508281526020810184848401111561045e5761045d61080a565b5b610469848285610702565b509392505050565b600082601f83011261048657610485610805565b5b813561049684826020860161042f565b91505092915050565b6000813590506104ae8161082a565b92915050565b600080604083850312156104cb576104ca610814565b5b600083013567ffffffffffffffff8111156104e9576104e861080f565b5b6104f585828601610471565b925050602083013567ffffffffffffffff8111156105165761051561080f565b5b61052285828601610471565b9150509250929050565b60006020828403121561054257610541610814565b5b60006105508482850161049f565b91505092915050565b610562816106c6565b82525050565b60006105738261069f565b61057d81856106aa565b935061058d818560208601610711565b61059681610819565b840191505092915050565b60006105ac8261069f565b6105b681856106bb565b93506105c6818560208601610711565b80840191505092915050565b60006105de82846105a1565b915081905092915050565b60006020820190506105fe6000830184610559565b92915050565b6000606082019050818103600083015261061e8186610568565b905081810360208301526106328185610568565b90506106416040830184610559565b949350505050565b6000610653610664565b905061065f8282610776565b919050565b6000604051905090565b600067ffffffffffffffff821115610689576106886107d6565b5b61069282610819565b9050602081019050919050565b600081519050919050565b600082825260208201905092915050565b600081905092915050565b60006106d1826106d8565b9050919050565b600073ffffffffffffffffffffffffffffffffffffffff82169050919050565b6000819050919050565b82818337600083830152505050565b60005b8381101561072f578082015181840152602081019050610714565b8381111561073e576000848401525b50505050565b6000600282049050600182168061075c57607f821691505b602082108114156107705761076f6107a7565b5b50919050565b61077f82610819565b810181811067ffffffffffffffff8211171561079e5761079d6107d6565b5b80604052505050565b7f4e487b7100000000000000000000000000000000000000000000000000000000600052602260045260246000fd5b7f4e487b7100000000000000000000000000000000000000000000000000000000600052604160045260246000fd5b600080fd5b600080fd5b600080fd5b600080fd5b6000601f19601f8301169050919050565b610833816106f8565b811461083e57600080fd5b5056fea2646970667358221220c93447c96486273785ebf6234316221127a793aa16095d52871f398a429b801664736f6c63430008070033",
					"opcodes": "PUSH1 0x80 PUSH1 0x40 MSTORE CALLVALUE DUP1 ISZERO PUSH2 0x10 JUMPI PUSH1 0x0 DUP1 REVERT JUMPDEST POP PUSH2 0x877 DUP1 PUSH2 0x20 PUSH1 0x0 CODECOPY PUSH1 0x0 RETURN INVALID PUSH1 0x80 PUSH1 0x40 MSTORE CALLVALUE DUP1 ISZERO PUSH2 0x10 JUMPI PUSH1 0x0 DUP1 REVERT JUMPDEST POP PUSH1 0x4 CALLDATASIZE LT PUSH2 0x41 JUMPI PUSH1 0x0 CALLDATALOAD PUSH1 0xE0 SHR DUP1 PUSH4 0xB1E7F83 EQ PUSH2 0x46 JUMPI DUP1 PUSH4 0x392338F5 EQ PUSH2 0x76 JUMPI DUP1 PUSH4 0xFDD6EA71 EQ PUSH2 0x92 JUMPI JUMPDEST PUSH1 0x0 DUP1 REVERT JUMPDEST PUSH2 0x60 PUSH1 0x4 DUP1 CALLDATASIZE SUB DUP2 ADD SWAP1 PUSH2 0x5B SWAP2 SWAP1 PUSH2 0x52C JUMP JUMPDEST PUSH2 0xC4 JUMP JUMPDEST PUSH1 0x40 MLOAD PUSH2 0x6D SWAP2 SWAP1 PUSH2 0x5E9 JUMP JUMPDEST PUSH1 0x40 MLOAD DUP1 SWAP2 SUB SWAP1 RETURN JUMPDEST PUSH2 0x90 PUSH1 0x4 DUP1 CALLDATASIZE SUB DUP2 ADD SWAP1 PUSH2 0x8B SWAP2 SWAP1 PUSH2 0x4B4 JUMP JUMPDEST PUSH2 0xF7 JUMP JUMPDEST STOP JUMPDEST PUSH2 0xAC PUSH1 0x4 DUP1 CALLDATASIZE SUB DUP2 ADD SWAP1 PUSH2 0xA7 SWAP2 SWAP1 PUSH2 0x52C JUMP JUMPDEST PUSH2 0x232 JUMP JUMPDEST PUSH1 0x40 MLOAD PUSH2 0xBB SWAP4 SWAP3 SWAP2 SWAP1 PUSH2 0x604 JUMP JUMPDEST PUSH1 0x40 MLOAD DUP1 SWAP2 SUB SWAP1 RETURN JUMPDEST PUSH1 0x0 PUSH1 0x20 MSTORE DUP1 PUSH1 0x0 MSTORE PUSH1 0x40 PUSH1 0x0 KECCAK256 PUSH1 0x0 SWAP2 POP SLOAD SWAP1 PUSH2 0x100 EXP SWAP1 DIV PUSH20 0xFFFFFFFFFFFFFFFFFFFFFFFFFFFFFFFFFFFFFFFF AND DUP2 JUMP JUMPDEST PUSH1 0x40 MLOAD DUP1 PUSH1 0x60 ADD PUSH1 0x40 MSTORE DUP1 DUP4 DUP2 MSTORE PUSH1 0x20 ADD DUP3 DUP2 MSTORE PUSH1 0x20 ADD CALLER PUSH20 0xFFFFFFFFFFFFFFFFFFFFFFFFFFFFFFFFFFFFFFFF AND DUP2 MSTORE POP PUSH1 0x1 PUSH1 0x0 DUP1 DUP2 MSTORE PUSH1 0x20 ADD SWAP1 DUP2 MSTORE PUSH1 0x20 ADD PUSH1 0x0 KECCAK256 PUSH1 0x0 DUP3 ADD MLOAD DUP2 PUSH1 0x0 ADD SWAP1 DUP1 MLOAD SWAP1 PUSH1 0x20 ADD SWAP1 PUSH2 0x157 SWAP3 SWAP2 SWAP1 PUSH2 0x38C JUMP JUMPDEST POP PUSH1 0x20 DUP3 ADD MLOAD DUP2 PUSH1 0x1 ADD SWAP1 DUP1 MLOAD SWAP1 PUSH1 0x20 ADD SWAP1 PUSH2 0x174 SWAP3 SWAP2 SWAP1 PUSH2 0x38C JUMP JUMPDEST POP PUSH1 0x40 DUP3 ADD MLOAD DUP2 PUSH1 0x2 ADD PUSH1 0x0 PUSH2 0x100 EXP DUP2 SLOAD DUP2 PUSH20 0xFFFFFFFFFFFFFFFFFFFFFFFFFFFFFFFFFFFFFFFF MUL NOT AND SWAP1 DUP4 PUSH20 0xFFFFFFFFFFFFFFFFFFFFFFFFFFFFFFFFFFFFFFFF AND MUL OR SWAP1 SSTORE POP SWAP1 POP POP DUP1 PUSH1 0x40 MLOAD PUSH2 0x1CD SWAP2 SWAP1 PUSH2 0x5D2 JUMP JUMPDEST PUSH1 0x40 MLOAD DUP1 SWAP2 SUB SWAP1 KECCAK256 DUP3 PUSH1 0x40 MLOAD PUSH2 0x1E3 SWAP2 SWAP1 PUSH2 0x5D2 JUMP JUMPDEST PUSH1 0x40 MLOAD DUP1 SWAP2 SUB SWAP1 KECCAK256 CALLER PUSH20 0xFFFFFFFFFFFFFFFFFFFFFFFFFFFFFFFFFFFFFFFF AND PUSH32 0x4EACFFC497062F11928ADC3628E2047CD720623235F6F37529DB1D95CC75ECBF PUSH1 0x40 MLOAD PUSH1 0x40 MLOAD DUP1 SWAP2 SUB SWAP1 LOG4 POP POP JUMP JUMPDEST PUSH1 0x1 PUSH1 0x20 MSTORE DUP1 PUSH1 0x0 MSTORE PUSH1 0x40 PUSH1 0x0 KECCAK256 PUSH1 0x0 SWAP2 POP SWAP1 POP DUP1 PUSH1 0x0 ADD DUP1 SLOAD PUSH2 0x255 SWAP1 PUSH2 0x744 JUMP JUMPDEST DUP1 PUSH1 0x1F ADD PUSH1 0x20 DUP1 SWAP2 DIV MUL PUSH1 0x20 ADD PUSH1 0x40 MLOAD SWAP1 DUP2 ADD PUSH1 0x40 MSTORE DUP1 SWAP3 SWAP2 SWAP1 DUP2 DUP2 MSTORE PUSH1 0x20 ADD DUP3 DUP1 SLOAD PUSH2 0x281 SWAP1 PUSH2 0x744 JUMP JUMPDEST DUP1 ISZERO PUSH2 0x2CE JUMPI DUP1 PUSH1 0x1F LT PUSH2 0x2A3 JUMPI PUSH2 0x100 DUP1 DUP4 SLOAD DIV MUL DUP4 MSTORE SWAP2 PUSH1 0x20 ADD SWAP2 PUSH2 0x2CE JUMP JUMPDEST DUP3 ADD SWAP2 SWAP1 PUSH1 0x0 MSTORE PUSH1 0x20 PUSH1 0x0 KECCAK256 SWAP1 JUMPDEST DUP2 SLOAD DUP2 MSTORE SWAP1 PUSH1 0x1 ADD SWAP1 PUSH1 0x20 ADD DUP1 DUP4 GT PUSH2 0x2B1 JUMPI DUP3 SWAP1 SUB PUSH1 0x1F AND DUP3 ADD SWAP2 JUMPDEST POP POP POP POP POP SWAP1 DUP1 PUSH1 0x1 ADD DUP1 SLOAD PUSH2 0x2E3 SWAP1 PUSH2 0x744 JUMP JUMPDEST DUP1 PUSH1 0x1F ADD PUSH1 0x20 DUP1 SWAP2 DIV MUL PUSH1 0x20 ADD PUSH1 0x40 MLOAD SWAP1 DUP2 ADD PUSH1 0x40 MSTORE DUP1 SWAP3 SWAP2 SWAP1 DUP2 DUP2 MSTORE PUSH1 0x20 ADD DUP3 DUP1 SLOAD PUSH2 0x30F SWAP1 PUSH2 0x744 JUMP JUMPDEST DUP1 ISZERO PUSH2 0x35C JUMPI DUP1 PUSH1 0x1F LT PUSH2 0x331 JUMPI PUSH2 0x100 DUP1 DUP4 SLOAD DIV MUL DUP4 MSTORE SWAP2 PUSH1 0x20 ADD SWAP2 PUSH2 0x35C JUMP JUMPDEST DUP3 ADD SWAP2 SWAP1 PUSH1 0x0 MSTORE PUSH1 0x20 PUSH1 0x0 KECCAK256 SWAP1 JUMPDEST DUP2 SLOAD DUP2 MSTORE SWAP1 PUSH1 0x1 ADD SWAP1 PUSH1 0x20 ADD DUP1 DUP4 GT PUSH2 0x33F JUMPI DUP3 SWAP1 SUB PUSH1 0x1F AND DUP3 ADD SWAP2 JUMPDEST POP POP POP POP POP SWAP1 DUP1 PUSH1 0x2 ADD PUSH1 0x0 SWAP1 SLOAD SWAP1 PUSH2 0x100 EXP SWAP1 DIV PUSH20 0xFFFFFFFFFFFFFFFFFFFFFFFFFFFFFFFFFFFFFFFF AND SWAP1 POP DUP4 JUMP JUMPDEST DUP3 DUP1 SLOAD PUSH2 0x398 SWAP1 PUSH2 0x744 JUMP JUMPDEST SWAP1 PUSH1 0x0 MSTORE PUSH1 0x20 PUSH1 0x0 KECCAK256 SWAP1 PUSH1 0x1F ADD PUSH1 0x20 SWAP1 DIV DUP2 ADD SWAP3 DUP3 PUSH2 0x3BA JUMPI PUSH1 0x0 DUP6 SSTORE PUSH2 0x401 JUMP JUMPDEST DUP3 PUSH1 0x1F LT PUSH2 0x3D3 JUMPI DUP1 MLOAD PUSH1 0xFF NOT AND DUP4 DUP1 ADD OR DUP6 SSTORE PUSH2 0x401 JUMP JUMPDEST DUP3 DUP1 ADD PUSH1 0x1 ADD DUP6 SSTORE DUP3 ISZERO PUSH2 0x401 JUMPI SWAP2 DUP3 ADD JUMPDEST DUP3 DUP2 GT ISZERO PUSH2 0x400 JUMPI DUP3 MLOAD DUP3 SSTORE SWAP2 PUSH1 0x20 ADD SWAP2 SWAP1 PUSH1 0x1 ADD SWAP1 PUSH2 0x3E5 JUMP JUMPDEST JUMPDEST POP SWAP1 POP PUSH2 0x40E SWAP2 SWAP1 PUSH2 0x412 JUMP JUMPDEST POP SWAP1 JUMP JUMPDEST JUMPDEST DUP1 DUP3 GT ISZERO PUSH2 0x42B JUMPI PUSH1 0x0 DUP2 PUSH1 0x0 SWAP1 SSTORE POP PUSH1 0x1 ADD PUSH2 0x413 JUMP JUMPDEST POP SWAP1 JUMP JUMPDEST PUSH1 0x0 PUSH2 0x442 PUSH2 0x43D DUP5 PUSH2 0x66E JUMP JUMPDEST PUSH2 0x649 JUMP JUMPDEST SWAP1 POP DUP3 DUP2 MSTORE PUSH1 0x20 DUP2 ADD DUP5 DUP5 DUP5 ADD GT ISZERO PUSH2 0x45E JUMPI PUSH2 0x45D PUSH2 0x80A JUMP JUMPDEST JUMPDEST PUSH2 0x469 DUP5 DUP3 DUP6 PUSH2 0x702 JUMP JUMPDEST POP SWAP4 SWAP3 POP POP POP JUMP JUMPDEST PUSH1 0x0 DUP3 PUSH1 0x1F DUP4 ADD SLT PUSH2 0x486 JUMPI PUSH2 0x485 PUSH2 0x805 JUMP JUMPDEST JUMPDEST DUP2 CALLDATALOAD PUSH2 0x496 DUP5 DUP3 PUSH1 0x20 DUP7 ADD PUSH2 0x42F JUMP JUMPDEST SWAP2 POP POP SWAP3 SWAP2 POP POP JUMP JUMPDEST PUSH1 0x0 DUP2 CALLDATALOAD SWAP1 POP PUSH2 0x4AE DUP2 PUSH2 0x82A JUMP JUMPDEST SWAP3 SWAP2 POP POP JUMP JUMPDEST PUSH1 0x0 DUP1 PUSH1 0x40 DUP4 DUP6 SUB SLT ISZERO PUSH2 0x4CB JUMPI PUSH2 0x4CA PUSH2 0x814 JUMP JUMPDEST JUMPDEST PUSH1 0x0 DUP4 ADD CALLDATALOAD PUSH8 0xFFFFFFFFFFFFFFFF DUP2 GT ISZERO PUSH2 0x4E9 JUMPI PUSH2 0x4E8 PUSH2 0x80F JUMP JUMPDEST JUMPDEST PUSH2 0x4F5 DUP6 DUP3 DUP7 ADD PUSH2 0x471 JUMP JUMPDEST SWAP3 POP POP PUSH1 0x20 DUP4 ADD CALLDATALOAD PUSH8 0xFFFFFFFFFFFFFFFF DUP2 GT ISZERO PUSH2 0x516 JUMPI PUSH2 0x515 PUSH2 0x80F JUMP JUMPDEST JUMPDEST PUSH2 0x522 DUP6 DUP3 DUP7 ADD PUSH2 0x471 JUMP JUMPDEST SWAP2 POP POP SWAP3 POP SWAP3 SWAP1 POP JUMP JUMPDEST PUSH1 0x0 PUSH1 0x20 DUP3 DUP5 SUB SLT ISZERO PUSH2 0x542 JUMPI PUSH2 0x541 PUSH2 0x814 JUMP JUMPDEST JUMPDEST PUSH1 0x0 PUSH2 0x550 DUP5 DUP3 DUP6 ADD PUSH2 0x49F JUMP JUMPDEST SWAP2 POP POP SWAP3 SWAP2 POP POP JUMP JUMPDEST PUSH2 0x562 DUP2 PUSH2 0x6C6 JUMP JUMPDEST DUP3 MSTORE POP POP JUMP JUMPDEST PUSH1 0x0 PUSH2 0x573 DUP3 PUSH2 0x69F JUMP JUMPDEST PUSH2 0x57D DUP2 DUP6 PUSH2 0x6AA JUMP JUMPDEST SWAP4 POP PUSH2 0x58D DUP2 DUP6 PUSH1 0x20 DUP7 ADD PUSH2 0x711 JUMP JUMPDEST PUSH2 0x596 DUP2 PUSH2 0x819 JUMP JUMPDEST DUP5 ADD SWAP2 POP POP SWAP3 SWAP2 POP POP JUMP JUMPDEST PUSH1 0x0 PUSH2 0x5AC DUP3 PUSH2 0x69F JUMP JUMPDEST PUSH2 0x5B6 DUP2 DUP6 PUSH2 0x6BB JUMP JUMPDEST SWAP4 POP PUSH2 0x5C6 DUP2 DUP6 PUSH1 0x20 DUP7 ADD PUSH2 0x711 JUMP JUMPDEST DUP1 DUP5 ADD SWAP2 POP POP SWAP3 SWAP2 POP POP JUMP JUMPDEST PUSH1 0x0 PUSH2 0x5DE DUP3 DUP5 PUSH2 0x5A1 JUMP JUMPDEST SWAP2 POP DUP2 SWAP1 POP SWAP3 SWAP2 POP POP JUMP JUMPDEST PUSH1 0x0 PUSH1 0x20 DUP3 ADD SWAP1 POP PUSH2 0x5FE PUSH1 0x0 DUP4 ADD DUP5 PUSH2 0x559 JUMP JUMPDEST SWAP3 SWAP2 POP POP JUMP JUMPDEST PUSH1 0x0 PUSH1 0x60 DUP3 ADD SWAP1 POP DUP2 DUP2 SUB PUSH1 0x0 DUP4 ADD MSTORE PUSH2 0x61E DUP2 DUP7 PUSH2 0x568 JUMP JUMPDEST SWAP1 POP DUP2 DUP2 SUB PUSH1 0x20 DUP4 ADD MSTORE PUSH2 0x632 DUP2 DUP6 PUSH2 0x568 JUMP JUMPDEST SWAP1 POP PUSH2 0x641 PUSH1 0x40 DUP4 ADD DUP5 PUSH2 0x559 JUMP JUMPDEST SWAP5 SWAP4 POP POP POP POP JUMP JUMPDEST PUSH1 0x0 PUSH2 0x653 PUSH2 0x664 JUMP JUMPDEST SWAP1 POP PUSH2 0x65F DUP3 DUP3 PUSH2 0x776 JUMP JUMPDEST SWAP2 SWAP1 POP JUMP JUMPDEST PUSH1 0x0 PUSH1 0x40 MLOAD SWAP1 POP SWAP1 JUMP JUMPDEST PUSH1 0x0 PUSH8 0xFFFFFFFFFFFFFFFF DUP3 GT ISZERO PUSH2 0x689 JUMPI PUSH2 0x688 PUSH2 0x7D6 JUMP JUMPDEST JUMPDEST PUSH2 0x692 DUP3 PUSH2 0x819 JUMP JUMPDEST SWAP1 POP PUSH1 0x20 DUP2 ADD SWAP1 POP SWAP2 SWAP1 POP JUMP JUMPDEST PUSH1 0x0 DUP2 MLOAD SWAP1 POP SWAP2 SWAP1 POP JUMP JUMPDEST PUSH1 0x0 DUP3 DUP3 MSTORE PUSH1 0x20 DUP3 ADD SWAP1 POP SWAP3 SWAP2 POP POP JUMP JUMPDEST PUSH1 0x0 DUP2 SWAP1 POP SWAP3 SWAP2 POP POP JUMP JUMPDEST PUSH1 0x0 PUSH2 0x6D1 DUP3 PUSH2 0x6D8 JUMP JUMPDEST SWAP1 POP SWAP2 SWAP1 POP JUMP JUMPDEST PUSH1 0x0 PUSH20 0xFFFFFFFFFFFFFFFFFFFFFFFFFFFFFFFFFFFFFFFF DUP3 AND SWAP1 POP SWAP2 SWAP1 POP JUMP JUMPDEST PUSH1 0x0 DUP2 SWAP1 POP SWAP2 SWAP1 POP JUMP JUMPDEST DUP3 DUP2 DUP4 CALLDATACOPY PUSH1 0x0 DUP4 DUP4 ADD MSTORE POP POP POP JUMP JUMPDEST PUSH1 0x0 JUMPDEST DUP4 DUP2 LT ISZERO PUSH2 0x72F JUMPI DUP1 DUP3 ADD MLOAD DUP2 DUP5 ADD MSTORE PUSH1 0x20 DUP2 ADD SWAP1 POP PUSH2 0x714 JUMP JUMPDEST DUP4 DUP2 GT ISZERO PUSH2 0x73E JUMPI PUSH1 0x0 DUP5 DUP5 ADD MSTORE JUMPDEST POP POP POP POP JUMP JUMPDEST PUSH1 0x0 PUSH1 0x2 DUP3 DIV SWAP1 POP PUSH1 0x1 DUP3 AND DUP1 PUSH2 0x75C JUMPI PUSH1 0x7F DUP3 AND SWAP2 POP JUMPDEST PUSH1 0x20 DUP3 LT DUP2 EQ ISZERO PUSH2 0x770 JUMPI PUSH2 0x76F PUSH2 0x7A7 JUMP JUMPDEST JUMPDEST POP SWAP2 SWAP1 POP JUMP JUMPDEST PUSH2 0x77F DUP3 PUSH2 0x819 JUMP JUMPDEST DUP2 ADD DUP2 DUP2 LT PUSH8 0xFFFFFFFFFFFFFFFF DUP3 GT OR ISZERO PUSH2 0x79E JUMPI PUSH2 0x79D PUSH2 0x7D6 JUMP JUMPDEST JUMPDEST DUP1 PUSH1 0x40 MSTORE POP POP POP JUMP JUMPDEST PUSH32 0x4E487B7100000000000000000000000000000000000000000000000000000000 PUSH1 0x0 MSTORE PUSH1 0x22 PUSH1 0x4 MSTORE PUSH1 0x24 PUSH1 0x0 REVERT JUMPDEST PUSH32 0x4E487B7100000000000000000000000000000000000000000000000000000000 PUSH1 0x0 MSTORE PUSH1 0x41 PUSH1 0x4 MSTORE PUSH1 0x24 PUSH1 0x0 REVERT JUMPDEST PUSH1 0x0 DUP1 REVERT JUMPDEST PUSH1 0x0 DUP1 REVERT JUMPDEST PUSH1 0x0 DUP1 REVERT JUMPDEST PUSH1 0x0 DUP1 REVERT JUMPDEST PUSH1 0x0 PUSH1 0x1F NOT PUSH1 0x1F DUP4 ADD AND SWAP1 POP SWAP2 SWAP1 POP JUMP JUMPDEST PUSH2 0x833 DUP2 PUSH2 0x6F8 JUMP JUMPDEST DUP2 EQ PUSH2 0x83E JUMPI PUSH1 0x0 DUP1 REVERT JUMPDEST POP JUMP INVALID LOG2 PUSH5 0x6970667358 0x22 SLT KECCAK256 0xC9 CALLVALUE SELFBALANCE 0xC9 PUSH5 0x86273785EB 0xF6 0x23 NUMBER AND 0x22 GT 0x27 0xA7 SWAP4 0xAA AND MULMOD 0x5D MSTORE DUP8 0x1F CODECOPY DUP11 TIMESTAMP SWAP12 DUP1 AND PUSH5 0x736F6C6343 STOP ADDMOD SMOD STOP CALLER "
				},
				"gasEstimates": {
					"creation": {
						"codeDepositCost": "433400",
						"executionCost": "468",
						"totalCost": "433868"
					},
					"external": {
						"createPost(string,string)": "infinite",
						"posts(uint256)": "2817",
						"userPosts(uint256)": "infinite"
					}
				},
				"methodIdentifiers": {
					"createPost(string,string)": "392338f5",
					"posts(uint256)": "0b1e7f83",
					"userPosts(uint256)": "fdd6ea71"
				}
			},
			"storageLayout": {
				"storage": [
					{
						"astId": 18,
						"contract": "contracts/blog.sol:blog",
						"label": "posts",
						"offset": 0,
						"slot": "0",
						"type": "t_mapping(t_uint256,t_address)"
					},
					{
						"astId": 23,
						"contract": "contracts/blog.sol:blog",
						"label": "userPosts",
						"offset": 0,
						"slot": "1",
						"type": "t_mapping(t_uint256,t_struct(Post)14_storage)"
					}
				],
				"types": {
					"t_address": {
						"encoding": "inplace",
						"label": "address",
						"numberOfBytes": "20"
					},
					"t_mapping(t_uint256,t_address)": {
						"encoding": "mapping",
						"key": "t_uint256",
						"label": "mapping(uint256 => address)",
						"numberOfBytes": "32",
						"value": "t_address"
					},
					"t_mapping(t_uint256,t_struct(Post)14_storage)": {
						"encoding": "mapping",
						"key": "t_uint256",
						"label": "mapping(uint256 => struct blog.Post)",
						"numberOfBytes": "32",
						"value": "t_struct(Post)14_storage"
					},
					"t_string_storage": {
						"encoding": "bytes",
						"label": "string",
						"numberOfBytes": "32"
					},
					"t_struct(Post)14_storage": {
						"encoding": "inplace",
						"label": "struct blog.Post",
						"members": [
							{
								"astId": 9,
								"contract": "contracts/blog.sol:blog",
								"label": "title",
								"offset": 0,
								"slot": "0",
								"type": "t_string_storage"
							},
							{
								"astId": 11,
								"contract": "contracts/blog.sol:blog",
								"label": "description",
								"offset": 0,
								"slot": "1",
								"type": "t_string_storage"
							},
							{
								"astId": 13,
								"contract": "contracts/blog.sol:blog",
								"label": "user",
								"offset": 0,
								"slot": "2",
								"type": "t_address"
							}
						],
						"numberOfBytes": "96"
					},
					"t_uint256": {
						"encoding": "inplace",
						"label": "uint256",
						"numberOfBytes": "32"
					}
				}
			},
			"userdoc": {
				"kind": "user",
				"methods": {},
				"version": 1
			}
		}
	}
}