{
	"contracts/basics.sol": {
		"Person": {
			"abi": [
				{
					"inputs": [
						{
							"internalType": "string",
							"name": "_name",
							"type": "string"
						},
						{
							"internalType": "uint256",
							"name": "_age",
							"type": "uint256"
						}
					],
					"stateMutability": "nonpayable",
					"type": "constructor"
				},
				{
					"inputs": [],
					"name": "age",
					"outputs": [
						{
							"internalType": "uint256",
							"name": "",
							"type": "uint256"
						}
					],
					"stateMutability": "view",
					"type": "function"
				},
				{
					"inputs": [
						{
							"internalType": "string",
							"name": "_value",
							"type": "string"
						},
						{
							"internalType": "address",
							"name": "_address",
							"type": "address"
						}
					],
					"name": "assignMappingValue",
					"outputs": [],
					"stateMutability": "nonpayable",
					"type": "function"
				},
				{
					"inputs": [
						{
							"internalType": "string",
							"name": "_color",
							"type": "string"
						},
						{
							"internalType": "string",
							"name": "_country",
							"type": "string"
						},
						{
							"internalType": "uint256",
							"name": "_height",
							"type": "uint256"
						}
					],
					"name": "assignValues",
					"outputs": [],
					"stateMutability": "nonpayable",
					"type": "function"
				},
				{
					"inputs": [],
					"name": "characterOfAPerson",
					"outputs": [
						{
							"internalType": "string",
							"name": "color",
							"type": "string"
						},
						{
							"internalType": "string",
							"name": "country",
							"type": "string"
						},
						{
							"internalType": "uint256",
							"name": "height",
							"type": "uint256"
						}
					],
					"stateMutability": "view",
					"type": "function"
				},
				{
					"inputs": [],
					"name": "choice",
					"outputs": [
						{
							"internalType": "enum Person.interest",
							"name": "",
							"type": "uint8"
						}
					],
					"stateMutability": "view",
					"type": "function"
				},
				{
					"inputs": [],
					"name": "dislikeButton",
					"outputs": [],
					"stateMutability": "nonpayable",
					"type": "function"
				},
				{
					"inputs": [
						{
							"internalType": "uint256",
							"name": "a",
							"type": "uint256"
						},
						{
							"internalType": "uint256",
							"name": "b",
							"type": "uint256"
						}
					],
					"name": "enterValues",
					"outputs": [],
					"stateMutability": "nonpayable",
					"type": "function"
				},
				{
					"inputs": [
						{
							"internalType": "uint256",
							"name": "a",
							"type": "uint256"
						},
						{
							"internalType": "uint256",
							"name": "b",
							"type": "uint256"
						},
						{
							"internalType": "uint256",
							"name": "c",
							"type": "uint256"
						},
						{
							"internalType": "uint256",
							"name": "d",
							"type": "uint256"
						}
					],
					"name": "enterValuesAgain",
					"outputs": [],
					"stateMutability": "nonpayable",
					"type": "function"
				},
				{
					"inputs": [],
					"name": "getEnumValue",
					"outputs": [
						{
							"internalType": "enum Person.interest",
							"name": "",
							"type": "uint8"
						}
					],
					"stateMutability": "view",
					"type": "function"
				},
				{
					"inputs": [],
					"name": "getMappingValue",
					"outputs": [
						{
							"internalType": "string[]",
							"name": "",
							"type": "string[]"
						}
					],
					"stateMutability": "view",
					"type": "function"
				},
				{
					"inputs": [],
					"name": "getTraits",
					"outputs": [
						{
							"internalType": "string",
							"name": "",
							"type": "string"
						}
					],
					"stateMutability": "view",
					"type": "function"
				},
				{
					"inputs": [
						{
							"internalType": "address",
							"name": "",
							"type": "address"
						}
					],
					"name": "listOfNFTNames",
					"outputs": [
						{
							"internalType": "string",
							"name": "",
							"type": "string"
						}
					],
					"stateMutability": "view",
					"type": "function"
				},
				{
					"inputs": [
						{
							"internalType": "uint256",
							"name": "",
							"type": "uint256"
						}
					],
					"name": "listsOfNFTs",
					"outputs": [
						{
							"internalType": "string",
							"name": "",
							"type": "string"
						}
					],
					"stateMutability": "view",
					"type": "function"
				},
				{
					"inputs": [
						{
							"internalType": "uint256",
							"name": "",
							"type": "uint256"
						}
					],
					"name": "luckNumbers2",
					"outputs": [
						{
							"internalType": "uint256",
							"name": "",
							"type": "uint256"
						}
					],
					"stateMutability": "view",
					"type": "function"
				},
				{
					"inputs": [
						{
							"internalType": "uint256",
							"name": "",
							"type": "uint256"
						}
					],
					"name": "luckyNumbers",
					"outputs": [
						{
							"internalType": "uint256",
							"name": "",
							"type": "uint256"
						}
					],
					"stateMutability": "view",
					"type": "function"
				},
				{
					"inputs": [],
					"name": "name",
					"outputs": [
						{
							"internalType": "string",
							"name": "",
							"type": "string"
						}
					],
					"stateMutability": "view",
					"type": "function"
				}
			],
			"devdoc": {
				"kind": "dev",
				"methods": {},
				"version": 1
			},
			"evm": {
				"assembly": "    /* \"contracts/basics.sol\":96:3003  contract Person{\r... */\n  mstore(0x40, 0x80)\n    /* \"contracts/basics.sol\":315:475  constructor(string memory _name,uint _age) public{\r... */\n  callvalue\n  dup1\n  iszero\n  tag_1\n  jumpi\n  0x00\n  dup1\n  revert\ntag_1:\n  pop\n  mload(0x40)\n  sub(codesize, bytecodeSize)\n  dup1\n  bytecodeSize\n  dup4\n  codecopy\n  dup2\n  dup2\n  add\n  0x40\n  mstore\n  dup2\n  add\n  swap1\n  tag_2\n  swap2\n  swap1\n  tag_3\n  jump\t// in\ntag_2:\n    /* \"contracts/basics.sol\":384:389  _name */\n  dup2\n    /* \"contracts/basics.sol\":377:381  name */\n  0x00\n    /* \"contracts/basics.sol\":377:389  name = _name */\n  swap1\n  dup1\n  mload\n  swap1\n  0x20\n  add\n  swap1\n  tag_6\n  swap3\n  swap2\n  swap1\n  tag_7\n  jump\t// in\ntag_6:\n  pop\n    /* \"contracts/basics.sol\":461:465  _age */\n  dup1\n    /* \"contracts/basics.sol\":454:457  age */\n  0x01\n    /* \"contracts/basics.sol\":454:465  age  = _age */\n  dup2\n  swap1\n  sstore\n  pop\n    /* \"contracts/basics.sol\":315:475  constructor(string memory _name,uint _age) public{\r... */\n  pop\n  pop\n    /* \"contracts/basics.sol\":96:3003  contract Person{\r... */\n  jump(tag_8)\ntag_7:\n  dup3\n  dup1\n  sload\n  tag_9\n  swap1\n  tag_10\n  jump\t// in\ntag_9:\n  swap1\n  0x00\n  mstore\n  keccak256(0x00, 0x20)\n  swap1\n  0x1f\n  add\n  0x20\n  swap1\n  div\n  dup2\n  add\n  swap3\n  dup3\n  tag_12\n  jumpi\n  0x00\n  dup6\n  sstore\n  jump(tag_11)\ntag_12:\n  dup3\n  0x1f\n  lt\n  tag_13\n  jumpi\n  dup1\n  mload\n  not(0xff)\n  and\n  dup4\n  dup1\n  add\n  or\n  dup6\n  sstore\n  jump(tag_11)\ntag_13:\n  dup3\n  dup1\n  add\n  0x01\n  add\n  dup6\n  sstore\n  dup3\n  iszero\n  tag_11\n  jumpi\n  swap2\n  dup3\n  add\ntag_14:\n  dup3\n  dup2\n  gt\n  iszero\n  tag_15\n  jumpi\n  dup3\n  mload\n  dup3\n  sstore\n  swap2\n  0x20\n  add\n  swap2\n  swap1\n  0x01\n  add\n  swap1\n  jump(tag_14)\ntag_15:\ntag_11:\n  pop\n  swap1\n  pop\n  tag_16\n  swap2\n  swap1\n  tag_17\n  jump\t// in\ntag_16:\n  pop\n  swap1\n  jump\t// out\ntag_17:\ntag_18:\n  dup1\n  dup3\n  gt\n  iszero\n  tag_19\n  jumpi\n  0x00\n  dup2\n  0x00\n  swap1\n  sstore\n  pop\n  0x01\n  add\n  jump(tag_18)\ntag_19:\n  pop\n  swap1\n  jump\t// out\n    /* \"#utility.yul\":7:428   */\ntag_21:\n    /* \"#utility.yul\":96:101   */\n  0x00\n    /* \"#utility.yul\":121:187   */\n  tag_23\n    /* \"#utility.yul\":137:186   */\n  tag_24\n    /* \"#utility.yul\":179:185   */\n  dup5\n    /* \"#utility.yul\":137:186   */\n  tag_25\n  jump\t// in\ntag_24:\n    /* \"#utility.yul\":121:187   */\n  tag_26\n  jump\t// in\ntag_23:\n    /* \"#utility.yul\":112:187   */\n  swap1\n  pop\n    /* \"#utility.yul\":210:216   */\n  dup3\n    /* \"#utility.yul\":203:208   */\n  dup2\n    /* \"#utility.yul\":196:217   */\n  mstore\n    /* \"#utility.yul\":248:252   */\n  0x20\n    /* \"#utility.yul\":241:246   */\n  dup2\n    /* \"#utility.yul\":237:253   */\n  add\n    /* \"#utility.yul\":286:289   */\n  dup5\n    /* \"#utility.yul\":277:283   */\n  dup5\n    /* \"#utility.yul\":272:275   */\n  dup5\n    /* \"#utility.yul\":268:284   */\n  add\n    /* \"#utility.yul\":265:290   */\n  gt\n    /* \"#utility.yul\":262:374   */\n  iszero\n  tag_27\n  jumpi\n    /* \"#utility.yul\":293:372   */\n  tag_28\n  tag_29\n  jump\t// in\ntag_28:\n    /* \"#utility.yul\":262:374   */\ntag_27:\n    /* \"#utility.yul\":383:422   */\n  tag_30\n    /* \"#utility.yul\":415:421   */\n  dup5\n    /* \"#utility.yul\":410:413   */\n  dup3\n    /* \"#utility.yul\":405:408   */\n  dup6\n    /* \"#utility.yul\":383:422   */\n  tag_31\n  jump\t// in\ntag_30:\n    /* \"#utility.yul\":102:428   */\n  pop\n    /* \"#utility.yul\":7:428   */\n  swap4\n  swap3\n  pop\n  pop\n  pop\n  jump\t// out\n    /* \"#utility.yul\":448:803   */\ntag_32:\n    /* \"#utility.yul\":515:520   */\n  0x00\n    /* \"#utility.yul\":564:567   */\n  dup3\n    /* \"#utility.yul\":557:561   */\n  0x1f\n    /* \"#utility.yul\":549:555   */\n  dup4\n    /* \"#utility.yul\":545:562   */\n  add\n    /* \"#utility.yul\":541:568   */\n  slt\n    /* \"#utility.yul\":531:653   */\n  tag_34\n  jumpi\n    /* \"#utility.yul\":572:651   */\n  tag_35\n  tag_36\n  jump\t// in\ntag_35:\n    /* \"#utility.yul\":531:653   */\ntag_34:\n    /* \"#utility.yul\":682:688   */\n  dup2\n    /* \"#utility.yul\":676:689   */\n  mload\n    /* \"#utility.yul\":707:797   */\n  tag_37\n    /* \"#utility.yul\":793:796   */\n  dup5\n    /* \"#utility.yul\":785:791   */\n  dup3\n    /* \"#utility.yul\":778:782   */\n  0x20\n    /* \"#utility.yul\":770:776   */\n  dup7\n    /* \"#utility.yul\":766:783   */\n  add\n    /* \"#utility.yul\":707:797   */\n  tag_21\n  jump\t// in\ntag_37:\n    /* \"#utility.yul\":698:797   */\n  swap2\n  pop\n    /* \"#utility.yul\":521:803   */\n  pop\n    /* \"#utility.yul\":448:803   */\n  swap3\n  swap2\n  pop\n  pop\n  jump\t// out\n    /* \"#utility.yul\":809:952   */\ntag_38:\n    /* \"#utility.yul\":866:871   */\n  0x00\n    /* \"#utility.yul\":897:903   */\n  dup2\n    /* \"#utility.yul\":891:904   */\n  mload\n    /* \"#utility.yul\":882:904   */\n  swap1\n  pop\n    /* \"#utility.yul\":913:946   */\n  tag_40\n    /* \"#utility.yul\":940:945   */\n  dup2\n    /* \"#utility.yul\":913:946   */\n  tag_41\n  jump\t// in\ntag_40:\n    /* \"#utility.yul\":809:952   */\n  swap3\n  swap2\n  pop\n  pop\n  jump\t// out\n    /* \"#utility.yul\":958:1638   */\ntag_3:\n    /* \"#utility.yul\":1047:1053   */\n  0x00\n    /* \"#utility.yul\":1055:1061   */\n  dup1\n    /* \"#utility.yul\":1104:1106   */\n  0x40\n    /* \"#utility.yul\":1092:1101   */\n  dup4\n    /* \"#utility.yul\":1083:1090   */\n  dup6\n    /* \"#utility.yul\":1079:1102   */\n  sub\n    /* \"#utility.yul\":1075:1107   */\n  slt\n    /* \"#utility.yul\":1072:1191   */\n  iszero\n  tag_43\n  jumpi\n    /* \"#utility.yul\":1110:1189   */\n  tag_44\n  tag_45\n  jump\t// in\ntag_44:\n    /* \"#utility.yul\":1072:1191   */\ntag_43:\n    /* \"#utility.yul\":1251:1252   */\n  0x00\n    /* \"#utility.yul\":1240:1249   */\n  dup4\n    /* \"#utility.yul\":1236:1253   */\n  add\n    /* \"#utility.yul\":1230:1254   */\n  mload\n    /* \"#utility.yul\":1281:1299   */\n  0xffffffffffffffff\n    /* \"#utility.yul\":1273:1279   */\n  dup2\n    /* \"#utility.yul\":1270:1300   */\n  gt\n    /* \"#utility.yul\":1267:1384   */\n  iszero\n  tag_46\n  jumpi\n    /* \"#utility.yul\":1303:1382   */\n  tag_47\n  tag_48\n  jump\t// in\ntag_47:\n    /* \"#utility.yul\":1267:1384   */\ntag_46:\n    /* \"#utility.yul\":1408:1482   */\n  tag_49\n    /* \"#utility.yul\":1474:1481   */\n  dup6\n    /* \"#utility.yul\":1465:1471   */\n  dup3\n    /* \"#utility.yul\":1454:1463   */\n  dup7\n    /* \"#utility.yul\":1450:1472   */\n  add\n    /* \"#utility.yul\":1408:1482   */\n  tag_32\n  jump\t// in\ntag_49:\n    /* \"#utility.yul\":1398:1482   */\n  swap3\n  pop\n    /* \"#utility.yul\":1201:1492   */\n  pop\n    /* \"#utility.yul\":1531:1533   */\n  0x20\n    /* \"#utility.yul\":1557:1621   */\n  tag_50\n    /* \"#utility.yul\":1613:1620   */\n  dup6\n    /* \"#utility.yul\":1604:1610   */\n  dup3\n    /* \"#utility.yul\":1593:1602   */\n  dup7\n    /* \"#utility.yul\":1589:1611   */\n  add\n    /* \"#utility.yul\":1557:1621   */\n  tag_38\n  jump\t// in\ntag_50:\n    /* \"#utility.yul\":1547:1621   */\n  swap2\n  pop\n    /* \"#utility.yul\":1502:1631   */\n  pop\n    /* \"#utility.yul\":958:1638   */\n  swap3\n  pop\n  swap3\n  swap1\n  pop\n  jump\t// out\n    /* \"#utility.yul\":1644:1773   */\ntag_26:\n    /* \"#utility.yul\":1678:1684   */\n  0x00\n    /* \"#utility.yul\":1705:1725   */\n  tag_52\n  tag_53\n  jump\t// in\ntag_52:\n    /* \"#utility.yul\":1695:1725   */\n  swap1\n  pop\n    /* \"#utility.yul\":1734:1767   */\n  tag_54\n    /* \"#utility.yul\":1762:1766   */\n  dup3\n    /* \"#utility.yul\":1754:1760   */\n  dup3\n    /* \"#utility.yul\":1734:1767   */\n  tag_55\n  jump\t// in\ntag_54:\n    /* \"#utility.yul\":1644:1773   */\n  swap2\n  swap1\n  pop\n  jump\t// out\n    /* \"#utility.yul\":1779:1854   */\ntag_53:\n    /* \"#utility.yul\":1812:1818   */\n  0x00\n    /* \"#utility.yul\":1845:1847   */\n  0x40\n    /* \"#utility.yul\":1839:1848   */\n  mload\n    /* \"#utility.yul\":1829:1848   */\n  swap1\n  pop\n    /* \"#utility.yul\":1779:1854   */\n  swap1\n  jump\t// out\n    /* \"#utility.yul\":1860:2168   */\ntag_25:\n    /* \"#utility.yul\":1922:1926   */\n  0x00\n    /* \"#utility.yul\":2012:2030   */\n  0xffffffffffffffff\n    /* \"#utility.yul\":2004:2010   */\n  dup3\n    /* \"#utility.yul\":2001:2031   */\n  gt\n    /* \"#utility.yul\":1998:2054   */\n  iszero\n  tag_58\n  jumpi\n    /* \"#utility.yul\":2034:2052   */\n  tag_59\n  tag_60\n  jump\t// in\ntag_59:\n    /* \"#utility.yul\":1998:2054   */\ntag_58:\n    /* \"#utility.yul\":2072:2101   */\n  tag_61\n    /* \"#utility.yul\":2094:2100   */\n  dup3\n    /* \"#utility.yul\":2072:2101   */\n  tag_62\n  jump\t// in\ntag_61:\n    /* \"#utility.yul\":2064:2101   */\n  swap1\n  pop\n    /* \"#utility.yul\":2156:2160   */\n  0x20\n    /* \"#utility.yul\":2150:2154   */\n  dup2\n    /* \"#utility.yul\":2146:2161   */\n  add\n    /* \"#utility.yul\":2138:2161   */\n  swap1\n  pop\n    /* \"#utility.yul\":1860:2168   */\n  swap2\n  swap1\n  pop\n  jump\t// out\n    /* \"#utility.yul\":2174:2251   */\ntag_63:\n    /* \"#utility.yul\":2211:2218   */\n  0x00\n    /* \"#utility.yul\":2240:2245   */\n  dup2\n    /* \"#utility.yul\":2229:2245   */\n  swap1\n  pop\n    /* \"#utility.yul\":2174:2251   */\n  swap2\n  swap1\n  pop\n  jump\t// out\n    /* \"#utility.yul\":2257:2564   */\ntag_31:\n    /* \"#utility.yul\":2325:2326   */\n  0x00\n    /* \"#utility.yul\":2335:2448   */\ntag_66:\n    /* \"#utility.yul\":2349:2355   */\n  dup4\n    /* \"#utility.yul\":2346:2347   */\n  dup2\n    /* \"#utility.yul\":2343:2356   */\n  lt\n    /* \"#utility.yul\":2335:2448   */\n  iszero\n  tag_68\n  jumpi\n    /* \"#utility.yul\":2434:2435   */\n  dup1\n    /* \"#utility.yul\":2429:2432   */\n  dup3\n    /* \"#utility.yul\":2425:2436   */\n  add\n    /* \"#utility.yul\":2419:2437   */\n  mload\n    /* \"#utility.yul\":2415:2416   */\n  dup2\n    /* \"#utility.yul\":2410:2413   */\n  dup5\n    /* \"#utility.yul\":2406:2417   */\n  add\n    /* \"#utility.yul\":2399:2438   */\n  mstore\n    /* \"#utility.yul\":2371:2373   */\n  0x20\n    /* \"#utility.yul\":2368:2369   */\n  dup2\n    /* \"#utility.yul\":2364:2374   */\n  add\n    /* \"#utility.yul\":2359:2374   */\n  swap1\n  pop\n    /* \"#utility.yul\":2335:2448   */\n  jump(tag_66)\ntag_68:\n    /* \"#utility.yul\":2466:2472   */\n  dup4\n    /* \"#utility.yul\":2463:2464   */\n  dup2\n    /* \"#utility.yul\":2460:2473   */\n  gt\n    /* \"#utility.yul\":2457:2558   */\n  iszero\n  tag_69\n  jumpi\n    /* \"#utility.yul\":2546:2547   */\n  0x00\n    /* \"#utility.yul\":2537:2543   */\n  dup5\n    /* \"#utility.yul\":2532:2535   */\n  dup5\n    /* \"#utility.yul\":2528:2544   */\n  add\n    /* \"#utility.yul\":2521:2548   */\n  mstore\n    /* \"#utility.yul\":2457:2558   */\ntag_69:\n    /* \"#utility.yul\":2306:2564   */\n  pop\n    /* \"#utility.yul\":2257:2564   */\n  pop\n  pop\n  pop\n  jump\t// out\n    /* \"#utility.yul\":2570:2890   */\ntag_10:\n    /* \"#utility.yul\":2614:2620   */\n  0x00\n    /* \"#utility.yul\":2651:2652   */\n  0x02\n    /* \"#utility.yul\":2645:2649   */\n  dup3\n    /* \"#utility.yul\":2641:2653   */\n  div\n    /* \"#utility.yul\":2631:2653   */\n  swap1\n  pop\n    /* \"#utility.yul\":2698:2699   */\n  0x01\n    /* \"#utility.yul\":2692:2696   */\n  dup3\n    /* \"#utility.yul\":2688:2700   */\n  and\n    /* \"#utility.yul\":2719:2737   */\n  dup1\n    /* \"#utility.yul\":2709:2790   */\n  tag_71\n  jumpi\n    /* \"#utility.yul\":2775:2779   */\n  0x7f\n    /* \"#utility.yul\":2767:2773   */\n  dup3\n    /* \"#utility.yul\":2763:2780   */\n  and\n    /* \"#utility.yul\":2753:2780   */\n  swap2\n  pop\n    /* \"#utility.yul\":2709:2790   */\ntag_71:\n    /* \"#utility.yul\":2837:2839   */\n  0x20\n    /* \"#utility.yul\":2829:2835   */\n  dup3\n    /* \"#utility.yul\":2826:2840   */\n  lt\n    /* \"#utility.yul\":2806:2824   */\n  dup2\n    /* \"#utility.yul\":2803:2841   */\n  eq\n    /* \"#utility.yul\":2800:2884   */\n  iszero\n  tag_72\n  jumpi\n    /* \"#utility.yul\":2856:2874   */\n  tag_73\n  tag_74\n  jump\t// in\ntag_73:\n    /* \"#utility.yul\":2800:2884   */\ntag_72:\n    /* \"#utility.yul\":2621:2890   */\n  pop\n    /* \"#utility.yul\":2570:2890   */\n  swap2\n  swap1\n  pop\n  jump\t// out\n    /* \"#utility.yul\":2896:3177   */\ntag_55:\n    /* \"#utility.yul\":2979:3006   */\n  tag_76\n    /* \"#utility.yul\":3001:3005   */\n  dup3\n    /* \"#utility.yul\":2979:3006   */\n  tag_62\n  jump\t// in\ntag_76:\n    /* \"#utility.yul\":2971:2977   */\n  dup2\n    /* \"#utility.yul\":2967:3007   */\n  add\n    /* \"#utility.yul\":3109:3115   */\n  dup2\n    /* \"#utility.yul\":3097:3107   */\n  dup2\n    /* \"#utility.yul\":3094:3116   */\n  lt\n    /* \"#utility.yul\":3073:3091   */\n  0xffffffffffffffff\n    /* \"#utility.yul\":3061:3071   */\n  dup3\n    /* \"#utility.yul\":3058:3092   */\n  gt\n    /* \"#utility.yul\":3055:3117   */\n  or\n    /* \"#utility.yul\":3052:3140   */\n  iszero\n  tag_77\n  jumpi\n    /* \"#utility.yul\":3120:3138   */\n  tag_78\n  tag_60\n  jump\t// in\ntag_78:\n    /* \"#utility.yul\":3052:3140   */\ntag_77:\n    /* \"#utility.yul\":3160:3170   */\n  dup1\n    /* \"#utility.yul\":3156:3158   */\n  0x40\n    /* \"#utility.yul\":3149:3171   */\n  mstore\n    /* \"#utility.yul\":2939:3177   */\n  pop\n    /* \"#utility.yul\":2896:3177   */\n  pop\n  pop\n  jump\t// out\n    /* \"#utility.yul\":3183:3363   */\ntag_74:\n    /* \"#utility.yul\":3231:3308   */\n  0x4e487b7100000000000000000000000000000000000000000000000000000000\n    /* \"#utility.yul\":3228:3229   */\n  0x00\n    /* \"#utility.yul\":3221:3309   */\n  mstore\n    /* \"#utility.yul\":3328:3332   */\n  0x22\n    /* \"#utility.yul\":3325:3326   */\n  0x04\n    /* \"#utility.yul\":3318:3333   */\n  mstore\n    /* \"#utility.yul\":3352:3356   */\n  0x24\n    /* \"#utility.yul\":3349:3350   */\n  0x00\n    /* \"#utility.yul\":3342:3357   */\n  revert\n    /* \"#utility.yul\":3369:3549   */\ntag_60:\n    /* \"#utility.yul\":3417:3494   */\n  0x4e487b7100000000000000000000000000000000000000000000000000000000\n    /* \"#utility.yul\":3414:3415   */\n  0x00\n    /* \"#utility.yul\":3407:3495   */\n  mstore\n    /* \"#utility.yul\":3514:3518   */\n  0x41\n    /* \"#utility.yul\":3511:3512   */\n  0x04\n    /* \"#utility.yul\":3504:3519   */\n  mstore\n    /* \"#utility.yul\":3538:3542   */\n  0x24\n    /* \"#utility.yul\":3535:3536   */\n  0x00\n    /* \"#utility.yul\":3528:3543   */\n  revert\n    /* \"#utility.yul\":3555:3672   */\ntag_36:\n    /* \"#utility.yul\":3664:3665   */\n  0x00\n    /* \"#utility.yul\":3661:3662   */\n  dup1\n    /* \"#utility.yul\":3654:3666   */\n  revert\n    /* \"#utility.yul\":3678:3795   */\ntag_29:\n    /* \"#utility.yul\":3787:3788   */\n  0x00\n    /* \"#utility.yul\":3784:3785   */\n  dup1\n    /* \"#utility.yul\":3777:3789   */\n  revert\n    /* \"#utility.yul\":3801:3918   */\ntag_48:\n    /* \"#utility.yul\":3910:3911   */\n  0x00\n    /* \"#utility.yul\":3907:3908   */\n  dup1\n    /* \"#utility.yul\":3900:3912   */\n  revert\n    /* \"#utility.yul\":3924:4041   */\ntag_45:\n    /* \"#utility.yul\":4033:4034   */\n  0x00\n    /* \"#utility.yul\":4030:4031   */\n  dup1\n    /* \"#utility.yul\":4023:4035   */\n  revert\n    /* \"#utility.yul\":4047:4149   */\ntag_62:\n    /* \"#utility.yul\":4088:4094   */\n  0x00\n    /* \"#utility.yul\":4139:4141   */\n  0x1f\n    /* \"#utility.yul\":4135:4142   */\n  not\n    /* \"#utility.yul\":4130:4132   */\n  0x1f\n    /* \"#utility.yul\":4123:4128   */\n  dup4\n    /* \"#utility.yul\":4119:4133   */\n  add\n    /* \"#utility.yul\":4115:4143   */\n  and\n    /* \"#utility.yul\":4105:4143   */\n  swap1\n  pop\n    /* \"#utility.yul\":4047:4149   */\n  swap2\n  swap1\n  pop\n  jump\t// out\n    /* \"#utility.yul\":4155:4277   */\ntag_41:\n    /* \"#utility.yul\":4228:4252   */\n  tag_87\n    /* \"#utility.yul\":4246:4251   */\n  dup2\n    /* \"#utility.yul\":4228:4252   */\n  tag_63\n  jump\t// in\ntag_87:\n    /* \"#utility.yul\":4221:4226   */\n  dup2\n    /* \"#utility.yul\":4218:4253   */\n  eq\n    /* \"#utility.yul\":4208:4271   */\n  tag_88\n  jumpi\n    /* \"#utility.yul\":4267:4268   */\n  0x00\n    /* \"#utility.yul\":4264:4265   */\n  dup1\n    /* \"#utility.yul\":4257:4269   */\n  revert\n    /* \"#utility.yul\":4208:4271   */\ntag_88:\n    /* \"#utility.yul\":4155:4277   */\n  pop\n  jump\t// out\n    /* \"contracts/basics.sol\":96:3003  contract Person{\r... */\ntag_8:\n  dataSize(sub_0)\n  dup1\n  dataOffset(sub_0)\n  0x00\n  codecopy\n  0x00\n  return\nstop\n\nsub_0: assembly {\n        /* \"contracts/basics.sol\":96:3003  contract Person{\r... */\n      mstore(0x40, 0x80)\n      callvalue\n      dup1\n      iszero\n      tag_1\n      jumpi\n      0x00\n      dup1\n      revert\n    tag_1:\n      pop\n      jumpi(tag_2, lt(calldatasize, 0x04))\n      shr(0xe0, calldataload(0x00))\n      dup1\n      0x7f0429ef\n      gt\n      tag_19\n      jumpi\n      dup1\n      0x98f42fe3\n      gt\n      tag_20\n      jumpi\n      dup1\n      0x98f42fe3\n      eq\n      tag_15\n      jumpi\n      dup1\n      0xd653f307\n      eq\n      tag_16\n      jumpi\n      dup1\n      0xe347a2be\n      eq\n      tag_17\n      jumpi\n      dup1\n      0xe780faa3\n      eq\n      tag_18\n      jumpi\n      jump(tag_2)\n    tag_20:\n      dup1\n      0x7f0429ef\n      eq\n      tag_11\n      jumpi\n      dup1\n      0x8151e209\n      eq\n      tag_12\n      jumpi\n      dup1\n      0x87ba57c9\n      eq\n      tag_13\n      jumpi\n      dup1\n      0x98b20ac8\n      eq\n      tag_14\n      jumpi\n      jump(tag_2)\n    tag_19:\n      dup1\n      0x48593bae\n      gt\n      tag_21\n      jumpi\n      dup1\n      0x48593bae\n      eq\n      tag_7\n      jumpi\n      dup1\n      0x492bfc05\n      eq\n      tag_8\n      jumpi\n      dup1\n      0x6d35e346\n      eq\n      tag_9\n      jumpi\n      dup1\n      0x767f9dcf\n      eq\n      tag_10\n      jumpi\n      jump(tag_2)\n    tag_21:\n      dup1\n      0x06fdde03\n      eq\n      tag_3\n      jumpi\n      dup1\n      0x204653d3\n      eq\n      tag_4\n      jumpi\n      dup1\n      0x262a9dff\n      eq\n      tag_5\n      jumpi\n      dup1\n      0x465fe0ee\n      eq\n      tag_6\n      jumpi\n    tag_2:\n      0x00\n      dup1\n      revert\n        /* \"contracts/basics.sol\":251:269  string public name */\n    tag_3:\n      tag_22\n      tag_23\n      jump\t// in\n    tag_22:\n      mload(0x40)\n      tag_24\n      swap2\n      swap1\n      tag_25\n      jump\t// in\n    tag_24:\n      mload(0x40)\n      dup1\n      swap2\n      sub\n      swap1\n      return\n        /* \"contracts/basics.sol\":806:928  function enterValues(uint a, uint b) public {\r... */\n    tag_4:\n      tag_26\n      0x04\n      dup1\n      calldatasize\n      sub\n      dup2\n      add\n      swap1\n      tag_27\n      swap2\n      swap1\n      tag_28\n      jump\t// in\n    tag_27:\n      tag_29\n      jump\t// in\n    tag_26:\n      stop\n        /* \"contracts/basics.sol\":290:305  uint public age */\n    tag_5:\n      tag_30\n      tag_31\n      jump\t// in\n    tag_30:\n      mload(0x40)\n      tag_32\n      swap2\n      swap1\n      tag_33\n      jump\t// in\n    tag_32:\n      mload(0x40)\n      dup1\n      swap2\n      sub\n      swap1\n      return\n        /* \"contracts/basics.sol\":1464:1496  Traits public characterOfAPerson */\n    tag_6:\n      tag_34\n      tag_35\n      jump\t// in\n    tag_34:\n      mload(0x40)\n      tag_36\n      swap4\n      swap3\n      swap2\n      swap1\n      tag_37\n      jump\t// in\n    tag_36:\n      mload(0x40)\n      dup1\n      swap2\n      sub\n      swap1\n      return\n        /* \"contracts/basics.sol\":2388:2488  function getEnumValue()\r... */\n    tag_7:\n      tag_38\n      tag_39\n      jump\t// in\n    tag_38:\n      mload(0x40)\n      tag_40\n      swap2\n      swap1\n      tag_41\n      jump\t// in\n    tag_40:\n      mload(0x40)\n      dup1\n      swap2\n      sub\n      swap1\n      return\n        /* \"contracts/basics.sol\":2583:2631  mapping(address => string) public listOfNFTNames */\n    tag_8:\n      tag_42\n      0x04\n      dup1\n      calldatasize\n      sub\n      dup2\n      add\n      swap1\n      tag_43\n      swap2\n      swap1\n      tag_44\n      jump\t// in\n    tag_43:\n      tag_45\n      jump\t// in\n    tag_42:\n      mload(0x40)\n      tag_46\n      swap2\n      swap1\n      tag_25\n      jump\t// in\n    tag_46:\n      mload(0x40)\n      dup1\n      swap2\n      sub\n      swap1\n      return\n        /* \"contracts/basics.sol\":936:1137  function enterValuesAgain(uint a, uint b,uint c,uint d) public {\r... */\n    tag_9:\n      tag_47\n      0x04\n      dup1\n      calldatasize\n      sub\n      dup2\n      add\n      swap1\n      tag_48\n      swap2\n      swap1\n      tag_49\n      jump\t// in\n    tag_48:\n      tag_50\n      jump\t// in\n    tag_47:\n      stop\n        /* \"contracts/basics.sol\":1523:1838  function \r... */\n    tag_10:\n      tag_51\n      0x04\n      dup1\n      calldatasize\n      sub\n      dup2\n      add\n      swap1\n      tag_52\n      swap2\n      swap1\n      tag_53\n      jump\t// in\n    tag_52:\n      tag_54\n      jump\t// in\n    tag_51:\n      stop\n        /* \"contracts/basics.sol\":1862:1967  function getTraits() public view returns(string memory){\r... */\n    tag_11:\n      tag_55\n      tag_56\n      jump\t// in\n    tag_55:\n      mload(0x40)\n      tag_57\n      swap2\n      swap1\n      tag_25\n      jump\t// in\n    tag_57:\n      mload(0x40)\n      dup1\n      swap2\n      sub\n      swap1\n      return\n        /* \"contracts/basics.sol\":2165:2369  function dislikeButton()\r... */\n    tag_12:\n      tag_58\n      tag_59\n      jump\t// in\n    tag_58:\n      stop\n        /* \"contracts/basics.sol\":2690:2859  function assignMappingValue( string memory _value, address _address)\r... */\n    tag_13:\n      tag_60\n      0x04\n      dup1\n      calldatasize\n      sub\n      dup2\n      add\n      swap1\n      tag_61\n      swap2\n      swap1\n      tag_62\n      jump\t// in\n    tag_61:\n      tag_63\n      jump\t// in\n    tag_60:\n      stop\n        /* \"contracts/basics.sol\":2638:2665  string[] public listsOfNFTs */\n    tag_14:\n      tag_64\n      0x04\n      dup1\n      calldatasize\n      sub\n      dup2\n      add\n      swap1\n      tag_65\n      swap2\n      swap1\n      tag_66\n      jump\t// in\n    tag_65:\n      tag_67\n      jump\t// in\n    tag_64:\n      mload(0x40)\n      tag_68\n      swap2\n      swap1\n      tag_25\n      jump\t// in\n    tag_68:\n      mload(0x40)\n      dup1\n      swap2\n      sub\n      swap1\n      return\n        /* \"contracts/basics.sol\":2061:2083  interest public choice */\n    tag_15:\n      tag_69\n      tag_70\n      jump\t// in\n    tag_69:\n      mload(0x40)\n      tag_71\n      swap2\n      swap1\n      tag_41\n      jump\t// in\n    tag_71:\n      mload(0x40)\n      dup1\n      swap2\n      sub\n      swap1\n      return\n        /* \"contracts/basics.sol\":771:797  uint[] public luckNumbers2 */\n    tag_16:\n      tag_72\n      0x04\n      dup1\n      calldatasize\n      sub\n      dup2\n      add\n      swap1\n      tag_73\n      swap2\n      swap1\n      tag_66\n      jump\t// in\n    tag_73:\n      tag_74\n      jump\t// in\n    tag_72:\n      mload(0x40)\n      tag_75\n      swap2\n      swap1\n      tag_33\n      jump\t// in\n    tag_75:\n      mload(0x40)\n      dup1\n      swap2\n      sub\n      swap1\n      return\n        /* \"contracts/basics.sol\":2882:2998  function getMappingValue()\r... */\n    tag_17:\n      tag_76\n      tag_77\n      jump\t// in\n    tag_76:\n      mload(0x40)\n      tag_78\n      swap2\n      swap1\n      tag_79\n      jump\t// in\n    tag_78:\n      mload(0x40)\n      dup1\n      swap2\n      sub\n      swap1\n      return\n        /* \"contracts/basics.sol\":613:640  uint[2] public luckyNumbers */\n    tag_18:\n      tag_80\n      0x04\n      dup1\n      calldatasize\n      sub\n      dup2\n      add\n      swap1\n      tag_81\n      swap2\n      swap1\n      tag_66\n      jump\t// in\n    tag_81:\n      tag_82\n      jump\t// in\n    tag_80:\n      mload(0x40)\n      tag_83\n      swap2\n      swap1\n      tag_33\n      jump\t// in\n    tag_83:\n      mload(0x40)\n      dup1\n      swap2\n      sub\n      swap1\n      return\n        /* \"contracts/basics.sol\":251:269  string public name */\n    tag_23:\n      0x00\n      dup1\n      sload\n      tag_84\n      swap1\n      tag_85\n      jump\t// in\n    tag_84:\n      dup1\n      0x1f\n      add\n      0x20\n      dup1\n      swap2\n      div\n      mul\n      0x20\n      add\n      mload(0x40)\n      swap1\n      dup2\n      add\n      0x40\n      mstore\n      dup1\n      swap3\n      swap2\n      swap1\n      dup2\n      dup2\n      mstore\n      0x20\n      add\n      dup3\n      dup1\n      sload\n      tag_86\n      swap1\n      tag_85\n      jump\t// in\n    tag_86:\n      dup1\n      iszero\n      tag_87\n      jumpi\n      dup1\n      0x1f\n      lt\n      tag_88\n      jumpi\n      0x0100\n      dup1\n      dup4\n      sload\n      div\n      mul\n      dup4\n      mstore\n      swap2\n      0x20\n      add\n      swap2\n      jump(tag_87)\n    tag_88:\n      dup3\n      add\n      swap2\n      swap1\n      0x00\n      mstore\n      keccak256(0x00, 0x20)\n      swap1\n    tag_89:\n      dup2\n      sload\n      dup2\n      mstore\n      swap1\n      0x01\n      add\n      swap1\n      0x20\n      add\n      dup1\n      dup4\n      gt\n      tag_89\n      jumpi\n      dup3\n      swap1\n      sub\n      0x1f\n      and\n      dup3\n      add\n      swap2\n    tag_87:\n      pop\n      pop\n      pop\n      pop\n      pop\n      dup2\n      jump\t// out\n        /* \"contracts/basics.sol\":806:928  function enterValues(uint a, uint b) public {\r... */\n    tag_29:\n        /* \"contracts/basics.sol\":880:881  a */\n      dup2\n        /* \"contracts/basics.sol\":862:874  luckyNumbers */\n      0x02\n        /* \"contracts/basics.sol\":875:876  0 */\n      0x00\n        /* \"contracts/basics.sol\":862:877  luckyNumbers[0] */\n      0x02\n      dup2\n      lt\n      tag_91\n      jumpi\n      tag_92\n      tag_93\n      jump\t// in\n    tag_92:\n    tag_91:\n      add\n        /* \"contracts/basics.sol\":862:881  luckyNumbers[0] = a */\n      dup2\n      swap1\n      sstore\n      pop\n        /* \"contracts/basics.sol\":909:910  b */\n      dup1\n        /* \"contracts/basics.sol\":891:903  luckyNumbers */\n      0x02\n        /* \"contracts/basics.sol\":904:905  1 */\n      0x01\n        /* \"contracts/basics.sol\":891:906  luckyNumbers[1] */\n      0x02\n      dup2\n      lt\n      tag_95\n      jumpi\n      tag_96\n      tag_93\n      jump\t// in\n    tag_96:\n    tag_95:\n      add\n        /* \"contracts/basics.sol\":891:910  luckyNumbers[1] = b */\n      dup2\n      swap1\n      sstore\n      pop\n        /* \"contracts/basics.sol\":806:928  function enterValues(uint a, uint b) public {\r... */\n      pop\n      pop\n      jump\t// out\n        /* \"contracts/basics.sol\":290:305  uint public age */\n    tag_31:\n      sload(0x01)\n      dup2\n      jump\t// out\n        /* \"contracts/basics.sol\":1464:1496  Traits public characterOfAPerson */\n    tag_35:\n      0x05\n      dup1\n      0x00\n      add\n      dup1\n      sload\n      tag_98\n      swap1\n      tag_85\n      jump\t// in\n    tag_98:\n      dup1\n      0x1f\n      add\n      0x20\n      dup1\n      swap2\n      div\n      mul\n      0x20\n      add\n      mload(0x40)\n      swap1\n      dup2\n      add\n      0x40\n      mstore\n      dup1\n      swap3\n      swap2\n      swap1\n      dup2\n      dup2\n      mstore\n      0x20\n      add\n      dup3\n      dup1\n      sload\n      tag_99\n      swap1\n      tag_85\n      jump\t// in\n    tag_99:\n      dup1\n      iszero\n      tag_100\n      jumpi\n      dup1\n      0x1f\n      lt\n      tag_101\n      jumpi\n      0x0100\n      dup1\n      dup4\n      sload\n      div\n      mul\n      dup4\n      mstore\n      swap2\n      0x20\n      add\n      swap2\n      jump(tag_100)\n    tag_101:\n      dup3\n      add\n      swap2\n      swap1\n      0x00\n      mstore\n      keccak256(0x00, 0x20)\n      swap1\n    tag_102:\n      dup2\n      sload\n      dup2\n      mstore\n      swap1\n      0x01\n      add\n      swap1\n      0x20\n      add\n      dup1\n      dup4\n      gt\n      tag_102\n      jumpi\n      dup3\n      swap1\n      sub\n      0x1f\n      and\n      dup3\n      add\n      swap2\n    tag_100:\n      pop\n      pop\n      pop\n      pop\n      pop\n      swap1\n      dup1\n      0x01\n      add\n      dup1\n      sload\n      tag_103\n      swap1\n      tag_85\n      jump\t// in\n    tag_103:\n      dup1\n      0x1f\n      add\n      0x20\n      dup1\n      swap2\n      div\n      mul\n      0x20\n      add\n      mload(0x40)\n      swap1\n      dup2\n      add\n      0x40\n      mstore\n      dup1\n      swap3\n      swap2\n      swap1\n      dup2\n      dup2\n      mstore\n      0x20\n      add\n      dup3\n      dup1\n      sload\n      tag_104\n      swap1\n      tag_85\n      jump\t// in\n    tag_104:\n      dup1\n      iszero\n      tag_105\n      jumpi\n      dup1\n      0x1f\n      lt\n      tag_106\n      jumpi\n      0x0100\n      dup1\n      dup4\n      sload\n      div\n      mul\n      dup4\n      mstore\n      swap2\n      0x20\n      add\n      swap2\n      jump(tag_105)\n    tag_106:\n      dup3\n      add\n      swap2\n      swap1\n      0x00\n      mstore\n      keccak256(0x00, 0x20)\n      swap1\n    tag_107:\n      dup2\n      sload\n      dup2\n      mstore\n      swap1\n      0x01\n      add\n      swap1\n      0x20\n      add\n      dup1\n      dup4\n      gt\n      tag_107\n      jumpi\n      dup3\n      swap1\n      sub\n      0x1f\n      and\n      dup3\n      add\n      swap2\n    tag_105:\n      pop\n      pop\n      pop\n      pop\n      pop\n      swap1\n      dup1\n      0x02\n      add\n      sload\n      swap1\n      pop\n      dup4\n      jump\t// out\n        /* \"contracts/basics.sol\":2388:2488  function getEnumValue()\r... */\n    tag_39:\n        /* \"contracts/basics.sol\":2447:2455  interest */\n      0x00\n        /* \"contracts/basics.sol\":2474:2480  choice */\n      0x08\n      0x00\n      swap1\n      sload\n      swap1\n      0x0100\n      exp\n      swap1\n      div\n      0xff\n      and\n        /* \"contracts/basics.sol\":2467:2480  return choice */\n      swap1\n      pop\n        /* \"contracts/basics.sol\":2388:2488  function getEnumValue()\r... */\n      swap1\n      jump\t// out\n        /* \"contracts/basics.sol\":2583:2631  mapping(address => string) public listOfNFTNames */\n    tag_45:\n      mstore(0x20, 0x09)\n      dup1\n      0x00\n      mstore\n      keccak256(0x00, 0x40)\n      0x00\n      swap2\n      pop\n      swap1\n      pop\n      dup1\n      sload\n      tag_109\n      swap1\n      tag_85\n      jump\t// in\n    tag_109:\n      dup1\n      0x1f\n      add\n      0x20\n      dup1\n      swap2\n      div\n      mul\n      0x20\n      add\n      mload(0x40)\n      swap1\n      dup2\n      add\n      0x40\n      mstore\n      dup1\n      swap3\n      swap2\n      swap1\n      dup2\n      dup2\n      mstore\n      0x20\n      add\n      dup3\n      dup1\n      sload\n      tag_110\n      swap1\n      tag_85\n      jump\t// in\n    tag_110:\n      dup1\n      iszero\n      tag_111\n      jumpi\n      dup1\n      0x1f\n      lt\n      tag_112\n      jumpi\n      0x0100\n      dup1\n      dup4\n      sload\n      div\n      mul\n      dup4\n      mstore\n      swap2\n      0x20\n      add\n      swap2\n      jump(tag_111)\n    tag_112:\n      dup3\n      add\n      swap2\n      swap1\n      0x00\n      mstore\n      keccak256(0x00, 0x20)\n      swap1\n    tag_113:\n      dup2\n      sload\n      dup2\n      mstore\n      swap1\n      0x01\n      add\n      swap1\n      0x20\n      add\n      dup1\n      dup4\n      gt\n      tag_113\n      jumpi\n      dup3\n      swap1\n      sub\n      0x1f\n      and\n      dup3\n      add\n      swap2\n    tag_111:\n      pop\n      pop\n      pop\n      pop\n      pop\n      dup2\n      jump\t// out\n        /* \"contracts/basics.sol\":936:1137  function enterValuesAgain(uint a, uint b,uint c,uint d) public {\r... */\n    tag_50:\n        /* \"contracts/basics.sol\":1012:1024  luckNumbers2 */\n      0x04\n        /* \"contracts/basics.sol\":1030:1031  a */\n      dup5\n        /* \"contracts/basics.sol\":1012:1032  luckNumbers2.push(a) */\n      swap1\n      dup1\n      0x01\n      dup2\n      sload\n      add\n      dup1\n      dup3\n      sstore\n      dup1\n      swap2\n      pop\n      pop\n      0x01\n      swap1\n      sub\n      swap1\n      0x00\n      mstore\n      keccak256(0x00, 0x20)\n      add\n      0x00\n      swap1\n      swap2\n      swap1\n      swap2\n      swap1\n      swap2\n      pop\n      sstore\n        /* \"contracts/basics.sol\":1043:1055  luckNumbers2 */\n      0x04\n        /* \"contracts/basics.sol\":1061:1062  b */\n      dup4\n        /* \"contracts/basics.sol\":1043:1063  luckNumbers2.push(b) */\n      swap1\n      dup1\n      0x01\n      dup2\n      sload\n      add\n      dup1\n      dup3\n      sstore\n      dup1\n      swap2\n      pop\n      pop\n      0x01\n      swap1\n      sub\n      swap1\n      0x00\n      mstore\n      keccak256(0x00, 0x20)\n      add\n      0x00\n      swap1\n      swap2\n      swap1\n      swap2\n      swap1\n      swap2\n      pop\n      sstore\n        /* \"contracts/basics.sol\":1074:1086  luckNumbers2 */\n      0x04\n        /* \"contracts/basics.sol\":1092:1093  c */\n      dup3\n        /* \"contracts/basics.sol\":1074:1094  luckNumbers2.push(c) */\n      swap1\n      dup1\n      0x01\n      dup2\n      sload\n      add\n      dup1\n      dup3\n      sstore\n      dup1\n      swap2\n      pop\n      pop\n      0x01\n      swap1\n      sub\n      swap1\n      0x00\n      mstore\n      keccak256(0x00, 0x20)\n      add\n      0x00\n      swap1\n      swap2\n      swap1\n      swap2\n      swap1\n      swap2\n      pop\n      sstore\n        /* \"contracts/basics.sol\":1105:1117  luckNumbers2 */\n      0x04\n        /* \"contracts/basics.sol\":1123:1124  d */\n      dup2\n        /* \"contracts/basics.sol\":1105:1125  luckNumbers2.push(d) */\n      swap1\n      dup1\n      0x01\n      dup2\n      sload\n      add\n      dup1\n      dup3\n      sstore\n      dup1\n      swap2\n      pop\n      pop\n      0x01\n      swap1\n      sub\n      swap1\n      0x00\n      mstore\n      keccak256(0x00, 0x20)\n      add\n      0x00\n      swap1\n      swap2\n      swap1\n      swap2\n      swap1\n      swap2\n      pop\n      sstore\n        /* \"contracts/basics.sol\":936:1137  function enterValuesAgain(uint a, uint b,uint c,uint d) public {\r... */\n      pop\n      pop\n      pop\n      pop\n      jump\t// out\n        /* \"contracts/basics.sol\":1523:1838  function \r... */\n    tag_54:\n        /* \"contracts/basics.sol\":1654:1685  Traits(_color,_country,_height) */\n      mload(0x40)\n      dup1\n      0x60\n      add\n      0x40\n      mstore\n      dup1\n        /* \"contracts/basics.sol\":1661:1667  _color */\n      dup5\n        /* \"contracts/basics.sol\":1654:1685  Traits(_color,_country,_height) */\n      dup2\n      mstore\n      0x20\n      add\n        /* \"contracts/basics.sol\":1668:1676  _country */\n      dup4\n        /* \"contracts/basics.sol\":1654:1685  Traits(_color,_country,_height) */\n      dup2\n      mstore\n      0x20\n      add\n        /* \"contracts/basics.sol\":1677:1684  _height */\n      dup3\n        /* \"contracts/basics.sol\":1654:1685  Traits(_color,_country,_height) */\n      dup2\n      mstore\n      pop\n        /* \"contracts/basics.sol\":1633:1651  characterOfAPerson */\n      0x05\n        /* \"contracts/basics.sol\":1633:1685  characterOfAPerson = Traits(_color,_country,_height) */\n      0x00\n      dup3\n      add\n      mload\n      dup2\n      0x00\n      add\n      swap1\n      dup1\n      mload\n      swap1\n      0x20\n      add\n      swap1\n      tag_120\n      swap3\n      swap2\n      swap1\n      tag_121\n      jump\t// in\n    tag_120:\n      pop\n      0x20\n      dup3\n      add\n      mload\n      dup2\n      0x01\n      add\n      swap1\n      dup1\n      mload\n      swap1\n      0x20\n      add\n      swap1\n      tag_122\n      swap3\n      swap2\n      swap1\n      tag_121\n      jump\t// in\n    tag_122:\n      pop\n      0x40\n      dup3\n      add\n      mload\n      dup2\n      0x02\n      add\n      sstore\n      swap1\n      pop\n      pop\n        /* \"contracts/basics.sol\":1523:1838  function \r... */\n      pop\n      pop\n      pop\n      jump\t// out\n        /* \"contracts/basics.sol\":1862:1967  function getTraits() public view returns(string memory){\r... */\n    tag_56:\n        /* \"contracts/basics.sol\":1903:1916  string memory */\n      0x60\n        /* \"contracts/basics.sol\":1935:1953  characterOfAPerson */\n      0x05\n        /* \"contracts/basics.sol\":1935:1959  characterOfAPerson.color */\n      0x00\n      add\n        /* \"contracts/basics.sol\":1928:1959  return characterOfAPerson.color */\n      dup1\n      sload\n      tag_124\n      swap1\n      tag_85\n      jump\t// in\n    tag_124:\n      dup1\n      0x1f\n      add\n      0x20\n      dup1\n      swap2\n      div\n      mul\n      0x20\n      add\n      mload(0x40)\n      swap1\n      dup2\n      add\n      0x40\n      mstore\n      dup1\n      swap3\n      swap2\n      swap1\n      dup2\n      dup2\n      mstore\n      0x20\n      add\n      dup3\n      dup1\n      sload\n      tag_125\n      swap1\n      tag_85\n      jump\t// in\n    tag_125:\n      dup1\n      iszero\n      tag_126\n      jumpi\n      dup1\n      0x1f\n      lt\n      tag_127\n      jumpi\n      0x0100\n      dup1\n      dup4\n      sload\n      div\n      mul\n      dup4\n      mstore\n      swap2\n      0x20\n      add\n      swap2\n      jump(tag_126)\n    tag_127:\n      dup3\n      add\n      swap2\n      swap1\n      0x00\n      mstore\n      keccak256(0x00, 0x20)\n      swap1\n    tag_128:\n      dup2\n      sload\n      dup2\n      mstore\n      swap1\n      0x01\n      add\n      swap1\n      0x20\n      add\n      dup1\n      dup4\n      gt\n      tag_128\n      jumpi\n      dup3\n      swap1\n      sub\n      0x1f\n      and\n      dup3\n      add\n      swap2\n    tag_126:\n      pop\n      pop\n      pop\n      pop\n      pop\n      swap1\n      pop\n        /* \"contracts/basics.sol\":1862:1967  function getTraits() public view returns(string memory){\r... */\n      swap1\n      jump\t// out\n        /* \"contracts/basics.sol\":2165:2369  function dislikeButton()\r... */\n    tag_59:\n        /* \"contracts/basics.sol\":2347:2361  interest.likes */\n      0x00\n        /* \"contracts/basics.sol\":2338:2344  choice */\n      0x08\n      0x00\n        /* \"contracts/basics.sol\":2338:2361  choice = interest.likes */\n      0x0100\n      exp\n      dup2\n      sload\n      dup2\n      0xff\n      mul\n      not\n      and\n      swap1\n      dup4\n      0x01\n      dup2\n      gt\n      iszero\n      tag_130\n      jumpi\n      tag_131\n      tag_132\n      jump\t// in\n    tag_131:\n    tag_130:\n      mul\n      or\n      swap1\n      sstore\n      pop\n        /* \"contracts/basics.sol\":2165:2369  function dislikeButton()\r... */\n      jump\t// out\n        /* \"contracts/basics.sol\":2690:2859  function assignMappingValue( string memory _value, address _address)\r... */\n    tag_63:\n        /* \"contracts/basics.sol\":2810:2816  _value */\n      dup2\n        /* \"contracts/basics.sol\":2781:2795  listOfNFTNames */\n      0x09\n        /* \"contracts/basics.sol\":2781:2807  listOfNFTNames[msg.sender] */\n      0x00\n        /* \"contracts/basics.sol\":2796:2806  msg.sender */\n      caller\n        /* \"contracts/basics.sol\":2781:2807  listOfNFTNames[msg.sender] */\n      0xffffffffffffffffffffffffffffffffffffffff\n      and\n      0xffffffffffffffffffffffffffffffffffffffff\n      and\n      dup2\n      mstore\n      0x20\n      add\n      swap1\n      dup2\n      mstore\n      0x20\n      add\n      0x00\n      keccak256\n        /* \"contracts/basics.sol\":2781:2816  listOfNFTNames[msg.sender] = _value */\n      swap1\n      dup1\n      mload\n      swap1\n      0x20\n      add\n      swap1\n      tag_134\n      swap3\n      swap2\n      swap1\n      tag_121\n      jump\t// in\n    tag_134:\n      pop\n        /* \"contracts/basics.sol\":2827:2838  listsOfNFTs */\n      0x0a\n        /* \"contracts/basics.sol\":2844:2850  _value */\n      dup3\n        /* \"contracts/basics.sol\":2827:2851  listsOfNFTs.push(_value) */\n      swap1\n      dup1\n      0x01\n      dup2\n      sload\n      add\n      dup1\n      dup3\n      sstore\n      dup1\n      swap2\n      pop\n      pop\n      0x01\n      swap1\n      sub\n      swap1\n      0x00\n      mstore\n      keccak256(0x00, 0x20)\n      add\n      0x00\n      swap1\n      swap2\n      swap1\n      swap2\n      swap1\n      swap2\n      pop\n      swap1\n      dup1\n      mload\n      swap1\n      0x20\n      add\n      swap1\n      tag_136\n      swap3\n      swap2\n      swap1\n      tag_121\n      jump\t// in\n    tag_136:\n      pop\n        /* \"contracts/basics.sol\":2690:2859  function assignMappingValue( string memory _value, address _address)\r... */\n      pop\n      pop\n      jump\t// out\n        /* \"contracts/basics.sol\":2638:2665  string[] public listsOfNFTs */\n    tag_67:\n      0x0a\n      dup2\n      dup2\n      sload\n      dup2\n      lt\n      tag_137\n      jumpi\n      0x00\n      dup1\n      revert\n    tag_137:\n      swap1\n      0x00\n      mstore\n      keccak256(0x00, 0x20)\n      add\n      0x00\n      swap2\n      pop\n      swap1\n      pop\n      dup1\n      sload\n      tag_139\n      swap1\n      tag_85\n      jump\t// in\n    tag_139:\n      dup1\n      0x1f\n      add\n      0x20\n      dup1\n      swap2\n      div\n      mul\n      0x20\n      add\n      mload(0x40)\n      swap1\n      dup2\n      add\n      0x40\n      mstore\n      dup1\n      swap3\n      swap2\n      swap1\n      dup2\n      dup2\n      mstore\n      0x20\n      add\n      dup3\n      dup1\n      sload\n      tag_140\n      swap1\n      tag_85\n      jump\t// in\n    tag_140:\n      dup1\n      iszero\n      tag_141\n      jumpi\n      dup1\n      0x1f\n      lt\n      tag_142\n      jumpi\n      0x0100\n      dup1\n      dup4\n      sload\n      div\n      mul\n      dup4\n      mstore\n      swap2\n      0x20\n      add\n      swap2\n      jump(tag_141)\n    tag_142:\n      dup3\n      add\n      swap2\n      swap1\n      0x00\n      mstore\n      keccak256(0x00, 0x20)\n      swap1\n    tag_143:\n      dup2\n      sload\n      dup2\n      mstore\n      swap1\n      0x01\n      add\n      swap1\n      0x20\n      add\n      dup1\n      dup4\n      gt\n      tag_143\n      jumpi\n      dup3\n      swap1\n      sub\n      0x1f\n      and\n      dup3\n      add\n      swap2\n    tag_141:\n      pop\n      pop\n      pop\n      pop\n      pop\n      dup2\n      jump\t// out\n        /* \"contracts/basics.sol\":2061:2083  interest public choice */\n    tag_70:\n      0x08\n      0x00\n      swap1\n      sload\n      swap1\n      0x0100\n      exp\n      swap1\n      div\n      0xff\n      and\n      dup2\n      jump\t// out\n        /* \"contracts/basics.sol\":771:797  uint[] public luckNumbers2 */\n    tag_74:\n      0x04\n      dup2\n      dup2\n      sload\n      dup2\n      lt\n      tag_144\n      jumpi\n      0x00\n      dup1\n      revert\n    tag_144:\n      swap1\n      0x00\n      mstore\n      keccak256(0x00, 0x20)\n      add\n      0x00\n      swap2\n      pop\n      swap1\n      pop\n      sload\n      dup2\n      jump\t// out\n        /* \"contracts/basics.sol\":2882:2998  function getMappingValue()\r... */\n    tag_77:\n        /* \"contracts/basics.sol\":2944:2959  string[] memory */\n      0x60\n        /* \"contracts/basics.sol\":2979:2990  listsOfNFTs */\n      0x0a\n        /* \"contracts/basics.sol\":2972:2990  return listsOfNFTs */\n      dup1\n      sload\n      dup1\n      0x20\n      mul\n      0x20\n      add\n      mload(0x40)\n      swap1\n      dup2\n      add\n      0x40\n      mstore\n      dup1\n      swap3\n      swap2\n      swap1\n      dup2\n      dup2\n      mstore\n      0x20\n      add\n      0x00\n      swap1\n    tag_147:\n      dup3\n      dup3\n      lt\n      iszero\n      tag_148\n      jumpi\n      dup4\n      dup3\n      swap1\n      0x00\n      mstore\n      keccak256(0x00, 0x20)\n      add\n      dup1\n      sload\n      tag_150\n      swap1\n      tag_85\n      jump\t// in\n    tag_150:\n      dup1\n      0x1f\n      add\n      0x20\n      dup1\n      swap2\n      div\n      mul\n      0x20\n      add\n      mload(0x40)\n      swap1\n      dup2\n      add\n      0x40\n      mstore\n      dup1\n      swap3\n      swap2\n      swap1\n      dup2\n      dup2\n      mstore\n      0x20\n      add\n      dup3\n      dup1\n      sload\n      tag_151\n      swap1\n      tag_85\n      jump\t// in\n    tag_151:\n      dup1\n      iszero\n      tag_152\n      jumpi\n      dup1\n      0x1f\n      lt\n      tag_153\n      jumpi\n      0x0100\n      dup1\n      dup4\n      sload\n      div\n      mul\n      dup4\n      mstore\n      swap2\n      0x20\n      add\n      swap2\n      jump(tag_152)\n    tag_153:\n      dup3\n      add\n      swap2\n      swap1\n      0x00\n      mstore\n      keccak256(0x00, 0x20)\n      swap1\n    tag_154:\n      dup2\n      sload\n      dup2\n      mstore\n      swap1\n      0x01\n      add\n      swap1\n      0x20\n      add\n      dup1\n      dup4\n      gt\n      tag_154\n      jumpi\n      dup3\n      swap1\n      sub\n      0x1f\n      and\n      dup3\n      add\n      swap2\n    tag_152:\n      pop\n      pop\n      pop\n      pop\n      pop\n      dup2\n      mstore\n      0x20\n      add\n      swap1\n      0x01\n      add\n      swap1\n      jump(tag_147)\n    tag_148:\n      pop\n      pop\n      pop\n      pop\n      swap1\n      pop\n        /* \"contracts/basics.sol\":2882:2998  function getMappingValue()\r... */\n      swap1\n      jump\t// out\n        /* \"contracts/basics.sol\":613:640  uint[2] public luckyNumbers */\n    tag_82:\n      0x02\n      dup2\n      0x02\n      dup2\n      lt\n      tag_155\n      jumpi\n      0x00\n      dup1\n      revert\n    tag_155:\n      add\n      0x00\n      swap2\n      pop\n      swap1\n      pop\n      sload\n      dup2\n      jump\t// out\n    tag_121:\n      dup3\n      dup1\n      sload\n      tag_157\n      swap1\n      tag_85\n      jump\t// in\n    tag_157:\n      swap1\n      0x00\n      mstore\n      keccak256(0x00, 0x20)\n      swap1\n      0x1f\n      add\n      0x20\n      swap1\n      div\n      dup2\n      add\n      swap3\n      dup3\n      tag_159\n      jumpi\n      0x00\n      dup6\n      sstore\n      jump(tag_158)\n    tag_159:\n      dup3\n      0x1f\n      lt\n      tag_160\n      jumpi\n      dup1\n      mload\n      not(0xff)\n      and\n      dup4\n      dup1\n      add\n      or\n      dup6\n      sstore\n      jump(tag_158)\n    tag_160:\n      dup3\n      dup1\n      add\n      0x01\n      add\n      dup6\n      sstore\n      dup3\n      iszero\n      tag_158\n      jumpi\n      swap2\n      dup3\n      add\n    tag_161:\n      dup3\n      dup2\n      gt\n      iszero\n      tag_162\n      jumpi\n      dup3\n      mload\n      dup3\n      sstore\n      swap2\n      0x20\n      add\n      swap2\n      swap1\n      0x01\n      add\n      swap1\n      jump(tag_161)\n    tag_162:\n    tag_158:\n      pop\n      swap1\n      pop\n      tag_163\n      swap2\n      swap1\n      tag_164\n      jump\t// in\n    tag_163:\n      pop\n      swap1\n      jump\t// out\n    tag_164:\n    tag_165:\n      dup1\n      dup3\n      gt\n      iszero\n      tag_166\n      jumpi\n      0x00\n      dup2\n      0x00\n      swap1\n      sstore\n      pop\n      0x01\n      add\n      jump(tag_165)\n    tag_166:\n      pop\n      swap1\n      jump\t// out\n        /* \"#utility.yul\":7:419   */\n    tag_168:\n        /* \"#utility.yul\":85:90   */\n      0x00\n        /* \"#utility.yul\":110:176   */\n      tag_170\n        /* \"#utility.yul\":126:175   */\n      tag_171\n        /* \"#utility.yul\":168:174   */\n      dup5\n        /* \"#utility.yul\":126:175   */\n      tag_172\n      jump\t// in\n    tag_171:\n        /* \"#utility.yul\":110:176   */\n      tag_173\n      jump\t// in\n    tag_170:\n        /* \"#utility.yul\":101:176   */\n      swap1\n      pop\n        /* \"#utility.yul\":199:205   */\n      dup3\n        /* \"#utility.yul\":192:197   */\n      dup2\n        /* \"#utility.yul\":185:206   */\n      mstore\n        /* \"#utility.yul\":237:241   */\n      0x20\n        /* \"#utility.yul\":230:235   */\n      dup2\n        /* \"#utility.yul\":226:242   */\n      add\n        /* \"#utility.yul\":275:278   */\n      dup5\n        /* \"#utility.yul\":266:272   */\n      dup5\n        /* \"#utility.yul\":261:264   */\n      dup5\n        /* \"#utility.yul\":257:273   */\n      add\n        /* \"#utility.yul\":254:279   */\n      gt\n        /* \"#utility.yul\":251:363   */\n      iszero\n      tag_174\n      jumpi\n        /* \"#utility.yul\":282:361   */\n      tag_175\n      tag_176\n      jump\t// in\n    tag_175:\n        /* \"#utility.yul\":251:363   */\n    tag_174:\n        /* \"#utility.yul\":372:413   */\n      tag_177\n        /* \"#utility.yul\":406:412   */\n      dup5\n        /* \"#utility.yul\":401:404   */\n      dup3\n        /* \"#utility.yul\":396:399   */\n      dup6\n        /* \"#utility.yul\":372:413   */\n      tag_178\n      jump\t// in\n    tag_177:\n        /* \"#utility.yul\":91:419   */\n      pop\n        /* \"#utility.yul\":7:419   */\n      swap4\n      swap3\n      pop\n      pop\n      pop\n      jump\t// out\n        /* \"#utility.yul\":425:564   */\n    tag_179:\n        /* \"#utility.yul\":471:476   */\n      0x00\n        /* \"#utility.yul\":509:515   */\n      dup2\n        /* \"#utility.yul\":496:516   */\n      calldataload\n        /* \"#utility.yul\":487:516   */\n      swap1\n      pop\n        /* \"#utility.yul\":525:558   */\n      tag_181\n        /* \"#utility.yul\":552:557   */\n      dup2\n        /* \"#utility.yul\":525:558   */\n      tag_182\n      jump\t// in\n    tag_181:\n        /* \"#utility.yul\":425:564   */\n      swap3\n      swap2\n      pop\n      pop\n      jump\t// out\n        /* \"#utility.yul\":584:924   */\n    tag_183:\n        /* \"#utility.yul\":640:645   */\n      0x00\n        /* \"#utility.yul\":689:692   */\n      dup3\n        /* \"#utility.yul\":682:686   */\n      0x1f\n        /* \"#utility.yul\":674:680   */\n      dup4\n        /* \"#utility.yul\":670:687   */\n      add\n        /* \"#utility.yul\":666:693   */\n      slt\n        /* \"#utility.yul\":656:778   */\n      tag_185\n      jumpi\n        /* \"#utility.yul\":697:776   */\n      tag_186\n      tag_187\n      jump\t// in\n    tag_186:\n        /* \"#utility.yul\":656:778   */\n    tag_185:\n        /* \"#utility.yul\":814:820   */\n      dup2\n        /* \"#utility.yul\":801:821   */\n      calldataload\n        /* \"#utility.yul\":839:918   */\n      tag_188\n        /* \"#utility.yul\":914:917   */\n      dup5\n        /* \"#utility.yul\":906:912   */\n      dup3\n        /* \"#utility.yul\":899:903   */\n      0x20\n        /* \"#utility.yul\":891:897   */\n      dup7\n        /* \"#utility.yul\":887:904   */\n      add\n        /* \"#utility.yul\":839:918   */\n      tag_168\n      jump\t// in\n    tag_188:\n        /* \"#utility.yul\":830:918   */\n      swap2\n      pop\n        /* \"#utility.yul\":646:924   */\n      pop\n        /* \"#utility.yul\":584:924   */\n      swap3\n      swap2\n      pop\n      pop\n      jump\t// out\n        /* \"#utility.yul\":930:1069   */\n    tag_189:\n        /* \"#utility.yul\":976:981   */\n      0x00\n        /* \"#utility.yul\":1014:1020   */\n      dup2\n        /* \"#utility.yul\":1001:1021   */\n      calldataload\n        /* \"#utility.yul\":992:1021   */\n      swap1\n      pop\n        /* \"#utility.yul\":1030:1063   */\n      tag_191\n        /* \"#utility.yul\":1057:1062   */\n      dup2\n        /* \"#utility.yul\":1030:1063   */\n      tag_192\n      jump\t// in\n    tag_191:\n        /* \"#utility.yul\":930:1069   */\n      swap3\n      swap2\n      pop\n      pop\n      jump\t// out\n        /* \"#utility.yul\":1075:1404   */\n    tag_44:\n        /* \"#utility.yul\":1134:1140   */\n      0x00\n        /* \"#utility.yul\":1183:1185   */\n      0x20\n        /* \"#utility.yul\":1171:1180   */\n      dup3\n        /* \"#utility.yul\":1162:1169   */\n      dup5\n        /* \"#utility.yul\":1158:1181   */\n      sub\n        /* \"#utility.yul\":1154:1186   */\n      slt\n        /* \"#utility.yul\":1151:1270   */\n      iszero\n      tag_194\n      jumpi\n        /* \"#utility.yul\":1189:1268   */\n      tag_195\n      tag_196\n      jump\t// in\n    tag_195:\n        /* \"#utility.yul\":1151:1270   */\n    tag_194:\n        /* \"#utility.yul\":1309:1310   */\n      0x00\n        /* \"#utility.yul\":1334:1387   */\n      tag_197\n        /* \"#utility.yul\":1379:1386   */\n      dup5\n        /* \"#utility.yul\":1370:1376   */\n      dup3\n        /* \"#utility.yul\":1359:1368   */\n      dup6\n        /* \"#utility.yul\":1355:1377   */\n      add\n        /* \"#utility.yul\":1334:1387   */\n      tag_179\n      jump\t// in\n    tag_197:\n        /* \"#utility.yul\":1324:1387   */\n      swap2\n      pop\n        /* \"#utility.yul\":1280:1397   */\n      pop\n        /* \"#utility.yul\":1075:1404   */\n      swap3\n      swap2\n      pop\n      pop\n      jump\t// out\n        /* \"#utility.yul\":1410:2064   */\n    tag_62:\n        /* \"#utility.yul\":1488:1494   */\n      0x00\n        /* \"#utility.yul\":1496:1502   */\n      dup1\n        /* \"#utility.yul\":1545:1547   */\n      0x40\n        /* \"#utility.yul\":1533:1542   */\n      dup4\n        /* \"#utility.yul\":1524:1531   */\n      dup6\n        /* \"#utility.yul\":1520:1543   */\n      sub\n        /* \"#utility.yul\":1516:1548   */\n      slt\n        /* \"#utility.yul\":1513:1632   */\n      iszero\n      tag_199\n      jumpi\n        /* \"#utility.yul\":1551:1630   */\n      tag_200\n      tag_196\n      jump\t// in\n    tag_200:\n        /* \"#utility.yul\":1513:1632   */\n    tag_199:\n        /* \"#utility.yul\":1699:1700   */\n      0x00\n        /* \"#utility.yul\":1688:1697   */\n      dup4\n        /* \"#utility.yul\":1684:1701   */\n      add\n        /* \"#utility.yul\":1671:1702   */\n      calldataload\n        /* \"#utility.yul\":1729:1747   */\n      0xffffffffffffffff\n        /* \"#utility.yul\":1721:1727   */\n      dup2\n        /* \"#utility.yul\":1718:1748   */\n      gt\n        /* \"#utility.yul\":1715:1832   */\n      iszero\n      tag_201\n      jumpi\n        /* \"#utility.yul\":1751:1830   */\n      tag_202\n      tag_203\n      jump\t// in\n    tag_202:\n        /* \"#utility.yul\":1715:1832   */\n    tag_201:\n        /* \"#utility.yul\":1856:1919   */\n      tag_204\n        /* \"#utility.yul\":1911:1918   */\n      dup6\n        /* \"#utility.yul\":1902:1908   */\n      dup3\n        /* \"#utility.yul\":1891:1900   */\n      dup7\n        /* \"#utility.yul\":1887:1909   */\n      add\n        /* \"#utility.yul\":1856:1919   */\n      tag_183\n      jump\t// in\n    tag_204:\n        /* \"#utility.yul\":1846:1919   */\n      swap3\n      pop\n        /* \"#utility.yul\":1642:1929   */\n      pop\n        /* \"#utility.yul\":1968:1970   */\n      0x20\n        /* \"#utility.yul\":1994:2047   */\n      tag_205\n        /* \"#utility.yul\":2039:2046   */\n      dup6\n        /* \"#utility.yul\":2030:2036   */\n      dup3\n        /* \"#utility.yul\":2019:2028   */\n      dup7\n        /* \"#utility.yul\":2015:2037   */\n      add\n        /* \"#utility.yul\":1994:2047   */\n      tag_179\n      jump\t// in\n    tag_205:\n        /* \"#utility.yul\":1984:2047   */\n      swap2\n      pop\n        /* \"#utility.yul\":1939:2057   */\n      pop\n        /* \"#utility.yul\":1410:2064   */\n      swap3\n      pop\n      swap3\n      swap1\n      pop\n      jump\t// out\n        /* \"#utility.yul\":2070:3049   */\n    tag_53:\n        /* \"#utility.yul\":2167:2173   */\n      0x00\n        /* \"#utility.yul\":2175:2181   */\n      dup1\n        /* \"#utility.yul\":2183:2189   */\n      0x00\n        /* \"#utility.yul\":2232:2234   */\n      0x60\n        /* \"#utility.yul\":2220:2229   */\n      dup5\n        /* \"#utility.yul\":2211:2218   */\n      dup7\n        /* \"#utility.yul\":2207:2230   */\n      sub\n        /* \"#utility.yul\":2203:2235   */\n      slt\n        /* \"#utility.yul\":2200:2319   */\n      iszero\n      tag_207\n      jumpi\n        /* \"#utility.yul\":2238:2317   */\n      tag_208\n      tag_196\n      jump\t// in\n    tag_208:\n        /* \"#utility.yul\":2200:2319   */\n    tag_207:\n        /* \"#utility.yul\":2386:2387   */\n      0x00\n        /* \"#utility.yul\":2375:2384   */\n      dup5\n        /* \"#utility.yul\":2371:2388   */\n      add\n        /* \"#utility.yul\":2358:2389   */\n      calldataload\n        /* \"#utility.yul\":2416:2434   */\n      0xffffffffffffffff\n        /* \"#utility.yul\":2408:2414   */\n      dup2\n        /* \"#utility.yul\":2405:2435   */\n      gt\n        /* \"#utility.yul\":2402:2519   */\n      iszero\n      tag_209\n      jumpi\n        /* \"#utility.yul\":2438:2517   */\n      tag_210\n      tag_203\n      jump\t// in\n    tag_210:\n        /* \"#utility.yul\":2402:2519   */\n    tag_209:\n        /* \"#utility.yul\":2543:2606   */\n      tag_211\n        /* \"#utility.yul\":2598:2605   */\n      dup7\n        /* \"#utility.yul\":2589:2595   */\n      dup3\n        /* \"#utility.yul\":2578:2587   */\n      dup8\n        /* \"#utility.yul\":2574:2596   */\n      add\n        /* \"#utility.yul\":2543:2606   */\n      tag_183\n      jump\t// in\n    tag_211:\n        /* \"#utility.yul\":2533:2606   */\n      swap4\n      pop\n        /* \"#utility.yul\":2329:2616   */\n      pop\n        /* \"#utility.yul\":2683:2685   */\n      0x20\n        /* \"#utility.yul\":2672:2681   */\n      dup5\n        /* \"#utility.yul\":2668:2686   */\n      add\n        /* \"#utility.yul\":2655:2687   */\n      calldataload\n        /* \"#utility.yul\":2714:2732   */\n      0xffffffffffffffff\n        /* \"#utility.yul\":2706:2712   */\n      dup2\n        /* \"#utility.yul\":2703:2733   */\n      gt\n        /* \"#utility.yul\":2700:2817   */\n      iszero\n      tag_212\n      jumpi\n        /* \"#utility.yul\":2736:2815   */\n      tag_213\n      tag_203\n      jump\t// in\n    tag_213:\n        /* \"#utility.yul\":2700:2817   */\n    tag_212:\n        /* \"#utility.yul\":2841:2904   */\n      tag_214\n        /* \"#utility.yul\":2896:2903   */\n      dup7\n        /* \"#utility.yul\":2887:2893   */\n      dup3\n        /* \"#utility.yul\":2876:2885   */\n      dup8\n        /* \"#utility.yul\":2872:2894   */\n      add\n        /* \"#utility.yul\":2841:2904   */\n      tag_183\n      jump\t// in\n    tag_214:\n        /* \"#utility.yul\":2831:2904   */\n      swap3\n      pop\n        /* \"#utility.yul\":2626:2914   */\n      pop\n        /* \"#utility.yul\":2953:2955   */\n      0x40\n        /* \"#utility.yul\":2979:3032   */\n      tag_215\n        /* \"#utility.yul\":3024:3031   */\n      dup7\n        /* \"#utility.yul\":3015:3021   */\n      dup3\n        /* \"#utility.yul\":3004:3013   */\n      dup8\n        /* \"#utility.yul\":3000:3022   */\n      add\n        /* \"#utility.yul\":2979:3032   */\n      tag_189\n      jump\t// in\n    tag_215:\n        /* \"#utility.yul\":2969:3032   */\n      swap2\n      pop\n        /* \"#utility.yul\":2924:3042   */\n      pop\n        /* \"#utility.yul\":2070:3049   */\n      swap3\n      pop\n      swap3\n      pop\n      swap3\n      jump\t// out\n        /* \"#utility.yul\":3055:3384   */\n    tag_66:\n        /* \"#utility.yul\":3114:3120   */\n      0x00\n        /* \"#utility.yul\":3163:3165   */\n      0x20\n        /* \"#utility.yul\":3151:3160   */\n      dup3\n        /* \"#utility.yul\":3142:3149   */\n      dup5\n        /* \"#utility.yul\":3138:3161   */\n      sub\n        /* \"#utility.yul\":3134:3166   */\n      slt\n        /* \"#utility.yul\":3131:3250   */\n      iszero\n      tag_217\n      jumpi\n        /* \"#utility.yul\":3169:3248   */\n      tag_218\n      tag_196\n      jump\t// in\n    tag_218:\n        /* \"#utility.yul\":3131:3250   */\n    tag_217:\n        /* \"#utility.yul\":3289:3290   */\n      0x00\n        /* \"#utility.yul\":3314:3367   */\n      tag_219\n        /* \"#utility.yul\":3359:3366   */\n      dup5\n        /* \"#utility.yul\":3350:3356   */\n      dup3\n        /* \"#utility.yul\":3339:3348   */\n      dup6\n        /* \"#utility.yul\":3335:3357   */\n      add\n        /* \"#utility.yul\":3314:3367   */\n      tag_189\n      jump\t// in\n    tag_219:\n        /* \"#utility.yul\":3304:3367   */\n      swap2\n      pop\n        /* \"#utility.yul\":3260:3377   */\n      pop\n        /* \"#utility.yul\":3055:3384   */\n      swap3\n      swap2\n      pop\n      pop\n      jump\t// out\n        /* \"#utility.yul\":3390:3864   */\n    tag_28:\n        /* \"#utility.yul\":3458:3464   */\n      0x00\n        /* \"#utility.yul\":3466:3472   */\n      dup1\n        /* \"#utility.yul\":3515:3517   */\n      0x40\n        /* \"#utility.yul\":3503:3512   */\n      dup4\n        /* \"#utility.yul\":3494:3501   */\n      dup6\n        /* \"#utility.yul\":3490:3513   */\n      sub\n        /* \"#utility.yul\":3486:3518   */\n      slt\n        /* \"#utility.yul\":3483:3602   */\n      iszero\n      tag_221\n      jumpi\n        /* \"#utility.yul\":3521:3600   */\n      tag_222\n      tag_196\n      jump\t// in\n    tag_222:\n        /* \"#utility.yul\":3483:3602   */\n    tag_221:\n        /* \"#utility.yul\":3641:3642   */\n      0x00\n        /* \"#utility.yul\":3666:3719   */\n      tag_223\n        /* \"#utility.yul\":3711:3718   */\n      dup6\n        /* \"#utility.yul\":3702:3708   */\n      dup3\n        /* \"#utility.yul\":3691:3700   */\n      dup7\n        /* \"#utility.yul\":3687:3709   */\n      add\n        /* \"#utility.yul\":3666:3719   */\n      tag_189\n      jump\t// in\n    tag_223:\n        /* \"#utility.yul\":3656:3719   */\n      swap3\n      pop\n        /* \"#utility.yul\":3612:3729   */\n      pop\n        /* \"#utility.yul\":3768:3770   */\n      0x20\n        /* \"#utility.yul\":3794:3847   */\n      tag_224\n        /* \"#utility.yul\":3839:3846   */\n      dup6\n        /* \"#utility.yul\":3830:3836   */\n      dup3\n        /* \"#utility.yul\":3819:3828   */\n      dup7\n        /* \"#utility.yul\":3815:3837   */\n      add\n        /* \"#utility.yul\":3794:3847   */\n      tag_189\n      jump\t// in\n    tag_224:\n        /* \"#utility.yul\":3784:3847   */\n      swap2\n      pop\n        /* \"#utility.yul\":3739:3857   */\n      pop\n        /* \"#utility.yul\":3390:3864   */\n      swap3\n      pop\n      swap3\n      swap1\n      pop\n      jump\t// out\n        /* \"#utility.yul\":3870:4635   */\n    tag_49:\n        /* \"#utility.yul\":3956:3962   */\n      0x00\n        /* \"#utility.yul\":3964:3970   */\n      dup1\n        /* \"#utility.yul\":3972:3978   */\n      0x00\n        /* \"#utility.yul\":3980:3986   */\n      dup1\n        /* \"#utility.yul\":4029:4032   */\n      0x80\n        /* \"#utility.yul\":4017:4026   */\n      dup6\n        /* \"#utility.yul\":4008:4015   */\n      dup8\n        /* \"#utility.yul\":4004:4027   */\n      sub\n        /* \"#utility.yul\":4000:4033   */\n      slt\n        /* \"#utility.yul\":3997:4117   */\n      iszero\n      tag_226\n      jumpi\n        /* \"#utility.yul\":4036:4115   */\n      tag_227\n      tag_196\n      jump\t// in\n    tag_227:\n        /* \"#utility.yul\":3997:4117   */\n    tag_226:\n        /* \"#utility.yul\":4156:4157   */\n      0x00\n        /* \"#utility.yul\":4181:4234   */\n      tag_228\n        /* \"#utility.yul\":4226:4233   */\n      dup8\n        /* \"#utility.yul\":4217:4223   */\n      dup3\n        /* \"#utility.yul\":4206:4215   */\n      dup9\n        /* \"#utility.yul\":4202:4224   */\n      add\n        /* \"#utility.yul\":4181:4234   */\n      tag_189\n      jump\t// in\n    tag_228:\n        /* \"#utility.yul\":4171:4234   */\n      swap5\n      pop\n        /* \"#utility.yul\":4127:4244   */\n      pop\n        /* \"#utility.yul\":4283:4285   */\n      0x20\n        /* \"#utility.yul\":4309:4362   */\n      tag_229\n        /* \"#utility.yul\":4354:4361   */\n      dup8\n        /* \"#utility.yul\":4345:4351   */\n      dup3\n        /* \"#utility.yul\":4334:4343   */\n      dup9\n        /* \"#utility.yul\":4330:4352   */\n      add\n        /* \"#utility.yul\":4309:4362   */\n      tag_189\n      jump\t// in\n    tag_229:\n        /* \"#utility.yul\":4299:4362   */\n      swap4\n      pop\n        /* \"#utility.yul\":4254:4372   */\n      pop\n        /* \"#utility.yul\":4411:4413   */\n      0x40\n        /* \"#utility.yul\":4437:4490   */\n      tag_230\n        /* \"#utility.yul\":4482:4489   */\n      dup8\n        /* \"#utility.yul\":4473:4479   */\n      dup3\n        /* \"#utility.yul\":4462:4471   */\n      dup9\n        /* \"#utility.yul\":4458:4480   */\n      add\n        /* \"#utility.yul\":4437:4490   */\n      tag_189\n      jump\t// in\n    tag_230:\n        /* \"#utility.yul\":4427:4490   */\n      swap3\n      pop\n        /* \"#utility.yul\":4382:4500   */\n      pop\n        /* \"#utility.yul\":4539:4541   */\n      0x60\n        /* \"#utility.yul\":4565:4618   */\n      tag_231\n        /* \"#utility.yul\":4610:4617   */\n      dup8\n        /* \"#utility.yul\":4601:4607   */\n      dup3\n        /* \"#utility.yul\":4590:4599   */\n      dup9\n        /* \"#utility.yul\":4586:4608   */\n      add\n        /* \"#utility.yul\":4565:4618   */\n      tag_189\n      jump\t// in\n    tag_231:\n        /* \"#utility.yul\":4555:4618   */\n      swap2\n      pop\n        /* \"#utility.yul\":4510:4628   */\n      pop\n        /* \"#utility.yul\":3870:4635   */\n      swap3\n      swap6\n      swap2\n      swap5\n      pop\n      swap3\n      pop\n      jump\t// out\n        /* \"#utility.yul\":4641:4837   */\n    tag_232:\n        /* \"#utility.yul\":4730:4740   */\n      0x00\n        /* \"#utility.yul\":4765:4831   */\n      tag_234\n        /* \"#utility.yul\":4827:4830   */\n      dup4\n        /* \"#utility.yul\":4819:4825   */\n      dup4\n        /* \"#utility.yul\":4765:4831   */\n      tag_235\n      jump\t// in\n    tag_234:\n        /* \"#utility.yul\":4751:4831   */\n      swap1\n      pop\n        /* \"#utility.yul\":4641:4837   */\n      swap3\n      swap2\n      pop\n      pop\n      jump\t// out\n        /* \"#utility.yul\":4871:5862   */\n    tag_236:\n        /* \"#utility.yul\":5010:5013   */\n      0x00\n        /* \"#utility.yul\":5039:5103   */\n      tag_238\n        /* \"#utility.yul\":5097:5102   */\n      dup3\n        /* \"#utility.yul\":5039:5103   */\n      tag_239\n      jump\t// in\n    tag_238:\n        /* \"#utility.yul\":5119:5215   */\n      tag_240\n        /* \"#utility.yul\":5208:5214   */\n      dup2\n        /* \"#utility.yul\":5203:5206   */\n      dup6\n        /* \"#utility.yul\":5119:5215   */\n      tag_241\n      jump\t// in\n    tag_240:\n        /* \"#utility.yul\":5112:5215   */\n      swap4\n      pop\n        /* \"#utility.yul\":5241:5244   */\n      dup4\n        /* \"#utility.yul\":5286:5290   */\n      0x20\n        /* \"#utility.yul\":5278:5284   */\n      dup3\n        /* \"#utility.yul\":5274:5291   */\n      mul\n        /* \"#utility.yul\":5269:5272   */\n      dup6\n        /* \"#utility.yul\":5265:5292   */\n      add\n        /* \"#utility.yul\":5316:5382   */\n      tag_242\n        /* \"#utility.yul\":5376:5381   */\n      dup6\n        /* \"#utility.yul\":5316:5382   */\n      tag_243\n      jump\t// in\n    tag_242:\n        /* \"#utility.yul\":5405:5412   */\n      dup1\n        /* \"#utility.yul\":5436:5437   */\n      0x00\n        /* \"#utility.yul\":5421:5817   */\n    tag_244:\n        /* \"#utility.yul\":5446:5452   */\n      dup6\n        /* \"#utility.yul\":5443:5444   */\n      dup2\n        /* \"#utility.yul\":5440:5453   */\n      lt\n        /* \"#utility.yul\":5421:5817   */\n      iszero\n      tag_246\n      jumpi\n        /* \"#utility.yul\":5517:5526   */\n      dup5\n        /* \"#utility.yul\":5511:5515   */\n      dup5\n        /* \"#utility.yul\":5507:5527   */\n      sub\n        /* \"#utility.yul\":5502:5505   */\n      dup10\n        /* \"#utility.yul\":5495:5528   */\n      mstore\n        /* \"#utility.yul\":5568:5574   */\n      dup2\n        /* \"#utility.yul\":5562:5575   */\n      mload\n        /* \"#utility.yul\":5596:5680   */\n      tag_247\n        /* \"#utility.yul\":5675:5679   */\n      dup6\n        /* \"#utility.yul\":5660:5673   */\n      dup3\n        /* \"#utility.yul\":5596:5680   */\n      tag_232\n      jump\t// in\n    tag_247:\n        /* \"#utility.yul\":5588:5680   */\n      swap5\n      pop\n        /* \"#utility.yul\":5703:5773   */\n      tag_248\n        /* \"#utility.yul\":5766:5772   */\n      dup4\n        /* \"#utility.yul\":5703:5773   */\n      tag_249\n      jump\t// in\n    tag_248:\n        /* \"#utility.yul\":5693:5773   */\n      swap3\n      pop\n        /* \"#utility.yul\":5802:5806   */\n      0x20\n        /* \"#utility.yul\":5797:5800   */\n      dup11\n        /* \"#utility.yul\":5793:5807   */\n      add\n        /* \"#utility.yul\":5786:5807   */\n      swap10\n      pop\n        /* \"#utility.yul\":5481:5817   */\n      pop\n        /* \"#utility.yul\":5468:5469   */\n      0x01\n        /* \"#utility.yul\":5465:5466   */\n      dup2\n        /* \"#utility.yul\":5461:5470   */\n      add\n        /* \"#utility.yul\":5456:5470   */\n      swap1\n      pop\n        /* \"#utility.yul\":5421:5817   */\n      jump(tag_244)\n    tag_246:\n        /* \"#utility.yul\":5425:5439   */\n      pop\n        /* \"#utility.yul\":5833:5837   */\n      dup3\n        /* \"#utility.yul\":5826:5837   */\n      swap8\n      pop\n        /* \"#utility.yul\":5853:5856   */\n      dup8\n        /* \"#utility.yul\":5846:5856   */\n      swap6\n      pop\n        /* \"#utility.yul\":5015:5862   */\n      pop\n      pop\n      pop\n      pop\n      pop\n        /* \"#utility.yul\":4871:5862   */\n      swap3\n      swap2\n      pop\n      pop\n      jump\t// out\n        /* \"#utility.yul\":5868:6019   */\n    tag_250:\n        /* \"#utility.yul\":5965:6012   */\n      tag_252\n        /* \"#utility.yul\":6006:6011   */\n      dup2\n        /* \"#utility.yul\":5965:6012   */\n      tag_253\n      jump\t// in\n    tag_252:\n        /* \"#utility.yul\":5960:5963   */\n      dup3\n        /* \"#utility.yul\":5953:6013   */\n      mstore\n        /* \"#utility.yul\":5868:6019   */\n      pop\n      pop\n      jump\t// out\n        /* \"#utility.yul\":6025:6369   */\n    tag_235:\n        /* \"#utility.yul\":6103:6106   */\n      0x00\n        /* \"#utility.yul\":6131:6170   */\n      tag_255\n        /* \"#utility.yul\":6164:6169   */\n      dup3\n        /* \"#utility.yul\":6131:6170   */\n      tag_256\n      jump\t// in\n    tag_255:\n        /* \"#utility.yul\":6186:6247   */\n      tag_257\n        /* \"#utility.yul\":6240:6246   */\n      dup2\n        /* \"#utility.yul\":6235:6238   */\n      dup6\n        /* \"#utility.yul\":6186:6247   */\n      tag_258\n      jump\t// in\n    tag_257:\n        /* \"#utility.yul\":6179:6247   */\n      swap4\n      pop\n        /* \"#utility.yul\":6256:6308   */\n      tag_259\n        /* \"#utility.yul\":6301:6307   */\n      dup2\n        /* \"#utility.yul\":6296:6299   */\n      dup6\n        /* \"#utility.yul\":6289:6293   */\n      0x20\n        /* \"#utility.yul\":6282:6287   */\n      dup7\n        /* \"#utility.yul\":6278:6294   */\n      add\n        /* \"#utility.yul\":6256:6308   */\n      tag_260\n      jump\t// in\n    tag_259:\n        /* \"#utility.yul\":6333:6362   */\n      tag_261\n        /* \"#utility.yul\":6355:6361   */\n      dup2\n        /* \"#utility.yul\":6333:6362   */\n      tag_262\n      jump\t// in\n    tag_261:\n        /* \"#utility.yul\":6328:6331   */\n      dup5\n        /* \"#utility.yul\":6324:6363   */\n      add\n        /* \"#utility.yul\":6317:6363   */\n      swap2\n      pop\n        /* \"#utility.yul\":6107:6369   */\n      pop\n        /* \"#utility.yul\":6025:6369   */\n      swap3\n      swap2\n      pop\n      pop\n      jump\t// out\n        /* \"#utility.yul\":6375:6739   */\n    tag_263:\n        /* \"#utility.yul\":6463:6466   */\n      0x00\n        /* \"#utility.yul\":6491:6530   */\n      tag_265\n        /* \"#utility.yul\":6524:6529   */\n      dup3\n        /* \"#utility.yul\":6491:6530   */\n      tag_256\n      jump\t// in\n    tag_265:\n        /* \"#utility.yul\":6546:6617   */\n      tag_266\n        /* \"#utility.yul\":6610:6616   */\n      dup2\n        /* \"#utility.yul\":6605:6608   */\n      dup6\n        /* \"#utility.yul\":6546:6617   */\n      tag_267\n      jump\t// in\n    tag_266:\n        /* \"#utility.yul\":6539:6617   */\n      swap4\n      pop\n        /* \"#utility.yul\":6626:6678   */\n      tag_268\n        /* \"#utility.yul\":6671:6677   */\n      dup2\n        /* \"#utility.yul\":6666:6669   */\n      dup6\n        /* \"#utility.yul\":6659:6663   */\n      0x20\n        /* \"#utility.yul\":6652:6657   */\n      dup7\n        /* \"#utility.yul\":6648:6664   */\n      add\n        /* \"#utility.yul\":6626:6678   */\n      tag_260\n      jump\t// in\n    tag_268:\n        /* \"#utility.yul\":6703:6732   */\n      tag_269\n        /* \"#utility.yul\":6725:6731   */\n      dup2\n        /* \"#utility.yul\":6703:6732   */\n      tag_262\n      jump\t// in\n    tag_269:\n        /* \"#utility.yul\":6698:6701   */\n      dup5\n        /* \"#utility.yul\":6694:6733   */\n      add\n        /* \"#utility.yul\":6687:6733   */\n      swap2\n      pop\n        /* \"#utility.yul\":6467:6739   */\n      pop\n        /* \"#utility.yul\":6375:6739   */\n      swap3\n      swap2\n      pop\n      pop\n      jump\t// out\n        /* \"#utility.yul\":6745:6863   */\n    tag_270:\n        /* \"#utility.yul\":6832:6856   */\n      tag_272\n        /* \"#utility.yul\":6850:6855   */\n      dup2\n        /* \"#utility.yul\":6832:6856   */\n      tag_273\n      jump\t// in\n    tag_272:\n        /* \"#utility.yul\":6827:6830   */\n      dup3\n        /* \"#utility.yul\":6820:6857   */\n      mstore\n        /* \"#utility.yul\":6745:6863   */\n      pop\n      pop\n      jump\t// out\n        /* \"#utility.yul\":6869:7282   */\n    tag_79:\n        /* \"#utility.yul\":7032:7036   */\n      0x00\n        /* \"#utility.yul\":7070:7072   */\n      0x20\n        /* \"#utility.yul\":7059:7068   */\n      dup3\n        /* \"#utility.yul\":7055:7073   */\n      add\n        /* \"#utility.yul\":7047:7073   */\n      swap1\n      pop\n        /* \"#utility.yul\":7119:7128   */\n      dup2\n        /* \"#utility.yul\":7113:7117   */\n      dup2\n        /* \"#utility.yul\":7109:7129   */\n      sub\n        /* \"#utility.yul\":7105:7106   */\n      0x00\n        /* \"#utility.yul\":7094:7103   */\n      dup4\n        /* \"#utility.yul\":7090:7107   */\n      add\n        /* \"#utility.yul\":7083:7130   */\n      mstore\n        /* \"#utility.yul\":7147:7275   */\n      tag_275\n        /* \"#utility.yul\":7270:7274   */\n      dup2\n        /* \"#utility.yul\":7261:7267   */\n      dup5\n        /* \"#utility.yul\":7147:7275   */\n      tag_236\n      jump\t// in\n    tag_275:\n        /* \"#utility.yul\":7139:7275   */\n      swap1\n      pop\n        /* \"#utility.yul\":6869:7282   */\n      swap3\n      swap2\n      pop\n      pop\n      jump\t// out\n        /* \"#utility.yul\":7288:7530   */\n    tag_41:\n        /* \"#utility.yul\":7391:7395   */\n      0x00\n        /* \"#utility.yul\":7429:7431   */\n      0x20\n        /* \"#utility.yul\":7418:7427   */\n      dup3\n        /* \"#utility.yul\":7414:7432   */\n      add\n        /* \"#utility.yul\":7406:7432   */\n      swap1\n      pop\n        /* \"#utility.yul\":7442:7523   */\n      tag_277\n        /* \"#utility.yul\":7520:7521   */\n      0x00\n        /* \"#utility.yul\":7509:7518   */\n      dup4\n        /* \"#utility.yul\":7505:7522   */\n      add\n        /* \"#utility.yul\":7496:7502   */\n      dup5\n        /* \"#utility.yul\":7442:7523   */\n      tag_250\n      jump\t// in\n    tag_277:\n        /* \"#utility.yul\":7288:7530   */\n      swap3\n      swap2\n      pop\n      pop\n      jump\t// out\n        /* \"#utility.yul\":7536:7849   */\n    tag_25:\n        /* \"#utility.yul\":7649:7653   */\n      0x00\n        /* \"#utility.yul\":7687:7689   */\n      0x20\n        /* \"#utility.yul\":7676:7685   */\n      dup3\n        /* \"#utility.yul\":7672:7690   */\n      add\n        /* \"#utility.yul\":7664:7690   */\n      swap1\n      pop\n        /* \"#utility.yul\":7736:7745   */\n      dup2\n        /* \"#utility.yul\":7730:7734   */\n      dup2\n        /* \"#utility.yul\":7726:7746   */\n      sub\n        /* \"#utility.yul\":7722:7723   */\n      0x00\n        /* \"#utility.yul\":7711:7720   */\n      dup4\n        /* \"#utility.yul\":7707:7724   */\n      add\n        /* \"#utility.yul\":7700:7747   */\n      mstore\n        /* \"#utility.yul\":7764:7842   */\n      tag_279\n        /* \"#utility.yul\":7837:7841   */\n      dup2\n        /* \"#utility.yul\":7828:7834   */\n      dup5\n        /* \"#utility.yul\":7764:7842   */\n      tag_263\n      jump\t// in\n    tag_279:\n        /* \"#utility.yul\":7756:7842   */\n      swap1\n      pop\n        /* \"#utility.yul\":7536:7849   */\n      swap3\n      swap2\n      pop\n      pop\n      jump\t// out\n        /* \"#utility.yul\":7855:8479   */\n    tag_37:\n        /* \"#utility.yul\":8044:8048   */\n      0x00\n        /* \"#utility.yul\":8082:8084   */\n      0x60\n        /* \"#utility.yul\":8071:8080   */\n      dup3\n        /* \"#utility.yul\":8067:8085   */\n      add\n        /* \"#utility.yul\":8059:8085   */\n      swap1\n      pop\n        /* \"#utility.yul\":8131:8140   */\n      dup2\n        /* \"#utility.yul\":8125:8129   */\n      dup2\n        /* \"#utility.yul\":8121:8141   */\n      sub\n        /* \"#utility.yul\":8117:8118   */\n      0x00\n        /* \"#utility.yul\":8106:8115   */\n      dup4\n        /* \"#utility.yul\":8102:8119   */\n      add\n        /* \"#utility.yul\":8095:8142   */\n      mstore\n        /* \"#utility.yul\":8159:8237   */\n      tag_281\n        /* \"#utility.yul\":8232:8236   */\n      dup2\n        /* \"#utility.yul\":8223:8229   */\n      dup7\n        /* \"#utility.yul\":8159:8237   */\n      tag_263\n      jump\t// in\n    tag_281:\n        /* \"#utility.yul\":8151:8237   */\n      swap1\n      pop\n        /* \"#utility.yul\":8284:8293   */\n      dup2\n        /* \"#utility.yul\":8278:8282   */\n      dup2\n        /* \"#utility.yul\":8274:8294   */\n      sub\n        /* \"#utility.yul\":8269:8271   */\n      0x20\n        /* \"#utility.yul\":8258:8267   */\n      dup4\n        /* \"#utility.yul\":8254:8272   */\n      add\n        /* \"#utility.yul\":8247:8295   */\n      mstore\n        /* \"#utility.yul\":8312:8390   */\n      tag_282\n        /* \"#utility.yul\":8385:8389   */\n      dup2\n        /* \"#utility.yul\":8376:8382   */\n      dup6\n        /* \"#utility.yul\":8312:8390   */\n      tag_263\n      jump\t// in\n    tag_282:\n        /* \"#utility.yul\":8304:8390   */\n      swap1\n      pop\n        /* \"#utility.yul\":8400:8472   */\n      tag_283\n        /* \"#utility.yul\":8468:8470   */\n      0x40\n        /* \"#utility.yul\":8457:8466   */\n      dup4\n        /* \"#utility.yul\":8453:8471   */\n      add\n        /* \"#utility.yul\":8444:8450   */\n      dup5\n        /* \"#utility.yul\":8400:8472   */\n      tag_270\n      jump\t// in\n    tag_283:\n        /* \"#utility.yul\":7855:8479   */\n      swap5\n      swap4\n      pop\n      pop\n      pop\n      pop\n      jump\t// out\n        /* \"#utility.yul\":8485:8707   */\n    tag_33:\n        /* \"#utility.yul\":8578:8582   */\n      0x00\n        /* \"#utility.yul\":8616:8618   */\n      0x20\n        /* \"#utility.yul\":8605:8614   */\n      dup3\n        /* \"#utility.yul\":8601:8619   */\n      add\n        /* \"#utility.yul\":8593:8619   */\n      swap1\n      pop\n        /* \"#utility.yul\":8629:8700   */\n      tag_285\n        /* \"#utility.yul\":8697:8698   */\n      0x00\n        /* \"#utility.yul\":8686:8695   */\n      dup4\n        /* \"#utility.yul\":8682:8699   */\n      add\n        /* \"#utility.yul\":8673:8679   */\n      dup5\n        /* \"#utility.yul\":8629:8700   */\n      tag_270\n      jump\t// in\n    tag_285:\n        /* \"#utility.yul\":8485:8707   */\n      swap3\n      swap2\n      pop\n      pop\n      jump\t// out\n        /* \"#utility.yul\":8713:8842   */\n    tag_173:\n        /* \"#utility.yul\":8747:8753   */\n      0x00\n        /* \"#utility.yul\":8774:8794   */\n      tag_287\n      tag_288\n      jump\t// in\n    tag_287:\n        /* \"#utility.yul\":8764:8794   */\n      swap1\n      pop\n        /* \"#utility.yul\":8803:8836   */\n      tag_289\n        /* \"#utility.yul\":8831:8835   */\n      dup3\n        /* \"#utility.yul\":8823:8829   */\n      dup3\n        /* \"#utility.yul\":8803:8836   */\n      tag_290\n      jump\t// in\n    tag_289:\n        /* \"#utility.yul\":8713:8842   */\n      swap2\n      swap1\n      pop\n      jump\t// out\n        /* \"#utility.yul\":8848:8923   */\n    tag_288:\n        /* \"#utility.yul\":8881:8887   */\n      0x00\n        /* \"#utility.yul\":8914:8916   */\n      0x40\n        /* \"#utility.yul\":8908:8917   */\n      mload\n        /* \"#utility.yul\":8898:8917   */\n      swap1\n      pop\n        /* \"#utility.yul\":8848:8923   */\n      swap1\n      jump\t// out\n        /* \"#utility.yul\":8929:9237   */\n    tag_172:\n        /* \"#utility.yul\":8991:8995   */\n      0x00\n        /* \"#utility.yul\":9081:9099   */\n      0xffffffffffffffff\n        /* \"#utility.yul\":9073:9079   */\n      dup3\n        /* \"#utility.yul\":9070:9100   */\n      gt\n        /* \"#utility.yul\":9067:9123   */\n      iszero\n      tag_293\n      jumpi\n        /* \"#utility.yul\":9103:9121   */\n      tag_294\n      tag_295\n      jump\t// in\n    tag_294:\n        /* \"#utility.yul\":9067:9123   */\n    tag_293:\n        /* \"#utility.yul\":9141:9170   */\n      tag_296\n        /* \"#utility.yul\":9163:9169   */\n      dup3\n        /* \"#utility.yul\":9141:9170   */\n      tag_262\n      jump\t// in\n    tag_296:\n        /* \"#utility.yul\":9133:9170   */\n      swap1\n      pop\n        /* \"#utility.yul\":9225:9229   */\n      0x20\n        /* \"#utility.yul\":9219:9223   */\n      dup2\n        /* \"#utility.yul\":9215:9230   */\n      add\n        /* \"#utility.yul\":9207:9230   */\n      swap1\n      pop\n        /* \"#utility.yul\":8929:9237   */\n      swap2\n      swap1\n      pop\n      jump\t// out\n        /* \"#utility.yul\":9243:9385   */\n    tag_243:\n        /* \"#utility.yul\":9320:9324   */\n      0x00\n        /* \"#utility.yul\":9343:9346   */\n      dup2\n        /* \"#utility.yul\":9335:9346   */\n      swap1\n      pop\n        /* \"#utility.yul\":9373:9377   */\n      0x20\n        /* \"#utility.yul\":9368:9371   */\n      dup3\n        /* \"#utility.yul\":9364:9378   */\n      add\n        /* \"#utility.yul\":9356:9378   */\n      swap1\n      pop\n        /* \"#utility.yul\":9243:9385   */\n      swap2\n      swap1\n      pop\n      jump\t// out\n        /* \"#utility.yul\":9391:9515   */\n    tag_239:\n        /* \"#utility.yul\":9468:9474   */\n      0x00\n        /* \"#utility.yul\":9502:9507   */\n      dup2\n        /* \"#utility.yul\":9496:9508   */\n      mload\n        /* \"#utility.yul\":9486:9508   */\n      swap1\n      pop\n        /* \"#utility.yul\":9391:9515   */\n      swap2\n      swap1\n      pop\n      jump\t// out\n        /* \"#utility.yul\":9521:9620   */\n    tag_256:\n        /* \"#utility.yul\":9573:9579   */\n      0x00\n        /* \"#utility.yul\":9607:9612   */\n      dup2\n        /* \"#utility.yul\":9601:9613   */\n      mload\n        /* \"#utility.yul\":9591:9613   */\n      swap1\n      pop\n        /* \"#utility.yul\":9521:9620   */\n      swap2\n      swap1\n      pop\n      jump\t// out\n        /* \"#utility.yul\":9626:9749   */\n    tag_249:\n        /* \"#utility.yul\":9706:9710   */\n      0x00\n        /* \"#utility.yul\":9738:9742   */\n      0x20\n        /* \"#utility.yul\":9733:9736   */\n      dup3\n        /* \"#utility.yul\":9729:9743   */\n      add\n        /* \"#utility.yul\":9721:9743   */\n      swap1\n      pop\n        /* \"#utility.yul\":9626:9749   */\n      swap2\n      swap1\n      pop\n      jump\t// out\n        /* \"#utility.yul\":9755:9949   */\n    tag_241:\n        /* \"#utility.yul\":9864:9875   */\n      0x00\n        /* \"#utility.yul\":9898:9904   */\n      dup3\n        /* \"#utility.yul\":9893:9896   */\n      dup3\n        /* \"#utility.yul\":9886:9905   */\n      mstore\n        /* \"#utility.yul\":9938:9942   */\n      0x20\n        /* \"#utility.yul\":9933:9936   */\n      dup3\n        /* \"#utility.yul\":9929:9943   */\n      add\n        /* \"#utility.yul\":9914:9943   */\n      swap1\n      pop\n        /* \"#utility.yul\":9755:9949   */\n      swap3\n      swap2\n      pop\n      pop\n      jump\t// out\n        /* \"#utility.yul\":9955:10114   */\n    tag_258:\n        /* \"#utility.yul\":10029:10040   */\n      0x00\n        /* \"#utility.yul\":10063:10069   */\n      dup3\n        /* \"#utility.yul\":10058:10061   */\n      dup3\n        /* \"#utility.yul\":10051:10070   */\n      mstore\n        /* \"#utility.yul\":10103:10107   */\n      0x20\n        /* \"#utility.yul\":10098:10101   */\n      dup3\n        /* \"#utility.yul\":10094:10108   */\n      add\n        /* \"#utility.yul\":10079:10108   */\n      swap1\n      pop\n        /* \"#utility.yul\":9955:10114   */\n      swap3\n      swap2\n      pop\n      pop\n      jump\t// out\n        /* \"#utility.yul\":10120:10289   */\n    tag_267:\n        /* \"#utility.yul\":10204:10215   */\n      0x00\n        /* \"#utility.yul\":10238:10244   */\n      dup3\n        /* \"#utility.yul\":10233:10236   */\n      dup3\n        /* \"#utility.yul\":10226:10245   */\n      mstore\n        /* \"#utility.yul\":10278:10282   */\n      0x20\n        /* \"#utility.yul\":10273:10276   */\n      dup3\n        /* \"#utility.yul\":10269:10283   */\n      add\n        /* \"#utility.yul\":10254:10283   */\n      swap1\n      pop\n        /* \"#utility.yul\":10120:10289   */\n      swap3\n      swap2\n      pop\n      pop\n      jump\t// out\n        /* \"#utility.yul\":10295:10391   */\n    tag_304:\n        /* \"#utility.yul\":10332:10339   */\n      0x00\n        /* \"#utility.yul\":10361:10385   */\n      tag_306\n        /* \"#utility.yul\":10379:10384   */\n      dup3\n        /* \"#utility.yul\":10361:10385   */\n      tag_307\n      jump\t// in\n    tag_306:\n        /* \"#utility.yul\":10350:10385   */\n      swap1\n      pop\n        /* \"#utility.yul\":10295:10391   */\n      swap2\n      swap1\n      pop\n      jump\t// out\n        /* \"#utility.yul\":10397:10532   */\n    tag_308:\n        /* \"#utility.yul\":10446:10453   */\n      0x00\n        /* \"#utility.yul\":10475:10480   */\n      dup2\n        /* \"#utility.yul\":10464:10480   */\n      swap1\n      pop\n        /* \"#utility.yul\":10481:10526   */\n      tag_310\n        /* \"#utility.yul\":10520:10525   */\n      dup3\n        /* \"#utility.yul\":10481:10526   */\n      tag_311\n      jump\t// in\n    tag_310:\n        /* \"#utility.yul\":10397:10532   */\n      swap2\n      swap1\n      pop\n      jump\t// out\n        /* \"#utility.yul\":10538:10664   */\n    tag_307:\n        /* \"#utility.yul\":10575:10582   */\n      0x00\n        /* \"#utility.yul\":10615:10657   */\n      0xffffffffffffffffffffffffffffffffffffffff\n        /* \"#utility.yul\":10608:10613   */\n      dup3\n        /* \"#utility.yul\":10604:10658   */\n      and\n        /* \"#utility.yul\":10593:10658   */\n      swap1\n      pop\n        /* \"#utility.yul\":10538:10664   */\n      swap2\n      swap1\n      pop\n      jump\t// out\n        /* \"#utility.yul\":10670:10747   */\n    tag_273:\n        /* \"#utility.yul\":10707:10714   */\n      0x00\n        /* \"#utility.yul\":10736:10741   */\n      dup2\n        /* \"#utility.yul\":10725:10741   */\n      swap1\n      pop\n        /* \"#utility.yul\":10670:10747   */\n      swap2\n      swap1\n      pop\n      jump\t// out\n        /* \"#utility.yul\":10753:10888   */\n    tag_253:\n        /* \"#utility.yul\":10813:10822   */\n      0x00\n        /* \"#utility.yul\":10846:10882   */\n      tag_315\n        /* \"#utility.yul\":10876:10881   */\n      dup3\n        /* \"#utility.yul\":10846:10882   */\n      tag_308\n      jump\t// in\n    tag_315:\n        /* \"#utility.yul\":10833:10882   */\n      swap1\n      pop\n        /* \"#utility.yul\":10753:10888   */\n      swap2\n      swap1\n      pop\n      jump\t// out\n        /* \"#utility.yul\":10894:11048   */\n    tag_178:\n        /* \"#utility.yul\":10978:10984   */\n      dup3\n        /* \"#utility.yul\":10973:10976   */\n      dup2\n        /* \"#utility.yul\":10968:10971   */\n      dup4\n        /* \"#utility.yul\":10955:10985   */\n      calldatacopy\n        /* \"#utility.yul\":11040:11041   */\n      0x00\n        /* \"#utility.yul\":11031:11037   */\n      dup4\n        /* \"#utility.yul\":11026:11029   */\n      dup4\n        /* \"#utility.yul\":11022:11038   */\n      add\n        /* \"#utility.yul\":11015:11042   */\n      mstore\n        /* \"#utility.yul\":10894:11048   */\n      pop\n      pop\n      pop\n      jump\t// out\n        /* \"#utility.yul\":11054:11361   */\n    tag_260:\n        /* \"#utility.yul\":11122:11123   */\n      0x00\n        /* \"#utility.yul\":11132:11245   */\n    tag_318:\n        /* \"#utility.yul\":11146:11152   */\n      dup4\n        /* \"#utility.yul\":11143:11144   */\n      dup2\n        /* \"#utility.yul\":11140:11153   */\n      lt\n        /* \"#utility.yul\":11132:11245   */\n      iszero\n      tag_320\n      jumpi\n        /* \"#utility.yul\":11231:11232   */\n      dup1\n        /* \"#utility.yul\":11226:11229   */\n      dup3\n        /* \"#utility.yul\":11222:11233   */\n      add\n        /* \"#utility.yul\":11216:11234   */\n      mload\n        /* \"#utility.yul\":11212:11213   */\n      dup2\n        /* \"#utility.yul\":11207:11210   */\n      dup5\n        /* \"#utility.yul\":11203:11214   */\n      add\n        /* \"#utility.yul\":11196:11235   */\n      mstore\n        /* \"#utility.yul\":11168:11170   */\n      0x20\n        /* \"#utility.yul\":11165:11166   */\n      dup2\n        /* \"#utility.yul\":11161:11171   */\n      add\n        /* \"#utility.yul\":11156:11171   */\n      swap1\n      pop\n        /* \"#utility.yul\":11132:11245   */\n      jump(tag_318)\n    tag_320:\n        /* \"#utility.yul\":11263:11269   */\n      dup4\n        /* \"#utility.yul\":11260:11261   */\n      dup2\n        /* \"#utility.yul\":11257:11270   */\n      gt\n        /* \"#utility.yul\":11254:11355   */\n      iszero\n      tag_321\n      jumpi\n        /* \"#utility.yul\":11343:11344   */\n      0x00\n        /* \"#utility.yul\":11334:11340   */\n      dup5\n        /* \"#utility.yul\":11329:11332   */\n      dup5\n        /* \"#utility.yul\":11325:11341   */\n      add\n        /* \"#utility.yul\":11318:11345   */\n      mstore\n        /* \"#utility.yul\":11254:11355   */\n    tag_321:\n        /* \"#utility.yul\":11103:11361   */\n      pop\n        /* \"#utility.yul\":11054:11361   */\n      pop\n      pop\n      pop\n      jump\t// out\n        /* \"#utility.yul\":11367:11687   */\n    tag_85:\n        /* \"#utility.yul\":11411:11417   */\n      0x00\n        /* \"#utility.yul\":11448:11449   */\n      0x02\n        /* \"#utility.yul\":11442:11446   */\n      dup3\n        /* \"#utility.yul\":11438:11450   */\n      div\n        /* \"#utility.yul\":11428:11450   */\n      swap1\n      pop\n        /* \"#utility.yul\":11495:11496   */\n      0x01\n        /* \"#utility.yul\":11489:11493   */\n      dup3\n        /* \"#utility.yul\":11485:11497   */\n      and\n        /* \"#utility.yul\":11516:11534   */\n      dup1\n        /* \"#utility.yul\":11506:11587   */\n      tag_323\n      jumpi\n        /* \"#utility.yul\":11572:11576   */\n      0x7f\n        /* \"#utility.yul\":11564:11570   */\n      dup3\n        /* \"#utility.yul\":11560:11577   */\n      and\n        /* \"#utility.yul\":11550:11577   */\n      swap2\n      pop\n        /* \"#utility.yul\":11506:11587   */\n    tag_323:\n        /* \"#utility.yul\":11634:11636   */\n      0x20\n        /* \"#utility.yul\":11626:11632   */\n      dup3\n        /* \"#utility.yul\":11623:11637   */\n      lt\n        /* \"#utility.yul\":11603:11621   */\n      dup2\n        /* \"#utility.yul\":11600:11638   */\n      eq\n        /* \"#utility.yul\":11597:11681   */\n      iszero\n      tag_324\n      jumpi\n        /* \"#utility.yul\":11653:11671   */\n      tag_325\n      tag_326\n      jump\t// in\n    tag_325:\n        /* \"#utility.yul\":11597:11681   */\n    tag_324:\n        /* \"#utility.yul\":11418:11687   */\n      pop\n        /* \"#utility.yul\":11367:11687   */\n      swap2\n      swap1\n      pop\n      jump\t// out\n        /* \"#utility.yul\":11693:11974   */\n    tag_290:\n        /* \"#utility.yul\":11776:11803   */\n      tag_328\n        /* \"#utility.yul\":11798:11802   */\n      dup3\n        /* \"#utility.yul\":11776:11803   */\n      tag_262\n      jump\t// in\n    tag_328:\n        /* \"#utility.yul\":11768:11774   */\n      dup2\n        /* \"#utility.yul\":11764:11804   */\n      add\n        /* \"#utility.yul\":11906:11912   */\n      dup2\n        /* \"#utility.yul\":11894:11904   */\n      dup2\n        /* \"#utility.yul\":11891:11913   */\n      lt\n        /* \"#utility.yul\":11870:11888   */\n      0xffffffffffffffff\n        /* \"#utility.yul\":11858:11868   */\n      dup3\n        /* \"#utility.yul\":11855:11889   */\n      gt\n        /* \"#utility.yul\":11852:11914   */\n      or\n        /* \"#utility.yul\":11849:11937   */\n      iszero\n      tag_329\n      jumpi\n        /* \"#utility.yul\":11917:11935   */\n      tag_330\n      tag_295\n      jump\t// in\n    tag_330:\n        /* \"#utility.yul\":11849:11937   */\n    tag_329:\n        /* \"#utility.yul\":11957:11967   */\n      dup1\n        /* \"#utility.yul\":11953:11955   */\n      0x40\n        /* \"#utility.yul\":11946:11968   */\n      mstore\n        /* \"#utility.yul\":11736:11974   */\n      pop\n        /* \"#utility.yul\":11693:11974   */\n      pop\n      pop\n      jump\t// out\n        /* \"#utility.yul\":11980:12160   */\n    tag_132:\n        /* \"#utility.yul\":12028:12105   */\n      0x4e487b7100000000000000000000000000000000000000000000000000000000\n        /* \"#utility.yul\":12025:12026   */\n      0x00\n        /* \"#utility.yul\":12018:12106   */\n      mstore\n        /* \"#utility.yul\":12125:12129   */\n      0x21\n        /* \"#utility.yul\":12122:12123   */\n      0x04\n        /* \"#utility.yul\":12115:12130   */\n      mstore\n        /* \"#utility.yul\":12149:12153   */\n      0x24\n        /* \"#utility.yul\":12146:12147   */\n      0x00\n        /* \"#utility.yul\":12139:12154   */\n      revert\n        /* \"#utility.yul\":12166:12346   */\n    tag_326:\n        /* \"#utility.yul\":12214:12291   */\n      0x4e487b7100000000000000000000000000000000000000000000000000000000\n        /* \"#utility.yul\":12211:12212   */\n      0x00\n        /* \"#utility.yul\":12204:12292   */\n      mstore\n        /* \"#utility.yul\":12311:12315   */\n      0x22\n        /* \"#utility.yul\":12308:12309   */\n      0x04\n        /* \"#utility.yul\":12301:12316   */\n      mstore\n        /* \"#utility.yul\":12335:12339   */\n      0x24\n        /* \"#utility.yul\":12332:12333   */\n      0x00\n        /* \"#utility.yul\":12325:12340   */\n      revert\n        /* \"#utility.yul\":12352:12532   */\n    tag_93:\n        /* \"#utility.yul\":12400:12477   */\n      0x4e487b7100000000000000000000000000000000000000000000000000000000\n        /* \"#utility.yul\":12397:12398   */\n      0x00\n        /* \"#utility.yul\":12390:12478   */\n      mstore\n        /* \"#utility.yul\":12497:12501   */\n      0x32\n        /* \"#utility.yul\":12494:12495   */\n      0x04\n        /* \"#utility.yul\":12487:12502   */\n      mstore\n        /* \"#utility.yul\":12521:12525   */\n      0x24\n        /* \"#utility.yul\":12518:12519   */\n      0x00\n        /* \"#utility.yul\":12511:12526   */\n      revert\n        /* \"#utility.yul\":12538:12718   */\n    tag_295:\n        /* \"#utility.yul\":12586:12663   */\n      0x4e487b7100000000000000000000000000000000000000000000000000000000\n        /* \"#utility.yul\":12583:12584   */\n      0x00\n        /* \"#utility.yul\":12576:12664   */\n      mstore\n        /* \"#utility.yul\":12683:12687   */\n      0x41\n        /* \"#utility.yul\":12680:12681   */\n      0x04\n        /* \"#utility.yul\":12673:12688   */\n      mstore\n        /* \"#utility.yul\":12707:12711   */\n      0x24\n        /* \"#utility.yul\":12704:12705   */\n      0x00\n        /* \"#utility.yul\":12697:12712   */\n      revert\n        /* \"#utility.yul\":12724:12841   */\n    tag_187:\n        /* \"#utility.yul\":12833:12834   */\n      0x00\n        /* \"#utility.yul\":12830:12831   */\n      dup1\n        /* \"#utility.yul\":12823:12835   */\n      revert\n        /* \"#utility.yul\":12847:12964   */\n    tag_176:\n        /* \"#utility.yul\":12956:12957   */\n      0x00\n        /* \"#utility.yul\":12953:12954   */\n      dup1\n        /* \"#utility.yul\":12946:12958   */\n      revert\n        /* \"#utility.yul\":12970:13087   */\n    tag_203:\n        /* \"#utility.yul\":13079:13080   */\n      0x00\n        /* \"#utility.yul\":13076:13077   */\n      dup1\n        /* \"#utility.yul\":13069:13081   */\n      revert\n        /* \"#utility.yul\":13093:13210   */\n    tag_196:\n        /* \"#utility.yul\":13202:13203   */\n      0x00\n        /* \"#utility.yul\":13199:13200   */\n      dup1\n        /* \"#utility.yul\":13192:13204   */\n      revert\n        /* \"#utility.yul\":13216:13318   */\n    tag_262:\n        /* \"#utility.yul\":13257:13263   */\n      0x00\n        /* \"#utility.yul\":13308:13310   */\n      0x1f\n        /* \"#utility.yul\":13304:13311   */\n      not\n        /* \"#utility.yul\":13299:13301   */\n      0x1f\n        /* \"#utility.yul\":13292:13297   */\n      dup4\n        /* \"#utility.yul\":13288:13302   */\n      add\n        /* \"#utility.yul\":13284:13312   */\n      and\n        /* \"#utility.yul\":13274:13312   */\n      swap1\n      pop\n        /* \"#utility.yul\":13216:13318   */\n      swap2\n      swap1\n      pop\n      jump\t// out\n        /* \"#utility.yul\":13324:13441   */\n    tag_311:\n        /* \"#utility.yul\":13409:13410   */\n      0x02\n        /* \"#utility.yul\":13402:13407   */\n      dup2\n        /* \"#utility.yul\":13399:13411   */\n      lt\n        /* \"#utility.yul\":13389:13435   */\n      tag_341\n      jumpi\n        /* \"#utility.yul\":13415:13433   */\n      tag_342\n      tag_132\n      jump\t// in\n    tag_342:\n        /* \"#utility.yul\":13389:13435   */\n    tag_341:\n        /* \"#utility.yul\":13324:13441   */\n      pop\n      jump\t// out\n        /* \"#utility.yul\":13447:13569   */\n    tag_182:\n        /* \"#utility.yul\":13520:13544   */\n      tag_344\n        /* \"#utility.yul\":13538:13543   */\n      dup2\n        /* \"#utility.yul\":13520:13544   */\n      tag_304\n      jump\t// in\n    tag_344:\n        /* \"#utility.yul\":13513:13518   */\n      dup2\n        /* \"#utility.yul\":13510:13545   */\n      eq\n        /* \"#utility.yul\":13500:13563   */\n      tag_345\n      jumpi\n        /* \"#utility.yul\":13559:13560   */\n      0x00\n        /* \"#utility.yul\":13556:13557   */\n      dup1\n        /* \"#utility.yul\":13549:13561   */\n      revert\n        /* \"#utility.yul\":13500:13563   */\n    tag_345:\n        /* \"#utility.yul\":13447:13569   */\n      pop\n      jump\t// out\n        /* \"#utility.yul\":13575:13697   */\n    tag_192:\n        /* \"#utility.yul\":13648:13672   */\n      tag_347\n        /* \"#utility.yul\":13666:13671   */\n      dup2\n        /* \"#utility.yul\":13648:13672   */\n      tag_273\n      jump\t// in\n    tag_347:\n        /* \"#utility.yul\":13641:13646   */\n      dup2\n        /* \"#utility.yul\":13638:13673   */\n      eq\n        /* \"#utility.yul\":13628:13691   */\n      tag_348\n      jumpi\n        /* \"#utility.yul\":13687:13688   */\n      0x00\n        /* \"#utility.yul\":13684:13685   */\n      dup1\n        /* \"#utility.yul\":13677:13689   */\n      revert\n        /* \"#utility.yul\":13628:13691   */\n    tag_348:\n        /* \"#utility.yul\":13575:13697   */\n      pop\n      jump\t// out\n\n    auxdata: 0xa2646970667358221220503b87b53095dc19c6eeb7c65e5bc2b0e935664029e25e8a26ac34976e05f90664736f6c63430008070033\n}\n",
				"bytecode": {
					"linkReferences": {},
					"object": "60806040523480156200001157600080fd5b50604051620015da380380620015da8339818101604052810190620000379190620001a4565b81600090805190602001906200004f9291906200005f565b50806001819055505050620003b2565b8280546200006d90620002a9565b90600052602060002090601f016020900481019282620000915760008555620000dd565b82601f10620000ac57805160ff1916838001178555620000dd565b82800160010185558215620000dd579182015b82811115620000dc578251825591602001919060010190620000bf565b5b509050620000ec9190620000f0565b5090565b5b808211156200010b576000816000905550600101620000f1565b5090565b600062000126620001208462000233565b6200020a565b90508281526020810184848401111562000145576200014462000378565b5b6200015284828562000273565b509392505050565b600082601f83011262000172576200017162000373565b5b8151620001848482602086016200010f565b91505092915050565b6000815190506200019e8162000398565b92915050565b60008060408385031215620001be57620001bd62000382565b5b600083015167ffffffffffffffff811115620001df57620001de6200037d565b5b620001ed858286016200015a565b925050602062000200858286016200018d565b9150509250929050565b60006200021662000229565b9050620002248282620002df565b919050565b6000604051905090565b600067ffffffffffffffff82111562000251576200025062000344565b5b6200025c8262000387565b9050602081019050919050565b6000819050919050565b60005b838110156200029357808201518184015260208101905062000276565b83811115620002a3576000848401525b50505050565b60006002820490506001821680620002c257607f821691505b60208210811415620002d957620002d862000315565b5b50919050565b620002ea8262000387565b810181811067ffffffffffffffff821117156200030c576200030b62000344565b5b80604052505050565b7f4e487b7100000000000000000000000000000000000000000000000000000000600052602260045260246000fd5b7f4e487b7100000000000000000000000000000000000000000000000000000000600052604160045260246000fd5b600080fd5b600080fd5b600080fd5b600080fd5b6000601f19601f8301169050919050565b620003a38162000269565b8114620003af57600080fd5b50565b61121880620003c26000396000f3fe608060405234801561001057600080fd5b50600436106101005760003560e01c80637f0429ef1161009757806398f42fe31161006657806398f42fe314610277578063d653f30714610295578063e347a2be146102c5578063e780faa3146102e357610100565b80637f0429ef146102035780638151e2091461022157806387ba57c91461022b57806398b20ac81461024757610100565b806348593bae116100d357806348593bae1461017d578063492bfc051461019b5780636d35e346146101cb578063767f9dcf146101e757610100565b806306fdde0314610105578063204653d314610123578063262a9dff1461013f578063465fe0ee1461015d575b600080fd5b61010d610313565b60405161011a9190610e7b565b60405180910390f35b61013d60048036038101906101389190610c7e565b6103a1565b005b6101476103db565b6040516101549190610ee2565b60405180910390f35b6101656103e1565b60405161017493929190610e9d565b60405180910390f35b610185610509565b6040516101929190610e60565b60405180910390f35b6101b560048036038101906101b09190610b3d565b610520565b6040516101c29190610e7b565b60405180910390f35b6101e560048036038101906101e09190610cbe565b6105c0565b005b61020160048036038101906101fc9190610bc6565b61066a565b005b61020b6106d3565b6040516102189190610e7b565b60405180910390f35b610229610768565b005b61024560048036038101906102409190610b6a565b610795565b005b610261600480360381019061025c9190610c51565b610829565b60405161026e9190610e7b565b60405180910390f35b61027f6108d5565b60405161028c9190610e60565b60405180910390f35b6102af60048036038101906102aa9190610c51565b6108e8565b6040516102bc9190610ee2565b60405180910390f35b6102cd61090c565b6040516102da9190610e3e565b60405180910390f35b6102fd60048036038101906102f89190610c51565b6109e5565b60405161030a9190610ee2565b60405180910390f35b600080546103209061105c565b80601f016020809104026020016040519081016040528092919081815260200182805461034c9061105c565b80156103995780601f1061036e57610100808354040283529160200191610399565b820191906000526020600020905b81548152906001019060200180831161037c57829003601f168201915b505050505081565b8160026000600281106103b7576103b661111d565b5b01819055508060026001600281106103d2576103d161111d565b5b01819055505050565b60015481565b60058060000180546103f29061105c565b80601f016020809104026020016040519081016040528092919081815260200182805461041e9061105c565b801561046b5780601f106104405761010080835404028352916020019161046b565b820191906000526020600020905b81548152906001019060200180831161044e57829003601f168201915b5050505050908060010180546104809061105c565b80601f01602080910402602001604051908101604052809291908181526020018280546104ac9061105c565b80156104f95780601f106104ce576101008083540402835291602001916104f9565b820191906000526020600020905b8154815290600101906020018083116104dc57829003601f168201915b5050505050908060020154905083565b6000600860009054906101000a900460ff16905090565b6009602052806000526040600020600091509050805461053f9061105c565b80601f016020809104026020016040519081016040528092919081815260200182805461056b9061105c565b80156105b85780601f1061058d576101008083540402835291602001916105b8565b820191906000526020600020905b81548152906001019060200180831161059b57829003601f168201915b505050505081565b600484908060018154018082558091505060019003906000526020600020016000909190919091505560048390806001815401808255809150506001900390600052602060002001600090919091909150556004829080600181540180825580915050600190039060005260206000200160009091909190915055600481908060018154018082558091505060019003906000526020600020016000909190919091505550505050565b604051806060016040528084815260200183815260200182815250600560008201518160000190805190602001906106a3929190610a00565b5060208201518160010190805190602001906106c0929190610a00565b5060408201518160020155905050505050565b6060600560000180546106e59061105c565b80601f01602080910402602001604051908101604052809291908181526020018280546107119061105c565b801561075e5780601f106107335761010080835404028352916020019161075e565b820191906000526020600020905b81548152906001019060200180831161074157829003601f168201915b5050505050905090565b6000600860006101000a81548160ff0219169083600181111561078e5761078d6110bf565b5b0217905550565b81600960003373ffffffffffffffffffffffffffffffffffffffff1673ffffffffffffffffffffffffffffffffffffffff16815260200190815260200160002090805190602001906107e8929190610a00565b50600a82908060018154018082558091505060019003906000526020600020016000909190919091509080519060200190610824929190610a00565b505050565b600a818154811061083957600080fd5b9060005260206000200160009150905080546108549061105c565b80601f01602080910402602001604051908101604052809291908181526020018280546108809061105c565b80156108cd5780601f106108a2576101008083540402835291602001916108cd565b820191906000526020600020905b8154815290600101906020018083116108b057829003601f168201915b505050505081565b600860009054906101000a900460ff1681565b600481815481106108f857600080fd5b906000526020600020016000915090505481565b6060600a805480602002602001604051908101604052809291908181526020016000905b828210156109dc57838290600052602060002001805461094f9061105c565b80601f016020809104026020016040519081016040528092919081815260200182805461097b9061105c565b80156109c85780601f1061099d576101008083540402835291602001916109c8565b820191906000526020600020905b8154815290600101906020018083116109ab57829003601f168201915b505050505081526020019060010190610930565b50505050905090565b600281600281106109f557600080fd5b016000915090505481565b828054610a0c9061105c565b90600052602060002090601f016020900481019282610a2e5760008555610a75565b82601f10610a4757805160ff1916838001178555610a75565b82800160010185558215610a75579182015b82811115610a74578251825591602001919060010190610a59565b5b509050610a829190610a86565b5090565b5b80821115610a9f576000816000905550600101610a87565b5090565b6000610ab6610ab184610f22565b610efd565b905082815260208101848484011115610ad257610ad1611180565b5b610add84828561101a565b509392505050565b600081359050610af4816111b4565b92915050565b600082601f830112610b0f57610b0e61117b565b5b8135610b1f848260208601610aa3565b91505092915050565b600081359050610b37816111cb565b92915050565b600060208284031215610b5357610b5261118a565b5b6000610b6184828501610ae5565b91505092915050565b60008060408385031215610b8157610b8061118a565b5b600083013567ffffffffffffffff811115610b9f57610b9e611185565b5b610bab85828601610afa565b9250506020610bbc85828601610ae5565b9150509250929050565b600080600060608486031215610bdf57610bde61118a565b5b600084013567ffffffffffffffff811115610bfd57610bfc611185565b5b610c0986828701610afa565b935050602084013567ffffffffffffffff811115610c2a57610c29611185565b5b610c3686828701610afa565b9250506040610c4786828701610b28565b9150509250925092565b600060208284031215610c6757610c6661118a565b5b6000610c7584828501610b28565b91505092915050565b60008060408385031215610c9557610c9461118a565b5b6000610ca385828601610b28565b9250506020610cb485828601610b28565b9150509250929050565b60008060008060808587031215610cd857610cd761118a565b5b6000610ce687828801610b28565b9450506020610cf787828801610b28565b9350506040610d0887828801610b28565b9250506060610d1987828801610b28565b91505092959194509250565b6000610d318383610dbd565b905092915050565b6000610d4482610f63565b610d4e8185610f86565b935083602082028501610d6085610f53565b8060005b85811015610d9c5784840389528151610d7d8582610d25565b9450610d8883610f79565b925060208a01995050600181019050610d64565b50829750879550505050505092915050565b610db781611008565b82525050565b6000610dc882610f6e565b610dd28185610f97565b9350610de2818560208601611029565b610deb8161118f565b840191505092915050565b6000610e0182610f6e565b610e0b8185610fa8565b9350610e1b818560208601611029565b610e248161118f565b840191505092915050565b610e3881610ffe565b82525050565b60006020820190508181036000830152610e588184610d39565b905092915050565b6000602082019050610e756000830184610dae565b92915050565b60006020820190508181036000830152610e958184610df6565b905092915050565b60006060820190508181036000830152610eb78186610df6565b90508181036020830152610ecb8185610df6565b9050610eda6040830184610e2f565b949350505050565b6000602082019050610ef76000830184610e2f565b92915050565b6000610f07610f18565b9050610f13828261108e565b919050565b6000604051905090565b600067ffffffffffffffff821115610f3d57610f3c61114c565b5b610f468261118f565b9050602081019050919050565b6000819050602082019050919050565b600081519050919050565b600081519050919050565b6000602082019050919050565b600082825260208201905092915050565b600082825260208201905092915050565b600082825260208201905092915050565b6000610fc482610fde565b9050919050565b6000819050610fd9826111a0565b919050565b600073ffffffffffffffffffffffffffffffffffffffff82169050919050565b6000819050919050565b600061101382610fcb565b9050919050565b82818337600083830152505050565b60005b8381101561104757808201518184015260208101905061102c565b83811115611056576000848401525b50505050565b6000600282049050600182168061107457607f821691505b60208210811415611088576110876110ee565b5b50919050565b6110978261118f565b810181811067ffffffffffffffff821117156110b6576110b561114c565b5b80604052505050565b7f4e487b7100000000000000000000000000000000000000000000000000000000600052602160045260246000fd5b7f4e487b7100000000000000000000000000000000000000000000000000000000600052602260045260246000fd5b7f4e487b7100000000000000000000000000000000000000000000000000000000600052603260045260246000fd5b7f4e487b7100000000000000000000000000000000000000000000000000000000600052604160045260246000fd5b600080fd5b600080fd5b600080fd5b600080fd5b6000601f19601f8301169050919050565b600281106111b1576111b06110bf565b5b50565b6111bd81610fb9565b81146111c857600080fd5b50565b6111d481610ffe565b81146111df57600080fd5b5056fea2646970667358221220503b87b53095dc19c6eeb7c65e5bc2b0e935664029e25e8a26ac34976e05f90664736f6c63430008070033",
					"opcodes": "PUSH1 0x80 PUSH1 0x40 MSTORE CALLVALUE DUP1 ISZERO PUSH3 0x11 JUMPI PUSH1 0x0 DUP1 REVERT JUMPDEST POP PUSH1 0x40 MLOAD PUSH3 0x15DA CODESIZE SUB DUP1 PUSH3 0x15DA DUP4 CODECOPY DUP2 DUP2 ADD PUSH1 0x40 MSTORE DUP2 ADD SWAP1 PUSH3 0x37 SWAP2 SWAP1 PUSH3 0x1A4 JUMP JUMPDEST DUP2 PUSH1 0x0 SWAP1 DUP1 MLOAD SWAP1 PUSH1 0x20 ADD SWAP1 PUSH3 0x4F SWAP3 SWAP2 SWAP1 PUSH3 0x5F JUMP JUMPDEST POP DUP1 PUSH1 0x1 DUP2 SWAP1 SSTORE POP POP POP PUSH3 0x3B2 JUMP JUMPDEST DUP3 DUP1 SLOAD PUSH3 0x6D SWAP1 PUSH3 0x2A9 JUMP JUMPDEST SWAP1 PUSH1 0x0 MSTORE PUSH1 0x20 PUSH1 0x0 KECCAK256 SWAP1 PUSH1 0x1F ADD PUSH1 0x20 SWAP1 DIV DUP2 ADD SWAP3 DUP3 PUSH3 0x91 JUMPI PUSH1 0x0 DUP6 SSTORE PUSH3 0xDD JUMP JUMPDEST DUP3 PUSH1 0x1F LT PUSH3 0xAC JUMPI DUP1 MLOAD PUSH1 0xFF NOT AND DUP4 DUP1 ADD OR DUP6 SSTORE PUSH3 0xDD JUMP JUMPDEST DUP3 DUP1 ADD PUSH1 0x1 ADD DUP6 SSTORE DUP3 ISZERO PUSH3 0xDD JUMPI SWAP2 DUP3 ADD JUMPDEST DUP3 DUP2 GT ISZERO PUSH3 0xDC JUMPI DUP3 MLOAD DUP3 SSTORE SWAP2 PUSH1 0x20 ADD SWAP2 SWAP1 PUSH1 0x1 ADD SWAP1 PUSH3 0xBF JUMP JUMPDEST JUMPDEST POP SWAP1 POP PUSH3 0xEC SWAP2 SWAP1 PUSH3 0xF0 JUMP JUMPDEST POP SWAP1 JUMP JUMPDEST JUMPDEST DUP1 DUP3 GT ISZERO PUSH3 0x10B JUMPI PUSH1 0x0 DUP2 PUSH1 0x0 SWAP1 SSTORE POP PUSH1 0x1 ADD PUSH3 0xF1 JUMP JUMPDEST POP SWAP1 JUMP JUMPDEST PUSH1 0x0 PUSH3 0x126 PUSH3 0x120 DUP5 PUSH3 0x233 JUMP JUMPDEST PUSH3 0x20A JUMP JUMPDEST SWAP1 POP DUP3 DUP2 MSTORE PUSH1 0x20 DUP2 ADD DUP5 DUP5 DUP5 ADD GT ISZERO PUSH3 0x145 JUMPI PUSH3 0x144 PUSH3 0x378 JUMP JUMPDEST JUMPDEST PUSH3 0x152 DUP5 DUP3 DUP6 PUSH3 0x273 JUMP JUMPDEST POP SWAP4 SWAP3 POP POP POP JUMP JUMPDEST PUSH1 0x0 DUP3 PUSH1 0x1F DUP4 ADD SLT PUSH3 0x172 JUMPI PUSH3 0x171 PUSH3 0x373 JUMP JUMPDEST JUMPDEST DUP2 MLOAD PUSH3 0x184 DUP5 DUP3 PUSH1 0x20 DUP7 ADD PUSH3 0x10F JUMP JUMPDEST SWAP2 POP POP SWAP3 SWAP2 POP POP JUMP JUMPDEST PUSH1 0x0 DUP2 MLOAD SWAP1 POP PUSH3 0x19E DUP2 PUSH3 0x398 JUMP JUMPDEST SWAP3 SWAP2 POP POP JUMP JUMPDEST PUSH1 0x0 DUP1 PUSH1 0x40 DUP4 DUP6 SUB SLT ISZERO PUSH3 0x1BE JUMPI PUSH3 0x1BD PUSH3 0x382 JUMP JUMPDEST JUMPDEST PUSH1 0x0 DUP4 ADD MLOAD PUSH8 0xFFFFFFFFFFFFFFFF DUP2 GT ISZERO PUSH3 0x1DF JUMPI PUSH3 0x1DE PUSH3 0x37D JUMP JUMPDEST JUMPDEST PUSH3 0x1ED DUP6 DUP3 DUP7 ADD PUSH3 0x15A JUMP JUMPDEST SWAP3 POP POP PUSH1 0x20 PUSH3 0x200 DUP6 DUP3 DUP7 ADD PUSH3 0x18D JUMP JUMPDEST SWAP2 POP POP SWAP3 POP SWAP3 SWAP1 POP JUMP JUMPDEST PUSH1 0x0 PUSH3 0x216 PUSH3 0x229 JUMP JUMPDEST SWAP1 POP PUSH3 0x224 DUP3 DUP3 PUSH3 0x2DF JUMP JUMPDEST SWAP2 SWAP1 POP JUMP JUMPDEST PUSH1 0x0 PUSH1 0x40 MLOAD SWAP1 POP SWAP1 JUMP JUMPDEST PUSH1 0x0 PUSH8 0xFFFFFFFFFFFFFFFF DUP3 GT ISZERO PUSH3 0x251 JUMPI PUSH3 0x250 PUSH3 0x344 JUMP JUMPDEST JUMPDEST PUSH3 0x25C DUP3 PUSH3 0x387 JUMP JUMPDEST SWAP1 POP PUSH1 0x20 DUP2 ADD SWAP1 POP SWAP2 SWAP1 POP JUMP JUMPDEST PUSH1 0x0 DUP2 SWAP1 POP SWAP2 SWAP1 POP JUMP JUMPDEST PUSH1 0x0 JUMPDEST DUP4 DUP2 LT ISZERO PUSH3 0x293 JUMPI DUP1 DUP3 ADD MLOAD DUP2 DUP5 ADD MSTORE PUSH1 0x20 DUP2 ADD SWAP1 POP PUSH3 0x276 JUMP JUMPDEST DUP4 DUP2 GT ISZERO PUSH3 0x2A3 JUMPI PUSH1 0x0 DUP5 DUP5 ADD MSTORE JUMPDEST POP POP POP POP JUMP JUMPDEST PUSH1 0x0 PUSH1 0x2 DUP3 DIV SWAP1 POP PUSH1 0x1 DUP3 AND DUP1 PUSH3 0x2C2 JUMPI PUSH1 0x7F DUP3 AND SWAP2 POP JUMPDEST PUSH1 0x20 DUP3 LT DUP2 EQ ISZERO PUSH3 0x2D9 JUMPI PUSH3 0x2D8 PUSH3 0x315 JUMP JUMPDEST JUMPDEST POP SWAP2 SWAP1 POP JUMP JUMPDEST PUSH3 0x2EA DUP3 PUSH3 0x387 JUMP JUMPDEST DUP2 ADD DUP2 DUP2 LT PUSH8 0xFFFFFFFFFFFFFFFF DUP3 GT OR ISZERO PUSH3 0x30C JUMPI PUSH3 0x30B PUSH3 0x344 JUMP JUMPDEST JUMPDEST DUP1 PUSH1 0x40 MSTORE POP POP POP JUMP JUMPDEST PUSH32 0x4E487B7100000000000000000000000000000000000000000000000000000000 PUSH1 0x0 MSTORE PUSH1 0x22 PUSH1 0x4 MSTORE PUSH1 0x24 PUSH1 0x0 REVERT JUMPDEST PUSH32 0x4E487B7100000000000000000000000000000000000000000000000000000000 PUSH1 0x0 MSTORE PUSH1 0x41 PUSH1 0x4 MSTORE PUSH1 0x24 PUSH1 0x0 REVERT JUMPDEST PUSH1 0x0 DUP1 REVERT JUMPDEST PUSH1 0x0 DUP1 REVERT JUMPDEST PUSH1 0x0 DUP1 REVERT JUMPDEST PUSH1 0x0 DUP1 REVERT JUMPDEST PUSH1 0x0 PUSH1 0x1F NOT PUSH1 0x1F DUP4 ADD AND SWAP1 POP SWAP2 SWAP1 POP JUMP JUMPDEST PUSH3 0x3A3 DUP2 PUSH3 0x269 JUMP JUMPDEST DUP2 EQ PUSH3 0x3AF JUMPI PUSH1 0x0 DUP1 REVERT JUMPDEST POP JUMP JUMPDEST PUSH2 0x1218 DUP1 PUSH3 0x3C2 PUSH1 0x0 CODECOPY PUSH1 0x0 RETURN INVALID PUSH1 0x80 PUSH1 0x40 MSTORE CALLVALUE DUP1 ISZERO PUSH2 0x10 JUMPI PUSH1 0x0 DUP1 REVERT JUMPDEST POP PUSH1 0x4 CALLDATASIZE LT PUSH2 0x100 JUMPI PUSH1 0x0 CALLDATALOAD PUSH1 0xE0 SHR DUP1 PUSH4 0x7F0429EF GT PUSH2 0x97 JUMPI DUP1 PUSH4 0x98F42FE3 GT PUSH2 0x66 JUMPI DUP1 PUSH4 0x98F42FE3 EQ PUSH2 0x277 JUMPI DUP1 PUSH4 0xD653F307 EQ PUSH2 0x295 JUMPI DUP1 PUSH4 0xE347A2BE EQ PUSH2 0x2C5 JUMPI DUP1 PUSH4 0xE780FAA3 EQ PUSH2 0x2E3 JUMPI PUSH2 0x100 JUMP JUMPDEST DUP1 PUSH4 0x7F0429EF EQ PUSH2 0x203 JUMPI DUP1 PUSH4 0x8151E209 EQ PUSH2 0x221 JUMPI DUP1 PUSH4 0x87BA57C9 EQ PUSH2 0x22B JUMPI DUP1 PUSH4 0x98B20AC8 EQ PUSH2 0x247 JUMPI PUSH2 0x100 JUMP JUMPDEST DUP1 PUSH4 0x48593BAE GT PUSH2 0xD3 JUMPI DUP1 PUSH4 0x48593BAE EQ PUSH2 0x17D JUMPI DUP1 PUSH4 0x492BFC05 EQ PUSH2 0x19B JUMPI DUP1 PUSH4 0x6D35E346 EQ PUSH2 0x1CB JUMPI DUP1 PUSH4 0x767F9DCF EQ PUSH2 0x1E7 JUMPI PUSH2 0x100 JUMP JUMPDEST DUP1 PUSH4 0x6FDDE03 EQ PUSH2 0x105 JUMPI DUP1 PUSH4 0x204653D3 EQ PUSH2 0x123 JUMPI DUP1 PUSH4 0x262A9DFF EQ PUSH2 0x13F JUMPI DUP1 PUSH4 0x465FE0EE EQ PUSH2 0x15D JUMPI JUMPDEST PUSH1 0x0 DUP1 REVERT JUMPDEST PUSH2 0x10D PUSH2 0x313 JUMP JUMPDEST PUSH1 0x40 MLOAD PUSH2 0x11A SWAP2 SWAP1 PUSH2 0xE7B JUMP JUMPDEST PUSH1 0x40 MLOAD DUP1 SWAP2 SUB SWAP1 RETURN JUMPDEST PUSH2 0x13D PUSH1 0x4 DUP1 CALLDATASIZE SUB DUP2 ADD SWAP1 PUSH2 0x138 SWAP2 SWAP1 PUSH2 0xC7E JUMP JUMPDEST PUSH2 0x3A1 JUMP JUMPDEST STOP JUMPDEST PUSH2 0x147 PUSH2 0x3DB JUMP JUMPDEST PUSH1 0x40 MLOAD PUSH2 0x154 SWAP2 SWAP1 PUSH2 0xEE2 JUMP JUMPDEST PUSH1 0x40 MLOAD DUP1 SWAP2 SUB SWAP1 RETURN JUMPDEST PUSH2 0x165 PUSH2 0x3E1 JUMP JUMPDEST PUSH1 0x40 MLOAD PUSH2 0x174 SWAP4 SWAP3 SWAP2 SWAP1 PUSH2 0xE9D JUMP JUMPDEST PUSH1 0x40 MLOAD DUP1 SWAP2 SUB SWAP1 RETURN JUMPDEST PUSH2 0x185 PUSH2 0x509 JUMP JUMPDEST PUSH1 0x40 MLOAD PUSH2 0x192 SWAP2 SWAP1 PUSH2 0xE60 JUMP JUMPDEST PUSH1 0x40 MLOAD DUP1 SWAP2 SUB SWAP1 RETURN JUMPDEST PUSH2 0x1B5 PUSH1 0x4 DUP1 CALLDATASIZE SUB DUP2 ADD SWAP1 PUSH2 0x1B0 SWAP2 SWAP1 PUSH2 0xB3D JUMP JUMPDEST PUSH2 0x520 JUMP JUMPDEST PUSH1 0x40 MLOAD PUSH2 0x1C2 SWAP2 SWAP1 PUSH2 0xE7B JUMP JUMPDEST PUSH1 0x40 MLOAD DUP1 SWAP2 SUB SWAP1 RETURN JUMPDEST PUSH2 0x1E5 PUSH1 0x4 DUP1 CALLDATASIZE SUB DUP2 ADD SWAP1 PUSH2 0x1E0 SWAP2 SWAP1 PUSH2 0xCBE JUMP JUMPDEST PUSH2 0x5C0 JUMP JUMPDEST STOP JUMPDEST PUSH2 0x201 PUSH1 0x4 DUP1 CALLDATASIZE SUB DUP2 ADD SWAP1 PUSH2 0x1FC SWAP2 SWAP1 PUSH2 0xBC6 JUMP JUMPDEST PUSH2 0x66A JUMP JUMPDEST STOP JUMPDEST PUSH2 0x20B PUSH2 0x6D3 JUMP JUMPDEST PUSH1 0x40 MLOAD PUSH2 0x218 SWAP2 SWAP1 PUSH2 0xE7B JUMP JUMPDEST PUSH1 0x40 MLOAD DUP1 SWAP2 SUB SWAP1 RETURN JUMPDEST PUSH2 0x229 PUSH2 0x768 JUMP JUMPDEST STOP JUMPDEST PUSH2 0x245 PUSH1 0x4 DUP1 CALLDATASIZE SUB DUP2 ADD SWAP1 PUSH2 0x240 SWAP2 SWAP1 PUSH2 0xB6A JUMP JUMPDEST PUSH2 0x795 JUMP JUMPDEST STOP JUMPDEST PUSH2 0x261 PUSH1 0x4 DUP1 CALLDATASIZE SUB DUP2 ADD SWAP1 PUSH2 0x25C SWAP2 SWAP1 PUSH2 0xC51 JUMP JUMPDEST PUSH2 0x829 JUMP JUMPDEST PUSH1 0x40 MLOAD PUSH2 0x26E SWAP2 SWAP1 PUSH2 0xE7B JUMP JUMPDEST PUSH1 0x40 MLOAD DUP1 SWAP2 SUB SWAP1 RETURN JUMPDEST PUSH2 0x27F PUSH2 0x8D5 JUMP JUMPDEST PUSH1 0x40 MLOAD PUSH2 0x28C SWAP2 SWAP1 PUSH2 0xE60 JUMP JUMPDEST PUSH1 0x40 MLOAD DUP1 SWAP2 SUB SWAP1 RETURN JUMPDEST PUSH2 0x2AF PUSH1 0x4 DUP1 CALLDATASIZE SUB DUP2 ADD SWAP1 PUSH2 0x2AA SWAP2 SWAP1 PUSH2 0xC51 JUMP JUMPDEST PUSH2 0x8E8 JUMP JUMPDEST PUSH1 0x40 MLOAD PUSH2 0x2BC SWAP2 SWAP1 PUSH2 0xEE2 JUMP JUMPDEST PUSH1 0x40 MLOAD DUP1 SWAP2 SUB SWAP1 RETURN JUMPDEST PUSH2 0x2CD PUSH2 0x90C JUMP JUMPDEST PUSH1 0x40 MLOAD PUSH2 0x2DA SWAP2 SWAP1 PUSH2 0xE3E JUMP JUMPDEST PUSH1 0x40 MLOAD DUP1 SWAP2 SUB SWAP1 RETURN JUMPDEST PUSH2 0x2FD PUSH1 0x4 DUP1 CALLDATASIZE SUB DUP2 ADD SWAP1 PUSH2 0x2F8 SWAP2 SWAP1 PUSH2 0xC51 JUMP JUMPDEST PUSH2 0x9E5 JUMP JUMPDEST PUSH1 0x40 MLOAD PUSH2 0x30A SWAP2 SWAP1 PUSH2 0xEE2 JUMP JUMPDEST PUSH1 0x40 MLOAD DUP1 SWAP2 SUB SWAP1 RETURN JUMPDEST PUSH1 0x0 DUP1 SLOAD PUSH2 0x320 SWAP1 PUSH2 0x105C JUMP JUMPDEST DUP1 PUSH1 0x1F ADD PUSH1 0x20 DUP1 SWAP2 DIV MUL PUSH1 0x20 ADD PUSH1 0x40 MLOAD SWAP1 DUP2 ADD PUSH1 0x40 MSTORE DUP1 SWAP3 SWAP2 SWAP1 DUP2 DUP2 MSTORE PUSH1 0x20 ADD DUP3 DUP1 SLOAD PUSH2 0x34C SWAP1 PUSH2 0x105C JUMP JUMPDEST DUP1 ISZERO PUSH2 0x399 JUMPI DUP1 PUSH1 0x1F LT PUSH2 0x36E JUMPI PUSH2 0x100 DUP1 DUP4 SLOAD DIV MUL DUP4 MSTORE SWAP2 PUSH1 0x20 ADD SWAP2 PUSH2 0x399 JUMP JUMPDEST DUP3 ADD SWAP2 SWAP1 PUSH1 0x0 MSTORE PUSH1 0x20 PUSH1 0x0 KECCAK256 SWAP1 JUMPDEST DUP2 SLOAD DUP2 MSTORE SWAP1 PUSH1 0x1 ADD SWAP1 PUSH1 0x20 ADD DUP1 DUP4 GT PUSH2 0x37C JUMPI DUP3 SWAP1 SUB PUSH1 0x1F AND DUP3 ADD SWAP2 JUMPDEST POP POP POP POP POP DUP2 JUMP JUMPDEST DUP2 PUSH1 0x2 PUSH1 0x0 PUSH1 0x2 DUP2 LT PUSH2 0x3B7 JUMPI PUSH2 0x3B6 PUSH2 0x111D JUMP JUMPDEST JUMPDEST ADD DUP2 SWAP1 SSTORE POP DUP1 PUSH1 0x2 PUSH1 0x1 PUSH1 0x2 DUP2 LT PUSH2 0x3D2 JUMPI PUSH2 0x3D1 PUSH2 0x111D JUMP JUMPDEST JUMPDEST ADD DUP2 SWAP1 SSTORE POP POP POP JUMP JUMPDEST PUSH1 0x1 SLOAD DUP2 JUMP JUMPDEST PUSH1 0x5 DUP1 PUSH1 0x0 ADD DUP1 SLOAD PUSH2 0x3F2 SWAP1 PUSH2 0x105C JUMP JUMPDEST DUP1 PUSH1 0x1F ADD PUSH1 0x20 DUP1 SWAP2 DIV MUL PUSH1 0x20 ADD PUSH1 0x40 MLOAD SWAP1 DUP2 ADD PUSH1 0x40 MSTORE DUP1 SWAP3 SWAP2 SWAP1 DUP2 DUP2 MSTORE PUSH1 0x20 ADD DUP3 DUP1 SLOAD PUSH2 0x41E SWAP1 PUSH2 0x105C JUMP JUMPDEST DUP1 ISZERO PUSH2 0x46B JUMPI DUP1 PUSH1 0x1F LT PUSH2 0x440 JUMPI PUSH2 0x100 DUP1 DUP4 SLOAD DIV MUL DUP4 MSTORE SWAP2 PUSH1 0x20 ADD SWAP2 PUSH2 0x46B JUMP JUMPDEST DUP3 ADD SWAP2 SWAP1 PUSH1 0x0 MSTORE PUSH1 0x20 PUSH1 0x0 KECCAK256 SWAP1 JUMPDEST DUP2 SLOAD DUP2 MSTORE SWAP1 PUSH1 0x1 ADD SWAP1 PUSH1 0x20 ADD DUP1 DUP4 GT PUSH2 0x44E JUMPI DUP3 SWAP1 SUB PUSH1 0x1F AND DUP3 ADD SWAP2 JUMPDEST POP POP POP POP POP SWAP1 DUP1 PUSH1 0x1 ADD DUP1 SLOAD PUSH2 0x480 SWAP1 PUSH2 0x105C JUMP JUMPDEST DUP1 PUSH1 0x1F ADD PUSH1 0x20 DUP1 SWAP2 DIV MUL PUSH1 0x20 ADD PUSH1 0x40 MLOAD SWAP1 DUP2 ADD PUSH1 0x40 MSTORE DUP1 SWAP3 SWAP2 SWAP1 DUP2 DUP2 MSTORE PUSH1 0x20 ADD DUP3 DUP1 SLOAD PUSH2 0x4AC SWAP1 PUSH2 0x105C JUMP JUMPDEST DUP1 ISZERO PUSH2 0x4F9 JUMPI DUP1 PUSH1 0x1F LT PUSH2 0x4CE JUMPI PUSH2 0x100 DUP1 DUP4 SLOAD DIV MUL DUP4 MSTORE SWAP2 PUSH1 0x20 ADD SWAP2 PUSH2 0x4F9 JUMP JUMPDEST DUP3 ADD SWAP2 SWAP1 PUSH1 0x0 MSTORE PUSH1 0x20 PUSH1 0x0 KECCAK256 SWAP1 JUMPDEST DUP2 SLOAD DUP2 MSTORE SWAP1 PUSH1 0x1 ADD SWAP1 PUSH1 0x20 ADD DUP1 DUP4 GT PUSH2 0x4DC JUMPI DUP3 SWAP1 SUB PUSH1 0x1F AND DUP3 ADD SWAP2 JUMPDEST POP POP POP POP POP SWAP1 DUP1 PUSH1 0x2 ADD SLOAD SWAP1 POP DUP4 JUMP JUMPDEST PUSH1 0x0 PUSH1 0x8 PUSH1 0x0 SWAP1 SLOAD SWAP1 PUSH2 0x100 EXP SWAP1 DIV PUSH1 0xFF AND SWAP1 POP SWAP1 JUMP JUMPDEST PUSH1 0x9 PUSH1 0x20 MSTORE DUP1 PUSH1 0x0 MSTORE PUSH1 0x40 PUSH1 0x0 KECCAK256 PUSH1 0x0 SWAP2 POP SWAP1 POP DUP1 SLOAD PUSH2 0x53F SWAP1 PUSH2 0x105C JUMP JUMPDEST DUP1 PUSH1 0x1F ADD PUSH1 0x20 DUP1 SWAP2 DIV MUL PUSH1 0x20 ADD PUSH1 0x40 MLOAD SWAP1 DUP2 ADD PUSH1 0x40 MSTORE DUP1 SWAP3 SWAP2 SWAP1 DUP2 DUP2 MSTORE PUSH1 0x20 ADD DUP3 DUP1 SLOAD PUSH2 0x56B SWAP1 PUSH2 0x105C JUMP JUMPDEST DUP1 ISZERO PUSH2 0x5B8 JUMPI DUP1 PUSH1 0x1F LT PUSH2 0x58D JUMPI PUSH2 0x100 DUP1 DUP4 SLOAD DIV MUL DUP4 MSTORE SWAP2 PUSH1 0x20 ADD SWAP2 PUSH2 0x5B8 JUMP JUMPDEST DUP3 ADD SWAP2 SWAP1 PUSH1 0x0 MSTORE PUSH1 0x20 PUSH1 0x0 KECCAK256 SWAP1 JUMPDEST DUP2 SLOAD DUP2 MSTORE SWAP1 PUSH1 0x1 ADD SWAP1 PUSH1 0x20 ADD DUP1 DUP4 GT PUSH2 0x59B JUMPI DUP3 SWAP1 SUB PUSH1 0x1F AND DUP3 ADD SWAP2 JUMPDEST POP POP POP POP POP DUP2 JUMP JUMPDEST PUSH1 0x4 DUP5 SWAP1 DUP1 PUSH1 0x1 DUP2 SLOAD ADD DUP1 DUP3 SSTORE DUP1 SWAP2 POP POP PUSH1 0x1 SWAP1 SUB SWAP1 PUSH1 0x0 MSTORE PUSH1 0x20 PUSH1 0x0 KECCAK256 ADD PUSH1 0x0 SWAP1 SWAP2 SWAP1 SWAP2 SWAP1 SWAP2 POP SSTORE PUSH1 0x4 DUP4 SWAP1 DUP1 PUSH1 0x1 DUP2 SLOAD ADD DUP1 DUP3 SSTORE DUP1 SWAP2 POP POP PUSH1 0x1 SWAP1 SUB SWAP1 PUSH1 0x0 MSTORE PUSH1 0x20 PUSH1 0x0 KECCAK256 ADD PUSH1 0x0 SWAP1 SWAP2 SWAP1 SWAP2 SWAP1 SWAP2 POP SSTORE PUSH1 0x4 DUP3 SWAP1 DUP1 PUSH1 0x1 DUP2 SLOAD ADD DUP1 DUP3 SSTORE DUP1 SWAP2 POP POP PUSH1 0x1 SWAP1 SUB SWAP1 PUSH1 0x0 MSTORE PUSH1 0x20 PUSH1 0x0 KECCAK256 ADD PUSH1 0x0 SWAP1 SWAP2 SWAP1 SWAP2 SWAP1 SWAP2 POP SSTORE PUSH1 0x4 DUP2 SWAP1 DUP1 PUSH1 0x1 DUP2 SLOAD ADD DUP1 DUP3 SSTORE DUP1 SWAP2 POP POP PUSH1 0x1 SWAP1 SUB SWAP1 PUSH1 0x0 MSTORE PUSH1 0x20 PUSH1 0x0 KECCAK256 ADD PUSH1 0x0 SWAP1 SWAP2 SWAP1 SWAP2 SWAP1 SWAP2 POP SSTORE POP POP POP POP JUMP JUMPDEST PUSH1 0x40 MLOAD DUP1 PUSH1 0x60 ADD PUSH1 0x40 MSTORE DUP1 DUP5 DUP2 MSTORE PUSH1 0x20 ADD DUP4 DUP2 MSTORE PUSH1 0x20 ADD DUP3 DUP2 MSTORE POP PUSH1 0x5 PUSH1 0x0 DUP3 ADD MLOAD DUP2 PUSH1 0x0 ADD SWAP1 DUP1 MLOAD SWAP1 PUSH1 0x20 ADD SWAP1 PUSH2 0x6A3 SWAP3 SWAP2 SWAP1 PUSH2 0xA00 JUMP JUMPDEST POP PUSH1 0x20 DUP3 ADD MLOAD DUP2 PUSH1 0x1 ADD SWAP1 DUP1 MLOAD SWAP1 PUSH1 0x20 ADD SWAP1 PUSH2 0x6C0 SWAP3 SWAP2 SWAP1 PUSH2 0xA00 JUMP JUMPDEST POP PUSH1 0x40 DUP3 ADD MLOAD DUP2 PUSH1 0x2 ADD SSTORE SWAP1 POP POP POP POP POP JUMP JUMPDEST PUSH1 0x60 PUSH1 0x5 PUSH1 0x0 ADD DUP1 SLOAD PUSH2 0x6E5 SWAP1 PUSH2 0x105C JUMP JUMPDEST DUP1 PUSH1 0x1F ADD PUSH1 0x20 DUP1 SWAP2 DIV MUL PUSH1 0x20 ADD PUSH1 0x40 MLOAD SWAP1 DUP2 ADD PUSH1 0x40 MSTORE DUP1 SWAP3 SWAP2 SWAP1 DUP2 DUP2 MSTORE PUSH1 0x20 ADD DUP3 DUP1 SLOAD PUSH2 0x711 SWAP1 PUSH2 0x105C JUMP JUMPDEST DUP1 ISZERO PUSH2 0x75E JUMPI DUP1 PUSH1 0x1F LT PUSH2 0x733 JUMPI PUSH2 0x100 DUP1 DUP4 SLOAD DIV MUL DUP4 MSTORE SWAP2 PUSH1 0x20 ADD SWAP2 PUSH2 0x75E JUMP JUMPDEST DUP3 ADD SWAP2 SWAP1 PUSH1 0x0 MSTORE PUSH1 0x20 PUSH1 0x0 KECCAK256 SWAP1 JUMPDEST DUP2 SLOAD DUP2 MSTORE SWAP1 PUSH1 0x1 ADD SWAP1 PUSH1 0x20 ADD DUP1 DUP4 GT PUSH2 0x741 JUMPI DUP3 SWAP1 SUB PUSH1 0x1F AND DUP3 ADD SWAP2 JUMPDEST POP POP POP POP POP SWAP1 POP SWAP1 JUMP JUMPDEST PUSH1 0x0 PUSH1 0x8 PUSH1 0x0 PUSH2 0x100 EXP DUP2 SLOAD DUP2 PUSH1 0xFF MUL NOT AND SWAP1 DUP4 PUSH1 0x1 DUP2 GT ISZERO PUSH2 0x78E JUMPI PUSH2 0x78D PUSH2 0x10BF JUMP JUMPDEST JUMPDEST MUL OR SWAP1 SSTORE POP JUMP JUMPDEST DUP2 PUSH1 0x9 PUSH1 0x0 CALLER PUSH20 0xFFFFFFFFFFFFFFFFFFFFFFFFFFFFFFFFFFFFFFFF AND PUSH20 0xFFFFFFFFFFFFFFFFFFFFFFFFFFFFFFFFFFFFFFFF AND DUP2 MSTORE PUSH1 0x20 ADD SWAP1 DUP2 MSTORE PUSH1 0x20 ADD PUSH1 0x0 KECCAK256 SWAP1 DUP1 MLOAD SWAP1 PUSH1 0x20 ADD SWAP1 PUSH2 0x7E8 SWAP3 SWAP2 SWAP1 PUSH2 0xA00 JUMP JUMPDEST POP PUSH1 0xA DUP3 SWAP1 DUP1 PUSH1 0x1 DUP2 SLOAD ADD DUP1 DUP3 SSTORE DUP1 SWAP2 POP POP PUSH1 0x1 SWAP1 SUB SWAP1 PUSH1 0x0 MSTORE PUSH1 0x20 PUSH1 0x0 KECCAK256 ADD PUSH1 0x0 SWAP1 SWAP2 SWAP1 SWAP2 SWAP1 SWAP2 POP SWAP1 DUP1 MLOAD SWAP1 PUSH1 0x20 ADD SWAP1 PUSH2 0x824 SWAP3 SWAP2 SWAP1 PUSH2 0xA00 JUMP JUMPDEST POP POP POP JUMP JUMPDEST PUSH1 0xA DUP2 DUP2 SLOAD DUP2 LT PUSH2 0x839 JUMPI PUSH1 0x0 DUP1 REVERT JUMPDEST SWAP1 PUSH1 0x0 MSTORE PUSH1 0x20 PUSH1 0x0 KECCAK256 ADD PUSH1 0x0 SWAP2 POP SWAP1 POP DUP1 SLOAD PUSH2 0x854 SWAP1 PUSH2 0x105C JUMP JUMPDEST DUP1 PUSH1 0x1F ADD PUSH1 0x20 DUP1 SWAP2 DIV MUL PUSH1 0x20 ADD PUSH1 0x40 MLOAD SWAP1 DUP2 ADD PUSH1 0x40 MSTORE DUP1 SWAP3 SWAP2 SWAP1 DUP2 DUP2 MSTORE PUSH1 0x20 ADD DUP3 DUP1 SLOAD PUSH2 0x880 SWAP1 PUSH2 0x105C JUMP JUMPDEST DUP1 ISZERO PUSH2 0x8CD JUMPI DUP1 PUSH1 0x1F LT PUSH2 0x8A2 JUMPI PUSH2 0x100 DUP1 DUP4 SLOAD DIV MUL DUP4 MSTORE SWAP2 PUSH1 0x20 ADD SWAP2 PUSH2 0x8CD JUMP JUMPDEST DUP3 ADD SWAP2 SWAP1 PUSH1 0x0 MSTORE PUSH1 0x20 PUSH1 0x0 KECCAK256 SWAP1 JUMPDEST DUP2 SLOAD DUP2 MSTORE SWAP1 PUSH1 0x1 ADD SWAP1 PUSH1 0x20 ADD DUP1 DUP4 GT PUSH2 0x8B0 JUMPI DUP3 SWAP1 SUB PUSH1 0x1F AND DUP3 ADD SWAP2 JUMPDEST POP POP POP POP POP DUP2 JUMP JUMPDEST PUSH1 0x8 PUSH1 0x0 SWAP1 SLOAD SWAP1 PUSH2 0x100 EXP SWAP1 DIV PUSH1 0xFF AND DUP2 JUMP JUMPDEST PUSH1 0x4 DUP2 DUP2 SLOAD DUP2 LT PUSH2 0x8F8 JUMPI PUSH1 0x0 DUP1 REVERT JUMPDEST SWAP1 PUSH1 0x0 MSTORE PUSH1 0x20 PUSH1 0x0 KECCAK256 ADD PUSH1 0x0 SWAP2 POP SWAP1 POP SLOAD DUP2 JUMP JUMPDEST PUSH1 0x60 PUSH1 0xA DUP1 SLOAD DUP1 PUSH1 0x20 MUL PUSH1 0x20 ADD PUSH1 0x40 MLOAD SWAP1 DUP2 ADD PUSH1 0x40 MSTORE DUP1 SWAP3 SWAP2 SWAP1 DUP2 DUP2 MSTORE PUSH1 0x20 ADD PUSH1 0x0 SWAP1 JUMPDEST DUP3 DUP3 LT ISZERO PUSH2 0x9DC JUMPI DUP4 DUP3 SWAP1 PUSH1 0x0 MSTORE PUSH1 0x20 PUSH1 0x0 KECCAK256 ADD DUP1 SLOAD PUSH2 0x94F SWAP1 PUSH2 0x105C JUMP JUMPDEST DUP1 PUSH1 0x1F ADD PUSH1 0x20 DUP1 SWAP2 DIV MUL PUSH1 0x20 ADD PUSH1 0x40 MLOAD SWAP1 DUP2 ADD PUSH1 0x40 MSTORE DUP1 SWAP3 SWAP2 SWAP1 DUP2 DUP2 MSTORE PUSH1 0x20 ADD DUP3 DUP1 SLOAD PUSH2 0x97B SWAP1 PUSH2 0x105C JUMP JUMPDEST DUP1 ISZERO PUSH2 0x9C8 JUMPI DUP1 PUSH1 0x1F LT PUSH2 0x99D JUMPI PUSH2 0x100 DUP1 DUP4 SLOAD DIV MUL DUP4 MSTORE SWAP2 PUSH1 0x20 ADD SWAP2 PUSH2 0x9C8 JUMP JUMPDEST DUP3 ADD SWAP2 SWAP1 PUSH1 0x0 MSTORE PUSH1 0x20 PUSH1 0x0 KECCAK256 SWAP1 JUMPDEST DUP2 SLOAD DUP2 MSTORE SWAP1 PUSH1 0x1 ADD SWAP1 PUSH1 0x20 ADD DUP1 DUP4 GT PUSH2 0x9AB JUMPI DUP3 SWAP1 SUB PUSH1 0x1F AND DUP3 ADD SWAP2 JUMPDEST POP POP POP POP POP DUP2 MSTORE PUSH1 0x20 ADD SWAP1 PUSH1 0x1 ADD SWAP1 PUSH2 0x930 JUMP JUMPDEST POP POP POP POP SWAP1 POP SWAP1 JUMP JUMPDEST PUSH1 0x2 DUP2 PUSH1 0x2 DUP2 LT PUSH2 0x9F5 JUMPI PUSH1 0x0 DUP1 REVERT JUMPDEST ADD PUSH1 0x0 SWAP2 POP SWAP1 POP SLOAD DUP2 JUMP JUMPDEST DUP3 DUP1 SLOAD PUSH2 0xA0C SWAP1 PUSH2 0x105C JUMP JUMPDEST SWAP1 PUSH1 0x0 MSTORE PUSH1 0x20 PUSH1 0x0 KECCAK256 SWAP1 PUSH1 0x1F ADD PUSH1 0x20 SWAP1 DIV DUP2 ADD SWAP3 DUP3 PUSH2 0xA2E JUMPI PUSH1 0x0 DUP6 SSTORE PUSH2 0xA75 JUMP JUMPDEST DUP3 PUSH1 0x1F LT PUSH2 0xA47 JUMPI DUP1 MLOAD PUSH1 0xFF NOT AND DUP4 DUP1 ADD OR DUP6 SSTORE PUSH2 0xA75 JUMP JUMPDEST DUP3 DUP1 ADD PUSH1 0x1 ADD DUP6 SSTORE DUP3 ISZERO PUSH2 0xA75 JUMPI SWAP2 DUP3 ADD JUMPDEST DUP3 DUP2 GT ISZERO PUSH2 0xA74 JUMPI DUP3 MLOAD DUP3 SSTORE SWAP2 PUSH1 0x20 ADD SWAP2 SWAP1 PUSH1 0x1 ADD SWAP1 PUSH2 0xA59 JUMP JUMPDEST JUMPDEST POP SWAP1 POP PUSH2 0xA82 SWAP2 SWAP1 PUSH2 0xA86 JUMP JUMPDEST POP SWAP1 JUMP JUMPDEST JUMPDEST DUP1 DUP3 GT ISZERO PUSH2 0xA9F JUMPI PUSH1 0x0 DUP2 PUSH1 0x0 SWAP1 SSTORE POP PUSH1 0x1 ADD PUSH2 0xA87 JUMP JUMPDEST POP SWAP1 JUMP JUMPDEST PUSH1 0x0 PUSH2 0xAB6 PUSH2 0xAB1 DUP5 PUSH2 0xF22 JUMP JUMPDEST PUSH2 0xEFD JUMP JUMPDEST SWAP1 POP DUP3 DUP2 MSTORE PUSH1 0x20 DUP2 ADD DUP5 DUP5 DUP5 ADD GT ISZERO PUSH2 0xAD2 JUMPI PUSH2 0xAD1 PUSH2 0x1180 JUMP JUMPDEST JUMPDEST PUSH2 0xADD DUP5 DUP3 DUP6 PUSH2 0x101A JUMP JUMPDEST POP SWAP4 SWAP3 POP POP POP JUMP JUMPDEST PUSH1 0x0 DUP2 CALLDATALOAD SWAP1 POP PUSH2 0xAF4 DUP2 PUSH2 0x11B4 JUMP JUMPDEST SWAP3 SWAP2 POP POP JUMP JUMPDEST PUSH1 0x0 DUP3 PUSH1 0x1F DUP4 ADD SLT PUSH2 0xB0F JUMPI PUSH2 0xB0E PUSH2 0x117B JUMP JUMPDEST JUMPDEST DUP2 CALLDATALOAD PUSH2 0xB1F DUP5 DUP3 PUSH1 0x20 DUP7 ADD PUSH2 0xAA3 JUMP JUMPDEST SWAP2 POP POP SWAP3 SWAP2 POP POP JUMP JUMPDEST PUSH1 0x0 DUP2 CALLDATALOAD SWAP1 POP PUSH2 0xB37 DUP2 PUSH2 0x11CB JUMP JUMPDEST SWAP3 SWAP2 POP POP JUMP JUMPDEST PUSH1 0x0 PUSH1 0x20 DUP3 DUP5 SUB SLT ISZERO PUSH2 0xB53 JUMPI PUSH2 0xB52 PUSH2 0x118A JUMP JUMPDEST JUMPDEST PUSH1 0x0 PUSH2 0xB61 DUP5 DUP3 DUP6 ADD PUSH2 0xAE5 JUMP JUMPDEST SWAP2 POP POP SWAP3 SWAP2 POP POP JUMP JUMPDEST PUSH1 0x0 DUP1 PUSH1 0x40 DUP4 DUP6 SUB SLT ISZERO PUSH2 0xB81 JUMPI PUSH2 0xB80 PUSH2 0x118A JUMP JUMPDEST JUMPDEST PUSH1 0x0 DUP4 ADD CALLDATALOAD PUSH8 0xFFFFFFFFFFFFFFFF DUP2 GT ISZERO PUSH2 0xB9F JUMPI PUSH2 0xB9E PUSH2 0x1185 JUMP JUMPDEST JUMPDEST PUSH2 0xBAB DUP6 DUP3 DUP7 ADD PUSH2 0xAFA JUMP JUMPDEST SWAP3 POP POP PUSH1 0x20 PUSH2 0xBBC DUP6 DUP3 DUP7 ADD PUSH2 0xAE5 JUMP JUMPDEST SWAP2 POP POP SWAP3 POP SWAP3 SWAP1 POP JUMP JUMPDEST PUSH1 0x0 DUP1 PUSH1 0x0 PUSH1 0x60 DUP5 DUP7 SUB SLT ISZERO PUSH2 0xBDF JUMPI PUSH2 0xBDE PUSH2 0x118A JUMP JUMPDEST JUMPDEST PUSH1 0x0 DUP5 ADD CALLDATALOAD PUSH8 0xFFFFFFFFFFFFFFFF DUP2 GT ISZERO PUSH2 0xBFD JUMPI PUSH2 0xBFC PUSH2 0x1185 JUMP JUMPDEST JUMPDEST PUSH2 0xC09 DUP7 DUP3 DUP8 ADD PUSH2 0xAFA JUMP JUMPDEST SWAP4 POP POP PUSH1 0x20 DUP5 ADD CALLDATALOAD PUSH8 0xFFFFFFFFFFFFFFFF DUP2 GT ISZERO PUSH2 0xC2A JUMPI PUSH2 0xC29 PUSH2 0x1185 JUMP JUMPDEST JUMPDEST PUSH2 0xC36 DUP7 DUP3 DUP8 ADD PUSH2 0xAFA JUMP JUMPDEST SWAP3 POP POP PUSH1 0x40 PUSH2 0xC47 DUP7 DUP3 DUP8 ADD PUSH2 0xB28 JUMP JUMPDEST SWAP2 POP POP SWAP3 POP SWAP3 POP SWAP3 JUMP JUMPDEST PUSH1 0x0 PUSH1 0x20 DUP3 DUP5 SUB SLT ISZERO PUSH2 0xC67 JUMPI PUSH2 0xC66 PUSH2 0x118A JUMP JUMPDEST JUMPDEST PUSH1 0x0 PUSH2 0xC75 DUP5 DUP3 DUP6 ADD PUSH2 0xB28 JUMP JUMPDEST SWAP2 POP POP SWAP3 SWAP2 POP POP JUMP JUMPDEST PUSH1 0x0 DUP1 PUSH1 0x40 DUP4 DUP6 SUB SLT ISZERO PUSH2 0xC95 JUMPI PUSH2 0xC94 PUSH2 0x118A JUMP JUMPDEST JUMPDEST PUSH1 0x0 PUSH2 0xCA3 DUP6 DUP3 DUP7 ADD PUSH2 0xB28 JUMP JUMPDEST SWAP3 POP POP PUSH1 0x20 PUSH2 0xCB4 DUP6 DUP3 DUP7 ADD PUSH2 0xB28 JUMP JUMPDEST SWAP2 POP POP SWAP3 POP SWAP3 SWAP1 POP JUMP JUMPDEST PUSH1 0x0 DUP1 PUSH1 0x0 DUP1 PUSH1 0x80 DUP6 DUP8 SUB SLT ISZERO PUSH2 0xCD8 JUMPI PUSH2 0xCD7 PUSH2 0x118A JUMP JUMPDEST JUMPDEST PUSH1 0x0 PUSH2 0xCE6 DUP8 DUP3 DUP9 ADD PUSH2 0xB28 JUMP JUMPDEST SWAP5 POP POP PUSH1 0x20 PUSH2 0xCF7 DUP8 DUP3 DUP9 ADD PUSH2 0xB28 JUMP JUMPDEST SWAP4 POP POP PUSH1 0x40 PUSH2 0xD08 DUP8 DUP3 DUP9 ADD PUSH2 0xB28 JUMP JUMPDEST SWAP3 POP POP PUSH1 0x60 PUSH2 0xD19 DUP8 DUP3 DUP9 ADD PUSH2 0xB28 JUMP JUMPDEST SWAP2 POP POP SWAP3 SWAP6 SWAP2 SWAP5 POP SWAP3 POP JUMP JUMPDEST PUSH1 0x0 PUSH2 0xD31 DUP4 DUP4 PUSH2 0xDBD JUMP JUMPDEST SWAP1 POP SWAP3 SWAP2 POP POP JUMP JUMPDEST PUSH1 0x0 PUSH2 0xD44 DUP3 PUSH2 0xF63 JUMP JUMPDEST PUSH2 0xD4E DUP2 DUP6 PUSH2 0xF86 JUMP JUMPDEST SWAP4 POP DUP4 PUSH1 0x20 DUP3 MUL DUP6 ADD PUSH2 0xD60 DUP6 PUSH2 0xF53 JUMP JUMPDEST DUP1 PUSH1 0x0 JUMPDEST DUP6 DUP2 LT ISZERO PUSH2 0xD9C JUMPI DUP5 DUP5 SUB DUP10 MSTORE DUP2 MLOAD PUSH2 0xD7D DUP6 DUP3 PUSH2 0xD25 JUMP JUMPDEST SWAP5 POP PUSH2 0xD88 DUP4 PUSH2 0xF79 JUMP JUMPDEST SWAP3 POP PUSH1 0x20 DUP11 ADD SWAP10 POP POP PUSH1 0x1 DUP2 ADD SWAP1 POP PUSH2 0xD64 JUMP JUMPDEST POP DUP3 SWAP8 POP DUP8 SWAP6 POP POP POP POP POP POP SWAP3 SWAP2 POP POP JUMP JUMPDEST PUSH2 0xDB7 DUP2 PUSH2 0x1008 JUMP JUMPDEST DUP3 MSTORE POP POP JUMP JUMPDEST PUSH1 0x0 PUSH2 0xDC8 DUP3 PUSH2 0xF6E JUMP JUMPDEST PUSH2 0xDD2 DUP2 DUP6 PUSH2 0xF97 JUMP JUMPDEST SWAP4 POP PUSH2 0xDE2 DUP2 DUP6 PUSH1 0x20 DUP7 ADD PUSH2 0x1029 JUMP JUMPDEST PUSH2 0xDEB DUP2 PUSH2 0x118F JUMP JUMPDEST DUP5 ADD SWAP2 POP POP SWAP3 SWAP2 POP POP JUMP JUMPDEST PUSH1 0x0 PUSH2 0xE01 DUP3 PUSH2 0xF6E JUMP JUMPDEST PUSH2 0xE0B DUP2 DUP6 PUSH2 0xFA8 JUMP JUMPDEST SWAP4 POP PUSH2 0xE1B DUP2 DUP6 PUSH1 0x20 DUP7 ADD PUSH2 0x1029 JUMP JUMPDEST PUSH2 0xE24 DUP2 PUSH2 0x118F JUMP JUMPDEST DUP5 ADD SWAP2 POP POP SWAP3 SWAP2 POP POP JUMP JUMPDEST PUSH2 0xE38 DUP2 PUSH2 0xFFE JUMP JUMPDEST DUP3 MSTORE POP POP JUMP JUMPDEST PUSH1 0x0 PUSH1 0x20 DUP3 ADD SWAP1 POP DUP2 DUP2 SUB PUSH1 0x0 DUP4 ADD MSTORE PUSH2 0xE58 DUP2 DUP5 PUSH2 0xD39 JUMP JUMPDEST SWAP1 POP SWAP3 SWAP2 POP POP JUMP JUMPDEST PUSH1 0x0 PUSH1 0x20 DUP3 ADD SWAP1 POP PUSH2 0xE75 PUSH1 0x0 DUP4 ADD DUP5 PUSH2 0xDAE JUMP JUMPDEST SWAP3 SWAP2 POP POP JUMP JUMPDEST PUSH1 0x0 PUSH1 0x20 DUP3 ADD SWAP1 POP DUP2 DUP2 SUB PUSH1 0x0 DUP4 ADD MSTORE PUSH2 0xE95 DUP2 DUP5 PUSH2 0xDF6 JUMP JUMPDEST SWAP1 POP SWAP3 SWAP2 POP POP JUMP JUMPDEST PUSH1 0x0 PUSH1 0x60 DUP3 ADD SWAP1 POP DUP2 DUP2 SUB PUSH1 0x0 DUP4 ADD MSTORE PUSH2 0xEB7 DUP2 DUP7 PUSH2 0xDF6 JUMP JUMPDEST SWAP1 POP DUP2 DUP2 SUB PUSH1 0x20 DUP4 ADD MSTORE PUSH2 0xECB DUP2 DUP6 PUSH2 0xDF6 JUMP JUMPDEST SWAP1 POP PUSH2 0xEDA PUSH1 0x40 DUP4 ADD DUP5 PUSH2 0xE2F JUMP JUMPDEST SWAP5 SWAP4 POP POP POP POP JUMP JUMPDEST PUSH1 0x0 PUSH1 0x20 DUP3 ADD SWAP1 POP PUSH2 0xEF7 PUSH1 0x0 DUP4 ADD DUP5 PUSH2 0xE2F JUMP JUMPDEST SWAP3 SWAP2 POP POP JUMP JUMPDEST PUSH1 0x0 PUSH2 0xF07 PUSH2 0xF18 JUMP JUMPDEST SWAP1 POP PUSH2 0xF13 DUP3 DUP3 PUSH2 0x108E JUMP JUMPDEST SWAP2 SWAP1 POP JUMP JUMPDEST PUSH1 0x0 PUSH1 0x40 MLOAD SWAP1 POP SWAP1 JUMP JUMPDEST PUSH1 0x0 PUSH8 0xFFFFFFFFFFFFFFFF DUP3 GT ISZERO PUSH2 0xF3D JUMPI PUSH2 0xF3C PUSH2 0x114C JUMP JUMPDEST JUMPDEST PUSH2 0xF46 DUP3 PUSH2 0x118F JUMP JUMPDEST SWAP1 POP PUSH1 0x20 DUP2 ADD SWAP1 POP SWAP2 SWAP1 POP JUMP JUMPDEST PUSH1 0x0 DUP2 SWAP1 POP PUSH1 0x20 DUP3 ADD SWAP1 POP SWAP2 SWAP1 POP JUMP JUMPDEST PUSH1 0x0 DUP2 MLOAD SWAP1 POP SWAP2 SWAP1 POP JUMP JUMPDEST PUSH1 0x0 DUP2 MLOAD SWAP1 POP SWAP2 SWAP1 POP JUMP JUMPDEST PUSH1 0x0 PUSH1 0x20 DUP3 ADD SWAP1 POP SWAP2 SWAP1 POP JUMP JUMPDEST PUSH1 0x0 DUP3 DUP3 MSTORE PUSH1 0x20 DUP3 ADD SWAP1 POP SWAP3 SWAP2 POP POP JUMP JUMPDEST PUSH1 0x0 DUP3 DUP3 MSTORE PUSH1 0x20 DUP3 ADD SWAP1 POP SWAP3 SWAP2 POP POP JUMP JUMPDEST PUSH1 0x0 DUP3 DUP3 MSTORE PUSH1 0x20 DUP3 ADD SWAP1 POP SWAP3 SWAP2 POP POP JUMP JUMPDEST PUSH1 0x0 PUSH2 0xFC4 DUP3 PUSH2 0xFDE JUMP JUMPDEST SWAP1 POP SWAP2 SWAP1 POP JUMP JUMPDEST PUSH1 0x0 DUP2 SWAP1 POP PUSH2 0xFD9 DUP3 PUSH2 0x11A0 JUMP JUMPDEST SWAP2 SWAP1 POP JUMP JUMPDEST PUSH1 0x0 PUSH20 0xFFFFFFFFFFFFFFFFFFFFFFFFFFFFFFFFFFFFFFFF DUP3 AND SWAP1 POP SWAP2 SWAP1 POP JUMP JUMPDEST PUSH1 0x0 DUP2 SWAP1 POP SWAP2 SWAP1 POP JUMP JUMPDEST PUSH1 0x0 PUSH2 0x1013 DUP3 PUSH2 0xFCB JUMP JUMPDEST SWAP1 POP SWAP2 SWAP1 POP JUMP JUMPDEST DUP3 DUP2 DUP4 CALLDATACOPY PUSH1 0x0 DUP4 DUP4 ADD MSTORE POP POP POP JUMP JUMPDEST PUSH1 0x0 JUMPDEST DUP4 DUP2 LT ISZERO PUSH2 0x1047 JUMPI DUP1 DUP3 ADD MLOAD DUP2 DUP5 ADD MSTORE PUSH1 0x20 DUP2 ADD SWAP1 POP PUSH2 0x102C JUMP JUMPDEST DUP4 DUP2 GT ISZERO PUSH2 0x1056 JUMPI PUSH1 0x0 DUP5 DUP5 ADD MSTORE JUMPDEST POP POP POP POP JUMP JUMPDEST PUSH1 0x0 PUSH1 0x2 DUP3 DIV SWAP1 POP PUSH1 0x1 DUP3 AND DUP1 PUSH2 0x1074 JUMPI PUSH1 0x7F DUP3 AND SWAP2 POP JUMPDEST PUSH1 0x20 DUP3 LT DUP2 EQ ISZERO PUSH2 0x1088 JUMPI PUSH2 0x1087 PUSH2 0x10EE JUMP JUMPDEST JUMPDEST POP SWAP2 SWAP1 POP JUMP JUMPDEST PUSH2 0x1097 DUP3 PUSH2 0x118F JUMP JUMPDEST DUP2 ADD DUP2 DUP2 LT PUSH8 0xFFFFFFFFFFFFFFFF DUP3 GT OR ISZERO PUSH2 0x10B6 JUMPI PUSH2 0x10B5 PUSH2 0x114C JUMP JUMPDEST JUMPDEST DUP1 PUSH1 0x40 MSTORE POP POP POP JUMP JUMPDEST PUSH32 0x4E487B7100000000000000000000000000000000000000000000000000000000 PUSH1 0x0 MSTORE PUSH1 0x21 PUSH1 0x4 MSTORE PUSH1 0x24 PUSH1 0x0 REVERT JUMPDEST PUSH32 0x4E487B7100000000000000000000000000000000000000000000000000000000 PUSH1 0x0 MSTORE PUSH1 0x22 PUSH1 0x4 MSTORE PUSH1 0x24 PUSH1 0x0 REVERT JUMPDEST PUSH32 0x4E487B7100000000000000000000000000000000000000000000000000000000 PUSH1 0x0 MSTORE PUSH1 0x32 PUSH1 0x4 MSTORE PUSH1 0x24 PUSH1 0x0 REVERT JUMPDEST PUSH32 0x4E487B7100000000000000000000000000000000000000000000000000000000 PUSH1 0x0 MSTORE PUSH1 0x41 PUSH1 0x4 MSTORE PUSH1 0x24 PUSH1 0x0 REVERT JUMPDEST PUSH1 0x0 DUP1 REVERT JUMPDEST PUSH1 0x0 DUP1 REVERT JUMPDEST PUSH1 0x0 DUP1 REVERT JUMPDEST PUSH1 0x0 DUP1 REVERT JUMPDEST PUSH1 0x0 PUSH1 0x1F NOT PUSH1 0x1F DUP4 ADD AND SWAP1 POP SWAP2 SWAP1 POP JUMP JUMPDEST PUSH1 0x2 DUP2 LT PUSH2 0x11B1 JUMPI PUSH2 0x11B0 PUSH2 0x10BF JUMP JUMPDEST JUMPDEST POP JUMP JUMPDEST PUSH2 0x11BD DUP2 PUSH2 0xFB9 JUMP JUMPDEST DUP2 EQ PUSH2 0x11C8 JUMPI PUSH1 0x0 DUP1 REVERT JUMPDEST POP JUMP JUMPDEST PUSH2 0x11D4 DUP2 PUSH2 0xFFE JUMP JUMPDEST DUP2 EQ PUSH2 0x11DF JUMPI PUSH1 0x0 DUP1 REVERT JUMPDEST POP JUMP INVALID LOG2 PUSH5 0x6970667358 0x22 SLT KECCAK256 POP EXTCODESIZE DUP8 0xB5 ADDRESS SWAP6 0xDC NOT 0xC6 0xEE 0xB7 0xC6 0x5E JUMPDEST 0xC2 0xB0 0xE9 CALLDATALOAD PUSH7 0x4029E25E8A26AC CALLVALUE SWAP8 PUSH15 0x5F90664736F6C6343000807003300 "
				},
				"gasEstimates": {
					"creation": {
						"codeDepositCost": "926400",
						"executionCost": "infinite",
						"totalCost": "infinite"
					},
					"external": {
						"age()": "2497",
						"assignMappingValue(string,address)": "infinite",
						"assignValues(string,string,uint256)": "infinite",
						"characterOfAPerson()": "infinite",
						"choice()": "2582",
						"dislikeButton()": "24476",
						"enterValues(uint256,uint256)": "infinite",
						"enterValuesAgain(uint256,uint256,uint256,uint256)": "infinite",
						"getEnumValue()": "2591",
						"getMappingValue()": "infinite",
						"getTraits()": "infinite",
						"listOfNFTNames(address)": "infinite",
						"listsOfNFTs(uint256)": "infinite",
						"luckNumbers2(uint256)": "infinite",
						"luckyNumbers(uint256)": "infinite",
						"name()": "infinite"
					}
				},
				"methodIdentifiers": {
					"age()": "262a9dff",
					"assignMappingValue(string,address)": "87ba57c9",
					"assignValues(string,string,uint256)": "767f9dcf",
					"characterOfAPerson()": "465fe0ee",
					"choice()": "98f42fe3",
					"dislikeButton()": "8151e209",
					"enterValues(uint256,uint256)": "204653d3",
					"enterValuesAgain(uint256,uint256,uint256,uint256)": "6d35e346",
					"getEnumValue()": "48593bae",
					"getMappingValue()": "e347a2be",
					"getTraits()": "7f0429ef",
					"listOfNFTNames(address)": "492bfc05",
					"listsOfNFTs(uint256)": "98b20ac8",
					"luckNumbers2(uint256)": "d653f307",
					"luckyNumbers(uint256)": "e780faa3",
					"name()": "06fdde03"
				}
			},
			"storageLayout": {
				"storage": [
					{
						"astId": 3,
						"contract": "contracts/basics.sol:Person",
						"label": "name",
						"offset": 0,
						"slot": "0",
						"type": "t_string_storage"
					},
					{
						"astId": 5,
						"contract": "contracts/basics.sol:Person",
						"label": "age",
						"offset": 0,
						"slot": "1",
						"type": "t_uint256"
					},
					{
						"astId": 25,
						"contract": "contracts/basics.sol:Person",
						"label": "luckyNumbers",
						"offset": 0,
						"slot": "2",
						"type": "t_array(t_uint256)2_storage"
					},
					{
						"astId": 28,
						"contract": "contracts/basics.sol:Person",
						"label": "luckNumbers2",
						"offset": 0,
						"slot": "4",
						"type": "t_array(t_uint256)dyn_storage"
					},
					{
						"astId": 94,
						"contract": "contracts/basics.sol:Person",
						"label": "characterOfAPerson",
						"offset": 0,
						"slot": "5",
						"type": "t_struct(Traits)91_storage"
					},
					{
						"astId": 127,
						"contract": "contracts/basics.sol:Person",
						"label": "choice",
						"offset": 0,
						"slot": "8",
						"type": "t_enum(interest)124"
					},
					{
						"astId": 154,
						"contract": "contracts/basics.sol:Person",
						"label": "listOfNFTNames",
						"offset": 0,
						"slot": "9",
						"type": "t_mapping(t_address,t_string_storage)"
					},
					{
						"astId": 157,
						"contract": "contracts/basics.sol:Person",
						"label": "listsOfNFTs",
						"offset": 0,
						"slot": "10",
						"type": "t_array(t_string_storage)dyn_storage"
					}
				],
				"types": {
					"t_address": {
						"encoding": "inplace",
						"label": "address",
						"numberOfBytes": "20"
					},
					"t_array(t_string_storage)dyn_storage": {
						"base": "t_string_storage",
						"encoding": "dynamic_array",
						"label": "string[]",
						"numberOfBytes": "32"
					},
					"t_array(t_uint256)2_storage": {
						"base": "t_uint256",
						"encoding": "inplace",
						"label": "uint256[2]",
						"numberOfBytes": "64"
					},
					"t_array(t_uint256)dyn_storage": {
						"base": "t_uint256",
						"encoding": "dynamic_array",
						"label": "uint256[]",
						"numberOfBytes": "32"
					},
					"t_enum(interest)124": {
						"encoding": "inplace",
						"label": "enum Person.interest",
						"numberOfBytes": "1"
					},
					"t_mapping(t_address,t_string_storage)": {
						"encoding": "mapping",
						"key": "t_address",
						"label": "mapping(address => string)",
						"numberOfBytes": "32",
						"value": "t_string_storage"
					},
					"t_string_storage": {
						"encoding": "bytes",
						"label": "string",
						"numberOfBytes": "32"
					},
					"t_struct(Traits)91_storage": {
						"encoding": "inplace",
						"label": "struct Person.Traits",
						"members": [
							{
								"astId": 86,
								"contract": "contracts/basics.sol:Person",
								"label": "color",
								"offset": 0,
								"slot": "0",
								"type": "t_string_storage"
							},
							{
								"astId": 88,
								"contract": "contracts/basics.sol:Person",
								"label": "country",
								"offset": 0,
								"slot": "1",
								"type": "t_string_storage"
							},
							{
								"astId": 90,
								"contract": "contracts/basics.sol:Person",
								"label": "height",
								"offset": 0,
								"slot": "2",
								"type": "t_uint256"
							}
						],
						"numberOfBytes": "96"
					},
					"t_uint256": {
						"encoding": "inplace",
						"label": "uint256",
						"numberOfBytes": "32"
					}
				}
			},
			"userdoc": {
				"kind": "user",
				"methods": {},
				"version": 1
			}
		}
	}
}