{
	"contracts/visibility2.sol": {
		"child": {
			"abi": [
				{
					"anonymous": false,
					"inputs": [
						{
							"indexed": true,
							"internalType": "address",
							"name": "ownerAddress",
							"type": "address"
						}
					],
					"name": "sample",
					"type": "event"
				},
				{
					"inputs": [],
					"name": "Check",
					"outputs": [],
					"stateMutability": "view",
					"type": "function"
				},
				{
					"inputs": [],
					"name": "getExternal",
					"outputs": [
						{
							"internalType": "string",
							"name": "",
							"type": "string"
						}
					],
					"stateMutability": "view",
					"type": "function"
				},
				{
					"inputs": [],
					"name": "getPublic",
					"outputs": [
						{
							"internalType": "string",
							"name": "",
							"type": "string"
						}
					],
					"stateMutability": "view",
					"type": "function"
				},
				{
					"inputs": [],
					"name": "owner",
					"outputs": [
						{
							"internalType": "address",
							"name": "",
							"type": "address"
						}
					],
					"stateMutability": "view",
					"type": "function"
				}
			],
			"devdoc": {
				"kind": "dev",
				"methods": {},
				"version": 1
			},
			"evm": {
				"assembly": "    /* \"contracts/visibility2.sol\":2150:2485  contract child is parent{\r... */\n  mstore(0x40, 0x80)\n    /* \"contracts/visibility2.sol\":359:390  string publicValue   = \"PUBLIC\" */\n  mload(0x40)\n  dup1\n  0x40\n  add\n  0x40\n  mstore\n  dup1\n  0x06\n  dup2\n  mstore\n  0x20\n  add\n  0x5055424c49430000000000000000000000000000000000000000000000000000\n  dup2\n  mstore\n  pop\n  0x01\n  swap1\n  dup1\n  mload\n  swap1\n  0x20\n  add\n  swap1\n  tag_1\n  swap3\n  swap2\n  swap1\n  tag_2\n  jump\t// in\ntag_1:\n  pop\n    /* \"contracts/visibility2.sol\":398:430  string priavteValue  = \"PRIVATE\" */\n  mload(0x40)\n  dup1\n  0x40\n  add\n  0x40\n  mstore\n  dup1\n  0x07\n  dup2\n  mstore\n  0x20\n  add\n  0x5052495641544500000000000000000000000000000000000000000000000000\n  dup2\n  mstore\n  pop\n  0x02\n  swap1\n  dup1\n  mload\n  swap1\n  0x20\n  add\n  swap1\n  tag_3\n  swap3\n  swap2\n  swap1\n  tag_2\n  jump\t// in\ntag_3:\n  pop\n    /* \"contracts/visibility2.sol\":438:471  string internalValue = \"INTERNAL\" */\n  mload(0x40)\n  dup1\n  0x40\n  add\n  0x40\n  mstore\n  dup1\n  0x08\n  dup2\n  mstore\n  0x20\n  add\n  0x494e5445524e414c000000000000000000000000000000000000000000000000\n  dup2\n  mstore\n  pop\n  0x03\n  swap1\n  dup1\n  mload\n  swap1\n  0x20\n  add\n  swap1\n  tag_4\n  swap3\n  swap2\n  swap1\n  tag_2\n  jump\t// in\ntag_4:\n  pop\n    /* \"contracts/visibility2.sol\":479:512  string externalValue = \"EXTERNAL\" */\n  mload(0x40)\n  dup1\n  0x40\n  add\n  0x40\n  mstore\n  dup1\n  0x08\n  dup2\n  mstore\n  0x20\n  add\n  0x45585445524e414c000000000000000000000000000000000000000000000000\n  dup2\n  mstore\n  pop\n  0x04\n  swap1\n  dup1\n  mload\n  swap1\n  0x20\n  add\n  swap1\n  tag_5\n  swap3\n  swap2\n  swap1\n  tag_2\n  jump\t// in\ntag_5:\n  pop\n    /* \"contracts/visibility2.sol\":2150:2485  contract child is parent{\r... */\n  callvalue\n  dup1\n  iszero\n  tag_6\n  jumpi\n  0x00\n  dup1\n  revert\ntag_6:\n  pop\n    /* \"contracts/visibility2.sol\":305:315  msg.sender */\n  caller\n    /* \"contracts/visibility2.sol\":296:301  owner */\n  0x00\n  dup1\n    /* \"contracts/visibility2.sol\":296:315  owner  = msg.sender */\n  0x0100\n  exp\n  dup2\n  sload\n  dup2\n  0xffffffffffffffffffffffffffffffffffffffff\n  mul\n  not\n  and\n  swap1\n  dup4\n  0xffffffffffffffffffffffffffffffffffffffff\n  and\n  mul\n  or\n  swap1\n  sstore\n  pop\n    /* \"contracts/visibility2.sol\":337:342  owner */\n  0x00\n  dup1\n  sload\n  swap1\n  0x0100\n  exp\n  swap1\n  div\n  0xffffffffffffffffffffffffffffffffffffffff\n  and\n    /* \"contracts/visibility2.sol\":330:343  sample(owner) */\n  0xffffffffffffffffffffffffffffffffffffffff\n  and\n  0x32eeab65b153abbd468529eec826d5e40471109272326ae28cdbccaf07ab59c8\n  mload(0x40)\n  mload(0x40)\n  dup1\n  swap2\n  sub\n  swap1\n  log2\n    /* \"contracts/visibility2.sol\":2150:2485  contract child is parent{\r... */\n  jump(tag_9)\ntag_2:\n  dup3\n  dup1\n  sload\n  tag_10\n  swap1\n  tag_11\n  jump\t// in\ntag_10:\n  swap1\n  0x00\n  mstore\n  keccak256(0x00, 0x20)\n  swap1\n  0x1f\n  add\n  0x20\n  swap1\n  div\n  dup2\n  add\n  swap3\n  dup3\n  tag_13\n  jumpi\n  0x00\n  dup6\n  sstore\n  jump(tag_12)\ntag_13:\n  dup3\n  0x1f\n  lt\n  tag_14\n  jumpi\n  dup1\n  mload\n  not(0xff)\n  and\n  dup4\n  dup1\n  add\n  or\n  dup6\n  sstore\n  jump(tag_12)\ntag_14:\n  dup3\n  dup1\n  add\n  0x01\n  add\n  dup6\n  sstore\n  dup3\n  iszero\n  tag_12\n  jumpi\n  swap2\n  dup3\n  add\ntag_15:\n  dup3\n  dup2\n  gt\n  iszero\n  tag_16\n  jumpi\n  dup3\n  mload\n  dup3\n  sstore\n  swap2\n  0x20\n  add\n  swap2\n  swap1\n  0x01\n  add\n  swap1\n  jump(tag_15)\ntag_16:\ntag_12:\n  pop\n  swap1\n  pop\n  tag_17\n  swap2\n  swap1\n  tag_18\n  jump\t// in\ntag_17:\n  pop\n  swap1\n  jump\t// out\ntag_18:\ntag_19:\n  dup1\n  dup3\n  gt\n  iszero\n  tag_20\n  jumpi\n  0x00\n  dup2\n  0x00\n  swap1\n  sstore\n  pop\n  0x01\n  add\n  jump(tag_19)\ntag_20:\n  pop\n  swap1\n  jump\t// out\n    /* \"#utility.yul\":7:327   */\ntag_11:\n    /* \"#utility.yul\":51:57   */\n  0x00\n    /* \"#utility.yul\":88:89   */\n  0x02\n    /* \"#utility.yul\":82:86   */\n  dup3\n    /* \"#utility.yul\":78:90   */\n  div\n    /* \"#utility.yul\":68:90   */\n  swap1\n  pop\n    /* \"#utility.yul\":135:136   */\n  0x01\n    /* \"#utility.yul\":129:133   */\n  dup3\n    /* \"#utility.yul\":125:137   */\n  and\n    /* \"#utility.yul\":156:174   */\n  dup1\n    /* \"#utility.yul\":146:227   */\n  tag_23\n  jumpi\n    /* \"#utility.yul\":212:216   */\n  0x7f\n    /* \"#utility.yul\":204:210   */\n  dup3\n    /* \"#utility.yul\":200:217   */\n  and\n    /* \"#utility.yul\":190:217   */\n  swap2\n  pop\n    /* \"#utility.yul\":146:227   */\ntag_23:\n    /* \"#utility.yul\":274:276   */\n  0x20\n    /* \"#utility.yul\":266:272   */\n  dup3\n    /* \"#utility.yul\":263:277   */\n  lt\n    /* \"#utility.yul\":243:261   */\n  dup2\n    /* \"#utility.yul\":240:278   */\n  eq\n    /* \"#utility.yul\":237:321   */\n  iszero\n  tag_24\n  jumpi\n    /* \"#utility.yul\":293:311   */\n  tag_25\n  tag_26\n  jump\t// in\ntag_25:\n    /* \"#utility.yul\":237:321   */\ntag_24:\n    /* \"#utility.yul\":58:327   */\n  pop\n    /* \"#utility.yul\":7:327   */\n  swap2\n  swap1\n  pop\n  jump\t// out\n    /* \"#utility.yul\":333:513   */\ntag_26:\n    /* \"#utility.yul\":381:458   */\n  0x4e487b7100000000000000000000000000000000000000000000000000000000\n    /* \"#utility.yul\":378:379   */\n  0x00\n    /* \"#utility.yul\":371:459   */\n  mstore\n    /* \"#utility.yul\":478:482   */\n  0x22\n    /* \"#utility.yul\":475:476   */\n  0x04\n    /* \"#utility.yul\":468:483   */\n  mstore\n    /* \"#utility.yul\":502:506   */\n  0x24\n    /* \"#utility.yul\":499:500   */\n  0x00\n    /* \"#utility.yul\":492:507   */\n  revert\n    /* \"contracts/visibility2.sol\":2150:2485  contract child is parent{\r... */\ntag_9:\n  dataSize(sub_0)\n  dup1\n  dataOffset(sub_0)\n  0x00\n  codecopy\n  0x00\n  return\nstop\n\nsub_0: assembly {\n        /* \"contracts/visibility2.sol\":2150:2485  contract child is parent{\r... */\n      mstore(0x40, 0x80)\n      callvalue\n      dup1\n      iszero\n      tag_1\n      jumpi\n      0x00\n      dup1\n      revert\n    tag_1:\n      pop\n      jumpi(tag_2, lt(calldatasize, 0x04))\n      shr(0xe0, calldataload(0x00))\n      dup1\n      0x2c044779\n      eq\n      tag_3\n      jumpi\n      dup1\n      0x2de4ca59\n      eq\n      tag_4\n      jumpi\n      dup1\n      0x8da5cb5b\n      eq\n      tag_5\n      jumpi\n      dup1\n      0xc932415b\n      eq\n      tag_6\n      jumpi\n    tag_2:\n      0x00\n      dup1\n      revert\n        /* \"contracts/visibility2.sol\":959:1322  function getPublic()// this function could be your withdrawal amount function\r... */\n    tag_3:\n      tag_7\n      tag_8\n      jump\t// in\n    tag_7:\n      mload(0x40)\n      tag_9\n      swap2\n      swap1\n      tag_10\n      jump\t// in\n    tag_9:\n      mload(0x40)\n      dup1\n      swap2\n      sub\n      swap1\n      return\n        /* \"contracts/visibility2.sol\":2258:2470  function Check()\r... */\n    tag_4:\n      tag_11\n      tag_12\n      jump\t// in\n    tag_11:\n      stop\n        /* \"contracts/visibility2.sol\":132:152  address public owner */\n    tag_5:\n      tag_13\n      tag_14\n      jump\t// in\n    tag_13:\n      mload(0x40)\n      tag_15\n      swap2\n      swap1\n      tag_16\n      jump\t// in\n    tag_15:\n      mload(0x40)\n      dup1\n      swap2\n      sub\n      swap1\n      return\n        /* \"contracts/visibility2.sol\":1771:1906  function getExternal()\r... */\n    tag_6:\n      tag_17\n      tag_18\n      jump\t// in\n    tag_17:\n      mload(0x40)\n      tag_19\n      swap2\n      swap1\n      tag_10\n      jump\t// in\n    tag_19:\n      mload(0x40)\n      dup1\n      swap2\n      sub\n      swap1\n      return\n        /* \"contracts/visibility2.sol\":959:1322  function getPublic()// this function could be your withdrawal amount function\r... */\n    tag_8:\n        /* \"contracts/visibility2.sol\":1114:1127  string memory */\n      0x60\n        /* \"contracts/visibility2.sol\":812:817  owner */\n      0x00\n      dup1\n      sload\n      swap1\n      0x0100\n      exp\n      swap1\n      div\n      0xffffffffffffffffffffffffffffffffffffffff\n      and\n        /* \"contracts/visibility2.sol\":798:817  msg.sender == owner */\n      0xffffffffffffffffffffffffffffffffffffffff\n      and\n        /* \"contracts/visibility2.sol\":798:808  msg.sender */\n      caller\n        /* \"contracts/visibility2.sol\":798:817  msg.sender == owner */\n      0xffffffffffffffffffffffffffffffffffffffff\n      and\n      eq\n        /* \"contracts/visibility2.sol\":790:834  require(msg.sender == owner,\"Not the owner\") */\n      tag_21\n      jumpi\n      mload(0x40)\n      0x08c379a000000000000000000000000000000000000000000000000000000000\n      dup2\n      mstore\n      0x04\n      add\n      tag_22\n      swap1\n      tag_23\n      jump\t// in\n    tag_22:\n      mload(0x40)\n      dup1\n      swap2\n      sub\n      swap1\n      revert\n    tag_21:\n        /* \"contracts/visibility2.sol\":1175:1186  publicValue */\n      0x01\n        /* \"contracts/visibility2.sol\":1168:1186  return publicValue */\n      dup1\n      sload\n      tag_25\n      swap1\n      tag_26\n      jump\t// in\n    tag_25:\n      dup1\n      0x1f\n      add\n      0x20\n      dup1\n      swap2\n      div\n      mul\n      0x20\n      add\n      mload(0x40)\n      swap1\n      dup2\n      add\n      0x40\n      mstore\n      dup1\n      swap3\n      swap2\n      swap1\n      dup2\n      dup2\n      mstore\n      0x20\n      add\n      dup3\n      dup1\n      sload\n      tag_27\n      swap1\n      tag_26\n      jump\t// in\n    tag_27:\n      dup1\n      iszero\n      tag_28\n      jumpi\n      dup1\n      0x1f\n      lt\n      tag_29\n      jumpi\n      0x0100\n      dup1\n      dup4\n      sload\n      div\n      mul\n      dup4\n      mstore\n      swap2\n      0x20\n      add\n      swap2\n      jump(tag_28)\n    tag_29:\n      dup3\n      add\n      swap2\n      swap1\n      0x00\n      mstore\n      keccak256(0x00, 0x20)\n      swap1\n    tag_30:\n      dup2\n      sload\n      dup2\n      mstore\n      swap1\n      0x01\n      add\n      swap1\n      0x20\n      add\n      dup1\n      dup4\n      gt\n      tag_30\n      jumpi\n      dup3\n      swap1\n      sub\n      0x1f\n      and\n      dup3\n      add\n      swap2\n    tag_28:\n      pop\n      pop\n      pop\n      pop\n      pop\n      swap1\n      pop\n        /* \"contracts/visibility2.sol\":959:1322  function getPublic()// this function could be your withdrawal amount function\r... */\n      swap1\n      jump\t// out\n        /* \"contracts/visibility2.sol\":2258:2470  function Check()\r... */\n    tag_12:\n        /* \"contracts/visibility2.sol\":2304:2315  getPublic() */\n      tag_32\n        /* \"contracts/visibility2.sol\":2304:2313  getPublic */\n      tag_8\n        /* \"contracts/visibility2.sol\":2304:2315  getPublic() */\n      jump\t// in\n    tag_32:\n      pop\n        /* \"contracts/visibility2.sol\":2376:2389  getInternal() */\n      tag_33\n        /* \"contracts/visibility2.sol\":2376:2387  getInternal */\n      tag_34\n        /* \"contracts/visibility2.sol\":2376:2389  getInternal() */\n      jump\t// in\n    tag_33:\n      pop\n        /* \"contracts/visibility2.sol\":2414:2418  this */\n      address\n        /* \"contracts/visibility2.sol\":2414:2430  this.getExternal */\n      0xffffffffffffffffffffffffffffffffffffffff\n      and\n      0xc932415b\n        /* \"contracts/visibility2.sol\":2414:2432  this.getExternal() */\n      mload(0x40)\n      dup2\n      0xffffffff\n      and\n      0xe0\n      shl\n      dup2\n      mstore\n      0x04\n      add\n      0x00\n      mload(0x40)\n      dup1\n      dup4\n      sub\n      dup2\n      dup7\n      dup1\n      extcodesize\n      iszero\n      dup1\n      iszero\n      tag_35\n      jumpi\n      0x00\n      dup1\n      revert\n    tag_35:\n      pop\n      gas\n      staticcall\n      iszero\n      dup1\n      iszero\n      tag_37\n      jumpi\n      returndatasize\n      0x00\n      dup1\n      returndatacopy\n      revert(0x00, returndatasize)\n    tag_37:\n      pop\n      pop\n      pop\n      pop\n      mload(0x40)\n      returndatasize\n      0x00\n      dup3\n      returndatacopy\n      returndatasize\n      not(0x1f)\n      0x1f\n      dup3\n      add\n      and\n      dup3\n      add\n      dup1\n      0x40\n      mstore\n      pop\n      dup2\n      add\n      swap1\n      tag_38\n      swap2\n      swap1\n      tag_39\n      jump\t// in\n    tag_38:\n      pop\n        /* \"contracts/visibility2.sol\":2258:2470  function Check()\r... */\n      jump\t// out\n        /* \"contracts/visibility2.sol\":132:152  address public owner */\n    tag_14:\n      0x00\n      dup1\n      sload\n      swap1\n      0x0100\n      exp\n      swap1\n      div\n      0xffffffffffffffffffffffffffffffffffffffff\n      and\n      dup2\n      jump\t// out\n        /* \"contracts/visibility2.sol\":1771:1906  function getExternal()\r... */\n    tag_18:\n        /* \"contracts/visibility2.sol\":1855:1868  string memory */\n      0x60\n        /* \"contracts/visibility2.sol\":1886:1899  externalValue */\n      0x04\n        /* \"contracts/visibility2.sol\":1879:1899  return externalValue */\n      dup1\n      sload\n      tag_41\n      swap1\n      tag_26\n      jump\t// in\n    tag_41:\n      dup1\n      0x1f\n      add\n      0x20\n      dup1\n      swap2\n      div\n      mul\n      0x20\n      add\n      mload(0x40)\n      swap1\n      dup2\n      add\n      0x40\n      mstore\n      dup1\n      swap3\n      swap2\n      swap1\n      dup2\n      dup2\n      mstore\n      0x20\n      add\n      dup3\n      dup1\n      sload\n      tag_42\n      swap1\n      tag_26\n      jump\t// in\n    tag_42:\n      dup1\n      iszero\n      tag_43\n      jumpi\n      dup1\n      0x1f\n      lt\n      tag_44\n      jumpi\n      0x0100\n      dup1\n      dup4\n      sload\n      div\n      mul\n      dup4\n      mstore\n      swap2\n      0x20\n      add\n      swap2\n      jump(tag_43)\n    tag_44:\n      dup3\n      add\n      swap2\n      swap1\n      0x00\n      mstore\n      keccak256(0x00, 0x20)\n      swap1\n    tag_45:\n      dup2\n      sload\n      dup2\n      mstore\n      swap1\n      0x01\n      add\n      swap1\n      0x20\n      add\n      dup1\n      dup4\n      gt\n      tag_45\n      jumpi\n      dup3\n      swap1\n      sub\n      0x1f\n      and\n      dup3\n      add\n      swap2\n    tag_43:\n      pop\n      pop\n      pop\n      pop\n      pop\n      swap1\n      pop\n        /* \"contracts/visibility2.sol\":1771:1906  function getExternal()\r... */\n      swap1\n      jump\t// out\n        /* \"contracts/visibility2.sol\":1598:1746  function getInternal()\r... */\n    tag_34:\n        /* \"contracts/visibility2.sol\":1695:1708  string memory */\n      0x60\n        /* \"contracts/visibility2.sol\":1726:1739  internalValue */\n      0x03\n        /* \"contracts/visibility2.sol\":1719:1739  return internalValue */\n      dup1\n      sload\n      tag_47\n      swap1\n      tag_26\n      jump\t// in\n    tag_47:\n      dup1\n      0x1f\n      add\n      0x20\n      dup1\n      swap2\n      div\n      mul\n      0x20\n      add\n      mload(0x40)\n      swap1\n      dup2\n      add\n      0x40\n      mstore\n      dup1\n      swap3\n      swap2\n      swap1\n      dup2\n      dup2\n      mstore\n      0x20\n      add\n      dup3\n      dup1\n      sload\n      tag_48\n      swap1\n      tag_26\n      jump\t// in\n    tag_48:\n      dup1\n      iszero\n      tag_49\n      jumpi\n      dup1\n      0x1f\n      lt\n      tag_50\n      jumpi\n      0x0100\n      dup1\n      dup4\n      sload\n      div\n      mul\n      dup4\n      mstore\n      swap2\n      0x20\n      add\n      swap2\n      jump(tag_49)\n    tag_50:\n      dup3\n      add\n      swap2\n      swap1\n      0x00\n      mstore\n      keccak256(0x00, 0x20)\n      swap1\n    tag_51:\n      dup2\n      sload\n      dup2\n      mstore\n      swap1\n      0x01\n      add\n      swap1\n      0x20\n      add\n      dup1\n      dup4\n      gt\n      tag_51\n      jumpi\n      dup3\n      swap1\n      sub\n      0x1f\n      and\n      dup3\n      add\n      swap2\n    tag_49:\n      pop\n      pop\n      pop\n      pop\n      pop\n      swap1\n      pop\n        /* \"contracts/visibility2.sol\":1598:1746  function getInternal()\r... */\n      swap1\n      jump\t// out\n        /* \"#utility.yul\":7:428   */\n    tag_53:\n        /* \"#utility.yul\":96:101   */\n      0x00\n        /* \"#utility.yul\":121:187   */\n      tag_55\n        /* \"#utility.yul\":137:186   */\n      tag_56\n        /* \"#utility.yul\":179:185   */\n      dup5\n        /* \"#utility.yul\":137:186   */\n      tag_57\n      jump\t// in\n    tag_56:\n        /* \"#utility.yul\":121:187   */\n      tag_58\n      jump\t// in\n    tag_55:\n        /* \"#utility.yul\":112:187   */\n      swap1\n      pop\n        /* \"#utility.yul\":210:216   */\n      dup3\n        /* \"#utility.yul\":203:208   */\n      dup2\n        /* \"#utility.yul\":196:217   */\n      mstore\n        /* \"#utility.yul\":248:252   */\n      0x20\n        /* \"#utility.yul\":241:246   */\n      dup2\n        /* \"#utility.yul\":237:253   */\n      add\n        /* \"#utility.yul\":286:289   */\n      dup5\n        /* \"#utility.yul\":277:283   */\n      dup5\n        /* \"#utility.yul\":272:275   */\n      dup5\n        /* \"#utility.yul\":268:284   */\n      add\n        /* \"#utility.yul\":265:290   */\n      gt\n        /* \"#utility.yul\":262:374   */\n      iszero\n      tag_59\n      jumpi\n        /* \"#utility.yul\":293:372   */\n      tag_60\n      tag_61\n      jump\t// in\n    tag_60:\n        /* \"#utility.yul\":262:374   */\n    tag_59:\n        /* \"#utility.yul\":383:422   */\n      tag_62\n        /* \"#utility.yul\":415:421   */\n      dup5\n        /* \"#utility.yul\":410:413   */\n      dup3\n        /* \"#utility.yul\":405:408   */\n      dup6\n        /* \"#utility.yul\":383:422   */\n      tag_63\n      jump\t// in\n    tag_62:\n        /* \"#utility.yul\":102:428   */\n      pop\n        /* \"#utility.yul\":7:428   */\n      swap4\n      swap3\n      pop\n      pop\n      pop\n      jump\t// out\n        /* \"#utility.yul\":448:803   */\n    tag_64:\n        /* \"#utility.yul\":515:520   */\n      0x00\n        /* \"#utility.yul\":564:567   */\n      dup3\n        /* \"#utility.yul\":557:561   */\n      0x1f\n        /* \"#utility.yul\":549:555   */\n      dup4\n        /* \"#utility.yul\":545:562   */\n      add\n        /* \"#utility.yul\":541:568   */\n      slt\n        /* \"#utility.yul\":531:653   */\n      tag_66\n      jumpi\n        /* \"#utility.yul\":572:651   */\n      tag_67\n      tag_68\n      jump\t// in\n    tag_67:\n        /* \"#utility.yul\":531:653   */\n    tag_66:\n        /* \"#utility.yul\":682:688   */\n      dup2\n        /* \"#utility.yul\":676:689   */\n      mload\n        /* \"#utility.yul\":707:797   */\n      tag_69\n        /* \"#utility.yul\":793:796   */\n      dup5\n        /* \"#utility.yul\":785:791   */\n      dup3\n        /* \"#utility.yul\":778:782   */\n      0x20\n        /* \"#utility.yul\":770:776   */\n      dup7\n        /* \"#utility.yul\":766:783   */\n      add\n        /* \"#utility.yul\":707:797   */\n      tag_53\n      jump\t// in\n    tag_69:\n        /* \"#utility.yul\":698:797   */\n      swap2\n      pop\n        /* \"#utility.yul\":521:803   */\n      pop\n        /* \"#utility.yul\":448:803   */\n      swap3\n      swap2\n      pop\n      pop\n      jump\t// out\n        /* \"#utility.yul\":809:1333   */\n    tag_39:\n        /* \"#utility.yul\":889:895   */\n      0x00\n        /* \"#utility.yul\":938:940   */\n      0x20\n        /* \"#utility.yul\":926:935   */\n      dup3\n        /* \"#utility.yul\":917:924   */\n      dup5\n        /* \"#utility.yul\":913:936   */\n      sub\n        /* \"#utility.yul\":909:941   */\n      slt\n        /* \"#utility.yul\":906:1025   */\n      iszero\n      tag_71\n      jumpi\n        /* \"#utility.yul\":944:1023   */\n      tag_72\n      tag_73\n      jump\t// in\n    tag_72:\n        /* \"#utility.yul\":906:1025   */\n    tag_71:\n        /* \"#utility.yul\":1085:1086   */\n      0x00\n        /* \"#utility.yul\":1074:1083   */\n      dup3\n        /* \"#utility.yul\":1070:1087   */\n      add\n        /* \"#utility.yul\":1064:1088   */\n      mload\n        /* \"#utility.yul\":1115:1133   */\n      0xffffffffffffffff\n        /* \"#utility.yul\":1107:1113   */\n      dup2\n        /* \"#utility.yul\":1104:1134   */\n      gt\n        /* \"#utility.yul\":1101:1218   */\n      iszero\n      tag_74\n      jumpi\n        /* \"#utility.yul\":1137:1216   */\n      tag_75\n      tag_76\n      jump\t// in\n    tag_75:\n        /* \"#utility.yul\":1101:1218   */\n    tag_74:\n        /* \"#utility.yul\":1242:1316   */\n      tag_77\n        /* \"#utility.yul\":1308:1315   */\n      dup5\n        /* \"#utility.yul\":1299:1305   */\n      dup3\n        /* \"#utility.yul\":1288:1297   */\n      dup6\n        /* \"#utility.yul\":1284:1306   */\n      add\n        /* \"#utility.yul\":1242:1316   */\n      tag_64\n      jump\t// in\n    tag_77:\n        /* \"#utility.yul\":1232:1316   */\n      swap2\n      pop\n        /* \"#utility.yul\":1035:1326   */\n      pop\n        /* \"#utility.yul\":809:1333   */\n      swap3\n      swap2\n      pop\n      pop\n      jump\t// out\n        /* \"#utility.yul\":1339:1457   */\n    tag_78:\n        /* \"#utility.yul\":1426:1450   */\n      tag_80\n        /* \"#utility.yul\":1444:1449   */\n      dup2\n        /* \"#utility.yul\":1426:1450   */\n      tag_81\n      jump\t// in\n    tag_80:\n        /* \"#utility.yul\":1421:1424   */\n      dup3\n        /* \"#utility.yul\":1414:1451   */\n      mstore\n        /* \"#utility.yul\":1339:1457   */\n      pop\n      pop\n      jump\t// out\n        /* \"#utility.yul\":1463:1827   */\n    tag_82:\n        /* \"#utility.yul\":1551:1554   */\n      0x00\n        /* \"#utility.yul\":1579:1618   */\n      tag_84\n        /* \"#utility.yul\":1612:1617   */\n      dup3\n        /* \"#utility.yul\":1579:1618   */\n      tag_85\n      jump\t// in\n    tag_84:\n        /* \"#utility.yul\":1634:1705   */\n      tag_86\n        /* \"#utility.yul\":1698:1704   */\n      dup2\n        /* \"#utility.yul\":1693:1696   */\n      dup6\n        /* \"#utility.yul\":1634:1705   */\n      tag_87\n      jump\t// in\n    tag_86:\n        /* \"#utility.yul\":1627:1705   */\n      swap4\n      pop\n        /* \"#utility.yul\":1714:1766   */\n      tag_88\n        /* \"#utility.yul\":1759:1765   */\n      dup2\n        /* \"#utility.yul\":1754:1757   */\n      dup6\n        /* \"#utility.yul\":1747:1751   */\n      0x20\n        /* \"#utility.yul\":1740:1745   */\n      dup7\n        /* \"#utility.yul\":1736:1752   */\n      add\n        /* \"#utility.yul\":1714:1766   */\n      tag_63\n      jump\t// in\n    tag_88:\n        /* \"#utility.yul\":1791:1820   */\n      tag_89\n        /* \"#utility.yul\":1813:1819   */\n      dup2\n        /* \"#utility.yul\":1791:1820   */\n      tag_90\n      jump\t// in\n    tag_89:\n        /* \"#utility.yul\":1786:1789   */\n      dup5\n        /* \"#utility.yul\":1782:1821   */\n      add\n        /* \"#utility.yul\":1775:1821   */\n      swap2\n      pop\n        /* \"#utility.yul\":1555:1827   */\n      pop\n        /* \"#utility.yul\":1463:1827   */\n      swap3\n      swap2\n      pop\n      pop\n      jump\t// out\n        /* \"#utility.yul\":1833:2199   */\n    tag_91:\n        /* \"#utility.yul\":1975:1978   */\n      0x00\n        /* \"#utility.yul\":1996:2063   */\n      tag_93\n        /* \"#utility.yul\":2060:2062   */\n      0x0d\n        /* \"#utility.yul\":2055:2058   */\n      dup4\n        /* \"#utility.yul\":1996:2063   */\n      tag_87\n      jump\t// in\n    tag_93:\n        /* \"#utility.yul\":1989:2063   */\n      swap2\n      pop\n        /* \"#utility.yul\":2072:2165   */\n      tag_94\n        /* \"#utility.yul\":2161:2164   */\n      dup3\n        /* \"#utility.yul\":2072:2165   */\n      tag_95\n      jump\t// in\n    tag_94:\n        /* \"#utility.yul\":2190:2192   */\n      0x20\n        /* \"#utility.yul\":2185:2188   */\n      dup3\n        /* \"#utility.yul\":2181:2193   */\n      add\n        /* \"#utility.yul\":2174:2193   */\n      swap1\n      pop\n        /* \"#utility.yul\":1833:2199   */\n      swap2\n      swap1\n      pop\n      jump\t// out\n        /* \"#utility.yul\":2205:2427   */\n    tag_16:\n        /* \"#utility.yul\":2298:2302   */\n      0x00\n        /* \"#utility.yul\":2336:2338   */\n      0x20\n        /* \"#utility.yul\":2325:2334   */\n      dup3\n        /* \"#utility.yul\":2321:2339   */\n      add\n        /* \"#utility.yul\":2313:2339   */\n      swap1\n      pop\n        /* \"#utility.yul\":2349:2420   */\n      tag_97\n        /* \"#utility.yul\":2417:2418   */\n      0x00\n        /* \"#utility.yul\":2406:2415   */\n      dup4\n        /* \"#utility.yul\":2402:2419   */\n      add\n        /* \"#utility.yul\":2393:2399   */\n      dup5\n        /* \"#utility.yul\":2349:2420   */\n      tag_78\n      jump\t// in\n    tag_97:\n        /* \"#utility.yul\":2205:2427   */\n      swap3\n      swap2\n      pop\n      pop\n      jump\t// out\n        /* \"#utility.yul\":2433:2746   */\n    tag_10:\n        /* \"#utility.yul\":2546:2550   */\n      0x00\n        /* \"#utility.yul\":2584:2586   */\n      0x20\n        /* \"#utility.yul\":2573:2582   */\n      dup3\n        /* \"#utility.yul\":2569:2587   */\n      add\n        /* \"#utility.yul\":2561:2587   */\n      swap1\n      pop\n        /* \"#utility.yul\":2633:2642   */\n      dup2\n        /* \"#utility.yul\":2627:2631   */\n      dup2\n        /* \"#utility.yul\":2623:2643   */\n      sub\n        /* \"#utility.yul\":2619:2620   */\n      0x00\n        /* \"#utility.yul\":2608:2617   */\n      dup4\n        /* \"#utility.yul\":2604:2621   */\n      add\n        /* \"#utility.yul\":2597:2644   */\n      mstore\n        /* \"#utility.yul\":2661:2739   */\n      tag_99\n        /* \"#utility.yul\":2734:2738   */\n      dup2\n        /* \"#utility.yul\":2725:2731   */\n      dup5\n        /* \"#utility.yul\":2661:2739   */\n      tag_82\n      jump\t// in\n    tag_99:\n        /* \"#utility.yul\":2653:2739   */\n      swap1\n      pop\n        /* \"#utility.yul\":2433:2746   */\n      swap3\n      swap2\n      pop\n      pop\n      jump\t// out\n        /* \"#utility.yul\":2752:3171   */\n    tag_23:\n        /* \"#utility.yul\":2918:2922   */\n      0x00\n        /* \"#utility.yul\":2956:2958   */\n      0x20\n        /* \"#utility.yul\":2945:2954   */\n      dup3\n        /* \"#utility.yul\":2941:2959   */\n      add\n        /* \"#utility.yul\":2933:2959   */\n      swap1\n      pop\n        /* \"#utility.yul\":3005:3014   */\n      dup2\n        /* \"#utility.yul\":2999:3003   */\n      dup2\n        /* \"#utility.yul\":2995:3015   */\n      sub\n        /* \"#utility.yul\":2991:2992   */\n      0x00\n        /* \"#utility.yul\":2980:2989   */\n      dup4\n        /* \"#utility.yul\":2976:2993   */\n      add\n        /* \"#utility.yul\":2969:3016   */\n      mstore\n        /* \"#utility.yul\":3033:3164   */\n      tag_101\n        /* \"#utility.yul\":3159:3163   */\n      dup2\n        /* \"#utility.yul\":3033:3164   */\n      tag_91\n      jump\t// in\n    tag_101:\n        /* \"#utility.yul\":3025:3164   */\n      swap1\n      pop\n        /* \"#utility.yul\":2752:3171   */\n      swap2\n      swap1\n      pop\n      jump\t// out\n        /* \"#utility.yul\":3177:3306   */\n    tag_58:\n        /* \"#utility.yul\":3211:3217   */\n      0x00\n        /* \"#utility.yul\":3238:3258   */\n      tag_103\n      tag_104\n      jump\t// in\n    tag_103:\n        /* \"#utility.yul\":3228:3258   */\n      swap1\n      pop\n        /* \"#utility.yul\":3267:3300   */\n      tag_105\n        /* \"#utility.yul\":3295:3299   */\n      dup3\n        /* \"#utility.yul\":3287:3293   */\n      dup3\n        /* \"#utility.yul\":3267:3300   */\n      tag_106\n      jump\t// in\n    tag_105:\n        /* \"#utility.yul\":3177:3306   */\n      swap2\n      swap1\n      pop\n      jump\t// out\n        /* \"#utility.yul\":3312:3387   */\n    tag_104:\n        /* \"#utility.yul\":3345:3351   */\n      0x00\n        /* \"#utility.yul\":3378:3380   */\n      0x40\n        /* \"#utility.yul\":3372:3381   */\n      mload\n        /* \"#utility.yul\":3362:3381   */\n      swap1\n      pop\n        /* \"#utility.yul\":3312:3387   */\n      swap1\n      jump\t// out\n        /* \"#utility.yul\":3393:3701   */\n    tag_57:\n        /* \"#utility.yul\":3455:3459   */\n      0x00\n        /* \"#utility.yul\":3545:3563   */\n      0xffffffffffffffff\n        /* \"#utility.yul\":3537:3543   */\n      dup3\n        /* \"#utility.yul\":3534:3564   */\n      gt\n        /* \"#utility.yul\":3531:3587   */\n      iszero\n      tag_109\n      jumpi\n        /* \"#utility.yul\":3567:3585   */\n      tag_110\n      tag_111\n      jump\t// in\n    tag_110:\n        /* \"#utility.yul\":3531:3587   */\n    tag_109:\n        /* \"#utility.yul\":3605:3634   */\n      tag_112\n        /* \"#utility.yul\":3627:3633   */\n      dup3\n        /* \"#utility.yul\":3605:3634   */\n      tag_90\n      jump\t// in\n    tag_112:\n        /* \"#utility.yul\":3597:3634   */\n      swap1\n      pop\n        /* \"#utility.yul\":3689:3693   */\n      0x20\n        /* \"#utility.yul\":3683:3687   */\n      dup2\n        /* \"#utility.yul\":3679:3694   */\n      add\n        /* \"#utility.yul\":3671:3694   */\n      swap1\n      pop\n        /* \"#utility.yul\":3393:3701   */\n      swap2\n      swap1\n      pop\n      jump\t// out\n        /* \"#utility.yul\":3707:3806   */\n    tag_85:\n        /* \"#utility.yul\":3759:3765   */\n      0x00\n        /* \"#utility.yul\":3793:3798   */\n      dup2\n        /* \"#utility.yul\":3787:3799   */\n      mload\n        /* \"#utility.yul\":3777:3799   */\n      swap1\n      pop\n        /* \"#utility.yul\":3707:3806   */\n      swap2\n      swap1\n      pop\n      jump\t// out\n        /* \"#utility.yul\":3812:3981   */\n    tag_87:\n        /* \"#utility.yul\":3896:3907   */\n      0x00\n        /* \"#utility.yul\":3930:3936   */\n      dup3\n        /* \"#utility.yul\":3925:3928   */\n      dup3\n        /* \"#utility.yul\":3918:3937   */\n      mstore\n        /* \"#utility.yul\":3970:3974   */\n      0x20\n        /* \"#utility.yul\":3965:3968   */\n      dup3\n        /* \"#utility.yul\":3961:3975   */\n      add\n        /* \"#utility.yul\":3946:3975   */\n      swap1\n      pop\n        /* \"#utility.yul\":3812:3981   */\n      swap3\n      swap2\n      pop\n      pop\n      jump\t// out\n        /* \"#utility.yul\":3987:4083   */\n    tag_81:\n        /* \"#utility.yul\":4024:4031   */\n      0x00\n        /* \"#utility.yul\":4053:4077   */\n      tag_116\n        /* \"#utility.yul\":4071:4076   */\n      dup3\n        /* \"#utility.yul\":4053:4077   */\n      tag_117\n      jump\t// in\n    tag_116:\n        /* \"#utility.yul\":4042:4077   */\n      swap1\n      pop\n        /* \"#utility.yul\":3987:4083   */\n      swap2\n      swap1\n      pop\n      jump\t// out\n        /* \"#utility.yul\":4089:4215   */\n    tag_117:\n        /* \"#utility.yul\":4126:4133   */\n      0x00\n        /* \"#utility.yul\":4166:4208   */\n      0xffffffffffffffffffffffffffffffffffffffff\n        /* \"#utility.yul\":4159:4164   */\n      dup3\n        /* \"#utility.yul\":4155:4209   */\n      and\n        /* \"#utility.yul\":4144:4209   */\n      swap1\n      pop\n        /* \"#utility.yul\":4089:4215   */\n      swap2\n      swap1\n      pop\n      jump\t// out\n        /* \"#utility.yul\":4221:4528   */\n    tag_63:\n        /* \"#utility.yul\":4289:4290   */\n      0x00\n        /* \"#utility.yul\":4299:4412   */\n    tag_120:\n        /* \"#utility.yul\":4313:4319   */\n      dup4\n        /* \"#utility.yul\":4310:4311   */\n      dup2\n        /* \"#utility.yul\":4307:4320   */\n      lt\n        /* \"#utility.yul\":4299:4412   */\n      iszero\n      tag_122\n      jumpi\n        /* \"#utility.yul\":4398:4399   */\n      dup1\n        /* \"#utility.yul\":4393:4396   */\n      dup3\n        /* \"#utility.yul\":4389:4400   */\n      add\n        /* \"#utility.yul\":4383:4401   */\n      mload\n        /* \"#utility.yul\":4379:4380   */\n      dup2\n        /* \"#utility.yul\":4374:4377   */\n      dup5\n        /* \"#utility.yul\":4370:4381   */\n      add\n        /* \"#utility.yul\":4363:4402   */\n      mstore\n        /* \"#utility.yul\":4335:4337   */\n      0x20\n        /* \"#utility.yul\":4332:4333   */\n      dup2\n        /* \"#utility.yul\":4328:4338   */\n      add\n        /* \"#utility.yul\":4323:4338   */\n      swap1\n      pop\n        /* \"#utility.yul\":4299:4412   */\n      jump(tag_120)\n    tag_122:\n        /* \"#utility.yul\":4430:4436   */\n      dup4\n        /* \"#utility.yul\":4427:4428   */\n      dup2\n        /* \"#utility.yul\":4424:4437   */\n      gt\n        /* \"#utility.yul\":4421:4522   */\n      iszero\n      tag_123\n      jumpi\n        /* \"#utility.yul\":4510:4511   */\n      0x00\n        /* \"#utility.yul\":4501:4507   */\n      dup5\n        /* \"#utility.yul\":4496:4499   */\n      dup5\n        /* \"#utility.yul\":4492:4508   */\n      add\n        /* \"#utility.yul\":4485:4512   */\n      mstore\n        /* \"#utility.yul\":4421:4522   */\n    tag_123:\n        /* \"#utility.yul\":4270:4528   */\n      pop\n        /* \"#utility.yul\":4221:4528   */\n      pop\n      pop\n      pop\n      jump\t// out\n        /* \"#utility.yul\":4534:4854   */\n    tag_26:\n        /* \"#utility.yul\":4578:4584   */\n      0x00\n        /* \"#utility.yul\":4615:4616   */\n      0x02\n        /* \"#utility.yul\":4609:4613   */\n      dup3\n        /* \"#utility.yul\":4605:4617   */\n      div\n        /* \"#utility.yul\":4595:4617   */\n      swap1\n      pop\n        /* \"#utility.yul\":4662:4663   */\n      0x01\n        /* \"#utility.yul\":4656:4660   */\n      dup3\n        /* \"#utility.yul\":4652:4664   */\n      and\n        /* \"#utility.yul\":4683:4701   */\n      dup1\n        /* \"#utility.yul\":4673:4754   */\n      tag_125\n      jumpi\n        /* \"#utility.yul\":4739:4743   */\n      0x7f\n        /* \"#utility.yul\":4731:4737   */\n      dup3\n        /* \"#utility.yul\":4727:4744   */\n      and\n        /* \"#utility.yul\":4717:4744   */\n      swap2\n      pop\n        /* \"#utility.yul\":4673:4754   */\n    tag_125:\n        /* \"#utility.yul\":4801:4803   */\n      0x20\n        /* \"#utility.yul\":4793:4799   */\n      dup3\n        /* \"#utility.yul\":4790:4804   */\n      lt\n        /* \"#utility.yul\":4770:4788   */\n      dup2\n        /* \"#utility.yul\":4767:4805   */\n      eq\n        /* \"#utility.yul\":4764:4848   */\n      iszero\n      tag_126\n      jumpi\n        /* \"#utility.yul\":4820:4838   */\n      tag_127\n      tag_128\n      jump\t// in\n    tag_127:\n        /* \"#utility.yul\":4764:4848   */\n    tag_126:\n        /* \"#utility.yul\":4585:4854   */\n      pop\n        /* \"#utility.yul\":4534:4854   */\n      swap2\n      swap1\n      pop\n      jump\t// out\n        /* \"#utility.yul\":4860:5141   */\n    tag_106:\n        /* \"#utility.yul\":4943:4970   */\n      tag_130\n        /* \"#utility.yul\":4965:4969   */\n      dup3\n        /* \"#utility.yul\":4943:4970   */\n      tag_90\n      jump\t// in\n    tag_130:\n        /* \"#utility.yul\":4935:4941   */\n      dup2\n        /* \"#utility.yul\":4931:4971   */\n      add\n        /* \"#utility.yul\":5073:5079   */\n      dup2\n        /* \"#utility.yul\":5061:5071   */\n      dup2\n        /* \"#utility.yul\":5058:5080   */\n      lt\n        /* \"#utility.yul\":5037:5055   */\n      0xffffffffffffffff\n        /* \"#utility.yul\":5025:5035   */\n      dup3\n        /* \"#utility.yul\":5022:5056   */\n      gt\n        /* \"#utility.yul\":5019:5081   */\n      or\n        /* \"#utility.yul\":5016:5104   */\n      iszero\n      tag_131\n      jumpi\n        /* \"#utility.yul\":5084:5102   */\n      tag_132\n      tag_111\n      jump\t// in\n    tag_132:\n        /* \"#utility.yul\":5016:5104   */\n    tag_131:\n        /* \"#utility.yul\":5124:5134   */\n      dup1\n        /* \"#utility.yul\":5120:5122   */\n      0x40\n        /* \"#utility.yul\":5113:5135   */\n      mstore\n        /* \"#utility.yul\":4903:5141   */\n      pop\n        /* \"#utility.yul\":4860:5141   */\n      pop\n      pop\n      jump\t// out\n        /* \"#utility.yul\":5147:5327   */\n    tag_128:\n        /* \"#utility.yul\":5195:5272   */\n      0x4e487b7100000000000000000000000000000000000000000000000000000000\n        /* \"#utility.yul\":5192:5193   */\n      0x00\n        /* \"#utility.yul\":5185:5273   */\n      mstore\n        /* \"#utility.yul\":5292:5296   */\n      0x22\n        /* \"#utility.yul\":5289:5290   */\n      0x04\n        /* \"#utility.yul\":5282:5297   */\n      mstore\n        /* \"#utility.yul\":5316:5320   */\n      0x24\n        /* \"#utility.yul\":5313:5314   */\n      0x00\n        /* \"#utility.yul\":5306:5321   */\n      revert\n        /* \"#utility.yul\":5333:5513   */\n    tag_111:\n        /* \"#utility.yul\":5381:5458   */\n      0x4e487b7100000000000000000000000000000000000000000000000000000000\n        /* \"#utility.yul\":5378:5379   */\n      0x00\n        /* \"#utility.yul\":5371:5459   */\n      mstore\n        /* \"#utility.yul\":5478:5482   */\n      0x41\n        /* \"#utility.yul\":5475:5476   */\n      0x04\n        /* \"#utility.yul\":5468:5483   */\n      mstore\n        /* \"#utility.yul\":5502:5506   */\n      0x24\n        /* \"#utility.yul\":5499:5500   */\n      0x00\n        /* \"#utility.yul\":5492:5507   */\n      revert\n        /* \"#utility.yul\":5519:5636   */\n    tag_68:\n        /* \"#utility.yul\":5628:5629   */\n      0x00\n        /* \"#utility.yul\":5625:5626   */\n      dup1\n        /* \"#utility.yul\":5618:5630   */\n      revert\n        /* \"#utility.yul\":5642:5759   */\n    tag_61:\n        /* \"#utility.yul\":5751:5752   */\n      0x00\n        /* \"#utility.yul\":5748:5749   */\n      dup1\n        /* \"#utility.yul\":5741:5753   */\n      revert\n        /* \"#utility.yul\":5765:5882   */\n    tag_76:\n        /* \"#utility.yul\":5874:5875   */\n      0x00\n        /* \"#utility.yul\":5871:5872   */\n      dup1\n        /* \"#utility.yul\":5864:5876   */\n      revert\n        /* \"#utility.yul\":5888:6005   */\n    tag_73:\n        /* \"#utility.yul\":5997:5998   */\n      0x00\n        /* \"#utility.yul\":5994:5995   */\n      dup1\n        /* \"#utility.yul\":5987:5999   */\n      revert\n        /* \"#utility.yul\":6011:6113   */\n    tag_90:\n        /* \"#utility.yul\":6052:6058   */\n      0x00\n        /* \"#utility.yul\":6103:6105   */\n      0x1f\n        /* \"#utility.yul\":6099:6106   */\n      not\n        /* \"#utility.yul\":6094:6096   */\n      0x1f\n        /* \"#utility.yul\":6087:6092   */\n      dup4\n        /* \"#utility.yul\":6083:6097   */\n      add\n        /* \"#utility.yul\":6079:6107   */\n      and\n        /* \"#utility.yul\":6069:6107   */\n      swap1\n      pop\n        /* \"#utility.yul\":6011:6113   */\n      swap2\n      swap1\n      pop\n      jump\t// out\n        /* \"#utility.yul\":6119:6282   */\n    tag_95:\n        /* \"#utility.yul\":6259:6274   */\n      0x4e6f7420746865206f776e657200000000000000000000000000000000000000\n        /* \"#utility.yul\":6255:6256   */\n      0x00\n        /* \"#utility.yul\":6247:6253   */\n      dup3\n        /* \"#utility.yul\":6243:6257   */\n      add\n        /* \"#utility.yul\":6236:6275   */\n      mstore\n        /* \"#utility.yul\":6119:6282   */\n      pop\n      jump\t// out\n\n    auxdata: 0xa26469706673582212206c313d06016743bd5c7d7f68637bd1d4819ef5914f9f62d03bd8e931ef32e9b464736f6c63430008070033\n}\n",
				"bytecode": {
					"linkReferences": {},
					"object": "60806040526040518060400160405280600681526020017f5055424c494300000000000000000000000000000000000000000000000000008152506001908051906020019061004f9291906101e9565b506040518060400160405280600781526020017f50524956415445000000000000000000000000000000000000000000000000008152506002908051906020019061009b9291906101e9565b506040518060400160405280600881526020017f494e5445524e414c000000000000000000000000000000000000000000000000815250600390805190602001906100e79291906101e9565b506040518060400160405280600881526020017f45585445524e414c000000000000000000000000000000000000000000000000815250600490805190602001906101339291906101e9565b5034801561014057600080fd5b50336000806101000a81548173ffffffffffffffffffffffffffffffffffffffff021916908373ffffffffffffffffffffffffffffffffffffffff16021790555060008054906101000a900473ffffffffffffffffffffffffffffffffffffffff1673ffffffffffffffffffffffffffffffffffffffff167f32eeab65b153abbd468529eec826d5e40471109272326ae28cdbccaf07ab59c860405160405180910390a26102ed565b8280546101f59061028c565b90600052602060002090601f016020900481019282610217576000855561025e565b82601f1061023057805160ff191683800117855561025e565b8280016001018555821561025e579182015b8281111561025d578251825591602001919060010190610242565b5b50905061026b919061026f565b5090565b5b80821115610288576000816000905550600101610270565b5090565b600060028204905060018216806102a457607f821691505b602082108114156102b8576102b76102be565b5b50919050565b7f4e487b7100000000000000000000000000000000000000000000000000000000600052602260045260246000fd5b610752806102fc6000396000f3fe608060405234801561001057600080fd5b506004361061004c5760003560e01c80632c044779146100515780632de4ca591461006f5780638da5cb5b14610079578063c932415b14610097575b600080fd5b6100596100b5565b60405161006691906104f4565b60405180910390f35b6100776101d5565b005b61008161026d565b60405161008e91906104d9565b60405180910390f35b61009f610291565b6040516100ac91906104f4565b60405180910390f35b606060008054906101000a900473ffffffffffffffffffffffffffffffffffffffff1673ffffffffffffffffffffffffffffffffffffffff163373ffffffffffffffffffffffffffffffffffffffff1614610145576040517f08c379a000000000000000000000000000000000000000000000000000000000815260040161013c90610516565b60405180910390fd5b600180546101529061060d565b80601f016020809104026020016040519081016040528092919081815260200182805461017e9061060d565b80156101cb5780601f106101a0576101008083540402835291602001916101cb565b820191906000526020600020905b8154815290600101906020018083116101ae57829003601f168201915b5050505050905090565b6101dd6100b5565b506101e6610323565b503073ffffffffffffffffffffffffffffffffffffffff1663c932415b6040518163ffffffff1660e01b815260040160006040518083038186803b15801561022d57600080fd5b505afa158015610241573d6000803e3d6000fd5b505050506040513d6000823e3d601f19601f8201168201806040525081019061026a9190610425565b50565b60008054906101000a900473ffffffffffffffffffffffffffffffffffffffff1681565b6060600480546102a09061060d565b80601f01602080910402602001604051908101604052809291908181526020018280546102cc9061060d565b80156103195780601f106102ee57610100808354040283529160200191610319565b820191906000526020600020905b8154815290600101906020018083116102fc57829003601f168201915b5050505050905090565b6060600380546103329061060d565b80601f016020809104026020016040519081016040528092919081815260200182805461035e9061060d565b80156103ab5780601f10610380576101008083540402835291602001916103ab565b820191906000526020600020905b81548152906001019060200180831161038e57829003601f168201915b5050505050905090565b60006103c86103c38461055b565b610536565b9050828152602081018484840111156103e4576103e36106d3565b5b6103ef8482856105da565b509392505050565b600082601f83011261040c5761040b6106ce565b5b815161041c8482602086016103b5565b91505092915050565b60006020828403121561043b5761043a6106dd565b5b600082015167ffffffffffffffff811115610459576104586106d8565b5b610465848285016103f7565b91505092915050565b610477816105a8565b82525050565b60006104888261058c565b6104928185610597565b93506104a28185602086016105da565b6104ab816106e2565b840191505092915050565b60006104c3600d83610597565b91506104ce826106f3565b602082019050919050565b60006020820190506104ee600083018461046e565b92915050565b6000602082019050818103600083015261050e818461047d565b905092915050565b6000602082019050818103600083015261052f816104b6565b9050919050565b6000610540610551565b905061054c828261063f565b919050565b6000604051905090565b600067ffffffffffffffff8211156105765761057561069f565b5b61057f826106e2565b9050602081019050919050565b600081519050919050565b600082825260208201905092915050565b60006105b3826105ba565b9050919050565b600073ffffffffffffffffffffffffffffffffffffffff82169050919050565b60005b838110156105f85780820151818401526020810190506105dd565b83811115610607576000848401525b50505050565b6000600282049050600182168061062557607f821691505b6020821081141561063957610638610670565b5b50919050565b610648826106e2565b810181811067ffffffffffffffff821117156106675761066661069f565b5b80604052505050565b7f4e487b7100000000000000000000000000000000000000000000000000000000600052602260045260246000fd5b7f4e487b7100000000000000000000000000000000000000000000000000000000600052604160045260246000fd5b600080fd5b600080fd5b600080fd5b600080fd5b6000601f19601f8301169050919050565b7f4e6f7420746865206f776e65720000000000000000000000000000000000000060008201525056fea26469706673582212206c313d06016743bd5c7d7f68637bd1d4819ef5914f9f62d03bd8e931ef32e9b464736f6c63430008070033",
					"opcodes": "PUSH1 0x80 PUSH1 0x40 MSTORE PUSH1 0x40 MLOAD DUP1 PUSH1 0x40 ADD PUSH1 0x40 MSTORE DUP1 PUSH1 0x6 DUP2 MSTORE PUSH1 0x20 ADD PUSH32 0x5055424C49430000000000000000000000000000000000000000000000000000 DUP2 MSTORE POP PUSH1 0x1 SWAP1 DUP1 MLOAD SWAP1 PUSH1 0x20 ADD SWAP1 PUSH2 0x4F SWAP3 SWAP2 SWAP1 PUSH2 0x1E9 JUMP JUMPDEST POP PUSH1 0x40 MLOAD DUP1 PUSH1 0x40 ADD PUSH1 0x40 MSTORE DUP1 PUSH1 0x7 DUP2 MSTORE PUSH1 0x20 ADD PUSH32 0x5052495641544500000000000000000000000000000000000000000000000000 DUP2 MSTORE POP PUSH1 0x2 SWAP1 DUP1 MLOAD SWAP1 PUSH1 0x20 ADD SWAP1 PUSH2 0x9B SWAP3 SWAP2 SWAP1 PUSH2 0x1E9 JUMP JUMPDEST POP PUSH1 0x40 MLOAD DUP1 PUSH1 0x40 ADD PUSH1 0x40 MSTORE DUP1 PUSH1 0x8 DUP2 MSTORE PUSH1 0x20 ADD PUSH32 0x494E5445524E414C000000000000000000000000000000000000000000000000 DUP2 MSTORE POP PUSH1 0x3 SWAP1 DUP1 MLOAD SWAP1 PUSH1 0x20 ADD SWAP1 PUSH2 0xE7 SWAP3 SWAP2 SWAP1 PUSH2 0x1E9 JUMP JUMPDEST POP PUSH1 0x40 MLOAD DUP1 PUSH1 0x40 ADD PUSH1 0x40 MSTORE DUP1 PUSH1 0x8 DUP2 MSTORE PUSH1 0x20 ADD PUSH32 0x45585445524E414C000000000000000000000000000000000000000000000000 DUP2 MSTORE POP PUSH1 0x4 SWAP1 DUP1 MLOAD SWAP1 PUSH1 0x20 ADD SWAP1 PUSH2 0x133 SWAP3 SWAP2 SWAP1 PUSH2 0x1E9 JUMP JUMPDEST POP CALLVALUE DUP1 ISZERO PUSH2 0x140 JUMPI PUSH1 0x0 DUP1 REVERT JUMPDEST POP CALLER PUSH1 0x0 DUP1 PUSH2 0x100 EXP DUP2 SLOAD DUP2 PUSH20 0xFFFFFFFFFFFFFFFFFFFFFFFFFFFFFFFFFFFFFFFF MUL NOT AND SWAP1 DUP4 PUSH20 0xFFFFFFFFFFFFFFFFFFFFFFFFFFFFFFFFFFFFFFFF AND MUL OR SWAP1 SSTORE POP PUSH1 0x0 DUP1 SLOAD SWAP1 PUSH2 0x100 EXP SWAP1 DIV PUSH20 0xFFFFFFFFFFFFFFFFFFFFFFFFFFFFFFFFFFFFFFFF AND PUSH20 0xFFFFFFFFFFFFFFFFFFFFFFFFFFFFFFFFFFFFFFFF AND PUSH32 0x32EEAB65B153ABBD468529EEC826D5E40471109272326AE28CDBCCAF07AB59C8 PUSH1 0x40 MLOAD PUSH1 0x40 MLOAD DUP1 SWAP2 SUB SWAP1 LOG2 PUSH2 0x2ED JUMP JUMPDEST DUP3 DUP1 SLOAD PUSH2 0x1F5 SWAP1 PUSH2 0x28C JUMP JUMPDEST SWAP1 PUSH1 0x0 MSTORE PUSH1 0x20 PUSH1 0x0 KECCAK256 SWAP1 PUSH1 0x1F ADD PUSH1 0x20 SWAP1 DIV DUP2 ADD SWAP3 DUP3 PUSH2 0x217 JUMPI PUSH1 0x0 DUP6 SSTORE PUSH2 0x25E JUMP JUMPDEST DUP3 PUSH1 0x1F LT PUSH2 0x230 JUMPI DUP1 MLOAD PUSH1 0xFF NOT AND DUP4 DUP1 ADD OR DUP6 SSTORE PUSH2 0x25E JUMP JUMPDEST DUP3 DUP1 ADD PUSH1 0x1 ADD DUP6 SSTORE DUP3 ISZERO PUSH2 0x25E JUMPI SWAP2 DUP3 ADD JUMPDEST DUP3 DUP2 GT ISZERO PUSH2 0x25D JUMPI DUP3 MLOAD DUP3 SSTORE SWAP2 PUSH1 0x20 ADD SWAP2 SWAP1 PUSH1 0x1 ADD SWAP1 PUSH2 0x242 JUMP JUMPDEST JUMPDEST POP SWAP1 POP PUSH2 0x26B SWAP2 SWAP1 PUSH2 0x26F JUMP JUMPDEST POP SWAP1 JUMP JUMPDEST JUMPDEST DUP1 DUP3 GT ISZERO PUSH2 0x288 JUMPI PUSH1 0x0 DUP2 PUSH1 0x0 SWAP1 SSTORE POP PUSH1 0x1 ADD PUSH2 0x270 JUMP JUMPDEST POP SWAP1 JUMP JUMPDEST PUSH1 0x0 PUSH1 0x2 DUP3 DIV SWAP1 POP PUSH1 0x1 DUP3 AND DUP1 PUSH2 0x2A4 JUMPI PUSH1 0x7F DUP3 AND SWAP2 POP JUMPDEST PUSH1 0x20 DUP3 LT DUP2 EQ ISZERO PUSH2 0x2B8 JUMPI PUSH2 0x2B7 PUSH2 0x2BE JUMP JUMPDEST JUMPDEST POP SWAP2 SWAP1 POP JUMP JUMPDEST PUSH32 0x4E487B7100000000000000000000000000000000000000000000000000000000 PUSH1 0x0 MSTORE PUSH1 0x22 PUSH1 0x4 MSTORE PUSH1 0x24 PUSH1 0x0 REVERT JUMPDEST PUSH2 0x752 DUP1 PUSH2 0x2FC PUSH1 0x0 CODECOPY PUSH1 0x0 RETURN INVALID PUSH1 0x80 PUSH1 0x40 MSTORE CALLVALUE DUP1 ISZERO PUSH2 0x10 JUMPI PUSH1 0x0 DUP1 REVERT JUMPDEST POP PUSH1 0x4 CALLDATASIZE LT PUSH2 0x4C JUMPI PUSH1 0x0 CALLDATALOAD PUSH1 0xE0 SHR DUP1 PUSH4 0x2C044779 EQ PUSH2 0x51 JUMPI DUP1 PUSH4 0x2DE4CA59 EQ PUSH2 0x6F JUMPI DUP1 PUSH4 0x8DA5CB5B EQ PUSH2 0x79 JUMPI DUP1 PUSH4 0xC932415B EQ PUSH2 0x97 JUMPI JUMPDEST PUSH1 0x0 DUP1 REVERT JUMPDEST PUSH2 0x59 PUSH2 0xB5 JUMP JUMPDEST PUSH1 0x40 MLOAD PUSH2 0x66 SWAP2 SWAP1 PUSH2 0x4F4 JUMP JUMPDEST PUSH1 0x40 MLOAD DUP1 SWAP2 SUB SWAP1 RETURN JUMPDEST PUSH2 0x77 PUSH2 0x1D5 JUMP JUMPDEST STOP JUMPDEST PUSH2 0x81 PUSH2 0x26D JUMP JUMPDEST PUSH1 0x40 MLOAD PUSH2 0x8E SWAP2 SWAP1 PUSH2 0x4D9 JUMP JUMPDEST PUSH1 0x40 MLOAD DUP1 SWAP2 SUB SWAP1 RETURN JUMPDEST PUSH2 0x9F PUSH2 0x291 JUMP JUMPDEST PUSH1 0x40 MLOAD PUSH2 0xAC SWAP2 SWAP1 PUSH2 0x4F4 JUMP JUMPDEST PUSH1 0x40 MLOAD DUP1 SWAP2 SUB SWAP1 RETURN JUMPDEST PUSH1 0x60 PUSH1 0x0 DUP1 SLOAD SWAP1 PUSH2 0x100 EXP SWAP1 DIV PUSH20 0xFFFFFFFFFFFFFFFFFFFFFFFFFFFFFFFFFFFFFFFF AND PUSH20 0xFFFFFFFFFFFFFFFFFFFFFFFFFFFFFFFFFFFFFFFF AND CALLER PUSH20 0xFFFFFFFFFFFFFFFFFFFFFFFFFFFFFFFFFFFFFFFF AND EQ PUSH2 0x145 JUMPI PUSH1 0x40 MLOAD PUSH32 0x8C379A000000000000000000000000000000000000000000000000000000000 DUP2 MSTORE PUSH1 0x4 ADD PUSH2 0x13C SWAP1 PUSH2 0x516 JUMP JUMPDEST PUSH1 0x40 MLOAD DUP1 SWAP2 SUB SWAP1 REVERT JUMPDEST PUSH1 0x1 DUP1 SLOAD PUSH2 0x152 SWAP1 PUSH2 0x60D JUMP JUMPDEST DUP1 PUSH1 0x1F ADD PUSH1 0x20 DUP1 SWAP2 DIV MUL PUSH1 0x20 ADD PUSH1 0x40 MLOAD SWAP1 DUP2 ADD PUSH1 0x40 MSTORE DUP1 SWAP3 SWAP2 SWAP1 DUP2 DUP2 MSTORE PUSH1 0x20 ADD DUP3 DUP1 SLOAD PUSH2 0x17E SWAP1 PUSH2 0x60D JUMP JUMPDEST DUP1 ISZERO PUSH2 0x1CB JUMPI DUP1 PUSH1 0x1F LT PUSH2 0x1A0 JUMPI PUSH2 0x100 DUP1 DUP4 SLOAD DIV MUL DUP4 MSTORE SWAP2 PUSH1 0x20 ADD SWAP2 PUSH2 0x1CB JUMP JUMPDEST DUP3 ADD SWAP2 SWAP1 PUSH1 0x0 MSTORE PUSH1 0x20 PUSH1 0x0 KECCAK256 SWAP1 JUMPDEST DUP2 SLOAD DUP2 MSTORE SWAP1 PUSH1 0x1 ADD SWAP1 PUSH1 0x20 ADD DUP1 DUP4 GT PUSH2 0x1AE JUMPI DUP3 SWAP1 SUB PUSH1 0x1F AND DUP3 ADD SWAP2 JUMPDEST POP POP POP POP POP SWAP1 POP SWAP1 JUMP JUMPDEST PUSH2 0x1DD PUSH2 0xB5 JUMP JUMPDEST POP PUSH2 0x1E6 PUSH2 0x323 JUMP JUMPDEST POP ADDRESS PUSH20 0xFFFFFFFFFFFFFFFFFFFFFFFFFFFFFFFFFFFFFFFF AND PUSH4 0xC932415B PUSH1 0x40 MLOAD DUP2 PUSH4 0xFFFFFFFF AND PUSH1 0xE0 SHL DUP2 MSTORE PUSH1 0x4 ADD PUSH1 0x0 PUSH1 0x40 MLOAD DUP1 DUP4 SUB DUP2 DUP7 DUP1 EXTCODESIZE ISZERO DUP1 ISZERO PUSH2 0x22D JUMPI PUSH1 0x0 DUP1 REVERT JUMPDEST POP GAS STATICCALL ISZERO DUP1 ISZERO PUSH2 0x241 JUMPI RETURNDATASIZE PUSH1 0x0 DUP1 RETURNDATACOPY RETURNDATASIZE PUSH1 0x0 REVERT JUMPDEST POP POP POP POP PUSH1 0x40 MLOAD RETURNDATASIZE PUSH1 0x0 DUP3 RETURNDATACOPY RETURNDATASIZE PUSH1 0x1F NOT PUSH1 0x1F DUP3 ADD AND DUP3 ADD DUP1 PUSH1 0x40 MSTORE POP DUP2 ADD SWAP1 PUSH2 0x26A SWAP2 SWAP1 PUSH2 0x425 JUMP JUMPDEST POP JUMP JUMPDEST PUSH1 0x0 DUP1 SLOAD SWAP1 PUSH2 0x100 EXP SWAP1 DIV PUSH20 0xFFFFFFFFFFFFFFFFFFFFFFFFFFFFFFFFFFFFFFFF AND DUP2 JUMP JUMPDEST PUSH1 0x60 PUSH1 0x4 DUP1 SLOAD PUSH2 0x2A0 SWAP1 PUSH2 0x60D JUMP JUMPDEST DUP1 PUSH1 0x1F ADD PUSH1 0x20 DUP1 SWAP2 DIV MUL PUSH1 0x20 ADD PUSH1 0x40 MLOAD SWAP1 DUP2 ADD PUSH1 0x40 MSTORE DUP1 SWAP3 SWAP2 SWAP1 DUP2 DUP2 MSTORE PUSH1 0x20 ADD DUP3 DUP1 SLOAD PUSH2 0x2CC SWAP1 PUSH2 0x60D JUMP JUMPDEST DUP1 ISZERO PUSH2 0x319 JUMPI DUP1 PUSH1 0x1F LT PUSH2 0x2EE JUMPI PUSH2 0x100 DUP1 DUP4 SLOAD DIV MUL DUP4 MSTORE SWAP2 PUSH1 0x20 ADD SWAP2 PUSH2 0x319 JUMP JUMPDEST DUP3 ADD SWAP2 SWAP1 PUSH1 0x0 MSTORE PUSH1 0x20 PUSH1 0x0 KECCAK256 SWAP1 JUMPDEST DUP2 SLOAD DUP2 MSTORE SWAP1 PUSH1 0x1 ADD SWAP1 PUSH1 0x20 ADD DUP1 DUP4 GT PUSH2 0x2FC JUMPI DUP3 SWAP1 SUB PUSH1 0x1F AND DUP3 ADD SWAP2 JUMPDEST POP POP POP POP POP SWAP1 POP SWAP1 JUMP JUMPDEST PUSH1 0x60 PUSH1 0x3 DUP1 SLOAD PUSH2 0x332 SWAP1 PUSH2 0x60D JUMP JUMPDEST DUP1 PUSH1 0x1F ADD PUSH1 0x20 DUP1 SWAP2 DIV MUL PUSH1 0x20 ADD PUSH1 0x40 MLOAD SWAP1 DUP2 ADD PUSH1 0x40 MSTORE DUP1 SWAP3 SWAP2 SWAP1 DUP2 DUP2 MSTORE PUSH1 0x20 ADD DUP3 DUP1 SLOAD PUSH2 0x35E SWAP1 PUSH2 0x60D JUMP JUMPDEST DUP1 ISZERO PUSH2 0x3AB JUMPI DUP1 PUSH1 0x1F LT PUSH2 0x380 JUMPI PUSH2 0x100 DUP1 DUP4 SLOAD DIV MUL DUP4 MSTORE SWAP2 PUSH1 0x20 ADD SWAP2 PUSH2 0x3AB JUMP JUMPDEST DUP3 ADD SWAP2 SWAP1 PUSH1 0x0 MSTORE PUSH1 0x20 PUSH1 0x0 KECCAK256 SWAP1 JUMPDEST DUP2 SLOAD DUP2 MSTORE SWAP1 PUSH1 0x1 ADD SWAP1 PUSH1 0x20 ADD DUP1 DUP4 GT PUSH2 0x38E JUMPI DUP3 SWAP1 SUB PUSH1 0x1F AND DUP3 ADD SWAP2 JUMPDEST POP POP POP POP POP SWAP1 POP SWAP1 JUMP JUMPDEST PUSH1 0x0 PUSH2 0x3C8 PUSH2 0x3C3 DUP5 PUSH2 0x55B JUMP JUMPDEST PUSH2 0x536 JUMP JUMPDEST SWAP1 POP DUP3 DUP2 MSTORE PUSH1 0x20 DUP2 ADD DUP5 DUP5 DUP5 ADD GT ISZERO PUSH2 0x3E4 JUMPI PUSH2 0x3E3 PUSH2 0x6D3 JUMP JUMPDEST JUMPDEST PUSH2 0x3EF DUP5 DUP3 DUP6 PUSH2 0x5DA JUMP JUMPDEST POP SWAP4 SWAP3 POP POP POP JUMP JUMPDEST PUSH1 0x0 DUP3 PUSH1 0x1F DUP4 ADD SLT PUSH2 0x40C JUMPI PUSH2 0x40B PUSH2 0x6CE JUMP JUMPDEST JUMPDEST DUP2 MLOAD PUSH2 0x41C DUP5 DUP3 PUSH1 0x20 DUP7 ADD PUSH2 0x3B5 JUMP JUMPDEST SWAP2 POP POP SWAP3 SWAP2 POP POP JUMP JUMPDEST PUSH1 0x0 PUSH1 0x20 DUP3 DUP5 SUB SLT ISZERO PUSH2 0x43B JUMPI PUSH2 0x43A PUSH2 0x6DD JUMP JUMPDEST JUMPDEST PUSH1 0x0 DUP3 ADD MLOAD PUSH8 0xFFFFFFFFFFFFFFFF DUP2 GT ISZERO PUSH2 0x459 JUMPI PUSH2 0x458 PUSH2 0x6D8 JUMP JUMPDEST JUMPDEST PUSH2 0x465 DUP5 DUP3 DUP6 ADD PUSH2 0x3F7 JUMP JUMPDEST SWAP2 POP POP SWAP3 SWAP2 POP POP JUMP JUMPDEST PUSH2 0x477 DUP2 PUSH2 0x5A8 JUMP JUMPDEST DUP3 MSTORE POP POP JUMP JUMPDEST PUSH1 0x0 PUSH2 0x488 DUP3 PUSH2 0x58C JUMP JUMPDEST PUSH2 0x492 DUP2 DUP6 PUSH2 0x597 JUMP JUMPDEST SWAP4 POP PUSH2 0x4A2 DUP2 DUP6 PUSH1 0x20 DUP7 ADD PUSH2 0x5DA JUMP JUMPDEST PUSH2 0x4AB DUP2 PUSH2 0x6E2 JUMP JUMPDEST DUP5 ADD SWAP2 POP POP SWAP3 SWAP2 POP POP JUMP JUMPDEST PUSH1 0x0 PUSH2 0x4C3 PUSH1 0xD DUP4 PUSH2 0x597 JUMP JUMPDEST SWAP2 POP PUSH2 0x4CE DUP3 PUSH2 0x6F3 JUMP JUMPDEST PUSH1 0x20 DUP3 ADD SWAP1 POP SWAP2 SWAP1 POP JUMP JUMPDEST PUSH1 0x0 PUSH1 0x20 DUP3 ADD SWAP1 POP PUSH2 0x4EE PUSH1 0x0 DUP4 ADD DUP5 PUSH2 0x46E JUMP JUMPDEST SWAP3 SWAP2 POP POP JUMP JUMPDEST PUSH1 0x0 PUSH1 0x20 DUP3 ADD SWAP1 POP DUP2 DUP2 SUB PUSH1 0x0 DUP4 ADD MSTORE PUSH2 0x50E DUP2 DUP5 PUSH2 0x47D JUMP JUMPDEST SWAP1 POP SWAP3 SWAP2 POP POP JUMP JUMPDEST PUSH1 0x0 PUSH1 0x20 DUP3 ADD SWAP1 POP DUP2 DUP2 SUB PUSH1 0x0 DUP4 ADD MSTORE PUSH2 0x52F DUP2 PUSH2 0x4B6 JUMP JUMPDEST SWAP1 POP SWAP2 SWAP1 POP JUMP JUMPDEST PUSH1 0x0 PUSH2 0x540 PUSH2 0x551 JUMP JUMPDEST SWAP1 POP PUSH2 0x54C DUP3 DUP3 PUSH2 0x63F JUMP JUMPDEST SWAP2 SWAP1 POP JUMP JUMPDEST PUSH1 0x0 PUSH1 0x40 MLOAD SWAP1 POP SWAP1 JUMP JUMPDEST PUSH1 0x0 PUSH8 0xFFFFFFFFFFFFFFFF DUP3 GT ISZERO PUSH2 0x576 JUMPI PUSH2 0x575 PUSH2 0x69F JUMP JUMPDEST JUMPDEST PUSH2 0x57F DUP3 PUSH2 0x6E2 JUMP JUMPDEST SWAP1 POP PUSH1 0x20 DUP2 ADD SWAP1 POP SWAP2 SWAP1 POP JUMP JUMPDEST PUSH1 0x0 DUP2 MLOAD SWAP1 POP SWAP2 SWAP1 POP JUMP JUMPDEST PUSH1 0x0 DUP3 DUP3 MSTORE PUSH1 0x20 DUP3 ADD SWAP1 POP SWAP3 SWAP2 POP POP JUMP JUMPDEST PUSH1 0x0 PUSH2 0x5B3 DUP3 PUSH2 0x5BA JUMP JUMPDEST SWAP1 POP SWAP2 SWAP1 POP JUMP JUMPDEST PUSH1 0x0 PUSH20 0xFFFFFFFFFFFFFFFFFFFFFFFFFFFFFFFFFFFFFFFF DUP3 AND SWAP1 POP SWAP2 SWAP1 POP JUMP JUMPDEST PUSH1 0x0 JUMPDEST DUP4 DUP2 LT ISZERO PUSH2 0x5F8 JUMPI DUP1 DUP3 ADD MLOAD DUP2 DUP5 ADD MSTORE PUSH1 0x20 DUP2 ADD SWAP1 POP PUSH2 0x5DD JUMP JUMPDEST DUP4 DUP2 GT ISZERO PUSH2 0x607 JUMPI PUSH1 0x0 DUP5 DUP5 ADD MSTORE JUMPDEST POP POP POP POP JUMP JUMPDEST PUSH1 0x0 PUSH1 0x2 DUP3 DIV SWAP1 POP PUSH1 0x1 DUP3 AND DUP1 PUSH2 0x625 JUMPI PUSH1 0x7F DUP3 AND SWAP2 POP JUMPDEST PUSH1 0x20 DUP3 LT DUP2 EQ ISZERO PUSH2 0x639 JUMPI PUSH2 0x638 PUSH2 0x670 JUMP JUMPDEST JUMPDEST POP SWAP2 SWAP1 POP JUMP JUMPDEST PUSH2 0x648 DUP3 PUSH2 0x6E2 JUMP JUMPDEST DUP2 ADD DUP2 DUP2 LT PUSH8 0xFFFFFFFFFFFFFFFF DUP3 GT OR ISZERO PUSH2 0x667 JUMPI PUSH2 0x666 PUSH2 0x69F JUMP JUMPDEST JUMPDEST DUP1 PUSH1 0x40 MSTORE POP POP POP JUMP JUMPDEST PUSH32 0x4E487B7100000000000000000000000000000000000000000000000000000000 PUSH1 0x0 MSTORE PUSH1 0x22 PUSH1 0x4 MSTORE PUSH1 0x24 PUSH1 0x0 REVERT JUMPDEST PUSH32 0x4E487B7100000000000000000000000000000000000000000000000000000000 PUSH1 0x0 MSTORE PUSH1 0x41 PUSH1 0x4 MSTORE PUSH1 0x24 PUSH1 0x0 REVERT JUMPDEST PUSH1 0x0 DUP1 REVERT JUMPDEST PUSH1 0x0 DUP1 REVERT JUMPDEST PUSH1 0x0 DUP1 REVERT JUMPDEST PUSH1 0x0 DUP1 REVERT JUMPDEST PUSH1 0x0 PUSH1 0x1F NOT PUSH1 0x1F DUP4 ADD AND SWAP1 POP SWAP2 SWAP1 POP JUMP JUMPDEST PUSH32 0x4E6F7420746865206F776E657200000000000000000000000000000000000000 PUSH1 0x0 DUP3 ADD MSTORE POP JUMP INVALID LOG2 PUSH5 0x6970667358 0x22 SLT KECCAK256 PUSH13 0x313D06016743BD5C7D7F68637B 0xD1 0xD4 DUP2 SWAP15 CREATE2 SWAP2 0x4F SWAP16 PUSH3 0xD03BD8 0xE9 BALANCE 0xEF ORIGIN 0xE9 0xB4 PUSH5 0x736F6C6343 STOP ADDMOD SMOD STOP CALLER "
				},
				"gasEstimates": {
					"creation": {
						"codeDepositCost": "374800",
						"executionCost": "infinite",
						"totalCost": "infinite"
					},
					"external": {
						"Check()": "infinite",
						"getExternal()": "infinite",
						"getPublic()": "infinite",
						"owner()": "2533"
					}
				},
				"methodIdentifiers": {
					"Check()": "2de4ca59",
					"getExternal()": "c932415b",
					"getPublic()": "2c044779",
					"owner()": "8da5cb5b"
				}
			},
			"storageLayout": {
				"storage": [
					{
						"astId": 3,
						"contract": "contracts/visibility2.sol:child",
						"label": "owner",
						"offset": 0,
						"slot": "0",
						"type": "t_address"
					},
					{
						"astId": 23,
						"contract": "contracts/visibility2.sol:child",
						"label": "publicValue",
						"offset": 0,
						"slot": "1",
						"type": "t_string_storage"
					},
					{
						"astId": 26,
						"contract": "contracts/visibility2.sol:child",
						"label": "priavteValue",
						"offset": 0,
						"slot": "2",
						"type": "t_string_storage"
					},
					{
						"astId": 29,
						"contract": "contracts/visibility2.sol:child",
						"label": "internalValue",
						"offset": 0,
						"slot": "3",
						"type": "t_string_storage"
					},
					{
						"astId": 32,
						"contract": "contracts/visibility2.sol:child",
						"label": "externalValue",
						"offset": 0,
						"slot": "4",
						"type": "t_string_storage"
					}
				],
				"types": {
					"t_address": {
						"encoding": "inplace",
						"label": "address",
						"numberOfBytes": "20"
					},
					"t_string_storage": {
						"encoding": "bytes",
						"label": "string",
						"numberOfBytes": "32"
					}
				}
			},
			"userdoc": {
				"kind": "user",
				"methods": {},
				"version": 1
			}
		}
	}
}