{
	"contracts/mappings.sol": {
		"MappingsSample": {
			"abi": [
				{
					"inputs": [],
					"stateMutability": "nonpayable",
					"type": "constructor"
				},
				{
					"inputs": [],
					"name": "getOwner",
					"outputs": [
						{
							"internalType": "address",
							"name": "",
							"type": "address"
						}
					],
					"stateMutability": "view",
					"type": "function"
				},
				{
					"inputs": [
						{
							"internalType": "address",
							"name": "",
							"type": "address"
						},
						{
							"internalType": "uint256",
							"name": "",
							"type": "uint256"
						}
					],
					"name": "names",
					"outputs": [
						{
							"internalType": "string",
							"name": "",
							"type": "string"
						}
					],
					"stateMutability": "view",
					"type": "function"
				},
				{
					"inputs": [
						{
							"internalType": "string",
							"name": "actualName",
							"type": "string"
						},
						{
							"internalType": "string",
							"name": "_color",
							"type": "string"
						},
						{
							"internalType": "string",
							"name": "_country",
							"type": "string"
						}
					],
					"name": "pushValues",
					"outputs": [],
					"stateMutability": "nonpayable",
					"type": "function"
				},
				{
					"inputs": [
						{
							"internalType": "string",
							"name": "_name",
							"type": "string"
						}
					],
					"name": "setValues",
					"outputs": [],
					"stateMutability": "nonpayable",
					"type": "function"
				},
				{
					"inputs": [
						{
							"internalType": "string",
							"name": "",
							"type": "string"
						}
					],
					"name": "traits",
					"outputs": [
						{
							"internalType": "string",
							"name": "color",
							"type": "string"
						},
						{
							"internalType": "string",
							"name": "country",
							"type": "string"
						}
					],
					"stateMutability": "view",
					"type": "function"
				}
			],
			"devdoc": {
				"kind": "dev",
				"methods": {},
				"version": 1
			},
			"evm": {
				"assembly": "    /* \"contracts/mappings.sol\":64:1323  contract MappingsSample{\r... */\n  mstore(0x40, 0x80)\n    /* \"contracts/mappings.sol\":273:308  constructor() public{     \r... */\n  callvalue\n  dup1\n  iszero\n  tag_1\n  jumpi\n  0x00\n  dup1\n  revert\ntag_1:\n  pop\n    /* \"contracts/mappings.sol\":64:1323  contract MappingsSample{\r... */\n  dataSize(sub_0)\n  dup1\n  dataOffset(sub_0)\n  0x00\n  codecopy\n  0x00\n  return\nstop\n\nsub_0: assembly {\n        /* \"contracts/mappings.sol\":64:1323  contract MappingsSample{\r... */\n      mstore(0x40, 0x80)\n      callvalue\n      dup1\n      iszero\n      tag_1\n      jumpi\n      0x00\n      dup1\n      revert\n    tag_1:\n      pop\n      jumpi(tag_2, lt(calldatasize, 0x04))\n      shr(0xe0, calldataload(0x00))\n      dup1\n      0x12cee9a3\n      eq\n      tag_3\n      jumpi\n      dup1\n      0x420069b3\n      eq\n      tag_4\n      jumpi\n      dup1\n      0x893d20e8\n      eq\n      tag_5\n      jumpi\n      dup1\n      0xa5f21827\n      eq\n      tag_6\n      jumpi\n      dup1\n      0xb914d7ab\n      eq\n      tag_7\n      jumpi\n    tag_2:\n      0x00\n      dup1\n      revert\n        /* \"contracts/mappings.sol\":1145:1318  function\r... */\n    tag_3:\n      tag_8\n      0x04\n      dup1\n      calldatasize\n      sub\n      dup2\n      add\n      swap1\n      tag_9\n      swap2\n      swap1\n      tag_10\n      jump\t// in\n    tag_9:\n      tag_11\n      jump\t// in\n    tag_8:\n      stop\n        /* \"contracts/mappings.sol\":533:668  function setValues (string memory _name)\r... */\n    tag_4:\n      tag_12\n      0x04\n      dup1\n      calldatasize\n      sub\n      dup2\n      add\n      swap1\n      tag_13\n      swap2\n      swap1\n      tag_14\n      jump\t// in\n    tag_13:\n      tag_15\n      jump\t// in\n    tag_12:\n      stop\n        /* \"contracts/mappings.sol\":739:843  function getOwner()\r... */\n    tag_5:\n      tag_16\n      tag_17\n      jump\t// in\n    tag_16:\n      mload(0x40)\n      tag_18\n      swap2\n      swap1\n      tag_19\n      jump\t// in\n    tag_18:\n      mload(0x40)\n      dup1\n      swap2\n      sub\n      swap1\n      return\n        /* \"contracts/mappings.sol\":1096:1135  mapping(string => Traits) public traits */\n    tag_6:\n      tag_20\n      0x04\n      dup1\n      calldatasize\n      sub\n      dup2\n      add\n      swap1\n      tag_21\n      swap2\n      swap1\n      tag_14\n      jump\t// in\n    tag_21:\n      tag_22\n      jump\t// in\n    tag_20:\n      mload(0x40)\n      tag_23\n      swap3\n      swap2\n      swap1\n      tag_24\n      jump\t// in\n    tag_23:\n      mload(0x40)\n      dup1\n      swap2\n      sub\n      swap1\n      return\n        /* \"contracts/mappings.sol\":223:264  mapping(address => string[]) public names */\n    tag_7:\n      tag_25\n      0x04\n      dup1\n      calldatasize\n      sub\n      dup2\n      add\n      swap1\n      tag_26\n      swap2\n      swap1\n      tag_27\n      jump\t// in\n    tag_26:\n      tag_28\n      jump\t// in\n    tag_25:\n      mload(0x40)\n      tag_29\n      swap2\n      swap1\n      tag_30\n      jump\t// in\n    tag_29:\n      mload(0x40)\n      dup1\n      swap2\n      sub\n      swap1\n      return\n        /* \"contracts/mappings.sol\":1145:1318  function\r... */\n    tag_11:\n        /* \"contracts/mappings.sol\":1286:1309  Traits(_color,_country) */\n      mload(0x40)\n      dup1\n      0x40\n      add\n      0x40\n      mstore\n      dup1\n        /* \"contracts/mappings.sol\":1293:1299  _color */\n      dup4\n        /* \"contracts/mappings.sol\":1286:1309  Traits(_color,_country) */\n      dup2\n      mstore\n      0x20\n      add\n        /* \"contracts/mappings.sol\":1300:1308  _country */\n      dup3\n        /* \"contracts/mappings.sol\":1286:1309  Traits(_color,_country) */\n      dup2\n      mstore\n      pop\n        /* \"contracts/mappings.sol\":1265:1271  traits */\n      0x01\n        /* \"contracts/mappings.sol\":1272:1282  actualName */\n      dup5\n        /* \"contracts/mappings.sol\":1265:1283  traits[actualName] */\n      mload(0x40)\n      tag_32\n      swap2\n      swap1\n      tag_33\n      jump\t// in\n    tag_32:\n      swap1\n      dup2\n      mstore\n      0x20\n      add\n      mload(0x40)\n      dup1\n      swap2\n      sub\n      swap1\n      keccak256\n        /* \"contracts/mappings.sol\":1265:1309  traits[actualName] = Traits(_color,_country) */\n      0x00\n      dup3\n      add\n      mload\n      dup2\n      0x00\n      add\n      swap1\n      dup1\n      mload\n      swap1\n      0x20\n      add\n      swap1\n      tag_34\n      swap3\n      swap2\n      swap1\n      tag_35\n      jump\t// in\n    tag_34:\n      pop\n      0x20\n      dup3\n      add\n      mload\n      dup2\n      0x01\n      add\n      swap1\n      dup1\n      mload\n      swap1\n      0x20\n      add\n      swap1\n      tag_36\n      swap3\n      swap2\n      swap1\n      tag_35\n      jump\t// in\n    tag_36:\n      pop\n      swap1\n      pop\n      pop\n        /* \"contracts/mappings.sol\":1145:1318  function\r... */\n      pop\n      pop\n      pop\n      jump\t// out\n        /* \"contracts/mappings.sol\":533:668  function setValues (string memory _name)\r... */\n    tag_15:\n        /* \"contracts/mappings.sol\":598:603  names */\n      0x00\n        /* \"contracts/mappings.sol\":598:647  names[0xAb8483F64d9C6d1EcF9b849Ae677dD3315835cb2] */\n      dup1\n        /* \"contracts/mappings.sol\":604:646  0xAb8483F64d9C6d1EcF9b849Ae677dD3315835cb2 */\n      0xab8483f64d9c6d1ecf9b849ae677dd3315835cb2\n        /* \"contracts/mappings.sol\":598:647  names[0xAb8483F64d9C6d1EcF9b849Ae677dD3315835cb2] */\n      0xffffffffffffffffffffffffffffffffffffffff\n      and\n      0xffffffffffffffffffffffffffffffffffffffff\n      and\n      dup2\n      mstore\n      0x20\n      add\n      swap1\n      dup2\n      mstore\n      0x20\n      add\n      0x00\n      keccak256\n        /* \"contracts/mappings.sol\":653:658  _name */\n      dup2\n        /* \"contracts/mappings.sol\":598:659  names[0xAb8483F64d9C6d1EcF9b849Ae677dD3315835cb2].push(_name) */\n      swap1\n      dup1\n      0x01\n      dup2\n      sload\n      add\n      dup1\n      dup3\n      sstore\n      dup1\n      swap2\n      pop\n      pop\n      0x01\n      swap1\n      sub\n      swap1\n      0x00\n      mstore\n      keccak256(0x00, 0x20)\n      add\n      0x00\n      swap1\n      swap2\n      swap1\n      swap2\n      swap1\n      swap2\n      pop\n      swap1\n      dup1\n      mload\n      swap1\n      0x20\n      add\n      swap1\n      tag_39\n      swap3\n      swap2\n      swap1\n      tag_35\n      jump\t// in\n    tag_39:\n      pop\n        /* \"contracts/mappings.sol\":533:668  function setValues (string memory _name)\r... */\n      pop\n      jump\t// out\n        /* \"contracts/mappings.sol\":739:843  function getOwner()\r... */\n    tag_17:\n        /* \"contracts/mappings.sol\":797:804  address */\n      0x00\n        /* \"contracts/mappings.sol\":824:834  msg.sender */\n      caller\n        /* \"contracts/mappings.sol\":817:834  return msg.sender */\n      swap1\n      pop\n        /* \"contracts/mappings.sol\":739:843  function getOwner()\r... */\n      swap1\n      jump\t// out\n        /* \"contracts/mappings.sol\":1096:1135  mapping(string => Traits) public traits */\n    tag_22:\n      0x01\n      dup2\n      dup1\n      mload\n      0x20\n      dup2\n      add\n      dup3\n      add\n      dup1\n      mload\n      dup5\n      dup3\n      mstore\n      0x20\n      dup4\n      add\n      0x20\n      dup6\n      add\n      keccak256\n      dup2\n      dup4\n      mstore\n      dup1\n      swap6\n      pop\n      pop\n      pop\n      pop\n      pop\n      pop\n      0x00\n      swap2\n      pop\n      swap1\n      pop\n      dup1\n      0x00\n      add\n      dup1\n      sload\n      tag_41\n      swap1\n      tag_42\n      jump\t// in\n    tag_41:\n      dup1\n      0x1f\n      add\n      0x20\n      dup1\n      swap2\n      div\n      mul\n      0x20\n      add\n      mload(0x40)\n      swap1\n      dup2\n      add\n      0x40\n      mstore\n      dup1\n      swap3\n      swap2\n      swap1\n      dup2\n      dup2\n      mstore\n      0x20\n      add\n      dup3\n      dup1\n      sload\n      tag_43\n      swap1\n      tag_42\n      jump\t// in\n    tag_43:\n      dup1\n      iszero\n      tag_44\n      jumpi\n      dup1\n      0x1f\n      lt\n      tag_45\n      jumpi\n      0x0100\n      dup1\n      dup4\n      sload\n      div\n      mul\n      dup4\n      mstore\n      swap2\n      0x20\n      add\n      swap2\n      jump(tag_44)\n    tag_45:\n      dup3\n      add\n      swap2\n      swap1\n      0x00\n      mstore\n      keccak256(0x00, 0x20)\n      swap1\n    tag_46:\n      dup2\n      sload\n      dup2\n      mstore\n      swap1\n      0x01\n      add\n      swap1\n      0x20\n      add\n      dup1\n      dup4\n      gt\n      tag_46\n      jumpi\n      dup3\n      swap1\n      sub\n      0x1f\n      and\n      dup3\n      add\n      swap2\n    tag_44:\n      pop\n      pop\n      pop\n      pop\n      pop\n      swap1\n      dup1\n      0x01\n      add\n      dup1\n      sload\n      tag_47\n      swap1\n      tag_42\n      jump\t// in\n    tag_47:\n      dup1\n      0x1f\n      add\n      0x20\n      dup1\n      swap2\n      div\n      mul\n      0x20\n      add\n      mload(0x40)\n      swap1\n      dup2\n      add\n      0x40\n      mstore\n      dup1\n      swap3\n      swap2\n      swap1\n      dup2\n      dup2\n      mstore\n      0x20\n      add\n      dup3\n      dup1\n      sload\n      tag_48\n      swap1\n      tag_42\n      jump\t// in\n    tag_48:\n      dup1\n      iszero\n      tag_49\n      jumpi\n      dup1\n      0x1f\n      lt\n      tag_50\n      jumpi\n      0x0100\n      dup1\n      dup4\n      sload\n      div\n      mul\n      dup4\n      mstore\n      swap2\n      0x20\n      add\n      swap2\n      jump(tag_49)\n    tag_50:\n      dup3\n      add\n      swap2\n      swap1\n      0x00\n      mstore\n      keccak256(0x00, 0x20)\n      swap1\n    tag_51:\n      dup2\n      sload\n      dup2\n      mstore\n      swap1\n      0x01\n      add\n      swap1\n      0x20\n      add\n      dup1\n      dup4\n      gt\n      tag_51\n      jumpi\n      dup3\n      swap1\n      sub\n      0x1f\n      and\n      dup3\n      add\n      swap2\n    tag_49:\n      pop\n      pop\n      pop\n      pop\n      pop\n      swap1\n      pop\n      dup3\n      jump\t// out\n        /* \"contracts/mappings.sol\":223:264  mapping(address => string[]) public names */\n    tag_28:\n      mstore(0x20, 0x00)\n      dup2\n      0x00\n      mstore\n      keccak256(0x00, 0x40)\n      dup2\n      dup2\n      sload\n      dup2\n      lt\n      tag_52\n      jumpi\n      0x00\n      dup1\n      revert\n    tag_52:\n      swap1\n      0x00\n      mstore\n      keccak256(0x00, 0x20)\n      add\n      0x00\n      swap2\n      pop\n      swap2\n      pop\n      pop\n      dup1\n      sload\n      tag_54\n      swap1\n      tag_42\n      jump\t// in\n    tag_54:\n      dup1\n      0x1f\n      add\n      0x20\n      dup1\n      swap2\n      div\n      mul\n      0x20\n      add\n      mload(0x40)\n      swap1\n      dup2\n      add\n      0x40\n      mstore\n      dup1\n      swap3\n      swap2\n      swap1\n      dup2\n      dup2\n      mstore\n      0x20\n      add\n      dup3\n      dup1\n      sload\n      tag_55\n      swap1\n      tag_42\n      jump\t// in\n    tag_55:\n      dup1\n      iszero\n      tag_56\n      jumpi\n      dup1\n      0x1f\n      lt\n      tag_57\n      jumpi\n      0x0100\n      dup1\n      dup4\n      sload\n      div\n      mul\n      dup4\n      mstore\n      swap2\n      0x20\n      add\n      swap2\n      jump(tag_56)\n    tag_57:\n      dup3\n      add\n      swap2\n      swap1\n      0x00\n      mstore\n      keccak256(0x00, 0x20)\n      swap1\n    tag_58:\n      dup2\n      sload\n      dup2\n      mstore\n      swap1\n      0x01\n      add\n      swap1\n      0x20\n      add\n      dup1\n      dup4\n      gt\n      tag_58\n      jumpi\n      dup3\n      swap1\n      sub\n      0x1f\n      and\n      dup3\n      add\n      swap2\n    tag_56:\n      pop\n      pop\n      pop\n      pop\n      pop\n      dup2\n      jump\t// out\n    tag_35:\n      dup3\n      dup1\n      sload\n      tag_59\n      swap1\n      tag_42\n      jump\t// in\n    tag_59:\n      swap1\n      0x00\n      mstore\n      keccak256(0x00, 0x20)\n      swap1\n      0x1f\n      add\n      0x20\n      swap1\n      div\n      dup2\n      add\n      swap3\n      dup3\n      tag_61\n      jumpi\n      0x00\n      dup6\n      sstore\n      jump(tag_60)\n    tag_61:\n      dup3\n      0x1f\n      lt\n      tag_62\n      jumpi\n      dup1\n      mload\n      not(0xff)\n      and\n      dup4\n      dup1\n      add\n      or\n      dup6\n      sstore\n      jump(tag_60)\n    tag_62:\n      dup3\n      dup1\n      add\n      0x01\n      add\n      dup6\n      sstore\n      dup3\n      iszero\n      tag_60\n      jumpi\n      swap2\n      dup3\n      add\n    tag_63:\n      dup3\n      dup2\n      gt\n      iszero\n      tag_64\n      jumpi\n      dup3\n      mload\n      dup3\n      sstore\n      swap2\n      0x20\n      add\n      swap2\n      swap1\n      0x01\n      add\n      swap1\n      jump(tag_63)\n    tag_64:\n    tag_60:\n      pop\n      swap1\n      pop\n      tag_65\n      swap2\n      swap1\n      tag_66\n      jump\t// in\n    tag_65:\n      pop\n      swap1\n      jump\t// out\n    tag_66:\n    tag_67:\n      dup1\n      dup3\n      gt\n      iszero\n      tag_68\n      jumpi\n      0x00\n      dup2\n      0x00\n      swap1\n      sstore\n      pop\n      0x01\n      add\n      jump(tag_67)\n    tag_68:\n      pop\n      swap1\n      jump\t// out\n        /* \"#utility.yul\":7:419   */\n    tag_70:\n        /* \"#utility.yul\":85:90   */\n      0x00\n        /* \"#utility.yul\":110:176   */\n      tag_72\n        /* \"#utility.yul\":126:175   */\n      tag_73\n        /* \"#utility.yul\":168:174   */\n      dup5\n        /* \"#utility.yul\":126:175   */\n      tag_74\n      jump\t// in\n    tag_73:\n        /* \"#utility.yul\":110:176   */\n      tag_75\n      jump\t// in\n    tag_72:\n        /* \"#utility.yul\":101:176   */\n      swap1\n      pop\n        /* \"#utility.yul\":199:205   */\n      dup3\n        /* \"#utility.yul\":192:197   */\n      dup2\n        /* \"#utility.yul\":185:206   */\n      mstore\n        /* \"#utility.yul\":237:241   */\n      0x20\n        /* \"#utility.yul\":230:235   */\n      dup2\n        /* \"#utility.yul\":226:242   */\n      add\n        /* \"#utility.yul\":275:278   */\n      dup5\n        /* \"#utility.yul\":266:272   */\n      dup5\n        /* \"#utility.yul\":261:264   */\n      dup5\n        /* \"#utility.yul\":257:273   */\n      add\n        /* \"#utility.yul\":254:279   */\n      gt\n        /* \"#utility.yul\":251:363   */\n      iszero\n      tag_76\n      jumpi\n        /* \"#utility.yul\":282:361   */\n      tag_77\n      tag_78\n      jump\t// in\n    tag_77:\n        /* \"#utility.yul\":251:363   */\n    tag_76:\n        /* \"#utility.yul\":372:413   */\n      tag_79\n        /* \"#utility.yul\":406:412   */\n      dup5\n        /* \"#utility.yul\":401:404   */\n      dup3\n        /* \"#utility.yul\":396:399   */\n      dup6\n        /* \"#utility.yul\":372:413   */\n      tag_80\n      jump\t// in\n    tag_79:\n        /* \"#utility.yul\":91:419   */\n      pop\n        /* \"#utility.yul\":7:419   */\n      swap4\n      swap3\n      pop\n      pop\n      pop\n      jump\t// out\n        /* \"#utility.yul\":425:564   */\n    tag_81:\n        /* \"#utility.yul\":471:476   */\n      0x00\n        /* \"#utility.yul\":509:515   */\n      dup2\n        /* \"#utility.yul\":496:516   */\n      calldataload\n        /* \"#utility.yul\":487:516   */\n      swap1\n      pop\n        /* \"#utility.yul\":525:558   */\n      tag_83\n        /* \"#utility.yul\":552:557   */\n      dup2\n        /* \"#utility.yul\":525:558   */\n      tag_84\n      jump\t// in\n    tag_83:\n        /* \"#utility.yul\":425:564   */\n      swap3\n      swap2\n      pop\n      pop\n      jump\t// out\n        /* \"#utility.yul\":584:924   */\n    tag_85:\n        /* \"#utility.yul\":640:645   */\n      0x00\n        /* \"#utility.yul\":689:692   */\n      dup3\n        /* \"#utility.yul\":682:686   */\n      0x1f\n        /* \"#utility.yul\":674:680   */\n      dup4\n        /* \"#utility.yul\":670:687   */\n      add\n        /* \"#utility.yul\":666:693   */\n      slt\n        /* \"#utility.yul\":656:778   */\n      tag_87\n      jumpi\n        /* \"#utility.yul\":697:776   */\n      tag_88\n      tag_89\n      jump\t// in\n    tag_88:\n        /* \"#utility.yul\":656:778   */\n    tag_87:\n        /* \"#utility.yul\":814:820   */\n      dup2\n        /* \"#utility.yul\":801:821   */\n      calldataload\n        /* \"#utility.yul\":839:918   */\n      tag_90\n        /* \"#utility.yul\":914:917   */\n      dup5\n        /* \"#utility.yul\":906:912   */\n      dup3\n        /* \"#utility.yul\":899:903   */\n      0x20\n        /* \"#utility.yul\":891:897   */\n      dup7\n        /* \"#utility.yul\":887:904   */\n      add\n        /* \"#utility.yul\":839:918   */\n      tag_70\n      jump\t// in\n    tag_90:\n        /* \"#utility.yul\":830:918   */\n      swap2\n      pop\n        /* \"#utility.yul\":646:924   */\n      pop\n        /* \"#utility.yul\":584:924   */\n      swap3\n      swap2\n      pop\n      pop\n      jump\t// out\n        /* \"#utility.yul\":930:1069   */\n    tag_91:\n        /* \"#utility.yul\":976:981   */\n      0x00\n        /* \"#utility.yul\":1014:1020   */\n      dup2\n        /* \"#utility.yul\":1001:1021   */\n      calldataload\n        /* \"#utility.yul\":992:1021   */\n      swap1\n      pop\n        /* \"#utility.yul\":1030:1063   */\n      tag_93\n        /* \"#utility.yul\":1057:1062   */\n      dup2\n        /* \"#utility.yul\":1030:1063   */\n      tag_94\n      jump\t// in\n    tag_93:\n        /* \"#utility.yul\":930:1069   */\n      swap3\n      swap2\n      pop\n      pop\n      jump\t// out\n        /* \"#utility.yul\":1075:1549   */\n    tag_27:\n        /* \"#utility.yul\":1143:1149   */\n      0x00\n        /* \"#utility.yul\":1151:1157   */\n      dup1\n        /* \"#utility.yul\":1200:1202   */\n      0x40\n        /* \"#utility.yul\":1188:1197   */\n      dup4\n        /* \"#utility.yul\":1179:1186   */\n      dup6\n        /* \"#utility.yul\":1175:1198   */\n      sub\n        /* \"#utility.yul\":1171:1203   */\n      slt\n        /* \"#utility.yul\":1168:1287   */\n      iszero\n      tag_96\n      jumpi\n        /* \"#utility.yul\":1206:1285   */\n      tag_97\n      tag_98\n      jump\t// in\n    tag_97:\n        /* \"#utility.yul\":1168:1287   */\n    tag_96:\n        /* \"#utility.yul\":1326:1327   */\n      0x00\n        /* \"#utility.yul\":1351:1404   */\n      tag_99\n        /* \"#utility.yul\":1396:1403   */\n      dup6\n        /* \"#utility.yul\":1387:1393   */\n      dup3\n        /* \"#utility.yul\":1376:1385   */\n      dup7\n        /* \"#utility.yul\":1372:1394   */\n      add\n        /* \"#utility.yul\":1351:1404   */\n      tag_81\n      jump\t// in\n    tag_99:\n        /* \"#utility.yul\":1341:1404   */\n      swap3\n      pop\n        /* \"#utility.yul\":1297:1414   */\n      pop\n        /* \"#utility.yul\":1453:1455   */\n      0x20\n        /* \"#utility.yul\":1479:1532   */\n      tag_100\n        /* \"#utility.yul\":1524:1531   */\n      dup6\n        /* \"#utility.yul\":1515:1521   */\n      dup3\n        /* \"#utility.yul\":1504:1513   */\n      dup7\n        /* \"#utility.yul\":1500:1522   */\n      add\n        /* \"#utility.yul\":1479:1532   */\n      tag_91\n      jump\t// in\n    tag_100:\n        /* \"#utility.yul\":1469:1532   */\n      swap2\n      pop\n        /* \"#utility.yul\":1424:1542   */\n      pop\n        /* \"#utility.yul\":1075:1549   */\n      swap3\n      pop\n      swap3\n      swap1\n      pop\n      jump\t// out\n        /* \"#utility.yul\":1555:2064   */\n    tag_14:\n        /* \"#utility.yul\":1624:1630   */\n      0x00\n        /* \"#utility.yul\":1673:1675   */\n      0x20\n        /* \"#utility.yul\":1661:1670   */\n      dup3\n        /* \"#utility.yul\":1652:1659   */\n      dup5\n        /* \"#utility.yul\":1648:1671   */\n      sub\n        /* \"#utility.yul\":1644:1676   */\n      slt\n        /* \"#utility.yul\":1641:1760   */\n      iszero\n      tag_102\n      jumpi\n        /* \"#utility.yul\":1679:1758   */\n      tag_103\n      tag_98\n      jump\t// in\n    tag_103:\n        /* \"#utility.yul\":1641:1760   */\n    tag_102:\n        /* \"#utility.yul\":1827:1828   */\n      0x00\n        /* \"#utility.yul\":1816:1825   */\n      dup3\n        /* \"#utility.yul\":1812:1829   */\n      add\n        /* \"#utility.yul\":1799:1830   */\n      calldataload\n        /* \"#utility.yul\":1857:1875   */\n      0xffffffffffffffff\n        /* \"#utility.yul\":1849:1855   */\n      dup2\n        /* \"#utility.yul\":1846:1876   */\n      gt\n        /* \"#utility.yul\":1843:1960   */\n      iszero\n      tag_104\n      jumpi\n        /* \"#utility.yul\":1879:1958   */\n      tag_105\n      tag_106\n      jump\t// in\n    tag_105:\n        /* \"#utility.yul\":1843:1960   */\n    tag_104:\n        /* \"#utility.yul\":1984:2047   */\n      tag_107\n        /* \"#utility.yul\":2039:2046   */\n      dup5\n        /* \"#utility.yul\":2030:2036   */\n      dup3\n        /* \"#utility.yul\":2019:2028   */\n      dup6\n        /* \"#utility.yul\":2015:2037   */\n      add\n        /* \"#utility.yul\":1984:2047   */\n      tag_85\n      jump\t// in\n    tag_107:\n        /* \"#utility.yul\":1974:2047   */\n      swap2\n      pop\n        /* \"#utility.yul\":1770:2057   */\n      pop\n        /* \"#utility.yul\":1555:2064   */\n      swap3\n      swap2\n      pop\n      pop\n      jump\t// out\n        /* \"#utility.yul\":2070:3229   */\n    tag_10:\n        /* \"#utility.yul\":2177:2183   */\n      0x00\n        /* \"#utility.yul\":2185:2191   */\n      dup1\n        /* \"#utility.yul\":2193:2199   */\n      0x00\n        /* \"#utility.yul\":2242:2244   */\n      0x60\n        /* \"#utility.yul\":2230:2239   */\n      dup5\n        /* \"#utility.yul\":2221:2228   */\n      dup7\n        /* \"#utility.yul\":2217:2240   */\n      sub\n        /* \"#utility.yul\":2213:2245   */\n      slt\n        /* \"#utility.yul\":2210:2329   */\n      iszero\n      tag_109\n      jumpi\n        /* \"#utility.yul\":2248:2327   */\n      tag_110\n      tag_98\n      jump\t// in\n    tag_110:\n        /* \"#utility.yul\":2210:2329   */\n    tag_109:\n        /* \"#utility.yul\":2396:2397   */\n      0x00\n        /* \"#utility.yul\":2385:2394   */\n      dup5\n        /* \"#utility.yul\":2381:2398   */\n      add\n        /* \"#utility.yul\":2368:2399   */\n      calldataload\n        /* \"#utility.yul\":2426:2444   */\n      0xffffffffffffffff\n        /* \"#utility.yul\":2418:2424   */\n      dup2\n        /* \"#utility.yul\":2415:2445   */\n      gt\n        /* \"#utility.yul\":2412:2529   */\n      iszero\n      tag_111\n      jumpi\n        /* \"#utility.yul\":2448:2527   */\n      tag_112\n      tag_106\n      jump\t// in\n    tag_112:\n        /* \"#utility.yul\":2412:2529   */\n    tag_111:\n        /* \"#utility.yul\":2553:2616   */\n      tag_113\n        /* \"#utility.yul\":2608:2615   */\n      dup7\n        /* \"#utility.yul\":2599:2605   */\n      dup3\n        /* \"#utility.yul\":2588:2597   */\n      dup8\n        /* \"#utility.yul\":2584:2606   */\n      add\n        /* \"#utility.yul\":2553:2616   */\n      tag_85\n      jump\t// in\n    tag_113:\n        /* \"#utility.yul\":2543:2616   */\n      swap4\n      pop\n        /* \"#utility.yul\":2339:2626   */\n      pop\n        /* \"#utility.yul\":2693:2695   */\n      0x20\n        /* \"#utility.yul\":2682:2691   */\n      dup5\n        /* \"#utility.yul\":2678:2696   */\n      add\n        /* \"#utility.yul\":2665:2697   */\n      calldataload\n        /* \"#utility.yul\":2724:2742   */\n      0xffffffffffffffff\n        /* \"#utility.yul\":2716:2722   */\n      dup2\n        /* \"#utility.yul\":2713:2743   */\n      gt\n        /* \"#utility.yul\":2710:2827   */\n      iszero\n      tag_114\n      jumpi\n        /* \"#utility.yul\":2746:2825   */\n      tag_115\n      tag_106\n      jump\t// in\n    tag_115:\n        /* \"#utility.yul\":2710:2827   */\n    tag_114:\n        /* \"#utility.yul\":2851:2914   */\n      tag_116\n        /* \"#utility.yul\":2906:2913   */\n      dup7\n        /* \"#utility.yul\":2897:2903   */\n      dup3\n        /* \"#utility.yul\":2886:2895   */\n      dup8\n        /* \"#utility.yul\":2882:2904   */\n      add\n        /* \"#utility.yul\":2851:2914   */\n      tag_85\n      jump\t// in\n    tag_116:\n        /* \"#utility.yul\":2841:2914   */\n      swap3\n      pop\n        /* \"#utility.yul\":2636:2924   */\n      pop\n        /* \"#utility.yul\":2991:2993   */\n      0x40\n        /* \"#utility.yul\":2980:2989   */\n      dup5\n        /* \"#utility.yul\":2976:2994   */\n      add\n        /* \"#utility.yul\":2963:2995   */\n      calldataload\n        /* \"#utility.yul\":3022:3040   */\n      0xffffffffffffffff\n        /* \"#utility.yul\":3014:3020   */\n      dup2\n        /* \"#utility.yul\":3011:3041   */\n      gt\n        /* \"#utility.yul\":3008:3125   */\n      iszero\n      tag_117\n      jumpi\n        /* \"#utility.yul\":3044:3123   */\n      tag_118\n      tag_106\n      jump\t// in\n    tag_118:\n        /* \"#utility.yul\":3008:3125   */\n    tag_117:\n        /* \"#utility.yul\":3149:3212   */\n      tag_119\n        /* \"#utility.yul\":3204:3211   */\n      dup7\n        /* \"#utility.yul\":3195:3201   */\n      dup3\n        /* \"#utility.yul\":3184:3193   */\n      dup8\n        /* \"#utility.yul\":3180:3202   */\n      add\n        /* \"#utility.yul\":3149:3212   */\n      tag_85\n      jump\t// in\n    tag_119:\n        /* \"#utility.yul\":3139:3212   */\n      swap2\n      pop\n        /* \"#utility.yul\":2934:3222   */\n      pop\n        /* \"#utility.yul\":2070:3229   */\n      swap3\n      pop\n      swap3\n      pop\n      swap3\n      jump\t// out\n        /* \"#utility.yul\":3235:3353   */\n    tag_120:\n        /* \"#utility.yul\":3322:3346   */\n      tag_122\n        /* \"#utility.yul\":3340:3345   */\n      dup2\n        /* \"#utility.yul\":3322:3346   */\n      tag_123\n      jump\t// in\n    tag_122:\n        /* \"#utility.yul\":3317:3320   */\n      dup3\n        /* \"#utility.yul\":3310:3347   */\n      mstore\n        /* \"#utility.yul\":3235:3353   */\n      pop\n      pop\n      jump\t// out\n        /* \"#utility.yul\":3359:3723   */\n    tag_124:\n        /* \"#utility.yul\":3447:3450   */\n      0x00\n        /* \"#utility.yul\":3475:3514   */\n      tag_126\n        /* \"#utility.yul\":3508:3513   */\n      dup3\n        /* \"#utility.yul\":3475:3514   */\n      tag_127\n      jump\t// in\n    tag_126:\n        /* \"#utility.yul\":3530:3601   */\n      tag_128\n        /* \"#utility.yul\":3594:3600   */\n      dup2\n        /* \"#utility.yul\":3589:3592   */\n      dup6\n        /* \"#utility.yul\":3530:3601   */\n      tag_129\n      jump\t// in\n    tag_128:\n        /* \"#utility.yul\":3523:3601   */\n      swap4\n      pop\n        /* \"#utility.yul\":3610:3662   */\n      tag_130\n        /* \"#utility.yul\":3655:3661   */\n      dup2\n        /* \"#utility.yul\":3650:3653   */\n      dup6\n        /* \"#utility.yul\":3643:3647   */\n      0x20\n        /* \"#utility.yul\":3636:3641   */\n      dup7\n        /* \"#utility.yul\":3632:3648   */\n      add\n        /* \"#utility.yul\":3610:3662   */\n      tag_131\n      jump\t// in\n    tag_130:\n        /* \"#utility.yul\":3687:3716   */\n      tag_132\n        /* \"#utility.yul\":3709:3715   */\n      dup2\n        /* \"#utility.yul\":3687:3716   */\n      tag_133\n      jump\t// in\n    tag_132:\n        /* \"#utility.yul\":3682:3685   */\n      dup5\n        /* \"#utility.yul\":3678:3717   */\n      add\n        /* \"#utility.yul\":3671:3717   */\n      swap2\n      pop\n        /* \"#utility.yul\":3451:3723   */\n      pop\n        /* \"#utility.yul\":3359:3723   */\n      swap3\n      swap2\n      pop\n      pop\n      jump\t// out\n        /* \"#utility.yul\":3729:4106   */\n    tag_134:\n        /* \"#utility.yul\":3835:3838   */\n      0x00\n        /* \"#utility.yul\":3863:3902   */\n      tag_136\n        /* \"#utility.yul\":3896:3901   */\n      dup3\n        /* \"#utility.yul\":3863:3902   */\n      tag_127\n      jump\t// in\n    tag_136:\n        /* \"#utility.yul\":3918:4007   */\n      tag_137\n        /* \"#utility.yul\":4000:4006   */\n      dup2\n        /* \"#utility.yul\":3995:3998   */\n      dup6\n        /* \"#utility.yul\":3918:4007   */\n      tag_138\n      jump\t// in\n    tag_137:\n        /* \"#utility.yul\":3911:4007   */\n      swap4\n      pop\n        /* \"#utility.yul\":4016:4068   */\n      tag_139\n        /* \"#utility.yul\":4061:4067   */\n      dup2\n        /* \"#utility.yul\":4056:4059   */\n      dup6\n        /* \"#utility.yul\":4049:4053   */\n      0x20\n        /* \"#utility.yul\":4042:4047   */\n      dup7\n        /* \"#utility.yul\":4038:4054   */\n      add\n        /* \"#utility.yul\":4016:4068   */\n      tag_131\n      jump\t// in\n    tag_139:\n        /* \"#utility.yul\":4093:4099   */\n      dup1\n        /* \"#utility.yul\":4088:4091   */\n      dup5\n        /* \"#utility.yul\":4084:4100   */\n      add\n        /* \"#utility.yul\":4077:4100   */\n      swap2\n      pop\n        /* \"#utility.yul\":3839:4106   */\n      pop\n        /* \"#utility.yul\":3729:4106   */\n      swap3\n      swap2\n      pop\n      pop\n      jump\t// out\n        /* \"#utility.yul\":4112:4387   */\n    tag_33:\n        /* \"#utility.yul\":4244:4247   */\n      0x00\n        /* \"#utility.yul\":4266:4361   */\n      tag_141\n        /* \"#utility.yul\":4357:4360   */\n      dup3\n        /* \"#utility.yul\":4348:4354   */\n      dup5\n        /* \"#utility.yul\":4266:4361   */\n      tag_134\n      jump\t// in\n    tag_141:\n        /* \"#utility.yul\":4259:4361   */\n      swap2\n      pop\n        /* \"#utility.yul\":4378:4381   */\n      dup2\n        /* \"#utility.yul\":4371:4381   */\n      swap1\n      pop\n        /* \"#utility.yul\":4112:4387   */\n      swap3\n      swap2\n      pop\n      pop\n      jump\t// out\n        /* \"#utility.yul\":4393:4615   */\n    tag_19:\n        /* \"#utility.yul\":4486:4490   */\n      0x00\n        /* \"#utility.yul\":4524:4526   */\n      0x20\n        /* \"#utility.yul\":4513:4522   */\n      dup3\n        /* \"#utility.yul\":4509:4527   */\n      add\n        /* \"#utility.yul\":4501:4527   */\n      swap1\n      pop\n        /* \"#utility.yul\":4537:4608   */\n      tag_143\n        /* \"#utility.yul\":4605:4606   */\n      0x00\n        /* \"#utility.yul\":4594:4603   */\n      dup4\n        /* \"#utility.yul\":4590:4607   */\n      add\n        /* \"#utility.yul\":4581:4587   */\n      dup5\n        /* \"#utility.yul\":4537:4608   */\n      tag_120\n      jump\t// in\n    tag_143:\n        /* \"#utility.yul\":4393:4615   */\n      swap3\n      swap2\n      pop\n      pop\n      jump\t// out\n        /* \"#utility.yul\":4621:4934   */\n    tag_30:\n        /* \"#utility.yul\":4734:4738   */\n      0x00\n        /* \"#utility.yul\":4772:4774   */\n      0x20\n        /* \"#utility.yul\":4761:4770   */\n      dup3\n        /* \"#utility.yul\":4757:4775   */\n      add\n        /* \"#utility.yul\":4749:4775   */\n      swap1\n      pop\n        /* \"#utility.yul\":4821:4830   */\n      dup2\n        /* \"#utility.yul\":4815:4819   */\n      dup2\n        /* \"#utility.yul\":4811:4831   */\n      sub\n        /* \"#utility.yul\":4807:4808   */\n      0x00\n        /* \"#utility.yul\":4796:4805   */\n      dup4\n        /* \"#utility.yul\":4792:4809   */\n      add\n        /* \"#utility.yul\":4785:4832   */\n      mstore\n        /* \"#utility.yul\":4849:4927   */\n      tag_145\n        /* \"#utility.yul\":4922:4926   */\n      dup2\n        /* \"#utility.yul\":4913:4919   */\n      dup5\n        /* \"#utility.yul\":4849:4927   */\n      tag_124\n      jump\t// in\n    tag_145:\n        /* \"#utility.yul\":4841:4927   */\n      swap1\n      pop\n        /* \"#utility.yul\":4621:4934   */\n      swap3\n      swap2\n      pop\n      pop\n      jump\t// out\n        /* \"#utility.yul\":4940:5454   */\n    tag_24:\n        /* \"#utility.yul\":5101:5105   */\n      0x00\n        /* \"#utility.yul\":5139:5141   */\n      0x40\n        /* \"#utility.yul\":5128:5137   */\n      dup3\n        /* \"#utility.yul\":5124:5142   */\n      add\n        /* \"#utility.yul\":5116:5142   */\n      swap1\n      pop\n        /* \"#utility.yul\":5188:5197   */\n      dup2\n        /* \"#utility.yul\":5182:5186   */\n      dup2\n        /* \"#utility.yul\":5178:5198   */\n      sub\n        /* \"#utility.yul\":5174:5175   */\n      0x00\n        /* \"#utility.yul\":5163:5172   */\n      dup4\n        /* \"#utility.yul\":5159:5176   */\n      add\n        /* \"#utility.yul\":5152:5199   */\n      mstore\n        /* \"#utility.yul\":5216:5294   */\n      tag_147\n        /* \"#utility.yul\":5289:5293   */\n      dup2\n        /* \"#utility.yul\":5280:5286   */\n      dup6\n        /* \"#utility.yul\":5216:5294   */\n      tag_124\n      jump\t// in\n    tag_147:\n        /* \"#utility.yul\":5208:5294   */\n      swap1\n      pop\n        /* \"#utility.yul\":5341:5350   */\n      dup2\n        /* \"#utility.yul\":5335:5339   */\n      dup2\n        /* \"#utility.yul\":5331:5351   */\n      sub\n        /* \"#utility.yul\":5326:5328   */\n      0x20\n        /* \"#utility.yul\":5315:5324   */\n      dup4\n        /* \"#utility.yul\":5311:5329   */\n      add\n        /* \"#utility.yul\":5304:5352   */\n      mstore\n        /* \"#utility.yul\":5369:5447   */\n      tag_148\n        /* \"#utility.yul\":5442:5446   */\n      dup2\n        /* \"#utility.yul\":5433:5439   */\n      dup5\n        /* \"#utility.yul\":5369:5447   */\n      tag_124\n      jump\t// in\n    tag_148:\n        /* \"#utility.yul\":5361:5447   */\n      swap1\n      pop\n        /* \"#utility.yul\":4940:5454   */\n      swap4\n      swap3\n      pop\n      pop\n      pop\n      jump\t// out\n        /* \"#utility.yul\":5460:5589   */\n    tag_75:\n        /* \"#utility.yul\":5494:5500   */\n      0x00\n        /* \"#utility.yul\":5521:5541   */\n      tag_150\n      tag_151\n      jump\t// in\n    tag_150:\n        /* \"#utility.yul\":5511:5541   */\n      swap1\n      pop\n        /* \"#utility.yul\":5550:5583   */\n      tag_152\n        /* \"#utility.yul\":5578:5582   */\n      dup3\n        /* \"#utility.yul\":5570:5576   */\n      dup3\n        /* \"#utility.yul\":5550:5583   */\n      tag_153\n      jump\t// in\n    tag_152:\n        /* \"#utility.yul\":5460:5589   */\n      swap2\n      swap1\n      pop\n      jump\t// out\n        /* \"#utility.yul\":5595:5670   */\n    tag_151:\n        /* \"#utility.yul\":5628:5634   */\n      0x00\n        /* \"#utility.yul\":5661:5663   */\n      0x40\n        /* \"#utility.yul\":5655:5664   */\n      mload\n        /* \"#utility.yul\":5645:5664   */\n      swap1\n      pop\n        /* \"#utility.yul\":5595:5670   */\n      swap1\n      jump\t// out\n        /* \"#utility.yul\":5676:5984   */\n    tag_74:\n        /* \"#utility.yul\":5738:5742   */\n      0x00\n        /* \"#utility.yul\":5828:5846   */\n      0xffffffffffffffff\n        /* \"#utility.yul\":5820:5826   */\n      dup3\n        /* \"#utility.yul\":5817:5847   */\n      gt\n        /* \"#utility.yul\":5814:5870   */\n      iszero\n      tag_156\n      jumpi\n        /* \"#utility.yul\":5850:5868   */\n      tag_157\n      tag_158\n      jump\t// in\n    tag_157:\n        /* \"#utility.yul\":5814:5870   */\n    tag_156:\n        /* \"#utility.yul\":5888:5917   */\n      tag_159\n        /* \"#utility.yul\":5910:5916   */\n      dup3\n        /* \"#utility.yul\":5888:5917   */\n      tag_133\n      jump\t// in\n    tag_159:\n        /* \"#utility.yul\":5880:5917   */\n      swap1\n      pop\n        /* \"#utility.yul\":5972:5976   */\n      0x20\n        /* \"#utility.yul\":5966:5970   */\n      dup2\n        /* \"#utility.yul\":5962:5977   */\n      add\n        /* \"#utility.yul\":5954:5977   */\n      swap1\n      pop\n        /* \"#utility.yul\":5676:5984   */\n      swap2\n      swap1\n      pop\n      jump\t// out\n        /* \"#utility.yul\":5990:6089   */\n    tag_127:\n        /* \"#utility.yul\":6042:6048   */\n      0x00\n        /* \"#utility.yul\":6076:6081   */\n      dup2\n        /* \"#utility.yul\":6070:6082   */\n      mload\n        /* \"#utility.yul\":6060:6082   */\n      swap1\n      pop\n        /* \"#utility.yul\":5990:6089   */\n      swap2\n      swap1\n      pop\n      jump\t// out\n        /* \"#utility.yul\":6095:6264   */\n    tag_129:\n        /* \"#utility.yul\":6179:6190   */\n      0x00\n        /* \"#utility.yul\":6213:6219   */\n      dup3\n        /* \"#utility.yul\":6208:6211   */\n      dup3\n        /* \"#utility.yul\":6201:6220   */\n      mstore\n        /* \"#utility.yul\":6253:6257   */\n      0x20\n        /* \"#utility.yul\":6248:6251   */\n      dup3\n        /* \"#utility.yul\":6244:6258   */\n      add\n        /* \"#utility.yul\":6229:6258   */\n      swap1\n      pop\n        /* \"#utility.yul\":6095:6264   */\n      swap3\n      swap2\n      pop\n      pop\n      jump\t// out\n        /* \"#utility.yul\":6270:6418   */\n    tag_138:\n        /* \"#utility.yul\":6372:6383   */\n      0x00\n        /* \"#utility.yul\":6409:6412   */\n      dup2\n        /* \"#utility.yul\":6394:6412   */\n      swap1\n      pop\n        /* \"#utility.yul\":6270:6418   */\n      swap3\n      swap2\n      pop\n      pop\n      jump\t// out\n        /* \"#utility.yul\":6424:6520   */\n    tag_123:\n        /* \"#utility.yul\":6461:6468   */\n      0x00\n        /* \"#utility.yul\":6490:6514   */\n      tag_164\n        /* \"#utility.yul\":6508:6513   */\n      dup3\n        /* \"#utility.yul\":6490:6514   */\n      tag_165\n      jump\t// in\n    tag_164:\n        /* \"#utility.yul\":6479:6514   */\n      swap1\n      pop\n        /* \"#utility.yul\":6424:6520   */\n      swap2\n      swap1\n      pop\n      jump\t// out\n        /* \"#utility.yul\":6526:6652   */\n    tag_165:\n        /* \"#utility.yul\":6563:6570   */\n      0x00\n        /* \"#utility.yul\":6603:6645   */\n      0xffffffffffffffffffffffffffffffffffffffff\n        /* \"#utility.yul\":6596:6601   */\n      dup3\n        /* \"#utility.yul\":6592:6646   */\n      and\n        /* \"#utility.yul\":6581:6646   */\n      swap1\n      pop\n        /* \"#utility.yul\":6526:6652   */\n      swap2\n      swap1\n      pop\n      jump\t// out\n        /* \"#utility.yul\":6658:6735   */\n    tag_167:\n        /* \"#utility.yul\":6695:6702   */\n      0x00\n        /* \"#utility.yul\":6724:6729   */\n      dup2\n        /* \"#utility.yul\":6713:6729   */\n      swap1\n      pop\n        /* \"#utility.yul\":6658:6735   */\n      swap2\n      swap1\n      pop\n      jump\t// out\n        /* \"#utility.yul\":6741:6895   */\n    tag_80:\n        /* \"#utility.yul\":6825:6831   */\n      dup3\n        /* \"#utility.yul\":6820:6823   */\n      dup2\n        /* \"#utility.yul\":6815:6818   */\n      dup4\n        /* \"#utility.yul\":6802:6832   */\n      calldatacopy\n        /* \"#utility.yul\":6887:6888   */\n      0x00\n        /* \"#utility.yul\":6878:6884   */\n      dup4\n        /* \"#utility.yul\":6873:6876   */\n      dup4\n        /* \"#utility.yul\":6869:6885   */\n      add\n        /* \"#utility.yul\":6862:6889   */\n      mstore\n        /* \"#utility.yul\":6741:6895   */\n      pop\n      pop\n      pop\n      jump\t// out\n        /* \"#utility.yul\":6901:7208   */\n    tag_131:\n        /* \"#utility.yul\":6969:6970   */\n      0x00\n        /* \"#utility.yul\":6979:7092   */\n    tag_171:\n        /* \"#utility.yul\":6993:6999   */\n      dup4\n        /* \"#utility.yul\":6990:6991   */\n      dup2\n        /* \"#utility.yul\":6987:7000   */\n      lt\n        /* \"#utility.yul\":6979:7092   */\n      iszero\n      tag_173\n      jumpi\n        /* \"#utility.yul\":7078:7079   */\n      dup1\n        /* \"#utility.yul\":7073:7076   */\n      dup3\n        /* \"#utility.yul\":7069:7080   */\n      add\n        /* \"#utility.yul\":7063:7081   */\n      mload\n        /* \"#utility.yul\":7059:7060   */\n      dup2\n        /* \"#utility.yul\":7054:7057   */\n      dup5\n        /* \"#utility.yul\":7050:7061   */\n      add\n        /* \"#utility.yul\":7043:7082   */\n      mstore\n        /* \"#utility.yul\":7015:7017   */\n      0x20\n        /* \"#utility.yul\":7012:7013   */\n      dup2\n        /* \"#utility.yul\":7008:7018   */\n      add\n        /* \"#utility.yul\":7003:7018   */\n      swap1\n      pop\n        /* \"#utility.yul\":6979:7092   */\n      jump(tag_171)\n    tag_173:\n        /* \"#utility.yul\":7110:7116   */\n      dup4\n        /* \"#utility.yul\":7107:7108   */\n      dup2\n        /* \"#utility.yul\":7104:7117   */\n      gt\n        /* \"#utility.yul\":7101:7202   */\n      iszero\n      tag_174\n      jumpi\n        /* \"#utility.yul\":7190:7191   */\n      0x00\n        /* \"#utility.yul\":7181:7187   */\n      dup5\n        /* \"#utility.yul\":7176:7179   */\n      dup5\n        /* \"#utility.yul\":7172:7188   */\n      add\n        /* \"#utility.yul\":7165:7192   */\n      mstore\n        /* \"#utility.yul\":7101:7202   */\n    tag_174:\n        /* \"#utility.yul\":6950:7208   */\n      pop\n        /* \"#utility.yul\":6901:7208   */\n      pop\n      pop\n      pop\n      jump\t// out\n        /* \"#utility.yul\":7214:7534   */\n    tag_42:\n        /* \"#utility.yul\":7258:7264   */\n      0x00\n        /* \"#utility.yul\":7295:7296   */\n      0x02\n        /* \"#utility.yul\":7289:7293   */\n      dup3\n        /* \"#utility.yul\":7285:7297   */\n      div\n        /* \"#utility.yul\":7275:7297   */\n      swap1\n      pop\n        /* \"#utility.yul\":7342:7343   */\n      0x01\n        /* \"#utility.yul\":7336:7340   */\n      dup3\n        /* \"#utility.yul\":7332:7344   */\n      and\n        /* \"#utility.yul\":7363:7381   */\n      dup1\n        /* \"#utility.yul\":7353:7434   */\n      tag_176\n      jumpi\n        /* \"#utility.yul\":7419:7423   */\n      0x7f\n        /* \"#utility.yul\":7411:7417   */\n      dup3\n        /* \"#utility.yul\":7407:7424   */\n      and\n        /* \"#utility.yul\":7397:7424   */\n      swap2\n      pop\n        /* \"#utility.yul\":7353:7434   */\n    tag_176:\n        /* \"#utility.yul\":7481:7483   */\n      0x20\n        /* \"#utility.yul\":7473:7479   */\n      dup3\n        /* \"#utility.yul\":7470:7484   */\n      lt\n        /* \"#utility.yul\":7450:7468   */\n      dup2\n        /* \"#utility.yul\":7447:7485   */\n      eq\n        /* \"#utility.yul\":7444:7528   */\n      iszero\n      tag_177\n      jumpi\n        /* \"#utility.yul\":7500:7518   */\n      tag_178\n      tag_179\n      jump\t// in\n    tag_178:\n        /* \"#utility.yul\":7444:7528   */\n    tag_177:\n        /* \"#utility.yul\":7265:7534   */\n      pop\n        /* \"#utility.yul\":7214:7534   */\n      swap2\n      swap1\n      pop\n      jump\t// out\n        /* \"#utility.yul\":7540:7821   */\n    tag_153:\n        /* \"#utility.yul\":7623:7650   */\n      tag_181\n        /* \"#utility.yul\":7645:7649   */\n      dup3\n        /* \"#utility.yul\":7623:7650   */\n      tag_133\n      jump\t// in\n    tag_181:\n        /* \"#utility.yul\":7615:7621   */\n      dup2\n        /* \"#utility.yul\":7611:7651   */\n      add\n        /* \"#utility.yul\":7753:7759   */\n      dup2\n        /* \"#utility.yul\":7741:7751   */\n      dup2\n        /* \"#utility.yul\":7738:7760   */\n      lt\n        /* \"#utility.yul\":7717:7735   */\n      0xffffffffffffffff\n        /* \"#utility.yul\":7705:7715   */\n      dup3\n        /* \"#utility.yul\":7702:7736   */\n      gt\n        /* \"#utility.yul\":7699:7761   */\n      or\n        /* \"#utility.yul\":7696:7784   */\n      iszero\n      tag_182\n      jumpi\n        /* \"#utility.yul\":7764:7782   */\n      tag_183\n      tag_158\n      jump\t// in\n    tag_183:\n        /* \"#utility.yul\":7696:7784   */\n    tag_182:\n        /* \"#utility.yul\":7804:7814   */\n      dup1\n        /* \"#utility.yul\":7800:7802   */\n      0x40\n        /* \"#utility.yul\":7793:7815   */\n      mstore\n        /* \"#utility.yul\":7583:7821   */\n      pop\n        /* \"#utility.yul\":7540:7821   */\n      pop\n      pop\n      jump\t// out\n        /* \"#utility.yul\":7827:8007   */\n    tag_179:\n        /* \"#utility.yul\":7875:7952   */\n      0x4e487b7100000000000000000000000000000000000000000000000000000000\n        /* \"#utility.yul\":7872:7873   */\n      0x00\n        /* \"#utility.yul\":7865:7953   */\n      mstore\n        /* \"#utility.yul\":7972:7976   */\n      0x22\n        /* \"#utility.yul\":7969:7970   */\n      0x04\n        /* \"#utility.yul\":7962:7977   */\n      mstore\n        /* \"#utility.yul\":7996:8000   */\n      0x24\n        /* \"#utility.yul\":7993:7994   */\n      0x00\n        /* \"#utility.yul\":7986:8001   */\n      revert\n        /* \"#utility.yul\":8013:8193   */\n    tag_158:\n        /* \"#utility.yul\":8061:8138   */\n      0x4e487b7100000000000000000000000000000000000000000000000000000000\n        /* \"#utility.yul\":8058:8059   */\n      0x00\n        /* \"#utility.yul\":8051:8139   */\n      mstore\n        /* \"#utility.yul\":8158:8162   */\n      0x41\n        /* \"#utility.yul\":8155:8156   */\n      0x04\n        /* \"#utility.yul\":8148:8163   */\n      mstore\n        /* \"#utility.yul\":8182:8186   */\n      0x24\n        /* \"#utility.yul\":8179:8180   */\n      0x00\n        /* \"#utility.yul\":8172:8187   */\n      revert\n        /* \"#utility.yul\":8199:8316   */\n    tag_89:\n        /* \"#utility.yul\":8308:8309   */\n      0x00\n        /* \"#utility.yul\":8305:8306   */\n      dup1\n        /* \"#utility.yul\":8298:8310   */\n      revert\n        /* \"#utility.yul\":8322:8439   */\n    tag_78:\n        /* \"#utility.yul\":8431:8432   */\n      0x00\n        /* \"#utility.yul\":8428:8429   */\n      dup1\n        /* \"#utility.yul\":8421:8433   */\n      revert\n        /* \"#utility.yul\":8445:8562   */\n    tag_106:\n        /* \"#utility.yul\":8554:8555   */\n      0x00\n        /* \"#utility.yul\":8551:8552   */\n      dup1\n        /* \"#utility.yul\":8544:8556   */\n      revert\n        /* \"#utility.yul\":8568:8685   */\n    tag_98:\n        /* \"#utility.yul\":8677:8678   */\n      0x00\n        /* \"#utility.yul\":8674:8675   */\n      dup1\n        /* \"#utility.yul\":8667:8679   */\n      revert\n        /* \"#utility.yul\":8691:8793   */\n    tag_133:\n        /* \"#utility.yul\":8732:8738   */\n      0x00\n        /* \"#utility.yul\":8783:8785   */\n      0x1f\n        /* \"#utility.yul\":8779:8786   */\n      not\n        /* \"#utility.yul\":8774:8776   */\n      0x1f\n        /* \"#utility.yul\":8767:8772   */\n      dup4\n        /* \"#utility.yul\":8763:8777   */\n      add\n        /* \"#utility.yul\":8759:8787   */\n      and\n        /* \"#utility.yul\":8749:8787   */\n      swap1\n      pop\n        /* \"#utility.yul\":8691:8793   */\n      swap2\n      swap1\n      pop\n      jump\t// out\n        /* \"#utility.yul\":8799:8921   */\n    tag_84:\n        /* \"#utility.yul\":8872:8896   */\n      tag_192\n        /* \"#utility.yul\":8890:8895   */\n      dup2\n        /* \"#utility.yul\":8872:8896   */\n      tag_123\n      jump\t// in\n    tag_192:\n        /* \"#utility.yul\":8865:8870   */\n      dup2\n        /* \"#utility.yul\":8862:8897   */\n      eq\n        /* \"#utility.yul\":8852:8915   */\n      tag_193\n      jumpi\n        /* \"#utility.yul\":8911:8912   */\n      0x00\n        /* \"#utility.yul\":8908:8909   */\n      dup1\n        /* \"#utility.yul\":8901:8913   */\n      revert\n        /* \"#utility.yul\":8852:8915   */\n    tag_193:\n        /* \"#utility.yul\":8799:8921   */\n      pop\n      jump\t// out\n        /* \"#utility.yul\":8927:9049   */\n    tag_94:\n        /* \"#utility.yul\":9000:9024   */\n      tag_195\n        /* \"#utility.yul\":9018:9023   */\n      dup2\n        /* \"#utility.yul\":9000:9024   */\n      tag_167\n      jump\t// in\n    tag_195:\n        /* \"#utility.yul\":8993:8998   */\n      dup2\n        /* \"#utility.yul\":8990:9025   */\n      eq\n        /* \"#utility.yul\":8980:9043   */\n      tag_196\n      jumpi\n        /* \"#utility.yul\":9039:9040   */\n      0x00\n        /* \"#utility.yul\":9036:9037   */\n      dup1\n        /* \"#utility.yul\":9029:9041   */\n      revert\n        /* \"#utility.yul\":8980:9043   */\n    tag_196:\n        /* \"#utility.yul\":8927:9049   */\n      pop\n      jump\t// out\n\n    auxdata: 0xa2646970667358221220751a5fd19ad387fbb7ebd39955b6f688d0408c945a33735d9198feb15525b75a64736f6c63430008070033\n}\n",
				"bytecode": {
					"linkReferences": {},
					"object": "608060405234801561001057600080fd5b506109d8806100206000396000f3fe608060405234801561001057600080fd5b50600436106100575760003560e01c806312cee9a31461005c578063420069b314610078578063893d20e814610094578063a5f21827146100b2578063b914d7ab146100e3575b600080fd5b610076600480360381019061007191906105e8565b610113565b005b610092600480360381019061008d919061059f565b610188565b005b61009c610217565b6040516100a9919061071f565b60405180910390f35b6100cc60048036038101906100c7919061059f565b61021f565b6040516100da92919061075c565b60405180910390f35b6100fd60048036038101906100f8919061055f565b610369565b60405161010a919061073a565b60405180910390f35b6040518060400160405280838152602001828152506001846040516101389190610708565b90815260200160405180910390206000820151816000019080519060200190610162929190610422565b50602082015181600101908051906020019061017f929190610422565b50905050505050565b60008073ab8483f64d9c6d1ecf9b849ae677dd3315835cb273ffffffffffffffffffffffffffffffffffffffff1673ffffffffffffffffffffffffffffffffffffffff16815260200190815260200160002081908060018154018082558091505060019003906000526020600020016000909190919091509080519060200190610213929190610422565b5050565b600033905090565b6001818051602081018201805184825260208301602085012081835280955050505050506000915090508060000180546102589061088e565b80601f01602080910402602001604051908101604052809291908181526020018280546102849061088e565b80156102d15780601f106102a6576101008083540402835291602001916102d1565b820191906000526020600020905b8154815290600101906020018083116102b457829003601f168201915b5050505050908060010180546102e69061088e565b80601f01602080910402602001604051908101604052809291908181526020018280546103129061088e565b801561035f5780601f106103345761010080835404028352916020019161035f565b820191906000526020600020905b81548152906001019060200180831161034257829003601f168201915b5050505050905082565b6000602052816000526040600020818154811061038557600080fd5b906000526020600020016000915091505080546103a19061088e565b80601f01602080910402602001604051908101604052809291908181526020018280546103cd9061088e565b801561041a5780601f106103ef5761010080835404028352916020019161041a565b820191906000526020600020905b8154815290600101906020018083116103fd57829003601f168201915b505050505081565b82805461042e9061088e565b90600052602060002090601f0160209004810192826104505760008555610497565b82601f1061046957805160ff1916838001178555610497565b82800160010185558215610497579182015b8281111561049657825182559160200191906001019061047b565b5b5090506104a491906104a8565b5090565b5b808211156104c15760008160009055506001016104a9565b5090565b60006104d86104d3846107b8565b610793565b9050828152602081018484840111156104f4576104f3610954565b5b6104ff84828561084c565b509392505050565b60008135905061051681610974565b92915050565b600082601f8301126105315761053061094f565b5b81356105418482602086016104c5565b91505092915050565b6000813590506105598161098b565b92915050565b600080604083850312156105765761057561095e565b5b600061058485828601610507565b92505060206105958582860161054a565b9150509250929050565b6000602082840312156105b5576105b461095e565b5b600082013567ffffffffffffffff8111156105d3576105d2610959565b5b6105df8482850161051c565b91505092915050565b6000806000606084860312156106015761060061095e565b5b600084013567ffffffffffffffff81111561061f5761061e610959565b5b61062b8682870161051c565b935050602084013567ffffffffffffffff81111561064c5761064b610959565b5b6106588682870161051c565b925050604084013567ffffffffffffffff81111561067957610678610959565b5b6106858682870161051c565b9150509250925092565b61069881610810565b82525050565b60006106a9826107e9565b6106b381856107f4565b93506106c381856020860161085b565b6106cc81610963565b840191505092915050565b60006106e2826107e9565b6106ec8185610805565b93506106fc81856020860161085b565b80840191505092915050565b600061071482846106d7565b915081905092915050565b6000602082019050610734600083018461068f565b92915050565b60006020820190508181036000830152610754818461069e565b905092915050565b60006040820190508181036000830152610776818561069e565b9050818103602083015261078a818461069e565b90509392505050565b600061079d6107ae565b90506107a982826108c0565b919050565b6000604051905090565b600067ffffffffffffffff8211156107d3576107d2610920565b5b6107dc82610963565b9050602081019050919050565b600081519050919050565b600082825260208201905092915050565b600081905092915050565b600061081b82610822565b9050919050565b600073ffffffffffffffffffffffffffffffffffffffff82169050919050565b6000819050919050565b82818337600083830152505050565b60005b8381101561087957808201518184015260208101905061085e565b83811115610888576000848401525b50505050565b600060028204905060018216806108a657607f821691505b602082108114156108ba576108b96108f1565b5b50919050565b6108c982610963565b810181811067ffffffffffffffff821117156108e8576108e7610920565b5b80604052505050565b7f4e487b7100000000000000000000000000000000000000000000000000000000600052602260045260246000fd5b7f4e487b7100000000000000000000000000000000000000000000000000000000600052604160045260246000fd5b600080fd5b600080fd5b600080fd5b600080fd5b6000601f19601f8301169050919050565b61097d81610810565b811461098857600080fd5b50565b61099481610842565b811461099f57600080fd5b5056fea2646970667358221220751a5fd19ad387fbb7ebd39955b6f688d0408c945a33735d9198feb15525b75a64736f6c63430008070033",
					"opcodes": "PUSH1 0x80 PUSH1 0x40 MSTORE CALLVALUE DUP1 ISZERO PUSH2 0x10 JUMPI PUSH1 0x0 DUP1 REVERT JUMPDEST POP PUSH2 0x9D8 DUP1 PUSH2 0x20 PUSH1 0x0 CODECOPY PUSH1 0x0 RETURN INVALID PUSH1 0x80 PUSH1 0x40 MSTORE CALLVALUE DUP1 ISZERO PUSH2 0x10 JUMPI PUSH1 0x0 DUP1 REVERT JUMPDEST POP PUSH1 0x4 CALLDATASIZE LT PUSH2 0x57 JUMPI PUSH1 0x0 CALLDATALOAD PUSH1 0xE0 SHR DUP1 PUSH4 0x12CEE9A3 EQ PUSH2 0x5C JUMPI DUP1 PUSH4 0x420069B3 EQ PUSH2 0x78 JUMPI DUP1 PUSH4 0x893D20E8 EQ PUSH2 0x94 JUMPI DUP1 PUSH4 0xA5F21827 EQ PUSH2 0xB2 JUMPI DUP1 PUSH4 0xB914D7AB EQ PUSH2 0xE3 JUMPI JUMPDEST PUSH1 0x0 DUP1 REVERT JUMPDEST PUSH2 0x76 PUSH1 0x4 DUP1 CALLDATASIZE SUB DUP2 ADD SWAP1 PUSH2 0x71 SWAP2 SWAP1 PUSH2 0x5E8 JUMP JUMPDEST PUSH2 0x113 JUMP JUMPDEST STOP JUMPDEST PUSH2 0x92 PUSH1 0x4 DUP1 CALLDATASIZE SUB DUP2 ADD SWAP1 PUSH2 0x8D SWAP2 SWAP1 PUSH2 0x59F JUMP JUMPDEST PUSH2 0x188 JUMP JUMPDEST STOP JUMPDEST PUSH2 0x9C PUSH2 0x217 JUMP JUMPDEST PUSH1 0x40 MLOAD PUSH2 0xA9 SWAP2 SWAP1 PUSH2 0x71F JUMP JUMPDEST PUSH1 0x40 MLOAD DUP1 SWAP2 SUB SWAP1 RETURN JUMPDEST PUSH2 0xCC PUSH1 0x4 DUP1 CALLDATASIZE SUB DUP2 ADD SWAP1 PUSH2 0xC7 SWAP2 SWAP1 PUSH2 0x59F JUMP JUMPDEST PUSH2 0x21F JUMP JUMPDEST PUSH1 0x40 MLOAD PUSH2 0xDA SWAP3 SWAP2 SWAP1 PUSH2 0x75C JUMP JUMPDEST PUSH1 0x40 MLOAD DUP1 SWAP2 SUB SWAP1 RETURN JUMPDEST PUSH2 0xFD PUSH1 0x4 DUP1 CALLDATASIZE SUB DUP2 ADD SWAP1 PUSH2 0xF8 SWAP2 SWAP1 PUSH2 0x55F JUMP JUMPDEST PUSH2 0x369 JUMP JUMPDEST PUSH1 0x40 MLOAD PUSH2 0x10A SWAP2 SWAP1 PUSH2 0x73A JUMP JUMPDEST PUSH1 0x40 MLOAD DUP1 SWAP2 SUB SWAP1 RETURN JUMPDEST PUSH1 0x40 MLOAD DUP1 PUSH1 0x40 ADD PUSH1 0x40 MSTORE DUP1 DUP4 DUP2 MSTORE PUSH1 0x20 ADD DUP3 DUP2 MSTORE POP PUSH1 0x1 DUP5 PUSH1 0x40 MLOAD PUSH2 0x138 SWAP2 SWAP1 PUSH2 0x708 JUMP JUMPDEST SWAP1 DUP2 MSTORE PUSH1 0x20 ADD PUSH1 0x40 MLOAD DUP1 SWAP2 SUB SWAP1 KECCAK256 PUSH1 0x0 DUP3 ADD MLOAD DUP2 PUSH1 0x0 ADD SWAP1 DUP1 MLOAD SWAP1 PUSH1 0x20 ADD SWAP1 PUSH2 0x162 SWAP3 SWAP2 SWAP1 PUSH2 0x422 JUMP JUMPDEST POP PUSH1 0x20 DUP3 ADD MLOAD DUP2 PUSH1 0x1 ADD SWAP1 DUP1 MLOAD SWAP1 PUSH1 0x20 ADD SWAP1 PUSH2 0x17F SWAP3 SWAP2 SWAP1 PUSH2 0x422 JUMP JUMPDEST POP SWAP1 POP POP POP POP POP JUMP JUMPDEST PUSH1 0x0 DUP1 PUSH20 0xAB8483F64D9C6D1ECF9B849AE677DD3315835CB2 PUSH20 0xFFFFFFFFFFFFFFFFFFFFFFFFFFFFFFFFFFFFFFFF AND PUSH20 0xFFFFFFFFFFFFFFFFFFFFFFFFFFFFFFFFFFFFFFFF AND DUP2 MSTORE PUSH1 0x20 ADD SWAP1 DUP2 MSTORE PUSH1 0x20 ADD PUSH1 0x0 KECCAK256 DUP2 SWAP1 DUP1 PUSH1 0x1 DUP2 SLOAD ADD DUP1 DUP3 SSTORE DUP1 SWAP2 POP POP PUSH1 0x1 SWAP1 SUB SWAP1 PUSH1 0x0 MSTORE PUSH1 0x20 PUSH1 0x0 KECCAK256 ADD PUSH1 0x0 SWAP1 SWAP2 SWAP1 SWAP2 SWAP1 SWAP2 POP SWAP1 DUP1 MLOAD SWAP1 PUSH1 0x20 ADD SWAP1 PUSH2 0x213 SWAP3 SWAP2 SWAP1 PUSH2 0x422 JUMP JUMPDEST POP POP JUMP JUMPDEST PUSH1 0x0 CALLER SWAP1 POP SWAP1 JUMP JUMPDEST PUSH1 0x1 DUP2 DUP1 MLOAD PUSH1 0x20 DUP2 ADD DUP3 ADD DUP1 MLOAD DUP5 DUP3 MSTORE PUSH1 0x20 DUP4 ADD PUSH1 0x20 DUP6 ADD KECCAK256 DUP2 DUP4 MSTORE DUP1 SWAP6 POP POP POP POP POP POP PUSH1 0x0 SWAP2 POP SWAP1 POP DUP1 PUSH1 0x0 ADD DUP1 SLOAD PUSH2 0x258 SWAP1 PUSH2 0x88E JUMP JUMPDEST DUP1 PUSH1 0x1F ADD PUSH1 0x20 DUP1 SWAP2 DIV MUL PUSH1 0x20 ADD PUSH1 0x40 MLOAD SWAP1 DUP2 ADD PUSH1 0x40 MSTORE DUP1 SWAP3 SWAP2 SWAP1 DUP2 DUP2 MSTORE PUSH1 0x20 ADD DUP3 DUP1 SLOAD PUSH2 0x284 SWAP1 PUSH2 0x88E JUMP JUMPDEST DUP1 ISZERO PUSH2 0x2D1 JUMPI DUP1 PUSH1 0x1F LT PUSH2 0x2A6 JUMPI PUSH2 0x100 DUP1 DUP4 SLOAD DIV MUL DUP4 MSTORE SWAP2 PUSH1 0x20 ADD SWAP2 PUSH2 0x2D1 JUMP JUMPDEST DUP3 ADD SWAP2 SWAP1 PUSH1 0x0 MSTORE PUSH1 0x20 PUSH1 0x0 KECCAK256 SWAP1 JUMPDEST DUP2 SLOAD DUP2 MSTORE SWAP1 PUSH1 0x1 ADD SWAP1 PUSH1 0x20 ADD DUP1 DUP4 GT PUSH2 0x2B4 JUMPI DUP3 SWAP1 SUB PUSH1 0x1F AND DUP3 ADD SWAP2 JUMPDEST POP POP POP POP POP SWAP1 DUP1 PUSH1 0x1 ADD DUP1 SLOAD PUSH2 0x2E6 SWAP1 PUSH2 0x88E JUMP JUMPDEST DUP1 PUSH1 0x1F ADD PUSH1 0x20 DUP1 SWAP2 DIV MUL PUSH1 0x20 ADD PUSH1 0x40 MLOAD SWAP1 DUP2 ADD PUSH1 0x40 MSTORE DUP1 SWAP3 SWAP2 SWAP1 DUP2 DUP2 MSTORE PUSH1 0x20 ADD DUP3 DUP1 SLOAD PUSH2 0x312 SWAP1 PUSH2 0x88E JUMP JUMPDEST DUP1 ISZERO PUSH2 0x35F JUMPI DUP1 PUSH1 0x1F LT PUSH2 0x334 JUMPI PUSH2 0x100 DUP1 DUP4 SLOAD DIV MUL DUP4 MSTORE SWAP2 PUSH1 0x20 ADD SWAP2 PUSH2 0x35F JUMP JUMPDEST DUP3 ADD SWAP2 SWAP1 PUSH1 0x0 MSTORE PUSH1 0x20 PUSH1 0x0 KECCAK256 SWAP1 JUMPDEST DUP2 SLOAD DUP2 MSTORE SWAP1 PUSH1 0x1 ADD SWAP1 PUSH1 0x20 ADD DUP1 DUP4 GT PUSH2 0x342 JUMPI DUP3 SWAP1 SUB PUSH1 0x1F AND DUP3 ADD SWAP2 JUMPDEST POP POP POP POP POP SWAP1 POP DUP3 JUMP JUMPDEST PUSH1 0x0 PUSH1 0x20 MSTORE DUP2 PUSH1 0x0 MSTORE PUSH1 0x40 PUSH1 0x0 KECCAK256 DUP2 DUP2 SLOAD DUP2 LT PUSH2 0x385 JUMPI PUSH1 0x0 DUP1 REVERT JUMPDEST SWAP1 PUSH1 0x0 MSTORE PUSH1 0x20 PUSH1 0x0 KECCAK256 ADD PUSH1 0x0 SWAP2 POP SWAP2 POP POP DUP1 SLOAD PUSH2 0x3A1 SWAP1 PUSH2 0x88E JUMP JUMPDEST DUP1 PUSH1 0x1F ADD PUSH1 0x20 DUP1 SWAP2 DIV MUL PUSH1 0x20 ADD PUSH1 0x40 MLOAD SWAP1 DUP2 ADD PUSH1 0x40 MSTORE DUP1 SWAP3 SWAP2 SWAP1 DUP2 DUP2 MSTORE PUSH1 0x20 ADD DUP3 DUP1 SLOAD PUSH2 0x3CD SWAP1 PUSH2 0x88E JUMP JUMPDEST DUP1 ISZERO PUSH2 0x41A JUMPI DUP1 PUSH1 0x1F LT PUSH2 0x3EF JUMPI PUSH2 0x100 DUP1 DUP4 SLOAD DIV MUL DUP4 MSTORE SWAP2 PUSH1 0x20 ADD SWAP2 PUSH2 0x41A JUMP JUMPDEST DUP3 ADD SWAP2 SWAP1 PUSH1 0x0 MSTORE PUSH1 0x20 PUSH1 0x0 KECCAK256 SWAP1 JUMPDEST DUP2 SLOAD DUP2 MSTORE SWAP1 PUSH1 0x1 ADD SWAP1 PUSH1 0x20 ADD DUP1 DUP4 GT PUSH2 0x3FD JUMPI DUP3 SWAP1 SUB PUSH1 0x1F AND DUP3 ADD SWAP2 JUMPDEST POP POP POP POP POP DUP2 JUMP JUMPDEST DUP3 DUP1 SLOAD PUSH2 0x42E SWAP1 PUSH2 0x88E JUMP JUMPDEST SWAP1 PUSH1 0x0 MSTORE PUSH1 0x20 PUSH1 0x0 KECCAK256 SWAP1 PUSH1 0x1F ADD PUSH1 0x20 SWAP1 DIV DUP2 ADD SWAP3 DUP3 PUSH2 0x450 JUMPI PUSH1 0x0 DUP6 SSTORE PUSH2 0x497 JUMP JUMPDEST DUP3 PUSH1 0x1F LT PUSH2 0x469 JUMPI DUP1 MLOAD PUSH1 0xFF NOT AND DUP4 DUP1 ADD OR DUP6 SSTORE PUSH2 0x497 JUMP JUMPDEST DUP3 DUP1 ADD PUSH1 0x1 ADD DUP6 SSTORE DUP3 ISZERO PUSH2 0x497 JUMPI SWAP2 DUP3 ADD JUMPDEST DUP3 DUP2 GT ISZERO PUSH2 0x496 JUMPI DUP3 MLOAD DUP3 SSTORE SWAP2 PUSH1 0x20 ADD SWAP2 SWAP1 PUSH1 0x1 ADD SWAP1 PUSH2 0x47B JUMP JUMPDEST JUMPDEST POP SWAP1 POP PUSH2 0x4A4 SWAP2 SWAP1 PUSH2 0x4A8 JUMP JUMPDEST POP SWAP1 JUMP JUMPDEST JUMPDEST DUP1 DUP3 GT ISZERO PUSH2 0x4C1 JUMPI PUSH1 0x0 DUP2 PUSH1 0x0 SWAP1 SSTORE POP PUSH1 0x1 ADD PUSH2 0x4A9 JUMP JUMPDEST POP SWAP1 JUMP JUMPDEST PUSH1 0x0 PUSH2 0x4D8 PUSH2 0x4D3 DUP5 PUSH2 0x7B8 JUMP JUMPDEST PUSH2 0x793 JUMP JUMPDEST SWAP1 POP DUP3 DUP2 MSTORE PUSH1 0x20 DUP2 ADD DUP5 DUP5 DUP5 ADD GT ISZERO PUSH2 0x4F4 JUMPI PUSH2 0x4F3 PUSH2 0x954 JUMP JUMPDEST JUMPDEST PUSH2 0x4FF DUP5 DUP3 DUP6 PUSH2 0x84C JUMP JUMPDEST POP SWAP4 SWAP3 POP POP POP JUMP JUMPDEST PUSH1 0x0 DUP2 CALLDATALOAD SWAP1 POP PUSH2 0x516 DUP2 PUSH2 0x974 JUMP JUMPDEST SWAP3 SWAP2 POP POP JUMP JUMPDEST PUSH1 0x0 DUP3 PUSH1 0x1F DUP4 ADD SLT PUSH2 0x531 JUMPI PUSH2 0x530 PUSH2 0x94F JUMP JUMPDEST JUMPDEST DUP2 CALLDATALOAD PUSH2 0x541 DUP5 DUP3 PUSH1 0x20 DUP7 ADD PUSH2 0x4C5 JUMP JUMPDEST SWAP2 POP POP SWAP3 SWAP2 POP POP JUMP JUMPDEST PUSH1 0x0 DUP2 CALLDATALOAD SWAP1 POP PUSH2 0x559 DUP2 PUSH2 0x98B JUMP JUMPDEST SWAP3 SWAP2 POP POP JUMP JUMPDEST PUSH1 0x0 DUP1 PUSH1 0x40 DUP4 DUP6 SUB SLT ISZERO PUSH2 0x576 JUMPI PUSH2 0x575 PUSH2 0x95E JUMP JUMPDEST JUMPDEST PUSH1 0x0 PUSH2 0x584 DUP6 DUP3 DUP7 ADD PUSH2 0x507 JUMP JUMPDEST SWAP3 POP POP PUSH1 0x20 PUSH2 0x595 DUP6 DUP3 DUP7 ADD PUSH2 0x54A JUMP JUMPDEST SWAP2 POP POP SWAP3 POP SWAP3 SWAP1 POP JUMP JUMPDEST PUSH1 0x0 PUSH1 0x20 DUP3 DUP5 SUB SLT ISZERO PUSH2 0x5B5 JUMPI PUSH2 0x5B4 PUSH2 0x95E JUMP JUMPDEST JUMPDEST PUSH1 0x0 DUP3 ADD CALLDATALOAD PUSH8 0xFFFFFFFFFFFFFFFF DUP2 GT ISZERO PUSH2 0x5D3 JUMPI PUSH2 0x5D2 PUSH2 0x959 JUMP JUMPDEST JUMPDEST PUSH2 0x5DF DUP5 DUP3 DUP6 ADD PUSH2 0x51C JUMP JUMPDEST SWAP2 POP POP SWAP3 SWAP2 POP POP JUMP JUMPDEST PUSH1 0x0 DUP1 PUSH1 0x0 PUSH1 0x60 DUP5 DUP7 SUB SLT ISZERO PUSH2 0x601 JUMPI PUSH2 0x600 PUSH2 0x95E JUMP JUMPDEST JUMPDEST PUSH1 0x0 DUP5 ADD CALLDATALOAD PUSH8 0xFFFFFFFFFFFFFFFF DUP2 GT ISZERO PUSH2 0x61F JUMPI PUSH2 0x61E PUSH2 0x959 JUMP JUMPDEST JUMPDEST PUSH2 0x62B DUP7 DUP3 DUP8 ADD PUSH2 0x51C JUMP JUMPDEST SWAP4 POP POP PUSH1 0x20 DUP5 ADD CALLDATALOAD PUSH8 0xFFFFFFFFFFFFFFFF DUP2 GT ISZERO PUSH2 0x64C JUMPI PUSH2 0x64B PUSH2 0x959 JUMP JUMPDEST JUMPDEST PUSH2 0x658 DUP7 DUP3 DUP8 ADD PUSH2 0x51C JUMP JUMPDEST SWAP3 POP POP PUSH1 0x40 DUP5 ADD CALLDATALOAD PUSH8 0xFFFFFFFFFFFFFFFF DUP2 GT ISZERO PUSH2 0x679 JUMPI PUSH2 0x678 PUSH2 0x959 JUMP JUMPDEST JUMPDEST PUSH2 0x685 DUP7 DUP3 DUP8 ADD PUSH2 0x51C JUMP JUMPDEST SWAP2 POP POP SWAP3 POP SWAP3 POP SWAP3 JUMP JUMPDEST PUSH2 0x698 DUP2 PUSH2 0x810 JUMP JUMPDEST DUP3 MSTORE POP POP JUMP JUMPDEST PUSH1 0x0 PUSH2 0x6A9 DUP3 PUSH2 0x7E9 JUMP JUMPDEST PUSH2 0x6B3 DUP2 DUP6 PUSH2 0x7F4 JUMP JUMPDEST SWAP4 POP PUSH2 0x6C3 DUP2 DUP6 PUSH1 0x20 DUP7 ADD PUSH2 0x85B JUMP JUMPDEST PUSH2 0x6CC DUP2 PUSH2 0x963 JUMP JUMPDEST DUP5 ADD SWAP2 POP POP SWAP3 SWAP2 POP POP JUMP JUMPDEST PUSH1 0x0 PUSH2 0x6E2 DUP3 PUSH2 0x7E9 JUMP JUMPDEST PUSH2 0x6EC DUP2 DUP6 PUSH2 0x805 JUMP JUMPDEST SWAP4 POP PUSH2 0x6FC DUP2 DUP6 PUSH1 0x20 DUP7 ADD PUSH2 0x85B JUMP JUMPDEST DUP1 DUP5 ADD SWAP2 POP POP SWAP3 SWAP2 POP POP JUMP JUMPDEST PUSH1 0x0 PUSH2 0x714 DUP3 DUP5 PUSH2 0x6D7 JUMP JUMPDEST SWAP2 POP DUP2 SWAP1 POP SWAP3 SWAP2 POP POP JUMP JUMPDEST PUSH1 0x0 PUSH1 0x20 DUP3 ADD SWAP1 POP PUSH2 0x734 PUSH1 0x0 DUP4 ADD DUP5 PUSH2 0x68F JUMP JUMPDEST SWAP3 SWAP2 POP POP JUMP JUMPDEST PUSH1 0x0 PUSH1 0x20 DUP3 ADD SWAP1 POP DUP2 DUP2 SUB PUSH1 0x0 DUP4 ADD MSTORE PUSH2 0x754 DUP2 DUP5 PUSH2 0x69E JUMP JUMPDEST SWAP1 POP SWAP3 SWAP2 POP POP JUMP JUMPDEST PUSH1 0x0 PUSH1 0x40 DUP3 ADD SWAP1 POP DUP2 DUP2 SUB PUSH1 0x0 DUP4 ADD MSTORE PUSH2 0x776 DUP2 DUP6 PUSH2 0x69E JUMP JUMPDEST SWAP1 POP DUP2 DUP2 SUB PUSH1 0x20 DUP4 ADD MSTORE PUSH2 0x78A DUP2 DUP5 PUSH2 0x69E JUMP JUMPDEST SWAP1 POP SWAP4 SWAP3 POP POP POP JUMP JUMPDEST PUSH1 0x0 PUSH2 0x79D PUSH2 0x7AE JUMP JUMPDEST SWAP1 POP PUSH2 0x7A9 DUP3 DUP3 PUSH2 0x8C0 JUMP JUMPDEST SWAP2 SWAP1 POP JUMP JUMPDEST PUSH1 0x0 PUSH1 0x40 MLOAD SWAP1 POP SWAP1 JUMP JUMPDEST PUSH1 0x0 PUSH8 0xFFFFFFFFFFFFFFFF DUP3 GT ISZERO PUSH2 0x7D3 JUMPI PUSH2 0x7D2 PUSH2 0x920 JUMP JUMPDEST JUMPDEST PUSH2 0x7DC DUP3 PUSH2 0x963 JUMP JUMPDEST SWAP1 POP PUSH1 0x20 DUP2 ADD SWAP1 POP SWAP2 SWAP1 POP JUMP JUMPDEST PUSH1 0x0 DUP2 MLOAD SWAP1 POP SWAP2 SWAP1 POP JUMP JUMPDEST PUSH1 0x0 DUP3 DUP3 MSTORE PUSH1 0x20 DUP3 ADD SWAP1 POP SWAP3 SWAP2 POP POP JUMP JUMPDEST PUSH1 0x0 DUP2 SWAP1 POP SWAP3 SWAP2 POP POP JUMP JUMPDEST PUSH1 0x0 PUSH2 0x81B DUP3 PUSH2 0x822 JUMP JUMPDEST SWAP1 POP SWAP2 SWAP1 POP JUMP JUMPDEST PUSH1 0x0 PUSH20 0xFFFFFFFFFFFFFFFFFFFFFFFFFFFFFFFFFFFFFFFF DUP3 AND SWAP1 POP SWAP2 SWAP1 POP JUMP JUMPDEST PUSH1 0x0 DUP2 SWAP1 POP SWAP2 SWAP1 POP JUMP JUMPDEST DUP3 DUP2 DUP4 CALLDATACOPY PUSH1 0x0 DUP4 DUP4 ADD MSTORE POP POP POP JUMP JUMPDEST PUSH1 0x0 JUMPDEST DUP4 DUP2 LT ISZERO PUSH2 0x879 JUMPI DUP1 DUP3 ADD MLOAD DUP2 DUP5 ADD MSTORE PUSH1 0x20 DUP2 ADD SWAP1 POP PUSH2 0x85E JUMP JUMPDEST DUP4 DUP2 GT ISZERO PUSH2 0x888 JUMPI PUSH1 0x0 DUP5 DUP5 ADD MSTORE JUMPDEST POP POP POP POP JUMP JUMPDEST PUSH1 0x0 PUSH1 0x2 DUP3 DIV SWAP1 POP PUSH1 0x1 DUP3 AND DUP1 PUSH2 0x8A6 JUMPI PUSH1 0x7F DUP3 AND SWAP2 POP JUMPDEST PUSH1 0x20 DUP3 LT DUP2 EQ ISZERO PUSH2 0x8BA JUMPI PUSH2 0x8B9 PUSH2 0x8F1 JUMP JUMPDEST JUMPDEST POP SWAP2 SWAP1 POP JUMP JUMPDEST PUSH2 0x8C9 DUP3 PUSH2 0x963 JUMP JUMPDEST DUP2 ADD DUP2 DUP2 LT PUSH8 0xFFFFFFFFFFFFFFFF DUP3 GT OR ISZERO PUSH2 0x8E8 JUMPI PUSH2 0x8E7 PUSH2 0x920 JUMP JUMPDEST JUMPDEST DUP1 PUSH1 0x40 MSTORE POP POP POP JUMP JUMPDEST PUSH32 0x4E487B7100000000000000000000000000000000000000000000000000000000 PUSH1 0x0 MSTORE PUSH1 0x22 PUSH1 0x4 MSTORE PUSH1 0x24 PUSH1 0x0 REVERT JUMPDEST PUSH32 0x4E487B7100000000000000000000000000000000000000000000000000000000 PUSH1 0x0 MSTORE PUSH1 0x41 PUSH1 0x4 MSTORE PUSH1 0x24 PUSH1 0x0 REVERT JUMPDEST PUSH1 0x0 DUP1 REVERT JUMPDEST PUSH1 0x0 DUP1 REVERT JUMPDEST PUSH1 0x0 DUP1 REVERT JUMPDEST PUSH1 0x0 DUP1 REVERT JUMPDEST PUSH1 0x0 PUSH1 0x1F NOT PUSH1 0x1F DUP4 ADD AND SWAP1 POP SWAP2 SWAP1 POP JUMP JUMPDEST PUSH2 0x97D DUP2 PUSH2 0x810 JUMP JUMPDEST DUP2 EQ PUSH2 0x988 JUMPI PUSH1 0x0 DUP1 REVERT JUMPDEST POP JUMP JUMPDEST PUSH2 0x994 DUP2 PUSH2 0x842 JUMP JUMPDEST DUP2 EQ PUSH2 0x99F JUMPI PUSH1 0x0 DUP1 REVERT JUMPDEST POP JUMP INVALID LOG2 PUSH5 0x6970667358 0x22 SLT KECCAK256 PUSH22 0x1A5FD19AD387FBB7EBD39955B6F688D0408C945A3373 0x5D SWAP2 SWAP9 INVALID 0xB1 SSTORE 0x25 0xB7 GAS PUSH5 0x736F6C6343 STOP ADDMOD SMOD STOP CALLER "
				},
				"gasEstimates": {
					"creation": {
						"codeDepositCost": "504000",
						"executionCost": "537",
						"totalCost": "504537"
					},
					"external": {
						"getOwner()": "407",
						"names(address,uint256)": "infinite",
						"pushValues(string,string,string)": "infinite",
						"setValues(string)": "infinite",
						"traits(string)": "infinite"
					}
				},
				"methodIdentifiers": {
					"getOwner()": "893d20e8",
					"names(address,uint256)": "b914d7ab",
					"pushValues(string,string,string)": "12cee9a3",
					"setValues(string)": "420069b3",
					"traits(string)": "a5f21827"
				}
			},
			"storageLayout": {
				"storage": [
					{
						"astId": 6,
						"contract": "contracts/mappings.sol:MappingsSample",
						"label": "names",
						"offset": 0,
						"slot": "0",
						"type": "t_mapping(t_address,t_array(t_string_storage)dyn_storage)"
					},
					{
						"astId": 42,
						"contract": "contracts/mappings.sol:MappingsSample",
						"label": "traits",
						"offset": 0,
						"slot": "1",
						"type": "t_mapping(t_string_memory_ptr,t_struct(Traits)37_storage)"
					}
				],
				"types": {
					"t_address": {
						"encoding": "inplace",
						"label": "address",
						"numberOfBytes": "20"
					},
					"t_array(t_string_storage)dyn_storage": {
						"base": "t_string_storage",
						"encoding": "dynamic_array",
						"label": "string[]",
						"numberOfBytes": "32"
					},
					"t_mapping(t_address,t_array(t_string_storage)dyn_storage)": {
						"encoding": "mapping",
						"key": "t_address",
						"label": "mapping(address => string[])",
						"numberOfBytes": "32",
						"value": "t_array(t_string_storage)dyn_storage"
					},
					"t_mapping(t_string_memory_ptr,t_struct(Traits)37_storage)": {
						"encoding": "mapping",
						"key": "t_string_memory_ptr",
						"label": "mapping(string => struct MappingsSample.Traits)",
						"numberOfBytes": "32",
						"value": "t_struct(Traits)37_storage"
					},
					"t_string_memory_ptr": {
						"encoding": "bytes",
						"label": "string",
						"numberOfBytes": "32"
					},
					"t_string_storage": {
						"encoding": "bytes",
						"label": "string",
						"numberOfBytes": "32"
					},
					"t_struct(Traits)37_storage": {
						"encoding": "inplace",
						"label": "struct MappingsSample.Traits",
						"members": [
							{
								"astId": 34,
								"contract": "contracts/mappings.sol:MappingsSample",
								"label": "color",
								"offset": 0,
								"slot": "0",
								"type": "t_string_storage"
							},
							{
								"astId": 36,
								"contract": "contracts/mappings.sol:MappingsSample",
								"label": "country",
								"offset": 0,
								"slot": "1",
								"type": "t_string_storage"
							}
						],
						"numberOfBytes": "64"
					}
				}
			},
			"userdoc": {
				"kind": "user",
				"methods": {},
				"version": 1
			}
		}
	}
}