{
	"contracts/blog.sol": {
		"blog": {
			"abi": [
				{
					"anonymous": false,
					"inputs": [
						{
							"indexed": true,
							"internalType": "address",
							"name": "user",
							"type": "address"
						},
						{
							"indexed": true,
							"internalType": "string",
							"name": "title",
							"type": "string"
						},
						{
							"indexed": true,
							"internalType": "string",
							"name": "description",
							"type": "string"
						}
					],
					"name": "broadcastDetails",
					"type": "event"
				},
				{
					"inputs": [],
					"name": "counter",
					"outputs": [
						{
							"internalType": "uint256",
							"name": "",
							"type": "uint256"
						}
					],
					"stateMutability": "view",
					"type": "function"
				},
				{
					"inputs": [
						{
							"internalType": "string",
							"name": "_title",
							"type": "string"
						},
						{
							"internalType": "string",
							"name": "_description",
							"type": "string"
						}
					],
					"name": "createPost",
					"outputs": [],
					"stateMutability": "nonpayable",
					"type": "function"
				},
				{
					"inputs": [
						{
							"internalType": "uint256",
							"name": "",
							"type": "uint256"
						}
					],
					"name": "posts",
					"outputs": [
						{
							"internalType": "address",
							"name": "",
							"type": "address"
						}
					],
					"stateMutability": "view",
					"type": "function"
				},
				{
					"inputs": [
						{
							"internalType": "uint256",
							"name": "_id",
							"type": "uint256"
						}
					],
					"name": "readPost",
					"outputs": [
						{
							"components": [
								{
									"internalType": "string",
									"name": "title",
									"type": "string"
								},
								{
									"internalType": "string",
									"name": "description",
									"type": "string"
								},
								{
									"internalType": "address",
									"name": "user",
									"type": "address"
								}
							],
							"internalType": "struct blog.Post",
							"name": "",
							"type": "tuple"
						}
					],
					"stateMutability": "view",
					"type": "function"
				},
				{
					"inputs": [
						{
							"internalType": "uint256",
							"name": "",
							"type": "uint256"
						}
					],
					"name": "userPosts",
					"outputs": [
						{
							"internalType": "string",
							"name": "title",
							"type": "string"
						},
						{
							"internalType": "string",
							"name": "description",
							"type": "string"
						},
						{
							"internalType": "address",
							"name": "user",
							"type": "address"
						}
					],
					"stateMutability": "view",
					"type": "function"
				}
			],
			"devdoc": {
				"kind": "dev",
				"methods": {},
				"version": 1
			},
			"evm": {
				"assembly": "    /* \"contracts/blog.sol\":90:1280  contract blog{\r... */\n  mstore(0x40, 0x80)\n    /* \"contracts/blog.sol\":157:158  0 */\n  0x00\n    /* \"contracts/blog.sol\":135:158  uint public counter = 0 */\n  dup1\n  sstore\n    /* \"contracts/blog.sol\":90:1280  contract blog{\r... */\n  callvalue\n  dup1\n  iszero\n  tag_1\n  jumpi\n  0x00\n  dup1\n  revert\ntag_1:\n  pop\n  dataSize(sub_0)\n  dup1\n  dataOffset(sub_0)\n  0x00\n  codecopy\n  0x00\n  return\nstop\n\nsub_0: assembly {\n        /* \"contracts/blog.sol\":90:1280  contract blog{\r... */\n      mstore(0x40, 0x80)\n      callvalue\n      dup1\n      iszero\n      tag_1\n      jumpi\n      0x00\n      dup1\n      revert\n    tag_1:\n      pop\n      jumpi(tag_2, lt(calldatasize, 0x04))\n      shr(0xe0, calldataload(0x00))\n      dup1\n      0x0b1e7f83\n      eq\n      tag_3\n      jumpi\n      dup1\n      0x392338f5\n      eq\n      tag_4\n      jumpi\n      dup1\n      0x61bc221a\n      eq\n      tag_5\n      jumpi\n      dup1\n      0xca6f69f5\n      eq\n      tag_6\n      jumpi\n      dup1\n      0xfdd6ea71\n      eq\n      tag_7\n      jumpi\n    tag_2:\n      0x00\n      dup1\n      revert\n        /* \"contracts/blog.sol\":554:591  mapping(uint => address) public posts */\n    tag_3:\n      tag_8\n      0x04\n      dup1\n      calldatasize\n      sub\n      dup2\n      add\n      swap1\n      tag_9\n      swap2\n      swap1\n      tag_10\n      jump\t// in\n    tag_9:\n      tag_11\n      jump\t// in\n    tag_8:\n      mload(0x40)\n      tag_12\n      swap2\n      swap1\n      tag_13\n      jump\t// in\n    tag_12:\n      mload(0x40)\n      dup1\n      swap2\n      sub\n      swap1\n      return\n        /* \"contracts/blog.sol\":869:1128  function createPost(string memory _title,string memory _description)\r... */\n    tag_4:\n      tag_14\n      0x04\n      dup1\n      calldatasize\n      sub\n      dup2\n      add\n      swap1\n      tag_15\n      swap2\n      swap1\n      tag_16\n      jump\t// in\n    tag_15:\n      tag_17\n      jump\t// in\n    tag_14:\n      stop\n        /* \"contracts/blog.sol\":135:158  uint public counter = 0 */\n    tag_5:\n      tag_18\n      tag_19\n      jump\t// in\n    tag_18:\n      mload(0x40)\n      tag_20\n      swap2\n      swap1\n      tag_21\n      jump\t// in\n    tag_20:\n      mload(0x40)\n      dup1\n      swap2\n      sub\n      swap1\n      return\n        /* \"contracts/blog.sol\":1158:1273  function readPost(uint _id)\r... */\n    tag_6:\n      tag_22\n      0x04\n      dup1\n      calldatasize\n      sub\n      dup2\n      add\n      swap1\n      tag_23\n      swap2\n      swap1\n      tag_10\n      jump\t// in\n    tag_23:\n      tag_24\n      jump\t// in\n    tag_22:\n      mload(0x40)\n      tag_25\n      swap2\n      swap1\n      tag_26\n      jump\t// in\n    tag_25:\n      mload(0x40)\n      dup1\n      swap2\n      sub\n      swap1\n      return\n        /* \"contracts/blog.sol\":635:673  mapping(uint => Post) public userPosts */\n    tag_7:\n      tag_27\n      0x04\n      dup1\n      calldatasize\n      sub\n      dup2\n      add\n      swap1\n      tag_28\n      swap2\n      swap1\n      tag_10\n      jump\t// in\n    tag_28:\n      tag_29\n      jump\t// in\n    tag_27:\n      mload(0x40)\n      tag_30\n      swap4\n      swap3\n      swap2\n      swap1\n      tag_31\n      jump\t// in\n    tag_30:\n      mload(0x40)\n      dup1\n      swap2\n      sub\n      swap1\n      return\n        /* \"contracts/blog.sol\":554:591  mapping(uint => address) public posts */\n    tag_11:\n      mstore(0x20, 0x01)\n      dup1\n      0x00\n      mstore\n      keccak256(0x00, 0x40)\n      0x00\n      swap2\n      pop\n      sload\n      swap1\n      0x0100\n      exp\n      swap1\n      div\n      0xffffffffffffffffffffffffffffffffffffffff\n      and\n      dup2\n      jump\t// out\n        /* \"contracts/blog.sol\":869:1128  function createPost(string memory _title,string memory _description)\r... */\n    tag_17:\n        /* \"contracts/blog.sol\":991:1027  Post(_title,_description,msg.sender) */\n      mload(0x40)\n      dup1\n      0x60\n      add\n      0x40\n      mstore\n      dup1\n        /* \"contracts/blog.sol\":996:1002  _title */\n      dup4\n        /* \"contracts/blog.sol\":991:1027  Post(_title,_description,msg.sender) */\n      dup2\n      mstore\n      0x20\n      add\n        /* \"contracts/blog.sol\":1003:1015  _description */\n      dup3\n        /* \"contracts/blog.sol\":991:1027  Post(_title,_description,msg.sender) */\n      dup2\n      mstore\n      0x20\n      add\n        /* \"contracts/blog.sol\":1016:1026  msg.sender */\n      caller\n        /* \"contracts/blog.sol\":991:1027  Post(_title,_description,msg.sender) */\n      0xffffffffffffffffffffffffffffffffffffffff\n      and\n      dup2\n      mstore\n      pop\n        /* \"contracts/blog.sol\":970:979  userPosts */\n      0x02\n        /* \"contracts/blog.sol\":970:988  userPosts[counter] */\n      0x00\n        /* \"contracts/blog.sol\":980:987  counter */\n      dup1\n      sload\n        /* \"contracts/blog.sol\":970:988  userPosts[counter] */\n      dup2\n      mstore\n      0x20\n      add\n      swap1\n      dup2\n      mstore\n      0x20\n      add\n      0x00\n      keccak256\n        /* \"contracts/blog.sol\":970:1027  userPosts[counter] = Post(_title,_description,msg.sender) */\n      0x00\n      dup3\n      add\n      mload\n      dup2\n      0x00\n      add\n      swap1\n      dup1\n      mload\n      swap1\n      0x20\n      add\n      swap1\n      tag_33\n      swap3\n      swap2\n      swap1\n      tag_34\n      jump\t// in\n    tag_33:\n      pop\n      0x20\n      dup3\n      add\n      mload\n      dup2\n      0x01\n      add\n      swap1\n      dup1\n      mload\n      swap1\n      0x20\n      add\n      swap1\n      tag_35\n      swap3\n      swap2\n      swap1\n      tag_34\n      jump\t// in\n    tag_35:\n      pop\n      0x40\n      dup3\n      add\n      mload\n      dup2\n      0x02\n      add\n      exp(0x0100, 0x00)\n      dup2\n      sload\n      dup2\n      0xffffffffffffffffffffffffffffffffffffffff\n      mul\n      not\n      and\n      swap1\n      dup4\n      0xffffffffffffffffffffffffffffffffffffffff\n      and\n      mul\n      or\n      swap1\n      sstore\n      pop\n      swap1\n      pop\n      pop\n        /* \"contracts/blog.sol\":1083:1095  _description */\n      dup1\n        /* \"contracts/blog.sol\":1047:1096  broadcastDetails(msg.sender, _title,_description) */\n      mload(0x40)\n      tag_36\n      swap2\n      swap1\n      tag_37\n      jump\t// in\n    tag_36:\n      mload(0x40)\n      dup1\n      swap2\n      sub\n      swap1\n      keccak256\n        /* \"contracts/blog.sol\":1076:1082  _title */\n      dup3\n        /* \"contracts/blog.sol\":1047:1096  broadcastDetails(msg.sender, _title,_description) */\n      mload(0x40)\n      tag_38\n      swap2\n      swap1\n      tag_37\n      jump\t// in\n    tag_38:\n      mload(0x40)\n      dup1\n      swap2\n      sub\n      swap1\n      keccak256\n        /* \"contracts/blog.sol\":1064:1074  msg.sender */\n      caller\n        /* \"contracts/blog.sol\":1047:1096  broadcastDetails(msg.sender, _title,_description) */\n      0xffffffffffffffffffffffffffffffffffffffff\n      and\n      0x4eacffc497062f11928adc3628e2047cd720623235f6f37529db1d95cc75ecbf\n      mload(0x40)\n      mload(0x40)\n      dup1\n      swap2\n      sub\n      swap1\n      log4\n        /* \"contracts/blog.sol\":1111:1118  counter */\n      0x00\n      dup1\n        /* \"contracts/blog.sol\":1111:1120  counter++ */\n      dup2\n      sload\n      dup1\n      swap3\n      swap2\n      swap1\n      tag_39\n      swap1\n      tag_40\n      jump\t// in\n    tag_39:\n      swap2\n      swap1\n      pop\n      sstore\n      pop\n        /* \"contracts/blog.sol\":869:1128  function createPost(string memory _title,string memory _description)\r... */\n      pop\n      pop\n      jump\t// out\n        /* \"contracts/blog.sol\":135:158  uint public counter = 0 */\n    tag_19:\n      sload(0x00)\n      dup2\n      jump\t// out\n        /* \"contracts/blog.sol\":1158:1273  function readPost(uint _id)\r... */\n    tag_24:\n        /* \"contracts/blog.sol\":1221:1232  Post memory */\n      tag_41\n      tag_42\n      jump\t// in\n    tag_41:\n        /* \"contracts/blog.sol\":1251:1260  userPosts */\n      0x02\n        /* \"contracts/blog.sol\":1251:1265  userPosts[_id] */\n      0x00\n        /* \"contracts/blog.sol\":1261:1264  _id */\n      dup4\n        /* \"contracts/blog.sol\":1251:1265  userPosts[_id] */\n      dup2\n      mstore\n      0x20\n      add\n      swap1\n      dup2\n      mstore\n      0x20\n      add\n      0x00\n      keccak256\n        /* \"contracts/blog.sol\":1244:1265  return userPosts[_id] */\n      mload(0x40)\n      dup1\n      0x60\n      add\n      0x40\n      mstore\n      swap1\n      dup2\n      0x00\n      dup3\n      add\n      dup1\n      sload\n      tag_44\n      swap1\n      tag_45\n      jump\t// in\n    tag_44:\n      dup1\n      0x1f\n      add\n      0x20\n      dup1\n      swap2\n      div\n      mul\n      0x20\n      add\n      mload(0x40)\n      swap1\n      dup2\n      add\n      0x40\n      mstore\n      dup1\n      swap3\n      swap2\n      swap1\n      dup2\n      dup2\n      mstore\n      0x20\n      add\n      dup3\n      dup1\n      sload\n      tag_46\n      swap1\n      tag_45\n      jump\t// in\n    tag_46:\n      dup1\n      iszero\n      tag_47\n      jumpi\n      dup1\n      0x1f\n      lt\n      tag_48\n      jumpi\n      0x0100\n      dup1\n      dup4\n      sload\n      div\n      mul\n      dup4\n      mstore\n      swap2\n      0x20\n      add\n      swap2\n      jump(tag_47)\n    tag_48:\n      dup3\n      add\n      swap2\n      swap1\n      0x00\n      mstore\n      keccak256(0x00, 0x20)\n      swap1\n    tag_49:\n      dup2\n      sload\n      dup2\n      mstore\n      swap1\n      0x01\n      add\n      swap1\n      0x20\n      add\n      dup1\n      dup4\n      gt\n      tag_49\n      jumpi\n      dup3\n      swap1\n      sub\n      0x1f\n      and\n      dup3\n      add\n      swap2\n    tag_47:\n      pop\n      pop\n      pop\n      pop\n      pop\n      dup2\n      mstore\n      0x20\n      add\n      0x01\n      dup3\n      add\n      dup1\n      sload\n      tag_50\n      swap1\n      tag_45\n      jump\t// in\n    tag_50:\n      dup1\n      0x1f\n      add\n      0x20\n      dup1\n      swap2\n      div\n      mul\n      0x20\n      add\n      mload(0x40)\n      swap1\n      dup2\n      add\n      0x40\n      mstore\n      dup1\n      swap3\n      swap2\n      swap1\n      dup2\n      dup2\n      mstore\n      0x20\n      add\n      dup3\n      dup1\n      sload\n      tag_51\n      swap1\n      tag_45\n      jump\t// in\n    tag_51:\n      dup1\n      iszero\n      tag_52\n      jumpi\n      dup1\n      0x1f\n      lt\n      tag_53\n      jumpi\n      0x0100\n      dup1\n      dup4\n      sload\n      div\n      mul\n      dup4\n      mstore\n      swap2\n      0x20\n      add\n      swap2\n      jump(tag_52)\n    tag_53:\n      dup3\n      add\n      swap2\n      swap1\n      0x00\n      mstore\n      keccak256(0x00, 0x20)\n      swap1\n    tag_54:\n      dup2\n      sload\n      dup2\n      mstore\n      swap1\n      0x01\n      add\n      swap1\n      0x20\n      add\n      dup1\n      dup4\n      gt\n      tag_54\n      jumpi\n      dup3\n      swap1\n      sub\n      0x1f\n      and\n      dup3\n      add\n      swap2\n    tag_52:\n      pop\n      pop\n      pop\n      pop\n      pop\n      dup2\n      mstore\n      0x20\n      add\n      0x02\n      dup3\n      add\n      0x00\n      swap1\n      sload\n      swap1\n      0x0100\n      exp\n      swap1\n      div\n      0xffffffffffffffffffffffffffffffffffffffff\n      and\n      0xffffffffffffffffffffffffffffffffffffffff\n      and\n      0xffffffffffffffffffffffffffffffffffffffff\n      and\n      dup2\n      mstore\n      pop\n      pop\n      swap1\n      pop\n        /* \"contracts/blog.sol\":1158:1273  function readPost(uint _id)\r... */\n      swap2\n      swap1\n      pop\n      jump\t// out\n        /* \"contracts/blog.sol\":635:673  mapping(uint => Post) public userPosts */\n    tag_29:\n      mstore(0x20, 0x02)\n      dup1\n      0x00\n      mstore\n      keccak256(0x00, 0x40)\n      0x00\n      swap2\n      pop\n      swap1\n      pop\n      dup1\n      0x00\n      add\n      dup1\n      sload\n      tag_55\n      swap1\n      tag_45\n      jump\t// in\n    tag_55:\n      dup1\n      0x1f\n      add\n      0x20\n      dup1\n      swap2\n      div\n      mul\n      0x20\n      add\n      mload(0x40)\n      swap1\n      dup2\n      add\n      0x40\n      mstore\n      dup1\n      swap3\n      swap2\n      swap1\n      dup2\n      dup2\n      mstore\n      0x20\n      add\n      dup3\n      dup1\n      sload\n      tag_56\n      swap1\n      tag_45\n      jump\t// in\n    tag_56:\n      dup1\n      iszero\n      tag_57\n      jumpi\n      dup1\n      0x1f\n      lt\n      tag_58\n      jumpi\n      0x0100\n      dup1\n      dup4\n      sload\n      div\n      mul\n      dup4\n      mstore\n      swap2\n      0x20\n      add\n      swap2\n      jump(tag_57)\n    tag_58:\n      dup3\n      add\n      swap2\n      swap1\n      0x00\n      mstore\n      keccak256(0x00, 0x20)\n      swap1\n    tag_59:\n      dup2\n      sload\n      dup2\n      mstore\n      swap1\n      0x01\n      add\n      swap1\n      0x20\n      add\n      dup1\n      dup4\n      gt\n      tag_59\n      jumpi\n      dup3\n      swap1\n      sub\n      0x1f\n      and\n      dup3\n      add\n      swap2\n    tag_57:\n      pop\n      pop\n      pop\n      pop\n      pop\n      swap1\n      dup1\n      0x01\n      add\n      dup1\n      sload\n      tag_60\n      swap1\n      tag_45\n      jump\t// in\n    tag_60:\n      dup1\n      0x1f\n      add\n      0x20\n      dup1\n      swap2\n      div\n      mul\n      0x20\n      add\n      mload(0x40)\n      swap1\n      dup2\n      add\n      0x40\n      mstore\n      dup1\n      swap3\n      swap2\n      swap1\n      dup2\n      dup2\n      mstore\n      0x20\n      add\n      dup3\n      dup1\n      sload\n      tag_61\n      swap1\n      tag_45\n      jump\t// in\n    tag_61:\n      dup1\n      iszero\n      tag_62\n      jumpi\n      dup1\n      0x1f\n      lt\n      tag_63\n      jumpi\n      0x0100\n      dup1\n      dup4\n      sload\n      div\n      mul\n      dup4\n      mstore\n      swap2\n      0x20\n      add\n      swap2\n      jump(tag_62)\n    tag_63:\n      dup3\n      add\n      swap2\n      swap1\n      0x00\n      mstore\n      keccak256(0x00, 0x20)\n      swap1\n    tag_64:\n      dup2\n      sload\n      dup2\n      mstore\n      swap1\n      0x01\n      add\n      swap1\n      0x20\n      add\n      dup1\n      dup4\n      gt\n      tag_64\n      jumpi\n      dup3\n      swap1\n      sub\n      0x1f\n      and\n      dup3\n      add\n      swap2\n    tag_62:\n      pop\n      pop\n      pop\n      pop\n      pop\n      swap1\n      dup1\n      0x02\n      add\n      0x00\n      swap1\n      sload\n      swap1\n      0x0100\n      exp\n      swap1\n      div\n      0xffffffffffffffffffffffffffffffffffffffff\n      and\n      swap1\n      pop\n      dup4\n      jump\t// out\n    tag_34:\n      dup3\n      dup1\n      sload\n      tag_65\n      swap1\n      tag_45\n      jump\t// in\n    tag_65:\n      swap1\n      0x00\n      mstore\n      keccak256(0x00, 0x20)\n      swap1\n      0x1f\n      add\n      0x20\n      swap1\n      div\n      dup2\n      add\n      swap3\n      dup3\n      tag_67\n      jumpi\n      0x00\n      dup6\n      sstore\n      jump(tag_66)\n    tag_67:\n      dup3\n      0x1f\n      lt\n      tag_68\n      jumpi\n      dup1\n      mload\n      not(0xff)\n      and\n      dup4\n      dup1\n      add\n      or\n      dup6\n      sstore\n      jump(tag_66)\n    tag_68:\n      dup3\n      dup1\n      add\n      0x01\n      add\n      dup6\n      sstore\n      dup3\n      iszero\n      tag_66\n      jumpi\n      swap2\n      dup3\n      add\n    tag_69:\n      dup3\n      dup2\n      gt\n      iszero\n      tag_70\n      jumpi\n      dup3\n      mload\n      dup3\n      sstore\n      swap2\n      0x20\n      add\n      swap2\n      swap1\n      0x01\n      add\n      swap1\n      jump(tag_69)\n    tag_70:\n    tag_66:\n      pop\n      swap1\n      pop\n      tag_71\n      swap2\n      swap1\n      tag_72\n      jump\t// in\n    tag_71:\n      pop\n      swap1\n      jump\t// out\n    tag_42:\n      mload(0x40)\n      dup1\n      0x60\n      add\n      0x40\n      mstore\n      dup1\n      0x60\n      dup2\n      mstore\n      0x20\n      add\n      0x60\n      dup2\n      mstore\n      0x20\n      add\n      and(0xffffffffffffffffffffffffffffffffffffffff, 0x00)\n      dup2\n      mstore\n      pop\n      swap1\n      jump\t// out\n    tag_72:\n    tag_73:\n      dup1\n      dup3\n      gt\n      iszero\n      tag_74\n      jumpi\n      0x00\n      dup2\n      0x00\n      swap1\n      sstore\n      pop\n      0x01\n      add\n      jump(tag_73)\n    tag_74:\n      pop\n      swap1\n      jump\t// out\n        /* \"#utility.yul\":7:419   */\n    tag_76:\n        /* \"#utility.yul\":85:90   */\n      0x00\n        /* \"#utility.yul\":110:176   */\n      tag_78\n        /* \"#utility.yul\":126:175   */\n      tag_79\n        /* \"#utility.yul\":168:174   */\n      dup5\n        /* \"#utility.yul\":126:175   */\n      tag_80\n      jump\t// in\n    tag_79:\n        /* \"#utility.yul\":110:176   */\n      tag_81\n      jump\t// in\n    tag_78:\n        /* \"#utility.yul\":101:176   */\n      swap1\n      pop\n        /* \"#utility.yul\":199:205   */\n      dup3\n        /* \"#utility.yul\":192:197   */\n      dup2\n        /* \"#utility.yul\":185:206   */\n      mstore\n        /* \"#utility.yul\":237:241   */\n      0x20\n        /* \"#utility.yul\":230:235   */\n      dup2\n        /* \"#utility.yul\":226:242   */\n      add\n        /* \"#utility.yul\":275:278   */\n      dup5\n        /* \"#utility.yul\":266:272   */\n      dup5\n        /* \"#utility.yul\":261:264   */\n      dup5\n        /* \"#utility.yul\":257:273   */\n      add\n        /* \"#utility.yul\":254:279   */\n      gt\n        /* \"#utility.yul\":251:363   */\n      iszero\n      tag_82\n      jumpi\n        /* \"#utility.yul\":282:361   */\n      tag_83\n      tag_84\n      jump\t// in\n    tag_83:\n        /* \"#utility.yul\":251:363   */\n    tag_82:\n        /* \"#utility.yul\":372:413   */\n      tag_85\n        /* \"#utility.yul\":406:412   */\n      dup5\n        /* \"#utility.yul\":401:404   */\n      dup3\n        /* \"#utility.yul\":396:399   */\n      dup6\n        /* \"#utility.yul\":372:413   */\n      tag_86\n      jump\t// in\n    tag_85:\n        /* \"#utility.yul\":91:419   */\n      pop\n        /* \"#utility.yul\":7:419   */\n      swap4\n      swap3\n      pop\n      pop\n      pop\n      jump\t// out\n        /* \"#utility.yul\":439:779   */\n    tag_87:\n        /* \"#utility.yul\":495:500   */\n      0x00\n        /* \"#utility.yul\":544:547   */\n      dup3\n        /* \"#utility.yul\":537:541   */\n      0x1f\n        /* \"#utility.yul\":529:535   */\n      dup4\n        /* \"#utility.yul\":525:542   */\n      add\n        /* \"#utility.yul\":521:548   */\n      slt\n        /* \"#utility.yul\":511:633   */\n      tag_89\n      jumpi\n        /* \"#utility.yul\":552:631   */\n      tag_90\n      tag_91\n      jump\t// in\n    tag_90:\n        /* \"#utility.yul\":511:633   */\n    tag_89:\n        /* \"#utility.yul\":669:675   */\n      dup2\n        /* \"#utility.yul\":656:676   */\n      calldataload\n        /* \"#utility.yul\":694:773   */\n      tag_92\n        /* \"#utility.yul\":769:772   */\n      dup5\n        /* \"#utility.yul\":761:767   */\n      dup3\n        /* \"#utility.yul\":754:758   */\n      0x20\n        /* \"#utility.yul\":746:752   */\n      dup7\n        /* \"#utility.yul\":742:759   */\n      add\n        /* \"#utility.yul\":694:773   */\n      tag_76\n      jump\t// in\n    tag_92:\n        /* \"#utility.yul\":685:773   */\n      swap2\n      pop\n        /* \"#utility.yul\":501:779   */\n      pop\n        /* \"#utility.yul\":439:779   */\n      swap3\n      swap2\n      pop\n      pop\n      jump\t// out\n        /* \"#utility.yul\":785:924   */\n    tag_93:\n        /* \"#utility.yul\":831:836   */\n      0x00\n        /* \"#utility.yul\":869:875   */\n      dup2\n        /* \"#utility.yul\":856:876   */\n      calldataload\n        /* \"#utility.yul\":847:876   */\n      swap1\n      pop\n        /* \"#utility.yul\":885:918   */\n      tag_95\n        /* \"#utility.yul\":912:917   */\n      dup2\n        /* \"#utility.yul\":885:918   */\n      tag_96\n      jump\t// in\n    tag_95:\n        /* \"#utility.yul\":785:924   */\n      swap3\n      swap2\n      pop\n      pop\n      jump\t// out\n        /* \"#utility.yul\":930:1764   */\n    tag_16:\n        /* \"#utility.yul\":1018:1024   */\n      0x00\n        /* \"#utility.yul\":1026:1032   */\n      dup1\n        /* \"#utility.yul\":1075:1077   */\n      0x40\n        /* \"#utility.yul\":1063:1072   */\n      dup4\n        /* \"#utility.yul\":1054:1061   */\n      dup6\n        /* \"#utility.yul\":1050:1073   */\n      sub\n        /* \"#utility.yul\":1046:1078   */\n      slt\n        /* \"#utility.yul\":1043:1162   */\n      iszero\n      tag_98\n      jumpi\n        /* \"#utility.yul\":1081:1160   */\n      tag_99\n      tag_100\n      jump\t// in\n    tag_99:\n        /* \"#utility.yul\":1043:1162   */\n    tag_98:\n        /* \"#utility.yul\":1229:1230   */\n      0x00\n        /* \"#utility.yul\":1218:1227   */\n      dup4\n        /* \"#utility.yul\":1214:1231   */\n      add\n        /* \"#utility.yul\":1201:1232   */\n      calldataload\n        /* \"#utility.yul\":1259:1277   */\n      0xffffffffffffffff\n        /* \"#utility.yul\":1251:1257   */\n      dup2\n        /* \"#utility.yul\":1248:1278   */\n      gt\n        /* \"#utility.yul\":1245:1362   */\n      iszero\n      tag_101\n      jumpi\n        /* \"#utility.yul\":1281:1360   */\n      tag_102\n      tag_103\n      jump\t// in\n    tag_102:\n        /* \"#utility.yul\":1245:1362   */\n    tag_101:\n        /* \"#utility.yul\":1386:1449   */\n      tag_104\n        /* \"#utility.yul\":1441:1448   */\n      dup6\n        /* \"#utility.yul\":1432:1438   */\n      dup3\n        /* \"#utility.yul\":1421:1430   */\n      dup7\n        /* \"#utility.yul\":1417:1439   */\n      add\n        /* \"#utility.yul\":1386:1449   */\n      tag_87\n      jump\t// in\n    tag_104:\n        /* \"#utility.yul\":1376:1449   */\n      swap3\n      pop\n        /* \"#utility.yul\":1172:1459   */\n      pop\n        /* \"#utility.yul\":1526:1528   */\n      0x20\n        /* \"#utility.yul\":1515:1524   */\n      dup4\n        /* \"#utility.yul\":1511:1529   */\n      add\n        /* \"#utility.yul\":1498:1530   */\n      calldataload\n        /* \"#utility.yul\":1557:1575   */\n      0xffffffffffffffff\n        /* \"#utility.yul\":1549:1555   */\n      dup2\n        /* \"#utility.yul\":1546:1576   */\n      gt\n        /* \"#utility.yul\":1543:1660   */\n      iszero\n      tag_105\n      jumpi\n        /* \"#utility.yul\":1579:1658   */\n      tag_106\n      tag_103\n      jump\t// in\n    tag_106:\n        /* \"#utility.yul\":1543:1660   */\n    tag_105:\n        /* \"#utility.yul\":1684:1747   */\n      tag_107\n        /* \"#utility.yul\":1739:1746   */\n      dup6\n        /* \"#utility.yul\":1730:1736   */\n      dup3\n        /* \"#utility.yul\":1719:1728   */\n      dup7\n        /* \"#utility.yul\":1715:1737   */\n      add\n        /* \"#utility.yul\":1684:1747   */\n      tag_87\n      jump\t// in\n    tag_107:\n        /* \"#utility.yul\":1674:1747   */\n      swap2\n      pop\n        /* \"#utility.yul\":1469:1757   */\n      pop\n        /* \"#utility.yul\":930:1764   */\n      swap3\n      pop\n      swap3\n      swap1\n      pop\n      jump\t// out\n        /* \"#utility.yul\":1770:2099   */\n    tag_10:\n        /* \"#utility.yul\":1829:1835   */\n      0x00\n        /* \"#utility.yul\":1878:1880   */\n      0x20\n        /* \"#utility.yul\":1866:1875   */\n      dup3\n        /* \"#utility.yul\":1857:1864   */\n      dup5\n        /* \"#utility.yul\":1853:1876   */\n      sub\n        /* \"#utility.yul\":1849:1881   */\n      slt\n        /* \"#utility.yul\":1846:1965   */\n      iszero\n      tag_109\n      jumpi\n        /* \"#utility.yul\":1884:1963   */\n      tag_110\n      tag_100\n      jump\t// in\n    tag_110:\n        /* \"#utility.yul\":1846:1965   */\n    tag_109:\n        /* \"#utility.yul\":2004:2005   */\n      0x00\n        /* \"#utility.yul\":2029:2082   */\n      tag_111\n        /* \"#utility.yul\":2074:2081   */\n      dup5\n        /* \"#utility.yul\":2065:2071   */\n      dup3\n        /* \"#utility.yul\":2054:2063   */\n      dup6\n        /* \"#utility.yul\":2050:2072   */\n      add\n        /* \"#utility.yul\":2029:2082   */\n      tag_93\n      jump\t// in\n    tag_111:\n        /* \"#utility.yul\":2019:2082   */\n      swap2\n      pop\n        /* \"#utility.yul\":1975:2092   */\n      pop\n        /* \"#utility.yul\":1770:2099   */\n      swap3\n      swap2\n      pop\n      pop\n      jump\t// out\n        /* \"#utility.yul\":2105:2213   */\n    tag_112:\n        /* \"#utility.yul\":2182:2206   */\n      tag_114\n        /* \"#utility.yul\":2200:2205   */\n      dup2\n        /* \"#utility.yul\":2182:2206   */\n      tag_115\n      jump\t// in\n    tag_114:\n        /* \"#utility.yul\":2177:2180   */\n      dup3\n        /* \"#utility.yul\":2170:2207   */\n      mstore\n        /* \"#utility.yul\":2105:2213   */\n      pop\n      pop\n      jump\t// out\n        /* \"#utility.yul\":2219:2337   */\n    tag_116:\n        /* \"#utility.yul\":2306:2330   */\n      tag_118\n        /* \"#utility.yul\":2324:2329   */\n      dup2\n        /* \"#utility.yul\":2306:2330   */\n      tag_115\n      jump\t// in\n    tag_118:\n        /* \"#utility.yul\":2301:2304   */\n      dup3\n        /* \"#utility.yul\":2294:2331   */\n      mstore\n        /* \"#utility.yul\":2219:2337   */\n      pop\n      pop\n      jump\t// out\n        /* \"#utility.yul\":2343:2687   */\n    tag_119:\n        /* \"#utility.yul\":2421:2424   */\n      0x00\n        /* \"#utility.yul\":2449:2488   */\n      tag_121\n        /* \"#utility.yul\":2482:2487   */\n      dup3\n        /* \"#utility.yul\":2449:2488   */\n      tag_122\n      jump\t// in\n    tag_121:\n        /* \"#utility.yul\":2504:2565   */\n      tag_123\n        /* \"#utility.yul\":2558:2564   */\n      dup2\n        /* \"#utility.yul\":2553:2556   */\n      dup6\n        /* \"#utility.yul\":2504:2565   */\n      tag_124\n      jump\t// in\n    tag_123:\n        /* \"#utility.yul\":2497:2565   */\n      swap4\n      pop\n        /* \"#utility.yul\":2574:2626   */\n      tag_125\n        /* \"#utility.yul\":2619:2625   */\n      dup2\n        /* \"#utility.yul\":2614:2617   */\n      dup6\n        /* \"#utility.yul\":2607:2611   */\n      0x20\n        /* \"#utility.yul\":2600:2605   */\n      dup7\n        /* \"#utility.yul\":2596:2612   */\n      add\n        /* \"#utility.yul\":2574:2626   */\n      tag_126\n      jump\t// in\n    tag_125:\n        /* \"#utility.yul\":2651:2680   */\n      tag_127\n        /* \"#utility.yul\":2673:2679   */\n      dup2\n        /* \"#utility.yul\":2651:2680   */\n      tag_128\n      jump\t// in\n    tag_127:\n        /* \"#utility.yul\":2646:2649   */\n      dup5\n        /* \"#utility.yul\":2642:2681   */\n      add\n        /* \"#utility.yul\":2635:2681   */\n      swap2\n      pop\n        /* \"#utility.yul\":2425:2687   */\n      pop\n        /* \"#utility.yul\":2343:2687   */\n      swap3\n      swap2\n      pop\n      pop\n      jump\t// out\n        /* \"#utility.yul\":2693:3057   */\n    tag_129:\n        /* \"#utility.yul\":2781:2784   */\n      0x00\n        /* \"#utility.yul\":2809:2848   */\n      tag_131\n        /* \"#utility.yul\":2842:2847   */\n      dup3\n        /* \"#utility.yul\":2809:2848   */\n      tag_122\n      jump\t// in\n    tag_131:\n        /* \"#utility.yul\":2864:2935   */\n      tag_132\n        /* \"#utility.yul\":2928:2934   */\n      dup2\n        /* \"#utility.yul\":2923:2926   */\n      dup6\n        /* \"#utility.yul\":2864:2935   */\n      tag_133\n      jump\t// in\n    tag_132:\n        /* \"#utility.yul\":2857:2935   */\n      swap4\n      pop\n        /* \"#utility.yul\":2944:2996   */\n      tag_134\n        /* \"#utility.yul\":2989:2995   */\n      dup2\n        /* \"#utility.yul\":2984:2987   */\n      dup6\n        /* \"#utility.yul\":2977:2981   */\n      0x20\n        /* \"#utility.yul\":2970:2975   */\n      dup7\n        /* \"#utility.yul\":2966:2982   */\n      add\n        /* \"#utility.yul\":2944:2996   */\n      tag_126\n      jump\t// in\n    tag_134:\n        /* \"#utility.yul\":3021:3050   */\n      tag_135\n        /* \"#utility.yul\":3043:3049   */\n      dup2\n        /* \"#utility.yul\":3021:3050   */\n      tag_128\n      jump\t// in\n    tag_135:\n        /* \"#utility.yul\":3016:3019   */\n      dup5\n        /* \"#utility.yul\":3012:3051   */\n      add\n        /* \"#utility.yul\":3005:3051   */\n      swap2\n      pop\n        /* \"#utility.yul\":2785:3057   */\n      pop\n        /* \"#utility.yul\":2693:3057   */\n      swap3\n      swap2\n      pop\n      pop\n      jump\t// out\n        /* \"#utility.yul\":3063:3440   */\n    tag_136:\n        /* \"#utility.yul\":3169:3172   */\n      0x00\n        /* \"#utility.yul\":3197:3236   */\n      tag_138\n        /* \"#utility.yul\":3230:3235   */\n      dup3\n        /* \"#utility.yul\":3197:3236   */\n      tag_122\n      jump\t// in\n    tag_138:\n        /* \"#utility.yul\":3252:3341   */\n      tag_139\n        /* \"#utility.yul\":3334:3340   */\n      dup2\n        /* \"#utility.yul\":3329:3332   */\n      dup6\n        /* \"#utility.yul\":3252:3341   */\n      tag_140\n      jump\t// in\n    tag_139:\n        /* \"#utility.yul\":3245:3341   */\n      swap4\n      pop\n        /* \"#utility.yul\":3350:3402   */\n      tag_141\n        /* \"#utility.yul\":3395:3401   */\n      dup2\n        /* \"#utility.yul\":3390:3393   */\n      dup6\n        /* \"#utility.yul\":3383:3387   */\n      0x20\n        /* \"#utility.yul\":3376:3381   */\n      dup7\n        /* \"#utility.yul\":3372:3388   */\n      add\n        /* \"#utility.yul\":3350:3402   */\n      tag_126\n      jump\t// in\n    tag_141:\n        /* \"#utility.yul\":3427:3433   */\n      dup1\n        /* \"#utility.yul\":3422:3425   */\n      dup5\n        /* \"#utility.yul\":3418:3434   */\n      add\n        /* \"#utility.yul\":3411:3434   */\n      swap2\n      pop\n        /* \"#utility.yul\":3173:3440   */\n      pop\n        /* \"#utility.yul\":3063:3440   */\n      swap3\n      swap2\n      pop\n      pop\n      jump\t// out\n        /* \"#utility.yul\":3490:4339   */\n    tag_142:\n        /* \"#utility.yul\":3599:3602   */\n      0x00\n        /* \"#utility.yul\":3635:3639   */\n      0x60\n        /* \"#utility.yul\":3630:3633   */\n      dup4\n        /* \"#utility.yul\":3626:3640   */\n      add\n        /* \"#utility.yul\":3723:3727   */\n      0x00\n        /* \"#utility.yul\":3716:3721   */\n      dup4\n        /* \"#utility.yul\":3712:3728   */\n      add\n        /* \"#utility.yul\":3706:3729   */\n      mload\n        /* \"#utility.yul\":3776:3779   */\n      dup5\n        /* \"#utility.yul\":3770:3774   */\n      dup3\n        /* \"#utility.yul\":3766:3780   */\n      sub\n        /* \"#utility.yul\":3759:3763   */\n      0x00\n        /* \"#utility.yul\":3754:3757   */\n      dup7\n        /* \"#utility.yul\":3750:3764   */\n      add\n        /* \"#utility.yul\":3743:3781   */\n      mstore\n        /* \"#utility.yul\":3802:3875   */\n      tag_144\n        /* \"#utility.yul\":3870:3874   */\n      dup3\n        /* \"#utility.yul\":3856:3868   */\n      dup3\n        /* \"#utility.yul\":3802:3875   */\n      tag_119\n      jump\t// in\n    tag_144:\n        /* \"#utility.yul\":3794:3875   */\n      swap2\n      pop\n        /* \"#utility.yul\":3650:3886   */\n      pop\n        /* \"#utility.yul\":3975:3979   */\n      0x20\n        /* \"#utility.yul\":3968:3973   */\n      dup4\n        /* \"#utility.yul\":3964:3980   */\n      add\n        /* \"#utility.yul\":3958:3981   */\n      mload\n        /* \"#utility.yul\":4028:4031   */\n      dup5\n        /* \"#utility.yul\":4022:4026   */\n      dup3\n        /* \"#utility.yul\":4018:4032   */\n      sub\n        /* \"#utility.yul\":4011:4015   */\n      0x20\n        /* \"#utility.yul\":4006:4009   */\n      dup7\n        /* \"#utility.yul\":4002:4016   */\n      add\n        /* \"#utility.yul\":3995:4033   */\n      mstore\n        /* \"#utility.yul\":4054:4127   */\n      tag_145\n        /* \"#utility.yul\":4122:4126   */\n      dup3\n        /* \"#utility.yul\":4108:4120   */\n      dup3\n        /* \"#utility.yul\":4054:4127   */\n      tag_119\n      jump\t// in\n    tag_145:\n        /* \"#utility.yul\":4046:4127   */\n      swap2\n      pop\n        /* \"#utility.yul\":3896:4138   */\n      pop\n        /* \"#utility.yul\":4220:4224   */\n      0x40\n        /* \"#utility.yul\":4213:4218   */\n      dup4\n        /* \"#utility.yul\":4209:4225   */\n      add\n        /* \"#utility.yul\":4203:4226   */\n      mload\n        /* \"#utility.yul\":4239:4302   */\n      tag_146\n        /* \"#utility.yul\":4296:4300   */\n      0x40\n        /* \"#utility.yul\":4291:4294   */\n      dup7\n        /* \"#utility.yul\":4287:4301   */\n      add\n        /* \"#utility.yul\":4273:4285   */\n      dup3\n        /* \"#utility.yul\":4239:4302   */\n      tag_112\n      jump\t// in\n    tag_146:\n        /* \"#utility.yul\":4148:4312   */\n      pop\n        /* \"#utility.yul\":4329:4333   */\n      dup1\n        /* \"#utility.yul\":4322:4333   */\n      swap2\n      pop\n        /* \"#utility.yul\":3604:4339   */\n      pop\n        /* \"#utility.yul\":3490:4339   */\n      swap3\n      swap2\n      pop\n      pop\n      jump\t// out\n        /* \"#utility.yul\":4345:4463   */\n    tag_147:\n        /* \"#utility.yul\":4432:4456   */\n      tag_149\n        /* \"#utility.yul\":4450:4455   */\n      dup2\n        /* \"#utility.yul\":4432:4456   */\n      tag_150\n      jump\t// in\n    tag_149:\n        /* \"#utility.yul\":4427:4430   */\n      dup3\n        /* \"#utility.yul\":4420:4457   */\n      mstore\n        /* \"#utility.yul\":4345:4463   */\n      pop\n      pop\n      jump\t// out\n        /* \"#utility.yul\":4469:4744   */\n    tag_37:\n        /* \"#utility.yul\":4601:4604   */\n      0x00\n        /* \"#utility.yul\":4623:4718   */\n      tag_152\n        /* \"#utility.yul\":4714:4717   */\n      dup3\n        /* \"#utility.yul\":4705:4711   */\n      dup5\n        /* \"#utility.yul\":4623:4718   */\n      tag_136\n      jump\t// in\n    tag_152:\n        /* \"#utility.yul\":4616:4718   */\n      swap2\n      pop\n        /* \"#utility.yul\":4735:4738   */\n      dup2\n        /* \"#utility.yul\":4728:4738   */\n      swap1\n      pop\n        /* \"#utility.yul\":4469:4744   */\n      swap3\n      swap2\n      pop\n      pop\n      jump\t// out\n        /* \"#utility.yul\":4750:4972   */\n    tag_13:\n        /* \"#utility.yul\":4843:4847   */\n      0x00\n        /* \"#utility.yul\":4881:4883   */\n      0x20\n        /* \"#utility.yul\":4870:4879   */\n      dup3\n        /* \"#utility.yul\":4866:4884   */\n      add\n        /* \"#utility.yul\":4858:4884   */\n      swap1\n      pop\n        /* \"#utility.yul\":4894:4965   */\n      tag_154\n        /* \"#utility.yul\":4962:4963   */\n      0x00\n        /* \"#utility.yul\":4951:4960   */\n      dup4\n        /* \"#utility.yul\":4947:4964   */\n      add\n        /* \"#utility.yul\":4938:4944   */\n      dup5\n        /* \"#utility.yul\":4894:4965   */\n      tag_116\n      jump\t// in\n    tag_154:\n        /* \"#utility.yul\":4750:4972   */\n      swap3\n      swap2\n      pop\n      pop\n      jump\t// out\n        /* \"#utility.yul\":4978:5602   */\n    tag_31:\n        /* \"#utility.yul\":5167:5171   */\n      0x00\n        /* \"#utility.yul\":5205:5207   */\n      0x60\n        /* \"#utility.yul\":5194:5203   */\n      dup3\n        /* \"#utility.yul\":5190:5208   */\n      add\n        /* \"#utility.yul\":5182:5208   */\n      swap1\n      pop\n        /* \"#utility.yul\":5254:5263   */\n      dup2\n        /* \"#utility.yul\":5248:5252   */\n      dup2\n        /* \"#utility.yul\":5244:5264   */\n      sub\n        /* \"#utility.yul\":5240:5241   */\n      0x00\n        /* \"#utility.yul\":5229:5238   */\n      dup4\n        /* \"#utility.yul\":5225:5242   */\n      add\n        /* \"#utility.yul\":5218:5265   */\n      mstore\n        /* \"#utility.yul\":5282:5360   */\n      tag_156\n        /* \"#utility.yul\":5355:5359   */\n      dup2\n        /* \"#utility.yul\":5346:5352   */\n      dup7\n        /* \"#utility.yul\":5282:5360   */\n      tag_129\n      jump\t// in\n    tag_156:\n        /* \"#utility.yul\":5274:5360   */\n      swap1\n      pop\n        /* \"#utility.yul\":5407:5416   */\n      dup2\n        /* \"#utility.yul\":5401:5405   */\n      dup2\n        /* \"#utility.yul\":5397:5417   */\n      sub\n        /* \"#utility.yul\":5392:5394   */\n      0x20\n        /* \"#utility.yul\":5381:5390   */\n      dup4\n        /* \"#utility.yul\":5377:5395   */\n      add\n        /* \"#utility.yul\":5370:5418   */\n      mstore\n        /* \"#utility.yul\":5435:5513   */\n      tag_157\n        /* \"#utility.yul\":5508:5512   */\n      dup2\n        /* \"#utility.yul\":5499:5505   */\n      dup6\n        /* \"#utility.yul\":5435:5513   */\n      tag_129\n      jump\t// in\n    tag_157:\n        /* \"#utility.yul\":5427:5513   */\n      swap1\n      pop\n        /* \"#utility.yul\":5523:5595   */\n      tag_158\n        /* \"#utility.yul\":5591:5593   */\n      0x40\n        /* \"#utility.yul\":5580:5589   */\n      dup4\n        /* \"#utility.yul\":5576:5594   */\n      add\n        /* \"#utility.yul\":5567:5573   */\n      dup5\n        /* \"#utility.yul\":5523:5595   */\n      tag_116\n      jump\t// in\n    tag_158:\n        /* \"#utility.yul\":4978:5602   */\n      swap5\n      swap4\n      pop\n      pop\n      pop\n      pop\n      jump\t// out\n        /* \"#utility.yul\":5608:5961   */\n    tag_26:\n        /* \"#utility.yul\":5741:5745   */\n      0x00\n        /* \"#utility.yul\":5779:5781   */\n      0x20\n        /* \"#utility.yul\":5768:5777   */\n      dup3\n        /* \"#utility.yul\":5764:5782   */\n      add\n        /* \"#utility.yul\":5756:5782   */\n      swap1\n      pop\n        /* \"#utility.yul\":5828:5837   */\n      dup2\n        /* \"#utility.yul\":5822:5826   */\n      dup2\n        /* \"#utility.yul\":5818:5838   */\n      sub\n        /* \"#utility.yul\":5814:5815   */\n      0x00\n        /* \"#utility.yul\":5803:5812   */\n      dup4\n        /* \"#utility.yul\":5799:5816   */\n      add\n        /* \"#utility.yul\":5792:5839   */\n      mstore\n        /* \"#utility.yul\":5856:5954   */\n      tag_160\n        /* \"#utility.yul\":5949:5953   */\n      dup2\n        /* \"#utility.yul\":5940:5946   */\n      dup5\n        /* \"#utility.yul\":5856:5954   */\n      tag_142\n      jump\t// in\n    tag_160:\n        /* \"#utility.yul\":5848:5954   */\n      swap1\n      pop\n        /* \"#utility.yul\":5608:5961   */\n      swap3\n      swap2\n      pop\n      pop\n      jump\t// out\n        /* \"#utility.yul\":5967:6189   */\n    tag_21:\n        /* \"#utility.yul\":6060:6064   */\n      0x00\n        /* \"#utility.yul\":6098:6100   */\n      0x20\n        /* \"#utility.yul\":6087:6096   */\n      dup3\n        /* \"#utility.yul\":6083:6101   */\n      add\n        /* \"#utility.yul\":6075:6101   */\n      swap1\n      pop\n        /* \"#utility.yul\":6111:6182   */\n      tag_162\n        /* \"#utility.yul\":6179:6180   */\n      0x00\n        /* \"#utility.yul\":6168:6177   */\n      dup4\n        /* \"#utility.yul\":6164:6181   */\n      add\n        /* \"#utility.yul\":6155:6161   */\n      dup5\n        /* \"#utility.yul\":6111:6182   */\n      tag_147\n      jump\t// in\n    tag_162:\n        /* \"#utility.yul\":5967:6189   */\n      swap3\n      swap2\n      pop\n      pop\n      jump\t// out\n        /* \"#utility.yul\":6195:6324   */\n    tag_81:\n        /* \"#utility.yul\":6229:6235   */\n      0x00\n        /* \"#utility.yul\":6256:6276   */\n      tag_164\n      tag_165\n      jump\t// in\n    tag_164:\n        /* \"#utility.yul\":6246:6276   */\n      swap1\n      pop\n        /* \"#utility.yul\":6285:6318   */\n      tag_166\n        /* \"#utility.yul\":6313:6317   */\n      dup3\n        /* \"#utility.yul\":6305:6311   */\n      dup3\n        /* \"#utility.yul\":6285:6318   */\n      tag_167\n      jump\t// in\n    tag_166:\n        /* \"#utility.yul\":6195:6324   */\n      swap2\n      swap1\n      pop\n      jump\t// out\n        /* \"#utility.yul\":6330:6405   */\n    tag_165:\n        /* \"#utility.yul\":6363:6369   */\n      0x00\n        /* \"#utility.yul\":6396:6398   */\n      0x40\n        /* \"#utility.yul\":6390:6399   */\n      mload\n        /* \"#utility.yul\":6380:6399   */\n      swap1\n      pop\n        /* \"#utility.yul\":6330:6405   */\n      swap1\n      jump\t// out\n        /* \"#utility.yul\":6411:6719   */\n    tag_80:\n        /* \"#utility.yul\":6473:6477   */\n      0x00\n        /* \"#utility.yul\":6563:6581   */\n      0xffffffffffffffff\n        /* \"#utility.yul\":6555:6561   */\n      dup3\n        /* \"#utility.yul\":6552:6582   */\n      gt\n        /* \"#utility.yul\":6549:6605   */\n      iszero\n      tag_170\n      jumpi\n        /* \"#utility.yul\":6585:6603   */\n      tag_171\n      tag_172\n      jump\t// in\n    tag_171:\n        /* \"#utility.yul\":6549:6605   */\n    tag_170:\n        /* \"#utility.yul\":6623:6652   */\n      tag_173\n        /* \"#utility.yul\":6645:6651   */\n      dup3\n        /* \"#utility.yul\":6623:6652   */\n      tag_128\n      jump\t// in\n    tag_173:\n        /* \"#utility.yul\":6615:6652   */\n      swap1\n      pop\n        /* \"#utility.yul\":6707:6711   */\n      0x20\n        /* \"#utility.yul\":6701:6705   */\n      dup2\n        /* \"#utility.yul\":6697:6712   */\n      add\n        /* \"#utility.yul\":6689:6712   */\n      swap1\n      pop\n        /* \"#utility.yul\":6411:6719   */\n      swap2\n      swap1\n      pop\n      jump\t// out\n        /* \"#utility.yul\":6725:6824   */\n    tag_122:\n        /* \"#utility.yul\":6777:6783   */\n      0x00\n        /* \"#utility.yul\":6811:6816   */\n      dup2\n        /* \"#utility.yul\":6805:6817   */\n      mload\n        /* \"#utility.yul\":6795:6817   */\n      swap1\n      pop\n        /* \"#utility.yul\":6725:6824   */\n      swap2\n      swap1\n      pop\n      jump\t// out\n        /* \"#utility.yul\":6830:6989   */\n    tag_124:\n        /* \"#utility.yul\":6904:6915   */\n      0x00\n        /* \"#utility.yul\":6938:6944   */\n      dup3\n        /* \"#utility.yul\":6933:6936   */\n      dup3\n        /* \"#utility.yul\":6926:6945   */\n      mstore\n        /* \"#utility.yul\":6978:6982   */\n      0x20\n        /* \"#utility.yul\":6973:6976   */\n      dup3\n        /* \"#utility.yul\":6969:6983   */\n      add\n        /* \"#utility.yul\":6954:6983   */\n      swap1\n      pop\n        /* \"#utility.yul\":6830:6989   */\n      swap3\n      swap2\n      pop\n      pop\n      jump\t// out\n        /* \"#utility.yul\":6995:7164   */\n    tag_133:\n        /* \"#utility.yul\":7079:7090   */\n      0x00\n        /* \"#utility.yul\":7113:7119   */\n      dup3\n        /* \"#utility.yul\":7108:7111   */\n      dup3\n        /* \"#utility.yul\":7101:7120   */\n      mstore\n        /* \"#utility.yul\":7153:7157   */\n      0x20\n        /* \"#utility.yul\":7148:7151   */\n      dup3\n        /* \"#utility.yul\":7144:7158   */\n      add\n        /* \"#utility.yul\":7129:7158   */\n      swap1\n      pop\n        /* \"#utility.yul\":6995:7164   */\n      swap3\n      swap2\n      pop\n      pop\n      jump\t// out\n        /* \"#utility.yul\":7170:7318   */\n    tag_140:\n        /* \"#utility.yul\":7272:7283   */\n      0x00\n        /* \"#utility.yul\":7309:7312   */\n      dup2\n        /* \"#utility.yul\":7294:7312   */\n      swap1\n      pop\n        /* \"#utility.yul\":7170:7318   */\n      swap3\n      swap2\n      pop\n      pop\n      jump\t// out\n        /* \"#utility.yul\":7324:7420   */\n    tag_115:\n        /* \"#utility.yul\":7361:7368   */\n      0x00\n        /* \"#utility.yul\":7390:7414   */\n      tag_179\n        /* \"#utility.yul\":7408:7413   */\n      dup3\n        /* \"#utility.yul\":7390:7414   */\n      tag_180\n      jump\t// in\n    tag_179:\n        /* \"#utility.yul\":7379:7414   */\n      swap1\n      pop\n        /* \"#utility.yul\":7324:7420   */\n      swap2\n      swap1\n      pop\n      jump\t// out\n        /* \"#utility.yul\":7426:7552   */\n    tag_180:\n        /* \"#utility.yul\":7463:7470   */\n      0x00\n        /* \"#utility.yul\":7503:7545   */\n      0xffffffffffffffffffffffffffffffffffffffff\n        /* \"#utility.yul\":7496:7501   */\n      dup3\n        /* \"#utility.yul\":7492:7546   */\n      and\n        /* \"#utility.yul\":7481:7546   */\n      swap1\n      pop\n        /* \"#utility.yul\":7426:7552   */\n      swap2\n      swap1\n      pop\n      jump\t// out\n        /* \"#utility.yul\":7558:7635   */\n    tag_150:\n        /* \"#utility.yul\":7595:7602   */\n      0x00\n        /* \"#utility.yul\":7624:7629   */\n      dup2\n        /* \"#utility.yul\":7613:7629   */\n      swap1\n      pop\n        /* \"#utility.yul\":7558:7635   */\n      swap2\n      swap1\n      pop\n      jump\t// out\n        /* \"#utility.yul\":7641:7795   */\n    tag_86:\n        /* \"#utility.yul\":7725:7731   */\n      dup3\n        /* \"#utility.yul\":7720:7723   */\n      dup2\n        /* \"#utility.yul\":7715:7718   */\n      dup4\n        /* \"#utility.yul\":7702:7732   */\n      calldatacopy\n        /* \"#utility.yul\":7787:7788   */\n      0x00\n        /* \"#utility.yul\":7778:7784   */\n      dup4\n        /* \"#utility.yul\":7773:7776   */\n      dup4\n        /* \"#utility.yul\":7769:7785   */\n      add\n        /* \"#utility.yul\":7762:7789   */\n      mstore\n        /* \"#utility.yul\":7641:7795   */\n      pop\n      pop\n      pop\n      jump\t// out\n        /* \"#utility.yul\":7801:8108   */\n    tag_126:\n        /* \"#utility.yul\":7869:7870   */\n      0x00\n        /* \"#utility.yul\":7879:7992   */\n    tag_185:\n        /* \"#utility.yul\":7893:7899   */\n      dup4\n        /* \"#utility.yul\":7890:7891   */\n      dup2\n        /* \"#utility.yul\":7887:7900   */\n      lt\n        /* \"#utility.yul\":7879:7992   */\n      iszero\n      tag_187\n      jumpi\n        /* \"#utility.yul\":7978:7979   */\n      dup1\n        /* \"#utility.yul\":7973:7976   */\n      dup3\n        /* \"#utility.yul\":7969:7980   */\n      add\n        /* \"#utility.yul\":7963:7981   */\n      mload\n        /* \"#utility.yul\":7959:7960   */\n      dup2\n        /* \"#utility.yul\":7954:7957   */\n      dup5\n        /* \"#utility.yul\":7950:7961   */\n      add\n        /* \"#utility.yul\":7943:7982   */\n      mstore\n        /* \"#utility.yul\":7915:7917   */\n      0x20\n        /* \"#utility.yul\":7912:7913   */\n      dup2\n        /* \"#utility.yul\":7908:7918   */\n      add\n        /* \"#utility.yul\":7903:7918   */\n      swap1\n      pop\n        /* \"#utility.yul\":7879:7992   */\n      jump(tag_185)\n    tag_187:\n        /* \"#utility.yul\":8010:8016   */\n      dup4\n        /* \"#utility.yul\":8007:8008   */\n      dup2\n        /* \"#utility.yul\":8004:8017   */\n      gt\n        /* \"#utility.yul\":8001:8102   */\n      iszero\n      tag_188\n      jumpi\n        /* \"#utility.yul\":8090:8091   */\n      0x00\n        /* \"#utility.yul\":8081:8087   */\n      dup5\n        /* \"#utility.yul\":8076:8079   */\n      dup5\n        /* \"#utility.yul\":8072:8088   */\n      add\n        /* \"#utility.yul\":8065:8092   */\n      mstore\n        /* \"#utility.yul\":8001:8102   */\n    tag_188:\n        /* \"#utility.yul\":7850:8108   */\n      pop\n        /* \"#utility.yul\":7801:8108   */\n      pop\n      pop\n      pop\n      jump\t// out\n        /* \"#utility.yul\":8114:8434   */\n    tag_45:\n        /* \"#utility.yul\":8158:8164   */\n      0x00\n        /* \"#utility.yul\":8195:8196   */\n      0x02\n        /* \"#utility.yul\":8189:8193   */\n      dup3\n        /* \"#utility.yul\":8185:8197   */\n      div\n        /* \"#utility.yul\":8175:8197   */\n      swap1\n      pop\n        /* \"#utility.yul\":8242:8243   */\n      0x01\n        /* \"#utility.yul\":8236:8240   */\n      dup3\n        /* \"#utility.yul\":8232:8244   */\n      and\n        /* \"#utility.yul\":8263:8281   */\n      dup1\n        /* \"#utility.yul\":8253:8334   */\n      tag_190\n      jumpi\n        /* \"#utility.yul\":8319:8323   */\n      0x7f\n        /* \"#utility.yul\":8311:8317   */\n      dup3\n        /* \"#utility.yul\":8307:8324   */\n      and\n        /* \"#utility.yul\":8297:8324   */\n      swap2\n      pop\n        /* \"#utility.yul\":8253:8334   */\n    tag_190:\n        /* \"#utility.yul\":8381:8383   */\n      0x20\n        /* \"#utility.yul\":8373:8379   */\n      dup3\n        /* \"#utility.yul\":8370:8384   */\n      lt\n        /* \"#utility.yul\":8350:8368   */\n      dup2\n        /* \"#utility.yul\":8347:8385   */\n      eq\n        /* \"#utility.yul\":8344:8428   */\n      iszero\n      tag_191\n      jumpi\n        /* \"#utility.yul\":8400:8418   */\n      tag_192\n      tag_193\n      jump\t// in\n    tag_192:\n        /* \"#utility.yul\":8344:8428   */\n    tag_191:\n        /* \"#utility.yul\":8165:8434   */\n      pop\n        /* \"#utility.yul\":8114:8434   */\n      swap2\n      swap1\n      pop\n      jump\t// out\n        /* \"#utility.yul\":8440:8721   */\n    tag_167:\n        /* \"#utility.yul\":8523:8550   */\n      tag_195\n        /* \"#utility.yul\":8545:8549   */\n      dup3\n        /* \"#utility.yul\":8523:8550   */\n      tag_128\n      jump\t// in\n    tag_195:\n        /* \"#utility.yul\":8515:8521   */\n      dup2\n        /* \"#utility.yul\":8511:8551   */\n      add\n        /* \"#utility.yul\":8653:8659   */\n      dup2\n        /* \"#utility.yul\":8641:8651   */\n      dup2\n        /* \"#utility.yul\":8638:8660   */\n      lt\n        /* \"#utility.yul\":8617:8635   */\n      0xffffffffffffffff\n        /* \"#utility.yul\":8605:8615   */\n      dup3\n        /* \"#utility.yul\":8602:8636   */\n      gt\n        /* \"#utility.yul\":8599:8661   */\n      or\n        /* \"#utility.yul\":8596:8684   */\n      iszero\n      tag_196\n      jumpi\n        /* \"#utility.yul\":8664:8682   */\n      tag_197\n      tag_172\n      jump\t// in\n    tag_197:\n        /* \"#utility.yul\":8596:8684   */\n    tag_196:\n        /* \"#utility.yul\":8704:8714   */\n      dup1\n        /* \"#utility.yul\":8700:8702   */\n      0x40\n        /* \"#utility.yul\":8693:8715   */\n      mstore\n        /* \"#utility.yul\":8483:8721   */\n      pop\n        /* \"#utility.yul\":8440:8721   */\n      pop\n      pop\n      jump\t// out\n        /* \"#utility.yul\":8727:8960   */\n    tag_40:\n        /* \"#utility.yul\":8766:8769   */\n      0x00\n        /* \"#utility.yul\":8789:8813   */\n      tag_199\n        /* \"#utility.yul\":8807:8812   */\n      dup3\n        /* \"#utility.yul\":8789:8813   */\n      tag_150\n      jump\t// in\n    tag_199:\n        /* \"#utility.yul\":8780:8813   */\n      swap2\n      pop\n        /* \"#utility.yul\":8835:8901   */\n      0xffffffffffffffffffffffffffffffffffffffffffffffffffffffffffffffff\n        /* \"#utility.yul\":8828:8833   */\n      dup3\n        /* \"#utility.yul\":8825:8902   */\n      eq\n        /* \"#utility.yul\":8822:8925   */\n      iszero\n      tag_200\n      jumpi\n        /* \"#utility.yul\":8905:8923   */\n      tag_201\n      tag_202\n      jump\t// in\n    tag_201:\n        /* \"#utility.yul\":8822:8925   */\n    tag_200:\n        /* \"#utility.yul\":8952:8953   */\n      0x01\n        /* \"#utility.yul\":8945:8950   */\n      dup3\n        /* \"#utility.yul\":8941:8954   */\n      add\n        /* \"#utility.yul\":8934:8954   */\n      swap1\n      pop\n        /* \"#utility.yul\":8727:8960   */\n      swap2\n      swap1\n      pop\n      jump\t// out\n        /* \"#utility.yul\":8966:9146   */\n    tag_202:\n        /* \"#utility.yul\":9014:9091   */\n      0x4e487b7100000000000000000000000000000000000000000000000000000000\n        /* \"#utility.yul\":9011:9012   */\n      0x00\n        /* \"#utility.yul\":9004:9092   */\n      mstore\n        /* \"#utility.yul\":9111:9115   */\n      0x11\n        /* \"#utility.yul\":9108:9109   */\n      0x04\n        /* \"#utility.yul\":9101:9116   */\n      mstore\n        /* \"#utility.yul\":9135:9139   */\n      0x24\n        /* \"#utility.yul\":9132:9133   */\n      0x00\n        /* \"#utility.yul\":9125:9140   */\n      revert\n        /* \"#utility.yul\":9152:9332   */\n    tag_193:\n        /* \"#utility.yul\":9200:9277   */\n      0x4e487b7100000000000000000000000000000000000000000000000000000000\n        /* \"#utility.yul\":9197:9198   */\n      0x00\n        /* \"#utility.yul\":9190:9278   */\n      mstore\n        /* \"#utility.yul\":9297:9301   */\n      0x22\n        /* \"#utility.yul\":9294:9295   */\n      0x04\n        /* \"#utility.yul\":9287:9302   */\n      mstore\n        /* \"#utility.yul\":9321:9325   */\n      0x24\n        /* \"#utility.yul\":9318:9319   */\n      0x00\n        /* \"#utility.yul\":9311:9326   */\n      revert\n        /* \"#utility.yul\":9338:9518   */\n    tag_172:\n        /* \"#utility.yul\":9386:9463   */\n      0x4e487b7100000000000000000000000000000000000000000000000000000000\n        /* \"#utility.yul\":9383:9384   */\n      0x00\n        /* \"#utility.yul\":9376:9464   */\n      mstore\n        /* \"#utility.yul\":9483:9487   */\n      0x41\n        /* \"#utility.yul\":9480:9481   */\n      0x04\n        /* \"#utility.yul\":9473:9488   */\n      mstore\n        /* \"#utility.yul\":9507:9511   */\n      0x24\n        /* \"#utility.yul\":9504:9505   */\n      0x00\n        /* \"#utility.yul\":9497:9512   */\n      revert\n        /* \"#utility.yul\":9524:9641   */\n    tag_91:\n        /* \"#utility.yul\":9633:9634   */\n      0x00\n        /* \"#utility.yul\":9630:9631   */\n      dup1\n        /* \"#utility.yul\":9623:9635   */\n      revert\n        /* \"#utility.yul\":9647:9764   */\n    tag_84:\n        /* \"#utility.yul\":9756:9757   */\n      0x00\n        /* \"#utility.yul\":9753:9754   */\n      dup1\n        /* \"#utility.yul\":9746:9758   */\n      revert\n        /* \"#utility.yul\":9770:9887   */\n    tag_103:\n        /* \"#utility.yul\":9879:9880   */\n      0x00\n        /* \"#utility.yul\":9876:9877   */\n      dup1\n        /* \"#utility.yul\":9869:9881   */\n      revert\n        /* \"#utility.yul\":9893:10010   */\n    tag_100:\n        /* \"#utility.yul\":10002:10003   */\n      0x00\n        /* \"#utility.yul\":9999:10000   */\n      dup1\n        /* \"#utility.yul\":9992:10004   */\n      revert\n        /* \"#utility.yul\":10016:10118   */\n    tag_128:\n        /* \"#utility.yul\":10057:10063   */\n      0x00\n        /* \"#utility.yul\":10108:10110   */\n      0x1f\n        /* \"#utility.yul\":10104:10111   */\n      not\n        /* \"#utility.yul\":10099:10101   */\n      0x1f\n        /* \"#utility.yul\":10092:10097   */\n      dup4\n        /* \"#utility.yul\":10088:10102   */\n      add\n        /* \"#utility.yul\":10084:10112   */\n      and\n        /* \"#utility.yul\":10074:10112   */\n      swap1\n      pop\n        /* \"#utility.yul\":10016:10118   */\n      swap2\n      swap1\n      pop\n      jump\t// out\n        /* \"#utility.yul\":10124:10246   */\n    tag_96:\n        /* \"#utility.yul\":10197:10221   */\n      tag_212\n        /* \"#utility.yul\":10215:10220   */\n      dup2\n        /* \"#utility.yul\":10197:10221   */\n      tag_150\n      jump\t// in\n    tag_212:\n        /* \"#utility.yul\":10190:10195   */\n      dup2\n        /* \"#utility.yul\":10187:10222   */\n      eq\n        /* \"#utility.yul\":10177:10240   */\n      tag_213\n      jumpi\n        /* \"#utility.yul\":10236:10237   */\n      0x00\n        /* \"#utility.yul\":10233:10234   */\n      dup1\n        /* \"#utility.yul\":10226:10238   */\n      revert\n        /* \"#utility.yul\":10177:10240   */\n    tag_213:\n        /* \"#utility.yul\":10124:10246   */\n      pop\n      jump\t// out\n\n    auxdata: 0xa264697066735822122080fa6fac49eb84bcec21aee9ddebb5729cc6c99e9c7def35b3c92eb332416a2064736f6c63430008070033\n}\n",
				"bytecode": {
					"linkReferences": {},
					"object": "60806040526000805534801561001457600080fd5b50610c4b806100246000396000f3fe608060405234801561001057600080fd5b50600436106100575760003560e01c80630b1e7f831461005c578063392338f51461008c57806361bc221a146100a8578063ca6f69f5146100c6578063fdd6ea71146100f6575b600080fd5b6100766004803603810190610071919061078c565b610128565b60405161008391906108f7565b60405180910390f35b6100a660048036038101906100a19190610714565b61015b565b005b6100b06102ae565b6040516100bd9190610979565b60405180910390f35b6100e060048036038101906100db919061078c565b6102b4565b6040516100ed9190610957565b60405180910390f35b610110600480360381019061010b919061078c565b61045b565b60405161011f93929190610912565b60405180910390f35b60016020528060005260406000206000915054906101000a900473ffffffffffffffffffffffffffffffffffffffff1681565b60405180606001604052808381526020018281526020013373ffffffffffffffffffffffffffffffffffffffff16815250600260008054815260200190815260200160002060008201518160000190805190602001906101bc9291906105b5565b5060208201518160010190805190602001906101d99291906105b5565b5060408201518160020160006101000a81548173ffffffffffffffffffffffffffffffffffffffff021916908373ffffffffffffffffffffffffffffffffffffffff1602179055509050508060405161023291906108e0565b60405180910390208260405161024891906108e0565b60405180910390203373ffffffffffffffffffffffffffffffffffffffff167f4eacffc497062f11928adc3628e2047cd720623235f6f37529db1d95cc75ecbf60405160405180910390a46000808154809291906102a590610b03565b91905055505050565b60005481565b6102bc61063b565b600260008381526020019081526020016000206040518060600160405290816000820180546102ea90610aa0565b80601f016020809104026020016040519081016040528092919081815260200182805461031690610aa0565b80156103635780601f1061033857610100808354040283529160200191610363565b820191906000526020600020905b81548152906001019060200180831161034657829003601f168201915b5050505050815260200160018201805461037c90610aa0565b80601f01602080910402602001604051908101604052809291908181526020018280546103a890610aa0565b80156103f55780601f106103ca576101008083540402835291602001916103f5565b820191906000526020600020905b8154815290600101906020018083116103d857829003601f168201915b505050505081526020016002820160009054906101000a900473ffffffffffffffffffffffffffffffffffffffff1673ffffffffffffffffffffffffffffffffffffffff1673ffffffffffffffffffffffffffffffffffffffff16815250509050919050565b600260205280600052604060002060009150905080600001805461047e90610aa0565b80601f01602080910402602001604051908101604052809291908181526020018280546104aa90610aa0565b80156104f75780601f106104cc576101008083540402835291602001916104f7565b820191906000526020600020905b8154815290600101906020018083116104da57829003601f168201915b50505050509080600101805461050c90610aa0565b80601f016020809104026020016040519081016040528092919081815260200182805461053890610aa0565b80156105855780601f1061055a57610100808354040283529160200191610585565b820191906000526020600020905b81548152906001019060200180831161056857829003601f168201915b5050505050908060020160009054906101000a900473ffffffffffffffffffffffffffffffffffffffff16905083565b8280546105c190610aa0565b90600052602060002090601f0160209004810192826105e3576000855561062a565b82601f106105fc57805160ff191683800117855561062a565b8280016001018555821561062a579182015b8281111561062957825182559160200191906001019061060e565b5b5090506106379190610672565b5090565b60405180606001604052806060815260200160608152602001600073ffffffffffffffffffffffffffffffffffffffff1681525090565b5b8082111561068b576000816000905550600101610673565b5090565b60006106a261069d846109b9565b610994565b9050828152602081018484840111156106be576106bd610bde565b5b6106c9848285610a5e565b509392505050565b600082601f8301126106e6576106e5610bd9565b5b81356106f684826020860161068f565b91505092915050565b60008135905061070e81610bfe565b92915050565b6000806040838503121561072b5761072a610be8565b5b600083013567ffffffffffffffff81111561074957610748610be3565b5b610755858286016106d1565b925050602083013567ffffffffffffffff81111561077657610775610be3565b5b610782858286016106d1565b9150509250929050565b6000602082840312156107a2576107a1610be8565b5b60006107b0848285016106ff565b91505092915050565b6107c281610a22565b82525050565b6107d181610a22565b82525050565b60006107e2826109ea565b6107ec81856109f5565b93506107fc818560208601610a6d565b61080581610bed565b840191505092915050565b600061081b826109ea565b6108258185610a06565b9350610835818560208601610a6d565b61083e81610bed565b840191505092915050565b6000610854826109ea565b61085e8185610a17565b935061086e818560208601610a6d565b80840191505092915050565b6000606083016000830151848203600086015261089782826107d7565b915050602083015184820360208601526108b182826107d7565b91505060408301516108c660408601826107b9565b508091505092915050565b6108da81610a54565b82525050565b60006108ec8284610849565b915081905092915050565b600060208201905061090c60008301846107c8565b92915050565b6000606082019050818103600083015261092c8186610810565b905081810360208301526109408185610810565b905061094f60408301846107c8565b949350505050565b60006020820190508181036000830152610971818461087a565b905092915050565b600060208201905061098e60008301846108d1565b92915050565b600061099e6109af565b90506109aa8282610ad2565b919050565b6000604051905090565b600067ffffffffffffffff8211156109d4576109d3610baa565b5b6109dd82610bed565b9050602081019050919050565b600081519050919050565b600082825260208201905092915050565b600082825260208201905092915050565b600081905092915050565b6000610a2d82610a34565b9050919050565b600073ffffffffffffffffffffffffffffffffffffffff82169050919050565b6000819050919050565b82818337600083830152505050565b60005b83811015610a8b578082015181840152602081019050610a70565b83811115610a9a576000848401525b50505050565b60006002820490506001821680610ab857607f821691505b60208210811415610acc57610acb610b7b565b5b50919050565b610adb82610bed565b810181811067ffffffffffffffff82111715610afa57610af9610baa565b5b80604052505050565b6000610b0e82610a54565b91507fffffffffffffffffffffffffffffffffffffffffffffffffffffffffffffffff821415610b4157610b40610b4c565b5b600182019050919050565b7f4e487b7100000000000000000000000000000000000000000000000000000000600052601160045260246000fd5b7f4e487b7100000000000000000000000000000000000000000000000000000000600052602260045260246000fd5b7f4e487b7100000000000000000000000000000000000000000000000000000000600052604160045260246000fd5b600080fd5b600080fd5b600080fd5b600080fd5b6000601f19601f8301169050919050565b610c0781610a54565b8114610c1257600080fd5b5056fea264697066735822122080fa6fac49eb84bcec21aee9ddebb5729cc6c99e9c7def35b3c92eb332416a2064736f6c63430008070033",
					"opcodes": "PUSH1 0x80 PUSH1 0x40 MSTORE PUSH1 0x0 DUP1 SSTORE CALLVALUE DUP1 ISZERO PUSH2 0x14 JUMPI PUSH1 0x0 DUP1 REVERT JUMPDEST POP PUSH2 0xC4B DUP1 PUSH2 0x24 PUSH1 0x0 CODECOPY PUSH1 0x0 RETURN INVALID PUSH1 0x80 PUSH1 0x40 MSTORE CALLVALUE DUP1 ISZERO PUSH2 0x10 JUMPI PUSH1 0x0 DUP1 REVERT JUMPDEST POP PUSH1 0x4 CALLDATASIZE LT PUSH2 0x57 JUMPI PUSH1 0x0 CALLDATALOAD PUSH1 0xE0 SHR DUP1 PUSH4 0xB1E7F83 EQ PUSH2 0x5C JUMPI DUP1 PUSH4 0x392338F5 EQ PUSH2 0x8C JUMPI DUP1 PUSH4 0x61BC221A EQ PUSH2 0xA8 JUMPI DUP1 PUSH4 0xCA6F69F5 EQ PUSH2 0xC6 JUMPI DUP1 PUSH4 0xFDD6EA71 EQ PUSH2 0xF6 JUMPI JUMPDEST PUSH1 0x0 DUP1 REVERT JUMPDEST PUSH2 0x76 PUSH1 0x4 DUP1 CALLDATASIZE SUB DUP2 ADD SWAP1 PUSH2 0x71 SWAP2 SWAP1 PUSH2 0x78C JUMP JUMPDEST PUSH2 0x128 JUMP JUMPDEST PUSH1 0x40 MLOAD PUSH2 0x83 SWAP2 SWAP1 PUSH2 0x8F7 JUMP JUMPDEST PUSH1 0x40 MLOAD DUP1 SWAP2 SUB SWAP1 RETURN JUMPDEST PUSH2 0xA6 PUSH1 0x4 DUP1 CALLDATASIZE SUB DUP2 ADD SWAP1 PUSH2 0xA1 SWAP2 SWAP1 PUSH2 0x714 JUMP JUMPDEST PUSH2 0x15B JUMP JUMPDEST STOP JUMPDEST PUSH2 0xB0 PUSH2 0x2AE JUMP JUMPDEST PUSH1 0x40 MLOAD PUSH2 0xBD SWAP2 SWAP1 PUSH2 0x979 JUMP JUMPDEST PUSH1 0x40 MLOAD DUP1 SWAP2 SUB SWAP1 RETURN JUMPDEST PUSH2 0xE0 PUSH1 0x4 DUP1 CALLDATASIZE SUB DUP2 ADD SWAP1 PUSH2 0xDB SWAP2 SWAP1 PUSH2 0x78C JUMP JUMPDEST PUSH2 0x2B4 JUMP JUMPDEST PUSH1 0x40 MLOAD PUSH2 0xED SWAP2 SWAP1 PUSH2 0x957 JUMP JUMPDEST PUSH1 0x40 MLOAD DUP1 SWAP2 SUB SWAP1 RETURN JUMPDEST PUSH2 0x110 PUSH1 0x4 DUP1 CALLDATASIZE SUB DUP2 ADD SWAP1 PUSH2 0x10B SWAP2 SWAP1 PUSH2 0x78C JUMP JUMPDEST PUSH2 0x45B JUMP JUMPDEST PUSH1 0x40 MLOAD PUSH2 0x11F SWAP4 SWAP3 SWAP2 SWAP1 PUSH2 0x912 JUMP JUMPDEST PUSH1 0x40 MLOAD DUP1 SWAP2 SUB SWAP1 RETURN JUMPDEST PUSH1 0x1 PUSH1 0x20 MSTORE DUP1 PUSH1 0x0 MSTORE PUSH1 0x40 PUSH1 0x0 KECCAK256 PUSH1 0x0 SWAP2 POP SLOAD SWAP1 PUSH2 0x100 EXP SWAP1 DIV PUSH20 0xFFFFFFFFFFFFFFFFFFFFFFFFFFFFFFFFFFFFFFFF AND DUP2 JUMP JUMPDEST PUSH1 0x40 MLOAD DUP1 PUSH1 0x60 ADD PUSH1 0x40 MSTORE DUP1 DUP4 DUP2 MSTORE PUSH1 0x20 ADD DUP3 DUP2 MSTORE PUSH1 0x20 ADD CALLER PUSH20 0xFFFFFFFFFFFFFFFFFFFFFFFFFFFFFFFFFFFFFFFF AND DUP2 MSTORE POP PUSH1 0x2 PUSH1 0x0 DUP1 SLOAD DUP2 MSTORE PUSH1 0x20 ADD SWAP1 DUP2 MSTORE PUSH1 0x20 ADD PUSH1 0x0 KECCAK256 PUSH1 0x0 DUP3 ADD MLOAD DUP2 PUSH1 0x0 ADD SWAP1 DUP1 MLOAD SWAP1 PUSH1 0x20 ADD SWAP1 PUSH2 0x1BC SWAP3 SWAP2 SWAP1 PUSH2 0x5B5 JUMP JUMPDEST POP PUSH1 0x20 DUP3 ADD MLOAD DUP2 PUSH1 0x1 ADD SWAP1 DUP1 MLOAD SWAP1 PUSH1 0x20 ADD SWAP1 PUSH2 0x1D9 SWAP3 SWAP2 SWAP1 PUSH2 0x5B5 JUMP JUMPDEST POP PUSH1 0x40 DUP3 ADD MLOAD DUP2 PUSH1 0x2 ADD PUSH1 0x0 PUSH2 0x100 EXP DUP2 SLOAD DUP2 PUSH20 0xFFFFFFFFFFFFFFFFFFFFFFFFFFFFFFFFFFFFFFFF MUL NOT AND SWAP1 DUP4 PUSH20 0xFFFFFFFFFFFFFFFFFFFFFFFFFFFFFFFFFFFFFFFF AND MUL OR SWAP1 SSTORE POP SWAP1 POP POP DUP1 PUSH1 0x40 MLOAD PUSH2 0x232 SWAP2 SWAP1 PUSH2 0x8E0 JUMP JUMPDEST PUSH1 0x40 MLOAD DUP1 SWAP2 SUB SWAP1 KECCAK256 DUP3 PUSH1 0x40 MLOAD PUSH2 0x248 SWAP2 SWAP1 PUSH2 0x8E0 JUMP JUMPDEST PUSH1 0x40 MLOAD DUP1 SWAP2 SUB SWAP1 KECCAK256 CALLER PUSH20 0xFFFFFFFFFFFFFFFFFFFFFFFFFFFFFFFFFFFFFFFF AND PUSH32 0x4EACFFC497062F11928ADC3628E2047CD720623235F6F37529DB1D95CC75ECBF PUSH1 0x40 MLOAD PUSH1 0x40 MLOAD DUP1 SWAP2 SUB SWAP1 LOG4 PUSH1 0x0 DUP1 DUP2 SLOAD DUP1 SWAP3 SWAP2 SWAP1 PUSH2 0x2A5 SWAP1 PUSH2 0xB03 JUMP JUMPDEST SWAP2 SWAP1 POP SSTORE POP POP POP JUMP JUMPDEST PUSH1 0x0 SLOAD DUP2 JUMP JUMPDEST PUSH2 0x2BC PUSH2 0x63B JUMP JUMPDEST PUSH1 0x2 PUSH1 0x0 DUP4 DUP2 MSTORE PUSH1 0x20 ADD SWAP1 DUP2 MSTORE PUSH1 0x20 ADD PUSH1 0x0 KECCAK256 PUSH1 0x40 MLOAD DUP1 PUSH1 0x60 ADD PUSH1 0x40 MSTORE SWAP1 DUP2 PUSH1 0x0 DUP3 ADD DUP1 SLOAD PUSH2 0x2EA SWAP1 PUSH2 0xAA0 JUMP JUMPDEST DUP1 PUSH1 0x1F ADD PUSH1 0x20 DUP1 SWAP2 DIV MUL PUSH1 0x20 ADD PUSH1 0x40 MLOAD SWAP1 DUP2 ADD PUSH1 0x40 MSTORE DUP1 SWAP3 SWAP2 SWAP1 DUP2 DUP2 MSTORE PUSH1 0x20 ADD DUP3 DUP1 SLOAD PUSH2 0x316 SWAP1 PUSH2 0xAA0 JUMP JUMPDEST DUP1 ISZERO PUSH2 0x363 JUMPI DUP1 PUSH1 0x1F LT PUSH2 0x338 JUMPI PUSH2 0x100 DUP1 DUP4 SLOAD DIV MUL DUP4 MSTORE SWAP2 PUSH1 0x20 ADD SWAP2 PUSH2 0x363 JUMP JUMPDEST DUP3 ADD SWAP2 SWAP1 PUSH1 0x0 MSTORE PUSH1 0x20 PUSH1 0x0 KECCAK256 SWAP1 JUMPDEST DUP2 SLOAD DUP2 MSTORE SWAP1 PUSH1 0x1 ADD SWAP1 PUSH1 0x20 ADD DUP1 DUP4 GT PUSH2 0x346 JUMPI DUP3 SWAP1 SUB PUSH1 0x1F AND DUP3 ADD SWAP2 JUMPDEST POP POP POP POP POP DUP2 MSTORE PUSH1 0x20 ADD PUSH1 0x1 DUP3 ADD DUP1 SLOAD PUSH2 0x37C SWAP1 PUSH2 0xAA0 JUMP JUMPDEST DUP1 PUSH1 0x1F ADD PUSH1 0x20 DUP1 SWAP2 DIV MUL PUSH1 0x20 ADD PUSH1 0x40 MLOAD SWAP1 DUP2 ADD PUSH1 0x40 MSTORE DUP1 SWAP3 SWAP2 SWAP1 DUP2 DUP2 MSTORE PUSH1 0x20 ADD DUP3 DUP1 SLOAD PUSH2 0x3A8 SWAP1 PUSH2 0xAA0 JUMP JUMPDEST DUP1 ISZERO PUSH2 0x3F5 JUMPI DUP1 PUSH1 0x1F LT PUSH2 0x3CA JUMPI PUSH2 0x100 DUP1 DUP4 SLOAD DIV MUL DUP4 MSTORE SWAP2 PUSH1 0x20 ADD SWAP2 PUSH2 0x3F5 JUMP JUMPDEST DUP3 ADD SWAP2 SWAP1 PUSH1 0x0 MSTORE PUSH1 0x20 PUSH1 0x0 KECCAK256 SWAP1 JUMPDEST DUP2 SLOAD DUP2 MSTORE SWAP1 PUSH1 0x1 ADD SWAP1 PUSH1 0x20 ADD DUP1 DUP4 GT PUSH2 0x3D8 JUMPI DUP3 SWAP1 SUB PUSH1 0x1F AND DUP3 ADD SWAP2 JUMPDEST POP POP POP POP POP DUP2 MSTORE PUSH1 0x20 ADD PUSH1 0x2 DUP3 ADD PUSH1 0x0 SWAP1 SLOAD SWAP1 PUSH2 0x100 EXP SWAP1 DIV PUSH20 0xFFFFFFFFFFFFFFFFFFFFFFFFFFFFFFFFFFFFFFFF AND PUSH20 0xFFFFFFFFFFFFFFFFFFFFFFFFFFFFFFFFFFFFFFFF AND PUSH20 0xFFFFFFFFFFFFFFFFFFFFFFFFFFFFFFFFFFFFFFFF AND DUP2 MSTORE POP POP SWAP1 POP SWAP2 SWAP1 POP JUMP JUMPDEST PUSH1 0x2 PUSH1 0x20 MSTORE DUP1 PUSH1 0x0 MSTORE PUSH1 0x40 PUSH1 0x0 KECCAK256 PUSH1 0x0 SWAP2 POP SWAP1 POP DUP1 PUSH1 0x0 ADD DUP1 SLOAD PUSH2 0x47E SWAP1 PUSH2 0xAA0 JUMP JUMPDEST DUP1 PUSH1 0x1F ADD PUSH1 0x20 DUP1 SWAP2 DIV MUL PUSH1 0x20 ADD PUSH1 0x40 MLOAD SWAP1 DUP2 ADD PUSH1 0x40 MSTORE DUP1 SWAP3 SWAP2 SWAP1 DUP2 DUP2 MSTORE PUSH1 0x20 ADD DUP3 DUP1 SLOAD PUSH2 0x4AA SWAP1 PUSH2 0xAA0 JUMP JUMPDEST DUP1 ISZERO PUSH2 0x4F7 JUMPI DUP1 PUSH1 0x1F LT PUSH2 0x4CC JUMPI PUSH2 0x100 DUP1 DUP4 SLOAD DIV MUL DUP4 MSTORE SWAP2 PUSH1 0x20 ADD SWAP2 PUSH2 0x4F7 JUMP JUMPDEST DUP3 ADD SWAP2 SWAP1 PUSH1 0x0 MSTORE PUSH1 0x20 PUSH1 0x0 KECCAK256 SWAP1 JUMPDEST DUP2 SLOAD DUP2 MSTORE SWAP1 PUSH1 0x1 ADD SWAP1 PUSH1 0x20 ADD DUP1 DUP4 GT PUSH2 0x4DA JUMPI DUP3 SWAP1 SUB PUSH1 0x1F AND DUP3 ADD SWAP2 JUMPDEST POP POP POP POP POP SWAP1 DUP1 PUSH1 0x1 ADD DUP1 SLOAD PUSH2 0x50C SWAP1 PUSH2 0xAA0 JUMP JUMPDEST DUP1 PUSH1 0x1F ADD PUSH1 0x20 DUP1 SWAP2 DIV MUL PUSH1 0x20 ADD PUSH1 0x40 MLOAD SWAP1 DUP2 ADD PUSH1 0x40 MSTORE DUP1 SWAP3 SWAP2 SWAP1 DUP2 DUP2 MSTORE PUSH1 0x20 ADD DUP3 DUP1 SLOAD PUSH2 0x538 SWAP1 PUSH2 0xAA0 JUMP JUMPDEST DUP1 ISZERO PUSH2 0x585 JUMPI DUP1 PUSH1 0x1F LT PUSH2 0x55A JUMPI PUSH2 0x100 DUP1 DUP4 SLOAD DIV MUL DUP4 MSTORE SWAP2 PUSH1 0x20 ADD SWAP2 PUSH2 0x585 JUMP JUMPDEST DUP3 ADD SWAP2 SWAP1 PUSH1 0x0 MSTORE PUSH1 0x20 PUSH1 0x0 KECCAK256 SWAP1 JUMPDEST DUP2 SLOAD DUP2 MSTORE SWAP1 PUSH1 0x1 ADD SWAP1 PUSH1 0x20 ADD DUP1 DUP4 GT PUSH2 0x568 JUMPI DUP3 SWAP1 SUB PUSH1 0x1F AND DUP3 ADD SWAP2 JUMPDEST POP POP POP POP POP SWAP1 DUP1 PUSH1 0x2 ADD PUSH1 0x0 SWAP1 SLOAD SWAP1 PUSH2 0x100 EXP SWAP1 DIV PUSH20 0xFFFFFFFFFFFFFFFFFFFFFFFFFFFFFFFFFFFFFFFF AND SWAP1 POP DUP4 JUMP JUMPDEST DUP3 DUP1 SLOAD PUSH2 0x5C1 SWAP1 PUSH2 0xAA0 JUMP JUMPDEST SWAP1 PUSH1 0x0 MSTORE PUSH1 0x20 PUSH1 0x0 KECCAK256 SWAP1 PUSH1 0x1F ADD PUSH1 0x20 SWAP1 DIV DUP2 ADD SWAP3 DUP3 PUSH2 0x5E3 JUMPI PUSH1 0x0 DUP6 SSTORE PUSH2 0x62A JUMP JUMPDEST DUP3 PUSH1 0x1F LT PUSH2 0x5FC JUMPI DUP1 MLOAD PUSH1 0xFF NOT AND DUP4 DUP1 ADD OR DUP6 SSTORE PUSH2 0x62A JUMP JUMPDEST DUP3 DUP1 ADD PUSH1 0x1 ADD DUP6 SSTORE DUP3 ISZERO PUSH2 0x62A JUMPI SWAP2 DUP3 ADD JUMPDEST DUP3 DUP2 GT ISZERO PUSH2 0x629 JUMPI DUP3 MLOAD DUP3 SSTORE SWAP2 PUSH1 0x20 ADD SWAP2 SWAP1 PUSH1 0x1 ADD SWAP1 PUSH2 0x60E JUMP JUMPDEST JUMPDEST POP SWAP1 POP PUSH2 0x637 SWAP2 SWAP1 PUSH2 0x672 JUMP JUMPDEST POP SWAP1 JUMP JUMPDEST PUSH1 0x40 MLOAD DUP1 PUSH1 0x60 ADD PUSH1 0x40 MSTORE DUP1 PUSH1 0x60 DUP2 MSTORE PUSH1 0x20 ADD PUSH1 0x60 DUP2 MSTORE PUSH1 0x20 ADD PUSH1 0x0 PUSH20 0xFFFFFFFFFFFFFFFFFFFFFFFFFFFFFFFFFFFFFFFF AND DUP2 MSTORE POP SWAP1 JUMP JUMPDEST JUMPDEST DUP1 DUP3 GT ISZERO PUSH2 0x68B JUMPI PUSH1 0x0 DUP2 PUSH1 0x0 SWAP1 SSTORE POP PUSH1 0x1 ADD PUSH2 0x673 JUMP JUMPDEST POP SWAP1 JUMP JUMPDEST PUSH1 0x0 PUSH2 0x6A2 PUSH2 0x69D DUP5 PUSH2 0x9B9 JUMP JUMPDEST PUSH2 0x994 JUMP JUMPDEST SWAP1 POP DUP3 DUP2 MSTORE PUSH1 0x20 DUP2 ADD DUP5 DUP5 DUP5 ADD GT ISZERO PUSH2 0x6BE JUMPI PUSH2 0x6BD PUSH2 0xBDE JUMP JUMPDEST JUMPDEST PUSH2 0x6C9 DUP5 DUP3 DUP6 PUSH2 0xA5E JUMP JUMPDEST POP SWAP4 SWAP3 POP POP POP JUMP JUMPDEST PUSH1 0x0 DUP3 PUSH1 0x1F DUP4 ADD SLT PUSH2 0x6E6 JUMPI PUSH2 0x6E5 PUSH2 0xBD9 JUMP JUMPDEST JUMPDEST DUP2 CALLDATALOAD PUSH2 0x6F6 DUP5 DUP3 PUSH1 0x20 DUP7 ADD PUSH2 0x68F JUMP JUMPDEST SWAP2 POP POP SWAP3 SWAP2 POP POP JUMP JUMPDEST PUSH1 0x0 DUP2 CALLDATALOAD SWAP1 POP PUSH2 0x70E DUP2 PUSH2 0xBFE JUMP JUMPDEST SWAP3 SWAP2 POP POP JUMP JUMPDEST PUSH1 0x0 DUP1 PUSH1 0x40 DUP4 DUP6 SUB SLT ISZERO PUSH2 0x72B JUMPI PUSH2 0x72A PUSH2 0xBE8 JUMP JUMPDEST JUMPDEST PUSH1 0x0 DUP4 ADD CALLDATALOAD PUSH8 0xFFFFFFFFFFFFFFFF DUP2 GT ISZERO PUSH2 0x749 JUMPI PUSH2 0x748 PUSH2 0xBE3 JUMP JUMPDEST JUMPDEST PUSH2 0x755 DUP6 DUP3 DUP7 ADD PUSH2 0x6D1 JUMP JUMPDEST SWAP3 POP POP PUSH1 0x20 DUP4 ADD CALLDATALOAD PUSH8 0xFFFFFFFFFFFFFFFF DUP2 GT ISZERO PUSH2 0x776 JUMPI PUSH2 0x775 PUSH2 0xBE3 JUMP JUMPDEST JUMPDEST PUSH2 0x782 DUP6 DUP3 DUP7 ADD PUSH2 0x6D1 JUMP JUMPDEST SWAP2 POP POP SWAP3 POP SWAP3 SWAP1 POP JUMP JUMPDEST PUSH1 0x0 PUSH1 0x20 DUP3 DUP5 SUB SLT ISZERO PUSH2 0x7A2 JUMPI PUSH2 0x7A1 PUSH2 0xBE8 JUMP JUMPDEST JUMPDEST PUSH1 0x0 PUSH2 0x7B0 DUP5 DUP3 DUP6 ADD PUSH2 0x6FF JUMP JUMPDEST SWAP2 POP POP SWAP3 SWAP2 POP POP JUMP JUMPDEST PUSH2 0x7C2 DUP2 PUSH2 0xA22 JUMP JUMPDEST DUP3 MSTORE POP POP JUMP JUMPDEST PUSH2 0x7D1 DUP2 PUSH2 0xA22 JUMP JUMPDEST DUP3 MSTORE POP POP JUMP JUMPDEST PUSH1 0x0 PUSH2 0x7E2 DUP3 PUSH2 0x9EA JUMP JUMPDEST PUSH2 0x7EC DUP2 DUP6 PUSH2 0x9F5 JUMP JUMPDEST SWAP4 POP PUSH2 0x7FC DUP2 DUP6 PUSH1 0x20 DUP7 ADD PUSH2 0xA6D JUMP JUMPDEST PUSH2 0x805 DUP2 PUSH2 0xBED JUMP JUMPDEST DUP5 ADD SWAP2 POP POP SWAP3 SWAP2 POP POP JUMP JUMPDEST PUSH1 0x0 PUSH2 0x81B DUP3 PUSH2 0x9EA JUMP JUMPDEST PUSH2 0x825 DUP2 DUP6 PUSH2 0xA06 JUMP JUMPDEST SWAP4 POP PUSH2 0x835 DUP2 DUP6 PUSH1 0x20 DUP7 ADD PUSH2 0xA6D JUMP JUMPDEST PUSH2 0x83E DUP2 PUSH2 0xBED JUMP JUMPDEST DUP5 ADD SWAP2 POP POP SWAP3 SWAP2 POP POP JUMP JUMPDEST PUSH1 0x0 PUSH2 0x854 DUP3 PUSH2 0x9EA JUMP JUMPDEST PUSH2 0x85E DUP2 DUP6 PUSH2 0xA17 JUMP JUMPDEST SWAP4 POP PUSH2 0x86E DUP2 DUP6 PUSH1 0x20 DUP7 ADD PUSH2 0xA6D JUMP JUMPDEST DUP1 DUP5 ADD SWAP2 POP POP SWAP3 SWAP2 POP POP JUMP JUMPDEST PUSH1 0x0 PUSH1 0x60 DUP4 ADD PUSH1 0x0 DUP4 ADD MLOAD DUP5 DUP3 SUB PUSH1 0x0 DUP7 ADD MSTORE PUSH2 0x897 DUP3 DUP3 PUSH2 0x7D7 JUMP JUMPDEST SWAP2 POP POP PUSH1 0x20 DUP4 ADD MLOAD DUP5 DUP3 SUB PUSH1 0x20 DUP7 ADD MSTORE PUSH2 0x8B1 DUP3 DUP3 PUSH2 0x7D7 JUMP JUMPDEST SWAP2 POP POP PUSH1 0x40 DUP4 ADD MLOAD PUSH2 0x8C6 PUSH1 0x40 DUP7 ADD DUP3 PUSH2 0x7B9 JUMP JUMPDEST POP DUP1 SWAP2 POP POP SWAP3 SWAP2 POP POP JUMP JUMPDEST PUSH2 0x8DA DUP2 PUSH2 0xA54 JUMP JUMPDEST DUP3 MSTORE POP POP JUMP JUMPDEST PUSH1 0x0 PUSH2 0x8EC DUP3 DUP5 PUSH2 0x849 JUMP JUMPDEST SWAP2 POP DUP2 SWAP1 POP SWAP3 SWAP2 POP POP JUMP JUMPDEST PUSH1 0x0 PUSH1 0x20 DUP3 ADD SWAP1 POP PUSH2 0x90C PUSH1 0x0 DUP4 ADD DUP5 PUSH2 0x7C8 JUMP JUMPDEST SWAP3 SWAP2 POP POP JUMP JUMPDEST PUSH1 0x0 PUSH1 0x60 DUP3 ADD SWAP1 POP DUP2 DUP2 SUB PUSH1 0x0 DUP4 ADD MSTORE PUSH2 0x92C DUP2 DUP7 PUSH2 0x810 JUMP JUMPDEST SWAP1 POP DUP2 DUP2 SUB PUSH1 0x20 DUP4 ADD MSTORE PUSH2 0x940 DUP2 DUP6 PUSH2 0x810 JUMP JUMPDEST SWAP1 POP PUSH2 0x94F PUSH1 0x40 DUP4 ADD DUP5 PUSH2 0x7C8 JUMP JUMPDEST SWAP5 SWAP4 POP POP POP POP JUMP JUMPDEST PUSH1 0x0 PUSH1 0x20 DUP3 ADD SWAP1 POP DUP2 DUP2 SUB PUSH1 0x0 DUP4 ADD MSTORE PUSH2 0x971 DUP2 DUP5 PUSH2 0x87A JUMP JUMPDEST SWAP1 POP SWAP3 SWAP2 POP POP JUMP JUMPDEST PUSH1 0x0 PUSH1 0x20 DUP3 ADD SWAP1 POP PUSH2 0x98E PUSH1 0x0 DUP4 ADD DUP5 PUSH2 0x8D1 JUMP JUMPDEST SWAP3 SWAP2 POP POP JUMP JUMPDEST PUSH1 0x0 PUSH2 0x99E PUSH2 0x9AF JUMP JUMPDEST SWAP1 POP PUSH2 0x9AA DUP3 DUP3 PUSH2 0xAD2 JUMP JUMPDEST SWAP2 SWAP1 POP JUMP JUMPDEST PUSH1 0x0 PUSH1 0x40 MLOAD SWAP1 POP SWAP1 JUMP JUMPDEST PUSH1 0x0 PUSH8 0xFFFFFFFFFFFFFFFF DUP3 GT ISZERO PUSH2 0x9D4 JUMPI PUSH2 0x9D3 PUSH2 0xBAA JUMP JUMPDEST JUMPDEST PUSH2 0x9DD DUP3 PUSH2 0xBED JUMP JUMPDEST SWAP1 POP PUSH1 0x20 DUP2 ADD SWAP1 POP SWAP2 SWAP1 POP JUMP JUMPDEST PUSH1 0x0 DUP2 MLOAD SWAP1 POP SWAP2 SWAP1 POP JUMP JUMPDEST PUSH1 0x0 DUP3 DUP3 MSTORE PUSH1 0x20 DUP3 ADD SWAP1 POP SWAP3 SWAP2 POP POP JUMP JUMPDEST PUSH1 0x0 DUP3 DUP3 MSTORE PUSH1 0x20 DUP3 ADD SWAP1 POP SWAP3 SWAP2 POP POP JUMP JUMPDEST PUSH1 0x0 DUP2 SWAP1 POP SWAP3 SWAP2 POP POP JUMP JUMPDEST PUSH1 0x0 PUSH2 0xA2D DUP3 PUSH2 0xA34 JUMP JUMPDEST SWAP1 POP SWAP2 SWAP1 POP JUMP JUMPDEST PUSH1 0x0 PUSH20 0xFFFFFFFFFFFFFFFFFFFFFFFFFFFFFFFFFFFFFFFF DUP3 AND SWAP1 POP SWAP2 SWAP1 POP JUMP JUMPDEST PUSH1 0x0 DUP2 SWAP1 POP SWAP2 SWAP1 POP JUMP JUMPDEST DUP3 DUP2 DUP4 CALLDATACOPY PUSH1 0x0 DUP4 DUP4 ADD MSTORE POP POP POP JUMP JUMPDEST PUSH1 0x0 JUMPDEST DUP4 DUP2 LT ISZERO PUSH2 0xA8B JUMPI DUP1 DUP3 ADD MLOAD DUP2 DUP5 ADD MSTORE PUSH1 0x20 DUP2 ADD SWAP1 POP PUSH2 0xA70 JUMP JUMPDEST DUP4 DUP2 GT ISZERO PUSH2 0xA9A JUMPI PUSH1 0x0 DUP5 DUP5 ADD MSTORE JUMPDEST POP POP POP POP JUMP JUMPDEST PUSH1 0x0 PUSH1 0x2 DUP3 DIV SWAP1 POP PUSH1 0x1 DUP3 AND DUP1 PUSH2 0xAB8 JUMPI PUSH1 0x7F DUP3 AND SWAP2 POP JUMPDEST PUSH1 0x20 DUP3 LT DUP2 EQ ISZERO PUSH2 0xACC JUMPI PUSH2 0xACB PUSH2 0xB7B JUMP JUMPDEST JUMPDEST POP SWAP2 SWAP1 POP JUMP JUMPDEST PUSH2 0xADB DUP3 PUSH2 0xBED JUMP JUMPDEST DUP2 ADD DUP2 DUP2 LT PUSH8 0xFFFFFFFFFFFFFFFF DUP3 GT OR ISZERO PUSH2 0xAFA JUMPI PUSH2 0xAF9 PUSH2 0xBAA JUMP JUMPDEST JUMPDEST DUP1 PUSH1 0x40 MSTORE POP POP POP JUMP JUMPDEST PUSH1 0x0 PUSH2 0xB0E DUP3 PUSH2 0xA54 JUMP JUMPDEST SWAP2 POP PUSH32 0xFFFFFFFFFFFFFFFFFFFFFFFFFFFFFFFFFFFFFFFFFFFFFFFFFFFFFFFFFFFFFFFF DUP3 EQ ISZERO PUSH2 0xB41 JUMPI PUSH2 0xB40 PUSH2 0xB4C JUMP JUMPDEST JUMPDEST PUSH1 0x1 DUP3 ADD SWAP1 POP SWAP2 SWAP1 POP JUMP JUMPDEST PUSH32 0x4E487B7100000000000000000000000000000000000000000000000000000000 PUSH1 0x0 MSTORE PUSH1 0x11 PUSH1 0x4 MSTORE PUSH1 0x24 PUSH1 0x0 REVERT JUMPDEST PUSH32 0x4E487B7100000000000000000000000000000000000000000000000000000000 PUSH1 0x0 MSTORE PUSH1 0x22 PUSH1 0x4 MSTORE PUSH1 0x24 PUSH1 0x0 REVERT JUMPDEST PUSH32 0x4E487B7100000000000000000000000000000000000000000000000000000000 PUSH1 0x0 MSTORE PUSH1 0x41 PUSH1 0x4 MSTORE PUSH1 0x24 PUSH1 0x0 REVERT JUMPDEST PUSH1 0x0 DUP1 REVERT JUMPDEST PUSH1 0x0 DUP1 REVERT JUMPDEST PUSH1 0x0 DUP1 REVERT JUMPDEST PUSH1 0x0 DUP1 REVERT JUMPDEST PUSH1 0x0 PUSH1 0x1F NOT PUSH1 0x1F DUP4 ADD AND SWAP1 POP SWAP2 SWAP1 POP JUMP JUMPDEST PUSH2 0xC07 DUP2 PUSH2 0xA54 JUMP JUMPDEST DUP2 EQ PUSH2 0xC12 JUMPI PUSH1 0x0 DUP1 REVERT JUMPDEST POP JUMP INVALID LOG2 PUSH5 0x6970667358 0x22 SLT KECCAK256 DUP1 STATICCALL PUSH16 0xAC49EB84BCEC21AEE9DDEBB5729CC6C9 SWAP15 SWAP13 PUSH30 0xEF35B3C92EB332416A2064736F6C63430008070033000000000000000000 "
				},
				"gasEstimates": {
					"creation": {
						"codeDepositCost": "629400",
						"executionCost": "5670",
						"totalCost": "635070"
					},
					"external": {
						"counter()": "2451",
						"createPost(string,string)": "infinite",
						"posts(uint256)": "2817",
						"readPost(uint256)": "infinite",
						"userPosts(uint256)": "infinite"
					}
				},
				"methodIdentifiers": {
					"counter()": "61bc221a",
					"createPost(string,string)": "392338f5",
					"posts(uint256)": "0b1e7f83",
					"readPost(uint256)": "ca6f69f5",
					"userPosts(uint256)": "fdd6ea71"
				}
			},
			"storageLayout": {
				"storage": [
					{
						"astId": 4,
						"contract": "contracts/blog.sol:blog",
						"label": "counter",
						"offset": 0,
						"slot": "0",
						"type": "t_uint256"
					},
					{
						"astId": 21,
						"contract": "contracts/blog.sol:blog",
						"label": "posts",
						"offset": 0,
						"slot": "1",
						"type": "t_mapping(t_uint256,t_address)"
					},
					{
						"astId": 26,
						"contract": "contracts/blog.sol:blog",
						"label": "userPosts",
						"offset": 0,
						"slot": "2",
						"type": "t_mapping(t_uint256,t_struct(Post)17_storage)"
					}
				],
				"types": {
					"t_address": {
						"encoding": "inplace",
						"label": "address",
						"numberOfBytes": "20"
					},
					"t_mapping(t_uint256,t_address)": {
						"encoding": "mapping",
						"key": "t_uint256",
						"label": "mapping(uint256 => address)",
						"numberOfBytes": "32",
						"value": "t_address"
					},
					"t_mapping(t_uint256,t_struct(Post)17_storage)": {
						"encoding": "mapping",
						"key": "t_uint256",
						"label": "mapping(uint256 => struct blog.Post)",
						"numberOfBytes": "32",
						"value": "t_struct(Post)17_storage"
					},
					"t_string_storage": {
						"encoding": "bytes",
						"label": "string",
						"numberOfBytes": "32"
					},
					"t_struct(Post)17_storage": {
						"encoding": "inplace",
						"label": "struct blog.Post",
						"members": [
							{
								"astId": 12,
								"contract": "contracts/blog.sol:blog",
								"label": "title",
								"offset": 0,
								"slot": "0",
								"type": "t_string_storage"
							},
							{
								"astId": 14,
								"contract": "contracts/blog.sol:blog",
								"label": "description",
								"offset": 0,
								"slot": "1",
								"type": "t_string_storage"
							},
							{
								"astId": 16,
								"contract": "contracts/blog.sol:blog",
								"label": "user",
								"offset": 0,
								"slot": "2",
								"type": "t_address"
							}
						],
						"numberOfBytes": "96"
					},
					"t_uint256": {
						"encoding": "inplace",
						"label": "uint256",
						"numberOfBytes": "32"
					}
				}
			},
			"userdoc": {
				"kind": "user",
				"methods": {},
				"version": 1
			}
		}
	}
}