{
	"data": {
		"bytecode": {
			"linkReferences": {},
			"object": "608060405260006001553480156200001657600080fd5b5060405162000c1d38038062000c1d83398181016040528101906200003c91906200018a565b8060009080519060200190620000549291906200005c565b50506200035f565b8280546200006a9062000270565b90600052602060002090601f0160209004810192826200008e5760008555620000da565b82601f10620000a957805160ff1916838001178555620000da565b82800160010185558215620000da579182015b82811115620000d9578251825591602001919060010190620000bc565b5b509050620000e99190620000ed565b5090565b5b8082111562000108576000816000905550600101620000ee565b5090565b6000620001236200011d8462000204565b620001db565b9050828152602081018484840111156200014257620001416200033f565b5b6200014f8482856200023a565b509392505050565b600082601f8301126200016f576200016e6200033a565b5b8151620001818482602086016200010c565b91505092915050565b600060208284031215620001a357620001a262000349565b5b600082015167ffffffffffffffff811115620001c457620001c362000344565b5b620001d28482850162000157565b91505092915050565b6000620001e7620001fa565b9050620001f58282620002a6565b919050565b6000604051905090565b600067ffffffffffffffff8211156200022257620002216200030b565b5b6200022d826200034e565b9050602081019050919050565b60005b838110156200025a5780820151818401526020810190506200023d565b838111156200026a576000848401525b50505050565b600060028204905060018216806200028957607f821691505b60208210811415620002a0576200029f620002dc565b5b50919050565b620002b1826200034e565b810181811067ffffffffffffffff82111715620002d357620002d26200030b565b5b80604052505050565b7f4e487b7100000000000000000000000000000000000000000000000000000000600052602260045260246000fd5b7f4e487b7100000000000000000000000000000000000000000000000000000000600052604160045260246000fd5b600080fd5b600080fd5b600080fd5b600080fd5b6000601f19601f8301169050919050565b6108ae806200036f6000396000f3fe608060405234801561001057600080fd5b506004361061004c5760003560e01c806306fdde0314610051578063197ebd531461006f57806361bc221a146100a2578063c312f9d5146100c0575b600080fd5b6100596100dc565b6040516100669190610525565b60405180910390f35b610089600480360381019061008491906104a1565b61016a565b6040516100999493929190610547565b60405180910390f35b6100aa610235565b6040516100b79190610593565b60405180910390f35b6100da60048036038101906100d59190610432565b61023b565b005b600080546100e990610691565b80601f016020809104026020016040519081016040528092919081815260200182805461011590610691565b80156101625780601f1061013757610100808354040283529160200191610162565b820191906000526020600020905b81548152906001019060200180831161014557829003601f168201915b505050505081565b600281600b811061017a57600080fd5b6004020160009150905080600001805461019390610691565b80601f01602080910402602001604051908101604052809291908181526020018280546101bf90610691565b801561020c5780601f106101e15761010080835404028352916020019161020c565b820191906000526020600020905b8154815290600101906020018083116101ef57829003601f168201915b5050505050908060010154908060020154908060030160009054906101000a900460ff16905084565b60015481565b60405180608001604052808481526020018381526020018281526020016001600381111561026c5761026b61076c565b5b8152506002600154600b8110610285576102846107ca565b5b6004020160008201518160000190805190602001906102a592919061030a565b50602082015181600101556040820151816002015560608201518160030160006101000a81548160ff021916908360038111156102e5576102e461076c565b5b021790555090505060016000815480929190610300906106f4565b9190505550505050565b82805461031690610691565b90600052602060002090601f016020900481019282610338576000855561037f565b82601f1061035157805160ff191683800117855561037f565b8280016001018555821561037f579182015b8281111561037e578251825591602001919060010190610363565b5b50905061038c9190610390565b5090565b5b808211156103a9576000816000905550600101610391565b5090565b60006103c06103bb846105d3565b6105ae565b9050828152602081018484840111156103dc576103db61082d565b5b6103e784828561064f565b509392505050565b600082601f83011261040457610403610828565b5b81356104148482602086016103ad565b91505092915050565b60008135905061042c81610861565b92915050565b60008060006060848603121561044b5761044a610837565b5b600084013567ffffffffffffffff81111561046957610468610832565b5b610475868287016103ef565b93505060206104868682870161041d565b92505060406104978682870161041d565b9150509250925092565b6000602082840312156104b7576104b6610837565b5b60006104c58482850161041d565b91505092915050565b6104d78161063d565b82525050565b60006104e882610604565b6104f2818561060f565b935061050281856020860161065e565b61050b8161083c565b840191505092915050565b61051f81610633565b82525050565b6000602082019050818103600083015261053f81846104dd565b905092915050565b6000608082019050818103600083015261056181876104dd565b90506105706020830186610516565b61057d6040830185610516565b61058a60608301846104ce565b95945050505050565b60006020820190506105a86000830184610516565b92915050565b60006105b86105c9565b90506105c482826106c3565b919050565b6000604051905090565b600067ffffffffffffffff8211156105ee576105ed6107f9565b5b6105f78261083c565b9050602081019050919050565b600081519050919050565b600082825260208201905092915050565b600081905061062e8261084d565b919050565b6000819050919050565b600061064882610620565b9050919050565b82818337600083830152505050565b60005b8381101561067c578082015181840152602081019050610661565b8381111561068b576000848401525b50505050565b600060028204905060018216806106a957607f821691505b602082108114156106bd576106bc61079b565b5b50919050565b6106cc8261083c565b810181811067ffffffffffffffff821117156106eb576106ea6107f9565b5b80604052505050565b60006106ff82610633565b91507fffffffffffffffffffffffffffffffffffffffffffffffffffffffffffffffff8214156107325761073161073d565b5b600182019050919050565b7f4e487b7100000000000000000000000000000000000000000000000000000000600052601160045260246000fd5b7f4e487b7100000000000000000000000000000000000000000000000000000000600052602160045260246000fd5b7f4e487b7100000000000000000000000000000000000000000000000000000000600052602260045260246000fd5b7f4e487b7100000000000000000000000000000000000000000000000000000000600052603260045260246000fd5b7f4e487b7100000000000000000000000000000000000000000000000000000000600052604160045260246000fd5b600080fd5b600080fd5b600080fd5b600080fd5b6000601f19601f8301169050919050565b6004811061085e5761085d61076c565b5b50565b61086a81610633565b811461087557600080fd5b5056fea2646970667358221220c9b00d21d1a165d17622570ac5b6683ef1d932336aaa408db94cfc485c1ecd9764736f6c63430008070033",
			"opcodes": "PUSH1 0x80 PUSH1 0x40 MSTORE PUSH1 0x0 PUSH1 0x1 SSTORE CALLVALUE DUP1 ISZERO PUSH3 0x16 JUMPI PUSH1 0x0 DUP1 REVERT JUMPDEST POP PUSH1 0x40 MLOAD PUSH3 0xC1D CODESIZE SUB DUP1 PUSH3 0xC1D DUP4 CODECOPY DUP2 DUP2 ADD PUSH1 0x40 MSTORE DUP2 ADD SWAP1 PUSH3 0x3C SWAP2 SWAP1 PUSH3 0x18A JUMP JUMPDEST DUP1 PUSH1 0x0 SWAP1 DUP1 MLOAD SWAP1 PUSH1 0x20 ADD SWAP1 PUSH3 0x54 SWAP3 SWAP2 SWAP1 PUSH3 0x5C JUMP JUMPDEST POP POP PUSH3 0x35F JUMP JUMPDEST DUP3 DUP1 SLOAD PUSH3 0x6A SWAP1 PUSH3 0x270 JUMP JUMPDEST SWAP1 PUSH1 0x0 MSTORE PUSH1 0x20 PUSH1 0x0 KECCAK256 SWAP1 PUSH1 0x1F ADD PUSH1 0x20 SWAP1 DIV DUP2 ADD SWAP3 DUP3 PUSH3 0x8E JUMPI PUSH1 0x0 DUP6 SSTORE PUSH3 0xDA JUMP JUMPDEST DUP3 PUSH1 0x1F LT PUSH3 0xA9 JUMPI DUP1 MLOAD PUSH1 0xFF NOT AND DUP4 DUP1 ADD OR DUP6 SSTORE PUSH3 0xDA JUMP JUMPDEST DUP3 DUP1 ADD PUSH1 0x1 ADD DUP6 SSTORE DUP3 ISZERO PUSH3 0xDA JUMPI SWAP2 DUP3 ADD JUMPDEST DUP3 DUP2 GT ISZERO PUSH3 0xD9 JUMPI DUP3 MLOAD DUP3 SSTORE SWAP2 PUSH1 0x20 ADD SWAP2 SWAP1 PUSH1 0x1 ADD SWAP1 PUSH3 0xBC JUMP JUMPDEST JUMPDEST POP SWAP1 POP PUSH3 0xE9 SWAP2 SWAP1 PUSH3 0xED JUMP JUMPDEST POP SWAP1 JUMP JUMPDEST JUMPDEST DUP1 DUP3 GT ISZERO PUSH3 0x108 JUMPI PUSH1 0x0 DUP2 PUSH1 0x0 SWAP1 SSTORE POP PUSH1 0x1 ADD PUSH3 0xEE JUMP JUMPDEST POP SWAP1 JUMP JUMPDEST PUSH1 0x0 PUSH3 0x123 PUSH3 0x11D DUP5 PUSH3 0x204 JUMP JUMPDEST PUSH3 0x1DB JUMP JUMPDEST SWAP1 POP DUP3 DUP2 MSTORE PUSH1 0x20 DUP2 ADD DUP5 DUP5 DUP5 ADD GT ISZERO PUSH3 0x142 JUMPI PUSH3 0x141 PUSH3 0x33F JUMP JUMPDEST JUMPDEST PUSH3 0x14F DUP5 DUP3 DUP6 PUSH3 0x23A JUMP JUMPDEST POP SWAP4 SWAP3 POP POP POP JUMP JUMPDEST PUSH1 0x0 DUP3 PUSH1 0x1F DUP4 ADD SLT PUSH3 0x16F JUMPI PUSH3 0x16E PUSH3 0x33A JUMP JUMPDEST JUMPDEST DUP2 MLOAD PUSH3 0x181 DUP5 DUP3 PUSH1 0x20 DUP7 ADD PUSH3 0x10C JUMP JUMPDEST SWAP2 POP POP SWAP3 SWAP2 POP POP JUMP JUMPDEST PUSH1 0x0 PUSH1 0x20 DUP3 DUP5 SUB SLT ISZERO PUSH3 0x1A3 JUMPI PUSH3 0x1A2 PUSH3 0x349 JUMP JUMPDEST JUMPDEST PUSH1 0x0 DUP3 ADD MLOAD PUSH8 0xFFFFFFFFFFFFFFFF DUP2 GT ISZERO PUSH3 0x1C4 JUMPI PUSH3 0x1C3 PUSH3 0x344 JUMP JUMPDEST JUMPDEST PUSH3 0x1D2 DUP5 DUP3 DUP6 ADD PUSH3 0x157 JUMP JUMPDEST SWAP2 POP POP SWAP3 SWAP2 POP POP JUMP JUMPDEST PUSH1 0x0 PUSH3 0x1E7 PUSH3 0x1FA JUMP JUMPDEST SWAP1 POP PUSH3 0x1F5 DUP3 DUP3 PUSH3 0x2A6 JUMP JUMPDEST SWAP2 SWAP1 POP JUMP JUMPDEST PUSH1 0x0 PUSH1 0x40 MLOAD SWAP1 POP SWAP1 JUMP JUMPDEST PUSH1 0x0 PUSH8 0xFFFFFFFFFFFFFFFF DUP3 GT ISZERO PUSH3 0x222 JUMPI PUSH3 0x221 PUSH3 0x30B JUMP JUMPDEST JUMPDEST PUSH3 0x22D DUP3 PUSH3 0x34E JUMP JUMPDEST SWAP1 POP PUSH1 0x20 DUP2 ADD SWAP1 POP SWAP2 SWAP1 POP JUMP JUMPDEST PUSH1 0x0 JUMPDEST DUP4 DUP2 LT ISZERO PUSH3 0x25A JUMPI DUP1 DUP3 ADD MLOAD DUP2 DUP5 ADD MSTORE PUSH1 0x20 DUP2 ADD SWAP1 POP PUSH3 0x23D JUMP JUMPDEST DUP4 DUP2 GT ISZERO PUSH3 0x26A JUMPI PUSH1 0x0 DUP5 DUP5 ADD MSTORE JUMPDEST POP POP POP POP JUMP JUMPDEST PUSH1 0x0 PUSH1 0x2 DUP3 DIV SWAP1 POP PUSH1 0x1 DUP3 AND DUP1 PUSH3 0x289 JUMPI PUSH1 0x7F DUP3 AND SWAP2 POP JUMPDEST PUSH1 0x20 DUP3 LT DUP2 EQ ISZERO PUSH3 0x2A0 JUMPI PUSH3 0x29F PUSH3 0x2DC JUMP JUMPDEST JUMPDEST POP SWAP2 SWAP1 POP JUMP JUMPDEST PUSH3 0x2B1 DUP3 PUSH3 0x34E JUMP JUMPDEST DUP2 ADD DUP2 DUP2 LT PUSH8 0xFFFFFFFFFFFFFFFF DUP3 GT OR ISZERO PUSH3 0x2D3 JUMPI PUSH3 0x2D2 PUSH3 0x30B JUMP JUMPDEST JUMPDEST DUP1 PUSH1 0x40 MSTORE POP POP POP JUMP JUMPDEST PUSH32 0x4E487B7100000000000000000000000000000000000000000000000000000000 PUSH1 0x0 MSTORE PUSH1 0x22 PUSH1 0x4 MSTORE PUSH1 0x24 PUSH1 0x0 REVERT JUMPDEST PUSH32 0x4E487B7100000000000000000000000000000000000000000000000000000000 PUSH1 0x0 MSTORE PUSH1 0x41 PUSH1 0x4 MSTORE PUSH1 0x24 PUSH1 0x0 REVERT JUMPDEST PUSH1 0x0 DUP1 REVERT JUMPDEST PUSH1 0x0 DUP1 REVERT JUMPDEST PUSH1 0x0 DUP1 REVERT JUMPDEST PUSH1 0x0 DUP1 REVERT JUMPDEST PUSH1 0x0 PUSH1 0x1F NOT PUSH1 0x1F DUP4 ADD AND SWAP1 POP SWAP2 SWAP1 POP JUMP JUMPDEST PUSH2 0x8AE DUP1 PUSH3 0x36F PUSH1 0x0 CODECOPY PUSH1 0x0 RETURN INVALID PUSH1 0x80 PUSH1 0x40 MSTORE CALLVALUE DUP1 ISZERO PUSH2 0x10 JUMPI PUSH1 0x0 DUP1 REVERT JUMPDEST POP PUSH1 0x4 CALLDATASIZE LT PUSH2 0x4C JUMPI PUSH1 0x0 CALLDATALOAD PUSH1 0xE0 SHR DUP1 PUSH4 0x6FDDE03 EQ PUSH2 0x51 JUMPI DUP1 PUSH4 0x197EBD53 EQ PUSH2 0x6F JUMPI DUP1 PUSH4 0x61BC221A EQ PUSH2 0xA2 JUMPI DUP1 PUSH4 0xC312F9D5 EQ PUSH2 0xC0 JUMPI JUMPDEST PUSH1 0x0 DUP1 REVERT JUMPDEST PUSH2 0x59 PUSH2 0xDC JUMP JUMPDEST PUSH1 0x40 MLOAD PUSH2 0x66 SWAP2 SWAP1 PUSH2 0x525 JUMP JUMPDEST PUSH1 0x40 MLOAD DUP1 SWAP2 SUB SWAP1 RETURN JUMPDEST PUSH2 0x89 PUSH1 0x4 DUP1 CALLDATASIZE SUB DUP2 ADD SWAP1 PUSH2 0x84 SWAP2 SWAP1 PUSH2 0x4A1 JUMP JUMPDEST PUSH2 0x16A JUMP JUMPDEST PUSH1 0x40 MLOAD PUSH2 0x99 SWAP5 SWAP4 SWAP3 SWAP2 SWAP1 PUSH2 0x547 JUMP JUMPDEST PUSH1 0x40 MLOAD DUP1 SWAP2 SUB SWAP1 RETURN JUMPDEST PUSH2 0xAA PUSH2 0x235 JUMP JUMPDEST PUSH1 0x40 MLOAD PUSH2 0xB7 SWAP2 SWAP1 PUSH2 0x593 JUMP JUMPDEST PUSH1 0x40 MLOAD DUP1 SWAP2 SUB SWAP1 RETURN JUMPDEST PUSH2 0xDA PUSH1 0x4 DUP1 CALLDATASIZE SUB DUP2 ADD SWAP1 PUSH2 0xD5 SWAP2 SWAP1 PUSH2 0x432 JUMP JUMPDEST PUSH2 0x23B JUMP JUMPDEST STOP JUMPDEST PUSH1 0x0 DUP1 SLOAD PUSH2 0xE9 SWAP1 PUSH2 0x691 JUMP JUMPDEST DUP1 PUSH1 0x1F ADD PUSH1 0x20 DUP1 SWAP2 DIV MUL PUSH1 0x20 ADD PUSH1 0x40 MLOAD SWAP1 DUP2 ADD PUSH1 0x40 MSTORE DUP1 SWAP3 SWAP2 SWAP1 DUP2 DUP2 MSTORE PUSH1 0x20 ADD DUP3 DUP1 SLOAD PUSH2 0x115 SWAP1 PUSH2 0x691 JUMP JUMPDEST DUP1 ISZERO PUSH2 0x162 JUMPI DUP1 PUSH1 0x1F LT PUSH2 0x137 JUMPI PUSH2 0x100 DUP1 DUP4 SLOAD DIV MUL DUP4 MSTORE SWAP2 PUSH1 0x20 ADD SWAP2 PUSH2 0x162 JUMP JUMPDEST DUP3 ADD SWAP2 SWAP1 PUSH1 0x0 MSTORE PUSH1 0x20 PUSH1 0x0 KECCAK256 SWAP1 JUMPDEST DUP2 SLOAD DUP2 MSTORE SWAP1 PUSH1 0x1 ADD SWAP1 PUSH1 0x20 ADD DUP1 DUP4 GT PUSH2 0x145 JUMPI DUP3 SWAP1 SUB PUSH1 0x1F AND DUP3 ADD SWAP2 JUMPDEST POP POP POP POP POP DUP2 JUMP JUMPDEST PUSH1 0x2 DUP2 PUSH1 0xB DUP2 LT PUSH2 0x17A JUMPI PUSH1 0x0 DUP1 REVERT JUMPDEST PUSH1 0x4 MUL ADD PUSH1 0x0 SWAP2 POP SWAP1 POP DUP1 PUSH1 0x0 ADD DUP1 SLOAD PUSH2 0x193 SWAP1 PUSH2 0x691 JUMP JUMPDEST DUP1 PUSH1 0x1F ADD PUSH1 0x20 DUP1 SWAP2 DIV MUL PUSH1 0x20 ADD PUSH1 0x40 MLOAD SWAP1 DUP2 ADD PUSH1 0x40 MSTORE DUP1 SWAP3 SWAP2 SWAP1 DUP2 DUP2 MSTORE PUSH1 0x20 ADD DUP3 DUP1 SLOAD PUSH2 0x1BF SWAP1 PUSH2 0x691 JUMP JUMPDEST DUP1 ISZERO PUSH2 0x20C JUMPI DUP1 PUSH1 0x1F LT PUSH2 0x1E1 JUMPI PUSH2 0x100 DUP1 DUP4 SLOAD DIV MUL DUP4 MSTORE SWAP2 PUSH1 0x20 ADD SWAP2 PUSH2 0x20C JUMP JUMPDEST DUP3 ADD SWAP2 SWAP1 PUSH1 0x0 MSTORE PUSH1 0x20 PUSH1 0x0 KECCAK256 SWAP1 JUMPDEST DUP2 SLOAD DUP2 MSTORE SWAP1 PUSH1 0x1 ADD SWAP1 PUSH1 0x20 ADD DUP1 DUP4 GT PUSH2 0x1EF JUMPI DUP3 SWAP1 SUB PUSH1 0x1F AND DUP3 ADD SWAP2 JUMPDEST POP POP POP POP POP SWAP1 DUP1 PUSH1 0x1 ADD SLOAD SWAP1 DUP1 PUSH1 0x2 ADD SLOAD SWAP1 DUP1 PUSH1 0x3 ADD PUSH1 0x0 SWAP1 SLOAD SWAP1 PUSH2 0x100 EXP SWAP1 DIV PUSH1 0xFF AND SWAP1 POP DUP5 JUMP JUMPDEST PUSH1 0x1 SLOAD DUP2 JUMP JUMPDEST PUSH1 0x40 MLOAD DUP1 PUSH1 0x80 ADD PUSH1 0x40 MSTORE DUP1 DUP5 DUP2 MSTORE PUSH1 0x20 ADD DUP4 DUP2 MSTORE PUSH1 0x20 ADD DUP3 DUP2 MSTORE PUSH1 0x20 ADD PUSH1 0x1 PUSH1 0x3 DUP2 GT ISZERO PUSH2 0x26C JUMPI PUSH2 0x26B PUSH2 0x76C JUMP JUMPDEST JUMPDEST DUP2 MSTORE POP PUSH1 0x2 PUSH1 0x1 SLOAD PUSH1 0xB DUP2 LT PUSH2 0x285 JUMPI PUSH2 0x284 PUSH2 0x7CA JUMP JUMPDEST JUMPDEST PUSH1 0x4 MUL ADD PUSH1 0x0 DUP3 ADD MLOAD DUP2 PUSH1 0x0 ADD SWAP1 DUP1 MLOAD SWAP1 PUSH1 0x20 ADD SWAP1 PUSH2 0x2A5 SWAP3 SWAP2 SWAP1 PUSH2 0x30A JUMP JUMPDEST POP PUSH1 0x20 DUP3 ADD MLOAD DUP2 PUSH1 0x1 ADD SSTORE PUSH1 0x40 DUP3 ADD MLOAD DUP2 PUSH1 0x2 ADD SSTORE PUSH1 0x60 DUP3 ADD MLOAD DUP2 PUSH1 0x3 ADD PUSH1 0x0 PUSH2 0x100 EXP DUP2 SLOAD DUP2 PUSH1 0xFF MUL NOT AND SWAP1 DUP4 PUSH1 0x3 DUP2 GT ISZERO PUSH2 0x2E5 JUMPI PUSH2 0x2E4 PUSH2 0x76C JUMP JUMPDEST JUMPDEST MUL OR SWAP1 SSTORE POP SWAP1 POP POP PUSH1 0x1 PUSH1 0x0 DUP2 SLOAD DUP1 SWAP3 SWAP2 SWAP1 PUSH2 0x300 SWAP1 PUSH2 0x6F4 JUMP JUMPDEST SWAP2 SWAP1 POP SSTORE POP POP POP POP JUMP JUMPDEST DUP3 DUP1 SLOAD PUSH2 0x316 SWAP1 PUSH2 0x691 JUMP JUMPDEST SWAP1 PUSH1 0x0 MSTORE PUSH1 0x20 PUSH1 0x0 KECCAK256 SWAP1 PUSH1 0x1F ADD PUSH1 0x20 SWAP1 DIV DUP2 ADD SWAP3 DUP3 PUSH2 0x338 JUMPI PUSH1 0x0 DUP6 SSTORE PUSH2 0x37F JUMP JUMPDEST DUP3 PUSH1 0x1F LT PUSH2 0x351 JUMPI DUP1 MLOAD PUSH1 0xFF NOT AND DUP4 DUP1 ADD OR DUP6 SSTORE PUSH2 0x37F JUMP JUMPDEST DUP3 DUP1 ADD PUSH1 0x1 ADD DUP6 SSTORE DUP3 ISZERO PUSH2 0x37F JUMPI SWAP2 DUP3 ADD JUMPDEST DUP3 DUP2 GT ISZERO PUSH2 0x37E JUMPI DUP3 MLOAD DUP3 SSTORE SWAP2 PUSH1 0x20 ADD SWAP2 SWAP1 PUSH1 0x1 ADD SWAP1 PUSH2 0x363 JUMP JUMPDEST JUMPDEST POP SWAP1 POP PUSH2 0x38C SWAP2 SWAP1 PUSH2 0x390 JUMP JUMPDEST POP SWAP1 JUMP JUMPDEST JUMPDEST DUP1 DUP3 GT ISZERO PUSH2 0x3A9 JUMPI PUSH1 0x0 DUP2 PUSH1 0x0 SWAP1 SSTORE POP PUSH1 0x1 ADD PUSH2 0x391 JUMP JUMPDEST POP SWAP1 JUMP JUMPDEST PUSH1 0x0 PUSH2 0x3C0 PUSH2 0x3BB DUP5 PUSH2 0x5D3 JUMP JUMPDEST PUSH2 0x5AE JUMP JUMPDEST SWAP1 POP DUP3 DUP2 MSTORE PUSH1 0x20 DUP2 ADD DUP5 DUP5 DUP5 ADD GT ISZERO PUSH2 0x3DC JUMPI PUSH2 0x3DB PUSH2 0x82D JUMP JUMPDEST JUMPDEST PUSH2 0x3E7 DUP5 DUP3 DUP6 PUSH2 0x64F JUMP JUMPDEST POP SWAP4 SWAP3 POP POP POP JUMP JUMPDEST PUSH1 0x0 DUP3 PUSH1 0x1F DUP4 ADD SLT PUSH2 0x404 JUMPI PUSH2 0x403 PUSH2 0x828 JUMP JUMPDEST JUMPDEST DUP2 CALLDATALOAD PUSH2 0x414 DUP5 DUP3 PUSH1 0x20 DUP7 ADD PUSH2 0x3AD JUMP JUMPDEST SWAP2 POP POP SWAP3 SWAP2 POP POP JUMP JUMPDEST PUSH1 0x0 DUP2 CALLDATALOAD SWAP1 POP PUSH2 0x42C DUP2 PUSH2 0x861 JUMP JUMPDEST SWAP3 SWAP2 POP POP JUMP JUMPDEST PUSH1 0x0 DUP1 PUSH1 0x0 PUSH1 0x60 DUP5 DUP7 SUB SLT ISZERO PUSH2 0x44B JUMPI PUSH2 0x44A PUSH2 0x837 JUMP JUMPDEST JUMPDEST PUSH1 0x0 DUP5 ADD CALLDATALOAD PUSH8 0xFFFFFFFFFFFFFFFF DUP2 GT ISZERO PUSH2 0x469 JUMPI PUSH2 0x468 PUSH2 0x832 JUMP JUMPDEST JUMPDEST PUSH2 0x475 DUP7 DUP3 DUP8 ADD PUSH2 0x3EF JUMP JUMPDEST SWAP4 POP POP PUSH1 0x20 PUSH2 0x486 DUP7 DUP3 DUP8 ADD PUSH2 0x41D JUMP JUMPDEST SWAP3 POP POP PUSH1 0x40 PUSH2 0x497 DUP7 DUP3 DUP8 ADD PUSH2 0x41D JUMP JUMPDEST SWAP2 POP POP SWAP3 POP SWAP3 POP SWAP3 JUMP JUMPDEST PUSH1 0x0 PUSH1 0x20 DUP3 DUP5 SUB SLT ISZERO PUSH2 0x4B7 JUMPI PUSH2 0x4B6 PUSH2 0x837 JUMP JUMPDEST JUMPDEST PUSH1 0x0 PUSH2 0x4C5 DUP5 DUP3 DUP6 ADD PUSH2 0x41D JUMP JUMPDEST SWAP2 POP POP SWAP3 SWAP2 POP POP JUMP JUMPDEST PUSH2 0x4D7 DUP2 PUSH2 0x63D JUMP JUMPDEST DUP3 MSTORE POP POP JUMP JUMPDEST PUSH1 0x0 PUSH2 0x4E8 DUP3 PUSH2 0x604 JUMP JUMPDEST PUSH2 0x4F2 DUP2 DUP6 PUSH2 0x60F JUMP JUMPDEST SWAP4 POP PUSH2 0x502 DUP2 DUP6 PUSH1 0x20 DUP7 ADD PUSH2 0x65E JUMP JUMPDEST PUSH2 0x50B DUP2 PUSH2 0x83C JUMP JUMPDEST DUP5 ADD SWAP2 POP POP SWAP3 SWAP2 POP POP JUMP JUMPDEST PUSH2 0x51F DUP2 PUSH2 0x633 JUMP JUMPDEST DUP3 MSTORE POP POP JUMP JUMPDEST PUSH1 0x0 PUSH1 0x20 DUP3 ADD SWAP1 POP DUP2 DUP2 SUB PUSH1 0x0 DUP4 ADD MSTORE PUSH2 0x53F DUP2 DUP5 PUSH2 0x4DD JUMP JUMPDEST SWAP1 POP SWAP3 SWAP2 POP POP JUMP JUMPDEST PUSH1 0x0 PUSH1 0x80 DUP3 ADD SWAP1 POP DUP2 DUP2 SUB PUSH1 0x0 DUP4 ADD MSTORE PUSH2 0x561 DUP2 DUP8 PUSH2 0x4DD JUMP JUMPDEST SWAP1 POP PUSH2 0x570 PUSH1 0x20 DUP4 ADD DUP7 PUSH2 0x516 JUMP JUMPDEST PUSH2 0x57D PUSH1 0x40 DUP4 ADD DUP6 PUSH2 0x516 JUMP JUMPDEST PUSH2 0x58A PUSH1 0x60 DUP4 ADD DUP5 PUSH2 0x4CE JUMP JUMPDEST SWAP6 SWAP5 POP POP POP POP POP JUMP JUMPDEST PUSH1 0x0 PUSH1 0x20 DUP3 ADD SWAP1 POP PUSH2 0x5A8 PUSH1 0x0 DUP4 ADD DUP5 PUSH2 0x516 JUMP JUMPDEST SWAP3 SWAP2 POP POP JUMP JUMPDEST PUSH1 0x0 PUSH2 0x5B8 PUSH2 0x5C9 JUMP JUMPDEST SWAP1 POP PUSH2 0x5C4 DUP3 DUP3 PUSH2 0x6C3 JUMP JUMPDEST SWAP2 SWAP1 POP JUMP JUMPDEST PUSH1 0x0 PUSH1 0x40 MLOAD SWAP1 POP SWAP1 JUMP JUMPDEST PUSH1 0x0 PUSH8 0xFFFFFFFFFFFFFFFF DUP3 GT ISZERO PUSH2 0x5EE JUMPI PUSH2 0x5ED PUSH2 0x7F9 JUMP JUMPDEST JUMPDEST PUSH2 0x5F7 DUP3 PUSH2 0x83C JUMP JUMPDEST SWAP1 POP PUSH1 0x20 DUP2 ADD SWAP1 POP SWAP2 SWAP1 POP JUMP JUMPDEST PUSH1 0x0 DUP2 MLOAD SWAP1 POP SWAP2 SWAP1 POP JUMP JUMPDEST PUSH1 0x0 DUP3 DUP3 MSTORE PUSH1 0x20 DUP3 ADD SWAP1 POP SWAP3 SWAP2 POP POP JUMP JUMPDEST PUSH1 0x0 DUP2 SWAP1 POP PUSH2 0x62E DUP3 PUSH2 0x84D JUMP JUMPDEST SWAP2 SWAP1 POP JUMP JUMPDEST PUSH1 0x0 DUP2 SWAP1 POP SWAP2 SWAP1 POP JUMP JUMPDEST PUSH1 0x0 PUSH2 0x648 DUP3 PUSH2 0x620 JUMP JUMPDEST SWAP1 POP SWAP2 SWAP1 POP JUMP JUMPDEST DUP3 DUP2 DUP4 CALLDATACOPY PUSH1 0x0 DUP4 DUP4 ADD MSTORE POP POP POP JUMP JUMPDEST PUSH1 0x0 JUMPDEST DUP4 DUP2 LT ISZERO PUSH2 0x67C JUMPI DUP1 DUP3 ADD MLOAD DUP2 DUP5 ADD MSTORE PUSH1 0x20 DUP2 ADD SWAP1 POP PUSH2 0x661 JUMP JUMPDEST DUP4 DUP2 GT ISZERO PUSH2 0x68B JUMPI PUSH1 0x0 DUP5 DUP5 ADD MSTORE JUMPDEST POP POP POP POP JUMP JUMPDEST PUSH1 0x0 PUSH1 0x2 DUP3 DIV SWAP1 POP PUSH1 0x1 DUP3 AND DUP1 PUSH2 0x6A9 JUMPI PUSH1 0x7F DUP3 AND SWAP2 POP JUMPDEST PUSH1 0x20 DUP3 LT DUP2 EQ ISZERO PUSH2 0x6BD JUMPI PUSH2 0x6BC PUSH2 0x79B JUMP JUMPDEST JUMPDEST POP SWAP2 SWAP1 POP JUMP JUMPDEST PUSH2 0x6CC DUP3 PUSH2 0x83C JUMP JUMPDEST DUP2 ADD DUP2 DUP2 LT PUSH8 0xFFFFFFFFFFFFFFFF DUP3 GT OR ISZERO PUSH2 0x6EB JUMPI PUSH2 0x6EA PUSH2 0x7F9 JUMP JUMPDEST JUMPDEST DUP1 PUSH1 0x40 MSTORE POP POP POP JUMP JUMPDEST PUSH1 0x0 PUSH2 0x6FF DUP3 PUSH2 0x633 JUMP JUMPDEST SWAP2 POP PUSH32 0xFFFFFFFFFFFFFFFFFFFFFFFFFFFFFFFFFFFFFFFFFFFFFFFFFFFFFFFFFFFFFFFF DUP3 EQ ISZERO PUSH2 0x732 JUMPI PUSH2 0x731 PUSH2 0x73D JUMP JUMPDEST JUMPDEST PUSH1 0x1 DUP3 ADD SWAP1 POP SWAP2 SWAP1 POP JUMP JUMPDEST PUSH32 0x4E487B7100000000000000000000000000000000000000000000000000000000 PUSH1 0x0 MSTORE PUSH1 0x11 PUSH1 0x4 MSTORE PUSH1 0x24 PUSH1 0x0 REVERT JUMPDEST PUSH32 0x4E487B7100000000000000000000000000000000000000000000000000000000 PUSH1 0x0 MSTORE PUSH1 0x21 PUSH1 0x4 MSTORE PUSH1 0x24 PUSH1 0x0 REVERT JUMPDEST PUSH32 0x4E487B7100000000000000000000000000000000000000000000000000000000 PUSH1 0x0 MSTORE PUSH1 0x22 PUSH1 0x4 MSTORE PUSH1 0x24 PUSH1 0x0 REVERT JUMPDEST PUSH32 0x4E487B7100000000000000000000000000000000000000000000000000000000 PUSH1 0x0 MSTORE PUSH1 0x32 PUSH1 0x4 MSTORE PUSH1 0x24 PUSH1 0x0 REVERT JUMPDEST PUSH32 0x4E487B7100000000000000000000000000000000000000000000000000000000 PUSH1 0x0 MSTORE PUSH1 0x41 PUSH1 0x4 MSTORE PUSH1 0x24 PUSH1 0x0 REVERT JUMPDEST PUSH1 0x0 DUP1 REVERT JUMPDEST PUSH1 0x0 DUP1 REVERT JUMPDEST PUSH1 0x0 DUP1 REVERT JUMPDEST PUSH1 0x0 DUP1 REVERT JUMPDEST PUSH1 0x0 PUSH1 0x1F NOT PUSH1 0x1F DUP4 ADD AND SWAP1 POP SWAP2 SWAP1 POP JUMP JUMPDEST PUSH1 0x4 DUP2 LT PUSH2 0x85E JUMPI PUSH2 0x85D PUSH2 0x76C JUMP JUMPDEST JUMPDEST POP JUMP JUMPDEST PUSH2 0x86A DUP2 PUSH2 0x633 JUMP JUMPDEST DUP2 EQ PUSH2 0x875 JUMPI PUSH1 0x0 DUP1 REVERT JUMPDEST POP JUMP INVALID LOG2 PUSH5 0x6970667358 0x22 SLT KECCAK256 0xC9 0xB0 0xD 0x21 0xD1 LOG1 PUSH6 0xD17622570AC5 0xB6 PUSH9 0x3EF1D932336AAA408D 0xB9 0x4C 0xFC BASEFEE 0x5C 0x1E 0xCD SWAP8 PUSH5 0x736F6C6343 STOP ADDMOD SMOD STOP CALLER "
		},
		"gasEstimates": {
			"creation": {
				"codeDepositCost": "444400",
				"executionCost": "infinite",
				"totalCost": "infinite"
			},
			"external": {
				"addPlayer(string,uint256,uint256)": "infinite",
				"counter()": "2451",
				"name()": "infinite",
				"team(uint256)": "infinite"
			}
		},
		"methodIdentifiers": {
			"addPlayer(string,uint256,uint256)": "c312f9d5",
			"counter()": "61bc221a",
			"name()": "06fdde03",
			"team(uint256)": "197ebd53"
		}
	},
	"abi": [
		{
			"inputs": [
				{
					"internalType": "string",
					"name": "_name",
					"type": "string"
				}
			],
			"stateMutability": "nonpayable",
			"type": "constructor"
		},
		{
			"inputs": [
				{
					"internalType": "string",
					"name": "_name",
					"type": "string"
				},
				{
					"internalType": "uint256",
					"name": "_height",
					"type": "uint256"
				},
				{
					"internalType": "uint256",
					"name": "_age",
					"type": "uint256"
				}
			],
			"name": "addPlayer",
			"outputs": [],
			"stateMutability": "nonpayable",
			"type": "function"
		},
		{
			"inputs": [],
			"name": "counter",
			"outputs": [
				{
					"internalType": "uint256",
					"name": "",
					"type": "uint256"
				}
			],
			"stateMutability": "view",
			"type": "function"
		},
		{
			"inputs": [],
			"name": "name",
			"outputs": [
				{
					"internalType": "string",
					"name": "",
					"type": "string"
				}
			],
			"stateMutability": "view",
			"type": "function"
		},
		{
			"inputs": [
				{
					"internalType": "uint256",
					"name": "",
					"type": "uint256"
				}
			],
			"name": "team",
			"outputs": [
				{
					"internalType": "string",
					"name": "name",
					"type": "string"
				},
				{
					"internalType": "uint256",
					"name": "height",
					"type": "uint256"
				},
				{
					"internalType": "uint256",
					"name": "age",
					"type": "uint256"
				},
				{
					"internalType": "enum FootballTeam.PlayerPosition",
					"name": "position",
					"type": "uint8"
				}
			],
			"stateMutability": "view",
			"type": "function"
		}
	]
}